{
	"src/token.sol": {
		"EqualFiToken": {
			"abi": [
				{
					"inputs": [],
					"stateMutability": "nonpayable",
					"type": "constructor"
				},
				{
					"inputs": [],
					"name": "AccessControlBadConfirmation",
					"type": "error"
				},
				{
					"inputs": [
						{
							"internalType": "address",
							"name": "account",
							"type": "address"
						},
						{
							"internalType": "bytes32",
							"name": "neededRole",
							"type": "bytes32"
						}
					],
					"name": "AccessControlUnauthorizedAccount",
					"type": "error"
				},
				{
					"inputs": [
						{
							"internalType": "address",
							"name": "spender",
							"type": "address"
						},
						{
							"internalType": "uint256",
							"name": "allowance",
							"type": "uint256"
						},
						{
							"internalType": "uint256",
							"name": "needed",
							"type": "uint256"
						}
					],
					"name": "ERC20InsufficientAllowance",
					"type": "error"
				},
				{
					"inputs": [
						{
							"internalType": "address",
							"name": "sender",
							"type": "address"
						},
						{
							"internalType": "uint256",
							"name": "balance",
							"type": "uint256"
						},
						{
							"internalType": "uint256",
							"name": "needed",
							"type": "uint256"
						}
					],
					"name": "ERC20InsufficientBalance",
					"type": "error"
				},
				{
					"inputs": [
						{
							"internalType": "address",
							"name": "approver",
							"type": "address"
						}
					],
					"name": "ERC20InvalidApprover",
					"type": "error"
				},
				{
					"inputs": [
						{
							"internalType": "address",
							"name": "receiver",
							"type": "address"
						}
					],
					"name": "ERC20InvalidReceiver",
					"type": "error"
				},
				{
					"inputs": [
						{
							"internalType": "address",
							"name": "sender",
							"type": "address"
						}
					],
					"name": "ERC20InvalidSender",
					"type": "error"
				},
				{
					"inputs": [
						{
							"internalType": "address",
							"name": "spender",
							"type": "address"
						}
					],
					"name": "ERC20InvalidSpender",
					"type": "error"
				},
				{
					"inputs": [],
					"name": "ReentrancyGuardReentrantCall",
					"type": "error"
				},
				{
					"inputs": [
						{
							"internalType": "address",
							"name": "token",
							"type": "address"
						}
					],
					"name": "SafeERC20FailedOperation",
					"type": "error"
				},
				{
					"anonymous": false,
					"inputs": [
						{
							"indexed": true,
							"internalType": "address",
							"name": "owner",
							"type": "address"
						},
						{
							"indexed": true,
							"internalType": "address",
							"name": "spender",
							"type": "address"
						},
						{
							"indexed": false,
							"internalType": "uint256",
							"name": "value",
							"type": "uint256"
						}
					],
					"name": "Approval",
					"type": "event"
				},
				{
					"anonymous": false,
					"inputs": [
						{
							"indexed": false,
							"internalType": "uint256",
							"name": "_blockHeight",
							"type": "uint256"
						},
						{
							"indexed": false,
							"internalType": "address",
							"name": "_pausedBy",
							"type": "address"
						}
					],
					"name": "ContractPaused",
					"type": "event"
				},
				{
					"anonymous": false,
					"inputs": [
						{
							"indexed": false,
							"internalType": "uint256",
							"name": "_blockHeight",
							"type": "uint256"
						},
						{
							"indexed": false,
							"internalType": "address",
							"name": "_unpausedBy",
							"type": "address"
						}
					],
					"name": "ContractUnpaused",
					"type": "event"
				},
				{
					"anonymous": false,
					"inputs": [
						{
							"indexed": false,
							"internalType": "contract IERC20",
							"name": "_token",
							"type": "address"
						},
						{
							"indexed": false,
							"internalType": "uint256",
							"name": "_blockHeight",
							"type": "uint256"
						},
						{
							"indexed": false,
							"internalType": "address",
							"name": "_dest",
							"type": "address"
						},
						{
							"indexed": false,
							"internalType": "uint256",
							"name": "_amount",
							"type": "uint256"
						}
					],
					"name": "ERC20Rescued",
					"type": "event"
				},
				{
					"anonymous": false,
					"inputs": [
						{
							"indexed": false,
							"internalType": "address",
							"name": "_dest",
							"type": "address"
						},
						{
							"indexed": false,
							"internalType": "uint256",
							"name": "_blockHeight",
							"type": "uint256"
						},
						{
							"indexed": false,
							"internalType": "uint256",
							"name": "_amount",
							"type": "uint256"
						}
					],
					"name": "ETHRescued",
					"type": "event"
				},
				{
					"anonymous": false,
					"inputs": [
						{
							"indexed": false,
							"internalType": "uint256",
							"name": "_blockHeight",
							"type": "uint256"
						},
						{
							"indexed": false,
							"internalType": "address",
							"name": "_disabledBy",
							"type": "address"
						}
					],
					"name": "MintingDisabled",
					"type": "event"
				},
				{
					"anonymous": false,
					"inputs": [
						{
							"indexed": false,
							"internalType": "uint256",
							"name": "_blockHeight",
							"type": "uint256"
						},
						{
							"indexed": false,
							"internalType": "address",
							"name": "_enabledBy",
							"type": "address"
						}
					],
					"name": "MintingEnabled",
					"type": "event"
				},
				{
					"anonymous": false,
					"inputs": [
						{
							"indexed": false,
							"internalType": "uint256",
							"name": "_blockHeight",
							"type": "uint256"
						},
						{
							"indexed": false,
							"internalType": "address",
							"name": "_disabledBy",
							"type": "address"
						}
					],
					"name": "MintingToDisabled",
					"type": "event"
				},
				{
					"anonymous": false,
					"inputs": [
						{
							"indexed": false,
							"internalType": "uint256",
							"name": "_blockHeight",
							"type": "uint256"
						},
						{
							"indexed": false,
							"internalType": "address",
							"name": "_enabledBy",
							"type": "address"
						}
					],
					"name": "MintingToEnabled",
					"type": "event"
				},
				{
					"anonymous": false,
					"inputs": [
						{
							"indexed": true,
							"internalType": "bytes32",
							"name": "role",
							"type": "bytes32"
						},
						{
							"indexed": true,
							"internalType": "bytes32",
							"name": "previousAdminRole",
							"type": "bytes32"
						},
						{
							"indexed": true,
							"internalType": "bytes32",
							"name": "newAdminRole",
							"type": "bytes32"
						}
					],
					"name": "RoleAdminChanged",
					"type": "event"
				},
				{
					"anonymous": false,
					"inputs": [
						{
							"indexed": true,
							"internalType": "bytes32",
							"name": "role",
							"type": "bytes32"
						},
						{
							"indexed": true,
							"internalType": "address",
							"name": "account",
							"type": "address"
						},
						{
							"indexed": true,
							"internalType": "address",
							"name": "sender",
							"type": "address"
						}
					],
					"name": "RoleGranted",
					"type": "event"
				},
				{
					"anonymous": false,
					"inputs": [
						{
							"indexed": true,
							"internalType": "bytes32",
							"name": "role",
							"type": "bytes32"
						},
						{
							"indexed": true,
							"internalType": "address",
							"name": "account",
							"type": "address"
						},
						{
							"indexed": true,
							"internalType": "address",
							"name": "sender",
							"type": "address"
						}
					],
					"name": "RoleRevoked",
					"type": "event"
				},
				{
					"anonymous": false,
					"inputs": [
						{
							"indexed": false,
							"internalType": "uint256",
							"name": "_newCap",
							"type": "uint256"
						},
						{
							"indexed": false,
							"internalType": "address",
							"name": "_changedBy",
							"type": "address"
						}
					],
					"name": "SupplyCapChanged",
					"type": "event"
				},
				{
					"anonymous": false,
					"inputs": [
						{
							"indexed": false,
							"internalType": "uint256",
							"name": "_amount",
							"type": "uint256"
						},
						{
							"indexed": false,
							"internalType": "address",
							"name": "_burner",
							"type": "address"
						}
					],
					"name": "TokensBurned",
					"type": "event"
				},
				{
					"anonymous": false,
					"inputs": [
						{
							"indexed": false,
							"internalType": "address",
							"name": "_from",
							"type": "address"
						},
						{
							"indexed": false,
							"internalType": "uint256",
							"name": "_amount",
							"type": "uint256"
						},
						{
							"indexed": false,
							"internalType": "address",
							"name": "_burner",
							"type": "address"
						}
					],
					"name": "TokensBurnedFrom",
					"type": "event"
				},
				{
					"anonymous": false,
					"inputs": [
						{
							"indexed": false,
							"internalType": "uint256",
							"name": "_amount",
							"type": "uint256"
						}
					],
					"name": "TokensMinted",
					"type": "event"
				},
				{
					"anonymous": false,
					"inputs": [
						{
							"indexed": false,
							"internalType": "address",
							"name": "_to",
							"type": "address"
						},
						{
							"indexed": false,
							"internalType": "uint256",
							"name": "_amount",
							"type": "uint256"
						}
					],
					"name": "TokensMintedTo",
					"type": "event"
				},
				{
					"anonymous": false,
					"inputs": [
						{
							"indexed": true,
							"internalType": "address",
							"name": "from",
							"type": "address"
						},
						{
							"indexed": true,
							"internalType": "address",
							"name": "to",
							"type": "address"
						},
						{
							"indexed": false,
							"internalType": "uint256",
							"name": "value",
							"type": "uint256"
						}
					],
					"name": "Transfer",
					"type": "event"
				},
				{
					"inputs": [],
					"name": "DEFAULT_ADMIN_ROLE",
					"outputs": [
						{
							"internalType": "bytes32",
							"name": "",
							"type": "bytes32"
						}
					],
					"stateMutability": "view",
					"type": "function"
				},
				{
					"inputs": [],
					"name": "_ADMIN",
					"outputs": [
						{
							"internalType": "bytes32",
							"name": "",
							"type": "bytes32"
						}
					],
					"stateMutability": "view",
					"type": "function"
				},
				{
					"inputs": [],
					"name": "_BURN",
					"outputs": [
						{
							"internalType": "bytes32",
							"name": "",
							"type": "bytes32"
						}
					],
					"stateMutability": "view",
					"type": "function"
				},
				{
					"inputs": [],
					"name": "_BURNFROM",
					"outputs": [
						{
							"internalType": "bytes32",
							"name": "",
							"type": "bytes32"
						}
					],
					"stateMutability": "view",
					"type": "function"
				},
				{
					"inputs": [],
					"name": "_MINT",
					"outputs": [
						{
							"internalType": "bytes32",
							"name": "",
							"type": "bytes32"
						}
					],
					"stateMutability": "view",
					"type": "function"
				},
				{
					"inputs": [],
					"name": "_MINTTO",
					"outputs": [
						{
							"internalType": "bytes32",
							"name": "",
							"type": "bytes32"
						}
					],
					"stateMutability": "view",
					"type": "function"
				},
				{
					"inputs": [],
					"name": "_RESCUE",
					"outputs": [
						{
							"internalType": "bytes32",
							"name": "",
							"type": "bytes32"
						}
					],
					"stateMutability": "view",
					"type": "function"
				},
				{
					"inputs": [],
					"name": "_SUPPLY",
					"outputs": [
						{
							"internalType": "bytes32",
							"name": "",
							"type": "bytes32"
						}
					],
					"stateMutability": "view",
					"type": "function"
				},
				{
					"inputs": [],
					"name": "_cap",
					"outputs": [
						{
							"internalType": "uint256",
							"name": "",
							"type": "uint256"
						}
					],
					"stateMutability": "view",
					"type": "function"
				},
				{
					"inputs": [
						{
							"internalType": "address",
							"name": "owner",
							"type": "address"
						},
						{
							"internalType": "address",
							"name": "spender",
							"type": "address"
						}
					],
					"name": "allowance",
					"outputs": [
						{
							"internalType": "uint256",
							"name": "",
							"type": "uint256"
						}
					],
					"stateMutability": "view",
					"type": "function"
				},
				{
					"inputs": [
						{
							"internalType": "address",
							"name": "spender",
							"type": "address"
						},
						{
							"internalType": "uint256",
							"name": "value",
							"type": "uint256"
						}
					],
					"name": "approve",
					"outputs": [
						{
							"internalType": "bool",
							"name": "",
							"type": "bool"
						}
					],
					"stateMutability": "nonpayable",
					"type": "function"
				},
				{
					"inputs": [
						{
							"internalType": "address",
							"name": "account",
							"type": "address"
						}
					],
					"name": "balanceOf",
					"outputs": [
						{
							"internalType": "uint256",
							"name": "",
							"type": "uint256"
						}
					],
					"stateMutability": "view",
					"type": "function"
				},
				{
					"inputs": [
						{
							"internalType": "uint256",
							"name": "_amount",
							"type": "uint256"
						}
					],
					"name": "burn",
					"outputs": [],
					"stateMutability": "nonpayable",
					"type": "function"
				},
				{
					"inputs": [
						{
							"internalType": "address",
							"name": "_from",
							"type": "address"
						},
						{
							"internalType": "uint256",
							"name": "_amount",
							"type": "uint256"
						}
					],
					"name": "burnFrom",
					"outputs": [],
					"stateMutability": "nonpayable",
					"type": "function"
				},
				{
					"inputs": [],
					"name": "decimals",
					"outputs": [
						{
							"internalType": "uint8",
							"name": "",
							"type": "uint8"
						}
					],
					"stateMutability": "view",
					"type": "function"
				},
				{
					"inputs": [
						{
							"internalType": "bool",
							"name": "_disableMinting",
							"type": "bool"
						}
					],
					"name": "disableMint",
					"outputs": [],
					"stateMutability": "nonpayable",
					"type": "function"
				},
				{
					"inputs": [
						{
							"internalType": "bool",
							"name": "_disableMintTo",
							"type": "bool"
						}
					],
					"name": "disableMintTo",
					"outputs": [],
					"stateMutability": "nonpayable",
					"type": "function"
				},
				{
					"inputs": [
						{
							"internalType": "address payable",
							"name": "_dest",
							"type": "address"
						},
						{
							"internalType": "uint256",
							"name": "_etherAmount",
							"type": "uint256"
						}
					],
					"name": "ethRescue",
					"outputs": [],
					"stateMutability": "nonpayable",
					"type": "function"
				},
				{
					"inputs": [
						{
							"internalType": "bytes32",
							"name": "role",
							"type": "bytes32"
						}
					],
					"name": "getRoleAdmin",
					"outputs": [
						{
							"internalType": "bytes32",
							"name": "",
							"type": "bytes32"
						}
					],
					"stateMutability": "view",
					"type": "function"
				},
				{
					"inputs": [
						{
							"internalType": "bytes32",
							"name": "role",
							"type": "bytes32"
						},
						{
							"internalType": "address",
							"name": "account",
							"type": "address"
						}
					],
					"name": "grantRole",
					"outputs": [],
					"stateMutability": "nonpayable",
					"type": "function"
				},
				{
					"inputs": [
						{
							"internalType": "bytes32",
							"name": "role",
							"type": "bytes32"
						},
						{
							"internalType": "address",
							"name": "account",
							"type": "address"
						}
					],
					"name": "hasRole",
					"outputs": [
						{
							"internalType": "bool",
							"name": "",
							"type": "bool"
						}
					],
					"stateMutability": "view",
					"type": "function"
				},
				{
					"inputs": [
						{
							"internalType": "uint256",
							"name": "_amount",
							"type": "uint256"
						}
					],
					"name": "mint",
					"outputs": [],
					"stateMutability": "nonpayable",
					"type": "function"
				},
				{
					"inputs": [],
					"name": "mintDisabled",
					"outputs": [
						{
							"internalType": "bool",
							"name": "",
							"type": "bool"
						}
					],
					"stateMutability": "view",
					"type": "function"
				},
				{
					"inputs": [
						{
							"internalType": "address",
							"name": "_to",
							"type": "address"
						},
						{
							"internalType": "uint256",
							"name": "_amount",
							"type": "uint256"
						}
					],
					"name": "mintTo",
					"outputs": [],
					"stateMutability": "nonpayable",
					"type": "function"
				},
				{
					"inputs": [],
					"name": "mintToDisabled",
					"outputs": [
						{
							"internalType": "bool",
							"name": "",
							"type": "bool"
						}
					],
					"stateMutability": "view",
					"type": "function"
				},
				{
					"inputs": [
						{
							"internalType": "contract IERC20",
							"name": "_ERC20",
							"type": "address"
						},
						{
							"internalType": "address",
							"name": "_dest",
							"type": "address"
						},
						{
							"internalType": "uint256",
							"name": "_ERC20Amount",
							"type": "uint256"
						}
					],
					"name": "moveERC20",
					"outputs": [],
					"stateMutability": "nonpayable",
					"type": "function"
				},
				{
					"inputs": [],
					"name": "name",
					"outputs": [
						{
							"internalType": "string",
							"name": "",
							"type": "string"
						}
					],
					"stateMutability": "view",
					"type": "function"
				},
				{
					"inputs": [],
					"name": "paused",
					"outputs": [
						{
							"internalType": "bool",
							"name": "",
							"type": "bool"
						}
					],
					"stateMutability": "view",
					"type": "function"
				},
				{
					"inputs": [
						{
							"internalType": "bytes32",
							"name": "role",
							"type": "bytes32"
						},
						{
							"internalType": "address",
							"name": "callerConfirmation",
							"type": "address"
						}
					],
					"name": "renounceRole",
					"outputs": [],
					"stateMutability": "nonpayable",
					"type": "function"
				},
				{
					"inputs": [
						{
							"internalType": "bytes32",
							"name": "role",
							"type": "bytes32"
						},
						{
							"internalType": "address",
							"name": "account",
							"type": "address"
						}
					],
					"name": "revokeRole",
					"outputs": [],
					"stateMutability": "nonpayable",
					"type": "function"
				},
				{
					"inputs": [
						{
							"internalType": "bool",
							"name": "_paused",
							"type": "bool"
						}
					],
					"name": "setPaused",
					"outputs": [],
					"stateMutability": "nonpayable",
					"type": "function"
				},
				{
					"inputs": [
						{
							"internalType": "uint256",
							"name": "_supplyCap",
							"type": "uint256"
						}
					],
					"name": "setSupplyCap",
					"outputs": [],
					"stateMutability": "nonpayable",
					"type": "function"
				},
				{
					"inputs": [
						{
							"internalType": "uint256",
							"name": "_newFee",
							"type": "uint256"
						}
					],
					"name": "setTxFee",
					"outputs": [],
					"stateMutability": "nonpayable",
					"type": "function"
				},
				{
					"inputs": [
						{
							"internalType": "address",
							"name": "_whitelist",
							"type": "address"
						},
						{
							"internalType": "bool",
							"name": "_status",
							"type": "bool"
						}
					],
					"name": "setWhitelistAddress",
					"outputs": [],
					"stateMutability": "nonpayable",
					"type": "function"
				},
				{
					"inputs": [],
					"name": "supplyCap",
					"outputs": [
						{
							"internalType": "uint256",
							"name": "",
							"type": "uint256"
						}
					],
					"stateMutability": "view",
					"type": "function"
				},
				{
					"inputs": [
						{
							"internalType": "bytes4",
							"name": "interfaceId",
							"type": "bytes4"
						}
					],
					"name": "supportsInterface",
					"outputs": [
						{
							"internalType": "bool",
							"name": "",
							"type": "bool"
						}
					],
					"stateMutability": "view",
					"type": "function"
				},
				{
					"inputs": [],
					"name": "symbol",
					"outputs": [
						{
							"internalType": "string",
							"name": "",
							"type": "string"
						}
					],
					"stateMutability": "view",
					"type": "function"
				},
				{
					"inputs": [],
					"name": "totalSupply",
					"outputs": [
						{
							"internalType": "uint256",
							"name": "",
							"type": "uint256"
						}
					],
					"stateMutability": "view",
					"type": "function"
				},
				{
					"inputs": [
						{
							"internalType": "address",
							"name": "to",
							"type": "address"
						},
						{
							"internalType": "uint256",
							"name": "value",
							"type": "uint256"
						}
					],
					"name": "transfer",
					"outputs": [
						{
							"internalType": "bool",
							"name": "",
							"type": "bool"
						}
					],
					"stateMutability": "nonpayable",
					"type": "function"
				},
				{
					"inputs": [
						{
							"internalType": "address",
							"name": "from",
							"type": "address"
						},
						{
							"internalType": "address",
							"name": "to",
							"type": "address"
						},
						{
							"internalType": "uint256",
							"name": "value",
							"type": "uint256"
						}
					],
					"name": "transferFrom",
					"outputs": [
						{
							"internalType": "bool",
							"name": "",
							"type": "bool"
						}
					],
					"stateMutability": "nonpayable",
					"type": "function"
				},
				{
					"inputs": [],
					"name": "txFee",
					"outputs": [
						{
							"internalType": "uint256",
							"name": "",
							"type": "uint256"
						}
					],
					"stateMutability": "view",
					"type": "function"
				},
				{
					"inputs": [
						{
							"internalType": "address",
							"name": "",
							"type": "address"
						}
					],
					"name": "whitelistedAddress",
					"outputs": [
						{
							"internalType": "bool",
							"name": "",
							"type": "bool"
						}
					],
					"stateMutability": "view",
					"type": "function"
				}
			],
			"devdoc": {
				"details": "This contract implements an ERC20 token with additional features such as minting, burning, pausing,       supply capping, and transfer fee mechanisms. It uses role-based access control for administrative functions       and is protected against reentrancy attacks.",
				"errors": {
					"AccessControlBadConfirmation()": [
						{
							"details": "The caller of a function is not the expected one. NOTE: Don't confuse with {AccessControlUnauthorizedAccount}."
						}
					],
					"AccessControlUnauthorizedAccount(address,bytes32)": [
						{
							"details": "The `account` is missing a role."
						}
					],
					"ERC20InsufficientAllowance(address,uint256,uint256)": [
						{
							"details": "Indicates a failure with the `spender`s `allowance`. Used in transfers.",
							"params": {
								"allowance": "Amount of tokens a `spender` is allowed to operate with.",
								"needed": "Minimum amount required to perform a transfer.",
								"spender": "Address that may be allowed to operate on tokens without being their owner."
							}
						}
					],
					"ERC20InsufficientBalance(address,uint256,uint256)": [
						{
							"details": "Indicates an error related to the current `balance` of a `sender`. Used in transfers.",
							"params": {
								"balance": "Current balance for the interacting account.",
								"needed": "Minimum amount required to perform a transfer.",
								"sender": "Address whose tokens are being transferred."
							}
						}
					],
					"ERC20InvalidApprover(address)": [
						{
							"details": "Indicates a failure with the `approver` of a token to be approved. Used in approvals.",
							"params": {
								"approver": "Address initiating an approval operation."
							}
						}
					],
					"ERC20InvalidReceiver(address)": [
						{
							"details": "Indicates a failure with the token `receiver`. Used in transfers.",
							"params": {
								"receiver": "Address to which tokens are being transferred."
							}
						}
					],
					"ERC20InvalidSender(address)": [
						{
							"details": "Indicates a failure with the token `sender`. Used in transfers.",
							"params": {
								"sender": "Address whose tokens are being transferred."
							}
						}
					],
					"ERC20InvalidSpender(address)": [
						{
							"details": "Indicates a failure with the `spender` to be approved. Used in approvals.",
							"params": {
								"spender": "Address that may be allowed to operate on tokens without being their owner."
							}
						}
					],
					"ReentrancyGuardReentrantCall()": [
						{
							"details": "Unauthorized reentrant call."
						}
					],
					"SafeERC20FailedOperation(address)": [
						{
							"details": "An operation with an ERC-20 token failed."
						}
					]
				},
				"events": {
					"Approval(address,address,uint256)": {
						"details": "Emitted when the allowance of a `spender` for an `owner` is set by a call to {approve}. `value` is the new allowance."
					},
					"RoleAdminChanged(bytes32,bytes32,bytes32)": {
						"details": "Emitted when `newAdminRole` is set as ``role``'s admin role, replacing `previousAdminRole` `DEFAULT_ADMIN_ROLE` is the starting admin for all roles, despite {RoleAdminChanged} not being emitted signaling this."
					},
					"RoleGranted(bytes32,address,address)": {
						"details": "Emitted when `account` is granted `role`. `sender` is the account that originated the contract call. This account bears the admin role (for the granted role). Expected in cases where the role was granted using the internal {AccessControl-_grantRole}."
					},
					"RoleRevoked(bytes32,address,address)": {
						"details": "Emitted when `account` is revoked `role`. `sender` is the account that originated the contract call:   - if using `revokeRole`, it is the admin role bearer   - if using `renounceRole`, it is the role bearer (i.e. `account`)"
					},
					"Transfer(address,address,uint256)": {
						"details": "Emitted when `value` tokens are moved from one account (`from`) to another (`to`). Note that `value` may be zero."
					}
				},
				"kind": "dev",
				"methods": {
					"allowance(address,address)": {
						"details": "See {IERC20-allowance}."
					},
					"approve(address,uint256)": {
						"details": "See {IERC20-approve}. NOTE: If `value` is the maximum `uint256`, the allowance is not updated on `transferFrom`. This is semantically equivalent to an infinite approval. Requirements: - `spender` cannot be the zero address."
					},
					"balanceOf(address)": {
						"details": "See {IERC20-balanceOf}."
					},
					"burn(uint256)": {
						"details": "Function to burn tokens from the caller's balance.      Only callable by an address with the _BURN role, and if the contract is not paused.",
						"params": {
							"_amount": "The amount of tokens to burn."
						}
					},
					"burnFrom(address,uint256)": {
						"details": "Function to burn tokens from a specific address.      Only callable by an address with the _BURNFROM role, and if the contract is not paused.",
						"params": {
							"_amount": "The amount of tokens to burn.",
							"_from": "The address to burn tokens from."
						}
					},
					"constructor": {
						"details": "Constructor that sets the token name, symbol, and initial minting.      It also grants necessary roles to the deployer and sets initial parameters such as the supply cap."
					},
					"decimals()": {
						"details": "Returns the number of decimals used to get its user representation. For example, if `decimals` equals `2`, a balance of `505` tokens should be displayed to a user as `5.05` (`505 / 10 ** 2`). Tokens usually opt for a value of 18, imitating the relationship between Ether and Wei. This is the default value returned by this function, unless it's overridden. NOTE: This information is only used for _display_ purposes: it in no way affects any of the arithmetic of the contract, including {IERC20-balanceOf} and {IERC20-transfer}."
					},
					"disableMint(bool)": {
						"details": "Function to disable or enable minting.      Only callable by an admin.",
						"params": {
							"_disableMinting": "Boolean indicating whether minting should be disabled (true) or enabled (false)."
						}
					},
					"disableMintTo(bool)": {
						"details": "Function to disable or enable minting to specific addresses.      Only callable by an admin.",
						"params": {
							"_disableMintTo": "Boolean indicating whether minting to specific addresses should be disabled (true) or enabled (false)."
						}
					},
					"ethRescue(address,uint256)": {
						"details": "Function to rescue Ether sent to the contract by mistake.      Only callable by an account with the _RESCUE role.",
						"params": {
							"_dest": "The address to send the rescued Ether to.",
							"_etherAmount": "The amount of Ether to rescue (in wei)."
						}
					},
					"getRoleAdmin(bytes32)": {
						"details": "Returns the admin role that controls `role`. See {grantRole} and {revokeRole}. To change a role's admin, use {_setRoleAdmin}."
					},
					"grantRole(bytes32,address)": {
						"details": "Grants `role` to `account`. If `account` had not been already granted `role`, emits a {RoleGranted} event. Requirements: - the caller must have ``role``'s admin role. May emit a {RoleGranted} event."
					},
					"hasRole(bytes32,address)": {
						"details": "Returns `true` if `account` has been granted `role`."
					},
					"mint(uint256)": {
						"details": "Function to mint tokens to the caller.      Only callable by an address with the _MINT role, and if minting is enabled and contract is not paused.",
						"params": {
							"_amount": "The amount of tokens to mint."
						}
					},
					"mintTo(address,uint256)": {
						"details": "Function to mint tokens to a specific address.      Only callable by an address with the _MINTTO role, and if minting to is enabled and contract is not paused.",
						"params": {
							"_amount": "The amount of tokens to mint.",
							"_to": "The address to mint tokens to."
						}
					},
					"moveERC20(address,address,uint256)": {
						"details": "Function to rescue ERC20 tokens sent to the contract by mistake.      Only callable by an account with the _RESCUE role.",
						"params": {
							"_ERC20": "The ERC20 token contract to rescue.",
							"_ERC20Amount": "The amount of tokens to rescue.",
							"_dest": "The address to send the rescued tokens to."
						}
					},
					"name()": {
						"details": "Returns the name of the token."
					},
					"renounceRole(bytes32,address)": {
						"details": "Revokes `role` from the calling account. Roles are often managed via {grantRole} and {revokeRole}: this function's purpose is to provide a mechanism for accounts to lose their privileges if they are compromised (such as when a trusted device is misplaced). If the calling account had been revoked `role`, emits a {RoleRevoked} event. Requirements: - the caller must be `callerConfirmation`. May emit a {RoleRevoked} event."
					},
					"revokeRole(bytes32,address)": {
						"details": "Revokes `role` from `account`. If `account` had been granted `role`, emits a {RoleRevoked} event. Requirements: - the caller must have ``role``'s admin role. May emit a {RoleRevoked} event."
					},
					"setPaused(bool)": {
						"details": "Function to pause or unpause the contract's operations.       Only callable by an admin.",
						"params": {
							"_paused": "Boolean indicating whether the contract should be paused (true) or unpaused (false)."
						}
					},
					"setSupplyCap(uint256)": {
						"details": "Function to change the supply cap of the token.      Only callable by an admin.",
						"params": {
							"_supplyCap": "The new supply cap."
						}
					},
					"setTxFee(uint256)": {
						"details": "Function to update the transaction fee for transfers.      Only callable by an admin.",
						"params": {
							"_newFee": "The new transaction fee."
						}
					},
					"setWhitelistAddress(address,bool)": {
						"details": "Function to add or remove an address from the whitelist. Whitelisted addresses are exempt from transfer fees.      Only callable by an admin.",
						"params": {
							"_status": "Boolean indicating whether to add (true) or remove (false) the address from the whitelist.",
							"_whitelist": "The address to whitelist or remove from the whitelist."
						}
					},
					"supplyCap()": {
						"details": "Function to get the current supply cap.",
						"returns": {
							"_0": "The current supply cap."
						}
					},
					"supportsInterface(bytes4)": {
						"details": "See {IERC165-supportsInterface}."
					},
					"symbol()": {
						"details": "Returns the symbol of the token, usually a shorter version of the name."
					},
					"totalSupply()": {
						"details": "See {IERC20-totalSupply}."
					},
					"transfer(address,uint256)": {
						"details": "Overrides the `transfer` function to apply a transaction fee unless the sender is whitelisted.",
						"params": {
							"to": "The address receiving tokens.",
							"value": "The amount of tokens to transfer."
						},
						"returns": {
							"_0": "True if the transfer was successful."
						}
					},
					"transferFrom(address,address,uint256)": {
						"details": "Overrides the `transferFrom` function to apply a transaction fee unless the sender is whitelisted.      The transfer will reduce the spender's allowance if applicable.",
						"params": {
							"from": "The address sending tokens.",
							"to": "The address receiving tokens.",
							"value": "The amount of tokens to transfer."
						},
						"returns": {
							"_0": "True if the transfer was successful."
						}
					}
				},
				"title": "EqualFiToken",
				"version": 1
			},
			"evm": {
				"assembly": "    /* \"src/token.sol\":768:14133  contract EqualFiToken is ERC20, AccessControl, ReentrancyGuard {... */\n  mstore(0x40, 0x80)\n    /* \"src/token.sol\":2050:2054  5e15 */\n  0x11c37937e08000\n    /* \"src/token.sol\":2030:2054  uint public txFee = 5e15 */\n  0x08\n  sstore\n    /* \"src/token.sol\":4505:5130  constructor() ERC20(\"Token\", \"TKN\") {... */\n  callvalue\n  dup1\n  iszero\n  tag_1\n  jumpi\n  0x00\n  dup1\n  revert\ntag_1:\n  pop\n    /* \"lib/openzeppelin-contracts/contracts/token/ERC20/ERC20.sol\":1601:1714  constructor(string memory name_, string memory symbol_) {... */\n  mload(0x40)\n  dup1\n  0x40\n  add\n  0x40\n  mstore\n  dup1\n  0x05\n  dup2\n  mstore\n  0x20\n  add\n  0x546f6b656e000000000000000000000000000000000000000000000000000000\n  dup2\n  mstore\n  pop\n  mload(0x40)\n  dup1\n  0x40\n  add\n  0x40\n  mstore\n  dup1\n  0x03\n  dup2\n  mstore\n  0x20\n  add\n  0x544b4e0000000000000000000000000000000000000000000000000000000000\n  dup2\n  mstore\n  pop\n    /* \"lib/openzeppelin-contracts/contracts/token/ERC20/ERC20.sol\":1675:1680  name_ */\n  dup2\n    /* \"lib/openzeppelin-contracts/contracts/token/ERC20/ERC20.sol\":1667:1672  _name */\n  0x03\n    /* \"lib/openzeppelin-contracts/contracts/token/ERC20/ERC20.sol\":1667:1680  _name = name_ */\n  swap1\n  dup2\n  tag_6\n  swap2\n  swap1\n  tag_7\n  jump\t// in\ntag_6:\n  pop\n    /* \"lib/openzeppelin-contracts/contracts/token/ERC20/ERC20.sol\":1700:1707  symbol_ */\n  dup1\n    /* \"lib/openzeppelin-contracts/contracts/token/ERC20/ERC20.sol\":1690:1697  _symbol */\n  0x04\n    /* \"lib/openzeppelin-contracts/contracts/token/ERC20/ERC20.sol\":1690:1707  _symbol = symbol_ */\n  swap1\n  dup2\n  tag_8\n  swap2\n  swap1\n  tag_7\n  jump\t// in\ntag_8:\n  pop\n    /* \"lib/openzeppelin-contracts/contracts/token/ERC20/ERC20.sol\":1601:1714  constructor(string memory name_, string memory symbol_) {... */\n  pop\n  pop\n    /* \"lib/openzeppelin-contracts/contracts/utils/ReentrancyGuard.sol\":1857:1858  1 */\n  0x01\n    /* \"lib/openzeppelin-contracts/contracts/utils/ReentrancyGuard.sol\":2061:2068  _status */\n  0x06\n    /* \"lib/openzeppelin-contracts/contracts/utils/ReentrancyGuard.sol\":2061:2082  _status = NOT_ENTERED */\n  dup2\n  swap1\n  sstore\n  pop\n    /* \"src/token.sol\":4558:4562  1e25 */\n  0x084595161401484a000000\n    /* \"src/token.sol\":4551:4555  _cap */\n  0x07\n    /* \"src/token.sol\":4551:4562  _cap = 1e25 */\n  dup2\n  swap1\n  sstore\n  pop\n    /* \"src/token.sol\":4656:4661  false */\n  0x00\n    /* \"src/token.sol\":4641:4653  mintDisabled */\n  0x09\n  0x01\n    /* \"src/token.sol\":4641:4661  mintDisabled = false */\n  0x0100\n  exp\n  dup2\n  sload\n  dup2\n  0xff\n  mul\n  not\n  and\n  swap1\n  dup4\n  iszero\n  iszero\n  mul\n  or\n  swap1\n  sstore\n  pop\n    /* \"src/token.sol\":4716:4721  false */\n  0x00\n    /* \"src/token.sol\":4699:4713  mintToDisabled */\n  0x09\n  0x02\n    /* \"src/token.sol\":4699:4721  mintToDisabled = false */\n  0x0100\n  exp\n  dup2\n  sload\n  dup2\n  0xff\n  mul\n  not\n  and\n  swap1\n  dup4\n  iszero\n  iszero\n  mul\n  or\n  swap1\n  sstore\n  pop\n    /* \"src/token.sol\":4781:4825  _grantRole(DEFAULT_ADMIN_ROLE, _msgSender()) */\n  tag_11\n    /* \"lib/openzeppelin-contracts/contracts/access/AccessControl.sol\":2232:2236  0x00 */\n  0x00\n    /* \"src/token.sol\":4792:4810  DEFAULT_ADMIN_ROLE */\n  dup1\n  shl\n    /* \"src/token.sol\":4812:4824  _msgSender() */\n  tag_12\n    /* \"src/token.sol\":4812:4822  _msgSender */\n  shl(0x20, tag_13)\n    /* \"src/token.sol\":4812:4824  _msgSender() */\n  0x20\n  shr\n  jump\t// in\ntag_12:\n    /* \"src/token.sol\":4781:4791  _grantRole */\n  shl(0x20, tag_14)\n    /* \"src/token.sol\":4781:4825  _grantRole(DEFAULT_ADMIN_ROLE, _msgSender()) */\n  0x20\n  shr\n  jump\t// in\ntag_11:\n  pop\n    /* \"src/token.sol\":4883:4915  _grantRole(_ADMIN, _msgSender()) */\n  tag_15\n    /* \"src/token.sol\":1645:1664  keccak256(\"_ADMIN\") */\n  0xae6c2fc584631af4c9385b8a55683f1a75c813747e27efef5afece31c6b230d3\n    /* \"src/token.sol\":4902:4914  _msgSender() */\n  tag_16\n    /* \"src/token.sol\":4902:4912  _msgSender */\n  shl(0x20, tag_13)\n    /* \"src/token.sol\":4902:4914  _msgSender() */\n  0x20\n  shr\n  jump\t// in\ntag_16:\n    /* \"src/token.sol\":4883:4893  _grantRole */\n  shl(0x20, tag_14)\n    /* \"src/token.sol\":4883:4915  _grantRole(_ADMIN, _msgSender()) */\n  0x20\n  shr\n  jump\t// in\ntag_15:\n  pop\n    /* \"src/token.sol\":4925:4956  _grantRole(_MINT, _msgSender()) */\n  tag_17\n    /* \"src/token.sol\":1026:1044  keccak256(\"_MINT\") */\n  0x8c66330d9d4f6aba064f25ef2a307366ea6d917616f44c075aa60fa15e5cb1cb\n    /* \"src/token.sol\":4943:4955  _msgSender() */\n  tag_18\n    /* \"src/token.sol\":4943:4953  _msgSender */\n  shl(0x20, tag_13)\n    /* \"src/token.sol\":4943:4955  _msgSender() */\n  0x20\n  shr\n  jump\t// in\ntag_18:\n    /* \"src/token.sol\":4925:4935  _grantRole */\n  shl(0x20, tag_14)\n    /* \"src/token.sol\":4925:4956  _grantRole(_MINT, _msgSender()) */\n  0x20\n  shr\n  jump\t// in\ntag_17:\n  pop\n    /* \"src/token.sol\":4966:4997  _grantRole(_BURN, _msgSender()) */\n  tag_19\n    /* \"src/token.sol\":1268:1286  keccak256(\"_BURN\") */\n  0x9edfad36e7d4d9da54b4f78f22bf97cb5b58bb7998294a4288da41c15c647c45\n    /* \"src/token.sol\":4984:4996  _msgSender() */\n  tag_20\n    /* \"src/token.sol\":4984:4994  _msgSender */\n  shl(0x20, tag_13)\n    /* \"src/token.sol\":4984:4996  _msgSender() */\n  0x20\n  shr\n  jump\t// in\ntag_20:\n    /* \"src/token.sol\":4966:4976  _grantRole */\n  shl(0x20, tag_14)\n    /* \"src/token.sol\":4966:4997  _grantRole(_BURN, _msgSender()) */\n  0x20\n  shr\n  jump\t// in\ntag_19:\n  pop\n    /* \"src/token.sol\":5098:5123  _mint(_msgSender(), 1e24) */\n  tag_21\n    /* \"src/token.sol\":5104:5116  _msgSender() */\n  tag_22\n    /* \"src/token.sol\":5104:5114  _msgSender */\n  shl(0x20, tag_13)\n    /* \"src/token.sol\":5104:5116  _msgSender() */\n  0x20\n  shr\n  jump\t// in\ntag_22:\n    /* \"src/token.sol\":5118:5122  1e24 */\n  0xd3c21bcecceda1000000\n    /* \"src/token.sol\":5098:5103  _mint */\n  shl(0x20, tag_23)\n    /* \"src/token.sol\":5098:5123  _mint(_msgSender(), 1e24) */\n  0x20\n  shr\n  jump\t// in\ntag_21:\n    /* \"src/token.sol\":768:14133  contract EqualFiToken is ERC20, AccessControl, ReentrancyGuard {... */\n  jump(tag_24)\n    /* \"lib/openzeppelin-contracts/contracts/utils/Context.sol\":656:752  function _msgSender() internal view virtual returns (address) {... */\ntag_13:\n    /* \"lib/openzeppelin-contracts/contracts/utils/Context.sol\":709:716  address */\n  0x00\n    /* \"lib/openzeppelin-contracts/contracts/utils/Context.sol\":735:745  msg.sender */\n  caller\n    /* \"lib/openzeppelin-contracts/contracts/utils/Context.sol\":728:745  return msg.sender */\n  swap1\n  pop\n    /* \"lib/openzeppelin-contracts/contracts/utils/Context.sol\":656:752  function _msgSender() internal view virtual returns (address) {... */\n  swap1\n  jump\t// out\n    /* \"lib/openzeppelin-contracts/contracts/access/AccessControl.sol\":6179:6495  function _grantRole(bytes32 role, address account) internal virtual returns (bool) {... */\ntag_14:\n    /* \"lib/openzeppelin-contracts/contracts/access/AccessControl.sol\":6256:6260  bool */\n  0x00\n    /* \"lib/openzeppelin-contracts/contracts/access/AccessControl.sol\":6277:6299  hasRole(role, account) */\n  tag_27\n    /* \"lib/openzeppelin-contracts/contracts/access/AccessControl.sol\":6285:6289  role */\n  dup4\n    /* \"lib/openzeppelin-contracts/contracts/access/AccessControl.sol\":6291:6298  account */\n  dup4\n    /* \"lib/openzeppelin-contracts/contracts/access/AccessControl.sol\":6277:6284  hasRole */\n  shl(0x20, tag_28)\n    /* \"lib/openzeppelin-contracts/contracts/access/AccessControl.sol\":6277:6299  hasRole(role, account) */\n  0x20\n  shr\n  jump\t// in\ntag_27:\n    /* \"lib/openzeppelin-contracts/contracts/access/AccessControl.sol\":6272:6489  if (!hasRole(role, account)) {... */\n  tag_29\n  jumpi\n    /* \"lib/openzeppelin-contracts/contracts/access/AccessControl.sol\":6347:6351  true */\n  0x01\n    /* \"lib/openzeppelin-contracts/contracts/access/AccessControl.sol\":6315:6321  _roles */\n  0x05\n    /* \"lib/openzeppelin-contracts/contracts/access/AccessControl.sol\":6315:6327  _roles[role] */\n  0x00\n    /* \"lib/openzeppelin-contracts/contracts/access/AccessControl.sol\":6322:6326  role */\n  dup6\n    /* \"lib/openzeppelin-contracts/contracts/access/AccessControl.sol\":6315:6327  _roles[role] */\n  dup2\n  mstore\n  0x20\n  add\n  swap1\n  dup2\n  mstore\n  0x20\n  add\n  0x00\n  keccak256\n    /* \"lib/openzeppelin-contracts/contracts/access/AccessControl.sol\":6315:6335  _roles[role].hasRole */\n  0x00\n  add\n    /* \"lib/openzeppelin-contracts/contracts/access/AccessControl.sol\":6315:6344  _roles[role].hasRole[account] */\n  0x00\n    /* \"lib/openzeppelin-contracts/contracts/access/AccessControl.sol\":6336:6343  account */\n  dup5\n    /* \"lib/openzeppelin-contracts/contracts/access/AccessControl.sol\":6315:6344  _roles[role].hasRole[account] */\n  0xffffffffffffffffffffffffffffffffffffffff\n  and\n  0xffffffffffffffffffffffffffffffffffffffff\n  and\n  dup2\n  mstore\n  0x20\n  add\n  swap1\n  dup2\n  mstore\n  0x20\n  add\n  0x00\n  keccak256\n  0x00\n    /* \"lib/openzeppelin-contracts/contracts/access/AccessControl.sol\":6315:6351  _roles[role].hasRole[account] = true */\n  0x0100\n  exp\n  dup2\n  sload\n  dup2\n  0xff\n  mul\n  not\n  and\n  swap1\n  dup4\n  iszero\n  iszero\n  mul\n  or\n  swap1\n  sstore\n  pop\n    /* \"lib/openzeppelin-contracts/contracts/access/AccessControl.sol\":6397:6409  _msgSender() */\n  tag_30\n    /* \"lib/openzeppelin-contracts/contracts/access/AccessControl.sol\":6397:6407  _msgSender */\n  shl(0x20, tag_13)\n    /* \"lib/openzeppelin-contracts/contracts/access/AccessControl.sol\":6397:6409  _msgSender() */\n  0x20\n  shr\n  jump\t// in\ntag_30:\n    /* \"lib/openzeppelin-contracts/contracts/access/AccessControl.sol\":6370:6410  RoleGranted(role, account, _msgSender()) */\n  0xffffffffffffffffffffffffffffffffffffffff\n  and\n    /* \"lib/openzeppelin-contracts/contracts/access/AccessControl.sol\":6388:6395  account */\n  dup3\n    /* \"lib/openzeppelin-contracts/contracts/access/AccessControl.sol\":6370:6410  RoleGranted(role, account, _msgSender()) */\n  0xffffffffffffffffffffffffffffffffffffffff\n  and\n    /* \"lib/openzeppelin-contracts/contracts/access/AccessControl.sol\":6382:6386  role */\n  dup5\n    /* \"lib/openzeppelin-contracts/contracts/access/AccessControl.sol\":6370:6410  RoleGranted(role, account, _msgSender()) */\n  0x2f8788117e7eff1d82e926ec794901d17c78024a50270940304540a733656f0d\n  mload(0x40)\n  mload(0x40)\n  dup1\n  swap2\n  sub\n  swap1\n  log4\n    /* \"lib/openzeppelin-contracts/contracts/access/AccessControl.sol\":6431:6435  true */\n  0x01\n    /* \"lib/openzeppelin-contracts/contracts/access/AccessControl.sol\":6424:6435  return true */\n  swap1\n  pop\n  jump(tag_26)\n    /* \"lib/openzeppelin-contracts/contracts/access/AccessControl.sol\":6272:6489  if (!hasRole(role, account)) {... */\ntag_29:\n    /* \"lib/openzeppelin-contracts/contracts/access/AccessControl.sol\":6473:6478  false */\n  0x00\n    /* \"lib/openzeppelin-contracts/contracts/access/AccessControl.sol\":6466:6478  return false */\n  swap1\n  pop\n    /* \"lib/openzeppelin-contracts/contracts/access/AccessControl.sol\":6179:6495  function _grantRole(bytes32 role, address account) internal virtual returns (bool) {... */\ntag_26:\n  swap3\n  swap2\n  pop\n  pop\n  jump\t// out\n    /* \"lib/openzeppelin-contracts/contracts/token/ERC20/ERC20.sol\":7458:7666  function _mint(address account, uint256 value) internal {... */\ntag_23:\n    /* \"lib/openzeppelin-contracts/contracts/token/ERC20/ERC20.sol\":7547:7548  0 */\n  0x00\n    /* \"lib/openzeppelin-contracts/contracts/token/ERC20/ERC20.sol\":7528:7549  account == address(0) */\n  0xffffffffffffffffffffffffffffffffffffffff\n  and\n    /* \"lib/openzeppelin-contracts/contracts/token/ERC20/ERC20.sol\":7528:7535  account */\n  dup3\n    /* \"lib/openzeppelin-contracts/contracts/token/ERC20/ERC20.sol\":7528:7549  account == address(0) */\n  0xffffffffffffffffffffffffffffffffffffffff\n  and\n  sub\n    /* \"lib/openzeppelin-contracts/contracts/token/ERC20/ERC20.sol\":7524:7615  if (account == address(0)) {... */\n  tag_33\n  jumpi\n    /* \"lib/openzeppelin-contracts/contracts/token/ERC20/ERC20.sol\":7601:7602  0 */\n  0x00\n    /* \"lib/openzeppelin-contracts/contracts/token/ERC20/ERC20.sol\":7572:7604  ERC20InvalidReceiver(address(0)) */\n  mload(0x40)\n  0xec442f0500000000000000000000000000000000000000000000000000000000\n  dup2\n  mstore\n  0x04\n  add\n  tag_34\n  swap2\n  swap1\n  tag_35\n  jump\t// in\ntag_34:\n  mload(0x40)\n  dup1\n  swap2\n  sub\n  swap1\n  revert\n    /* \"lib/openzeppelin-contracts/contracts/token/ERC20/ERC20.sol\":7524:7615  if (account == address(0)) {... */\ntag_33:\n    /* \"lib/openzeppelin-contracts/contracts/token/ERC20/ERC20.sol\":7624:7659  _update(address(0), account, value) */\n  tag_36\n    /* \"lib/openzeppelin-contracts/contracts/token/ERC20/ERC20.sol\":7640:7641  0 */\n  0x00\n    /* \"lib/openzeppelin-contracts/contracts/token/ERC20/ERC20.sol\":7644:7651  account */\n  dup4\n    /* \"lib/openzeppelin-contracts/contracts/token/ERC20/ERC20.sol\":7653:7658  value */\n  dup4\n    /* \"lib/openzeppelin-contracts/contracts/token/ERC20/ERC20.sol\":7624:7631  _update */\n  shl(0x20, tag_37)\n    /* \"lib/openzeppelin-contracts/contracts/token/ERC20/ERC20.sol\":7624:7659  _update(address(0), account, value) */\n  0x20\n  shr\n  jump\t// in\ntag_36:\n    /* \"lib/openzeppelin-contracts/contracts/token/ERC20/ERC20.sol\":7458:7666  function _mint(address account, uint256 value) internal {... */\n  pop\n  pop\n  jump\t// out\n    /* \"lib/openzeppelin-contracts/contracts/access/AccessControl.sol\":2854:2990  function hasRole(bytes32 role, address account) public view virtual returns (bool) {... */\ntag_28:\n    /* \"lib/openzeppelin-contracts/contracts/access/AccessControl.sol\":2931:2935  bool */\n  0x00\n    /* \"lib/openzeppelin-contracts/contracts/access/AccessControl.sol\":2954:2960  _roles */\n  0x05\n    /* \"lib/openzeppelin-contracts/contracts/access/AccessControl.sol\":2954:2966  _roles[role] */\n  0x00\n    /* \"lib/openzeppelin-contracts/contracts/access/AccessControl.sol\":2961:2965  role */\n  dup5\n    /* \"lib/openzeppelin-contracts/contracts/access/AccessControl.sol\":2954:2966  _roles[role] */\n  dup2\n  mstore\n  0x20\n  add\n  swap1\n  dup2\n  mstore\n  0x20\n  add\n  0x00\n  keccak256\n    /* \"lib/openzeppelin-contracts/contracts/access/AccessControl.sol\":2954:2974  _roles[role].hasRole */\n  0x00\n  add\n    /* \"lib/openzeppelin-contracts/contracts/access/AccessControl.sol\":2954:2983  _roles[role].hasRole[account] */\n  0x00\n    /* \"lib/openzeppelin-contracts/contracts/access/AccessControl.sol\":2975:2982  account */\n  dup4\n    /* \"lib/openzeppelin-contracts/contracts/access/AccessControl.sol\":2954:2983  _roles[role].hasRole[account] */\n  0xffffffffffffffffffffffffffffffffffffffff\n  and\n  0xffffffffffffffffffffffffffffffffffffffff\n  and\n  dup2\n  mstore\n  0x20\n  add\n  swap1\n  dup2\n  mstore\n  0x20\n  add\n  0x00\n  keccak256\n  0x00\n  swap1\n  sload\n  swap1\n  0x0100\n  exp\n  swap1\n  div\n  0xff\n  and\n    /* \"lib/openzeppelin-contracts/contracts/access/AccessControl.sol\":2947:2983  return _roles[role].hasRole[account] */\n  swap1\n  pop\n    /* \"lib/openzeppelin-contracts/contracts/access/AccessControl.sol\":2854:2990  function hasRole(bytes32 role, address account) public view virtual returns (bool) {... */\n  swap3\n  swap2\n  pop\n  pop\n  jump\t// out\n    /* \"lib/openzeppelin-contracts/contracts/token/ERC20/ERC20.sol\":6008:7115  function _update(address from, address to, uint256 value) internal virtual {... */\ntag_37:\n    /* \"lib/openzeppelin-contracts/contracts/token/ERC20/ERC20.sol\":6113:6114  0 */\n  0x00\n    /* \"lib/openzeppelin-contracts/contracts/token/ERC20/ERC20.sol\":6097:6115  from == address(0) */\n  0xffffffffffffffffffffffffffffffffffffffff\n  and\n    /* \"lib/openzeppelin-contracts/contracts/token/ERC20/ERC20.sol\":6097:6101  from */\n  dup4\n    /* \"lib/openzeppelin-contracts/contracts/token/ERC20/ERC20.sol\":6097:6115  from == address(0) */\n  0xffffffffffffffffffffffffffffffffffffffff\n  and\n  sub\n    /* \"lib/openzeppelin-contracts/contracts/token/ERC20/ERC20.sol\":6093:6633  if (from == address(0)) {... */\n  tag_40\n  jumpi\n    /* \"lib/openzeppelin-contracts/contracts/token/ERC20/ERC20.sol\":6249:6254  value */\n  dup1\n    /* \"lib/openzeppelin-contracts/contracts/token/ERC20/ERC20.sol\":6233:6245  _totalSupply */\n  0x02\n  0x00\n    /* \"lib/openzeppelin-contracts/contracts/token/ERC20/ERC20.sol\":6233:6254  _totalSupply += value */\n  dup3\n  dup3\n  sload\n  tag_41\n  swap2\n  swap1\n  tag_42\n  jump\t// in\ntag_41:\n  swap3\n  pop\n  pop\n  dup2\n  swap1\n  sstore\n  pop\n    /* \"lib/openzeppelin-contracts/contracts/token/ERC20/ERC20.sol\":6093:6633  if (from == address(0)) {... */\n  jump(tag_43)\ntag_40:\n    /* \"lib/openzeppelin-contracts/contracts/token/ERC20/ERC20.sol\":6285:6304  uint256 fromBalance */\n  0x00\n    /* \"lib/openzeppelin-contracts/contracts/token/ERC20/ERC20.sol\":6307:6316  _balances */\n  dup1\n    /* \"lib/openzeppelin-contracts/contracts/token/ERC20/ERC20.sol\":6307:6322  _balances[from] */\n  0x00\n    /* \"lib/openzeppelin-contracts/contracts/token/ERC20/ERC20.sol\":6317:6321  from */\n  dup6\n    /* \"lib/openzeppelin-contracts/contracts/token/ERC20/ERC20.sol\":6307:6322  _balances[from] */\n  0xffffffffffffffffffffffffffffffffffffffff\n  and\n  0xffffffffffffffffffffffffffffffffffffffff\n  and\n  dup2\n  mstore\n  0x20\n  add\n  swap1\n  dup2\n  mstore\n  0x20\n  add\n  0x00\n  keccak256\n  sload\n    /* \"lib/openzeppelin-contracts/contracts/token/ERC20/ERC20.sol\":6285:6322  uint256 fromBalance = _balances[from] */\n  swap1\n  pop\n    /* \"lib/openzeppelin-contracts/contracts/token/ERC20/ERC20.sol\":6354:6359  value */\n  dup2\n    /* \"lib/openzeppelin-contracts/contracts/token/ERC20/ERC20.sol\":6340:6351  fromBalance */\n  dup2\n    /* \"lib/openzeppelin-contracts/contracts/token/ERC20/ERC20.sol\":6340:6359  fromBalance < value */\n  lt\n    /* \"lib/openzeppelin-contracts/contracts/token/ERC20/ERC20.sol\":6336:6451  if (fromBalance < value) {... */\n  iszero\n  tag_44\n  jumpi\n    /* \"lib/openzeppelin-contracts/contracts/token/ERC20/ERC20.sol\":6411:6415  from */\n  dup4\n    /* \"lib/openzeppelin-contracts/contracts/token/ERC20/ERC20.sol\":6417:6428  fromBalance */\n  dup2\n    /* \"lib/openzeppelin-contracts/contracts/token/ERC20/ERC20.sol\":6430:6435  value */\n  dup4\n    /* \"lib/openzeppelin-contracts/contracts/token/ERC20/ERC20.sol\":6386:6436  ERC20InsufficientBalance(from, fromBalance, value) */\n  mload(0x40)\n  0xe450d38c00000000000000000000000000000000000000000000000000000000\n  dup2\n  mstore\n  0x04\n  add\n  tag_45\n  swap4\n  swap3\n  swap2\n  swap1\n  tag_46\n  jump\t// in\ntag_45:\n  mload(0x40)\n  dup1\n  swap2\n  sub\n  swap1\n  revert\n    /* \"lib/openzeppelin-contracts/contracts/token/ERC20/ERC20.sol\":6336:6451  if (fromBalance < value) {... */\ntag_44:\n    /* \"lib/openzeppelin-contracts/contracts/token/ERC20/ERC20.sol\":6603:6608  value */\n  dup2\n    /* \"lib/openzeppelin-contracts/contracts/token/ERC20/ERC20.sol\":6589:6600  fromBalance */\n  dup2\n    /* \"lib/openzeppelin-contracts/contracts/token/ERC20/ERC20.sol\":6589:6608  fromBalance - value */\n  sub\n    /* \"lib/openzeppelin-contracts/contracts/token/ERC20/ERC20.sol\":6571:6580  _balances */\n  0x00\n    /* \"lib/openzeppelin-contracts/contracts/token/ERC20/ERC20.sol\":6571:6586  _balances[from] */\n  dup1\n    /* \"lib/openzeppelin-contracts/contracts/token/ERC20/ERC20.sol\":6581:6585  from */\n  dup7\n    /* \"lib/openzeppelin-contracts/contracts/token/ERC20/ERC20.sol\":6571:6586  _balances[from] */\n  0xffffffffffffffffffffffffffffffffffffffff\n  and\n  0xffffffffffffffffffffffffffffffffffffffff\n  and\n  dup2\n  mstore\n  0x20\n  add\n  swap1\n  dup2\n  mstore\n  0x20\n  add\n  0x00\n  keccak256\n    /* \"lib/openzeppelin-contracts/contracts/token/ERC20/ERC20.sol\":6571:6608  _balances[from] = fromBalance - value */\n  dup2\n  swap1\n  sstore\n  pop\n    /* \"lib/openzeppelin-contracts/contracts/token/ERC20/ERC20.sol\":6271:6633  {... */\n  pop\n    /* \"lib/openzeppelin-contracts/contracts/token/ERC20/ERC20.sol\":6093:6633  if (from == address(0)) {... */\ntag_43:\n    /* \"lib/openzeppelin-contracts/contracts/token/ERC20/ERC20.sol\":6661:6662  0 */\n  0x00\n    /* \"lib/openzeppelin-contracts/contracts/token/ERC20/ERC20.sol\":6647:6663  to == address(0) */\n  0xffffffffffffffffffffffffffffffffffffffff\n  and\n    /* \"lib/openzeppelin-contracts/contracts/token/ERC20/ERC20.sol\":6647:6649  to */\n  dup3\n    /* \"lib/openzeppelin-contracts/contracts/token/ERC20/ERC20.sol\":6647:6663  to == address(0) */\n  0xffffffffffffffffffffffffffffffffffffffff\n  and\n  sub\n    /* \"lib/openzeppelin-contracts/contracts/token/ERC20/ERC20.sol\":6643:7068  if (to == address(0)) {... */\n  tag_47\n  jumpi\n    /* \"lib/openzeppelin-contracts/contracts/token/ERC20/ERC20.sol\":6826:6831  value */\n  dup1\n    /* \"lib/openzeppelin-contracts/contracts/token/ERC20/ERC20.sol\":6810:6822  _totalSupply */\n  0x02\n  0x00\n    /* \"lib/openzeppelin-contracts/contracts/token/ERC20/ERC20.sol\":6810:6831  _totalSupply -= value */\n  dup3\n  dup3\n  sload\n  sub\n  swap3\n  pop\n  pop\n  dup2\n  swap1\n  sstore\n  pop\n    /* \"lib/openzeppelin-contracts/contracts/token/ERC20/ERC20.sol\":6643:7068  if (to == address(0)) {... */\n  jump(tag_48)\ntag_47:\n    /* \"lib/openzeppelin-contracts/contracts/token/ERC20/ERC20.sol\":7038:7043  value */\n  dup1\n    /* \"lib/openzeppelin-contracts/contracts/token/ERC20/ERC20.sol\":7021:7030  _balances */\n  0x00\n    /* \"lib/openzeppelin-contracts/contracts/token/ERC20/ERC20.sol\":7021:7034  _balances[to] */\n  dup1\n    /* \"lib/openzeppelin-contracts/contracts/token/ERC20/ERC20.sol\":7031:7033  to */\n  dup5\n    /* \"lib/openzeppelin-contracts/contracts/token/ERC20/ERC20.sol\":7021:7034  _balances[to] */\n  0xffffffffffffffffffffffffffffffffffffffff\n  and\n  0xffffffffffffffffffffffffffffffffffffffff\n  and\n  dup2\n  mstore\n  0x20\n  add\n  swap1\n  dup2\n  mstore\n  0x20\n  add\n  0x00\n  keccak256\n  0x00\n    /* \"lib/openzeppelin-contracts/contracts/token/ERC20/ERC20.sol\":7021:7043  _balances[to] += value */\n  dup3\n  dup3\n  sload\n  add\n  swap3\n  pop\n  pop\n  dup2\n  swap1\n  sstore\n  pop\n    /* \"lib/openzeppelin-contracts/contracts/token/ERC20/ERC20.sol\":6643:7068  if (to == address(0)) {... */\ntag_48:\n    /* \"lib/openzeppelin-contracts/contracts/token/ERC20/ERC20.sol\":7098:7100  to */\n  dup2\n    /* \"lib/openzeppelin-contracts/contracts/token/ERC20/ERC20.sol\":7083:7108  Transfer(from, to, value) */\n  0xffffffffffffffffffffffffffffffffffffffff\n  and\n    /* \"lib/openzeppelin-contracts/contracts/token/ERC20/ERC20.sol\":7092:7096  from */\n  dup4\n    /* \"lib/openzeppelin-contracts/contracts/token/ERC20/ERC20.sol\":7083:7108  Transfer(from, to, value) */\n  0xffffffffffffffffffffffffffffffffffffffff\n  and\n  0xddf252ad1be2c89b69c2b068fc378daa952ba7f163c4a11628f55a4df523b3ef\n    /* \"lib/openzeppelin-contracts/contracts/token/ERC20/ERC20.sol\":7102:7107  value */\n  dup4\n    /* \"lib/openzeppelin-contracts/contracts/token/ERC20/ERC20.sol\":7083:7108  Transfer(from, to, value) */\n  mload(0x40)\n  tag_49\n  swap2\n  swap1\n  tag_50\n  jump\t// in\ntag_49:\n  mload(0x40)\n  dup1\n  swap2\n  sub\n  swap1\n  log3\n    /* \"lib/openzeppelin-contracts/contracts/token/ERC20/ERC20.sol\":6008:7115  function _update(address from, address to, uint256 value) internal virtual {... */\n  pop\n  pop\n  pop\n  jump\t// out\n    /* \"#utility.yul\":7:106   */\ntag_51:\n    /* \"#utility.yul\":59:65   */\n  0x00\n    /* \"#utility.yul\":93:98   */\n  dup2\n    /* \"#utility.yul\":87:99   */\n  mload\n    /* \"#utility.yul\":77:99   */\n  swap1\n  pop\n    /* \"#utility.yul\":7:106   */\n  swap2\n  swap1\n  pop\n  jump\t// out\n    /* \"#utility.yul\":112:292   */\ntag_52:\n    /* \"#utility.yul\":160:237   */\n  0x4e487b7100000000000000000000000000000000000000000000000000000000\n    /* \"#utility.yul\":157:158   */\n  0x00\n    /* \"#utility.yul\":150:238   */\n  mstore\n    /* \"#utility.yul\":257:261   */\n  0x41\n    /* \"#utility.yul\":254:255   */\n  0x04\n    /* \"#utility.yul\":247:262   */\n  mstore\n    /* \"#utility.yul\":281:285   */\n  0x24\n    /* \"#utility.yul\":278:279   */\n  0x00\n    /* \"#utility.yul\":271:286   */\n  revert\n    /* \"#utility.yul\":298:478   */\ntag_53:\n    /* \"#utility.yul\":346:423   */\n  0x4e487b7100000000000000000000000000000000000000000000000000000000\n    /* \"#utility.yul\":343:344   */\n  0x00\n    /* \"#utility.yul\":336:424   */\n  mstore\n    /* \"#utility.yul\":443:447   */\n  0x22\n    /* \"#utility.yul\":440:441   */\n  0x04\n    /* \"#utility.yul\":433:448   */\n  mstore\n    /* \"#utility.yul\":467:471   */\n  0x24\n    /* \"#utility.yul\":464:465   */\n  0x00\n    /* \"#utility.yul\":457:472   */\n  revert\n    /* \"#utility.yul\":484:804   */\ntag_54:\n    /* \"#utility.yul\":528:534   */\n  0x00\n    /* \"#utility.yul\":565:566   */\n  0x02\n    /* \"#utility.yul\":559:563   */\n  dup3\n    /* \"#utility.yul\":555:567   */\n  div\n    /* \"#utility.yul\":545:567   */\n  swap1\n  pop\n    /* \"#utility.yul\":612:613   */\n  0x01\n    /* \"#utility.yul\":606:610   */\n  dup3\n    /* \"#utility.yul\":602:614   */\n  and\n    /* \"#utility.yul\":633:651   */\n  dup1\n    /* \"#utility.yul\":623:704   */\n  tag_81\n  jumpi\n    /* \"#utility.yul\":689:693   */\n  0x7f\n    /* \"#utility.yul\":681:687   */\n  dup3\n    /* \"#utility.yul\":677:694   */\n  and\n    /* \"#utility.yul\":667:694   */\n  swap2\n  pop\n    /* \"#utility.yul\":623:704   */\ntag_81:\n    /* \"#utility.yul\":751:753   */\n  0x20\n    /* \"#utility.yul\":743:749   */\n  dup3\n    /* \"#utility.yul\":740:754   */\n  lt\n    /* \"#utility.yul\":720:738   */\n  dup2\n    /* \"#utility.yul\":717:755   */\n  sub\n    /* \"#utility.yul\":714:798   */\n  tag_82\n  jumpi\n    /* \"#utility.yul\":770:788   */\n  tag_83\n  tag_53\n  jump\t// in\ntag_83:\n    /* \"#utility.yul\":714:798   */\ntag_82:\n    /* \"#utility.yul\":535:804   */\n  pop\n    /* \"#utility.yul\":484:804   */\n  swap2\n  swap1\n  pop\n  jump\t// out\n    /* \"#utility.yul\":810:951   */\ntag_55:\n    /* \"#utility.yul\":859:863   */\n  0x00\n    /* \"#utility.yul\":882:885   */\n  dup2\n    /* \"#utility.yul\":874:885   */\n  swap1\n  pop\n    /* \"#utility.yul\":905:908   */\n  dup2\n    /* \"#utility.yul\":902:903   */\n  0x00\n    /* \"#utility.yul\":895:909   */\n  mstore\n    /* \"#utility.yul\":939:943   */\n  0x20\n    /* \"#utility.yul\":936:937   */\n  0x00\n    /* \"#utility.yul\":926:944   */\n  keccak256\n    /* \"#utility.yul\":918:944   */\n  swap1\n  pop\n    /* \"#utility.yul\":810:951   */\n  swap2\n  swap1\n  pop\n  jump\t// out\n    /* \"#utility.yul\":957:1050   */\ntag_56:\n    /* \"#utility.yul\":994:1000   */\n  0x00\n    /* \"#utility.yul\":1041:1043   */\n  0x20\n    /* \"#utility.yul\":1036:1038   */\n  0x1f\n    /* \"#utility.yul\":1029:1034   */\n  dup4\n    /* \"#utility.yul\":1025:1039   */\n  add\n    /* \"#utility.yul\":1021:1044   */\n  div\n    /* \"#utility.yul\":1011:1044   */\n  swap1\n  pop\n    /* \"#utility.yul\":957:1050   */\n  swap2\n  swap1\n  pop\n  jump\t// out\n    /* \"#utility.yul\":1056:1163   */\ntag_57:\n    /* \"#utility.yul\":1100:1108   */\n  0x00\n    /* \"#utility.yul\":1150:1155   */\n  dup3\n    /* \"#utility.yul\":1144:1148   */\n  dup3\n    /* \"#utility.yul\":1140:1156   */\n  shl\n    /* \"#utility.yul\":1119:1156   */\n  swap1\n  pop\n    /* \"#utility.yul\":1056:1163   */\n  swap3\n  swap2\n  pop\n  pop\n  jump\t// out\n    /* \"#utility.yul\":1169:1562   */\ntag_58:\n    /* \"#utility.yul\":1238:1244   */\n  0x00\n    /* \"#utility.yul\":1288:1289   */\n  0x08\n    /* \"#utility.yul\":1276:1286   */\n  dup4\n    /* \"#utility.yul\":1272:1290   */\n  mul\n    /* \"#utility.yul\":1311:1408   */\n  tag_88\n    /* \"#utility.yul\":1341:1407   */\n  0xffffffffffffffffffffffffffffffffffffffffffffffffffffffffffffffff\n    /* \"#utility.yul\":1330:1339   */\n  dup3\n    /* \"#utility.yul\":1311:1408   */\n  tag_57\n  jump\t// in\ntag_88:\n    /* \"#utility.yul\":1429:1468   */\n  tag_89\n    /* \"#utility.yul\":1459:1467   */\n  dup7\n    /* \"#utility.yul\":1448:1457   */\n  dup4\n    /* \"#utility.yul\":1429:1468   */\n  tag_57\n  jump\t// in\ntag_89:\n    /* \"#utility.yul\":1417:1468   */\n  swap6\n  pop\n    /* \"#utility.yul\":1501:1505   */\n  dup1\n    /* \"#utility.yul\":1497:1506   */\n  not\n    /* \"#utility.yul\":1490:1495   */\n  dup5\n    /* \"#utility.yul\":1486:1507   */\n  and\n    /* \"#utility.yul\":1477:1507   */\n  swap4\n  pop\n    /* \"#utility.yul\":1550:1554   */\n  dup1\n    /* \"#utility.yul\":1540:1548   */\n  dup7\n    /* \"#utility.yul\":1536:1555   */\n  and\n    /* \"#utility.yul\":1529:1534   */\n  dup5\n    /* \"#utility.yul\":1526:1556   */\n  or\n    /* \"#utility.yul\":1516:1556   */\n  swap3\n  pop\n    /* \"#utility.yul\":1245:1562   */\n  pop\n  pop\n    /* \"#utility.yul\":1169:1562   */\n  swap4\n  swap3\n  pop\n  pop\n  pop\n  jump\t// out\n    /* \"#utility.yul\":1568:1645   */\ntag_59:\n    /* \"#utility.yul\":1605:1612   */\n  0x00\n    /* \"#utility.yul\":1634:1639   */\n  dup2\n    /* \"#utility.yul\":1623:1639   */\n  swap1\n  pop\n    /* \"#utility.yul\":1568:1645   */\n  swap2\n  swap1\n  pop\n  jump\t// out\n    /* \"#utility.yul\":1651:1711   */\ntag_60:\n    /* \"#utility.yul\":1679:1682   */\n  0x00\n    /* \"#utility.yul\":1700:1705   */\n  dup2\n    /* \"#utility.yul\":1693:1705   */\n  swap1\n  pop\n    /* \"#utility.yul\":1651:1711   */\n  swap2\n  swap1\n  pop\n  jump\t// out\n    /* \"#utility.yul\":1717:1859   */\ntag_61:\n    /* \"#utility.yul\":1767:1776   */\n  0x00\n    /* \"#utility.yul\":1800:1853   */\n  tag_93\n    /* \"#utility.yul\":1818:1852   */\n  tag_94\n    /* \"#utility.yul\":1827:1851   */\n  tag_95\n    /* \"#utility.yul\":1845:1850   */\n  dup5\n    /* \"#utility.yul\":1827:1851   */\n  tag_59\n  jump\t// in\ntag_95:\n    /* \"#utility.yul\":1818:1852   */\n  tag_60\n  jump\t// in\ntag_94:\n    /* \"#utility.yul\":1800:1853   */\n  tag_59\n  jump\t// in\ntag_93:\n    /* \"#utility.yul\":1787:1853   */\n  swap1\n  pop\n    /* \"#utility.yul\":1717:1859   */\n  swap2\n  swap1\n  pop\n  jump\t// out\n    /* \"#utility.yul\":1865:1940   */\ntag_62:\n    /* \"#utility.yul\":1908:1911   */\n  0x00\n    /* \"#utility.yul\":1929:1934   */\n  dup2\n    /* \"#utility.yul\":1922:1934   */\n  swap1\n  pop\n    /* \"#utility.yul\":1865:1940   */\n  swap2\n  swap1\n  pop\n  jump\t// out\n    /* \"#utility.yul\":1946:2215   */\ntag_63:\n    /* \"#utility.yul\":2056:2095   */\n  tag_98\n    /* \"#utility.yul\":2087:2094   */\n  dup4\n    /* \"#utility.yul\":2056:2095   */\n  tag_61\n  jump\t// in\ntag_98:\n    /* \"#utility.yul\":2117:2208   */\n  tag_99\n    /* \"#utility.yul\":2166:2207   */\n  tag_100\n    /* \"#utility.yul\":2190:2206   */\n  dup3\n    /* \"#utility.yul\":2166:2207   */\n  tag_62\n  jump\t// in\ntag_100:\n    /* \"#utility.yul\":2158:2164   */\n  dup5\n    /* \"#utility.yul\":2151:2155   */\n  dup5\n    /* \"#utility.yul\":2145:2156   */\n  sload\n    /* \"#utility.yul\":2117:2208   */\n  tag_58\n  jump\t// in\ntag_99:\n    /* \"#utility.yul\":2111:2115   */\n  dup3\n    /* \"#utility.yul\":2104:2209   */\n  sstore\n    /* \"#utility.yul\":2022:2215   */\n  pop\n    /* \"#utility.yul\":1946:2215   */\n  pop\n  pop\n  pop\n  jump\t// out\n    /* \"#utility.yul\":2221:2294   */\ntag_64:\n    /* \"#utility.yul\":2266:2269   */\n  0x00\n    /* \"#utility.yul\":2221:2294   */\n  swap1\n  jump\t// out\n    /* \"#utility.yul\":2300:2489   */\ntag_65:\n    /* \"#utility.yul\":2377:2409   */\n  tag_103\n  tag_64\n  jump\t// in\ntag_103:\n    /* \"#utility.yul\":2418:2483   */\n  tag_104\n    /* \"#utility.yul\":2476:2482   */\n  dup2\n    /* \"#utility.yul\":2468:2474   */\n  dup5\n    /* \"#utility.yul\":2462:2466   */\n  dup5\n    /* \"#utility.yul\":2418:2483   */\n  tag_63\n  jump\t// in\ntag_104:\n    /* \"#utility.yul\":2353:2489   */\n  pop\n    /* \"#utility.yul\":2300:2489   */\n  pop\n  pop\n  jump\t// out\n    /* \"#utility.yul\":2495:2681   */\ntag_66:\n    /* \"#utility.yul\":2555:2675   */\ntag_106:\n    /* \"#utility.yul\":2572:2575   */\n  dup2\n    /* \"#utility.yul\":2565:2570   */\n  dup2\n    /* \"#utility.yul\":2562:2576   */\n  lt\n    /* \"#utility.yul\":2555:2675   */\n  iszero\n  tag_108\n  jumpi\n    /* \"#utility.yul\":2626:2665   */\n  tag_109\n    /* \"#utility.yul\":2663:2664   */\n  0x00\n    /* \"#utility.yul\":2656:2661   */\n  dup3\n    /* \"#utility.yul\":2626:2665   */\n  tag_65\n  jump\t// in\ntag_109:\n    /* \"#utility.yul\":2599:2600   */\n  0x01\n    /* \"#utility.yul\":2592:2597   */\n  dup2\n    /* \"#utility.yul\":2588:2601   */\n  add\n    /* \"#utility.yul\":2579:2601   */\n  swap1\n  pop\n    /* \"#utility.yul\":2555:2675   */\n  jump(tag_106)\ntag_108:\n    /* \"#utility.yul\":2495:2681   */\n  pop\n  pop\n  jump\t// out\n    /* \"#utility.yul\":2687:3230   */\ntag_67:\n    /* \"#utility.yul\":2788:2790   */\n  0x1f\n    /* \"#utility.yul\":2783:2786   */\n  dup3\n    /* \"#utility.yul\":2780:2791   */\n  gt\n    /* \"#utility.yul\":2777:3223   */\n  iszero\n  tag_111\n  jumpi\n    /* \"#utility.yul\":2822:2860   */\n  tag_112\n    /* \"#utility.yul\":2854:2859   */\n  dup2\n    /* \"#utility.yul\":2822:2860   */\n  tag_55\n  jump\t// in\ntag_112:\n    /* \"#utility.yul\":2906:2935   */\n  tag_113\n    /* \"#utility.yul\":2924:2934   */\n  dup5\n    /* \"#utility.yul\":2906:2935   */\n  tag_56\n  jump\t// in\ntag_113:\n    /* \"#utility.yul\":2896:2904   */\n  dup2\n    /* \"#utility.yul\":2892:2936   */\n  add\n    /* \"#utility.yul\":3089:3091   */\n  0x20\n    /* \"#utility.yul\":3077:3087   */\n  dup6\n    /* \"#utility.yul\":3074:3092   */\n  lt\n    /* \"#utility.yul\":3071:3120   */\n  iszero\n  tag_114\n  jumpi\n    /* \"#utility.yul\":3110:3118   */\n  dup2\n    /* \"#utility.yul\":3095:3118   */\n  swap1\n  pop\n    /* \"#utility.yul\":3071:3120   */\ntag_114:\n    /* \"#utility.yul\":3133:3213   */\n  tag_115\n    /* \"#utility.yul\":3189:3211   */\n  tag_116\n    /* \"#utility.yul\":3207:3210   */\n  dup6\n    /* \"#utility.yul\":3189:3211   */\n  tag_56\n  jump\t// in\ntag_116:\n    /* \"#utility.yul\":3179:3187   */\n  dup4\n    /* \"#utility.yul\":3175:3212   */\n  add\n    /* \"#utility.yul\":3162:3173   */\n  dup3\n    /* \"#utility.yul\":3133:3213   */\n  tag_66\n  jump\t// in\ntag_115:\n    /* \"#utility.yul\":2792:3223   */\n  pop\n  pop\n    /* \"#utility.yul\":2777:3223   */\ntag_111:\n    /* \"#utility.yul\":2687:3230   */\n  pop\n  pop\n  pop\n  jump\t// out\n    /* \"#utility.yul\":3236:3353   */\ntag_68:\n    /* \"#utility.yul\":3290:3298   */\n  0x00\n    /* \"#utility.yul\":3340:3345   */\n  dup3\n    /* \"#utility.yul\":3334:3338   */\n  dup3\n    /* \"#utility.yul\":3330:3346   */\n  shr\n    /* \"#utility.yul\":3309:3346   */\n  swap1\n  pop\n    /* \"#utility.yul\":3236:3353   */\n  swap3\n  swap2\n  pop\n  pop\n  jump\t// out\n    /* \"#utility.yul\":3359:3528   */\ntag_69:\n    /* \"#utility.yul\":3403:3409   */\n  0x00\n    /* \"#utility.yul\":3436:3487   */\n  tag_119\n    /* \"#utility.yul\":3484:3485   */\n  0x00\n    /* \"#utility.yul\":3480:3486   */\n  not\n    /* \"#utility.yul\":3472:3477   */\n  dup5\n    /* \"#utility.yul\":3469:3470   */\n  0x08\n    /* \"#utility.yul\":3465:3478   */\n  mul\n    /* \"#utility.yul\":3436:3487   */\n  tag_68\n  jump\t// in\ntag_119:\n    /* \"#utility.yul\":3432:3488   */\n  not\n    /* \"#utility.yul\":3517:3521   */\n  dup1\n    /* \"#utility.yul\":3511:3515   */\n  dup4\n    /* \"#utility.yul\":3507:3522   */\n  and\n    /* \"#utility.yul\":3497:3522   */\n  swap2\n  pop\n    /* \"#utility.yul\":3410:3528   */\n  pop\n    /* \"#utility.yul\":3359:3528   */\n  swap3\n  swap2\n  pop\n  pop\n  jump\t// out\n    /* \"#utility.yul\":3533:3828   */\ntag_70:\n    /* \"#utility.yul\":3609:3613   */\n  0x00\n    /* \"#utility.yul\":3755:3784   */\n  tag_121\n    /* \"#utility.yul\":3780:3783   */\n  dup4\n    /* \"#utility.yul\":3774:3778   */\n  dup4\n    /* \"#utility.yul\":3755:3784   */\n  tag_69\n  jump\t// in\ntag_121:\n    /* \"#utility.yul\":3747:3784   */\n  swap2\n  pop\n    /* \"#utility.yul\":3817:3820   */\n  dup3\n    /* \"#utility.yul\":3814:3815   */\n  0x02\n    /* \"#utility.yul\":3810:3821   */\n  mul\n    /* \"#utility.yul\":3804:3808   */\n  dup3\n    /* \"#utility.yul\":3801:3822   */\n  or\n    /* \"#utility.yul\":3793:3822   */\n  swap1\n  pop\n    /* \"#utility.yul\":3533:3828   */\n  swap3\n  swap2\n  pop\n  pop\n  jump\t// out\n    /* \"#utility.yul\":3833:5228   */\ntag_7:\n    /* \"#utility.yul\":3950:3987   */\n  tag_123\n    /* \"#utility.yul\":3983:3986   */\n  dup3\n    /* \"#utility.yul\":3950:3987   */\n  tag_51\n  jump\t// in\ntag_123:\n    /* \"#utility.yul\":4052:4070   */\n  0xffffffffffffffff\n    /* \"#utility.yul\":4044:4050   */\n  dup2\n    /* \"#utility.yul\":4041:4071   */\n  gt\n    /* \"#utility.yul\":4038:4094   */\n  iszero\n  tag_124\n  jumpi\n    /* \"#utility.yul\":4074:4092   */\n  tag_125\n  tag_52\n  jump\t// in\ntag_125:\n    /* \"#utility.yul\":4038:4094   */\ntag_124:\n    /* \"#utility.yul\":4118:4156   */\n  tag_126\n    /* \"#utility.yul\":4150:4154   */\n  dup3\n    /* \"#utility.yul\":4144:4155   */\n  sload\n    /* \"#utility.yul\":4118:4156   */\n  tag_54\n  jump\t// in\ntag_126:\n    /* \"#utility.yul\":4203:4270   */\n  tag_127\n    /* \"#utility.yul\":4263:4269   */\n  dup3\n    /* \"#utility.yul\":4255:4261   */\n  dup3\n    /* \"#utility.yul\":4249:4253   */\n  dup6\n    /* \"#utility.yul\":4203:4270   */\n  tag_67\n  jump\t// in\ntag_127:\n    /* \"#utility.yul\":4297:4298   */\n  0x00\n    /* \"#utility.yul\":4321:4325   */\n  0x20\n    /* \"#utility.yul\":4308:4325   */\n  swap1\n  pop\n    /* \"#utility.yul\":4353:4355   */\n  0x1f\n    /* \"#utility.yul\":4345:4351   */\n  dup4\n    /* \"#utility.yul\":4342:4356   */\n  gt\n    /* \"#utility.yul\":4370:4371   */\n  0x01\n    /* \"#utility.yul\":4365:4983   */\n  dup2\n  eq\n  tag_129\n  jumpi\n    /* \"#utility.yul\":5027:5028   */\n  0x00\n    /* \"#utility.yul\":5044:5050   */\n  dup5\n    /* \"#utility.yul\":5041:5118   */\n  iszero\n  tag_130\n  jumpi\n    /* \"#utility.yul\":5093:5102   */\n  dup3\n    /* \"#utility.yul\":5088:5091   */\n  dup8\n    /* \"#utility.yul\":5084:5103   */\n  add\n    /* \"#utility.yul\":5078:5104   */\n  mload\n    /* \"#utility.yul\":5069:5104   */\n  swap1\n  pop\n    /* \"#utility.yul\":5041:5118   */\ntag_130:\n    /* \"#utility.yul\":5144:5211   */\n  tag_131\n    /* \"#utility.yul\":5204:5210   */\n  dup6\n    /* \"#utility.yul\":5197:5202   */\n  dup3\n    /* \"#utility.yul\":5144:5211   */\n  tag_70\n  jump\t// in\ntag_131:\n    /* \"#utility.yul\":5138:5142   */\n  dup7\n    /* \"#utility.yul\":5131:5212   */\n  sstore\n    /* \"#utility.yul\":5000:5222   */\n  pop\n    /* \"#utility.yul\":4335:5222   */\n  jump(tag_128)\n    /* \"#utility.yul\":4365:4983   */\ntag_129:\n    /* \"#utility.yul\":4417:4421   */\n  0x1f\n    /* \"#utility.yul\":4413:4422   */\n  not\n    /* \"#utility.yul\":4405:4411   */\n  dup5\n    /* \"#utility.yul\":4401:4423   */\n  and\n    /* \"#utility.yul\":4451:4488   */\n  tag_132\n    /* \"#utility.yul\":4483:4487   */\n  dup7\n    /* \"#utility.yul\":4451:4488   */\n  tag_55\n  jump\t// in\ntag_132:\n    /* \"#utility.yul\":4510:4511   */\n  0x00\n    /* \"#utility.yul\":4524:4732   */\ntag_133:\n    /* \"#utility.yul\":4538:4545   */\n  dup3\n    /* \"#utility.yul\":4535:4536   */\n  dup2\n    /* \"#utility.yul\":4532:4546   */\n  lt\n    /* \"#utility.yul\":4524:4732   */\n  iszero\n  tag_135\n  jumpi\n    /* \"#utility.yul\":4617:4626   */\n  dup5\n    /* \"#utility.yul\":4612:4615   */\n  dup10\n    /* \"#utility.yul\":4608:4627   */\n  add\n    /* \"#utility.yul\":4602:4628   */\n  mload\n    /* \"#utility.yul\":4594:4600   */\n  dup3\n    /* \"#utility.yul\":4587:4629   */\n  sstore\n    /* \"#utility.yul\":4668:4669   */\n  0x01\n    /* \"#utility.yul\":4660:4666   */\n  dup3\n    /* \"#utility.yul\":4656:4670   */\n  add\n    /* \"#utility.yul\":4646:4670   */\n  swap2\n  pop\n    /* \"#utility.yul\":4715:4717   */\n  0x20\n    /* \"#utility.yul\":4704:4713   */\n  dup6\n    /* \"#utility.yul\":4700:4718   */\n  add\n    /* \"#utility.yul\":4687:4718   */\n  swap5\n  pop\n    /* \"#utility.yul\":4561:4565   */\n  0x20\n    /* \"#utility.yul\":4558:4559   */\n  dup2\n    /* \"#utility.yul\":4554:4566   */\n  add\n    /* \"#utility.yul\":4549:4566   */\n  swap1\n  pop\n    /* \"#utility.yul\":4524:4732   */\n  jump(tag_133)\ntag_135:\n    /* \"#utility.yul\":4760:4766   */\n  dup7\n    /* \"#utility.yul\":4751:4758   */\n  dup4\n    /* \"#utility.yul\":4748:4767   */\n  lt\n    /* \"#utility.yul\":4745:4924   */\n  iszero\n  tag_136\n  jumpi\n    /* \"#utility.yul\":4818:4827   */\n  dup5\n    /* \"#utility.yul\":4813:4816   */\n  dup10\n    /* \"#utility.yul\":4809:4828   */\n  add\n    /* \"#utility.yul\":4803:4829   */\n  mload\n    /* \"#utility.yul\":4861:4909   */\n  tag_137\n    /* \"#utility.yul\":4903:4907   */\n  0x1f\n    /* \"#utility.yul\":4895:4901   */\n  dup10\n    /* \"#utility.yul\":4891:4908   */\n  and\n    /* \"#utility.yul\":4880:4889   */\n  dup3\n    /* \"#utility.yul\":4861:4909   */\n  tag_69\n  jump\t// in\ntag_137:\n    /* \"#utility.yul\":4853:4859   */\n  dup4\n    /* \"#utility.yul\":4846:4910   */\n  sstore\n    /* \"#utility.yul\":4768:4924   */\n  pop\n    /* \"#utility.yul\":4745:4924   */\ntag_136:\n    /* \"#utility.yul\":4970:4971   */\n  0x01\n    /* \"#utility.yul\":4966:4967   */\n  0x02\n    /* \"#utility.yul\":4958:4964   */\n  dup9\n    /* \"#utility.yul\":4954:4968   */\n  mul\n    /* \"#utility.yul\":4950:4972   */\n  add\n    /* \"#utility.yul\":4944:4948   */\n  dup9\n    /* \"#utility.yul\":4937:4973   */\n  sstore\n    /* \"#utility.yul\":4372:4983   */\n  pop\n  pop\n  pop\n    /* \"#utility.yul\":4335:5222   */\ntag_128:\n  pop\n    /* \"#utility.yul\":3925:5228   */\n  pop\n  pop\n  pop\n    /* \"#utility.yul\":3833:5228   */\n  pop\n  pop\n  jump\t// out\n    /* \"#utility.yul\":5234:5360   */\ntag_71:\n    /* \"#utility.yul\":5271:5278   */\n  0x00\n    /* \"#utility.yul\":5311:5353   */\n  0xffffffffffffffffffffffffffffffffffffffff\n    /* \"#utility.yul\":5304:5309   */\n  dup3\n    /* \"#utility.yul\":5300:5354   */\n  and\n    /* \"#utility.yul\":5289:5354   */\n  swap1\n  pop\n    /* \"#utility.yul\":5234:5360   */\n  swap2\n  swap1\n  pop\n  jump\t// out\n    /* \"#utility.yul\":5366:5462   */\ntag_72:\n    /* \"#utility.yul\":5403:5410   */\n  0x00\n    /* \"#utility.yul\":5432:5456   */\n  tag_140\n    /* \"#utility.yul\":5450:5455   */\n  dup3\n    /* \"#utility.yul\":5432:5456   */\n  tag_71\n  jump\t// in\ntag_140:\n    /* \"#utility.yul\":5421:5456   */\n  swap1\n  pop\n    /* \"#utility.yul\":5366:5462   */\n  swap2\n  swap1\n  pop\n  jump\t// out\n    /* \"#utility.yul\":5468:5586   */\ntag_73:\n    /* \"#utility.yul\":5555:5579   */\n  tag_142\n    /* \"#utility.yul\":5573:5578   */\n  dup2\n    /* \"#utility.yul\":5555:5579   */\n  tag_72\n  jump\t// in\ntag_142:\n    /* \"#utility.yul\":5550:5553   */\n  dup3\n    /* \"#utility.yul\":5543:5580   */\n  mstore\n    /* \"#utility.yul\":5468:5586   */\n  pop\n  pop\n  jump\t// out\n    /* \"#utility.yul\":5592:5814   */\ntag_35:\n    /* \"#utility.yul\":5685:5689   */\n  0x00\n    /* \"#utility.yul\":5723:5725   */\n  0x20\n    /* \"#utility.yul\":5712:5721   */\n  dup3\n    /* \"#utility.yul\":5708:5726   */\n  add\n    /* \"#utility.yul\":5700:5726   */\n  swap1\n  pop\n    /* \"#utility.yul\":5736:5807   */\n  tag_144\n    /* \"#utility.yul\":5804:5805   */\n  0x00\n    /* \"#utility.yul\":5793:5802   */\n  dup4\n    /* \"#utility.yul\":5789:5806   */\n  add\n    /* \"#utility.yul\":5780:5786   */\n  dup5\n    /* \"#utility.yul\":5736:5807   */\n  tag_73\n  jump\t// in\ntag_144:\n    /* \"#utility.yul\":5592:5814   */\n  swap3\n  swap2\n  pop\n  pop\n  jump\t// out\n    /* \"#utility.yul\":5820:6000   */\ntag_74:\n    /* \"#utility.yul\":5868:5945   */\n  0x4e487b7100000000000000000000000000000000000000000000000000000000\n    /* \"#utility.yul\":5865:5866   */\n  0x00\n    /* \"#utility.yul\":5858:5946   */\n  mstore\n    /* \"#utility.yul\":5965:5969   */\n  0x11\n    /* \"#utility.yul\":5962:5963   */\n  0x04\n    /* \"#utility.yul\":5955:5970   */\n  mstore\n    /* \"#utility.yul\":5989:5993   */\n  0x24\n    /* \"#utility.yul\":5986:5987   */\n  0x00\n    /* \"#utility.yul\":5979:5994   */\n  revert\n    /* \"#utility.yul\":6006:6197   */\ntag_42:\n    /* \"#utility.yul\":6046:6049   */\n  0x00\n    /* \"#utility.yul\":6065:6085   */\n  tag_147\n    /* \"#utility.yul\":6083:6084   */\n  dup3\n    /* \"#utility.yul\":6065:6085   */\n  tag_59\n  jump\t// in\ntag_147:\n    /* \"#utility.yul\":6060:6085   */\n  swap2\n  pop\n    /* \"#utility.yul\":6099:6119   */\n  tag_148\n    /* \"#utility.yul\":6117:6118   */\n  dup4\n    /* \"#utility.yul\":6099:6119   */\n  tag_59\n  jump\t// in\ntag_148:\n    /* \"#utility.yul\":6094:6119   */\n  swap3\n  pop\n    /* \"#utility.yul\":6142:6143   */\n  dup3\n    /* \"#utility.yul\":6139:6140   */\n  dup3\n    /* \"#utility.yul\":6135:6144   */\n  add\n    /* \"#utility.yul\":6128:6144   */\n  swap1\n  pop\n    /* \"#utility.yul\":6163:6166   */\n  dup1\n    /* \"#utility.yul\":6160:6161   */\n  dup3\n    /* \"#utility.yul\":6157:6167   */\n  gt\n    /* \"#utility.yul\":6154:6190   */\n  iszero\n  tag_149\n  jumpi\n    /* \"#utility.yul\":6170:6188   */\n  tag_150\n  tag_74\n  jump\t// in\ntag_150:\n    /* \"#utility.yul\":6154:6190   */\ntag_149:\n    /* \"#utility.yul\":6006:6197   */\n  swap3\n  swap2\n  pop\n  pop\n  jump\t// out\n    /* \"#utility.yul\":6203:6321   */\ntag_75:\n    /* \"#utility.yul\":6290:6314   */\n  tag_152\n    /* \"#utility.yul\":6308:6313   */\n  dup2\n    /* \"#utility.yul\":6290:6314   */\n  tag_59\n  jump\t// in\ntag_152:\n    /* \"#utility.yul\":6285:6288   */\n  dup3\n    /* \"#utility.yul\":6278:6315   */\n  mstore\n    /* \"#utility.yul\":6203:6321   */\n  pop\n  pop\n  jump\t// out\n    /* \"#utility.yul\":6327:6769   */\ntag_46:\n    /* \"#utility.yul\":6476:6480   */\n  0x00\n    /* \"#utility.yul\":6514:6516   */\n  0x60\n    /* \"#utility.yul\":6503:6512   */\n  dup3\n    /* \"#utility.yul\":6499:6517   */\n  add\n    /* \"#utility.yul\":6491:6517   */\n  swap1\n  pop\n    /* \"#utility.yul\":6527:6598   */\n  tag_154\n    /* \"#utility.yul\":6595:6596   */\n  0x00\n    /* \"#utility.yul\":6584:6593   */\n  dup4\n    /* \"#utility.yul\":6580:6597   */\n  add\n    /* \"#utility.yul\":6571:6577   */\n  dup7\n    /* \"#utility.yul\":6527:6598   */\n  tag_73\n  jump\t// in\ntag_154:\n    /* \"#utility.yul\":6608:6680   */\n  tag_155\n    /* \"#utility.yul\":6676:6678   */\n  0x20\n    /* \"#utility.yul\":6665:6674   */\n  dup4\n    /* \"#utility.yul\":6661:6679   */\n  add\n    /* \"#utility.yul\":6652:6658   */\n  dup6\n    /* \"#utility.yul\":6608:6680   */\n  tag_75\n  jump\t// in\ntag_155:\n    /* \"#utility.yul\":6690:6762   */\n  tag_156\n    /* \"#utility.yul\":6758:6760   */\n  0x40\n    /* \"#utility.yul\":6747:6756   */\n  dup4\n    /* \"#utility.yul\":6743:6761   */\n  add\n    /* \"#utility.yul\":6734:6740   */\n  dup5\n    /* \"#utility.yul\":6690:6762   */\n  tag_75\n  jump\t// in\ntag_156:\n    /* \"#utility.yul\":6327:6769   */\n  swap5\n  swap4\n  pop\n  pop\n  pop\n  pop\n  jump\t// out\n    /* \"#utility.yul\":6775:6997   */\ntag_50:\n    /* \"#utility.yul\":6868:6872   */\n  0x00\n    /* \"#utility.yul\":6906:6908   */\n  0x20\n    /* \"#utility.yul\":6895:6904   */\n  dup3\n    /* \"#utility.yul\":6891:6909   */\n  add\n    /* \"#utility.yul\":6883:6909   */\n  swap1\n  pop\n    /* \"#utility.yul\":6919:6990   */\n  tag_158\n    /* \"#utility.yul\":6987:6988   */\n  0x00\n    /* \"#utility.yul\":6976:6985   */\n  dup4\n    /* \"#utility.yul\":6972:6989   */\n  add\n    /* \"#utility.yul\":6963:6969   */\n  dup5\n    /* \"#utility.yul\":6919:6990   */\n  tag_75\n  jump\t// in\ntag_158:\n    /* \"#utility.yul\":6775:6997   */\n  swap3\n  swap2\n  pop\n  pop\n  jump\t// out\n    /* \"src/token.sol\":768:14133  contract EqualFiToken is ERC20, AccessControl, ReentrancyGuard {... */\ntag_24:\n  dataSize(sub_0)\n  dup1\n  dataOffset(sub_0)\n  0x00\n  codecopy\n  0x00\n  return\nstop\n\nsub_0: assembly {\n        /* \"src/token.sol\":768:14133  contract EqualFiToken is ERC20, AccessControl, ReentrancyGuard {... */\n      mstore(0x40, 0x80)\n      callvalue\n      dup1\n      iszero\n      tag_1\n      jumpi\n      0x00\n      dup1\n      revert\n    tag_1:\n      pop\n      jumpi(tag_2, lt(calldatasize, 0x04))\n      shr(0xe0, calldataload(0x00))\n      dup1\n      0x79cc6790\n      gt\n      tag_45\n      jumpi\n      dup1\n      0xa9059cbb\n      gt\n      tag_46\n      jumpi\n      dup1\n      0xd547741f\n      gt\n      tag_47\n      jumpi\n      dup1\n      0xd547741f\n      eq\n      tag_39\n      jumpi\n      dup1\n      0xdd62ed3e\n      eq\n      tag_40\n      jumpi\n      dup1\n      0xdeb6db36\n      eq\n      tag_41\n      jumpi\n      dup1\n      0xea5cb532\n      eq\n      tag_42\n      jumpi\n      dup1\n      0xf05d16f7\n      eq\n      tag_43\n      jumpi\n      dup1\n      0xf2250d3d\n      eq\n      tag_44\n      jumpi\n      jump(tag_2)\n    tag_47:\n      dup1\n      0xa9059cbb\n      eq\n      tag_34\n      jumpi\n      dup1\n      0xb6a3f59a\n      eq\n      tag_35\n      jumpi\n      dup1\n      0xc30796ab\n      eq\n      tag_36\n      jumpi\n      dup1\n      0xcf820461\n      eq\n      tag_37\n      jumpi\n      dup1\n      0xd1c9f69b\n      eq\n      tag_38\n      jumpi\n      jump(tag_2)\n    tag_46:\n      dup1\n      0x91d14854\n      gt\n      tag_48\n      jumpi\n      dup1\n      0x91d14854\n      eq\n      tag_29\n      jumpi\n      dup1\n      0x956feccf\n      eq\n      tag_30\n      jumpi\n      dup1\n      0x95d89b41\n      eq\n      tag_31\n      jumpi\n      dup1\n      0xa0712d68\n      eq\n      tag_32\n      jumpi\n      dup1\n      0xa217fddf\n      eq\n      tag_33\n      jumpi\n      jump(tag_2)\n    tag_48:\n      dup1\n      0x79cc6790\n      eq\n      tag_24\n      jumpi\n      dup1\n      0x7e92a7fd\n      eq\n      tag_25\n      jumpi\n      dup1\n      0x8d580b9f\n      eq\n      tag_26\n      jumpi\n      dup1\n      0x8ebed5b1\n      eq\n      tag_27\n      jumpi\n      dup1\n      0x8f770ad0\n      eq\n      tag_28\n      jumpi\n      jump(tag_2)\n    tag_45:\n      dup1\n      0x36568abe\n      gt\n      tag_49\n      jumpi\n      dup1\n      0x48132f48\n      gt\n      tag_50\n      jumpi\n      dup1\n      0x48132f48\n      eq\n      tag_18\n      jumpi\n      dup1\n      0x51557289\n      eq\n      tag_19\n      jumpi\n      dup1\n      0x53a4c31e\n      eq\n      tag_20\n      jumpi\n      dup1\n      0x5c975abb\n      eq\n      tag_21\n      jumpi\n      dup1\n      0x6ba77a38\n      eq\n      tag_22\n      jumpi\n      dup1\n      0x70a08231\n      eq\n      tag_23\n      jumpi\n      jump(tag_2)\n    tag_50:\n      dup1\n      0x36568abe\n      eq\n      tag_13\n      jumpi\n      dup1\n      0x3f914aef\n      eq\n      tag_14\n      jumpi\n      dup1\n      0x41f431fd\n      eq\n      tag_15\n      jumpi\n      dup1\n      0x42966c68\n      eq\n      tag_16\n      jumpi\n      dup1\n      0x449a52f8\n      eq\n      tag_17\n      jumpi\n      jump(tag_2)\n    tag_49:\n      dup1\n      0x18160ddd\n      gt\n      tag_51\n      jumpi\n      dup1\n      0x18160ddd\n      eq\n      tag_8\n      jumpi\n      dup1\n      0x23b872dd\n      eq\n      tag_9\n      jumpi\n      dup1\n      0x248a9ca3\n      eq\n      tag_10\n      jumpi\n      dup1\n      0x2f2ff15d\n      eq\n      tag_11\n      jumpi\n      dup1\n      0x313ce567\n      eq\n      tag_12\n      jumpi\n      jump(tag_2)\n    tag_51:\n      dup1\n      0x01ffc9a7\n      eq\n      tag_3\n      jumpi\n      dup1\n      0x060cf4e8\n      eq\n      tag_4\n      jumpi\n      dup1\n      0x06fdde03\n      eq\n      tag_5\n      jumpi\n      dup1\n      0x095ea7b3\n      eq\n      tag_6\n      jumpi\n      dup1\n      0x16c38b3c\n      eq\n      tag_7\n      jumpi\n    tag_2:\n      0x00\n      dup1\n      revert\n        /* \"lib/openzeppelin-contracts/contracts/access/AccessControl.sol\":2565:2767  function supportsInterface(bytes4 interfaceId) public view virtual override returns (bool) {... */\n    tag_3:\n      tag_52\n      0x04\n      dup1\n      calldatasize\n      sub\n      dup2\n      add\n      swap1\n      tag_53\n      swap2\n      swap1\n      tag_54\n      jump\t// in\n    tag_53:\n      tag_55\n      jump\t// in\n    tag_52:\n      mload(0x40)\n      tag_56\n      swap2\n      swap1\n      tag_57\n      jump\t// in\n    tag_56:\n      mload(0x40)\n      dup1\n      swap2\n      sub\n      swap1\n      return\n        /* \"src/token.sol\":1924:1940  uint public _cap */\n    tag_4:\n      tag_58\n      tag_59\n      jump\t// in\n    tag_58:\n      mload(0x40)\n      tag_60\n      swap2\n      swap1\n      tag_61\n      jump\t// in\n    tag_60:\n      mload(0x40)\n      dup1\n      swap2\n      sub\n      swap1\n      return\n        /* \"lib/openzeppelin-contracts/contracts/token/ERC20/ERC20.sol\":1779:1868  function name() public view virtual returns (string memory) {... */\n    tag_5:\n      tag_62\n      tag_63\n      jump\t// in\n    tag_62:\n      mload(0x40)\n      tag_64\n      swap2\n      swap1\n      tag_65\n      jump\t// in\n    tag_64:\n      mload(0x40)\n      dup1\n      swap2\n      sub\n      swap1\n      return\n        /* \"lib/openzeppelin-contracts/contracts/token/ERC20/ERC20.sol\":3998:4184  function approve(address spender, uint256 value) public virtual returns (bool) {... */\n    tag_6:\n      tag_66\n      0x04\n      dup1\n      calldatasize\n      sub\n      dup2\n      add\n      swap1\n      tag_67\n      swap2\n      swap1\n      tag_68\n      jump\t// in\n    tag_67:\n      tag_69\n      jump\t// in\n    tag_66:\n      mload(0x40)\n      tag_70\n      swap2\n      swap1\n      tag_57\n      jump\t// in\n    tag_70:\n      mload(0x40)\n      dup1\n      swap2\n      sub\n      swap1\n      return\n        /* \"src/token.sol\":6175:6442  function setPaused(bool _paused) external onlyRole(_ADMIN) {... */\n    tag_7:\n      tag_71\n      0x04\n      dup1\n      calldatasize\n      sub\n      dup2\n      add\n      swap1\n      tag_72\n      swap2\n      swap1\n      tag_73\n      jump\t// in\n    tag_72:\n      tag_74\n      jump\t// in\n    tag_71:\n      stop\n        /* \"lib/openzeppelin-contracts/contracts/token/ERC20/ERC20.sol\":2849:2946  function totalSupply() public view virtual returns (uint256) {... */\n    tag_8:\n      tag_75\n      tag_76\n      jump\t// in\n    tag_75:\n      mload(0x40)\n      tag_77\n      swap2\n      swap1\n      tag_61\n      jump\t// in\n    tag_77:\n      mload(0x40)\n      dup1\n      swap2\n      sub\n      swap1\n      return\n        /* \"src/token.sol\":11514:12260  function transferFrom(address from, address to, uint256 value) nonReentrant public virtual override returns (bool) {... */\n    tag_9:\n      tag_78\n      0x04\n      dup1\n      calldatasize\n      sub\n      dup2\n      add\n      swap1\n      tag_79\n      swap2\n      swap1\n      tag_80\n      jump\t// in\n    tag_79:\n      tag_81\n      jump\t// in\n    tag_78:\n      mload(0x40)\n      tag_82\n      swap2\n      swap1\n      tag_57\n      jump\t// in\n    tag_82:\n      mload(0x40)\n      dup1\n      swap2\n      sub\n      swap1\n      return\n        /* \"lib/openzeppelin-contracts/contracts/access/AccessControl.sol\":3810:3930  function getRoleAdmin(bytes32 role) public view virtual returns (bytes32) {... */\n    tag_10:\n      tag_83\n      0x04\n      dup1\n      calldatasize\n      sub\n      dup2\n      add\n      swap1\n      tag_84\n      swap2\n      swap1\n      tag_85\n      jump\t// in\n    tag_84:\n      tag_86\n      jump\t// in\n    tag_83:\n      mload(0x40)\n      tag_87\n      swap2\n      swap1\n      tag_88\n      jump\t// in\n    tag_87:\n      mload(0x40)\n      dup1\n      swap2\n      sub\n      swap1\n      return\n        /* \"lib/openzeppelin-contracts/contracts/access/AccessControl.sol\":4226:4362  function grantRole(bytes32 role, address account) public virtual onlyRole(getRoleAdmin(role)) {... */\n    tag_11:\n      tag_89\n      0x04\n      dup1\n      calldatasize\n      sub\n      dup2\n      add\n      swap1\n      tag_90\n      swap2\n      swap1\n      tag_91\n      jump\t// in\n    tag_90:\n      tag_92\n      jump\t// in\n    tag_89:\n      stop\n        /* \"lib/openzeppelin-contracts/contracts/token/ERC20/ERC20.sol\":2707:2789  function decimals() public view virtual returns (uint8) {... */\n    tag_12:\n      tag_93\n      tag_94\n      jump\t// in\n    tag_93:\n      mload(0x40)\n      tag_95\n      swap2\n      swap1\n      tag_96\n      jump\t// in\n    tag_95:\n      mload(0x40)\n      dup1\n      swap2\n      sub\n      swap1\n      return\n        /* \"lib/openzeppelin-contracts/contracts/access/AccessControl.sol\":5328:5573  function renounceRole(bytes32 role, address callerConfirmation) public virtual {... */\n    tag_13:\n      tag_97\n      0x04\n      dup1\n      calldatasize\n      sub\n      dup2\n      add\n      swap1\n      tag_98\n      swap2\n      swap1\n      tag_91\n      jump\t// in\n    tag_98:\n      tag_99\n      jump\t// in\n    tag_97:\n      stop\n        /* \"src/token.sol\":8507:8715  function setWhitelistAddress(address _whitelist, bool _status) external onlyRole(_ADMIN) {... */\n    tag_14:\n      tag_100\n      0x04\n      dup1\n      calldatasize\n      sub\n      dup2\n      add\n      swap1\n      tag_101\n      swap2\n      swap1\n      tag_102\n      jump\t// in\n    tag_101:\n      tag_103\n      jump\t// in\n    tag_100:\n      stop\n        /* \"src/token.sol\":13397:13638  function moveERC20(IERC20 _ERC20, address _dest, uint _ERC20Amount) nonReentrant public onlyRole(_RESCUE) {... */\n    tag_15:\n      tag_104\n      0x04\n      dup1\n      calldatasize\n      sub\n      dup2\n      add\n      swap1\n      tag_105\n      swap2\n      swap1\n      tag_106\n      jump\t// in\n    tag_105:\n      tag_107\n      jump\t// in\n    tag_104:\n      stop\n        /* \"src/token.sol\":10400:10555  function burn(uint _amount) external pause onlyRole(_BURN) { ... */\n    tag_16:\n      tag_108\n      0x04\n      dup1\n      calldatasize\n      sub\n      dup2\n      add\n      swap1\n      tag_109\n      swap2\n      swap1\n      tag_110\n      jump\t// in\n    tag_109:\n      tag_111\n      jump\t// in\n    tag_108:\n      stop\n        /* \"src/token.sol\":9364:9612  function mintTo(address _to, uint _amount) external pause mintToDis onlyRole(_MINTTO) {... */\n    tag_17:\n      tag_112\n      0x04\n      dup1\n      calldatasize\n      sub\n      dup2\n      add\n      swap1\n      tag_113\n      swap2\n      swap1\n      tag_68\n      jump\t// in\n    tag_113:\n      tag_114\n      jump\t// in\n    tag_112:\n      stop\n        /* \"src/token.sol\":13922:14126  function ethRescue(address payable _dest, uint _etherAmount) nonReentrant public onlyRole(_RESCUE) {... */\n    tag_18:\n      tag_115\n      0x04\n      dup1\n      calldatasize\n      sub\n      dup2\n      add\n      swap1\n      tag_116\n      swap2\n      swap1\n      tag_117\n      jump\t// in\n    tag_116:\n      tag_118\n      jump\t// in\n    tag_115:\n      stop\n        /* \"src/token.sol\":1612:1664  bytes32 public constant _ADMIN = keccak256(\"_ADMIN\") */\n    tag_19:\n      tag_119\n      tag_120\n      jump\t// in\n    tag_119:\n      mload(0x40)\n      tag_121\n      swap2\n      swap1\n      tag_88\n      jump\t// in\n    tag_121:\n      mload(0x40)\n      dup1\n      swap2\n      sub\n      swap1\n      return\n        /* \"src/token.sol\":1236:1286  bytes32 public constant _BURN = keccak256(\"_BURN\") */\n    tag_20:\n      tag_122\n      tag_123\n      jump\t// in\n    tag_122:\n      mload(0x40)\n      tag_124\n      swap2\n      swap1\n      tag_88\n      jump\t// in\n    tag_124:\n      mload(0x40)\n      dup1\n      swap2\n      sub\n      swap1\n      return\n        /* \"src/token.sol\":2117:2135  bool public paused */\n    tag_21:\n      tag_125\n      tag_126\n      jump\t// in\n    tag_125:\n      mload(0x40)\n      tag_127\n      swap2\n      swap1\n      tag_57\n      jump\t// in\n    tag_127:\n      mload(0x40)\n      dup1\n      swap2\n      sub\n      swap1\n      return\n        /* \"src/token.sol\":1368:1426  bytes32 public constant _BURNFROM = keccak256(\"_BURNFROM\") */\n    tag_22:\n      tag_128\n      tag_129\n      jump\t// in\n    tag_128:\n      mload(0x40)\n      tag_130\n      swap2\n      swap1\n      tag_88\n      jump\t// in\n    tag_130:\n      mload(0x40)\n      dup1\n      swap2\n      sub\n      swap1\n      return\n        /* \"lib/openzeppelin-contracts/contracts/token/ERC20/ERC20.sol\":3004:3120  function balanceOf(address account) public view virtual returns (uint256) {... */\n    tag_23:\n      tag_131\n      0x04\n      dup1\n      calldatasize\n      sub\n      dup2\n      add\n      swap1\n      tag_132\n      swap2\n      swap1\n      tag_133\n      jump\t// in\n    tag_132:\n      tag_134\n      jump\t// in\n    tag_131:\n      mload(0x40)\n      tag_135\n      swap2\n      swap1\n      tag_61\n      jump\t// in\n    tag_135:\n      mload(0x40)\n      dup1\n      swap2\n      sub\n      swap1\n      return\n        /* \"src/token.sol\":10843:11024  function burnFrom(address _from, uint _amount) external pause onlyRole(_BURNFROM) {... */\n    tag_24:\n      tag_136\n      0x04\n      dup1\n      calldatasize\n      sub\n      dup2\n      add\n      swap1\n      tag_137\n      swap2\n      swap1\n      tag_68\n      jump\t// in\n    tag_137:\n      tag_138\n      jump\t// in\n    tag_136:\n      stop\n        /* \"src/token.sol\":1124:1178  bytes32 public constant _MINTTO = keccak256(\"_MINTTO\") */\n    tag_25:\n      tag_139\n      tag_140\n      jump\t// in\n    tag_139:\n      mload(0x40)\n      tag_141\n      swap2\n      swap1\n      tag_88\n      jump\t// in\n    tag_141:\n      mload(0x40)\n      dup1\n      swap2\n      sub\n      swap1\n      return\n        /* \"src/token.sol\":1733:1787  bytes32 public constant _RESCUE = keccak256(\"_RESCUE\") */\n    tag_26:\n      tag_142\n      tag_143\n      jump\t// in\n    tag_142:\n      mload(0x40)\n      tag_144\n      swap2\n      swap1\n      tag_88\n      jump\t// in\n    tag_144:\n      mload(0x40)\n      dup1\n      swap2\n      sub\n      swap1\n      return\n        /* \"src/token.sol\":994:1044  bytes32 public constant _MINT = keccak256(\"_MINT\") */\n    tag_27:\n      tag_145\n      tag_146\n      jump\t// in\n    tag_145:\n      mload(0x40)\n      tag_147\n      swap2\n      swap1\n      tag_88\n      jump\t// in\n    tag_147:\n      mload(0x40)\n      dup1\n      swap2\n      sub\n      swap1\n      return\n        /* \"src/token.sol\":8055:8131  function supplyCap() public view returns (uint) {... */\n    tag_28:\n      tag_148\n      tag_149\n      jump\t// in\n    tag_148:\n      mload(0x40)\n      tag_150\n      swap2\n      swap1\n      tag_61\n      jump\t// in\n    tag_150:\n      mload(0x40)\n      dup1\n      swap2\n      sub\n      swap1\n      return\n        /* \"lib/openzeppelin-contracts/contracts/access/AccessControl.sol\":2854:2990  function hasRole(bytes32 role, address account) public view virtual returns (bool) {... */\n    tag_29:\n      tag_151\n      0x04\n      dup1\n      calldatasize\n      sub\n      dup2\n      add\n      swap1\n      tag_152\n      swap2\n      swap1\n      tag_91\n      jump\t// in\n    tag_152:\n      tag_153\n      jump\t// in\n    tag_151:\n      mload(0x40)\n      tag_154\n      swap2\n      swap1\n      tag_57\n      jump\t// in\n    tag_154:\n      mload(0x40)\n      dup1\n      swap2\n      sub\n      swap1\n      return\n        /* \"src/token.sol\":2182:2206  bool public mintDisabled */\n    tag_30:\n      tag_155\n      tag_156\n      jump\t// in\n    tag_155:\n      mload(0x40)\n      tag_157\n      swap2\n      swap1\n      tag_57\n      jump\t// in\n    tag_157:\n      mload(0x40)\n      dup1\n      swap2\n      sub\n      swap1\n      return\n        /* \"lib/openzeppelin-contracts/contracts/token/ERC20/ERC20.sol\":1981:2074  function symbol() public view virtual returns (string memory) {... */\n    tag_31:\n      tag_158\n      tag_159\n      jump\t// in\n    tag_158:\n      mload(0x40)\n      tag_160\n      swap2\n      swap1\n      tag_65\n      jump\t// in\n    tag_160:\n      mload(0x40)\n      dup1\n      swap2\n      sub\n      swap1\n      return\n        /* \"src/token.sol\":9852:10083  function mint(uint _amount) external pause mintDis onlyRole(_MINT) {... */\n    tag_32:\n      tag_161\n      0x04\n      dup1\n      calldatasize\n      sub\n      dup2\n      add\n      swap1\n      tag_162\n      swap2\n      swap1\n      tag_110\n      jump\t// in\n    tag_162:\n      tag_163\n      jump\t// in\n    tag_161:\n      stop\n        /* \"lib/openzeppelin-contracts/contracts/access/AccessControl.sol\":2187:2236  bytes32 public constant DEFAULT_ADMIN_ROLE = 0x00 */\n    tag_33:\n      tag_164\n      tag_165\n      jump\t// in\n    tag_164:\n      mload(0x40)\n      tag_166\n      swap2\n      swap1\n      tag_88\n      jump\t// in\n    tag_166:\n      mload(0x40)\n      dup1\n      swap2\n      sub\n      swap1\n      return\n        /* \"src/token.sol\":12542:12977  function transfer(address to, uint256 value) nonReentrant public virtual override returns (bool) {... */\n    tag_34:\n      tag_167\n      0x04\n      dup1\n      calldatasize\n      sub\n      dup2\n      add\n      swap1\n      tag_168\n      swap2\n      swap1\n      tag_68\n      jump\t// in\n    tag_168:\n      tag_169\n      jump\t// in\n    tag_167:\n      mload(0x40)\n      tag_170\n      swap2\n      swap1\n      tag_57\n      jump\t// in\n    tag_170:\n      mload(0x40)\n      dup1\n      swap2\n      sub\n      swap1\n      return\n        /* \"src/token.sol\":7701:7942  function setSupplyCap(uint _supplyCap) external pause onlyRole(_SUPPLY) {... */\n    tag_35:\n      tag_171\n      0x04\n      dup1\n      calldatasize\n      sub\n      dup2\n      add\n      swap1\n      tag_172\n      swap2\n      swap1\n      tag_110\n      jump\t// in\n    tag_172:\n      tag_173\n      jump\t// in\n    tag_171:\n      stop\n        /* \"src/token.sol\":4168:4218  mapping(address => bool) public whitelistedAddress */\n    tag_36:\n      tag_174\n      0x04\n      dup1\n      calldatasize\n      sub\n      dup2\n      add\n      swap1\n      tag_175\n      swap2\n      swap1\n      tag_133\n      jump\t// in\n    tag_175:\n      tag_176\n      jump\t// in\n    tag_174:\n      mload(0x40)\n      tag_177\n      swap2\n      swap1\n      tag_57\n      jump\t// in\n    tag_177:\n      mload(0x40)\n      dup1\n      swap2\n      sub\n      swap1\n      return\n        /* \"src/token.sol\":2030:2054  uint public txFee = 5e15 */\n    tag_37:\n      tag_178\n      tag_179\n      jump\t// in\n    tag_178:\n      mload(0x40)\n      tag_180\n      swap2\n      swap1\n      tag_61\n      jump\t// in\n    tag_180:\n      mload(0x40)\n      dup1\n      swap2\n      sub\n      swap1\n      return\n        /* \"src/token.sol\":2275:2301  bool public mintToDisabled */\n    tag_38:\n      tag_181\n      tag_182\n      jump\t// in\n    tag_181:\n      mload(0x40)\n      tag_183\n      swap2\n      swap1\n      tag_57\n      jump\t// in\n    tag_183:\n      mload(0x40)\n      dup1\n      swap2\n      sub\n      swap1\n      return\n        /* \"lib/openzeppelin-contracts/contracts/access/AccessControl.sol\":4642:4780  function revokeRole(bytes32 role, address account) public virtual onlyRole(getRoleAdmin(role)) {... */\n    tag_39:\n      tag_184\n      0x04\n      dup1\n      calldatasize\n      sub\n      dup2\n      add\n      swap1\n      tag_185\n      swap2\n      swap1\n      tag_91\n      jump\t// in\n    tag_185:\n      tag_186\n      jump\t// in\n    tag_184:\n      stop\n        /* \"lib/openzeppelin-contracts/contracts/token/ERC20/ERC20.sol\":3551:3691  function allowance(address owner, address spender) public view virtual returns (uint256) {... */\n    tag_40:\n      tag_187\n      0x04\n      dup1\n      calldatasize\n      sub\n      dup2\n      add\n      swap1\n      tag_188\n      swap2\n      swap1\n      tag_189\n      jump\t// in\n    tag_188:\n      tag_190\n      jump\t// in\n    tag_187:\n      mload(0x40)\n      tag_191\n      swap2\n      swap1\n      tag_61\n      jump\t// in\n    tag_191:\n      mload(0x40)\n      dup1\n      swap2\n      sub\n      swap1\n      return\n        /* \"src/token.sol\":6665:6963  function disableMint(bool _disableMinting) external onlyRole(_ADMIN) {... */\n    tag_41:\n      tag_192\n      0x04\n      dup1\n      calldatasize\n      sub\n      dup2\n      add\n      swap1\n      tag_193\n      swap2\n      swap1\n      tag_73\n      jump\t// in\n    tag_193:\n      tag_194\n      jump\t// in\n    tag_192:\n      stop\n        /* \"src/token.sol\":1494:1548  bytes32 public constant _SUPPLY = keccak256(\"_SUPPLY\") */\n    tag_42:\n      tag_195\n      tag_196\n      jump\t// in\n    tag_195:\n      mload(0x40)\n      tag_197\n      swap2\n      swap1\n      tag_88\n      jump\t// in\n    tag_197:\n      mload(0x40)\n      dup1\n      swap2\n      sub\n      swap1\n      return\n        /* \"src/token.sol\":8889:8982  function setTxFee(uint256 _newFee) external onlyRole(_ADMIN) {... */\n    tag_43:\n      tag_198\n      0x04\n      dup1\n      calldatasize\n      sub\n      dup2\n      add\n      swap1\n      tag_199\n      swap2\n      swap1\n      tag_110\n      jump\t// in\n    tag_199:\n      tag_200\n      jump\t// in\n    tag_198:\n      stop\n        /* \"src/token.sol\":7232:7535  function disableMintTo(bool _disableMintTo) external onlyRole(_ADMIN) {... */\n    tag_44:\n      tag_201\n      0x04\n      dup1\n      calldatasize\n      sub\n      dup2\n      add\n      swap1\n      tag_202\n      swap2\n      swap1\n      tag_73\n      jump\t// in\n    tag_202:\n      tag_203\n      jump\t// in\n    tag_201:\n      stop\n        /* \"lib/openzeppelin-contracts/contracts/access/AccessControl.sol\":2565:2767  function supportsInterface(bytes4 interfaceId) public view virtual override returns (bool) {... */\n    tag_55:\n        /* \"lib/openzeppelin-contracts/contracts/access/AccessControl.sol\":2650:2654  bool */\n      0x00\n        /* \"lib/openzeppelin-contracts/contracts/access/AccessControl.sol\":2688:2720  type(IAccessControl).interfaceId */\n      0x7965db0b00000000000000000000000000000000000000000000000000000000\n        /* \"lib/openzeppelin-contracts/contracts/access/AccessControl.sol\":2673:2720  interfaceId == type(IAccessControl).interfaceId */\n      not(0xffffffffffffffffffffffffffffffffffffffffffffffffffffffff)\n      and\n        /* \"lib/openzeppelin-contracts/contracts/access/AccessControl.sol\":2673:2684  interfaceId */\n      dup3\n        /* \"lib/openzeppelin-contracts/contracts/access/AccessControl.sol\":2673:2720  interfaceId == type(IAccessControl).interfaceId */\n      not(0xffffffffffffffffffffffffffffffffffffffffffffffffffffffff)\n      and\n      eq\n        /* \"lib/openzeppelin-contracts/contracts/access/AccessControl.sol\":2673:2760  interfaceId == type(IAccessControl).interfaceId || super.supportsInterface(interfaceId) */\n      dup1\n      tag_205\n      jumpi\n      pop\n        /* \"lib/openzeppelin-contracts/contracts/access/AccessControl.sol\":2724:2760  super.supportsInterface(interfaceId) */\n      tag_206\n        /* \"lib/openzeppelin-contracts/contracts/access/AccessControl.sol\":2748:2759  interfaceId */\n      dup3\n        /* \"lib/openzeppelin-contracts/contracts/access/AccessControl.sol\":2724:2747  super.supportsInterface */\n      tag_207\n        /* \"lib/openzeppelin-contracts/contracts/access/AccessControl.sol\":2724:2760  super.supportsInterface(interfaceId) */\n      jump\t// in\n    tag_206:\n        /* \"lib/openzeppelin-contracts/contracts/access/AccessControl.sol\":2673:2760  interfaceId == type(IAccessControl).interfaceId || super.supportsInterface(interfaceId) */\n    tag_205:\n        /* \"lib/openzeppelin-contracts/contracts/access/AccessControl.sol\":2666:2760  return interfaceId == type(IAccessControl).interfaceId || super.supportsInterface(interfaceId) */\n      swap1\n      pop\n        /* \"lib/openzeppelin-contracts/contracts/access/AccessControl.sol\":2565:2767  function supportsInterface(bytes4 interfaceId) public view virtual override returns (bool) {... */\n      swap2\n      swap1\n      pop\n      jump\t// out\n        /* \"src/token.sol\":1924:1940  uint public _cap */\n    tag_59:\n      sload(0x07)\n      dup2\n      jump\t// out\n        /* \"lib/openzeppelin-contracts/contracts/token/ERC20/ERC20.sol\":1779:1868  function name() public view virtual returns (string memory) {... */\n    tag_63:\n        /* \"lib/openzeppelin-contracts/contracts/token/ERC20/ERC20.sol\":1824:1837  string memory */\n      0x60\n        /* \"lib/openzeppelin-contracts/contracts/token/ERC20/ERC20.sol\":1856:1861  _name */\n      0x03\n        /* \"lib/openzeppelin-contracts/contracts/token/ERC20/ERC20.sol\":1849:1861  return _name */\n      dup1\n      sload\n      tag_209\n      swap1\n      tag_210\n      jump\t// in\n    tag_209:\n      dup1\n      0x1f\n      add\n      0x20\n      dup1\n      swap2\n      div\n      mul\n      0x20\n      add\n      mload(0x40)\n      swap1\n      dup2\n      add\n      0x40\n      mstore\n      dup1\n      swap3\n      swap2\n      swap1\n      dup2\n      dup2\n      mstore\n      0x20\n      add\n      dup3\n      dup1\n      sload\n      tag_211\n      swap1\n      tag_210\n      jump\t// in\n    tag_211:\n      dup1\n      iszero\n      tag_212\n      jumpi\n      dup1\n      0x1f\n      lt\n      tag_213\n      jumpi\n      0x0100\n      dup1\n      dup4\n      sload\n      div\n      mul\n      dup4\n      mstore\n      swap2\n      0x20\n      add\n      swap2\n      jump(tag_212)\n    tag_213:\n      dup3\n      add\n      swap2\n      swap1\n      0x00\n      mstore\n      keccak256(0x00, 0x20)\n      swap1\n    tag_214:\n      dup2\n      sload\n      dup2\n      mstore\n      swap1\n      0x01\n      add\n      swap1\n      0x20\n      add\n      dup1\n      dup4\n      gt\n      tag_214\n      jumpi\n      dup3\n      swap1\n      sub\n      0x1f\n      and\n      dup3\n      add\n      swap2\n    tag_212:\n      pop\n      pop\n      pop\n      pop\n      pop\n      swap1\n      pop\n        /* \"lib/openzeppelin-contracts/contracts/token/ERC20/ERC20.sol\":1779:1868  function name() public view virtual returns (string memory) {... */\n      swap1\n      jump\t// out\n        /* \"lib/openzeppelin-contracts/contracts/token/ERC20/ERC20.sol\":3998:4184  function approve(address spender, uint256 value) public virtual returns (bool) {... */\n    tag_69:\n        /* \"lib/openzeppelin-contracts/contracts/token/ERC20/ERC20.sol\":4071:4075  bool */\n      0x00\n        /* \"lib/openzeppelin-contracts/contracts/token/ERC20/ERC20.sol\":4087:4100  address owner */\n      dup1\n        /* \"lib/openzeppelin-contracts/contracts/token/ERC20/ERC20.sol\":4103:4115  _msgSender() */\n      tag_216\n        /* \"lib/openzeppelin-contracts/contracts/token/ERC20/ERC20.sol\":4103:4113  _msgSender */\n      tag_217\n        /* \"lib/openzeppelin-contracts/contracts/token/ERC20/ERC20.sol\":4103:4115  _msgSender() */\n      jump\t// in\n    tag_216:\n        /* \"lib/openzeppelin-contracts/contracts/token/ERC20/ERC20.sol\":4087:4115  address owner = _msgSender() */\n      swap1\n      pop\n        /* \"lib/openzeppelin-contracts/contracts/token/ERC20/ERC20.sol\":4125:4156  _approve(owner, spender, value) */\n      tag_218\n        /* \"lib/openzeppelin-contracts/contracts/token/ERC20/ERC20.sol\":4134:4139  owner */\n      dup2\n        /* \"lib/openzeppelin-contracts/contracts/token/ERC20/ERC20.sol\":4141:4148  spender */\n      dup6\n        /* \"lib/openzeppelin-contracts/contracts/token/ERC20/ERC20.sol\":4150:4155  value */\n      dup6\n        /* \"lib/openzeppelin-contracts/contracts/token/ERC20/ERC20.sol\":4125:4133  _approve */\n      tag_219\n        /* \"lib/openzeppelin-contracts/contracts/token/ERC20/ERC20.sol\":4125:4156  _approve(owner, spender, value) */\n      jump\t// in\n    tag_218:\n        /* \"lib/openzeppelin-contracts/contracts/token/ERC20/ERC20.sol\":4173:4177  true */\n      0x01\n        /* \"lib/openzeppelin-contracts/contracts/token/ERC20/ERC20.sol\":4166:4177  return true */\n      swap2\n      pop\n      pop\n        /* \"lib/openzeppelin-contracts/contracts/token/ERC20/ERC20.sol\":3998:4184  function approve(address spender, uint256 value) public virtual returns (bool) {... */\n      swap3\n      swap2\n      pop\n      pop\n      jump\t// out\n        /* \"src/token.sol\":6175:6442  function setPaused(bool _paused) external onlyRole(_ADMIN) {... */\n    tag_74:\n        /* \"src/token.sol\":1645:1664  keccak256(\"_ADMIN\") */\n      0xae6c2fc584631af4c9385b8a55683f1a75c813747e27efef5afece31c6b230d3\n        /* \"lib/openzeppelin-contracts/contracts/access/AccessControl.sol\":2464:2480  _checkRole(role) */\n      tag_221\n        /* \"lib/openzeppelin-contracts/contracts/access/AccessControl.sol\":2475:2479  role */\n      dup2\n        /* \"lib/openzeppelin-contracts/contracts/access/AccessControl.sol\":2464:2474  _checkRole */\n      tag_222\n        /* \"lib/openzeppelin-contracts/contracts/access/AccessControl.sol\":2464:2480  _checkRole(role) */\n      jump\t// in\n    tag_221:\n        /* \"src/token.sol\":6253:6260  _paused */\n      dup2\n        /* \"src/token.sol\":6244:6250  paused */\n      0x09\n      0x00\n        /* \"src/token.sol\":6244:6260  paused = _paused */\n      0x0100\n      exp\n      dup2\n      sload\n      dup2\n      0xff\n      mul\n      not\n      and\n      swap1\n      dup4\n      iszero\n      iszero\n      mul\n      or\n      swap1\n      sstore\n      pop\n        /* \"src/token.sol\":6275:6282  _paused */\n      dup2\n        /* \"src/token.sol\":6271:6436  if (_paused) {... */\n      iszero\n      tag_224\n      jumpi\n        /* \"src/token.sol\":6303:6345  ContractPaused(block.number, _msgSender()) */\n      0xd8c9c5623123df8e137854c59a08f9084b75609fe24584228d44ffdce5ab920a\n        /* \"src/token.sol\":6318:6330  block.number */\n      number\n        /* \"src/token.sol\":6332:6344  _msgSender() */\n      tag_225\n        /* \"src/token.sol\":6332:6342  _msgSender */\n      tag_217\n        /* \"src/token.sol\":6332:6344  _msgSender() */\n      jump\t// in\n    tag_225:\n        /* \"src/token.sol\":6303:6345  ContractPaused(block.number, _msgSender()) */\n      mload(0x40)\n      tag_226\n      swap3\n      swap2\n      swap1\n      tag_227\n      jump\t// in\n    tag_226:\n      mload(0x40)\n      dup1\n      swap2\n      sub\n      swap1\n      log1\n        /* \"src/token.sol\":6271:6436  if (_paused) {... */\n      jump(tag_228)\n    tag_224:\n        /* \"src/token.sol\":6381:6425  ContractUnpaused(block.number, _msgSender()) */\n      0x1e7a7234ad01ed7353bf129217f5c162773639a6cb22773e84bcd5a2b0ef362e\n        /* \"src/token.sol\":6398:6410  block.number */\n      number\n        /* \"src/token.sol\":6412:6424  _msgSender() */\n      tag_229\n        /* \"src/token.sol\":6412:6422  _msgSender */\n      tag_217\n        /* \"src/token.sol\":6412:6424  _msgSender() */\n      jump\t// in\n    tag_229:\n        /* \"src/token.sol\":6381:6425  ContractUnpaused(block.number, _msgSender()) */\n      mload(0x40)\n      tag_230\n      swap3\n      swap2\n      swap1\n      tag_227\n      jump\t// in\n    tag_230:\n      mload(0x40)\n      dup1\n      swap2\n      sub\n      swap1\n      log1\n        /* \"src/token.sol\":6271:6436  if (_paused) {... */\n    tag_228:\n        /* \"src/token.sol\":6175:6442  function setPaused(bool _paused) external onlyRole(_ADMIN) {... */\n      pop\n      pop\n      jump\t// out\n        /* \"lib/openzeppelin-contracts/contracts/token/ERC20/ERC20.sol\":2849:2946  function totalSupply() public view virtual returns (uint256) {... */\n    tag_76:\n        /* \"lib/openzeppelin-contracts/contracts/token/ERC20/ERC20.sol\":2901:2908  uint256 */\n      0x00\n        /* \"lib/openzeppelin-contracts/contracts/token/ERC20/ERC20.sol\":2927:2939  _totalSupply */\n      sload(0x02)\n        /* \"lib/openzeppelin-contracts/contracts/token/ERC20/ERC20.sol\":2920:2939  return _totalSupply */\n      swap1\n      pop\n        /* \"lib/openzeppelin-contracts/contracts/token/ERC20/ERC20.sol\":2849:2946  function totalSupply() public view virtual returns (uint256) {... */\n      swap1\n      jump\t// out\n        /* \"src/token.sol\":11514:12260  function transferFrom(address from, address to, uint256 value) nonReentrant public virtual override returns (bool) {... */\n    tag_81:\n        /* \"src/token.sol\":11623:11627  bool */\n      0x00\n        /* \"lib/openzeppelin-contracts/contracts/utils/ReentrancyGuard.sol\":2500:2521  _nonReentrantBefore() */\n      tag_233\n        /* \"lib/openzeppelin-contracts/contracts/utils/ReentrancyGuard.sol\":2500:2519  _nonReentrantBefore */\n      tag_234\n        /* \"lib/openzeppelin-contracts/contracts/utils/ReentrancyGuard.sol\":2500:2521  _nonReentrantBefore() */\n      jump\t// in\n    tag_233:\n        /* \"src/token.sol\":11639:11654  address spender */\n      0x00\n        /* \"src/token.sol\":11657:11669  _msgSender() */\n      tag_236\n        /* \"src/token.sol\":11657:11667  _msgSender */\n      tag_217\n        /* \"src/token.sol\":11657:11669  _msgSender() */\n      jump\t// in\n    tag_236:\n        /* \"src/token.sol\":11639:11669  address spender = _msgSender() */\n      swap1\n      pop\n        /* \"src/token.sol\":11679:11703  uint256 currentAllowance */\n      0x00\n        /* \"src/token.sol\":11706:11730  allowance(from, spender) */\n      tag_237\n        /* \"src/token.sol\":11716:11720  from */\n      dup7\n        /* \"src/token.sol\":11722:11729  spender */\n      dup4\n        /* \"src/token.sol\":11706:11715  allowance */\n      tag_190\n        /* \"src/token.sol\":11706:11730  allowance(from, spender) */\n      jump\t// in\n    tag_237:\n        /* \"src/token.sol\":11679:11730  uint256 currentAllowance = allowance(from, spender) */\n      swap1\n      pop\n        /* \"src/token.sol\":11768:11773  value */\n      dup4\n        /* \"src/token.sol\":11748:11764  currentAllowance */\n      dup2\n        /* \"src/token.sol\":11748:11773  currentAllowance >= value */\n      lt\n      iszero\n        /* \"src/token.sol\":11740:11818  require(currentAllowance >= value, \"ERC20: transfer amount exceeds allowance\") */\n      tag_238\n      jumpi\n      mload(0x40)\n      0x08c379a000000000000000000000000000000000000000000000000000000000\n      dup2\n      mstore\n      0x04\n      add\n      tag_239\n      swap1\n      tag_240\n      jump\t// in\n    tag_239:\n      mload(0x40)\n      dup1\n      swap2\n      sub\n      swap1\n      revert\n    tag_238:\n        /* \"src/token.sol\":11894:11943  _approve(from, spender, currentAllowance - value) */\n      tag_241\n        /* \"src/token.sol\":11903:11907  from */\n      dup7\n        /* \"src/token.sol\":11909:11916  spender */\n      dup4\n        /* \"src/token.sol\":11937:11942  value */\n      dup7\n        /* \"src/token.sol\":11918:11934  currentAllowance */\n      dup5\n        /* \"src/token.sol\":11918:11942  currentAllowance - value */\n      tag_242\n      swap2\n      swap1\n      tag_243\n      jump\t// in\n    tag_242:\n        /* \"src/token.sol\":11894:11902  _approve */\n      tag_219\n        /* \"src/token.sol\":11894:11943  _approve(from, spender, currentAllowance - value) */\n      jump\t// in\n    tag_241:\n        /* \"src/token.sol\":11989:11993  true */\n      0x01\n        /* \"src/token.sol\":11958:11993  whitelistedAddress[spender] == true */\n      iszero\n      iszero\n        /* \"src/token.sol\":11958:11976  whitelistedAddress */\n      0x0a\n        /* \"src/token.sol\":11958:11985  whitelistedAddress[spender] */\n      0x00\n        /* \"src/token.sol\":11977:11984  spender */\n      dup5\n        /* \"src/token.sol\":11958:11985  whitelistedAddress[spender] */\n      0xffffffffffffffffffffffffffffffffffffffff\n      and\n      0xffffffffffffffffffffffffffffffffffffffff\n      and\n      dup2\n      mstore\n      0x20\n      add\n      swap1\n      dup2\n      mstore\n      0x20\n      add\n      0x00\n      keccak256\n      0x00\n      swap1\n      sload\n      swap1\n      0x0100\n      exp\n      swap1\n      div\n      0xff\n      and\n        /* \"src/token.sol\":11958:11993  whitelistedAddress[spender] == true */\n      iszero\n      iszero\n      sub\n        /* \"src/token.sol\":11954:12232  if (whitelistedAddress[spender] == true) {... */\n      tag_244\n      jumpi\n        /* \"src/token.sol\":12009:12035  _transfer(from, to, value) */\n      tag_245\n        /* \"src/token.sol\":12019:12023  from */\n      dup7\n        /* \"src/token.sol\":12025:12027  to */\n      dup7\n        /* \"src/token.sol\":12029:12034  value */\n      dup7\n        /* \"src/token.sol\":12009:12018  _transfer */\n      tag_246\n        /* \"src/token.sol\":12009:12035  _transfer(from, to, value) */\n      jump\t// in\n    tag_245:\n        /* \"src/token.sol\":11954:12232  if (whitelistedAddress[spender] == true) {... */\n      jump(tag_247)\n    tag_244:\n        /* \"src/token.sol\":12113:12139  _transfer(from, to, value) */\n      tag_248\n        /* \"src/token.sol\":12123:12127  from */\n      dup7\n        /* \"src/token.sol\":12129:12131  to */\n      dup7\n        /* \"src/token.sol\":12133:12138  value */\n      dup7\n        /* \"src/token.sol\":12113:12122  _transfer */\n      tag_246\n        /* \"src/token.sol\":12113:12139  _transfer(from, to, value) */\n      jump\t// in\n    tag_248:\n        /* \"src/token.sol\":12203:12221  _burn(from, txFee) */\n      tag_249\n        /* \"src/token.sol\":12209:12213  from */\n      dup7\n        /* \"src/token.sol\":12215:12220  txFee */\n      sload(0x08)\n        /* \"src/token.sol\":12203:12208  _burn */\n      tag_250\n        /* \"src/token.sol\":12203:12221  _burn(from, txFee) */\n      jump\t// in\n    tag_249:\n        /* \"src/token.sol\":11954:12232  if (whitelistedAddress[spender] == true) {... */\n    tag_247:\n        /* \"src/token.sol\":12249:12253  true */\n      0x01\n        /* \"src/token.sol\":12242:12253  return true */\n      swap3\n      pop\n      pop\n      pop\n        /* \"lib/openzeppelin-contracts/contracts/utils/ReentrancyGuard.sol\":2542:2562  _nonReentrantAfter() */\n      tag_251\n        /* \"lib/openzeppelin-contracts/contracts/utils/ReentrancyGuard.sol\":2542:2560  _nonReentrantAfter */\n      tag_252\n        /* \"lib/openzeppelin-contracts/contracts/utils/ReentrancyGuard.sol\":2542:2562  _nonReentrantAfter() */\n      jump\t// in\n    tag_251:\n        /* \"src/token.sol\":11514:12260  function transferFrom(address from, address to, uint256 value) nonReentrant public virtual override returns (bool) {... */\n      swap4\n      swap3\n      pop\n      pop\n      pop\n      jump\t// out\n        /* \"lib/openzeppelin-contracts/contracts/access/AccessControl.sol\":3810:3930  function getRoleAdmin(bytes32 role) public view virtual returns (bytes32) {... */\n    tag_86:\n        /* \"lib/openzeppelin-contracts/contracts/access/AccessControl.sol\":3875:3882  bytes32 */\n      0x00\n        /* \"lib/openzeppelin-contracts/contracts/access/AccessControl.sol\":3901:3907  _roles */\n      0x05\n        /* \"lib/openzeppelin-contracts/contracts/access/AccessControl.sol\":3901:3913  _roles[role] */\n      0x00\n        /* \"lib/openzeppelin-contracts/contracts/access/AccessControl.sol\":3908:3912  role */\n      dup4\n        /* \"lib/openzeppelin-contracts/contracts/access/AccessControl.sol\":3901:3913  _roles[role] */\n      dup2\n      mstore\n      0x20\n      add\n      swap1\n      dup2\n      mstore\n      0x20\n      add\n      0x00\n      keccak256\n        /* \"lib/openzeppelin-contracts/contracts/access/AccessControl.sol\":3901:3923  _roles[role].adminRole */\n      0x01\n      add\n      sload\n        /* \"lib/openzeppelin-contracts/contracts/access/AccessControl.sol\":3894:3923  return _roles[role].adminRole */\n      swap1\n      pop\n        /* \"lib/openzeppelin-contracts/contracts/access/AccessControl.sol\":3810:3930  function getRoleAdmin(bytes32 role) public view virtual returns (bytes32) {... */\n      swap2\n      swap1\n      pop\n      jump\t// out\n        /* \"lib/openzeppelin-contracts/contracts/access/AccessControl.sol\":4226:4362  function grantRole(bytes32 role, address account) public virtual onlyRole(getRoleAdmin(role)) {... */\n    tag_92:\n        /* \"lib/openzeppelin-contracts/contracts/access/AccessControl.sol\":4300:4318  getRoleAdmin(role) */\n      tag_254\n        /* \"lib/openzeppelin-contracts/contracts/access/AccessControl.sol\":4313:4317  role */\n      dup3\n        /* \"lib/openzeppelin-contracts/contracts/access/AccessControl.sol\":4300:4312  getRoleAdmin */\n      tag_86\n        /* \"lib/openzeppelin-contracts/contracts/access/AccessControl.sol\":4300:4318  getRoleAdmin(role) */\n      jump\t// in\n    tag_254:\n        /* \"lib/openzeppelin-contracts/contracts/access/AccessControl.sol\":2464:2480  _checkRole(role) */\n      tag_256\n        /* \"lib/openzeppelin-contracts/contracts/access/AccessControl.sol\":2475:2479  role */\n      dup2\n        /* \"lib/openzeppelin-contracts/contracts/access/AccessControl.sol\":2464:2474  _checkRole */\n      tag_222\n        /* \"lib/openzeppelin-contracts/contracts/access/AccessControl.sol\":2464:2480  _checkRole(role) */\n      jump\t// in\n    tag_256:\n        /* \"lib/openzeppelin-contracts/contracts/access/AccessControl.sol\":4330:4355  _grantRole(role, account) */\n      tag_258\n        /* \"lib/openzeppelin-contracts/contracts/access/AccessControl.sol\":4341:4345  role */\n      dup4\n        /* \"lib/openzeppelin-contracts/contracts/access/AccessControl.sol\":4347:4354  account */\n      dup4\n        /* \"lib/openzeppelin-contracts/contracts/access/AccessControl.sol\":4330:4340  _grantRole */\n      tag_259\n        /* \"lib/openzeppelin-contracts/contracts/access/AccessControl.sol\":4330:4355  _grantRole(role, account) */\n      jump\t// in\n    tag_258:\n      pop\n        /* \"lib/openzeppelin-contracts/contracts/access/AccessControl.sol\":4226:4362  function grantRole(bytes32 role, address account) public virtual onlyRole(getRoleAdmin(role)) {... */\n      pop\n      pop\n      pop\n      jump\t// out\n        /* \"lib/openzeppelin-contracts/contracts/token/ERC20/ERC20.sol\":2707:2789  function decimals() public view virtual returns (uint8) {... */\n    tag_94:\n        /* \"lib/openzeppelin-contracts/contracts/token/ERC20/ERC20.sol\":2756:2761  uint8 */\n      0x00\n        /* \"lib/openzeppelin-contracts/contracts/token/ERC20/ERC20.sol\":2780:2782  18 */\n      0x12\n        /* \"lib/openzeppelin-contracts/contracts/token/ERC20/ERC20.sol\":2773:2782  return 18 */\n      swap1\n      pop\n        /* \"lib/openzeppelin-contracts/contracts/token/ERC20/ERC20.sol\":2707:2789  function decimals() public view virtual returns (uint8) {... */\n      swap1\n      jump\t// out\n        /* \"lib/openzeppelin-contracts/contracts/access/AccessControl.sol\":5328:5573  function renounceRole(bytes32 role, address callerConfirmation) public virtual {... */\n    tag_99:\n        /* \"lib/openzeppelin-contracts/contracts/access/AccessControl.sol\":5443:5455  _msgSender() */\n      tag_262\n        /* \"lib/openzeppelin-contracts/contracts/access/AccessControl.sol\":5443:5453  _msgSender */\n      tag_217\n        /* \"lib/openzeppelin-contracts/contracts/access/AccessControl.sol\":5443:5455  _msgSender() */\n      jump\t// in\n    tag_262:\n        /* \"lib/openzeppelin-contracts/contracts/access/AccessControl.sol\":5421:5455  callerConfirmation != _msgSender() */\n      0xffffffffffffffffffffffffffffffffffffffff\n      and\n        /* \"lib/openzeppelin-contracts/contracts/access/AccessControl.sol\":5421:5439  callerConfirmation */\n      dup2\n        /* \"lib/openzeppelin-contracts/contracts/access/AccessControl.sol\":5421:5455  callerConfirmation != _msgSender() */\n      0xffffffffffffffffffffffffffffffffffffffff\n      and\n      eq\n        /* \"lib/openzeppelin-contracts/contracts/access/AccessControl.sol\":5417:5519  if (callerConfirmation != _msgSender()) {... */\n      tag_263\n      jumpi\n        /* \"lib/openzeppelin-contracts/contracts/access/AccessControl.sol\":5478:5508  AccessControlBadConfirmation() */\n      mload(0x40)\n      0x6697b23200000000000000000000000000000000000000000000000000000000\n      dup2\n      mstore\n      0x04\n      add\n      mload(0x40)\n      dup1\n      swap2\n      sub\n      swap1\n      revert\n        /* \"lib/openzeppelin-contracts/contracts/access/AccessControl.sol\":5417:5519  if (callerConfirmation != _msgSender()) {... */\n    tag_263:\n        /* \"lib/openzeppelin-contracts/contracts/access/AccessControl.sol\":5529:5566  _revokeRole(role, callerConfirmation) */\n      tag_264\n        /* \"lib/openzeppelin-contracts/contracts/access/AccessControl.sol\":5541:5545  role */\n      dup3\n        /* \"lib/openzeppelin-contracts/contracts/access/AccessControl.sol\":5547:5565  callerConfirmation */\n      dup3\n        /* \"lib/openzeppelin-contracts/contracts/access/AccessControl.sol\":5529:5540  _revokeRole */\n      tag_265\n        /* \"lib/openzeppelin-contracts/contracts/access/AccessControl.sol\":5529:5566  _revokeRole(role, callerConfirmation) */\n      jump\t// in\n    tag_264:\n      pop\n        /* \"lib/openzeppelin-contracts/contracts/access/AccessControl.sol\":5328:5573  function renounceRole(bytes32 role, address callerConfirmation) public virtual {... */\n      pop\n      pop\n      jump\t// out\n        /* \"src/token.sol\":8507:8715  function setWhitelistAddress(address _whitelist, bool _status) external onlyRole(_ADMIN) {... */\n    tag_103:\n        /* \"src/token.sol\":1645:1664  keccak256(\"_ADMIN\") */\n      0xae6c2fc584631af4c9385b8a55683f1a75c813747e27efef5afece31c6b230d3\n        /* \"lib/openzeppelin-contracts/contracts/access/AccessControl.sol\":2464:2480  _checkRole(role) */\n      tag_267\n        /* \"lib/openzeppelin-contracts/contracts/access/AccessControl.sol\":2475:2479  role */\n      dup2\n        /* \"lib/openzeppelin-contracts/contracts/access/AccessControl.sol\":2464:2474  _checkRole */\n      tag_222\n        /* \"lib/openzeppelin-contracts/contracts/access/AccessControl.sol\":2464:2480  _checkRole(role) */\n      jump\t// in\n    tag_267:\n        /* \"src/token.sol\":8636:8637  0 */\n      0x00\n        /* \"src/token.sol\":8614:8638  _whitelist != address(0) */\n      0xffffffffffffffffffffffffffffffffffffffff\n      and\n        /* \"src/token.sol\":8614:8624  _whitelist */\n      dup4\n        /* \"src/token.sol\":8614:8638  _whitelist != address(0) */\n      0xffffffffffffffffffffffffffffffffffffffff\n      and\n      sub\n        /* \"src/token.sol\":8606:8658  require(_whitelist != address(0), \"Invalid address\") */\n      tag_269\n      jumpi\n      mload(0x40)\n      0x08c379a000000000000000000000000000000000000000000000000000000000\n      dup2\n      mstore\n      0x04\n      add\n      tag_270\n      swap1\n      tag_271\n      jump\t// in\n    tag_270:\n      mload(0x40)\n      dup1\n      swap2\n      sub\n      swap1\n      revert\n    tag_269:\n        /* \"src/token.sol\":8701:8708  _status */\n      dup2\n        /* \"src/token.sol\":8668:8686  whitelistedAddress */\n      0x0a\n        /* \"src/token.sol\":8668:8698  whitelistedAddress[_whitelist] */\n      0x00\n        /* \"src/token.sol\":8687:8697  _whitelist */\n      dup6\n        /* \"src/token.sol\":8668:8698  whitelistedAddress[_whitelist] */\n      0xffffffffffffffffffffffffffffffffffffffff\n      and\n      0xffffffffffffffffffffffffffffffffffffffff\n      and\n      dup2\n      mstore\n      0x20\n      add\n      swap1\n      dup2\n      mstore\n      0x20\n      add\n      0x00\n      keccak256\n      0x00\n        /* \"src/token.sol\":8668:8708  whitelistedAddress[_whitelist] = _status */\n      0x0100\n      exp\n      dup2\n      sload\n      dup2\n      0xff\n      mul\n      not\n      and\n      swap1\n      dup4\n      iszero\n      iszero\n      mul\n      or\n      swap1\n      sstore\n      pop\n        /* \"src/token.sol\":8507:8715  function setWhitelistAddress(address _whitelist, bool _status) external onlyRole(_ADMIN) {... */\n      pop\n      pop\n      pop\n      jump\t// out\n        /* \"src/token.sol\":13397:13638  function moveERC20(IERC20 _ERC20, address _dest, uint _ERC20Amount) nonReentrant public onlyRole(_RESCUE) {... */\n    tag_107:\n        /* \"lib/openzeppelin-contracts/contracts/utils/ReentrancyGuard.sol\":2500:2521  _nonReentrantBefore() */\n      tag_273\n        /* \"lib/openzeppelin-contracts/contracts/utils/ReentrancyGuard.sol\":2500:2519  _nonReentrantBefore */\n      tag_234\n        /* \"lib/openzeppelin-contracts/contracts/utils/ReentrancyGuard.sol\":2500:2521  _nonReentrantBefore() */\n      jump\t// in\n    tag_273:\n        /* \"src/token.sol\":1767:1787  keccak256(\"_RESCUE\") */\n      0x508f8f8be8f5dbcb88f4f4500430b8b3684c471ed936f31fea912c78ad46a6b9\n        /* \"lib/openzeppelin-contracts/contracts/access/AccessControl.sol\":2464:2480  _checkRole(role) */\n      tag_275\n        /* \"lib/openzeppelin-contracts/contracts/access/AccessControl.sol\":2475:2479  role */\n      dup2\n        /* \"lib/openzeppelin-contracts/contracts/access/AccessControl.sol\":2464:2474  _checkRole */\n      tag_222\n        /* \"lib/openzeppelin-contracts/contracts/access/AccessControl.sol\":2464:2480  _checkRole(role) */\n      jump\t// in\n    tag_275:\n        /* \"src/token.sol\":13513:13561  IERC20(_ERC20).safeTransfer(_dest, _ERC20Amount) */\n      tag_277\n        /* \"src/token.sol\":13541:13546  _dest */\n      dup4\n        /* \"src/token.sol\":13548:13560  _ERC20Amount */\n      dup4\n        /* \"src/token.sol\":13520:13526  _ERC20 */\n      dup7\n        /* \"src/token.sol\":13513:13540  IERC20(_ERC20).safeTransfer */\n      0xffffffffffffffffffffffffffffffffffffffff\n      and\n      tag_278\n      swap1\n        /* \"src/token.sol\":13513:13561  IERC20(_ERC20).safeTransfer(_dest, _ERC20Amount) */\n      swap3\n      swap2\n      swap1\n      0xffffffff\n      and\n      jump\t// in\n    tag_277:\n        /* \"src/token.sol\":13576:13631  ERC20Rescued(_ERC20, block.number, _dest, _ERC20Amount) */\n      0x494215f965756bbc8b7f57addd2a0ebdbce467a4999f8320c67adc1771885d7b\n        /* \"src/token.sol\":13589:13595  _ERC20 */\n      dup5\n        /* \"src/token.sol\":13597:13609  block.number */\n      number\n        /* \"src/token.sol\":13611:13616  _dest */\n      dup6\n        /* \"src/token.sol\":13618:13630  _ERC20Amount */\n      dup6\n        /* \"src/token.sol\":13576:13631  ERC20Rescued(_ERC20, block.number, _dest, _ERC20Amount) */\n      mload(0x40)\n      tag_279\n      swap5\n      swap4\n      swap3\n      swap2\n      swap1\n      tag_280\n      jump\t// in\n    tag_279:\n      mload(0x40)\n      dup1\n      swap2\n      sub\n      swap1\n      log1\n        /* \"lib/openzeppelin-contracts/contracts/utils/ReentrancyGuard.sol\":2531:2532  _ */\n      pop\n        /* \"lib/openzeppelin-contracts/contracts/utils/ReentrancyGuard.sol\":2542:2562  _nonReentrantAfter() */\n      tag_281\n        /* \"lib/openzeppelin-contracts/contracts/utils/ReentrancyGuard.sol\":2542:2560  _nonReentrantAfter */\n      tag_252\n        /* \"lib/openzeppelin-contracts/contracts/utils/ReentrancyGuard.sol\":2542:2562  _nonReentrantAfter() */\n      jump\t// in\n    tag_281:\n        /* \"src/token.sol\":13397:13638  function moveERC20(IERC20 _ERC20, address _dest, uint _ERC20Amount) nonReentrant public onlyRole(_RESCUE) {... */\n      pop\n      pop\n      pop\n      jump\t// out\n        /* \"src/token.sol\":10400:10555  function burn(uint _amount) external pause onlyRole(_BURN) { ... */\n    tag_111:\n        /* \"src/token.sol\":5358:5364  paused */\n      0x09\n      0x00\n      swap1\n      sload\n      swap1\n      0x0100\n      exp\n      swap1\n      div\n      0xff\n      and\n        /* \"src/token.sol\":5357:5364  !paused */\n      iszero\n        /* \"src/token.sol\":5349:5397  require(!paused, \"Contract: Contract is Paused\") */\n      tag_283\n      jumpi\n      mload(0x40)\n      0x08c379a000000000000000000000000000000000000000000000000000000000\n      dup2\n      mstore\n      0x04\n      add\n      tag_284\n      swap1\n      tag_285\n      jump\t// in\n    tag_284:\n      mload(0x40)\n      dup1\n      swap2\n      sub\n      swap1\n      revert\n    tag_283:\n        /* \"src/token.sol\":1268:1286  keccak256(\"_BURN\") */\n      0x9edfad36e7d4d9da54b4f78f22bf97cb5b58bb7998294a4288da41c15c647c45\n        /* \"lib/openzeppelin-contracts/contracts/access/AccessControl.sol\":2464:2480  _checkRole(role) */\n      tag_287\n        /* \"lib/openzeppelin-contracts/contracts/access/AccessControl.sol\":2475:2479  role */\n      dup2\n        /* \"lib/openzeppelin-contracts/contracts/access/AccessControl.sol\":2464:2474  _checkRole */\n      tag_222\n        /* \"lib/openzeppelin-contracts/contracts/access/AccessControl.sol\":2464:2480  _checkRole(role) */\n      jump\t// in\n    tag_287:\n        /* \"src/token.sol\":10475:10510  TokensBurned(_amount, _msgSender()) */\n      0x63706707d038997d2210eb026bb1339397deab463921538a81bb98e69ee54ca8\n        /* \"src/token.sol\":10488:10495  _amount */\n      dup3\n        /* \"src/token.sol\":10497:10509  _msgSender() */\n      tag_289\n        /* \"src/token.sol\":10497:10507  _msgSender */\n      tag_217\n        /* \"src/token.sol\":10497:10509  _msgSender() */\n      jump\t// in\n    tag_289:\n        /* \"src/token.sol\":10475:10510  TokensBurned(_amount, _msgSender()) */\n      mload(0x40)\n      tag_290\n      swap3\n      swap2\n      swap1\n      tag_227\n      jump\t// in\n    tag_290:\n      mload(0x40)\n      dup1\n      swap2\n      sub\n      swap1\n      log1\n        /* \"src/token.sol\":10520:10548  _burn(_msgSender(), _amount) */\n      tag_291\n        /* \"src/token.sol\":10526:10538  _msgSender() */\n      tag_292\n        /* \"src/token.sol\":10526:10536  _msgSender */\n      tag_217\n        /* \"src/token.sol\":10526:10538  _msgSender() */\n      jump\t// in\n    tag_292:\n        /* \"src/token.sol\":10540:10547  _amount */\n      dup4\n        /* \"src/token.sol\":10520:10525  _burn */\n      tag_250\n        /* \"src/token.sol\":10520:10548  _burn(_msgSender(), _amount) */\n      jump\t// in\n    tag_291:\n        /* \"src/token.sol\":5407:5408  _ */\n      pop\n        /* \"src/token.sol\":10400:10555  function burn(uint _amount) external pause onlyRole(_BURN) { ... */\n      pop\n      jump\t// out\n        /* \"src/token.sol\":9364:9612  function mintTo(address _to, uint _amount) external pause mintToDis onlyRole(_MINTTO) {... */\n    tag_114:\n        /* \"src/token.sol\":5358:5364  paused */\n      0x09\n      0x00\n      swap1\n      sload\n      swap1\n      0x0100\n      exp\n      swap1\n      div\n      0xff\n      and\n        /* \"src/token.sol\":5357:5364  !paused */\n      iszero\n        /* \"src/token.sol\":5349:5397  require(!paused, \"Contract: Contract is Paused\") */\n      tag_294\n      jumpi\n      mload(0x40)\n      0x08c379a000000000000000000000000000000000000000000000000000000000\n      dup2\n      mstore\n      0x04\n      add\n      tag_295\n      swap1\n      tag_285\n      jump\t// in\n    tag_295:\n      mload(0x40)\n      dup1\n      swap2\n      sub\n      swap1\n      revert\n    tag_294:\n        /* \"src/token.sol\":5800:5814  mintToDisabled */\n      0x09\n      0x02\n      swap1\n      sload\n      swap1\n      0x0100\n      exp\n      swap1\n      div\n      0xff\n      and\n        /* \"src/token.sol\":5799:5814  !mintToDisabled */\n      iszero\n        /* \"src/token.sol\":5791:5838  require(!mintToDisabled, \"Minting to disabled\") */\n      tag_297\n      jumpi\n      mload(0x40)\n      0x08c379a000000000000000000000000000000000000000000000000000000000\n      dup2\n      mstore\n      0x04\n      add\n      tag_298\n      swap1\n      tag_299\n      jump\t// in\n    tag_298:\n      mload(0x40)\n      dup1\n      swap2\n      sub\n      swap1\n      revert\n    tag_297:\n        /* \"src/token.sol\":1158:1178  keccak256(\"_MINTTO\") */\n      0x7d800f56a05adcb6245df540492a560d0e668aac15ee6c7dd40668064913da33\n        /* \"lib/openzeppelin-contracts/contracts/access/AccessControl.sol\":2464:2480  _checkRole(role) */\n      tag_301\n        /* \"lib/openzeppelin-contracts/contracts/access/AccessControl.sol\":2475:2479  role */\n      dup2\n        /* \"lib/openzeppelin-contracts/contracts/access/AccessControl.sol\":2464:2474  _checkRole */\n      tag_222\n        /* \"lib/openzeppelin-contracts/contracts/access/AccessControl.sol\":2464:2480  _checkRole(role) */\n      jump\t// in\n    tag_301:\n        /* \"src/token.sol\":9495:9499  _cap */\n      sload(0x07)\n        /* \"src/token.sol\":9484:9491  _amount */\n      dup3\n        /* \"src/token.sol\":9468:9481  totalSupply() */\n      tag_303\n        /* \"src/token.sol\":9468:9479  totalSupply */\n      tag_76\n        /* \"src/token.sol\":9468:9481  totalSupply() */\n      jump\t// in\n    tag_303:\n        /* \"src/token.sol\":9468:9491  totalSupply() + _amount */\n      tag_304\n      swap2\n      swap1\n      tag_305\n      jump\t// in\n    tag_304:\n        /* \"src/token.sol\":9468:9499  totalSupply() + _amount <= _cap */\n      gt\n      iszero\n        /* \"src/token.sol\":9460:9533  require(totalSupply() + _amount <= _cap, \"Contract: Supply Cap exceeded\") */\n      tag_306\n      jumpi\n      mload(0x40)\n      0x08c379a000000000000000000000000000000000000000000000000000000000\n      dup2\n      mstore\n      0x04\n      add\n      tag_307\n      swap1\n      tag_308\n      jump\t// in\n    tag_307:\n      mload(0x40)\n      dup1\n      swap2\n      sub\n      swap1\n      revert\n    tag_306:\n        /* \"src/token.sol\":9548:9576  TokensMintedTo(_to, _amount) */\n      0xe98063832b4ff0356868961b75f7f49b096b14ea066c9725301ad197f2f63147\n        /* \"src/token.sol\":9563:9566  _to */\n      dup4\n        /* \"src/token.sol\":9568:9575  _amount */\n      dup4\n        /* \"src/token.sol\":9548:9576  TokensMintedTo(_to, _amount) */\n      mload(0x40)\n      tag_309\n      swap3\n      swap2\n      swap1\n      tag_310\n      jump\t// in\n    tag_309:\n      mload(0x40)\n      dup1\n      swap2\n      sub\n      swap1\n      log1\n        /* \"src/token.sol\":9586:9605  _mint(_to, _amount) */\n      tag_311\n        /* \"src/token.sol\":9592:9595  _to */\n      dup4\n        /* \"src/token.sol\":9597:9604  _amount */\n      dup4\n        /* \"src/token.sol\":9586:9591  _mint */\n      tag_312\n        /* \"src/token.sol\":9586:9605  _mint(_to, _amount) */\n      jump\t// in\n    tag_311:\n        /* \"src/token.sol\":5848:5849  _ */\n      pop\n        /* \"src/token.sol\":9364:9612  function mintTo(address _to, uint _amount) external pause mintToDis onlyRole(_MINTTO) {... */\n      pop\n      pop\n      jump\t// out\n        /* \"src/token.sol\":13922:14126  function ethRescue(address payable _dest, uint _etherAmount) nonReentrant public onlyRole(_RESCUE) {... */\n    tag_118:\n        /* \"lib/openzeppelin-contracts/contracts/utils/ReentrancyGuard.sol\":2500:2521  _nonReentrantBefore() */\n      tag_314\n        /* \"lib/openzeppelin-contracts/contracts/utils/ReentrancyGuard.sol\":2500:2519  _nonReentrantBefore */\n      tag_234\n        /* \"lib/openzeppelin-contracts/contracts/utils/ReentrancyGuard.sol\":2500:2521  _nonReentrantBefore() */\n      jump\t// in\n    tag_314:\n        /* \"src/token.sol\":1767:1787  keccak256(\"_RESCUE\") */\n      0x508f8f8be8f5dbcb88f4f4500430b8b3684c471ed936f31fea912c78ad46a6b9\n        /* \"lib/openzeppelin-contracts/contracts/access/AccessControl.sol\":2464:2480  _checkRole(role) */\n      tag_316\n        /* \"lib/openzeppelin-contracts/contracts/access/AccessControl.sol\":2475:2479  role */\n      dup2\n        /* \"lib/openzeppelin-contracts/contracts/access/AccessControl.sol\":2464:2474  _checkRole */\n      tag_222\n        /* \"lib/openzeppelin-contracts/contracts/access/AccessControl.sol\":2464:2480  _checkRole(role) */\n      jump\t// in\n    tag_316:\n        /* \"src/token.sol\":14031:14036  _dest */\n      dup3\n        /* \"src/token.sol\":14031:14045  _dest.transfer */\n      0xffffffffffffffffffffffffffffffffffffffff\n      and\n        /* \"src/token.sol\":14031:14059  _dest.transfer(_etherAmount) */\n      0x08fc\n        /* \"src/token.sol\":14046:14058  _etherAmount */\n      dup4\n        /* \"src/token.sol\":14031:14059  _dest.transfer(_etherAmount) */\n      swap1\n      dup2\n      iszero\n      mul\n      swap1\n      mload(0x40)\n      0x00\n      mload(0x40)\n      dup1\n      dup4\n      sub\n      dup2\n      dup6\n      dup9\n      dup9\n      call\n      swap4\n      pop\n      pop\n      pop\n      pop\n      iszero\n      dup1\n      iszero\n      tag_319\n      jumpi\n      returndatasize\n      0x00\n      dup1\n      returndatacopy\n      revert(0x00, returndatasize)\n    tag_319:\n      pop\n        /* \"src/token.sol\":14074:14119  ETHRescued(_dest, block.number, _etherAmount) */\n      0x3b1c0368c81e47d03164182dc6f9fcf4f5e4b3bd9462d74960d729f73138ce36\n        /* \"src/token.sol\":14085:14090  _dest */\n      dup4\n        /* \"src/token.sol\":14092:14104  block.number */\n      number\n        /* \"src/token.sol\":14106:14118  _etherAmount */\n      dup5\n        /* \"src/token.sol\":14074:14119  ETHRescued(_dest, block.number, _etherAmount) */\n      mload(0x40)\n      tag_320\n      swap4\n      swap3\n      swap2\n      swap1\n      tag_321\n      jump\t// in\n    tag_320:\n      mload(0x40)\n      dup1\n      swap2\n      sub\n      swap1\n      log1\n        /* \"lib/openzeppelin-contracts/contracts/utils/ReentrancyGuard.sol\":2531:2532  _ */\n      pop\n        /* \"lib/openzeppelin-contracts/contracts/utils/ReentrancyGuard.sol\":2542:2562  _nonReentrantAfter() */\n      tag_322\n        /* \"lib/openzeppelin-contracts/contracts/utils/ReentrancyGuard.sol\":2542:2560  _nonReentrantAfter */\n      tag_252\n        /* \"lib/openzeppelin-contracts/contracts/utils/ReentrancyGuard.sol\":2542:2562  _nonReentrantAfter() */\n      jump\t// in\n    tag_322:\n        /* \"src/token.sol\":13922:14126  function ethRescue(address payable _dest, uint _etherAmount) nonReentrant public onlyRole(_RESCUE) {... */\n      pop\n      pop\n      jump\t// out\n        /* \"src/token.sol\":1612:1664  bytes32 public constant _ADMIN = keccak256(\"_ADMIN\") */\n    tag_120:\n        /* \"src/token.sol\":1645:1664  keccak256(\"_ADMIN\") */\n      0xae6c2fc584631af4c9385b8a55683f1a75c813747e27efef5afece31c6b230d3\n        /* \"src/token.sol\":1612:1664  bytes32 public constant _ADMIN = keccak256(\"_ADMIN\") */\n      dup2\n      jump\t// out\n        /* \"src/token.sol\":1236:1286  bytes32 public constant _BURN = keccak256(\"_BURN\") */\n    tag_123:\n        /* \"src/token.sol\":1268:1286  keccak256(\"_BURN\") */\n      0x9edfad36e7d4d9da54b4f78f22bf97cb5b58bb7998294a4288da41c15c647c45\n        /* \"src/token.sol\":1236:1286  bytes32 public constant _BURN = keccak256(\"_BURN\") */\n      dup2\n      jump\t// out\n        /* \"src/token.sol\":2117:2135  bool public paused */\n    tag_126:\n      0x09\n      0x00\n      swap1\n      sload\n      swap1\n      0x0100\n      exp\n      swap1\n      div\n      0xff\n      and\n      dup2\n      jump\t// out\n        /* \"src/token.sol\":1368:1426  bytes32 public constant _BURNFROM = keccak256(\"_BURNFROM\") */\n    tag_129:\n        /* \"src/token.sol\":1404:1426  keccak256(\"_BURNFROM\") */\n      0xc8a3befa5973ff6e159afc769978d92f26bae29c51a73d11c9112a05b68d25e6\n        /* \"src/token.sol\":1368:1426  bytes32 public constant _BURNFROM = keccak256(\"_BURNFROM\") */\n      dup2\n      jump\t// out\n        /* \"lib/openzeppelin-contracts/contracts/token/ERC20/ERC20.sol\":3004:3120  function balanceOf(address account) public view virtual returns (uint256) {... */\n    tag_134:\n        /* \"lib/openzeppelin-contracts/contracts/token/ERC20/ERC20.sol\":3069:3076  uint256 */\n      0x00\n        /* \"lib/openzeppelin-contracts/contracts/token/ERC20/ERC20.sol\":3095:3104  _balances */\n      dup1\n        /* \"lib/openzeppelin-contracts/contracts/token/ERC20/ERC20.sol\":3095:3113  _balances[account] */\n      0x00\n        /* \"lib/openzeppelin-contracts/contracts/token/ERC20/ERC20.sol\":3105:3112  account */\n      dup4\n        /* \"lib/openzeppelin-contracts/contracts/token/ERC20/ERC20.sol\":3095:3113  _balances[account] */\n      0xffffffffffffffffffffffffffffffffffffffff\n      and\n      0xffffffffffffffffffffffffffffffffffffffff\n      and\n      dup2\n      mstore\n      0x20\n      add\n      swap1\n      dup2\n      mstore\n      0x20\n      add\n      0x00\n      keccak256\n      sload\n        /* \"lib/openzeppelin-contracts/contracts/token/ERC20/ERC20.sol\":3088:3113  return _balances[account] */\n      swap1\n      pop\n        /* \"lib/openzeppelin-contracts/contracts/token/ERC20/ERC20.sol\":3004:3120  function balanceOf(address account) public view virtual returns (uint256) {... */\n      swap2\n      swap1\n      pop\n      jump\t// out\n        /* \"src/token.sol\":10843:11024  function burnFrom(address _from, uint _amount) external pause onlyRole(_BURNFROM) {... */\n    tag_138:\n        /* \"src/token.sol\":5358:5364  paused */\n      0x09\n      0x00\n      swap1\n      sload\n      swap1\n      0x0100\n      exp\n      swap1\n      div\n      0xff\n      and\n        /* \"src/token.sol\":5357:5364  !paused */\n      iszero\n        /* \"src/token.sol\":5349:5397  require(!paused, \"Contract: Contract is Paused\") */\n      tag_325\n      jumpi\n      mload(0x40)\n      0x08c379a000000000000000000000000000000000000000000000000000000000\n      dup2\n      mstore\n      0x04\n      add\n      tag_326\n      swap1\n      tag_285\n      jump\t// in\n    tag_326:\n      mload(0x40)\n      dup1\n      swap2\n      sub\n      swap1\n      revert\n    tag_325:\n        /* \"src/token.sol\":1404:1426  keccak256(\"_BURNFROM\") */\n      0xc8a3befa5973ff6e159afc769978d92f26bae29c51a73d11c9112a05b68d25e6\n        /* \"lib/openzeppelin-contracts/contracts/access/AccessControl.sol\":2464:2480  _checkRole(role) */\n      tag_328\n        /* \"lib/openzeppelin-contracts/contracts/access/AccessControl.sol\":2475:2479  role */\n      dup2\n        /* \"lib/openzeppelin-contracts/contracts/access/AccessControl.sol\":2464:2474  _checkRole */\n      tag_222\n        /* \"lib/openzeppelin-contracts/contracts/access/AccessControl.sol\":2464:2480  _checkRole(role) */\n      jump\t// in\n    tag_328:\n        /* \"src/token.sol\":10940:10986  TokensBurnedFrom(_from, _amount, _msgSender()) */\n      0xe419ce2aab145a1feaf5893bb6a9478f9282415bbd81c76d5cfff2d4f13431dd\n        /* \"src/token.sol\":10957:10962  _from */\n      dup4\n        /* \"src/token.sol\":10964:10971  _amount */\n      dup4\n        /* \"src/token.sol\":10973:10985  _msgSender() */\n      tag_330\n        /* \"src/token.sol\":10973:10983  _msgSender */\n      tag_217\n        /* \"src/token.sol\":10973:10985  _msgSender() */\n      jump\t// in\n    tag_330:\n        /* \"src/token.sol\":10940:10986  TokensBurnedFrom(_from, _amount, _msgSender()) */\n      mload(0x40)\n      tag_331\n      swap4\n      swap3\n      swap2\n      swap1\n      tag_332\n      jump\t// in\n    tag_331:\n      mload(0x40)\n      dup1\n      swap2\n      sub\n      swap1\n      log1\n        /* \"src/token.sol\":10996:11017  _burn(_from, _amount) */\n      tag_333\n        /* \"src/token.sol\":11002:11007  _from */\n      dup4\n        /* \"src/token.sol\":11009:11016  _amount */\n      dup4\n        /* \"src/token.sol\":10996:11001  _burn */\n      tag_250\n        /* \"src/token.sol\":10996:11017  _burn(_from, _amount) */\n      jump\t// in\n    tag_333:\n        /* \"src/token.sol\":5407:5408  _ */\n      pop\n        /* \"src/token.sol\":10843:11024  function burnFrom(address _from, uint _amount) external pause onlyRole(_BURNFROM) {... */\n      pop\n      pop\n      jump\t// out\n        /* \"src/token.sol\":1124:1178  bytes32 public constant _MINTTO = keccak256(\"_MINTTO\") */\n    tag_140:\n        /* \"src/token.sol\":1158:1178  keccak256(\"_MINTTO\") */\n      0x7d800f56a05adcb6245df540492a560d0e668aac15ee6c7dd40668064913da33\n        /* \"src/token.sol\":1124:1178  bytes32 public constant _MINTTO = keccak256(\"_MINTTO\") */\n      dup2\n      jump\t// out\n        /* \"src/token.sol\":1733:1787  bytes32 public constant _RESCUE = keccak256(\"_RESCUE\") */\n    tag_143:\n        /* \"src/token.sol\":1767:1787  keccak256(\"_RESCUE\") */\n      0x508f8f8be8f5dbcb88f4f4500430b8b3684c471ed936f31fea912c78ad46a6b9\n        /* \"src/token.sol\":1733:1787  bytes32 public constant _RESCUE = keccak256(\"_RESCUE\") */\n      dup2\n      jump\t// out\n        /* \"src/token.sol\":994:1044  bytes32 public constant _MINT = keccak256(\"_MINT\") */\n    tag_146:\n        /* \"src/token.sol\":1026:1044  keccak256(\"_MINT\") */\n      0x8c66330d9d4f6aba064f25ef2a307366ea6d917616f44c075aa60fa15e5cb1cb\n        /* \"src/token.sol\":994:1044  bytes32 public constant _MINT = keccak256(\"_MINT\") */\n      dup2\n      jump\t// out\n        /* \"src/token.sol\":8055:8131  function supplyCap() public view returns (uint) {... */\n    tag_149:\n        /* \"src/token.sol\":8097:8101  uint */\n      0x00\n        /* \"src/token.sol\":8120:8124  _cap */\n      sload(0x07)\n        /* \"src/token.sol\":8113:8124  return _cap */\n      swap1\n      pop\n        /* \"src/token.sol\":8055:8131  function supplyCap() public view returns (uint) {... */\n      swap1\n      jump\t// out\n        /* \"lib/openzeppelin-contracts/contracts/access/AccessControl.sol\":2854:2990  function hasRole(bytes32 role, address account) public view virtual returns (bool) {... */\n    tag_153:\n        /* \"lib/openzeppelin-contracts/contracts/access/AccessControl.sol\":2931:2935  bool */\n      0x00\n        /* \"lib/openzeppelin-contracts/contracts/access/AccessControl.sol\":2954:2960  _roles */\n      0x05\n        /* \"lib/openzeppelin-contracts/contracts/access/AccessControl.sol\":2954:2966  _roles[role] */\n      0x00\n        /* \"lib/openzeppelin-contracts/contracts/access/AccessControl.sol\":2961:2965  role */\n      dup5\n        /* \"lib/openzeppelin-contracts/contracts/access/AccessControl.sol\":2954:2966  _roles[role] */\n      dup2\n      mstore\n      0x20\n      add\n      swap1\n      dup2\n      mstore\n      0x20\n      add\n      0x00\n      keccak256\n        /* \"lib/openzeppelin-contracts/contracts/access/AccessControl.sol\":2954:2974  _roles[role].hasRole */\n      0x00\n      add\n        /* \"lib/openzeppelin-contracts/contracts/access/AccessControl.sol\":2954:2983  _roles[role].hasRole[account] */\n      0x00\n        /* \"lib/openzeppelin-contracts/contracts/access/AccessControl.sol\":2975:2982  account */\n      dup4\n        /* \"lib/openzeppelin-contracts/contracts/access/AccessControl.sol\":2954:2983  _roles[role].hasRole[account] */\n      0xffffffffffffffffffffffffffffffffffffffff\n      and\n      0xffffffffffffffffffffffffffffffffffffffff\n      and\n      dup2\n      mstore\n      0x20\n      add\n      swap1\n      dup2\n      mstore\n      0x20\n      add\n      0x00\n      keccak256\n      0x00\n      swap1\n      sload\n      swap1\n      0x0100\n      exp\n      swap1\n      div\n      0xff\n      and\n        /* \"lib/openzeppelin-contracts/contracts/access/AccessControl.sol\":2947:2983  return _roles[role].hasRole[account] */\n      swap1\n      pop\n        /* \"lib/openzeppelin-contracts/contracts/access/AccessControl.sol\":2854:2990  function hasRole(bytes32 role, address account) public view virtual returns (bool) {... */\n      swap3\n      swap2\n      pop\n      pop\n      jump\t// out\n        /* \"src/token.sol\":2182:2206  bool public mintDisabled */\n    tag_156:\n      0x09\n      0x01\n      swap1\n      sload\n      swap1\n      0x0100\n      exp\n      swap1\n      div\n      0xff\n      and\n      dup2\n      jump\t// out\n        /* \"lib/openzeppelin-contracts/contracts/token/ERC20/ERC20.sol\":1981:2074  function symbol() public view virtual returns (string memory) {... */\n    tag_159:\n        /* \"lib/openzeppelin-contracts/contracts/token/ERC20/ERC20.sol\":2028:2041  string memory */\n      0x60\n        /* \"lib/openzeppelin-contracts/contracts/token/ERC20/ERC20.sol\":2060:2067  _symbol */\n      0x04\n        /* \"lib/openzeppelin-contracts/contracts/token/ERC20/ERC20.sol\":2053:2067  return _symbol */\n      dup1\n      sload\n      tag_337\n      swap1\n      tag_210\n      jump\t// in\n    tag_337:\n      dup1\n      0x1f\n      add\n      0x20\n      dup1\n      swap2\n      div\n      mul\n      0x20\n      add\n      mload(0x40)\n      swap1\n      dup2\n      add\n      0x40\n      mstore\n      dup1\n      swap3\n      swap2\n      swap1\n      dup2\n      dup2\n      mstore\n      0x20\n      add\n      dup3\n      dup1\n      sload\n      tag_338\n      swap1\n      tag_210\n      jump\t// in\n    tag_338:\n      dup1\n      iszero\n      tag_339\n      jumpi\n      dup1\n      0x1f\n      lt\n      tag_340\n      jumpi\n      0x0100\n      dup1\n      dup4\n      sload\n      div\n      mul\n      dup4\n      mstore\n      swap2\n      0x20\n      add\n      swap2\n      jump(tag_339)\n    tag_340:\n      dup3\n      add\n      swap2\n      swap1\n      0x00\n      mstore\n      keccak256(0x00, 0x20)\n      swap1\n    tag_341:\n      dup2\n      sload\n      dup2\n      mstore\n      swap1\n      0x01\n      add\n      swap1\n      0x20\n      add\n      dup1\n      dup4\n      gt\n      tag_341\n      jumpi\n      dup3\n      swap1\n      sub\n      0x1f\n      and\n      dup3\n      add\n      swap2\n    tag_339:\n      pop\n      pop\n      pop\n      pop\n      pop\n      swap1\n      pop\n        /* \"lib/openzeppelin-contracts/contracts/token/ERC20/ERC20.sol\":1981:2074  function symbol() public view virtual returns (string memory) {... */\n      swap1\n      jump\t// out\n        /* \"src/token.sol\":9852:10083  function mint(uint _amount) external pause mintDis onlyRole(_MINT) {... */\n    tag_163:\n        /* \"src/token.sol\":5358:5364  paused */\n      0x09\n      0x00\n      swap1\n      sload\n      swap1\n      0x0100\n      exp\n      swap1\n      div\n      0xff\n      and\n        /* \"src/token.sol\":5357:5364  !paused */\n      iszero\n        /* \"src/token.sol\":5349:5397  require(!paused, \"Contract: Contract is Paused\") */\n      tag_343\n      jumpi\n      mload(0x40)\n      0x08c379a000000000000000000000000000000000000000000000000000000000\n      dup2\n      mstore\n      0x04\n      add\n      tag_344\n      swap1\n      tag_285\n      jump\t// in\n    tag_344:\n      mload(0x40)\n      dup1\n      swap2\n      sub\n      swap1\n      revert\n    tag_343:\n        /* \"src/token.sol\":5570:5582  mintDisabled */\n      0x09\n      0x01\n      swap1\n      sload\n      swap1\n      0x0100\n      exp\n      swap1\n      div\n      0xff\n      and\n        /* \"src/token.sol\":5569:5582  !mintDisabled */\n      iszero\n        /* \"src/token.sol\":5561:5603  require(!mintDisabled, \"Minting disabled\") */\n      tag_346\n      jumpi\n      mload(0x40)\n      0x08c379a000000000000000000000000000000000000000000000000000000000\n      dup2\n      mstore\n      0x04\n      add\n      tag_347\n      swap1\n      tag_348\n      jump\t// in\n    tag_347:\n      mload(0x40)\n      dup1\n      swap2\n      sub\n      swap1\n      revert\n    tag_346:\n        /* \"src/token.sol\":1026:1044  keccak256(\"_MINT\") */\n      0x8c66330d9d4f6aba064f25ef2a307366ea6d917616f44c075aa60fa15e5cb1cb\n        /* \"lib/openzeppelin-contracts/contracts/access/AccessControl.sol\":2464:2480  _checkRole(role) */\n      tag_350\n        /* \"lib/openzeppelin-contracts/contracts/access/AccessControl.sol\":2475:2479  role */\n      dup2\n        /* \"lib/openzeppelin-contracts/contracts/access/AccessControl.sol\":2464:2474  _checkRole */\n      tag_222\n        /* \"lib/openzeppelin-contracts/contracts/access/AccessControl.sol\":2464:2480  _checkRole(role) */\n      jump\t// in\n    tag_350:\n        /* \"src/token.sol\":9964:9968  _cap */\n      sload(0x07)\n        /* \"src/token.sol\":9953:9960  _amount */\n      dup3\n        /* \"src/token.sol\":9937:9950  totalSupply() */\n      tag_352\n        /* \"src/token.sol\":9937:9948  totalSupply */\n      tag_76\n        /* \"src/token.sol\":9937:9950  totalSupply() */\n      jump\t// in\n    tag_352:\n        /* \"src/token.sol\":9937:9960  totalSupply() + _amount */\n      tag_353\n      swap2\n      swap1\n      tag_305\n      jump\t// in\n    tag_353:\n        /* \"src/token.sol\":9937:9968  totalSupply() + _amount <= _cap */\n      gt\n      iszero\n        /* \"src/token.sol\":9929:10002  require(totalSupply() + _amount <= _cap, \"Contract: Supply Cap exceeded\") */\n      tag_354\n      jumpi\n      mload(0x40)\n      0x08c379a000000000000000000000000000000000000000000000000000000000\n      dup2\n      mstore\n      0x04\n      add\n      tag_355\n      swap1\n      tag_308\n      jump\t// in\n    tag_355:\n      mload(0x40)\n      dup1\n      swap2\n      sub\n      swap1\n      revert\n    tag_354:\n        /* \"src/token.sol\":10017:10038  TokensMinted(_amount) */\n      0x772f66a00a405709c30e7f18feadcc8f123b20c09c7260165d3eec36c9f21372\n        /* \"src/token.sol\":10030:10037  _amount */\n      dup3\n        /* \"src/token.sol\":10017:10038  TokensMinted(_amount) */\n      mload(0x40)\n      tag_356\n      swap2\n      swap1\n      tag_61\n      jump\t// in\n    tag_356:\n      mload(0x40)\n      dup1\n      swap2\n      sub\n      swap1\n      log1\n        /* \"src/token.sol\":10048:10076  _mint(_msgSender(), _amount) */\n      tag_357\n        /* \"src/token.sol\":10054:10066  _msgSender() */\n      tag_358\n        /* \"src/token.sol\":10054:10064  _msgSender */\n      tag_217\n        /* \"src/token.sol\":10054:10066  _msgSender() */\n      jump\t// in\n    tag_358:\n        /* \"src/token.sol\":10068:10075  _amount */\n      dup4\n        /* \"src/token.sol\":10048:10053  _mint */\n      tag_312\n        /* \"src/token.sol\":10048:10076  _mint(_msgSender(), _amount) */\n      jump\t// in\n    tag_357:\n        /* \"src/token.sol\":5613:5614  _ */\n      pop\n        /* \"src/token.sol\":9852:10083  function mint(uint _amount) external pause mintDis onlyRole(_MINT) {... */\n      pop\n      jump\t// out\n        /* \"lib/openzeppelin-contracts/contracts/access/AccessControl.sol\":2187:2236  bytes32 public constant DEFAULT_ADMIN_ROLE = 0x00 */\n    tag_165:\n        /* \"lib/openzeppelin-contracts/contracts/access/AccessControl.sol\":2232:2236  0x00 */\n      0x00\n        /* \"lib/openzeppelin-contracts/contracts/access/AccessControl.sol\":2187:2236  bytes32 public constant DEFAULT_ADMIN_ROLE = 0x00 */\n      dup1\n      shl\n      dup2\n      jump\t// out\n        /* \"src/token.sol\":12542:12977  function transfer(address to, uint256 value) nonReentrant public virtual override returns (bool) {... */\n    tag_169:\n        /* \"src/token.sol\":12633:12637  bool */\n      0x00\n        /* \"lib/openzeppelin-contracts/contracts/utils/ReentrancyGuard.sol\":2500:2521  _nonReentrantBefore() */\n      tag_360\n        /* \"lib/openzeppelin-contracts/contracts/utils/ReentrancyGuard.sol\":2500:2519  _nonReentrantBefore */\n      tag_234\n        /* \"lib/openzeppelin-contracts/contracts/utils/ReentrancyGuard.sol\":2500:2521  _nonReentrantBefore() */\n      jump\t// in\n    tag_360:\n        /* \"src/token.sol\":12649:12662  address owner */\n      0x00\n        /* \"src/token.sol\":12665:12677  _msgSender() */\n      tag_362\n        /* \"src/token.sol\":12665:12675  _msgSender */\n      tag_217\n        /* \"src/token.sol\":12665:12677  _msgSender() */\n      jump\t// in\n    tag_362:\n        /* \"src/token.sol\":12649:12677  address owner = _msgSender() */\n      swap1\n      pop\n        /* \"src/token.sol\":12692:12710  whitelistedAddress */\n      0x0a\n        /* \"src/token.sol\":12692:12717  whitelistedAddress[owner] */\n      0x00\n        /* \"src/token.sol\":12711:12716  owner */\n      dup3\n        /* \"src/token.sol\":12692:12717  whitelistedAddress[owner] */\n      0xffffffffffffffffffffffffffffffffffffffff\n      and\n      0xffffffffffffffffffffffffffffffffffffffff\n      and\n      dup2\n      mstore\n      0x20\n      add\n      swap1\n      dup2\n      mstore\n      0x20\n      add\n      0x00\n      keccak256\n      0x00\n      swap1\n      sload\n      swap1\n      0x0100\n      exp\n      swap1\n      div\n      0xff\n      and\n        /* \"src/token.sol\":12688:12949  if (whitelistedAddress[owner]) {... */\n      iszero\n      tag_363\n      jumpi\n        /* \"src/token.sol\":12733:12760  _transfer(owner, to, value) */\n      tag_364\n        /* \"src/token.sol\":12743:12748  owner */\n      dup2\n        /* \"src/token.sol\":12750:12752  to */\n      dup6\n        /* \"src/token.sol\":12754:12759  value */\n      dup6\n        /* \"src/token.sol\":12733:12742  _transfer */\n      tag_246\n        /* \"src/token.sol\":12733:12760  _transfer(owner, to, value) */\n      jump\t// in\n    tag_364:\n        /* \"src/token.sol\":12688:12949  if (whitelistedAddress[owner]) {... */\n      jump(tag_365)\n    tag_363:\n        /* \"src/token.sol\":12840:12867  _transfer(owner, to, value) */\n      tag_366\n        /* \"src/token.sol\":12850:12855  owner */\n      dup2\n        /* \"src/token.sol\":12857:12859  to */\n      dup6\n        /* \"src/token.sol\":12861:12866  value */\n      dup6\n        /* \"src/token.sol\":12840:12849  _transfer */\n      tag_246\n        /* \"src/token.sol\":12840:12867  _transfer(owner, to, value) */\n      jump\t// in\n    tag_366:\n        /* \"src/token.sol\":12881:12900  _burn(owner, txFee) */\n      tag_367\n        /* \"src/token.sol\":12887:12892  owner */\n      dup2\n        /* \"src/token.sol\":12894:12899  txFee */\n      sload(0x08)\n        /* \"src/token.sol\":12881:12886  _burn */\n      tag_250\n        /* \"src/token.sol\":12881:12900  _burn(owner, txFee) */\n      jump\t// in\n    tag_367:\n        /* \"src/token.sol\":12688:12949  if (whitelistedAddress[owner]) {... */\n    tag_365:\n        /* \"src/token.sol\":12966:12970  true */\n      0x01\n        /* \"src/token.sol\":12959:12970  return true */\n      swap2\n      pop\n      pop\n        /* \"lib/openzeppelin-contracts/contracts/utils/ReentrancyGuard.sol\":2542:2562  _nonReentrantAfter() */\n      tag_368\n        /* \"lib/openzeppelin-contracts/contracts/utils/ReentrancyGuard.sol\":2542:2560  _nonReentrantAfter */\n      tag_252\n        /* \"lib/openzeppelin-contracts/contracts/utils/ReentrancyGuard.sol\":2542:2562  _nonReentrantAfter() */\n      jump\t// in\n    tag_368:\n        /* \"src/token.sol\":12542:12977  function transfer(address to, uint256 value) nonReentrant public virtual override returns (bool) {... */\n      swap3\n      swap2\n      pop\n      pop\n      jump\t// out\n        /* \"src/token.sol\":7701:7942  function setSupplyCap(uint _supplyCap) external pause onlyRole(_SUPPLY) {... */\n    tag_173:\n        /* \"src/token.sol\":5358:5364  paused */\n      0x09\n      0x00\n      swap1\n      sload\n      swap1\n      0x0100\n      exp\n      swap1\n      div\n      0xff\n      and\n        /* \"src/token.sol\":5357:5364  !paused */\n      iszero\n        /* \"src/token.sol\":5349:5397  require(!paused, \"Contract: Contract is Paused\") */\n      tag_370\n      jumpi\n      mload(0x40)\n      0x08c379a000000000000000000000000000000000000000000000000000000000\n      dup2\n      mstore\n      0x04\n      add\n      tag_371\n      swap1\n      tag_285\n      jump\t// in\n    tag_371:\n      mload(0x40)\n      dup1\n      swap2\n      sub\n      swap1\n      revert\n    tag_370:\n        /* \"src/token.sol\":1528:1548  keccak256(\"_SUPPLY\") */\n      0xea4defabeb90fa1e79f929d6c8d482fee8a115926a592b79634d39a67cce3b62\n        /* \"lib/openzeppelin-contracts/contracts/access/AccessControl.sol\":2464:2480  _checkRole(role) */\n      tag_373\n        /* \"lib/openzeppelin-contracts/contracts/access/AccessControl.sol\":2475:2479  role */\n      dup2\n        /* \"lib/openzeppelin-contracts/contracts/access/AccessControl.sol\":2464:2474  _checkRole */\n      tag_222\n        /* \"lib/openzeppelin-contracts/contracts/access/AccessControl.sol\":2464:2480  _checkRole(role) */\n      jump\t// in\n    tag_373:\n        /* \"src/token.sol\":7805:7818  totalSupply() */\n      tag_375\n        /* \"src/token.sol\":7805:7816  totalSupply */\n      tag_76\n        /* \"src/token.sol\":7805:7818  totalSupply() */\n      jump\t// in\n    tag_375:\n        /* \"src/token.sol\":7791:7801  _supplyCap */\n      dup3\n        /* \"src/token.sol\":7791:7818  _supplyCap >= totalSupply() */\n      lt\n      iszero\n        /* \"src/token.sol\":7783:7851  require(_supplyCap >= totalSupply(), \"Contract: Supply Cap too low\") */\n      tag_376\n      jumpi\n      mload(0x40)\n      0x08c379a000000000000000000000000000000000000000000000000000000000\n      dup2\n      mstore\n      0x04\n      add\n      tag_377\n      swap1\n      tag_378\n      jump\t// in\n    tag_377:\n      mload(0x40)\n      dup1\n      swap2\n      sub\n      swap1\n      revert\n    tag_376:\n        /* \"src/token.sol\":7868:7878  _supplyCap */\n      dup2\n        /* \"src/token.sol\":7861:7865  _cap */\n      0x07\n        /* \"src/token.sol\":7861:7878  _cap = _supplyCap */\n      dup2\n      swap1\n      sstore\n      pop\n        /* \"src/token.sol\":7893:7935  SupplyCapChanged(_supplyCap, _msgSender()) */\n      0xa11cbdeb4d62442fae7c8ec6286585b17c47acb7b17bbcab1beadce84befa300\n        /* \"src/token.sol\":7910:7920  _supplyCap */\n      dup3\n        /* \"src/token.sol\":7922:7934  _msgSender() */\n      tag_379\n        /* \"src/token.sol\":7922:7932  _msgSender */\n      tag_217\n        /* \"src/token.sol\":7922:7934  _msgSender() */\n      jump\t// in\n    tag_379:\n        /* \"src/token.sol\":7893:7935  SupplyCapChanged(_supplyCap, _msgSender()) */\n      mload(0x40)\n      tag_380\n      swap3\n      swap2\n      swap1\n      tag_227\n      jump\t// in\n    tag_380:\n      mload(0x40)\n      dup1\n      swap2\n      sub\n      swap1\n      log1\n        /* \"src/token.sol\":5407:5408  _ */\n      pop\n        /* \"src/token.sol\":7701:7942  function setSupplyCap(uint _supplyCap) external pause onlyRole(_SUPPLY) {... */\n      pop\n      jump\t// out\n        /* \"src/token.sol\":4168:4218  mapping(address => bool) public whitelistedAddress */\n    tag_176:\n      mstore(0x20, 0x0a)\n      dup1\n      0x00\n      mstore\n      keccak256(0x00, 0x40)\n      0x00\n      swap2\n      pop\n      sload\n      swap1\n      0x0100\n      exp\n      swap1\n      div\n      0xff\n      and\n      dup2\n      jump\t// out\n        /* \"src/token.sol\":2030:2054  uint public txFee = 5e15 */\n    tag_179:\n      sload(0x08)\n      dup2\n      jump\t// out\n        /* \"src/token.sol\":2275:2301  bool public mintToDisabled */\n    tag_182:\n      0x09\n      0x02\n      swap1\n      sload\n      swap1\n      0x0100\n      exp\n      swap1\n      div\n      0xff\n      and\n      dup2\n      jump\t// out\n        /* \"lib/openzeppelin-contracts/contracts/access/AccessControl.sol\":4642:4780  function revokeRole(bytes32 role, address account) public virtual onlyRole(getRoleAdmin(role)) {... */\n    tag_186:\n        /* \"lib/openzeppelin-contracts/contracts/access/AccessControl.sol\":4717:4735  getRoleAdmin(role) */\n      tag_381\n        /* \"lib/openzeppelin-contracts/contracts/access/AccessControl.sol\":4730:4734  role */\n      dup3\n        /* \"lib/openzeppelin-contracts/contracts/access/AccessControl.sol\":4717:4729  getRoleAdmin */\n      tag_86\n        /* \"lib/openzeppelin-contracts/contracts/access/AccessControl.sol\":4717:4735  getRoleAdmin(role) */\n      jump\t// in\n    tag_381:\n        /* \"lib/openzeppelin-contracts/contracts/access/AccessControl.sol\":2464:2480  _checkRole(role) */\n      tag_383\n        /* \"lib/openzeppelin-contracts/contracts/access/AccessControl.sol\":2475:2479  role */\n      dup2\n        /* \"lib/openzeppelin-contracts/contracts/access/AccessControl.sol\":2464:2474  _checkRole */\n      tag_222\n        /* \"lib/openzeppelin-contracts/contracts/access/AccessControl.sol\":2464:2480  _checkRole(role) */\n      jump\t// in\n    tag_383:\n        /* \"lib/openzeppelin-contracts/contracts/access/AccessControl.sol\":4747:4773  _revokeRole(role, account) */\n      tag_385\n        /* \"lib/openzeppelin-contracts/contracts/access/AccessControl.sol\":4759:4763  role */\n      dup4\n        /* \"lib/openzeppelin-contracts/contracts/access/AccessControl.sol\":4765:4772  account */\n      dup4\n        /* \"lib/openzeppelin-contracts/contracts/access/AccessControl.sol\":4747:4758  _revokeRole */\n      tag_265\n        /* \"lib/openzeppelin-contracts/contracts/access/AccessControl.sol\":4747:4773  _revokeRole(role, account) */\n      jump\t// in\n    tag_385:\n      pop\n        /* \"lib/openzeppelin-contracts/contracts/access/AccessControl.sol\":4642:4780  function revokeRole(bytes32 role, address account) public virtual onlyRole(getRoleAdmin(role)) {... */\n      pop\n      pop\n      pop\n      jump\t// out\n        /* \"lib/openzeppelin-contracts/contracts/token/ERC20/ERC20.sol\":3551:3691  function allowance(address owner, address spender) public view virtual returns (uint256) {... */\n    tag_190:\n        /* \"lib/openzeppelin-contracts/contracts/token/ERC20/ERC20.sol\":3631:3638  uint256 */\n      0x00\n        /* \"lib/openzeppelin-contracts/contracts/token/ERC20/ERC20.sol\":3657:3668  _allowances */\n      0x01\n        /* \"lib/openzeppelin-contracts/contracts/token/ERC20/ERC20.sol\":3657:3675  _allowances[owner] */\n      0x00\n        /* \"lib/openzeppelin-contracts/contracts/token/ERC20/ERC20.sol\":3669:3674  owner */\n      dup5\n        /* \"lib/openzeppelin-contracts/contracts/token/ERC20/ERC20.sol\":3657:3675  _allowances[owner] */\n      0xffffffffffffffffffffffffffffffffffffffff\n      and\n      0xffffffffffffffffffffffffffffffffffffffff\n      and\n      dup2\n      mstore\n      0x20\n      add\n      swap1\n      dup2\n      mstore\n      0x20\n      add\n      0x00\n      keccak256\n        /* \"lib/openzeppelin-contracts/contracts/token/ERC20/ERC20.sol\":3657:3684  _allowances[owner][spender] */\n      0x00\n        /* \"lib/openzeppelin-contracts/contracts/token/ERC20/ERC20.sol\":3676:3683  spender */\n      dup4\n        /* \"lib/openzeppelin-contracts/contracts/token/ERC20/ERC20.sol\":3657:3684  _allowances[owner][spender] */\n      0xffffffffffffffffffffffffffffffffffffffff\n      and\n      0xffffffffffffffffffffffffffffffffffffffff\n      and\n      dup2\n      mstore\n      0x20\n      add\n      swap1\n      dup2\n      mstore\n      0x20\n      add\n      0x00\n      keccak256\n      sload\n        /* \"lib/openzeppelin-contracts/contracts/token/ERC20/ERC20.sol\":3650:3684  return _allowances[owner][spender] */\n      swap1\n      pop\n        /* \"lib/openzeppelin-contracts/contracts/token/ERC20/ERC20.sol\":3551:3691  function allowance(address owner, address spender) public view virtual returns (uint256) {... */\n      swap3\n      swap2\n      pop\n      pop\n      jump\t// out\n        /* \"src/token.sol\":6665:6963  function disableMint(bool _disableMinting) external onlyRole(_ADMIN) {... */\n    tag_194:\n        /* \"src/token.sol\":1645:1664  keccak256(\"_ADMIN\") */\n      0xae6c2fc584631af4c9385b8a55683f1a75c813747e27efef5afece31c6b230d3\n        /* \"lib/openzeppelin-contracts/contracts/access/AccessControl.sol\":2464:2480  _checkRole(role) */\n      tag_388\n        /* \"lib/openzeppelin-contracts/contracts/access/AccessControl.sol\":2475:2479  role */\n      dup2\n        /* \"lib/openzeppelin-contracts/contracts/access/AccessControl.sol\":2464:2474  _checkRole */\n      tag_222\n        /* \"lib/openzeppelin-contracts/contracts/access/AccessControl.sol\":2464:2480  _checkRole(role) */\n      jump\t// in\n    tag_388:\n        /* \"src/token.sol\":6759:6774  _disableMinting */\n      dup2\n        /* \"src/token.sol\":6744:6756  mintDisabled */\n      0x09\n      0x01\n        /* \"src/token.sol\":6744:6774  mintDisabled = _disableMinting */\n      0x0100\n      exp\n      dup2\n      sload\n      dup2\n      0xff\n      mul\n      not\n      and\n      swap1\n      dup4\n      iszero\n      iszero\n      mul\n      or\n      swap1\n      sstore\n      pop\n        /* \"src/token.sol\":6789:6804  _disableMinting */\n      dup2\n        /* \"src/token.sol\":6785:6957  if (_disableMinting) {... */\n      iszero\n      tag_390\n      jumpi\n        /* \"src/token.sol\":6825:6868  MintingDisabled(block.number, _msgSender()) */\n      0x5668502ca8e7b393c09d1dac964ca45a27870a78d7ba212b7a189450897ca05f\n        /* \"src/token.sol\":6841:6853  block.number */\n      number\n        /* \"src/token.sol\":6855:6867  _msgSender() */\n      tag_391\n        /* \"src/token.sol\":6855:6865  _msgSender */\n      tag_217\n        /* \"src/token.sol\":6855:6867  _msgSender() */\n      jump\t// in\n    tag_391:\n        /* \"src/token.sol\":6825:6868  MintingDisabled(block.number, _msgSender()) */\n      mload(0x40)\n      tag_392\n      swap3\n      swap2\n      swap1\n      tag_227\n      jump\t// in\n    tag_392:\n      mload(0x40)\n      dup1\n      swap2\n      sub\n      swap1\n      log1\n        /* \"src/token.sol\":6785:6957  if (_disableMinting) {... */\n      jump(tag_393)\n    tag_390:\n        /* \"src/token.sol\":6904:6946  MintingEnabled(block.number, _msgSender()) */\n      0x98e05482fdb38df5eb461fb932fa6e1af90a3569939ce5a8d92d699b102d6402\n        /* \"src/token.sol\":6919:6931  block.number */\n      number\n        /* \"src/token.sol\":6933:6945  _msgSender() */\n      tag_394\n        /* \"src/token.sol\":6933:6943  _msgSender */\n      tag_217\n        /* \"src/token.sol\":6933:6945  _msgSender() */\n      jump\t// in\n    tag_394:\n        /* \"src/token.sol\":6904:6946  MintingEnabled(block.number, _msgSender()) */\n      mload(0x40)\n      tag_395\n      swap3\n      swap2\n      swap1\n      tag_227\n      jump\t// in\n    tag_395:\n      mload(0x40)\n      dup1\n      swap2\n      sub\n      swap1\n      log1\n        /* \"src/token.sol\":6785:6957  if (_disableMinting) {... */\n    tag_393:\n        /* \"src/token.sol\":6665:6963  function disableMint(bool _disableMinting) external onlyRole(_ADMIN) {... */\n      pop\n      pop\n      jump\t// out\n        /* \"src/token.sol\":1494:1548  bytes32 public constant _SUPPLY = keccak256(\"_SUPPLY\") */\n    tag_196:\n        /* \"src/token.sol\":1528:1548  keccak256(\"_SUPPLY\") */\n      0xea4defabeb90fa1e79f929d6c8d482fee8a115926a592b79634d39a67cce3b62\n        /* \"src/token.sol\":1494:1548  bytes32 public constant _SUPPLY = keccak256(\"_SUPPLY\") */\n      dup2\n      jump\t// out\n        /* \"src/token.sol\":8889:8982  function setTxFee(uint256 _newFee) external onlyRole(_ADMIN) {... */\n    tag_200:\n        /* \"src/token.sol\":1645:1664  keccak256(\"_ADMIN\") */\n      0xae6c2fc584631af4c9385b8a55683f1a75c813747e27efef5afece31c6b230d3\n        /* \"lib/openzeppelin-contracts/contracts/access/AccessControl.sol\":2464:2480  _checkRole(role) */\n      tag_397\n        /* \"lib/openzeppelin-contracts/contracts/access/AccessControl.sol\":2475:2479  role */\n      dup2\n        /* \"lib/openzeppelin-contracts/contracts/access/AccessControl.sol\":2464:2474  _checkRole */\n      tag_222\n        /* \"lib/openzeppelin-contracts/contracts/access/AccessControl.sol\":2464:2480  _checkRole(role) */\n      jump\t// in\n    tag_397:\n        /* \"src/token.sol\":8968:8975  _newFee */\n      dup2\n        /* \"src/token.sol\":8960:8965  txFee */\n      0x08\n        /* \"src/token.sol\":8960:8975  txFee = _newFee */\n      dup2\n      swap1\n      sstore\n      pop\n        /* \"src/token.sol\":8889:8982  function setTxFee(uint256 _newFee) external onlyRole(_ADMIN) {... */\n      pop\n      pop\n      jump\t// out\n        /* \"src/token.sol\":7232:7535  function disableMintTo(bool _disableMintTo) external onlyRole(_ADMIN) {... */\n    tag_203:\n        /* \"src/token.sol\":1645:1664  keccak256(\"_ADMIN\") */\n      0xae6c2fc584631af4c9385b8a55683f1a75c813747e27efef5afece31c6b230d3\n        /* \"lib/openzeppelin-contracts/contracts/access/AccessControl.sol\":2464:2480  _checkRole(role) */\n      tag_400\n        /* \"lib/openzeppelin-contracts/contracts/access/AccessControl.sol\":2475:2479  role */\n      dup2\n        /* \"lib/openzeppelin-contracts/contracts/access/AccessControl.sol\":2464:2474  _checkRole */\n      tag_222\n        /* \"lib/openzeppelin-contracts/contracts/access/AccessControl.sol\":2464:2480  _checkRole(role) */\n      jump\t// in\n    tag_400:\n        /* \"src/token.sol\":7329:7343  _disableMintTo */\n      dup2\n        /* \"src/token.sol\":7312:7326  mintToDisabled */\n      0x09\n      0x02\n        /* \"src/token.sol\":7312:7343  mintToDisabled = _disableMintTo */\n      0x0100\n      exp\n      dup2\n      sload\n      dup2\n      0xff\n      mul\n      not\n      and\n      swap1\n      dup4\n      iszero\n      iszero\n      mul\n      or\n      swap1\n      sstore\n      pop\n        /* \"src/token.sol\":7358:7372  _disableMintTo */\n      dup2\n        /* \"src/token.sol\":7354:7529  if (_disableMintTo) {... */\n      iszero\n      tag_402\n      jumpi\n        /* \"src/token.sol\":7393:7438  MintingToDisabled(block.number, _msgSender()) */\n      0x218e25f0a7435729f5a66aae50a9ed0084535a0080300c1c2e8366d8df7136ed\n        /* \"src/token.sol\":7411:7423  block.number */\n      number\n        /* \"src/token.sol\":7425:7437  _msgSender() */\n      tag_403\n        /* \"src/token.sol\":7425:7435  _msgSender */\n      tag_217\n        /* \"src/token.sol\":7425:7437  _msgSender() */\n      jump\t// in\n    tag_403:\n        /* \"src/token.sol\":7393:7438  MintingToDisabled(block.number, _msgSender()) */\n      mload(0x40)\n      tag_404\n      swap3\n      swap2\n      swap1\n      tag_227\n      jump\t// in\n    tag_404:\n      mload(0x40)\n      dup1\n      swap2\n      sub\n      swap1\n      log1\n        /* \"src/token.sol\":7354:7529  if (_disableMintTo) {... */\n      jump(tag_405)\n    tag_402:\n        /* \"src/token.sol\":7474:7518  MintingToEnabled(block.number, _msgSender()) */\n      0x41606e1dcee38320f9edbfcd642aeaa81bb2140c705de9d4a7814024a1e9a314\n        /* \"src/token.sol\":7491:7503  block.number */\n      number\n        /* \"src/token.sol\":7505:7517  _msgSender() */\n      tag_406\n        /* \"src/token.sol\":7505:7515  _msgSender */\n      tag_217\n        /* \"src/token.sol\":7505:7517  _msgSender() */\n      jump\t// in\n    tag_406:\n        /* \"src/token.sol\":7474:7518  MintingToEnabled(block.number, _msgSender()) */\n      mload(0x40)\n      tag_407\n      swap3\n      swap2\n      swap1\n      tag_227\n      jump\t// in\n    tag_407:\n      mload(0x40)\n      dup1\n      swap2\n      sub\n      swap1\n      log1\n        /* \"src/token.sol\":7354:7529  if (_disableMintTo) {... */\n    tag_405:\n        /* \"src/token.sol\":7232:7535  function disableMintTo(bool _disableMintTo) external onlyRole(_ADMIN) {... */\n      pop\n      pop\n      jump\t// out\n        /* \"lib/openzeppelin-contracts/contracts/utils/introspection/ERC165.sol\":763:909  function supportsInterface(bytes4 interfaceId) public view virtual returns (bool) {... */\n    tag_207:\n        /* \"lib/openzeppelin-contracts/contracts/utils/introspection/ERC165.sol\":839:843  bool */\n      0x00\n        /* \"lib/openzeppelin-contracts/contracts/utils/introspection/ERC165.sol\":877:902  type(IERC165).interfaceId */\n      0x01ffc9a700000000000000000000000000000000000000000000000000000000\n        /* \"lib/openzeppelin-contracts/contracts/utils/introspection/ERC165.sol\":862:902  interfaceId == type(IERC165).interfaceId */\n      not(0xffffffffffffffffffffffffffffffffffffffffffffffffffffffff)\n      and\n        /* \"lib/openzeppelin-contracts/contracts/utils/introspection/ERC165.sol\":862:873  interfaceId */\n      dup3\n        /* \"lib/openzeppelin-contracts/contracts/utils/introspection/ERC165.sol\":862:902  interfaceId == type(IERC165).interfaceId */\n      not(0xffffffffffffffffffffffffffffffffffffffffffffffffffffffff)\n      and\n      eq\n        /* \"lib/openzeppelin-contracts/contracts/utils/introspection/ERC165.sol\":855:902  return interfaceId == type(IERC165).interfaceId */\n      swap1\n      pop\n        /* \"lib/openzeppelin-contracts/contracts/utils/introspection/ERC165.sol\":763:909  function supportsInterface(bytes4 interfaceId) public view virtual returns (bool) {... */\n      swap2\n      swap1\n      pop\n      jump\t// out\n        /* \"lib/openzeppelin-contracts/contracts/utils/Context.sol\":656:752  function _msgSender() internal view virtual returns (address) {... */\n    tag_217:\n        /* \"lib/openzeppelin-contracts/contracts/utils/Context.sol\":709:716  address */\n      0x00\n        /* \"lib/openzeppelin-contracts/contracts/utils/Context.sol\":735:745  msg.sender */\n      caller\n        /* \"lib/openzeppelin-contracts/contracts/utils/Context.sol\":728:745  return msg.sender */\n      swap1\n      pop\n        /* \"lib/openzeppelin-contracts/contracts/utils/Context.sol\":656:752  function _msgSender() internal view virtual returns (address) {... */\n      swap1\n      jump\t// out\n        /* \"lib/openzeppelin-contracts/contracts/token/ERC20/ERC20.sol\":8726:8854  function _approve(address owner, address spender, uint256 value) internal {... */\n    tag_219:\n        /* \"lib/openzeppelin-contracts/contracts/token/ERC20/ERC20.sol\":8810:8847  _approve(owner, spender, value, true) */\n      tag_411\n        /* \"lib/openzeppelin-contracts/contracts/token/ERC20/ERC20.sol\":8819:8824  owner */\n      dup4\n        /* \"lib/openzeppelin-contracts/contracts/token/ERC20/ERC20.sol\":8826:8833  spender */\n      dup4\n        /* \"lib/openzeppelin-contracts/contracts/token/ERC20/ERC20.sol\":8835:8840  value */\n      dup4\n        /* \"lib/openzeppelin-contracts/contracts/token/ERC20/ERC20.sol\":8842:8846  true */\n      0x01\n        /* \"lib/openzeppelin-contracts/contracts/token/ERC20/ERC20.sol\":8810:8818  _approve */\n      tag_412\n        /* \"lib/openzeppelin-contracts/contracts/token/ERC20/ERC20.sol\":8810:8847  _approve(owner, spender, value, true) */\n      jump\t// in\n    tag_411:\n        /* \"lib/openzeppelin-contracts/contracts/token/ERC20/ERC20.sol\":8726:8854  function _approve(address owner, address spender, uint256 value) internal {... */\n      pop\n      pop\n      pop\n      jump\t// out\n        /* \"lib/openzeppelin-contracts/contracts/access/AccessControl.sol\":3199:3302  function _checkRole(bytes32 role) internal view virtual {... */\n    tag_222:\n        /* \"lib/openzeppelin-contracts/contracts/access/AccessControl.sol\":3265:3295  _checkRole(role, _msgSender()) */\n      tag_414\n        /* \"lib/openzeppelin-contracts/contracts/access/AccessControl.sol\":3276:3280  role */\n      dup2\n        /* \"lib/openzeppelin-contracts/contracts/access/AccessControl.sol\":3282:3294  _msgSender() */\n      tag_415\n        /* \"lib/openzeppelin-contracts/contracts/access/AccessControl.sol\":3282:3292  _msgSender */\n      tag_217\n        /* \"lib/openzeppelin-contracts/contracts/access/AccessControl.sol\":3282:3294  _msgSender() */\n      jump\t// in\n    tag_415:\n        /* \"lib/openzeppelin-contracts/contracts/access/AccessControl.sol\":3265:3275  _checkRole */\n      tag_416\n        /* \"lib/openzeppelin-contracts/contracts/access/AccessControl.sol\":3265:3295  _checkRole(role, _msgSender()) */\n      jump\t// in\n    tag_414:\n        /* \"lib/openzeppelin-contracts/contracts/access/AccessControl.sol\":3199:3302  function _checkRole(bytes32 role) internal view virtual {... */\n      pop\n      jump\t// out\n        /* \"lib/openzeppelin-contracts/contracts/utils/ReentrancyGuard.sol\":2575:2882  function _nonReentrantBefore() private {... */\n    tag_234:\n        /* \"lib/openzeppelin-contracts/contracts/utils/ReentrancyGuard.sol\":1899:1900  2 */\n      0x02\n        /* \"lib/openzeppelin-contracts/contracts/utils/ReentrancyGuard.sol\":2702:2709  _status */\n      sload(0x06)\n        /* \"lib/openzeppelin-contracts/contracts/utils/ReentrancyGuard.sol\":2702:2720  _status == ENTERED */\n      sub\n        /* \"lib/openzeppelin-contracts/contracts/utils/ReentrancyGuard.sol\":2698:2784  if (_status == ENTERED) {... */\n      tag_418\n      jumpi\n        /* \"lib/openzeppelin-contracts/contracts/utils/ReentrancyGuard.sol\":2743:2773  ReentrancyGuardReentrantCall() */\n      mload(0x40)\n      0x3ee5aeb500000000000000000000000000000000000000000000000000000000\n      dup2\n      mstore\n      0x04\n      add\n      mload(0x40)\n      dup1\n      swap2\n      sub\n      swap1\n      revert\n        /* \"lib/openzeppelin-contracts/contracts/utils/ReentrancyGuard.sol\":2698:2784  if (_status == ENTERED) {... */\n    tag_418:\n        /* \"lib/openzeppelin-contracts/contracts/utils/ReentrancyGuard.sol\":1899:1900  2 */\n      0x02\n        /* \"lib/openzeppelin-contracts/contracts/utils/ReentrancyGuard.sol\":2858:2865  _status */\n      0x06\n        /* \"lib/openzeppelin-contracts/contracts/utils/ReentrancyGuard.sol\":2858:2875  _status = ENTERED */\n      dup2\n      swap1\n      sstore\n      pop\n        /* \"lib/openzeppelin-contracts/contracts/utils/ReentrancyGuard.sol\":2575:2882  function _nonReentrantBefore() private {... */\n      jump\t// out\n        /* \"lib/openzeppelin-contracts/contracts/token/ERC20/ERC20.sol\":5393:5693  function _transfer(address from, address to, uint256 value) internal {... */\n    tag_246:\n        /* \"lib/openzeppelin-contracts/contracts/token/ERC20/ERC20.sol\":5492:5493  0 */\n      0x00\n        /* \"lib/openzeppelin-contracts/contracts/token/ERC20/ERC20.sol\":5476:5494  from == address(0) */\n      0xffffffffffffffffffffffffffffffffffffffff\n      and\n        /* \"lib/openzeppelin-contracts/contracts/token/ERC20/ERC20.sol\":5476:5480  from */\n      dup4\n        /* \"lib/openzeppelin-contracts/contracts/token/ERC20/ERC20.sol\":5476:5494  from == address(0) */\n      0xffffffffffffffffffffffffffffffffffffffff\n      and\n      sub\n        /* \"lib/openzeppelin-contracts/contracts/token/ERC20/ERC20.sol\":5472:5558  if (from == address(0)) {... */\n      tag_420\n      jumpi\n        /* \"lib/openzeppelin-contracts/contracts/token/ERC20/ERC20.sol\":5544:5545  0 */\n      0x00\n        /* \"lib/openzeppelin-contracts/contracts/token/ERC20/ERC20.sol\":5517:5547  ERC20InvalidSender(address(0)) */\n      mload(0x40)\n      0x96c6fd1e00000000000000000000000000000000000000000000000000000000\n      dup2\n      mstore\n      0x04\n      add\n      tag_421\n      swap2\n      swap1\n      tag_422\n      jump\t// in\n    tag_421:\n      mload(0x40)\n      dup1\n      swap2\n      sub\n      swap1\n      revert\n        /* \"lib/openzeppelin-contracts/contracts/token/ERC20/ERC20.sol\":5472:5558  if (from == address(0)) {... */\n    tag_420:\n        /* \"lib/openzeppelin-contracts/contracts/token/ERC20/ERC20.sol\":5585:5586  0 */\n      0x00\n        /* \"lib/openzeppelin-contracts/contracts/token/ERC20/ERC20.sol\":5571:5587  to == address(0) */\n      0xffffffffffffffffffffffffffffffffffffffff\n      and\n        /* \"lib/openzeppelin-contracts/contracts/token/ERC20/ERC20.sol\":5571:5573  to */\n      dup3\n        /* \"lib/openzeppelin-contracts/contracts/token/ERC20/ERC20.sol\":5571:5587  to == address(0) */\n      0xffffffffffffffffffffffffffffffffffffffff\n      and\n      sub\n        /* \"lib/openzeppelin-contracts/contracts/token/ERC20/ERC20.sol\":5567:5653  if (to == address(0)) {... */\n      tag_423\n      jumpi\n        /* \"lib/openzeppelin-contracts/contracts/token/ERC20/ERC20.sol\":5639:5640  0 */\n      0x00\n        /* \"lib/openzeppelin-contracts/contracts/token/ERC20/ERC20.sol\":5610:5642  ERC20InvalidReceiver(address(0)) */\n      mload(0x40)\n      0xec442f0500000000000000000000000000000000000000000000000000000000\n      dup2\n      mstore\n      0x04\n      add\n      tag_424\n      swap2\n      swap1\n      tag_422\n      jump\t// in\n    tag_424:\n      mload(0x40)\n      dup1\n      swap2\n      sub\n      swap1\n      revert\n        /* \"lib/openzeppelin-contracts/contracts/token/ERC20/ERC20.sol\":5567:5653  if (to == address(0)) {... */\n    tag_423:\n        /* \"lib/openzeppelin-contracts/contracts/token/ERC20/ERC20.sol\":5662:5686  _update(from, to, value) */\n      tag_425\n        /* \"lib/openzeppelin-contracts/contracts/token/ERC20/ERC20.sol\":5670:5674  from */\n      dup4\n        /* \"lib/openzeppelin-contracts/contracts/token/ERC20/ERC20.sol\":5676:5678  to */\n      dup4\n        /* \"lib/openzeppelin-contracts/contracts/token/ERC20/ERC20.sol\":5680:5685  value */\n      dup4\n        /* \"lib/openzeppelin-contracts/contracts/token/ERC20/ERC20.sol\":5662:5669  _update */\n      tag_426\n        /* \"lib/openzeppelin-contracts/contracts/token/ERC20/ERC20.sol\":5662:5686  _update(from, to, value) */\n      jump\t// in\n    tag_425:\n        /* \"lib/openzeppelin-contracts/contracts/token/ERC20/ERC20.sol\":5393:5693  function _transfer(address from, address to, uint256 value) internal {... */\n      pop\n      pop\n      pop\n      jump\t// out\n        /* \"lib/openzeppelin-contracts/contracts/token/ERC20/ERC20.sol\":7984:8190  function _burn(address account, uint256 value) internal {... */\n    tag_250:\n        /* \"lib/openzeppelin-contracts/contracts/token/ERC20/ERC20.sol\":8073:8074  0 */\n      0x00\n        /* \"lib/openzeppelin-contracts/contracts/token/ERC20/ERC20.sol\":8054:8075  account == address(0) */\n      0xffffffffffffffffffffffffffffffffffffffff\n      and\n        /* \"lib/openzeppelin-contracts/contracts/token/ERC20/ERC20.sol\":8054:8061  account */\n      dup3\n        /* \"lib/openzeppelin-contracts/contracts/token/ERC20/ERC20.sol\":8054:8075  account == address(0) */\n      0xffffffffffffffffffffffffffffffffffffffff\n      and\n      sub\n        /* \"lib/openzeppelin-contracts/contracts/token/ERC20/ERC20.sol\":8050:8139  if (account == address(0)) {... */\n      tag_428\n      jumpi\n        /* \"lib/openzeppelin-contracts/contracts/token/ERC20/ERC20.sol\":8125:8126  0 */\n      0x00\n        /* \"lib/openzeppelin-contracts/contracts/token/ERC20/ERC20.sol\":8098:8128  ERC20InvalidSender(address(0)) */\n      mload(0x40)\n      0x96c6fd1e00000000000000000000000000000000000000000000000000000000\n      dup2\n      mstore\n      0x04\n      add\n      tag_429\n      swap2\n      swap1\n      tag_422\n      jump\t// in\n    tag_429:\n      mload(0x40)\n      dup1\n      swap2\n      sub\n      swap1\n      revert\n        /* \"lib/openzeppelin-contracts/contracts/token/ERC20/ERC20.sol\":8050:8139  if (account == address(0)) {... */\n    tag_428:\n        /* \"lib/openzeppelin-contracts/contracts/token/ERC20/ERC20.sol\":8148:8183  _update(account, address(0), value) */\n      tag_430\n        /* \"lib/openzeppelin-contracts/contracts/token/ERC20/ERC20.sol\":8156:8163  account */\n      dup3\n        /* \"lib/openzeppelin-contracts/contracts/token/ERC20/ERC20.sol\":8173:8174  0 */\n      0x00\n        /* \"lib/openzeppelin-contracts/contracts/token/ERC20/ERC20.sol\":8177:8182  value */\n      dup4\n        /* \"lib/openzeppelin-contracts/contracts/token/ERC20/ERC20.sol\":8148:8155  _update */\n      tag_426\n        /* \"lib/openzeppelin-contracts/contracts/token/ERC20/ERC20.sol\":8148:8183  _update(account, address(0), value) */\n      jump\t// in\n    tag_430:\n        /* \"lib/openzeppelin-contracts/contracts/token/ERC20/ERC20.sol\":7984:8190  function _burn(address account, uint256 value) internal {... */\n      pop\n      pop\n      jump\t// out\n        /* \"lib/openzeppelin-contracts/contracts/utils/ReentrancyGuard.sol\":2888:3096  function _nonReentrantAfter() private {... */\n    tag_252:\n        /* \"lib/openzeppelin-contracts/contracts/utils/ReentrancyGuard.sol\":1857:1858  1 */\n      0x01\n        /* \"lib/openzeppelin-contracts/contracts/utils/ReentrancyGuard.sol\":3068:3075  _status */\n      0x06\n        /* \"lib/openzeppelin-contracts/contracts/utils/ReentrancyGuard.sol\":3068:3089  _status = NOT_ENTERED */\n      dup2\n      swap1\n      sstore\n      pop\n        /* \"lib/openzeppelin-contracts/contracts/utils/ReentrancyGuard.sol\":2888:3096  function _nonReentrantAfter() private {... */\n      jump\t// out\n        /* \"lib/openzeppelin-contracts/contracts/access/AccessControl.sol\":6179:6495  function _grantRole(bytes32 role, address account) internal virtual returns (bool) {... */\n    tag_259:\n        /* \"lib/openzeppelin-contracts/contracts/access/AccessControl.sol\":6256:6260  bool */\n      0x00\n        /* \"lib/openzeppelin-contracts/contracts/access/AccessControl.sol\":6277:6299  hasRole(role, account) */\n      tag_433\n        /* \"lib/openzeppelin-contracts/contracts/access/AccessControl.sol\":6285:6289  role */\n      dup4\n        /* \"lib/openzeppelin-contracts/contracts/access/AccessControl.sol\":6291:6298  account */\n      dup4\n        /* \"lib/openzeppelin-contracts/contracts/access/AccessControl.sol\":6277:6284  hasRole */\n      tag_153\n        /* \"lib/openzeppelin-contracts/contracts/access/AccessControl.sol\":6277:6299  hasRole(role, account) */\n      jump\t// in\n    tag_433:\n        /* \"lib/openzeppelin-contracts/contracts/access/AccessControl.sol\":6272:6489  if (!hasRole(role, account)) {... */\n      tag_434\n      jumpi\n        /* \"lib/openzeppelin-contracts/contracts/access/AccessControl.sol\":6347:6351  true */\n      0x01\n        /* \"lib/openzeppelin-contracts/contracts/access/AccessControl.sol\":6315:6321  _roles */\n      0x05\n        /* \"lib/openzeppelin-contracts/contracts/access/AccessControl.sol\":6315:6327  _roles[role] */\n      0x00\n        /* \"lib/openzeppelin-contracts/contracts/access/AccessControl.sol\":6322:6326  role */\n      dup6\n        /* \"lib/openzeppelin-contracts/contracts/access/AccessControl.sol\":6315:6327  _roles[role] */\n      dup2\n      mstore\n      0x20\n      add\n      swap1\n      dup2\n      mstore\n      0x20\n      add\n      0x00\n      keccak256\n        /* \"lib/openzeppelin-contracts/contracts/access/AccessControl.sol\":6315:6335  _roles[role].hasRole */\n      0x00\n      add\n        /* \"lib/openzeppelin-contracts/contracts/access/AccessControl.sol\":6315:6344  _roles[role].hasRole[account] */\n      0x00\n        /* \"lib/openzeppelin-contracts/contracts/access/AccessControl.sol\":6336:6343  account */\n      dup5\n        /* \"lib/openzeppelin-contracts/contracts/access/AccessControl.sol\":6315:6344  _roles[role].hasRole[account] */\n      0xffffffffffffffffffffffffffffffffffffffff\n      and\n      0xffffffffffffffffffffffffffffffffffffffff\n      and\n      dup2\n      mstore\n      0x20\n      add\n      swap1\n      dup2\n      mstore\n      0x20\n      add\n      0x00\n      keccak256\n      0x00\n        /* \"lib/openzeppelin-contracts/contracts/access/AccessControl.sol\":6315:6351  _roles[role].hasRole[account] = true */\n      0x0100\n      exp\n      dup2\n      sload\n      dup2\n      0xff\n      mul\n      not\n      and\n      swap1\n      dup4\n      iszero\n      iszero\n      mul\n      or\n      swap1\n      sstore\n      pop\n        /* \"lib/openzeppelin-contracts/contracts/access/AccessControl.sol\":6397:6409  _msgSender() */\n      tag_435\n        /* \"lib/openzeppelin-contracts/contracts/access/AccessControl.sol\":6397:6407  _msgSender */\n      tag_217\n        /* \"lib/openzeppelin-contracts/contracts/access/AccessControl.sol\":6397:6409  _msgSender() */\n      jump\t// in\n    tag_435:\n        /* \"lib/openzeppelin-contracts/contracts/access/AccessControl.sol\":6370:6410  RoleGranted(role, account, _msgSender()) */\n      0xffffffffffffffffffffffffffffffffffffffff\n      and\n        /* \"lib/openzeppelin-contracts/contracts/access/AccessControl.sol\":6388:6395  account */\n      dup3\n        /* \"lib/openzeppelin-contracts/contracts/access/AccessControl.sol\":6370:6410  RoleGranted(role, account, _msgSender()) */\n      0xffffffffffffffffffffffffffffffffffffffff\n      and\n        /* \"lib/openzeppelin-contracts/contracts/access/AccessControl.sol\":6382:6386  role */\n      dup5\n        /* \"lib/openzeppelin-contracts/contracts/access/AccessControl.sol\":6370:6410  RoleGranted(role, account, _msgSender()) */\n      0x2f8788117e7eff1d82e926ec794901d17c78024a50270940304540a733656f0d\n      mload(0x40)\n      mload(0x40)\n      dup1\n      swap2\n      sub\n      swap1\n      log4\n        /* \"lib/openzeppelin-contracts/contracts/access/AccessControl.sol\":6431:6435  true */\n      0x01\n        /* \"lib/openzeppelin-contracts/contracts/access/AccessControl.sol\":6424:6435  return true */\n      swap1\n      pop\n      jump(tag_432)\n        /* \"lib/openzeppelin-contracts/contracts/access/AccessControl.sol\":6272:6489  if (!hasRole(role, account)) {... */\n    tag_434:\n        /* \"lib/openzeppelin-contracts/contracts/access/AccessControl.sol\":6473:6478  false */\n      0x00\n        /* \"lib/openzeppelin-contracts/contracts/access/AccessControl.sol\":6466:6478  return false */\n      swap1\n      pop\n        /* \"lib/openzeppelin-contracts/contracts/access/AccessControl.sol\":6179:6495  function _grantRole(bytes32 role, address account) internal virtual returns (bool) {... */\n    tag_432:\n      swap3\n      swap2\n      pop\n      pop\n      jump\t// out\n        /* \"lib/openzeppelin-contracts/contracts/access/AccessControl.sol\":6730:7047  function _revokeRole(bytes32 role, address account) internal virtual returns (bool) {... */\n    tag_265:\n        /* \"lib/openzeppelin-contracts/contracts/access/AccessControl.sol\":6808:6812  bool */\n      0x00\n        /* \"lib/openzeppelin-contracts/contracts/access/AccessControl.sol\":6828:6850  hasRole(role, account) */\n      tag_438\n        /* \"lib/openzeppelin-contracts/contracts/access/AccessControl.sol\":6836:6840  role */\n      dup4\n        /* \"lib/openzeppelin-contracts/contracts/access/AccessControl.sol\":6842:6849  account */\n      dup4\n        /* \"lib/openzeppelin-contracts/contracts/access/AccessControl.sol\":6828:6835  hasRole */\n      tag_153\n        /* \"lib/openzeppelin-contracts/contracts/access/AccessControl.sol\":6828:6850  hasRole(role, account) */\n      jump\t// in\n    tag_438:\n        /* \"lib/openzeppelin-contracts/contracts/access/AccessControl.sol\":6824:7041  if (hasRole(role, account)) {... */\n      iszero\n      tag_439\n      jumpi\n        /* \"lib/openzeppelin-contracts/contracts/access/AccessControl.sol\":6898:6903  false */\n      0x00\n        /* \"lib/openzeppelin-contracts/contracts/access/AccessControl.sol\":6866:6872  _roles */\n      0x05\n        /* \"lib/openzeppelin-contracts/contracts/access/AccessControl.sol\":6866:6878  _roles[role] */\n      0x00\n        /* \"lib/openzeppelin-contracts/contracts/access/AccessControl.sol\":6873:6877  role */\n      dup6\n        /* \"lib/openzeppelin-contracts/contracts/access/AccessControl.sol\":6866:6878  _roles[role] */\n      dup2\n      mstore\n      0x20\n      add\n      swap1\n      dup2\n      mstore\n      0x20\n      add\n      0x00\n      keccak256\n        /* \"lib/openzeppelin-contracts/contracts/access/AccessControl.sol\":6866:6886  _roles[role].hasRole */\n      0x00\n      add\n        /* \"lib/openzeppelin-contracts/contracts/access/AccessControl.sol\":6866:6895  _roles[role].hasRole[account] */\n      0x00\n        /* \"lib/openzeppelin-contracts/contracts/access/AccessControl.sol\":6887:6894  account */\n      dup5\n        /* \"lib/openzeppelin-contracts/contracts/access/AccessControl.sol\":6866:6895  _roles[role].hasRole[account] */\n      0xffffffffffffffffffffffffffffffffffffffff\n      and\n      0xffffffffffffffffffffffffffffffffffffffff\n      and\n      dup2\n      mstore\n      0x20\n      add\n      swap1\n      dup2\n      mstore\n      0x20\n      add\n      0x00\n      keccak256\n      0x00\n        /* \"lib/openzeppelin-contracts/contracts/access/AccessControl.sol\":6866:6903  _roles[role].hasRole[account] = false */\n      0x0100\n      exp\n      dup2\n      sload\n      dup2\n      0xff\n      mul\n      not\n      and\n      swap1\n      dup4\n      iszero\n      iszero\n      mul\n      or\n      swap1\n      sstore\n      pop\n        /* \"lib/openzeppelin-contracts/contracts/access/AccessControl.sol\":6949:6961  _msgSender() */\n      tag_440\n        /* \"lib/openzeppelin-contracts/contracts/access/AccessControl.sol\":6949:6959  _msgSender */\n      tag_217\n        /* \"lib/openzeppelin-contracts/contracts/access/AccessControl.sol\":6949:6961  _msgSender() */\n      jump\t// in\n    tag_440:\n        /* \"lib/openzeppelin-contracts/contracts/access/AccessControl.sol\":6922:6962  RoleRevoked(role, account, _msgSender()) */\n      0xffffffffffffffffffffffffffffffffffffffff\n      and\n        /* \"lib/openzeppelin-contracts/contracts/access/AccessControl.sol\":6940:6947  account */\n      dup3\n        /* \"lib/openzeppelin-contracts/contracts/access/AccessControl.sol\":6922:6962  RoleRevoked(role, account, _msgSender()) */\n      0xffffffffffffffffffffffffffffffffffffffff\n      and\n        /* \"lib/openzeppelin-contracts/contracts/access/AccessControl.sol\":6934:6938  role */\n      dup5\n        /* \"lib/openzeppelin-contracts/contracts/access/AccessControl.sol\":6922:6962  RoleRevoked(role, account, _msgSender()) */\n      0xf6391f5c32d9c69d2a47ea670b442974b53935d1edc7fd64eb21e047a839171b\n      mload(0x40)\n      mload(0x40)\n      dup1\n      swap2\n      sub\n      swap1\n      log4\n        /* \"lib/openzeppelin-contracts/contracts/access/AccessControl.sol\":6983:6987  true */\n      0x01\n        /* \"lib/openzeppelin-contracts/contracts/access/AccessControl.sol\":6976:6987  return true */\n      swap1\n      pop\n      jump(tag_437)\n        /* \"lib/openzeppelin-contracts/contracts/access/AccessControl.sol\":6824:7041  if (hasRole(role, account)) {... */\n    tag_439:\n        /* \"lib/openzeppelin-contracts/contracts/access/AccessControl.sol\":7025:7030  false */\n      0x00\n        /* \"lib/openzeppelin-contracts/contracts/access/AccessControl.sol\":7018:7030  return false */\n      swap1\n      pop\n        /* \"lib/openzeppelin-contracts/contracts/access/AccessControl.sol\":6730:7047  function _revokeRole(bytes32 role, address account) internal virtual returns (bool) {... */\n    tag_437:\n      swap3\n      swap2\n      pop\n      pop\n      jump\t// out\n        /* \"lib/openzeppelin-contracts/contracts/token/ERC20/utils/SafeERC20.sol\":1271:1431  function safeTransfer(IERC20 token, address to, uint256 value) internal {... */\n    tag_278:\n        /* \"lib/openzeppelin-contracts/contracts/token/ERC20/utils/SafeERC20.sol\":1353:1424  _callOptionalReturn(token, abi.encodeCall(token.transfer, (to, value))) */\n      tag_443\n        /* \"lib/openzeppelin-contracts/contracts/token/ERC20/utils/SafeERC20.sol\":1373:1378  token */\n      dup4\n        /* \"lib/openzeppelin-contracts/contracts/token/ERC20/utils/SafeERC20.sol\":1395:1400  token */\n      dup5\n        /* \"lib/openzeppelin-contracts/contracts/token/ERC20/utils/SafeERC20.sol\":1395:1409  token.transfer */\n      0xffffffffffffffffffffffffffffffffffffffff\n      and\n      0xa9059cbb\n        /* \"lib/openzeppelin-contracts/contracts/token/ERC20/utils/SafeERC20.sol\":1412:1414  to */\n      dup6\n        /* \"lib/openzeppelin-contracts/contracts/token/ERC20/utils/SafeERC20.sol\":1416:1421  value */\n      dup6\n        /* \"lib/openzeppelin-contracts/contracts/token/ERC20/utils/SafeERC20.sol\":1380:1423  abi.encodeCall(token.transfer, (to, value)) */\n      add(0x24, mload(0x40))\n      tag_444\n      swap3\n      swap2\n      swap1\n      tag_310\n      jump\t// in\n    tag_444:\n      mload(0x40)\n      0x20\n      dup2\n      dup4\n      sub\n      sub\n      dup2\n      mstore\n      swap1\n      0x40\n      mstore\n      swap2\n      pop\n      0xe0\n      shl\n      0x20\n      dup3\n      add\n      dup1\n      mload\n      0xffffffffffffffffffffffffffffffffffffffffffffffffffffffff\n      dup4\n      dup2\n      dup4\n      and\n      or\n      dup4\n      mstore\n      pop\n      pop\n      pop\n      pop\n        /* \"lib/openzeppelin-contracts/contracts/token/ERC20/utils/SafeERC20.sol\":1353:1372  _callOptionalReturn */\n      tag_445\n        /* \"lib/openzeppelin-contracts/contracts/token/ERC20/utils/SafeERC20.sol\":1353:1424  _callOptionalReturn(token, abi.encodeCall(token.transfer, (to, value))) */\n      jump\t// in\n    tag_443:\n        /* \"lib/openzeppelin-contracts/contracts/token/ERC20/utils/SafeERC20.sol\":1271:1431  function safeTransfer(IERC20 token, address to, uint256 value) internal {... */\n      pop\n      pop\n      pop\n      jump\t// out\n        /* \"lib/openzeppelin-contracts/contracts/token/ERC20/ERC20.sol\":7458:7666  function _mint(address account, uint256 value) internal {... */\n    tag_312:\n        /* \"lib/openzeppelin-contracts/contracts/token/ERC20/ERC20.sol\":7547:7548  0 */\n      0x00\n        /* \"lib/openzeppelin-contracts/contracts/token/ERC20/ERC20.sol\":7528:7549  account == address(0) */\n      0xffffffffffffffffffffffffffffffffffffffff\n      and\n        /* \"lib/openzeppelin-contracts/contracts/token/ERC20/ERC20.sol\":7528:7535  account */\n      dup3\n        /* \"lib/openzeppelin-contracts/contracts/token/ERC20/ERC20.sol\":7528:7549  account == address(0) */\n      0xffffffffffffffffffffffffffffffffffffffff\n      and\n      sub\n        /* \"lib/openzeppelin-contracts/contracts/token/ERC20/ERC20.sol\":7524:7615  if (account == address(0)) {... */\n      tag_447\n      jumpi\n        /* \"lib/openzeppelin-contracts/contracts/token/ERC20/ERC20.sol\":7601:7602  0 */\n      0x00\n        /* \"lib/openzeppelin-contracts/contracts/token/ERC20/ERC20.sol\":7572:7604  ERC20InvalidReceiver(address(0)) */\n      mload(0x40)\n      0xec442f0500000000000000000000000000000000000000000000000000000000\n      dup2\n      mstore\n      0x04\n      add\n      tag_448\n      swap2\n      swap1\n      tag_422\n      jump\t// in\n    tag_448:\n      mload(0x40)\n      dup1\n      swap2\n      sub\n      swap1\n      revert\n        /* \"lib/openzeppelin-contracts/contracts/token/ERC20/ERC20.sol\":7524:7615  if (account == address(0)) {... */\n    tag_447:\n        /* \"lib/openzeppelin-contracts/contracts/token/ERC20/ERC20.sol\":7624:7659  _update(address(0), account, value) */\n      tag_449\n        /* \"lib/openzeppelin-contracts/contracts/token/ERC20/ERC20.sol\":7640:7641  0 */\n      0x00\n        /* \"lib/openzeppelin-contracts/contracts/token/ERC20/ERC20.sol\":7644:7651  account */\n      dup4\n        /* \"lib/openzeppelin-contracts/contracts/token/ERC20/ERC20.sol\":7653:7658  value */\n      dup4\n        /* \"lib/openzeppelin-contracts/contracts/token/ERC20/ERC20.sol\":7624:7631  _update */\n      tag_426\n        /* \"lib/openzeppelin-contracts/contracts/token/ERC20/ERC20.sol\":7624:7659  _update(address(0), account, value) */\n      jump\t// in\n    tag_449:\n        /* \"lib/openzeppelin-contracts/contracts/token/ERC20/ERC20.sol\":7458:7666  function _mint(address account, uint256 value) internal {... */\n      pop\n      pop\n      jump\t// out\n        /* \"lib/openzeppelin-contracts/contracts/token/ERC20/ERC20.sol\":9701:10133  function _approve(address owner, address spender, uint256 value, bool emitEvent) internal virtual {... */\n    tag_412:\n        /* \"lib/openzeppelin-contracts/contracts/token/ERC20/ERC20.sol\":9830:9831  0 */\n      0x00\n        /* \"lib/openzeppelin-contracts/contracts/token/ERC20/ERC20.sol\":9813:9832  owner == address(0) */\n      0xffffffffffffffffffffffffffffffffffffffff\n      and\n        /* \"lib/openzeppelin-contracts/contracts/token/ERC20/ERC20.sol\":9813:9818  owner */\n      dup5\n        /* \"lib/openzeppelin-contracts/contracts/token/ERC20/ERC20.sol\":9813:9832  owner == address(0) */\n      0xffffffffffffffffffffffffffffffffffffffff\n      and\n      sub\n        /* \"lib/openzeppelin-contracts/contracts/token/ERC20/ERC20.sol\":9809:9898  if (owner == address(0)) {... */\n      tag_451\n      jumpi\n        /* \"lib/openzeppelin-contracts/contracts/token/ERC20/ERC20.sol\":9884:9885  0 */\n      0x00\n        /* \"lib/openzeppelin-contracts/contracts/token/ERC20/ERC20.sol\":9855:9887  ERC20InvalidApprover(address(0)) */\n      mload(0x40)\n      0xe602df0500000000000000000000000000000000000000000000000000000000\n      dup2\n      mstore\n      0x04\n      add\n      tag_452\n      swap2\n      swap1\n      tag_422\n      jump\t// in\n    tag_452:\n      mload(0x40)\n      dup1\n      swap2\n      sub\n      swap1\n      revert\n        /* \"lib/openzeppelin-contracts/contracts/token/ERC20/ERC20.sol\":9809:9898  if (owner == address(0)) {... */\n    tag_451:\n        /* \"lib/openzeppelin-contracts/contracts/token/ERC20/ERC20.sol\":9930:9931  0 */\n      0x00\n        /* \"lib/openzeppelin-contracts/contracts/token/ERC20/ERC20.sol\":9911:9932  spender == address(0) */\n      0xffffffffffffffffffffffffffffffffffffffff\n      and\n        /* \"lib/openzeppelin-contracts/contracts/token/ERC20/ERC20.sol\":9911:9918  spender */\n      dup4\n        /* \"lib/openzeppelin-contracts/contracts/token/ERC20/ERC20.sol\":9911:9932  spender == address(0) */\n      0xffffffffffffffffffffffffffffffffffffffff\n      and\n      sub\n        /* \"lib/openzeppelin-contracts/contracts/token/ERC20/ERC20.sol\":9907:9997  if (spender == address(0)) {... */\n      tag_453\n      jumpi\n        /* \"lib/openzeppelin-contracts/contracts/token/ERC20/ERC20.sol\":9983:9984  0 */\n      0x00\n        /* \"lib/openzeppelin-contracts/contracts/token/ERC20/ERC20.sol\":9955:9986  ERC20InvalidSpender(address(0)) */\n      mload(0x40)\n      0x94280d6200000000000000000000000000000000000000000000000000000000\n      dup2\n      mstore\n      0x04\n      add\n      tag_454\n      swap2\n      swap1\n      tag_422\n      jump\t// in\n    tag_454:\n      mload(0x40)\n      dup1\n      swap2\n      sub\n      swap1\n      revert\n        /* \"lib/openzeppelin-contracts/contracts/token/ERC20/ERC20.sol\":9907:9997  if (spender == address(0)) {... */\n    tag_453:\n        /* \"lib/openzeppelin-contracts/contracts/token/ERC20/ERC20.sol\":10036:10041  value */\n      dup2\n        /* \"lib/openzeppelin-contracts/contracts/token/ERC20/ERC20.sol\":10006:10017  _allowances */\n      0x01\n        /* \"lib/openzeppelin-contracts/contracts/token/ERC20/ERC20.sol\":10006:10024  _allowances[owner] */\n      0x00\n        /* \"lib/openzeppelin-contracts/contracts/token/ERC20/ERC20.sol\":10018:10023  owner */\n      dup7\n        /* \"lib/openzeppelin-contracts/contracts/token/ERC20/ERC20.sol\":10006:10024  _allowances[owner] */\n      0xffffffffffffffffffffffffffffffffffffffff\n      and\n      0xffffffffffffffffffffffffffffffffffffffff\n      and\n      dup2\n      mstore\n      0x20\n      add\n      swap1\n      dup2\n      mstore\n      0x20\n      add\n      0x00\n      keccak256\n        /* \"lib/openzeppelin-contracts/contracts/token/ERC20/ERC20.sol\":10006:10033  _allowances[owner][spender] */\n      0x00\n        /* \"lib/openzeppelin-contracts/contracts/token/ERC20/ERC20.sol\":10025:10032  spender */\n      dup6\n        /* \"lib/openzeppelin-contracts/contracts/token/ERC20/ERC20.sol\":10006:10033  _allowances[owner][spender] */\n      0xffffffffffffffffffffffffffffffffffffffff\n      and\n      0xffffffffffffffffffffffffffffffffffffffff\n      and\n      dup2\n      mstore\n      0x20\n      add\n      swap1\n      dup2\n      mstore\n      0x20\n      add\n      0x00\n      keccak256\n        /* \"lib/openzeppelin-contracts/contracts/token/ERC20/ERC20.sol\":10006:10041  _allowances[owner][spender] = value */\n      dup2\n      swap1\n      sstore\n      pop\n        /* \"lib/openzeppelin-contracts/contracts/token/ERC20/ERC20.sol\":10055:10064  emitEvent */\n      dup1\n        /* \"lib/openzeppelin-contracts/contracts/token/ERC20/ERC20.sol\":10051:10127  if (emitEvent) {... */\n      iszero\n      tag_455\n      jumpi\n        /* \"lib/openzeppelin-contracts/contracts/token/ERC20/ERC20.sol\":10101:10108  spender */\n      dup3\n        /* \"lib/openzeppelin-contracts/contracts/token/ERC20/ERC20.sol\":10085:10116  Approval(owner, spender, value) */\n      0xffffffffffffffffffffffffffffffffffffffff\n      and\n        /* \"lib/openzeppelin-contracts/contracts/token/ERC20/ERC20.sol\":10094:10099  owner */\n      dup5\n        /* \"lib/openzeppelin-contracts/contracts/token/ERC20/ERC20.sol\":10085:10116  Approval(owner, spender, value) */\n      0xffffffffffffffffffffffffffffffffffffffff\n      and\n      0x8c5be1e5ebec7d5bd14f71427d1e84f3dd0314c0f7b2291e5b200ac8c7c3b925\n        /* \"lib/openzeppelin-contracts/contracts/token/ERC20/ERC20.sol\":10110:10115  value */\n      dup5\n        /* \"lib/openzeppelin-contracts/contracts/token/ERC20/ERC20.sol\":10085:10116  Approval(owner, spender, value) */\n      mload(0x40)\n      tag_456\n      swap2\n      swap1\n      tag_61\n      jump\t// in\n    tag_456:\n      mload(0x40)\n      dup1\n      swap2\n      sub\n      swap1\n      log3\n        /* \"lib/openzeppelin-contracts/contracts/token/ERC20/ERC20.sol\":10051:10127  if (emitEvent) {... */\n    tag_455:\n        /* \"lib/openzeppelin-contracts/contracts/token/ERC20/ERC20.sol\":9701:10133  function _approve(address owner, address spender, uint256 value, bool emitEvent) internal virtual {... */\n      pop\n      pop\n      pop\n      pop\n      jump\t// out\n        /* \"lib/openzeppelin-contracts/contracts/access/AccessControl.sol\":3432:3629  function _checkRole(bytes32 role, address account) internal view virtual {... */\n    tag_416:\n        /* \"lib/openzeppelin-contracts/contracts/access/AccessControl.sol\":3520:3542  hasRole(role, account) */\n      tag_458\n        /* \"lib/openzeppelin-contracts/contracts/access/AccessControl.sol\":3528:3532  role */\n      dup3\n        /* \"lib/openzeppelin-contracts/contracts/access/AccessControl.sol\":3534:3541  account */\n      dup3\n        /* \"lib/openzeppelin-contracts/contracts/access/AccessControl.sol\":3520:3527  hasRole */\n      tag_153\n        /* \"lib/openzeppelin-contracts/contracts/access/AccessControl.sol\":3520:3542  hasRole(role, account) */\n      jump\t// in\n    tag_458:\n        /* \"lib/openzeppelin-contracts/contracts/access/AccessControl.sol\":3515:3623  if (!hasRole(role, account)) {... */\n      tag_459\n      jumpi\n        /* \"lib/openzeppelin-contracts/contracts/access/AccessControl.sol\":3598:3605  account */\n      dup1\n        /* \"lib/openzeppelin-contracts/contracts/access/AccessControl.sol\":3607:3611  role */\n      dup3\n        /* \"lib/openzeppelin-contracts/contracts/access/AccessControl.sol\":3565:3612  AccessControlUnauthorizedAccount(account, role) */\n      mload(0x40)\n      0xe2517d3f00000000000000000000000000000000000000000000000000000000\n      dup2\n      mstore\n      0x04\n      add\n      tag_460\n      swap3\n      swap2\n      swap1\n      tag_461\n      jump\t// in\n    tag_460:\n      mload(0x40)\n      dup1\n      swap2\n      sub\n      swap1\n      revert\n        /* \"lib/openzeppelin-contracts/contracts/access/AccessControl.sol\":3515:3623  if (!hasRole(role, account)) {... */\n    tag_459:\n        /* \"lib/openzeppelin-contracts/contracts/access/AccessControl.sol\":3432:3629  function _checkRole(bytes32 role, address account) internal view virtual {... */\n      pop\n      pop\n      jump\t// out\n        /* \"lib/openzeppelin-contracts/contracts/token/ERC20/ERC20.sol\":6008:7115  function _update(address from, address to, uint256 value) internal virtual {... */\n    tag_426:\n        /* \"lib/openzeppelin-contracts/contracts/token/ERC20/ERC20.sol\":6113:6114  0 */\n      0x00\n        /* \"lib/openzeppelin-contracts/contracts/token/ERC20/ERC20.sol\":6097:6115  from == address(0) */\n      0xffffffffffffffffffffffffffffffffffffffff\n      and\n        /* \"lib/openzeppelin-contracts/contracts/token/ERC20/ERC20.sol\":6097:6101  from */\n      dup4\n        /* \"lib/openzeppelin-contracts/contracts/token/ERC20/ERC20.sol\":6097:6115  from == address(0) */\n      0xffffffffffffffffffffffffffffffffffffffff\n      and\n      sub\n        /* \"lib/openzeppelin-contracts/contracts/token/ERC20/ERC20.sol\":6093:6633  if (from == address(0)) {... */\n      tag_463\n      jumpi\n        /* \"lib/openzeppelin-contracts/contracts/token/ERC20/ERC20.sol\":6249:6254  value */\n      dup1\n        /* \"lib/openzeppelin-contracts/contracts/token/ERC20/ERC20.sol\":6233:6245  _totalSupply */\n      0x02\n      0x00\n        /* \"lib/openzeppelin-contracts/contracts/token/ERC20/ERC20.sol\":6233:6254  _totalSupply += value */\n      dup3\n      dup3\n      sload\n      tag_464\n      swap2\n      swap1\n      tag_305\n      jump\t// in\n    tag_464:\n      swap3\n      pop\n      pop\n      dup2\n      swap1\n      sstore\n      pop\n        /* \"lib/openzeppelin-contracts/contracts/token/ERC20/ERC20.sol\":6093:6633  if (from == address(0)) {... */\n      jump(tag_465)\n    tag_463:\n        /* \"lib/openzeppelin-contracts/contracts/token/ERC20/ERC20.sol\":6285:6304  uint256 fromBalance */\n      0x00\n        /* \"lib/openzeppelin-contracts/contracts/token/ERC20/ERC20.sol\":6307:6316  _balances */\n      dup1\n        /* \"lib/openzeppelin-contracts/contracts/token/ERC20/ERC20.sol\":6307:6322  _balances[from] */\n      0x00\n        /* \"lib/openzeppelin-contracts/contracts/token/ERC20/ERC20.sol\":6317:6321  from */\n      dup6\n        /* \"lib/openzeppelin-contracts/contracts/token/ERC20/ERC20.sol\":6307:6322  _balances[from] */\n      0xffffffffffffffffffffffffffffffffffffffff\n      and\n      0xffffffffffffffffffffffffffffffffffffffff\n      and\n      dup2\n      mstore\n      0x20\n      add\n      swap1\n      dup2\n      mstore\n      0x20\n      add\n      0x00\n      keccak256\n      sload\n        /* \"lib/openzeppelin-contracts/contracts/token/ERC20/ERC20.sol\":6285:6322  uint256 fromBalance = _balances[from] */\n      swap1\n      pop\n        /* \"lib/openzeppelin-contracts/contracts/token/ERC20/ERC20.sol\":6354:6359  value */\n      dup2\n        /* \"lib/openzeppelin-contracts/contracts/token/ERC20/ERC20.sol\":6340:6351  fromBalance */\n      dup2\n        /* \"lib/openzeppelin-contracts/contracts/token/ERC20/ERC20.sol\":6340:6359  fromBalance < value */\n      lt\n        /* \"lib/openzeppelin-contracts/contracts/token/ERC20/ERC20.sol\":6336:6451  if (fromBalance < value) {... */\n      iszero\n      tag_466\n      jumpi\n        /* \"lib/openzeppelin-contracts/contracts/token/ERC20/ERC20.sol\":6411:6415  from */\n      dup4\n        /* \"lib/openzeppelin-contracts/contracts/token/ERC20/ERC20.sol\":6417:6428  fromBalance */\n      dup2\n        /* \"lib/openzeppelin-contracts/contracts/token/ERC20/ERC20.sol\":6430:6435  value */\n      dup4\n        /* \"lib/openzeppelin-contracts/contracts/token/ERC20/ERC20.sol\":6386:6436  ERC20InsufficientBalance(from, fromBalance, value) */\n      mload(0x40)\n      0xe450d38c00000000000000000000000000000000000000000000000000000000\n      dup2\n      mstore\n      0x04\n      add\n      tag_467\n      swap4\n      swap3\n      swap2\n      swap1\n      tag_468\n      jump\t// in\n    tag_467:\n      mload(0x40)\n      dup1\n      swap2\n      sub\n      swap1\n      revert\n        /* \"lib/openzeppelin-contracts/contracts/token/ERC20/ERC20.sol\":6336:6451  if (fromBalance < value) {... */\n    tag_466:\n        /* \"lib/openzeppelin-contracts/contracts/token/ERC20/ERC20.sol\":6603:6608  value */\n      dup2\n        /* \"lib/openzeppelin-contracts/contracts/token/ERC20/ERC20.sol\":6589:6600  fromBalance */\n      dup2\n        /* \"lib/openzeppelin-contracts/contracts/token/ERC20/ERC20.sol\":6589:6608  fromBalance - value */\n      sub\n        /* \"lib/openzeppelin-contracts/contracts/token/ERC20/ERC20.sol\":6571:6580  _balances */\n      0x00\n        /* \"lib/openzeppelin-contracts/contracts/token/ERC20/ERC20.sol\":6571:6586  _balances[from] */\n      dup1\n        /* \"lib/openzeppelin-contracts/contracts/token/ERC20/ERC20.sol\":6581:6585  from */\n      dup7\n        /* \"lib/openzeppelin-contracts/contracts/token/ERC20/ERC20.sol\":6571:6586  _balances[from] */\n      0xffffffffffffffffffffffffffffffffffffffff\n      and\n      0xffffffffffffffffffffffffffffffffffffffff\n      and\n      dup2\n      mstore\n      0x20\n      add\n      swap1\n      dup2\n      mstore\n      0x20\n      add\n      0x00\n      keccak256\n        /* \"lib/openzeppelin-contracts/contracts/token/ERC20/ERC20.sol\":6571:6608  _balances[from] = fromBalance - value */\n      dup2\n      swap1\n      sstore\n      pop\n        /* \"lib/openzeppelin-contracts/contracts/token/ERC20/ERC20.sol\":6271:6633  {... */\n      pop\n        /* \"lib/openzeppelin-contracts/contracts/token/ERC20/ERC20.sol\":6093:6633  if (from == address(0)) {... */\n    tag_465:\n        /* \"lib/openzeppelin-contracts/contracts/token/ERC20/ERC20.sol\":6661:6662  0 */\n      0x00\n        /* \"lib/openzeppelin-contracts/contracts/token/ERC20/ERC20.sol\":6647:6663  to == address(0) */\n      0xffffffffffffffffffffffffffffffffffffffff\n      and\n        /* \"lib/openzeppelin-contracts/contracts/token/ERC20/ERC20.sol\":6647:6649  to */\n      dup3\n        /* \"lib/openzeppelin-contracts/contracts/token/ERC20/ERC20.sol\":6647:6663  to == address(0) */\n      0xffffffffffffffffffffffffffffffffffffffff\n      and\n      sub\n        /* \"lib/openzeppelin-contracts/contracts/token/ERC20/ERC20.sol\":6643:7068  if (to == address(0)) {... */\n      tag_469\n      jumpi\n        /* \"lib/openzeppelin-contracts/contracts/token/ERC20/ERC20.sol\":6826:6831  value */\n      dup1\n        /* \"lib/openzeppelin-contracts/contracts/token/ERC20/ERC20.sol\":6810:6822  _totalSupply */\n      0x02\n      0x00\n        /* \"lib/openzeppelin-contracts/contracts/token/ERC20/ERC20.sol\":6810:6831  _totalSupply -= value */\n      dup3\n      dup3\n      sload\n      sub\n      swap3\n      pop\n      pop\n      dup2\n      swap1\n      sstore\n      pop\n        /* \"lib/openzeppelin-contracts/contracts/token/ERC20/ERC20.sol\":6643:7068  if (to == address(0)) {... */\n      jump(tag_470)\n    tag_469:\n        /* \"lib/openzeppelin-contracts/contracts/token/ERC20/ERC20.sol\":7038:7043  value */\n      dup1\n        /* \"lib/openzeppelin-contracts/contracts/token/ERC20/ERC20.sol\":7021:7030  _balances */\n      0x00\n        /* \"lib/openzeppelin-contracts/contracts/token/ERC20/ERC20.sol\":7021:7034  _balances[to] */\n      dup1\n        /* \"lib/openzeppelin-contracts/contracts/token/ERC20/ERC20.sol\":7031:7033  to */\n      dup5\n        /* \"lib/openzeppelin-contracts/contracts/token/ERC20/ERC20.sol\":7021:7034  _balances[to] */\n      0xffffffffffffffffffffffffffffffffffffffff\n      and\n      0xffffffffffffffffffffffffffffffffffffffff\n      and\n      dup2\n      mstore\n      0x20\n      add\n      swap1\n      dup2\n      mstore\n      0x20\n      add\n      0x00\n      keccak256\n      0x00\n        /* \"lib/openzeppelin-contracts/contracts/token/ERC20/ERC20.sol\":7021:7043  _balances[to] += value */\n      dup3\n      dup3\n      sload\n      add\n      swap3\n      pop\n      pop\n      dup2\n      swap1\n      sstore\n      pop\n        /* \"lib/openzeppelin-contracts/contracts/token/ERC20/ERC20.sol\":6643:7068  if (to == address(0)) {... */\n    tag_470:\n        /* \"lib/openzeppelin-contracts/contracts/token/ERC20/ERC20.sol\":7098:7100  to */\n      dup2\n        /* \"lib/openzeppelin-contracts/contracts/token/ERC20/ERC20.sol\":7083:7108  Transfer(from, to, value) */\n      0xffffffffffffffffffffffffffffffffffffffff\n      and\n        /* \"lib/openzeppelin-contracts/contracts/token/ERC20/ERC20.sol\":7092:7096  from */\n      dup4\n        /* \"lib/openzeppelin-contracts/contracts/token/ERC20/ERC20.sol\":7083:7108  Transfer(from, to, value) */\n      0xffffffffffffffffffffffffffffffffffffffff\n      and\n      0xddf252ad1be2c89b69c2b068fc378daa952ba7f163c4a11628f55a4df523b3ef\n        /* \"lib/openzeppelin-contracts/contracts/token/ERC20/ERC20.sol\":7102:7107  value */\n      dup4\n        /* \"lib/openzeppelin-contracts/contracts/token/ERC20/ERC20.sol\":7083:7108  Transfer(from, to, value) */\n      mload(0x40)\n      tag_471\n      swap2\n      swap1\n      tag_61\n      jump\t// in\n    tag_471:\n      mload(0x40)\n      dup1\n      swap2\n      sub\n      swap1\n      log3\n        /* \"lib/openzeppelin-contracts/contracts/token/ERC20/ERC20.sol\":6008:7115  function _update(address from, address to, uint256 value) internal virtual {... */\n      pop\n      pop\n      pop\n      jump\t// out\n        /* \"lib/openzeppelin-contracts/contracts/token/ERC20/utils/SafeERC20.sol\":7738:8458  function _callOptionalReturn(IERC20 token, bytes memory data) private {... */\n    tag_445:\n        /* \"lib/openzeppelin-contracts/contracts/token/ERC20/utils/SafeERC20.sol\":7818:7836  uint256 returnSize */\n      0x00\n        /* \"lib/openzeppelin-contracts/contracts/token/ERC20/utils/SafeERC20.sol\":7846:7865  uint256 returnValue */\n      dup1\n        /* \"lib/openzeppelin-contracts/contracts/token/ERC20/utils/SafeERC20.sol\":7984:7988  0x20 */\n      0x20\n        /* \"lib/openzeppelin-contracts/contracts/token/ERC20/utils/SafeERC20.sol\":7981:7982  0 */\n      0x00\n        /* \"lib/openzeppelin-contracts/contracts/token/ERC20/utils/SafeERC20.sol\":7974:7978  data */\n      dup5\n        /* \"lib/openzeppelin-contracts/contracts/token/ERC20/utils/SafeERC20.sol\":7968:7979  mload(data) */\n      mload\n        /* \"lib/openzeppelin-contracts/contracts/token/ERC20/utils/SafeERC20.sol\":7961:7965  0x20 */\n      0x20\n        /* \"lib/openzeppelin-contracts/contracts/token/ERC20/utils/SafeERC20.sol\":7955:7959  data */\n      dup7\n        /* \"lib/openzeppelin-contracts/contracts/token/ERC20/utils/SafeERC20.sol\":7951:7966  add(data, 0x20) */\n      add\n        /* \"lib/openzeppelin-contracts/contracts/token/ERC20/utils/SafeERC20.sol\":7948:7949  0 */\n      0x00\n        /* \"lib/openzeppelin-contracts/contracts/token/ERC20/utils/SafeERC20.sol\":7941:7946  token */\n      dup9\n        /* \"lib/openzeppelin-contracts/contracts/token/ERC20/utils/SafeERC20.sol\":7934:7939  gas() */\n      gas\n        /* \"lib/openzeppelin-contracts/contracts/token/ERC20/utils/SafeERC20.sol\":7929:7989  call(gas(), token, 0, add(data, 0x20), mload(data), 0, 0x20) */\n      call\n        /* \"lib/openzeppelin-contracts/contracts/token/ERC20/utils/SafeERC20.sol\":8041:8048  success */\n      dup1\n        /* \"lib/openzeppelin-contracts/contracts/token/ERC20/utils/SafeERC20.sol\":8031:8207  if iszero(success) {... */\n      tag_473\n      jumpi\n        /* \"lib/openzeppelin-contracts/contracts/token/ERC20/utils/SafeERC20.sol\":8085:8089  0x40 */\n      0x40\n        /* \"lib/openzeppelin-contracts/contracts/token/ERC20/utils/SafeERC20.sol\":8079:8090  mload(0x40) */\n      mload\n        /* \"lib/openzeppelin-contracts/contracts/token/ERC20/utils/SafeERC20.sol\":8130:8146  returndatasize() */\n      returndatasize\n        /* \"lib/openzeppelin-contracts/contracts/token/ERC20/utils/SafeERC20.sol\":8127:8128  0 */\n      0x00\n        /* \"lib/openzeppelin-contracts/contracts/token/ERC20/utils/SafeERC20.sol\":8122:8125  ptr */\n      dup3\n        /* \"lib/openzeppelin-contracts/contracts/token/ERC20/utils/SafeERC20.sol\":8107:8147  returndatacopy(ptr, 0, returndatasize()) */\n      returndatacopy\n        /* \"lib/openzeppelin-contracts/contracts/token/ERC20/utils/SafeERC20.sol\":8176:8192  returndatasize() */\n      returndatasize\n        /* \"lib/openzeppelin-contracts/contracts/token/ERC20/utils/SafeERC20.sol\":8171:8174  ptr */\n      dup2\n        /* \"lib/openzeppelin-contracts/contracts/token/ERC20/utils/SafeERC20.sol\":8164:8193  revert(ptr, returndatasize()) */\n      revert\n        /* \"lib/openzeppelin-contracts/contracts/token/ERC20/utils/SafeERC20.sol\":8031:8207  if iszero(success) {... */\n    tag_473:\n        /* \"lib/openzeppelin-contracts/contracts/token/ERC20/utils/SafeERC20.sol\":8234:8250  returndatasize() */\n      returndatasize\n        /* \"lib/openzeppelin-contracts/contracts/token/ERC20/utils/SafeERC20.sol\":8220:8250  returnSize := returndatasize() */\n      swap3\n      pop\n        /* \"lib/openzeppelin-contracts/contracts/token/ERC20/utils/SafeERC20.sol\":8284:8285  0 */\n      0x00\n        /* \"lib/openzeppelin-contracts/contracts/token/ERC20/utils/SafeERC20.sol\":8278:8286  mload(0) */\n      mload\n        /* \"lib/openzeppelin-contracts/contracts/token/ERC20/utils/SafeERC20.sol\":8263:8286  returnValue := mload(0) */\n      swap2\n      pop\n        /* \"lib/openzeppelin-contracts/contracts/token/ERC20/utils/SafeERC20.sol\":7900:8296  {... */\n      pop\n        /* \"lib/openzeppelin-contracts/contracts/token/ERC20/utils/SafeERC20.sol\":8324:8325  0 */\n      0x00\n        /* \"lib/openzeppelin-contracts/contracts/token/ERC20/utils/SafeERC20.sol\":8310:8320  returnSize */\n      dup3\n        /* \"lib/openzeppelin-contracts/contracts/token/ERC20/utils/SafeERC20.sol\":8310:8325  returnSize == 0 */\n      eq\n        /* \"lib/openzeppelin-contracts/contracts/token/ERC20/utils/SafeERC20.sol\":8310:8378  returnSize == 0 ? address(token).code.length == 0 : returnValue != 1 */\n      tag_474\n      jumpi\n        /* \"lib/openzeppelin-contracts/contracts/token/ERC20/utils/SafeERC20.sol\":8377:8378  1 */\n      0x01\n        /* \"lib/openzeppelin-contracts/contracts/token/ERC20/utils/SafeERC20.sol\":8362:8373  returnValue */\n      dup2\n        /* \"lib/openzeppelin-contracts/contracts/token/ERC20/utils/SafeERC20.sol\":8362:8378  returnValue != 1 */\n      eq\n      iszero\n        /* \"lib/openzeppelin-contracts/contracts/token/ERC20/utils/SafeERC20.sol\":8310:8378  returnSize == 0 ? address(token).code.length == 0 : returnValue != 1 */\n      jump(tag_475)\n    tag_474:\n        /* \"lib/openzeppelin-contracts/contracts/token/ERC20/utils/SafeERC20.sol\":8358:8359  0 */\n      0x00\n        /* \"lib/openzeppelin-contracts/contracts/token/ERC20/utils/SafeERC20.sol\":8336:8341  token */\n      dup5\n        /* \"lib/openzeppelin-contracts/contracts/token/ERC20/utils/SafeERC20.sol\":8328:8354  address(token).code.length */\n      0xffffffffffffffffffffffffffffffffffffffff\n      and\n      extcodesize\n        /* \"lib/openzeppelin-contracts/contracts/token/ERC20/utils/SafeERC20.sol\":8328:8359  address(token).code.length == 0 */\n      eq\n        /* \"lib/openzeppelin-contracts/contracts/token/ERC20/utils/SafeERC20.sol\":8310:8378  returnSize == 0 ? address(token).code.length == 0 : returnValue != 1 */\n    tag_475:\n        /* \"lib/openzeppelin-contracts/contracts/token/ERC20/utils/SafeERC20.sol\":8306:8452  if (returnSize == 0 ? address(token).code.length == 0 : returnValue != 1) {... */\n      iszero\n      tag_476\n      jumpi\n        /* \"lib/openzeppelin-contracts/contracts/token/ERC20/utils/SafeERC20.sol\":8434:8439  token */\n      dup4\n        /* \"lib/openzeppelin-contracts/contracts/token/ERC20/utils/SafeERC20.sol\":8401:8441  SafeERC20FailedOperation(address(token)) */\n      mload(0x40)\n      0x5274afe700000000000000000000000000000000000000000000000000000000\n      dup2\n      mstore\n      0x04\n      add\n      tag_477\n      swap2\n      swap1\n      tag_422\n      jump\t// in\n    tag_477:\n      mload(0x40)\n      dup1\n      swap2\n      sub\n      swap1\n      revert\n        /* \"lib/openzeppelin-contracts/contracts/token/ERC20/utils/SafeERC20.sol\":8306:8452  if (returnSize == 0 ? address(token).code.length == 0 : returnValue != 1) {... */\n    tag_476:\n        /* \"lib/openzeppelin-contracts/contracts/token/ERC20/utils/SafeERC20.sol\":7808:8458  {... */\n      pop\n      pop\n        /* \"lib/openzeppelin-contracts/contracts/token/ERC20/utils/SafeERC20.sol\":7738:8458  function _callOptionalReturn(IERC20 token, bytes memory data) private {... */\n      pop\n      pop\n      jump\t// out\n        /* \"#utility.yul\":88:205   */\n    tag_479:\n        /* \"#utility.yul\":197:198   */\n      0x00\n        /* \"#utility.yul\":194:195   */\n      dup1\n        /* \"#utility.yul\":187:199   */\n      revert\n        /* \"#utility.yul\":334:483   */\n    tag_481:\n        /* \"#utility.yul\":370:377   */\n      0x00\n        /* \"#utility.yul\":410:476   */\n      0xffffffff00000000000000000000000000000000000000000000000000000000\n        /* \"#utility.yul\":403:408   */\n      dup3\n        /* \"#utility.yul\":399:477   */\n      and\n        /* \"#utility.yul\":388:477   */\n      swap1\n      pop\n        /* \"#utility.yul\":334:483   */\n      swap2\n      swap1\n      pop\n      jump\t// out\n        /* \"#utility.yul\":489:609   */\n    tag_482:\n        /* \"#utility.yul\":561:584   */\n      tag_543\n        /* \"#utility.yul\":578:583   */\n      dup2\n        /* \"#utility.yul\":561:584   */\n      tag_481\n      jump\t// in\n    tag_543:\n        /* \"#utility.yul\":554:559   */\n      dup2\n        /* \"#utility.yul\":551:585   */\n      eq\n        /* \"#utility.yul\":541:603   */\n      tag_544\n      jumpi\n        /* \"#utility.yul\":599:600   */\n      0x00\n        /* \"#utility.yul\":596:597   */\n      dup1\n        /* \"#utility.yul\":589:601   */\n      revert\n        /* \"#utility.yul\":541:603   */\n    tag_544:\n        /* \"#utility.yul\":489:609   */\n      pop\n      jump\t// out\n        /* \"#utility.yul\":615:752   */\n    tag_483:\n        /* \"#utility.yul\":660:665   */\n      0x00\n        /* \"#utility.yul\":698:704   */\n      dup2\n        /* \"#utility.yul\":685:705   */\n      calldataload\n        /* \"#utility.yul\":676:705   */\n      swap1\n      pop\n        /* \"#utility.yul\":714:746   */\n      tag_546\n        /* \"#utility.yul\":740:745   */\n      dup2\n        /* \"#utility.yul\":714:746   */\n      tag_482\n      jump\t// in\n    tag_546:\n        /* \"#utility.yul\":615:752   */\n      swap3\n      swap2\n      pop\n      pop\n      jump\t// out\n        /* \"#utility.yul\":758:1085   */\n    tag_54:\n        /* \"#utility.yul\":816:822   */\n      0x00\n        /* \"#utility.yul\":865:867   */\n      0x20\n        /* \"#utility.yul\":853:862   */\n      dup3\n        /* \"#utility.yul\":844:851   */\n      dup5\n        /* \"#utility.yul\":840:863   */\n      sub\n        /* \"#utility.yul\":836:868   */\n      slt\n        /* \"#utility.yul\":833:952   */\n      iszero\n      tag_548\n      jumpi\n        /* \"#utility.yul\":871:950   */\n      tag_549\n      tag_479\n      jump\t// in\n    tag_549:\n        /* \"#utility.yul\":833:952   */\n    tag_548:\n        /* \"#utility.yul\":991:992   */\n      0x00\n        /* \"#utility.yul\":1016:1068   */\n      tag_550\n        /* \"#utility.yul\":1060:1067   */\n      dup5\n        /* \"#utility.yul\":1051:1057   */\n      dup3\n        /* \"#utility.yul\":1040:1049   */\n      dup6\n        /* \"#utility.yul\":1036:1058   */\n      add\n        /* \"#utility.yul\":1016:1068   */\n      tag_483\n      jump\t// in\n    tag_550:\n        /* \"#utility.yul\":1006:1068   */\n      swap2\n      pop\n        /* \"#utility.yul\":962:1078   */\n      pop\n        /* \"#utility.yul\":758:1085   */\n      swap3\n      swap2\n      pop\n      pop\n      jump\t// out\n        /* \"#utility.yul\":1091:1181   */\n    tag_484:\n        /* \"#utility.yul\":1125:1132   */\n      0x00\n        /* \"#utility.yul\":1168:1173   */\n      dup2\n        /* \"#utility.yul\":1161:1174   */\n      iszero\n        /* \"#utility.yul\":1154:1175   */\n      iszero\n        /* \"#utility.yul\":1143:1175   */\n      swap1\n      pop\n        /* \"#utility.yul\":1091:1181   */\n      swap2\n      swap1\n      pop\n      jump\t// out\n        /* \"#utility.yul\":1187:1296   */\n    tag_485:\n        /* \"#utility.yul\":1268:1289   */\n      tag_553\n        /* \"#utility.yul\":1283:1288   */\n      dup2\n        /* \"#utility.yul\":1268:1289   */\n      tag_484\n      jump\t// in\n    tag_553:\n        /* \"#utility.yul\":1263:1266   */\n      dup3\n        /* \"#utility.yul\":1256:1290   */\n      mstore\n        /* \"#utility.yul\":1187:1296   */\n      pop\n      pop\n      jump\t// out\n        /* \"#utility.yul\":1302:1512   */\n    tag_57:\n        /* \"#utility.yul\":1389:1393   */\n      0x00\n        /* \"#utility.yul\":1427:1429   */\n      0x20\n        /* \"#utility.yul\":1416:1425   */\n      dup3\n        /* \"#utility.yul\":1412:1430   */\n      add\n        /* \"#utility.yul\":1404:1430   */\n      swap1\n      pop\n        /* \"#utility.yul\":1440:1505   */\n      tag_555\n        /* \"#utility.yul\":1502:1503   */\n      0x00\n        /* \"#utility.yul\":1491:1500   */\n      dup4\n        /* \"#utility.yul\":1487:1504   */\n      add\n        /* \"#utility.yul\":1478:1484   */\n      dup5\n        /* \"#utility.yul\":1440:1505   */\n      tag_485\n      jump\t// in\n    tag_555:\n        /* \"#utility.yul\":1302:1512   */\n      swap3\n      swap2\n      pop\n      pop\n      jump\t// out\n        /* \"#utility.yul\":1518:1595   */\n    tag_486:\n        /* \"#utility.yul\":1555:1562   */\n      0x00\n        /* \"#utility.yul\":1584:1589   */\n      dup2\n        /* \"#utility.yul\":1573:1589   */\n      swap1\n      pop\n        /* \"#utility.yul\":1518:1595   */\n      swap2\n      swap1\n      pop\n      jump\t// out\n        /* \"#utility.yul\":1601:1719   */\n    tag_487:\n        /* \"#utility.yul\":1688:1712   */\n      tag_558\n        /* \"#utility.yul\":1706:1711   */\n      dup2\n        /* \"#utility.yul\":1688:1712   */\n      tag_486\n      jump\t// in\n    tag_558:\n        /* \"#utility.yul\":1683:1686   */\n      dup3\n        /* \"#utility.yul\":1676:1713   */\n      mstore\n        /* \"#utility.yul\":1601:1719   */\n      pop\n      pop\n      jump\t// out\n        /* \"#utility.yul\":1725:1947   */\n    tag_61:\n        /* \"#utility.yul\":1818:1822   */\n      0x00\n        /* \"#utility.yul\":1856:1858   */\n      0x20\n        /* \"#utility.yul\":1845:1854   */\n      dup3\n        /* \"#utility.yul\":1841:1859   */\n      add\n        /* \"#utility.yul\":1833:1859   */\n      swap1\n      pop\n        /* \"#utility.yul\":1869:1940   */\n      tag_560\n        /* \"#utility.yul\":1937:1938   */\n      0x00\n        /* \"#utility.yul\":1926:1935   */\n      dup4\n        /* \"#utility.yul\":1922:1939   */\n      add\n        /* \"#utility.yul\":1913:1919   */\n      dup5\n        /* \"#utility.yul\":1869:1940   */\n      tag_487\n      jump\t// in\n    tag_560:\n        /* \"#utility.yul\":1725:1947   */\n      swap3\n      swap2\n      pop\n      pop\n      jump\t// out\n        /* \"#utility.yul\":1953:2052   */\n    tag_488:\n        /* \"#utility.yul\":2005:2011   */\n      0x00\n        /* \"#utility.yul\":2039:2044   */\n      dup2\n        /* \"#utility.yul\":2033:2045   */\n      mload\n        /* \"#utility.yul\":2023:2045   */\n      swap1\n      pop\n        /* \"#utility.yul\":1953:2052   */\n      swap2\n      swap1\n      pop\n      jump\t// out\n        /* \"#utility.yul\":2058:2227   */\n    tag_489:\n        /* \"#utility.yul\":2142:2153   */\n      0x00\n        /* \"#utility.yul\":2176:2182   */\n      dup3\n        /* \"#utility.yul\":2171:2174   */\n      dup3\n        /* \"#utility.yul\":2164:2183   */\n      mstore\n        /* \"#utility.yul\":2216:2220   */\n      0x20\n        /* \"#utility.yul\":2211:2214   */\n      dup3\n        /* \"#utility.yul\":2207:2221   */\n      add\n        /* \"#utility.yul\":2192:2221   */\n      swap1\n      pop\n        /* \"#utility.yul\":2058:2227   */\n      swap3\n      swap2\n      pop\n      pop\n      jump\t// out\n        /* \"#utility.yul\":2233:2372   */\n    tag_490:\n        /* \"#utility.yul\":2322:2328   */\n      dup3\n        /* \"#utility.yul\":2317:2320   */\n      dup2\n        /* \"#utility.yul\":2312:2315   */\n      dup4\n        /* \"#utility.yul\":2306:2329   */\n      mcopy\n        /* \"#utility.yul\":2363:2364   */\n      0x00\n        /* \"#utility.yul\":2354:2360   */\n      dup4\n        /* \"#utility.yul\":2349:2352   */\n      dup4\n        /* \"#utility.yul\":2345:2361   */\n      add\n        /* \"#utility.yul\":2338:2365   */\n      mstore\n        /* \"#utility.yul\":2233:2372   */\n      pop\n      pop\n      pop\n      jump\t// out\n        /* \"#utility.yul\":2378:2480   */\n    tag_491:\n        /* \"#utility.yul\":2419:2425   */\n      0x00\n        /* \"#utility.yul\":2470:2472   */\n      0x1f\n        /* \"#utility.yul\":2466:2473   */\n      not\n        /* \"#utility.yul\":2461:2463   */\n      0x1f\n        /* \"#utility.yul\":2454:2459   */\n      dup4\n        /* \"#utility.yul\":2450:2464   */\n      add\n        /* \"#utility.yul\":2446:2474   */\n      and\n        /* \"#utility.yul\":2436:2474   */\n      swap1\n      pop\n        /* \"#utility.yul\":2378:2480   */\n      swap2\n      swap1\n      pop\n      jump\t// out\n        /* \"#utility.yul\":2486:2863   */\n    tag_492:\n        /* \"#utility.yul\":2574:2577   */\n      0x00\n        /* \"#utility.yul\":2602:2641   */\n      tag_566\n        /* \"#utility.yul\":2635:2640   */\n      dup3\n        /* \"#utility.yul\":2602:2641   */\n      tag_488\n      jump\t// in\n    tag_566:\n        /* \"#utility.yul\":2657:2728   */\n      tag_567\n        /* \"#utility.yul\":2721:2727   */\n      dup2\n        /* \"#utility.yul\":2716:2719   */\n      dup6\n        /* \"#utility.yul\":2657:2728   */\n      tag_489\n      jump\t// in\n    tag_567:\n        /* \"#utility.yul\":2650:2728   */\n      swap4\n      pop\n        /* \"#utility.yul\":2737:2802   */\n      tag_568\n        /* \"#utility.yul\":2795:2801   */\n      dup2\n        /* \"#utility.yul\":2790:2793   */\n      dup6\n        /* \"#utility.yul\":2783:2787   */\n      0x20\n        /* \"#utility.yul\":2776:2781   */\n      dup7\n        /* \"#utility.yul\":2772:2788   */\n      add\n        /* \"#utility.yul\":2737:2802   */\n      tag_490\n      jump\t// in\n    tag_568:\n        /* \"#utility.yul\":2827:2856   */\n      tag_569\n        /* \"#utility.yul\":2849:2855   */\n      dup2\n        /* \"#utility.yul\":2827:2856   */\n      tag_491\n      jump\t// in\n    tag_569:\n        /* \"#utility.yul\":2822:2825   */\n      dup5\n        /* \"#utility.yul\":2818:2857   */\n      add\n        /* \"#utility.yul\":2811:2857   */\n      swap2\n      pop\n        /* \"#utility.yul\":2578:2863   */\n      pop\n        /* \"#utility.yul\":2486:2863   */\n      swap3\n      swap2\n      pop\n      pop\n      jump\t// out\n        /* \"#utility.yul\":2869:3182   */\n    tag_65:\n        /* \"#utility.yul\":2982:2986   */\n      0x00\n        /* \"#utility.yul\":3020:3022   */\n      0x20\n        /* \"#utility.yul\":3009:3018   */\n      dup3\n        /* \"#utility.yul\":3005:3023   */\n      add\n        /* \"#utility.yul\":2997:3023   */\n      swap1\n      pop\n        /* \"#utility.yul\":3069:3078   */\n      dup2\n        /* \"#utility.yul\":3063:3067   */\n      dup2\n        /* \"#utility.yul\":3059:3079   */\n      sub\n        /* \"#utility.yul\":3055:3056   */\n      0x00\n        /* \"#utility.yul\":3044:3053   */\n      dup4\n        /* \"#utility.yul\":3040:3057   */\n      add\n        /* \"#utility.yul\":3033:3080   */\n      mstore\n        /* \"#utility.yul\":3097:3175   */\n      tag_571\n        /* \"#utility.yul\":3170:3174   */\n      dup2\n        /* \"#utility.yul\":3161:3167   */\n      dup5\n        /* \"#utility.yul\":3097:3175   */\n      tag_492\n      jump\t// in\n    tag_571:\n        /* \"#utility.yul\":3089:3175   */\n      swap1\n      pop\n        /* \"#utility.yul\":2869:3182   */\n      swap3\n      swap2\n      pop\n      pop\n      jump\t// out\n        /* \"#utility.yul\":3188:3314   */\n    tag_493:\n        /* \"#utility.yul\":3225:3232   */\n      0x00\n        /* \"#utility.yul\":3265:3307   */\n      0xffffffffffffffffffffffffffffffffffffffff\n        /* \"#utility.yul\":3258:3263   */\n      dup3\n        /* \"#utility.yul\":3254:3308   */\n      and\n        /* \"#utility.yul\":3243:3308   */\n      swap1\n      pop\n        /* \"#utility.yul\":3188:3314   */\n      swap2\n      swap1\n      pop\n      jump\t// out\n        /* \"#utility.yul\":3320:3416   */\n    tag_494:\n        /* \"#utility.yul\":3357:3364   */\n      0x00\n        /* \"#utility.yul\":3386:3410   */\n      tag_574\n        /* \"#utility.yul\":3404:3409   */\n      dup3\n        /* \"#utility.yul\":3386:3410   */\n      tag_493\n      jump\t// in\n    tag_574:\n        /* \"#utility.yul\":3375:3410   */\n      swap1\n      pop\n        /* \"#utility.yul\":3320:3416   */\n      swap2\n      swap1\n      pop\n      jump\t// out\n        /* \"#utility.yul\":3422:3544   */\n    tag_495:\n        /* \"#utility.yul\":3495:3519   */\n      tag_576\n        /* \"#utility.yul\":3513:3518   */\n      dup2\n        /* \"#utility.yul\":3495:3519   */\n      tag_494\n      jump\t// in\n    tag_576:\n        /* \"#utility.yul\":3488:3493   */\n      dup2\n        /* \"#utility.yul\":3485:3520   */\n      eq\n        /* \"#utility.yul\":3475:3538   */\n      tag_577\n      jumpi\n        /* \"#utility.yul\":3534:3535   */\n      0x00\n        /* \"#utility.yul\":3531:3532   */\n      dup1\n        /* \"#utility.yul\":3524:3536   */\n      revert\n        /* \"#utility.yul\":3475:3538   */\n    tag_577:\n        /* \"#utility.yul\":3422:3544   */\n      pop\n      jump\t// out\n        /* \"#utility.yul\":3550:3689   */\n    tag_496:\n        /* \"#utility.yul\":3596:3601   */\n      0x00\n        /* \"#utility.yul\":3634:3640   */\n      dup2\n        /* \"#utility.yul\":3621:3641   */\n      calldataload\n        /* \"#utility.yul\":3612:3641   */\n      swap1\n      pop\n        /* \"#utility.yul\":3650:3683   */\n      tag_579\n        /* \"#utility.yul\":3677:3682   */\n      dup2\n        /* \"#utility.yul\":3650:3683   */\n      tag_495\n      jump\t// in\n    tag_579:\n        /* \"#utility.yul\":3550:3689   */\n      swap3\n      swap2\n      pop\n      pop\n      jump\t// out\n        /* \"#utility.yul\":3695:3817   */\n    tag_497:\n        /* \"#utility.yul\":3768:3792   */\n      tag_581\n        /* \"#utility.yul\":3786:3791   */\n      dup2\n        /* \"#utility.yul\":3768:3792   */\n      tag_486\n      jump\t// in\n    tag_581:\n        /* \"#utility.yul\":3761:3766   */\n      dup2\n        /* \"#utility.yul\":3758:3793   */\n      eq\n        /* \"#utility.yul\":3748:3811   */\n      tag_582\n      jumpi\n        /* \"#utility.yul\":3807:3808   */\n      0x00\n        /* \"#utility.yul\":3804:3805   */\n      dup1\n        /* \"#utility.yul\":3797:3809   */\n      revert\n        /* \"#utility.yul\":3748:3811   */\n    tag_582:\n        /* \"#utility.yul\":3695:3817   */\n      pop\n      jump\t// out\n        /* \"#utility.yul\":3823:3962   */\n    tag_498:\n        /* \"#utility.yul\":3869:3874   */\n      0x00\n        /* \"#utility.yul\":3907:3913   */\n      dup2\n        /* \"#utility.yul\":3894:3914   */\n      calldataload\n        /* \"#utility.yul\":3885:3914   */\n      swap1\n      pop\n        /* \"#utility.yul\":3923:3956   */\n      tag_584\n        /* \"#utility.yul\":3950:3955   */\n      dup2\n        /* \"#utility.yul\":3923:3956   */\n      tag_497\n      jump\t// in\n    tag_584:\n        /* \"#utility.yul\":3823:3962   */\n      swap3\n      swap2\n      pop\n      pop\n      jump\t// out\n        /* \"#utility.yul\":3968:4442   */\n    tag_68:\n        /* \"#utility.yul\":4036:4042   */\n      0x00\n        /* \"#utility.yul\":4044:4050   */\n      dup1\n        /* \"#utility.yul\":4093:4095   */\n      0x40\n        /* \"#utility.yul\":4081:4090   */\n      dup4\n        /* \"#utility.yul\":4072:4079   */\n      dup6\n        /* \"#utility.yul\":4068:4091   */\n      sub\n        /* \"#utility.yul\":4064:4096   */\n      slt\n        /* \"#utility.yul\":4061:4180   */\n      iszero\n      tag_586\n      jumpi\n        /* \"#utility.yul\":4099:4178   */\n      tag_587\n      tag_479\n      jump\t// in\n    tag_587:\n        /* \"#utility.yul\":4061:4180   */\n    tag_586:\n        /* \"#utility.yul\":4219:4220   */\n      0x00\n        /* \"#utility.yul\":4244:4297   */\n      tag_588\n        /* \"#utility.yul\":4289:4296   */\n      dup6\n        /* \"#utility.yul\":4280:4286   */\n      dup3\n        /* \"#utility.yul\":4269:4278   */\n      dup7\n        /* \"#utility.yul\":4265:4287   */\n      add\n        /* \"#utility.yul\":4244:4297   */\n      tag_496\n      jump\t// in\n    tag_588:\n        /* \"#utility.yul\":4234:4297   */\n      swap3\n      pop\n        /* \"#utility.yul\":4190:4307   */\n      pop\n        /* \"#utility.yul\":4346:4348   */\n      0x20\n        /* \"#utility.yul\":4372:4425   */\n      tag_589\n        /* \"#utility.yul\":4417:4424   */\n      dup6\n        /* \"#utility.yul\":4408:4414   */\n      dup3\n        /* \"#utility.yul\":4397:4406   */\n      dup7\n        /* \"#utility.yul\":4393:4415   */\n      add\n        /* \"#utility.yul\":4372:4425   */\n      tag_498\n      jump\t// in\n    tag_589:\n        /* \"#utility.yul\":4362:4425   */\n      swap2\n      pop\n        /* \"#utility.yul\":4317:4435   */\n      pop\n        /* \"#utility.yul\":3968:4442   */\n      swap3\n      pop\n      swap3\n      swap1\n      pop\n      jump\t// out\n        /* \"#utility.yul\":4448:4564   */\n    tag_499:\n        /* \"#utility.yul\":4518:4539   */\n      tag_591\n        /* \"#utility.yul\":4533:4538   */\n      dup2\n        /* \"#utility.yul\":4518:4539   */\n      tag_484\n      jump\t// in\n    tag_591:\n        /* \"#utility.yul\":4511:4516   */\n      dup2\n        /* \"#utility.yul\":4508:4540   */\n      eq\n        /* \"#utility.yul\":4498:4558   */\n      tag_592\n      jumpi\n        /* \"#utility.yul\":4554:4555   */\n      0x00\n        /* \"#utility.yul\":4551:4552   */\n      dup1\n        /* \"#utility.yul\":4544:4556   */\n      revert\n        /* \"#utility.yul\":4498:4558   */\n    tag_592:\n        /* \"#utility.yul\":4448:4564   */\n      pop\n      jump\t// out\n        /* \"#utility.yul\":4570:4703   */\n    tag_500:\n        /* \"#utility.yul\":4613:4618   */\n      0x00\n        /* \"#utility.yul\":4651:4657   */\n      dup2\n        /* \"#utility.yul\":4638:4658   */\n      calldataload\n        /* \"#utility.yul\":4629:4658   */\n      swap1\n      pop\n        /* \"#utility.yul\":4667:4697   */\n      tag_594\n        /* \"#utility.yul\":4691:4696   */\n      dup2\n        /* \"#utility.yul\":4667:4697   */\n      tag_499\n      jump\t// in\n    tag_594:\n        /* \"#utility.yul\":4570:4703   */\n      swap3\n      swap2\n      pop\n      pop\n      jump\t// out\n        /* \"#utility.yul\":4709:5032   */\n    tag_73:\n        /* \"#utility.yul\":4765:4771   */\n      0x00\n        /* \"#utility.yul\":4814:4816   */\n      0x20\n        /* \"#utility.yul\":4802:4811   */\n      dup3\n        /* \"#utility.yul\":4793:4800   */\n      dup5\n        /* \"#utility.yul\":4789:4812   */\n      sub\n        /* \"#utility.yul\":4785:4817   */\n      slt\n        /* \"#utility.yul\":4782:4901   */\n      iszero\n      tag_596\n      jumpi\n        /* \"#utility.yul\":4820:4899   */\n      tag_597\n      tag_479\n      jump\t// in\n    tag_597:\n        /* \"#utility.yul\":4782:4901   */\n    tag_596:\n        /* \"#utility.yul\":4940:4941   */\n      0x00\n        /* \"#utility.yul\":4965:5015   */\n      tag_598\n        /* \"#utility.yul\":5007:5014   */\n      dup5\n        /* \"#utility.yul\":4998:5004   */\n      dup3\n        /* \"#utility.yul\":4987:4996   */\n      dup6\n        /* \"#utility.yul\":4983:5005   */\n      add\n        /* \"#utility.yul\":4965:5015   */\n      tag_500\n      jump\t// in\n    tag_598:\n        /* \"#utility.yul\":4955:5015   */\n      swap2\n      pop\n        /* \"#utility.yul\":4911:5025   */\n      pop\n        /* \"#utility.yul\":4709:5032   */\n      swap3\n      swap2\n      pop\n      pop\n      jump\t// out\n        /* \"#utility.yul\":5038:5657   */\n    tag_80:\n        /* \"#utility.yul\":5115:5121   */\n      0x00\n        /* \"#utility.yul\":5123:5129   */\n      dup1\n        /* \"#utility.yul\":5131:5137   */\n      0x00\n        /* \"#utility.yul\":5180:5182   */\n      0x60\n        /* \"#utility.yul\":5168:5177   */\n      dup5\n        /* \"#utility.yul\":5159:5166   */\n      dup7\n        /* \"#utility.yul\":5155:5178   */\n      sub\n        /* \"#utility.yul\":5151:5183   */\n      slt\n        /* \"#utility.yul\":5148:5267   */\n      iszero\n      tag_600\n      jumpi\n        /* \"#utility.yul\":5186:5265   */\n      tag_601\n      tag_479\n      jump\t// in\n    tag_601:\n        /* \"#utility.yul\":5148:5267   */\n    tag_600:\n        /* \"#utility.yul\":5306:5307   */\n      0x00\n        /* \"#utility.yul\":5331:5384   */\n      tag_602\n        /* \"#utility.yul\":5376:5383   */\n      dup7\n        /* \"#utility.yul\":5367:5373   */\n      dup3\n        /* \"#utility.yul\":5356:5365   */\n      dup8\n        /* \"#utility.yul\":5352:5374   */\n      add\n        /* \"#utility.yul\":5331:5384   */\n      tag_496\n      jump\t// in\n    tag_602:\n        /* \"#utility.yul\":5321:5384   */\n      swap4\n      pop\n        /* \"#utility.yul\":5277:5394   */\n      pop\n        /* \"#utility.yul\":5433:5435   */\n      0x20\n        /* \"#utility.yul\":5459:5512   */\n      tag_603\n        /* \"#utility.yul\":5504:5511   */\n      dup7\n        /* \"#utility.yul\":5495:5501   */\n      dup3\n        /* \"#utility.yul\":5484:5493   */\n      dup8\n        /* \"#utility.yul\":5480:5502   */\n      add\n        /* \"#utility.yul\":5459:5512   */\n      tag_496\n      jump\t// in\n    tag_603:\n        /* \"#utility.yul\":5449:5512   */\n      swap3\n      pop\n        /* \"#utility.yul\":5404:5522   */\n      pop\n        /* \"#utility.yul\":5561:5563   */\n      0x40\n        /* \"#utility.yul\":5587:5640   */\n      tag_604\n        /* \"#utility.yul\":5632:5639   */\n      dup7\n        /* \"#utility.yul\":5623:5629   */\n      dup3\n        /* \"#utility.yul\":5612:5621   */\n      dup8\n        /* \"#utility.yul\":5608:5630   */\n      add\n        /* \"#utility.yul\":5587:5640   */\n      tag_498\n      jump\t// in\n    tag_604:\n        /* \"#utility.yul\":5577:5640   */\n      swap2\n      pop\n        /* \"#utility.yul\":5532:5650   */\n      pop\n        /* \"#utility.yul\":5038:5657   */\n      swap3\n      pop\n      swap3\n      pop\n      swap3\n      jump\t// out\n        /* \"#utility.yul\":5663:5740   */\n    tag_501:\n        /* \"#utility.yul\":5700:5707   */\n      0x00\n        /* \"#utility.yul\":5729:5734   */\n      dup2\n        /* \"#utility.yul\":5718:5734   */\n      swap1\n      pop\n        /* \"#utility.yul\":5663:5740   */\n      swap2\n      swap1\n      pop\n      jump\t// out\n        /* \"#utility.yul\":5746:5868   */\n    tag_502:\n        /* \"#utility.yul\":5819:5843   */\n      tag_607\n        /* \"#utility.yul\":5837:5842   */\n      dup2\n        /* \"#utility.yul\":5819:5843   */\n      tag_501\n      jump\t// in\n    tag_607:\n        /* \"#utility.yul\":5812:5817   */\n      dup2\n        /* \"#utility.yul\":5809:5844   */\n      eq\n        /* \"#utility.yul\":5799:5862   */\n      tag_608\n      jumpi\n        /* \"#utility.yul\":5858:5859   */\n      0x00\n        /* \"#utility.yul\":5855:5856   */\n      dup1\n        /* \"#utility.yul\":5848:5860   */\n      revert\n        /* \"#utility.yul\":5799:5862   */\n    tag_608:\n        /* \"#utility.yul\":5746:5868   */\n      pop\n      jump\t// out\n        /* \"#utility.yul\":5874:6013   */\n    tag_503:\n        /* \"#utility.yul\":5920:5925   */\n      0x00\n        /* \"#utility.yul\":5958:5964   */\n      dup2\n        /* \"#utility.yul\":5945:5965   */\n      calldataload\n        /* \"#utility.yul\":5936:5965   */\n      swap1\n      pop\n        /* \"#utility.yul\":5974:6007   */\n      tag_610\n        /* \"#utility.yul\":6001:6006   */\n      dup2\n        /* \"#utility.yul\":5974:6007   */\n      tag_502\n      jump\t// in\n    tag_610:\n        /* \"#utility.yul\":5874:6013   */\n      swap3\n      swap2\n      pop\n      pop\n      jump\t// out\n        /* \"#utility.yul\":6019:6348   */\n    tag_85:\n        /* \"#utility.yul\":6078:6084   */\n      0x00\n        /* \"#utility.yul\":6127:6129   */\n      0x20\n        /* \"#utility.yul\":6115:6124   */\n      dup3\n        /* \"#utility.yul\":6106:6113   */\n      dup5\n        /* \"#utility.yul\":6102:6125   */\n      sub\n        /* \"#utility.yul\":6098:6130   */\n      slt\n        /* \"#utility.yul\":6095:6214   */\n      iszero\n      tag_612\n      jumpi\n        /* \"#utility.yul\":6133:6212   */\n      tag_613\n      tag_479\n      jump\t// in\n    tag_613:\n        /* \"#utility.yul\":6095:6214   */\n    tag_612:\n        /* \"#utility.yul\":6253:6254   */\n      0x00\n        /* \"#utility.yul\":6278:6331   */\n      tag_614\n        /* \"#utility.yul\":6323:6330   */\n      dup5\n        /* \"#utility.yul\":6314:6320   */\n      dup3\n        /* \"#utility.yul\":6303:6312   */\n      dup6\n        /* \"#utility.yul\":6299:6321   */\n      add\n        /* \"#utility.yul\":6278:6331   */\n      tag_503\n      jump\t// in\n    tag_614:\n        /* \"#utility.yul\":6268:6331   */\n      swap2\n      pop\n        /* \"#utility.yul\":6224:6341   */\n      pop\n        /* \"#utility.yul\":6019:6348   */\n      swap3\n      swap2\n      pop\n      pop\n      jump\t// out\n        /* \"#utility.yul\":6354:6472   */\n    tag_504:\n        /* \"#utility.yul\":6441:6465   */\n      tag_616\n        /* \"#utility.yul\":6459:6464   */\n      dup2\n        /* \"#utility.yul\":6441:6465   */\n      tag_501\n      jump\t// in\n    tag_616:\n        /* \"#utility.yul\":6436:6439   */\n      dup3\n        /* \"#utility.yul\":6429:6466   */\n      mstore\n        /* \"#utility.yul\":6354:6472   */\n      pop\n      pop\n      jump\t// out\n        /* \"#utility.yul\":6478:6700   */\n    tag_88:\n        /* \"#utility.yul\":6571:6575   */\n      0x00\n        /* \"#utility.yul\":6609:6611   */\n      0x20\n        /* \"#utility.yul\":6598:6607   */\n      dup3\n        /* \"#utility.yul\":6594:6612   */\n      add\n        /* \"#utility.yul\":6586:6612   */\n      swap1\n      pop\n        /* \"#utility.yul\":6622:6693   */\n      tag_618\n        /* \"#utility.yul\":6690:6691   */\n      0x00\n        /* \"#utility.yul\":6679:6688   */\n      dup4\n        /* \"#utility.yul\":6675:6692   */\n      add\n        /* \"#utility.yul\":6666:6672   */\n      dup5\n        /* \"#utility.yul\":6622:6693   */\n      tag_504\n      jump\t// in\n    tag_618:\n        /* \"#utility.yul\":6478:6700   */\n      swap3\n      swap2\n      pop\n      pop\n      jump\t// out\n        /* \"#utility.yul\":6706:7180   */\n    tag_91:\n        /* \"#utility.yul\":6774:6780   */\n      0x00\n        /* \"#utility.yul\":6782:6788   */\n      dup1\n        /* \"#utility.yul\":6831:6833   */\n      0x40\n        /* \"#utility.yul\":6819:6828   */\n      dup4\n        /* \"#utility.yul\":6810:6817   */\n      dup6\n        /* \"#utility.yul\":6806:6829   */\n      sub\n        /* \"#utility.yul\":6802:6834   */\n      slt\n        /* \"#utility.yul\":6799:6918   */\n      iszero\n      tag_620\n      jumpi\n        /* \"#utility.yul\":6837:6916   */\n      tag_621\n      tag_479\n      jump\t// in\n    tag_621:\n        /* \"#utility.yul\":6799:6918   */\n    tag_620:\n        /* \"#utility.yul\":6957:6958   */\n      0x00\n        /* \"#utility.yul\":6982:7035   */\n      tag_622\n        /* \"#utility.yul\":7027:7034   */\n      dup6\n        /* \"#utility.yul\":7018:7024   */\n      dup3\n        /* \"#utility.yul\":7007:7016   */\n      dup7\n        /* \"#utility.yul\":7003:7025   */\n      add\n        /* \"#utility.yul\":6982:7035   */\n      tag_503\n      jump\t// in\n    tag_622:\n        /* \"#utility.yul\":6972:7035   */\n      swap3\n      pop\n        /* \"#utility.yul\":6928:7045   */\n      pop\n        /* \"#utility.yul\":7084:7086   */\n      0x20\n        /* \"#utility.yul\":7110:7163   */\n      tag_623\n        /* \"#utility.yul\":7155:7162   */\n      dup6\n        /* \"#utility.yul\":7146:7152   */\n      dup3\n        /* \"#utility.yul\":7135:7144   */\n      dup7\n        /* \"#utility.yul\":7131:7153   */\n      add\n        /* \"#utility.yul\":7110:7163   */\n      tag_496\n      jump\t// in\n    tag_623:\n        /* \"#utility.yul\":7100:7163   */\n      swap2\n      pop\n        /* \"#utility.yul\":7055:7173   */\n      pop\n        /* \"#utility.yul\":6706:7180   */\n      swap3\n      pop\n      swap3\n      swap1\n      pop\n      jump\t// out\n        /* \"#utility.yul\":7186:7272   */\n    tag_505:\n        /* \"#utility.yul\":7221:7228   */\n      0x00\n        /* \"#utility.yul\":7261:7265   */\n      0xff\n        /* \"#utility.yul\":7254:7259   */\n      dup3\n        /* \"#utility.yul\":7250:7266   */\n      and\n        /* \"#utility.yul\":7239:7266   */\n      swap1\n      pop\n        /* \"#utility.yul\":7186:7272   */\n      swap2\n      swap1\n      pop\n      jump\t// out\n        /* \"#utility.yul\":7278:7390   */\n    tag_506:\n        /* \"#utility.yul\":7361:7383   */\n      tag_626\n        /* \"#utility.yul\":7377:7382   */\n      dup2\n        /* \"#utility.yul\":7361:7383   */\n      tag_505\n      jump\t// in\n    tag_626:\n        /* \"#utility.yul\":7356:7359   */\n      dup3\n        /* \"#utility.yul\":7349:7384   */\n      mstore\n        /* \"#utility.yul\":7278:7390   */\n      pop\n      pop\n      jump\t// out\n        /* \"#utility.yul\":7396:7610   */\n    tag_96:\n        /* \"#utility.yul\":7485:7489   */\n      0x00\n        /* \"#utility.yul\":7523:7525   */\n      0x20\n        /* \"#utility.yul\":7512:7521   */\n      dup3\n        /* \"#utility.yul\":7508:7526   */\n      add\n        /* \"#utility.yul\":7500:7526   */\n      swap1\n      pop\n        /* \"#utility.yul\":7536:7603   */\n      tag_628\n        /* \"#utility.yul\":7600:7601   */\n      0x00\n        /* \"#utility.yul\":7589:7598   */\n      dup4\n        /* \"#utility.yul\":7585:7602   */\n      add\n        /* \"#utility.yul\":7576:7582   */\n      dup5\n        /* \"#utility.yul\":7536:7603   */\n      tag_506\n      jump\t// in\n    tag_628:\n        /* \"#utility.yul\":7396:7610   */\n      swap3\n      swap2\n      pop\n      pop\n      jump\t// out\n        /* \"#utility.yul\":7616:8084   */\n    tag_102:\n        /* \"#utility.yul\":7681:7687   */\n      0x00\n        /* \"#utility.yul\":7689:7695   */\n      dup1\n        /* \"#utility.yul\":7738:7740   */\n      0x40\n        /* \"#utility.yul\":7726:7735   */\n      dup4\n        /* \"#utility.yul\":7717:7724   */\n      dup6\n        /* \"#utility.yul\":7713:7736   */\n      sub\n        /* \"#utility.yul\":7709:7741   */\n      slt\n        /* \"#utility.yul\":7706:7825   */\n      iszero\n      tag_630\n      jumpi\n        /* \"#utility.yul\":7744:7823   */\n      tag_631\n      tag_479\n      jump\t// in\n    tag_631:\n        /* \"#utility.yul\":7706:7825   */\n    tag_630:\n        /* \"#utility.yul\":7864:7865   */\n      0x00\n        /* \"#utility.yul\":7889:7942   */\n      tag_632\n        /* \"#utility.yul\":7934:7941   */\n      dup6\n        /* \"#utility.yul\":7925:7931   */\n      dup3\n        /* \"#utility.yul\":7914:7923   */\n      dup7\n        /* \"#utility.yul\":7910:7932   */\n      add\n        /* \"#utility.yul\":7889:7942   */\n      tag_496\n      jump\t// in\n    tag_632:\n        /* \"#utility.yul\":7879:7942   */\n      swap3\n      pop\n        /* \"#utility.yul\":7835:7952   */\n      pop\n        /* \"#utility.yul\":7991:7993   */\n      0x20\n        /* \"#utility.yul\":8017:8067   */\n      tag_633\n        /* \"#utility.yul\":8059:8066   */\n      dup6\n        /* \"#utility.yul\":8050:8056   */\n      dup3\n        /* \"#utility.yul\":8039:8048   */\n      dup7\n        /* \"#utility.yul\":8035:8057   */\n      add\n        /* \"#utility.yul\":8017:8067   */\n      tag_500\n      jump\t// in\n    tag_633:\n        /* \"#utility.yul\":8007:8067   */\n      swap2\n      pop\n        /* \"#utility.yul\":7962:8077   */\n      pop\n        /* \"#utility.yul\":7616:8084   */\n      swap3\n      pop\n      swap3\n      swap1\n      pop\n      jump\t// out\n        /* \"#utility.yul\":8090:8201   */\n    tag_507:\n        /* \"#utility.yul\":8142:8149   */\n      0x00\n        /* \"#utility.yul\":8171:8195   */\n      tag_635\n        /* \"#utility.yul\":8189:8194   */\n      dup3\n        /* \"#utility.yul\":8171:8195   */\n      tag_494\n      jump\t// in\n    tag_635:\n        /* \"#utility.yul\":8160:8195   */\n      swap1\n      pop\n        /* \"#utility.yul\":8090:8201   */\n      swap2\n      swap1\n      pop\n      jump\t// out\n        /* \"#utility.yul\":8207:8359   */\n    tag_508:\n        /* \"#utility.yul\":8295:8334   */\n      tag_637\n        /* \"#utility.yul\":8328:8333   */\n      dup2\n        /* \"#utility.yul\":8295:8334   */\n      tag_507\n      jump\t// in\n    tag_637:\n        /* \"#utility.yul\":8288:8293   */\n      dup2\n        /* \"#utility.yul\":8285:8335   */\n      eq\n        /* \"#utility.yul\":8275:8353   */\n      tag_638\n      jumpi\n        /* \"#utility.yul\":8349:8350   */\n      0x00\n        /* \"#utility.yul\":8346:8347   */\n      dup1\n        /* \"#utility.yul\":8339:8351   */\n      revert\n        /* \"#utility.yul\":8275:8353   */\n    tag_638:\n        /* \"#utility.yul\":8207:8359   */\n      pop\n      jump\t// out\n        /* \"#utility.yul\":8365:8534   */\n    tag_509:\n        /* \"#utility.yul\":8426:8431   */\n      0x00\n        /* \"#utility.yul\":8464:8470   */\n      dup2\n        /* \"#utility.yul\":8451:8471   */\n      calldataload\n        /* \"#utility.yul\":8442:8471   */\n      swap1\n      pop\n        /* \"#utility.yul\":8480:8528   */\n      tag_640\n        /* \"#utility.yul\":8522:8527   */\n      dup2\n        /* \"#utility.yul\":8480:8528   */\n      tag_508\n      jump\t// in\n    tag_640:\n        /* \"#utility.yul\":8365:8534   */\n      swap3\n      swap2\n      pop\n      pop\n      jump\t// out\n        /* \"#utility.yul\":8540:9189   */\n    tag_106:\n        /* \"#utility.yul\":8632:8638   */\n      0x00\n        /* \"#utility.yul\":8640:8646   */\n      dup1\n        /* \"#utility.yul\":8648:8654   */\n      0x00\n        /* \"#utility.yul\":8697:8699   */\n      0x60\n        /* \"#utility.yul\":8685:8694   */\n      dup5\n        /* \"#utility.yul\":8676:8683   */\n      dup7\n        /* \"#utility.yul\":8672:8695   */\n      sub\n        /* \"#utility.yul\":8668:8700   */\n      slt\n        /* \"#utility.yul\":8665:8784   */\n      iszero\n      tag_642\n      jumpi\n        /* \"#utility.yul\":8703:8782   */\n      tag_643\n      tag_479\n      jump\t// in\n    tag_643:\n        /* \"#utility.yul\":8665:8784   */\n    tag_642:\n        /* \"#utility.yul\":8823:8824   */\n      0x00\n        /* \"#utility.yul\":8848:8916   */\n      tag_644\n        /* \"#utility.yul\":8908:8915   */\n      dup7\n        /* \"#utility.yul\":8899:8905   */\n      dup3\n        /* \"#utility.yul\":8888:8897   */\n      dup8\n        /* \"#utility.yul\":8884:8906   */\n      add\n        /* \"#utility.yul\":8848:8916   */\n      tag_509\n      jump\t// in\n    tag_644:\n        /* \"#utility.yul\":8838:8916   */\n      swap4\n      pop\n        /* \"#utility.yul\":8794:8926   */\n      pop\n        /* \"#utility.yul\":8965:8967   */\n      0x20\n        /* \"#utility.yul\":8991:9044   */\n      tag_645\n        /* \"#utility.yul\":9036:9043   */\n      dup7\n        /* \"#utility.yul\":9027:9033   */\n      dup3\n        /* \"#utility.yul\":9016:9025   */\n      dup8\n        /* \"#utility.yul\":9012:9034   */\n      add\n        /* \"#utility.yul\":8991:9044   */\n      tag_496\n      jump\t// in\n    tag_645:\n        /* \"#utility.yul\":8981:9044   */\n      swap3\n      pop\n        /* \"#utility.yul\":8936:9054   */\n      pop\n        /* \"#utility.yul\":9093:9095   */\n      0x40\n        /* \"#utility.yul\":9119:9172   */\n      tag_646\n        /* \"#utility.yul\":9164:9171   */\n      dup7\n        /* \"#utility.yul\":9155:9161   */\n      dup3\n        /* \"#utility.yul\":9144:9153   */\n      dup8\n        /* \"#utility.yul\":9140:9162   */\n      add\n        /* \"#utility.yul\":9119:9172   */\n      tag_498\n      jump\t// in\n    tag_646:\n        /* \"#utility.yul\":9109:9172   */\n      swap2\n      pop\n        /* \"#utility.yul\":9064:9182   */\n      pop\n        /* \"#utility.yul\":8540:9189   */\n      swap3\n      pop\n      swap3\n      pop\n      swap3\n      jump\t// out\n        /* \"#utility.yul\":9195:9524   */\n    tag_110:\n        /* \"#utility.yul\":9254:9260   */\n      0x00\n        /* \"#utility.yul\":9303:9305   */\n      0x20\n        /* \"#utility.yul\":9291:9300   */\n      dup3\n        /* \"#utility.yul\":9282:9289   */\n      dup5\n        /* \"#utility.yul\":9278:9301   */\n      sub\n        /* \"#utility.yul\":9274:9306   */\n      slt\n        /* \"#utility.yul\":9271:9390   */\n      iszero\n      tag_648\n      jumpi\n        /* \"#utility.yul\":9309:9388   */\n      tag_649\n      tag_479\n      jump\t// in\n    tag_649:\n        /* \"#utility.yul\":9271:9390   */\n    tag_648:\n        /* \"#utility.yul\":9429:9430   */\n      0x00\n        /* \"#utility.yul\":9454:9507   */\n      tag_650\n        /* \"#utility.yul\":9499:9506   */\n      dup5\n        /* \"#utility.yul\":9490:9496   */\n      dup3\n        /* \"#utility.yul\":9479:9488   */\n      dup6\n        /* \"#utility.yul\":9475:9497   */\n      add\n        /* \"#utility.yul\":9454:9507   */\n      tag_498\n      jump\t// in\n    tag_650:\n        /* \"#utility.yul\":9444:9507   */\n      swap2\n      pop\n        /* \"#utility.yul\":9400:9517   */\n      pop\n        /* \"#utility.yul\":9195:9524   */\n      swap3\n      swap2\n      pop\n      pop\n      jump\t// out\n        /* \"#utility.yul\":9530:9634   */\n    tag_510:\n        /* \"#utility.yul\":9575:9582   */\n      0x00\n        /* \"#utility.yul\":9604:9628   */\n      tag_652\n        /* \"#utility.yul\":9622:9627   */\n      dup3\n        /* \"#utility.yul\":9604:9628   */\n      tag_493\n      jump\t// in\n    tag_652:\n        /* \"#utility.yul\":9593:9628   */\n      swap1\n      pop\n        /* \"#utility.yul\":9530:9634   */\n      swap2\n      swap1\n      pop\n      jump\t// out\n        /* \"#utility.yul\":9640:9778   */\n    tag_511:\n        /* \"#utility.yul\":9721:9753   */\n      tag_654\n        /* \"#utility.yul\":9747:9752   */\n      dup2\n        /* \"#utility.yul\":9721:9753   */\n      tag_510\n      jump\t// in\n    tag_654:\n        /* \"#utility.yul\":9714:9719   */\n      dup2\n        /* \"#utility.yul\":9711:9754   */\n      eq\n        /* \"#utility.yul\":9701:9772   */\n      tag_655\n      jumpi\n        /* \"#utility.yul\":9768:9769   */\n      0x00\n        /* \"#utility.yul\":9765:9766   */\n      dup1\n        /* \"#utility.yul\":9758:9770   */\n      revert\n        /* \"#utility.yul\":9701:9772   */\n    tag_655:\n        /* \"#utility.yul\":9640:9778   */\n      pop\n      jump\t// out\n        /* \"#utility.yul\":9784:9939   */\n    tag_512:\n        /* \"#utility.yul\":9838:9843   */\n      0x00\n        /* \"#utility.yul\":9876:9882   */\n      dup2\n        /* \"#utility.yul\":9863:9883   */\n      calldataload\n        /* \"#utility.yul\":9854:9883   */\n      swap1\n      pop\n        /* \"#utility.yul\":9892:9933   */\n      tag_657\n        /* \"#utility.yul\":9927:9932   */\n      dup2\n        /* \"#utility.yul\":9892:9933   */\n      tag_511\n      jump\t// in\n    tag_657:\n        /* \"#utility.yul\":9784:9939   */\n      swap3\n      swap2\n      pop\n      pop\n      jump\t// out\n        /* \"#utility.yul\":9945:10435   */\n    tag_117:\n        /* \"#utility.yul\":10021:10027   */\n      0x00\n        /* \"#utility.yul\":10029:10035   */\n      dup1\n        /* \"#utility.yul\":10078:10080   */\n      0x40\n        /* \"#utility.yul\":10066:10075   */\n      dup4\n        /* \"#utility.yul\":10057:10064   */\n      dup6\n        /* \"#utility.yul\":10053:10076   */\n      sub\n        /* \"#utility.yul\":10049:10081   */\n      slt\n        /* \"#utility.yul\":10046:10165   */\n      iszero\n      tag_659\n      jumpi\n        /* \"#utility.yul\":10084:10163   */\n      tag_660\n      tag_479\n      jump\t// in\n    tag_660:\n        /* \"#utility.yul\":10046:10165   */\n    tag_659:\n        /* \"#utility.yul\":10204:10205   */\n      0x00\n        /* \"#utility.yul\":10229:10290   */\n      tag_661\n        /* \"#utility.yul\":10282:10289   */\n      dup6\n        /* \"#utility.yul\":10273:10279   */\n      dup3\n        /* \"#utility.yul\":10262:10271   */\n      dup7\n        /* \"#utility.yul\":10258:10280   */\n      add\n        /* \"#utility.yul\":10229:10290   */\n      tag_512\n      jump\t// in\n    tag_661:\n        /* \"#utility.yul\":10219:10290   */\n      swap3\n      pop\n        /* \"#utility.yul\":10175:10300   */\n      pop\n        /* \"#utility.yul\":10339:10341   */\n      0x20\n        /* \"#utility.yul\":10365:10418   */\n      tag_662\n        /* \"#utility.yul\":10410:10417   */\n      dup6\n        /* \"#utility.yul\":10401:10407   */\n      dup3\n        /* \"#utility.yul\":10390:10399   */\n      dup7\n        /* \"#utility.yul\":10386:10408   */\n      add\n        /* \"#utility.yul\":10365:10418   */\n      tag_498\n      jump\t// in\n    tag_662:\n        /* \"#utility.yul\":10355:10418   */\n      swap2\n      pop\n        /* \"#utility.yul\":10310:10428   */\n      pop\n        /* \"#utility.yul\":9945:10435   */\n      swap3\n      pop\n      swap3\n      swap1\n      pop\n      jump\t// out\n        /* \"#utility.yul\":10441:10770   */\n    tag_133:\n        /* \"#utility.yul\":10500:10506   */\n      0x00\n        /* \"#utility.yul\":10549:10551   */\n      0x20\n        /* \"#utility.yul\":10537:10546   */\n      dup3\n        /* \"#utility.yul\":10528:10535   */\n      dup5\n        /* \"#utility.yul\":10524:10547   */\n      sub\n        /* \"#utility.yul\":10520:10552   */\n      slt\n        /* \"#utility.yul\":10517:10636   */\n      iszero\n      tag_664\n      jumpi\n        /* \"#utility.yul\":10555:10634   */\n      tag_665\n      tag_479\n      jump\t// in\n    tag_665:\n        /* \"#utility.yul\":10517:10636   */\n    tag_664:\n        /* \"#utility.yul\":10675:10676   */\n      0x00\n        /* \"#utility.yul\":10700:10753   */\n      tag_666\n        /* \"#utility.yul\":10745:10752   */\n      dup5\n        /* \"#utility.yul\":10736:10742   */\n      dup3\n        /* \"#utility.yul\":10725:10734   */\n      dup6\n        /* \"#utility.yul\":10721:10743   */\n      add\n        /* \"#utility.yul\":10700:10753   */\n      tag_496\n      jump\t// in\n    tag_666:\n        /* \"#utility.yul\":10690:10753   */\n      swap2\n      pop\n        /* \"#utility.yul\":10646:10763   */\n      pop\n        /* \"#utility.yul\":10441:10770   */\n      swap3\n      swap2\n      pop\n      pop\n      jump\t// out\n        /* \"#utility.yul\":10776:11250   */\n    tag_189:\n        /* \"#utility.yul\":10844:10850   */\n      0x00\n        /* \"#utility.yul\":10852:10858   */\n      dup1\n        /* \"#utility.yul\":10901:10903   */\n      0x40\n        /* \"#utility.yul\":10889:10898   */\n      dup4\n        /* \"#utility.yul\":10880:10887   */\n      dup6\n        /* \"#utility.yul\":10876:10899   */\n      sub\n        /* \"#utility.yul\":10872:10904   */\n      slt\n        /* \"#utility.yul\":10869:10988   */\n      iszero\n      tag_668\n      jumpi\n        /* \"#utility.yul\":10907:10986   */\n      tag_669\n      tag_479\n      jump\t// in\n    tag_669:\n        /* \"#utility.yul\":10869:10988   */\n    tag_668:\n        /* \"#utility.yul\":11027:11028   */\n      0x00\n        /* \"#utility.yul\":11052:11105   */\n      tag_670\n        /* \"#utility.yul\":11097:11104   */\n      dup6\n        /* \"#utility.yul\":11088:11094   */\n      dup3\n        /* \"#utility.yul\":11077:11086   */\n      dup7\n        /* \"#utility.yul\":11073:11095   */\n      add\n        /* \"#utility.yul\":11052:11105   */\n      tag_496\n      jump\t// in\n    tag_670:\n        /* \"#utility.yul\":11042:11105   */\n      swap3\n      pop\n        /* \"#utility.yul\":10998:11115   */\n      pop\n        /* \"#utility.yul\":11154:11156   */\n      0x20\n        /* \"#utility.yul\":11180:11233   */\n      tag_671\n        /* \"#utility.yul\":11225:11232   */\n      dup6\n        /* \"#utility.yul\":11216:11222   */\n      dup3\n        /* \"#utility.yul\":11205:11214   */\n      dup7\n        /* \"#utility.yul\":11201:11223   */\n      add\n        /* \"#utility.yul\":11180:11233   */\n      tag_496\n      jump\t// in\n    tag_671:\n        /* \"#utility.yul\":11170:11233   */\n      swap2\n      pop\n        /* \"#utility.yul\":11125:11243   */\n      pop\n        /* \"#utility.yul\":10776:11250   */\n      swap3\n      pop\n      swap3\n      swap1\n      pop\n      jump\t// out\n        /* \"#utility.yul\":11256:11436   */\n    tag_513:\n        /* \"#utility.yul\":11304:11381   */\n      0x4e487b7100000000000000000000000000000000000000000000000000000000\n        /* \"#utility.yul\":11301:11302   */\n      0x00\n        /* \"#utility.yul\":11294:11382   */\n      mstore\n        /* \"#utility.yul\":11401:11405   */\n      0x22\n        /* \"#utility.yul\":11398:11399   */\n      0x04\n        /* \"#utility.yul\":11391:11406   */\n      mstore\n        /* \"#utility.yul\":11425:11429   */\n      0x24\n        /* \"#utility.yul\":11422:11423   */\n      0x00\n        /* \"#utility.yul\":11415:11430   */\n      revert\n        /* \"#utility.yul\":11442:11762   */\n    tag_210:\n        /* \"#utility.yul\":11486:11492   */\n      0x00\n        /* \"#utility.yul\":11523:11524   */\n      0x02\n        /* \"#utility.yul\":11517:11521   */\n      dup3\n        /* \"#utility.yul\":11513:11525   */\n      div\n        /* \"#utility.yul\":11503:11525   */\n      swap1\n      pop\n        /* \"#utility.yul\":11570:11571   */\n      0x01\n        /* \"#utility.yul\":11564:11568   */\n      dup3\n        /* \"#utility.yul\":11560:11572   */\n      and\n        /* \"#utility.yul\":11591:11609   */\n      dup1\n        /* \"#utility.yul\":11581:11662   */\n      tag_674\n      jumpi\n        /* \"#utility.yul\":11647:11651   */\n      0x7f\n        /* \"#utility.yul\":11639:11645   */\n      dup3\n        /* \"#utility.yul\":11635:11652   */\n      and\n        /* \"#utility.yul\":11625:11652   */\n      swap2\n      pop\n        /* \"#utility.yul\":11581:11662   */\n    tag_674:\n        /* \"#utility.yul\":11709:11711   */\n      0x20\n        /* \"#utility.yul\":11701:11707   */\n      dup3\n        /* \"#utility.yul\":11698:11712   */\n      lt\n        /* \"#utility.yul\":11678:11696   */\n      dup2\n        /* \"#utility.yul\":11675:11713   */\n      sub\n        /* \"#utility.yul\":11672:11756   */\n      tag_675\n      jumpi\n        /* \"#utility.yul\":11728:11746   */\n      tag_676\n      tag_513\n      jump\t// in\n    tag_676:\n        /* \"#utility.yul\":11672:11756   */\n    tag_675:\n        /* \"#utility.yul\":11493:11762   */\n      pop\n        /* \"#utility.yul\":11442:11762   */\n      swap2\n      swap1\n      pop\n      jump\t// out\n        /* \"#utility.yul\":11768:11886   */\n    tag_514:\n        /* \"#utility.yul\":11855:11879   */\n      tag_678\n        /* \"#utility.yul\":11873:11878   */\n      dup2\n        /* \"#utility.yul\":11855:11879   */\n      tag_494\n      jump\t// in\n    tag_678:\n        /* \"#utility.yul\":11850:11853   */\n      dup3\n        /* \"#utility.yul\":11843:11880   */\n      mstore\n        /* \"#utility.yul\":11768:11886   */\n      pop\n      pop\n      jump\t// out\n        /* \"#utility.yul\":11892:12224   */\n    tag_227:\n        /* \"#utility.yul\":12013:12017   */\n      0x00\n        /* \"#utility.yul\":12051:12053   */\n      0x40\n        /* \"#utility.yul\":12040:12049   */\n      dup3\n        /* \"#utility.yul\":12036:12054   */\n      add\n        /* \"#utility.yul\":12028:12054   */\n      swap1\n      pop\n        /* \"#utility.yul\":12064:12135   */\n      tag_680\n        /* \"#utility.yul\":12132:12133   */\n      0x00\n        /* \"#utility.yul\":12121:12130   */\n      dup4\n        /* \"#utility.yul\":12117:12134   */\n      add\n        /* \"#utility.yul\":12108:12114   */\n      dup6\n        /* \"#utility.yul\":12064:12135   */\n      tag_487\n      jump\t// in\n    tag_680:\n        /* \"#utility.yul\":12145:12217   */\n      tag_681\n        /* \"#utility.yul\":12213:12215   */\n      0x20\n        /* \"#utility.yul\":12202:12211   */\n      dup4\n        /* \"#utility.yul\":12198:12216   */\n      add\n        /* \"#utility.yul\":12189:12195   */\n      dup5\n        /* \"#utility.yul\":12145:12217   */\n      tag_514\n      jump\t// in\n    tag_681:\n        /* \"#utility.yul\":11892:12224   */\n      swap4\n      swap3\n      pop\n      pop\n      pop\n      jump\t// out\n        /* \"#utility.yul\":12230:12457   */\n    tag_515:\n        /* \"#utility.yul\":12370:12404   */\n      0x45524332303a207472616e7366657220616d6f756e7420657863656564732061\n        /* \"#utility.yul\":12366:12367   */\n      0x00\n        /* \"#utility.yul\":12358:12364   */\n      dup3\n        /* \"#utility.yul\":12354:12368   */\n      add\n        /* \"#utility.yul\":12347:12405   */\n      mstore\n        /* \"#utility.yul\":12439:12449   */\n      0x6c6c6f77616e6365000000000000000000000000000000000000000000000000\n        /* \"#utility.yul\":12434:12436   */\n      0x20\n        /* \"#utility.yul\":12426:12432   */\n      dup3\n        /* \"#utility.yul\":12422:12437   */\n      add\n        /* \"#utility.yul\":12415:12450   */\n      mstore\n        /* \"#utility.yul\":12230:12457   */\n      pop\n      jump\t// out\n        /* \"#utility.yul\":12463:12829   */\n    tag_516:\n        /* \"#utility.yul\":12605:12608   */\n      0x00\n        /* \"#utility.yul\":12626:12693   */\n      tag_684\n        /* \"#utility.yul\":12690:12692   */\n      0x28\n        /* \"#utility.yul\":12685:12688   */\n      dup4\n        /* \"#utility.yul\":12626:12693   */\n      tag_489\n      jump\t// in\n    tag_684:\n        /* \"#utility.yul\":12619:12693   */\n      swap2\n      pop\n        /* \"#utility.yul\":12702:12795   */\n      tag_685\n        /* \"#utility.yul\":12791:12794   */\n      dup3\n        /* \"#utility.yul\":12702:12795   */\n      tag_515\n      jump\t// in\n    tag_685:\n        /* \"#utility.yul\":12820:12822   */\n      0x40\n        /* \"#utility.yul\":12815:12818   */\n      dup3\n        /* \"#utility.yul\":12811:12823   */\n      add\n        /* \"#utility.yul\":12804:12823   */\n      swap1\n      pop\n        /* \"#utility.yul\":12463:12829   */\n      swap2\n      swap1\n      pop\n      jump\t// out\n        /* \"#utility.yul\":12835:13254   */\n    tag_240:\n        /* \"#utility.yul\":13001:13005   */\n      0x00\n        /* \"#utility.yul\":13039:13041   */\n      0x20\n        /* \"#utility.yul\":13028:13037   */\n      dup3\n        /* \"#utility.yul\":13024:13042   */\n      add\n        /* \"#utility.yul\":13016:13042   */\n      swap1\n      pop\n        /* \"#utility.yul\":13088:13097   */\n      dup2\n        /* \"#utility.yul\":13082:13086   */\n      dup2\n        /* \"#utility.yul\":13078:13098   */\n      sub\n        /* \"#utility.yul\":13074:13075   */\n      0x00\n        /* \"#utility.yul\":13063:13072   */\n      dup4\n        /* \"#utility.yul\":13059:13076   */\n      add\n        /* \"#utility.yul\":13052:13099   */\n      mstore\n        /* \"#utility.yul\":13116:13247   */\n      tag_687\n        /* \"#utility.yul\":13242:13246   */\n      dup2\n        /* \"#utility.yul\":13116:13247   */\n      tag_516\n      jump\t// in\n    tag_687:\n        /* \"#utility.yul\":13108:13247   */\n      swap1\n      pop\n        /* \"#utility.yul\":12835:13254   */\n      swap2\n      swap1\n      pop\n      jump\t// out\n        /* \"#utility.yul\":13260:13440   */\n    tag_517:\n        /* \"#utility.yul\":13308:13385   */\n      0x4e487b7100000000000000000000000000000000000000000000000000000000\n        /* \"#utility.yul\":13305:13306   */\n      0x00\n        /* \"#utility.yul\":13298:13386   */\n      mstore\n        /* \"#utility.yul\":13405:13409   */\n      0x11\n        /* \"#utility.yul\":13402:13403   */\n      0x04\n        /* \"#utility.yul\":13395:13410   */\n      mstore\n        /* \"#utility.yul\":13429:13433   */\n      0x24\n        /* \"#utility.yul\":13426:13427   */\n      0x00\n        /* \"#utility.yul\":13419:13434   */\n      revert\n        /* \"#utility.yul\":13446:13640   */\n    tag_243:\n        /* \"#utility.yul\":13486:13490   */\n      0x00\n        /* \"#utility.yul\":13506:13526   */\n      tag_690\n        /* \"#utility.yul\":13524:13525   */\n      dup3\n        /* \"#utility.yul\":13506:13526   */\n      tag_486\n      jump\t// in\n    tag_690:\n        /* \"#utility.yul\":13501:13526   */\n      swap2\n      pop\n        /* \"#utility.yul\":13540:13560   */\n      tag_691\n        /* \"#utility.yul\":13558:13559   */\n      dup4\n        /* \"#utility.yul\":13540:13560   */\n      tag_486\n      jump\t// in\n    tag_691:\n        /* \"#utility.yul\":13535:13560   */\n      swap3\n      pop\n        /* \"#utility.yul\":13584:13585   */\n      dup3\n        /* \"#utility.yul\":13581:13582   */\n      dup3\n        /* \"#utility.yul\":13577:13586   */\n      sub\n        /* \"#utility.yul\":13569:13586   */\n      swap1\n      pop\n        /* \"#utility.yul\":13608:13609   */\n      dup2\n        /* \"#utility.yul\":13602:13606   */\n      dup2\n        /* \"#utility.yul\":13599:13610   */\n      gt\n        /* \"#utility.yul\":13596:13633   */\n      iszero\n      tag_692\n      jumpi\n        /* \"#utility.yul\":13613:13631   */\n      tag_693\n      tag_517\n      jump\t// in\n    tag_693:\n        /* \"#utility.yul\":13596:13633   */\n    tag_692:\n        /* \"#utility.yul\":13446:13640   */\n      swap3\n      swap2\n      pop\n      pop\n      jump\t// out\n        /* \"#utility.yul\":13646:13811   */\n    tag_518:\n        /* \"#utility.yul\":13786:13803   */\n      0x496e76616c696420616464726573730000000000000000000000000000000000\n        /* \"#utility.yul\":13782:13783   */\n      0x00\n        /* \"#utility.yul\":13774:13780   */\n      dup3\n        /* \"#utility.yul\":13770:13784   */\n      add\n        /* \"#utility.yul\":13763:13804   */\n      mstore\n        /* \"#utility.yul\":13646:13811   */\n      pop\n      jump\t// out\n        /* \"#utility.yul\":13817:14183   */\n    tag_519:\n        /* \"#utility.yul\":13959:13962   */\n      0x00\n        /* \"#utility.yul\":13980:14047   */\n      tag_696\n        /* \"#utility.yul\":14044:14046   */\n      0x0f\n        /* \"#utility.yul\":14039:14042   */\n      dup4\n        /* \"#utility.yul\":13980:14047   */\n      tag_489\n      jump\t// in\n    tag_696:\n        /* \"#utility.yul\":13973:14047   */\n      swap2\n      pop\n        /* \"#utility.yul\":14056:14149   */\n      tag_697\n        /* \"#utility.yul\":14145:14148   */\n      dup3\n        /* \"#utility.yul\":14056:14149   */\n      tag_518\n      jump\t// in\n    tag_697:\n        /* \"#utility.yul\":14174:14176   */\n      0x20\n        /* \"#utility.yul\":14169:14172   */\n      dup3\n        /* \"#utility.yul\":14165:14177   */\n      add\n        /* \"#utility.yul\":14158:14177   */\n      swap1\n      pop\n        /* \"#utility.yul\":13817:14183   */\n      swap2\n      swap1\n      pop\n      jump\t// out\n        /* \"#utility.yul\":14189:14608   */\n    tag_271:\n        /* \"#utility.yul\":14355:14359   */\n      0x00\n        /* \"#utility.yul\":14393:14395   */\n      0x20\n        /* \"#utility.yul\":14382:14391   */\n      dup3\n        /* \"#utility.yul\":14378:14396   */\n      add\n        /* \"#utility.yul\":14370:14396   */\n      swap1\n      pop\n        /* \"#utility.yul\":14442:14451   */\n      dup2\n        /* \"#utility.yul\":14436:14440   */\n      dup2\n        /* \"#utility.yul\":14432:14452   */\n      sub\n        /* \"#utility.yul\":14428:14429   */\n      0x00\n        /* \"#utility.yul\":14417:14426   */\n      dup4\n        /* \"#utility.yul\":14413:14430   */\n      add\n        /* \"#utility.yul\":14406:14453   */\n      mstore\n        /* \"#utility.yul\":14470:14601   */\n      tag_699\n        /* \"#utility.yul\":14596:14600   */\n      dup2\n        /* \"#utility.yul\":14470:14601   */\n      tag_519\n      jump\t// in\n    tag_699:\n        /* \"#utility.yul\":14462:14601   */\n      swap1\n      pop\n        /* \"#utility.yul\":14189:14608   */\n      swap2\n      swap1\n      pop\n      jump\t// out\n        /* \"#utility.yul\":14614:14674   */\n    tag_520:\n        /* \"#utility.yul\":14642:14645   */\n      0x00\n        /* \"#utility.yul\":14663:14668   */\n      dup2\n        /* \"#utility.yul\":14656:14668   */\n      swap1\n      pop\n        /* \"#utility.yul\":14614:14674   */\n      swap2\n      swap1\n      pop\n      jump\t// out\n        /* \"#utility.yul\":14680:14822   */\n    tag_521:\n        /* \"#utility.yul\":14730:14739   */\n      0x00\n        /* \"#utility.yul\":14763:14816   */\n      tag_702\n        /* \"#utility.yul\":14781:14815   */\n      tag_703\n        /* \"#utility.yul\":14790:14814   */\n      tag_704\n        /* \"#utility.yul\":14808:14813   */\n      dup5\n        /* \"#utility.yul\":14790:14814   */\n      tag_493\n      jump\t// in\n    tag_704:\n        /* \"#utility.yul\":14781:14815   */\n      tag_520\n      jump\t// in\n    tag_703:\n        /* \"#utility.yul\":14763:14816   */\n      tag_493\n      jump\t// in\n    tag_702:\n        /* \"#utility.yul\":14750:14816   */\n      swap1\n      pop\n        /* \"#utility.yul\":14680:14822   */\n      swap2\n      swap1\n      pop\n      jump\t// out\n        /* \"#utility.yul\":14828:14954   */\n    tag_522:\n        /* \"#utility.yul\":14878:14887   */\n      0x00\n        /* \"#utility.yul\":14911:14948   */\n      tag_706\n        /* \"#utility.yul\":14942:14947   */\n      dup3\n        /* \"#utility.yul\":14911:14948   */\n      tag_521\n      jump\t// in\n    tag_706:\n        /* \"#utility.yul\":14898:14948   */\n      swap1\n      pop\n        /* \"#utility.yul\":14828:14954   */\n      swap2\n      swap1\n      pop\n      jump\t// out\n        /* \"#utility.yul\":14960:15101   */\n    tag_523:\n        /* \"#utility.yul\":15025:15034   */\n      0x00\n        /* \"#utility.yul\":15058:15095   */\n      tag_708\n        /* \"#utility.yul\":15089:15094   */\n      dup3\n        /* \"#utility.yul\":15058:15095   */\n      tag_522\n      jump\t// in\n    tag_708:\n        /* \"#utility.yul\":15045:15095   */\n      swap1\n      pop\n        /* \"#utility.yul\":14960:15101   */\n      swap2\n      swap1\n      pop\n      jump\t// out\n        /* \"#utility.yul\":15107:15268   */\n    tag_524:\n        /* \"#utility.yul\":15209:15261   */\n      tag_710\n        /* \"#utility.yul\":15255:15260   */\n      dup2\n        /* \"#utility.yul\":15209:15261   */\n      tag_523\n      jump\t// in\n    tag_710:\n        /* \"#utility.yul\":15204:15207   */\n      dup3\n        /* \"#utility.yul\":15197:15262   */\n      mstore\n        /* \"#utility.yul\":15107:15268   */\n      pop\n      pop\n      jump\t// out\n        /* \"#utility.yul\":15274:15857   */\n    tag_280:\n        /* \"#utility.yul\":15466:15470   */\n      0x00\n        /* \"#utility.yul\":15504:15507   */\n      0x80\n        /* \"#utility.yul\":15493:15502   */\n      dup3\n        /* \"#utility.yul\":15489:15508   */\n      add\n        /* \"#utility.yul\":15481:15508   */\n      swap1\n      pop\n        /* \"#utility.yul\":15518:15604   */\n      tag_712\n        /* \"#utility.yul\":15601:15602   */\n      0x00\n        /* \"#utility.yul\":15590:15599   */\n      dup4\n        /* \"#utility.yul\":15586:15603   */\n      add\n        /* \"#utility.yul\":15577:15583   */\n      dup8\n        /* \"#utility.yul\":15518:15604   */\n      tag_524\n      jump\t// in\n    tag_712:\n        /* \"#utility.yul\":15614:15686   */\n      tag_713\n        /* \"#utility.yul\":15682:15684   */\n      0x20\n        /* \"#utility.yul\":15671:15680   */\n      dup4\n        /* \"#utility.yul\":15667:15685   */\n      add\n        /* \"#utility.yul\":15658:15664   */\n      dup7\n        /* \"#utility.yul\":15614:15686   */\n      tag_487\n      jump\t// in\n    tag_713:\n        /* \"#utility.yul\":15696:15768   */\n      tag_714\n        /* \"#utility.yul\":15764:15766   */\n      0x40\n        /* \"#utility.yul\":15753:15762   */\n      dup4\n        /* \"#utility.yul\":15749:15767   */\n      add\n        /* \"#utility.yul\":15740:15746   */\n      dup6\n        /* \"#utility.yul\":15696:15768   */\n      tag_514\n      jump\t// in\n    tag_714:\n        /* \"#utility.yul\":15778:15850   */\n      tag_715\n        /* \"#utility.yul\":15846:15848   */\n      0x60\n        /* \"#utility.yul\":15835:15844   */\n      dup4\n        /* \"#utility.yul\":15831:15849   */\n      add\n        /* \"#utility.yul\":15822:15828   */\n      dup5\n        /* \"#utility.yul\":15778:15850   */\n      tag_487\n      jump\t// in\n    tag_715:\n        /* \"#utility.yul\":15274:15857   */\n      swap6\n      swap5\n      pop\n      pop\n      pop\n      pop\n      pop\n      jump\t// out\n        /* \"#utility.yul\":15863:16041   */\n    tag_525:\n        /* \"#utility.yul\":16003:16033   */\n      0x436f6e74726163743a20436f6e74726163742069732050617573656400000000\n        /* \"#utility.yul\":15999:16000   */\n      0x00\n        /* \"#utility.yul\":15991:15997   */\n      dup3\n        /* \"#utility.yul\":15987:16001   */\n      add\n        /* \"#utility.yul\":15980:16034   */\n      mstore\n        /* \"#utility.yul\":15863:16041   */\n      pop\n      jump\t// out\n        /* \"#utility.yul\":16047:16413   */\n    tag_526:\n        /* \"#utility.yul\":16189:16192   */\n      0x00\n        /* \"#utility.yul\":16210:16277   */\n      tag_718\n        /* \"#utility.yul\":16274:16276   */\n      0x1c\n        /* \"#utility.yul\":16269:16272   */\n      dup4\n        /* \"#utility.yul\":16210:16277   */\n      tag_489\n      jump\t// in\n    tag_718:\n        /* \"#utility.yul\":16203:16277   */\n      swap2\n      pop\n        /* \"#utility.yul\":16286:16379   */\n      tag_719\n        /* \"#utility.yul\":16375:16378   */\n      dup3\n        /* \"#utility.yul\":16286:16379   */\n      tag_525\n      jump\t// in\n    tag_719:\n        /* \"#utility.yul\":16404:16406   */\n      0x20\n        /* \"#utility.yul\":16399:16402   */\n      dup3\n        /* \"#utility.yul\":16395:16407   */\n      add\n        /* \"#utility.yul\":16388:16407   */\n      swap1\n      pop\n        /* \"#utility.yul\":16047:16413   */\n      swap2\n      swap1\n      pop\n      jump\t// out\n        /* \"#utility.yul\":16419:16838   */\n    tag_285:\n        /* \"#utility.yul\":16585:16589   */\n      0x00\n        /* \"#utility.yul\":16623:16625   */\n      0x20\n        /* \"#utility.yul\":16612:16621   */\n      dup3\n        /* \"#utility.yul\":16608:16626   */\n      add\n        /* \"#utility.yul\":16600:16626   */\n      swap1\n      pop\n        /* \"#utility.yul\":16672:16681   */\n      dup2\n        /* \"#utility.yul\":16666:16670   */\n      dup2\n        /* \"#utility.yul\":16662:16682   */\n      sub\n        /* \"#utility.yul\":16658:16659   */\n      0x00\n        /* \"#utility.yul\":16647:16656   */\n      dup4\n        /* \"#utility.yul\":16643:16660   */\n      add\n        /* \"#utility.yul\":16636:16683   */\n      mstore\n        /* \"#utility.yul\":16700:16831   */\n      tag_721\n        /* \"#utility.yul\":16826:16830   */\n      dup2\n        /* \"#utility.yul\":16700:16831   */\n      tag_526\n      jump\t// in\n    tag_721:\n        /* \"#utility.yul\":16692:16831   */\n      swap1\n      pop\n        /* \"#utility.yul\":16419:16838   */\n      swap2\n      swap1\n      pop\n      jump\t// out\n        /* \"#utility.yul\":16844:17013   */\n    tag_527:\n        /* \"#utility.yul\":16984:17005   */\n      0x4d696e74696e6720746f2064697361626c656400000000000000000000000000\n        /* \"#utility.yul\":16980:16981   */\n      0x00\n        /* \"#utility.yul\":16972:16978   */\n      dup3\n        /* \"#utility.yul\":16968:16982   */\n      add\n        /* \"#utility.yul\":16961:17006   */\n      mstore\n        /* \"#utility.yul\":16844:17013   */\n      pop\n      jump\t// out\n        /* \"#utility.yul\":17019:17385   */\n    tag_528:\n        /* \"#utility.yul\":17161:17164   */\n      0x00\n        /* \"#utility.yul\":17182:17249   */\n      tag_724\n        /* \"#utility.yul\":17246:17248   */\n      0x13\n        /* \"#utility.yul\":17241:17244   */\n      dup4\n        /* \"#utility.yul\":17182:17249   */\n      tag_489\n      jump\t// in\n    tag_724:\n        /* \"#utility.yul\":17175:17249   */\n      swap2\n      pop\n        /* \"#utility.yul\":17258:17351   */\n      tag_725\n        /* \"#utility.yul\":17347:17350   */\n      dup3\n        /* \"#utility.yul\":17258:17351   */\n      tag_527\n      jump\t// in\n    tag_725:\n        /* \"#utility.yul\":17376:17378   */\n      0x20\n        /* \"#utility.yul\":17371:17374   */\n      dup3\n        /* \"#utility.yul\":17367:17379   */\n      add\n        /* \"#utility.yul\":17360:17379   */\n      swap1\n      pop\n        /* \"#utility.yul\":17019:17385   */\n      swap2\n      swap1\n      pop\n      jump\t// out\n        /* \"#utility.yul\":17391:17810   */\n    tag_299:\n        /* \"#utility.yul\":17557:17561   */\n      0x00\n        /* \"#utility.yul\":17595:17597   */\n      0x20\n        /* \"#utility.yul\":17584:17593   */\n      dup3\n        /* \"#utility.yul\":17580:17598   */\n      add\n        /* \"#utility.yul\":17572:17598   */\n      swap1\n      pop\n        /* \"#utility.yul\":17644:17653   */\n      dup2\n        /* \"#utility.yul\":17638:17642   */\n      dup2\n        /* \"#utility.yul\":17634:17654   */\n      sub\n        /* \"#utility.yul\":17630:17631   */\n      0x00\n        /* \"#utility.yul\":17619:17628   */\n      dup4\n        /* \"#utility.yul\":17615:17632   */\n      add\n        /* \"#utility.yul\":17608:17655   */\n      mstore\n        /* \"#utility.yul\":17672:17803   */\n      tag_727\n        /* \"#utility.yul\":17798:17802   */\n      dup2\n        /* \"#utility.yul\":17672:17803   */\n      tag_528\n      jump\t// in\n    tag_727:\n        /* \"#utility.yul\":17664:17803   */\n      swap1\n      pop\n        /* \"#utility.yul\":17391:17810   */\n      swap2\n      swap1\n      pop\n      jump\t// out\n        /* \"#utility.yul\":17816:18007   */\n    tag_305:\n        /* \"#utility.yul\":17856:17859   */\n      0x00\n        /* \"#utility.yul\":17875:17895   */\n      tag_729\n        /* \"#utility.yul\":17893:17894   */\n      dup3\n        /* \"#utility.yul\":17875:17895   */\n      tag_486\n      jump\t// in\n    tag_729:\n        /* \"#utility.yul\":17870:17895   */\n      swap2\n      pop\n        /* \"#utility.yul\":17909:17929   */\n      tag_730\n        /* \"#utility.yul\":17927:17928   */\n      dup4\n        /* \"#utility.yul\":17909:17929   */\n      tag_486\n      jump\t// in\n    tag_730:\n        /* \"#utility.yul\":17904:17929   */\n      swap3\n      pop\n        /* \"#utility.yul\":17952:17953   */\n      dup3\n        /* \"#utility.yul\":17949:17950   */\n      dup3\n        /* \"#utility.yul\":17945:17954   */\n      add\n        /* \"#utility.yul\":17938:17954   */\n      swap1\n      pop\n        /* \"#utility.yul\":17973:17976   */\n      dup1\n        /* \"#utility.yul\":17970:17971   */\n      dup3\n        /* \"#utility.yul\":17967:17977   */\n      gt\n        /* \"#utility.yul\":17964:18000   */\n      iszero\n      tag_731\n      jumpi\n        /* \"#utility.yul\":17980:17998   */\n      tag_732\n      tag_517\n      jump\t// in\n    tag_732:\n        /* \"#utility.yul\":17964:18000   */\n    tag_731:\n        /* \"#utility.yul\":17816:18007   */\n      swap3\n      swap2\n      pop\n      pop\n      jump\t// out\n        /* \"#utility.yul\":18013:18192   */\n    tag_529:\n        /* \"#utility.yul\":18153:18184   */\n      0x436f6e74726163743a20537570706c7920436170206578636565646564000000\n        /* \"#utility.yul\":18149:18150   */\n      0x00\n        /* \"#utility.yul\":18141:18147   */\n      dup3\n        /* \"#utility.yul\":18137:18151   */\n      add\n        /* \"#utility.yul\":18130:18185   */\n      mstore\n        /* \"#utility.yul\":18013:18192   */\n      pop\n      jump\t// out\n        /* \"#utility.yul\":18198:18564   */\n    tag_530:\n        /* \"#utility.yul\":18340:18343   */\n      0x00\n        /* \"#utility.yul\":18361:18428   */\n      tag_735\n        /* \"#utility.yul\":18425:18427   */\n      0x1d\n        /* \"#utility.yul\":18420:18423   */\n      dup4\n        /* \"#utility.yul\":18361:18428   */\n      tag_489\n      jump\t// in\n    tag_735:\n        /* \"#utility.yul\":18354:18428   */\n      swap2\n      pop\n        /* \"#utility.yul\":18437:18530   */\n      tag_736\n        /* \"#utility.yul\":18526:18529   */\n      dup3\n        /* \"#utility.yul\":18437:18530   */\n      tag_529\n      jump\t// in\n    tag_736:\n        /* \"#utility.yul\":18555:18557   */\n      0x20\n        /* \"#utility.yul\":18550:18553   */\n      dup3\n        /* \"#utility.yul\":18546:18558   */\n      add\n        /* \"#utility.yul\":18539:18558   */\n      swap1\n      pop\n        /* \"#utility.yul\":18198:18564   */\n      swap2\n      swap1\n      pop\n      jump\t// out\n        /* \"#utility.yul\":18570:18989   */\n    tag_308:\n        /* \"#utility.yul\":18736:18740   */\n      0x00\n        /* \"#utility.yul\":18774:18776   */\n      0x20\n        /* \"#utility.yul\":18763:18772   */\n      dup3\n        /* \"#utility.yul\":18759:18777   */\n      add\n        /* \"#utility.yul\":18751:18777   */\n      swap1\n      pop\n        /* \"#utility.yul\":18823:18832   */\n      dup2\n        /* \"#utility.yul\":18817:18821   */\n      dup2\n        /* \"#utility.yul\":18813:18833   */\n      sub\n        /* \"#utility.yul\":18809:18810   */\n      0x00\n        /* \"#utility.yul\":18798:18807   */\n      dup4\n        /* \"#utility.yul\":18794:18811   */\n      add\n        /* \"#utility.yul\":18787:18834   */\n      mstore\n        /* \"#utility.yul\":18851:18982   */\n      tag_738\n        /* \"#utility.yul\":18977:18981   */\n      dup2\n        /* \"#utility.yul\":18851:18982   */\n      tag_530\n      jump\t// in\n    tag_738:\n        /* \"#utility.yul\":18843:18982   */\n      swap1\n      pop\n        /* \"#utility.yul\":18570:18989   */\n      swap2\n      swap1\n      pop\n      jump\t// out\n        /* \"#utility.yul\":18995:19327   */\n    tag_310:\n        /* \"#utility.yul\":19116:19120   */\n      0x00\n        /* \"#utility.yul\":19154:19156   */\n      0x40\n        /* \"#utility.yul\":19143:19152   */\n      dup3\n        /* \"#utility.yul\":19139:19157   */\n      add\n        /* \"#utility.yul\":19131:19157   */\n      swap1\n      pop\n        /* \"#utility.yul\":19167:19238   */\n      tag_740\n        /* \"#utility.yul\":19235:19236   */\n      0x00\n        /* \"#utility.yul\":19224:19233   */\n      dup4\n        /* \"#utility.yul\":19220:19237   */\n      add\n        /* \"#utility.yul\":19211:19217   */\n      dup6\n        /* \"#utility.yul\":19167:19238   */\n      tag_514\n      jump\t// in\n    tag_740:\n        /* \"#utility.yul\":19248:19320   */\n      tag_741\n        /* \"#utility.yul\":19316:19318   */\n      0x20\n        /* \"#utility.yul\":19305:19314   */\n      dup4\n        /* \"#utility.yul\":19301:19319   */\n      add\n        /* \"#utility.yul\":19292:19298   */\n      dup5\n        /* \"#utility.yul\":19248:19320   */\n      tag_487\n      jump\t// in\n    tag_741:\n        /* \"#utility.yul\":18995:19327   */\n      swap4\n      swap3\n      pop\n      pop\n      pop\n      jump\t// out\n        /* \"#utility.yul\":19333:19467   */\n    tag_531:\n        /* \"#utility.yul\":19391:19400   */\n      0x00\n        /* \"#utility.yul\":19424:19461   */\n      tag_743\n        /* \"#utility.yul\":19455:19460   */\n      dup3\n        /* \"#utility.yul\":19424:19461   */\n      tag_522\n      jump\t// in\n    tag_743:\n        /* \"#utility.yul\":19411:19461   */\n      swap1\n      pop\n        /* \"#utility.yul\":19333:19467   */\n      swap2\n      swap1\n      pop\n      jump\t// out\n        /* \"#utility.yul\":19473:19620   */\n    tag_532:\n        /* \"#utility.yul\":19568:19613   */\n      tag_745\n        /* \"#utility.yul\":19607:19612   */\n      dup2\n        /* \"#utility.yul\":19568:19613   */\n      tag_531\n      jump\t// in\n    tag_745:\n        /* \"#utility.yul\":19563:19566   */\n      dup3\n        /* \"#utility.yul\":19556:19614   */\n      mstore\n        /* \"#utility.yul\":19473:19620   */\n      pop\n      pop\n      jump\t// out\n        /* \"#utility.yul\":19626:20084   */\n    tag_321:\n        /* \"#utility.yul\":19783:19787   */\n      0x00\n        /* \"#utility.yul\":19821:19823   */\n      0x60\n        /* \"#utility.yul\":19810:19819   */\n      dup3\n        /* \"#utility.yul\":19806:19824   */\n      add\n        /* \"#utility.yul\":19798:19824   */\n      swap1\n      pop\n        /* \"#utility.yul\":19834:19913   */\n      tag_747\n        /* \"#utility.yul\":19910:19911   */\n      0x00\n        /* \"#utility.yul\":19899:19908   */\n      dup4\n        /* \"#utility.yul\":19895:19912   */\n      add\n        /* \"#utility.yul\":19886:19892   */\n      dup7\n        /* \"#utility.yul\":19834:19913   */\n      tag_532\n      jump\t// in\n    tag_747:\n        /* \"#utility.yul\":19923:19995   */\n      tag_748\n        /* \"#utility.yul\":19991:19993   */\n      0x20\n        /* \"#utility.yul\":19980:19989   */\n      dup4\n        /* \"#utility.yul\":19976:19994   */\n      add\n        /* \"#utility.yul\":19967:19973   */\n      dup6\n        /* \"#utility.yul\":19923:19995   */\n      tag_487\n      jump\t// in\n    tag_748:\n        /* \"#utility.yul\":20005:20077   */\n      tag_749\n        /* \"#utility.yul\":20073:20075   */\n      0x40\n        /* \"#utility.yul\":20062:20071   */\n      dup4\n        /* \"#utility.yul\":20058:20076   */\n      add\n        /* \"#utility.yul\":20049:20055   */\n      dup5\n        /* \"#utility.yul\":20005:20077   */\n      tag_487\n      jump\t// in\n    tag_749:\n        /* \"#utility.yul\":19626:20084   */\n      swap5\n      swap4\n      pop\n      pop\n      pop\n      pop\n      jump\t// out\n        /* \"#utility.yul\":20090:20532   */\n    tag_332:\n        /* \"#utility.yul\":20239:20243   */\n      0x00\n        /* \"#utility.yul\":20277:20279   */\n      0x60\n        /* \"#utility.yul\":20266:20275   */\n      dup3\n        /* \"#utility.yul\":20262:20280   */\n      add\n        /* \"#utility.yul\":20254:20280   */\n      swap1\n      pop\n        /* \"#utility.yul\":20290:20361   */\n      tag_751\n        /* \"#utility.yul\":20358:20359   */\n      0x00\n        /* \"#utility.yul\":20347:20356   */\n      dup4\n        /* \"#utility.yul\":20343:20360   */\n      add\n        /* \"#utility.yul\":20334:20340   */\n      dup7\n        /* \"#utility.yul\":20290:20361   */\n      tag_514\n      jump\t// in\n    tag_751:\n        /* \"#utility.yul\":20371:20443   */\n      tag_752\n        /* \"#utility.yul\":20439:20441   */\n      0x20\n        /* \"#utility.yul\":20428:20437   */\n      dup4\n        /* \"#utility.yul\":20424:20442   */\n      add\n        /* \"#utility.yul\":20415:20421   */\n      dup6\n        /* \"#utility.yul\":20371:20443   */\n      tag_487\n      jump\t// in\n    tag_752:\n        /* \"#utility.yul\":20453:20525   */\n      tag_753\n        /* \"#utility.yul\":20521:20523   */\n      0x40\n        /* \"#utility.yul\":20510:20519   */\n      dup4\n        /* \"#utility.yul\":20506:20524   */\n      add\n        /* \"#utility.yul\":20497:20503   */\n      dup5\n        /* \"#utility.yul\":20453:20525   */\n      tag_514\n      jump\t// in\n    tag_753:\n        /* \"#utility.yul\":20090:20532   */\n      swap5\n      swap4\n      pop\n      pop\n      pop\n      pop\n      jump\t// out\n        /* \"#utility.yul\":20538:20704   */\n    tag_533:\n        /* \"#utility.yul\":20678:20696   */\n      0x4d696e74696e672064697361626c656400000000000000000000000000000000\n        /* \"#utility.yul\":20674:20675   */\n      0x00\n        /* \"#utility.yul\":20666:20672   */\n      dup3\n        /* \"#utility.yul\":20662:20676   */\n      add\n        /* \"#utility.yul\":20655:20697   */\n      mstore\n        /* \"#utility.yul\":20538:20704   */\n      pop\n      jump\t// out\n        /* \"#utility.yul\":20710:21076   */\n    tag_534:\n        /* \"#utility.yul\":20852:20855   */\n      0x00\n        /* \"#utility.yul\":20873:20940   */\n      tag_756\n        /* \"#utility.yul\":20937:20939   */\n      0x10\n        /* \"#utility.yul\":20932:20935   */\n      dup4\n        /* \"#utility.yul\":20873:20940   */\n      tag_489\n      jump\t// in\n    tag_756:\n        /* \"#utility.yul\":20866:20940   */\n      swap2\n      pop\n        /* \"#utility.yul\":20949:21042   */\n      tag_757\n        /* \"#utility.yul\":21038:21041   */\n      dup3\n        /* \"#utility.yul\":20949:21042   */\n      tag_533\n      jump\t// in\n    tag_757:\n        /* \"#utility.yul\":21067:21069   */\n      0x20\n        /* \"#utility.yul\":21062:21065   */\n      dup3\n        /* \"#utility.yul\":21058:21070   */\n      add\n        /* \"#utility.yul\":21051:21070   */\n      swap1\n      pop\n        /* \"#utility.yul\":20710:21076   */\n      swap2\n      swap1\n      pop\n      jump\t// out\n        /* \"#utility.yul\":21082:21501   */\n    tag_348:\n        /* \"#utility.yul\":21248:21252   */\n      0x00\n        /* \"#utility.yul\":21286:21288   */\n      0x20\n        /* \"#utility.yul\":21275:21284   */\n      dup3\n        /* \"#utility.yul\":21271:21289   */\n      add\n        /* \"#utility.yul\":21263:21289   */\n      swap1\n      pop\n        /* \"#utility.yul\":21335:21344   */\n      dup2\n        /* \"#utility.yul\":21329:21333   */\n      dup2\n        /* \"#utility.yul\":21325:21345   */\n      sub\n        /* \"#utility.yul\":21321:21322   */\n      0x00\n        /* \"#utility.yul\":21310:21319   */\n      dup4\n        /* \"#utility.yul\":21306:21323   */\n      add\n        /* \"#utility.yul\":21299:21346   */\n      mstore\n        /* \"#utility.yul\":21363:21494   */\n      tag_759\n        /* \"#utility.yul\":21489:21493   */\n      dup2\n        /* \"#utility.yul\":21363:21494   */\n      tag_534\n      jump\t// in\n    tag_759:\n        /* \"#utility.yul\":21355:21494   */\n      swap1\n      pop\n        /* \"#utility.yul\":21082:21501   */\n      swap2\n      swap1\n      pop\n      jump\t// out\n        /* \"#utility.yul\":21507:21685   */\n    tag_535:\n        /* \"#utility.yul\":21647:21677   */\n      0x436f6e74726163743a20537570706c792043617020746f6f206c6f7700000000\n        /* \"#utility.yul\":21643:21644   */\n      0x00\n        /* \"#utility.yul\":21635:21641   */\n      dup3\n        /* \"#utility.yul\":21631:21645   */\n      add\n        /* \"#utility.yul\":21624:21678   */\n      mstore\n        /* \"#utility.yul\":21507:21685   */\n      pop\n      jump\t// out\n        /* \"#utility.yul\":21691:22057   */\n    tag_536:\n        /* \"#utility.yul\":21833:21836   */\n      0x00\n        /* \"#utility.yul\":21854:21921   */\n      tag_762\n        /* \"#utility.yul\":21918:21920   */\n      0x1c\n        /* \"#utility.yul\":21913:21916   */\n      dup4\n        /* \"#utility.yul\":21854:21921   */\n      tag_489\n      jump\t// in\n    tag_762:\n        /* \"#utility.yul\":21847:21921   */\n      swap2\n      pop\n        /* \"#utility.yul\":21930:22023   */\n      tag_763\n        /* \"#utility.yul\":22019:22022   */\n      dup3\n        /* \"#utility.yul\":21930:22023   */\n      tag_535\n      jump\t// in\n    tag_763:\n        /* \"#utility.yul\":22048:22050   */\n      0x20\n        /* \"#utility.yul\":22043:22046   */\n      dup3\n        /* \"#utility.yul\":22039:22051   */\n      add\n        /* \"#utility.yul\":22032:22051   */\n      swap1\n      pop\n        /* \"#utility.yul\":21691:22057   */\n      swap2\n      swap1\n      pop\n      jump\t// out\n        /* \"#utility.yul\":22063:22482   */\n    tag_378:\n        /* \"#utility.yul\":22229:22233   */\n      0x00\n        /* \"#utility.yul\":22267:22269   */\n      0x20\n        /* \"#utility.yul\":22256:22265   */\n      dup3\n        /* \"#utility.yul\":22252:22270   */\n      add\n        /* \"#utility.yul\":22244:22270   */\n      swap1\n      pop\n        /* \"#utility.yul\":22316:22325   */\n      dup2\n        /* \"#utility.yul\":22310:22314   */\n      dup2\n        /* \"#utility.yul\":22306:22326   */\n      sub\n        /* \"#utility.yul\":22302:22303   */\n      0x00\n        /* \"#utility.yul\":22291:22300   */\n      dup4\n        /* \"#utility.yul\":22287:22304   */\n      add\n        /* \"#utility.yul\":22280:22327   */\n      mstore\n        /* \"#utility.yul\":22344:22475   */\n      tag_765\n        /* \"#utility.yul\":22470:22474   */\n      dup2\n        /* \"#utility.yul\":22344:22475   */\n      tag_536\n      jump\t// in\n    tag_765:\n        /* \"#utility.yul\":22336:22475   */\n      swap1\n      pop\n        /* \"#utility.yul\":22063:22482   */\n      swap2\n      swap1\n      pop\n      jump\t// out\n        /* \"#utility.yul\":22488:22710   */\n    tag_422:\n        /* \"#utility.yul\":22581:22585   */\n      0x00\n        /* \"#utility.yul\":22619:22621   */\n      0x20\n        /* \"#utility.yul\":22608:22617   */\n      dup3\n        /* \"#utility.yul\":22604:22622   */\n      add\n        /* \"#utility.yul\":22596:22622   */\n      swap1\n      pop\n        /* \"#utility.yul\":22632:22703   */\n      tag_767\n        /* \"#utility.yul\":22700:22701   */\n      0x00\n        /* \"#utility.yul\":22689:22698   */\n      dup4\n        /* \"#utility.yul\":22685:22702   */\n      add\n        /* \"#utility.yul\":22676:22682   */\n      dup5\n        /* \"#utility.yul\":22632:22703   */\n      tag_514\n      jump\t// in\n    tag_767:\n        /* \"#utility.yul\":22488:22710   */\n      swap3\n      swap2\n      pop\n      pop\n      jump\t// out\n        /* \"#utility.yul\":22716:23048   */\n    tag_461:\n        /* \"#utility.yul\":22837:22841   */\n      0x00\n        /* \"#utility.yul\":22875:22877   */\n      0x40\n        /* \"#utility.yul\":22864:22873   */\n      dup3\n        /* \"#utility.yul\":22860:22878   */\n      add\n        /* \"#utility.yul\":22852:22878   */\n      swap1\n      pop\n        /* \"#utility.yul\":22888:22959   */\n      tag_769\n        /* \"#utility.yul\":22956:22957   */\n      0x00\n        /* \"#utility.yul\":22945:22954   */\n      dup4\n        /* \"#utility.yul\":22941:22958   */\n      add\n        /* \"#utility.yul\":22932:22938   */\n      dup6\n        /* \"#utility.yul\":22888:22959   */\n      tag_514\n      jump\t// in\n    tag_769:\n        /* \"#utility.yul\":22969:23041   */\n      tag_770\n        /* \"#utility.yul\":23037:23039   */\n      0x20\n        /* \"#utility.yul\":23026:23035   */\n      dup4\n        /* \"#utility.yul\":23022:23040   */\n      add\n        /* \"#utility.yul\":23013:23019   */\n      dup5\n        /* \"#utility.yul\":22969:23041   */\n      tag_504\n      jump\t// in\n    tag_770:\n        /* \"#utility.yul\":22716:23048   */\n      swap4\n      swap3\n      pop\n      pop\n      pop\n      jump\t// out\n        /* \"#utility.yul\":23054:23496   */\n    tag_468:\n        /* \"#utility.yul\":23203:23207   */\n      0x00\n        /* \"#utility.yul\":23241:23243   */\n      0x60\n        /* \"#utility.yul\":23230:23239   */\n      dup3\n        /* \"#utility.yul\":23226:23244   */\n      add\n        /* \"#utility.yul\":23218:23244   */\n      swap1\n      pop\n        /* \"#utility.yul\":23254:23325   */\n      tag_772\n        /* \"#utility.yul\":23322:23323   */\n      0x00\n        /* \"#utility.yul\":23311:23320   */\n      dup4\n        /* \"#utility.yul\":23307:23324   */\n      add\n        /* \"#utility.yul\":23298:23304   */\n      dup7\n        /* \"#utility.yul\":23254:23325   */\n      tag_514\n      jump\t// in\n    tag_772:\n        /* \"#utility.yul\":23335:23407   */\n      tag_773\n        /* \"#utility.yul\":23403:23405   */\n      0x20\n        /* \"#utility.yul\":23392:23401   */\n      dup4\n        /* \"#utility.yul\":23388:23406   */\n      add\n        /* \"#utility.yul\":23379:23385   */\n      dup6\n        /* \"#utility.yul\":23335:23407   */\n      tag_487\n      jump\t// in\n    tag_773:\n        /* \"#utility.yul\":23417:23489   */\n      tag_774\n        /* \"#utility.yul\":23485:23487   */\n      0x40\n        /* \"#utility.yul\":23474:23483   */\n      dup4\n        /* \"#utility.yul\":23470:23488   */\n      add\n        /* \"#utility.yul\":23461:23467   */\n      dup5\n        /* \"#utility.yul\":23417:23489   */\n      tag_487\n      jump\t// in\n    tag_774:\n        /* \"#utility.yul\":23054:23496   */\n      swap5\n      swap4\n      pop\n      pop\n      pop\n      pop\n      jump\t// out\n\n    auxdata: 0xa2646970667358221220bff9d0013640c6ef3513800fbcca4bd42eee571afeaf7e5ad10ebf4b5198a3a364736f6c634300081a0033\n}\n",
				"bytecode": {
					"linkReferences": {},
					"object": "60806040526611c37937e0800060085534801561001a575f80fd5b506040518060400160405280600581526020017f546f6b656e0000000000000000000000000000000000000000000000000000008152506040518060400160405280600381526020017f544b4e000000000000000000000000000000000000000000000000000000000081525081600390816100969190610836565b5080600490816100a69190610836565b50505060016006819055506a084595161401484a0000006007819055505f600960016101000a81548160ff0219169083151502179055505f600960026101000a81548160ff0219169083151502179055506101165f801b61010b6101fd60201b60201c565b61020460201b60201c565b506101547fae6c2fc584631af4c9385b8a55683f1a75c813747e27efef5afece31c6b230d36101496101fd60201b60201c565b61020460201b60201c565b506101927f8c66330d9d4f6aba064f25ef2a307366ea6d917616f44c075aa60fa15e5cb1cb6101876101fd60201b60201c565b61020460201b60201c565b506101d07f9edfad36e7d4d9da54b4f78f22bf97cb5b58bb7998294a4288da41c15c647c456101c56101fd60201b60201c565b61020460201b60201c565b506101f86101e26101fd60201b60201c565b69d3c21bcecceda10000006102fa60201b60201c565b610a1a565b5f33905090565b5f610215838361037f60201b60201c565b6102f057600160055f8581526020019081526020015f205f015f8473ffffffffffffffffffffffffffffffffffffffff1673ffffffffffffffffffffffffffffffffffffffff1681526020019081526020015f205f6101000a81548160ff02191690831515021790555061028d6101fd60201b60201c565b73ffffffffffffffffffffffffffffffffffffffff168273ffffffffffffffffffffffffffffffffffffffff16847f2f8788117e7eff1d82e926ec794901d17c78024a50270940304540a733656f0d60405160405180910390a4600190506102f4565b5f90505b92915050565b5f73ffffffffffffffffffffffffffffffffffffffff168273ffffffffffffffffffffffffffffffffffffffff160361036a575f6040517fec442f050000000000000000000000000000000000000000000000000000000081526004016103619190610944565b60405180910390fd5b61037b5f83836103e360201b60201c565b5050565b5f60055f8481526020019081526020015f205f015f8373ffffffffffffffffffffffffffffffffffffffff1673ffffffffffffffffffffffffffffffffffffffff1681526020019081526020015f205f9054906101000a900460ff16905092915050565b5f73ffffffffffffffffffffffffffffffffffffffff168373ffffffffffffffffffffffffffffffffffffffff1603610433578060025f828254610427919061098a565b92505081905550610501565b5f805f8573ffffffffffffffffffffffffffffffffffffffff1673ffffffffffffffffffffffffffffffffffffffff1681526020019081526020015f20549050818110156104bc578381836040517fe450d38c0000000000000000000000000000000000000000000000000000000081526004016104b3939291906109cc565b60405180910390fd5b8181035f808673ffffffffffffffffffffffffffffffffffffffff1673ffffffffffffffffffffffffffffffffffffffff1681526020019081526020015f2081905550505b5f73ffffffffffffffffffffffffffffffffffffffff168273ffffffffffffffffffffffffffffffffffffffff1603610548578060025f8282540392505081905550610592565b805f808473ffffffffffffffffffffffffffffffffffffffff1673ffffffffffffffffffffffffffffffffffffffff1681526020019081526020015f205f82825401925050819055505b8173ffffffffffffffffffffffffffffffffffffffff168373ffffffffffffffffffffffffffffffffffffffff167fddf252ad1be2c89b69c2b068fc378daa952ba7f163c4a11628f55a4df523b3ef836040516105ef9190610a01565b60405180910390a3505050565b5f81519050919050565b7f4e487b71000000000000000000000000000000000000000000000000000000005f52604160045260245ffd5b7f4e487b71000000000000000000000000000000000000000000000000000000005f52602260045260245ffd5b5f600282049050600182168061067757607f821691505b60208210810361068a57610689610633565b5b50919050565b5f819050815f5260205f209050919050565b5f6020601f8301049050919050565b5f82821b905092915050565b5f600883026106ec7fffffffffffffffffffffffffffffffffffffffffffffffffffffffffffffffff826106b1565b6106f686836106b1565b95508019841693508086168417925050509392505050565b5f819050919050565b5f819050919050565b5f61073a6107356107308461070e565b610717565b61070e565b9050919050565b5f819050919050565b61075383610720565b61076761075f82610741565b8484546106bd565b825550505050565b5f90565b61077b61076f565b61078681848461074a565b505050565b5b818110156107a95761079e5f82610773565b60018101905061078c565b5050565b601f8211156107ee576107bf81610690565b6107c8846106a2565b810160208510156107d7578190505b6107eb6107e3856106a2565b83018261078b565b50505b505050565b5f82821c905092915050565b5f61080e5f19846008026107f3565b1980831691505092915050565b5f61082683836107ff565b9150826002028217905092915050565b61083f826105fc565b67ffffffffffffffff81111561085857610857610606565b5b6108628254610660565b61086d8282856107ad565b5f60209050601f83116001811461089e575f841561088c578287015190505b610896858261081b565b8655506108fd565b601f1984166108ac86610690565b5f5b828110156108d3578489015182556001820191506020850194506020810190506108ae565b868310156108f057848901516108ec601f8916826107ff565b8355505b6001600288020188555050505b505050505050565b5f73ffffffffffffffffffffffffffffffffffffffff82169050919050565b5f61092e82610905565b9050919050565b61093e81610924565b82525050565b5f6020820190506109575f830184610935565b92915050565b7f4e487b71000000000000000000000000000000000000000000000000000000005f52601160045260245ffd5b5f6109948261070e565b915061099f8361070e565b92508282019050808211156109b7576109b661095d565b5b92915050565b6109c68161070e565b82525050565b5f6060820190506109df5f830186610935565b6109ec60208301856109bd565b6109f960408301846109bd565b949350505050565b5f602082019050610a145f8301846109bd565b92915050565b612f0080610a275f395ff3fe608060405234801561000f575f80fd5b506004361061025c575f3560e01c806379cc679011610144578063a9059cbb116100c1578063d547741f11610085578063d547741f14610712578063dd62ed3e1461072e578063deb6db361461075e578063ea5cb5321461077a578063f05d16f714610798578063f2250d3d146107b45761025c565b8063a9059cbb1461065a578063b6a3f59a1461068a578063c30796ab146106a6578063cf820461146106d6578063d1c9f69b146106f45761025c565b806391d148541161010857806391d14854146105b4578063956feccf146105e457806395d89b4114610602578063a0712d6814610620578063a217fddf1461063c5761025c565b806379cc6790146105205780637e92a7fd1461053c5780638d580b9f1461055a5780638ebed5b1146105785780638f770ad0146105965761025c565b806336568abe116101dd57806348132f48116101a157806348132f481461045c578063515572891461047857806353a4c31e146104965780635c975abb146104b45780636ba77a38146104d257806370a08231146104f05761025c565b806336568abe146103d05780633f914aef146103ec57806341f431fd1461040857806342966c6814610424578063449a52f8146104405761025c565b806318160ddd1161022457806318160ddd1461031857806323b872dd14610336578063248a9ca3146103665780632f2ff15d14610396578063313ce567146103b25761025c565b806301ffc9a714610260578063060cf4e81461029057806306fdde03146102ae578063095ea7b3146102cc57806316c38b3c146102fc575b5f80fd5b61027a6004803603810190610275919061238e565b6107d0565b60405161028791906123d3565b60405180910390f35b610298610849565b6040516102a59190612404565b60405180910390f35b6102b661084f565b6040516102c3919061248d565b60405180910390f35b6102e660048036038101906102e19190612531565b6108df565b6040516102f391906123d3565b60405180910390f35b61031660048036038101906103119190612599565b610901565b005b6103206109d4565b60405161032d9190612404565b60405180910390f35b610350600480360381019061034b91906125c4565b6109dd565b60405161035d91906123d3565b60405180910390f35b610380600480360381019061037b9190612647565b610ae9565b60405161038d9190612681565b60405180910390f35b6103b060048036038101906103ab919061269a565b610b06565b005b6103ba610b28565b6040516103c791906126f3565b60405180910390f35b6103ea60048036038101906103e5919061269a565b610b30565b005b6104066004803603810190610401919061270c565b610bab565b005b610422600480360381019061041d9190612785565b610c9c565b005b61043e600480360381019061043991906127d5565b610d44565b005b61045a60048036038101906104559190612531565b610e12565b005b6104766004803603810190610471919061283b565b610f7a565b005b610480611038565b60405161048d9190612681565b60405180910390f35b61049e61105c565b6040516104ab9190612681565b60405180910390f35b6104bc611080565b6040516104c991906123d3565b60405180910390f35b6104da611092565b6040516104e79190612681565b60405180910390f35b61050a60048036038101906105059190612879565b6110b6565b6040516105179190612404565b60405180910390f35b61053a60048036038101906105359190612531565b6110fb565b005b6105446111c5565b6040516105519190612681565b60405180910390f35b6105626111e9565b60405161056f9190612681565b60405180910390f35b61058061120d565b60405161058d9190612681565b60405180910390f35b61059e611231565b6040516105ab9190612404565b60405180910390f35b6105ce60048036038101906105c9919061269a565b61123a565b6040516105db91906123d3565b60405180910390f35b6105ec61129e565b6040516105f991906123d3565b60405180910390f35b61060a6112b1565b604051610617919061248d565b60405180910390f35b61063a600480360381019061063591906127d5565b611341565b005b6106446114ad565b6040516106519190612681565b60405180910390f35b610674600480360381019061066f9190612531565b6114b3565b60405161068191906123d3565b60405180910390f35b6106a4600480360381019061069f91906127d5565b611551565b005b6106c060048036038101906106bb9190612879565b61165f565b6040516106cd91906123d3565b60405180910390f35b6106de61167c565b6040516106eb9190612404565b60405180910390f35b6106fc611682565b60405161070991906123d3565b60405180910390f35b61072c6004803603810190610727919061269a565b611695565b005b610748600480360381019061074391906128a4565b6116b7565b6040516107559190612404565b60405180910390f35b61077860048036038101906107739190612599565b611739565b005b61078261180d565b60405161078f9190612681565b60405180910390f35b6107b260048036038101906107ad91906127d5565b611831565b005b6107ce60048036038101906107c99190612599565b611866565b005b5f7f7965db0b000000000000000000000000000000000000000000000000000000007bffffffffffffffffffffffffffffffffffffffffffffffffffffffff1916827bffffffffffffffffffffffffffffffffffffffffffffffffffffffff1916148061084257506108418261193a565b5b9050919050565b60075481565b60606003805461085e9061290f565b80601f016020809104026020016040519081016040528092919081815260200182805461088a9061290f565b80156108d55780601f106108ac576101008083540402835291602001916108d5565b820191905f5260205f20905b8154815290600101906020018083116108b857829003601f168201915b5050505050905090565b5f806108e96119a3565b90506108f68185856119aa565b600191505092915050565b7fae6c2fc584631af4c9385b8a55683f1a75c813747e27efef5afece31c6b230d361092b816119bc565b8160095f6101000a81548160ff021916908315150217905550811561098f577fd8c9c5623123df8e137854c59a08f9084b75609fe24584228d44ffdce5ab920a436109746119a3565b60405161098292919061294e565b60405180910390a16109d0565b7f1e7a7234ad01ed7353bf129217f5c162773639a6cb22773e84bcd5a2b0ef362e436109b96119a3565b6040516109c792919061294e565b60405180910390a15b5050565b5f600254905090565b5f6109e66119d0565b5f6109ef6119a3565b90505f6109fc86836116b7565b905083811015610a41576040517f08c379a0000000000000000000000000000000000000000000000000000000008152600401610a38906129e5565b60405180910390fd5b610a5786838684610a529190612a30565b6119aa565b60011515600a5f8473ffffffffffffffffffffffffffffffffffffffff1673ffffffffffffffffffffffffffffffffffffffff1681526020019081526020015f205f9054906101000a900460ff16151503610abc57610ab7868686611a16565b610ad4565b610ac7868686611a16565b610ad386600854611b06565b5b600192505050610ae2611b85565b9392505050565b5f60055f8381526020019081526020015f20600101549050919050565b610b0f82610ae9565b610b18816119bc565b610b228383611b8f565b50505050565b5f6012905090565b610b386119a3565b73ffffffffffffffffffffffffffffffffffffffff168173ffffffffffffffffffffffffffffffffffffffff1614610b9c576040517f6697b23200000000000000000000000000000000000000000000000000000000815260040160405180910390fd5b610ba68282611c79565b505050565b7fae6c2fc584631af4c9385b8a55683f1a75c813747e27efef5afece31c6b230d3610bd5816119bc565b5f73ffffffffffffffffffffffffffffffffffffffff168373ffffffffffffffffffffffffffffffffffffffff1603610c43576040517f08c379a0000000000000000000000000000000000000000000000000000000008152600401610c3a90612aad565b60405180910390fd5b81600a5f8573ffffffffffffffffffffffffffffffffffffffff1673ffffffffffffffffffffffffffffffffffffffff1681526020019081526020015f205f6101000a81548160ff021916908315150217905550505050565b610ca46119d0565b7f508f8f8be8f5dbcb88f4f4500430b8b3684c471ed936f31fea912c78ad46a6b9610cce816119bc565b610cf983838673ffffffffffffffffffffffffffffffffffffffff16611d639092919063ffffffff16565b7f494215f965756bbc8b7f57addd2a0ebdbce467a4999f8320c67adc1771885d7b84438585604051610d2e9493929190612b26565b60405180910390a150610d3f611b85565b505050565b60095f9054906101000a900460ff1615610d93576040517f08c379a0000000000000000000000000000000000000000000000000000000008152600401610d8a90612bb3565b60405180910390fd5b7f9edfad36e7d4d9da54b4f78f22bf97cb5b58bb7998294a4288da41c15c647c45610dbd816119bc565b7f63706707d038997d2210eb026bb1339397deab463921538a81bb98e69ee54ca882610de76119a3565b604051610df592919061294e565b60405180910390a1610e0e610e086119a3565b83611b06565b5050565b60095f9054906101000a900460ff1615610e61576040517f08c379a0000000000000000000000000000000000000000000000000000000008152600401610e5890612bb3565b60405180910390fd5b600960029054906101000a900460ff1615610eb1576040517f08c379a0000000000000000000000000000000000000000000000000000000008152600401610ea890612c1b565b60405180910390fd5b7f7d800f56a05adcb6245df540492a560d0e668aac15ee6c7dd40668064913da33610edb816119bc565b60075482610ee76109d4565b610ef19190612c39565b1115610f32576040517f08c379a0000000000000000000000000000000000000000000000000000000008152600401610f2990612cb6565b60405180910390fd5b7fe98063832b4ff0356868961b75f7f49b096b14ea066c9725301ad197f2f631478383604051610f63929190612cd4565b60405180910390a1610f758383611de2565b505050565b610f826119d0565b7f508f8f8be8f5dbcb88f4f4500430b8b3684c471ed936f31fea912c78ad46a6b9610fac816119bc565b8273ffffffffffffffffffffffffffffffffffffffff166108fc8390811502906040515f60405180830381858888f19350505050158015610fef573d5f803e3d5ffd5b507f3b1c0368c81e47d03164182dc6f9fcf4f5e4b3bd9462d74960d729f73138ce3683438460405161102393929190612d1b565b60405180910390a150611034611b85565b5050565b7fae6c2fc584631af4c9385b8a55683f1a75c813747e27efef5afece31c6b230d381565b7f9edfad36e7d4d9da54b4f78f22bf97cb5b58bb7998294a4288da41c15c647c4581565b60095f9054906101000a900460ff1681565b7fc8a3befa5973ff6e159afc769978d92f26bae29c51a73d11c9112a05b68d25e681565b5f805f8373ffffffffffffffffffffffffffffffffffffffff1673ffffffffffffffffffffffffffffffffffffffff1681526020019081526020015f20549050919050565b60095f9054906101000a900460ff161561114a576040517f08c379a000000000000000000000000000000000000000000000000000000000815260040161114190612bb3565b60405180910390fd5b7fc8a3befa5973ff6e159afc769978d92f26bae29c51a73d11c9112a05b68d25e6611174816119bc565b7fe419ce2aab145a1feaf5893bb6a9478f9282415bbd81c76d5cfff2d4f13431dd838361119f6119a3565b6040516111ae93929190612d50565b60405180910390a16111c08383611b06565b505050565b7f7d800f56a05adcb6245df540492a560d0e668aac15ee6c7dd40668064913da3381565b7f508f8f8be8f5dbcb88f4f4500430b8b3684c471ed936f31fea912c78ad46a6b981565b7f8c66330d9d4f6aba064f25ef2a307366ea6d917616f44c075aa60fa15e5cb1cb81565b5f600754905090565b5f60055f8481526020019081526020015f205f015f8373ffffffffffffffffffffffffffffffffffffffff1673ffffffffffffffffffffffffffffffffffffffff1681526020019081526020015f205f9054906101000a900460ff16905092915050565b600960019054906101000a900460ff1681565b6060600480546112c09061290f565b80601f01602080910402602001604051908101604052809291908181526020018280546112ec9061290f565b80156113375780601f1061130e57610100808354040283529160200191611337565b820191905f5260205f20905b81548152906001019060200180831161131a57829003601f168201915b5050505050905090565b60095f9054906101000a900460ff1615611390576040517f08c379a000000000000000000000000000000000000000000000000000000000815260040161138790612bb3565b60405180910390fd5b600960019054906101000a900460ff16156113e0576040517f08c379a00000000000000000000000000000000000000000000000000000000081526004016113d790612dcf565b60405180910390fd5b7f8c66330d9d4f6aba064f25ef2a307366ea6d917616f44c075aa60fa15e5cb1cb61140a816119bc565b600754826114166109d4565b6114209190612c39565b1115611461576040517f08c379a000000000000000000000000000000000000000000000000000000000815260040161145890612cb6565b60405180910390fd5b7f772f66a00a405709c30e7f18feadcc8f123b20c09c7260165d3eec36c9f21372826040516114909190612404565b60405180910390a16114a96114a36119a3565b83611de2565b5050565b5f801b81565b5f6114bc6119d0565b5f6114c56119a3565b9050600a5f8273ffffffffffffffffffffffffffffffffffffffff1673ffffffffffffffffffffffffffffffffffffffff1681526020019081526020015f205f9054906101000a900460ff161561152657611521818585611a16565b61153e565b611531818585611a16565b61153d81600854611b06565b5b600191505061154b611b85565b92915050565b60095f9054906101000a900460ff16156115a0576040517f08c379a000000000000000000000000000000000000000000000000000000000815260040161159790612bb3565b60405180910390fd5b7fea4defabeb90fa1e79f929d6c8d482fee8a115926a592b79634d39a67cce3b626115ca816119bc565b6115d26109d4565b821015611614576040517f08c379a000000000000000000000000000000000000000000000000000000000815260040161160b90612e37565b60405180910390fd5b816007819055507fa11cbdeb4d62442fae7c8ec6286585b17c47acb7b17bbcab1beadce84befa300826116456119a3565b60405161165392919061294e565b60405180910390a15050565b600a602052805f5260405f205f915054906101000a900460ff1681565b60085481565b600960029054906101000a900460ff1681565b61169e82610ae9565b6116a7816119bc565b6116b18383611c79565b50505050565b5f60015f8473ffffffffffffffffffffffffffffffffffffffff1673ffffffffffffffffffffffffffffffffffffffff1681526020019081526020015f205f8373ffffffffffffffffffffffffffffffffffffffff1673ffffffffffffffffffffffffffffffffffffffff1681526020019081526020015f2054905092915050565b7fae6c2fc584631af4c9385b8a55683f1a75c813747e27efef5afece31c6b230d3611763816119bc565b81600960016101000a81548160ff02191690831515021790555081156117c8577f5668502ca8e7b393c09d1dac964ca45a27870a78d7ba212b7a189450897ca05f436117ad6119a3565b6040516117bb92919061294e565b60405180910390a1611809565b7f98e05482fdb38df5eb461fb932fa6e1af90a3569939ce5a8d92d699b102d6402436117f26119a3565b60405161180092919061294e565b60405180910390a15b5050565b7fea4defabeb90fa1e79f929d6c8d482fee8a115926a592b79634d39a67cce3b6281565b7fae6c2fc584631af4c9385b8a55683f1a75c813747e27efef5afece31c6b230d361185b816119bc565b816008819055505050565b7fae6c2fc584631af4c9385b8a55683f1a75c813747e27efef5afece31c6b230d3611890816119bc565b81600960026101000a81548160ff02191690831515021790555081156118f5577f218e25f0a7435729f5a66aae50a9ed0084535a0080300c1c2e8366d8df7136ed436118da6119a3565b6040516118e892919061294e565b60405180910390a1611936565b7f41606e1dcee38320f9edbfcd642aeaa81bb2140c705de9d4a7814024a1e9a3144361191f6119a3565b60405161192d92919061294e565b60405180910390a15b5050565b5f7f01ffc9a7000000000000000000000000000000000000000000000000000000007bffffffffffffffffffffffffffffffffffffffffffffffffffffffff1916827bffffffffffffffffffffffffffffffffffffffffffffffffffffffff1916149050919050565b5f33905090565b6119b78383836001611e61565b505050565b6119cd816119c86119a3565b612030565b50565b600260065403611a0c576040517f3ee5aeb500000000000000000000000000000000000000000000000000000000815260040160405180910390fd5b6002600681905550565b5f73ffffffffffffffffffffffffffffffffffffffff168373ffffffffffffffffffffffffffffffffffffffff1603611a86575f6040517f96c6fd1e000000000000000000000000000000000000000000000000000000008152600401611a7d9190612e55565b60405180910390fd5b5f73ffffffffffffffffffffffffffffffffffffffff168273ffffffffffffffffffffffffffffffffffffffff1603611af6575f6040517fec442f05000000000000000000000000000000000000000000000000000000008152600401611aed9190612e55565b60405180910390fd5b611b01838383612081565b505050565b5f73ffffffffffffffffffffffffffffffffffffffff168273ffffffffffffffffffffffffffffffffffffffff1603611b76575f6040517f96c6fd1e000000000000000000000000000000000000000000000000000000008152600401611b6d9190612e55565b60405180910390fd5b611b81825f83612081565b5050565b6001600681905550565b5f611b9a838361123a565b611c6f57600160055f8581526020019081526020015f205f015f8473ffffffffffffffffffffffffffffffffffffffff1673ffffffffffffffffffffffffffffffffffffffff1681526020019081526020015f205f6101000a81548160ff021916908315150217905550611c0c6119a3565b73ffffffffffffffffffffffffffffffffffffffff168273ffffffffffffffffffffffffffffffffffffffff16847f2f8788117e7eff1d82e926ec794901d17c78024a50270940304540a733656f0d60405160405180910390a460019050611c73565b5f90505b92915050565b5f611c84838361123a565b15611d59575f60055f8581526020019081526020015f205f015f8473ffffffffffffffffffffffffffffffffffffffff1673ffffffffffffffffffffffffffffffffffffffff1681526020019081526020015f205f6101000a81548160ff021916908315150217905550611cf66119a3565b73ffffffffffffffffffffffffffffffffffffffff168273ffffffffffffffffffffffffffffffffffffffff16847ff6391f5c32d9c69d2a47ea670b442974b53935d1edc7fd64eb21e047a839171b60405160405180910390a460019050611d5d565b5f90505b92915050565b611ddd838473ffffffffffffffffffffffffffffffffffffffff1663a9059cbb8585604051602401611d96929190612cd4565b604051602081830303815290604052915060e01b6020820180517bffffffffffffffffffffffffffffffffffffffffffffffffffffffff838183161783525050505061229a565b505050565b5f73ffffffffffffffffffffffffffffffffffffffff168273ffffffffffffffffffffffffffffffffffffffff1603611e52575f6040517fec442f05000000000000000000000000000000000000000000000000000000008152600401611e499190612e55565b60405180910390fd5b611e5d5f8383612081565b5050565b5f73ffffffffffffffffffffffffffffffffffffffff168473ffffffffffffffffffffffffffffffffffffffff1603611ed1575f6040517fe602df05000000000000000000000000000000000000000000000000000000008152600401611ec89190612e55565b60405180910390fd5b5f73ffffffffffffffffffffffffffffffffffffffff168373ffffffffffffffffffffffffffffffffffffffff1603611f41575f6040517f94280d62000000000000000000000000000000000000000000000000000000008152600401611f389190612e55565b60405180910390fd5b8160015f8673ffffffffffffffffffffffffffffffffffffffff1673ffffffffffffffffffffffffffffffffffffffff1681526020019081526020015f205f8573ffffffffffffffffffffffffffffffffffffffff1673ffffffffffffffffffffffffffffffffffffffff1681526020019081526020015f2081905550801561202a578273ffffffffffffffffffffffffffffffffffffffff168473ffffffffffffffffffffffffffffffffffffffff167f8c5be1e5ebec7d5bd14f71427d1e84f3dd0314c0f7b2291e5b200ac8c7c3b925846040516120219190612404565b60405180910390a35b50505050565b61203a828261123a565b61207d5780826040517fe2517d3f000000000000000000000000000000000000000000000000000000008152600401612074929190612e6e565b60405180910390fd5b5050565b5f73ffffffffffffffffffffffffffffffffffffffff168373ffffffffffffffffffffffffffffffffffffffff16036120d1578060025f8282546120c59190612c39565b9250508190555061219f565b5f805f8573ffffffffffffffffffffffffffffffffffffffff1673ffffffffffffffffffffffffffffffffffffffff1681526020019081526020015f205490508181101561215a578381836040517fe450d38c00000000000000000000000000000000000000000000000000000000815260040161215193929190612e95565b60405180910390fd5b8181035f808673ffffffffffffffffffffffffffffffffffffffff1673ffffffffffffffffffffffffffffffffffffffff1681526020019081526020015f2081905550505b5f73ffffffffffffffffffffffffffffffffffffffff168273ffffffffffffffffffffffffffffffffffffffff16036121e6578060025f8282540392505081905550612230565b805f808473ffffffffffffffffffffffffffffffffffffffff1673ffffffffffffffffffffffffffffffffffffffff1681526020019081526020015f205f82825401925050819055505b8173ffffffffffffffffffffffffffffffffffffffff168373ffffffffffffffffffffffffffffffffffffffff167fddf252ad1be2c89b69c2b068fc378daa952ba7f163c4a11628f55a4df523b3ef8360405161228d9190612404565b60405180910390a3505050565b5f8060205f8451602086015f885af1806122b9576040513d5f823e3d81fd5b3d92505f519150505f82146122d25760018114156122ed565b5f8473ffffffffffffffffffffffffffffffffffffffff163b145b1561232f57836040517f5274afe70000000000000000000000000000000000000000000000000000000081526004016123269190612e55565b60405180910390fd5b50505050565b5f80fd5b5f7fffffffff0000000000000000000000000000000000000000000000000000000082169050919050565b61236d81612339565b8114612377575f80fd5b50565b5f8135905061238881612364565b92915050565b5f602082840312156123a3576123a2612335565b5b5f6123b08482850161237a565b91505092915050565b5f8115159050919050565b6123cd816123b9565b82525050565b5f6020820190506123e65f8301846123c4565b92915050565b5f819050919050565b6123fe816123ec565b82525050565b5f6020820190506124175f8301846123f5565b92915050565b5f81519050919050565b5f82825260208201905092915050565b8281835e5f83830152505050565b5f601f19601f8301169050919050565b5f61245f8261241d565b6124698185612427565b9350612479818560208601612437565b61248281612445565b840191505092915050565b5f6020820190508181035f8301526124a58184612455565b905092915050565b5f73ffffffffffffffffffffffffffffffffffffffff82169050919050565b5f6124d6826124ad565b9050919050565b6124e6816124cc565b81146124f0575f80fd5b50565b5f81359050612501816124dd565b92915050565b612510816123ec565b811461251a575f80fd5b50565b5f8135905061252b81612507565b92915050565b5f806040838503121561254757612546612335565b5b5f612554858286016124f3565b92505060206125658582860161251d565b9150509250929050565b612578816123b9565b8114612582575f80fd5b50565b5f813590506125938161256f565b92915050565b5f602082840312156125ae576125ad612335565b5b5f6125bb84828501612585565b91505092915050565b5f805f606084860312156125db576125da612335565b5b5f6125e8868287016124f3565b93505060206125f9868287016124f3565b925050604061260a8682870161251d565b9150509250925092565b5f819050919050565b61262681612614565b8114612630575f80fd5b50565b5f813590506126418161261d565b92915050565b5f6020828403121561265c5761265b612335565b5b5f61266984828501612633565b91505092915050565b61267b81612614565b82525050565b5f6020820190506126945f830184612672565b92915050565b5f80604083850312156126b0576126af612335565b5b5f6126bd85828601612633565b92505060206126ce858286016124f3565b9150509250929050565b5f60ff82169050919050565b6126ed816126d8565b82525050565b5f6020820190506127065f8301846126e4565b92915050565b5f806040838503121561272257612721612335565b5b5f61272f858286016124f3565b925050602061274085828601612585565b9150509250929050565b5f612754826124cc565b9050919050565b6127648161274a565b811461276e575f80fd5b50565b5f8135905061277f8161275b565b92915050565b5f805f6060848603121561279c5761279b612335565b5b5f6127a986828701612771565b93505060206127ba868287016124f3565b92505060406127cb8682870161251d565b9150509250925092565b5f602082840312156127ea576127e9612335565b5b5f6127f78482850161251d565b91505092915050565b5f61280a826124ad565b9050919050565b61281a81612800565b8114612824575f80fd5b50565b5f8135905061283581612811565b92915050565b5f806040838503121561285157612850612335565b5b5f61285e85828601612827565b925050602061286f8582860161251d565b9150509250929050565b5f6020828403121561288e5761288d612335565b5b5f61289b848285016124f3565b91505092915050565b5f80604083850312156128ba576128b9612335565b5b5f6128c7858286016124f3565b92505060206128d8858286016124f3565b9150509250929050565b7f4e487b71000000000000000000000000000000000000000000000000000000005f52602260045260245ffd5b5f600282049050600182168061292657607f821691505b602082108103612939576129386128e2565b5b50919050565b612948816124cc565b82525050565b5f6040820190506129615f8301856123f5565b61296e602083018461293f565b9392505050565b7f45524332303a207472616e7366657220616d6f756e74206578636565647320615f8201527f6c6c6f77616e6365000000000000000000000000000000000000000000000000602082015250565b5f6129cf602883612427565b91506129da82612975565b604082019050919050565b5f6020820190508181035f8301526129fc816129c3565b9050919050565b7f4e487b71000000000000000000000000000000000000000000000000000000005f52601160045260245ffd5b5f612a3a826123ec565b9150612a45836123ec565b9250828203905081811115612a5d57612a5c612a03565b5b92915050565b7f496e76616c6964206164647265737300000000000000000000000000000000005f82015250565b5f612a97600f83612427565b9150612aa282612a63565b602082019050919050565b5f6020820190508181035f830152612ac481612a8b565b9050919050565b5f819050919050565b5f612aee612ae9612ae4846124ad565b612acb565b6124ad565b9050919050565b5f612aff82612ad4565b9050919050565b5f612b1082612af5565b9050919050565b612b2081612b06565b82525050565b5f608082019050612b395f830187612b17565b612b4660208301866123f5565b612b53604083018561293f565b612b6060608301846123f5565b95945050505050565b7f436f6e74726163743a20436f6e747261637420697320506175736564000000005f82015250565b5f612b9d601c83612427565b9150612ba882612b69565b602082019050919050565b5f6020820190508181035f830152612bca81612b91565b9050919050565b7f4d696e74696e6720746f2064697361626c6564000000000000000000000000005f82015250565b5f612c05601383612427565b9150612c1082612bd1565b602082019050919050565b5f6020820190508181035f830152612c3281612bf9565b9050919050565b5f612c43826123ec565b9150612c4e836123ec565b9250828201905080821115612c6657612c65612a03565b5b92915050565b7f436f6e74726163743a20537570706c79204361702065786365656465640000005f82015250565b5f612ca0601d83612427565b9150612cab82612c6c565b602082019050919050565b5f6020820190508181035f830152612ccd81612c94565b9050919050565b5f604082019050612ce75f83018561293f565b612cf460208301846123f5565b9392505050565b5f612d0582612af5565b9050919050565b612d1581612cfb565b82525050565b5f606082019050612d2e5f830186612d0c565b612d3b60208301856123f5565b612d4860408301846123f5565b949350505050565b5f606082019050612d635f83018661293f565b612d7060208301856123f5565b612d7d604083018461293f565b949350505050565b7f4d696e74696e672064697361626c6564000000000000000000000000000000005f82015250565b5f612db9601083612427565b9150612dc482612d85565b602082019050919050565b5f6020820190508181035f830152612de681612dad565b9050919050565b7f436f6e74726163743a20537570706c792043617020746f6f206c6f77000000005f82015250565b5f612e21601c83612427565b9150612e2c82612ded565b602082019050919050565b5f6020820190508181035f830152612e4e81612e15565b9050919050565b5f602082019050612e685f83018461293f565b92915050565b5f604082019050612e815f83018561293f565b612e8e6020830184612672565b9392505050565b5f606082019050612ea85f83018661293f565b612eb560208301856123f5565b612ec260408301846123f5565b94935050505056fea2646970667358221220bff9d0013640c6ef3513800fbcca4bd42eee571afeaf7e5ad10ebf4b5198a3a364736f6c634300081a0033",
					"opcodes": "PUSH1 0x80 PUSH1 0x40 MSTORE PUSH7 0x11C37937E08000 PUSH1 0x8 SSTORE CALLVALUE DUP1 ISZERO PUSH2 0x1A JUMPI PUSH0 DUP1 REVERT JUMPDEST POP PUSH1 0x40 MLOAD DUP1 PUSH1 0x40 ADD PUSH1 0x40 MSTORE DUP1 PUSH1 0x5 DUP2 MSTORE PUSH1 0x20 ADD PUSH32 0x546F6B656E000000000000000000000000000000000000000000000000000000 DUP2 MSTORE POP PUSH1 0x40 MLOAD DUP1 PUSH1 0x40 ADD PUSH1 0x40 MSTORE DUP1 PUSH1 0x3 DUP2 MSTORE PUSH1 0x20 ADD PUSH32 0x544B4E0000000000000000000000000000000000000000000000000000000000 DUP2 MSTORE POP DUP2 PUSH1 0x3 SWAP1 DUP2 PUSH2 0x96 SWAP2 SWAP1 PUSH2 0x836 JUMP JUMPDEST POP DUP1 PUSH1 0x4 SWAP1 DUP2 PUSH2 0xA6 SWAP2 SWAP1 PUSH2 0x836 JUMP JUMPDEST POP POP POP PUSH1 0x1 PUSH1 0x6 DUP2 SWAP1 SSTORE POP PUSH11 0x84595161401484A000000 PUSH1 0x7 DUP2 SWAP1 SSTORE POP PUSH0 PUSH1 0x9 PUSH1 0x1 PUSH2 0x100 EXP DUP2 SLOAD DUP2 PUSH1 0xFF MUL NOT AND SWAP1 DUP4 ISZERO ISZERO MUL OR SWAP1 SSTORE POP PUSH0 PUSH1 0x9 PUSH1 0x2 PUSH2 0x100 EXP DUP2 SLOAD DUP2 PUSH1 0xFF MUL NOT AND SWAP1 DUP4 ISZERO ISZERO MUL OR SWAP1 SSTORE POP PUSH2 0x116 PUSH0 DUP1 SHL PUSH2 0x10B PUSH2 0x1FD PUSH1 0x20 SHL PUSH1 0x20 SHR JUMP JUMPDEST PUSH2 0x204 PUSH1 0x20 SHL PUSH1 0x20 SHR JUMP JUMPDEST POP PUSH2 0x154 PUSH32 0xAE6C2FC584631AF4C9385B8A55683F1A75C813747E27EFEF5AFECE31C6B230D3 PUSH2 0x149 PUSH2 0x1FD PUSH1 0x20 SHL PUSH1 0x20 SHR JUMP JUMPDEST PUSH2 0x204 PUSH1 0x20 SHL PUSH1 0x20 SHR JUMP JUMPDEST POP PUSH2 0x192 PUSH32 0x8C66330D9D4F6ABA064F25EF2A307366EA6D917616F44C075AA60FA15E5CB1CB PUSH2 0x187 PUSH2 0x1FD PUSH1 0x20 SHL PUSH1 0x20 SHR JUMP JUMPDEST PUSH2 0x204 PUSH1 0x20 SHL PUSH1 0x20 SHR JUMP JUMPDEST POP PUSH2 0x1D0 PUSH32 0x9EDFAD36E7D4D9DA54B4F78F22BF97CB5B58BB7998294A4288DA41C15C647C45 PUSH2 0x1C5 PUSH2 0x1FD PUSH1 0x20 SHL PUSH1 0x20 SHR JUMP JUMPDEST PUSH2 0x204 PUSH1 0x20 SHL PUSH1 0x20 SHR JUMP JUMPDEST POP PUSH2 0x1F8 PUSH2 0x1E2 PUSH2 0x1FD PUSH1 0x20 SHL PUSH1 0x20 SHR JUMP JUMPDEST PUSH10 0xD3C21BCECCEDA1000000 PUSH2 0x2FA PUSH1 0x20 SHL PUSH1 0x20 SHR JUMP JUMPDEST PUSH2 0xA1A JUMP JUMPDEST PUSH0 CALLER SWAP1 POP SWAP1 JUMP JUMPDEST PUSH0 PUSH2 0x215 DUP4 DUP4 PUSH2 0x37F PUSH1 0x20 SHL PUSH1 0x20 SHR JUMP JUMPDEST PUSH2 0x2F0 JUMPI PUSH1 0x1 PUSH1 0x5 PUSH0 DUP6 DUP2 MSTORE PUSH1 0x20 ADD SWAP1 DUP2 MSTORE PUSH1 0x20 ADD PUSH0 KECCAK256 PUSH0 ADD PUSH0 DUP5 PUSH20 0xFFFFFFFFFFFFFFFFFFFFFFFFFFFFFFFFFFFFFFFF AND PUSH20 0xFFFFFFFFFFFFFFFFFFFFFFFFFFFFFFFFFFFFFFFF AND DUP2 MSTORE PUSH1 0x20 ADD SWAP1 DUP2 MSTORE PUSH1 0x20 ADD PUSH0 KECCAK256 PUSH0 PUSH2 0x100 EXP DUP2 SLOAD DUP2 PUSH1 0xFF MUL NOT AND SWAP1 DUP4 ISZERO ISZERO MUL OR SWAP1 SSTORE POP PUSH2 0x28D PUSH2 0x1FD PUSH1 0x20 SHL PUSH1 0x20 SHR JUMP JUMPDEST PUSH20 0xFFFFFFFFFFFFFFFFFFFFFFFFFFFFFFFFFFFFFFFF AND DUP3 PUSH20 0xFFFFFFFFFFFFFFFFFFFFFFFFFFFFFFFFFFFFFFFF AND DUP5 PUSH32 0x2F8788117E7EFF1D82E926EC794901D17C78024A50270940304540A733656F0D PUSH1 0x40 MLOAD PUSH1 0x40 MLOAD DUP1 SWAP2 SUB SWAP1 LOG4 PUSH1 0x1 SWAP1 POP PUSH2 0x2F4 JUMP JUMPDEST PUSH0 SWAP1 POP JUMPDEST SWAP3 SWAP2 POP POP JUMP JUMPDEST PUSH0 PUSH20 0xFFFFFFFFFFFFFFFFFFFFFFFFFFFFFFFFFFFFFFFF AND DUP3 PUSH20 0xFFFFFFFFFFFFFFFFFFFFFFFFFFFFFFFFFFFFFFFF AND SUB PUSH2 0x36A JUMPI PUSH0 PUSH1 0x40 MLOAD PUSH32 0xEC442F0500000000000000000000000000000000000000000000000000000000 DUP2 MSTORE PUSH1 0x4 ADD PUSH2 0x361 SWAP2 SWAP1 PUSH2 0x944 JUMP JUMPDEST PUSH1 0x40 MLOAD DUP1 SWAP2 SUB SWAP1 REVERT JUMPDEST PUSH2 0x37B PUSH0 DUP4 DUP4 PUSH2 0x3E3 PUSH1 0x20 SHL PUSH1 0x20 SHR JUMP JUMPDEST POP POP JUMP JUMPDEST PUSH0 PUSH1 0x5 PUSH0 DUP5 DUP2 MSTORE PUSH1 0x20 ADD SWAP1 DUP2 MSTORE PUSH1 0x20 ADD PUSH0 KECCAK256 PUSH0 ADD PUSH0 DUP4 PUSH20 0xFFFFFFFFFFFFFFFFFFFFFFFFFFFFFFFFFFFFFFFF AND PUSH20 0xFFFFFFFFFFFFFFFFFFFFFFFFFFFFFFFFFFFFFFFF AND DUP2 MSTORE PUSH1 0x20 ADD SWAP1 DUP2 MSTORE PUSH1 0x20 ADD PUSH0 KECCAK256 PUSH0 SWAP1 SLOAD SWAP1 PUSH2 0x100 EXP SWAP1 DIV PUSH1 0xFF AND SWAP1 POP SWAP3 SWAP2 POP POP JUMP JUMPDEST PUSH0 PUSH20 0xFFFFFFFFFFFFFFFFFFFFFFFFFFFFFFFFFFFFFFFF AND DUP4 PUSH20 0xFFFFFFFFFFFFFFFFFFFFFFFFFFFFFFFFFFFFFFFF AND SUB PUSH2 0x433 JUMPI DUP1 PUSH1 0x2 PUSH0 DUP3 DUP3 SLOAD PUSH2 0x427 SWAP2 SWAP1 PUSH2 0x98A JUMP JUMPDEST SWAP3 POP POP DUP2 SWAP1 SSTORE POP PUSH2 0x501 JUMP JUMPDEST PUSH0 DUP1 PUSH0 DUP6 PUSH20 0xFFFFFFFFFFFFFFFFFFFFFFFFFFFFFFFFFFFFFFFF AND PUSH20 0xFFFFFFFFFFFFFFFFFFFFFFFFFFFFFFFFFFFFFFFF AND DUP2 MSTORE PUSH1 0x20 ADD SWAP1 DUP2 MSTORE PUSH1 0x20 ADD PUSH0 KECCAK256 SLOAD SWAP1 POP DUP2 DUP2 LT ISZERO PUSH2 0x4BC JUMPI DUP4 DUP2 DUP4 PUSH1 0x40 MLOAD PUSH32 0xE450D38C00000000000000000000000000000000000000000000000000000000 DUP2 MSTORE PUSH1 0x4 ADD PUSH2 0x4B3 SWAP4 SWAP3 SWAP2 SWAP1 PUSH2 0x9CC JUMP JUMPDEST PUSH1 0x40 MLOAD DUP1 SWAP2 SUB SWAP1 REVERT JUMPDEST DUP2 DUP2 SUB PUSH0 DUP1 DUP7 PUSH20 0xFFFFFFFFFFFFFFFFFFFFFFFFFFFFFFFFFFFFFFFF AND PUSH20 0xFFFFFFFFFFFFFFFFFFFFFFFFFFFFFFFFFFFFFFFF AND DUP2 MSTORE PUSH1 0x20 ADD SWAP1 DUP2 MSTORE PUSH1 0x20 ADD PUSH0 KECCAK256 DUP2 SWAP1 SSTORE POP POP JUMPDEST PUSH0 PUSH20 0xFFFFFFFFFFFFFFFFFFFFFFFFFFFFFFFFFFFFFFFF AND DUP3 PUSH20 0xFFFFFFFFFFFFFFFFFFFFFFFFFFFFFFFFFFFFFFFF AND SUB PUSH2 0x548 JUMPI DUP1 PUSH1 0x2 PUSH0 DUP3 DUP3 SLOAD SUB SWAP3 POP POP DUP2 SWAP1 SSTORE POP PUSH2 0x592 JUMP JUMPDEST DUP1 PUSH0 DUP1 DUP5 PUSH20 0xFFFFFFFFFFFFFFFFFFFFFFFFFFFFFFFFFFFFFFFF AND PUSH20 0xFFFFFFFFFFFFFFFFFFFFFFFFFFFFFFFFFFFFFFFF AND DUP2 MSTORE PUSH1 0x20 ADD SWAP1 DUP2 MSTORE PUSH1 0x20 ADD PUSH0 KECCAK256 PUSH0 DUP3 DUP3 SLOAD ADD SWAP3 POP POP DUP2 SWAP1 SSTORE POP JUMPDEST DUP2 PUSH20 0xFFFFFFFFFFFFFFFFFFFFFFFFFFFFFFFFFFFFFFFF AND DUP4 PUSH20 0xFFFFFFFFFFFFFFFFFFFFFFFFFFFFFFFFFFFFFFFF AND PUSH32 0xDDF252AD1BE2C89B69C2B068FC378DAA952BA7F163C4A11628F55A4DF523B3EF DUP4 PUSH1 0x40 MLOAD PUSH2 0x5EF SWAP2 SWAP1 PUSH2 0xA01 JUMP JUMPDEST PUSH1 0x40 MLOAD DUP1 SWAP2 SUB SWAP1 LOG3 POP POP POP JUMP JUMPDEST PUSH0 DUP2 MLOAD SWAP1 POP SWAP2 SWAP1 POP JUMP JUMPDEST PUSH32 0x4E487B7100000000000000000000000000000000000000000000000000000000 PUSH0 MSTORE PUSH1 0x41 PUSH1 0x4 MSTORE PUSH1 0x24 PUSH0 REVERT JUMPDEST PUSH32 0x4E487B7100000000000000000000000000000000000000000000000000000000 PUSH0 MSTORE PUSH1 0x22 PUSH1 0x4 MSTORE PUSH1 0x24 PUSH0 REVERT JUMPDEST PUSH0 PUSH1 0x2 DUP3 DIV SWAP1 POP PUSH1 0x1 DUP3 AND DUP1 PUSH2 0x677 JUMPI PUSH1 0x7F DUP3 AND SWAP2 POP JUMPDEST PUSH1 0x20 DUP3 LT DUP2 SUB PUSH2 0x68A JUMPI PUSH2 0x689 PUSH2 0x633 JUMP JUMPDEST JUMPDEST POP SWAP2 SWAP1 POP JUMP JUMPDEST PUSH0 DUP2 SWAP1 POP DUP2 PUSH0 MSTORE PUSH1 0x20 PUSH0 KECCAK256 SWAP1 POP SWAP2 SWAP1 POP JUMP JUMPDEST PUSH0 PUSH1 0x20 PUSH1 0x1F DUP4 ADD DIV SWAP1 POP SWAP2 SWAP1 POP JUMP JUMPDEST PUSH0 DUP3 DUP3 SHL SWAP1 POP SWAP3 SWAP2 POP POP JUMP JUMPDEST PUSH0 PUSH1 0x8 DUP4 MUL PUSH2 0x6EC PUSH32 0xFFFFFFFFFFFFFFFFFFFFFFFFFFFFFFFFFFFFFFFFFFFFFFFFFFFFFFFFFFFFFFFF DUP3 PUSH2 0x6B1 JUMP JUMPDEST PUSH2 0x6F6 DUP7 DUP4 PUSH2 0x6B1 JUMP JUMPDEST SWAP6 POP DUP1 NOT DUP5 AND SWAP4 POP DUP1 DUP7 AND DUP5 OR SWAP3 POP POP POP SWAP4 SWAP3 POP POP POP JUMP JUMPDEST PUSH0 DUP2 SWAP1 POP SWAP2 SWAP1 POP JUMP JUMPDEST PUSH0 DUP2 SWAP1 POP SWAP2 SWAP1 POP JUMP JUMPDEST PUSH0 PUSH2 0x73A PUSH2 0x735 PUSH2 0x730 DUP5 PUSH2 0x70E JUMP JUMPDEST PUSH2 0x717 JUMP JUMPDEST PUSH2 0x70E JUMP JUMPDEST SWAP1 POP SWAP2 SWAP1 POP JUMP JUMPDEST PUSH0 DUP2 SWAP1 POP SWAP2 SWAP1 POP JUMP JUMPDEST PUSH2 0x753 DUP4 PUSH2 0x720 JUMP JUMPDEST PUSH2 0x767 PUSH2 0x75F DUP3 PUSH2 0x741 JUMP JUMPDEST DUP5 DUP5 SLOAD PUSH2 0x6BD JUMP JUMPDEST DUP3 SSTORE POP POP POP POP JUMP JUMPDEST PUSH0 SWAP1 JUMP JUMPDEST PUSH2 0x77B PUSH2 0x76F JUMP JUMPDEST PUSH2 0x786 DUP2 DUP5 DUP5 PUSH2 0x74A JUMP JUMPDEST POP POP POP JUMP JUMPDEST JUMPDEST DUP2 DUP2 LT ISZERO PUSH2 0x7A9 JUMPI PUSH2 0x79E PUSH0 DUP3 PUSH2 0x773 JUMP JUMPDEST PUSH1 0x1 DUP2 ADD SWAP1 POP PUSH2 0x78C JUMP JUMPDEST POP POP JUMP JUMPDEST PUSH1 0x1F DUP3 GT ISZERO PUSH2 0x7EE JUMPI PUSH2 0x7BF DUP2 PUSH2 0x690 JUMP JUMPDEST PUSH2 0x7C8 DUP5 PUSH2 0x6A2 JUMP JUMPDEST DUP2 ADD PUSH1 0x20 DUP6 LT ISZERO PUSH2 0x7D7 JUMPI DUP2 SWAP1 POP JUMPDEST PUSH2 0x7EB PUSH2 0x7E3 DUP6 PUSH2 0x6A2 JUMP JUMPDEST DUP4 ADD DUP3 PUSH2 0x78B JUMP JUMPDEST POP POP JUMPDEST POP POP POP JUMP JUMPDEST PUSH0 DUP3 DUP3 SHR SWAP1 POP SWAP3 SWAP2 POP POP JUMP JUMPDEST PUSH0 PUSH2 0x80E PUSH0 NOT DUP5 PUSH1 0x8 MUL PUSH2 0x7F3 JUMP JUMPDEST NOT DUP1 DUP4 AND SWAP2 POP POP SWAP3 SWAP2 POP POP JUMP JUMPDEST PUSH0 PUSH2 0x826 DUP4 DUP4 PUSH2 0x7FF JUMP JUMPDEST SWAP2 POP DUP3 PUSH1 0x2 MUL DUP3 OR SWAP1 POP SWAP3 SWAP2 POP POP JUMP JUMPDEST PUSH2 0x83F DUP3 PUSH2 0x5FC JUMP JUMPDEST PUSH8 0xFFFFFFFFFFFFFFFF DUP2 GT ISZERO PUSH2 0x858 JUMPI PUSH2 0x857 PUSH2 0x606 JUMP JUMPDEST JUMPDEST PUSH2 0x862 DUP3 SLOAD PUSH2 0x660 JUMP JUMPDEST PUSH2 0x86D DUP3 DUP3 DUP6 PUSH2 0x7AD JUMP JUMPDEST PUSH0 PUSH1 0x20 SWAP1 POP PUSH1 0x1F DUP4 GT PUSH1 0x1 DUP2 EQ PUSH2 0x89E JUMPI PUSH0 DUP5 ISZERO PUSH2 0x88C JUMPI DUP3 DUP8 ADD MLOAD SWAP1 POP JUMPDEST PUSH2 0x896 DUP6 DUP3 PUSH2 0x81B JUMP JUMPDEST DUP7 SSTORE POP PUSH2 0x8FD JUMP JUMPDEST PUSH1 0x1F NOT DUP5 AND PUSH2 0x8AC DUP7 PUSH2 0x690 JUMP JUMPDEST PUSH0 JUMPDEST DUP3 DUP2 LT ISZERO PUSH2 0x8D3 JUMPI DUP5 DUP10 ADD MLOAD DUP3 SSTORE PUSH1 0x1 DUP3 ADD SWAP2 POP PUSH1 0x20 DUP6 ADD SWAP5 POP PUSH1 0x20 DUP2 ADD SWAP1 POP PUSH2 0x8AE JUMP JUMPDEST DUP7 DUP4 LT ISZERO PUSH2 0x8F0 JUMPI DUP5 DUP10 ADD MLOAD PUSH2 0x8EC PUSH1 0x1F DUP10 AND DUP3 PUSH2 0x7FF JUMP JUMPDEST DUP4 SSTORE POP JUMPDEST PUSH1 0x1 PUSH1 0x2 DUP9 MUL ADD DUP9 SSTORE POP POP POP JUMPDEST POP POP POP POP POP POP JUMP JUMPDEST PUSH0 PUSH20 0xFFFFFFFFFFFFFFFFFFFFFFFFFFFFFFFFFFFFFFFF DUP3 AND SWAP1 POP SWAP2 SWAP1 POP JUMP JUMPDEST PUSH0 PUSH2 0x92E DUP3 PUSH2 0x905 JUMP JUMPDEST SWAP1 POP SWAP2 SWAP1 POP JUMP JUMPDEST PUSH2 0x93E DUP2 PUSH2 0x924 JUMP JUMPDEST DUP3 MSTORE POP POP JUMP JUMPDEST PUSH0 PUSH1 0x20 DUP3 ADD SWAP1 POP PUSH2 0x957 PUSH0 DUP4 ADD DUP5 PUSH2 0x935 JUMP JUMPDEST SWAP3 SWAP2 POP POP JUMP JUMPDEST PUSH32 0x4E487B7100000000000000000000000000000000000000000000000000000000 PUSH0 MSTORE PUSH1 0x11 PUSH1 0x4 MSTORE PUSH1 0x24 PUSH0 REVERT JUMPDEST PUSH0 PUSH2 0x994 DUP3 PUSH2 0x70E JUMP JUMPDEST SWAP2 POP PUSH2 0x99F DUP4 PUSH2 0x70E JUMP JUMPDEST SWAP3 POP DUP3 DUP3 ADD SWAP1 POP DUP1 DUP3 GT ISZERO PUSH2 0x9B7 JUMPI PUSH2 0x9B6 PUSH2 0x95D JUMP JUMPDEST JUMPDEST SWAP3 SWAP2 POP POP JUMP JUMPDEST PUSH2 0x9C6 DUP2 PUSH2 0x70E JUMP JUMPDEST DUP3 MSTORE POP POP JUMP JUMPDEST PUSH0 PUSH1 0x60 DUP3 ADD SWAP1 POP PUSH2 0x9DF PUSH0 DUP4 ADD DUP7 PUSH2 0x935 JUMP JUMPDEST PUSH2 0x9EC PUSH1 0x20 DUP4 ADD DUP6 PUSH2 0x9BD JUMP JUMPDEST PUSH2 0x9F9 PUSH1 0x40 DUP4 ADD DUP5 PUSH2 0x9BD JUMP JUMPDEST SWAP5 SWAP4 POP POP POP POP JUMP JUMPDEST PUSH0 PUSH1 0x20 DUP3 ADD SWAP1 POP PUSH2 0xA14 PUSH0 DUP4 ADD DUP5 PUSH2 0x9BD JUMP JUMPDEST SWAP3 SWAP2 POP POP JUMP JUMPDEST PUSH2 0x2F00 DUP1 PUSH2 0xA27 PUSH0 CODECOPY PUSH0 RETURN INVALID PUSH1 0x80 PUSH1 0x40 MSTORE CALLVALUE DUP1 ISZERO PUSH2 0xF JUMPI PUSH0 DUP1 REVERT JUMPDEST POP PUSH1 0x4 CALLDATASIZE LT PUSH2 0x25C JUMPI PUSH0 CALLDATALOAD PUSH1 0xE0 SHR DUP1 PUSH4 0x79CC6790 GT PUSH2 0x144 JUMPI DUP1 PUSH4 0xA9059CBB GT PUSH2 0xC1 JUMPI DUP1 PUSH4 0xD547741F GT PUSH2 0x85 JUMPI DUP1 PUSH4 0xD547741F EQ PUSH2 0x712 JUMPI DUP1 PUSH4 0xDD62ED3E EQ PUSH2 0x72E JUMPI DUP1 PUSH4 0xDEB6DB36 EQ PUSH2 0x75E JUMPI DUP1 PUSH4 0xEA5CB532 EQ PUSH2 0x77A JUMPI DUP1 PUSH4 0xF05D16F7 EQ PUSH2 0x798 JUMPI DUP1 PUSH4 0xF2250D3D EQ PUSH2 0x7B4 JUMPI PUSH2 0x25C JUMP JUMPDEST DUP1 PUSH4 0xA9059CBB EQ PUSH2 0x65A JUMPI DUP1 PUSH4 0xB6A3F59A EQ PUSH2 0x68A JUMPI DUP1 PUSH4 0xC30796AB EQ PUSH2 0x6A6 JUMPI DUP1 PUSH4 0xCF820461 EQ PUSH2 0x6D6 JUMPI DUP1 PUSH4 0xD1C9F69B EQ PUSH2 0x6F4 JUMPI PUSH2 0x25C JUMP JUMPDEST DUP1 PUSH4 0x91D14854 GT PUSH2 0x108 JUMPI DUP1 PUSH4 0x91D14854 EQ PUSH2 0x5B4 JUMPI DUP1 PUSH4 0x956FECCF EQ PUSH2 0x5E4 JUMPI DUP1 PUSH4 0x95D89B41 EQ PUSH2 0x602 JUMPI DUP1 PUSH4 0xA0712D68 EQ PUSH2 0x620 JUMPI DUP1 PUSH4 0xA217FDDF EQ PUSH2 0x63C JUMPI PUSH2 0x25C JUMP JUMPDEST DUP1 PUSH4 0x79CC6790 EQ PUSH2 0x520 JUMPI DUP1 PUSH4 0x7E92A7FD EQ PUSH2 0x53C JUMPI DUP1 PUSH4 0x8D580B9F EQ PUSH2 0x55A JUMPI DUP1 PUSH4 0x8EBED5B1 EQ PUSH2 0x578 JUMPI DUP1 PUSH4 0x8F770AD0 EQ PUSH2 0x596 JUMPI PUSH2 0x25C JUMP JUMPDEST DUP1 PUSH4 0x36568ABE GT PUSH2 0x1DD JUMPI DUP1 PUSH4 0x48132F48 GT PUSH2 0x1A1 JUMPI DUP1 PUSH4 0x48132F48 EQ PUSH2 0x45C JUMPI DUP1 PUSH4 0x51557289 EQ PUSH2 0x478 JUMPI DUP1 PUSH4 0x53A4C31E EQ PUSH2 0x496 JUMPI DUP1 PUSH4 0x5C975ABB EQ PUSH2 0x4B4 JUMPI DUP1 PUSH4 0x6BA77A38 EQ PUSH2 0x4D2 JUMPI DUP1 PUSH4 0x70A08231 EQ PUSH2 0x4F0 JUMPI PUSH2 0x25C JUMP JUMPDEST DUP1 PUSH4 0x36568ABE EQ PUSH2 0x3D0 JUMPI DUP1 PUSH4 0x3F914AEF EQ PUSH2 0x3EC JUMPI DUP1 PUSH4 0x41F431FD EQ PUSH2 0x408 JUMPI DUP1 PUSH4 0x42966C68 EQ PUSH2 0x424 JUMPI DUP1 PUSH4 0x449A52F8 EQ PUSH2 0x440 JUMPI PUSH2 0x25C JUMP JUMPDEST DUP1 PUSH4 0x18160DDD GT PUSH2 0x224 JUMPI DUP1 PUSH4 0x18160DDD EQ PUSH2 0x318 JUMPI DUP1 PUSH4 0x23B872DD EQ PUSH2 0x336 JUMPI DUP1 PUSH4 0x248A9CA3 EQ PUSH2 0x366 JUMPI DUP1 PUSH4 0x2F2FF15D EQ PUSH2 0x396 JUMPI DUP1 PUSH4 0x313CE567 EQ PUSH2 0x3B2 JUMPI PUSH2 0x25C JUMP JUMPDEST DUP1 PUSH4 0x1FFC9A7 EQ PUSH2 0x260 JUMPI DUP1 PUSH4 0x60CF4E8 EQ PUSH2 0x290 JUMPI DUP1 PUSH4 0x6FDDE03 EQ PUSH2 0x2AE JUMPI DUP1 PUSH4 0x95EA7B3 EQ PUSH2 0x2CC JUMPI DUP1 PUSH4 0x16C38B3C EQ PUSH2 0x2FC JUMPI JUMPDEST PUSH0 DUP1 REVERT JUMPDEST PUSH2 0x27A PUSH1 0x4 DUP1 CALLDATASIZE SUB DUP2 ADD SWAP1 PUSH2 0x275 SWAP2 SWAP1 PUSH2 0x238E JUMP JUMPDEST PUSH2 0x7D0 JUMP JUMPDEST PUSH1 0x40 MLOAD PUSH2 0x287 SWAP2 SWAP1 PUSH2 0x23D3 JUMP JUMPDEST PUSH1 0x40 MLOAD DUP1 SWAP2 SUB SWAP1 RETURN JUMPDEST PUSH2 0x298 PUSH2 0x849 JUMP JUMPDEST PUSH1 0x40 MLOAD PUSH2 0x2A5 SWAP2 SWAP1 PUSH2 0x2404 JUMP JUMPDEST PUSH1 0x40 MLOAD DUP1 SWAP2 SUB SWAP1 RETURN JUMPDEST PUSH2 0x2B6 PUSH2 0x84F JUMP JUMPDEST PUSH1 0x40 MLOAD PUSH2 0x2C3 SWAP2 SWAP1 PUSH2 0x248D JUMP JUMPDEST PUSH1 0x40 MLOAD DUP1 SWAP2 SUB SWAP1 RETURN JUMPDEST PUSH2 0x2E6 PUSH1 0x4 DUP1 CALLDATASIZE SUB DUP2 ADD SWAP1 PUSH2 0x2E1 SWAP2 SWAP1 PUSH2 0x2531 JUMP JUMPDEST PUSH2 0x8DF JUMP JUMPDEST PUSH1 0x40 MLOAD PUSH2 0x2F3 SWAP2 SWAP1 PUSH2 0x23D3 JUMP JUMPDEST PUSH1 0x40 MLOAD DUP1 SWAP2 SUB SWAP1 RETURN JUMPDEST PUSH2 0x316 PUSH1 0x4 DUP1 CALLDATASIZE SUB DUP2 ADD SWAP1 PUSH2 0x311 SWAP2 SWAP1 PUSH2 0x2599 JUMP JUMPDEST PUSH2 0x901 JUMP JUMPDEST STOP JUMPDEST PUSH2 0x320 PUSH2 0x9D4 JUMP JUMPDEST PUSH1 0x40 MLOAD PUSH2 0x32D SWAP2 SWAP1 PUSH2 0x2404 JUMP JUMPDEST PUSH1 0x40 MLOAD DUP1 SWAP2 SUB SWAP1 RETURN JUMPDEST PUSH2 0x350 PUSH1 0x4 DUP1 CALLDATASIZE SUB DUP2 ADD SWAP1 PUSH2 0x34B SWAP2 SWAP1 PUSH2 0x25C4 JUMP JUMPDEST PUSH2 0x9DD JUMP JUMPDEST PUSH1 0x40 MLOAD PUSH2 0x35D SWAP2 SWAP1 PUSH2 0x23D3 JUMP JUMPDEST PUSH1 0x40 MLOAD DUP1 SWAP2 SUB SWAP1 RETURN JUMPDEST PUSH2 0x380 PUSH1 0x4 DUP1 CALLDATASIZE SUB DUP2 ADD SWAP1 PUSH2 0x37B SWAP2 SWAP1 PUSH2 0x2647 JUMP JUMPDEST PUSH2 0xAE9 JUMP JUMPDEST PUSH1 0x40 MLOAD PUSH2 0x38D SWAP2 SWAP1 PUSH2 0x2681 JUMP JUMPDEST PUSH1 0x40 MLOAD DUP1 SWAP2 SUB SWAP1 RETURN JUMPDEST PUSH2 0x3B0 PUSH1 0x4 DUP1 CALLDATASIZE SUB DUP2 ADD SWAP1 PUSH2 0x3AB SWAP2 SWAP1 PUSH2 0x269A JUMP JUMPDEST PUSH2 0xB06 JUMP JUMPDEST STOP JUMPDEST PUSH2 0x3BA PUSH2 0xB28 JUMP JUMPDEST PUSH1 0x40 MLOAD PUSH2 0x3C7 SWAP2 SWAP1 PUSH2 0x26F3 JUMP JUMPDEST PUSH1 0x40 MLOAD DUP1 SWAP2 SUB SWAP1 RETURN JUMPDEST PUSH2 0x3EA PUSH1 0x4 DUP1 CALLDATASIZE SUB DUP2 ADD SWAP1 PUSH2 0x3E5 SWAP2 SWAP1 PUSH2 0x269A JUMP JUMPDEST PUSH2 0xB30 JUMP JUMPDEST STOP JUMPDEST PUSH2 0x406 PUSH1 0x4 DUP1 CALLDATASIZE SUB DUP2 ADD SWAP1 PUSH2 0x401 SWAP2 SWAP1 PUSH2 0x270C JUMP JUMPDEST PUSH2 0xBAB JUMP JUMPDEST STOP JUMPDEST PUSH2 0x422 PUSH1 0x4 DUP1 CALLDATASIZE SUB DUP2 ADD SWAP1 PUSH2 0x41D SWAP2 SWAP1 PUSH2 0x2785 JUMP JUMPDEST PUSH2 0xC9C JUMP JUMPDEST STOP JUMPDEST PUSH2 0x43E PUSH1 0x4 DUP1 CALLDATASIZE SUB DUP2 ADD SWAP1 PUSH2 0x439 SWAP2 SWAP1 PUSH2 0x27D5 JUMP JUMPDEST PUSH2 0xD44 JUMP JUMPDEST STOP JUMPDEST PUSH2 0x45A PUSH1 0x4 DUP1 CALLDATASIZE SUB DUP2 ADD SWAP1 PUSH2 0x455 SWAP2 SWAP1 PUSH2 0x2531 JUMP JUMPDEST PUSH2 0xE12 JUMP JUMPDEST STOP JUMPDEST PUSH2 0x476 PUSH1 0x4 DUP1 CALLDATASIZE SUB DUP2 ADD SWAP1 PUSH2 0x471 SWAP2 SWAP1 PUSH2 0x283B JUMP JUMPDEST PUSH2 0xF7A JUMP JUMPDEST STOP JUMPDEST PUSH2 0x480 PUSH2 0x1038 JUMP JUMPDEST PUSH1 0x40 MLOAD PUSH2 0x48D SWAP2 SWAP1 PUSH2 0x2681 JUMP JUMPDEST PUSH1 0x40 MLOAD DUP1 SWAP2 SUB SWAP1 RETURN JUMPDEST PUSH2 0x49E PUSH2 0x105C JUMP JUMPDEST PUSH1 0x40 MLOAD PUSH2 0x4AB SWAP2 SWAP1 PUSH2 0x2681 JUMP JUMPDEST PUSH1 0x40 MLOAD DUP1 SWAP2 SUB SWAP1 RETURN JUMPDEST PUSH2 0x4BC PUSH2 0x1080 JUMP JUMPDEST PUSH1 0x40 MLOAD PUSH2 0x4C9 SWAP2 SWAP1 PUSH2 0x23D3 JUMP JUMPDEST PUSH1 0x40 MLOAD DUP1 SWAP2 SUB SWAP1 RETURN JUMPDEST PUSH2 0x4DA PUSH2 0x1092 JUMP JUMPDEST PUSH1 0x40 MLOAD PUSH2 0x4E7 SWAP2 SWAP1 PUSH2 0x2681 JUMP JUMPDEST PUSH1 0x40 MLOAD DUP1 SWAP2 SUB SWAP1 RETURN JUMPDEST PUSH2 0x50A PUSH1 0x4 DUP1 CALLDATASIZE SUB DUP2 ADD SWAP1 PUSH2 0x505 SWAP2 SWAP1 PUSH2 0x2879 JUMP JUMPDEST PUSH2 0x10B6 JUMP JUMPDEST PUSH1 0x40 MLOAD PUSH2 0x517 SWAP2 SWAP1 PUSH2 0x2404 JUMP JUMPDEST PUSH1 0x40 MLOAD DUP1 SWAP2 SUB SWAP1 RETURN JUMPDEST PUSH2 0x53A PUSH1 0x4 DUP1 CALLDATASIZE SUB DUP2 ADD SWAP1 PUSH2 0x535 SWAP2 SWAP1 PUSH2 0x2531 JUMP JUMPDEST PUSH2 0x10FB JUMP JUMPDEST STOP JUMPDEST PUSH2 0x544 PUSH2 0x11C5 JUMP JUMPDEST PUSH1 0x40 MLOAD PUSH2 0x551 SWAP2 SWAP1 PUSH2 0x2681 JUMP JUMPDEST PUSH1 0x40 MLOAD DUP1 SWAP2 SUB SWAP1 RETURN JUMPDEST PUSH2 0x562 PUSH2 0x11E9 JUMP JUMPDEST PUSH1 0x40 MLOAD PUSH2 0x56F SWAP2 SWAP1 PUSH2 0x2681 JUMP JUMPDEST PUSH1 0x40 MLOAD DUP1 SWAP2 SUB SWAP1 RETURN JUMPDEST PUSH2 0x580 PUSH2 0x120D JUMP JUMPDEST PUSH1 0x40 MLOAD PUSH2 0x58D SWAP2 SWAP1 PUSH2 0x2681 JUMP JUMPDEST PUSH1 0x40 MLOAD DUP1 SWAP2 SUB SWAP1 RETURN JUMPDEST PUSH2 0x59E PUSH2 0x1231 JUMP JUMPDEST PUSH1 0x40 MLOAD PUSH2 0x5AB SWAP2 SWAP1 PUSH2 0x2404 JUMP JUMPDEST PUSH1 0x40 MLOAD DUP1 SWAP2 SUB SWAP1 RETURN JUMPDEST PUSH2 0x5CE PUSH1 0x4 DUP1 CALLDATASIZE SUB DUP2 ADD SWAP1 PUSH2 0x5C9 SWAP2 SWAP1 PUSH2 0x269A JUMP JUMPDEST PUSH2 0x123A JUMP JUMPDEST PUSH1 0x40 MLOAD PUSH2 0x5DB SWAP2 SWAP1 PUSH2 0x23D3 JUMP JUMPDEST PUSH1 0x40 MLOAD DUP1 SWAP2 SUB SWAP1 RETURN JUMPDEST PUSH2 0x5EC PUSH2 0x129E JUMP JUMPDEST PUSH1 0x40 MLOAD PUSH2 0x5F9 SWAP2 SWAP1 PUSH2 0x23D3 JUMP JUMPDEST PUSH1 0x40 MLOAD DUP1 SWAP2 SUB SWAP1 RETURN JUMPDEST PUSH2 0x60A PUSH2 0x12B1 JUMP JUMPDEST PUSH1 0x40 MLOAD PUSH2 0x617 SWAP2 SWAP1 PUSH2 0x248D JUMP JUMPDEST PUSH1 0x40 MLOAD DUP1 SWAP2 SUB SWAP1 RETURN JUMPDEST PUSH2 0x63A PUSH1 0x4 DUP1 CALLDATASIZE SUB DUP2 ADD SWAP1 PUSH2 0x635 SWAP2 SWAP1 PUSH2 0x27D5 JUMP JUMPDEST PUSH2 0x1341 JUMP JUMPDEST STOP JUMPDEST PUSH2 0x644 PUSH2 0x14AD JUMP JUMPDEST PUSH1 0x40 MLOAD PUSH2 0x651 SWAP2 SWAP1 PUSH2 0x2681 JUMP JUMPDEST PUSH1 0x40 MLOAD DUP1 SWAP2 SUB SWAP1 RETURN JUMPDEST PUSH2 0x674 PUSH1 0x4 DUP1 CALLDATASIZE SUB DUP2 ADD SWAP1 PUSH2 0x66F SWAP2 SWAP1 PUSH2 0x2531 JUMP JUMPDEST PUSH2 0x14B3 JUMP JUMPDEST PUSH1 0x40 MLOAD PUSH2 0x681 SWAP2 SWAP1 PUSH2 0x23D3 JUMP JUMPDEST PUSH1 0x40 MLOAD DUP1 SWAP2 SUB SWAP1 RETURN JUMPDEST PUSH2 0x6A4 PUSH1 0x4 DUP1 CALLDATASIZE SUB DUP2 ADD SWAP1 PUSH2 0x69F SWAP2 SWAP1 PUSH2 0x27D5 JUMP JUMPDEST PUSH2 0x1551 JUMP JUMPDEST STOP JUMPDEST PUSH2 0x6C0 PUSH1 0x4 DUP1 CALLDATASIZE SUB DUP2 ADD SWAP1 PUSH2 0x6BB SWAP2 SWAP1 PUSH2 0x2879 JUMP JUMPDEST PUSH2 0x165F JUMP JUMPDEST PUSH1 0x40 MLOAD PUSH2 0x6CD SWAP2 SWAP1 PUSH2 0x23D3 JUMP JUMPDEST PUSH1 0x40 MLOAD DUP1 SWAP2 SUB SWAP1 RETURN JUMPDEST PUSH2 0x6DE PUSH2 0x167C JUMP JUMPDEST PUSH1 0x40 MLOAD PUSH2 0x6EB SWAP2 SWAP1 PUSH2 0x2404 JUMP JUMPDEST PUSH1 0x40 MLOAD DUP1 SWAP2 SUB SWAP1 RETURN JUMPDEST PUSH2 0x6FC PUSH2 0x1682 JUMP JUMPDEST PUSH1 0x40 MLOAD PUSH2 0x709 SWAP2 SWAP1 PUSH2 0x23D3 JUMP JUMPDEST PUSH1 0x40 MLOAD DUP1 SWAP2 SUB SWAP1 RETURN JUMPDEST PUSH2 0x72C PUSH1 0x4 DUP1 CALLDATASIZE SUB DUP2 ADD SWAP1 PUSH2 0x727 SWAP2 SWAP1 PUSH2 0x269A JUMP JUMPDEST PUSH2 0x1695 JUMP JUMPDEST STOP JUMPDEST PUSH2 0x748 PUSH1 0x4 DUP1 CALLDATASIZE SUB DUP2 ADD SWAP1 PUSH2 0x743 SWAP2 SWAP1 PUSH2 0x28A4 JUMP JUMPDEST PUSH2 0x16B7 JUMP JUMPDEST PUSH1 0x40 MLOAD PUSH2 0x755 SWAP2 SWAP1 PUSH2 0x2404 JUMP JUMPDEST PUSH1 0x40 MLOAD DUP1 SWAP2 SUB SWAP1 RETURN JUMPDEST PUSH2 0x778 PUSH1 0x4 DUP1 CALLDATASIZE SUB DUP2 ADD SWAP1 PUSH2 0x773 SWAP2 SWAP1 PUSH2 0x2599 JUMP JUMPDEST PUSH2 0x1739 JUMP JUMPDEST STOP JUMPDEST PUSH2 0x782 PUSH2 0x180D JUMP JUMPDEST PUSH1 0x40 MLOAD PUSH2 0x78F SWAP2 SWAP1 PUSH2 0x2681 JUMP JUMPDEST PUSH1 0x40 MLOAD DUP1 SWAP2 SUB SWAP1 RETURN JUMPDEST PUSH2 0x7B2 PUSH1 0x4 DUP1 CALLDATASIZE SUB DUP2 ADD SWAP1 PUSH2 0x7AD SWAP2 SWAP1 PUSH2 0x27D5 JUMP JUMPDEST PUSH2 0x1831 JUMP JUMPDEST STOP JUMPDEST PUSH2 0x7CE PUSH1 0x4 DUP1 CALLDATASIZE SUB DUP2 ADD SWAP1 PUSH2 0x7C9 SWAP2 SWAP1 PUSH2 0x2599 JUMP JUMPDEST PUSH2 0x1866 JUMP JUMPDEST STOP JUMPDEST PUSH0 PUSH32 0x7965DB0B00000000000000000000000000000000000000000000000000000000 PUSH28 0xFFFFFFFFFFFFFFFFFFFFFFFFFFFFFFFFFFFFFFFFFFFFFFFFFFFFFFFF NOT AND DUP3 PUSH28 0xFFFFFFFFFFFFFFFFFFFFFFFFFFFFFFFFFFFFFFFFFFFFFFFFFFFFFFFF NOT AND EQ DUP1 PUSH2 0x842 JUMPI POP PUSH2 0x841 DUP3 PUSH2 0x193A JUMP JUMPDEST JUMPDEST SWAP1 POP SWAP2 SWAP1 POP JUMP JUMPDEST PUSH1 0x7 SLOAD DUP2 JUMP JUMPDEST PUSH1 0x60 PUSH1 0x3 DUP1 SLOAD PUSH2 0x85E SWAP1 PUSH2 0x290F JUMP JUMPDEST DUP1 PUSH1 0x1F ADD PUSH1 0x20 DUP1 SWAP2 DIV MUL PUSH1 0x20 ADD PUSH1 0x40 MLOAD SWAP1 DUP2 ADD PUSH1 0x40 MSTORE DUP1 SWAP3 SWAP2 SWAP1 DUP2 DUP2 MSTORE PUSH1 0x20 ADD DUP3 DUP1 SLOAD PUSH2 0x88A SWAP1 PUSH2 0x290F JUMP JUMPDEST DUP1 ISZERO PUSH2 0x8D5 JUMPI DUP1 PUSH1 0x1F LT PUSH2 0x8AC JUMPI PUSH2 0x100 DUP1 DUP4 SLOAD DIV MUL DUP4 MSTORE SWAP2 PUSH1 0x20 ADD SWAP2 PUSH2 0x8D5 JUMP JUMPDEST DUP3 ADD SWAP2 SWAP1 PUSH0 MSTORE PUSH1 0x20 PUSH0 KECCAK256 SWAP1 JUMPDEST DUP2 SLOAD DUP2 MSTORE SWAP1 PUSH1 0x1 ADD SWAP1 PUSH1 0x20 ADD DUP1 DUP4 GT PUSH2 0x8B8 JUMPI DUP3 SWAP1 SUB PUSH1 0x1F AND DUP3 ADD SWAP2 JUMPDEST POP POP POP POP POP SWAP1 POP SWAP1 JUMP JUMPDEST PUSH0 DUP1 PUSH2 0x8E9 PUSH2 0x19A3 JUMP JUMPDEST SWAP1 POP PUSH2 0x8F6 DUP2 DUP6 DUP6 PUSH2 0x19AA JUMP JUMPDEST PUSH1 0x1 SWAP2 POP POP SWAP3 SWAP2 POP POP JUMP JUMPDEST PUSH32 0xAE6C2FC584631AF4C9385B8A55683F1A75C813747E27EFEF5AFECE31C6B230D3 PUSH2 0x92B DUP2 PUSH2 0x19BC JUMP JUMPDEST DUP2 PUSH1 0x9 PUSH0 PUSH2 0x100 EXP DUP2 SLOAD DUP2 PUSH1 0xFF MUL NOT AND SWAP1 DUP4 ISZERO ISZERO MUL OR SWAP1 SSTORE POP DUP2 ISZERO PUSH2 0x98F JUMPI PUSH32 0xD8C9C5623123DF8E137854C59A08F9084B75609FE24584228D44FFDCE5AB920A NUMBER PUSH2 0x974 PUSH2 0x19A3 JUMP JUMPDEST PUSH1 0x40 MLOAD PUSH2 0x982 SWAP3 SWAP2 SWAP1 PUSH2 0x294E JUMP JUMPDEST PUSH1 0x40 MLOAD DUP1 SWAP2 SUB SWAP1 LOG1 PUSH2 0x9D0 JUMP JUMPDEST PUSH32 0x1E7A7234AD01ED7353BF129217F5C162773639A6CB22773E84BCD5A2B0EF362E NUMBER PUSH2 0x9B9 PUSH2 0x19A3 JUMP JUMPDEST PUSH1 0x40 MLOAD PUSH2 0x9C7 SWAP3 SWAP2 SWAP1 PUSH2 0x294E JUMP JUMPDEST PUSH1 0x40 MLOAD DUP1 SWAP2 SUB SWAP1 LOG1 JUMPDEST POP POP JUMP JUMPDEST PUSH0 PUSH1 0x2 SLOAD SWAP1 POP SWAP1 JUMP JUMPDEST PUSH0 PUSH2 0x9E6 PUSH2 0x19D0 JUMP JUMPDEST PUSH0 PUSH2 0x9EF PUSH2 0x19A3 JUMP JUMPDEST SWAP1 POP PUSH0 PUSH2 0x9FC DUP7 DUP4 PUSH2 0x16B7 JUMP JUMPDEST SWAP1 POP DUP4 DUP2 LT ISZERO PUSH2 0xA41 JUMPI PUSH1 0x40 MLOAD PUSH32 0x8C379A000000000000000000000000000000000000000000000000000000000 DUP2 MSTORE PUSH1 0x4 ADD PUSH2 0xA38 SWAP1 PUSH2 0x29E5 JUMP JUMPDEST PUSH1 0x40 MLOAD DUP1 SWAP2 SUB SWAP1 REVERT JUMPDEST PUSH2 0xA57 DUP7 DUP4 DUP7 DUP5 PUSH2 0xA52 SWAP2 SWAP1 PUSH2 0x2A30 JUMP JUMPDEST PUSH2 0x19AA JUMP JUMPDEST PUSH1 0x1 ISZERO ISZERO PUSH1 0xA PUSH0 DUP5 PUSH20 0xFFFFFFFFFFFFFFFFFFFFFFFFFFFFFFFFFFFFFFFF AND PUSH20 0xFFFFFFFFFFFFFFFFFFFFFFFFFFFFFFFFFFFFFFFF AND DUP2 MSTORE PUSH1 0x20 ADD SWAP1 DUP2 MSTORE PUSH1 0x20 ADD PUSH0 KECCAK256 PUSH0 SWAP1 SLOAD SWAP1 PUSH2 0x100 EXP SWAP1 DIV PUSH1 0xFF AND ISZERO ISZERO SUB PUSH2 0xABC JUMPI PUSH2 0xAB7 DUP7 DUP7 DUP7 PUSH2 0x1A16 JUMP JUMPDEST PUSH2 0xAD4 JUMP JUMPDEST PUSH2 0xAC7 DUP7 DUP7 DUP7 PUSH2 0x1A16 JUMP JUMPDEST PUSH2 0xAD3 DUP7 PUSH1 0x8 SLOAD PUSH2 0x1B06 JUMP JUMPDEST JUMPDEST PUSH1 0x1 SWAP3 POP POP POP PUSH2 0xAE2 PUSH2 0x1B85 JUMP JUMPDEST SWAP4 SWAP3 POP POP POP JUMP JUMPDEST PUSH0 PUSH1 0x5 PUSH0 DUP4 DUP2 MSTORE PUSH1 0x20 ADD SWAP1 DUP2 MSTORE PUSH1 0x20 ADD PUSH0 KECCAK256 PUSH1 0x1 ADD SLOAD SWAP1 POP SWAP2 SWAP1 POP JUMP JUMPDEST PUSH2 0xB0F DUP3 PUSH2 0xAE9 JUMP JUMPDEST PUSH2 0xB18 DUP2 PUSH2 0x19BC JUMP JUMPDEST PUSH2 0xB22 DUP4 DUP4 PUSH2 0x1B8F JUMP JUMPDEST POP POP POP POP JUMP JUMPDEST PUSH0 PUSH1 0x12 SWAP1 POP SWAP1 JUMP JUMPDEST PUSH2 0xB38 PUSH2 0x19A3 JUMP JUMPDEST PUSH20 0xFFFFFFFFFFFFFFFFFFFFFFFFFFFFFFFFFFFFFFFF AND DUP2 PUSH20 0xFFFFFFFFFFFFFFFFFFFFFFFFFFFFFFFFFFFFFFFF AND EQ PUSH2 0xB9C JUMPI PUSH1 0x40 MLOAD PUSH32 0x6697B23200000000000000000000000000000000000000000000000000000000 DUP2 MSTORE PUSH1 0x4 ADD PUSH1 0x40 MLOAD DUP1 SWAP2 SUB SWAP1 REVERT JUMPDEST PUSH2 0xBA6 DUP3 DUP3 PUSH2 0x1C79 JUMP JUMPDEST POP POP POP JUMP JUMPDEST PUSH32 0xAE6C2FC584631AF4C9385B8A55683F1A75C813747E27EFEF5AFECE31C6B230D3 PUSH2 0xBD5 DUP2 PUSH2 0x19BC JUMP JUMPDEST PUSH0 PUSH20 0xFFFFFFFFFFFFFFFFFFFFFFFFFFFFFFFFFFFFFFFF AND DUP4 PUSH20 0xFFFFFFFFFFFFFFFFFFFFFFFFFFFFFFFFFFFFFFFF AND SUB PUSH2 0xC43 JUMPI PUSH1 0x40 MLOAD PUSH32 0x8C379A000000000000000000000000000000000000000000000000000000000 DUP2 MSTORE PUSH1 0x4 ADD PUSH2 0xC3A SWAP1 PUSH2 0x2AAD JUMP JUMPDEST PUSH1 0x40 MLOAD DUP1 SWAP2 SUB SWAP1 REVERT JUMPDEST DUP2 PUSH1 0xA PUSH0 DUP6 PUSH20 0xFFFFFFFFFFFFFFFFFFFFFFFFFFFFFFFFFFFFFFFF AND PUSH20 0xFFFFFFFFFFFFFFFFFFFFFFFFFFFFFFFFFFFFFFFF AND DUP2 MSTORE PUSH1 0x20 ADD SWAP1 DUP2 MSTORE PUSH1 0x20 ADD PUSH0 KECCAK256 PUSH0 PUSH2 0x100 EXP DUP2 SLOAD DUP2 PUSH1 0xFF MUL NOT AND SWAP1 DUP4 ISZERO ISZERO MUL OR SWAP1 SSTORE POP POP POP POP JUMP JUMPDEST PUSH2 0xCA4 PUSH2 0x19D0 JUMP JUMPDEST PUSH32 0x508F8F8BE8F5DBCB88F4F4500430B8B3684C471ED936F31FEA912C78AD46A6B9 PUSH2 0xCCE DUP2 PUSH2 0x19BC JUMP JUMPDEST PUSH2 0xCF9 DUP4 DUP4 DUP7 PUSH20 0xFFFFFFFFFFFFFFFFFFFFFFFFFFFFFFFFFFFFFFFF AND PUSH2 0x1D63 SWAP1 SWAP3 SWAP2 SWAP1 PUSH4 0xFFFFFFFF AND JUMP JUMPDEST PUSH32 0x494215F965756BBC8B7F57ADDD2A0EBDBCE467A4999F8320C67ADC1771885D7B DUP5 NUMBER DUP6 DUP6 PUSH1 0x40 MLOAD PUSH2 0xD2E SWAP5 SWAP4 SWAP3 SWAP2 SWAP1 PUSH2 0x2B26 JUMP JUMPDEST PUSH1 0x40 MLOAD DUP1 SWAP2 SUB SWAP1 LOG1 POP PUSH2 0xD3F PUSH2 0x1B85 JUMP JUMPDEST POP POP POP JUMP JUMPDEST PUSH1 0x9 PUSH0 SWAP1 SLOAD SWAP1 PUSH2 0x100 EXP SWAP1 DIV PUSH1 0xFF AND ISZERO PUSH2 0xD93 JUMPI PUSH1 0x40 MLOAD PUSH32 0x8C379A000000000000000000000000000000000000000000000000000000000 DUP2 MSTORE PUSH1 0x4 ADD PUSH2 0xD8A SWAP1 PUSH2 0x2BB3 JUMP JUMPDEST PUSH1 0x40 MLOAD DUP1 SWAP2 SUB SWAP1 REVERT JUMPDEST PUSH32 0x9EDFAD36E7D4D9DA54B4F78F22BF97CB5B58BB7998294A4288DA41C15C647C45 PUSH2 0xDBD DUP2 PUSH2 0x19BC JUMP JUMPDEST PUSH32 0x63706707D038997D2210EB026BB1339397DEAB463921538A81BB98E69EE54CA8 DUP3 PUSH2 0xDE7 PUSH2 0x19A3 JUMP JUMPDEST PUSH1 0x40 MLOAD PUSH2 0xDF5 SWAP3 SWAP2 SWAP1 PUSH2 0x294E JUMP JUMPDEST PUSH1 0x40 MLOAD DUP1 SWAP2 SUB SWAP1 LOG1 PUSH2 0xE0E PUSH2 0xE08 PUSH2 0x19A3 JUMP JUMPDEST DUP4 PUSH2 0x1B06 JUMP JUMPDEST POP POP JUMP JUMPDEST PUSH1 0x9 PUSH0 SWAP1 SLOAD SWAP1 PUSH2 0x100 EXP SWAP1 DIV PUSH1 0xFF AND ISZERO PUSH2 0xE61 JUMPI PUSH1 0x40 MLOAD PUSH32 0x8C379A000000000000000000000000000000000000000000000000000000000 DUP2 MSTORE PUSH1 0x4 ADD PUSH2 0xE58 SWAP1 PUSH2 0x2BB3 JUMP JUMPDEST PUSH1 0x40 MLOAD DUP1 SWAP2 SUB SWAP1 REVERT JUMPDEST PUSH1 0x9 PUSH1 0x2 SWAP1 SLOAD SWAP1 PUSH2 0x100 EXP SWAP1 DIV PUSH1 0xFF AND ISZERO PUSH2 0xEB1 JUMPI PUSH1 0x40 MLOAD PUSH32 0x8C379A000000000000000000000000000000000000000000000000000000000 DUP2 MSTORE PUSH1 0x4 ADD PUSH2 0xEA8 SWAP1 PUSH2 0x2C1B JUMP JUMPDEST PUSH1 0x40 MLOAD DUP1 SWAP2 SUB SWAP1 REVERT JUMPDEST PUSH32 0x7D800F56A05ADCB6245DF540492A560D0E668AAC15EE6C7DD40668064913DA33 PUSH2 0xEDB DUP2 PUSH2 0x19BC JUMP JUMPDEST PUSH1 0x7 SLOAD DUP3 PUSH2 0xEE7 PUSH2 0x9D4 JUMP JUMPDEST PUSH2 0xEF1 SWAP2 SWAP1 PUSH2 0x2C39 JUMP JUMPDEST GT ISZERO PUSH2 0xF32 JUMPI PUSH1 0x40 MLOAD PUSH32 0x8C379A000000000000000000000000000000000000000000000000000000000 DUP2 MSTORE PUSH1 0x4 ADD PUSH2 0xF29 SWAP1 PUSH2 0x2CB6 JUMP JUMPDEST PUSH1 0x40 MLOAD DUP1 SWAP2 SUB SWAP1 REVERT JUMPDEST PUSH32 0xE98063832B4FF0356868961B75F7F49B096B14EA066C9725301AD197F2F63147 DUP4 DUP4 PUSH1 0x40 MLOAD PUSH2 0xF63 SWAP3 SWAP2 SWAP1 PUSH2 0x2CD4 JUMP JUMPDEST PUSH1 0x40 MLOAD DUP1 SWAP2 SUB SWAP1 LOG1 PUSH2 0xF75 DUP4 DUP4 PUSH2 0x1DE2 JUMP JUMPDEST POP POP POP JUMP JUMPDEST PUSH2 0xF82 PUSH2 0x19D0 JUMP JUMPDEST PUSH32 0x508F8F8BE8F5DBCB88F4F4500430B8B3684C471ED936F31FEA912C78AD46A6B9 PUSH2 0xFAC DUP2 PUSH2 0x19BC JUMP JUMPDEST DUP3 PUSH20 0xFFFFFFFFFFFFFFFFFFFFFFFFFFFFFFFFFFFFFFFF AND PUSH2 0x8FC DUP4 SWAP1 DUP2 ISZERO MUL SWAP1 PUSH1 0x40 MLOAD PUSH0 PUSH1 0x40 MLOAD DUP1 DUP4 SUB DUP2 DUP6 DUP9 DUP9 CALL SWAP4 POP POP POP POP ISZERO DUP1 ISZERO PUSH2 0xFEF JUMPI RETURNDATASIZE PUSH0 DUP1 RETURNDATACOPY RETURNDATASIZE PUSH0 REVERT JUMPDEST POP PUSH32 0x3B1C0368C81E47D03164182DC6F9FCF4F5E4B3BD9462D74960D729F73138CE36 DUP4 NUMBER DUP5 PUSH1 0x40 MLOAD PUSH2 0x1023 SWAP4 SWAP3 SWAP2 SWAP1 PUSH2 0x2D1B JUMP JUMPDEST PUSH1 0x40 MLOAD DUP1 SWAP2 SUB SWAP1 LOG1 POP PUSH2 0x1034 PUSH2 0x1B85 JUMP JUMPDEST POP POP JUMP JUMPDEST PUSH32 0xAE6C2FC584631AF4C9385B8A55683F1A75C813747E27EFEF5AFECE31C6B230D3 DUP2 JUMP JUMPDEST PUSH32 0x9EDFAD36E7D4D9DA54B4F78F22BF97CB5B58BB7998294A4288DA41C15C647C45 DUP2 JUMP JUMPDEST PUSH1 0x9 PUSH0 SWAP1 SLOAD SWAP1 PUSH2 0x100 EXP SWAP1 DIV PUSH1 0xFF AND DUP2 JUMP JUMPDEST PUSH32 0xC8A3BEFA5973FF6E159AFC769978D92F26BAE29C51A73D11C9112A05B68D25E6 DUP2 JUMP JUMPDEST PUSH0 DUP1 PUSH0 DUP4 PUSH20 0xFFFFFFFFFFFFFFFFFFFFFFFFFFFFFFFFFFFFFFFF AND PUSH20 0xFFFFFFFFFFFFFFFFFFFFFFFFFFFFFFFFFFFFFFFF AND DUP2 MSTORE PUSH1 0x20 ADD SWAP1 DUP2 MSTORE PUSH1 0x20 ADD PUSH0 KECCAK256 SLOAD SWAP1 POP SWAP2 SWAP1 POP JUMP JUMPDEST PUSH1 0x9 PUSH0 SWAP1 SLOAD SWAP1 PUSH2 0x100 EXP SWAP1 DIV PUSH1 0xFF AND ISZERO PUSH2 0x114A JUMPI PUSH1 0x40 MLOAD PUSH32 0x8C379A000000000000000000000000000000000000000000000000000000000 DUP2 MSTORE PUSH1 0x4 ADD PUSH2 0x1141 SWAP1 PUSH2 0x2BB3 JUMP JUMPDEST PUSH1 0x40 MLOAD DUP1 SWAP2 SUB SWAP1 REVERT JUMPDEST PUSH32 0xC8A3BEFA5973FF6E159AFC769978D92F26BAE29C51A73D11C9112A05B68D25E6 PUSH2 0x1174 DUP2 PUSH2 0x19BC JUMP JUMPDEST PUSH32 0xE419CE2AAB145A1FEAF5893BB6A9478F9282415BBD81C76D5CFFF2D4F13431DD DUP4 DUP4 PUSH2 0x119F PUSH2 0x19A3 JUMP JUMPDEST PUSH1 0x40 MLOAD PUSH2 0x11AE SWAP4 SWAP3 SWAP2 SWAP1 PUSH2 0x2D50 JUMP JUMPDEST PUSH1 0x40 MLOAD DUP1 SWAP2 SUB SWAP1 LOG1 PUSH2 0x11C0 DUP4 DUP4 PUSH2 0x1B06 JUMP JUMPDEST POP POP POP JUMP JUMPDEST PUSH32 0x7D800F56A05ADCB6245DF540492A560D0E668AAC15EE6C7DD40668064913DA33 DUP2 JUMP JUMPDEST PUSH32 0x508F8F8BE8F5DBCB88F4F4500430B8B3684C471ED936F31FEA912C78AD46A6B9 DUP2 JUMP JUMPDEST PUSH32 0x8C66330D9D4F6ABA064F25EF2A307366EA6D917616F44C075AA60FA15E5CB1CB DUP2 JUMP JUMPDEST PUSH0 PUSH1 0x7 SLOAD SWAP1 POP SWAP1 JUMP JUMPDEST PUSH0 PUSH1 0x5 PUSH0 DUP5 DUP2 MSTORE PUSH1 0x20 ADD SWAP1 DUP2 MSTORE PUSH1 0x20 ADD PUSH0 KECCAK256 PUSH0 ADD PUSH0 DUP4 PUSH20 0xFFFFFFFFFFFFFFFFFFFFFFFFFFFFFFFFFFFFFFFF AND PUSH20 0xFFFFFFFFFFFFFFFFFFFFFFFFFFFFFFFFFFFFFFFF AND DUP2 MSTORE PUSH1 0x20 ADD SWAP1 DUP2 MSTORE PUSH1 0x20 ADD PUSH0 KECCAK256 PUSH0 SWAP1 SLOAD SWAP1 PUSH2 0x100 EXP SWAP1 DIV PUSH1 0xFF AND SWAP1 POP SWAP3 SWAP2 POP POP JUMP JUMPDEST PUSH1 0x9 PUSH1 0x1 SWAP1 SLOAD SWAP1 PUSH2 0x100 EXP SWAP1 DIV PUSH1 0xFF AND DUP2 JUMP JUMPDEST PUSH1 0x60 PUSH1 0x4 DUP1 SLOAD PUSH2 0x12C0 SWAP1 PUSH2 0x290F JUMP JUMPDEST DUP1 PUSH1 0x1F ADD PUSH1 0x20 DUP1 SWAP2 DIV MUL PUSH1 0x20 ADD PUSH1 0x40 MLOAD SWAP1 DUP2 ADD PUSH1 0x40 MSTORE DUP1 SWAP3 SWAP2 SWAP1 DUP2 DUP2 MSTORE PUSH1 0x20 ADD DUP3 DUP1 SLOAD PUSH2 0x12EC SWAP1 PUSH2 0x290F JUMP JUMPDEST DUP1 ISZERO PUSH2 0x1337 JUMPI DUP1 PUSH1 0x1F LT PUSH2 0x130E JUMPI PUSH2 0x100 DUP1 DUP4 SLOAD DIV MUL DUP4 MSTORE SWAP2 PUSH1 0x20 ADD SWAP2 PUSH2 0x1337 JUMP JUMPDEST DUP3 ADD SWAP2 SWAP1 PUSH0 MSTORE PUSH1 0x20 PUSH0 KECCAK256 SWAP1 JUMPDEST DUP2 SLOAD DUP2 MSTORE SWAP1 PUSH1 0x1 ADD SWAP1 PUSH1 0x20 ADD DUP1 DUP4 GT PUSH2 0x131A JUMPI DUP3 SWAP1 SUB PUSH1 0x1F AND DUP3 ADD SWAP2 JUMPDEST POP POP POP POP POP SWAP1 POP SWAP1 JUMP JUMPDEST PUSH1 0x9 PUSH0 SWAP1 SLOAD SWAP1 PUSH2 0x100 EXP SWAP1 DIV PUSH1 0xFF AND ISZERO PUSH2 0x1390 JUMPI PUSH1 0x40 MLOAD PUSH32 0x8C379A000000000000000000000000000000000000000000000000000000000 DUP2 MSTORE PUSH1 0x4 ADD PUSH2 0x1387 SWAP1 PUSH2 0x2BB3 JUMP JUMPDEST PUSH1 0x40 MLOAD DUP1 SWAP2 SUB SWAP1 REVERT JUMPDEST PUSH1 0x9 PUSH1 0x1 SWAP1 SLOAD SWAP1 PUSH2 0x100 EXP SWAP1 DIV PUSH1 0xFF AND ISZERO PUSH2 0x13E0 JUMPI PUSH1 0x40 MLOAD PUSH32 0x8C379A000000000000000000000000000000000000000000000000000000000 DUP2 MSTORE PUSH1 0x4 ADD PUSH2 0x13D7 SWAP1 PUSH2 0x2DCF JUMP JUMPDEST PUSH1 0x40 MLOAD DUP1 SWAP2 SUB SWAP1 REVERT JUMPDEST PUSH32 0x8C66330D9D4F6ABA064F25EF2A307366EA6D917616F44C075AA60FA15E5CB1CB PUSH2 0x140A DUP2 PUSH2 0x19BC JUMP JUMPDEST PUSH1 0x7 SLOAD DUP3 PUSH2 0x1416 PUSH2 0x9D4 JUMP JUMPDEST PUSH2 0x1420 SWAP2 SWAP1 PUSH2 0x2C39 JUMP JUMPDEST GT ISZERO PUSH2 0x1461 JUMPI PUSH1 0x40 MLOAD PUSH32 0x8C379A000000000000000000000000000000000000000000000000000000000 DUP2 MSTORE PUSH1 0x4 ADD PUSH2 0x1458 SWAP1 PUSH2 0x2CB6 JUMP JUMPDEST PUSH1 0x40 MLOAD DUP1 SWAP2 SUB SWAP1 REVERT JUMPDEST PUSH32 0x772F66A00A405709C30E7F18FEADCC8F123B20C09C7260165D3EEC36C9F21372 DUP3 PUSH1 0x40 MLOAD PUSH2 0x1490 SWAP2 SWAP1 PUSH2 0x2404 JUMP JUMPDEST PUSH1 0x40 MLOAD DUP1 SWAP2 SUB SWAP1 LOG1 PUSH2 0x14A9 PUSH2 0x14A3 PUSH2 0x19A3 JUMP JUMPDEST DUP4 PUSH2 0x1DE2 JUMP JUMPDEST POP POP JUMP JUMPDEST PUSH0 DUP1 SHL DUP2 JUMP JUMPDEST PUSH0 PUSH2 0x14BC PUSH2 0x19D0 JUMP JUMPDEST PUSH0 PUSH2 0x14C5 PUSH2 0x19A3 JUMP JUMPDEST SWAP1 POP PUSH1 0xA PUSH0 DUP3 PUSH20 0xFFFFFFFFFFFFFFFFFFFFFFFFFFFFFFFFFFFFFFFF AND PUSH20 0xFFFFFFFFFFFFFFFFFFFFFFFFFFFFFFFFFFFFFFFF AND DUP2 MSTORE PUSH1 0x20 ADD SWAP1 DUP2 MSTORE PUSH1 0x20 ADD PUSH0 KECCAK256 PUSH0 SWAP1 SLOAD SWAP1 PUSH2 0x100 EXP SWAP1 DIV PUSH1 0xFF AND ISZERO PUSH2 0x1526 JUMPI PUSH2 0x1521 DUP2 DUP6 DUP6 PUSH2 0x1A16 JUMP JUMPDEST PUSH2 0x153E JUMP JUMPDEST PUSH2 0x1531 DUP2 DUP6 DUP6 PUSH2 0x1A16 JUMP JUMPDEST PUSH2 0x153D DUP2 PUSH1 0x8 SLOAD PUSH2 0x1B06 JUMP JUMPDEST JUMPDEST PUSH1 0x1 SWAP2 POP POP PUSH2 0x154B PUSH2 0x1B85 JUMP JUMPDEST SWAP3 SWAP2 POP POP JUMP JUMPDEST PUSH1 0x9 PUSH0 SWAP1 SLOAD SWAP1 PUSH2 0x100 EXP SWAP1 DIV PUSH1 0xFF AND ISZERO PUSH2 0x15A0 JUMPI PUSH1 0x40 MLOAD PUSH32 0x8C379A000000000000000000000000000000000000000000000000000000000 DUP2 MSTORE PUSH1 0x4 ADD PUSH2 0x1597 SWAP1 PUSH2 0x2BB3 JUMP JUMPDEST PUSH1 0x40 MLOAD DUP1 SWAP2 SUB SWAP1 REVERT JUMPDEST PUSH32 0xEA4DEFABEB90FA1E79F929D6C8D482FEE8A115926A592B79634D39A67CCE3B62 PUSH2 0x15CA DUP2 PUSH2 0x19BC JUMP JUMPDEST PUSH2 0x15D2 PUSH2 0x9D4 JUMP JUMPDEST DUP3 LT ISZERO PUSH2 0x1614 JUMPI PUSH1 0x40 MLOAD PUSH32 0x8C379A000000000000000000000000000000000000000000000000000000000 DUP2 MSTORE PUSH1 0x4 ADD PUSH2 0x160B SWAP1 PUSH2 0x2E37 JUMP JUMPDEST PUSH1 0x40 MLOAD DUP1 SWAP2 SUB SWAP1 REVERT JUMPDEST DUP2 PUSH1 0x7 DUP2 SWAP1 SSTORE POP PUSH32 0xA11CBDEB4D62442FAE7C8EC6286585B17C47ACB7B17BBCAB1BEADCE84BEFA300 DUP3 PUSH2 0x1645 PUSH2 0x19A3 JUMP JUMPDEST PUSH1 0x40 MLOAD PUSH2 0x1653 SWAP3 SWAP2 SWAP1 PUSH2 0x294E JUMP JUMPDEST PUSH1 0x40 MLOAD DUP1 SWAP2 SUB SWAP1 LOG1 POP POP JUMP JUMPDEST PUSH1 0xA PUSH1 0x20 MSTORE DUP1 PUSH0 MSTORE PUSH1 0x40 PUSH0 KECCAK256 PUSH0 SWAP2 POP SLOAD SWAP1 PUSH2 0x100 EXP SWAP1 DIV PUSH1 0xFF AND DUP2 JUMP JUMPDEST PUSH1 0x8 SLOAD DUP2 JUMP JUMPDEST PUSH1 0x9 PUSH1 0x2 SWAP1 SLOAD SWAP1 PUSH2 0x100 EXP SWAP1 DIV PUSH1 0xFF AND DUP2 JUMP JUMPDEST PUSH2 0x169E DUP3 PUSH2 0xAE9 JUMP JUMPDEST PUSH2 0x16A7 DUP2 PUSH2 0x19BC JUMP JUMPDEST PUSH2 0x16B1 DUP4 DUP4 PUSH2 0x1C79 JUMP JUMPDEST POP POP POP POP JUMP JUMPDEST PUSH0 PUSH1 0x1 PUSH0 DUP5 PUSH20 0xFFFFFFFFFFFFFFFFFFFFFFFFFFFFFFFFFFFFFFFF AND PUSH20 0xFFFFFFFFFFFFFFFFFFFFFFFFFFFFFFFFFFFFFFFF AND DUP2 MSTORE PUSH1 0x20 ADD SWAP1 DUP2 MSTORE PUSH1 0x20 ADD PUSH0 KECCAK256 PUSH0 DUP4 PUSH20 0xFFFFFFFFFFFFFFFFFFFFFFFFFFFFFFFFFFFFFFFF AND PUSH20 0xFFFFFFFFFFFFFFFFFFFFFFFFFFFFFFFFFFFFFFFF AND DUP2 MSTORE PUSH1 0x20 ADD SWAP1 DUP2 MSTORE PUSH1 0x20 ADD PUSH0 KECCAK256 SLOAD SWAP1 POP SWAP3 SWAP2 POP POP JUMP JUMPDEST PUSH32 0xAE6C2FC584631AF4C9385B8A55683F1A75C813747E27EFEF5AFECE31C6B230D3 PUSH2 0x1763 DUP2 PUSH2 0x19BC JUMP JUMPDEST DUP2 PUSH1 0x9 PUSH1 0x1 PUSH2 0x100 EXP DUP2 SLOAD DUP2 PUSH1 0xFF MUL NOT AND SWAP1 DUP4 ISZERO ISZERO MUL OR SWAP1 SSTORE POP DUP2 ISZERO PUSH2 0x17C8 JUMPI PUSH32 0x5668502CA8E7B393C09D1DAC964CA45A27870A78D7BA212B7A189450897CA05F NUMBER PUSH2 0x17AD PUSH2 0x19A3 JUMP JUMPDEST PUSH1 0x40 MLOAD PUSH2 0x17BB SWAP3 SWAP2 SWAP1 PUSH2 0x294E JUMP JUMPDEST PUSH1 0x40 MLOAD DUP1 SWAP2 SUB SWAP1 LOG1 PUSH2 0x1809 JUMP JUMPDEST PUSH32 0x98E05482FDB38DF5EB461FB932FA6E1AF90A3569939CE5A8D92D699B102D6402 NUMBER PUSH2 0x17F2 PUSH2 0x19A3 JUMP JUMPDEST PUSH1 0x40 MLOAD PUSH2 0x1800 SWAP3 SWAP2 SWAP1 PUSH2 0x294E JUMP JUMPDEST PUSH1 0x40 MLOAD DUP1 SWAP2 SUB SWAP1 LOG1 JUMPDEST POP POP JUMP JUMPDEST PUSH32 0xEA4DEFABEB90FA1E79F929D6C8D482FEE8A115926A592B79634D39A67CCE3B62 DUP2 JUMP JUMPDEST PUSH32 0xAE6C2FC584631AF4C9385B8A55683F1A75C813747E27EFEF5AFECE31C6B230D3 PUSH2 0x185B DUP2 PUSH2 0x19BC JUMP JUMPDEST DUP2 PUSH1 0x8 DUP2 SWAP1 SSTORE POP POP POP JUMP JUMPDEST PUSH32 0xAE6C2FC584631AF4C9385B8A55683F1A75C813747E27EFEF5AFECE31C6B230D3 PUSH2 0x1890 DUP2 PUSH2 0x19BC JUMP JUMPDEST DUP2 PUSH1 0x9 PUSH1 0x2 PUSH2 0x100 EXP DUP2 SLOAD DUP2 PUSH1 0xFF MUL NOT AND SWAP1 DUP4 ISZERO ISZERO MUL OR SWAP1 SSTORE POP DUP2 ISZERO PUSH2 0x18F5 JUMPI PUSH32 0x218E25F0A7435729F5A66AAE50A9ED0084535A0080300C1C2E8366D8DF7136ED NUMBER PUSH2 0x18DA PUSH2 0x19A3 JUMP JUMPDEST PUSH1 0x40 MLOAD PUSH2 0x18E8 SWAP3 SWAP2 SWAP1 PUSH2 0x294E JUMP JUMPDEST PUSH1 0x40 MLOAD DUP1 SWAP2 SUB SWAP1 LOG1 PUSH2 0x1936 JUMP JUMPDEST PUSH32 0x41606E1DCEE38320F9EDBFCD642AEAA81BB2140C705DE9D4A7814024A1E9A314 NUMBER PUSH2 0x191F PUSH2 0x19A3 JUMP JUMPDEST PUSH1 0x40 MLOAD PUSH2 0x192D SWAP3 SWAP2 SWAP1 PUSH2 0x294E JUMP JUMPDEST PUSH1 0x40 MLOAD DUP1 SWAP2 SUB SWAP1 LOG1 JUMPDEST POP POP JUMP JUMPDEST PUSH0 PUSH32 0x1FFC9A700000000000000000000000000000000000000000000000000000000 PUSH28 0xFFFFFFFFFFFFFFFFFFFFFFFFFFFFFFFFFFFFFFFFFFFFFFFFFFFFFFFF NOT AND DUP3 PUSH28 0xFFFFFFFFFFFFFFFFFFFFFFFFFFFFFFFFFFFFFFFFFFFFFFFFFFFFFFFF NOT AND EQ SWAP1 POP SWAP2 SWAP1 POP JUMP JUMPDEST PUSH0 CALLER SWAP1 POP SWAP1 JUMP JUMPDEST PUSH2 0x19B7 DUP4 DUP4 DUP4 PUSH1 0x1 PUSH2 0x1E61 JUMP JUMPDEST POP POP POP JUMP JUMPDEST PUSH2 0x19CD DUP2 PUSH2 0x19C8 PUSH2 0x19A3 JUMP JUMPDEST PUSH2 0x2030 JUMP JUMPDEST POP JUMP JUMPDEST PUSH1 0x2 PUSH1 0x6 SLOAD SUB PUSH2 0x1A0C JUMPI PUSH1 0x40 MLOAD PUSH32 0x3EE5AEB500000000000000000000000000000000000000000000000000000000 DUP2 MSTORE PUSH1 0x4 ADD PUSH1 0x40 MLOAD DUP1 SWAP2 SUB SWAP1 REVERT JUMPDEST PUSH1 0x2 PUSH1 0x6 DUP2 SWAP1 SSTORE POP JUMP JUMPDEST PUSH0 PUSH20 0xFFFFFFFFFFFFFFFFFFFFFFFFFFFFFFFFFFFFFFFF AND DUP4 PUSH20 0xFFFFFFFFFFFFFFFFFFFFFFFFFFFFFFFFFFFFFFFF AND SUB PUSH2 0x1A86 JUMPI PUSH0 PUSH1 0x40 MLOAD PUSH32 0x96C6FD1E00000000000000000000000000000000000000000000000000000000 DUP2 MSTORE PUSH1 0x4 ADD PUSH2 0x1A7D SWAP2 SWAP1 PUSH2 0x2E55 JUMP JUMPDEST PUSH1 0x40 MLOAD DUP1 SWAP2 SUB SWAP1 REVERT JUMPDEST PUSH0 PUSH20 0xFFFFFFFFFFFFFFFFFFFFFFFFFFFFFFFFFFFFFFFF AND DUP3 PUSH20 0xFFFFFFFFFFFFFFFFFFFFFFFFFFFFFFFFFFFFFFFF AND SUB PUSH2 0x1AF6 JUMPI PUSH0 PUSH1 0x40 MLOAD PUSH32 0xEC442F0500000000000000000000000000000000000000000000000000000000 DUP2 MSTORE PUSH1 0x4 ADD PUSH2 0x1AED SWAP2 SWAP1 PUSH2 0x2E55 JUMP JUMPDEST PUSH1 0x40 MLOAD DUP1 SWAP2 SUB SWAP1 REVERT JUMPDEST PUSH2 0x1B01 DUP4 DUP4 DUP4 PUSH2 0x2081 JUMP JUMPDEST POP POP POP JUMP JUMPDEST PUSH0 PUSH20 0xFFFFFFFFFFFFFFFFFFFFFFFFFFFFFFFFFFFFFFFF AND DUP3 PUSH20 0xFFFFFFFFFFFFFFFFFFFFFFFFFFFFFFFFFFFFFFFF AND SUB PUSH2 0x1B76 JUMPI PUSH0 PUSH1 0x40 MLOAD PUSH32 0x96C6FD1E00000000000000000000000000000000000000000000000000000000 DUP2 MSTORE PUSH1 0x4 ADD PUSH2 0x1B6D SWAP2 SWAP1 PUSH2 0x2E55 JUMP JUMPDEST PUSH1 0x40 MLOAD DUP1 SWAP2 SUB SWAP1 REVERT JUMPDEST PUSH2 0x1B81 DUP3 PUSH0 DUP4 PUSH2 0x2081 JUMP JUMPDEST POP POP JUMP JUMPDEST PUSH1 0x1 PUSH1 0x6 DUP2 SWAP1 SSTORE POP JUMP JUMPDEST PUSH0 PUSH2 0x1B9A DUP4 DUP4 PUSH2 0x123A JUMP JUMPDEST PUSH2 0x1C6F JUMPI PUSH1 0x1 PUSH1 0x5 PUSH0 DUP6 DUP2 MSTORE PUSH1 0x20 ADD SWAP1 DUP2 MSTORE PUSH1 0x20 ADD PUSH0 KECCAK256 PUSH0 ADD PUSH0 DUP5 PUSH20 0xFFFFFFFFFFFFFFFFFFFFFFFFFFFFFFFFFFFFFFFF AND PUSH20 0xFFFFFFFFFFFFFFFFFFFFFFFFFFFFFFFFFFFFFFFF AND DUP2 MSTORE PUSH1 0x20 ADD SWAP1 DUP2 MSTORE PUSH1 0x20 ADD PUSH0 KECCAK256 PUSH0 PUSH2 0x100 EXP DUP2 SLOAD DUP2 PUSH1 0xFF MUL NOT AND SWAP1 DUP4 ISZERO ISZERO MUL OR SWAP1 SSTORE POP PUSH2 0x1C0C PUSH2 0x19A3 JUMP JUMPDEST PUSH20 0xFFFFFFFFFFFFFFFFFFFFFFFFFFFFFFFFFFFFFFFF AND DUP3 PUSH20 0xFFFFFFFFFFFFFFFFFFFFFFFFFFFFFFFFFFFFFFFF AND DUP5 PUSH32 0x2F8788117E7EFF1D82E926EC794901D17C78024A50270940304540A733656F0D PUSH1 0x40 MLOAD PUSH1 0x40 MLOAD DUP1 SWAP2 SUB SWAP1 LOG4 PUSH1 0x1 SWAP1 POP PUSH2 0x1C73 JUMP JUMPDEST PUSH0 SWAP1 POP JUMPDEST SWAP3 SWAP2 POP POP JUMP JUMPDEST PUSH0 PUSH2 0x1C84 DUP4 DUP4 PUSH2 0x123A JUMP JUMPDEST ISZERO PUSH2 0x1D59 JUMPI PUSH0 PUSH1 0x5 PUSH0 DUP6 DUP2 MSTORE PUSH1 0x20 ADD SWAP1 DUP2 MSTORE PUSH1 0x20 ADD PUSH0 KECCAK256 PUSH0 ADD PUSH0 DUP5 PUSH20 0xFFFFFFFFFFFFFFFFFFFFFFFFFFFFFFFFFFFFFFFF AND PUSH20 0xFFFFFFFFFFFFFFFFFFFFFFFFFFFFFFFFFFFFFFFF AND DUP2 MSTORE PUSH1 0x20 ADD SWAP1 DUP2 MSTORE PUSH1 0x20 ADD PUSH0 KECCAK256 PUSH0 PUSH2 0x100 EXP DUP2 SLOAD DUP2 PUSH1 0xFF MUL NOT AND SWAP1 DUP4 ISZERO ISZERO MUL OR SWAP1 SSTORE POP PUSH2 0x1CF6 PUSH2 0x19A3 JUMP JUMPDEST PUSH20 0xFFFFFFFFFFFFFFFFFFFFFFFFFFFFFFFFFFFFFFFF AND DUP3 PUSH20 0xFFFFFFFFFFFFFFFFFFFFFFFFFFFFFFFFFFFFFFFF AND DUP5 PUSH32 0xF6391F5C32D9C69D2A47EA670B442974B53935D1EDC7FD64EB21E047A839171B PUSH1 0x40 MLOAD PUSH1 0x40 MLOAD DUP1 SWAP2 SUB SWAP1 LOG4 PUSH1 0x1 SWAP1 POP PUSH2 0x1D5D JUMP JUMPDEST PUSH0 SWAP1 POP JUMPDEST SWAP3 SWAP2 POP POP JUMP JUMPDEST PUSH2 0x1DDD DUP4 DUP5 PUSH20 0xFFFFFFFFFFFFFFFFFFFFFFFFFFFFFFFFFFFFFFFF AND PUSH4 0xA9059CBB DUP6 DUP6 PUSH1 0x40 MLOAD PUSH1 0x24 ADD PUSH2 0x1D96 SWAP3 SWAP2 SWAP1 PUSH2 0x2CD4 JUMP JUMPDEST PUSH1 0x40 MLOAD PUSH1 0x20 DUP2 DUP4 SUB SUB DUP2 MSTORE SWAP1 PUSH1 0x40 MSTORE SWAP2 POP PUSH1 0xE0 SHL PUSH1 0x20 DUP3 ADD DUP1 MLOAD PUSH28 0xFFFFFFFFFFFFFFFFFFFFFFFFFFFFFFFFFFFFFFFFFFFFFFFFFFFFFFFF DUP4 DUP2 DUP4 AND OR DUP4 MSTORE POP POP POP POP PUSH2 0x229A JUMP JUMPDEST POP POP POP JUMP JUMPDEST PUSH0 PUSH20 0xFFFFFFFFFFFFFFFFFFFFFFFFFFFFFFFFFFFFFFFF AND DUP3 PUSH20 0xFFFFFFFFFFFFFFFFFFFFFFFFFFFFFFFFFFFFFFFF AND SUB PUSH2 0x1E52 JUMPI PUSH0 PUSH1 0x40 MLOAD PUSH32 0xEC442F0500000000000000000000000000000000000000000000000000000000 DUP2 MSTORE PUSH1 0x4 ADD PUSH2 0x1E49 SWAP2 SWAP1 PUSH2 0x2E55 JUMP JUMPDEST PUSH1 0x40 MLOAD DUP1 SWAP2 SUB SWAP1 REVERT JUMPDEST PUSH2 0x1E5D PUSH0 DUP4 DUP4 PUSH2 0x2081 JUMP JUMPDEST POP POP JUMP JUMPDEST PUSH0 PUSH20 0xFFFFFFFFFFFFFFFFFFFFFFFFFFFFFFFFFFFFFFFF AND DUP5 PUSH20 0xFFFFFFFFFFFFFFFFFFFFFFFFFFFFFFFFFFFFFFFF AND SUB PUSH2 0x1ED1 JUMPI PUSH0 PUSH1 0x40 MLOAD PUSH32 0xE602DF0500000000000000000000000000000000000000000000000000000000 DUP2 MSTORE PUSH1 0x4 ADD PUSH2 0x1EC8 SWAP2 SWAP1 PUSH2 0x2E55 JUMP JUMPDEST PUSH1 0x40 MLOAD DUP1 SWAP2 SUB SWAP1 REVERT JUMPDEST PUSH0 PUSH20 0xFFFFFFFFFFFFFFFFFFFFFFFFFFFFFFFFFFFFFFFF AND DUP4 PUSH20 0xFFFFFFFFFFFFFFFFFFFFFFFFFFFFFFFFFFFFFFFF AND SUB PUSH2 0x1F41 JUMPI PUSH0 PUSH1 0x40 MLOAD PUSH32 0x94280D6200000000000000000000000000000000000000000000000000000000 DUP2 MSTORE PUSH1 0x4 ADD PUSH2 0x1F38 SWAP2 SWAP1 PUSH2 0x2E55 JUMP JUMPDEST PUSH1 0x40 MLOAD DUP1 SWAP2 SUB SWAP1 REVERT JUMPDEST DUP2 PUSH1 0x1 PUSH0 DUP7 PUSH20 0xFFFFFFFFFFFFFFFFFFFFFFFFFFFFFFFFFFFFFFFF AND PUSH20 0xFFFFFFFFFFFFFFFFFFFFFFFFFFFFFFFFFFFFFFFF AND DUP2 MSTORE PUSH1 0x20 ADD SWAP1 DUP2 MSTORE PUSH1 0x20 ADD PUSH0 KECCAK256 PUSH0 DUP6 PUSH20 0xFFFFFFFFFFFFFFFFFFFFFFFFFFFFFFFFFFFFFFFF AND PUSH20 0xFFFFFFFFFFFFFFFFFFFFFFFFFFFFFFFFFFFFFFFF AND DUP2 MSTORE PUSH1 0x20 ADD SWAP1 DUP2 MSTORE PUSH1 0x20 ADD PUSH0 KECCAK256 DUP2 SWAP1 SSTORE POP DUP1 ISZERO PUSH2 0x202A JUMPI DUP3 PUSH20 0xFFFFFFFFFFFFFFFFFFFFFFFFFFFFFFFFFFFFFFFF AND DUP5 PUSH20 0xFFFFFFFFFFFFFFFFFFFFFFFFFFFFFFFFFFFFFFFF AND PUSH32 0x8C5BE1E5EBEC7D5BD14F71427D1E84F3DD0314C0F7B2291E5B200AC8C7C3B925 DUP5 PUSH1 0x40 MLOAD PUSH2 0x2021 SWAP2 SWAP1 PUSH2 0x2404 JUMP JUMPDEST PUSH1 0x40 MLOAD DUP1 SWAP2 SUB SWAP1 LOG3 JUMPDEST POP POP POP POP JUMP JUMPDEST PUSH2 0x203A DUP3 DUP3 PUSH2 0x123A JUMP JUMPDEST PUSH2 0x207D JUMPI DUP1 DUP3 PUSH1 0x40 MLOAD PUSH32 0xE2517D3F00000000000000000000000000000000000000000000000000000000 DUP2 MSTORE PUSH1 0x4 ADD PUSH2 0x2074 SWAP3 SWAP2 SWAP1 PUSH2 0x2E6E JUMP JUMPDEST PUSH1 0x40 MLOAD DUP1 SWAP2 SUB SWAP1 REVERT JUMPDEST POP POP JUMP JUMPDEST PUSH0 PUSH20 0xFFFFFFFFFFFFFFFFFFFFFFFFFFFFFFFFFFFFFFFF AND DUP4 PUSH20 0xFFFFFFFFFFFFFFFFFFFFFFFFFFFFFFFFFFFFFFFF AND SUB PUSH2 0x20D1 JUMPI DUP1 PUSH1 0x2 PUSH0 DUP3 DUP3 SLOAD PUSH2 0x20C5 SWAP2 SWAP1 PUSH2 0x2C39 JUMP JUMPDEST SWAP3 POP POP DUP2 SWAP1 SSTORE POP PUSH2 0x219F JUMP JUMPDEST PUSH0 DUP1 PUSH0 DUP6 PUSH20 0xFFFFFFFFFFFFFFFFFFFFFFFFFFFFFFFFFFFFFFFF AND PUSH20 0xFFFFFFFFFFFFFFFFFFFFFFFFFFFFFFFFFFFFFFFF AND DUP2 MSTORE PUSH1 0x20 ADD SWAP1 DUP2 MSTORE PUSH1 0x20 ADD PUSH0 KECCAK256 SLOAD SWAP1 POP DUP2 DUP2 LT ISZERO PUSH2 0x215A JUMPI DUP4 DUP2 DUP4 PUSH1 0x40 MLOAD PUSH32 0xE450D38C00000000000000000000000000000000000000000000000000000000 DUP2 MSTORE PUSH1 0x4 ADD PUSH2 0x2151 SWAP4 SWAP3 SWAP2 SWAP1 PUSH2 0x2E95 JUMP JUMPDEST PUSH1 0x40 MLOAD DUP1 SWAP2 SUB SWAP1 REVERT JUMPDEST DUP2 DUP2 SUB PUSH0 DUP1 DUP7 PUSH20 0xFFFFFFFFFFFFFFFFFFFFFFFFFFFFFFFFFFFFFFFF AND PUSH20 0xFFFFFFFFFFFFFFFFFFFFFFFFFFFFFFFFFFFFFFFF AND DUP2 MSTORE PUSH1 0x20 ADD SWAP1 DUP2 MSTORE PUSH1 0x20 ADD PUSH0 KECCAK256 DUP2 SWAP1 SSTORE POP POP JUMPDEST PUSH0 PUSH20 0xFFFFFFFFFFFFFFFFFFFFFFFFFFFFFFFFFFFFFFFF AND DUP3 PUSH20 0xFFFFFFFFFFFFFFFFFFFFFFFFFFFFFFFFFFFFFFFF AND SUB PUSH2 0x21E6 JUMPI DUP1 PUSH1 0x2 PUSH0 DUP3 DUP3 SLOAD SUB SWAP3 POP POP DUP2 SWAP1 SSTORE POP PUSH2 0x2230 JUMP JUMPDEST DUP1 PUSH0 DUP1 DUP5 PUSH20 0xFFFFFFFFFFFFFFFFFFFFFFFFFFFFFFFFFFFFFFFF AND PUSH20 0xFFFFFFFFFFFFFFFFFFFFFFFFFFFFFFFFFFFFFFFF AND DUP2 MSTORE PUSH1 0x20 ADD SWAP1 DUP2 MSTORE PUSH1 0x20 ADD PUSH0 KECCAK256 PUSH0 DUP3 DUP3 SLOAD ADD SWAP3 POP POP DUP2 SWAP1 SSTORE POP JUMPDEST DUP2 PUSH20 0xFFFFFFFFFFFFFFFFFFFFFFFFFFFFFFFFFFFFFFFF AND DUP4 PUSH20 0xFFFFFFFFFFFFFFFFFFFFFFFFFFFFFFFFFFFFFFFF AND PUSH32 0xDDF252AD1BE2C89B69C2B068FC378DAA952BA7F163C4A11628F55A4DF523B3EF DUP4 PUSH1 0x40 MLOAD PUSH2 0x228D SWAP2 SWAP1 PUSH2 0x2404 JUMP JUMPDEST PUSH1 0x40 MLOAD DUP1 SWAP2 SUB SWAP1 LOG3 POP POP POP JUMP JUMPDEST PUSH0 DUP1 PUSH1 0x20 PUSH0 DUP5 MLOAD PUSH1 0x20 DUP7 ADD PUSH0 DUP9 GAS CALL DUP1 PUSH2 0x22B9 JUMPI PUSH1 0x40 MLOAD RETURNDATASIZE PUSH0 DUP3 RETURNDATACOPY RETURNDATASIZE DUP2 REVERT JUMPDEST RETURNDATASIZE SWAP3 POP PUSH0 MLOAD SWAP2 POP POP PUSH0 DUP3 EQ PUSH2 0x22D2 JUMPI PUSH1 0x1 DUP2 EQ ISZERO PUSH2 0x22ED JUMP JUMPDEST PUSH0 DUP5 PUSH20 0xFFFFFFFFFFFFFFFFFFFFFFFFFFFFFFFFFFFFFFFF AND EXTCODESIZE EQ JUMPDEST ISZERO PUSH2 0x232F JUMPI DUP4 PUSH1 0x40 MLOAD PUSH32 0x5274AFE700000000000000000000000000000000000000000000000000000000 DUP2 MSTORE PUSH1 0x4 ADD PUSH2 0x2326 SWAP2 SWAP1 PUSH2 0x2E55 JUMP JUMPDEST PUSH1 0x40 MLOAD DUP1 SWAP2 SUB SWAP1 REVERT JUMPDEST POP POP POP POP JUMP JUMPDEST PUSH0 DUP1 REVERT JUMPDEST PUSH0 PUSH32 0xFFFFFFFF00000000000000000000000000000000000000000000000000000000 DUP3 AND SWAP1 POP SWAP2 SWAP1 POP JUMP JUMPDEST PUSH2 0x236D DUP2 PUSH2 0x2339 JUMP JUMPDEST DUP2 EQ PUSH2 0x2377 JUMPI PUSH0 DUP1 REVERT JUMPDEST POP JUMP JUMPDEST PUSH0 DUP2 CALLDATALOAD SWAP1 POP PUSH2 0x2388 DUP2 PUSH2 0x2364 JUMP JUMPDEST SWAP3 SWAP2 POP POP JUMP JUMPDEST PUSH0 PUSH1 0x20 DUP3 DUP5 SUB SLT ISZERO PUSH2 0x23A3 JUMPI PUSH2 0x23A2 PUSH2 0x2335 JUMP JUMPDEST JUMPDEST PUSH0 PUSH2 0x23B0 DUP5 DUP3 DUP6 ADD PUSH2 0x237A JUMP JUMPDEST SWAP2 POP POP SWAP3 SWAP2 POP POP JUMP JUMPDEST PUSH0 DUP2 ISZERO ISZERO SWAP1 POP SWAP2 SWAP1 POP JUMP JUMPDEST PUSH2 0x23CD DUP2 PUSH2 0x23B9 JUMP JUMPDEST DUP3 MSTORE POP POP JUMP JUMPDEST PUSH0 PUSH1 0x20 DUP3 ADD SWAP1 POP PUSH2 0x23E6 PUSH0 DUP4 ADD DUP5 PUSH2 0x23C4 JUMP JUMPDEST SWAP3 SWAP2 POP POP JUMP JUMPDEST PUSH0 DUP2 SWAP1 POP SWAP2 SWAP1 POP JUMP JUMPDEST PUSH2 0x23FE DUP2 PUSH2 0x23EC JUMP JUMPDEST DUP3 MSTORE POP POP JUMP JUMPDEST PUSH0 PUSH1 0x20 DUP3 ADD SWAP1 POP PUSH2 0x2417 PUSH0 DUP4 ADD DUP5 PUSH2 0x23F5 JUMP JUMPDEST SWAP3 SWAP2 POP POP JUMP JUMPDEST PUSH0 DUP2 MLOAD SWAP1 POP SWAP2 SWAP1 POP JUMP JUMPDEST PUSH0 DUP3 DUP3 MSTORE PUSH1 0x20 DUP3 ADD SWAP1 POP SWAP3 SWAP2 POP POP JUMP JUMPDEST DUP3 DUP2 DUP4 MCOPY PUSH0 DUP4 DUP4 ADD MSTORE POP POP POP JUMP JUMPDEST PUSH0 PUSH1 0x1F NOT PUSH1 0x1F DUP4 ADD AND SWAP1 POP SWAP2 SWAP1 POP JUMP JUMPDEST PUSH0 PUSH2 0x245F DUP3 PUSH2 0x241D JUMP JUMPDEST PUSH2 0x2469 DUP2 DUP6 PUSH2 0x2427 JUMP JUMPDEST SWAP4 POP PUSH2 0x2479 DUP2 DUP6 PUSH1 0x20 DUP7 ADD PUSH2 0x2437 JUMP JUMPDEST PUSH2 0x2482 DUP2 PUSH2 0x2445 JUMP JUMPDEST DUP5 ADD SWAP2 POP POP SWAP3 SWAP2 POP POP JUMP JUMPDEST PUSH0 PUSH1 0x20 DUP3 ADD SWAP1 POP DUP2 DUP2 SUB PUSH0 DUP4 ADD MSTORE PUSH2 0x24A5 DUP2 DUP5 PUSH2 0x2455 JUMP JUMPDEST SWAP1 POP SWAP3 SWAP2 POP POP JUMP JUMPDEST PUSH0 PUSH20 0xFFFFFFFFFFFFFFFFFFFFFFFFFFFFFFFFFFFFFFFF DUP3 AND SWAP1 POP SWAP2 SWAP1 POP JUMP JUMPDEST PUSH0 PUSH2 0x24D6 DUP3 PUSH2 0x24AD JUMP JUMPDEST SWAP1 POP SWAP2 SWAP1 POP JUMP JUMPDEST PUSH2 0x24E6 DUP2 PUSH2 0x24CC JUMP JUMPDEST DUP2 EQ PUSH2 0x24F0 JUMPI PUSH0 DUP1 REVERT JUMPDEST POP JUMP JUMPDEST PUSH0 DUP2 CALLDATALOAD SWAP1 POP PUSH2 0x2501 DUP2 PUSH2 0x24DD JUMP JUMPDEST SWAP3 SWAP2 POP POP JUMP JUMPDEST PUSH2 0x2510 DUP2 PUSH2 0x23EC JUMP JUMPDEST DUP2 EQ PUSH2 0x251A JUMPI PUSH0 DUP1 REVERT JUMPDEST POP JUMP JUMPDEST PUSH0 DUP2 CALLDATALOAD SWAP1 POP PUSH2 0x252B DUP2 PUSH2 0x2507 JUMP JUMPDEST SWAP3 SWAP2 POP POP JUMP JUMPDEST PUSH0 DUP1 PUSH1 0x40 DUP4 DUP6 SUB SLT ISZERO PUSH2 0x2547 JUMPI PUSH2 0x2546 PUSH2 0x2335 JUMP JUMPDEST JUMPDEST PUSH0 PUSH2 0x2554 DUP6 DUP3 DUP7 ADD PUSH2 0x24F3 JUMP JUMPDEST SWAP3 POP POP PUSH1 0x20 PUSH2 0x2565 DUP6 DUP3 DUP7 ADD PUSH2 0x251D JUMP JUMPDEST SWAP2 POP POP SWAP3 POP SWAP3 SWAP1 POP JUMP JUMPDEST PUSH2 0x2578 DUP2 PUSH2 0x23B9 JUMP JUMPDEST DUP2 EQ PUSH2 0x2582 JUMPI PUSH0 DUP1 REVERT JUMPDEST POP JUMP JUMPDEST PUSH0 DUP2 CALLDATALOAD SWAP1 POP PUSH2 0x2593 DUP2 PUSH2 0x256F JUMP JUMPDEST SWAP3 SWAP2 POP POP JUMP JUMPDEST PUSH0 PUSH1 0x20 DUP3 DUP5 SUB SLT ISZERO PUSH2 0x25AE JUMPI PUSH2 0x25AD PUSH2 0x2335 JUMP JUMPDEST JUMPDEST PUSH0 PUSH2 0x25BB DUP5 DUP3 DUP6 ADD PUSH2 0x2585 JUMP JUMPDEST SWAP2 POP POP SWAP3 SWAP2 POP POP JUMP JUMPDEST PUSH0 DUP1 PUSH0 PUSH1 0x60 DUP5 DUP7 SUB SLT ISZERO PUSH2 0x25DB JUMPI PUSH2 0x25DA PUSH2 0x2335 JUMP JUMPDEST JUMPDEST PUSH0 PUSH2 0x25E8 DUP7 DUP3 DUP8 ADD PUSH2 0x24F3 JUMP JUMPDEST SWAP4 POP POP PUSH1 0x20 PUSH2 0x25F9 DUP7 DUP3 DUP8 ADD PUSH2 0x24F3 JUMP JUMPDEST SWAP3 POP POP PUSH1 0x40 PUSH2 0x260A DUP7 DUP3 DUP8 ADD PUSH2 0x251D JUMP JUMPDEST SWAP2 POP POP SWAP3 POP SWAP3 POP SWAP3 JUMP JUMPDEST PUSH0 DUP2 SWAP1 POP SWAP2 SWAP1 POP JUMP JUMPDEST PUSH2 0x2626 DUP2 PUSH2 0x2614 JUMP JUMPDEST DUP2 EQ PUSH2 0x2630 JUMPI PUSH0 DUP1 REVERT JUMPDEST POP JUMP JUMPDEST PUSH0 DUP2 CALLDATALOAD SWAP1 POP PUSH2 0x2641 DUP2 PUSH2 0x261D JUMP JUMPDEST SWAP3 SWAP2 POP POP JUMP JUMPDEST PUSH0 PUSH1 0x20 DUP3 DUP5 SUB SLT ISZERO PUSH2 0x265C JUMPI PUSH2 0x265B PUSH2 0x2335 JUMP JUMPDEST JUMPDEST PUSH0 PUSH2 0x2669 DUP5 DUP3 DUP6 ADD PUSH2 0x2633 JUMP JUMPDEST SWAP2 POP POP SWAP3 SWAP2 POP POP JUMP JUMPDEST PUSH2 0x267B DUP2 PUSH2 0x2614 JUMP JUMPDEST DUP3 MSTORE POP POP JUMP JUMPDEST PUSH0 PUSH1 0x20 DUP3 ADD SWAP1 POP PUSH2 0x2694 PUSH0 DUP4 ADD DUP5 PUSH2 0x2672 JUMP JUMPDEST SWAP3 SWAP2 POP POP JUMP JUMPDEST PUSH0 DUP1 PUSH1 0x40 DUP4 DUP6 SUB SLT ISZERO PUSH2 0x26B0 JUMPI PUSH2 0x26AF PUSH2 0x2335 JUMP JUMPDEST JUMPDEST PUSH0 PUSH2 0x26BD DUP6 DUP3 DUP7 ADD PUSH2 0x2633 JUMP JUMPDEST SWAP3 POP POP PUSH1 0x20 PUSH2 0x26CE DUP6 DUP3 DUP7 ADD PUSH2 0x24F3 JUMP JUMPDEST SWAP2 POP POP SWAP3 POP SWAP3 SWAP1 POP JUMP JUMPDEST PUSH0 PUSH1 0xFF DUP3 AND SWAP1 POP SWAP2 SWAP1 POP JUMP JUMPDEST PUSH2 0x26ED DUP2 PUSH2 0x26D8 JUMP JUMPDEST DUP3 MSTORE POP POP JUMP JUMPDEST PUSH0 PUSH1 0x20 DUP3 ADD SWAP1 POP PUSH2 0x2706 PUSH0 DUP4 ADD DUP5 PUSH2 0x26E4 JUMP JUMPDEST SWAP3 SWAP2 POP POP JUMP JUMPDEST PUSH0 DUP1 PUSH1 0x40 DUP4 DUP6 SUB SLT ISZERO PUSH2 0x2722 JUMPI PUSH2 0x2721 PUSH2 0x2335 JUMP JUMPDEST JUMPDEST PUSH0 PUSH2 0x272F DUP6 DUP3 DUP7 ADD PUSH2 0x24F3 JUMP JUMPDEST SWAP3 POP POP PUSH1 0x20 PUSH2 0x2740 DUP6 DUP3 DUP7 ADD PUSH2 0x2585 JUMP JUMPDEST SWAP2 POP POP SWAP3 POP SWAP3 SWAP1 POP JUMP JUMPDEST PUSH0 PUSH2 0x2754 DUP3 PUSH2 0x24CC JUMP JUMPDEST SWAP1 POP SWAP2 SWAP1 POP JUMP JUMPDEST PUSH2 0x2764 DUP2 PUSH2 0x274A JUMP JUMPDEST DUP2 EQ PUSH2 0x276E JUMPI PUSH0 DUP1 REVERT JUMPDEST POP JUMP JUMPDEST PUSH0 DUP2 CALLDATALOAD SWAP1 POP PUSH2 0x277F DUP2 PUSH2 0x275B JUMP JUMPDEST SWAP3 SWAP2 POP POP JUMP JUMPDEST PUSH0 DUP1 PUSH0 PUSH1 0x60 DUP5 DUP7 SUB SLT ISZERO PUSH2 0x279C JUMPI PUSH2 0x279B PUSH2 0x2335 JUMP JUMPDEST JUMPDEST PUSH0 PUSH2 0x27A9 DUP7 DUP3 DUP8 ADD PUSH2 0x2771 JUMP JUMPDEST SWAP4 POP POP PUSH1 0x20 PUSH2 0x27BA DUP7 DUP3 DUP8 ADD PUSH2 0x24F3 JUMP JUMPDEST SWAP3 POP POP PUSH1 0x40 PUSH2 0x27CB DUP7 DUP3 DUP8 ADD PUSH2 0x251D JUMP JUMPDEST SWAP2 POP POP SWAP3 POP SWAP3 POP SWAP3 JUMP JUMPDEST PUSH0 PUSH1 0x20 DUP3 DUP5 SUB SLT ISZERO PUSH2 0x27EA JUMPI PUSH2 0x27E9 PUSH2 0x2335 JUMP JUMPDEST JUMPDEST PUSH0 PUSH2 0x27F7 DUP5 DUP3 DUP6 ADD PUSH2 0x251D JUMP JUMPDEST SWAP2 POP POP SWAP3 SWAP2 POP POP JUMP JUMPDEST PUSH0 PUSH2 0x280A DUP3 PUSH2 0x24AD JUMP JUMPDEST SWAP1 POP SWAP2 SWAP1 POP JUMP JUMPDEST PUSH2 0x281A DUP2 PUSH2 0x2800 JUMP JUMPDEST DUP2 EQ PUSH2 0x2824 JUMPI PUSH0 DUP1 REVERT JUMPDEST POP JUMP JUMPDEST PUSH0 DUP2 CALLDATALOAD SWAP1 POP PUSH2 0x2835 DUP2 PUSH2 0x2811 JUMP JUMPDEST SWAP3 SWAP2 POP POP JUMP JUMPDEST PUSH0 DUP1 PUSH1 0x40 DUP4 DUP6 SUB SLT ISZERO PUSH2 0x2851 JUMPI PUSH2 0x2850 PUSH2 0x2335 JUMP JUMPDEST JUMPDEST PUSH0 PUSH2 0x285E DUP6 DUP3 DUP7 ADD PUSH2 0x2827 JUMP JUMPDEST SWAP3 POP POP PUSH1 0x20 PUSH2 0x286F DUP6 DUP3 DUP7 ADD PUSH2 0x251D JUMP JUMPDEST SWAP2 POP POP SWAP3 POP SWAP3 SWAP1 POP JUMP JUMPDEST PUSH0 PUSH1 0x20 DUP3 DUP5 SUB SLT ISZERO PUSH2 0x288E JUMPI PUSH2 0x288D PUSH2 0x2335 JUMP JUMPDEST JUMPDEST PUSH0 PUSH2 0x289B DUP5 DUP3 DUP6 ADD PUSH2 0x24F3 JUMP JUMPDEST SWAP2 POP POP SWAP3 SWAP2 POP POP JUMP JUMPDEST PUSH0 DUP1 PUSH1 0x40 DUP4 DUP6 SUB SLT ISZERO PUSH2 0x28BA JUMPI PUSH2 0x28B9 PUSH2 0x2335 JUMP JUMPDEST JUMPDEST PUSH0 PUSH2 0x28C7 DUP6 DUP3 DUP7 ADD PUSH2 0x24F3 JUMP JUMPDEST SWAP3 POP POP PUSH1 0x20 PUSH2 0x28D8 DUP6 DUP3 DUP7 ADD PUSH2 0x24F3 JUMP JUMPDEST SWAP2 POP POP SWAP3 POP SWAP3 SWAP1 POP JUMP JUMPDEST PUSH32 0x4E487B7100000000000000000000000000000000000000000000000000000000 PUSH0 MSTORE PUSH1 0x22 PUSH1 0x4 MSTORE PUSH1 0x24 PUSH0 REVERT JUMPDEST PUSH0 PUSH1 0x2 DUP3 DIV SWAP1 POP PUSH1 0x1 DUP3 AND DUP1 PUSH2 0x2926 JUMPI PUSH1 0x7F DUP3 AND SWAP2 POP JUMPDEST PUSH1 0x20 DUP3 LT DUP2 SUB PUSH2 0x2939 JUMPI PUSH2 0x2938 PUSH2 0x28E2 JUMP JUMPDEST JUMPDEST POP SWAP2 SWAP1 POP JUMP JUMPDEST PUSH2 0x2948 DUP2 PUSH2 0x24CC JUMP JUMPDEST DUP3 MSTORE POP POP JUMP JUMPDEST PUSH0 PUSH1 0x40 DUP3 ADD SWAP1 POP PUSH2 0x2961 PUSH0 DUP4 ADD DUP6 PUSH2 0x23F5 JUMP JUMPDEST PUSH2 0x296E PUSH1 0x20 DUP4 ADD DUP5 PUSH2 0x293F JUMP JUMPDEST SWAP4 SWAP3 POP POP POP JUMP JUMPDEST PUSH32 0x45524332303A207472616E7366657220616D6F756E7420657863656564732061 PUSH0 DUP3 ADD MSTORE PUSH32 0x6C6C6F77616E6365000000000000000000000000000000000000000000000000 PUSH1 0x20 DUP3 ADD MSTORE POP JUMP JUMPDEST PUSH0 PUSH2 0x29CF PUSH1 0x28 DUP4 PUSH2 0x2427 JUMP JUMPDEST SWAP2 POP PUSH2 0x29DA DUP3 PUSH2 0x2975 JUMP JUMPDEST PUSH1 0x40 DUP3 ADD SWAP1 POP SWAP2 SWAP1 POP JUMP JUMPDEST PUSH0 PUSH1 0x20 DUP3 ADD SWAP1 POP DUP2 DUP2 SUB PUSH0 DUP4 ADD MSTORE PUSH2 0x29FC DUP2 PUSH2 0x29C3 JUMP JUMPDEST SWAP1 POP SWAP2 SWAP1 POP JUMP JUMPDEST PUSH32 0x4E487B7100000000000000000000000000000000000000000000000000000000 PUSH0 MSTORE PUSH1 0x11 PUSH1 0x4 MSTORE PUSH1 0x24 PUSH0 REVERT JUMPDEST PUSH0 PUSH2 0x2A3A DUP3 PUSH2 0x23EC JUMP JUMPDEST SWAP2 POP PUSH2 0x2A45 DUP4 PUSH2 0x23EC JUMP JUMPDEST SWAP3 POP DUP3 DUP3 SUB SWAP1 POP DUP2 DUP2 GT ISZERO PUSH2 0x2A5D JUMPI PUSH2 0x2A5C PUSH2 0x2A03 JUMP JUMPDEST JUMPDEST SWAP3 SWAP2 POP POP JUMP JUMPDEST PUSH32 0x496E76616C696420616464726573730000000000000000000000000000000000 PUSH0 DUP3 ADD MSTORE POP JUMP JUMPDEST PUSH0 PUSH2 0x2A97 PUSH1 0xF DUP4 PUSH2 0x2427 JUMP JUMPDEST SWAP2 POP PUSH2 0x2AA2 DUP3 PUSH2 0x2A63 JUMP JUMPDEST PUSH1 0x20 DUP3 ADD SWAP1 POP SWAP2 SWAP1 POP JUMP JUMPDEST PUSH0 PUSH1 0x20 DUP3 ADD SWAP1 POP DUP2 DUP2 SUB PUSH0 DUP4 ADD MSTORE PUSH2 0x2AC4 DUP2 PUSH2 0x2A8B JUMP JUMPDEST SWAP1 POP SWAP2 SWAP1 POP JUMP JUMPDEST PUSH0 DUP2 SWAP1 POP SWAP2 SWAP1 POP JUMP JUMPDEST PUSH0 PUSH2 0x2AEE PUSH2 0x2AE9 PUSH2 0x2AE4 DUP5 PUSH2 0x24AD JUMP JUMPDEST PUSH2 0x2ACB JUMP JUMPDEST PUSH2 0x24AD JUMP JUMPDEST SWAP1 POP SWAP2 SWAP1 POP JUMP JUMPDEST PUSH0 PUSH2 0x2AFF DUP3 PUSH2 0x2AD4 JUMP JUMPDEST SWAP1 POP SWAP2 SWAP1 POP JUMP JUMPDEST PUSH0 PUSH2 0x2B10 DUP3 PUSH2 0x2AF5 JUMP JUMPDEST SWAP1 POP SWAP2 SWAP1 POP JUMP JUMPDEST PUSH2 0x2B20 DUP2 PUSH2 0x2B06 JUMP JUMPDEST DUP3 MSTORE POP POP JUMP JUMPDEST PUSH0 PUSH1 0x80 DUP3 ADD SWAP1 POP PUSH2 0x2B39 PUSH0 DUP4 ADD DUP8 PUSH2 0x2B17 JUMP JUMPDEST PUSH2 0x2B46 PUSH1 0x20 DUP4 ADD DUP7 PUSH2 0x23F5 JUMP JUMPDEST PUSH2 0x2B53 PUSH1 0x40 DUP4 ADD DUP6 PUSH2 0x293F JUMP JUMPDEST PUSH2 0x2B60 PUSH1 0x60 DUP4 ADD DUP5 PUSH2 0x23F5 JUMP JUMPDEST SWAP6 SWAP5 POP POP POP POP POP JUMP JUMPDEST PUSH32 0x436F6E74726163743A20436F6E74726163742069732050617573656400000000 PUSH0 DUP3 ADD MSTORE POP JUMP JUMPDEST PUSH0 PUSH2 0x2B9D PUSH1 0x1C DUP4 PUSH2 0x2427 JUMP JUMPDEST SWAP2 POP PUSH2 0x2BA8 DUP3 PUSH2 0x2B69 JUMP JUMPDEST PUSH1 0x20 DUP3 ADD SWAP1 POP SWAP2 SWAP1 POP JUMP JUMPDEST PUSH0 PUSH1 0x20 DUP3 ADD SWAP1 POP DUP2 DUP2 SUB PUSH0 DUP4 ADD MSTORE PUSH2 0x2BCA DUP2 PUSH2 0x2B91 JUMP JUMPDEST SWAP1 POP SWAP2 SWAP1 POP JUMP JUMPDEST PUSH32 0x4D696E74696E6720746F2064697361626C656400000000000000000000000000 PUSH0 DUP3 ADD MSTORE POP JUMP JUMPDEST PUSH0 PUSH2 0x2C05 PUSH1 0x13 DUP4 PUSH2 0x2427 JUMP JUMPDEST SWAP2 POP PUSH2 0x2C10 DUP3 PUSH2 0x2BD1 JUMP JUMPDEST PUSH1 0x20 DUP3 ADD SWAP1 POP SWAP2 SWAP1 POP JUMP JUMPDEST PUSH0 PUSH1 0x20 DUP3 ADD SWAP1 POP DUP2 DUP2 SUB PUSH0 DUP4 ADD MSTORE PUSH2 0x2C32 DUP2 PUSH2 0x2BF9 JUMP JUMPDEST SWAP1 POP SWAP2 SWAP1 POP JUMP JUMPDEST PUSH0 PUSH2 0x2C43 DUP3 PUSH2 0x23EC JUMP JUMPDEST SWAP2 POP PUSH2 0x2C4E DUP4 PUSH2 0x23EC JUMP JUMPDEST SWAP3 POP DUP3 DUP3 ADD SWAP1 POP DUP1 DUP3 GT ISZERO PUSH2 0x2C66 JUMPI PUSH2 0x2C65 PUSH2 0x2A03 JUMP JUMPDEST JUMPDEST SWAP3 SWAP2 POP POP JUMP JUMPDEST PUSH32 0x436F6E74726163743A20537570706C7920436170206578636565646564000000 PUSH0 DUP3 ADD MSTORE POP JUMP JUMPDEST PUSH0 PUSH2 0x2CA0 PUSH1 0x1D DUP4 PUSH2 0x2427 JUMP JUMPDEST SWAP2 POP PUSH2 0x2CAB DUP3 PUSH2 0x2C6C JUMP JUMPDEST PUSH1 0x20 DUP3 ADD SWAP1 POP SWAP2 SWAP1 POP JUMP JUMPDEST PUSH0 PUSH1 0x20 DUP3 ADD SWAP1 POP DUP2 DUP2 SUB PUSH0 DUP4 ADD MSTORE PUSH2 0x2CCD DUP2 PUSH2 0x2C94 JUMP JUMPDEST SWAP1 POP SWAP2 SWAP1 POP JUMP JUMPDEST PUSH0 PUSH1 0x40 DUP3 ADD SWAP1 POP PUSH2 0x2CE7 PUSH0 DUP4 ADD DUP6 PUSH2 0x293F JUMP JUMPDEST PUSH2 0x2CF4 PUSH1 0x20 DUP4 ADD DUP5 PUSH2 0x23F5 JUMP JUMPDEST SWAP4 SWAP3 POP POP POP JUMP JUMPDEST PUSH0 PUSH2 0x2D05 DUP3 PUSH2 0x2AF5 JUMP JUMPDEST SWAP1 POP SWAP2 SWAP1 POP JUMP JUMPDEST PUSH2 0x2D15 DUP2 PUSH2 0x2CFB JUMP JUMPDEST DUP3 MSTORE POP POP JUMP JUMPDEST PUSH0 PUSH1 0x60 DUP3 ADD SWAP1 POP PUSH2 0x2D2E PUSH0 DUP4 ADD DUP7 PUSH2 0x2D0C JUMP JUMPDEST PUSH2 0x2D3B PUSH1 0x20 DUP4 ADD DUP6 PUSH2 0x23F5 JUMP JUMPDEST PUSH2 0x2D48 PUSH1 0x40 DUP4 ADD DUP5 PUSH2 0x23F5 JUMP JUMPDEST SWAP5 SWAP4 POP POP POP POP JUMP JUMPDEST PUSH0 PUSH1 0x60 DUP3 ADD SWAP1 POP PUSH2 0x2D63 PUSH0 DUP4 ADD DUP7 PUSH2 0x293F JUMP JUMPDEST PUSH2 0x2D70 PUSH1 0x20 DUP4 ADD DUP6 PUSH2 0x23F5 JUMP JUMPDEST PUSH2 0x2D7D PUSH1 0x40 DUP4 ADD DUP5 PUSH2 0x293F JUMP JUMPDEST SWAP5 SWAP4 POP POP POP POP JUMP JUMPDEST PUSH32 0x4D696E74696E672064697361626C656400000000000000000000000000000000 PUSH0 DUP3 ADD MSTORE POP JUMP JUMPDEST PUSH0 PUSH2 0x2DB9 PUSH1 0x10 DUP4 PUSH2 0x2427 JUMP JUMPDEST SWAP2 POP PUSH2 0x2DC4 DUP3 PUSH2 0x2D85 JUMP JUMPDEST PUSH1 0x20 DUP3 ADD SWAP1 POP SWAP2 SWAP1 POP JUMP JUMPDEST PUSH0 PUSH1 0x20 DUP3 ADD SWAP1 POP DUP2 DUP2 SUB PUSH0 DUP4 ADD MSTORE PUSH2 0x2DE6 DUP2 PUSH2 0x2DAD JUMP JUMPDEST SWAP1 POP SWAP2 SWAP1 POP JUMP JUMPDEST PUSH32 0x436F6E74726163743A20537570706C792043617020746F6F206C6F7700000000 PUSH0 DUP3 ADD MSTORE POP JUMP JUMPDEST PUSH0 PUSH2 0x2E21 PUSH1 0x1C DUP4 PUSH2 0x2427 JUMP JUMPDEST SWAP2 POP PUSH2 0x2E2C DUP3 PUSH2 0x2DED JUMP JUMPDEST PUSH1 0x20 DUP3 ADD SWAP1 POP SWAP2 SWAP1 POP JUMP JUMPDEST PUSH0 PUSH1 0x20 DUP3 ADD SWAP1 POP DUP2 DUP2 SUB PUSH0 DUP4 ADD MSTORE PUSH2 0x2E4E DUP2 PUSH2 0x2E15 JUMP JUMPDEST SWAP1 POP SWAP2 SWAP1 POP JUMP JUMPDEST PUSH0 PUSH1 0x20 DUP3 ADD SWAP1 POP PUSH2 0x2E68 PUSH0 DUP4 ADD DUP5 PUSH2 0x293F JUMP JUMPDEST SWAP3 SWAP2 POP POP JUMP JUMPDEST PUSH0 PUSH1 0x40 DUP3 ADD SWAP1 POP PUSH2 0x2E81 PUSH0 DUP4 ADD DUP6 PUSH2 0x293F JUMP JUMPDEST PUSH2 0x2E8E PUSH1 0x20 DUP4 ADD DUP5 PUSH2 0x2672 JUMP JUMPDEST SWAP4 SWAP3 POP POP POP JUMP JUMPDEST PUSH0 PUSH1 0x60 DUP3 ADD SWAP1 POP PUSH2 0x2EA8 PUSH0 DUP4 ADD DUP7 PUSH2 0x293F JUMP JUMPDEST PUSH2 0x2EB5 PUSH1 0x20 DUP4 ADD DUP6 PUSH2 0x23F5 JUMP JUMPDEST PUSH2 0x2EC2 PUSH1 0x40 DUP4 ADD DUP5 PUSH2 0x23F5 JUMP JUMPDEST SWAP5 SWAP4 POP POP POP POP JUMP INVALID LOG2 PUSH5 0x6970667358 0x22 SLT KECCAK256 0xBF 0xF9 0xD0 ADD CALLDATASIZE BLOCKHASH 0xC6 0xEF CALLDATALOAD SGT DUP1 0xF 0xBC 0xCA 0x4B 0xD4 0x2E 0xEE JUMPI BYTE INVALID 0xAF PUSH31 0x5AD10EBF4B5198A3A364736F6C634300081A00330000000000000000000000 "
				},
				"gasEstimates": {
					"creation": {
						"codeDepositCost": "2406400",
						"executionCost": "infinite",
						"totalCost": "infinite"
					},
					"external": {
						"DEFAULT_ADMIN_ROLE()": "463",
						"_ADMIN()": "392",
						"_BURN()": "414",
						"_BURNFROM()": "458",
						"_MINT()": "437",
						"_MINTTO()": "393",
						"_RESCUE()": "415",
						"_SUPPLY()": "435",
						"_cap()": "2494",
						"allowance(address,address)": "infinite",
						"approve(address,uint256)": "infinite",
						"balanceOf(address)": "2984",
						"burn(uint256)": "infinite",
						"burnFrom(address,uint256)": "infinite",
						"decimals()": "472",
						"disableMint(bool)": "infinite",
						"disableMintTo(bool)": "infinite",
						"ethRescue(address,uint256)": "infinite",
						"getRoleAdmin(bytes32)": "infinite",
						"grantRole(bytes32,address)": "infinite",
						"hasRole(bytes32,address)": "3167",
						"mint(uint256)": "infinite",
						"mintDisabled()": "2584",
						"mintTo(address,uint256)": "infinite",
						"mintToDisabled()": "2650",
						"moveERC20(address,address,uint256)": "infinite",
						"name()": "infinite",
						"paused()": "2577",
						"renounceRole(bytes32,address)": "infinite",
						"revokeRole(bytes32,address)": "infinite",
						"setPaused(bool)": "infinite",
						"setSupplyCap(uint256)": "infinite",
						"setTxFee(uint256)": "25116",
						"setWhitelistAddress(address,bool)": "infinite",
						"supplyCap()": "2566",
						"supportsInterface(bytes4)": "764",
						"symbol()": "infinite",
						"totalSupply()": "2478",
						"transfer(address,uint256)": "infinite",
						"transferFrom(address,address,uint256)": "infinite",
						"txFee()": "2536",
						"whitelistedAddress(address)": "2922"
					}
				},
				"methodIdentifiers": {
					"DEFAULT_ADMIN_ROLE()": "a217fddf",
					"_ADMIN()": "51557289",
					"_BURN()": "53a4c31e",
					"_BURNFROM()": "6ba77a38",
					"_MINT()": "8ebed5b1",
					"_MINTTO()": "7e92a7fd",
					"_RESCUE()": "8d580b9f",
					"_SUPPLY()": "ea5cb532",
					"_cap()": "060cf4e8",
					"allowance(address,address)": "dd62ed3e",
					"approve(address,uint256)": "095ea7b3",
					"balanceOf(address)": "70a08231",
					"burn(uint256)": "42966c68",
					"burnFrom(address,uint256)": "79cc6790",
					"decimals()": "313ce567",
					"disableMint(bool)": "deb6db36",
					"disableMintTo(bool)": "f2250d3d",
					"ethRescue(address,uint256)": "48132f48",
					"getRoleAdmin(bytes32)": "248a9ca3",
					"grantRole(bytes32,address)": "2f2ff15d",
					"hasRole(bytes32,address)": "91d14854",
					"mint(uint256)": "a0712d68",
					"mintDisabled()": "956feccf",
					"mintTo(address,uint256)": "449a52f8",
					"mintToDisabled()": "d1c9f69b",
					"moveERC20(address,address,uint256)": "41f431fd",
					"name()": "06fdde03",
					"paused()": "5c975abb",
					"renounceRole(bytes32,address)": "36568abe",
					"revokeRole(bytes32,address)": "d547741f",
					"setPaused(bool)": "16c38b3c",
					"setSupplyCap(uint256)": "b6a3f59a",
					"setTxFee(uint256)": "f05d16f7",
					"setWhitelistAddress(address,bool)": "3f914aef",
					"supplyCap()": "8f770ad0",
					"supportsInterface(bytes4)": "01ffc9a7",
					"symbol()": "95d89b41",
					"totalSupply()": "18160ddd",
					"transfer(address,uint256)": "a9059cbb",
					"transferFrom(address,address,uint256)": "23b872dd",
					"txFee()": "cf820461",
					"whitelistedAddress(address)": "c30796ab"
				}
			},
			"storageLayout": {
				"storage": [
					{
						"astId": 628,
						"contract": "src/token.sol:EqualFiToken",
						"label": "_balances",
						"offset": 0,
						"slot": "0",
						"type": "t_mapping(t_address,t_uint256)"
					},
					{
						"astId": 634,
						"contract": "src/token.sol:EqualFiToken",
						"label": "_allowances",
						"offset": 0,
						"slot": "1",
						"type": "t_mapping(t_address,t_mapping(t_address,t_uint256))"
					},
					{
						"astId": 636,
						"contract": "src/token.sol:EqualFiToken",
						"label": "_totalSupply",
						"offset": 0,
						"slot": "2",
						"type": "t_uint256"
					},
					{
						"astId": 638,
						"contract": "src/token.sol:EqualFiToken",
						"label": "_name",
						"offset": 0,
						"slot": "3",
						"type": "t_string_storage"
					},
					{
						"astId": 640,
						"contract": "src/token.sol:EqualFiToken",
						"label": "_symbol",
						"offset": 0,
						"slot": "4",
						"type": "t_string_storage"
					},
					{
						"astId": 26,
						"contract": "src/token.sol:EqualFiToken",
						"label": "_roles",
						"offset": 0,
						"slot": "5",
						"type": "t_mapping(t_bytes32,t_struct(RoleData)21_storage)"
					},
					{
						"astId": 1957,
						"contract": "src/token.sol:EqualFiToken",
						"label": "_status",
						"offset": 0,
						"slot": "6",
						"type": "t_uint256"
					},
					{
						"astId": 2119,
						"contract": "src/token.sol:EqualFiToken",
						"label": "_cap",
						"offset": 0,
						"slot": "7",
						"type": "t_uint256"
					},
					{
						"astId": 2123,
						"contract": "src/token.sol:EqualFiToken",
						"label": "txFee",
						"offset": 0,
						"slot": "8",
						"type": "t_uint256"
					},
					{
						"astId": 2126,
						"contract": "src/token.sol:EqualFiToken",
						"label": "paused",
						"offset": 0,
						"slot": "9",
						"type": "t_bool"
					},
					{
						"astId": 2129,
						"contract": "src/token.sol:EqualFiToken",
						"label": "mintDisabled",
						"offset": 1,
						"slot": "9",
						"type": "t_bool"
					},
					{
						"astId": 2132,
						"contract": "src/token.sol:EqualFiToken",
						"label": "mintToDisabled",
						"offset": 2,
						"slot": "9",
						"type": "t_bool"
					},
					{
						"astId": 2235,
						"contract": "src/token.sol:EqualFiToken",
						"label": "whitelistedAddress",
						"offset": 0,
						"slot": "10",
						"type": "t_mapping(t_address,t_bool)"
					}
				],
				"types": {
					"t_address": {
						"encoding": "inplace",
						"label": "address",
						"numberOfBytes": "20"
					},
					"t_bool": {
						"encoding": "inplace",
						"label": "bool",
						"numberOfBytes": "1"
					},
					"t_bytes32": {
						"encoding": "inplace",
						"label": "bytes32",
						"numberOfBytes": "32"
					},
					"t_mapping(t_address,t_bool)": {
						"encoding": "mapping",
						"key": "t_address",
						"label": "mapping(address => bool)",
						"numberOfBytes": "32",
						"value": "t_bool"
					},
					"t_mapping(t_address,t_mapping(t_address,t_uint256))": {
						"encoding": "mapping",
						"key": "t_address",
						"label": "mapping(address => mapping(address => uint256))",
						"numberOfBytes": "32",
						"value": "t_mapping(t_address,t_uint256)"
					},
					"t_mapping(t_address,t_uint256)": {
						"encoding": "mapping",
						"key": "t_address",
						"label": "mapping(address => uint256)",
						"numberOfBytes": "32",
						"value": "t_uint256"
					},
					"t_mapping(t_bytes32,t_struct(RoleData)21_storage)": {
						"encoding": "mapping",
						"key": "t_bytes32",
						"label": "mapping(bytes32 => struct AccessControl.RoleData)",
						"numberOfBytes": "32",
						"value": "t_struct(RoleData)21_storage"
					},
					"t_string_storage": {
						"encoding": "bytes",
						"label": "string",
						"numberOfBytes": "32"
					},
					"t_struct(RoleData)21_storage": {
						"encoding": "inplace",
						"label": "struct AccessControl.RoleData",
						"members": [
							{
								"astId": 18,
								"contract": "src/token.sol:EqualFiToken",
								"label": "hasRole",
								"offset": 0,
								"slot": "0",
								"type": "t_mapping(t_address,t_bool)"
							},
							{
								"astId": 20,
								"contract": "src/token.sol:EqualFiToken",
								"label": "adminRole",
								"offset": 0,
								"slot": "1",
								"type": "t_bytes32"
							}
						],
						"numberOfBytes": "64"
					},
					"t_uint256": {
						"encoding": "inplace",
						"label": "uint256",
						"numberOfBytes": "32"
					}
				}
			},
			"userdoc": {
				"events": {
					"ContractPaused(uint256,address)": {
						"notice": "Emitted when the contract is paused"
					},
					"ContractUnpaused(uint256,address)": {
						"notice": "Emitted when the contract is unpaused"
					},
					"ERC20Rescued(address,uint256,address,uint256)": {
						"notice": "Emitted when ERC20 tokens are rescued from the contract"
					},
					"ETHRescued(address,uint256,uint256)": {
						"notice": "Emitted when Ether is rescued from the contract"
					},
					"MintingDisabled(uint256,address)": {
						"notice": "Emitted when minting is disabled"
					},
					"MintingEnabled(uint256,address)": {
						"notice": "Emitted when minting is enabled"
					},
					"MintingToDisabled(uint256,address)": {
						"notice": "Emitted when minting to specific addresses is disabled"
					},
					"MintingToEnabled(uint256,address)": {
						"notice": "Emitted when minting to specific addresses is enabled"
					},
					"SupplyCapChanged(uint256,address)": {
						"notice": "Emitted when the supply cap is changed"
					},
					"TokensBurned(uint256,address)": {
						"notice": "Emitted when tokens are burned from the caller's balance"
					},
					"TokensBurnedFrom(address,uint256,address)": {
						"notice": "Emitted when tokens are burned from a specific address"
					},
					"TokensMinted(uint256)": {
						"notice": "Emitted when tokens are minted"
					},
					"TokensMintedTo(address,uint256)": {
						"notice": "Emitted when tokens are minted to a specific address"
					}
				},
				"kind": "user",
				"methods": {
					"_ADMIN()": {
						"notice": "Role identifier for administrative tasks"
					},
					"_BURN()": {
						"notice": "Role identifier for burning tokens"
					},
					"_BURNFROM()": {
						"notice": "Role identifier for burning tokens from specific addresses"
					},
					"_MINT()": {
						"notice": "Role identifier for minting new tokens"
					},
					"_MINTTO()": {
						"notice": "Role identifier for minting tokens to specific addresses"
					},
					"_RESCUE()": {
						"notice": "Role identifier for rescuing tokens and Ether"
					},
					"_SUPPLY()": {
						"notice": "Role identifier for modifying the supply cap"
					},
					"_cap()": {
						"notice": "Maximum supply cap for the token"
					},
					"mintDisabled()": {
						"notice": "Flag to disable minting"
					},
					"mintToDisabled()": {
						"notice": "Flag to disable minting to specific addresses"
					},
					"paused()": {
						"notice": "Flag to pause the contract's operations"
					},
					"txFee()": {
						"notice": "Transaction fee for transfers (0.005 tokens, assuming 18 decimals)"
					},
					"whitelistedAddress(address)": {
						"notice": "Mapping to track addresses exempt from transfer fees"
					}
				},
				"version": 1
			}
		}
	}
}