{
	"src/staking.sol": {
		"TokenStaking": {
			"abi": [
				{
					"inputs": [
						{
							"internalType": "contract IMintableToken",
							"name": "_token",
							"type": "address"
						},
						{
							"internalType": "uint256",
							"name": "_claimInterval",
							"type": "uint256"
						},
						{
							"internalType": "contract IERC721",
							"name": "_nft",
							"type": "address"
						},
						{
							"internalType": "contract nftIface",
							"name": "_ifacenft",
							"type": "address"
						}
					],
					"stateMutability": "nonpayable",
					"type": "constructor"
				},
				{
					"inputs": [],
					"name": "AccessControlBadConfirmation",
					"type": "error"
				},
				{
					"inputs": [
						{
							"internalType": "address",
							"name": "account",
							"type": "address"
						},
						{
							"internalType": "bytes32",
							"name": "neededRole",
							"type": "bytes32"
						}
					],
					"name": "AccessControlUnauthorizedAccount",
					"type": "error"
				},
				{
					"anonymous": false,
					"inputs": [
						{
							"indexed": true,
							"internalType": "address",
							"name": "staker",
							"type": "address"
						},
						{
							"indexed": false,
							"internalType": "uint256",
							"name": "amount",
							"type": "uint256"
						}
					],
					"name": "ClaimedRewards",
					"type": "event"
				},
				{
					"anonymous": false,
					"inputs": [
						{
							"indexed": true,
							"internalType": "bytes32",
							"name": "role",
							"type": "bytes32"
						},
						{
							"indexed": true,
							"internalType": "bytes32",
							"name": "previousAdminRole",
							"type": "bytes32"
						},
						{
							"indexed": true,
							"internalType": "bytes32",
							"name": "newAdminRole",
							"type": "bytes32"
						}
					],
					"name": "RoleAdminChanged",
					"type": "event"
				},
				{
					"anonymous": false,
					"inputs": [
						{
							"indexed": true,
							"internalType": "bytes32",
							"name": "role",
							"type": "bytes32"
						},
						{
							"indexed": true,
							"internalType": "address",
							"name": "account",
							"type": "address"
						},
						{
							"indexed": true,
							"internalType": "address",
							"name": "sender",
							"type": "address"
						}
					],
					"name": "RoleGranted",
					"type": "event"
				},
				{
					"anonymous": false,
					"inputs": [
						{
							"indexed": true,
							"internalType": "bytes32",
							"name": "role",
							"type": "bytes32"
						},
						{
							"indexed": true,
							"internalType": "address",
							"name": "account",
							"type": "address"
						},
						{
							"indexed": true,
							"internalType": "address",
							"name": "sender",
							"type": "address"
						}
					],
					"name": "RoleRevoked",
					"type": "event"
				},
				{
					"anonymous": false,
					"inputs": [
						{
							"indexed": true,
							"internalType": "address",
							"name": "staker",
							"type": "address"
						},
						{
							"indexed": false,
							"internalType": "uint256",
							"name": "amount",
							"type": "uint256"
						}
					],
					"name": "Staked",
					"type": "event"
				},
				{
					"anonymous": false,
					"inputs": [
						{
							"indexed": true,
							"internalType": "address",
							"name": "staker",
							"type": "address"
						},
						{
							"indexed": false,
							"internalType": "uint256",
							"name": "amount",
							"type": "uint256"
						}
					],
					"name": "Unstaked",
					"type": "event"
				},
				{
					"inputs": [],
					"name": "DEFAULT_ADMIN_ROLE",
					"outputs": [
						{
							"internalType": "bytes32",
							"name": "",
							"type": "bytes32"
						}
					],
					"stateMutability": "view",
					"type": "function"
				},
				{
					"inputs": [],
					"name": "_ADMIN",
					"outputs": [
						{
							"internalType": "bytes32",
							"name": "",
							"type": "bytes32"
						}
					],
					"stateMutability": "view",
					"type": "function"
				},
				{
					"inputs": [],
					"name": "_MINTER",
					"outputs": [
						{
							"internalType": "bytes32",
							"name": "",
							"type": "bytes32"
						}
					],
					"stateMutability": "view",
					"type": "function"
				},
				{
					"inputs": [],
					"name": "_RESCUE",
					"outputs": [
						{
							"internalType": "bytes32",
							"name": "",
							"type": "bytes32"
						}
					],
					"stateMutability": "view",
					"type": "function"
				},
				{
					"inputs": [
						{
							"internalType": "address",
							"name": "_staker",
							"type": "address"
						}
					],
					"name": "calculatePendingRewards",
					"outputs": [
						{
							"internalType": "uint256",
							"name": "",
							"type": "uint256"
						}
					],
					"stateMutability": "view",
					"type": "function"
				},
				{
					"inputs": [],
					"name": "claimInterval",
					"outputs": [
						{
							"internalType": "uint256",
							"name": "",
							"type": "uint256"
						}
					],
					"stateMutability": "view",
					"type": "function"
				},
				{
					"inputs": [],
					"name": "claimRewards",
					"outputs": [],
					"stateMutability": "nonpayable",
					"type": "function"
				},
				{
					"inputs": [
						{
							"internalType": "address payable",
							"name": "_dest",
							"type": "address"
						},
						{
							"internalType": "uint256",
							"name": "_etherAmount",
							"type": "uint256"
						}
					],
					"name": "ethRescue",
					"outputs": [],
					"stateMutability": "nonpayable",
					"type": "function"
				},
				{
					"inputs": [],
					"name": "getBlock",
					"outputs": [
						{
							"internalType": "uint256",
							"name": "",
							"type": "uint256"
						}
					],
					"stateMutability": "view",
					"type": "function"
				},
				{
					"inputs": [
						{
							"internalType": "address",
							"name": "user",
							"type": "address"
						}
					],
					"name": "getLevel",
					"outputs": [
						{
							"internalType": "uint256",
							"name": "",
							"type": "uint256"
						}
					],
					"stateMutability": "view",
					"type": "function"
				},
				{
					"inputs": [
						{
							"internalType": "bytes32",
							"name": "role",
							"type": "bytes32"
						}
					],
					"name": "getRoleAdmin",
					"outputs": [
						{
							"internalType": "bytes32",
							"name": "",
							"type": "bytes32"
						}
					],
					"stateMutability": "view",
					"type": "function"
				},
				{
					"inputs": [
						{
							"internalType": "bytes32",
							"name": "role",
							"type": "bytes32"
						},
						{
							"internalType": "address",
							"name": "account",
							"type": "address"
						}
					],
					"name": "grantRole",
					"outputs": [],
					"stateMutability": "nonpayable",
					"type": "function"
				},
				{
					"inputs": [
						{
							"internalType": "bytes32",
							"name": "role",
							"type": "bytes32"
						},
						{
							"internalType": "address",
							"name": "account",
							"type": "address"
						}
					],
					"name": "hasRole",
					"outputs": [
						{
							"internalType": "bool",
							"name": "",
							"type": "bool"
						}
					],
					"stateMutability": "view",
					"type": "function"
				},
				{
					"inputs": [],
					"name": "ifacenft",
					"outputs": [
						{
							"internalType": "contract nftIface",
							"name": "",
							"type": "address"
						}
					],
					"stateMutability": "view",
					"type": "function"
				},
				{
					"inputs": [],
					"name": "lastUpdateBlock",
					"outputs": [
						{
							"internalType": "uint256",
							"name": "",
							"type": "uint256"
						}
					],
					"stateMutability": "view",
					"type": "function"
				},
				{
					"inputs": [
						{
							"internalType": "contract IERC20",
							"name": "_ERC20",
							"type": "address"
						},
						{
							"internalType": "address",
							"name": "_dest",
							"type": "address"
						},
						{
							"internalType": "uint256",
							"name": "_ERC20Amount",
							"type": "uint256"
						}
					],
					"name": "moveERC20",
					"outputs": [],
					"stateMutability": "nonpayable",
					"type": "function"
				},
				{
					"inputs": [],
					"name": "nft",
					"outputs": [
						{
							"internalType": "contract IERC721",
							"name": "",
							"type": "address"
						}
					],
					"stateMutability": "view",
					"type": "function"
				},
				{
					"inputs": [
						{
							"internalType": "bytes32",
							"name": "role",
							"type": "bytes32"
						},
						{
							"internalType": "address",
							"name": "callerConfirmation",
							"type": "address"
						}
					],
					"name": "renounceRole",
					"outputs": [],
					"stateMutability": "nonpayable",
					"type": "function"
				},
				{
					"inputs": [
						{
							"internalType": "bytes32",
							"name": "role",
							"type": "bytes32"
						},
						{
							"internalType": "address",
							"name": "account",
							"type": "address"
						}
					],
					"name": "revokeRole",
					"outputs": [],
					"stateMutability": "nonpayable",
					"type": "function"
				},
				{
					"inputs": [],
					"name": "rewardBonus",
					"outputs": [
						{
							"internalType": "uint256",
							"name": "gold",
							"type": "uint256"
						},
						{
							"internalType": "uint256",
							"name": "silver",
							"type": "uint256"
						},
						{
							"internalType": "uint256",
							"name": "bronze",
							"type": "uint256"
						}
					],
					"stateMutability": "view",
					"type": "function"
				},
				{
					"inputs": [],
					"name": "rewardRatePerBlock",
					"outputs": [
						{
							"internalType": "uint256",
							"name": "",
							"type": "uint256"
						}
					],
					"stateMutability": "view",
					"type": "function"
				},
				{
					"inputs": [
						{
							"internalType": "uint256",
							"name": "_niw",
							"type": "uint256"
						}
					],
					"name": "setClaimInterval",
					"outputs": [],
					"stateMutability": "nonpayable",
					"type": "function"
				},
				{
					"inputs": [
						{
							"internalType": "contract IERC721",
							"name": "_newGoldNFT",
							"type": "address"
						}
					],
					"name": "setNFT",
					"outputs": [],
					"stateMutability": "nonpayable",
					"type": "function"
				},
				{
					"inputs": [
						{
							"internalType": "uint256",
							"name": "_newRewardRatePerBlock",
							"type": "uint256"
						}
					],
					"name": "setRewardRatePerBlock",
					"outputs": [],
					"stateMutability": "nonpayable",
					"type": "function"
				},
				{
					"inputs": [
						{
							"internalType": "contract IMintableToken",
							"name": "_newToken",
							"type": "address"
						}
					],
					"name": "setToken",
					"outputs": [],
					"stateMutability": "nonpayable",
					"type": "function"
				},
				{
					"inputs": [
						{
							"internalType": "uint256",
							"name": "_amount",
							"type": "uint256"
						}
					],
					"name": "stake",
					"outputs": [],
					"stateMutability": "nonpayable",
					"type": "function"
				},
				{
					"inputs": [
						{
							"internalType": "bytes4",
							"name": "interfaceId",
							"type": "bytes4"
						}
					],
					"name": "supportsInterface",
					"outputs": [
						{
							"internalType": "bool",
							"name": "",
							"type": "bool"
						}
					],
					"stateMutability": "view",
					"type": "function"
				},
				{
					"inputs": [],
					"name": "token",
					"outputs": [
						{
							"internalType": "contract IMintableToken",
							"name": "",
							"type": "address"
						}
					],
					"stateMutability": "view",
					"type": "function"
				},
				{
					"inputs": [],
					"name": "totalRewards",
					"outputs": [
						{
							"internalType": "uint256",
							"name": "",
							"type": "uint256"
						}
					],
					"stateMutability": "view",
					"type": "function"
				},
				{
					"inputs": [],
					"name": "totalStaked",
					"outputs": [
						{
							"internalType": "uint256",
							"name": "",
							"type": "uint256"
						}
					],
					"stateMutability": "view",
					"type": "function"
				},
				{
					"inputs": [
						{
							"internalType": "uint256",
							"name": "_amount",
							"type": "uint256"
						}
					],
					"name": "unstake",
					"outputs": [],
					"stateMutability": "nonpayable",
					"type": "function"
				},
				{
					"inputs": [
						{
							"internalType": "address",
							"name": "",
							"type": "address"
						}
					],
					"name": "userInfo",
					"outputs": [
						{
							"internalType": "uint256",
							"name": "stakedBalance",
							"type": "uint256"
						},
						{
							"internalType": "uint256",
							"name": "lastClaimBlock",
							"type": "uint256"
						}
					],
					"stateMutability": "view",
					"type": "function"
				}
			],
			"devdoc": {
				"details": "This contract allows users to stake ERC20 tokens and claim rewards based on the staking duration. It also supports NFT-based reward bonuses. The contract is protected against reentrancy attacks and uses role-based access control for administrative functions.",
				"errors": {
					"AccessControlBadConfirmation()": [
						{
							"details": "The caller of a function is not the expected one. NOTE: Don't confuse with {AccessControlUnauthorizedAccount}."
						}
					],
					"AccessControlUnauthorizedAccount(address,bytes32)": [
						{
							"details": "The `account` is missing a role."
						}
					]
				},
				"events": {
					"RoleAdminChanged(bytes32,bytes32,bytes32)": {
						"details": "Emitted when `newAdminRole` is set as ``role``'s admin role, replacing `previousAdminRole` `DEFAULT_ADMIN_ROLE` is the starting admin for all roles, despite {RoleAdminChanged} not being emitted signaling this."
					},
					"RoleGranted(bytes32,address,address)": {
						"details": "Emitted when `account` is granted `role`. `sender` is the account that originated the contract call, an admin role bearer except when using {AccessControl-_setupRole}."
					},
					"RoleRevoked(bytes32,address,address)": {
						"details": "Emitted when `account` is revoked `role`. `sender` is the account that originated the contract call:   - if using `revokeRole`, it is the admin role bearer   - if using `renounceRole`, it is the role bearer (i.e. `account`)"
					}
				},
				"kind": "dev",
				"methods": {
					"calculatePendingRewards(address)": {
						"details": "Calculates the pending rewards for a staker based on their staking duration and NFT level.",
						"params": {
							"_staker": "The address of the staker."
						},
						"returns": {
							"_0": "The amount of pending rewards."
						}
					},
					"claimRewards()": {
						"details": "Public function to claim staking rewards. The nonReentrant modifier ensures no reentrancy attack."
					},
					"constructor": {
						"details": "Constructor to initialize the staking contract with the token, claim interval, NFT, and NFT interface.",
						"params": {
							"_claimInterval": "The interval (in blocks) between reward claims.",
							"_ifacenft": "The address of the NFT interface contract.",
							"_nft": "The address of the ERC-721 NFT contract.",
							"_token": "The address of the mintable ERC-20 token contract."
						}
					},
					"ethRescue(address,uint256)": {
						"details": "Allows an authorized user to rescue Ether sent to the contract by mistake. Only callable by a user with the RESCUE role.",
						"params": {
							"_dest": "The address to send the rescued Ether to.",
							"_etherAmount": "The amount of Ether to rescue."
						}
					},
					"getBlock()": {
						"details": "Returns the current block number.",
						"returns": {
							"_0": "The current block number."
						}
					},
					"getLevel(address)": {
						"details": "Gets the NFT level of a user.",
						"params": {
							"user": "The address of the user."
						},
						"returns": {
							"_0": "The NFT level of the user."
						}
					},
					"getRoleAdmin(bytes32)": {
						"details": "Returns the admin role that controls `role`. See {grantRole} and {revokeRole}. To change a role's admin, use {_setRoleAdmin}."
					},
					"grantRole(bytes32,address)": {
						"details": "Grants `role` to `account`. If `account` had not been already granted `role`, emits a {RoleGranted} event. Requirements: - the caller must have ``role``'s admin role. May emit a {RoleGranted} event."
					},
					"hasRole(bytes32,address)": {
						"details": "Returns `true` if `account` has been granted `role`."
					},
					"moveERC20(address,address,uint256)": {
						"details": "Allows an authorized user to rescue ERC20 tokens sent to the contract by mistake. Only callable by a user with the RESCUE role.",
						"params": {
							"_ERC20": "The address of the ERC20 token to rescue.",
							"_ERC20Amount": "The amount of tokens to rescue.",
							"_dest": "The address to send the rescued tokens to."
						}
					},
					"renounceRole(bytes32,address)": {
						"details": "Revokes `role` from the calling account. Roles are often managed via {grantRole} and {revokeRole}: this function's purpose is to provide a mechanism for accounts to lose their privileges if they are compromised (such as when a trusted device is misplaced). If the calling account had been revoked `role`, emits a {RoleRevoked} event. Requirements: - the caller must be `callerConfirmation`. May emit a {RoleRevoked} event."
					},
					"revokeRole(bytes32,address)": {
						"details": "Revokes `role` from `account`. If `account` had been granted `role`, emits a {RoleRevoked} event. Requirements: - the caller must have ``role``'s admin role. May emit a {RoleRevoked} event."
					},
					"setClaimInterval(uint256)": {
						"details": "Sets a new claim interval. Only callable by an admin.",
						"params": {
							"_niw": "The new claim interval in blocks."
						}
					},
					"setNFT(address)": {
						"details": "Sets a new NFT contract. Only callable by an admin.",
						"params": {
							"_newGoldNFT": "The address of the new ERC-721 NFT contract."
						}
					},
					"setRewardRatePerBlock(uint256)": {
						"details": "Sets a new reward rate per block. Only callable by an admin.",
						"params": {
							"_newRewardRatePerBlock": "The new reward rate per block."
						}
					},
					"setToken(address)": {
						"details": "Sets a new token contract for staking. Only callable by an admin.",
						"params": {
							"_newToken": "The address of the new mintable token contract."
						}
					},
					"stake(uint256)": {
						"details": "Public function to stake tokens. The nonReentrant modifier ensures no reentrancy attack.",
						"params": {
							"_amount": "The amount of tokens to stake."
						}
					},
					"supportsInterface(bytes4)": {
						"details": "See {IERC165-supportsInterface}."
					},
					"unstake(uint256)": {
						"details": "Public function to unstake tokens. The nonReentrant modifier ensures no reentrancy attack.",
						"params": {
							"_amount": "The amount of tokens to unstake."
						}
					}
				},
				"title": "TokenStaking",
				"version": 1
			},
			"evm": {
				"assembly": "    /* \"src/staking.sol\":953:10510  contract TokenStaking is AccessControl, ReentrancyGuard {... */\n  mstore(0x40, 0x80)\n    /* \"src/staking.sol\":3300:3701  constructor(IMintableToken _token, uint _claimInterval, IERC721 _nft, nftIface _ifacenft) {... */\n  callvalue\n  dup1\n  iszero\n  tag_1\n  jumpi\n  0x00\n  dup1\n  revert\ntag_1:\n  pop\n  mload(0x40)\n  sub(codesize, bytecodeSize)\n  dup1\n  bytecodeSize\n  dup4\n  codecopy\n  dup2\n  dup2\n  add\n  0x40\n  mstore\n  dup2\n  add\n  swap1\n  tag_2\n  swap2\n  swap1\n  tag_3\n  jump\t// in\ntag_2:\n    /* \"@openzeppelin/contracts/security/ReentrancyGuard.sol\":1716:1717  1 */\n  0x01\n    /* \"@openzeppelin/contracts/security/ReentrancyGuard.sol\":1821:1828  _status */\n  dup1\n    /* \"@openzeppelin/contracts/security/ReentrancyGuard.sol\":1821:1843  _status = _NOT_ENTERED */\n  dup2\n  swap1\n  sstore\n  pop\n    /* \"src/staking.sol\":3408:3414  _token */\n  dup4\n    /* \"src/staking.sol\":3400:3405  token */\n  0x02\n  0x00\n    /* \"src/staking.sol\":3400:3414  token = _token */\n  0x0100\n  exp\n  dup2\n  sload\n  dup2\n  0xffffffffffffffffffffffffffffffffffffffff\n  mul\n  not\n  and\n  swap1\n  dup4\n  0xffffffffffffffffffffffffffffffffffffffff\n  and\n  mul\n  or\n  swap1\n  sstore\n  pop\n    /* \"src/staking.sol\":3430:3434  _nft */\n  dup2\n    /* \"src/staking.sol\":3424:3427  nft */\n  0x03\n  0x00\n    /* \"src/staking.sol\":3424:3434  nft = _nft */\n  0x0100\n  exp\n  dup2\n  sload\n  dup2\n  0xffffffffffffffffffffffffffffffffffffffff\n  mul\n  not\n  and\n  swap1\n  dup4\n  0xffffffffffffffffffffffffffffffffffffffff\n  and\n  mul\n  or\n  swap1\n  sstore\n  pop\n    /* \"src/staking.sol\":3455:3464  _ifacenft */\n  dup1\n    /* \"src/staking.sol\":3444:3452  ifacenft */\n  0x04\n  0x00\n    /* \"src/staking.sol\":3444:3464  ifacenft = _ifacenft */\n  0x0100\n  exp\n  dup2\n  sload\n  dup2\n  0xffffffffffffffffffffffffffffffffffffffff\n  mul\n  not\n  and\n  swap1\n  dup4\n  0xffffffffffffffffffffffffffffffffffffffff\n  and\n  mul\n  or\n  swap1\n  sstore\n  pop\n    /* \"src/staking.sol\":3495:3507  0.0008 ether */\n  0x02d79883d20000\n    /* \"src/staking.sol\":3474:3492  rewardRatePerBlock */\n  0x05\n    /* \"src/staking.sol\":3474:3507  rewardRatePerBlock = 0.0008 ether */\n  dup2\n  swap1\n  sstore\n  pop\n    /* \"src/staking.sol\":3535:3547  block.number */\n  number\n    /* \"src/staking.sol\":3517:3532  lastUpdateBlock */\n  0x06\n    /* \"src/staking.sol\":3517:3547  lastUpdateBlock = block.number */\n  dup2\n  swap1\n  sstore\n  pop\n    /* \"src/staking.sol\":3573:3587  _claimInterval */\n  dup3\n    /* \"src/staking.sol\":3557:3570  claimInterval */\n  0x09\n    /* \"src/staking.sol\":3557:3587  claimInterval = _claimInterval */\n  dup2\n  swap1\n  sstore\n  pop\n    /* \"src/staking.sol\":3611:3694  RewardLevelBonus({ gold: 0.001 ether, silver: 0.0005 ether, bronze: 0.0002 ether }) */\n  mload(0x40)\n  dup1\n  0x60\n  add\n  0x40\n  mstore\n  dup1\n    /* \"src/staking.sol\":3636:3647  0.001 ether */\n  0x038d7ea4c68000\n    /* \"src/staking.sol\":3611:3694  RewardLevelBonus({ gold: 0.001 ether, silver: 0.0005 ether, bronze: 0.0002 ether }) */\n  dup2\n  mstore\n  0x20\n  add\n    /* \"src/staking.sol\":3657:3669  0.0005 ether */\n  0x01c6bf52634000\n    /* \"src/staking.sol\":3611:3694  RewardLevelBonus({ gold: 0.001 ether, silver: 0.0005 ether, bronze: 0.0002 ether }) */\n  dup2\n  mstore\n  0x20\n  add\n    /* \"src/staking.sol\":3679:3691  0.0002 ether */\n  0xb5e620f48000\n    /* \"src/staking.sol\":3611:3694  RewardLevelBonus({ gold: 0.001 ether, silver: 0.0005 ether, bronze: 0.0002 ether }) */\n  dup2\n  mstore\n  pop\n    /* \"src/staking.sol\":3597:3608  rewardBonus */\n  0x0a\n    /* \"src/staking.sol\":3597:3694  rewardBonus = RewardLevelBonus({ gold: 0.001 ether, silver: 0.0005 ether, bronze: 0.0002 ether }) */\n  0x00\n  dup3\n  add\n  mload\n  dup2\n  0x00\n  add\n  sstore\n  0x20\n  dup3\n  add\n  mload\n  dup2\n  0x01\n  add\n  sstore\n  0x40\n  dup3\n  add\n  mload\n  dup2\n  0x02\n  add\n  sstore\n  swap1\n  pop\n  pop\n    /* \"src/staking.sol\":3300:3701  constructor(IMintableToken _token, uint _claimInterval, IERC721 _nft, nftIface _ifacenft) {... */\n  pop\n  pop\n  pop\n  pop\n    /* \"src/staking.sol\":953:10510  contract TokenStaking is AccessControl, ReentrancyGuard {... */\n  jump(tag_8)\n    /* \"#utility.yul\":88:205   */\ntag_10:\n    /* \"#utility.yul\":197:198   */\n  0x00\n    /* \"#utility.yul\":194:195   */\n  dup1\n    /* \"#utility.yul\":187:199   */\n  revert\n    /* \"#utility.yul\":334:460   */\ntag_12:\n    /* \"#utility.yul\":371:378   */\n  0x00\n    /* \"#utility.yul\":411:453   */\n  0xffffffffffffffffffffffffffffffffffffffff\n    /* \"#utility.yul\":404:409   */\n  dup3\n    /* \"#utility.yul\":400:454   */\n  and\n    /* \"#utility.yul\":389:454   */\n  swap1\n  pop\n    /* \"#utility.yul\":334:460   */\n  swap2\n  swap1\n  pop\n  jump\t// out\n    /* \"#utility.yul\":466:562   */\ntag_13:\n    /* \"#utility.yul\":503:510   */\n  0x00\n    /* \"#utility.yul\":532:556   */\n  tag_32\n    /* \"#utility.yul\":550:555   */\n  dup3\n    /* \"#utility.yul\":532:556   */\n  tag_12\n  jump\t// in\ntag_32:\n    /* \"#utility.yul\":521:556   */\n  swap1\n  pop\n    /* \"#utility.yul\":466:562   */\n  swap2\n  swap1\n  pop\n  jump\t// out\n    /* \"#utility.yul\":568:686   */\ntag_14:\n    /* \"#utility.yul\":627:634   */\n  0x00\n    /* \"#utility.yul\":656:680   */\n  tag_34\n    /* \"#utility.yul\":674:679   */\n  dup3\n    /* \"#utility.yul\":656:680   */\n  tag_13\n  jump\t// in\ntag_34:\n    /* \"#utility.yul\":645:680   */\n  swap1\n  pop\n    /* \"#utility.yul\":568:686   */\n  swap2\n  swap1\n  pop\n  jump\t// out\n    /* \"#utility.yul\":692:858   */\ntag_15:\n    /* \"#utility.yul\":787:833   */\n  tag_36\n    /* \"#utility.yul\":827:832   */\n  dup2\n    /* \"#utility.yul\":787:833   */\n  tag_14\n  jump\t// in\ntag_36:\n    /* \"#utility.yul\":780:785   */\n  dup2\n    /* \"#utility.yul\":777:834   */\n  eq\n    /* \"#utility.yul\":767:852   */\n  tag_37\n  jumpi\n    /* \"#utility.yul\":848:849   */\n  0x00\n    /* \"#utility.yul\":845:846   */\n  dup1\n    /* \"#utility.yul\":838:850   */\n  revert\n    /* \"#utility.yul\":767:852   */\ntag_37:\n    /* \"#utility.yul\":692:858   */\n  pop\n  jump\t// out\n    /* \"#utility.yul\":864:1051   */\ntag_16:\n    /* \"#utility.yul\":943:948   */\n  0x00\n    /* \"#utility.yul\":974:980   */\n  dup2\n    /* \"#utility.yul\":968:981   */\n  mload\n    /* \"#utility.yul\":959:981   */\n  swap1\n  pop\n    /* \"#utility.yul\":990:1045   */\n  tag_39\n    /* \"#utility.yul\":1039:1044   */\n  dup2\n    /* \"#utility.yul\":990:1045   */\n  tag_15\n  jump\t// in\ntag_39:\n    /* \"#utility.yul\":864:1051   */\n  swap3\n  swap2\n  pop\n  pop\n  jump\t// out\n    /* \"#utility.yul\":1057:1134   */\ntag_17:\n    /* \"#utility.yul\":1094:1101   */\n  0x00\n    /* \"#utility.yul\":1123:1128   */\n  dup2\n    /* \"#utility.yul\":1112:1128   */\n  swap1\n  pop\n    /* \"#utility.yul\":1057:1134   */\n  swap2\n  swap1\n  pop\n  jump\t// out\n    /* \"#utility.yul\":1140:1262   */\ntag_18:\n    /* \"#utility.yul\":1213:1237   */\n  tag_42\n    /* \"#utility.yul\":1231:1236   */\n  dup2\n    /* \"#utility.yul\":1213:1237   */\n  tag_17\n  jump\t// in\ntag_42:\n    /* \"#utility.yul\":1206:1211   */\n  dup2\n    /* \"#utility.yul\":1203:1238   */\n  eq\n    /* \"#utility.yul\":1193:1256   */\n  tag_43\n  jumpi\n    /* \"#utility.yul\":1252:1253   */\n  0x00\n    /* \"#utility.yul\":1249:1250   */\n  dup1\n    /* \"#utility.yul\":1242:1254   */\n  revert\n    /* \"#utility.yul\":1193:1256   */\ntag_43:\n    /* \"#utility.yul\":1140:1262   */\n  pop\n  jump\t// out\n    /* \"#utility.yul\":1268:1411   */\ntag_19:\n    /* \"#utility.yul\":1325:1330   */\n  0x00\n    /* \"#utility.yul\":1356:1362   */\n  dup2\n    /* \"#utility.yul\":1350:1363   */\n  mload\n    /* \"#utility.yul\":1341:1363   */\n  swap1\n  pop\n    /* \"#utility.yul\":1372:1405   */\n  tag_45\n    /* \"#utility.yul\":1399:1404   */\n  dup2\n    /* \"#utility.yul\":1372:1405   */\n  tag_18\n  jump\t// in\ntag_45:\n    /* \"#utility.yul\":1268:1411   */\n  swap3\n  swap2\n  pop\n  pop\n  jump\t// out\n    /* \"#utility.yul\":1417:1528   */\ntag_20:\n    /* \"#utility.yul\":1469:1476   */\n  0x00\n    /* \"#utility.yul\":1498:1522   */\n  tag_47\n    /* \"#utility.yul\":1516:1521   */\n  dup3\n    /* \"#utility.yul\":1498:1522   */\n  tag_13\n  jump\t// in\ntag_47:\n    /* \"#utility.yul\":1487:1522   */\n  swap1\n  pop\n    /* \"#utility.yul\":1417:1528   */\n  swap2\n  swap1\n  pop\n  jump\t// out\n    /* \"#utility.yul\":1534:1686   */\ntag_21:\n    /* \"#utility.yul\":1622:1661   */\n  tag_49\n    /* \"#utility.yul\":1655:1660   */\n  dup2\n    /* \"#utility.yul\":1622:1661   */\n  tag_20\n  jump\t// in\ntag_49:\n    /* \"#utility.yul\":1615:1620   */\n  dup2\n    /* \"#utility.yul\":1612:1662   */\n  eq\n    /* \"#utility.yul\":1602:1680   */\n  tag_50\n  jumpi\n    /* \"#utility.yul\":1676:1677   */\n  0x00\n    /* \"#utility.yul\":1673:1674   */\n  dup1\n    /* \"#utility.yul\":1666:1678   */\n  revert\n    /* \"#utility.yul\":1602:1680   */\ntag_50:\n    /* \"#utility.yul\":1534:1686   */\n  pop\n  jump\t// out\n    /* \"#utility.yul\":1692:1865   */\ntag_22:\n    /* \"#utility.yul\":1764:1769   */\n  0x00\n    /* \"#utility.yul\":1795:1801   */\n  dup2\n    /* \"#utility.yul\":1789:1802   */\n  mload\n    /* \"#utility.yul\":1780:1802   */\n  swap1\n  pop\n    /* \"#utility.yul\":1811:1859   */\n  tag_52\n    /* \"#utility.yul\":1853:1858   */\n  dup2\n    /* \"#utility.yul\":1811:1859   */\n  tag_21\n  jump\t// in\ntag_52:\n    /* \"#utility.yul\":1692:1865   */\n  swap3\n  swap2\n  pop\n  pop\n  jump\t// out\n    /* \"#utility.yul\":1871:1983   */\ntag_23:\n    /* \"#utility.yul\":1924:1931   */\n  0x00\n    /* \"#utility.yul\":1953:1977   */\n  tag_54\n    /* \"#utility.yul\":1971:1976   */\n  dup3\n    /* \"#utility.yul\":1953:1977   */\n  tag_13\n  jump\t// in\ntag_54:\n    /* \"#utility.yul\":1942:1977   */\n  swap1\n  pop\n    /* \"#utility.yul\":1871:1983   */\n  swap2\n  swap1\n  pop\n  jump\t// out\n    /* \"#utility.yul\":1989:2143   */\ntag_24:\n    /* \"#utility.yul\":2078:2118   */\n  tag_56\n    /* \"#utility.yul\":2112:2117   */\n  dup2\n    /* \"#utility.yul\":2078:2118   */\n  tag_23\n  jump\t// in\ntag_56:\n    /* \"#utility.yul\":2071:2076   */\n  dup2\n    /* \"#utility.yul\":2068:2119   */\n  eq\n    /* \"#utility.yul\":2058:2137   */\n  tag_57\n  jumpi\n    /* \"#utility.yul\":2133:2134   */\n  0x00\n    /* \"#utility.yul\":2130:2131   */\n  dup1\n    /* \"#utility.yul\":2123:2135   */\n  revert\n    /* \"#utility.yul\":2058:2137   */\ntag_57:\n    /* \"#utility.yul\":1989:2143   */\n  pop\n  jump\t// out\n    /* \"#utility.yul\":2149:2324   */\ntag_25:\n    /* \"#utility.yul\":2222:2227   */\n  0x00\n    /* \"#utility.yul\":2253:2259   */\n  dup2\n    /* \"#utility.yul\":2247:2260   */\n  mload\n    /* \"#utility.yul\":2238:2260   */\n  swap1\n  pop\n    /* \"#utility.yul\":2269:2318   */\n  tag_59\n    /* \"#utility.yul\":2312:2317   */\n  dup2\n    /* \"#utility.yul\":2269:2318   */\n  tag_24\n  jump\t// in\ntag_59:\n    /* \"#utility.yul\":2149:2324   */\n  swap3\n  swap2\n  pop\n  pop\n  jump\t// out\n    /* \"#utility.yul\":2330:3256   */\ntag_3:\n    /* \"#utility.yul\":2480:2486   */\n  0x00\n    /* \"#utility.yul\":2488:2494   */\n  dup1\n    /* \"#utility.yul\":2496:2502   */\n  0x00\n    /* \"#utility.yul\":2504:2510   */\n  dup1\n    /* \"#utility.yul\":2553:2556   */\n  0x80\n    /* \"#utility.yul\":2541:2550   */\n  dup6\n    /* \"#utility.yul\":2532:2539   */\n  dup8\n    /* \"#utility.yul\":2528:2551   */\n  sub\n    /* \"#utility.yul\":2524:2557   */\n  slt\n    /* \"#utility.yul\":2521:2641   */\n  iszero\n  tag_61\n  jumpi\n    /* \"#utility.yul\":2560:2639   */\n  tag_62\n  tag_10\n  jump\t// in\ntag_62:\n    /* \"#utility.yul\":2521:2641   */\ntag_61:\n    /* \"#utility.yul\":2680:2681   */\n  0x00\n    /* \"#utility.yul\":2705:2791   */\n  tag_63\n    /* \"#utility.yul\":2783:2790   */\n  dup8\n    /* \"#utility.yul\":2774:2780   */\n  dup3\n    /* \"#utility.yul\":2763:2772   */\n  dup9\n    /* \"#utility.yul\":2759:2781   */\n  add\n    /* \"#utility.yul\":2705:2791   */\n  tag_16\n  jump\t// in\ntag_63:\n    /* \"#utility.yul\":2695:2791   */\n  swap5\n  pop\n    /* \"#utility.yul\":2651:2801   */\n  pop\n    /* \"#utility.yul\":2840:2842   */\n  0x20\n    /* \"#utility.yul\":2866:2930   */\n  tag_64\n    /* \"#utility.yul\":2922:2929   */\n  dup8\n    /* \"#utility.yul\":2913:2919   */\n  dup3\n    /* \"#utility.yul\":2902:2911   */\n  dup9\n    /* \"#utility.yul\":2898:2920   */\n  add\n    /* \"#utility.yul\":2866:2930   */\n  tag_19\n  jump\t// in\ntag_64:\n    /* \"#utility.yul\":2856:2930   */\n  swap4\n  pop\n    /* \"#utility.yul\":2811:2940   */\n  pop\n    /* \"#utility.yul\":2979:2981   */\n  0x40\n    /* \"#utility.yul\":3005:3084   */\n  tag_65\n    /* \"#utility.yul\":3076:3083   */\n  dup8\n    /* \"#utility.yul\":3067:3073   */\n  dup3\n    /* \"#utility.yul\":3056:3065   */\n  dup9\n    /* \"#utility.yul\":3052:3074   */\n  add\n    /* \"#utility.yul\":3005:3084   */\n  tag_22\n  jump\t// in\ntag_65:\n    /* \"#utility.yul\":2995:3084   */\n  swap3\n  pop\n    /* \"#utility.yul\":2950:3094   */\n  pop\n    /* \"#utility.yul\":3133:3135   */\n  0x60\n    /* \"#utility.yul\":3159:3239   */\n  tag_66\n    /* \"#utility.yul\":3231:3238   */\n  dup8\n    /* \"#utility.yul\":3222:3228   */\n  dup3\n    /* \"#utility.yul\":3211:3220   */\n  dup9\n    /* \"#utility.yul\":3207:3229   */\n  add\n    /* \"#utility.yul\":3159:3239   */\n  tag_25\n  jump\t// in\ntag_66:\n    /* \"#utility.yul\":3149:3239   */\n  swap2\n  pop\n    /* \"#utility.yul\":3104:3249   */\n  pop\n    /* \"#utility.yul\":2330:3256   */\n  swap3\n  swap6\n  swap2\n  swap5\n  pop\n  swap3\n  pop\n  jump\t// out\n    /* \"src/staking.sol\":953:10510  contract TokenStaking is AccessControl, ReentrancyGuard {... */\ntag_8:\n  dataSize(sub_0)\n  dup1\n  dataOffset(sub_0)\n  0x00\n  codecopy\n  0x00\n  return\nstop\n\nsub_0: assembly {\n        /* \"src/staking.sol\":953:10510  contract TokenStaking is AccessControl, ReentrancyGuard {... */\n      mstore(0x40, 0x80)\n      callvalue\n      dup1\n      iszero\n      tag_1\n      jumpi\n      0x00\n      dup1\n      revert\n    tag_1:\n      pop\n      jumpi(tag_2, lt(calldatasize, 0x04))\n      shr(0xe0, calldataload(0x00))\n      dup1\n      0x817b1cd2\n      gt\n      tag_35\n      jumpi\n      dup1\n      0xa694fc3a\n      gt\n      tag_36\n      jumpi\n      dup1\n      0xf2d57adf\n      gt\n      tag_37\n      jumpi\n      dup1\n      0xf2d57adf\n      eq\n      tag_31\n      jumpi\n      dup1\n      0xf56e9c66\n      eq\n      tag_32\n      jumpi\n      dup1\n      0xfc0c546a\n      eq\n      tag_33\n      jumpi\n      dup1\n      0xfdf553cf\n      eq\n      tag_34\n      jumpi\n      jump(tag_2)\n    tag_37:\n      dup1\n      0xa694fc3a\n      eq\n      tag_27\n      jumpi\n      dup1\n      0xb0ad08df\n      eq\n      tag_28\n      jumpi\n      dup1\n      0xb2f196f6\n      eq\n      tag_29\n      jumpi\n      dup1\n      0xd547741f\n      eq\n      tag_30\n      jumpi\n      jump(tag_2)\n    tag_36:\n      dup1\n      0x91d14854\n      gt\n      tag_38\n      jumpi\n      dup1\n      0x91d14854\n      eq\n      tag_23\n      jumpi\n      dup1\n      0xa217fddf\n      eq\n      tag_24\n      jumpi\n      dup1\n      0xa218141b\n      eq\n      tag_25\n      jumpi\n      dup1\n      0xa56bef5d\n      eq\n      tag_26\n      jumpi\n      jump(tag_2)\n    tag_38:\n      dup1\n      0x817b1cd2\n      eq\n      tag_19\n      jumpi\n      dup1\n      0x817c8966\n      eq\n      tag_20\n      jumpi\n      dup1\n      0x8d580b9f\n      eq\n      tag_21\n      jumpi\n      dup1\n      0x90870492\n      eq\n      tag_22\n      jumpi\n      jump(tag_2)\n    tag_35:\n      dup1\n      0x2e97766d\n      gt\n      tag_39\n      jumpi\n      dup1\n      0x41f431fd\n      gt\n      tag_40\n      jumpi\n      dup1\n      0x41f431fd\n      eq\n      tag_15\n      jumpi\n      dup1\n      0x47ccca02\n      eq\n      tag_16\n      jumpi\n      dup1\n      0x48132f48\n      eq\n      tag_17\n      jumpi\n      dup1\n      0x51557289\n      eq\n      tag_18\n      jumpi\n      jump(tag_2)\n    tag_40:\n      dup1\n      0x2e97766d\n      eq\n      tag_11\n      jumpi\n      dup1\n      0x2f2ff15d\n      eq\n      tag_12\n      jumpi\n      dup1\n      0x36568abe\n      eq\n      tag_13\n      jumpi\n      dup1\n      0x372500ab\n      eq\n      tag_14\n      jumpi\n      jump(tag_2)\n    tag_39:\n      dup1\n      0x144fa6d7\n      gt\n      tag_41\n      jumpi\n      dup1\n      0x144fa6d7\n      eq\n      tag_7\n      jumpi\n      dup1\n      0x1959a002\n      eq\n      tag_8\n      jumpi\n      dup1\n      0x248a9ca3\n      eq\n      tag_9\n      jumpi\n      dup1\n      0x2e17de78\n      eq\n      tag_10\n      jumpi\n      jump(tag_2)\n    tag_41:\n      dup1\n      0x01ffc9a7\n      eq\n      tag_3\n      jumpi\n      dup1\n      0x097aad10\n      eq\n      tag_4\n      jumpi\n      dup1\n      0x0b433a12\n      eq\n      tag_5\n      jumpi\n      dup1\n      0x0e15561a\n      eq\n      tag_6\n      jumpi\n    tag_2:\n      0x00\n      dup1\n      revert\n        /* \"@openzeppelin/contracts/access/AccessControl.sol\":2565:2767  function supportsInterface(bytes4 interfaceId) public view virtual override returns (bool) {... */\n    tag_3:\n      tag_42\n      0x04\n      dup1\n      calldatasize\n      sub\n      dup2\n      add\n      swap1\n      tag_43\n      swap2\n      swap1\n      tag_44\n      jump\t// in\n    tag_43:\n      tag_45\n      jump\t// in\n    tag_42:\n      mload(0x40)\n      tag_46\n      swap2\n      swap1\n      tag_47\n      jump\t// in\n    tag_46:\n      mload(0x40)\n      dup1\n      swap2\n      sub\n      swap1\n      return\n        /* \"src/staking.sol\":7024:7689  function calculatePendingRewards(address _staker) public view returns (uint256) {... */\n    tag_4:\n      tag_48\n      0x04\n      dup1\n      calldatasize\n      sub\n      dup2\n      add\n      swap1\n      tag_49\n      swap2\n      swap1\n      tag_50\n      jump\t// in\n    tag_49:\n      tag_51\n      jump\t// in\n    tag_48:\n      mload(0x40)\n      tag_52\n      swap2\n      swap1\n      tag_53\n      jump\t// in\n    tag_52:\n      mload(0x40)\n      dup1\n      swap2\n      sub\n      swap1\n      return\n        /* \"src/staking.sol\":1600:1628  uint256 public claimInterval */\n    tag_5:\n      tag_54\n      tag_55\n      jump\t// in\n    tag_54:\n      mload(0x40)\n      tag_56\n      swap2\n      swap1\n      tag_53\n      jump\t// in\n    tag_56:\n      mload(0x40)\n      dup1\n      swap2\n      sub\n      swap1\n      return\n        /* \"src/staking.sol\":1528:1555  uint256 public totalRewards */\n    tag_6:\n      tag_57\n      tag_58\n      jump\t// in\n    tag_57:\n      mload(0x40)\n      tag_59\n      swap2\n      swap1\n      tag_53\n      jump\t// in\n    tag_59:\n      mload(0x40)\n      dup1\n      swap2\n      sub\n      swap1\n      return\n        /* \"src/staking.sol\":8859:8994  function setToken(IMintableToken _newToken) external {... */\n    tag_7:\n      tag_60\n      0x04\n      dup1\n      calldatasize\n      sub\n      dup2\n      add\n      swap1\n      tag_61\n      swap2\n      swap1\n      tag_62\n      jump\t// in\n    tag_61:\n      tag_63\n      jump\t// in\n    tag_60:\n      stop\n        /* \"src/staking.sol\":2596:2640  mapping(address => UserInfo) public userInfo */\n    tag_8:\n      tag_64\n      0x04\n      dup1\n      calldatasize\n      sub\n      dup2\n      add\n      swap1\n      tag_65\n      swap2\n      swap1\n      tag_50\n      jump\t// in\n    tag_65:\n      tag_66\n      jump\t// in\n    tag_64:\n      mload(0x40)\n      tag_67\n      swap3\n      swap2\n      swap1\n      tag_68\n      jump\t// in\n    tag_67:\n      mload(0x40)\n      dup1\n      swap2\n      sub\n      swap1\n      return\n        /* \"@openzeppelin/contracts/access/AccessControl.sol\":3810:3930  function getRoleAdmin(bytes32 role) public view virtual returns (bytes32) {... */\n    tag_9:\n      tag_69\n      0x04\n      dup1\n      calldatasize\n      sub\n      dup2\n      add\n      swap1\n      tag_70\n      swap2\n      swap1\n      tag_71\n      jump\t// in\n    tag_70:\n      tag_72\n      jump\t// in\n    tag_69:\n      mload(0x40)\n      tag_73\n      swap2\n      swap1\n      tag_74\n      jump\t// in\n    tag_73:\n      mload(0x40)\n      dup1\n      swap2\n      sub\n      swap1\n      return\n        /* \"src/staking.sol\":4143:4233  function unstake(uint256 _amount) external nonReentrant {... */\n    tag_10:\n      tag_75\n      0x04\n      dup1\n      calldatasize\n      sub\n      dup2\n      add\n      swap1\n      tag_76\n      swap2\n      swap1\n      tag_77\n      jump\t// in\n    tag_76:\n      tag_78\n      jump\t// in\n    tag_75:\n      stop\n        /* \"src/staking.sol\":9388:9498  function getBlock() external view returns (uint256) {... */\n    tag_11:\n      tag_79\n      tag_80\n      jump\t// in\n    tag_79:\n      mload(0x40)\n      tag_81\n      swap2\n      swap1\n      tag_53\n      jump\t// in\n    tag_81:\n      mload(0x40)\n      dup1\n      swap2\n      sub\n      swap1\n      return\n        /* \"@openzeppelin/contracts/access/AccessControl.sol\":4226:4362  function grantRole(bytes32 role, address account) public virtual onlyRole(getRoleAdmin(role)) {... */\n    tag_12:\n      tag_82\n      0x04\n      dup1\n      calldatasize\n      sub\n      dup2\n      add\n      swap1\n      tag_83\n      swap2\n      swap1\n      tag_84\n      jump\t// in\n    tag_83:\n      tag_85\n      jump\t// in\n    tag_82:\n      stop\n        /* \"@openzeppelin/contracts/access/AccessControl.sol\":5328:5573  function renounceRole(bytes32 role, address callerConfirmation) public virtual {... */\n    tag_13:\n      tag_86\n      0x04\n      dup1\n      calldatasize\n      sub\n      dup2\n      add\n      swap1\n      tag_87\n      swap2\n      swap1\n      tag_84\n      jump\t// in\n    tag_87:\n      tag_88\n      jump\t// in\n    tag_86:\n      stop\n        /* \"src/staking.sol\":4365:4453  function claimRewards() public nonReentrant {... */\n    tag_14:\n      tag_89\n      tag_90\n      jump\t// in\n    tag_89:\n      stop\n        /* \"src/staking.sol\":9852:10051  function moveERC20(IERC20 _ERC20, address _dest, uint _ERC20Amount) nonReentrant public {... */\n    tag_15:\n      tag_91\n      0x04\n      dup1\n      calldatasize\n      sub\n      dup2\n      add\n      swap1\n      tag_92\n      swap2\n      swap1\n      tag_93\n      jump\t// in\n    tag_92:\n      tag_94\n      jump\t// in\n    tag_91:\n      stop\n        /* \"src/staking.sol\":1107:1125  IERC721 public nft */\n    tag_16:\n      tag_95\n      tag_96\n      jump\t// in\n    tag_95:\n      mload(0x40)\n      tag_97\n      swap2\n      swap1\n      tag_98\n      jump\t// in\n    tag_97:\n      mload(0x40)\n      dup1\n      swap2\n      sub\n      swap1\n      return\n        /* \"src/staking.sol\":10333:10508  function ethRescue(address payable _dest, uint _etherAmount) nonReentrant public {... */\n    tag_17:\n      tag_99\n      0x04\n      dup1\n      calldatasize\n      sub\n      dup2\n      add\n      swap1\n      tag_100\n      swap2\n      swap1\n      tag_101\n      jump\t// in\n    tag_100:\n      tag_102\n      jump\t// in\n    tag_99:\n      stop\n        /* \"src/staking.sol\":1798:1850  bytes32 public constant _ADMIN = keccak256(\"_ADMIN\") */\n    tag_18:\n      tag_103\n      tag_104\n      jump\t// in\n    tag_103:\n      mload(0x40)\n      tag_105\n      swap2\n      swap1\n      tag_74\n      jump\t// in\n    tag_105:\n      mload(0x40)\n      dup1\n      swap2\n      sub\n      swap1\n      return\n        /* \"src/staking.sol\":1447:1473  uint256 public totalStaked */\n    tag_19:\n      tag_106\n      tag_107\n      jump\t// in\n    tag_106:\n      mload(0x40)\n      tag_108\n      swap2\n      swap1\n      tag_53\n      jump\t// in\n    tag_108:\n      mload(0x40)\n      dup1\n      swap2\n      sub\n      swap1\n      return\n        /* \"src/staking.sol\":7839:7952  function getLevel(address user) public view returns (uint256) {... */\n    tag_20:\n      tag_109\n      0x04\n      dup1\n      calldatasize\n      sub\n      dup2\n      add\n      swap1\n      tag_110\n      swap2\n      swap1\n      tag_50\n      jump\t// in\n    tag_110:\n      tag_111\n      jump\t// in\n    tag_109:\n      mload(0x40)\n      tag_112\n      swap2\n      swap1\n      tag_53\n      jump\t// in\n    tag_112:\n      mload(0x40)\n      dup1\n      swap2\n      sub\n      swap1\n      return\n        /* \"src/staking.sol\":1738:1792  bytes32 public constant _RESCUE = keccak256(\"_RESCUE\") */\n    tag_21:\n      tag_113\n      tag_114\n      jump\t// in\n    tag_113:\n      mload(0x40)\n      tag_115\n      swap2\n      swap1\n      tag_74\n      jump\t// in\n    tag_115:\n      mload(0x40)\n      dup1\n      swap2\n      sub\n      swap1\n      return\n        /* \"src/staking.sol\":1281:1314  uint256 public rewardRatePerBlock */\n    tag_22:\n      tag_116\n      tag_117\n      jump\t// in\n    tag_116:\n      mload(0x40)\n      tag_118\n      swap2\n      swap1\n      tag_53\n      jump\t// in\n    tag_118:\n      mload(0x40)\n      dup1\n      swap2\n      sub\n      swap1\n      return\n        /* \"@openzeppelin/contracts/access/AccessControl.sol\":2854:2990  function hasRole(bytes32 role, address account) public view virtual returns (bool) {... */\n    tag_23:\n      tag_119\n      0x04\n      dup1\n      calldatasize\n      sub\n      dup2\n      add\n      swap1\n      tag_120\n      swap2\n      swap1\n      tag_84\n      jump\t// in\n    tag_120:\n      tag_121\n      jump\t// in\n    tag_119:\n      mload(0x40)\n      tag_122\n      swap2\n      swap1\n      tag_47\n      jump\t// in\n    tag_122:\n      mload(0x40)\n      dup1\n      swap2\n      sub\n      swap1\n      return\n        /* \"@openzeppelin/contracts/access/AccessControl.sol\":2187:2236  bytes32 public constant DEFAULT_ADMIN_ROLE = 0x00 */\n    tag_24:\n      tag_123\n      tag_124\n      jump\t// in\n    tag_123:\n      mload(0x40)\n      tag_125\n      swap2\n      swap1\n      tag_74\n      jump\t// in\n    tag_125:\n      mload(0x40)\n      dup1\n      swap2\n      sub\n      swap1\n      return\n        /* \"src/staking.sol\":1357:1387  uint256 public lastUpdateBlock */\n    tag_25:\n      tag_126\n      tag_127\n      jump\t// in\n    tag_126:\n      mload(0x40)\n      tag_128\n      swap2\n      swap1\n      tag_53\n      jump\t// in\n    tag_128:\n      mload(0x40)\n      dup1\n      swap2\n      sub\n      swap1\n      return\n        /* \"src/staking.sol\":1856:1910  bytes32 public constant _MINTER = keccak256(\"_MINTER\") */\n    tag_26:\n      tag_129\n      tag_130\n      jump\t// in\n    tag_129:\n      mload(0x40)\n      tag_131\n      swap2\n      swap1\n      tag_74\n      jump\t// in\n    tag_131:\n      mload(0x40)\n      dup1\n      swap2\n      sub\n      swap1\n      return\n        /* \"src/staking.sol\":3877:3963  function stake(uint256 _amount) external nonReentrant {... */\n    tag_27:\n      tag_132\n      0x04\n      dup1\n      calldatasize\n      sub\n      dup2\n      add\n      swap1\n      tag_133\n      swap2\n      swap1\n      tag_77\n      jump\t// in\n    tag_133:\n      tag_134\n      jump\t// in\n    tag_132:\n      stop\n        /* \"src/staking.sol\":1201:1225  nftIface public ifacenft */\n    tag_28:\n      tag_135\n      tag_136\n      jump\t// in\n    tag_135:\n      mload(0x40)\n      tag_137\n      swap2\n      swap1\n      tag_138\n      jump\t// in\n    tag_137:\n      mload(0x40)\n      dup1\n      swap2\n      sub\n      swap1\n      return\n        /* \"src/staking.sol\":8115:8412  function setRewardRatePerBlock(uint256 _newRewardRatePerBlock) external {... */\n    tag_29:\n      tag_139\n      0x04\n      dup1\n      calldatasize\n      sub\n      dup2\n      add\n      swap1\n      tag_140\n      swap2\n      swap1\n      tag_77\n      jump\t// in\n    tag_140:\n      tag_141\n      jump\t// in\n    tag_139:\n      stop\n        /* \"@openzeppelin/contracts/access/AccessControl.sol\":4642:4780  function revokeRole(bytes32 role, address account) public virtual onlyRole(getRoleAdmin(role)) {... */\n    tag_30:\n      tag_142\n      0x04\n      dup1\n      calldatasize\n      sub\n      dup2\n      add\n      swap1\n      tag_143\n      swap2\n      swap1\n      tag_84\n      jump\t// in\n    tag_143:\n      tag_144\n      jump\t// in\n    tag_142:\n      stop\n        /* \"src/staking.sol\":8553:8687  function setClaimInterval(uint256 _niw) external {... */\n    tag_31:\n      tag_145\n      0x04\n      dup1\n      calldatasize\n      sub\n      dup2\n      add\n      swap1\n      tag_146\n      swap2\n      swap1\n      tag_77\n      jump\t// in\n    tag_146:\n      tag_147\n      jump\t// in\n    tag_145:\n      stop\n        /* \"src/staking.sol\":9151:9279  function setNFT(IERC721 _newGoldNFT) external {... */\n    tag_32:\n      tag_148\n      0x04\n      dup1\n      calldatasize\n      sub\n      dup2\n      add\n      swap1\n      tag_149\n      swap2\n      swap1\n      tag_150\n      jump\t// in\n    tag_149:\n      tag_151\n      jump\t// in\n    tag_148:\n      stop\n        /* \"src/staking.sol\":1016:1043  IMintableToken public token */\n    tag_33:\n      tag_152\n      tag_153\n      jump\t// in\n    tag_152:\n      mload(0x40)\n      tag_154\n      swap2\n      swap1\n      tag_155\n      jump\t// in\n    tag_154:\n      mload(0x40)\n      dup1\n      swap2\n      sub\n      swap1\n      return\n        /* \"src/staking.sol\":2449:2484  RewardLevelBonus public rewardBonus */\n    tag_34:\n      tag_156\n      tag_157\n      jump\t// in\n    tag_156:\n      mload(0x40)\n      tag_158\n      swap4\n      swap3\n      swap2\n      swap1\n      tag_159\n      jump\t// in\n    tag_158:\n      mload(0x40)\n      dup1\n      swap2\n      sub\n      swap1\n      return\n        /* \"@openzeppelin/contracts/access/AccessControl.sol\":2565:2767  function supportsInterface(bytes4 interfaceId) public view virtual override returns (bool) {... */\n    tag_45:\n        /* \"@openzeppelin/contracts/access/AccessControl.sol\":2650:2654  bool */\n      0x00\n        /* \"@openzeppelin/contracts/access/AccessControl.sol\":2688:2720  type(IAccessControl).interfaceId */\n      0x7965db0b00000000000000000000000000000000000000000000000000000000\n        /* \"@openzeppelin/contracts/access/AccessControl.sol\":2673:2720  interfaceId == type(IAccessControl).interfaceId */\n      not(0xffffffffffffffffffffffffffffffffffffffffffffffffffffffff)\n      and\n        /* \"@openzeppelin/contracts/access/AccessControl.sol\":2673:2684  interfaceId */\n      dup3\n        /* \"@openzeppelin/contracts/access/AccessControl.sol\":2673:2720  interfaceId == type(IAccessControl).interfaceId */\n      not(0xffffffffffffffffffffffffffffffffffffffffffffffffffffffff)\n      and\n      eq\n        /* \"@openzeppelin/contracts/access/AccessControl.sol\":2673:2760  interfaceId == type(IAccessControl).interfaceId || super.supportsInterface(interfaceId) */\n      dup1\n      tag_161\n      jumpi\n      pop\n        /* \"@openzeppelin/contracts/access/AccessControl.sol\":2724:2760  super.supportsInterface(interfaceId) */\n      tag_162\n        /* \"@openzeppelin/contracts/access/AccessControl.sol\":2748:2759  interfaceId */\n      dup3\n        /* \"@openzeppelin/contracts/access/AccessControl.sol\":2724:2747  super.supportsInterface */\n      tag_163\n        /* \"@openzeppelin/contracts/access/AccessControl.sol\":2724:2760  super.supportsInterface(interfaceId) */\n      jump\t// in\n    tag_162:\n        /* \"@openzeppelin/contracts/access/AccessControl.sol\":2673:2760  interfaceId == type(IAccessControl).interfaceId || super.supportsInterface(interfaceId) */\n    tag_161:\n        /* \"@openzeppelin/contracts/access/AccessControl.sol\":2666:2760  return interfaceId == type(IAccessControl).interfaceId || super.supportsInterface(interfaceId) */\n      swap1\n      pop\n        /* \"@openzeppelin/contracts/access/AccessControl.sol\":2565:2767  function supportsInterface(bytes4 interfaceId) public view virtual override returns (bool) {... */\n      swap2\n      swap1\n      pop\n      jump\t// out\n        /* \"src/staking.sol\":7024:7689  function calculatePendingRewards(address _staker) public view returns (uint256) {... */\n    tag_51:\n        /* \"src/staking.sol\":7095:7102  uint256 */\n      0x00\n        /* \"src/staking.sol\":7114:7127  uint256 level */\n      dup1\n        /* \"src/staking.sol\":7130:7147  getLevel(_staker) */\n      tag_165\n        /* \"src/staking.sol\":7139:7146  _staker */\n      dup4\n        /* \"src/staking.sol\":7130:7138  getLevel */\n      tag_111\n        /* \"src/staking.sol\":7130:7147  getLevel(_staker) */\n      jump\t// in\n    tag_165:\n        /* \"src/staking.sol\":7114:7147  uint256 level = getLevel(_staker) */\n      swap1\n      pop\n        /* \"src/staking.sol\":7157:7181  uint256 rewardBonusLevel */\n      0x00\n        /* \"src/staking.sol\":7205:7206  1 */\n      0x01\n        /* \"src/staking.sol\":7196:7201  level */\n      dup3\n        /* \"src/staking.sol\":7196:7206  level == 1 */\n      sub\n        /* \"src/staking.sol\":7192:7489  if (level == 1) {... */\n      tag_166\n      jumpi\n        /* \"src/staking.sol\":7241:7252  rewardBonus */\n      0x0a\n        /* \"src/staking.sol\":7241:7257  rewardBonus.gold */\n      0x00\n      add\n      sload\n        /* \"src/staking.sol\":7222:7257  rewardBonusLevel = rewardBonus.gold */\n      swap1\n      pop\n        /* \"src/staking.sol\":7192:7489  if (level == 1) {... */\n      jump(tag_167)\n    tag_166:\n        /* \"src/staking.sol\":7287:7288  2 */\n      0x02\n        /* \"src/staking.sol\":7278:7283  level */\n      dup3\n        /* \"src/staking.sol\":7278:7288  level == 2 */\n      sub\n        /* \"src/staking.sol\":7274:7489  if (level == 2) {... */\n      tag_168\n      jumpi\n        /* \"src/staking.sol\":7323:7334  rewardBonus */\n      0x0a\n        /* \"src/staking.sol\":7323:7341  rewardBonus.silver */\n      0x01\n      add\n      sload\n        /* \"src/staking.sol\":7304:7341  rewardBonusLevel = rewardBonus.silver */\n      swap1\n      pop\n        /* \"src/staking.sol\":7274:7489  if (level == 2) {... */\n      jump(tag_169)\n    tag_168:\n        /* \"src/staking.sol\":7371:7372  3 */\n      0x03\n        /* \"src/staking.sol\":7362:7367  level */\n      dup3\n        /* \"src/staking.sol\":7362:7372  level == 3 */\n      sub\n        /* \"src/staking.sol\":7358:7489  if (level == 3) {... */\n      tag_170\n      jumpi\n        /* \"src/staking.sol\":7407:7418  rewardBonus */\n      0x0a\n        /* \"src/staking.sol\":7407:7425  rewardBonus.bronze */\n      0x02\n      add\n      sload\n        /* \"src/staking.sol\":7388:7425  rewardBonusLevel = rewardBonus.bronze */\n      swap1\n      pop\n        /* \"src/staking.sol\":7358:7489  if (level == 3) {... */\n      jump(tag_171)\n    tag_170:\n        /* \"src/staking.sol\":7456:7478  revert(\"No NFT Level\") */\n      mload(0x40)\n      0x08c379a000000000000000000000000000000000000000000000000000000000\n      dup2\n      mstore\n      0x04\n      add\n      tag_172\n      swap1\n      tag_173\n      jump\t// in\n    tag_172:\n      mload(0x40)\n      dup1\n      swap2\n      sub\n      swap1\n      revert\n        /* \"src/staking.sol\":7358:7489  if (level == 3) {... */\n    tag_171:\n        /* \"src/staking.sol\":7274:7489  if (level == 2) {... */\n    tag_169:\n        /* \"src/staking.sol\":7192:7489  if (level == 1) {... */\n    tag_167:\n        /* \"src/staking.sol\":7499:7520  uint256 blocksElapsed */\n      0x00\n        /* \"src/staking.sol\":7538:7546  userInfo */\n      0x0d\n        /* \"src/staking.sol\":7538:7555  userInfo[_staker] */\n      0x00\n        /* \"src/staking.sol\":7547:7554  _staker */\n      dup7\n        /* \"src/staking.sol\":7538:7555  userInfo[_staker] */\n      0xffffffffffffffffffffffffffffffffffffffff\n      and\n      0xffffffffffffffffffffffffffffffffffffffff\n      and\n      dup2\n      mstore\n      0x20\n      add\n      swap1\n      dup2\n      mstore\n      0x20\n      add\n      0x00\n      keccak256\n        /* \"src/staking.sol\":7538:7570  userInfo[_staker].lastClaimBlock */\n      0x01\n      add\n      sload\n        /* \"src/staking.sol\":7523:7535  block.number */\n      number\n        /* \"src/staking.sol\":7523:7570  block.number - userInfo[_staker].lastClaimBlock */\n      tag_174\n      swap2\n      swap1\n      tag_175\n      jump\t// in\n    tag_174:\n        /* \"src/staking.sol\":7499:7570  uint256 blocksElapsed = block.number - userInfo[_staker].lastClaimBlock */\n      swap1\n      pop\n        /* \"src/staking.sol\":7580:7595  uint256 rewards */\n      0x00\n        /* \"src/staking.sol\":7640:7653  blocksElapsed */\n      dup2\n        /* \"src/staking.sol\":7620:7636  rewardBonusLevel */\n      dup4\n        /* \"src/staking.sol\":7599:7617  rewardRatePerBlock */\n      sload(0x05)\n        /* \"src/staking.sol\":7599:7636  rewardRatePerBlock + rewardBonusLevel */\n      tag_176\n      swap2\n      swap1\n      tag_177\n      jump\t// in\n    tag_176:\n        /* \"src/staking.sol\":7598:7653  (rewardRatePerBlock + rewardBonusLevel) * blocksElapsed */\n      tag_178\n      swap2\n      swap1\n      tag_179\n      jump\t// in\n    tag_178:\n        /* \"src/staking.sol\":7580:7653  uint256 rewards = (rewardRatePerBlock + rewardBonusLevel) * blocksElapsed */\n      swap1\n      pop\n        /* \"src/staking.sol\":7675:7682  rewards */\n      dup1\n        /* \"src/staking.sol\":7668:7682  return rewards */\n      swap5\n      pop\n      pop\n      pop\n      pop\n      pop\n        /* \"src/staking.sol\":7024:7689  function calculatePendingRewards(address _staker) public view returns (uint256) {... */\n      swap2\n      swap1\n      pop\n      jump\t// out\n        /* \"src/staking.sol\":1600:1628  uint256 public claimInterval */\n    tag_55:\n      sload(0x09)\n      dup2\n      jump\t// out\n        /* \"src/staking.sol\":1528:1555  uint256 public totalRewards */\n    tag_58:\n      sload(0x08)\n      dup2\n      jump\t// out\n        /* \"src/staking.sol\":8859:8994  function setToken(IMintableToken _newToken) external {... */\n    tag_63:\n        /* \"src/staking.sol\":8930:8959  hasRole(_ADMIN, _msgSender()) */\n      tag_181\n        /* \"src/staking.sol\":1831:1850  keccak256(\"_ADMIN\") */\n      0xae6c2fc584631af4c9385b8a55683f1a75c813747e27efef5afece31c6b230d3\n        /* \"src/staking.sol\":8946:8958  _msgSender() */\n      tag_182\n        /* \"src/staking.sol\":8946:8956  _msgSender */\n      tag_183\n        /* \"src/staking.sol\":8946:8958  _msgSender() */\n      jump\t// in\n    tag_182:\n        /* \"src/staking.sol\":8930:8937  hasRole */\n      tag_121\n        /* \"src/staking.sol\":8930:8959  hasRole(_ADMIN, _msgSender()) */\n      jump\t// in\n    tag_181:\n        /* \"src/staking.sol\":8922:8960  require(hasRole(_ADMIN, _msgSender())) */\n      tag_184\n      jumpi\n      0x00\n      dup1\n      revert\n    tag_184:\n        /* \"src/staking.sol\":8978:8987  _newToken */\n      dup1\n        /* \"src/staking.sol\":8970:8975  token */\n      0x02\n      0x00\n        /* \"src/staking.sol\":8970:8987  token = _newToken */\n      0x0100\n      exp\n      dup2\n      sload\n      dup2\n      0xffffffffffffffffffffffffffffffffffffffff\n      mul\n      not\n      and\n      swap1\n      dup4\n      0xffffffffffffffffffffffffffffffffffffffff\n      and\n      mul\n      or\n      swap1\n      sstore\n      pop\n        /* \"src/staking.sol\":8859:8994  function setToken(IMintableToken _newToken) external {... */\n      pop\n      jump\t// out\n        /* \"src/staking.sol\":2596:2640  mapping(address => UserInfo) public userInfo */\n    tag_66:\n      mstore(0x20, 0x0d)\n      dup1\n      0x00\n      mstore\n      keccak256(0x00, 0x40)\n      0x00\n      swap2\n      pop\n      swap1\n      pop\n      dup1\n      0x00\n      add\n      sload\n      swap1\n      dup1\n      0x01\n      add\n      sload\n      swap1\n      pop\n      dup3\n      jump\t// out\n        /* \"@openzeppelin/contracts/access/AccessControl.sol\":3810:3930  function getRoleAdmin(bytes32 role) public view virtual returns (bytes32) {... */\n    tag_72:\n        /* \"@openzeppelin/contracts/access/AccessControl.sol\":3875:3882  bytes32 */\n      0x00\n        /* \"@openzeppelin/contracts/access/AccessControl.sol\":3901:3907  _roles */\n      dup1\n        /* \"@openzeppelin/contracts/access/AccessControl.sol\":3901:3913  _roles[role] */\n      0x00\n        /* \"@openzeppelin/contracts/access/AccessControl.sol\":3908:3912  role */\n      dup4\n        /* \"@openzeppelin/contracts/access/AccessControl.sol\":3901:3913  _roles[role] */\n      dup2\n      mstore\n      0x20\n      add\n      swap1\n      dup2\n      mstore\n      0x20\n      add\n      0x00\n      keccak256\n        /* \"@openzeppelin/contracts/access/AccessControl.sol\":3901:3923  _roles[role].adminRole */\n      0x01\n      add\n      sload\n        /* \"@openzeppelin/contracts/access/AccessControl.sol\":3894:3923  return _roles[role].adminRole */\n      swap1\n      pop\n        /* \"@openzeppelin/contracts/access/AccessControl.sol\":3810:3930  function getRoleAdmin(bytes32 role) public view virtual returns (bytes32) {... */\n      swap2\n      swap1\n      pop\n      jump\t// out\n        /* \"src/staking.sol\":4143:4233  function unstake(uint256 _amount) external nonReentrant {... */\n    tag_78:\n        /* \"@openzeppelin/contracts/security/ReentrancyGuard.sol\":2261:2282  _nonReentrantBefore() */\n      tag_187\n        /* \"@openzeppelin/contracts/security/ReentrancyGuard.sol\":2261:2280  _nonReentrantBefore */\n      tag_188\n        /* \"@openzeppelin/contracts/security/ReentrancyGuard.sol\":2261:2282  _nonReentrantBefore() */\n      jump\t// in\n    tag_187:\n        /* \"src/staking.sol\":4209:4226  _unstake(_amount) */\n      tag_190\n        /* \"src/staking.sol\":4218:4225  _amount */\n      dup2\n        /* \"src/staking.sol\":4209:4217  _unstake */\n      tag_191\n        /* \"src/staking.sol\":4209:4226  _unstake(_amount) */\n      jump\t// in\n    tag_190:\n        /* \"@openzeppelin/contracts/security/ReentrancyGuard.sol\":2303:2323  _nonReentrantAfter() */\n      tag_192\n        /* \"@openzeppelin/contracts/security/ReentrancyGuard.sol\":2303:2321  _nonReentrantAfter */\n      tag_193\n        /* \"@openzeppelin/contracts/security/ReentrancyGuard.sol\":2303:2323  _nonReentrantAfter() */\n      jump\t// in\n    tag_192:\n        /* \"src/staking.sol\":4143:4233  function unstake(uint256 _amount) external nonReentrant {... */\n      pop\n      jump\t// out\n        /* \"src/staking.sol\":9388:9498  function getBlock() external view returns (uint256) {... */\n    tag_80:\n        /* \"src/staking.sol\":9431:9438  uint256 */\n      0x00\n        /* \"src/staking.sol\":9450:9457  uint cb */\n      dup1\n        /* \"src/staking.sol\":9460:9472  block.number */\n      number\n        /* \"src/staking.sol\":9450:9472  uint cb = block.number */\n      swap1\n      pop\n        /* \"src/staking.sol\":9489:9491  cb */\n      dup1\n        /* \"src/staking.sol\":9482:9491  return cb */\n      swap2\n      pop\n      pop\n        /* \"src/staking.sol\":9388:9498  function getBlock() external view returns (uint256) {... */\n      swap1\n      jump\t// out\n        /* \"@openzeppelin/contracts/access/AccessControl.sol\":4226:4362  function grantRole(bytes32 role, address account) public virtual onlyRole(getRoleAdmin(role)) {... */\n    tag_85:\n        /* \"@openzeppelin/contracts/access/AccessControl.sol\":4300:4318  getRoleAdmin(role) */\n      tag_195\n        /* \"@openzeppelin/contracts/access/AccessControl.sol\":4313:4317  role */\n      dup3\n        /* \"@openzeppelin/contracts/access/AccessControl.sol\":4300:4312  getRoleAdmin */\n      tag_72\n        /* \"@openzeppelin/contracts/access/AccessControl.sol\":4300:4318  getRoleAdmin(role) */\n      jump\t// in\n    tag_195:\n        /* \"@openzeppelin/contracts/access/AccessControl.sol\":2464:2480  _checkRole(role) */\n      tag_197\n        /* \"@openzeppelin/contracts/access/AccessControl.sol\":2475:2479  role */\n      dup2\n        /* \"@openzeppelin/contracts/access/AccessControl.sol\":2464:2474  _checkRole */\n      tag_198\n        /* \"@openzeppelin/contracts/access/AccessControl.sol\":2464:2480  _checkRole(role) */\n      jump\t// in\n    tag_197:\n        /* \"@openzeppelin/contracts/access/AccessControl.sol\":4330:4355  _grantRole(role, account) */\n      tag_200\n        /* \"@openzeppelin/contracts/access/AccessControl.sol\":4341:4345  role */\n      dup4\n        /* \"@openzeppelin/contracts/access/AccessControl.sol\":4347:4354  account */\n      dup4\n        /* \"@openzeppelin/contracts/access/AccessControl.sol\":4330:4340  _grantRole */\n      tag_201\n        /* \"@openzeppelin/contracts/access/AccessControl.sol\":4330:4355  _grantRole(role, account) */\n      jump\t// in\n    tag_200:\n      pop\n        /* \"@openzeppelin/contracts/access/AccessControl.sol\":4226:4362  function grantRole(bytes32 role, address account) public virtual onlyRole(getRoleAdmin(role)) {... */\n      pop\n      pop\n      pop\n      jump\t// out\n        /* \"@openzeppelin/contracts/access/AccessControl.sol\":5328:5573  function renounceRole(bytes32 role, address callerConfirmation) public virtual {... */\n    tag_88:\n        /* \"@openzeppelin/contracts/access/AccessControl.sol\":5443:5455  _msgSender() */\n      tag_203\n        /* \"@openzeppelin/contracts/access/AccessControl.sol\":5443:5453  _msgSender */\n      tag_183\n        /* \"@openzeppelin/contracts/access/AccessControl.sol\":5443:5455  _msgSender() */\n      jump\t// in\n    tag_203:\n        /* \"@openzeppelin/contracts/access/AccessControl.sol\":5421:5455  callerConfirmation != _msgSender() */\n      0xffffffffffffffffffffffffffffffffffffffff\n      and\n        /* \"@openzeppelin/contracts/access/AccessControl.sol\":5421:5439  callerConfirmation */\n      dup2\n        /* \"@openzeppelin/contracts/access/AccessControl.sol\":5421:5455  callerConfirmation != _msgSender() */\n      0xffffffffffffffffffffffffffffffffffffffff\n      and\n      eq\n        /* \"@openzeppelin/contracts/access/AccessControl.sol\":5417:5519  if (callerConfirmation != _msgSender()) {... */\n      tag_204\n      jumpi\n        /* \"@openzeppelin/contracts/access/AccessControl.sol\":5478:5508  AccessControlBadConfirmation() */\n      mload(0x40)\n      0x6697b23200000000000000000000000000000000000000000000000000000000\n      dup2\n      mstore\n      0x04\n      add\n      mload(0x40)\n      dup1\n      swap2\n      sub\n      swap1\n      revert\n        /* \"@openzeppelin/contracts/access/AccessControl.sol\":5417:5519  if (callerConfirmation != _msgSender()) {... */\n    tag_204:\n        /* \"@openzeppelin/contracts/access/AccessControl.sol\":5529:5566  _revokeRole(role, callerConfirmation) */\n      tag_205\n        /* \"@openzeppelin/contracts/access/AccessControl.sol\":5541:5545  role */\n      dup3\n        /* \"@openzeppelin/contracts/access/AccessControl.sol\":5547:5565  callerConfirmation */\n      dup3\n        /* \"@openzeppelin/contracts/access/AccessControl.sol\":5529:5540  _revokeRole */\n      tag_206\n        /* \"@openzeppelin/contracts/access/AccessControl.sol\":5529:5566  _revokeRole(role, callerConfirmation) */\n      jump\t// in\n    tag_205:\n      pop\n        /* \"@openzeppelin/contracts/access/AccessControl.sol\":5328:5573  function renounceRole(bytes32 role, address callerConfirmation) public virtual {... */\n      pop\n      pop\n      jump\t// out\n        /* \"src/staking.sol\":4365:4453  function claimRewards() public nonReentrant {... */\n    tag_90:\n        /* \"@openzeppelin/contracts/security/ReentrancyGuard.sol\":2261:2282  _nonReentrantBefore() */\n      tag_208\n        /* \"@openzeppelin/contracts/security/ReentrancyGuard.sol\":2261:2280  _nonReentrantBefore */\n      tag_188\n        /* \"@openzeppelin/contracts/security/ReentrancyGuard.sol\":2261:2282  _nonReentrantBefore() */\n      jump\t// in\n    tag_208:\n        /* \"src/staking.sol\":4419:4446  _claimRewards(_msgSender()) */\n      tag_210\n        /* \"src/staking.sol\":4433:4445  _msgSender() */\n      tag_211\n        /* \"src/staking.sol\":4433:4443  _msgSender */\n      tag_183\n        /* \"src/staking.sol\":4433:4445  _msgSender() */\n      jump\t// in\n    tag_211:\n        /* \"src/staking.sol\":4419:4432  _claimRewards */\n      tag_212\n        /* \"src/staking.sol\":4419:4446  _claimRewards(_msgSender()) */\n      jump\t// in\n    tag_210:\n        /* \"@openzeppelin/contracts/security/ReentrancyGuard.sol\":2303:2323  _nonReentrantAfter() */\n      tag_213\n        /* \"@openzeppelin/contracts/security/ReentrancyGuard.sol\":2303:2321  _nonReentrantAfter */\n      tag_193\n        /* \"@openzeppelin/contracts/security/ReentrancyGuard.sol\":2303:2323  _nonReentrantAfter() */\n      jump\t// in\n    tag_213:\n        /* \"src/staking.sol\":4365:4453  function claimRewards() public nonReentrant {... */\n      jump\t// out\n        /* \"src/staking.sol\":9852:10051  function moveERC20(IERC20 _ERC20, address _dest, uint _ERC20Amount) nonReentrant public {... */\n    tag_94:\n        /* \"@openzeppelin/contracts/security/ReentrancyGuard.sol\":2261:2282  _nonReentrantBefore() */\n      tag_215\n        /* \"@openzeppelin/contracts/security/ReentrancyGuard.sol\":2261:2280  _nonReentrantBefore */\n      tag_188\n        /* \"@openzeppelin/contracts/security/ReentrancyGuard.sol\":2261:2282  _nonReentrantBefore() */\n      jump\t// in\n    tag_215:\n        /* \"src/staking.sol\":9958:9988  hasRole(_RESCUE, _msgSender()) */\n      tag_217\n        /* \"src/staking.sol\":1772:1792  keccak256(\"_RESCUE\") */\n      0x508f8f8be8f5dbcb88f4f4500430b8b3684c471ed936f31fea912c78ad46a6b9\n        /* \"src/staking.sol\":9975:9987  _msgSender() */\n      tag_218\n        /* \"src/staking.sol\":9975:9985  _msgSender */\n      tag_183\n        /* \"src/staking.sol\":9975:9987  _msgSender() */\n      jump\t// in\n    tag_218:\n        /* \"src/staking.sol\":9958:9965  hasRole */\n      tag_121\n        /* \"src/staking.sol\":9958:9988  hasRole(_RESCUE, _msgSender()) */\n      jump\t// in\n    tag_217:\n        /* \"src/staking.sol\":9950:9989  require(hasRole(_RESCUE, _msgSender())) */\n      tag_219\n      jumpi\n      0x00\n      dup1\n      revert\n    tag_219:\n        /* \"src/staking.sol\":10007:10013  _ERC20 */\n      dup3\n        /* \"src/staking.sol\":10000:10023  IERC20(_ERC20).transfer */\n      0xffffffffffffffffffffffffffffffffffffffff\n      and\n      0xa9059cbb\n        /* \"src/staking.sol\":10024:10029  _dest */\n      dup4\n        /* \"src/staking.sol\":10031:10043  _ERC20Amount */\n      dup4\n        /* \"src/staking.sol\":10000:10044  IERC20(_ERC20).transfer(_dest, _ERC20Amount) */\n      mload(0x40)\n      dup4\n      0xffffffff\n      and\n      0xe0\n      shl\n      dup2\n      mstore\n      0x04\n      add\n      tag_220\n      swap3\n      swap2\n      swap1\n      tag_221\n      jump\t// in\n    tag_220:\n      0x20\n      mload(0x40)\n      dup1\n      dup4\n      sub\n      dup2\n      0x00\n      dup8\n      gas\n      call\n      iszero\n      dup1\n      iszero\n      tag_223\n      jumpi\n      returndatasize\n      0x00\n      dup1\n      returndatacopy\n      revert(0x00, returndatasize)\n    tag_223:\n      pop\n      pop\n      pop\n      pop\n      mload(0x40)\n      returndatasize\n      not(0x1f)\n      0x1f\n      dup3\n      add\n      and\n      dup3\n      add\n      dup1\n      0x40\n      mstore\n      pop\n      dup2\n      add\n      swap1\n      tag_224\n      swap2\n      swap1\n      tag_225\n      jump\t// in\n    tag_224:\n      pop\n        /* \"@openzeppelin/contracts/security/ReentrancyGuard.sol\":2303:2323  _nonReentrantAfter() */\n      tag_226\n        /* \"@openzeppelin/contracts/security/ReentrancyGuard.sol\":2303:2321  _nonReentrantAfter */\n      tag_193\n        /* \"@openzeppelin/contracts/security/ReentrancyGuard.sol\":2303:2323  _nonReentrantAfter() */\n      jump\t// in\n    tag_226:\n        /* \"src/staking.sol\":9852:10051  function moveERC20(IERC20 _ERC20, address _dest, uint _ERC20Amount) nonReentrant public {... */\n      pop\n      pop\n      pop\n      jump\t// out\n        /* \"src/staking.sol\":1107:1125  IERC721 public nft */\n    tag_96:\n      0x03\n      0x00\n      swap1\n      sload\n      swap1\n      0x0100\n      exp\n      swap1\n      div\n      0xffffffffffffffffffffffffffffffffffffffff\n      and\n      dup2\n      jump\t// out\n        /* \"src/staking.sol\":10333:10508  function ethRescue(address payable _dest, uint _etherAmount) nonReentrant public {... */\n    tag_102:\n        /* \"@openzeppelin/contracts/security/ReentrancyGuard.sol\":2261:2282  _nonReentrantBefore() */\n      tag_228\n        /* \"@openzeppelin/contracts/security/ReentrancyGuard.sol\":2261:2280  _nonReentrantBefore */\n      tag_188\n        /* \"@openzeppelin/contracts/security/ReentrancyGuard.sol\":2261:2282  _nonReentrantBefore() */\n      jump\t// in\n    tag_228:\n        /* \"src/staking.sol\":10432:10462  hasRole(_RESCUE, _msgSender()) */\n      tag_230\n        /* \"src/staking.sol\":1772:1792  keccak256(\"_RESCUE\") */\n      0x508f8f8be8f5dbcb88f4f4500430b8b3684c471ed936f31fea912c78ad46a6b9\n        /* \"src/staking.sol\":10449:10461  _msgSender() */\n      tag_231\n        /* \"src/staking.sol\":10449:10459  _msgSender */\n      tag_183\n        /* \"src/staking.sol\":10449:10461  _msgSender() */\n      jump\t// in\n    tag_231:\n        /* \"src/staking.sol\":10432:10439  hasRole */\n      tag_121\n        /* \"src/staking.sol\":10432:10462  hasRole(_RESCUE, _msgSender()) */\n      jump\t// in\n    tag_230:\n        /* \"src/staking.sol\":10424:10463  require(hasRole(_RESCUE, _msgSender())) */\n      tag_232\n      jumpi\n      0x00\n      dup1\n      revert\n    tag_232:\n        /* \"src/staking.sol\":10473:10478  _dest */\n      dup2\n        /* \"src/staking.sol\":10473:10487  _dest.transfer */\n      0xffffffffffffffffffffffffffffffffffffffff\n      and\n        /* \"src/staking.sol\":10473:10501  _dest.transfer(_etherAmount) */\n      0x08fc\n        /* \"src/staking.sol\":10488:10500  _etherAmount */\n      dup3\n        /* \"src/staking.sol\":10473:10501  _dest.transfer(_etherAmount) */\n      swap1\n      dup2\n      iszero\n      mul\n      swap1\n      mload(0x40)\n      0x00\n      mload(0x40)\n      dup1\n      dup4\n      sub\n      dup2\n      dup6\n      dup9\n      dup9\n      call\n      swap4\n      pop\n      pop\n      pop\n      pop\n      iszero\n      dup1\n      iszero\n      tag_234\n      jumpi\n      returndatasize\n      0x00\n      dup1\n      returndatacopy\n      revert(0x00, returndatasize)\n    tag_234:\n      pop\n        /* \"@openzeppelin/contracts/security/ReentrancyGuard.sol\":2303:2323  _nonReentrantAfter() */\n      tag_235\n        /* \"@openzeppelin/contracts/security/ReentrancyGuard.sol\":2303:2321  _nonReentrantAfter */\n      tag_193\n        /* \"@openzeppelin/contracts/security/ReentrancyGuard.sol\":2303:2323  _nonReentrantAfter() */\n      jump\t// in\n    tag_235:\n        /* \"src/staking.sol\":10333:10508  function ethRescue(address payable _dest, uint _etherAmount) nonReentrant public {... */\n      pop\n      pop\n      jump\t// out\n        /* \"src/staking.sol\":1798:1850  bytes32 public constant _ADMIN = keccak256(\"_ADMIN\") */\n    tag_104:\n        /* \"src/staking.sol\":1831:1850  keccak256(\"_ADMIN\") */\n      0xae6c2fc584631af4c9385b8a55683f1a75c813747e27efef5afece31c6b230d3\n        /* \"src/staking.sol\":1798:1850  bytes32 public constant _ADMIN = keccak256(\"_ADMIN\") */\n      dup2\n      jump\t// out\n        /* \"src/staking.sol\":1447:1473  uint256 public totalStaked */\n    tag_107:\n      sload(0x07)\n      dup2\n      jump\t// out\n        /* \"src/staking.sol\":7839:7952  function getLevel(address user) public view returns (uint256) {... */\n    tag_111:\n        /* \"src/staking.sol\":7892:7899  uint256 */\n      0x00\n        /* \"src/staking.sol\":7918:7926  ifacenft */\n      0x04\n      0x00\n      swap1\n      sload\n      swap1\n      0x0100\n      exp\n      swap1\n      div\n      0xffffffffffffffffffffffffffffffffffffffff\n      and\n        /* \"src/staking.sol\":7918:7939  ifacenft.nftOwnerInfo */\n      0xffffffffffffffffffffffffffffffffffffffff\n      and\n      0x1ab0d49e\n        /* \"src/staking.sol\":7940:7944  user */\n      dup4\n        /* \"src/staking.sol\":7918:7945  ifacenft.nftOwnerInfo(user) */\n      mload(0x40)\n      dup3\n      0xffffffff\n      and\n      0xe0\n      shl\n      dup2\n      mstore\n      0x04\n      add\n      tag_237\n      swap2\n      swap1\n      tag_238\n      jump\t// in\n    tag_237:\n      0x20\n      mload(0x40)\n      dup1\n      dup4\n      sub\n      dup2\n      dup7\n      gas\n      staticcall\n      iszero\n      dup1\n      iszero\n      tag_240\n      jumpi\n      returndatasize\n      0x00\n      dup1\n      returndatacopy\n      revert(0x00, returndatasize)\n    tag_240:\n      pop\n      pop\n      pop\n      pop\n      mload(0x40)\n      returndatasize\n      not(0x1f)\n      0x1f\n      dup3\n      add\n      and\n      dup3\n      add\n      dup1\n      0x40\n      mstore\n      pop\n      dup2\n      add\n      swap1\n      tag_241\n      swap2\n      swap1\n      tag_242\n      jump\t// in\n    tag_241:\n        /* \"src/staking.sol\":7911:7945  return ifacenft.nftOwnerInfo(user) */\n      swap1\n      pop\n        /* \"src/staking.sol\":7839:7952  function getLevel(address user) public view returns (uint256) {... */\n      swap2\n      swap1\n      pop\n      jump\t// out\n        /* \"src/staking.sol\":1738:1792  bytes32 public constant _RESCUE = keccak256(\"_RESCUE\") */\n    tag_114:\n        /* \"src/staking.sol\":1772:1792  keccak256(\"_RESCUE\") */\n      0x508f8f8be8f5dbcb88f4f4500430b8b3684c471ed936f31fea912c78ad46a6b9\n        /* \"src/staking.sol\":1738:1792  bytes32 public constant _RESCUE = keccak256(\"_RESCUE\") */\n      dup2\n      jump\t// out\n        /* \"src/staking.sol\":1281:1314  uint256 public rewardRatePerBlock */\n    tag_117:\n      sload(0x05)\n      dup2\n      jump\t// out\n        /* \"@openzeppelin/contracts/access/AccessControl.sol\":2854:2990  function hasRole(bytes32 role, address account) public view virtual returns (bool) {... */\n    tag_121:\n        /* \"@openzeppelin/contracts/access/AccessControl.sol\":2931:2935  bool */\n      0x00\n        /* \"@openzeppelin/contracts/access/AccessControl.sol\":2954:2960  _roles */\n      dup1\n        /* \"@openzeppelin/contracts/access/AccessControl.sol\":2954:2966  _roles[role] */\n      0x00\n        /* \"@openzeppelin/contracts/access/AccessControl.sol\":2961:2965  role */\n      dup5\n        /* \"@openzeppelin/contracts/access/AccessControl.sol\":2954:2966  _roles[role] */\n      dup2\n      mstore\n      0x20\n      add\n      swap1\n      dup2\n      mstore\n      0x20\n      add\n      0x00\n      keccak256\n        /* \"@openzeppelin/contracts/access/AccessControl.sol\":2954:2974  _roles[role].hasRole */\n      0x00\n      add\n        /* \"@openzeppelin/contracts/access/AccessControl.sol\":2954:2983  _roles[role].hasRole[account] */\n      0x00\n        /* \"@openzeppelin/contracts/access/AccessControl.sol\":2975:2982  account */\n      dup4\n        /* \"@openzeppelin/contracts/access/AccessControl.sol\":2954:2983  _roles[role].hasRole[account] */\n      0xffffffffffffffffffffffffffffffffffffffff\n      and\n      0xffffffffffffffffffffffffffffffffffffffff\n      and\n      dup2\n      mstore\n      0x20\n      add\n      swap1\n      dup2\n      mstore\n      0x20\n      add\n      0x00\n      keccak256\n      0x00\n      swap1\n      sload\n      swap1\n      0x0100\n      exp\n      swap1\n      div\n      0xff\n      and\n        /* \"@openzeppelin/contracts/access/AccessControl.sol\":2947:2983  return _roles[role].hasRole[account] */\n      swap1\n      pop\n        /* \"@openzeppelin/contracts/access/AccessControl.sol\":2854:2990  function hasRole(bytes32 role, address account) public view virtual returns (bool) {... */\n      swap3\n      swap2\n      pop\n      pop\n      jump\t// out\n        /* \"@openzeppelin/contracts/access/AccessControl.sol\":2187:2236  bytes32 public constant DEFAULT_ADMIN_ROLE = 0x00 */\n    tag_124:\n        /* \"@openzeppelin/contracts/access/AccessControl.sol\":2232:2236  0x00 */\n      0x00\n        /* \"@openzeppelin/contracts/access/AccessControl.sol\":2187:2236  bytes32 public constant DEFAULT_ADMIN_ROLE = 0x00 */\n      dup1\n      shl\n      dup2\n      jump\t// out\n        /* \"src/staking.sol\":1357:1387  uint256 public lastUpdateBlock */\n    tag_127:\n      sload(0x06)\n      dup2\n      jump\t// out\n        /* \"src/staking.sol\":1856:1910  bytes32 public constant _MINTER = keccak256(\"_MINTER\") */\n    tag_130:\n        /* \"src/staking.sol\":1890:1910  keccak256(\"_MINTER\") */\n      0x8c342c7aca7f35847406e6353e35c5762132fa3e958179931981d120af75dfb2\n        /* \"src/staking.sol\":1856:1910  bytes32 public constant _MINTER = keccak256(\"_MINTER\") */\n      dup2\n      jump\t// out\n        /* \"src/staking.sol\":3877:3963  function stake(uint256 _amount) external nonReentrant {... */\n    tag_134:\n        /* \"@openzeppelin/contracts/security/ReentrancyGuard.sol\":2261:2282  _nonReentrantBefore() */\n      tag_245\n        /* \"@openzeppelin/contracts/security/ReentrancyGuard.sol\":2261:2280  _nonReentrantBefore */\n      tag_188\n        /* \"@openzeppelin/contracts/security/ReentrancyGuard.sol\":2261:2282  _nonReentrantBefore() */\n      jump\t// in\n    tag_245:\n        /* \"src/staking.sol\":3941:3956  _stake(_amount) */\n      tag_247\n        /* \"src/staking.sol\":3948:3955  _amount */\n      dup2\n        /* \"src/staking.sol\":3941:3947  _stake */\n      tag_248\n        /* \"src/staking.sol\":3941:3956  _stake(_amount) */\n      jump\t// in\n    tag_247:\n        /* \"@openzeppelin/contracts/security/ReentrancyGuard.sol\":2303:2323  _nonReentrantAfter() */\n      tag_249\n        /* \"@openzeppelin/contracts/security/ReentrancyGuard.sol\":2303:2321  _nonReentrantAfter */\n      tag_193\n        /* \"@openzeppelin/contracts/security/ReentrancyGuard.sol\":2303:2323  _nonReentrantAfter() */\n      jump\t// in\n    tag_249:\n        /* \"src/staking.sol\":3877:3963  function stake(uint256 _amount) external nonReentrant {... */\n      pop\n      jump\t// out\n        /* \"src/staking.sol\":1201:1225  nftIface public ifacenft */\n    tag_136:\n      0x04\n      0x00\n      swap1\n      sload\n      swap1\n      0x0100\n      exp\n      swap1\n      div\n      0xffffffffffffffffffffffffffffffffffffffff\n      and\n      dup2\n      jump\t// out\n        /* \"src/staking.sol\":8115:8412  function setRewardRatePerBlock(uint256 _newRewardRatePerBlock) external {... */\n    tag_141:\n        /* \"src/staking.sol\":8230:8231  0 */\n      0x00\n        /* \"src/staking.sol\":8205:8227  _newRewardRatePerBlock */\n      dup2\n        /* \"src/staking.sol\":8205:8231  _newRewardRatePerBlock > 0 */\n      gt\n        /* \"src/staking.sol\":8197:8264  require(_newRewardRatePerBlock > 0, \"Reward rate must be positive\") */\n      tag_251\n      jumpi\n      mload(0x40)\n      0x08c379a000000000000000000000000000000000000000000000000000000000\n      dup2\n      mstore\n      0x04\n      add\n      tag_252\n      swap1\n      tag_253\n      jump\t// in\n    tag_252:\n      mload(0x40)\n      dup1\n      swap2\n      sub\n      swap1\n      revert\n    tag_251:\n        /* \"src/staking.sol\":8282:8311  hasRole(_ADMIN, _msgSender()) */\n      tag_254\n        /* \"src/staking.sol\":1831:1850  keccak256(\"_ADMIN\") */\n      0xae6c2fc584631af4c9385b8a55683f1a75c813747e27efef5afece31c6b230d3\n        /* \"src/staking.sol\":8298:8310  _msgSender() */\n      tag_255\n        /* \"src/staking.sol\":8298:8308  _msgSender */\n      tag_183\n        /* \"src/staking.sol\":8298:8310  _msgSender() */\n      jump\t// in\n    tag_255:\n        /* \"src/staking.sol\":8282:8289  hasRole */\n      tag_121\n        /* \"src/staking.sol\":8282:8311  hasRole(_ADMIN, _msgSender()) */\n      jump\t// in\n    tag_254:\n        /* \"src/staking.sol\":8274:8312  require(hasRole(_ADMIN, _msgSender())) */\n      tag_256\n      jumpi\n      0x00\n      dup1\n      revert\n    tag_256:\n        /* \"src/staking.sol\":8343:8365  _newRewardRatePerBlock */\n      dup1\n        /* \"src/staking.sol\":8322:8340  rewardRatePerBlock */\n      0x05\n        /* \"src/staking.sol\":8322:8365  rewardRatePerBlock = _newRewardRatePerBlock */\n      dup2\n      swap1\n      sstore\n      pop\n        /* \"src/staking.sol\":8393:8405  block.number */\n      number\n        /* \"src/staking.sol\":8375:8390  lastUpdateBlock */\n      0x06\n        /* \"src/staking.sol\":8375:8405  lastUpdateBlock = block.number */\n      dup2\n      swap1\n      sstore\n      pop\n        /* \"src/staking.sol\":8115:8412  function setRewardRatePerBlock(uint256 _newRewardRatePerBlock) external {... */\n      pop\n      jump\t// out\n        /* \"@openzeppelin/contracts/access/AccessControl.sol\":4642:4780  function revokeRole(bytes32 role, address account) public virtual onlyRole(getRoleAdmin(role)) {... */\n    tag_144:\n        /* \"@openzeppelin/contracts/access/AccessControl.sol\":4717:4735  getRoleAdmin(role) */\n      tag_257\n        /* \"@openzeppelin/contracts/access/AccessControl.sol\":4730:4734  role */\n      dup3\n        /* \"@openzeppelin/contracts/access/AccessControl.sol\":4717:4729  getRoleAdmin */\n      tag_72\n        /* \"@openzeppelin/contracts/access/AccessControl.sol\":4717:4735  getRoleAdmin(role) */\n      jump\t// in\n    tag_257:\n        /* \"@openzeppelin/contracts/access/AccessControl.sol\":2464:2480  _checkRole(role) */\n      tag_259\n        /* \"@openzeppelin/contracts/access/AccessControl.sol\":2475:2479  role */\n      dup2\n        /* \"@openzeppelin/contracts/access/AccessControl.sol\":2464:2474  _checkRole */\n      tag_198\n        /* \"@openzeppelin/contracts/access/AccessControl.sol\":2464:2480  _checkRole(role) */\n      jump\t// in\n    tag_259:\n        /* \"@openzeppelin/contracts/access/AccessControl.sol\":4747:4773  _revokeRole(role, account) */\n      tag_261\n        /* \"@openzeppelin/contracts/access/AccessControl.sol\":4759:4763  role */\n      dup4\n        /* \"@openzeppelin/contracts/access/AccessControl.sol\":4765:4772  account */\n      dup4\n        /* \"@openzeppelin/contracts/access/AccessControl.sol\":4747:4758  _revokeRole */\n      tag_206\n        /* \"@openzeppelin/contracts/access/AccessControl.sol\":4747:4773  _revokeRole(role, account) */\n      jump\t// in\n    tag_261:\n      pop\n        /* \"@openzeppelin/contracts/access/AccessControl.sol\":4642:4780  function revokeRole(bytes32 role, address account) public virtual onlyRole(getRoleAdmin(role)) {... */\n      pop\n      pop\n      pop\n      jump\t// out\n        /* \"src/staking.sol\":8553:8687  function setClaimInterval(uint256 _niw) external {... */\n    tag_147:\n        /* \"src/staking.sol\":8620:8649  hasRole(_ADMIN, _msgSender()) */\n      tag_263\n        /* \"src/staking.sol\":1831:1850  keccak256(\"_ADMIN\") */\n      0xae6c2fc584631af4c9385b8a55683f1a75c813747e27efef5afece31c6b230d3\n        /* \"src/staking.sol\":8636:8648  _msgSender() */\n      tag_264\n        /* \"src/staking.sol\":8636:8646  _msgSender */\n      tag_183\n        /* \"src/staking.sol\":8636:8648  _msgSender() */\n      jump\t// in\n    tag_264:\n        /* \"src/staking.sol\":8620:8627  hasRole */\n      tag_121\n        /* \"src/staking.sol\":8620:8649  hasRole(_ADMIN, _msgSender()) */\n      jump\t// in\n    tag_263:\n        /* \"src/staking.sol\":8612:8650  require(hasRole(_ADMIN, _msgSender())) */\n      tag_265\n      jumpi\n      0x00\n      dup1\n      revert\n    tag_265:\n        /* \"src/staking.sol\":8676:8680  _niw */\n      dup1\n        /* \"src/staking.sol\":8660:8673  claimInterval */\n      0x09\n        /* \"src/staking.sol\":8660:8680  claimInterval = _niw */\n      dup2\n      swap1\n      sstore\n      pop\n        /* \"src/staking.sol\":8553:8687  function setClaimInterval(uint256 _niw) external {... */\n      pop\n      jump\t// out\n        /* \"src/staking.sol\":9151:9279  function setNFT(IERC721 _newGoldNFT) external {... */\n    tag_151:\n        /* \"src/staking.sol\":9215:9244  hasRole(_ADMIN, _msgSender()) */\n      tag_267\n        /* \"src/staking.sol\":1831:1850  keccak256(\"_ADMIN\") */\n      0xae6c2fc584631af4c9385b8a55683f1a75c813747e27efef5afece31c6b230d3\n        /* \"src/staking.sol\":9231:9243  _msgSender() */\n      tag_268\n        /* \"src/staking.sol\":9231:9241  _msgSender */\n      tag_183\n        /* \"src/staking.sol\":9231:9243  _msgSender() */\n      jump\t// in\n    tag_268:\n        /* \"src/staking.sol\":9215:9222  hasRole */\n      tag_121\n        /* \"src/staking.sol\":9215:9244  hasRole(_ADMIN, _msgSender()) */\n      jump\t// in\n    tag_267:\n        /* \"src/staking.sol\":9207:9245  require(hasRole(_ADMIN, _msgSender())) */\n      tag_269\n      jumpi\n      0x00\n      dup1\n      revert\n    tag_269:\n        /* \"src/staking.sol\":9261:9272  _newGoldNFT */\n      dup1\n        /* \"src/staking.sol\":9255:9258  nft */\n      0x03\n      0x00\n        /* \"src/staking.sol\":9255:9272  nft = _newGoldNFT */\n      0x0100\n      exp\n      dup2\n      sload\n      dup2\n      0xffffffffffffffffffffffffffffffffffffffff\n      mul\n      not\n      and\n      swap1\n      dup4\n      0xffffffffffffffffffffffffffffffffffffffff\n      and\n      mul\n      or\n      swap1\n      sstore\n      pop\n        /* \"src/staking.sol\":9151:9279  function setNFT(IERC721 _newGoldNFT) external {... */\n      pop\n      jump\t// out\n        /* \"src/staking.sol\":1016:1043  IMintableToken public token */\n    tag_153:\n      0x02\n      0x00\n      swap1\n      sload\n      swap1\n      0x0100\n      exp\n      swap1\n      div\n      0xffffffffffffffffffffffffffffffffffffffff\n      and\n      dup2\n      jump\t// out\n        /* \"src/staking.sol\":2449:2484  RewardLevelBonus public rewardBonus */\n    tag_157:\n      0x0a\n      dup1\n      0x00\n      add\n      sload\n      swap1\n      dup1\n      0x01\n      add\n      sload\n      swap1\n      dup1\n      0x02\n      add\n      sload\n      swap1\n      pop\n      dup4\n      jump\t// out\n        /* \"@openzeppelin/contracts/utils/introspection/ERC165.sol\":762:908  function supportsInterface(bytes4 interfaceId) public view virtual returns (bool) {... */\n    tag_163:\n        /* \"@openzeppelin/contracts/utils/introspection/ERC165.sol\":838:842  bool */\n      0x00\n        /* \"@openzeppelin/contracts/utils/introspection/ERC165.sol\":876:901  type(IERC165).interfaceId */\n      0x01ffc9a700000000000000000000000000000000000000000000000000000000\n        /* \"@openzeppelin/contracts/utils/introspection/ERC165.sol\":861:901  interfaceId == type(IERC165).interfaceId */\n      not(0xffffffffffffffffffffffffffffffffffffffffffffffffffffffff)\n      and\n        /* \"@openzeppelin/contracts/utils/introspection/ERC165.sol\":861:872  interfaceId */\n      dup3\n        /* \"@openzeppelin/contracts/utils/introspection/ERC165.sol\":861:901  interfaceId == type(IERC165).interfaceId */\n      not(0xffffffffffffffffffffffffffffffffffffffffffffffffffffffff)\n      and\n      eq\n        /* \"@openzeppelin/contracts/utils/introspection/ERC165.sol\":854:901  return interfaceId == type(IERC165).interfaceId */\n      swap1\n      pop\n        /* \"@openzeppelin/contracts/utils/introspection/ERC165.sol\":762:908  function supportsInterface(bytes4 interfaceId) public view virtual returns (bool) {... */\n      swap2\n      swap1\n      pop\n      jump\t// out\n        /* \"@openzeppelin/contracts/utils/Context.sol\":656:752  function _msgSender() internal view virtual returns (address) {... */\n    tag_183:\n        /* \"@openzeppelin/contracts/utils/Context.sol\":709:716  address */\n      0x00\n        /* \"@openzeppelin/contracts/utils/Context.sol\":735:745  msg.sender */\n      caller\n        /* \"@openzeppelin/contracts/utils/Context.sol\":728:745  return msg.sender */\n      swap1\n      pop\n        /* \"@openzeppelin/contracts/utils/Context.sol\":656:752  function _msgSender() internal view virtual returns (address) {... */\n      swap1\n      jump\t// out\n        /* \"@openzeppelin/contracts/security/ReentrancyGuard.sol\":2336:2623  function _nonReentrantBefore() private {... */\n    tag_188:\n        /* \"@openzeppelin/contracts/security/ReentrancyGuard.sol\":1759:1760  2 */\n      0x02\n        /* \"@openzeppelin/contracts/security/ReentrancyGuard.sol\":2468:2475  _status */\n      sload(0x01)\n        /* \"@openzeppelin/contracts/security/ReentrancyGuard.sol\":2468:2487  _status != _ENTERED */\n      sub\n        /* \"@openzeppelin/contracts/security/ReentrancyGuard.sol\":2460:2523  require(_status != _ENTERED, \"ReentrancyGuard: reentrant call\") */\n      tag_273\n      jumpi\n      mload(0x40)\n      0x08c379a000000000000000000000000000000000000000000000000000000000\n      dup2\n      mstore\n      0x04\n      add\n      tag_274\n      swap1\n      tag_275\n      jump\t// in\n    tag_274:\n      mload(0x40)\n      dup1\n      swap2\n      sub\n      swap1\n      revert\n    tag_273:\n        /* \"@openzeppelin/contracts/security/ReentrancyGuard.sol\":1759:1760  2 */\n      0x02\n        /* \"@openzeppelin/contracts/security/ReentrancyGuard.sol\":2598:2605  _status */\n      0x01\n        /* \"@openzeppelin/contracts/security/ReentrancyGuard.sol\":2598:2616  _status = _ENTERED */\n      dup2\n      swap1\n      sstore\n      pop\n        /* \"@openzeppelin/contracts/security/ReentrancyGuard.sol\":2336:2623  function _nonReentrantBefore() private {... */\n      jump\t// out\n        /* \"src/staking.sol\":5394:6036  function _unstake(uint256 _amount) internal {... */\n    tag_191:\n        /* \"src/staking.sol\":5448:5469  UserInfo storage user */\n      0x00\n        /* \"src/staking.sol\":5472:5480  userInfo */\n      0x0d\n        /* \"src/staking.sol\":5472:5494  userInfo[_msgSender()] */\n      0x00\n        /* \"src/staking.sol\":5481:5493  _msgSender() */\n      tag_277\n        /* \"src/staking.sol\":5481:5491  _msgSender */\n      tag_183\n        /* \"src/staking.sol\":5481:5493  _msgSender() */\n      jump\t// in\n    tag_277:\n        /* \"src/staking.sol\":5472:5494  userInfo[_msgSender()] */\n      0xffffffffffffffffffffffffffffffffffffffff\n      and\n      0xffffffffffffffffffffffffffffffffffffffff\n      and\n      dup2\n      mstore\n      0x20\n      add\n      swap1\n      dup2\n      mstore\n      0x20\n      add\n      0x00\n      keccak256\n        /* \"src/staking.sol\":5448:5494  UserInfo storage user = userInfo[_msgSender()] */\n      swap1\n      pop\n        /* \"src/staking.sol\":5522:5523  0 */\n      0x00\n        /* \"src/staking.sol\":5512:5519  _amount */\n      dup3\n        /* \"src/staking.sol\":5512:5523  _amount > 0 */\n      gt\n        /* \"src/staking.sol\":5504:5571  require(_amount > 0, \"TokenStaking: Amount must be greater than 0\") */\n      tag_278\n      jumpi\n      mload(0x40)\n      0x08c379a000000000000000000000000000000000000000000000000000000000\n      dup2\n      mstore\n      0x04\n      add\n      tag_279\n      swap1\n      tag_280\n      jump\t// in\n    tag_279:\n      mload(0x40)\n      dup1\n      swap2\n      sub\n      swap1\n      revert\n    tag_278:\n        /* \"src/staking.sol\":5611:5618  _amount */\n      dup2\n        /* \"src/staking.sol\":5589:5593  user */\n      dup2\n        /* \"src/staking.sol\":5589:5607  user.stakedBalance */\n      0x00\n      add\n      sload\n        /* \"src/staking.sol\":5589:5618  user.stakedBalance >= _amount */\n      lt\n      iszero\n        /* \"src/staking.sol\":5581:5664  require(user.stakedBalance >= _amount, \"TokenStaking: Insufficient staked balance\") */\n      tag_281\n      jumpi\n      mload(0x40)\n      0x08c379a000000000000000000000000000000000000000000000000000000000\n      dup2\n      mstore\n      0x04\n      add\n      tag_282\n      swap1\n      tag_283\n      jump\t// in\n    tag_282:\n      mload(0x40)\n      dup1\n      swap2\n      sub\n      swap1\n      revert\n    tag_281:\n        /* \"src/staking.sol\":5720:5733  claimInterval */\n      sload(0x09)\n        /* \"src/staking.sol\":5698:5702  user */\n      dup2\n        /* \"src/staking.sol\":5698:5717  user.lastClaimBlock */\n      0x01\n      add\n      sload\n        /* \"src/staking.sol\":5698:5733  user.lastClaimBlock + claimInterval */\n      tag_284\n      swap2\n      swap1\n      tag_177\n      jump\t// in\n    tag_284:\n        /* \"src/staking.sol\":5682:5694  block.number */\n      number\n        /* \"src/staking.sol\":5682:5733  block.number >= user.lastClaimBlock + claimInterval */\n      lt\n      iszero\n        /* \"src/staking.sol\":5674:5774  require(block.number >= user.lastClaimBlock + claimInterval, \"TokenStaking: Claim interval not met\") */\n      tag_285\n      jumpi\n      mload(0x40)\n      0x08c379a000000000000000000000000000000000000000000000000000000000\n      dup2\n      mstore\n      0x04\n      add\n      tag_286\n      swap1\n      tag_287\n      jump\t// in\n    tag_286:\n      mload(0x40)\n      dup1\n      swap2\n      sub\n      swap1\n      revert\n    tag_285:\n        /* \"src/staking.sol\":5785:5812  _claimRewards(_msgSender()) */\n      tag_288\n        /* \"src/staking.sol\":5799:5811  _msgSender() */\n      tag_289\n        /* \"src/staking.sol\":5799:5809  _msgSender */\n      tag_183\n        /* \"src/staking.sol\":5799:5811  _msgSender() */\n      jump\t// in\n    tag_289:\n        /* \"src/staking.sol\":5785:5798  _claimRewards */\n      tag_212\n        /* \"src/staking.sol\":5785:5812  _claimRewards(_msgSender()) */\n      jump\t// in\n    tag_288:\n        /* \"src/staking.sol\":5845:5852  _amount */\n      dup2\n        /* \"src/staking.sol\":5823:5827  user */\n      dup2\n        /* \"src/staking.sol\":5823:5841  user.stakedBalance */\n      0x00\n      add\n      0x00\n        /* \"src/staking.sol\":5823:5852  user.stakedBalance -= _amount */\n      dup3\n      dup3\n      sload\n      tag_290\n      swap2\n      swap1\n      tag_175\n      jump\t// in\n    tag_290:\n      swap3\n      pop\n      pop\n      dup2\n      swap1\n      sstore\n      pop\n        /* \"src/staking.sol\":5877:5884  _amount */\n      dup2\n        /* \"src/staking.sol\":5862:5873  totalStaked */\n      0x07\n      0x00\n        /* \"src/staking.sol\":5862:5884  totalStaked -= _amount */\n      dup3\n      dup3\n      sload\n      tag_291\n      swap2\n      swap1\n      tag_175\n      jump\t// in\n    tag_291:\n      swap3\n      pop\n      pop\n      dup2\n      swap1\n      sstore\n      pop\n        /* \"src/staking.sol\":5903:5908  token */\n      0x02\n      0x00\n      swap1\n      sload\n      swap1\n      0x0100\n      exp\n      swap1\n      div\n      0xffffffffffffffffffffffffffffffffffffffff\n      and\n        /* \"src/staking.sol\":5903:5917  token.transfer */\n      0xffffffffffffffffffffffffffffffffffffffff\n      and\n      0xa9059cbb\n        /* \"src/staking.sol\":5918:5930  _msgSender() */\n      tag_292\n        /* \"src/staking.sol\":5918:5928  _msgSender */\n      tag_183\n        /* \"src/staking.sol\":5918:5930  _msgSender() */\n      jump\t// in\n    tag_292:\n        /* \"src/staking.sol\":5932:5939  _amount */\n      dup5\n        /* \"src/staking.sol\":5903:5940  token.transfer(_msgSender(), _amount) */\n      mload(0x40)\n      dup4\n      0xffffffff\n      and\n      0xe0\n      shl\n      dup2\n      mstore\n      0x04\n      add\n      tag_293\n      swap3\n      swap2\n      swap1\n      tag_221\n      jump\t// in\n    tag_293:\n      0x20\n      mload(0x40)\n      dup1\n      dup4\n      sub\n      dup2\n      0x00\n      dup8\n      gas\n      call\n      iszero\n      dup1\n      iszero\n      tag_295\n      jumpi\n      returndatasize\n      0x00\n      dup1\n      returndatacopy\n      revert(0x00, returndatasize)\n    tag_295:\n      pop\n      pop\n      pop\n      pop\n      mload(0x40)\n      returndatasize\n      not(0x1f)\n      0x1f\n      dup3\n      add\n      and\n      dup3\n      add\n      dup1\n      0x40\n      mstore\n      pop\n      dup2\n      add\n      swap1\n      tag_296\n      swap2\n      swap1\n      tag_225\n      jump\t// in\n    tag_296:\n        /* \"src/staking.sol\":5895:5982  require(token.transfer(_msgSender(), _amount), \"TokenStaking: Unstake transfer failed\") */\n      tag_297\n      jumpi\n      mload(0x40)\n      0x08c379a000000000000000000000000000000000000000000000000000000000\n      dup2\n      mstore\n      0x04\n      add\n      tag_298\n      swap1\n      tag_299\n      jump\t// in\n    tag_298:\n      mload(0x40)\n      dup1\n      swap2\n      sub\n      swap1\n      revert\n    tag_297:\n        /* \"src/staking.sol\":6007:6019  _msgSender() */\n      tag_300\n        /* \"src/staking.sol\":6007:6017  _msgSender */\n      tag_183\n        /* \"src/staking.sol\":6007:6019  _msgSender() */\n      jump\t// in\n    tag_300:\n        /* \"src/staking.sol\":5998:6029  Unstaked(_msgSender(), _amount) */\n      0xffffffffffffffffffffffffffffffffffffffff\n      and\n      0x0f5bb82176feb1b5e747e28471aa92156a04d9f3ab9f45f28e2d704232b93f75\n        /* \"src/staking.sol\":6021:6028  _amount */\n      dup4\n        /* \"src/staking.sol\":5998:6029  Unstaked(_msgSender(), _amount) */\n      mload(0x40)\n      tag_301\n      swap2\n      swap1\n      tag_53\n      jump\t// in\n    tag_301:\n      mload(0x40)\n      dup1\n      swap2\n      sub\n      swap1\n      log2\n        /* \"src/staking.sol\":5438:6036  {... */\n      pop\n        /* \"src/staking.sol\":5394:6036  function _unstake(uint256 _amount) internal {... */\n      pop\n      jump\t// out\n        /* \"@openzeppelin/contracts/security/ReentrancyGuard.sol\":2629:2838  function _nonReentrantAfter() private {... */\n    tag_193:\n        /* \"@openzeppelin/contracts/security/ReentrancyGuard.sol\":1716:1717  1 */\n      0x01\n        /* \"@openzeppelin/contracts/security/ReentrancyGuard.sol\":2809:2816  _status */\n      dup1\n        /* \"@openzeppelin/contracts/security/ReentrancyGuard.sol\":2809:2831  _status = _NOT_ENTERED */\n      dup2\n      swap1\n      sstore\n      pop\n        /* \"@openzeppelin/contracts/security/ReentrancyGuard.sol\":2629:2838  function _nonReentrantAfter() private {... */\n      jump\t// out\n        /* \"@openzeppelin/contracts/access/AccessControl.sol\":3199:3302  function _checkRole(bytes32 role) internal view virtual {... */\n    tag_198:\n        /* \"@openzeppelin/contracts/access/AccessControl.sol\":3265:3295  _checkRole(role, _msgSender()) */\n      tag_304\n        /* \"@openzeppelin/contracts/access/AccessControl.sol\":3276:3280  role */\n      dup2\n        /* \"@openzeppelin/contracts/access/AccessControl.sol\":3282:3294  _msgSender() */\n      tag_305\n        /* \"@openzeppelin/contracts/access/AccessControl.sol\":3282:3292  _msgSender */\n      tag_183\n        /* \"@openzeppelin/contracts/access/AccessControl.sol\":3282:3294  _msgSender() */\n      jump\t// in\n    tag_305:\n        /* \"@openzeppelin/contracts/access/AccessControl.sol\":3265:3275  _checkRole */\n      tag_306\n        /* \"@openzeppelin/contracts/access/AccessControl.sol\":3265:3295  _checkRole(role, _msgSender()) */\n      jump\t// in\n    tag_304:\n        /* \"@openzeppelin/contracts/access/AccessControl.sol\":3199:3302  function _checkRole(bytes32 role) internal view virtual {... */\n      pop\n      jump\t// out\n        /* \"@openzeppelin/contracts/access/AccessControl.sol\":6179:6495  function _grantRole(bytes32 role, address account) internal virtual returns (bool) {... */\n    tag_201:\n        /* \"@openzeppelin/contracts/access/AccessControl.sol\":6256:6260  bool */\n      0x00\n        /* \"@openzeppelin/contracts/access/AccessControl.sol\":6277:6299  hasRole(role, account) */\n      tag_308\n        /* \"@openzeppelin/contracts/access/AccessControl.sol\":6285:6289  role */\n      dup4\n        /* \"@openzeppelin/contracts/access/AccessControl.sol\":6291:6298  account */\n      dup4\n        /* \"@openzeppelin/contracts/access/AccessControl.sol\":6277:6284  hasRole */\n      tag_121\n        /* \"@openzeppelin/contracts/access/AccessControl.sol\":6277:6299  hasRole(role, account) */\n      jump\t// in\n    tag_308:\n        /* \"@openzeppelin/contracts/access/AccessControl.sol\":6272:6489  if (!hasRole(role, account)) {... */\n      tag_309\n      jumpi\n        /* \"@openzeppelin/contracts/access/AccessControl.sol\":6347:6351  true */\n      0x01\n        /* \"@openzeppelin/contracts/access/AccessControl.sol\":6315:6321  _roles */\n      0x00\n        /* \"@openzeppelin/contracts/access/AccessControl.sol\":6315:6327  _roles[role] */\n      dup1\n        /* \"@openzeppelin/contracts/access/AccessControl.sol\":6322:6326  role */\n      dup6\n        /* \"@openzeppelin/contracts/access/AccessControl.sol\":6315:6327  _roles[role] */\n      dup2\n      mstore\n      0x20\n      add\n      swap1\n      dup2\n      mstore\n      0x20\n      add\n      0x00\n      keccak256\n        /* \"@openzeppelin/contracts/access/AccessControl.sol\":6315:6335  _roles[role].hasRole */\n      0x00\n      add\n        /* \"@openzeppelin/contracts/access/AccessControl.sol\":6315:6344  _roles[role].hasRole[account] */\n      0x00\n        /* \"@openzeppelin/contracts/access/AccessControl.sol\":6336:6343  account */\n      dup5\n        /* \"@openzeppelin/contracts/access/AccessControl.sol\":6315:6344  _roles[role].hasRole[account] */\n      0xffffffffffffffffffffffffffffffffffffffff\n      and\n      0xffffffffffffffffffffffffffffffffffffffff\n      and\n      dup2\n      mstore\n      0x20\n      add\n      swap1\n      dup2\n      mstore\n      0x20\n      add\n      0x00\n      keccak256\n      0x00\n        /* \"@openzeppelin/contracts/access/AccessControl.sol\":6315:6351  _roles[role].hasRole[account] = true */\n      0x0100\n      exp\n      dup2\n      sload\n      dup2\n      0xff\n      mul\n      not\n      and\n      swap1\n      dup4\n      iszero\n      iszero\n      mul\n      or\n      swap1\n      sstore\n      pop\n        /* \"@openzeppelin/contracts/access/AccessControl.sol\":6397:6409  _msgSender() */\n      tag_310\n        /* \"@openzeppelin/contracts/access/AccessControl.sol\":6397:6407  _msgSender */\n      tag_183\n        /* \"@openzeppelin/contracts/access/AccessControl.sol\":6397:6409  _msgSender() */\n      jump\t// in\n    tag_310:\n        /* \"@openzeppelin/contracts/access/AccessControl.sol\":6370:6410  RoleGranted(role, account, _msgSender()) */\n      0xffffffffffffffffffffffffffffffffffffffff\n      and\n        /* \"@openzeppelin/contracts/access/AccessControl.sol\":6388:6395  account */\n      dup3\n        /* \"@openzeppelin/contracts/access/AccessControl.sol\":6370:6410  RoleGranted(role, account, _msgSender()) */\n      0xffffffffffffffffffffffffffffffffffffffff\n      and\n        /* \"@openzeppelin/contracts/access/AccessControl.sol\":6382:6386  role */\n      dup5\n        /* \"@openzeppelin/contracts/access/AccessControl.sol\":6370:6410  RoleGranted(role, account, _msgSender()) */\n      0x2f8788117e7eff1d82e926ec794901d17c78024a50270940304540a733656f0d\n      mload(0x40)\n      mload(0x40)\n      dup1\n      swap2\n      sub\n      swap1\n      log4\n        /* \"@openzeppelin/contracts/access/AccessControl.sol\":6431:6435  true */\n      0x01\n        /* \"@openzeppelin/contracts/access/AccessControl.sol\":6424:6435  return true */\n      swap1\n      pop\n      jump(tag_307)\n        /* \"@openzeppelin/contracts/access/AccessControl.sol\":6272:6489  if (!hasRole(role, account)) {... */\n    tag_309:\n        /* \"@openzeppelin/contracts/access/AccessControl.sol\":6473:6478  false */\n      0x00\n        /* \"@openzeppelin/contracts/access/AccessControl.sol\":6466:6478  return false */\n      swap1\n      pop\n        /* \"@openzeppelin/contracts/access/AccessControl.sol\":6179:6495  function _grantRole(bytes32 role, address account) internal virtual returns (bool) {... */\n    tag_307:\n      swap3\n      swap2\n      pop\n      pop\n      jump\t// out\n        /* \"@openzeppelin/contracts/access/AccessControl.sol\":6730:7047  function _revokeRole(bytes32 role, address account) internal virtual returns (bool) {... */\n    tag_206:\n        /* \"@openzeppelin/contracts/access/AccessControl.sol\":6808:6812  bool */\n      0x00\n        /* \"@openzeppelin/contracts/access/AccessControl.sol\":6828:6850  hasRole(role, account) */\n      tag_313\n        /* \"@openzeppelin/contracts/access/AccessControl.sol\":6836:6840  role */\n      dup4\n        /* \"@openzeppelin/contracts/access/AccessControl.sol\":6842:6849  account */\n      dup4\n        /* \"@openzeppelin/contracts/access/AccessControl.sol\":6828:6835  hasRole */\n      tag_121\n        /* \"@openzeppelin/contracts/access/AccessControl.sol\":6828:6850  hasRole(role, account) */\n      jump\t// in\n    tag_313:\n        /* \"@openzeppelin/contracts/access/AccessControl.sol\":6824:7041  if (hasRole(role, account)) {... */\n      iszero\n      tag_314\n      jumpi\n        /* \"@openzeppelin/contracts/access/AccessControl.sol\":6898:6903  false */\n      0x00\n        /* \"@openzeppelin/contracts/access/AccessControl.sol\":6866:6872  _roles */\n      dup1\n        /* \"@openzeppelin/contracts/access/AccessControl.sol\":6866:6878  _roles[role] */\n      0x00\n        /* \"@openzeppelin/contracts/access/AccessControl.sol\":6873:6877  role */\n      dup6\n        /* \"@openzeppelin/contracts/access/AccessControl.sol\":6866:6878  _roles[role] */\n      dup2\n      mstore\n      0x20\n      add\n      swap1\n      dup2\n      mstore\n      0x20\n      add\n      0x00\n      keccak256\n        /* \"@openzeppelin/contracts/access/AccessControl.sol\":6866:6886  _roles[role].hasRole */\n      0x00\n      add\n        /* \"@openzeppelin/contracts/access/AccessControl.sol\":6866:6895  _roles[role].hasRole[account] */\n      0x00\n        /* \"@openzeppelin/contracts/access/AccessControl.sol\":6887:6894  account */\n      dup5\n        /* \"@openzeppelin/contracts/access/AccessControl.sol\":6866:6895  _roles[role].hasRole[account] */\n      0xffffffffffffffffffffffffffffffffffffffff\n      and\n      0xffffffffffffffffffffffffffffffffffffffff\n      and\n      dup2\n      mstore\n      0x20\n      add\n      swap1\n      dup2\n      mstore\n      0x20\n      add\n      0x00\n      keccak256\n      0x00\n        /* \"@openzeppelin/contracts/access/AccessControl.sol\":6866:6903  _roles[role].hasRole[account] = false */\n      0x0100\n      exp\n      dup2\n      sload\n      dup2\n      0xff\n      mul\n      not\n      and\n      swap1\n      dup4\n      iszero\n      iszero\n      mul\n      or\n      swap1\n      sstore\n      pop\n        /* \"@openzeppelin/contracts/access/AccessControl.sol\":6949:6961  _msgSender() */\n      tag_315\n        /* \"@openzeppelin/contracts/access/AccessControl.sol\":6949:6959  _msgSender */\n      tag_183\n        /* \"@openzeppelin/contracts/access/AccessControl.sol\":6949:6961  _msgSender() */\n      jump\t// in\n    tag_315:\n        /* \"@openzeppelin/contracts/access/AccessControl.sol\":6922:6962  RoleRevoked(role, account, _msgSender()) */\n      0xffffffffffffffffffffffffffffffffffffffff\n      and\n        /* \"@openzeppelin/contracts/access/AccessControl.sol\":6940:6947  account */\n      dup3\n        /* \"@openzeppelin/contracts/access/AccessControl.sol\":6922:6962  RoleRevoked(role, account, _msgSender()) */\n      0xffffffffffffffffffffffffffffffffffffffff\n      and\n        /* \"@openzeppelin/contracts/access/AccessControl.sol\":6934:6938  role */\n      dup5\n        /* \"@openzeppelin/contracts/access/AccessControl.sol\":6922:6962  RoleRevoked(role, account, _msgSender()) */\n      0xf6391f5c32d9c69d2a47ea670b442974b53935d1edc7fd64eb21e047a839171b\n      mload(0x40)\n      mload(0x40)\n      dup1\n      swap2\n      sub\n      swap1\n      log4\n        /* \"@openzeppelin/contracts/access/AccessControl.sol\":6983:6987  true */\n      0x01\n        /* \"@openzeppelin/contracts/access/AccessControl.sol\":6976:6987  return true */\n      swap1\n      pop\n      jump(tag_312)\n        /* \"@openzeppelin/contracts/access/AccessControl.sol\":6824:7041  if (hasRole(role, account)) {... */\n    tag_314:\n        /* \"@openzeppelin/contracts/access/AccessControl.sol\":7025:7030  false */\n      0x00\n        /* \"@openzeppelin/contracts/access/AccessControl.sol\":7018:7030  return false */\n      swap1\n      pop\n        /* \"@openzeppelin/contracts/access/AccessControl.sol\":6730:7047  function _revokeRole(bytes32 role, address account) internal virtual returns (bool) {... */\n    tag_312:\n      swap3\n      swap2\n      pop\n      pop\n      jump\t// out\n        /* \"src/staking.sol\":6186:6804  function _claimRewards(address staker) internal {... */\n    tag_212:\n        /* \"src/staking.sol\":6244:6265  UserInfo storage user */\n      0x00\n        /* \"src/staking.sol\":6268:6276  userInfo */\n      0x0d\n        /* \"src/staking.sol\":6268:6284  userInfo[staker] */\n      0x00\n        /* \"src/staking.sol\":6277:6283  staker */\n      dup4\n        /* \"src/staking.sol\":6268:6284  userInfo[staker] */\n      0xffffffffffffffffffffffffffffffffffffffff\n      and\n      0xffffffffffffffffffffffffffffffffffffffff\n      and\n      dup2\n      mstore\n      0x20\n      add\n      swap1\n      dup2\n      mstore\n      0x20\n      add\n      0x00\n      keccak256\n        /* \"src/staking.sol\":6244:6284  UserInfo storage user = userInfo[staker] */\n      swap1\n      pop\n        /* \"src/staking.sol\":6323:6324  0 */\n      0x00\n        /* \"src/staking.sol\":6302:6306  user */\n      dup2\n        /* \"src/staking.sol\":6302:6320  user.stakedBalance */\n      0x00\n      add\n      sload\n        /* \"src/staking.sol\":6302:6324  user.stakedBalance > 0 */\n      gt\n        /* \"src/staking.sol\":6294:6360  require(user.stakedBalance > 0, \"TokenStaking: No staked balance\") */\n      tag_318\n      jumpi\n      mload(0x40)\n      0x08c379a000000000000000000000000000000000000000000000000000000000\n      dup2\n      mstore\n      0x04\n      add\n      tag_319\n      swap1\n      tag_320\n      jump\t// in\n    tag_319:\n      mload(0x40)\n      dup1\n      swap2\n      sub\n      swap1\n      revert\n    tag_318:\n        /* \"src/staking.sol\":6416:6429  claimInterval */\n      sload(0x09)\n        /* \"src/staking.sol\":6394:6398  user */\n      dup2\n        /* \"src/staking.sol\":6394:6413  user.lastClaimBlock */\n      0x01\n      add\n      sload\n        /* \"src/staking.sol\":6394:6429  user.lastClaimBlock + claimInterval */\n      tag_321\n      swap2\n      swap1\n      tag_177\n      jump\t// in\n    tag_321:\n        /* \"src/staking.sol\":6378:6390  block.number */\n      number\n        /* \"src/staking.sol\":6378:6429  block.number >= user.lastClaimBlock + claimInterval */\n      lt\n      iszero\n        /* \"src/staking.sol\":6370:6470  require(block.number >= user.lastClaimBlock + claimInterval, \"TokenStaking: Claim interval not met\") */\n      tag_322\n      jumpi\n      mload(0x40)\n      0x08c379a000000000000000000000000000000000000000000000000000000000\n      dup2\n      mstore\n      0x04\n      add\n      tag_323\n      swap1\n      tag_287\n      jump\t// in\n    tag_323:\n      mload(0x40)\n      dup1\n      swap2\n      sub\n      swap1\n      revert\n    tag_322:\n        /* \"src/staking.sol\":6481:6503  uint256 pendingRewards */\n      0x00\n        /* \"src/staking.sol\":6506:6537  calculatePendingRewards(staker) */\n      tag_324\n        /* \"src/staking.sol\":6530:6536  staker */\n      dup4\n        /* \"src/staking.sol\":6506:6529  calculatePendingRewards */\n      tag_51\n        /* \"src/staking.sol\":6506:6537  calculatePendingRewards(staker) */\n      jump\t// in\n    tag_324:\n        /* \"src/staking.sol\":6481:6537  uint256 pendingRewards = calculatePendingRewards(staker) */\n      swap1\n      pop\n        /* \"src/staking.sol\":6572:6573  0 */\n      0x00\n        /* \"src/staking.sol\":6555:6569  pendingRewards */\n      dup2\n        /* \"src/staking.sol\":6555:6573  pendingRewards > 0 */\n      gt\n        /* \"src/staking.sol\":6547:6611  require(pendingRewards > 0, \"TokenStaking: No rewards to claim\") */\n      tag_325\n      jumpi\n      mload(0x40)\n      0x08c379a000000000000000000000000000000000000000000000000000000000\n      dup2\n      mstore\n      0x04\n      add\n      tag_326\n      swap1\n      tag_327\n      jump\t// in\n    tag_326:\n      mload(0x40)\n      dup1\n      swap2\n      sub\n      swap1\n      revert\n    tag_325:\n        /* \"src/staking.sol\":6644:6656  block.number */\n      number\n        /* \"src/staking.sol\":6622:6626  user */\n      dup3\n        /* \"src/staking.sol\":6622:6641  user.lastClaimBlock */\n      0x01\n      add\n        /* \"src/staking.sol\":6622:6656  user.lastClaimBlock = block.number */\n      dup2\n      swap1\n      sstore\n      pop\n        /* \"src/staking.sol\":6682:6696  pendingRewards */\n      dup1\n        /* \"src/staking.sol\":6666:6678  totalRewards */\n      0x08\n      0x00\n        /* \"src/staking.sol\":6666:6696  totalRewards += pendingRewards */\n      dup3\n      dup3\n      sload\n      tag_328\n      swap2\n      swap1\n      tag_177\n      jump\t// in\n    tag_328:\n      swap3\n      pop\n      pop\n      dup2\n      swap1\n      sstore\n      pop\n        /* \"src/staking.sol\":6707:6712  token */\n      0x02\n      0x00\n      swap1\n      sload\n      swap1\n      0x0100\n      exp\n      swap1\n      div\n      0xffffffffffffffffffffffffffffffffffffffff\n      and\n        /* \"src/staking.sol\":6707:6719  token.mintTo */\n      0xffffffffffffffffffffffffffffffffffffffff\n      and\n      0x449a52f8\n        /* \"src/staking.sol\":6720:6726  staker */\n      dup5\n        /* \"src/staking.sol\":6728:6742  pendingRewards */\n      dup4\n        /* \"src/staking.sol\":6707:6743  token.mintTo(staker, pendingRewards) */\n      mload(0x40)\n      dup4\n      0xffffffff\n      and\n      0xe0\n      shl\n      dup2\n      mstore\n      0x04\n      add\n      tag_329\n      swap3\n      swap2\n      swap1\n      tag_221\n      jump\t// in\n    tag_329:\n      0x00\n      mload(0x40)\n      dup1\n      dup4\n      sub\n      dup2\n      0x00\n      dup8\n      dup1\n      extcodesize\n      iszero\n      dup1\n      iszero\n      tag_330\n      jumpi\n      0x00\n      dup1\n      revert\n    tag_330:\n      pop\n      gas\n      call\n      iszero\n      dup1\n      iszero\n      tag_332\n      jumpi\n      returndatasize\n      0x00\n      dup1\n      returndatacopy\n      revert(0x00, returndatasize)\n    tag_332:\n      pop\n      pop\n      pop\n      pop\n        /* \"src/staking.sol\":6774:6780  staker */\n      dup3\n        /* \"src/staking.sol\":6759:6797  ClaimedRewards(staker, pendingRewards) */\n      0xffffffffffffffffffffffffffffffffffffffff\n      and\n      0x2d5429efdeca7741a8cd94067b18d988bc4e5f1d5b8272c37b7bfc31e9bfa32c\n        /* \"src/staking.sol\":6782:6796  pendingRewards */\n      dup3\n        /* \"src/staking.sol\":6759:6797  ClaimedRewards(staker, pendingRewards) */\n      mload(0x40)\n      tag_333\n      swap2\n      swap1\n      tag_53\n      jump\t// in\n    tag_333:\n      mload(0x40)\n      dup1\n      swap2\n      sub\n      swap1\n      log2\n        /* \"src/staking.sol\":6234:6804  {... */\n      pop\n      pop\n        /* \"src/staking.sol\":6186:6804  function _claimRewards(address staker) internal {... */\n      pop\n      jump\t// out\n        /* \"src/staking.sol\":4583:5260  function _stake(uint256 _amount) internal {... */\n    tag_248:\n        /* \"src/staking.sol\":4653:4654  0 */\n      0x00\n        /* \"src/staking.sol\":4643:4650  _amount */\n      dup2\n        /* \"src/staking.sol\":4643:4654  _amount > 0 */\n      gt\n        /* \"src/staking.sol\":4635:4697  require(_amount > 0, \"Staking: Amount must be greater than 0\") */\n      tag_335\n      jumpi\n      mload(0x40)\n      0x08c379a000000000000000000000000000000000000000000000000000000000\n      dup2\n      mstore\n      0x04\n      add\n      tag_336\n      swap1\n      tag_337\n      jump\t// in\n    tag_336:\n      mload(0x40)\n      dup1\n      swap2\n      sub\n      swap1\n      revert\n    tag_335:\n        /* \"src/staking.sol\":4745:4746  0 */\n      0x00\n        /* \"src/staking.sol\":4715:4718  nft */\n      0x03\n      0x00\n      swap1\n      sload\n      swap1\n      0x0100\n      exp\n      swap1\n      div\n      0xffffffffffffffffffffffffffffffffffffffff\n      and\n        /* \"src/staking.sol\":4715:4728  nft.balanceOf */\n      0xffffffffffffffffffffffffffffffffffffffff\n      and\n      0x70a08231\n        /* \"src/staking.sol\":4729:4741  _msgSender() */\n      tag_338\n        /* \"src/staking.sol\":4729:4739  _msgSender */\n      tag_183\n        /* \"src/staking.sol\":4729:4741  _msgSender() */\n      jump\t// in\n    tag_338:\n        /* \"src/staking.sol\":4715:4742  nft.balanceOf(_msgSender()) */\n      mload(0x40)\n      dup3\n      0xffffffff\n      and\n      0xe0\n      shl\n      dup2\n      mstore\n      0x04\n      add\n      tag_339\n      swap2\n      swap1\n      tag_238\n      jump\t// in\n    tag_339:\n      0x20\n      mload(0x40)\n      dup1\n      dup4\n      sub\n      dup2\n      dup7\n      gas\n      staticcall\n      iszero\n      dup1\n      iszero\n      tag_341\n      jumpi\n      returndatasize\n      0x00\n      dup1\n      returndatacopy\n      revert(0x00, returndatasize)\n    tag_341:\n      pop\n      pop\n      pop\n      pop\n      mload(0x40)\n      returndatasize\n      not(0x1f)\n      0x1f\n      dup3\n      add\n      and\n      dup3\n      add\n      dup1\n      0x40\n      mstore\n      pop\n      dup2\n      add\n      swap1\n      tag_342\n      swap2\n      swap1\n      tag_242\n      jump\t// in\n    tag_342:\n        /* \"src/staking.sol\":4715:4746  nft.balanceOf(_msgSender()) > 0 */\n      gt\n        /* \"src/staking.sol\":4707:4774  require(nft.balanceOf(_msgSender()) > 0, \"Staking: No NFT balance\") */\n      tag_343\n      jumpi\n      mload(0x40)\n      0x08c379a000000000000000000000000000000000000000000000000000000000\n      dup2\n      mstore\n      0x04\n      add\n      tag_344\n      swap1\n      tag_345\n      jump\t// in\n    tag_344:\n      mload(0x40)\n      dup1\n      swap2\n      sub\n      swap1\n      revert\n    tag_343:\n        /* \"src/staking.sol\":4793:4798  token */\n      0x02\n      0x00\n      swap1\n      sload\n      swap1\n      0x0100\n      exp\n      swap1\n      div\n      0xffffffffffffffffffffffffffffffffffffffff\n      and\n        /* \"src/staking.sol\":4793:4806  token.approve */\n      0xffffffffffffffffffffffffffffffffffffffff\n      and\n      0x095ea7b3\n        /* \"src/staking.sol\":4815:4819  this */\n      address\n        /* \"src/staking.sol\":4822:4829  _amount */\n      dup4\n        /* \"src/staking.sol\":4793:4830  token.approve(address(this), _amount) */\n      mload(0x40)\n      dup4\n      0xffffffff\n      and\n      0xe0\n      shl\n      dup2\n      mstore\n      0x04\n      add\n      tag_346\n      swap3\n      swap2\n      swap1\n      tag_221\n      jump\t// in\n    tag_346:\n      0x20\n      mload(0x40)\n      dup1\n      dup4\n      sub\n      dup2\n      0x00\n      dup8\n      gas\n      call\n      iszero\n      dup1\n      iszero\n      tag_348\n      jumpi\n      returndatasize\n      0x00\n      dup1\n      returndatacopy\n      revert(0x00, returndatasize)\n    tag_348:\n      pop\n      pop\n      pop\n      pop\n      mload(0x40)\n      returndatasize\n      not(0x1f)\n      0x1f\n      dup3\n      add\n      and\n      dup3\n      add\n      dup1\n      0x40\n      mstore\n      pop\n      dup2\n      add\n      swap1\n      tag_349\n      swap2\n      swap1\n      tag_225\n      jump\t// in\n    tag_349:\n        /* \"src/staking.sol\":4785:4859  require(token.approve(address(this), _amount), \"Staking: Approval failed\") */\n      tag_350\n      jumpi\n      mload(0x40)\n      0x08c379a000000000000000000000000000000000000000000000000000000000\n      dup2\n      mstore\n      0x04\n      add\n      tag_351\n      swap1\n      tag_352\n      jump\t// in\n    tag_351:\n      mload(0x40)\n      dup1\n      swap2\n      sub\n      swap1\n      revert\n    tag_350:\n        /* \"src/staking.sol\":4877:4882  token */\n      0x02\n      0x00\n      swap1\n      sload\n      swap1\n      0x0100\n      exp\n      swap1\n      div\n      0xffffffffffffffffffffffffffffffffffffffff\n      and\n        /* \"src/staking.sol\":4877:4895  token.transferFrom */\n      0xffffffffffffffffffffffffffffffffffffffff\n      and\n      0x23b872dd\n        /* \"src/staking.sol\":4896:4908  _msgSender() */\n      tag_353\n        /* \"src/staking.sol\":4896:4906  _msgSender */\n      tag_183\n        /* \"src/staking.sol\":4896:4908  _msgSender() */\n      jump\t// in\n    tag_353:\n        /* \"src/staking.sol\":4918:4922  this */\n      address\n        /* \"src/staking.sol\":4925:4932  _amount */\n      dup5\n        /* \"src/staking.sol\":4877:4933  token.transferFrom(_msgSender(), address(this), _amount) */\n      mload(0x40)\n      dup5\n      0xffffffff\n      and\n      0xe0\n      shl\n      dup2\n      mstore\n      0x04\n      add\n      tag_354\n      swap4\n      swap3\n      swap2\n      swap1\n      tag_355\n      jump\t// in\n    tag_354:\n      0x20\n      mload(0x40)\n      dup1\n      dup4\n      sub\n      dup2\n      0x00\n      dup8\n      gas\n      call\n      iszero\n      dup1\n      iszero\n      tag_357\n      jumpi\n      returndatasize\n      0x00\n      dup1\n      returndatacopy\n      revert(0x00, returndatasize)\n    tag_357:\n      pop\n      pop\n      pop\n      pop\n      mload(0x40)\n      returndatasize\n      not(0x1f)\n      0x1f\n      dup3\n      add\n      and\n      dup3\n      add\n      dup1\n      0x40\n      mstore\n      pop\n      dup2\n      add\n      swap1\n      tag_358\n      swap2\n      swap1\n      tag_225\n      jump\t// in\n    tag_358:\n        /* \"src/staking.sol\":4869:4968  require(token.transferFrom(_msgSender(), address(this), _amount), \"Staking: Token transfer failed\") */\n      tag_359\n      jumpi\n      mload(0x40)\n      0x08c379a000000000000000000000000000000000000000000000000000000000\n      dup2\n      mstore\n      0x04\n      add\n      tag_360\n      swap1\n      tag_361\n      jump\t// in\n    tag_360:\n      mload(0x40)\n      dup1\n      swap2\n      sub\n      swap1\n      revert\n    tag_359:\n        /* \"src/staking.sol\":4979:5000  UserInfo storage user */\n      0x00\n        /* \"src/staking.sol\":5003:5011  userInfo */\n      0x0d\n        /* \"src/staking.sol\":5003:5025  userInfo[_msgSender()] */\n      0x00\n        /* \"src/staking.sol\":5012:5024  _msgSender() */\n      tag_362\n        /* \"src/staking.sol\":5012:5022  _msgSender */\n      tag_183\n        /* \"src/staking.sol\":5012:5024  _msgSender() */\n      jump\t// in\n    tag_362:\n        /* \"src/staking.sol\":5003:5025  userInfo[_msgSender()] */\n      0xffffffffffffffffffffffffffffffffffffffff\n      and\n      0xffffffffffffffffffffffffffffffffffffffff\n      and\n      dup2\n      mstore\n      0x20\n      add\n      swap1\n      dup2\n      mstore\n      0x20\n      add\n      0x00\n      keccak256\n        /* \"src/staking.sol\":4979:5025  UserInfo storage user = userInfo[_msgSender()] */\n      swap1\n      pop\n        /* \"src/staking.sol\":5058:5065  _amount */\n      dup2\n        /* \"src/staking.sol\":5036:5040  user */\n      dup2\n        /* \"src/staking.sol\":5036:5054  user.stakedBalance */\n      0x00\n      add\n      0x00\n        /* \"src/staking.sol\":5036:5065  user.stakedBalance += _amount */\n      dup3\n      dup3\n      sload\n      tag_363\n      swap2\n      swap1\n      tag_177\n      jump\t// in\n    tag_363:\n      swap3\n      pop\n      pop\n      dup2\n      swap1\n      sstore\n      pop\n        /* \"src/staking.sol\":5105:5109  1e20 */\n      0x056bc75e2d63100000\n        /* \"src/staking.sol\":5083:5087  user */\n      dup2\n        /* \"src/staking.sol\":5083:5101  user.stakedBalance */\n      0x00\n      add\n      sload\n        /* \"src/staking.sol\":5083:5109  user.stakedBalance <= 1e20 */\n      gt\n      iszero\n        /* \"src/staking.sol\":5075:5131  require(user.stakedBalance <= 1e20, \"Stake exceeds cap\") */\n      tag_364\n      jumpi\n      mload(0x40)\n      0x08c379a000000000000000000000000000000000000000000000000000000000\n      dup2\n      mstore\n      0x04\n      add\n      tag_365\n      swap1\n      tag_366\n      jump\t// in\n    tag_365:\n      mload(0x40)\n      dup1\n      swap2\n      sub\n      swap1\n      revert\n    tag_364:\n        /* \"src/staking.sol\":5157:5164  _amount */\n      dup2\n        /* \"src/staking.sol\":5142:5153  totalStaked */\n      0x07\n      0x00\n        /* \"src/staking.sol\":5142:5164  totalStaked += _amount */\n      dup3\n      dup3\n      sload\n      tag_367\n      swap2\n      swap1\n      tag_177\n      jump\t// in\n    tag_367:\n      swap3\n      pop\n      pop\n      dup2\n      swap1\n      sstore\n      pop\n        /* \"src/staking.sol\":5196:5208  block.number */\n      number\n        /* \"src/staking.sol\":5174:5178  user */\n      dup2\n        /* \"src/staking.sol\":5174:5193  user.lastClaimBlock */\n      0x01\n      add\n        /* \"src/staking.sol\":5174:5208  user.lastClaimBlock = block.number */\n      dup2\n      swap1\n      sstore\n      pop\n        /* \"src/staking.sol\":5231:5243  _msgSender() */\n      tag_368\n        /* \"src/staking.sol\":5231:5241  _msgSender */\n      tag_183\n        /* \"src/staking.sol\":5231:5243  _msgSender() */\n      jump\t// in\n    tag_368:\n        /* \"src/staking.sol\":5224:5253  Staked(_msgSender(), _amount) */\n      0xffffffffffffffffffffffffffffffffffffffff\n      and\n      0x9e71bc8eea02a63969f509818f2dafb9254532904319f9dbda79b67bd34a5f3d\n        /* \"src/staking.sol\":5245:5252  _amount */\n      dup4\n        /* \"src/staking.sol\":5224:5253  Staked(_msgSender(), _amount) */\n      mload(0x40)\n      tag_369\n      swap2\n      swap1\n      tag_53\n      jump\t// in\n    tag_369:\n      mload(0x40)\n      dup1\n      swap2\n      sub\n      swap1\n      log2\n        /* \"src/staking.sol\":4625:5260  {... */\n      pop\n        /* \"src/staking.sol\":4583:5260  function _stake(uint256 _amount) internal {... */\n      pop\n      jump\t// out\n        /* \"@openzeppelin/contracts/access/AccessControl.sol\":3432:3629  function _checkRole(bytes32 role, address account) internal view virtual {... */\n    tag_306:\n        /* \"@openzeppelin/contracts/access/AccessControl.sol\":3520:3542  hasRole(role, account) */\n      tag_371\n        /* \"@openzeppelin/contracts/access/AccessControl.sol\":3528:3532  role */\n      dup3\n        /* \"@openzeppelin/contracts/access/AccessControl.sol\":3534:3541  account */\n      dup3\n        /* \"@openzeppelin/contracts/access/AccessControl.sol\":3520:3527  hasRole */\n      tag_121\n        /* \"@openzeppelin/contracts/access/AccessControl.sol\":3520:3542  hasRole(role, account) */\n      jump\t// in\n    tag_371:\n        /* \"@openzeppelin/contracts/access/AccessControl.sol\":3515:3623  if (!hasRole(role, account)) {... */\n      tag_372\n      jumpi\n        /* \"@openzeppelin/contracts/access/AccessControl.sol\":3598:3605  account */\n      dup1\n        /* \"@openzeppelin/contracts/access/AccessControl.sol\":3607:3611  role */\n      dup3\n        /* \"@openzeppelin/contracts/access/AccessControl.sol\":3565:3612  AccessControlUnauthorizedAccount(account, role) */\n      mload(0x40)\n      0xe2517d3f00000000000000000000000000000000000000000000000000000000\n      dup2\n      mstore\n      0x04\n      add\n      tag_373\n      swap3\n      swap2\n      swap1\n      tag_374\n      jump\t// in\n    tag_373:\n      mload(0x40)\n      dup1\n      swap2\n      sub\n      swap1\n      revert\n        /* \"@openzeppelin/contracts/access/AccessControl.sol\":3515:3623  if (!hasRole(role, account)) {... */\n    tag_372:\n        /* \"@openzeppelin/contracts/access/AccessControl.sol\":3432:3629  function _checkRole(bytes32 role, address account) internal view virtual {... */\n      pop\n      pop\n      jump\t// out\n        /* \"#utility.yul\":88:205   */\n    tag_376:\n        /* \"#utility.yul\":197:198   */\n      0x00\n        /* \"#utility.yul\":194:195   */\n      dup1\n        /* \"#utility.yul\":187:199   */\n      revert\n        /* \"#utility.yul\":334:483   */\n    tag_378:\n        /* \"#utility.yul\":370:377   */\n      0x00\n        /* \"#utility.yul\":410:476   */\n      0xffffffff00000000000000000000000000000000000000000000000000000000\n        /* \"#utility.yul\":403:408   */\n      dup3\n        /* \"#utility.yul\":399:477   */\n      and\n        /* \"#utility.yul\":388:477   */\n      swap1\n      pop\n        /* \"#utility.yul\":334:483   */\n      swap2\n      swap1\n      pop\n      jump\t// out\n        /* \"#utility.yul\":489:609   */\n    tag_379:\n        /* \"#utility.yul\":561:584   */\n      tag_456\n        /* \"#utility.yul\":578:583   */\n      dup2\n        /* \"#utility.yul\":561:584   */\n      tag_378\n      jump\t// in\n    tag_456:\n        /* \"#utility.yul\":554:559   */\n      dup2\n        /* \"#utility.yul\":551:585   */\n      eq\n        /* \"#utility.yul\":541:603   */\n      tag_457\n      jumpi\n        /* \"#utility.yul\":599:600   */\n      0x00\n        /* \"#utility.yul\":596:597   */\n      dup1\n        /* \"#utility.yul\":589:601   */\n      revert\n        /* \"#utility.yul\":541:603   */\n    tag_457:\n        /* \"#utility.yul\":489:609   */\n      pop\n      jump\t// out\n        /* \"#utility.yul\":615:752   */\n    tag_380:\n        /* \"#utility.yul\":660:665   */\n      0x00\n        /* \"#utility.yul\":698:704   */\n      dup2\n        /* \"#utility.yul\":685:705   */\n      calldataload\n        /* \"#utility.yul\":676:705   */\n      swap1\n      pop\n        /* \"#utility.yul\":714:746   */\n      tag_459\n        /* \"#utility.yul\":740:745   */\n      dup2\n        /* \"#utility.yul\":714:746   */\n      tag_379\n      jump\t// in\n    tag_459:\n        /* \"#utility.yul\":615:752   */\n      swap3\n      swap2\n      pop\n      pop\n      jump\t// out\n        /* \"#utility.yul\":758:1085   */\n    tag_44:\n        /* \"#utility.yul\":816:822   */\n      0x00\n        /* \"#utility.yul\":865:867   */\n      0x20\n        /* \"#utility.yul\":853:862   */\n      dup3\n        /* \"#utility.yul\":844:851   */\n      dup5\n        /* \"#utility.yul\":840:863   */\n      sub\n        /* \"#utility.yul\":836:868   */\n      slt\n        /* \"#utility.yul\":833:952   */\n      iszero\n      tag_461\n      jumpi\n        /* \"#utility.yul\":871:950   */\n      tag_462\n      tag_376\n      jump\t// in\n    tag_462:\n        /* \"#utility.yul\":833:952   */\n    tag_461:\n        /* \"#utility.yul\":991:992   */\n      0x00\n        /* \"#utility.yul\":1016:1068   */\n      tag_463\n        /* \"#utility.yul\":1060:1067   */\n      dup5\n        /* \"#utility.yul\":1051:1057   */\n      dup3\n        /* \"#utility.yul\":1040:1049   */\n      dup6\n        /* \"#utility.yul\":1036:1058   */\n      add\n        /* \"#utility.yul\":1016:1068   */\n      tag_380\n      jump\t// in\n    tag_463:\n        /* \"#utility.yul\":1006:1068   */\n      swap2\n      pop\n        /* \"#utility.yul\":962:1078   */\n      pop\n        /* \"#utility.yul\":758:1085   */\n      swap3\n      swap2\n      pop\n      pop\n      jump\t// out\n        /* \"#utility.yul\":1091:1181   */\n    tag_381:\n        /* \"#utility.yul\":1125:1132   */\n      0x00\n        /* \"#utility.yul\":1168:1173   */\n      dup2\n        /* \"#utility.yul\":1161:1174   */\n      iszero\n        /* \"#utility.yul\":1154:1175   */\n      iszero\n        /* \"#utility.yul\":1143:1175   */\n      swap1\n      pop\n        /* \"#utility.yul\":1091:1181   */\n      swap2\n      swap1\n      pop\n      jump\t// out\n        /* \"#utility.yul\":1187:1296   */\n    tag_382:\n        /* \"#utility.yul\":1268:1289   */\n      tag_466\n        /* \"#utility.yul\":1283:1288   */\n      dup2\n        /* \"#utility.yul\":1268:1289   */\n      tag_381\n      jump\t// in\n    tag_466:\n        /* \"#utility.yul\":1263:1266   */\n      dup3\n        /* \"#utility.yul\":1256:1290   */\n      mstore\n        /* \"#utility.yul\":1187:1296   */\n      pop\n      pop\n      jump\t// out\n        /* \"#utility.yul\":1302:1512   */\n    tag_47:\n        /* \"#utility.yul\":1389:1393   */\n      0x00\n        /* \"#utility.yul\":1427:1429   */\n      0x20\n        /* \"#utility.yul\":1416:1425   */\n      dup3\n        /* \"#utility.yul\":1412:1430   */\n      add\n        /* \"#utility.yul\":1404:1430   */\n      swap1\n      pop\n        /* \"#utility.yul\":1440:1505   */\n      tag_468\n        /* \"#utility.yul\":1502:1503   */\n      0x00\n        /* \"#utility.yul\":1491:1500   */\n      dup4\n        /* \"#utility.yul\":1487:1504   */\n      add\n        /* \"#utility.yul\":1478:1484   */\n      dup5\n        /* \"#utility.yul\":1440:1505   */\n      tag_382\n      jump\t// in\n    tag_468:\n        /* \"#utility.yul\":1302:1512   */\n      swap3\n      swap2\n      pop\n      pop\n      jump\t// out\n        /* \"#utility.yul\":1518:1644   */\n    tag_383:\n        /* \"#utility.yul\":1555:1562   */\n      0x00\n        /* \"#utility.yul\":1595:1637   */\n      0xffffffffffffffffffffffffffffffffffffffff\n        /* \"#utility.yul\":1588:1593   */\n      dup3\n        /* \"#utility.yul\":1584:1638   */\n      and\n        /* \"#utility.yul\":1573:1638   */\n      swap1\n      pop\n        /* \"#utility.yul\":1518:1644   */\n      swap2\n      swap1\n      pop\n      jump\t// out\n        /* \"#utility.yul\":1650:1746   */\n    tag_384:\n        /* \"#utility.yul\":1687:1694   */\n      0x00\n        /* \"#utility.yul\":1716:1740   */\n      tag_471\n        /* \"#utility.yul\":1734:1739   */\n      dup3\n        /* \"#utility.yul\":1716:1740   */\n      tag_383\n      jump\t// in\n    tag_471:\n        /* \"#utility.yul\":1705:1740   */\n      swap1\n      pop\n        /* \"#utility.yul\":1650:1746   */\n      swap2\n      swap1\n      pop\n      jump\t// out\n        /* \"#utility.yul\":1752:1874   */\n    tag_385:\n        /* \"#utility.yul\":1825:1849   */\n      tag_473\n        /* \"#utility.yul\":1843:1848   */\n      dup2\n        /* \"#utility.yul\":1825:1849   */\n      tag_384\n      jump\t// in\n    tag_473:\n        /* \"#utility.yul\":1818:1823   */\n      dup2\n        /* \"#utility.yul\":1815:1850   */\n      eq\n        /* \"#utility.yul\":1805:1868   */\n      tag_474\n      jumpi\n        /* \"#utility.yul\":1864:1865   */\n      0x00\n        /* \"#utility.yul\":1861:1862   */\n      dup1\n        /* \"#utility.yul\":1854:1866   */\n      revert\n        /* \"#utility.yul\":1805:1868   */\n    tag_474:\n        /* \"#utility.yul\":1752:1874   */\n      pop\n      jump\t// out\n        /* \"#utility.yul\":1880:2019   */\n    tag_386:\n        /* \"#utility.yul\":1926:1931   */\n      0x00\n        /* \"#utility.yul\":1964:1970   */\n      dup2\n        /* \"#utility.yul\":1951:1971   */\n      calldataload\n        /* \"#utility.yul\":1942:1971   */\n      swap1\n      pop\n        /* \"#utility.yul\":1980:2013   */\n      tag_476\n        /* \"#utility.yul\":2007:2012   */\n      dup2\n        /* \"#utility.yul\":1980:2013   */\n      tag_385\n      jump\t// in\n    tag_476:\n        /* \"#utility.yul\":1880:2019   */\n      swap3\n      swap2\n      pop\n      pop\n      jump\t// out\n        /* \"#utility.yul\":2025:2354   */\n    tag_50:\n        /* \"#utility.yul\":2084:2090   */\n      0x00\n        /* \"#utility.yul\":2133:2135   */\n      0x20\n        /* \"#utility.yul\":2121:2130   */\n      dup3\n        /* \"#utility.yul\":2112:2119   */\n      dup5\n        /* \"#utility.yul\":2108:2131   */\n      sub\n        /* \"#utility.yul\":2104:2136   */\n      slt\n        /* \"#utility.yul\":2101:2220   */\n      iszero\n      tag_478\n      jumpi\n        /* \"#utility.yul\":2139:2218   */\n      tag_479\n      tag_376\n      jump\t// in\n    tag_479:\n        /* \"#utility.yul\":2101:2220   */\n    tag_478:\n        /* \"#utility.yul\":2259:2260   */\n      0x00\n        /* \"#utility.yul\":2284:2337   */\n      tag_480\n        /* \"#utility.yul\":2329:2336   */\n      dup5\n        /* \"#utility.yul\":2320:2326   */\n      dup3\n        /* \"#utility.yul\":2309:2318   */\n      dup6\n        /* \"#utility.yul\":2305:2327   */\n      add\n        /* \"#utility.yul\":2284:2337   */\n      tag_386\n      jump\t// in\n    tag_480:\n        /* \"#utility.yul\":2274:2337   */\n      swap2\n      pop\n        /* \"#utility.yul\":2230:2347   */\n      pop\n        /* \"#utility.yul\":2025:2354   */\n      swap3\n      swap2\n      pop\n      pop\n      jump\t// out\n        /* \"#utility.yul\":2360:2437   */\n    tag_387:\n        /* \"#utility.yul\":2397:2404   */\n      0x00\n        /* \"#utility.yul\":2426:2431   */\n      dup2\n        /* \"#utility.yul\":2415:2431   */\n      swap1\n      pop\n        /* \"#utility.yul\":2360:2437   */\n      swap2\n      swap1\n      pop\n      jump\t// out\n        /* \"#utility.yul\":2443:2561   */\n    tag_388:\n        /* \"#utility.yul\":2530:2554   */\n      tag_483\n        /* \"#utility.yul\":2548:2553   */\n      dup2\n        /* \"#utility.yul\":2530:2554   */\n      tag_387\n      jump\t// in\n    tag_483:\n        /* \"#utility.yul\":2525:2528   */\n      dup3\n        /* \"#utility.yul\":2518:2555   */\n      mstore\n        /* \"#utility.yul\":2443:2561   */\n      pop\n      pop\n      jump\t// out\n        /* \"#utility.yul\":2567:2789   */\n    tag_53:\n        /* \"#utility.yul\":2660:2664   */\n      0x00\n        /* \"#utility.yul\":2698:2700   */\n      0x20\n        /* \"#utility.yul\":2687:2696   */\n      dup3\n        /* \"#utility.yul\":2683:2701   */\n      add\n        /* \"#utility.yul\":2675:2701   */\n      swap1\n      pop\n        /* \"#utility.yul\":2711:2782   */\n      tag_485\n        /* \"#utility.yul\":2779:2780   */\n      0x00\n        /* \"#utility.yul\":2768:2777   */\n      dup4\n        /* \"#utility.yul\":2764:2781   */\n      add\n        /* \"#utility.yul\":2755:2761   */\n      dup5\n        /* \"#utility.yul\":2711:2782   */\n      tag_388\n      jump\t// in\n    tag_485:\n        /* \"#utility.yul\":2567:2789   */\n      swap3\n      swap2\n      pop\n      pop\n      jump\t// out\n        /* \"#utility.yul\":2795:2913   */\n    tag_389:\n        /* \"#utility.yul\":2854:2861   */\n      0x00\n        /* \"#utility.yul\":2883:2907   */\n      tag_487\n        /* \"#utility.yul\":2901:2906   */\n      dup3\n        /* \"#utility.yul\":2883:2907   */\n      tag_384\n      jump\t// in\n    tag_487:\n        /* \"#utility.yul\":2872:2907   */\n      swap1\n      pop\n        /* \"#utility.yul\":2795:2913   */\n      swap2\n      swap1\n      pop\n      jump\t// out\n        /* \"#utility.yul\":2919:3085   */\n    tag_390:\n        /* \"#utility.yul\":3014:3060   */\n      tag_489\n        /* \"#utility.yul\":3054:3059   */\n      dup2\n        /* \"#utility.yul\":3014:3060   */\n      tag_389\n      jump\t// in\n    tag_489:\n        /* \"#utility.yul\":3007:3012   */\n      dup2\n        /* \"#utility.yul\":3004:3061   */\n      eq\n        /* \"#utility.yul\":2994:3079   */\n      tag_490\n      jumpi\n        /* \"#utility.yul\":3075:3076   */\n      0x00\n        /* \"#utility.yul\":3072:3073   */\n      dup1\n        /* \"#utility.yul\":3065:3077   */\n      revert\n        /* \"#utility.yul\":2994:3079   */\n    tag_490:\n        /* \"#utility.yul\":2919:3085   */\n      pop\n      jump\t// out\n        /* \"#utility.yul\":3091:3274   */\n    tag_391:\n        /* \"#utility.yul\":3159:3164   */\n      0x00\n        /* \"#utility.yul\":3197:3203   */\n      dup2\n        /* \"#utility.yul\":3184:3204   */\n      calldataload\n        /* \"#utility.yul\":3175:3204   */\n      swap1\n      pop\n        /* \"#utility.yul\":3213:3268   */\n      tag_492\n        /* \"#utility.yul\":3262:3267   */\n      dup2\n        /* \"#utility.yul\":3213:3268   */\n      tag_390\n      jump\t// in\n    tag_492:\n        /* \"#utility.yul\":3091:3274   */\n      swap3\n      swap2\n      pop\n      pop\n      jump\t// out\n        /* \"#utility.yul\":3280:3653   */\n    tag_62:\n        /* \"#utility.yul\":3361:3367   */\n      0x00\n        /* \"#utility.yul\":3410:3412   */\n      0x20\n        /* \"#utility.yul\":3398:3407   */\n      dup3\n        /* \"#utility.yul\":3389:3396   */\n      dup5\n        /* \"#utility.yul\":3385:3408   */\n      sub\n        /* \"#utility.yul\":3381:3413   */\n      slt\n        /* \"#utility.yul\":3378:3497   */\n      iszero\n      tag_494\n      jumpi\n        /* \"#utility.yul\":3416:3495   */\n      tag_495\n      tag_376\n      jump\t// in\n    tag_495:\n        /* \"#utility.yul\":3378:3497   */\n    tag_494:\n        /* \"#utility.yul\":3536:3537   */\n      0x00\n        /* \"#utility.yul\":3561:3636   */\n      tag_496\n        /* \"#utility.yul\":3628:3635   */\n      dup5\n        /* \"#utility.yul\":3619:3625   */\n      dup3\n        /* \"#utility.yul\":3608:3617   */\n      dup6\n        /* \"#utility.yul\":3604:3626   */\n      add\n        /* \"#utility.yul\":3561:3636   */\n      tag_391\n      jump\t// in\n    tag_496:\n        /* \"#utility.yul\":3551:3636   */\n      swap2\n      pop\n        /* \"#utility.yul\":3507:3646   */\n      pop\n        /* \"#utility.yul\":3280:3653   */\n      swap3\n      swap2\n      pop\n      pop\n      jump\t// out\n        /* \"#utility.yul\":3659:3991   */\n    tag_68:\n        /* \"#utility.yul\":3780:3784   */\n      0x00\n        /* \"#utility.yul\":3818:3820   */\n      0x40\n        /* \"#utility.yul\":3807:3816   */\n      dup3\n        /* \"#utility.yul\":3803:3821   */\n      add\n        /* \"#utility.yul\":3795:3821   */\n      swap1\n      pop\n        /* \"#utility.yul\":3831:3902   */\n      tag_498\n        /* \"#utility.yul\":3899:3900   */\n      0x00\n        /* \"#utility.yul\":3888:3897   */\n      dup4\n        /* \"#utility.yul\":3884:3901   */\n      add\n        /* \"#utility.yul\":3875:3881   */\n      dup6\n        /* \"#utility.yul\":3831:3902   */\n      tag_388\n      jump\t// in\n    tag_498:\n        /* \"#utility.yul\":3912:3984   */\n      tag_499\n        /* \"#utility.yul\":3980:3982   */\n      0x20\n        /* \"#utility.yul\":3969:3978   */\n      dup4\n        /* \"#utility.yul\":3965:3983   */\n      add\n        /* \"#utility.yul\":3956:3962   */\n      dup5\n        /* \"#utility.yul\":3912:3984   */\n      tag_388\n      jump\t// in\n    tag_499:\n        /* \"#utility.yul\":3659:3991   */\n      swap4\n      swap3\n      pop\n      pop\n      pop\n      jump\t// out\n        /* \"#utility.yul\":3997:4074   */\n    tag_392:\n        /* \"#utility.yul\":4034:4041   */\n      0x00\n        /* \"#utility.yul\":4063:4068   */\n      dup2\n        /* \"#utility.yul\":4052:4068   */\n      swap1\n      pop\n        /* \"#utility.yul\":3997:4074   */\n      swap2\n      swap1\n      pop\n      jump\t// out\n        /* \"#utility.yul\":4080:4202   */\n    tag_393:\n        /* \"#utility.yul\":4153:4177   */\n      tag_502\n        /* \"#utility.yul\":4171:4176   */\n      dup2\n        /* \"#utility.yul\":4153:4177   */\n      tag_392\n      jump\t// in\n    tag_502:\n        /* \"#utility.yul\":4146:4151   */\n      dup2\n        /* \"#utility.yul\":4143:4178   */\n      eq\n        /* \"#utility.yul\":4133:4196   */\n      tag_503\n      jumpi\n        /* \"#utility.yul\":4192:4193   */\n      0x00\n        /* \"#utility.yul\":4189:4190   */\n      dup1\n        /* \"#utility.yul\":4182:4194   */\n      revert\n        /* \"#utility.yul\":4133:4196   */\n    tag_503:\n        /* \"#utility.yul\":4080:4202   */\n      pop\n      jump\t// out\n        /* \"#utility.yul\":4208:4347   */\n    tag_394:\n        /* \"#utility.yul\":4254:4259   */\n      0x00\n        /* \"#utility.yul\":4292:4298   */\n      dup2\n        /* \"#utility.yul\":4279:4299   */\n      calldataload\n        /* \"#utility.yul\":4270:4299   */\n      swap1\n      pop\n        /* \"#utility.yul\":4308:4341   */\n      tag_505\n        /* \"#utility.yul\":4335:4340   */\n      dup2\n        /* \"#utility.yul\":4308:4341   */\n      tag_393\n      jump\t// in\n    tag_505:\n        /* \"#utility.yul\":4208:4347   */\n      swap3\n      swap2\n      pop\n      pop\n      jump\t// out\n        /* \"#utility.yul\":4353:4682   */\n    tag_71:\n        /* \"#utility.yul\":4412:4418   */\n      0x00\n        /* \"#utility.yul\":4461:4463   */\n      0x20\n        /* \"#utility.yul\":4449:4458   */\n      dup3\n        /* \"#utility.yul\":4440:4447   */\n      dup5\n        /* \"#utility.yul\":4436:4459   */\n      sub\n        /* \"#utility.yul\":4432:4464   */\n      slt\n        /* \"#utility.yul\":4429:4548   */\n      iszero\n      tag_507\n      jumpi\n        /* \"#utility.yul\":4467:4546   */\n      tag_508\n      tag_376\n      jump\t// in\n    tag_508:\n        /* \"#utility.yul\":4429:4548   */\n    tag_507:\n        /* \"#utility.yul\":4587:4588   */\n      0x00\n        /* \"#utility.yul\":4612:4665   */\n      tag_509\n        /* \"#utility.yul\":4657:4664   */\n      dup5\n        /* \"#utility.yul\":4648:4654   */\n      dup3\n        /* \"#utility.yul\":4637:4646   */\n      dup6\n        /* \"#utility.yul\":4633:4655   */\n      add\n        /* \"#utility.yul\":4612:4665   */\n      tag_394\n      jump\t// in\n    tag_509:\n        /* \"#utility.yul\":4602:4665   */\n      swap2\n      pop\n        /* \"#utility.yul\":4558:4675   */\n      pop\n        /* \"#utility.yul\":4353:4682   */\n      swap3\n      swap2\n      pop\n      pop\n      jump\t// out\n        /* \"#utility.yul\":4688:4806   */\n    tag_395:\n        /* \"#utility.yul\":4775:4799   */\n      tag_511\n        /* \"#utility.yul\":4793:4798   */\n      dup2\n        /* \"#utility.yul\":4775:4799   */\n      tag_392\n      jump\t// in\n    tag_511:\n        /* \"#utility.yul\":4770:4773   */\n      dup3\n        /* \"#utility.yul\":4763:4800   */\n      mstore\n        /* \"#utility.yul\":4688:4806   */\n      pop\n      pop\n      jump\t// out\n        /* \"#utility.yul\":4812:5034   */\n    tag_74:\n        /* \"#utility.yul\":4905:4909   */\n      0x00\n        /* \"#utility.yul\":4943:4945   */\n      0x20\n        /* \"#utility.yul\":4932:4941   */\n      dup3\n        /* \"#utility.yul\":4928:4946   */\n      add\n        /* \"#utility.yul\":4920:4946   */\n      swap1\n      pop\n        /* \"#utility.yul\":4956:5027   */\n      tag_513\n        /* \"#utility.yul\":5024:5025   */\n      0x00\n        /* \"#utility.yul\":5013:5022   */\n      dup4\n        /* \"#utility.yul\":5009:5026   */\n      add\n        /* \"#utility.yul\":5000:5006   */\n      dup5\n        /* \"#utility.yul\":4956:5027   */\n      tag_395\n      jump\t// in\n    tag_513:\n        /* \"#utility.yul\":4812:5034   */\n      swap3\n      swap2\n      pop\n      pop\n      jump\t// out\n        /* \"#utility.yul\":5040:5162   */\n    tag_396:\n        /* \"#utility.yul\":5113:5137   */\n      tag_515\n        /* \"#utility.yul\":5131:5136   */\n      dup2\n        /* \"#utility.yul\":5113:5137   */\n      tag_387\n      jump\t// in\n    tag_515:\n        /* \"#utility.yul\":5106:5111   */\n      dup2\n        /* \"#utility.yul\":5103:5138   */\n      eq\n        /* \"#utility.yul\":5093:5156   */\n      tag_516\n      jumpi\n        /* \"#utility.yul\":5152:5153   */\n      0x00\n        /* \"#utility.yul\":5149:5150   */\n      dup1\n        /* \"#utility.yul\":5142:5154   */\n      revert\n        /* \"#utility.yul\":5093:5156   */\n    tag_516:\n        /* \"#utility.yul\":5040:5162   */\n      pop\n      jump\t// out\n        /* \"#utility.yul\":5168:5307   */\n    tag_397:\n        /* \"#utility.yul\":5214:5219   */\n      0x00\n        /* \"#utility.yul\":5252:5258   */\n      dup2\n        /* \"#utility.yul\":5239:5259   */\n      calldataload\n        /* \"#utility.yul\":5230:5259   */\n      swap1\n      pop\n        /* \"#utility.yul\":5268:5301   */\n      tag_518\n        /* \"#utility.yul\":5295:5300   */\n      dup2\n        /* \"#utility.yul\":5268:5301   */\n      tag_396\n      jump\t// in\n    tag_518:\n        /* \"#utility.yul\":5168:5307   */\n      swap3\n      swap2\n      pop\n      pop\n      jump\t// out\n        /* \"#utility.yul\":5313:5642   */\n    tag_77:\n        /* \"#utility.yul\":5372:5378   */\n      0x00\n        /* \"#utility.yul\":5421:5423   */\n      0x20\n        /* \"#utility.yul\":5409:5418   */\n      dup3\n        /* \"#utility.yul\":5400:5407   */\n      dup5\n        /* \"#utility.yul\":5396:5419   */\n      sub\n        /* \"#utility.yul\":5392:5424   */\n      slt\n        /* \"#utility.yul\":5389:5508   */\n      iszero\n      tag_520\n      jumpi\n        /* \"#utility.yul\":5427:5506   */\n      tag_521\n      tag_376\n      jump\t// in\n    tag_521:\n        /* \"#utility.yul\":5389:5508   */\n    tag_520:\n        /* \"#utility.yul\":5547:5548   */\n      0x00\n        /* \"#utility.yul\":5572:5625   */\n      tag_522\n        /* \"#utility.yul\":5617:5624   */\n      dup5\n        /* \"#utility.yul\":5608:5614   */\n      dup3\n        /* \"#utility.yul\":5597:5606   */\n      dup6\n        /* \"#utility.yul\":5593:5615   */\n      add\n        /* \"#utility.yul\":5572:5625   */\n      tag_397\n      jump\t// in\n    tag_522:\n        /* \"#utility.yul\":5562:5625   */\n      swap2\n      pop\n        /* \"#utility.yul\":5518:5635   */\n      pop\n        /* \"#utility.yul\":5313:5642   */\n      swap3\n      swap2\n      pop\n      pop\n      jump\t// out\n        /* \"#utility.yul\":5648:6122   */\n    tag_84:\n        /* \"#utility.yul\":5716:5722   */\n      0x00\n        /* \"#utility.yul\":5724:5730   */\n      dup1\n        /* \"#utility.yul\":5773:5775   */\n      0x40\n        /* \"#utility.yul\":5761:5770   */\n      dup4\n        /* \"#utility.yul\":5752:5759   */\n      dup6\n        /* \"#utility.yul\":5748:5771   */\n      sub\n        /* \"#utility.yul\":5744:5776   */\n      slt\n        /* \"#utility.yul\":5741:5860   */\n      iszero\n      tag_524\n      jumpi\n        /* \"#utility.yul\":5779:5858   */\n      tag_525\n      tag_376\n      jump\t// in\n    tag_525:\n        /* \"#utility.yul\":5741:5860   */\n    tag_524:\n        /* \"#utility.yul\":5899:5900   */\n      0x00\n        /* \"#utility.yul\":5924:5977   */\n      tag_526\n        /* \"#utility.yul\":5969:5976   */\n      dup6\n        /* \"#utility.yul\":5960:5966   */\n      dup3\n        /* \"#utility.yul\":5949:5958   */\n      dup7\n        /* \"#utility.yul\":5945:5967   */\n      add\n        /* \"#utility.yul\":5924:5977   */\n      tag_394\n      jump\t// in\n    tag_526:\n        /* \"#utility.yul\":5914:5977   */\n      swap3\n      pop\n        /* \"#utility.yul\":5870:5987   */\n      pop\n        /* \"#utility.yul\":6026:6028   */\n      0x20\n        /* \"#utility.yul\":6052:6105   */\n      tag_527\n        /* \"#utility.yul\":6097:6104   */\n      dup6\n        /* \"#utility.yul\":6088:6094   */\n      dup3\n        /* \"#utility.yul\":6077:6086   */\n      dup7\n        /* \"#utility.yul\":6073:6095   */\n      add\n        /* \"#utility.yul\":6052:6105   */\n      tag_386\n      jump\t// in\n    tag_527:\n        /* \"#utility.yul\":6042:6105   */\n      swap2\n      pop\n        /* \"#utility.yul\":5997:6115   */\n      pop\n        /* \"#utility.yul\":5648:6122   */\n      swap3\n      pop\n      swap3\n      swap1\n      pop\n      jump\t// out\n        /* \"#utility.yul\":6128:6238   */\n    tag_398:\n        /* \"#utility.yul\":6179:6186   */\n      0x00\n        /* \"#utility.yul\":6208:6232   */\n      tag_529\n        /* \"#utility.yul\":6226:6231   */\n      dup3\n        /* \"#utility.yul\":6208:6232   */\n      tag_384\n      jump\t// in\n    tag_529:\n        /* \"#utility.yul\":6197:6232   */\n      swap1\n      pop\n        /* \"#utility.yul\":6128:6238   */\n      swap2\n      swap1\n      pop\n      jump\t// out\n        /* \"#utility.yul\":6244:6394   */\n    tag_399:\n        /* \"#utility.yul\":6331:6369   */\n      tag_531\n        /* \"#utility.yul\":6363:6368   */\n      dup2\n        /* \"#utility.yul\":6331:6369   */\n      tag_398\n      jump\t// in\n    tag_531:\n        /* \"#utility.yul\":6324:6329   */\n      dup2\n        /* \"#utility.yul\":6321:6370   */\n      eq\n        /* \"#utility.yul\":6311:6388   */\n      tag_532\n      jumpi\n        /* \"#utility.yul\":6384:6385   */\n      0x00\n        /* \"#utility.yul\":6381:6382   */\n      dup1\n        /* \"#utility.yul\":6374:6386   */\n      revert\n        /* \"#utility.yul\":6311:6388   */\n    tag_532:\n        /* \"#utility.yul\":6244:6394   */\n      pop\n      jump\t// out\n        /* \"#utility.yul\":6400:6567   */\n    tag_400:\n        /* \"#utility.yul\":6460:6465   */\n      0x00\n        /* \"#utility.yul\":6498:6504   */\n      dup2\n        /* \"#utility.yul\":6485:6505   */\n      calldataload\n        /* \"#utility.yul\":6476:6505   */\n      swap1\n      pop\n        /* \"#utility.yul\":6514:6561   */\n      tag_534\n        /* \"#utility.yul\":6555:6560   */\n      dup2\n        /* \"#utility.yul\":6514:6561   */\n      tag_399\n      jump\t// in\n    tag_534:\n        /* \"#utility.yul\":6400:6567   */\n      swap3\n      swap2\n      pop\n      pop\n      jump\t// out\n        /* \"#utility.yul\":6573:7220   */\n    tag_93:\n        /* \"#utility.yul\":6664:6670   */\n      0x00\n        /* \"#utility.yul\":6672:6678   */\n      dup1\n        /* \"#utility.yul\":6680:6686   */\n      0x00\n        /* \"#utility.yul\":6729:6731   */\n      0x60\n        /* \"#utility.yul\":6717:6726   */\n      dup5\n        /* \"#utility.yul\":6708:6715   */\n      dup7\n        /* \"#utility.yul\":6704:6727   */\n      sub\n        /* \"#utility.yul\":6700:6732   */\n      slt\n        /* \"#utility.yul\":6697:6816   */\n      iszero\n      tag_536\n      jumpi\n        /* \"#utility.yul\":6735:6814   */\n      tag_537\n      tag_376\n      jump\t// in\n    tag_537:\n        /* \"#utility.yul\":6697:6816   */\n    tag_536:\n        /* \"#utility.yul\":6855:6856   */\n      0x00\n        /* \"#utility.yul\":6880:6947   */\n      tag_538\n        /* \"#utility.yul\":6939:6946   */\n      dup7\n        /* \"#utility.yul\":6930:6936   */\n      dup3\n        /* \"#utility.yul\":6919:6928   */\n      dup8\n        /* \"#utility.yul\":6915:6937   */\n      add\n        /* \"#utility.yul\":6880:6947   */\n      tag_400\n      jump\t// in\n    tag_538:\n        /* \"#utility.yul\":6870:6947   */\n      swap4\n      pop\n        /* \"#utility.yul\":6826:6957   */\n      pop\n        /* \"#utility.yul\":6996:6998   */\n      0x20\n        /* \"#utility.yul\":7022:7075   */\n      tag_539\n        /* \"#utility.yul\":7067:7074   */\n      dup7\n        /* \"#utility.yul\":7058:7064   */\n      dup3\n        /* \"#utility.yul\":7047:7056   */\n      dup8\n        /* \"#utility.yul\":7043:7065   */\n      add\n        /* \"#utility.yul\":7022:7075   */\n      tag_386\n      jump\t// in\n    tag_539:\n        /* \"#utility.yul\":7012:7075   */\n      swap3\n      pop\n        /* \"#utility.yul\":6967:7085   */\n      pop\n        /* \"#utility.yul\":7124:7126   */\n      0x40\n        /* \"#utility.yul\":7150:7203   */\n      tag_540\n        /* \"#utility.yul\":7195:7202   */\n      dup7\n        /* \"#utility.yul\":7186:7192   */\n      dup3\n        /* \"#utility.yul\":7175:7184   */\n      dup8\n        /* \"#utility.yul\":7171:7193   */\n      add\n        /* \"#utility.yul\":7150:7203   */\n      tag_397\n      jump\t// in\n    tag_540:\n        /* \"#utility.yul\":7140:7203   */\n      swap2\n      pop\n        /* \"#utility.yul\":7095:7213   */\n      pop\n        /* \"#utility.yul\":6573:7220   */\n      swap3\n      pop\n      swap3\n      pop\n      swap3\n      jump\t// out\n        /* \"#utility.yul\":7226:7286   */\n    tag_401:\n        /* \"#utility.yul\":7254:7257   */\n      0x00\n        /* \"#utility.yul\":7275:7280   */\n      dup2\n        /* \"#utility.yul\":7268:7280   */\n      swap1\n      pop\n        /* \"#utility.yul\":7226:7286   */\n      swap2\n      swap1\n      pop\n      jump\t// out\n        /* \"#utility.yul\":7292:7434   */\n    tag_402:\n        /* \"#utility.yul\":7342:7351   */\n      0x00\n        /* \"#utility.yul\":7375:7428   */\n      tag_543\n        /* \"#utility.yul\":7393:7427   */\n      tag_544\n        /* \"#utility.yul\":7402:7426   */\n      tag_545\n        /* \"#utility.yul\":7420:7425   */\n      dup5\n        /* \"#utility.yul\":7402:7426   */\n      tag_383\n      jump\t// in\n    tag_545:\n        /* \"#utility.yul\":7393:7427   */\n      tag_401\n      jump\t// in\n    tag_544:\n        /* \"#utility.yul\":7375:7428   */\n      tag_383\n      jump\t// in\n    tag_543:\n        /* \"#utility.yul\":7362:7428   */\n      swap1\n      pop\n        /* \"#utility.yul\":7292:7434   */\n      swap2\n      swap1\n      pop\n      jump\t// out\n        /* \"#utility.yul\":7440:7566   */\n    tag_403:\n        /* \"#utility.yul\":7490:7499   */\n      0x00\n        /* \"#utility.yul\":7523:7560   */\n      tag_547\n        /* \"#utility.yul\":7554:7559   */\n      dup3\n        /* \"#utility.yul\":7523:7560   */\n      tag_402\n      jump\t// in\n    tag_547:\n        /* \"#utility.yul\":7510:7560   */\n      swap1\n      pop\n        /* \"#utility.yul\":7440:7566   */\n      swap2\n      swap1\n      pop\n      jump\t// out\n        /* \"#utility.yul\":7572:7713   */\n    tag_404:\n        /* \"#utility.yul\":7637:7646   */\n      0x00\n        /* \"#utility.yul\":7670:7707   */\n      tag_549\n        /* \"#utility.yul\":7701:7706   */\n      dup3\n        /* \"#utility.yul\":7670:7707   */\n      tag_403\n      jump\t// in\n    tag_549:\n        /* \"#utility.yul\":7657:7707   */\n      swap1\n      pop\n        /* \"#utility.yul\":7572:7713   */\n      swap2\n      swap1\n      pop\n      jump\t// out\n        /* \"#utility.yul\":7719:7880   */\n    tag_405:\n        /* \"#utility.yul\":7821:7873   */\n      tag_551\n        /* \"#utility.yul\":7867:7872   */\n      dup2\n        /* \"#utility.yul\":7821:7873   */\n      tag_404\n      jump\t// in\n    tag_551:\n        /* \"#utility.yul\":7816:7819   */\n      dup3\n        /* \"#utility.yul\":7809:7874   */\n      mstore\n        /* \"#utility.yul\":7719:7880   */\n      pop\n      pop\n      jump\t// out\n        /* \"#utility.yul\":7886:8138   */\n    tag_98:\n        /* \"#utility.yul\":7994:7998   */\n      0x00\n        /* \"#utility.yul\":8032:8034   */\n      0x20\n        /* \"#utility.yul\":8021:8030   */\n      dup3\n        /* \"#utility.yul\":8017:8035   */\n      add\n        /* \"#utility.yul\":8009:8035   */\n      swap1\n      pop\n        /* \"#utility.yul\":8045:8131   */\n      tag_553\n        /* \"#utility.yul\":8128:8129   */\n      0x00\n        /* \"#utility.yul\":8117:8126   */\n      dup4\n        /* \"#utility.yul\":8113:8130   */\n      add\n        /* \"#utility.yul\":8104:8110   */\n      dup5\n        /* \"#utility.yul\":8045:8131   */\n      tag_405\n      jump\t// in\n    tag_553:\n        /* \"#utility.yul\":7886:8138   */\n      swap3\n      swap2\n      pop\n      pop\n      jump\t// out\n        /* \"#utility.yul\":8144:8248   */\n    tag_406:\n        /* \"#utility.yul\":8189:8196   */\n      0x00\n        /* \"#utility.yul\":8218:8242   */\n      tag_555\n        /* \"#utility.yul\":8236:8241   */\n      dup3\n        /* \"#utility.yul\":8218:8242   */\n      tag_383\n      jump\t// in\n    tag_555:\n        /* \"#utility.yul\":8207:8242   */\n      swap1\n      pop\n        /* \"#utility.yul\":8144:8248   */\n      swap2\n      swap1\n      pop\n      jump\t// out\n        /* \"#utility.yul\":8254:8392   */\n    tag_407:\n        /* \"#utility.yul\":8335:8367   */\n      tag_557\n        /* \"#utility.yul\":8361:8366   */\n      dup2\n        /* \"#utility.yul\":8335:8367   */\n      tag_406\n      jump\t// in\n    tag_557:\n        /* \"#utility.yul\":8328:8333   */\n      dup2\n        /* \"#utility.yul\":8325:8368   */\n      eq\n        /* \"#utility.yul\":8315:8386   */\n      tag_558\n      jumpi\n        /* \"#utility.yul\":8382:8383   */\n      0x00\n        /* \"#utility.yul\":8379:8380   */\n      dup1\n        /* \"#utility.yul\":8372:8384   */\n      revert\n        /* \"#utility.yul\":8315:8386   */\n    tag_558:\n        /* \"#utility.yul\":8254:8392   */\n      pop\n      jump\t// out\n        /* \"#utility.yul\":8398:8553   */\n    tag_408:\n        /* \"#utility.yul\":8452:8457   */\n      0x00\n        /* \"#utility.yul\":8490:8496   */\n      dup2\n        /* \"#utility.yul\":8477:8497   */\n      calldataload\n        /* \"#utility.yul\":8468:8497   */\n      swap1\n      pop\n        /* \"#utility.yul\":8506:8547   */\n      tag_560\n        /* \"#utility.yul\":8541:8546   */\n      dup2\n        /* \"#utility.yul\":8506:8547   */\n      tag_407\n      jump\t// in\n    tag_560:\n        /* \"#utility.yul\":8398:8553   */\n      swap3\n      swap2\n      pop\n      pop\n      jump\t// out\n        /* \"#utility.yul\":8559:9049   */\n    tag_101:\n        /* \"#utility.yul\":8635:8641   */\n      0x00\n        /* \"#utility.yul\":8643:8649   */\n      dup1\n        /* \"#utility.yul\":8692:8694   */\n      0x40\n        /* \"#utility.yul\":8680:8689   */\n      dup4\n        /* \"#utility.yul\":8671:8678   */\n      dup6\n        /* \"#utility.yul\":8667:8690   */\n      sub\n        /* \"#utility.yul\":8663:8695   */\n      slt\n        /* \"#utility.yul\":8660:8779   */\n      iszero\n      tag_562\n      jumpi\n        /* \"#utility.yul\":8698:8777   */\n      tag_563\n      tag_376\n      jump\t// in\n    tag_563:\n        /* \"#utility.yul\":8660:8779   */\n    tag_562:\n        /* \"#utility.yul\":8818:8819   */\n      0x00\n        /* \"#utility.yul\":8843:8904   */\n      tag_564\n        /* \"#utility.yul\":8896:8903   */\n      dup6\n        /* \"#utility.yul\":8887:8893   */\n      dup3\n        /* \"#utility.yul\":8876:8885   */\n      dup7\n        /* \"#utility.yul\":8872:8894   */\n      add\n        /* \"#utility.yul\":8843:8904   */\n      tag_408\n      jump\t// in\n    tag_564:\n        /* \"#utility.yul\":8833:8904   */\n      swap3\n      pop\n        /* \"#utility.yul\":8789:8914   */\n      pop\n        /* \"#utility.yul\":8953:8955   */\n      0x20\n        /* \"#utility.yul\":8979:9032   */\n      tag_565\n        /* \"#utility.yul\":9024:9031   */\n      dup6\n        /* \"#utility.yul\":9015:9021   */\n      dup3\n        /* \"#utility.yul\":9004:9013   */\n      dup7\n        /* \"#utility.yul\":9000:9022   */\n      add\n        /* \"#utility.yul\":8979:9032   */\n      tag_397\n      jump\t// in\n    tag_565:\n        /* \"#utility.yul\":8969:9032   */\n      swap2\n      pop\n        /* \"#utility.yul\":8924:9042   */\n      pop\n        /* \"#utility.yul\":8559:9049   */\n      swap3\n      pop\n      swap3\n      swap1\n      pop\n      jump\t// out\n        /* \"#utility.yul\":9055:9197   */\n    tag_409:\n        /* \"#utility.yul\":9121:9130   */\n      0x00\n        /* \"#utility.yul\":9154:9191   */\n      tag_567\n        /* \"#utility.yul\":9185:9190   */\n      dup3\n        /* \"#utility.yul\":9154:9191   */\n      tag_403\n      jump\t// in\n    tag_567:\n        /* \"#utility.yul\":9141:9191   */\n      swap1\n      pop\n        /* \"#utility.yul\":9055:9197   */\n      swap2\n      swap1\n      pop\n      jump\t// out\n        /* \"#utility.yul\":9203:9366   */\n    tag_410:\n        /* \"#utility.yul\":9306:9359   */\n      tag_569\n        /* \"#utility.yul\":9353:9358   */\n      dup2\n        /* \"#utility.yul\":9306:9359   */\n      tag_409\n      jump\t// in\n    tag_569:\n        /* \"#utility.yul\":9301:9304   */\n      dup3\n        /* \"#utility.yul\":9294:9360   */\n      mstore\n        /* \"#utility.yul\":9203:9366   */\n      pop\n      pop\n      jump\t// out\n        /* \"#utility.yul\":9372:9626   */\n    tag_138:\n        /* \"#utility.yul\":9481:9485   */\n      0x00\n        /* \"#utility.yul\":9519:9521   */\n      0x20\n        /* \"#utility.yul\":9508:9517   */\n      dup3\n        /* \"#utility.yul\":9504:9522   */\n      add\n        /* \"#utility.yul\":9496:9522   */\n      swap1\n      pop\n        /* \"#utility.yul\":9532:9619   */\n      tag_571\n        /* \"#utility.yul\":9616:9617   */\n      0x00\n        /* \"#utility.yul\":9605:9614   */\n      dup4\n        /* \"#utility.yul\":9601:9618   */\n      add\n        /* \"#utility.yul\":9592:9598   */\n      dup5\n        /* \"#utility.yul\":9532:9619   */\n      tag_410\n      jump\t// in\n    tag_571:\n        /* \"#utility.yul\":9372:9626   */\n      swap3\n      swap2\n      pop\n      pop\n      jump\t// out\n        /* \"#utility.yul\":9632:9743   */\n    tag_411:\n        /* \"#utility.yul\":9684:9691   */\n      0x00\n        /* \"#utility.yul\":9713:9737   */\n      tag_573\n        /* \"#utility.yul\":9731:9736   */\n      dup3\n        /* \"#utility.yul\":9713:9737   */\n      tag_384\n      jump\t// in\n    tag_573:\n        /* \"#utility.yul\":9702:9737   */\n      swap1\n      pop\n        /* \"#utility.yul\":9632:9743   */\n      swap2\n      swap1\n      pop\n      jump\t// out\n        /* \"#utility.yul\":9749:9901   */\n    tag_412:\n        /* \"#utility.yul\":9837:9876   */\n      tag_575\n        /* \"#utility.yul\":9870:9875   */\n      dup2\n        /* \"#utility.yul\":9837:9876   */\n      tag_411\n      jump\t// in\n    tag_575:\n        /* \"#utility.yul\":9830:9835   */\n      dup2\n        /* \"#utility.yul\":9827:9877   */\n      eq\n        /* \"#utility.yul\":9817:9895   */\n      tag_576\n      jumpi\n        /* \"#utility.yul\":9891:9892   */\n      0x00\n        /* \"#utility.yul\":9888:9889   */\n      dup1\n        /* \"#utility.yul\":9881:9893   */\n      revert\n        /* \"#utility.yul\":9817:9895   */\n    tag_576:\n        /* \"#utility.yul\":9749:9901   */\n      pop\n      jump\t// out\n        /* \"#utility.yul\":9907:10076   */\n    tag_413:\n        /* \"#utility.yul\":9968:9973   */\n      0x00\n        /* \"#utility.yul\":10006:10012   */\n      dup2\n        /* \"#utility.yul\":9993:10013   */\n      calldataload\n        /* \"#utility.yul\":9984:10013   */\n      swap1\n      pop\n        /* \"#utility.yul\":10022:10070   */\n      tag_578\n        /* \"#utility.yul\":10064:10069   */\n      dup2\n        /* \"#utility.yul\":10022:10070   */\n      tag_412\n      jump\t// in\n    tag_578:\n        /* \"#utility.yul\":9907:10076   */\n      swap3\n      swap2\n      pop\n      pop\n      jump\t// out\n        /* \"#utility.yul\":10082:10441   */\n    tag_150:\n        /* \"#utility.yul\":10156:10162   */\n      0x00\n        /* \"#utility.yul\":10205:10207   */\n      0x20\n        /* \"#utility.yul\":10193:10202   */\n      dup3\n        /* \"#utility.yul\":10184:10191   */\n      dup5\n        /* \"#utility.yul\":10180:10203   */\n      sub\n        /* \"#utility.yul\":10176:10208   */\n      slt\n        /* \"#utility.yul\":10173:10292   */\n      iszero\n      tag_580\n      jumpi\n        /* \"#utility.yul\":10211:10290   */\n      tag_581\n      tag_376\n      jump\t// in\n    tag_581:\n        /* \"#utility.yul\":10173:10292   */\n    tag_580:\n        /* \"#utility.yul\":10331:10332   */\n      0x00\n        /* \"#utility.yul\":10356:10424   */\n      tag_582\n        /* \"#utility.yul\":10416:10423   */\n      dup5\n        /* \"#utility.yul\":10407:10413   */\n      dup3\n        /* \"#utility.yul\":10396:10405   */\n      dup6\n        /* \"#utility.yul\":10392:10414   */\n      add\n        /* \"#utility.yul\":10356:10424   */\n      tag_413\n      jump\t// in\n    tag_582:\n        /* \"#utility.yul\":10346:10424   */\n      swap2\n      pop\n        /* \"#utility.yul\":10302:10434   */\n      pop\n        /* \"#utility.yul\":10082:10441   */\n      swap3\n      swap2\n      pop\n      pop\n      jump\t// out\n        /* \"#utility.yul\":10447:10595   */\n    tag_414:\n        /* \"#utility.yul\":10519:10528   */\n      0x00\n        /* \"#utility.yul\":10552:10589   */\n      tag_584\n        /* \"#utility.yul\":10583:10588   */\n      dup3\n        /* \"#utility.yul\":10552:10589   */\n      tag_403\n      jump\t// in\n    tag_584:\n        /* \"#utility.yul\":10539:10589   */\n      swap1\n      pop\n        /* \"#utility.yul\":10447:10595   */\n      swap2\n      swap1\n      pop\n      jump\t// out\n        /* \"#utility.yul\":10601:10776   */\n    tag_415:\n        /* \"#utility.yul\":10710:10769   */\n      tag_586\n        /* \"#utility.yul\":10763:10768   */\n      dup2\n        /* \"#utility.yul\":10710:10769   */\n      tag_414\n      jump\t// in\n    tag_586:\n        /* \"#utility.yul\":10705:10708   */\n      dup3\n        /* \"#utility.yul\":10698:10770   */\n      mstore\n        /* \"#utility.yul\":10601:10776   */\n      pop\n      pop\n      jump\t// out\n        /* \"#utility.yul\":10782:11048   */\n    tag_155:\n        /* \"#utility.yul\":10897:10901   */\n      0x00\n        /* \"#utility.yul\":10935:10937   */\n      0x20\n        /* \"#utility.yul\":10924:10933   */\n      dup3\n        /* \"#utility.yul\":10920:10938   */\n      add\n        /* \"#utility.yul\":10912:10938   */\n      swap1\n      pop\n        /* \"#utility.yul\":10948:11041   */\n      tag_588\n        /* \"#utility.yul\":11038:11039   */\n      0x00\n        /* \"#utility.yul\":11027:11036   */\n      dup4\n        /* \"#utility.yul\":11023:11040   */\n      add\n        /* \"#utility.yul\":11014:11020   */\n      dup5\n        /* \"#utility.yul\":10948:11041   */\n      tag_415\n      jump\t// in\n    tag_588:\n        /* \"#utility.yul\":10782:11048   */\n      swap3\n      swap2\n      pop\n      pop\n      jump\t// out\n        /* \"#utility.yul\":11054:11496   */\n    tag_159:\n        /* \"#utility.yul\":11203:11207   */\n      0x00\n        /* \"#utility.yul\":11241:11243   */\n      0x60\n        /* \"#utility.yul\":11230:11239   */\n      dup3\n        /* \"#utility.yul\":11226:11244   */\n      add\n        /* \"#utility.yul\":11218:11244   */\n      swap1\n      pop\n        /* \"#utility.yul\":11254:11325   */\n      tag_590\n        /* \"#utility.yul\":11322:11323   */\n      0x00\n        /* \"#utility.yul\":11311:11320   */\n      dup4\n        /* \"#utility.yul\":11307:11324   */\n      add\n        /* \"#utility.yul\":11298:11304   */\n      dup7\n        /* \"#utility.yul\":11254:11325   */\n      tag_388\n      jump\t// in\n    tag_590:\n        /* \"#utility.yul\":11335:11407   */\n      tag_591\n        /* \"#utility.yul\":11403:11405   */\n      0x20\n        /* \"#utility.yul\":11392:11401   */\n      dup4\n        /* \"#utility.yul\":11388:11406   */\n      add\n        /* \"#utility.yul\":11379:11385   */\n      dup6\n        /* \"#utility.yul\":11335:11407   */\n      tag_388\n      jump\t// in\n    tag_591:\n        /* \"#utility.yul\":11417:11489   */\n      tag_592\n        /* \"#utility.yul\":11485:11487   */\n      0x40\n        /* \"#utility.yul\":11474:11483   */\n      dup4\n        /* \"#utility.yul\":11470:11488   */\n      add\n        /* \"#utility.yul\":11461:11467   */\n      dup5\n        /* \"#utility.yul\":11417:11489   */\n      tag_388\n      jump\t// in\n    tag_592:\n        /* \"#utility.yul\":11054:11496   */\n      swap5\n      swap4\n      pop\n      pop\n      pop\n      pop\n      jump\t// out\n        /* \"#utility.yul\":11502:11671   */\n    tag_416:\n        /* \"#utility.yul\":11586:11597   */\n      0x00\n        /* \"#utility.yul\":11620:11626   */\n      dup3\n        /* \"#utility.yul\":11615:11618   */\n      dup3\n        /* \"#utility.yul\":11608:11627   */\n      mstore\n        /* \"#utility.yul\":11660:11664   */\n      0x20\n        /* \"#utility.yul\":11655:11658   */\n      dup3\n        /* \"#utility.yul\":11651:11665   */\n      add\n        /* \"#utility.yul\":11636:11665   */\n      swap1\n      pop\n        /* \"#utility.yul\":11502:11671   */\n      swap3\n      swap2\n      pop\n      pop\n      jump\t// out\n        /* \"#utility.yul\":11677:11839   */\n    tag_417:\n        /* \"#utility.yul\":11817:11831   */\n      0x4e6f204e4654204c6576656c0000000000000000000000000000000000000000\n        /* \"#utility.yul\":11813:11814   */\n      0x00\n        /* \"#utility.yul\":11805:11811   */\n      dup3\n        /* \"#utility.yul\":11801:11815   */\n      add\n        /* \"#utility.yul\":11794:11832   */\n      mstore\n        /* \"#utility.yul\":11677:11839   */\n      pop\n      jump\t// out\n        /* \"#utility.yul\":11845:12211   */\n    tag_418:\n        /* \"#utility.yul\":11987:11990   */\n      0x00\n        /* \"#utility.yul\":12008:12075   */\n      tag_596\n        /* \"#utility.yul\":12072:12074   */\n      0x0c\n        /* \"#utility.yul\":12067:12070   */\n      dup4\n        /* \"#utility.yul\":12008:12075   */\n      tag_416\n      jump\t// in\n    tag_596:\n        /* \"#utility.yul\":12001:12075   */\n      swap2\n      pop\n        /* \"#utility.yul\":12084:12177   */\n      tag_597\n        /* \"#utility.yul\":12173:12176   */\n      dup3\n        /* \"#utility.yul\":12084:12177   */\n      tag_417\n      jump\t// in\n    tag_597:\n        /* \"#utility.yul\":12202:12204   */\n      0x20\n        /* \"#utility.yul\":12197:12200   */\n      dup3\n        /* \"#utility.yul\":12193:12205   */\n      add\n        /* \"#utility.yul\":12186:12205   */\n      swap1\n      pop\n        /* \"#utility.yul\":11845:12211   */\n      swap2\n      swap1\n      pop\n      jump\t// out\n        /* \"#utility.yul\":12217:12636   */\n    tag_173:\n        /* \"#utility.yul\":12383:12387   */\n      0x00\n        /* \"#utility.yul\":12421:12423   */\n      0x20\n        /* \"#utility.yul\":12410:12419   */\n      dup3\n        /* \"#utility.yul\":12406:12424   */\n      add\n        /* \"#utility.yul\":12398:12424   */\n      swap1\n      pop\n        /* \"#utility.yul\":12470:12479   */\n      dup2\n        /* \"#utility.yul\":12464:12468   */\n      dup2\n        /* \"#utility.yul\":12460:12480   */\n      sub\n        /* \"#utility.yul\":12456:12457   */\n      0x00\n        /* \"#utility.yul\":12445:12454   */\n      dup4\n        /* \"#utility.yul\":12441:12458   */\n      add\n        /* \"#utility.yul\":12434:12481   */\n      mstore\n        /* \"#utility.yul\":12498:12629   */\n      tag_599\n        /* \"#utility.yul\":12624:12628   */\n      dup2\n        /* \"#utility.yul\":12498:12629   */\n      tag_418\n      jump\t// in\n    tag_599:\n        /* \"#utility.yul\":12490:12629   */\n      swap1\n      pop\n        /* \"#utility.yul\":12217:12636   */\n      swap2\n      swap1\n      pop\n      jump\t// out\n        /* \"#utility.yul\":12642:12822   */\n    tag_419:\n        /* \"#utility.yul\":12690:12767   */\n      0x4e487b7100000000000000000000000000000000000000000000000000000000\n        /* \"#utility.yul\":12687:12688   */\n      0x00\n        /* \"#utility.yul\":12680:12768   */\n      mstore\n        /* \"#utility.yul\":12787:12791   */\n      0x11\n        /* \"#utility.yul\":12784:12785   */\n      0x04\n        /* \"#utility.yul\":12777:12792   */\n      mstore\n        /* \"#utility.yul\":12811:12815   */\n      0x24\n        /* \"#utility.yul\":12808:12809   */\n      0x00\n        /* \"#utility.yul\":12801:12816   */\n      revert\n        /* \"#utility.yul\":12828:13022   */\n    tag_175:\n        /* \"#utility.yul\":12868:12872   */\n      0x00\n        /* \"#utility.yul\":12888:12908   */\n      tag_602\n        /* \"#utility.yul\":12906:12907   */\n      dup3\n        /* \"#utility.yul\":12888:12908   */\n      tag_387\n      jump\t// in\n    tag_602:\n        /* \"#utility.yul\":12883:12908   */\n      swap2\n      pop\n        /* \"#utility.yul\":12922:12942   */\n      tag_603\n        /* \"#utility.yul\":12940:12941   */\n      dup4\n        /* \"#utility.yul\":12922:12942   */\n      tag_387\n      jump\t// in\n    tag_603:\n        /* \"#utility.yul\":12917:12942   */\n      swap3\n      pop\n        /* \"#utility.yul\":12966:12967   */\n      dup3\n        /* \"#utility.yul\":12963:12964   */\n      dup3\n        /* \"#utility.yul\":12959:12968   */\n      sub\n        /* \"#utility.yul\":12951:12968   */\n      swap1\n      pop\n        /* \"#utility.yul\":12990:12991   */\n      dup2\n        /* \"#utility.yul\":12984:12988   */\n      dup2\n        /* \"#utility.yul\":12981:12992   */\n      gt\n        /* \"#utility.yul\":12978:13015   */\n      iszero\n      tag_604\n      jumpi\n        /* \"#utility.yul\":12995:13013   */\n      tag_605\n      tag_419\n      jump\t// in\n    tag_605:\n        /* \"#utility.yul\":12978:13015   */\n    tag_604:\n        /* \"#utility.yul\":12828:13022   */\n      swap3\n      swap2\n      pop\n      pop\n      jump\t// out\n        /* \"#utility.yul\":13028:13219   */\n    tag_177:\n        /* \"#utility.yul\":13068:13071   */\n      0x00\n        /* \"#utility.yul\":13087:13107   */\n      tag_607\n        /* \"#utility.yul\":13105:13106   */\n      dup3\n        /* \"#utility.yul\":13087:13107   */\n      tag_387\n      jump\t// in\n    tag_607:\n        /* \"#utility.yul\":13082:13107   */\n      swap2\n      pop\n        /* \"#utility.yul\":13121:13141   */\n      tag_608\n        /* \"#utility.yul\":13139:13140   */\n      dup4\n        /* \"#utility.yul\":13121:13141   */\n      tag_387\n      jump\t// in\n    tag_608:\n        /* \"#utility.yul\":13116:13141   */\n      swap3\n      pop\n        /* \"#utility.yul\":13164:13165   */\n      dup3\n        /* \"#utility.yul\":13161:13162   */\n      dup3\n        /* \"#utility.yul\":13157:13166   */\n      add\n        /* \"#utility.yul\":13150:13166   */\n      swap1\n      pop\n        /* \"#utility.yul\":13185:13188   */\n      dup1\n        /* \"#utility.yul\":13182:13183   */\n      dup3\n        /* \"#utility.yul\":13179:13189   */\n      gt\n        /* \"#utility.yul\":13176:13212   */\n      iszero\n      tag_609\n      jumpi\n        /* \"#utility.yul\":13192:13210   */\n      tag_610\n      tag_419\n      jump\t// in\n    tag_610:\n        /* \"#utility.yul\":13176:13212   */\n    tag_609:\n        /* \"#utility.yul\":13028:13219   */\n      swap3\n      swap2\n      pop\n      pop\n      jump\t// out\n        /* \"#utility.yul\":13225:13635   */\n    tag_179:\n        /* \"#utility.yul\":13265:13272   */\n      0x00\n        /* \"#utility.yul\":13288:13308   */\n      tag_612\n        /* \"#utility.yul\":13306:13307   */\n      dup3\n        /* \"#utility.yul\":13288:13308   */\n      tag_387\n      jump\t// in\n    tag_612:\n        /* \"#utility.yul\":13283:13308   */\n      swap2\n      pop\n        /* \"#utility.yul\":13322:13342   */\n      tag_613\n        /* \"#utility.yul\":13340:13341   */\n      dup4\n        /* \"#utility.yul\":13322:13342   */\n      tag_387\n      jump\t// in\n    tag_613:\n        /* \"#utility.yul\":13317:13342   */\n      swap3\n      pop\n        /* \"#utility.yul\":13377:13378   */\n      dup3\n        /* \"#utility.yul\":13374:13375   */\n      dup3\n        /* \"#utility.yul\":13370:13379   */\n      mul\n        /* \"#utility.yul\":13399:13429   */\n      tag_614\n        /* \"#utility.yul\":13417:13428   */\n      dup2\n        /* \"#utility.yul\":13399:13429   */\n      tag_387\n      jump\t// in\n    tag_614:\n        /* \"#utility.yul\":13388:13429   */\n      swap2\n      pop\n        /* \"#utility.yul\":13578:13579   */\n      dup3\n        /* \"#utility.yul\":13569:13576   */\n      dup3\n        /* \"#utility.yul\":13565:13580   */\n      div\n        /* \"#utility.yul\":13562:13563   */\n      dup5\n        /* \"#utility.yul\":13559:13581   */\n      eq\n        /* \"#utility.yul\":13539:13540   */\n      dup4\n        /* \"#utility.yul\":13532:13541   */\n      iszero\n        /* \"#utility.yul\":13512:13595   */\n      or\n        /* \"#utility.yul\":13489:13628   */\n      tag_615\n      jumpi\n        /* \"#utility.yul\":13608:13626   */\n      tag_616\n      tag_419\n      jump\t// in\n    tag_616:\n        /* \"#utility.yul\":13489:13628   */\n    tag_615:\n        /* \"#utility.yul\":13273:13635   */\n      pop\n        /* \"#utility.yul\":13225:13635   */\n      swap3\n      swap2\n      pop\n      pop\n      jump\t// out\n        /* \"#utility.yul\":13641:13759   */\n    tag_420:\n        /* \"#utility.yul\":13728:13752   */\n      tag_618\n        /* \"#utility.yul\":13746:13751   */\n      dup2\n        /* \"#utility.yul\":13728:13752   */\n      tag_384\n      jump\t// in\n    tag_618:\n        /* \"#utility.yul\":13723:13726   */\n      dup3\n        /* \"#utility.yul\":13716:13753   */\n      mstore\n        /* \"#utility.yul\":13641:13759   */\n      pop\n      pop\n      jump\t// out\n        /* \"#utility.yul\":13765:14097   */\n    tag_221:\n        /* \"#utility.yul\":13886:13890   */\n      0x00\n        /* \"#utility.yul\":13924:13926   */\n      0x40\n        /* \"#utility.yul\":13913:13922   */\n      dup3\n        /* \"#utility.yul\":13909:13927   */\n      add\n        /* \"#utility.yul\":13901:13927   */\n      swap1\n      pop\n        /* \"#utility.yul\":13937:14008   */\n      tag_620\n        /* \"#utility.yul\":14005:14006   */\n      0x00\n        /* \"#utility.yul\":13994:14003   */\n      dup4\n        /* \"#utility.yul\":13990:14007   */\n      add\n        /* \"#utility.yul\":13981:13987   */\n      dup6\n        /* \"#utility.yul\":13937:14008   */\n      tag_420\n      jump\t// in\n    tag_620:\n        /* \"#utility.yul\":14018:14090   */\n      tag_621\n        /* \"#utility.yul\":14086:14088   */\n      0x20\n        /* \"#utility.yul\":14075:14084   */\n      dup4\n        /* \"#utility.yul\":14071:14089   */\n      add\n        /* \"#utility.yul\":14062:14068   */\n      dup5\n        /* \"#utility.yul\":14018:14090   */\n      tag_388\n      jump\t// in\n    tag_621:\n        /* \"#utility.yul\":13765:14097   */\n      swap4\n      swap3\n      pop\n      pop\n      pop\n      jump\t// out\n        /* \"#utility.yul\":14103:14219   */\n    tag_421:\n        /* \"#utility.yul\":14173:14194   */\n      tag_623\n        /* \"#utility.yul\":14188:14193   */\n      dup2\n        /* \"#utility.yul\":14173:14194   */\n      tag_381\n      jump\t// in\n    tag_623:\n        /* \"#utility.yul\":14166:14171   */\n      dup2\n        /* \"#utility.yul\":14163:14195   */\n      eq\n        /* \"#utility.yul\":14153:14213   */\n      tag_624\n      jumpi\n        /* \"#utility.yul\":14209:14210   */\n      0x00\n        /* \"#utility.yul\":14206:14207   */\n      dup1\n        /* \"#utility.yul\":14199:14211   */\n      revert\n        /* \"#utility.yul\":14153:14213   */\n    tag_624:\n        /* \"#utility.yul\":14103:14219   */\n      pop\n      jump\t// out\n        /* \"#utility.yul\":14225:14362   */\n    tag_422:\n        /* \"#utility.yul\":14279:14284   */\n      0x00\n        /* \"#utility.yul\":14310:14316   */\n      dup2\n        /* \"#utility.yul\":14304:14317   */\n      mload\n        /* \"#utility.yul\":14295:14317   */\n      swap1\n      pop\n        /* \"#utility.yul\":14326:14356   */\n      tag_626\n        /* \"#utility.yul\":14350:14355   */\n      dup2\n        /* \"#utility.yul\":14326:14356   */\n      tag_421\n      jump\t// in\n    tag_626:\n        /* \"#utility.yul\":14225:14362   */\n      swap3\n      swap2\n      pop\n      pop\n      jump\t// out\n        /* \"#utility.yul\":14368:14713   */\n    tag_225:\n        /* \"#utility.yul\":14435:14441   */\n      0x00\n        /* \"#utility.yul\":14484:14486   */\n      0x20\n        /* \"#utility.yul\":14472:14481   */\n      dup3\n        /* \"#utility.yul\":14463:14470   */\n      dup5\n        /* \"#utility.yul\":14459:14482   */\n      sub\n        /* \"#utility.yul\":14455:14487   */\n      slt\n        /* \"#utility.yul\":14452:14571   */\n      iszero\n      tag_628\n      jumpi\n        /* \"#utility.yul\":14490:14569   */\n      tag_629\n      tag_376\n      jump\t// in\n    tag_629:\n        /* \"#utility.yul\":14452:14571   */\n    tag_628:\n        /* \"#utility.yul\":14610:14611   */\n      0x00\n        /* \"#utility.yul\":14635:14696   */\n      tag_630\n        /* \"#utility.yul\":14688:14695   */\n      dup5\n        /* \"#utility.yul\":14679:14685   */\n      dup3\n        /* \"#utility.yul\":14668:14677   */\n      dup6\n        /* \"#utility.yul\":14664:14686   */\n      add\n        /* \"#utility.yul\":14635:14696   */\n      tag_422\n      jump\t// in\n    tag_630:\n        /* \"#utility.yul\":14625:14696   */\n      swap2\n      pop\n        /* \"#utility.yul\":14581:14706   */\n      pop\n        /* \"#utility.yul\":14368:14713   */\n      swap3\n      swap2\n      pop\n      pop\n      jump\t// out\n        /* \"#utility.yul\":14719:14941   */\n    tag_238:\n        /* \"#utility.yul\":14812:14816   */\n      0x00\n        /* \"#utility.yul\":14850:14852   */\n      0x20\n        /* \"#utility.yul\":14839:14848   */\n      dup3\n        /* \"#utility.yul\":14835:14853   */\n      add\n        /* \"#utility.yul\":14827:14853   */\n      swap1\n      pop\n        /* \"#utility.yul\":14863:14934   */\n      tag_632\n        /* \"#utility.yul\":14931:14932   */\n      0x00\n        /* \"#utility.yul\":14920:14929   */\n      dup4\n        /* \"#utility.yul\":14916:14933   */\n      add\n        /* \"#utility.yul\":14907:14913   */\n      dup5\n        /* \"#utility.yul\":14863:14934   */\n      tag_420\n      jump\t// in\n    tag_632:\n        /* \"#utility.yul\":14719:14941   */\n      swap3\n      swap2\n      pop\n      pop\n      jump\t// out\n        /* \"#utility.yul\":14947:15090   */\n    tag_423:\n        /* \"#utility.yul\":15004:15009   */\n      0x00\n        /* \"#utility.yul\":15035:15041   */\n      dup2\n        /* \"#utility.yul\":15029:15042   */\n      mload\n        /* \"#utility.yul\":15020:15042   */\n      swap1\n      pop\n        /* \"#utility.yul\":15051:15084   */\n      tag_634\n        /* \"#utility.yul\":15078:15083   */\n      dup2\n        /* \"#utility.yul\":15051:15084   */\n      tag_396\n      jump\t// in\n    tag_634:\n        /* \"#utility.yul\":14947:15090   */\n      swap3\n      swap2\n      pop\n      pop\n      jump\t// out\n        /* \"#utility.yul\":15096:15447   */\n    tag_242:\n        /* \"#utility.yul\":15166:15172   */\n      0x00\n        /* \"#utility.yul\":15215:15217   */\n      0x20\n        /* \"#utility.yul\":15203:15212   */\n      dup3\n        /* \"#utility.yul\":15194:15201   */\n      dup5\n        /* \"#utility.yul\":15190:15213   */\n      sub\n        /* \"#utility.yul\":15186:15218   */\n      slt\n        /* \"#utility.yul\":15183:15302   */\n      iszero\n      tag_636\n      jumpi\n        /* \"#utility.yul\":15221:15300   */\n      tag_637\n      tag_376\n      jump\t// in\n    tag_637:\n        /* \"#utility.yul\":15183:15302   */\n    tag_636:\n        /* \"#utility.yul\":15341:15342   */\n      0x00\n        /* \"#utility.yul\":15366:15430   */\n      tag_638\n        /* \"#utility.yul\":15422:15429   */\n      dup5\n        /* \"#utility.yul\":15413:15419   */\n      dup3\n        /* \"#utility.yul\":15402:15411   */\n      dup6\n        /* \"#utility.yul\":15398:15420   */\n      add\n        /* \"#utility.yul\":15366:15430   */\n      tag_423\n      jump\t// in\n    tag_638:\n        /* \"#utility.yul\":15356:15430   */\n      swap2\n      pop\n        /* \"#utility.yul\":15312:15440   */\n      pop\n        /* \"#utility.yul\":15096:15447   */\n      swap3\n      swap2\n      pop\n      pop\n      jump\t// out\n        /* \"#utility.yul\":15453:15631   */\n    tag_424:\n        /* \"#utility.yul\":15593:15623   */\n      0x5265776172642072617465206d75737420626520706f73697469766500000000\n        /* \"#utility.yul\":15589:15590   */\n      0x00\n        /* \"#utility.yul\":15581:15587   */\n      dup3\n        /* \"#utility.yul\":15577:15591   */\n      add\n        /* \"#utility.yul\":15570:15624   */\n      mstore\n        /* \"#utility.yul\":15453:15631   */\n      pop\n      jump\t// out\n        /* \"#utility.yul\":15637:16003   */\n    tag_425:\n        /* \"#utility.yul\":15779:15782   */\n      0x00\n        /* \"#utility.yul\":15800:15867   */\n      tag_641\n        /* \"#utility.yul\":15864:15866   */\n      0x1c\n        /* \"#utility.yul\":15859:15862   */\n      dup4\n        /* \"#utility.yul\":15800:15867   */\n      tag_416\n      jump\t// in\n    tag_641:\n        /* \"#utility.yul\":15793:15867   */\n      swap2\n      pop\n        /* \"#utility.yul\":15876:15969   */\n      tag_642\n        /* \"#utility.yul\":15965:15968   */\n      dup3\n        /* \"#utility.yul\":15876:15969   */\n      tag_424\n      jump\t// in\n    tag_642:\n        /* \"#utility.yul\":15994:15996   */\n      0x20\n        /* \"#utility.yul\":15989:15992   */\n      dup3\n        /* \"#utility.yul\":15985:15997   */\n      add\n        /* \"#utility.yul\":15978:15997   */\n      swap1\n      pop\n        /* \"#utility.yul\":15637:16003   */\n      swap2\n      swap1\n      pop\n      jump\t// out\n        /* \"#utility.yul\":16009:16428   */\n    tag_253:\n        /* \"#utility.yul\":16175:16179   */\n      0x00\n        /* \"#utility.yul\":16213:16215   */\n      0x20\n        /* \"#utility.yul\":16202:16211   */\n      dup3\n        /* \"#utility.yul\":16198:16216   */\n      add\n        /* \"#utility.yul\":16190:16216   */\n      swap1\n      pop\n        /* \"#utility.yul\":16262:16271   */\n      dup2\n        /* \"#utility.yul\":16256:16260   */\n      dup2\n        /* \"#utility.yul\":16252:16272   */\n      sub\n        /* \"#utility.yul\":16248:16249   */\n      0x00\n        /* \"#utility.yul\":16237:16246   */\n      dup4\n        /* \"#utility.yul\":16233:16250   */\n      add\n        /* \"#utility.yul\":16226:16273   */\n      mstore\n        /* \"#utility.yul\":16290:16421   */\n      tag_644\n        /* \"#utility.yul\":16416:16420   */\n      dup2\n        /* \"#utility.yul\":16290:16421   */\n      tag_425\n      jump\t// in\n    tag_644:\n        /* \"#utility.yul\":16282:16421   */\n      swap1\n      pop\n        /* \"#utility.yul\":16009:16428   */\n      swap2\n      swap1\n      pop\n      jump\t// out\n        /* \"#utility.yul\":16434:16615   */\n    tag_426:\n        /* \"#utility.yul\":16574:16607   */\n      0x5265656e7472616e637947756172643a207265656e7472616e742063616c6c00\n        /* \"#utility.yul\":16570:16571   */\n      0x00\n        /* \"#utility.yul\":16562:16568   */\n      dup3\n        /* \"#utility.yul\":16558:16572   */\n      add\n        /* \"#utility.yul\":16551:16608   */\n      mstore\n        /* \"#utility.yul\":16434:16615   */\n      pop\n      jump\t// out\n        /* \"#utility.yul\":16621:16987   */\n    tag_427:\n        /* \"#utility.yul\":16763:16766   */\n      0x00\n        /* \"#utility.yul\":16784:16851   */\n      tag_647\n        /* \"#utility.yul\":16848:16850   */\n      0x1f\n        /* \"#utility.yul\":16843:16846   */\n      dup4\n        /* \"#utility.yul\":16784:16851   */\n      tag_416\n      jump\t// in\n    tag_647:\n        /* \"#utility.yul\":16777:16851   */\n      swap2\n      pop\n        /* \"#utility.yul\":16860:16953   */\n      tag_648\n        /* \"#utility.yul\":16949:16952   */\n      dup3\n        /* \"#utility.yul\":16860:16953   */\n      tag_426\n      jump\t// in\n    tag_648:\n        /* \"#utility.yul\":16978:16980   */\n      0x20\n        /* \"#utility.yul\":16973:16976   */\n      dup3\n        /* \"#utility.yul\":16969:16981   */\n      add\n        /* \"#utility.yul\":16962:16981   */\n      swap1\n      pop\n        /* \"#utility.yul\":16621:16987   */\n      swap2\n      swap1\n      pop\n      jump\t// out\n        /* \"#utility.yul\":16993:17412   */\n    tag_275:\n        /* \"#utility.yul\":17159:17163   */\n      0x00\n        /* \"#utility.yul\":17197:17199   */\n      0x20\n        /* \"#utility.yul\":17186:17195   */\n      dup3\n        /* \"#utility.yul\":17182:17200   */\n      add\n        /* \"#utility.yul\":17174:17200   */\n      swap1\n      pop\n        /* \"#utility.yul\":17246:17255   */\n      dup2\n        /* \"#utility.yul\":17240:17244   */\n      dup2\n        /* \"#utility.yul\":17236:17256   */\n      sub\n        /* \"#utility.yul\":17232:17233   */\n      0x00\n        /* \"#utility.yul\":17221:17230   */\n      dup4\n        /* \"#utility.yul\":17217:17234   */\n      add\n        /* \"#utility.yul\":17210:17257   */\n      mstore\n        /* \"#utility.yul\":17274:17405   */\n      tag_650\n        /* \"#utility.yul\":17400:17404   */\n      dup2\n        /* \"#utility.yul\":17274:17405   */\n      tag_427\n      jump\t// in\n    tag_650:\n        /* \"#utility.yul\":17266:17405   */\n      swap1\n      pop\n        /* \"#utility.yul\":16993:17412   */\n      swap2\n      swap1\n      pop\n      jump\t// out\n        /* \"#utility.yul\":17418:17648   */\n    tag_428:\n        /* \"#utility.yul\":17558:17592   */\n      0x546f6b656e5374616b696e673a20416d6f756e74206d75737420626520677265\n        /* \"#utility.yul\":17554:17555   */\n      0x00\n        /* \"#utility.yul\":17546:17552   */\n      dup3\n        /* \"#utility.yul\":17542:17556   */\n      add\n        /* \"#utility.yul\":17535:17593   */\n      mstore\n        /* \"#utility.yul\":17627:17640   */\n      0x61746572207468616e2030000000000000000000000000000000000000000000\n        /* \"#utility.yul\":17622:17624   */\n      0x20\n        /* \"#utility.yul\":17614:17620   */\n      dup3\n        /* \"#utility.yul\":17610:17625   */\n      add\n        /* \"#utility.yul\":17603:17641   */\n      mstore\n        /* \"#utility.yul\":17418:17648   */\n      pop\n      jump\t// out\n        /* \"#utility.yul\":17654:18020   */\n    tag_429:\n        /* \"#utility.yul\":17796:17799   */\n      0x00\n        /* \"#utility.yul\":17817:17884   */\n      tag_653\n        /* \"#utility.yul\":17881:17883   */\n      0x2b\n        /* \"#utility.yul\":17876:17879   */\n      dup4\n        /* \"#utility.yul\":17817:17884   */\n      tag_416\n      jump\t// in\n    tag_653:\n        /* \"#utility.yul\":17810:17884   */\n      swap2\n      pop\n        /* \"#utility.yul\":17893:17986   */\n      tag_654\n        /* \"#utility.yul\":17982:17985   */\n      dup3\n        /* \"#utility.yul\":17893:17986   */\n      tag_428\n      jump\t// in\n    tag_654:\n        /* \"#utility.yul\":18011:18013   */\n      0x40\n        /* \"#utility.yul\":18006:18009   */\n      dup3\n        /* \"#utility.yul\":18002:18014   */\n      add\n        /* \"#utility.yul\":17995:18014   */\n      swap1\n      pop\n        /* \"#utility.yul\":17654:18020   */\n      swap2\n      swap1\n      pop\n      jump\t// out\n        /* \"#utility.yul\":18026:18445   */\n    tag_280:\n        /* \"#utility.yul\":18192:18196   */\n      0x00\n        /* \"#utility.yul\":18230:18232   */\n      0x20\n        /* \"#utility.yul\":18219:18228   */\n      dup3\n        /* \"#utility.yul\":18215:18233   */\n      add\n        /* \"#utility.yul\":18207:18233   */\n      swap1\n      pop\n        /* \"#utility.yul\":18279:18288   */\n      dup2\n        /* \"#utility.yul\":18273:18277   */\n      dup2\n        /* \"#utility.yul\":18269:18289   */\n      sub\n        /* \"#utility.yul\":18265:18266   */\n      0x00\n        /* \"#utility.yul\":18254:18263   */\n      dup4\n        /* \"#utility.yul\":18250:18267   */\n      add\n        /* \"#utility.yul\":18243:18290   */\n      mstore\n        /* \"#utility.yul\":18307:18438   */\n      tag_656\n        /* \"#utility.yul\":18433:18437   */\n      dup2\n        /* \"#utility.yul\":18307:18438   */\n      tag_429\n      jump\t// in\n    tag_656:\n        /* \"#utility.yul\":18299:18438   */\n      swap1\n      pop\n        /* \"#utility.yul\":18026:18445   */\n      swap2\n      swap1\n      pop\n      jump\t// out\n        /* \"#utility.yul\":18451:18679   */\n    tag_430:\n        /* \"#utility.yul\":18591:18625   */\n      0x546f6b656e5374616b696e673a20496e73756666696369656e74207374616b65\n        /* \"#utility.yul\":18587:18588   */\n      0x00\n        /* \"#utility.yul\":18579:18585   */\n      dup3\n        /* \"#utility.yul\":18575:18589   */\n      add\n        /* \"#utility.yul\":18568:18626   */\n      mstore\n        /* \"#utility.yul\":18660:18671   */\n      0x642062616c616e63650000000000000000000000000000000000000000000000\n        /* \"#utility.yul\":18655:18657   */\n      0x20\n        /* \"#utility.yul\":18647:18653   */\n      dup3\n        /* \"#utility.yul\":18643:18658   */\n      add\n        /* \"#utility.yul\":18636:18672   */\n      mstore\n        /* \"#utility.yul\":18451:18679   */\n      pop\n      jump\t// out\n        /* \"#utility.yul\":18685:19051   */\n    tag_431:\n        /* \"#utility.yul\":18827:18830   */\n      0x00\n        /* \"#utility.yul\":18848:18915   */\n      tag_659\n        /* \"#utility.yul\":18912:18914   */\n      0x29\n        /* \"#utility.yul\":18907:18910   */\n      dup4\n        /* \"#utility.yul\":18848:18915   */\n      tag_416\n      jump\t// in\n    tag_659:\n        /* \"#utility.yul\":18841:18915   */\n      swap2\n      pop\n        /* \"#utility.yul\":18924:19017   */\n      tag_660\n        /* \"#utility.yul\":19013:19016   */\n      dup3\n        /* \"#utility.yul\":18924:19017   */\n      tag_430\n      jump\t// in\n    tag_660:\n        /* \"#utility.yul\":19042:19044   */\n      0x40\n        /* \"#utility.yul\":19037:19040   */\n      dup3\n        /* \"#utility.yul\":19033:19045   */\n      add\n        /* \"#utility.yul\":19026:19045   */\n      swap1\n      pop\n        /* \"#utility.yul\":18685:19051   */\n      swap2\n      swap1\n      pop\n      jump\t// out\n        /* \"#utility.yul\":19057:19476   */\n    tag_283:\n        /* \"#utility.yul\":19223:19227   */\n      0x00\n        /* \"#utility.yul\":19261:19263   */\n      0x20\n        /* \"#utility.yul\":19250:19259   */\n      dup3\n        /* \"#utility.yul\":19246:19264   */\n      add\n        /* \"#utility.yul\":19238:19264   */\n      swap1\n      pop\n        /* \"#utility.yul\":19310:19319   */\n      dup2\n        /* \"#utility.yul\":19304:19308   */\n      dup2\n        /* \"#utility.yul\":19300:19320   */\n      sub\n        /* \"#utility.yul\":19296:19297   */\n      0x00\n        /* \"#utility.yul\":19285:19294   */\n      dup4\n        /* \"#utility.yul\":19281:19298   */\n      add\n        /* \"#utility.yul\":19274:19321   */\n      mstore\n        /* \"#utility.yul\":19338:19469   */\n      tag_662\n        /* \"#utility.yul\":19464:19468   */\n      dup2\n        /* \"#utility.yul\":19338:19469   */\n      tag_431\n      jump\t// in\n    tag_662:\n        /* \"#utility.yul\":19330:19469   */\n      swap1\n      pop\n        /* \"#utility.yul\":19057:19476   */\n      swap2\n      swap1\n      pop\n      jump\t// out\n        /* \"#utility.yul\":19482:19705   */\n    tag_432:\n        /* \"#utility.yul\":19622:19656   */\n      0x546f6b656e5374616b696e673a20436c61696d20696e74657276616c206e6f74\n        /* \"#utility.yul\":19618:19619   */\n      0x00\n        /* \"#utility.yul\":19610:19616   */\n      dup3\n        /* \"#utility.yul\":19606:19620   */\n      add\n        /* \"#utility.yul\":19599:19657   */\n      mstore\n        /* \"#utility.yul\":19691:19697   */\n      0x206d657400000000000000000000000000000000000000000000000000000000\n        /* \"#utility.yul\":19686:19688   */\n      0x20\n        /* \"#utility.yul\":19678:19684   */\n      dup3\n        /* \"#utility.yul\":19674:19689   */\n      add\n        /* \"#utility.yul\":19667:19698   */\n      mstore\n        /* \"#utility.yul\":19482:19705   */\n      pop\n      jump\t// out\n        /* \"#utility.yul\":19711:20077   */\n    tag_433:\n        /* \"#utility.yul\":19853:19856   */\n      0x00\n        /* \"#utility.yul\":19874:19941   */\n      tag_665\n        /* \"#utility.yul\":19938:19940   */\n      0x24\n        /* \"#utility.yul\":19933:19936   */\n      dup4\n        /* \"#utility.yul\":19874:19941   */\n      tag_416\n      jump\t// in\n    tag_665:\n        /* \"#utility.yul\":19867:19941   */\n      swap2\n      pop\n        /* \"#utility.yul\":19950:20043   */\n      tag_666\n        /* \"#utility.yul\":20039:20042   */\n      dup3\n        /* \"#utility.yul\":19950:20043   */\n      tag_432\n      jump\t// in\n    tag_666:\n        /* \"#utility.yul\":20068:20070   */\n      0x40\n        /* \"#utility.yul\":20063:20066   */\n      dup3\n        /* \"#utility.yul\":20059:20071   */\n      add\n        /* \"#utility.yul\":20052:20071   */\n      swap1\n      pop\n        /* \"#utility.yul\":19711:20077   */\n      swap2\n      swap1\n      pop\n      jump\t// out\n        /* \"#utility.yul\":20083:20502   */\n    tag_287:\n        /* \"#utility.yul\":20249:20253   */\n      0x00\n        /* \"#utility.yul\":20287:20289   */\n      0x20\n        /* \"#utility.yul\":20276:20285   */\n      dup3\n        /* \"#utility.yul\":20272:20290   */\n      add\n        /* \"#utility.yul\":20264:20290   */\n      swap1\n      pop\n        /* \"#utility.yul\":20336:20345   */\n      dup2\n        /* \"#utility.yul\":20330:20334   */\n      dup2\n        /* \"#utility.yul\":20326:20346   */\n      sub\n        /* \"#utility.yul\":20322:20323   */\n      0x00\n        /* \"#utility.yul\":20311:20320   */\n      dup4\n        /* \"#utility.yul\":20307:20324   */\n      add\n        /* \"#utility.yul\":20300:20347   */\n      mstore\n        /* \"#utility.yul\":20364:20495   */\n      tag_668\n        /* \"#utility.yul\":20490:20494   */\n      dup2\n        /* \"#utility.yul\":20364:20495   */\n      tag_433\n      jump\t// in\n    tag_668:\n        /* \"#utility.yul\":20356:20495   */\n      swap1\n      pop\n        /* \"#utility.yul\":20083:20502   */\n      swap2\n      swap1\n      pop\n      jump\t// out\n        /* \"#utility.yul\":20508:20732   */\n    tag_434:\n        /* \"#utility.yul\":20648:20682   */\n      0x546f6b656e5374616b696e673a20556e7374616b65207472616e736665722066\n        /* \"#utility.yul\":20644:20645   */\n      0x00\n        /* \"#utility.yul\":20636:20642   */\n      dup3\n        /* \"#utility.yul\":20632:20646   */\n      add\n        /* \"#utility.yul\":20625:20683   */\n      mstore\n        /* \"#utility.yul\":20717:20724   */\n      0x61696c6564000000000000000000000000000000000000000000000000000000\n        /* \"#utility.yul\":20712:20714   */\n      0x20\n        /* \"#utility.yul\":20704:20710   */\n      dup3\n        /* \"#utility.yul\":20700:20715   */\n      add\n        /* \"#utility.yul\":20693:20725   */\n      mstore\n        /* \"#utility.yul\":20508:20732   */\n      pop\n      jump\t// out\n        /* \"#utility.yul\":20738:21104   */\n    tag_435:\n        /* \"#utility.yul\":20880:20883   */\n      0x00\n        /* \"#utility.yul\":20901:20968   */\n      tag_671\n        /* \"#utility.yul\":20965:20967   */\n      0x25\n        /* \"#utility.yul\":20960:20963   */\n      dup4\n        /* \"#utility.yul\":20901:20968   */\n      tag_416\n      jump\t// in\n    tag_671:\n        /* \"#utility.yul\":20894:20968   */\n      swap2\n      pop\n        /* \"#utility.yul\":20977:21070   */\n      tag_672\n        /* \"#utility.yul\":21066:21069   */\n      dup3\n        /* \"#utility.yul\":20977:21070   */\n      tag_434\n      jump\t// in\n    tag_672:\n        /* \"#utility.yul\":21095:21097   */\n      0x40\n        /* \"#utility.yul\":21090:21093   */\n      dup3\n        /* \"#utility.yul\":21086:21098   */\n      add\n        /* \"#utility.yul\":21079:21098   */\n      swap1\n      pop\n        /* \"#utility.yul\":20738:21104   */\n      swap2\n      swap1\n      pop\n      jump\t// out\n        /* \"#utility.yul\":21110:21529   */\n    tag_299:\n        /* \"#utility.yul\":21276:21280   */\n      0x00\n        /* \"#utility.yul\":21314:21316   */\n      0x20\n        /* \"#utility.yul\":21303:21312   */\n      dup3\n        /* \"#utility.yul\":21299:21317   */\n      add\n        /* \"#utility.yul\":21291:21317   */\n      swap1\n      pop\n        /* \"#utility.yul\":21363:21372   */\n      dup2\n        /* \"#utility.yul\":21357:21361   */\n      dup2\n        /* \"#utility.yul\":21353:21373   */\n      sub\n        /* \"#utility.yul\":21349:21350   */\n      0x00\n        /* \"#utility.yul\":21338:21347   */\n      dup4\n        /* \"#utility.yul\":21334:21351   */\n      add\n        /* \"#utility.yul\":21327:21374   */\n      mstore\n        /* \"#utility.yul\":21391:21522   */\n      tag_674\n        /* \"#utility.yul\":21517:21521   */\n      dup2\n        /* \"#utility.yul\":21391:21522   */\n      tag_435\n      jump\t// in\n    tag_674:\n        /* \"#utility.yul\":21383:21522   */\n      swap1\n      pop\n        /* \"#utility.yul\":21110:21529   */\n      swap2\n      swap1\n      pop\n      jump\t// out\n        /* \"#utility.yul\":21535:21716   */\n    tag_436:\n        /* \"#utility.yul\":21675:21708   */\n      0x546f6b656e5374616b696e673a204e6f207374616b65642062616c616e636500\n        /* \"#utility.yul\":21671:21672   */\n      0x00\n        /* \"#utility.yul\":21663:21669   */\n      dup3\n        /* \"#utility.yul\":21659:21673   */\n      add\n        /* \"#utility.yul\":21652:21709   */\n      mstore\n        /* \"#utility.yul\":21535:21716   */\n      pop\n      jump\t// out\n        /* \"#utility.yul\":21722:22088   */\n    tag_437:\n        /* \"#utility.yul\":21864:21867   */\n      0x00\n        /* \"#utility.yul\":21885:21952   */\n      tag_677\n        /* \"#utility.yul\":21949:21951   */\n      0x1f\n        /* \"#utility.yul\":21944:21947   */\n      dup4\n        /* \"#utility.yul\":21885:21952   */\n      tag_416\n      jump\t// in\n    tag_677:\n        /* \"#utility.yul\":21878:21952   */\n      swap2\n      pop\n        /* \"#utility.yul\":21961:22054   */\n      tag_678\n        /* \"#utility.yul\":22050:22053   */\n      dup3\n        /* \"#utility.yul\":21961:22054   */\n      tag_436\n      jump\t// in\n    tag_678:\n        /* \"#utility.yul\":22079:22081   */\n      0x20\n        /* \"#utility.yul\":22074:22077   */\n      dup3\n        /* \"#utility.yul\":22070:22082   */\n      add\n        /* \"#utility.yul\":22063:22082   */\n      swap1\n      pop\n        /* \"#utility.yul\":21722:22088   */\n      swap2\n      swap1\n      pop\n      jump\t// out\n        /* \"#utility.yul\":22094:22513   */\n    tag_320:\n        /* \"#utility.yul\":22260:22264   */\n      0x00\n        /* \"#utility.yul\":22298:22300   */\n      0x20\n        /* \"#utility.yul\":22287:22296   */\n      dup3\n        /* \"#utility.yul\":22283:22301   */\n      add\n        /* \"#utility.yul\":22275:22301   */\n      swap1\n      pop\n        /* \"#utility.yul\":22347:22356   */\n      dup2\n        /* \"#utility.yul\":22341:22345   */\n      dup2\n        /* \"#utility.yul\":22337:22357   */\n      sub\n        /* \"#utility.yul\":22333:22334   */\n      0x00\n        /* \"#utility.yul\":22322:22331   */\n      dup4\n        /* \"#utility.yul\":22318:22335   */\n      add\n        /* \"#utility.yul\":22311:22358   */\n      mstore\n        /* \"#utility.yul\":22375:22506   */\n      tag_680\n        /* \"#utility.yul\":22501:22505   */\n      dup2\n        /* \"#utility.yul\":22375:22506   */\n      tag_437\n      jump\t// in\n    tag_680:\n        /* \"#utility.yul\":22367:22506   */\n      swap1\n      pop\n        /* \"#utility.yul\":22094:22513   */\n      swap2\n      swap1\n      pop\n      jump\t// out\n        /* \"#utility.yul\":22519:22739   */\n    tag_438:\n        /* \"#utility.yul\":22659:22693   */\n      0x546f6b656e5374616b696e673a204e6f207265776172647320746f20636c6169\n        /* \"#utility.yul\":22655:22656   */\n      0x00\n        /* \"#utility.yul\":22647:22653   */\n      dup3\n        /* \"#utility.yul\":22643:22657   */\n      add\n        /* \"#utility.yul\":22636:22694   */\n      mstore\n        /* \"#utility.yul\":22728:22731   */\n      0x6d00000000000000000000000000000000000000000000000000000000000000\n        /* \"#utility.yul\":22723:22725   */\n      0x20\n        /* \"#utility.yul\":22715:22721   */\n      dup3\n        /* \"#utility.yul\":22711:22726   */\n      add\n        /* \"#utility.yul\":22704:22732   */\n      mstore\n        /* \"#utility.yul\":22519:22739   */\n      pop\n      jump\t// out\n        /* \"#utility.yul\":22745:23111   */\n    tag_439:\n        /* \"#utility.yul\":22887:22890   */\n      0x00\n        /* \"#utility.yul\":22908:22975   */\n      tag_683\n        /* \"#utility.yul\":22972:22974   */\n      0x21\n        /* \"#utility.yul\":22967:22970   */\n      dup4\n        /* \"#utility.yul\":22908:22975   */\n      tag_416\n      jump\t// in\n    tag_683:\n        /* \"#utility.yul\":22901:22975   */\n      swap2\n      pop\n        /* \"#utility.yul\":22984:23077   */\n      tag_684\n        /* \"#utility.yul\":23073:23076   */\n      dup3\n        /* \"#utility.yul\":22984:23077   */\n      tag_438\n      jump\t// in\n    tag_684:\n        /* \"#utility.yul\":23102:23104   */\n      0x40\n        /* \"#utility.yul\":23097:23100   */\n      dup3\n        /* \"#utility.yul\":23093:23105   */\n      add\n        /* \"#utility.yul\":23086:23105   */\n      swap1\n      pop\n        /* \"#utility.yul\":22745:23111   */\n      swap2\n      swap1\n      pop\n      jump\t// out\n        /* \"#utility.yul\":23117:23536   */\n    tag_327:\n        /* \"#utility.yul\":23283:23287   */\n      0x00\n        /* \"#utility.yul\":23321:23323   */\n      0x20\n        /* \"#utility.yul\":23310:23319   */\n      dup3\n        /* \"#utility.yul\":23306:23324   */\n      add\n        /* \"#utility.yul\":23298:23324   */\n      swap1\n      pop\n        /* \"#utility.yul\":23370:23379   */\n      dup2\n        /* \"#utility.yul\":23364:23368   */\n      dup2\n        /* \"#utility.yul\":23360:23380   */\n      sub\n        /* \"#utility.yul\":23356:23357   */\n      0x00\n        /* \"#utility.yul\":23345:23354   */\n      dup4\n        /* \"#utility.yul\":23341:23358   */\n      add\n        /* \"#utility.yul\":23334:23381   */\n      mstore\n        /* \"#utility.yul\":23398:23529   */\n      tag_686\n        /* \"#utility.yul\":23524:23528   */\n      dup2\n        /* \"#utility.yul\":23398:23529   */\n      tag_439\n      jump\t// in\n    tag_686:\n        /* \"#utility.yul\":23390:23529   */\n      swap1\n      pop\n        /* \"#utility.yul\":23117:23536   */\n      swap2\n      swap1\n      pop\n      jump\t// out\n        /* \"#utility.yul\":23542:23767   */\n    tag_440:\n        /* \"#utility.yul\":23682:23716   */\n      0x5374616b696e673a20416d6f756e74206d757374206265206772656174657220\n        /* \"#utility.yul\":23678:23679   */\n      0x00\n        /* \"#utility.yul\":23670:23676   */\n      dup3\n        /* \"#utility.yul\":23666:23680   */\n      add\n        /* \"#utility.yul\":23659:23717   */\n      mstore\n        /* \"#utility.yul\":23751:23759   */\n      0x7468616e20300000000000000000000000000000000000000000000000000000\n        /* \"#utility.yul\":23746:23748   */\n      0x20\n        /* \"#utility.yul\":23738:23744   */\n      dup3\n        /* \"#utility.yul\":23734:23749   */\n      add\n        /* \"#utility.yul\":23727:23760   */\n      mstore\n        /* \"#utility.yul\":23542:23767   */\n      pop\n      jump\t// out\n        /* \"#utility.yul\":23773:24139   */\n    tag_441:\n        /* \"#utility.yul\":23915:23918   */\n      0x00\n        /* \"#utility.yul\":23936:24003   */\n      tag_689\n        /* \"#utility.yul\":24000:24002   */\n      0x26\n        /* \"#utility.yul\":23995:23998   */\n      dup4\n        /* \"#utility.yul\":23936:24003   */\n      tag_416\n      jump\t// in\n    tag_689:\n        /* \"#utility.yul\":23929:24003   */\n      swap2\n      pop\n        /* \"#utility.yul\":24012:24105   */\n      tag_690\n        /* \"#utility.yul\":24101:24104   */\n      dup3\n        /* \"#utility.yul\":24012:24105   */\n      tag_440\n      jump\t// in\n    tag_690:\n        /* \"#utility.yul\":24130:24132   */\n      0x40\n        /* \"#utility.yul\":24125:24128   */\n      dup3\n        /* \"#utility.yul\":24121:24133   */\n      add\n        /* \"#utility.yul\":24114:24133   */\n      swap1\n      pop\n        /* \"#utility.yul\":23773:24139   */\n      swap2\n      swap1\n      pop\n      jump\t// out\n        /* \"#utility.yul\":24145:24564   */\n    tag_337:\n        /* \"#utility.yul\":24311:24315   */\n      0x00\n        /* \"#utility.yul\":24349:24351   */\n      0x20\n        /* \"#utility.yul\":24338:24347   */\n      dup3\n        /* \"#utility.yul\":24334:24352   */\n      add\n        /* \"#utility.yul\":24326:24352   */\n      swap1\n      pop\n        /* \"#utility.yul\":24398:24407   */\n      dup2\n        /* \"#utility.yul\":24392:24396   */\n      dup2\n        /* \"#utility.yul\":24388:24408   */\n      sub\n        /* \"#utility.yul\":24384:24385   */\n      0x00\n        /* \"#utility.yul\":24373:24382   */\n      dup4\n        /* \"#utility.yul\":24369:24386   */\n      add\n        /* \"#utility.yul\":24362:24409   */\n      mstore\n        /* \"#utility.yul\":24426:24557   */\n      tag_692\n        /* \"#utility.yul\":24552:24556   */\n      dup2\n        /* \"#utility.yul\":24426:24557   */\n      tag_441\n      jump\t// in\n    tag_692:\n        /* \"#utility.yul\":24418:24557   */\n      swap1\n      pop\n        /* \"#utility.yul\":24145:24564   */\n      swap2\n      swap1\n      pop\n      jump\t// out\n        /* \"#utility.yul\":24570:24743   */\n    tag_442:\n        /* \"#utility.yul\":24710:24735   */\n      0x5374616b696e673a204e6f204e46542062616c616e6365000000000000000000\n        /* \"#utility.yul\":24706:24707   */\n      0x00\n        /* \"#utility.yul\":24698:24704   */\n      dup3\n        /* \"#utility.yul\":24694:24708   */\n      add\n        /* \"#utility.yul\":24687:24736   */\n      mstore\n        /* \"#utility.yul\":24570:24743   */\n      pop\n      jump\t// out\n        /* \"#utility.yul\":24749:25115   */\n    tag_443:\n        /* \"#utility.yul\":24891:24894   */\n      0x00\n        /* \"#utility.yul\":24912:24979   */\n      tag_695\n        /* \"#utility.yul\":24976:24978   */\n      0x17\n        /* \"#utility.yul\":24971:24974   */\n      dup4\n        /* \"#utility.yul\":24912:24979   */\n      tag_416\n      jump\t// in\n    tag_695:\n        /* \"#utility.yul\":24905:24979   */\n      swap2\n      pop\n        /* \"#utility.yul\":24988:25081   */\n      tag_696\n        /* \"#utility.yul\":25077:25080   */\n      dup3\n        /* \"#utility.yul\":24988:25081   */\n      tag_442\n      jump\t// in\n    tag_696:\n        /* \"#utility.yul\":25106:25108   */\n      0x20\n        /* \"#utility.yul\":25101:25104   */\n      dup3\n        /* \"#utility.yul\":25097:25109   */\n      add\n        /* \"#utility.yul\":25090:25109   */\n      swap1\n      pop\n        /* \"#utility.yul\":24749:25115   */\n      swap2\n      swap1\n      pop\n      jump\t// out\n        /* \"#utility.yul\":25121:25540   */\n    tag_345:\n        /* \"#utility.yul\":25287:25291   */\n      0x00\n        /* \"#utility.yul\":25325:25327   */\n      0x20\n        /* \"#utility.yul\":25314:25323   */\n      dup3\n        /* \"#utility.yul\":25310:25328   */\n      add\n        /* \"#utility.yul\":25302:25328   */\n      swap1\n      pop\n        /* \"#utility.yul\":25374:25383   */\n      dup2\n        /* \"#utility.yul\":25368:25372   */\n      dup2\n        /* \"#utility.yul\":25364:25384   */\n      sub\n        /* \"#utility.yul\":25360:25361   */\n      0x00\n        /* \"#utility.yul\":25349:25358   */\n      dup4\n        /* \"#utility.yul\":25345:25362   */\n      add\n        /* \"#utility.yul\":25338:25385   */\n      mstore\n        /* \"#utility.yul\":25402:25533   */\n      tag_698\n        /* \"#utility.yul\":25528:25532   */\n      dup2\n        /* \"#utility.yul\":25402:25533   */\n      tag_443\n      jump\t// in\n    tag_698:\n        /* \"#utility.yul\":25394:25533   */\n      swap1\n      pop\n        /* \"#utility.yul\":25121:25540   */\n      swap2\n      swap1\n      pop\n      jump\t// out\n        /* \"#utility.yul\":25546:25720   */\n    tag_444:\n        /* \"#utility.yul\":25686:25712   */\n      0x5374616b696e673a20417070726f76616c206661696c65640000000000000000\n        /* \"#utility.yul\":25682:25683   */\n      0x00\n        /* \"#utility.yul\":25674:25680   */\n      dup3\n        /* \"#utility.yul\":25670:25684   */\n      add\n        /* \"#utility.yul\":25663:25713   */\n      mstore\n        /* \"#utility.yul\":25546:25720   */\n      pop\n      jump\t// out\n        /* \"#utility.yul\":25726:26092   */\n    tag_445:\n        /* \"#utility.yul\":25868:25871   */\n      0x00\n        /* \"#utility.yul\":25889:25956   */\n      tag_701\n        /* \"#utility.yul\":25953:25955   */\n      0x18\n        /* \"#utility.yul\":25948:25951   */\n      dup4\n        /* \"#utility.yul\":25889:25956   */\n      tag_416\n      jump\t// in\n    tag_701:\n        /* \"#utility.yul\":25882:25956   */\n      swap2\n      pop\n        /* \"#utility.yul\":25965:26058   */\n      tag_702\n        /* \"#utility.yul\":26054:26057   */\n      dup3\n        /* \"#utility.yul\":25965:26058   */\n      tag_444\n      jump\t// in\n    tag_702:\n        /* \"#utility.yul\":26083:26085   */\n      0x20\n        /* \"#utility.yul\":26078:26081   */\n      dup3\n        /* \"#utility.yul\":26074:26086   */\n      add\n        /* \"#utility.yul\":26067:26086   */\n      swap1\n      pop\n        /* \"#utility.yul\":25726:26092   */\n      swap2\n      swap1\n      pop\n      jump\t// out\n        /* \"#utility.yul\":26098:26517   */\n    tag_352:\n        /* \"#utility.yul\":26264:26268   */\n      0x00\n        /* \"#utility.yul\":26302:26304   */\n      0x20\n        /* \"#utility.yul\":26291:26300   */\n      dup3\n        /* \"#utility.yul\":26287:26305   */\n      add\n        /* \"#utility.yul\":26279:26305   */\n      swap1\n      pop\n        /* \"#utility.yul\":26351:26360   */\n      dup2\n        /* \"#utility.yul\":26345:26349   */\n      dup2\n        /* \"#utility.yul\":26341:26361   */\n      sub\n        /* \"#utility.yul\":26337:26338   */\n      0x00\n        /* \"#utility.yul\":26326:26335   */\n      dup4\n        /* \"#utility.yul\":26322:26339   */\n      add\n        /* \"#utility.yul\":26315:26362   */\n      mstore\n        /* \"#utility.yul\":26379:26510   */\n      tag_704\n        /* \"#utility.yul\":26505:26509   */\n      dup2\n        /* \"#utility.yul\":26379:26510   */\n      tag_445\n      jump\t// in\n    tag_704:\n        /* \"#utility.yul\":26371:26510   */\n      swap1\n      pop\n        /* \"#utility.yul\":26098:26517   */\n      swap2\n      swap1\n      pop\n      jump\t// out\n        /* \"#utility.yul\":26523:26965   */\n    tag_355:\n        /* \"#utility.yul\":26672:26676   */\n      0x00\n        /* \"#utility.yul\":26710:26712   */\n      0x60\n        /* \"#utility.yul\":26699:26708   */\n      dup3\n        /* \"#utility.yul\":26695:26713   */\n      add\n        /* \"#utility.yul\":26687:26713   */\n      swap1\n      pop\n        /* \"#utility.yul\":26723:26794   */\n      tag_706\n        /* \"#utility.yul\":26791:26792   */\n      0x00\n        /* \"#utility.yul\":26780:26789   */\n      dup4\n        /* \"#utility.yul\":26776:26793   */\n      add\n        /* \"#utility.yul\":26767:26773   */\n      dup7\n        /* \"#utility.yul\":26723:26794   */\n      tag_420\n      jump\t// in\n    tag_706:\n        /* \"#utility.yul\":26804:26876   */\n      tag_707\n        /* \"#utility.yul\":26872:26874   */\n      0x20\n        /* \"#utility.yul\":26861:26870   */\n      dup4\n        /* \"#utility.yul\":26857:26875   */\n      add\n        /* \"#utility.yul\":26848:26854   */\n      dup6\n        /* \"#utility.yul\":26804:26876   */\n      tag_420\n      jump\t// in\n    tag_707:\n        /* \"#utility.yul\":26886:26958   */\n      tag_708\n        /* \"#utility.yul\":26954:26956   */\n      0x40\n        /* \"#utility.yul\":26943:26952   */\n      dup4\n        /* \"#utility.yul\":26939:26957   */\n      add\n        /* \"#utility.yul\":26930:26936   */\n      dup5\n        /* \"#utility.yul\":26886:26958   */\n      tag_388\n      jump\t// in\n    tag_708:\n        /* \"#utility.yul\":26523:26965   */\n      swap5\n      swap4\n      pop\n      pop\n      pop\n      pop\n      jump\t// out\n        /* \"#utility.yul\":26971:27151   */\n    tag_446:\n        /* \"#utility.yul\":27111:27143   */\n      0x5374616b696e673a20546f6b656e207472616e73666572206661696c65640000\n        /* \"#utility.yul\":27107:27108   */\n      0x00\n        /* \"#utility.yul\":27099:27105   */\n      dup3\n        /* \"#utility.yul\":27095:27109   */\n      add\n        /* \"#utility.yul\":27088:27144   */\n      mstore\n        /* \"#utility.yul\":26971:27151   */\n      pop\n      jump\t// out\n        /* \"#utility.yul\":27157:27523   */\n    tag_447:\n        /* \"#utility.yul\":27299:27302   */\n      0x00\n        /* \"#utility.yul\":27320:27387   */\n      tag_711\n        /* \"#utility.yul\":27384:27386   */\n      0x1e\n        /* \"#utility.yul\":27379:27382   */\n      dup4\n        /* \"#utility.yul\":27320:27387   */\n      tag_416\n      jump\t// in\n    tag_711:\n        /* \"#utility.yul\":27313:27387   */\n      swap2\n      pop\n        /* \"#utility.yul\":27396:27489   */\n      tag_712\n        /* \"#utility.yul\":27485:27488   */\n      dup3\n        /* \"#utility.yul\":27396:27489   */\n      tag_446\n      jump\t// in\n    tag_712:\n        /* \"#utility.yul\":27514:27516   */\n      0x20\n        /* \"#utility.yul\":27509:27512   */\n      dup3\n        /* \"#utility.yul\":27505:27517   */\n      add\n        /* \"#utility.yul\":27498:27517   */\n      swap1\n      pop\n        /* \"#utility.yul\":27157:27523   */\n      swap2\n      swap1\n      pop\n      jump\t// out\n        /* \"#utility.yul\":27529:27948   */\n    tag_361:\n        /* \"#utility.yul\":27695:27699   */\n      0x00\n        /* \"#utility.yul\":27733:27735   */\n      0x20\n        /* \"#utility.yul\":27722:27731   */\n      dup3\n        /* \"#utility.yul\":27718:27736   */\n      add\n        /* \"#utility.yul\":27710:27736   */\n      swap1\n      pop\n        /* \"#utility.yul\":27782:27791   */\n      dup2\n        /* \"#utility.yul\":27776:27780   */\n      dup2\n        /* \"#utility.yul\":27772:27792   */\n      sub\n        /* \"#utility.yul\":27768:27769   */\n      0x00\n        /* \"#utility.yul\":27757:27766   */\n      dup4\n        /* \"#utility.yul\":27753:27770   */\n      add\n        /* \"#utility.yul\":27746:27793   */\n      mstore\n        /* \"#utility.yul\":27810:27941   */\n      tag_714\n        /* \"#utility.yul\":27936:27940   */\n      dup2\n        /* \"#utility.yul\":27810:27941   */\n      tag_447\n      jump\t// in\n    tag_714:\n        /* \"#utility.yul\":27802:27941   */\n      swap1\n      pop\n        /* \"#utility.yul\":27529:27948   */\n      swap2\n      swap1\n      pop\n      jump\t// out\n        /* \"#utility.yul\":27954:28121   */\n    tag_448:\n        /* \"#utility.yul\":28094:28113   */\n      0x5374616b65206578636565647320636170000000000000000000000000000000\n        /* \"#utility.yul\":28090:28091   */\n      0x00\n        /* \"#utility.yul\":28082:28088   */\n      dup3\n        /* \"#utility.yul\":28078:28092   */\n      add\n        /* \"#utility.yul\":28071:28114   */\n      mstore\n        /* \"#utility.yul\":27954:28121   */\n      pop\n      jump\t// out\n        /* \"#utility.yul\":28127:28493   */\n    tag_449:\n        /* \"#utility.yul\":28269:28272   */\n      0x00\n        /* \"#utility.yul\":28290:28357   */\n      tag_717\n        /* \"#utility.yul\":28354:28356   */\n      0x11\n        /* \"#utility.yul\":28349:28352   */\n      dup4\n        /* \"#utility.yul\":28290:28357   */\n      tag_416\n      jump\t// in\n    tag_717:\n        /* \"#utility.yul\":28283:28357   */\n      swap2\n      pop\n        /* \"#utility.yul\":28366:28459   */\n      tag_718\n        /* \"#utility.yul\":28455:28458   */\n      dup3\n        /* \"#utility.yul\":28366:28459   */\n      tag_448\n      jump\t// in\n    tag_718:\n        /* \"#utility.yul\":28484:28486   */\n      0x20\n        /* \"#utility.yul\":28479:28482   */\n      dup3\n        /* \"#utility.yul\":28475:28487   */\n      add\n        /* \"#utility.yul\":28468:28487   */\n      swap1\n      pop\n        /* \"#utility.yul\":28127:28493   */\n      swap2\n      swap1\n      pop\n      jump\t// out\n        /* \"#utility.yul\":28499:28918   */\n    tag_366:\n        /* \"#utility.yul\":28665:28669   */\n      0x00\n        /* \"#utility.yul\":28703:28705   */\n      0x20\n        /* \"#utility.yul\":28692:28701   */\n      dup3\n        /* \"#utility.yul\":28688:28706   */\n      add\n        /* \"#utility.yul\":28680:28706   */\n      swap1\n      pop\n        /* \"#utility.yul\":28752:28761   */\n      dup2\n        /* \"#utility.yul\":28746:28750   */\n      dup2\n        /* \"#utility.yul\":28742:28762   */\n      sub\n        /* \"#utility.yul\":28738:28739   */\n      0x00\n        /* \"#utility.yul\":28727:28736   */\n      dup4\n        /* \"#utility.yul\":28723:28740   */\n      add\n        /* \"#utility.yul\":28716:28763   */\n      mstore\n        /* \"#utility.yul\":28780:28911   */\n      tag_720\n        /* \"#utility.yul\":28906:28910   */\n      dup2\n        /* \"#utility.yul\":28780:28911   */\n      tag_449\n      jump\t// in\n    tag_720:\n        /* \"#utility.yul\":28772:28911   */\n      swap1\n      pop\n        /* \"#utility.yul\":28499:28918   */\n      swap2\n      swap1\n      pop\n      jump\t// out\n        /* \"#utility.yul\":28924:29256   */\n    tag_374:\n        /* \"#utility.yul\":29045:29049   */\n      0x00\n        /* \"#utility.yul\":29083:29085   */\n      0x40\n        /* \"#utility.yul\":29072:29081   */\n      dup3\n        /* \"#utility.yul\":29068:29086   */\n      add\n        /* \"#utility.yul\":29060:29086   */\n      swap1\n      pop\n        /* \"#utility.yul\":29096:29167   */\n      tag_722\n        /* \"#utility.yul\":29164:29165   */\n      0x00\n        /* \"#utility.yul\":29153:29162   */\n      dup4\n        /* \"#utility.yul\":29149:29166   */\n      add\n        /* \"#utility.yul\":29140:29146   */\n      dup6\n        /* \"#utility.yul\":29096:29167   */\n      tag_420\n      jump\t// in\n    tag_722:\n        /* \"#utility.yul\":29177:29249   */\n      tag_723\n        /* \"#utility.yul\":29245:29247   */\n      0x20\n        /* \"#utility.yul\":29234:29243   */\n      dup4\n        /* \"#utility.yul\":29230:29248   */\n      add\n        /* \"#utility.yul\":29221:29227   */\n      dup5\n        /* \"#utility.yul\":29177:29249   */\n      tag_395\n      jump\t// in\n    tag_723:\n        /* \"#utility.yul\":28924:29256   */\n      swap4\n      swap3\n      pop\n      pop\n      pop\n      jump\t// out\n\n    auxdata: 0xa26469706673582212206bee125c14226d1e1a099dd96a68b0a5d518e378148ea4d36e67fa71451b6e3864736f6c634300081a0033\n}\n",
				"bytecode": {
					"linkReferences": {},
					"object": "608060405234801561000f575f80fd5b50604051612b55380380612b5583398181016040528101906100319190610285565b600180819055508360025f6101000a81548173ffffffffffffffffffffffffffffffffffffffff021916908373ffffffffffffffffffffffffffffffffffffffff1602179055508160035f6101000a81548173ffffffffffffffffffffffffffffffffffffffff021916908373ffffffffffffffffffffffffffffffffffffffff1602179055508060045f6101000a81548173ffffffffffffffffffffffffffffffffffffffff021916908373ffffffffffffffffffffffffffffffffffffffff1602179055506602d79883d200006005819055504360068190555082600981905550604051806060016040528066038d7ea4c6800081526020016601c6bf52634000815260200165b5e620f48000815250600a5f820151815f01556020820151816001015560408201518160020155905050505050506102e9565b5f80fd5b5f73ffffffffffffffffffffffffffffffffffffffff82169050919050565b5f61019a82610171565b9050919050565b5f6101ab82610190565b9050919050565b6101bb816101a1565b81146101c5575f80fd5b50565b5f815190506101d6816101b2565b92915050565b5f819050919050565b6101ee816101dc565b81146101f8575f80fd5b50565b5f81519050610209816101e5565b92915050565b5f61021982610190565b9050919050565b6102298161020f565b8114610233575f80fd5b50565b5f8151905061024481610220565b92915050565b5f61025482610190565b9050919050565b6102648161024a565b811461026e575f80fd5b50565b5f8151905061027f8161025b565b92915050565b5f805f806080858703121561029d5761029c61016d565b5b5f6102aa878288016101c8565b94505060206102bb878288016101fb565b93505060406102cc87828801610236565b92505060606102dd87828801610271565b91505092959194509250565b61285f806102f65f395ff3fe608060405234801561000f575f80fd5b50600436106101ee575f3560e01c8063817b1cd21161010d578063a694fc3a116100a0578063f2d57adf1161006f578063f2d57adf14610581578063f56e9c661461059d578063fc0c546a146105b9578063fdf553cf146105d7576101ee565b8063a694fc3a1461050f578063b0ad08df1461052b578063b2f196f614610549578063d547741f14610565576101ee565b806391d14854116100dc57806391d1485414610485578063a217fddf146104b5578063a218141b146104d3578063a56bef5d146104f1576101ee565b8063817b1cd2146103fb578063817c8966146104195780638d580b9f146104495780639087049214610467576101ee565b80632e97766d1161018557806341f431fd1161015457806341f431fd1461038757806347ccca02146103a357806348132f48146103c157806351557289146103dd576101ee565b80632e97766d146103275780632f2ff15d1461034557806336568abe14610361578063372500ab1461037d576101ee565b8063144fa6d7116101c1578063144fa6d71461028e5780631959a002146102aa578063248a9ca3146102db5780632e17de781461030b576101ee565b806301ffc9a7146101f2578063097aad10146102225780630b433a12146102525780630e15561a14610270575b5f80fd5b61020c60048036038101906102079190611a33565b6105f7565b6040516102199190611a78565b60405180910390f35b61023c60048036038101906102379190611aeb565b610670565b6040516102499190611b2e565b60405180910390f35b61025a610770565b6040516102679190611b2e565b60405180910390f35b610278610776565b6040516102859190611b2e565b60405180910390f35b6102a860048036038101906102a39190611b82565b61077c565b005b6102c460048036038101906102bf9190611aeb565b6107f8565b6040516102d2929190611bad565b60405180910390f35b6102f560048036038101906102f09190611c07565b610818565b6040516103029190611c41565b60405180910390f35b61032560048036038101906103209190611c84565b610834565b005b61032f610850565b60405161033c9190611b2e565b60405180910390f35b61035f600480360381019061035a9190611caf565b61085c565b005b61037b60048036038101906103769190611caf565b61087e565b005b6103856108f9565b005b6103a1600480360381019061039c9190611d28565b61091b565b005b6103ab6109e5565b6040516103b89190611dd3565b60405180910390f35b6103db60048036038101906103d69190611e27565b610a0a565b005b6103e5610a9b565b6040516103f29190611c41565b60405180910390f35b610403610abf565b6040516104109190611b2e565b60405180910390f35b610433600480360381019061042e9190611aeb565b610ac5565b6040516104409190611b2e565b60405180910390f35b610451610b66565b60405161045e9190611c41565b60405180910390f35b61046f610b8a565b60405161047c9190611b2e565b60405180910390f35b61049f600480360381019061049a9190611caf565b610b90565b6040516104ac9190611a78565b60405180910390f35b6104bd610bf3565b6040516104ca9190611c41565b60405180910390f35b6104db610bf9565b6040516104e89190611b2e565b60405180910390f35b6104f9610bff565b6040516105069190611c41565b60405180910390f35b61052960048036038101906105249190611c84565b610c23565b005b610533610c3f565b6040516105409190611e85565b60405180910390f35b610563600480360381019061055e9190611c84565b610c64565b005b61057f600480360381019061057a9190611caf565b610cf0565b005b61059b60048036038101906105969190611c84565b610d12565b005b6105b760048036038101906105b29190611ed9565b610d55565b005b6105c1610dd1565b6040516105ce9190611f24565b60405180910390f35b6105df610df6565b6040516105ee93929190611f3d565b60405180910390f35b5f7f7965db0b000000000000000000000000000000000000000000000000000000007bffffffffffffffffffffffffffffffffffffffffffffffffffffffff1916827bffffffffffffffffffffffffffffffffffffffffffffffffffffffff19161480610669575061066882610e0d565b5b9050919050565b5f8061067b83610ac5565b90505f6001820361069257600a5f015490506106f9565b600282036106a757600a6001015490506106f8565b600382036106bc57600a6002015490506106f7565b6040517f08c379a00000000000000000000000000000000000000000000000000000000081526004016106ee90611fcc565b60405180910390fd5b5b5b5f600d5f8673ffffffffffffffffffffffffffffffffffffffff1673ffffffffffffffffffffffffffffffffffffffff1681526020019081526020015f2060010154436107469190612017565b90505f8183600554610758919061204a565b610762919061207d565b905080945050505050919050565b60095481565b60085481565b6107ad7fae6c2fc584631af4c9385b8a55683f1a75c813747e27efef5afece31c6b230d36107a8610e76565b610b90565b6107b5575f80fd5b8060025f6101000a81548173ffffffffffffffffffffffffffffffffffffffff021916908373ffffffffffffffffffffffffffffffffffffffff16021790555050565b600d602052805f5260405f205f91509050805f0154908060010154905082565b5f805f8381526020019081526020015f20600101549050919050565b61083c610e7d565b61084581610ecc565b61084d61116b565b50565b5f804390508091505090565b61086582610818565b61086e81611174565b6108788383611188565b50505050565b610886610e76565b73ffffffffffffffffffffffffffffffffffffffff168173ffffffffffffffffffffffffffffffffffffffff16146108ea576040517f6697b23200000000000000000000000000000000000000000000000000000000815260040160405180910390fd5b6108f48282611271565b505050565b610901610e7d565b61091161090c610e76565b61135a565b61091961116b565b565b610923610e7d565b6109547f508f8f8be8f5dbcb88f4f4500430b8b3684c471ed936f31fea912c78ad46a6b961094f610e76565b610b90565b61095c575f80fd5b8273ffffffffffffffffffffffffffffffffffffffff1663a9059cbb83836040518363ffffffff1660e01b81526004016109979291906120cd565b6020604051808303815f875af11580156109b3573d5f803e3d5ffd5b505050506040513d601f19601f820116820180604052508101906109d7919061211e565b506109e061116b565b505050565b60035f9054906101000a900473ffffffffffffffffffffffffffffffffffffffff1681565b610a12610e7d565b610a437f508f8f8be8f5dbcb88f4f4500430b8b3684c471ed936f31fea912c78ad46a6b9610a3e610e76565b610b90565b610a4b575f80fd5b8173ffffffffffffffffffffffffffffffffffffffff166108fc8290811502906040515f60405180830381858888f19350505050158015610a8e573d5f803e3d5ffd5b50610a9761116b565b5050565b7fae6c2fc584631af4c9385b8a55683f1a75c813747e27efef5afece31c6b230d381565b60075481565b5f60045f9054906101000a900473ffffffffffffffffffffffffffffffffffffffff1673ffffffffffffffffffffffffffffffffffffffff16631ab0d49e836040518263ffffffff1660e01b8152600401610b209190612149565b602060405180830381865afa158015610b3b573d5f803e3d5ffd5b505050506040513d601f19601f82011682018060405250810190610b5f9190612176565b9050919050565b7f508f8f8be8f5dbcb88f4f4500430b8b3684c471ed936f31fea912c78ad46a6b981565b60055481565b5f805f8481526020019081526020015f205f015f8373ffffffffffffffffffffffffffffffffffffffff1673ffffffffffffffffffffffffffffffffffffffff1681526020019081526020015f205f9054906101000a900460ff16905092915050565b5f801b81565b60065481565b7f8c342c7aca7f35847406e6353e35c5762132fa3e958179931981d120af75dfb281565b610c2b610e7d565b610c348161157e565b610c3c61116b565b50565b60045f9054906101000a900473ffffffffffffffffffffffffffffffffffffffff1681565b5f8111610ca6576040517f08c379a0000000000000000000000000000000000000000000000000000000008152600401610c9d906121eb565b60405180910390fd5b610cd77fae6c2fc584631af4c9385b8a55683f1a75c813747e27efef5afece31c6b230d3610cd2610e76565b610b90565b610cdf575f80fd5b806005819055504360068190555050565b610cf982610818565b610d0281611174565b610d0c8383611271565b50505050565b610d437fae6c2fc584631af4c9385b8a55683f1a75c813747e27efef5afece31c6b230d3610d3e610e76565b610b90565b610d4b575f80fd5b8060098190555050565b610d867fae6c2fc584631af4c9385b8a55683f1a75c813747e27efef5afece31c6b230d3610d81610e76565b610b90565b610d8e575f80fd5b8060035f6101000a81548173ffffffffffffffffffffffffffffffffffffffff021916908373ffffffffffffffffffffffffffffffffffffffff16021790555050565b60025f9054906101000a900473ffffffffffffffffffffffffffffffffffffffff1681565b600a805f0154908060010154908060020154905083565b5f7f01ffc9a7000000000000000000000000000000000000000000000000000000007bffffffffffffffffffffffffffffffffffffffffffffffffffffffff1916827bffffffffffffffffffffffffffffffffffffffffffffffffffffffff1916149050919050565b5f33905090565b600260015403610ec2576040517f08c379a0000000000000000000000000000000000000000000000000000000008152600401610eb990612253565b60405180910390fd5b6002600181905550565b5f600d5f610ed8610e76565b73ffffffffffffffffffffffffffffffffffffffff1673ffffffffffffffffffffffffffffffffffffffff1681526020019081526020015f2090505f8211610f55576040517f08c379a0000000000000000000000000000000000000000000000000000000008152600401610f4c906122e1565b60405180910390fd5b81815f01541015610f9b576040517f08c379a0000000000000000000000000000000000000000000000000000000008152600401610f929061236f565b60405180910390fd5b6009548160010154610fad919061204a565b431015610fef576040517f08c379a0000000000000000000000000000000000000000000000000000000008152600401610fe6906123fd565b60405180910390fd5b610fff610ffa610e76565b61135a565b81815f015f8282546110119190612017565b925050819055508160075f8282546110299190612017565b9250508190555060025f9054906101000a900473ffffffffffffffffffffffffffffffffffffffff1673ffffffffffffffffffffffffffffffffffffffff1663a9059cbb611075610e76565b846040518363ffffffff1660e01b81526004016110939291906120cd565b6020604051808303815f875af11580156110af573d5f803e3d5ffd5b505050506040513d601f19601f820116820180604052508101906110d3919061211e565b611112576040517f08c379a00000000000000000000000000000000000000000000000000000000081526004016111099061248b565b60405180910390fd5b61111a610e76565b73ffffffffffffffffffffffffffffffffffffffff167f0f5bb82176feb1b5e747e28471aa92156a04d9f3ab9f45f28e2d704232b93f758360405161115f9190611b2e565b60405180910390a25050565b60018081905550565b61118581611180610e76565b611989565b50565b5f6111938383610b90565b6112675760015f808581526020019081526020015f205f015f8473ffffffffffffffffffffffffffffffffffffffff1673ffffffffffffffffffffffffffffffffffffffff1681526020019081526020015f205f6101000a81548160ff021916908315150217905550611204610e76565b73ffffffffffffffffffffffffffffffffffffffff168273ffffffffffffffffffffffffffffffffffffffff16847f2f8788117e7eff1d82e926ec794901d17c78024a50270940304540a733656f0d60405160405180910390a46001905061126b565b5f90505b92915050565b5f61127c8383610b90565b15611350575f805f8581526020019081526020015f205f015f8473ffffffffffffffffffffffffffffffffffffffff1673ffffffffffffffffffffffffffffffffffffffff1681526020019081526020015f205f6101000a81548160ff0219169083151502179055506112ed610e76565b73ffffffffffffffffffffffffffffffffffffffff168273ffffffffffffffffffffffffffffffffffffffff16847ff6391f5c32d9c69d2a47ea670b442974b53935d1edc7fd64eb21e047a839171b60405160405180910390a460019050611354565b5f90505b92915050565b5f600d5f8373ffffffffffffffffffffffffffffffffffffffff1673ffffffffffffffffffffffffffffffffffffffff1681526020019081526020015f2090505f815f0154116113df576040517f08c379a00000000000000000000000000000000000000000000000000000000081526004016113d6906124f3565b60405180910390fd5b60095481600101546113f1919061204a565b431015611433576040517f08c379a000000000000000000000000000000000000000000000000000000000815260040161142a906123fd565b60405180910390fd5b5f61143d83610670565b90505f8111611481576040517f08c379a000000000000000000000000000000000000000000000000000000000815260040161147890612581565b60405180910390fd5b4382600101819055508060085f82825461149b919061204a565b9250508190555060025f9054906101000a900473ffffffffffffffffffffffffffffffffffffffff1673ffffffffffffffffffffffffffffffffffffffff1663449a52f884836040518363ffffffff1660e01b81526004016114fe9291906120cd565b5f604051808303815f87803b158015611515575f80fd5b505af1158015611527573d5f803e3d5ffd5b505050508273ffffffffffffffffffffffffffffffffffffffff167f2d5429efdeca7741a8cd94067b18d988bc4e5f1d5b8272c37b7bfc31e9bfa32c826040516115719190611b2e565b60405180910390a2505050565b5f81116115c0576040517f08c379a00000000000000000000000000000000000000000000000000000000081526004016115b79061260f565b60405180910390fd5b5f60035f9054906101000a900473ffffffffffffffffffffffffffffffffffffffff1673ffffffffffffffffffffffffffffffffffffffff166370a08231611606610e76565b6040518263ffffffff1660e01b81526004016116229190612149565b602060405180830381865afa15801561163d573d5f803e3d5ffd5b505050506040513d601f19601f820116820180604052508101906116619190612176565b116116a1576040517f08c379a000000000000000000000000000000000000000000000000000000000815260040161169890612677565b60405180910390fd5b60025f9054906101000a900473ffffffffffffffffffffffffffffffffffffffff1673ffffffffffffffffffffffffffffffffffffffff1663095ea7b330836040518363ffffffff1660e01b81526004016116fd9291906120cd565b6020604051808303815f875af1158015611719573d5f803e3d5ffd5b505050506040513d601f19601f8201168201806040525081019061173d919061211e565b61177c576040517f08c379a0000000000000000000000000000000000000000000000000000000008152600401611773906126df565b60405180910390fd5b60025f9054906101000a900473ffffffffffffffffffffffffffffffffffffffff1673ffffffffffffffffffffffffffffffffffffffff166323b872dd6117c1610e76565b30846040518463ffffffff1660e01b81526004016117e1939291906126fd565b6020604051808303815f875af11580156117fd573d5f803e3d5ffd5b505050506040513d601f19601f82011682018060405250810190611821919061211e565b611860576040517f08c379a00000000000000000000000000000000000000000000000000000000081526004016118579061277c565b60405180910390fd5b5f600d5f61186c610e76565b73ffffffffffffffffffffffffffffffffffffffff1673ffffffffffffffffffffffffffffffffffffffff1681526020019081526020015f20905081815f015f8282546118b9919061204a565b9250508190555068056bc75e2d63100000815f0154111561190f576040517f08c379a0000000000000000000000000000000000000000000000000000000008152600401611906906127e4565b60405180910390fd5b8160075f828254611920919061204a565b92505081905550438160010181905550611938610e76565b73ffffffffffffffffffffffffffffffffffffffff167f9e71bc8eea02a63969f509818f2dafb9254532904319f9dbda79b67bd34a5f3d8360405161197d9190611b2e565b60405180910390a25050565b6119938282610b90565b6119d65780826040517fe2517d3f0000000000000000000000000000000000000000000000000000000081526004016119cd929190612802565b60405180910390fd5b5050565b5f80fd5b5f7fffffffff0000000000000000000000000000000000000000000000000000000082169050919050565b611a12816119de565b8114611a1c575f80fd5b50565b5f81359050611a2d81611a09565b92915050565b5f60208284031215611a4857611a476119da565b5b5f611a5584828501611a1f565b91505092915050565b5f8115159050919050565b611a7281611a5e565b82525050565b5f602082019050611a8b5f830184611a69565b92915050565b5f73ffffffffffffffffffffffffffffffffffffffff82169050919050565b5f611aba82611a91565b9050919050565b611aca81611ab0565b8114611ad4575f80fd5b50565b5f81359050611ae581611ac1565b92915050565b5f60208284031215611b0057611aff6119da565b5b5f611b0d84828501611ad7565b91505092915050565b5f819050919050565b611b2881611b16565b82525050565b5f602082019050611b415f830184611b1f565b92915050565b5f611b5182611ab0565b9050919050565b611b6181611b47565b8114611b6b575f80fd5b50565b5f81359050611b7c81611b58565b92915050565b5f60208284031215611b9757611b966119da565b5b5f611ba484828501611b6e565b91505092915050565b5f604082019050611bc05f830185611b1f565b611bcd6020830184611b1f565b9392505050565b5f819050919050565b611be681611bd4565b8114611bf0575f80fd5b50565b5f81359050611c0181611bdd565b92915050565b5f60208284031215611c1c57611c1b6119da565b5b5f611c2984828501611bf3565b91505092915050565b611c3b81611bd4565b82525050565b5f602082019050611c545f830184611c32565b92915050565b611c6381611b16565b8114611c6d575f80fd5b50565b5f81359050611c7e81611c5a565b92915050565b5f60208284031215611c9957611c986119da565b5b5f611ca684828501611c70565b91505092915050565b5f8060408385031215611cc557611cc46119da565b5b5f611cd285828601611bf3565b9250506020611ce385828601611ad7565b9150509250929050565b5f611cf782611ab0565b9050919050565b611d0781611ced565b8114611d11575f80fd5b50565b5f81359050611d2281611cfe565b92915050565b5f805f60608486031215611d3f57611d3e6119da565b5b5f611d4c86828701611d14565b9350506020611d5d86828701611ad7565b9250506040611d6e86828701611c70565b9150509250925092565b5f819050919050565b5f611d9b611d96611d9184611a91565b611d78565b611a91565b9050919050565b5f611dac82611d81565b9050919050565b5f611dbd82611da2565b9050919050565b611dcd81611db3565b82525050565b5f602082019050611de65f830184611dc4565b92915050565b5f611df682611a91565b9050919050565b611e0681611dec565b8114611e10575f80fd5b50565b5f81359050611e2181611dfd565b92915050565b5f8060408385031215611e3d57611e3c6119da565b5b5f611e4a85828601611e13565b9250506020611e5b85828601611c70565b9150509250929050565b5f611e6f82611da2565b9050919050565b611e7f81611e65565b82525050565b5f602082019050611e985f830184611e76565b92915050565b5f611ea882611ab0565b9050919050565b611eb881611e9e565b8114611ec2575f80fd5b50565b5f81359050611ed381611eaf565b92915050565b5f60208284031215611eee57611eed6119da565b5b5f611efb84828501611ec5565b91505092915050565b5f611f0e82611da2565b9050919050565b611f1e81611f04565b82525050565b5f602082019050611f375f830184611f15565b92915050565b5f606082019050611f505f830186611b1f565b611f5d6020830185611b1f565b611f6a6040830184611b1f565b949350505050565b5f82825260208201905092915050565b7f4e6f204e4654204c6576656c00000000000000000000000000000000000000005f82015250565b5f611fb6600c83611f72565b9150611fc182611f82565b602082019050919050565b5f6020820190508181035f830152611fe381611faa565b9050919050565b7f4e487b71000000000000000000000000000000000000000000000000000000005f52601160045260245ffd5b5f61202182611b16565b915061202c83611b16565b925082820390508181111561204457612043611fea565b5b92915050565b5f61205482611b16565b915061205f83611b16565b925082820190508082111561207757612076611fea565b5b92915050565b5f61208782611b16565b915061209283611b16565b92508282026120a081611b16565b915082820484148315176120b7576120b6611fea565b5b5092915050565b6120c781611ab0565b82525050565b5f6040820190506120e05f8301856120be565b6120ed6020830184611b1f565b9392505050565b6120fd81611a5e565b8114612107575f80fd5b50565b5f81519050612118816120f4565b92915050565b5f60208284031215612133576121326119da565b5b5f6121408482850161210a565b91505092915050565b5f60208201905061215c5f8301846120be565b92915050565b5f8151905061217081611c5a565b92915050565b5f6020828403121561218b5761218a6119da565b5b5f61219884828501612162565b91505092915050565b7f5265776172642072617465206d75737420626520706f736974697665000000005f82015250565b5f6121d5601c83611f72565b91506121e0826121a1565b602082019050919050565b5f6020820190508181035f830152612202816121c9565b9050919050565b7f5265656e7472616e637947756172643a207265656e7472616e742063616c6c005f82015250565b5f61223d601f83611f72565b915061224882612209565b602082019050919050565b5f6020820190508181035f83015261226a81612231565b9050919050565b7f546f6b656e5374616b696e673a20416d6f756e74206d757374206265206772655f8201527f61746572207468616e2030000000000000000000000000000000000000000000602082015250565b5f6122cb602b83611f72565b91506122d682612271565b604082019050919050565b5f6020820190508181035f8301526122f8816122bf565b9050919050565b7f546f6b656e5374616b696e673a20496e73756666696369656e74207374616b655f8201527f642062616c616e63650000000000000000000000000000000000000000000000602082015250565b5f612359602983611f72565b9150612364826122ff565b604082019050919050565b5f6020820190508181035f8301526123868161234d565b9050919050565b7f546f6b656e5374616b696e673a20436c61696d20696e74657276616c206e6f745f8201527f206d657400000000000000000000000000000000000000000000000000000000602082015250565b5f6123e7602483611f72565b91506123f28261238d565b604082019050919050565b5f6020820190508181035f830152612414816123db565b9050919050565b7f546f6b656e5374616b696e673a20556e7374616b65207472616e7366657220665f8201527f61696c6564000000000000000000000000000000000000000000000000000000602082015250565b5f612475602583611f72565b91506124808261241b565b604082019050919050565b5f6020820190508181035f8301526124a281612469565b9050919050565b7f546f6b656e5374616b696e673a204e6f207374616b65642062616c616e6365005f82015250565b5f6124dd601f83611f72565b91506124e8826124a9565b602082019050919050565b5f6020820190508181035f83015261250a816124d1565b9050919050565b7f546f6b656e5374616b696e673a204e6f207265776172647320746f20636c61695f8201527f6d00000000000000000000000000000000000000000000000000000000000000602082015250565b5f61256b602183611f72565b915061257682612511565b604082019050919050565b5f6020820190508181035f8301526125988161255f565b9050919050565b7f5374616b696e673a20416d6f756e74206d7573742062652067726561746572205f8201527f7468616e20300000000000000000000000000000000000000000000000000000602082015250565b5f6125f9602683611f72565b91506126048261259f565b604082019050919050565b5f6020820190508181035f830152612626816125ed565b9050919050565b7f5374616b696e673a204e6f204e46542062616c616e63650000000000000000005f82015250565b5f612661601783611f72565b915061266c8261262d565b602082019050919050565b5f6020820190508181035f83015261268e81612655565b9050919050565b7f5374616b696e673a20417070726f76616c206661696c656400000000000000005f82015250565b5f6126c9601883611f72565b91506126d482612695565b602082019050919050565b5f6020820190508181035f8301526126f6816126bd565b9050919050565b5f6060820190506127105f8301866120be565b61271d60208301856120be565b61272a6040830184611b1f565b949350505050565b7f5374616b696e673a20546f6b656e207472616e73666572206661696c656400005f82015250565b5f612766601e83611f72565b915061277182612732565b602082019050919050565b5f6020820190508181035f8301526127938161275a565b9050919050565b7f5374616b652065786365656473206361700000000000000000000000000000005f82015250565b5f6127ce601183611f72565b91506127d98261279a565b602082019050919050565b5f6020820190508181035f8301526127fb816127c2565b9050919050565b5f6040820190506128155f8301856120be565b6128226020830184611c32565b939250505056fea26469706673582212206bee125c14226d1e1a099dd96a68b0a5d518e378148ea4d36e67fa71451b6e3864736f6c634300081a0033",
					"opcodes": "PUSH1 0x80 PUSH1 0x40 MSTORE CALLVALUE DUP1 ISZERO PUSH2 0xF JUMPI PUSH0 DUP1 REVERT JUMPDEST POP PUSH1 0x40 MLOAD PUSH2 0x2B55 CODESIZE SUB DUP1 PUSH2 0x2B55 DUP4 CODECOPY DUP2 DUP2 ADD PUSH1 0x40 MSTORE DUP2 ADD SWAP1 PUSH2 0x31 SWAP2 SWAP1 PUSH2 0x285 JUMP JUMPDEST PUSH1 0x1 DUP1 DUP2 SWAP1 SSTORE POP DUP4 PUSH1 0x2 PUSH0 PUSH2 0x100 EXP DUP2 SLOAD DUP2 PUSH20 0xFFFFFFFFFFFFFFFFFFFFFFFFFFFFFFFFFFFFFFFF MUL NOT AND SWAP1 DUP4 PUSH20 0xFFFFFFFFFFFFFFFFFFFFFFFFFFFFFFFFFFFFFFFF AND MUL OR SWAP1 SSTORE POP DUP2 PUSH1 0x3 PUSH0 PUSH2 0x100 EXP DUP2 SLOAD DUP2 PUSH20 0xFFFFFFFFFFFFFFFFFFFFFFFFFFFFFFFFFFFFFFFF MUL NOT AND SWAP1 DUP4 PUSH20 0xFFFFFFFFFFFFFFFFFFFFFFFFFFFFFFFFFFFFFFFF AND MUL OR SWAP1 SSTORE POP DUP1 PUSH1 0x4 PUSH0 PUSH2 0x100 EXP DUP2 SLOAD DUP2 PUSH20 0xFFFFFFFFFFFFFFFFFFFFFFFFFFFFFFFFFFFFFFFF MUL NOT AND SWAP1 DUP4 PUSH20 0xFFFFFFFFFFFFFFFFFFFFFFFFFFFFFFFFFFFFFFFF AND MUL OR SWAP1 SSTORE POP PUSH7 0x2D79883D20000 PUSH1 0x5 DUP2 SWAP1 SSTORE POP NUMBER PUSH1 0x6 DUP2 SWAP1 SSTORE POP DUP3 PUSH1 0x9 DUP2 SWAP1 SSTORE POP PUSH1 0x40 MLOAD DUP1 PUSH1 0x60 ADD PUSH1 0x40 MSTORE DUP1 PUSH7 0x38D7EA4C68000 DUP2 MSTORE PUSH1 0x20 ADD PUSH7 0x1C6BF52634000 DUP2 MSTORE PUSH1 0x20 ADD PUSH6 0xB5E620F48000 DUP2 MSTORE POP PUSH1 0xA PUSH0 DUP3 ADD MLOAD DUP2 PUSH0 ADD SSTORE PUSH1 0x20 DUP3 ADD MLOAD DUP2 PUSH1 0x1 ADD SSTORE PUSH1 0x40 DUP3 ADD MLOAD DUP2 PUSH1 0x2 ADD SSTORE SWAP1 POP POP POP POP POP POP PUSH2 0x2E9 JUMP JUMPDEST PUSH0 DUP1 REVERT JUMPDEST PUSH0 PUSH20 0xFFFFFFFFFFFFFFFFFFFFFFFFFFFFFFFFFFFFFFFF DUP3 AND SWAP1 POP SWAP2 SWAP1 POP JUMP JUMPDEST PUSH0 PUSH2 0x19A DUP3 PUSH2 0x171 JUMP JUMPDEST SWAP1 POP SWAP2 SWAP1 POP JUMP JUMPDEST PUSH0 PUSH2 0x1AB DUP3 PUSH2 0x190 JUMP JUMPDEST SWAP1 POP SWAP2 SWAP1 POP JUMP JUMPDEST PUSH2 0x1BB DUP2 PUSH2 0x1A1 JUMP JUMPDEST DUP2 EQ PUSH2 0x1C5 JUMPI PUSH0 DUP1 REVERT JUMPDEST POP JUMP JUMPDEST PUSH0 DUP2 MLOAD SWAP1 POP PUSH2 0x1D6 DUP2 PUSH2 0x1B2 JUMP JUMPDEST SWAP3 SWAP2 POP POP JUMP JUMPDEST PUSH0 DUP2 SWAP1 POP SWAP2 SWAP1 POP JUMP JUMPDEST PUSH2 0x1EE DUP2 PUSH2 0x1DC JUMP JUMPDEST DUP2 EQ PUSH2 0x1F8 JUMPI PUSH0 DUP1 REVERT JUMPDEST POP JUMP JUMPDEST PUSH0 DUP2 MLOAD SWAP1 POP PUSH2 0x209 DUP2 PUSH2 0x1E5 JUMP JUMPDEST SWAP3 SWAP2 POP POP JUMP JUMPDEST PUSH0 PUSH2 0x219 DUP3 PUSH2 0x190 JUMP JUMPDEST SWAP1 POP SWAP2 SWAP1 POP JUMP JUMPDEST PUSH2 0x229 DUP2 PUSH2 0x20F JUMP JUMPDEST DUP2 EQ PUSH2 0x233 JUMPI PUSH0 DUP1 REVERT JUMPDEST POP JUMP JUMPDEST PUSH0 DUP2 MLOAD SWAP1 POP PUSH2 0x244 DUP2 PUSH2 0x220 JUMP JUMPDEST SWAP3 SWAP2 POP POP JUMP JUMPDEST PUSH0 PUSH2 0x254 DUP3 PUSH2 0x190 JUMP JUMPDEST SWAP1 POP SWAP2 SWAP1 POP JUMP JUMPDEST PUSH2 0x264 DUP2 PUSH2 0x24A JUMP JUMPDEST DUP2 EQ PUSH2 0x26E JUMPI PUSH0 DUP1 REVERT JUMPDEST POP JUMP JUMPDEST PUSH0 DUP2 MLOAD SWAP1 POP PUSH2 0x27F DUP2 PUSH2 0x25B JUMP JUMPDEST SWAP3 SWAP2 POP POP JUMP JUMPDEST PUSH0 DUP1 PUSH0 DUP1 PUSH1 0x80 DUP6 DUP8 SUB SLT ISZERO PUSH2 0x29D JUMPI PUSH2 0x29C PUSH2 0x16D JUMP JUMPDEST JUMPDEST PUSH0 PUSH2 0x2AA DUP8 DUP3 DUP9 ADD PUSH2 0x1C8 JUMP JUMPDEST SWAP5 POP POP PUSH1 0x20 PUSH2 0x2BB DUP8 DUP3 DUP9 ADD PUSH2 0x1FB JUMP JUMPDEST SWAP4 POP POP PUSH1 0x40 PUSH2 0x2CC DUP8 DUP3 DUP9 ADD PUSH2 0x236 JUMP JUMPDEST SWAP3 POP POP PUSH1 0x60 PUSH2 0x2DD DUP8 DUP3 DUP9 ADD PUSH2 0x271 JUMP JUMPDEST SWAP2 POP POP SWAP3 SWAP6 SWAP2 SWAP5 POP SWAP3 POP JUMP JUMPDEST PUSH2 0x285F DUP1 PUSH2 0x2F6 PUSH0 CODECOPY PUSH0 RETURN INVALID PUSH1 0x80 PUSH1 0x40 MSTORE CALLVALUE DUP1 ISZERO PUSH2 0xF JUMPI PUSH0 DUP1 REVERT JUMPDEST POP PUSH1 0x4 CALLDATASIZE LT PUSH2 0x1EE JUMPI PUSH0 CALLDATALOAD PUSH1 0xE0 SHR DUP1 PUSH4 0x817B1CD2 GT PUSH2 0x10D JUMPI DUP1 PUSH4 0xA694FC3A GT PUSH2 0xA0 JUMPI DUP1 PUSH4 0xF2D57ADF GT PUSH2 0x6F JUMPI DUP1 PUSH4 0xF2D57ADF EQ PUSH2 0x581 JUMPI DUP1 PUSH4 0xF56E9C66 EQ PUSH2 0x59D JUMPI DUP1 PUSH4 0xFC0C546A EQ PUSH2 0x5B9 JUMPI DUP1 PUSH4 0xFDF553CF EQ PUSH2 0x5D7 JUMPI PUSH2 0x1EE JUMP JUMPDEST DUP1 PUSH4 0xA694FC3A EQ PUSH2 0x50F JUMPI DUP1 PUSH4 0xB0AD08DF EQ PUSH2 0x52B JUMPI DUP1 PUSH4 0xB2F196F6 EQ PUSH2 0x549 JUMPI DUP1 PUSH4 0xD547741F EQ PUSH2 0x565 JUMPI PUSH2 0x1EE JUMP JUMPDEST DUP1 PUSH4 0x91D14854 GT PUSH2 0xDC JUMPI DUP1 PUSH4 0x91D14854 EQ PUSH2 0x485 JUMPI DUP1 PUSH4 0xA217FDDF EQ PUSH2 0x4B5 JUMPI DUP1 PUSH4 0xA218141B EQ PUSH2 0x4D3 JUMPI DUP1 PUSH4 0xA56BEF5D EQ PUSH2 0x4F1 JUMPI PUSH2 0x1EE JUMP JUMPDEST DUP1 PUSH4 0x817B1CD2 EQ PUSH2 0x3FB JUMPI DUP1 PUSH4 0x817C8966 EQ PUSH2 0x419 JUMPI DUP1 PUSH4 0x8D580B9F EQ PUSH2 0x449 JUMPI DUP1 PUSH4 0x90870492 EQ PUSH2 0x467 JUMPI PUSH2 0x1EE JUMP JUMPDEST DUP1 PUSH4 0x2E97766D GT PUSH2 0x185 JUMPI DUP1 PUSH4 0x41F431FD GT PUSH2 0x154 JUMPI DUP1 PUSH4 0x41F431FD EQ PUSH2 0x387 JUMPI DUP1 PUSH4 0x47CCCA02 EQ PUSH2 0x3A3 JUMPI DUP1 PUSH4 0x48132F48 EQ PUSH2 0x3C1 JUMPI DUP1 PUSH4 0x51557289 EQ PUSH2 0x3DD JUMPI PUSH2 0x1EE JUMP JUMPDEST DUP1 PUSH4 0x2E97766D EQ PUSH2 0x327 JUMPI DUP1 PUSH4 0x2F2FF15D EQ PUSH2 0x345 JUMPI DUP1 PUSH4 0x36568ABE EQ PUSH2 0x361 JUMPI DUP1 PUSH4 0x372500AB EQ PUSH2 0x37D JUMPI PUSH2 0x1EE JUMP JUMPDEST DUP1 PUSH4 0x144FA6D7 GT PUSH2 0x1C1 JUMPI DUP1 PUSH4 0x144FA6D7 EQ PUSH2 0x28E JUMPI DUP1 PUSH4 0x1959A002 EQ PUSH2 0x2AA JUMPI DUP1 PUSH4 0x248A9CA3 EQ PUSH2 0x2DB JUMPI DUP1 PUSH4 0x2E17DE78 EQ PUSH2 0x30B JUMPI PUSH2 0x1EE JUMP JUMPDEST DUP1 PUSH4 0x1FFC9A7 EQ PUSH2 0x1F2 JUMPI DUP1 PUSH4 0x97AAD10 EQ PUSH2 0x222 JUMPI DUP1 PUSH4 0xB433A12 EQ PUSH2 0x252 JUMPI DUP1 PUSH4 0xE15561A EQ PUSH2 0x270 JUMPI JUMPDEST PUSH0 DUP1 REVERT JUMPDEST PUSH2 0x20C PUSH1 0x4 DUP1 CALLDATASIZE SUB DUP2 ADD SWAP1 PUSH2 0x207 SWAP2 SWAP1 PUSH2 0x1A33 JUMP JUMPDEST PUSH2 0x5F7 JUMP JUMPDEST PUSH1 0x40 MLOAD PUSH2 0x219 SWAP2 SWAP1 PUSH2 0x1A78 JUMP JUMPDEST PUSH1 0x40 MLOAD DUP1 SWAP2 SUB SWAP1 RETURN JUMPDEST PUSH2 0x23C PUSH1 0x4 DUP1 CALLDATASIZE SUB DUP2 ADD SWAP1 PUSH2 0x237 SWAP2 SWAP1 PUSH2 0x1AEB JUMP JUMPDEST PUSH2 0x670 JUMP JUMPDEST PUSH1 0x40 MLOAD PUSH2 0x249 SWAP2 SWAP1 PUSH2 0x1B2E JUMP JUMPDEST PUSH1 0x40 MLOAD DUP1 SWAP2 SUB SWAP1 RETURN JUMPDEST PUSH2 0x25A PUSH2 0x770 JUMP JUMPDEST PUSH1 0x40 MLOAD PUSH2 0x267 SWAP2 SWAP1 PUSH2 0x1B2E JUMP JUMPDEST PUSH1 0x40 MLOAD DUP1 SWAP2 SUB SWAP1 RETURN JUMPDEST PUSH2 0x278 PUSH2 0x776 JUMP JUMPDEST PUSH1 0x40 MLOAD PUSH2 0x285 SWAP2 SWAP1 PUSH2 0x1B2E JUMP JUMPDEST PUSH1 0x40 MLOAD DUP1 SWAP2 SUB SWAP1 RETURN JUMPDEST PUSH2 0x2A8 PUSH1 0x4 DUP1 CALLDATASIZE SUB DUP2 ADD SWAP1 PUSH2 0x2A3 SWAP2 SWAP1 PUSH2 0x1B82 JUMP JUMPDEST PUSH2 0x77C JUMP JUMPDEST STOP JUMPDEST PUSH2 0x2C4 PUSH1 0x4 DUP1 CALLDATASIZE SUB DUP2 ADD SWAP1 PUSH2 0x2BF SWAP2 SWAP1 PUSH2 0x1AEB JUMP JUMPDEST PUSH2 0x7F8 JUMP JUMPDEST PUSH1 0x40 MLOAD PUSH2 0x2D2 SWAP3 SWAP2 SWAP1 PUSH2 0x1BAD JUMP JUMPDEST PUSH1 0x40 MLOAD DUP1 SWAP2 SUB SWAP1 RETURN JUMPDEST PUSH2 0x2F5 PUSH1 0x4 DUP1 CALLDATASIZE SUB DUP2 ADD SWAP1 PUSH2 0x2F0 SWAP2 SWAP1 PUSH2 0x1C07 JUMP JUMPDEST PUSH2 0x818 JUMP JUMPDEST PUSH1 0x40 MLOAD PUSH2 0x302 SWAP2 SWAP1 PUSH2 0x1C41 JUMP JUMPDEST PUSH1 0x40 MLOAD DUP1 SWAP2 SUB SWAP1 RETURN JUMPDEST PUSH2 0x325 PUSH1 0x4 DUP1 CALLDATASIZE SUB DUP2 ADD SWAP1 PUSH2 0x320 SWAP2 SWAP1 PUSH2 0x1C84 JUMP JUMPDEST PUSH2 0x834 JUMP JUMPDEST STOP JUMPDEST PUSH2 0x32F PUSH2 0x850 JUMP JUMPDEST PUSH1 0x40 MLOAD PUSH2 0x33C SWAP2 SWAP1 PUSH2 0x1B2E JUMP JUMPDEST PUSH1 0x40 MLOAD DUP1 SWAP2 SUB SWAP1 RETURN JUMPDEST PUSH2 0x35F PUSH1 0x4 DUP1 CALLDATASIZE SUB DUP2 ADD SWAP1 PUSH2 0x35A SWAP2 SWAP1 PUSH2 0x1CAF JUMP JUMPDEST PUSH2 0x85C JUMP JUMPDEST STOP JUMPDEST PUSH2 0x37B PUSH1 0x4 DUP1 CALLDATASIZE SUB DUP2 ADD SWAP1 PUSH2 0x376 SWAP2 SWAP1 PUSH2 0x1CAF JUMP JUMPDEST PUSH2 0x87E JUMP JUMPDEST STOP JUMPDEST PUSH2 0x385 PUSH2 0x8F9 JUMP JUMPDEST STOP JUMPDEST PUSH2 0x3A1 PUSH1 0x4 DUP1 CALLDATASIZE SUB DUP2 ADD SWAP1 PUSH2 0x39C SWAP2 SWAP1 PUSH2 0x1D28 JUMP JUMPDEST PUSH2 0x91B JUMP JUMPDEST STOP JUMPDEST PUSH2 0x3AB PUSH2 0x9E5 JUMP JUMPDEST PUSH1 0x40 MLOAD PUSH2 0x3B8 SWAP2 SWAP1 PUSH2 0x1DD3 JUMP JUMPDEST PUSH1 0x40 MLOAD DUP1 SWAP2 SUB SWAP1 RETURN JUMPDEST PUSH2 0x3DB PUSH1 0x4 DUP1 CALLDATASIZE SUB DUP2 ADD SWAP1 PUSH2 0x3D6 SWAP2 SWAP1 PUSH2 0x1E27 JUMP JUMPDEST PUSH2 0xA0A JUMP JUMPDEST STOP JUMPDEST PUSH2 0x3E5 PUSH2 0xA9B JUMP JUMPDEST PUSH1 0x40 MLOAD PUSH2 0x3F2 SWAP2 SWAP1 PUSH2 0x1C41 JUMP JUMPDEST PUSH1 0x40 MLOAD DUP1 SWAP2 SUB SWAP1 RETURN JUMPDEST PUSH2 0x403 PUSH2 0xABF JUMP JUMPDEST PUSH1 0x40 MLOAD PUSH2 0x410 SWAP2 SWAP1 PUSH2 0x1B2E JUMP JUMPDEST PUSH1 0x40 MLOAD DUP1 SWAP2 SUB SWAP1 RETURN JUMPDEST PUSH2 0x433 PUSH1 0x4 DUP1 CALLDATASIZE SUB DUP2 ADD SWAP1 PUSH2 0x42E SWAP2 SWAP1 PUSH2 0x1AEB JUMP JUMPDEST PUSH2 0xAC5 JUMP JUMPDEST PUSH1 0x40 MLOAD PUSH2 0x440 SWAP2 SWAP1 PUSH2 0x1B2E JUMP JUMPDEST PUSH1 0x40 MLOAD DUP1 SWAP2 SUB SWAP1 RETURN JUMPDEST PUSH2 0x451 PUSH2 0xB66 JUMP JUMPDEST PUSH1 0x40 MLOAD PUSH2 0x45E SWAP2 SWAP1 PUSH2 0x1C41 JUMP JUMPDEST PUSH1 0x40 MLOAD DUP1 SWAP2 SUB SWAP1 RETURN JUMPDEST PUSH2 0x46F PUSH2 0xB8A JUMP JUMPDEST PUSH1 0x40 MLOAD PUSH2 0x47C SWAP2 SWAP1 PUSH2 0x1B2E JUMP JUMPDEST PUSH1 0x40 MLOAD DUP1 SWAP2 SUB SWAP1 RETURN JUMPDEST PUSH2 0x49F PUSH1 0x4 DUP1 CALLDATASIZE SUB DUP2 ADD SWAP1 PUSH2 0x49A SWAP2 SWAP1 PUSH2 0x1CAF JUMP JUMPDEST PUSH2 0xB90 JUMP JUMPDEST PUSH1 0x40 MLOAD PUSH2 0x4AC SWAP2 SWAP1 PUSH2 0x1A78 JUMP JUMPDEST PUSH1 0x40 MLOAD DUP1 SWAP2 SUB SWAP1 RETURN JUMPDEST PUSH2 0x4BD PUSH2 0xBF3 JUMP JUMPDEST PUSH1 0x40 MLOAD PUSH2 0x4CA SWAP2 SWAP1 PUSH2 0x1C41 JUMP JUMPDEST PUSH1 0x40 MLOAD DUP1 SWAP2 SUB SWAP1 RETURN JUMPDEST PUSH2 0x4DB PUSH2 0xBF9 JUMP JUMPDEST PUSH1 0x40 MLOAD PUSH2 0x4E8 SWAP2 SWAP1 PUSH2 0x1B2E JUMP JUMPDEST PUSH1 0x40 MLOAD DUP1 SWAP2 SUB SWAP1 RETURN JUMPDEST PUSH2 0x4F9 PUSH2 0xBFF JUMP JUMPDEST PUSH1 0x40 MLOAD PUSH2 0x506 SWAP2 SWAP1 PUSH2 0x1C41 JUMP JUMPDEST PUSH1 0x40 MLOAD DUP1 SWAP2 SUB SWAP1 RETURN JUMPDEST PUSH2 0x529 PUSH1 0x4 DUP1 CALLDATASIZE SUB DUP2 ADD SWAP1 PUSH2 0x524 SWAP2 SWAP1 PUSH2 0x1C84 JUMP JUMPDEST PUSH2 0xC23 JUMP JUMPDEST STOP JUMPDEST PUSH2 0x533 PUSH2 0xC3F JUMP JUMPDEST PUSH1 0x40 MLOAD PUSH2 0x540 SWAP2 SWAP1 PUSH2 0x1E85 JUMP JUMPDEST PUSH1 0x40 MLOAD DUP1 SWAP2 SUB SWAP1 RETURN JUMPDEST PUSH2 0x563 PUSH1 0x4 DUP1 CALLDATASIZE SUB DUP2 ADD SWAP1 PUSH2 0x55E SWAP2 SWAP1 PUSH2 0x1C84 JUMP JUMPDEST PUSH2 0xC64 JUMP JUMPDEST STOP JUMPDEST PUSH2 0x57F PUSH1 0x4 DUP1 CALLDATASIZE SUB DUP2 ADD SWAP1 PUSH2 0x57A SWAP2 SWAP1 PUSH2 0x1CAF JUMP JUMPDEST PUSH2 0xCF0 JUMP JUMPDEST STOP JUMPDEST PUSH2 0x59B PUSH1 0x4 DUP1 CALLDATASIZE SUB DUP2 ADD SWAP1 PUSH2 0x596 SWAP2 SWAP1 PUSH2 0x1C84 JUMP JUMPDEST PUSH2 0xD12 JUMP JUMPDEST STOP JUMPDEST PUSH2 0x5B7 PUSH1 0x4 DUP1 CALLDATASIZE SUB DUP2 ADD SWAP1 PUSH2 0x5B2 SWAP2 SWAP1 PUSH2 0x1ED9 JUMP JUMPDEST PUSH2 0xD55 JUMP JUMPDEST STOP JUMPDEST PUSH2 0x5C1 PUSH2 0xDD1 JUMP JUMPDEST PUSH1 0x40 MLOAD PUSH2 0x5CE SWAP2 SWAP1 PUSH2 0x1F24 JUMP JUMPDEST PUSH1 0x40 MLOAD DUP1 SWAP2 SUB SWAP1 RETURN JUMPDEST PUSH2 0x5DF PUSH2 0xDF6 JUMP JUMPDEST PUSH1 0x40 MLOAD PUSH2 0x5EE SWAP4 SWAP3 SWAP2 SWAP1 PUSH2 0x1F3D JUMP JUMPDEST PUSH1 0x40 MLOAD DUP1 SWAP2 SUB SWAP1 RETURN JUMPDEST PUSH0 PUSH32 0x7965DB0B00000000000000000000000000000000000000000000000000000000 PUSH28 0xFFFFFFFFFFFFFFFFFFFFFFFFFFFFFFFFFFFFFFFFFFFFFFFFFFFFFFFF NOT AND DUP3 PUSH28 0xFFFFFFFFFFFFFFFFFFFFFFFFFFFFFFFFFFFFFFFFFFFFFFFFFFFFFFFF NOT AND EQ DUP1 PUSH2 0x669 JUMPI POP PUSH2 0x668 DUP3 PUSH2 0xE0D JUMP JUMPDEST JUMPDEST SWAP1 POP SWAP2 SWAP1 POP JUMP JUMPDEST PUSH0 DUP1 PUSH2 0x67B DUP4 PUSH2 0xAC5 JUMP JUMPDEST SWAP1 POP PUSH0 PUSH1 0x1 DUP3 SUB PUSH2 0x692 JUMPI PUSH1 0xA PUSH0 ADD SLOAD SWAP1 POP PUSH2 0x6F9 JUMP JUMPDEST PUSH1 0x2 DUP3 SUB PUSH2 0x6A7 JUMPI PUSH1 0xA PUSH1 0x1 ADD SLOAD SWAP1 POP PUSH2 0x6F8 JUMP JUMPDEST PUSH1 0x3 DUP3 SUB PUSH2 0x6BC JUMPI PUSH1 0xA PUSH1 0x2 ADD SLOAD SWAP1 POP PUSH2 0x6F7 JUMP JUMPDEST PUSH1 0x40 MLOAD PUSH32 0x8C379A000000000000000000000000000000000000000000000000000000000 DUP2 MSTORE PUSH1 0x4 ADD PUSH2 0x6EE SWAP1 PUSH2 0x1FCC JUMP JUMPDEST PUSH1 0x40 MLOAD DUP1 SWAP2 SUB SWAP1 REVERT JUMPDEST JUMPDEST JUMPDEST PUSH0 PUSH1 0xD PUSH0 DUP7 PUSH20 0xFFFFFFFFFFFFFFFFFFFFFFFFFFFFFFFFFFFFFFFF AND PUSH20 0xFFFFFFFFFFFFFFFFFFFFFFFFFFFFFFFFFFFFFFFF AND DUP2 MSTORE PUSH1 0x20 ADD SWAP1 DUP2 MSTORE PUSH1 0x20 ADD PUSH0 KECCAK256 PUSH1 0x1 ADD SLOAD NUMBER PUSH2 0x746 SWAP2 SWAP1 PUSH2 0x2017 JUMP JUMPDEST SWAP1 POP PUSH0 DUP2 DUP4 PUSH1 0x5 SLOAD PUSH2 0x758 SWAP2 SWAP1 PUSH2 0x204A JUMP JUMPDEST PUSH2 0x762 SWAP2 SWAP1 PUSH2 0x207D JUMP JUMPDEST SWAP1 POP DUP1 SWAP5 POP POP POP POP POP SWAP2 SWAP1 POP JUMP JUMPDEST PUSH1 0x9 SLOAD DUP2 JUMP JUMPDEST PUSH1 0x8 SLOAD DUP2 JUMP JUMPDEST PUSH2 0x7AD PUSH32 0xAE6C2FC584631AF4C9385B8A55683F1A75C813747E27EFEF5AFECE31C6B230D3 PUSH2 0x7A8 PUSH2 0xE76 JUMP JUMPDEST PUSH2 0xB90 JUMP JUMPDEST PUSH2 0x7B5 JUMPI PUSH0 DUP1 REVERT JUMPDEST DUP1 PUSH1 0x2 PUSH0 PUSH2 0x100 EXP DUP2 SLOAD DUP2 PUSH20 0xFFFFFFFFFFFFFFFFFFFFFFFFFFFFFFFFFFFFFFFF MUL NOT AND SWAP1 DUP4 PUSH20 0xFFFFFFFFFFFFFFFFFFFFFFFFFFFFFFFFFFFFFFFF AND MUL OR SWAP1 SSTORE POP POP JUMP JUMPDEST PUSH1 0xD PUSH1 0x20 MSTORE DUP1 PUSH0 MSTORE PUSH1 0x40 PUSH0 KECCAK256 PUSH0 SWAP2 POP SWAP1 POP DUP1 PUSH0 ADD SLOAD SWAP1 DUP1 PUSH1 0x1 ADD SLOAD SWAP1 POP DUP3 JUMP JUMPDEST PUSH0 DUP1 PUSH0 DUP4 DUP2 MSTORE PUSH1 0x20 ADD SWAP1 DUP2 MSTORE PUSH1 0x20 ADD PUSH0 KECCAK256 PUSH1 0x1 ADD SLOAD SWAP1 POP SWAP2 SWAP1 POP JUMP JUMPDEST PUSH2 0x83C PUSH2 0xE7D JUMP JUMPDEST PUSH2 0x845 DUP2 PUSH2 0xECC JUMP JUMPDEST PUSH2 0x84D PUSH2 0x116B JUMP JUMPDEST POP JUMP JUMPDEST PUSH0 DUP1 NUMBER SWAP1 POP DUP1 SWAP2 POP POP SWAP1 JUMP JUMPDEST PUSH2 0x865 DUP3 PUSH2 0x818 JUMP JUMPDEST PUSH2 0x86E DUP2 PUSH2 0x1174 JUMP JUMPDEST PUSH2 0x878 DUP4 DUP4 PUSH2 0x1188 JUMP JUMPDEST POP POP POP POP JUMP JUMPDEST PUSH2 0x886 PUSH2 0xE76 JUMP JUMPDEST PUSH20 0xFFFFFFFFFFFFFFFFFFFFFFFFFFFFFFFFFFFFFFFF AND DUP2 PUSH20 0xFFFFFFFFFFFFFFFFFFFFFFFFFFFFFFFFFFFFFFFF AND EQ PUSH2 0x8EA JUMPI PUSH1 0x40 MLOAD PUSH32 0x6697B23200000000000000000000000000000000000000000000000000000000 DUP2 MSTORE PUSH1 0x4 ADD PUSH1 0x40 MLOAD DUP1 SWAP2 SUB SWAP1 REVERT JUMPDEST PUSH2 0x8F4 DUP3 DUP3 PUSH2 0x1271 JUMP JUMPDEST POP POP POP JUMP JUMPDEST PUSH2 0x901 PUSH2 0xE7D JUMP JUMPDEST PUSH2 0x911 PUSH2 0x90C PUSH2 0xE76 JUMP JUMPDEST PUSH2 0x135A JUMP JUMPDEST PUSH2 0x919 PUSH2 0x116B JUMP JUMPDEST JUMP JUMPDEST PUSH2 0x923 PUSH2 0xE7D JUMP JUMPDEST PUSH2 0x954 PUSH32 0x508F8F8BE8F5DBCB88F4F4500430B8B3684C471ED936F31FEA912C78AD46A6B9 PUSH2 0x94F PUSH2 0xE76 JUMP JUMPDEST PUSH2 0xB90 JUMP JUMPDEST PUSH2 0x95C JUMPI PUSH0 DUP1 REVERT JUMPDEST DUP3 PUSH20 0xFFFFFFFFFFFFFFFFFFFFFFFFFFFFFFFFFFFFFFFF AND PUSH4 0xA9059CBB DUP4 DUP4 PUSH1 0x40 MLOAD DUP4 PUSH4 0xFFFFFFFF AND PUSH1 0xE0 SHL DUP2 MSTORE PUSH1 0x4 ADD PUSH2 0x997 SWAP3 SWAP2 SWAP1 PUSH2 0x20CD JUMP JUMPDEST PUSH1 0x20 PUSH1 0x40 MLOAD DUP1 DUP4 SUB DUP2 PUSH0 DUP8 GAS CALL ISZERO DUP1 ISZERO PUSH2 0x9B3 JUMPI RETURNDATASIZE PUSH0 DUP1 RETURNDATACOPY RETURNDATASIZE PUSH0 REVERT JUMPDEST POP POP POP POP PUSH1 0x40 MLOAD RETURNDATASIZE PUSH1 0x1F NOT PUSH1 0x1F DUP3 ADD AND DUP3 ADD DUP1 PUSH1 0x40 MSTORE POP DUP2 ADD SWAP1 PUSH2 0x9D7 SWAP2 SWAP1 PUSH2 0x211E JUMP JUMPDEST POP PUSH2 0x9E0 PUSH2 0x116B JUMP JUMPDEST POP POP POP JUMP JUMPDEST PUSH1 0x3 PUSH0 SWAP1 SLOAD SWAP1 PUSH2 0x100 EXP SWAP1 DIV PUSH20 0xFFFFFFFFFFFFFFFFFFFFFFFFFFFFFFFFFFFFFFFF AND DUP2 JUMP JUMPDEST PUSH2 0xA12 PUSH2 0xE7D JUMP JUMPDEST PUSH2 0xA43 PUSH32 0x508F8F8BE8F5DBCB88F4F4500430B8B3684C471ED936F31FEA912C78AD46A6B9 PUSH2 0xA3E PUSH2 0xE76 JUMP JUMPDEST PUSH2 0xB90 JUMP JUMPDEST PUSH2 0xA4B JUMPI PUSH0 DUP1 REVERT JUMPDEST DUP2 PUSH20 0xFFFFFFFFFFFFFFFFFFFFFFFFFFFFFFFFFFFFFFFF AND PUSH2 0x8FC DUP3 SWAP1 DUP2 ISZERO MUL SWAP1 PUSH1 0x40 MLOAD PUSH0 PUSH1 0x40 MLOAD DUP1 DUP4 SUB DUP2 DUP6 DUP9 DUP9 CALL SWAP4 POP POP POP POP ISZERO DUP1 ISZERO PUSH2 0xA8E JUMPI RETURNDATASIZE PUSH0 DUP1 RETURNDATACOPY RETURNDATASIZE PUSH0 REVERT JUMPDEST POP PUSH2 0xA97 PUSH2 0x116B JUMP JUMPDEST POP POP JUMP JUMPDEST PUSH32 0xAE6C2FC584631AF4C9385B8A55683F1A75C813747E27EFEF5AFECE31C6B230D3 DUP2 JUMP JUMPDEST PUSH1 0x7 SLOAD DUP2 JUMP JUMPDEST PUSH0 PUSH1 0x4 PUSH0 SWAP1 SLOAD SWAP1 PUSH2 0x100 EXP SWAP1 DIV PUSH20 0xFFFFFFFFFFFFFFFFFFFFFFFFFFFFFFFFFFFFFFFF AND PUSH20 0xFFFFFFFFFFFFFFFFFFFFFFFFFFFFFFFFFFFFFFFF AND PUSH4 0x1AB0D49E DUP4 PUSH1 0x40 MLOAD DUP3 PUSH4 0xFFFFFFFF AND PUSH1 0xE0 SHL DUP2 MSTORE PUSH1 0x4 ADD PUSH2 0xB20 SWAP2 SWAP1 PUSH2 0x2149 JUMP JUMPDEST PUSH1 0x20 PUSH1 0x40 MLOAD DUP1 DUP4 SUB DUP2 DUP7 GAS STATICCALL ISZERO DUP1 ISZERO PUSH2 0xB3B JUMPI RETURNDATASIZE PUSH0 DUP1 RETURNDATACOPY RETURNDATASIZE PUSH0 REVERT JUMPDEST POP POP POP POP PUSH1 0x40 MLOAD RETURNDATASIZE PUSH1 0x1F NOT PUSH1 0x1F DUP3 ADD AND DUP3 ADD DUP1 PUSH1 0x40 MSTORE POP DUP2 ADD SWAP1 PUSH2 0xB5F SWAP2 SWAP1 PUSH2 0x2176 JUMP JUMPDEST SWAP1 POP SWAP2 SWAP1 POP JUMP JUMPDEST PUSH32 0x508F8F8BE8F5DBCB88F4F4500430B8B3684C471ED936F31FEA912C78AD46A6B9 DUP2 JUMP JUMPDEST PUSH1 0x5 SLOAD DUP2 JUMP JUMPDEST PUSH0 DUP1 PUSH0 DUP5 DUP2 MSTORE PUSH1 0x20 ADD SWAP1 DUP2 MSTORE PUSH1 0x20 ADD PUSH0 KECCAK256 PUSH0 ADD PUSH0 DUP4 PUSH20 0xFFFFFFFFFFFFFFFFFFFFFFFFFFFFFFFFFFFFFFFF AND PUSH20 0xFFFFFFFFFFFFFFFFFFFFFFFFFFFFFFFFFFFFFFFF AND DUP2 MSTORE PUSH1 0x20 ADD SWAP1 DUP2 MSTORE PUSH1 0x20 ADD PUSH0 KECCAK256 PUSH0 SWAP1 SLOAD SWAP1 PUSH2 0x100 EXP SWAP1 DIV PUSH1 0xFF AND SWAP1 POP SWAP3 SWAP2 POP POP JUMP JUMPDEST PUSH0 DUP1 SHL DUP2 JUMP JUMPDEST PUSH1 0x6 SLOAD DUP2 JUMP JUMPDEST PUSH32 0x8C342C7ACA7F35847406E6353E35C5762132FA3E958179931981D120AF75DFB2 DUP2 JUMP JUMPDEST PUSH2 0xC2B PUSH2 0xE7D JUMP JUMPDEST PUSH2 0xC34 DUP2 PUSH2 0x157E JUMP JUMPDEST PUSH2 0xC3C PUSH2 0x116B JUMP JUMPDEST POP JUMP JUMPDEST PUSH1 0x4 PUSH0 SWAP1 SLOAD SWAP1 PUSH2 0x100 EXP SWAP1 DIV PUSH20 0xFFFFFFFFFFFFFFFFFFFFFFFFFFFFFFFFFFFFFFFF AND DUP2 JUMP JUMPDEST PUSH0 DUP2 GT PUSH2 0xCA6 JUMPI PUSH1 0x40 MLOAD PUSH32 0x8C379A000000000000000000000000000000000000000000000000000000000 DUP2 MSTORE PUSH1 0x4 ADD PUSH2 0xC9D SWAP1 PUSH2 0x21EB JUMP JUMPDEST PUSH1 0x40 MLOAD DUP1 SWAP2 SUB SWAP1 REVERT JUMPDEST PUSH2 0xCD7 PUSH32 0xAE6C2FC584631AF4C9385B8A55683F1A75C813747E27EFEF5AFECE31C6B230D3 PUSH2 0xCD2 PUSH2 0xE76 JUMP JUMPDEST PUSH2 0xB90 JUMP JUMPDEST PUSH2 0xCDF JUMPI PUSH0 DUP1 REVERT JUMPDEST DUP1 PUSH1 0x5 DUP2 SWAP1 SSTORE POP NUMBER PUSH1 0x6 DUP2 SWAP1 SSTORE POP POP JUMP JUMPDEST PUSH2 0xCF9 DUP3 PUSH2 0x818 JUMP JUMPDEST PUSH2 0xD02 DUP2 PUSH2 0x1174 JUMP JUMPDEST PUSH2 0xD0C DUP4 DUP4 PUSH2 0x1271 JUMP JUMPDEST POP POP POP POP JUMP JUMPDEST PUSH2 0xD43 PUSH32 0xAE6C2FC584631AF4C9385B8A55683F1A75C813747E27EFEF5AFECE31C6B230D3 PUSH2 0xD3E PUSH2 0xE76 JUMP JUMPDEST PUSH2 0xB90 JUMP JUMPDEST PUSH2 0xD4B JUMPI PUSH0 DUP1 REVERT JUMPDEST DUP1 PUSH1 0x9 DUP2 SWAP1 SSTORE POP POP JUMP JUMPDEST PUSH2 0xD86 PUSH32 0xAE6C2FC584631AF4C9385B8A55683F1A75C813747E27EFEF5AFECE31C6B230D3 PUSH2 0xD81 PUSH2 0xE76 JUMP JUMPDEST PUSH2 0xB90 JUMP JUMPDEST PUSH2 0xD8E JUMPI PUSH0 DUP1 REVERT JUMPDEST DUP1 PUSH1 0x3 PUSH0 PUSH2 0x100 EXP DUP2 SLOAD DUP2 PUSH20 0xFFFFFFFFFFFFFFFFFFFFFFFFFFFFFFFFFFFFFFFF MUL NOT AND SWAP1 DUP4 PUSH20 0xFFFFFFFFFFFFFFFFFFFFFFFFFFFFFFFFFFFFFFFF AND MUL OR SWAP1 SSTORE POP POP JUMP JUMPDEST PUSH1 0x2 PUSH0 SWAP1 SLOAD SWAP1 PUSH2 0x100 EXP SWAP1 DIV PUSH20 0xFFFFFFFFFFFFFFFFFFFFFFFFFFFFFFFFFFFFFFFF AND DUP2 JUMP JUMPDEST PUSH1 0xA DUP1 PUSH0 ADD SLOAD SWAP1 DUP1 PUSH1 0x1 ADD SLOAD SWAP1 DUP1 PUSH1 0x2 ADD SLOAD SWAP1 POP DUP4 JUMP JUMPDEST PUSH0 PUSH32 0x1FFC9A700000000000000000000000000000000000000000000000000000000 PUSH28 0xFFFFFFFFFFFFFFFFFFFFFFFFFFFFFFFFFFFFFFFFFFFFFFFFFFFFFFFF NOT AND DUP3 PUSH28 0xFFFFFFFFFFFFFFFFFFFFFFFFFFFFFFFFFFFFFFFFFFFFFFFFFFFFFFFF NOT AND EQ SWAP1 POP SWAP2 SWAP1 POP JUMP JUMPDEST PUSH0 CALLER SWAP1 POP SWAP1 JUMP JUMPDEST PUSH1 0x2 PUSH1 0x1 SLOAD SUB PUSH2 0xEC2 JUMPI PUSH1 0x40 MLOAD PUSH32 0x8C379A000000000000000000000000000000000000000000000000000000000 DUP2 MSTORE PUSH1 0x4 ADD PUSH2 0xEB9 SWAP1 PUSH2 0x2253 JUMP JUMPDEST PUSH1 0x40 MLOAD DUP1 SWAP2 SUB SWAP1 REVERT JUMPDEST PUSH1 0x2 PUSH1 0x1 DUP2 SWAP1 SSTORE POP JUMP JUMPDEST PUSH0 PUSH1 0xD PUSH0 PUSH2 0xED8 PUSH2 0xE76 JUMP JUMPDEST PUSH20 0xFFFFFFFFFFFFFFFFFFFFFFFFFFFFFFFFFFFFFFFF AND PUSH20 0xFFFFFFFFFFFFFFFFFFFFFFFFFFFFFFFFFFFFFFFF AND DUP2 MSTORE PUSH1 0x20 ADD SWAP1 DUP2 MSTORE PUSH1 0x20 ADD PUSH0 KECCAK256 SWAP1 POP PUSH0 DUP3 GT PUSH2 0xF55 JUMPI PUSH1 0x40 MLOAD PUSH32 0x8C379A000000000000000000000000000000000000000000000000000000000 DUP2 MSTORE PUSH1 0x4 ADD PUSH2 0xF4C SWAP1 PUSH2 0x22E1 JUMP JUMPDEST PUSH1 0x40 MLOAD DUP1 SWAP2 SUB SWAP1 REVERT JUMPDEST DUP2 DUP2 PUSH0 ADD SLOAD LT ISZERO PUSH2 0xF9B JUMPI PUSH1 0x40 MLOAD PUSH32 0x8C379A000000000000000000000000000000000000000000000000000000000 DUP2 MSTORE PUSH1 0x4 ADD PUSH2 0xF92 SWAP1 PUSH2 0x236F JUMP JUMPDEST PUSH1 0x40 MLOAD DUP1 SWAP2 SUB SWAP1 REVERT JUMPDEST PUSH1 0x9 SLOAD DUP2 PUSH1 0x1 ADD SLOAD PUSH2 0xFAD SWAP2 SWAP1 PUSH2 0x204A JUMP JUMPDEST NUMBER LT ISZERO PUSH2 0xFEF JUMPI PUSH1 0x40 MLOAD PUSH32 0x8C379A000000000000000000000000000000000000000000000000000000000 DUP2 MSTORE PUSH1 0x4 ADD PUSH2 0xFE6 SWAP1 PUSH2 0x23FD JUMP JUMPDEST PUSH1 0x40 MLOAD DUP1 SWAP2 SUB SWAP1 REVERT JUMPDEST PUSH2 0xFFF PUSH2 0xFFA PUSH2 0xE76 JUMP JUMPDEST PUSH2 0x135A JUMP JUMPDEST DUP2 DUP2 PUSH0 ADD PUSH0 DUP3 DUP3 SLOAD PUSH2 0x1011 SWAP2 SWAP1 PUSH2 0x2017 JUMP JUMPDEST SWAP3 POP POP DUP2 SWAP1 SSTORE POP DUP2 PUSH1 0x7 PUSH0 DUP3 DUP3 SLOAD PUSH2 0x1029 SWAP2 SWAP1 PUSH2 0x2017 JUMP JUMPDEST SWAP3 POP POP DUP2 SWAP1 SSTORE POP PUSH1 0x2 PUSH0 SWAP1 SLOAD SWAP1 PUSH2 0x100 EXP SWAP1 DIV PUSH20 0xFFFFFFFFFFFFFFFFFFFFFFFFFFFFFFFFFFFFFFFF AND PUSH20 0xFFFFFFFFFFFFFFFFFFFFFFFFFFFFFFFFFFFFFFFF AND PUSH4 0xA9059CBB PUSH2 0x1075 PUSH2 0xE76 JUMP JUMPDEST DUP5 PUSH1 0x40 MLOAD DUP4 PUSH4 0xFFFFFFFF AND PUSH1 0xE0 SHL DUP2 MSTORE PUSH1 0x4 ADD PUSH2 0x1093 SWAP3 SWAP2 SWAP1 PUSH2 0x20CD JUMP JUMPDEST PUSH1 0x20 PUSH1 0x40 MLOAD DUP1 DUP4 SUB DUP2 PUSH0 DUP8 GAS CALL ISZERO DUP1 ISZERO PUSH2 0x10AF JUMPI RETURNDATASIZE PUSH0 DUP1 RETURNDATACOPY RETURNDATASIZE PUSH0 REVERT JUMPDEST POP POP POP POP PUSH1 0x40 MLOAD RETURNDATASIZE PUSH1 0x1F NOT PUSH1 0x1F DUP3 ADD AND DUP3 ADD DUP1 PUSH1 0x40 MSTORE POP DUP2 ADD SWAP1 PUSH2 0x10D3 SWAP2 SWAP1 PUSH2 0x211E JUMP JUMPDEST PUSH2 0x1112 JUMPI PUSH1 0x40 MLOAD PUSH32 0x8C379A000000000000000000000000000000000000000000000000000000000 DUP2 MSTORE PUSH1 0x4 ADD PUSH2 0x1109 SWAP1 PUSH2 0x248B JUMP JUMPDEST PUSH1 0x40 MLOAD DUP1 SWAP2 SUB SWAP1 REVERT JUMPDEST PUSH2 0x111A PUSH2 0xE76 JUMP JUMPDEST PUSH20 0xFFFFFFFFFFFFFFFFFFFFFFFFFFFFFFFFFFFFFFFF AND PUSH32 0xF5BB82176FEB1B5E747E28471AA92156A04D9F3AB9F45F28E2D704232B93F75 DUP4 PUSH1 0x40 MLOAD PUSH2 0x115F SWAP2 SWAP1 PUSH2 0x1B2E JUMP JUMPDEST PUSH1 0x40 MLOAD DUP1 SWAP2 SUB SWAP1 LOG2 POP POP JUMP JUMPDEST PUSH1 0x1 DUP1 DUP2 SWAP1 SSTORE POP JUMP JUMPDEST PUSH2 0x1185 DUP2 PUSH2 0x1180 PUSH2 0xE76 JUMP JUMPDEST PUSH2 0x1989 JUMP JUMPDEST POP JUMP JUMPDEST PUSH0 PUSH2 0x1193 DUP4 DUP4 PUSH2 0xB90 JUMP JUMPDEST PUSH2 0x1267 JUMPI PUSH1 0x1 PUSH0 DUP1 DUP6 DUP2 MSTORE PUSH1 0x20 ADD SWAP1 DUP2 MSTORE PUSH1 0x20 ADD PUSH0 KECCAK256 PUSH0 ADD PUSH0 DUP5 PUSH20 0xFFFFFFFFFFFFFFFFFFFFFFFFFFFFFFFFFFFFFFFF AND PUSH20 0xFFFFFFFFFFFFFFFFFFFFFFFFFFFFFFFFFFFFFFFF AND DUP2 MSTORE PUSH1 0x20 ADD SWAP1 DUP2 MSTORE PUSH1 0x20 ADD PUSH0 KECCAK256 PUSH0 PUSH2 0x100 EXP DUP2 SLOAD DUP2 PUSH1 0xFF MUL NOT AND SWAP1 DUP4 ISZERO ISZERO MUL OR SWAP1 SSTORE POP PUSH2 0x1204 PUSH2 0xE76 JUMP JUMPDEST PUSH20 0xFFFFFFFFFFFFFFFFFFFFFFFFFFFFFFFFFFFFFFFF AND DUP3 PUSH20 0xFFFFFFFFFFFFFFFFFFFFFFFFFFFFFFFFFFFFFFFF AND DUP5 PUSH32 0x2F8788117E7EFF1D82E926EC794901D17C78024A50270940304540A733656F0D PUSH1 0x40 MLOAD PUSH1 0x40 MLOAD DUP1 SWAP2 SUB SWAP1 LOG4 PUSH1 0x1 SWAP1 POP PUSH2 0x126B JUMP JUMPDEST PUSH0 SWAP1 POP JUMPDEST SWAP3 SWAP2 POP POP JUMP JUMPDEST PUSH0 PUSH2 0x127C DUP4 DUP4 PUSH2 0xB90 JUMP JUMPDEST ISZERO PUSH2 0x1350 JUMPI PUSH0 DUP1 PUSH0 DUP6 DUP2 MSTORE PUSH1 0x20 ADD SWAP1 DUP2 MSTORE PUSH1 0x20 ADD PUSH0 KECCAK256 PUSH0 ADD PUSH0 DUP5 PUSH20 0xFFFFFFFFFFFFFFFFFFFFFFFFFFFFFFFFFFFFFFFF AND PUSH20 0xFFFFFFFFFFFFFFFFFFFFFFFFFFFFFFFFFFFFFFFF AND DUP2 MSTORE PUSH1 0x20 ADD SWAP1 DUP2 MSTORE PUSH1 0x20 ADD PUSH0 KECCAK256 PUSH0 PUSH2 0x100 EXP DUP2 SLOAD DUP2 PUSH1 0xFF MUL NOT AND SWAP1 DUP4 ISZERO ISZERO MUL OR SWAP1 SSTORE POP PUSH2 0x12ED PUSH2 0xE76 JUMP JUMPDEST PUSH20 0xFFFFFFFFFFFFFFFFFFFFFFFFFFFFFFFFFFFFFFFF AND DUP3 PUSH20 0xFFFFFFFFFFFFFFFFFFFFFFFFFFFFFFFFFFFFFFFF AND DUP5 PUSH32 0xF6391F5C32D9C69D2A47EA670B442974B53935D1EDC7FD64EB21E047A839171B PUSH1 0x40 MLOAD PUSH1 0x40 MLOAD DUP1 SWAP2 SUB SWAP1 LOG4 PUSH1 0x1 SWAP1 POP PUSH2 0x1354 JUMP JUMPDEST PUSH0 SWAP1 POP JUMPDEST SWAP3 SWAP2 POP POP JUMP JUMPDEST PUSH0 PUSH1 0xD PUSH0 DUP4 PUSH20 0xFFFFFFFFFFFFFFFFFFFFFFFFFFFFFFFFFFFFFFFF AND PUSH20 0xFFFFFFFFFFFFFFFFFFFFFFFFFFFFFFFFFFFFFFFF AND DUP2 MSTORE PUSH1 0x20 ADD SWAP1 DUP2 MSTORE PUSH1 0x20 ADD PUSH0 KECCAK256 SWAP1 POP PUSH0 DUP2 PUSH0 ADD SLOAD GT PUSH2 0x13DF JUMPI PUSH1 0x40 MLOAD PUSH32 0x8C379A000000000000000000000000000000000000000000000000000000000 DUP2 MSTORE PUSH1 0x4 ADD PUSH2 0x13D6 SWAP1 PUSH2 0x24F3 JUMP JUMPDEST PUSH1 0x40 MLOAD DUP1 SWAP2 SUB SWAP1 REVERT JUMPDEST PUSH1 0x9 SLOAD DUP2 PUSH1 0x1 ADD SLOAD PUSH2 0x13F1 SWAP2 SWAP1 PUSH2 0x204A JUMP JUMPDEST NUMBER LT ISZERO PUSH2 0x1433 JUMPI PUSH1 0x40 MLOAD PUSH32 0x8C379A000000000000000000000000000000000000000000000000000000000 DUP2 MSTORE PUSH1 0x4 ADD PUSH2 0x142A SWAP1 PUSH2 0x23FD JUMP JUMPDEST PUSH1 0x40 MLOAD DUP1 SWAP2 SUB SWAP1 REVERT JUMPDEST PUSH0 PUSH2 0x143D DUP4 PUSH2 0x670 JUMP JUMPDEST SWAP1 POP PUSH0 DUP2 GT PUSH2 0x1481 JUMPI PUSH1 0x40 MLOAD PUSH32 0x8C379A000000000000000000000000000000000000000000000000000000000 DUP2 MSTORE PUSH1 0x4 ADD PUSH2 0x1478 SWAP1 PUSH2 0x2581 JUMP JUMPDEST PUSH1 0x40 MLOAD DUP1 SWAP2 SUB SWAP1 REVERT JUMPDEST NUMBER DUP3 PUSH1 0x1 ADD DUP2 SWAP1 SSTORE POP DUP1 PUSH1 0x8 PUSH0 DUP3 DUP3 SLOAD PUSH2 0x149B SWAP2 SWAP1 PUSH2 0x204A JUMP JUMPDEST SWAP3 POP POP DUP2 SWAP1 SSTORE POP PUSH1 0x2 PUSH0 SWAP1 SLOAD SWAP1 PUSH2 0x100 EXP SWAP1 DIV PUSH20 0xFFFFFFFFFFFFFFFFFFFFFFFFFFFFFFFFFFFFFFFF AND PUSH20 0xFFFFFFFFFFFFFFFFFFFFFFFFFFFFFFFFFFFFFFFF AND PUSH4 0x449A52F8 DUP5 DUP4 PUSH1 0x40 MLOAD DUP4 PUSH4 0xFFFFFFFF AND PUSH1 0xE0 SHL DUP2 MSTORE PUSH1 0x4 ADD PUSH2 0x14FE SWAP3 SWAP2 SWAP1 PUSH2 0x20CD JUMP JUMPDEST PUSH0 PUSH1 0x40 MLOAD DUP1 DUP4 SUB DUP2 PUSH0 DUP8 DUP1 EXTCODESIZE ISZERO DUP1 ISZERO PUSH2 0x1515 JUMPI PUSH0 DUP1 REVERT JUMPDEST POP GAS CALL ISZERO DUP1 ISZERO PUSH2 0x1527 JUMPI RETURNDATASIZE PUSH0 DUP1 RETURNDATACOPY RETURNDATASIZE PUSH0 REVERT JUMPDEST POP POP POP POP DUP3 PUSH20 0xFFFFFFFFFFFFFFFFFFFFFFFFFFFFFFFFFFFFFFFF AND PUSH32 0x2D5429EFDECA7741A8CD94067B18D988BC4E5F1D5B8272C37B7BFC31E9BFA32C DUP3 PUSH1 0x40 MLOAD PUSH2 0x1571 SWAP2 SWAP1 PUSH2 0x1B2E JUMP JUMPDEST PUSH1 0x40 MLOAD DUP1 SWAP2 SUB SWAP1 LOG2 POP POP POP JUMP JUMPDEST PUSH0 DUP2 GT PUSH2 0x15C0 JUMPI PUSH1 0x40 MLOAD PUSH32 0x8C379A000000000000000000000000000000000000000000000000000000000 DUP2 MSTORE PUSH1 0x4 ADD PUSH2 0x15B7 SWAP1 PUSH2 0x260F JUMP JUMPDEST PUSH1 0x40 MLOAD DUP1 SWAP2 SUB SWAP1 REVERT JUMPDEST PUSH0 PUSH1 0x3 PUSH0 SWAP1 SLOAD SWAP1 PUSH2 0x100 EXP SWAP1 DIV PUSH20 0xFFFFFFFFFFFFFFFFFFFFFFFFFFFFFFFFFFFFFFFF AND PUSH20 0xFFFFFFFFFFFFFFFFFFFFFFFFFFFFFFFFFFFFFFFF AND PUSH4 0x70A08231 PUSH2 0x1606 PUSH2 0xE76 JUMP JUMPDEST PUSH1 0x40 MLOAD DUP3 PUSH4 0xFFFFFFFF AND PUSH1 0xE0 SHL DUP2 MSTORE PUSH1 0x4 ADD PUSH2 0x1622 SWAP2 SWAP1 PUSH2 0x2149 JUMP JUMPDEST PUSH1 0x20 PUSH1 0x40 MLOAD DUP1 DUP4 SUB DUP2 DUP7 GAS STATICCALL ISZERO DUP1 ISZERO PUSH2 0x163D JUMPI RETURNDATASIZE PUSH0 DUP1 RETURNDATACOPY RETURNDATASIZE PUSH0 REVERT JUMPDEST POP POP POP POP PUSH1 0x40 MLOAD RETURNDATASIZE PUSH1 0x1F NOT PUSH1 0x1F DUP3 ADD AND DUP3 ADD DUP1 PUSH1 0x40 MSTORE POP DUP2 ADD SWAP1 PUSH2 0x1661 SWAP2 SWAP1 PUSH2 0x2176 JUMP JUMPDEST GT PUSH2 0x16A1 JUMPI PUSH1 0x40 MLOAD PUSH32 0x8C379A000000000000000000000000000000000000000000000000000000000 DUP2 MSTORE PUSH1 0x4 ADD PUSH2 0x1698 SWAP1 PUSH2 0x2677 JUMP JUMPDEST PUSH1 0x40 MLOAD DUP1 SWAP2 SUB SWAP1 REVERT JUMPDEST PUSH1 0x2 PUSH0 SWAP1 SLOAD SWAP1 PUSH2 0x100 EXP SWAP1 DIV PUSH20 0xFFFFFFFFFFFFFFFFFFFFFFFFFFFFFFFFFFFFFFFF AND PUSH20 0xFFFFFFFFFFFFFFFFFFFFFFFFFFFFFFFFFFFFFFFF AND PUSH4 0x95EA7B3 ADDRESS DUP4 PUSH1 0x40 MLOAD DUP4 PUSH4 0xFFFFFFFF AND PUSH1 0xE0 SHL DUP2 MSTORE PUSH1 0x4 ADD PUSH2 0x16FD SWAP3 SWAP2 SWAP1 PUSH2 0x20CD JUMP JUMPDEST PUSH1 0x20 PUSH1 0x40 MLOAD DUP1 DUP4 SUB DUP2 PUSH0 DUP8 GAS CALL ISZERO DUP1 ISZERO PUSH2 0x1719 JUMPI RETURNDATASIZE PUSH0 DUP1 RETURNDATACOPY RETURNDATASIZE PUSH0 REVERT JUMPDEST POP POP POP POP PUSH1 0x40 MLOAD RETURNDATASIZE PUSH1 0x1F NOT PUSH1 0x1F DUP3 ADD AND DUP3 ADD DUP1 PUSH1 0x40 MSTORE POP DUP2 ADD SWAP1 PUSH2 0x173D SWAP2 SWAP1 PUSH2 0x211E JUMP JUMPDEST PUSH2 0x177C JUMPI PUSH1 0x40 MLOAD PUSH32 0x8C379A000000000000000000000000000000000000000000000000000000000 DUP2 MSTORE PUSH1 0x4 ADD PUSH2 0x1773 SWAP1 PUSH2 0x26DF JUMP JUMPDEST PUSH1 0x40 MLOAD DUP1 SWAP2 SUB SWAP1 REVERT JUMPDEST PUSH1 0x2 PUSH0 SWAP1 SLOAD SWAP1 PUSH2 0x100 EXP SWAP1 DIV PUSH20 0xFFFFFFFFFFFFFFFFFFFFFFFFFFFFFFFFFFFFFFFF AND PUSH20 0xFFFFFFFFFFFFFFFFFFFFFFFFFFFFFFFFFFFFFFFF AND PUSH4 0x23B872DD PUSH2 0x17C1 PUSH2 0xE76 JUMP JUMPDEST ADDRESS DUP5 PUSH1 0x40 MLOAD DUP5 PUSH4 0xFFFFFFFF AND PUSH1 0xE0 SHL DUP2 MSTORE PUSH1 0x4 ADD PUSH2 0x17E1 SWAP4 SWAP3 SWAP2 SWAP1 PUSH2 0x26FD JUMP JUMPDEST PUSH1 0x20 PUSH1 0x40 MLOAD DUP1 DUP4 SUB DUP2 PUSH0 DUP8 GAS CALL ISZERO DUP1 ISZERO PUSH2 0x17FD JUMPI RETURNDATASIZE PUSH0 DUP1 RETURNDATACOPY RETURNDATASIZE PUSH0 REVERT JUMPDEST POP POP POP POP PUSH1 0x40 MLOAD RETURNDATASIZE PUSH1 0x1F NOT PUSH1 0x1F DUP3 ADD AND DUP3 ADD DUP1 PUSH1 0x40 MSTORE POP DUP2 ADD SWAP1 PUSH2 0x1821 SWAP2 SWAP1 PUSH2 0x211E JUMP JUMPDEST PUSH2 0x1860 JUMPI PUSH1 0x40 MLOAD PUSH32 0x8C379A000000000000000000000000000000000000000000000000000000000 DUP2 MSTORE PUSH1 0x4 ADD PUSH2 0x1857 SWAP1 PUSH2 0x277C JUMP JUMPDEST PUSH1 0x40 MLOAD DUP1 SWAP2 SUB SWAP1 REVERT JUMPDEST PUSH0 PUSH1 0xD PUSH0 PUSH2 0x186C PUSH2 0xE76 JUMP JUMPDEST PUSH20 0xFFFFFFFFFFFFFFFFFFFFFFFFFFFFFFFFFFFFFFFF AND PUSH20 0xFFFFFFFFFFFFFFFFFFFFFFFFFFFFFFFFFFFFFFFF AND DUP2 MSTORE PUSH1 0x20 ADD SWAP1 DUP2 MSTORE PUSH1 0x20 ADD PUSH0 KECCAK256 SWAP1 POP DUP2 DUP2 PUSH0 ADD PUSH0 DUP3 DUP3 SLOAD PUSH2 0x18B9 SWAP2 SWAP1 PUSH2 0x204A JUMP JUMPDEST SWAP3 POP POP DUP2 SWAP1 SSTORE POP PUSH9 0x56BC75E2D63100000 DUP2 PUSH0 ADD SLOAD GT ISZERO PUSH2 0x190F JUMPI PUSH1 0x40 MLOAD PUSH32 0x8C379A000000000000000000000000000000000000000000000000000000000 DUP2 MSTORE PUSH1 0x4 ADD PUSH2 0x1906 SWAP1 PUSH2 0x27E4 JUMP JUMPDEST PUSH1 0x40 MLOAD DUP1 SWAP2 SUB SWAP1 REVERT JUMPDEST DUP2 PUSH1 0x7 PUSH0 DUP3 DUP3 SLOAD PUSH2 0x1920 SWAP2 SWAP1 PUSH2 0x204A JUMP JUMPDEST SWAP3 POP POP DUP2 SWAP1 SSTORE POP NUMBER DUP2 PUSH1 0x1 ADD DUP2 SWAP1 SSTORE POP PUSH2 0x1938 PUSH2 0xE76 JUMP JUMPDEST PUSH20 0xFFFFFFFFFFFFFFFFFFFFFFFFFFFFFFFFFFFFFFFF AND PUSH32 0x9E71BC8EEA02A63969F509818F2DAFB9254532904319F9DBDA79B67BD34A5F3D DUP4 PUSH1 0x40 MLOAD PUSH2 0x197D SWAP2 SWAP1 PUSH2 0x1B2E JUMP JUMPDEST PUSH1 0x40 MLOAD DUP1 SWAP2 SUB SWAP1 LOG2 POP POP JUMP JUMPDEST PUSH2 0x1993 DUP3 DUP3 PUSH2 0xB90 JUMP JUMPDEST PUSH2 0x19D6 JUMPI DUP1 DUP3 PUSH1 0x40 MLOAD PUSH32 0xE2517D3F00000000000000000000000000000000000000000000000000000000 DUP2 MSTORE PUSH1 0x4 ADD PUSH2 0x19CD SWAP3 SWAP2 SWAP1 PUSH2 0x2802 JUMP JUMPDEST PUSH1 0x40 MLOAD DUP1 SWAP2 SUB SWAP1 REVERT JUMPDEST POP POP JUMP JUMPDEST PUSH0 DUP1 REVERT JUMPDEST PUSH0 PUSH32 0xFFFFFFFF00000000000000000000000000000000000000000000000000000000 DUP3 AND SWAP1 POP SWAP2 SWAP1 POP JUMP JUMPDEST PUSH2 0x1A12 DUP2 PUSH2 0x19DE JUMP JUMPDEST DUP2 EQ PUSH2 0x1A1C JUMPI PUSH0 DUP1 REVERT JUMPDEST POP JUMP JUMPDEST PUSH0 DUP2 CALLDATALOAD SWAP1 POP PUSH2 0x1A2D DUP2 PUSH2 0x1A09 JUMP JUMPDEST SWAP3 SWAP2 POP POP JUMP JUMPDEST PUSH0 PUSH1 0x20 DUP3 DUP5 SUB SLT ISZERO PUSH2 0x1A48 JUMPI PUSH2 0x1A47 PUSH2 0x19DA JUMP JUMPDEST JUMPDEST PUSH0 PUSH2 0x1A55 DUP5 DUP3 DUP6 ADD PUSH2 0x1A1F JUMP JUMPDEST SWAP2 POP POP SWAP3 SWAP2 POP POP JUMP JUMPDEST PUSH0 DUP2 ISZERO ISZERO SWAP1 POP SWAP2 SWAP1 POP JUMP JUMPDEST PUSH2 0x1A72 DUP2 PUSH2 0x1A5E JUMP JUMPDEST DUP3 MSTORE POP POP JUMP JUMPDEST PUSH0 PUSH1 0x20 DUP3 ADD SWAP1 POP PUSH2 0x1A8B PUSH0 DUP4 ADD DUP5 PUSH2 0x1A69 JUMP JUMPDEST SWAP3 SWAP2 POP POP JUMP JUMPDEST PUSH0 PUSH20 0xFFFFFFFFFFFFFFFFFFFFFFFFFFFFFFFFFFFFFFFF DUP3 AND SWAP1 POP SWAP2 SWAP1 POP JUMP JUMPDEST PUSH0 PUSH2 0x1ABA DUP3 PUSH2 0x1A91 JUMP JUMPDEST SWAP1 POP SWAP2 SWAP1 POP JUMP JUMPDEST PUSH2 0x1ACA DUP2 PUSH2 0x1AB0 JUMP JUMPDEST DUP2 EQ PUSH2 0x1AD4 JUMPI PUSH0 DUP1 REVERT JUMPDEST POP JUMP JUMPDEST PUSH0 DUP2 CALLDATALOAD SWAP1 POP PUSH2 0x1AE5 DUP2 PUSH2 0x1AC1 JUMP JUMPDEST SWAP3 SWAP2 POP POP JUMP JUMPDEST PUSH0 PUSH1 0x20 DUP3 DUP5 SUB SLT ISZERO PUSH2 0x1B00 JUMPI PUSH2 0x1AFF PUSH2 0x19DA JUMP JUMPDEST JUMPDEST PUSH0 PUSH2 0x1B0D DUP5 DUP3 DUP6 ADD PUSH2 0x1AD7 JUMP JUMPDEST SWAP2 POP POP SWAP3 SWAP2 POP POP JUMP JUMPDEST PUSH0 DUP2 SWAP1 POP SWAP2 SWAP1 POP JUMP JUMPDEST PUSH2 0x1B28 DUP2 PUSH2 0x1B16 JUMP JUMPDEST DUP3 MSTORE POP POP JUMP JUMPDEST PUSH0 PUSH1 0x20 DUP3 ADD SWAP1 POP PUSH2 0x1B41 PUSH0 DUP4 ADD DUP5 PUSH2 0x1B1F JUMP JUMPDEST SWAP3 SWAP2 POP POP JUMP JUMPDEST PUSH0 PUSH2 0x1B51 DUP3 PUSH2 0x1AB0 JUMP JUMPDEST SWAP1 POP SWAP2 SWAP1 POP JUMP JUMPDEST PUSH2 0x1B61 DUP2 PUSH2 0x1B47 JUMP JUMPDEST DUP2 EQ PUSH2 0x1B6B JUMPI PUSH0 DUP1 REVERT JUMPDEST POP JUMP JUMPDEST PUSH0 DUP2 CALLDATALOAD SWAP1 POP PUSH2 0x1B7C DUP2 PUSH2 0x1B58 JUMP JUMPDEST SWAP3 SWAP2 POP POP JUMP JUMPDEST PUSH0 PUSH1 0x20 DUP3 DUP5 SUB SLT ISZERO PUSH2 0x1B97 JUMPI PUSH2 0x1B96 PUSH2 0x19DA JUMP JUMPDEST JUMPDEST PUSH0 PUSH2 0x1BA4 DUP5 DUP3 DUP6 ADD PUSH2 0x1B6E JUMP JUMPDEST SWAP2 POP POP SWAP3 SWAP2 POP POP JUMP JUMPDEST PUSH0 PUSH1 0x40 DUP3 ADD SWAP1 POP PUSH2 0x1BC0 PUSH0 DUP4 ADD DUP6 PUSH2 0x1B1F JUMP JUMPDEST PUSH2 0x1BCD PUSH1 0x20 DUP4 ADD DUP5 PUSH2 0x1B1F JUMP JUMPDEST SWAP4 SWAP3 POP POP POP JUMP JUMPDEST PUSH0 DUP2 SWAP1 POP SWAP2 SWAP1 POP JUMP JUMPDEST PUSH2 0x1BE6 DUP2 PUSH2 0x1BD4 JUMP JUMPDEST DUP2 EQ PUSH2 0x1BF0 JUMPI PUSH0 DUP1 REVERT JUMPDEST POP JUMP JUMPDEST PUSH0 DUP2 CALLDATALOAD SWAP1 POP PUSH2 0x1C01 DUP2 PUSH2 0x1BDD JUMP JUMPDEST SWAP3 SWAP2 POP POP JUMP JUMPDEST PUSH0 PUSH1 0x20 DUP3 DUP5 SUB SLT ISZERO PUSH2 0x1C1C JUMPI PUSH2 0x1C1B PUSH2 0x19DA JUMP JUMPDEST JUMPDEST PUSH0 PUSH2 0x1C29 DUP5 DUP3 DUP6 ADD PUSH2 0x1BF3 JUMP JUMPDEST SWAP2 POP POP SWAP3 SWAP2 POP POP JUMP JUMPDEST PUSH2 0x1C3B DUP2 PUSH2 0x1BD4 JUMP JUMPDEST DUP3 MSTORE POP POP JUMP JUMPDEST PUSH0 PUSH1 0x20 DUP3 ADD SWAP1 POP PUSH2 0x1C54 PUSH0 DUP4 ADD DUP5 PUSH2 0x1C32 JUMP JUMPDEST SWAP3 SWAP2 POP POP JUMP JUMPDEST PUSH2 0x1C63 DUP2 PUSH2 0x1B16 JUMP JUMPDEST DUP2 EQ PUSH2 0x1C6D JUMPI PUSH0 DUP1 REVERT JUMPDEST POP JUMP JUMPDEST PUSH0 DUP2 CALLDATALOAD SWAP1 POP PUSH2 0x1C7E DUP2 PUSH2 0x1C5A JUMP JUMPDEST SWAP3 SWAP2 POP POP JUMP JUMPDEST PUSH0 PUSH1 0x20 DUP3 DUP5 SUB SLT ISZERO PUSH2 0x1C99 JUMPI PUSH2 0x1C98 PUSH2 0x19DA JUMP JUMPDEST JUMPDEST PUSH0 PUSH2 0x1CA6 DUP5 DUP3 DUP6 ADD PUSH2 0x1C70 JUMP JUMPDEST SWAP2 POP POP SWAP3 SWAP2 POP POP JUMP JUMPDEST PUSH0 DUP1 PUSH1 0x40 DUP4 DUP6 SUB SLT ISZERO PUSH2 0x1CC5 JUMPI PUSH2 0x1CC4 PUSH2 0x19DA JUMP JUMPDEST JUMPDEST PUSH0 PUSH2 0x1CD2 DUP6 DUP3 DUP7 ADD PUSH2 0x1BF3 JUMP JUMPDEST SWAP3 POP POP PUSH1 0x20 PUSH2 0x1CE3 DUP6 DUP3 DUP7 ADD PUSH2 0x1AD7 JUMP JUMPDEST SWAP2 POP POP SWAP3 POP SWAP3 SWAP1 POP JUMP JUMPDEST PUSH0 PUSH2 0x1CF7 DUP3 PUSH2 0x1AB0 JUMP JUMPDEST SWAP1 POP SWAP2 SWAP1 POP JUMP JUMPDEST PUSH2 0x1D07 DUP2 PUSH2 0x1CED JUMP JUMPDEST DUP2 EQ PUSH2 0x1D11 JUMPI PUSH0 DUP1 REVERT JUMPDEST POP JUMP JUMPDEST PUSH0 DUP2 CALLDATALOAD SWAP1 POP PUSH2 0x1D22 DUP2 PUSH2 0x1CFE JUMP JUMPDEST SWAP3 SWAP2 POP POP JUMP JUMPDEST PUSH0 DUP1 PUSH0 PUSH1 0x60 DUP5 DUP7 SUB SLT ISZERO PUSH2 0x1D3F JUMPI PUSH2 0x1D3E PUSH2 0x19DA JUMP JUMPDEST JUMPDEST PUSH0 PUSH2 0x1D4C DUP7 DUP3 DUP8 ADD PUSH2 0x1D14 JUMP JUMPDEST SWAP4 POP POP PUSH1 0x20 PUSH2 0x1D5D DUP7 DUP3 DUP8 ADD PUSH2 0x1AD7 JUMP JUMPDEST SWAP3 POP POP PUSH1 0x40 PUSH2 0x1D6E DUP7 DUP3 DUP8 ADD PUSH2 0x1C70 JUMP JUMPDEST SWAP2 POP POP SWAP3 POP SWAP3 POP SWAP3 JUMP JUMPDEST PUSH0 DUP2 SWAP1 POP SWAP2 SWAP1 POP JUMP JUMPDEST PUSH0 PUSH2 0x1D9B PUSH2 0x1D96 PUSH2 0x1D91 DUP5 PUSH2 0x1A91 JUMP JUMPDEST PUSH2 0x1D78 JUMP JUMPDEST PUSH2 0x1A91 JUMP JUMPDEST SWAP1 POP SWAP2 SWAP1 POP JUMP JUMPDEST PUSH0 PUSH2 0x1DAC DUP3 PUSH2 0x1D81 JUMP JUMPDEST SWAP1 POP SWAP2 SWAP1 POP JUMP JUMPDEST PUSH0 PUSH2 0x1DBD DUP3 PUSH2 0x1DA2 JUMP JUMPDEST SWAP1 POP SWAP2 SWAP1 POP JUMP JUMPDEST PUSH2 0x1DCD DUP2 PUSH2 0x1DB3 JUMP JUMPDEST DUP3 MSTORE POP POP JUMP JUMPDEST PUSH0 PUSH1 0x20 DUP3 ADD SWAP1 POP PUSH2 0x1DE6 PUSH0 DUP4 ADD DUP5 PUSH2 0x1DC4 JUMP JUMPDEST SWAP3 SWAP2 POP POP JUMP JUMPDEST PUSH0 PUSH2 0x1DF6 DUP3 PUSH2 0x1A91 JUMP JUMPDEST SWAP1 POP SWAP2 SWAP1 POP JUMP JUMPDEST PUSH2 0x1E06 DUP2 PUSH2 0x1DEC JUMP JUMPDEST DUP2 EQ PUSH2 0x1E10 JUMPI PUSH0 DUP1 REVERT JUMPDEST POP JUMP JUMPDEST PUSH0 DUP2 CALLDATALOAD SWAP1 POP PUSH2 0x1E21 DUP2 PUSH2 0x1DFD JUMP JUMPDEST SWAP3 SWAP2 POP POP JUMP JUMPDEST PUSH0 DUP1 PUSH1 0x40 DUP4 DUP6 SUB SLT ISZERO PUSH2 0x1E3D JUMPI PUSH2 0x1E3C PUSH2 0x19DA JUMP JUMPDEST JUMPDEST PUSH0 PUSH2 0x1E4A DUP6 DUP3 DUP7 ADD PUSH2 0x1E13 JUMP JUMPDEST SWAP3 POP POP PUSH1 0x20 PUSH2 0x1E5B DUP6 DUP3 DUP7 ADD PUSH2 0x1C70 JUMP JUMPDEST SWAP2 POP POP SWAP3 POP SWAP3 SWAP1 POP JUMP JUMPDEST PUSH0 PUSH2 0x1E6F DUP3 PUSH2 0x1DA2 JUMP JUMPDEST SWAP1 POP SWAP2 SWAP1 POP JUMP JUMPDEST PUSH2 0x1E7F DUP2 PUSH2 0x1E65 JUMP JUMPDEST DUP3 MSTORE POP POP JUMP JUMPDEST PUSH0 PUSH1 0x20 DUP3 ADD SWAP1 POP PUSH2 0x1E98 PUSH0 DUP4 ADD DUP5 PUSH2 0x1E76 JUMP JUMPDEST SWAP3 SWAP2 POP POP JUMP JUMPDEST PUSH0 PUSH2 0x1EA8 DUP3 PUSH2 0x1AB0 JUMP JUMPDEST SWAP1 POP SWAP2 SWAP1 POP JUMP JUMPDEST PUSH2 0x1EB8 DUP2 PUSH2 0x1E9E JUMP JUMPDEST DUP2 EQ PUSH2 0x1EC2 JUMPI PUSH0 DUP1 REVERT JUMPDEST POP JUMP JUMPDEST PUSH0 DUP2 CALLDATALOAD SWAP1 POP PUSH2 0x1ED3 DUP2 PUSH2 0x1EAF JUMP JUMPDEST SWAP3 SWAP2 POP POP JUMP JUMPDEST PUSH0 PUSH1 0x20 DUP3 DUP5 SUB SLT ISZERO PUSH2 0x1EEE JUMPI PUSH2 0x1EED PUSH2 0x19DA JUMP JUMPDEST JUMPDEST PUSH0 PUSH2 0x1EFB DUP5 DUP3 DUP6 ADD PUSH2 0x1EC5 JUMP JUMPDEST SWAP2 POP POP SWAP3 SWAP2 POP POP JUMP JUMPDEST PUSH0 PUSH2 0x1F0E DUP3 PUSH2 0x1DA2 JUMP JUMPDEST SWAP1 POP SWAP2 SWAP1 POP JUMP JUMPDEST PUSH2 0x1F1E DUP2 PUSH2 0x1F04 JUMP JUMPDEST DUP3 MSTORE POP POP JUMP JUMPDEST PUSH0 PUSH1 0x20 DUP3 ADD SWAP1 POP PUSH2 0x1F37 PUSH0 DUP4 ADD DUP5 PUSH2 0x1F15 JUMP JUMPDEST SWAP3 SWAP2 POP POP JUMP JUMPDEST PUSH0 PUSH1 0x60 DUP3 ADD SWAP1 POP PUSH2 0x1F50 PUSH0 DUP4 ADD DUP7 PUSH2 0x1B1F JUMP JUMPDEST PUSH2 0x1F5D PUSH1 0x20 DUP4 ADD DUP6 PUSH2 0x1B1F JUMP JUMPDEST PUSH2 0x1F6A PUSH1 0x40 DUP4 ADD DUP5 PUSH2 0x1B1F JUMP JUMPDEST SWAP5 SWAP4 POP POP POP POP JUMP JUMPDEST PUSH0 DUP3 DUP3 MSTORE PUSH1 0x20 DUP3 ADD SWAP1 POP SWAP3 SWAP2 POP POP JUMP JUMPDEST PUSH32 0x4E6F204E4654204C6576656C0000000000000000000000000000000000000000 PUSH0 DUP3 ADD MSTORE POP JUMP JUMPDEST PUSH0 PUSH2 0x1FB6 PUSH1 0xC DUP4 PUSH2 0x1F72 JUMP JUMPDEST SWAP2 POP PUSH2 0x1FC1 DUP3 PUSH2 0x1F82 JUMP JUMPDEST PUSH1 0x20 DUP3 ADD SWAP1 POP SWAP2 SWAP1 POP JUMP JUMPDEST PUSH0 PUSH1 0x20 DUP3 ADD SWAP1 POP DUP2 DUP2 SUB PUSH0 DUP4 ADD MSTORE PUSH2 0x1FE3 DUP2 PUSH2 0x1FAA JUMP JUMPDEST SWAP1 POP SWAP2 SWAP1 POP JUMP JUMPDEST PUSH32 0x4E487B7100000000000000000000000000000000000000000000000000000000 PUSH0 MSTORE PUSH1 0x11 PUSH1 0x4 MSTORE PUSH1 0x24 PUSH0 REVERT JUMPDEST PUSH0 PUSH2 0x2021 DUP3 PUSH2 0x1B16 JUMP JUMPDEST SWAP2 POP PUSH2 0x202C DUP4 PUSH2 0x1B16 JUMP JUMPDEST SWAP3 POP DUP3 DUP3 SUB SWAP1 POP DUP2 DUP2 GT ISZERO PUSH2 0x2044 JUMPI PUSH2 0x2043 PUSH2 0x1FEA JUMP JUMPDEST JUMPDEST SWAP3 SWAP2 POP POP JUMP JUMPDEST PUSH0 PUSH2 0x2054 DUP3 PUSH2 0x1B16 JUMP JUMPDEST SWAP2 POP PUSH2 0x205F DUP4 PUSH2 0x1B16 JUMP JUMPDEST SWAP3 POP DUP3 DUP3 ADD SWAP1 POP DUP1 DUP3 GT ISZERO PUSH2 0x2077 JUMPI PUSH2 0x2076 PUSH2 0x1FEA JUMP JUMPDEST JUMPDEST SWAP3 SWAP2 POP POP JUMP JUMPDEST PUSH0 PUSH2 0x2087 DUP3 PUSH2 0x1B16 JUMP JUMPDEST SWAP2 POP PUSH2 0x2092 DUP4 PUSH2 0x1B16 JUMP JUMPDEST SWAP3 POP DUP3 DUP3 MUL PUSH2 0x20A0 DUP2 PUSH2 0x1B16 JUMP JUMPDEST SWAP2 POP DUP3 DUP3 DIV DUP5 EQ DUP4 ISZERO OR PUSH2 0x20B7 JUMPI PUSH2 0x20B6 PUSH2 0x1FEA JUMP JUMPDEST JUMPDEST POP SWAP3 SWAP2 POP POP JUMP JUMPDEST PUSH2 0x20C7 DUP2 PUSH2 0x1AB0 JUMP JUMPDEST DUP3 MSTORE POP POP JUMP JUMPDEST PUSH0 PUSH1 0x40 DUP3 ADD SWAP1 POP PUSH2 0x20E0 PUSH0 DUP4 ADD DUP6 PUSH2 0x20BE JUMP JUMPDEST PUSH2 0x20ED PUSH1 0x20 DUP4 ADD DUP5 PUSH2 0x1B1F JUMP JUMPDEST SWAP4 SWAP3 POP POP POP JUMP JUMPDEST PUSH2 0x20FD DUP2 PUSH2 0x1A5E JUMP JUMPDEST DUP2 EQ PUSH2 0x2107 JUMPI PUSH0 DUP1 REVERT JUMPDEST POP JUMP JUMPDEST PUSH0 DUP2 MLOAD SWAP1 POP PUSH2 0x2118 DUP2 PUSH2 0x20F4 JUMP JUMPDEST SWAP3 SWAP2 POP POP JUMP JUMPDEST PUSH0 PUSH1 0x20 DUP3 DUP5 SUB SLT ISZERO PUSH2 0x2133 JUMPI PUSH2 0x2132 PUSH2 0x19DA JUMP JUMPDEST JUMPDEST PUSH0 PUSH2 0x2140 DUP5 DUP3 DUP6 ADD PUSH2 0x210A JUMP JUMPDEST SWAP2 POP POP SWAP3 SWAP2 POP POP JUMP JUMPDEST PUSH0 PUSH1 0x20 DUP3 ADD SWAP1 POP PUSH2 0x215C PUSH0 DUP4 ADD DUP5 PUSH2 0x20BE JUMP JUMPDEST SWAP3 SWAP2 POP POP JUMP JUMPDEST PUSH0 DUP2 MLOAD SWAP1 POP PUSH2 0x2170 DUP2 PUSH2 0x1C5A JUMP JUMPDEST SWAP3 SWAP2 POP POP JUMP JUMPDEST PUSH0 PUSH1 0x20 DUP3 DUP5 SUB SLT ISZERO PUSH2 0x218B JUMPI PUSH2 0x218A PUSH2 0x19DA JUMP JUMPDEST JUMPDEST PUSH0 PUSH2 0x2198 DUP5 DUP3 DUP6 ADD PUSH2 0x2162 JUMP JUMPDEST SWAP2 POP POP SWAP3 SWAP2 POP POP JUMP JUMPDEST PUSH32 0x5265776172642072617465206D75737420626520706F73697469766500000000 PUSH0 DUP3 ADD MSTORE POP JUMP JUMPDEST PUSH0 PUSH2 0x21D5 PUSH1 0x1C DUP4 PUSH2 0x1F72 JUMP JUMPDEST SWAP2 POP PUSH2 0x21E0 DUP3 PUSH2 0x21A1 JUMP JUMPDEST PUSH1 0x20 DUP3 ADD SWAP1 POP SWAP2 SWAP1 POP JUMP JUMPDEST PUSH0 PUSH1 0x20 DUP3 ADD SWAP1 POP DUP2 DUP2 SUB PUSH0 DUP4 ADD MSTORE PUSH2 0x2202 DUP2 PUSH2 0x21C9 JUMP JUMPDEST SWAP1 POP SWAP2 SWAP1 POP JUMP JUMPDEST PUSH32 0x5265656E7472616E637947756172643A207265656E7472616E742063616C6C00 PUSH0 DUP3 ADD MSTORE POP JUMP JUMPDEST PUSH0 PUSH2 0x223D PUSH1 0x1F DUP4 PUSH2 0x1F72 JUMP JUMPDEST SWAP2 POP PUSH2 0x2248 DUP3 PUSH2 0x2209 JUMP JUMPDEST PUSH1 0x20 DUP3 ADD SWAP1 POP SWAP2 SWAP1 POP JUMP JUMPDEST PUSH0 PUSH1 0x20 DUP3 ADD SWAP1 POP DUP2 DUP2 SUB PUSH0 DUP4 ADD MSTORE PUSH2 0x226A DUP2 PUSH2 0x2231 JUMP JUMPDEST SWAP1 POP SWAP2 SWAP1 POP JUMP JUMPDEST PUSH32 0x546F6B656E5374616B696E673A20416D6F756E74206D75737420626520677265 PUSH0 DUP3 ADD MSTORE PUSH32 0x61746572207468616E2030000000000000000000000000000000000000000000 PUSH1 0x20 DUP3 ADD MSTORE POP JUMP JUMPDEST PUSH0 PUSH2 0x22CB PUSH1 0x2B DUP4 PUSH2 0x1F72 JUMP JUMPDEST SWAP2 POP PUSH2 0x22D6 DUP3 PUSH2 0x2271 JUMP JUMPDEST PUSH1 0x40 DUP3 ADD SWAP1 POP SWAP2 SWAP1 POP JUMP JUMPDEST PUSH0 PUSH1 0x20 DUP3 ADD SWAP1 POP DUP2 DUP2 SUB PUSH0 DUP4 ADD MSTORE PUSH2 0x22F8 DUP2 PUSH2 0x22BF JUMP JUMPDEST SWAP1 POP SWAP2 SWAP1 POP JUMP JUMPDEST PUSH32 0x546F6B656E5374616B696E673A20496E73756666696369656E74207374616B65 PUSH0 DUP3 ADD MSTORE PUSH32 0x642062616C616E63650000000000000000000000000000000000000000000000 PUSH1 0x20 DUP3 ADD MSTORE POP JUMP JUMPDEST PUSH0 PUSH2 0x2359 PUSH1 0x29 DUP4 PUSH2 0x1F72 JUMP JUMPDEST SWAP2 POP PUSH2 0x2364 DUP3 PUSH2 0x22FF JUMP JUMPDEST PUSH1 0x40 DUP3 ADD SWAP1 POP SWAP2 SWAP1 POP JUMP JUMPDEST PUSH0 PUSH1 0x20 DUP3 ADD SWAP1 POP DUP2 DUP2 SUB PUSH0 DUP4 ADD MSTORE PUSH2 0x2386 DUP2 PUSH2 0x234D JUMP JUMPDEST SWAP1 POP SWAP2 SWAP1 POP JUMP JUMPDEST PUSH32 0x546F6B656E5374616B696E673A20436C61696D20696E74657276616C206E6F74 PUSH0 DUP3 ADD MSTORE PUSH32 0x206D657400000000000000000000000000000000000000000000000000000000 PUSH1 0x20 DUP3 ADD MSTORE POP JUMP JUMPDEST PUSH0 PUSH2 0x23E7 PUSH1 0x24 DUP4 PUSH2 0x1F72 JUMP JUMPDEST SWAP2 POP PUSH2 0x23F2 DUP3 PUSH2 0x238D JUMP JUMPDEST PUSH1 0x40 DUP3 ADD SWAP1 POP SWAP2 SWAP1 POP JUMP JUMPDEST PUSH0 PUSH1 0x20 DUP3 ADD SWAP1 POP DUP2 DUP2 SUB PUSH0 DUP4 ADD MSTORE PUSH2 0x2414 DUP2 PUSH2 0x23DB JUMP JUMPDEST SWAP1 POP SWAP2 SWAP1 POP JUMP JUMPDEST PUSH32 0x546F6B656E5374616B696E673A20556E7374616B65207472616E736665722066 PUSH0 DUP3 ADD MSTORE PUSH32 0x61696C6564000000000000000000000000000000000000000000000000000000 PUSH1 0x20 DUP3 ADD MSTORE POP JUMP JUMPDEST PUSH0 PUSH2 0x2475 PUSH1 0x25 DUP4 PUSH2 0x1F72 JUMP JUMPDEST SWAP2 POP PUSH2 0x2480 DUP3 PUSH2 0x241B JUMP JUMPDEST PUSH1 0x40 DUP3 ADD SWAP1 POP SWAP2 SWAP1 POP JUMP JUMPDEST PUSH0 PUSH1 0x20 DUP3 ADD SWAP1 POP DUP2 DUP2 SUB PUSH0 DUP4 ADD MSTORE PUSH2 0x24A2 DUP2 PUSH2 0x2469 JUMP JUMPDEST SWAP1 POP SWAP2 SWAP1 POP JUMP JUMPDEST PUSH32 0x546F6B656E5374616B696E673A204E6F207374616B65642062616C616E636500 PUSH0 DUP3 ADD MSTORE POP JUMP JUMPDEST PUSH0 PUSH2 0x24DD PUSH1 0x1F DUP4 PUSH2 0x1F72 JUMP JUMPDEST SWAP2 POP PUSH2 0x24E8 DUP3 PUSH2 0x24A9 JUMP JUMPDEST PUSH1 0x20 DUP3 ADD SWAP1 POP SWAP2 SWAP1 POP JUMP JUMPDEST PUSH0 PUSH1 0x20 DUP3 ADD SWAP1 POP DUP2 DUP2 SUB PUSH0 DUP4 ADD MSTORE PUSH2 0x250A DUP2 PUSH2 0x24D1 JUMP JUMPDEST SWAP1 POP SWAP2 SWAP1 POP JUMP JUMPDEST PUSH32 0x546F6B656E5374616B696E673A204E6F207265776172647320746F20636C6169 PUSH0 DUP3 ADD MSTORE PUSH32 0x6D00000000000000000000000000000000000000000000000000000000000000 PUSH1 0x20 DUP3 ADD MSTORE POP JUMP JUMPDEST PUSH0 PUSH2 0x256B PUSH1 0x21 DUP4 PUSH2 0x1F72 JUMP JUMPDEST SWAP2 POP PUSH2 0x2576 DUP3 PUSH2 0x2511 JUMP JUMPDEST PUSH1 0x40 DUP3 ADD SWAP1 POP SWAP2 SWAP1 POP JUMP JUMPDEST PUSH0 PUSH1 0x20 DUP3 ADD SWAP1 POP DUP2 DUP2 SUB PUSH0 DUP4 ADD MSTORE PUSH2 0x2598 DUP2 PUSH2 0x255F JUMP JUMPDEST SWAP1 POP SWAP2 SWAP1 POP JUMP JUMPDEST PUSH32 0x5374616B696E673A20416D6F756E74206D757374206265206772656174657220 PUSH0 DUP3 ADD MSTORE PUSH32 0x7468616E20300000000000000000000000000000000000000000000000000000 PUSH1 0x20 DUP3 ADD MSTORE POP JUMP JUMPDEST PUSH0 PUSH2 0x25F9 PUSH1 0x26 DUP4 PUSH2 0x1F72 JUMP JUMPDEST SWAP2 POP PUSH2 0x2604 DUP3 PUSH2 0x259F JUMP JUMPDEST PUSH1 0x40 DUP3 ADD SWAP1 POP SWAP2 SWAP1 POP JUMP JUMPDEST PUSH0 PUSH1 0x20 DUP3 ADD SWAP1 POP DUP2 DUP2 SUB PUSH0 DUP4 ADD MSTORE PUSH2 0x2626 DUP2 PUSH2 0x25ED JUMP JUMPDEST SWAP1 POP SWAP2 SWAP1 POP JUMP JUMPDEST PUSH32 0x5374616B696E673A204E6F204E46542062616C616E6365000000000000000000 PUSH0 DUP3 ADD MSTORE POP JUMP JUMPDEST PUSH0 PUSH2 0x2661 PUSH1 0x17 DUP4 PUSH2 0x1F72 JUMP JUMPDEST SWAP2 POP PUSH2 0x266C DUP3 PUSH2 0x262D JUMP JUMPDEST PUSH1 0x20 DUP3 ADD SWAP1 POP SWAP2 SWAP1 POP JUMP JUMPDEST PUSH0 PUSH1 0x20 DUP3 ADD SWAP1 POP DUP2 DUP2 SUB PUSH0 DUP4 ADD MSTORE PUSH2 0x268E DUP2 PUSH2 0x2655 JUMP JUMPDEST SWAP1 POP SWAP2 SWAP1 POP JUMP JUMPDEST PUSH32 0x5374616B696E673A20417070726F76616C206661696C65640000000000000000 PUSH0 DUP3 ADD MSTORE POP JUMP JUMPDEST PUSH0 PUSH2 0x26C9 PUSH1 0x18 DUP4 PUSH2 0x1F72 JUMP JUMPDEST SWAP2 POP PUSH2 0x26D4 DUP3 PUSH2 0x2695 JUMP JUMPDEST PUSH1 0x20 DUP3 ADD SWAP1 POP SWAP2 SWAP1 POP JUMP JUMPDEST PUSH0 PUSH1 0x20 DUP3 ADD SWAP1 POP DUP2 DUP2 SUB PUSH0 DUP4 ADD MSTORE PUSH2 0x26F6 DUP2 PUSH2 0x26BD JUMP JUMPDEST SWAP1 POP SWAP2 SWAP1 POP JUMP JUMPDEST PUSH0 PUSH1 0x60 DUP3 ADD SWAP1 POP PUSH2 0x2710 PUSH0 DUP4 ADD DUP7 PUSH2 0x20BE JUMP JUMPDEST PUSH2 0x271D PUSH1 0x20 DUP4 ADD DUP6 PUSH2 0x20BE JUMP JUMPDEST PUSH2 0x272A PUSH1 0x40 DUP4 ADD DUP5 PUSH2 0x1B1F JUMP JUMPDEST SWAP5 SWAP4 POP POP POP POP JUMP JUMPDEST PUSH32 0x5374616B696E673A20546F6B656E207472616E73666572206661696C65640000 PUSH0 DUP3 ADD MSTORE POP JUMP JUMPDEST PUSH0 PUSH2 0x2766 PUSH1 0x1E DUP4 PUSH2 0x1F72 JUMP JUMPDEST SWAP2 POP PUSH2 0x2771 DUP3 PUSH2 0x2732 JUMP JUMPDEST PUSH1 0x20 DUP3 ADD SWAP1 POP SWAP2 SWAP1 POP JUMP JUMPDEST PUSH0 PUSH1 0x20 DUP3 ADD SWAP1 POP DUP2 DUP2 SUB PUSH0 DUP4 ADD MSTORE PUSH2 0x2793 DUP2 PUSH2 0x275A JUMP JUMPDEST SWAP1 POP SWAP2 SWAP1 POP JUMP JUMPDEST PUSH32 0x5374616B65206578636565647320636170000000000000000000000000000000 PUSH0 DUP3 ADD MSTORE POP JUMP JUMPDEST PUSH0 PUSH2 0x27CE PUSH1 0x11 DUP4 PUSH2 0x1F72 JUMP JUMPDEST SWAP2 POP PUSH2 0x27D9 DUP3 PUSH2 0x279A JUMP JUMPDEST PUSH1 0x20 DUP3 ADD SWAP1 POP SWAP2 SWAP1 POP JUMP JUMPDEST PUSH0 PUSH1 0x20 DUP3 ADD SWAP1 POP DUP2 DUP2 SUB PUSH0 DUP4 ADD MSTORE PUSH2 0x27FB DUP2 PUSH2 0x27C2 JUMP JUMPDEST SWAP1 POP SWAP2 SWAP1 POP JUMP JUMPDEST PUSH0 PUSH1 0x40 DUP3 ADD SWAP1 POP PUSH2 0x2815 PUSH0 DUP4 ADD DUP6 PUSH2 0x20BE JUMP JUMPDEST PUSH2 0x2822 PUSH1 0x20 DUP4 ADD DUP5 PUSH2 0x1C32 JUMP JUMPDEST SWAP4 SWAP3 POP POP POP JUMP INVALID LOG2 PUSH5 0x6970667358 0x22 SLT KECCAK256 PUSH12 0xEE125C14226D1E1A099DD96A PUSH9 0xB0A5D518E378148EA4 0xD3 PUSH15 0x67FA71451B6E3864736F6C63430008 BYTE STOP CALLER "
				},
				"gasEstimates": {
					"creation": {
						"codeDepositCost": "2067000",
						"executionCost": "infinite",
						"totalCost": "infinite"
					},
					"external": {
						"DEFAULT_ADMIN_ROLE()": "397",
						"_ADMIN()": "436",
						"_MINTER()": "436",
						"_RESCUE()": "415",
						"calculatePendingRewards(address)": "infinite",
						"claimInterval()": "2516",
						"claimRewards()": "infinite",
						"ethRescue(address,uint256)": "infinite",
						"getBlock()": "390",
						"getLevel(address)": "infinite",
						"getRoleAdmin(bytes32)": "infinite",
						"grantRole(bytes32,address)": "infinite",
						"hasRole(bytes32,address)": "3167",
						"ifacenft()": "infinite",
						"lastUpdateBlock()": "2514",
						"moveERC20(address,address,uint256)": "infinite",
						"nft()": "infinite",
						"renounceRole(bytes32,address)": "infinite",
						"revokeRole(bytes32,address)": "infinite",
						"rewardBonus()": "infinite",
						"rewardRatePerBlock()": "2537",
						"setClaimInterval(uint256)": "24960",
						"setNFT(address)": "27224",
						"setRewardRatePerBlock(uint256)": "47140",
						"setToken(address)": "27204",
						"stake(uint256)": "infinite",
						"supportsInterface(bytes4)": "764",
						"token()": "infinite",
						"totalRewards()": "2538",
						"totalStaked()": "2471",
						"unstake(uint256)": "infinite",
						"userInfo(address)": "infinite"
					},
					"internal": {
						"_claimRewards(address)": "infinite",
						"_stake(uint256)": "infinite",
						"_unstake(uint256)": "infinite"
					}
				},
				"methodIdentifiers": {
					"DEFAULT_ADMIN_ROLE()": "a217fddf",
					"_ADMIN()": "51557289",
					"_MINTER()": "a56bef5d",
					"_RESCUE()": "8d580b9f",
					"calculatePendingRewards(address)": "097aad10",
					"claimInterval()": "0b433a12",
					"claimRewards()": "372500ab",
					"ethRescue(address,uint256)": "48132f48",
					"getBlock()": "2e97766d",
					"getLevel(address)": "817c8966",
					"getRoleAdmin(bytes32)": "248a9ca3",
					"grantRole(bytes32,address)": "2f2ff15d",
					"hasRole(bytes32,address)": "91d14854",
					"ifacenft()": "b0ad08df",
					"lastUpdateBlock()": "a218141b",
					"moveERC20(address,address,uint256)": "41f431fd",
					"nft()": "47ccca02",
					"renounceRole(bytes32,address)": "36568abe",
					"revokeRole(bytes32,address)": "d547741f",
					"rewardBonus()": "fdf553cf",
					"rewardRatePerBlock()": "90870492",
					"setClaimInterval(uint256)": "f2d57adf",
					"setNFT(address)": "f56e9c66",
					"setRewardRatePerBlock(uint256)": "b2f196f6",
					"setToken(address)": "144fa6d7",
					"stake(uint256)": "a694fc3a",
					"supportsInterface(bytes4)": "01ffc9a7",
					"token()": "fc0c546a",
					"totalRewards()": "0e15561a",
					"totalStaked()": "817b1cd2",
					"unstake(uint256)": "2e17de78",
					"userInfo(address)": "1959a002"
				}
			},
			"storageLayout": {
				"storage": [
					{
						"astId": 26,
						"contract": "src/staking.sol:TokenStaking",
						"label": "_roles",
						"offset": 0,
						"slot": "0",
						"type": "t_mapping(t_bytes32,t_struct(RoleData)21_storage)"
					},
					{
						"astId": 389,
						"contract": "src/staking.sol:TokenStaking",
						"label": "_status",
						"offset": 0,
						"slot": "1",
						"type": "t_uint256"
					},
					{
						"astId": 747,
						"contract": "src/staking.sol:TokenStaking",
						"label": "token",
						"offset": 0,
						"slot": "2",
						"type": "t_contract(IMintableToken)739"
					},
					{
						"astId": 750,
						"contract": "src/staking.sol:TokenStaking",
						"label": "nft",
						"offset": 0,
						"slot": "3",
						"type": "t_contract(IERC721)638"
					},
					{
						"astId": 753,
						"contract": "src/staking.sol:TokenStaking",
						"label": "ifacenft",
						"offset": 0,
						"slot": "4",
						"type": "t_contract(nftIface)729"
					},
					{
						"astId": 755,
						"contract": "src/staking.sol:TokenStaking",
						"label": "rewardRatePerBlock",
						"offset": 0,
						"slot": "5",
						"type": "t_uint256"
					},
					{
						"astId": 757,
						"contract": "src/staking.sol:TokenStaking",
						"label": "lastUpdateBlock",
						"offset": 0,
						"slot": "6",
						"type": "t_uint256"
					},
					{
						"astId": 759,
						"contract": "src/staking.sol:TokenStaking",
						"label": "totalStaked",
						"offset": 0,
						"slot": "7",
						"type": "t_uint256"
					},
					{
						"astId": 761,
						"contract": "src/staking.sol:TokenStaking",
						"label": "totalRewards",
						"offset": 0,
						"slot": "8",
						"type": "t_uint256"
					},
					{
						"astId": 763,
						"contract": "src/staking.sol:TokenStaking",
						"label": "claimInterval",
						"offset": 0,
						"slot": "9",
						"type": "t_uint256"
					},
					{
						"astId": 793,
						"contract": "src/staking.sol:TokenStaking",
						"label": "rewardBonus",
						"offset": 0,
						"slot": "10",
						"type": "t_struct(RewardLevelBonus)790_storage"
					},
					{
						"astId": 798,
						"contract": "src/staking.sol:TokenStaking",
						"label": "userInfo",
						"offset": 0,
						"slot": "13",
						"type": "t_mapping(t_address,t_struct(UserInfo)783_storage)"
					}
				],
				"types": {
					"t_address": {
						"encoding": "inplace",
						"label": "address",
						"numberOfBytes": "20"
					},
					"t_bool": {
						"encoding": "inplace",
						"label": "bool",
						"numberOfBytes": "1"
					},
					"t_bytes32": {
						"encoding": "inplace",
						"label": "bytes32",
						"numberOfBytes": "32"
					},
					"t_contract(IERC721)638": {
						"encoding": "inplace",
						"label": "contract IERC721",
						"numberOfBytes": "20"
					},
					"t_contract(IMintableToken)739": {
						"encoding": "inplace",
						"label": "contract IMintableToken",
						"numberOfBytes": "20"
					},
					"t_contract(nftIface)729": {
						"encoding": "inplace",
						"label": "contract nftIface",
						"numberOfBytes": "20"
					},
					"t_mapping(t_address,t_bool)": {
						"encoding": "mapping",
						"key": "t_address",
						"label": "mapping(address => bool)",
						"numberOfBytes": "32",
						"value": "t_bool"
					},
					"t_mapping(t_address,t_struct(UserInfo)783_storage)": {
						"encoding": "mapping",
						"key": "t_address",
						"label": "mapping(address => struct TokenStaking.UserInfo)",
						"numberOfBytes": "32",
						"value": "t_struct(UserInfo)783_storage"
					},
					"t_mapping(t_bytes32,t_struct(RoleData)21_storage)": {
						"encoding": "mapping",
						"key": "t_bytes32",
						"label": "mapping(bytes32 => struct AccessControl.RoleData)",
						"numberOfBytes": "32",
						"value": "t_struct(RoleData)21_storage"
					},
					"t_struct(RewardLevelBonus)790_storage": {
						"encoding": "inplace",
						"label": "struct TokenStaking.RewardLevelBonus",
						"members": [
							{
								"astId": 785,
								"contract": "src/staking.sol:TokenStaking",
								"label": "gold",
								"offset": 0,
								"slot": "0",
								"type": "t_uint256"
							},
							{
								"astId": 787,
								"contract": "src/staking.sol:TokenStaking",
								"label": "silver",
								"offset": 0,
								"slot": "1",
								"type": "t_uint256"
							},
							{
								"astId": 789,
								"contract": "src/staking.sol:TokenStaking",
								"label": "bronze",
								"offset": 0,
								"slot": "2",
								"type": "t_uint256"
							}
						],
						"numberOfBytes": "96"
					},
					"t_struct(RoleData)21_storage": {
						"encoding": "inplace",
						"label": "struct AccessControl.RoleData",
						"members": [
							{
								"astId": 18,
								"contract": "src/staking.sol:TokenStaking",
								"label": "hasRole",
								"offset": 0,
								"slot": "0",
								"type": "t_mapping(t_address,t_bool)"
							},
							{
								"astId": 20,
								"contract": "src/staking.sol:TokenStaking",
								"label": "adminRole",
								"offset": 0,
								"slot": "1",
								"type": "t_bytes32"
							}
						],
						"numberOfBytes": "64"
					},
					"t_struct(UserInfo)783_storage": {
						"encoding": "inplace",
						"label": "struct TokenStaking.UserInfo",
						"members": [
							{
								"astId": 780,
								"contract": "src/staking.sol:TokenStaking",
								"label": "stakedBalance",
								"offset": 0,
								"slot": "0",
								"type": "t_uint256"
							},
							{
								"astId": 782,
								"contract": "src/staking.sol:TokenStaking",
								"label": "lastClaimBlock",
								"offset": 0,
								"slot": "1",
								"type": "t_uint256"
							}
						],
						"numberOfBytes": "64"
					},
					"t_uint256": {
						"encoding": "inplace",
						"label": "uint256",
						"numberOfBytes": "32"
					}
				}
			},
			"userdoc": {
				"kind": "user",
				"methods": {},
				"version": 1
			}
		}
	}
}