{
	"src/token.sol": {
		"Token": {
			"abi": [
				{
					"inputs": [
						{
							"internalType": "address",
							"name": "_vault",
							"type": "address"
						}
					],
					"stateMutability": "nonpayable",
					"type": "constructor"
				},
				{
					"inputs": [],
					"name": "AccessControlBadConfirmation",
					"type": "error"
				},
				{
					"inputs": [
						{
							"internalType": "address",
							"name": "account",
							"type": "address"
						},
						{
							"internalType": "bytes32",
							"name": "neededRole",
							"type": "bytes32"
						}
					],
					"name": "AccessControlUnauthorizedAccount",
					"type": "error"
				},
				{
					"inputs": [
						{
							"internalType": "address",
							"name": "target",
							"type": "address"
						}
					],
					"name": "AddressEmptyCode",
					"type": "error"
				},
				{
					"inputs": [
						{
							"internalType": "address",
							"name": "account",
							"type": "address"
						}
					],
					"name": "AddressInsufficientBalance",
					"type": "error"
				},
				{
					"inputs": [
						{
							"internalType": "address",
							"name": "spender",
							"type": "address"
						},
						{
							"internalType": "uint256",
							"name": "allowance",
							"type": "uint256"
						},
						{
							"internalType": "uint256",
							"name": "needed",
							"type": "uint256"
						}
					],
					"name": "ERC20InsufficientAllowance",
					"type": "error"
				},
				{
					"inputs": [
						{
							"internalType": "address",
							"name": "sender",
							"type": "address"
						},
						{
							"internalType": "uint256",
							"name": "balance",
							"type": "uint256"
						},
						{
							"internalType": "uint256",
							"name": "needed",
							"type": "uint256"
						}
					],
					"name": "ERC20InsufficientBalance",
					"type": "error"
				},
				{
					"inputs": [
						{
							"internalType": "address",
							"name": "approver",
							"type": "address"
						}
					],
					"name": "ERC20InvalidApprover",
					"type": "error"
				},
				{
					"inputs": [
						{
							"internalType": "address",
							"name": "receiver",
							"type": "address"
						}
					],
					"name": "ERC20InvalidReceiver",
					"type": "error"
				},
				{
					"inputs": [
						{
							"internalType": "address",
							"name": "sender",
							"type": "address"
						}
					],
					"name": "ERC20InvalidSender",
					"type": "error"
				},
				{
					"inputs": [
						{
							"internalType": "address",
							"name": "spender",
							"type": "address"
						}
					],
					"name": "ERC20InvalidSpender",
					"type": "error"
				},
				{
					"inputs": [],
					"name": "FailedInnerCall",
					"type": "error"
				},
				{
					"inputs": [
						{
							"internalType": "address",
							"name": "token",
							"type": "address"
						}
					],
					"name": "SafeERC20FailedOperation",
					"type": "error"
				},
				{
					"anonymous": false,
					"inputs": [
						{
							"indexed": true,
							"internalType": "address",
							"name": "owner",
							"type": "address"
						},
						{
							"indexed": true,
							"internalType": "address",
							"name": "spender",
							"type": "address"
						},
						{
							"indexed": false,
							"internalType": "uint256",
							"name": "value",
							"type": "uint256"
						}
					],
					"name": "Approval",
					"type": "event"
				},
				{
					"anonymous": false,
					"inputs": [
						{
							"indexed": false,
							"internalType": "uint256",
							"name": "_blockHeight",
							"type": "uint256"
						},
						{
							"indexed": false,
							"internalType": "address",
							"name": "_pausedBy",
							"type": "address"
						}
					],
					"name": "ContractPaused",
					"type": "event"
				},
				{
					"anonymous": false,
					"inputs": [
						{
							"indexed": false,
							"internalType": "uint256",
							"name": "_blockHeight",
							"type": "uint256"
						},
						{
							"indexed": false,
							"internalType": "address",
							"name": "_unpausedBy",
							"type": "address"
						}
					],
					"name": "ContractUnpaused",
					"type": "event"
				},
				{
					"anonymous": false,
					"inputs": [
						{
							"indexed": false,
							"internalType": "contract IERC20",
							"name": "_token",
							"type": "address"
						},
						{
							"indexed": false,
							"internalType": "uint256",
							"name": "_blockHeight",
							"type": "uint256"
						},
						{
							"indexed": false,
							"internalType": "address",
							"name": "_dest",
							"type": "address"
						},
						{
							"indexed": false,
							"internalType": "uint256",
							"name": "_amount",
							"type": "uint256"
						}
					],
					"name": "ERC20Rescued",
					"type": "event"
				},
				{
					"anonymous": false,
					"inputs": [
						{
							"indexed": false,
							"internalType": "address",
							"name": "_dest",
							"type": "address"
						},
						{
							"indexed": false,
							"internalType": "uint256",
							"name": "_blockHeight",
							"type": "uint256"
						},
						{
							"indexed": false,
							"internalType": "uint256",
							"name": "_amount",
							"type": "uint256"
						}
					],
					"name": "ETHRescued",
					"type": "event"
				},
				{
					"anonymous": false,
					"inputs": [
						{
							"indexed": false,
							"internalType": "uint256",
							"name": "_blockHeight",
							"type": "uint256"
						},
						{
							"indexed": false,
							"internalType": "address",
							"name": "_disabledBy",
							"type": "address"
						}
					],
					"name": "MintingDisabled",
					"type": "event"
				},
				{
					"anonymous": false,
					"inputs": [
						{
							"indexed": false,
							"internalType": "uint256",
							"name": "_blockHeight",
							"type": "uint256"
						},
						{
							"indexed": false,
							"internalType": "address",
							"name": "_enabledBy",
							"type": "address"
						}
					],
					"name": "MintingEnabled",
					"type": "event"
				},
				{
					"anonymous": false,
					"inputs": [
						{
							"indexed": false,
							"internalType": "uint256",
							"name": "_blockHeight",
							"type": "uint256"
						},
						{
							"indexed": false,
							"internalType": "address",
							"name": "_disabledBy",
							"type": "address"
						}
					],
					"name": "MintingToDisabled",
					"type": "event"
				},
				{
					"anonymous": false,
					"inputs": [
						{
							"indexed": false,
							"internalType": "uint256",
							"name": "_blockHeight",
							"type": "uint256"
						},
						{
							"indexed": false,
							"internalType": "address",
							"name": "_enabledBy",
							"type": "address"
						}
					],
					"name": "MintingToEnabled",
					"type": "event"
				},
				{
					"anonymous": false,
					"inputs": [
						{
							"indexed": true,
							"internalType": "bytes32",
							"name": "role",
							"type": "bytes32"
						},
						{
							"indexed": true,
							"internalType": "bytes32",
							"name": "previousAdminRole",
							"type": "bytes32"
						},
						{
							"indexed": true,
							"internalType": "bytes32",
							"name": "newAdminRole",
							"type": "bytes32"
						}
					],
					"name": "RoleAdminChanged",
					"type": "event"
				},
				{
					"anonymous": false,
					"inputs": [
						{
							"indexed": true,
							"internalType": "bytes32",
							"name": "role",
							"type": "bytes32"
						},
						{
							"indexed": true,
							"internalType": "address",
							"name": "account",
							"type": "address"
						},
						{
							"indexed": true,
							"internalType": "address",
							"name": "sender",
							"type": "address"
						}
					],
					"name": "RoleGranted",
					"type": "event"
				},
				{
					"anonymous": false,
					"inputs": [
						{
							"indexed": true,
							"internalType": "bytes32",
							"name": "role",
							"type": "bytes32"
						},
						{
							"indexed": true,
							"internalType": "address",
							"name": "account",
							"type": "address"
						},
						{
							"indexed": true,
							"internalType": "address",
							"name": "sender",
							"type": "address"
						}
					],
					"name": "RoleRevoked",
					"type": "event"
				},
				{
					"anonymous": false,
					"inputs": [
						{
							"indexed": false,
							"internalType": "uint256",
							"name": "_newCap",
							"type": "uint256"
						},
						{
							"indexed": false,
							"internalType": "address",
							"name": "_changedBy",
							"type": "address"
						}
					],
					"name": "SupplyCapChanged",
					"type": "event"
				},
				{
					"anonymous": false,
					"inputs": [
						{
							"indexed": false,
							"internalType": "uint256",
							"name": "_amount",
							"type": "uint256"
						},
						{
							"indexed": false,
							"internalType": "address",
							"name": "_burner",
							"type": "address"
						}
					],
					"name": "TokensBurned",
					"type": "event"
				},
				{
					"anonymous": false,
					"inputs": [
						{
							"indexed": false,
							"internalType": "address",
							"name": "_from",
							"type": "address"
						},
						{
							"indexed": false,
							"internalType": "uint256",
							"name": "_amount",
							"type": "uint256"
						},
						{
							"indexed": false,
							"internalType": "address",
							"name": "_burner",
							"type": "address"
						}
					],
					"name": "TokensBurnedFrom",
					"type": "event"
				},
				{
					"anonymous": false,
					"inputs": [
						{
							"indexed": false,
							"internalType": "uint256",
							"name": "_amount",
							"type": "uint256"
						}
					],
					"name": "TokensMinted",
					"type": "event"
				},
				{
					"anonymous": false,
					"inputs": [
						{
							"indexed": false,
							"internalType": "address",
							"name": "_to",
							"type": "address"
						},
						{
							"indexed": false,
							"internalType": "uint256",
							"name": "_amount",
							"type": "uint256"
						}
					],
					"name": "TokensMintedTo",
					"type": "event"
				},
				{
					"anonymous": false,
					"inputs": [
						{
							"indexed": true,
							"internalType": "address",
							"name": "from",
							"type": "address"
						},
						{
							"indexed": true,
							"internalType": "address",
							"name": "to",
							"type": "address"
						},
						{
							"indexed": false,
							"internalType": "uint256",
							"name": "value",
							"type": "uint256"
						}
					],
					"name": "Transfer",
					"type": "event"
				},
				{
					"inputs": [],
					"name": "DEFAULT_ADMIN_ROLE",
					"outputs": [
						{
							"internalType": "bytes32",
							"name": "",
							"type": "bytes32"
						}
					],
					"stateMutability": "view",
					"type": "function"
				},
				{
					"inputs": [],
					"name": "_ADMIN",
					"outputs": [
						{
							"internalType": "bytes32",
							"name": "",
							"type": "bytes32"
						}
					],
					"stateMutability": "view",
					"type": "function"
				},
				{
					"inputs": [],
					"name": "_BURN",
					"outputs": [
						{
							"internalType": "bytes32",
							"name": "",
							"type": "bytes32"
						}
					],
					"stateMutability": "view",
					"type": "function"
				},
				{
					"inputs": [],
					"name": "_BURNFROM",
					"outputs": [
						{
							"internalType": "bytes32",
							"name": "",
							"type": "bytes32"
						}
					],
					"stateMutability": "view",
					"type": "function"
				},
				{
					"inputs": [],
					"name": "_MINT",
					"outputs": [
						{
							"internalType": "bytes32",
							"name": "",
							"type": "bytes32"
						}
					],
					"stateMutability": "view",
					"type": "function"
				},
				{
					"inputs": [],
					"name": "_MINTTO",
					"outputs": [
						{
							"internalType": "bytes32",
							"name": "",
							"type": "bytes32"
						}
					],
					"stateMutability": "view",
					"type": "function"
				},
				{
					"inputs": [],
					"name": "_RESCUE",
					"outputs": [
						{
							"internalType": "bytes32",
							"name": "",
							"type": "bytes32"
						}
					],
					"stateMutability": "view",
					"type": "function"
				},
				{
					"inputs": [],
					"name": "_SUPPLY",
					"outputs": [
						{
							"internalType": "bytes32",
							"name": "",
							"type": "bytes32"
						}
					],
					"stateMutability": "view",
					"type": "function"
				},
				{
					"inputs": [
						{
							"internalType": "address",
							"name": "owner",
							"type": "address"
						},
						{
							"internalType": "address",
							"name": "spender",
							"type": "address"
						}
					],
					"name": "allowance",
					"outputs": [
						{
							"internalType": "uint256",
							"name": "",
							"type": "uint256"
						}
					],
					"stateMutability": "view",
					"type": "function"
				},
				{
					"inputs": [
						{
							"internalType": "address",
							"name": "spender",
							"type": "address"
						},
						{
							"internalType": "uint256",
							"name": "value",
							"type": "uint256"
						}
					],
					"name": "approve",
					"outputs": [
						{
							"internalType": "bool",
							"name": "",
							"type": "bool"
						}
					],
					"stateMutability": "nonpayable",
					"type": "function"
				},
				{
					"inputs": [
						{
							"internalType": "address",
							"name": "account",
							"type": "address"
						}
					],
					"name": "balanceOf",
					"outputs": [
						{
							"internalType": "uint256",
							"name": "",
							"type": "uint256"
						}
					],
					"stateMutability": "view",
					"type": "function"
				},
				{
					"inputs": [
						{
							"internalType": "uint256",
							"name": "_amount",
							"type": "uint256"
						}
					],
					"name": "burn",
					"outputs": [],
					"stateMutability": "nonpayable",
					"type": "function"
				},
				{
					"inputs": [
						{
							"internalType": "address",
							"name": "_from",
							"type": "address"
						},
						{
							"internalType": "uint256",
							"name": "_amount",
							"type": "uint256"
						}
					],
					"name": "burnFrom",
					"outputs": [],
					"stateMutability": "nonpayable",
					"type": "function"
				},
				{
					"inputs": [],
					"name": "decimals",
					"outputs": [
						{
							"internalType": "uint8",
							"name": "",
							"type": "uint8"
						}
					],
					"stateMutability": "view",
					"type": "function"
				},
				{
					"inputs": [
						{
							"internalType": "bool",
							"name": "_disableMinting",
							"type": "bool"
						}
					],
					"name": "disableMint",
					"outputs": [],
					"stateMutability": "nonpayable",
					"type": "function"
				},
				{
					"inputs": [
						{
							"internalType": "bool",
							"name": "_disableMintTo",
							"type": "bool"
						}
					],
					"name": "disableMintTo",
					"outputs": [],
					"stateMutability": "nonpayable",
					"type": "function"
				},
				{
					"inputs": [
						{
							"internalType": "address payable",
							"name": "_dest",
							"type": "address"
						},
						{
							"internalType": "uint256",
							"name": "_etherAmount",
							"type": "uint256"
						}
					],
					"name": "ethRescue",
					"outputs": [],
					"stateMutability": "nonpayable",
					"type": "function"
				},
				{
					"inputs": [
						{
							"internalType": "bytes32",
							"name": "role",
							"type": "bytes32"
						}
					],
					"name": "getRoleAdmin",
					"outputs": [
						{
							"internalType": "bytes32",
							"name": "",
							"type": "bytes32"
						}
					],
					"stateMutability": "view",
					"type": "function"
				},
				{
					"inputs": [
						{
							"internalType": "bytes32",
							"name": "role",
							"type": "bytes32"
						},
						{
							"internalType": "address",
							"name": "account",
							"type": "address"
						}
					],
					"name": "grantRole",
					"outputs": [],
					"stateMutability": "nonpayable",
					"type": "function"
				},
				{
					"inputs": [
						{
							"internalType": "bytes32",
							"name": "role",
							"type": "bytes32"
						},
						{
							"internalType": "address",
							"name": "account",
							"type": "address"
						}
					],
					"name": "hasRole",
					"outputs": [
						{
							"internalType": "bool",
							"name": "",
							"type": "bool"
						}
					],
					"stateMutability": "view",
					"type": "function"
				},
				{
					"inputs": [
						{
							"internalType": "uint256",
							"name": "_amount",
							"type": "uint256"
						}
					],
					"name": "mint",
					"outputs": [],
					"stateMutability": "nonpayable",
					"type": "function"
				},
				{
					"inputs": [],
					"name": "mintDisabled",
					"outputs": [
						{
							"internalType": "bool",
							"name": "",
							"type": "bool"
						}
					],
					"stateMutability": "view",
					"type": "function"
				},
				{
					"inputs": [
						{
							"internalType": "address",
							"name": "_to",
							"type": "address"
						},
						{
							"internalType": "uint256",
							"name": "_amount",
							"type": "uint256"
						}
					],
					"name": "mintTo",
					"outputs": [],
					"stateMutability": "nonpayable",
					"type": "function"
				},
				{
					"inputs": [],
					"name": "mintToDisabled",
					"outputs": [
						{
							"internalType": "bool",
							"name": "",
							"type": "bool"
						}
					],
					"stateMutability": "view",
					"type": "function"
				},
				{
					"inputs": [
						{
							"internalType": "contract IERC20",
							"name": "_ERC20",
							"type": "address"
						},
						{
							"internalType": "address",
							"name": "_dest",
							"type": "address"
						},
						{
							"internalType": "uint256",
							"name": "_ERC20Amount",
							"type": "uint256"
						}
					],
					"name": "moveERC20",
					"outputs": [],
					"stateMutability": "nonpayable",
					"type": "function"
				},
				{
					"inputs": [],
					"name": "name",
					"outputs": [
						{
							"internalType": "string",
							"name": "",
							"type": "string"
						}
					],
					"stateMutability": "view",
					"type": "function"
				},
				{
					"inputs": [],
					"name": "paused",
					"outputs": [
						{
							"internalType": "bool",
							"name": "",
							"type": "bool"
						}
					],
					"stateMutability": "view",
					"type": "function"
				},
				{
					"inputs": [
						{
							"internalType": "bytes32",
							"name": "role",
							"type": "bytes32"
						},
						{
							"internalType": "address",
							"name": "callerConfirmation",
							"type": "address"
						}
					],
					"name": "renounceRole",
					"outputs": [],
					"stateMutability": "nonpayable",
					"type": "function"
				},
				{
					"inputs": [
						{
							"internalType": "bytes32",
							"name": "role",
							"type": "bytes32"
						},
						{
							"internalType": "address",
							"name": "account",
							"type": "address"
						}
					],
					"name": "revokeRole",
					"outputs": [],
					"stateMutability": "nonpayable",
					"type": "function"
				},
				{
					"inputs": [
						{
							"internalType": "bool",
							"name": "_paused",
							"type": "bool"
						}
					],
					"name": "setPaused",
					"outputs": [],
					"stateMutability": "nonpayable",
					"type": "function"
				},
				{
					"inputs": [
						{
							"internalType": "uint256",
							"name": "_supplyCap",
							"type": "uint256"
						}
					],
					"name": "setSupplyCap",
					"outputs": [],
					"stateMutability": "nonpayable",
					"type": "function"
				},
				{
					"inputs": [
						{
							"internalType": "address",
							"name": "_whitelist",
							"type": "address"
						},
						{
							"internalType": "bool",
							"name": "_status",
							"type": "bool"
						}
					],
					"name": "setWhitelistAddress",
					"outputs": [],
					"stateMutability": "nonpayable",
					"type": "function"
				},
				{
					"inputs": [],
					"name": "supplyCap",
					"outputs": [
						{
							"internalType": "uint256",
							"name": "",
							"type": "uint256"
						}
					],
					"stateMutability": "view",
					"type": "function"
				},
				{
					"inputs": [
						{
							"internalType": "bytes4",
							"name": "interfaceId",
							"type": "bytes4"
						}
					],
					"name": "supportsInterface",
					"outputs": [
						{
							"internalType": "bool",
							"name": "",
							"type": "bool"
						}
					],
					"stateMutability": "view",
					"type": "function"
				},
				{
					"inputs": [],
					"name": "symbol",
					"outputs": [
						{
							"internalType": "string",
							"name": "",
							"type": "string"
						}
					],
					"stateMutability": "view",
					"type": "function"
				},
				{
					"inputs": [],
					"name": "totalSupply",
					"outputs": [
						{
							"internalType": "uint256",
							"name": "",
							"type": "uint256"
						}
					],
					"stateMutability": "view",
					"type": "function"
				},
				{
					"inputs": [
						{
							"internalType": "address",
							"name": "to",
							"type": "address"
						},
						{
							"internalType": "uint256",
							"name": "value",
							"type": "uint256"
						}
					],
					"name": "transfer",
					"outputs": [
						{
							"internalType": "bool",
							"name": "",
							"type": "bool"
						}
					],
					"stateMutability": "nonpayable",
					"type": "function"
				},
				{
					"inputs": [
						{
							"internalType": "address",
							"name": "from",
							"type": "address"
						},
						{
							"internalType": "address",
							"name": "to",
							"type": "address"
						},
						{
							"internalType": "uint256",
							"name": "value",
							"type": "uint256"
						}
					],
					"name": "transferFrom",
					"outputs": [
						{
							"internalType": "bool",
							"name": "",
							"type": "bool"
						}
					],
					"stateMutability": "nonpayable",
					"type": "function"
				},
				{
					"inputs": [],
					"name": "txFee",
					"outputs": [
						{
							"internalType": "uint256",
							"name": "",
							"type": "uint256"
						}
					],
					"stateMutability": "view",
					"type": "function"
				},
				{
					"inputs": [],
					"name": "vault",
					"outputs": [
						{
							"internalType": "address",
							"name": "",
							"type": "address"
						}
					],
					"stateMutability": "view",
					"type": "function"
				},
				{
					"inputs": [
						{
							"internalType": "address",
							"name": "",
							"type": "address"
						}
					],
					"name": "whitelistedAddress",
					"outputs": [
						{
							"internalType": "bool",
							"name": "",
							"type": "bool"
						}
					],
					"stateMutability": "view",
					"type": "function"
				}
			],
			"devdoc": {
				"details": "This contract implements an ERC20 token with additional features such as minting, burning, pausing, supply capping, and transfer fee mechanisms. It uses role-based access control for administrative functions and is protected against reentrancy attacks.",
				"errors": {
					"AccessControlBadConfirmation()": [
						{
							"details": "The caller of a function is not the expected one. NOTE: Don't confuse with {AccessControlUnauthorizedAccount}."
						}
					],
					"AccessControlUnauthorizedAccount(address,bytes32)": [
						{
							"details": "The `account` is missing a role."
						}
					],
					"AddressEmptyCode(address)": [
						{
							"details": "There's no code at `target` (it is not a contract)."
						}
					],
					"AddressInsufficientBalance(address)": [
						{
							"details": "The ETH balance of the account is not enough to perform the operation."
						}
					],
					"ERC20InsufficientAllowance(address,uint256,uint256)": [
						{
							"details": "Indicates a failure with the `spender`s `allowance`. Used in transfers.",
							"params": {
								"allowance": "Amount of tokens a `spender` is allowed to operate with.",
								"needed": "Minimum amount required to perform a transfer.",
								"spender": "Address that may be allowed to operate on tokens without being their owner."
							}
						}
					],
					"ERC20InsufficientBalance(address,uint256,uint256)": [
						{
							"details": "Indicates an error related to the current `balance` of a `sender`. Used in transfers.",
							"params": {
								"balance": "Current balance for the interacting account.",
								"needed": "Minimum amount required to perform a transfer.",
								"sender": "Address whose tokens are being transferred."
							}
						}
					],
					"ERC20InvalidApprover(address)": [
						{
							"details": "Indicates a failure with the `approver` of a token to be approved. Used in approvals.",
							"params": {
								"approver": "Address initiating an approval operation."
							}
						}
					],
					"ERC20InvalidReceiver(address)": [
						{
							"details": "Indicates a failure with the token `receiver`. Used in transfers.",
							"params": {
								"receiver": "Address to which tokens are being transferred."
							}
						}
					],
					"ERC20InvalidSender(address)": [
						{
							"details": "Indicates a failure with the token `sender`. Used in transfers.",
							"params": {
								"sender": "Address whose tokens are being transferred."
							}
						}
					],
					"ERC20InvalidSpender(address)": [
						{
							"details": "Indicates a failure with the `spender` to be approved. Used in approvals.",
							"params": {
								"spender": "Address that may be allowed to operate on tokens without being their owner."
							}
						}
					],
					"FailedInnerCall()": [
						{
							"details": "A call to an address target failed. The target may have reverted."
						}
					],
					"SafeERC20FailedOperation(address)": [
						{
							"details": "An operation with an ERC20 token failed."
						}
					]
				},
				"events": {
					"Approval(address,address,uint256)": {
						"details": "Emitted when the allowance of a `spender` for an `owner` is set by a call to {approve}. `value` is the new allowance."
					},
					"RoleAdminChanged(bytes32,bytes32,bytes32)": {
						"details": "Emitted when `newAdminRole` is set as ``role``'s admin role, replacing `previousAdminRole` `DEFAULT_ADMIN_ROLE` is the starting admin for all roles, despite {RoleAdminChanged} not being emitted signaling this."
					},
					"RoleGranted(bytes32,address,address)": {
						"details": "Emitted when `account` is granted `role`. `sender` is the account that originated the contract call, an admin role bearer except when using {AccessControl-_setupRole}."
					},
					"RoleRevoked(bytes32,address,address)": {
						"details": "Emitted when `account` is revoked `role`. `sender` is the account that originated the contract call:   - if using `revokeRole`, it is the admin role bearer   - if using `renounceRole`, it is the role bearer (i.e. `account`)"
					},
					"Transfer(address,address,uint256)": {
						"details": "Emitted when `value` tokens are moved from one account (`from`) to another (`to`). Note that `value` may be zero."
					}
				},
				"kind": "dev",
				"methods": {
					"allowance(address,address)": {
						"details": "See {IERC20-allowance}."
					},
					"approve(address,uint256)": {
						"details": "See {IERC20-approve}. NOTE: If `value` is the maximum `uint256`, the allowance is not updated on `transferFrom`. This is semantically equivalent to an infinite approval. Requirements: - `spender` cannot be the zero address."
					},
					"balanceOf(address)": {
						"details": "See {IERC20-balanceOf}."
					},
					"burn(uint256)": {
						"details": "Function to burn tokens from the caller's balance. Only callable by an address with the _BURN role, and if the contract is not paused.",
						"params": {
							"_amount": "The amount of tokens to burn."
						}
					},
					"burnFrom(address,uint256)": {
						"details": "Function to burn tokens from a specific address. Only callable by an address with the _BURNFROM role, and if the contract is not paused.",
						"params": {
							"_amount": "The amount of tokens to burn.",
							"_from": "The address to burn tokens from."
						}
					},
					"constructor": {
						"details": "Constructor to initialize the token contract with a vault address and an initial supply of tokens.",
						"params": {
							"_vault": "The address where transaction fees will be sent."
						}
					},
					"decimals()": {
						"details": "Returns the number of decimals used to get its user representation. For example, if `decimals` equals `2`, a balance of `505` tokens should be displayed to a user as `5.05` (`505 / 10 ** 2`). Tokens usually opt for a value of 18, imitating the relationship between Ether and Wei. This is the default value returned by this function, unless it's overridden. NOTE: This information is only used for _display_ purposes: it in no way affects any of the arithmetic of the contract, including {IERC20-balanceOf} and {IERC20-transfer}."
					},
					"disableMint(bool)": {
						"details": "Function to disable or enable minting. Only callable by an admin.",
						"params": {
							"_disableMinting": "Boolean indicating whether minting should be disabled."
						}
					},
					"disableMintTo(bool)": {
						"details": "Function to disable or enable minting to specific addresses. Only callable by an admin.",
						"params": {
							"_disableMintTo": "Boolean indicating whether minting to specific addresses should be disabled."
						}
					},
					"ethRescue(address,uint256)": {
						"details": "Function to rescue Ether sent to the contract by mistake. Only callable by an address with the _RESCUE role.",
						"params": {
							"_dest": "The address to send the rescued Ether to.",
							"_etherAmount": "The amount of Ether to rescue."
						}
					},
					"getRoleAdmin(bytes32)": {
						"details": "Returns the admin role that controls `role`. See {grantRole} and {revokeRole}. To change a role's admin, use {_setRoleAdmin}."
					},
					"grantRole(bytes32,address)": {
						"details": "Grants `role` to `account`. If `account` had not been already granted `role`, emits a {RoleGranted} event. Requirements: - the caller must have ``role``'s admin role. May emit a {RoleGranted} event."
					},
					"hasRole(bytes32,address)": {
						"details": "Returns `true` if `account` has been granted `role`."
					},
					"mint(uint256)": {
						"details": "Function to mint tokens to the caller. Only callable by an address with the _MINT role, and if minting is enabled and contract is not paused.",
						"params": {
							"_amount": "The amount of tokens to mint."
						}
					},
					"mintTo(address,uint256)": {
						"details": "Function to mint tokens to a specific address. Only callable by an address with the _MINTTO role, and if minting to is enabled and contract is not paused.",
						"params": {
							"_amount": "The amount of tokens to mint.",
							"_to": "The address to mint tokens to."
						}
					},
					"moveERC20(address,address,uint256)": {
						"details": "Function to rescue ERC20 tokens sent to the contract by mistake. Only callable by an address with the _RESCUE role.",
						"params": {
							"_ERC20": "The address of the ERC20 token to rescue.",
							"_ERC20Amount": "The amount of tokens to rescue.",
							"_dest": "The address to send the rescued tokens to."
						}
					},
					"name()": {
						"details": "Returns the name of the token."
					},
					"renounceRole(bytes32,address)": {
						"details": "Revokes `role` from the calling account. Roles are often managed via {grantRole} and {revokeRole}: this function's purpose is to provide a mechanism for accounts to lose their privileges if they are compromised (such as when a trusted device is misplaced). If the calling account had been revoked `role`, emits a {RoleRevoked} event. Requirements: - the caller must be `callerConfirmation`. May emit a {RoleRevoked} event."
					},
					"revokeRole(bytes32,address)": {
						"details": "Revokes `role` from `account`. If `account` had been granted `role`, emits a {RoleRevoked} event. Requirements: - the caller must have ``role``'s admin role. May emit a {RoleRevoked} event."
					},
					"setPaused(bool)": {
						"details": "Function to pause or unpause the contract's operations. Only callable by an admin.",
						"params": {
							"_paused": "Boolean indicating whether the contract should be paused."
						}
					},
					"setSupplyCap(uint256)": {
						"details": "Function to change the supply cap of the token. Only callable by an address with the _SUPPLY role, and if the contract is not paused.",
						"params": {
							"_supplyCap": "The new supply cap."
						}
					},
					"setWhitelistAddress(address,bool)": {
						"details": "Function to add or remove an address from the whitelist. Whitelisted addresses are exempt from transfer fees. Only callable by an admin.",
						"params": {
							"_status": "Boolean indicating whether to add (true) or remove (false) the address from the whitelist.",
							"_whitelist": "The address to whitelist or remove from the whitelist."
						}
					},
					"supplyCap()": {
						"details": "Function to get the current supply cap.",
						"returns": {
							"_0": "The current supply cap."
						}
					},
					"supportsInterface(bytes4)": {
						"details": "See {IERC165-supportsInterface}."
					},
					"symbol()": {
						"details": "Returns the symbol of the token, usually a shorter version of the name."
					},
					"totalSupply()": {
						"details": "See {IERC20-totalSupply}."
					},
					"transfer(address,uint256)": {
						"details": "Function to transfer tokens from the caller's address to another, applying a transaction fee unless the sender is whitelisted.",
						"params": {
							"to": "The address receiving tokens.",
							"value": "The amount of tokens to transfer."
						},
						"returns": {
							"_0": "True if the transfer was successful."
						}
					},
					"transferFrom(address,address,uint256)": {
						"details": "Function to transfer tokens from one address to another, applying a transaction fee unless the sender is whitelisted.",
						"params": {
							"from": "The address sending tokens.",
							"to": "The address receiving tokens.",
							"value": "The amount of tokens to transfer."
						},
						"returns": {
							"_0": "True if the transfer was successful."
						}
					}
				},
				"title": "Token",
				"version": 1
			},
			"evm": {
				"assembly": "    /* \"src/token.sol\":740:12422  contract Token is ERC20, AccessControl, ReentrancyGuard {... */\n  mstore(0x40, 0x80)\n    /* \"src/token.sol\":1467:1478  0.005 ether */\n  0x11c37937e08000\n    /* \"src/token.sol\":1447:1478  uint public txFee = 0.005 ether */\n  0x09\n  sstore\n    /* \"src/token.sol\":2947:3586  constructor(address _vault) ERC20(\"Token\", \"TKN\") {... */\n  callvalue\n  dup1\n  iszero\n  tag_1\n  jumpi\n  0x00\n  dup1\n  revert\ntag_1:\n  pop\n  mload(0x40)\n  sub(codesize, bytecodeSize)\n  dup1\n  bytecodeSize\n  dup4\n  codecopy\n  dup2\n  dup2\n  add\n  0x40\n  mstore\n  dup2\n  add\n  swap1\n  tag_2\n  swap2\n  swap1\n  tag_3\n  jump\t// in\ntag_2:\n    /* \"@openzeppelin/contracts/token/ERC20/ERC20.sol\":1896:2009  constructor(string memory name_, string memory symbol_) {... */\n  mload(0x40)\n  dup1\n  0x40\n  add\n  0x40\n  mstore\n  dup1\n  0x05\n  dup2\n  mstore\n  0x20\n  add\n  0x546f6b656e000000000000000000000000000000000000000000000000000000\n  dup2\n  mstore\n  pop\n  mload(0x40)\n  dup1\n  0x40\n  add\n  0x40\n  mstore\n  dup1\n  0x03\n  dup2\n  mstore\n  0x20\n  add\n  0x544b4e0000000000000000000000000000000000000000000000000000000000\n  dup2\n  mstore\n  pop\n    /* \"@openzeppelin/contracts/token/ERC20/ERC20.sol\":1970:1975  name_ */\n  dup2\n    /* \"@openzeppelin/contracts/token/ERC20/ERC20.sol\":1962:1967  _name */\n  0x03\n    /* \"@openzeppelin/contracts/token/ERC20/ERC20.sol\":1962:1975  _name = name_ */\n  swap1\n  dup2\n  tag_8\n  swap2\n  swap1\n  tag_9\n  jump\t// in\ntag_8:\n  pop\n    /* \"@openzeppelin/contracts/token/ERC20/ERC20.sol\":1995:2002  symbol_ */\n  dup1\n    /* \"@openzeppelin/contracts/token/ERC20/ERC20.sol\":1985:1992  _symbol */\n  0x04\n    /* \"@openzeppelin/contracts/token/ERC20/ERC20.sol\":1985:2002  _symbol = symbol_ */\n  swap1\n  dup2\n  tag_10\n  swap2\n  swap1\n  tag_9\n  jump\t// in\ntag_10:\n  pop\n    /* \"@openzeppelin/contracts/token/ERC20/ERC20.sol\":1896:2009  constructor(string memory name_, string memory symbol_) {... */\n  pop\n  pop\n    /* \"@openzeppelin/contracts/security/ReentrancyGuard.sol\":1716:1717  1 */\n  0x01\n    /* \"@openzeppelin/contracts/security/ReentrancyGuard.sol\":1821:1828  _status */\n  0x06\n    /* \"@openzeppelin/contracts/security/ReentrancyGuard.sol\":1821:1843  _status = _NOT_ENTERED */\n  dup2\n  swap1\n  sstore\n  pop\n    /* \"src/token.sol\":3014:3028  10000000 ether */\n  0x084595161401484a000000\n    /* \"src/token.sol\":3007:3011  _cap */\n  0x07\n    /* \"src/token.sol\":3007:3028  _cap = 10000000 ether */\n  dup2\n  swap1\n  sstore\n  pop\n    /* \"src/token.sol\":3096:3101  false */\n  0x00\n    /* \"src/token.sol\":3081:3093  mintDisabled */\n  0x0a\n  0x01\n    /* \"src/token.sol\":3081:3101  mintDisabled = false */\n  0x0100\n  exp\n  dup2\n  sload\n  dup2\n  0xff\n  mul\n  not\n  and\n  swap1\n  dup4\n  iszero\n  iszero\n  mul\n  or\n  swap1\n  sstore\n  pop\n    /* \"src/token.sol\":3156:3161  false */\n  0x00\n    /* \"src/token.sol\":3139:3153  mintToDisabled */\n  0x0a\n  0x02\n    /* \"src/token.sol\":3139:3161  mintToDisabled = false */\n  0x0100\n  exp\n  dup2\n  sload\n  dup2\n  0xff\n  mul\n  not\n  and\n  swap1\n  dup4\n  iszero\n  iszero\n  mul\n  or\n  swap1\n  sstore\n  pop\n    /* \"src/token.sol\":3229:3235  _vault */\n  dup1\n    /* \"src/token.sol\":3221:3226  vault */\n  0x08\n  0x00\n    /* \"src/token.sol\":3221:3235  vault = _vault */\n  0x0100\n  exp\n  dup2\n  sload\n  dup2\n  0xffffffffffffffffffffffffffffffffffffffff\n  mul\n  not\n  and\n  swap1\n  dup4\n  0xffffffffffffffffffffffffffffffffffffffff\n  and\n  mul\n  or\n  swap1\n  sstore\n  pop\n    /* \"src/token.sol\":3245:3289  _grantRole(DEFAULT_ADMIN_ROLE, _msgSender()) */\n  tag_13\n    /* \"@openzeppelin/contracts/access/AccessControl.sol\":2232:2236  0x00 */\n  0x00\n    /* \"src/token.sol\":3256:3274  DEFAULT_ADMIN_ROLE */\n  dup1\n  shl\n    /* \"src/token.sol\":3276:3288  _msgSender() */\n  tag_14\n    /* \"src/token.sol\":3276:3286  _msgSender */\n  shl(0x20, tag_15)\n    /* \"src/token.sol\":3276:3288  _msgSender() */\n  0x20\n  shr\n  jump\t// in\ntag_14:\n    /* \"src/token.sol\":3245:3255  _grantRole */\n  shl(0x20, tag_16)\n    /* \"src/token.sol\":3245:3289  _grantRole(DEFAULT_ADMIN_ROLE, _msgSender()) */\n  0x20\n  shr\n  jump\t// in\ntag_13:\n  pop\n    /* \"src/token.sol\":3380:3412  _grantRole(_ADMIN, _msgSender()) */\n  tag_17\n    /* \"src/token.sol\":1230:1249  keccak256(\"_ADMIN\") */\n  0xae6c2fc584631af4c9385b8a55683f1a75c813747e27efef5afece31c6b230d3\n    /* \"src/token.sol\":3399:3411  _msgSender() */\n  tag_18\n    /* \"src/token.sol\":3399:3409  _msgSender */\n  shl(0x20, tag_15)\n    /* \"src/token.sol\":3399:3411  _msgSender() */\n  0x20\n  shr\n  jump\t// in\ntag_18:\n    /* \"src/token.sol\":3380:3390  _grantRole */\n  shl(0x20, tag_16)\n    /* \"src/token.sol\":3380:3412  _grantRole(_ADMIN, _msgSender()) */\n  0x20\n  shr\n  jump\t// in\ntag_17:\n  pop\n    /* \"src/token.sol\":3422:3453  _grantRole(_MINT, _msgSender()) */\n  tag_19\n    /* \"src/token.sol\":933:951  keccak256(\"_MINT\") */\n  0x8c66330d9d4f6aba064f25ef2a307366ea6d917616f44c075aa60fa15e5cb1cb\n    /* \"src/token.sol\":3440:3452  _msgSender() */\n  tag_20\n    /* \"src/token.sol\":3440:3450  _msgSender */\n  shl(0x20, tag_15)\n    /* \"src/token.sol\":3440:3452  _msgSender() */\n  0x20\n  shr\n  jump\t// in\ntag_20:\n    /* \"src/token.sol\":3422:3432  _grantRole */\n  shl(0x20, tag_16)\n    /* \"src/token.sol\":3422:3453  _grantRole(_MINT, _msgSender()) */\n  0x20\n  shr\n  jump\t// in\ntag_19:\n  pop\n    /* \"src/token.sol\":3463:3494  _grantRole(_BURN, _msgSender()) */\n  tag_21\n    /* \"src/token.sol\":1049:1067  keccak256(\"_BURN\") */\n  0x9edfad36e7d4d9da54b4f78f22bf97cb5b58bb7998294a4288da41c15c647c45\n    /* \"src/token.sol\":3481:3493  _msgSender() */\n  tag_22\n    /* \"src/token.sol\":3481:3491  _msgSender */\n  shl(0x20, tag_15)\n    /* \"src/token.sol\":3481:3493  _msgSender() */\n  0x20\n  shr\n  jump\t// in\ntag_22:\n    /* \"src/token.sol\":3463:3473  _grantRole */\n  shl(0x20, tag_16)\n    /* \"src/token.sol\":3463:3494  _grantRole(_BURN, _msgSender()) */\n  0x20\n  shr\n  jump\t// in\ntag_21:\n  pop\n    /* \"src/token.sol\":3504:3538  _mint(_msgSender(), 1000000 ether) */\n  tag_23\n    /* \"src/token.sol\":3510:3522  _msgSender() */\n  tag_24\n    /* \"src/token.sol\":3510:3520  _msgSender */\n  shl(0x20, tag_15)\n    /* \"src/token.sol\":3510:3522  _msgSender() */\n  0x20\n  shr\n  jump\t// in\ntag_24:\n    /* \"src/token.sol\":3524:3537  1000000 ether */\n  0xd3c21bcecceda1000000\n    /* \"src/token.sol\":3504:3509  _mint */\n  shl(0x20, tag_25)\n    /* \"src/token.sol\":3504:3538  _mint(_msgSender(), 1000000 ether) */\n  0x20\n  shr\n  jump\t// in\ntag_23:\n    /* \"src/token.sol\":2947:3586  constructor(address _vault) ERC20(\"Token\", \"TKN\") {... */\n  pop\n    /* \"src/token.sol\":740:12422  contract Token is ERC20, AccessControl, ReentrancyGuard {... */\n  jump(tag_26)\n    /* \"@openzeppelin/contracts/utils/Context.sol\":656:752  function _msgSender() internal view virtual returns (address) {... */\ntag_15:\n    /* \"@openzeppelin/contracts/utils/Context.sol\":709:716  address */\n  0x00\n    /* \"@openzeppelin/contracts/utils/Context.sol\":735:745  msg.sender */\n  caller\n    /* \"@openzeppelin/contracts/utils/Context.sol\":728:745  return msg.sender */\n  swap1\n  pop\n    /* \"@openzeppelin/contracts/utils/Context.sol\":656:752  function _msgSender() internal view virtual returns (address) {... */\n  swap1\n  jump\t// out\n    /* \"@openzeppelin/contracts/access/AccessControl.sol\":6179:6495  function _grantRole(bytes32 role, address account) internal virtual returns (bool) {... */\ntag_16:\n    /* \"@openzeppelin/contracts/access/AccessControl.sol\":6256:6260  bool */\n  0x00\n    /* \"@openzeppelin/contracts/access/AccessControl.sol\":6277:6299  hasRole(role, account) */\n  tag_29\n    /* \"@openzeppelin/contracts/access/AccessControl.sol\":6285:6289  role */\n  dup4\n    /* \"@openzeppelin/contracts/access/AccessControl.sol\":6291:6298  account */\n  dup4\n    /* \"@openzeppelin/contracts/access/AccessControl.sol\":6277:6284  hasRole */\n  shl(0x20, tag_30)\n    /* \"@openzeppelin/contracts/access/AccessControl.sol\":6277:6299  hasRole(role, account) */\n  0x20\n  shr\n  jump\t// in\ntag_29:\n    /* \"@openzeppelin/contracts/access/AccessControl.sol\":6272:6489  if (!hasRole(role, account)) {... */\n  tag_31\n  jumpi\n    /* \"@openzeppelin/contracts/access/AccessControl.sol\":6347:6351  true */\n  0x01\n    /* \"@openzeppelin/contracts/access/AccessControl.sol\":6315:6321  _roles */\n  0x05\n    /* \"@openzeppelin/contracts/access/AccessControl.sol\":6315:6327  _roles[role] */\n  0x00\n    /* \"@openzeppelin/contracts/access/AccessControl.sol\":6322:6326  role */\n  dup6\n    /* \"@openzeppelin/contracts/access/AccessControl.sol\":6315:6327  _roles[role] */\n  dup2\n  mstore\n  0x20\n  add\n  swap1\n  dup2\n  mstore\n  0x20\n  add\n  0x00\n  keccak256\n    /* \"@openzeppelin/contracts/access/AccessControl.sol\":6315:6335  _roles[role].hasRole */\n  0x00\n  add\n    /* \"@openzeppelin/contracts/access/AccessControl.sol\":6315:6344  _roles[role].hasRole[account] */\n  0x00\n    /* \"@openzeppelin/contracts/access/AccessControl.sol\":6336:6343  account */\n  dup5\n    /* \"@openzeppelin/contracts/access/AccessControl.sol\":6315:6344  _roles[role].hasRole[account] */\n  0xffffffffffffffffffffffffffffffffffffffff\n  and\n  0xffffffffffffffffffffffffffffffffffffffff\n  and\n  dup2\n  mstore\n  0x20\n  add\n  swap1\n  dup2\n  mstore\n  0x20\n  add\n  0x00\n  keccak256\n  0x00\n    /* \"@openzeppelin/contracts/access/AccessControl.sol\":6315:6351  _roles[role].hasRole[account] = true */\n  0x0100\n  exp\n  dup2\n  sload\n  dup2\n  0xff\n  mul\n  not\n  and\n  swap1\n  dup4\n  iszero\n  iszero\n  mul\n  or\n  swap1\n  sstore\n  pop\n    /* \"@openzeppelin/contracts/access/AccessControl.sol\":6397:6409  _msgSender() */\n  tag_32\n    /* \"@openzeppelin/contracts/access/AccessControl.sol\":6397:6407  _msgSender */\n  shl(0x20, tag_15)\n    /* \"@openzeppelin/contracts/access/AccessControl.sol\":6397:6409  _msgSender() */\n  0x20\n  shr\n  jump\t// in\ntag_32:\n    /* \"@openzeppelin/contracts/access/AccessControl.sol\":6370:6410  RoleGranted(role, account, _msgSender()) */\n  0xffffffffffffffffffffffffffffffffffffffff\n  and\n    /* \"@openzeppelin/contracts/access/AccessControl.sol\":6388:6395  account */\n  dup3\n    /* \"@openzeppelin/contracts/access/AccessControl.sol\":6370:6410  RoleGranted(role, account, _msgSender()) */\n  0xffffffffffffffffffffffffffffffffffffffff\n  and\n    /* \"@openzeppelin/contracts/access/AccessControl.sol\":6382:6386  role */\n  dup5\n    /* \"@openzeppelin/contracts/access/AccessControl.sol\":6370:6410  RoleGranted(role, account, _msgSender()) */\n  0x2f8788117e7eff1d82e926ec794901d17c78024a50270940304540a733656f0d\n  mload(0x40)\n  mload(0x40)\n  dup1\n  swap2\n  sub\n  swap1\n  log4\n    /* \"@openzeppelin/contracts/access/AccessControl.sol\":6431:6435  true */\n  0x01\n    /* \"@openzeppelin/contracts/access/AccessControl.sol\":6424:6435  return true */\n  swap1\n  pop\n  jump(tag_28)\n    /* \"@openzeppelin/contracts/access/AccessControl.sol\":6272:6489  if (!hasRole(role, account)) {... */\ntag_31:\n    /* \"@openzeppelin/contracts/access/AccessControl.sol\":6473:6478  false */\n  0x00\n    /* \"@openzeppelin/contracts/access/AccessControl.sol\":6466:6478  return false */\n  swap1\n  pop\n    /* \"@openzeppelin/contracts/access/AccessControl.sol\":6179:6495  function _grantRole(bytes32 role, address account) internal virtual returns (bool) {... */\ntag_28:\n  swap3\n  swap2\n  pop\n  pop\n  jump\t// out\n    /* \"@openzeppelin/contracts/token/ERC20/ERC20.sol\":7721:7929  function _mint(address account, uint256 value) internal {... */\ntag_25:\n    /* \"@openzeppelin/contracts/token/ERC20/ERC20.sol\":7810:7811  0 */\n  0x00\n    /* \"@openzeppelin/contracts/token/ERC20/ERC20.sol\":7791:7812  account == address(0) */\n  0xffffffffffffffffffffffffffffffffffffffff\n  and\n    /* \"@openzeppelin/contracts/token/ERC20/ERC20.sol\":7791:7798  account */\n  dup3\n    /* \"@openzeppelin/contracts/token/ERC20/ERC20.sol\":7791:7812  account == address(0) */\n  0xffffffffffffffffffffffffffffffffffffffff\n  and\n  sub\n    /* \"@openzeppelin/contracts/token/ERC20/ERC20.sol\":7787:7878  if (account == address(0)) {... */\n  tag_35\n  jumpi\n    /* \"@openzeppelin/contracts/token/ERC20/ERC20.sol\":7864:7865  0 */\n  0x00\n    /* \"@openzeppelin/contracts/token/ERC20/ERC20.sol\":7835:7867  ERC20InvalidReceiver(address(0)) */\n  mload(0x40)\n  0xec442f0500000000000000000000000000000000000000000000000000000000\n  dup2\n  mstore\n  0x04\n  add\n  tag_36\n  swap2\n  swap1\n  tag_37\n  jump\t// in\ntag_36:\n  mload(0x40)\n  dup1\n  swap2\n  sub\n  swap1\n  revert\n    /* \"@openzeppelin/contracts/token/ERC20/ERC20.sol\":7787:7878  if (account == address(0)) {... */\ntag_35:\n    /* \"@openzeppelin/contracts/token/ERC20/ERC20.sol\":7887:7922  _update(address(0), account, value) */\n  tag_38\n    /* \"@openzeppelin/contracts/token/ERC20/ERC20.sol\":7903:7904  0 */\n  0x00\n    /* \"@openzeppelin/contracts/token/ERC20/ERC20.sol\":7907:7914  account */\n  dup4\n    /* \"@openzeppelin/contracts/token/ERC20/ERC20.sol\":7916:7921  value */\n  dup4\n    /* \"@openzeppelin/contracts/token/ERC20/ERC20.sol\":7887:7894  _update */\n  shl(0x20, tag_39)\n    /* \"@openzeppelin/contracts/token/ERC20/ERC20.sol\":7887:7922  _update(address(0), account, value) */\n  0x20\n  shr\n  jump\t// in\ntag_38:\n    /* \"@openzeppelin/contracts/token/ERC20/ERC20.sol\":7721:7929  function _mint(address account, uint256 value) internal {... */\n  pop\n  pop\n  jump\t// out\n    /* \"@openzeppelin/contracts/access/AccessControl.sol\":2854:2990  function hasRole(bytes32 role, address account) public view virtual returns (bool) {... */\ntag_30:\n    /* \"@openzeppelin/contracts/access/AccessControl.sol\":2931:2935  bool */\n  0x00\n    /* \"@openzeppelin/contracts/access/AccessControl.sol\":2954:2960  _roles */\n  0x05\n    /* \"@openzeppelin/contracts/access/AccessControl.sol\":2954:2966  _roles[role] */\n  0x00\n    /* \"@openzeppelin/contracts/access/AccessControl.sol\":2961:2965  role */\n  dup5\n    /* \"@openzeppelin/contracts/access/AccessControl.sol\":2954:2966  _roles[role] */\n  dup2\n  mstore\n  0x20\n  add\n  swap1\n  dup2\n  mstore\n  0x20\n  add\n  0x00\n  keccak256\n    /* \"@openzeppelin/contracts/access/AccessControl.sol\":2954:2974  _roles[role].hasRole */\n  0x00\n  add\n    /* \"@openzeppelin/contracts/access/AccessControl.sol\":2954:2983  _roles[role].hasRole[account] */\n  0x00\n    /* \"@openzeppelin/contracts/access/AccessControl.sol\":2975:2982  account */\n  dup4\n    /* \"@openzeppelin/contracts/access/AccessControl.sol\":2954:2983  _roles[role].hasRole[account] */\n  0xffffffffffffffffffffffffffffffffffffffff\n  and\n  0xffffffffffffffffffffffffffffffffffffffff\n  and\n  dup2\n  mstore\n  0x20\n  add\n  swap1\n  dup2\n  mstore\n  0x20\n  add\n  0x00\n  keccak256\n  0x00\n  swap1\n  sload\n  swap1\n  0x0100\n  exp\n  swap1\n  div\n  0xff\n  and\n    /* \"@openzeppelin/contracts/access/AccessControl.sol\":2947:2983  return _roles[role].hasRole[account] */\n  swap1\n  pop\n    /* \"@openzeppelin/contracts/access/AccessControl.sol\":2854:2990  function hasRole(bytes32 role, address account) public view virtual returns (bool) {... */\n  swap3\n  swap2\n  pop\n  pop\n  jump\t// out\n    /* \"src/token.sol\":8978:9242  function _update(address from, address to, uint256 amount) internal virtual override {... */\ntag_39:\n    /* \"src/token.sol\":9093:9094  0 */\n  0x00\n    /* \"src/token.sol\":9077:9095  from == address(0) */\n  0xffffffffffffffffffffffffffffffffffffffff\n  and\n    /* \"src/token.sol\":9077:9081  from */\n  dup4\n    /* \"src/token.sol\":9077:9095  from == address(0) */\n  0xffffffffffffffffffffffffffffffffffffffff\n  and\n  sub\n    /* \"src/token.sol\":9073:9195  if (from == address(0)) { ... */\n  tag_42\n  jumpi\n    /* \"src/token.sol\":9146:9150  _cap */\n  sload(0x07)\n    /* \"src/token.sol\":9136:9142  amount */\n  dup2\n    /* \"src/token.sol\":9120:9133  totalSupply() */\n  tag_43\n    /* \"src/token.sol\":9120:9131  totalSupply */\n  shl(0x20, tag_44)\n    /* \"src/token.sol\":9120:9133  totalSupply() */\n  0x20\n  shr\n  jump\t// in\ntag_43:\n    /* \"src/token.sol\":9120:9142  totalSupply() + amount */\n  tag_45\n  swap2\n  swap1\n  tag_46\n  jump\t// in\ntag_45:\n    /* \"src/token.sol\":9120:9150  totalSupply() + amount <= _cap */\n  gt\n  iszero\n    /* \"src/token.sol\":9112:9184  require(totalSupply() + amount <= _cap, \"Contract: Supply Cap exceeded\") */\n  tag_47\n  jumpi\n  mload(0x40)\n  0x08c379a000000000000000000000000000000000000000000000000000000000\n  dup2\n  mstore\n  0x04\n  add\n  tag_48\n  swap1\n  tag_49\n  jump\t// in\ntag_48:\n  mload(0x40)\n  dup1\n  swap2\n  sub\n  swap1\n  revert\ntag_47:\n    /* \"src/token.sol\":9073:9195  if (from == address(0)) { ... */\ntag_42:\n    /* \"src/token.sol\":9204:9235  super._update(from, to, amount) */\n  tag_50\n    /* \"src/token.sol\":9218:9222  from */\n  dup4\n    /* \"src/token.sol\":9224:9226  to */\n  dup4\n    /* \"src/token.sol\":9228:9234  amount */\n  dup4\n    /* \"src/token.sol\":9204:9217  super._update */\n  shl(0x20, tag_51)\n    /* \"src/token.sol\":9204:9235  super._update(from, to, amount) */\n  0x20\n  shr\n  jump\t// in\ntag_50:\n    /* \"src/token.sol\":8978:9242  function _update(address from, address to, uint256 amount) internal virtual override {... */\n  pop\n  pop\n  pop\n  jump\t// out\n    /* \"@openzeppelin/contracts/token/ERC20/ERC20.sol\":3144:3241  function totalSupply() public view virtual returns (uint256) {... */\ntag_44:\n    /* \"@openzeppelin/contracts/token/ERC20/ERC20.sol\":3196:3203  uint256 */\n  0x00\n    /* \"@openzeppelin/contracts/token/ERC20/ERC20.sol\":3222:3234  _totalSupply */\n  sload(0x02)\n    /* \"@openzeppelin/contracts/token/ERC20/ERC20.sol\":3215:3234  return _totalSupply */\n  swap1\n  pop\n    /* \"@openzeppelin/contracts/token/ERC20/ERC20.sol\":3144:3241  function totalSupply() public view virtual returns (uint256) {... */\n  swap1\n  jump\t// out\n    /* \"@openzeppelin/contracts/token/ERC20/ERC20.sol\":6271:7378  function _update(address from, address to, uint256 value) internal virtual {... */\ntag_51:\n    /* \"@openzeppelin/contracts/token/ERC20/ERC20.sol\":6376:6377  0 */\n  0x00\n    /* \"@openzeppelin/contracts/token/ERC20/ERC20.sol\":6360:6378  from == address(0) */\n  0xffffffffffffffffffffffffffffffffffffffff\n  and\n    /* \"@openzeppelin/contracts/token/ERC20/ERC20.sol\":6360:6364  from */\n  dup4\n    /* \"@openzeppelin/contracts/token/ERC20/ERC20.sol\":6360:6378  from == address(0) */\n  0xffffffffffffffffffffffffffffffffffffffff\n  and\n  sub\n    /* \"@openzeppelin/contracts/token/ERC20/ERC20.sol\":6356:6896  if (from == address(0)) {... */\n  tag_54\n  jumpi\n    /* \"@openzeppelin/contracts/token/ERC20/ERC20.sol\":6512:6517  value */\n  dup1\n    /* \"@openzeppelin/contracts/token/ERC20/ERC20.sol\":6496:6508  _totalSupply */\n  0x02\n  0x00\n    /* \"@openzeppelin/contracts/token/ERC20/ERC20.sol\":6496:6517  _totalSupply += value */\n  dup3\n  dup3\n  sload\n  tag_55\n  swap2\n  swap1\n  tag_46\n  jump\t// in\ntag_55:\n  swap3\n  pop\n  pop\n  dup2\n  swap1\n  sstore\n  pop\n    /* \"@openzeppelin/contracts/token/ERC20/ERC20.sol\":6356:6896  if (from == address(0)) {... */\n  jump(tag_56)\ntag_54:\n    /* \"@openzeppelin/contracts/token/ERC20/ERC20.sol\":6548:6567  uint256 fromBalance */\n  0x00\n    /* \"@openzeppelin/contracts/token/ERC20/ERC20.sol\":6570:6579  _balances */\n  dup1\n    /* \"@openzeppelin/contracts/token/ERC20/ERC20.sol\":6570:6585  _balances[from] */\n  0x00\n    /* \"@openzeppelin/contracts/token/ERC20/ERC20.sol\":6580:6584  from */\n  dup6\n    /* \"@openzeppelin/contracts/token/ERC20/ERC20.sol\":6570:6585  _balances[from] */\n  0xffffffffffffffffffffffffffffffffffffffff\n  and\n  0xffffffffffffffffffffffffffffffffffffffff\n  and\n  dup2\n  mstore\n  0x20\n  add\n  swap1\n  dup2\n  mstore\n  0x20\n  add\n  0x00\n  keccak256\n  sload\n    /* \"@openzeppelin/contracts/token/ERC20/ERC20.sol\":6548:6585  uint256 fromBalance = _balances[from] */\n  swap1\n  pop\n    /* \"@openzeppelin/contracts/token/ERC20/ERC20.sol\":6617:6622  value */\n  dup2\n    /* \"@openzeppelin/contracts/token/ERC20/ERC20.sol\":6603:6614  fromBalance */\n  dup2\n    /* \"@openzeppelin/contracts/token/ERC20/ERC20.sol\":6603:6622  fromBalance < value */\n  lt\n    /* \"@openzeppelin/contracts/token/ERC20/ERC20.sol\":6599:6714  if (fromBalance < value) {... */\n  iszero\n  tag_57\n  jumpi\n    /* \"@openzeppelin/contracts/token/ERC20/ERC20.sol\":6674:6678  from */\n  dup4\n    /* \"@openzeppelin/contracts/token/ERC20/ERC20.sol\":6680:6691  fromBalance */\n  dup2\n    /* \"@openzeppelin/contracts/token/ERC20/ERC20.sol\":6693:6698  value */\n  dup4\n    /* \"@openzeppelin/contracts/token/ERC20/ERC20.sol\":6649:6699  ERC20InsufficientBalance(from, fromBalance, value) */\n  mload(0x40)\n  0xe450d38c00000000000000000000000000000000000000000000000000000000\n  dup2\n  mstore\n  0x04\n  add\n  tag_58\n  swap4\n  swap3\n  swap2\n  swap1\n  tag_59\n  jump\t// in\ntag_58:\n  mload(0x40)\n  dup1\n  swap2\n  sub\n  swap1\n  revert\n    /* \"@openzeppelin/contracts/token/ERC20/ERC20.sol\":6599:6714  if (fromBalance < value) {... */\ntag_57:\n    /* \"@openzeppelin/contracts/token/ERC20/ERC20.sol\":6866:6871  value */\n  dup2\n    /* \"@openzeppelin/contracts/token/ERC20/ERC20.sol\":6852:6863  fromBalance */\n  dup2\n    /* \"@openzeppelin/contracts/token/ERC20/ERC20.sol\":6852:6871  fromBalance - value */\n  sub\n    /* \"@openzeppelin/contracts/token/ERC20/ERC20.sol\":6834:6843  _balances */\n  0x00\n    /* \"@openzeppelin/contracts/token/ERC20/ERC20.sol\":6834:6849  _balances[from] */\n  dup1\n    /* \"@openzeppelin/contracts/token/ERC20/ERC20.sol\":6844:6848  from */\n  dup7\n    /* \"@openzeppelin/contracts/token/ERC20/ERC20.sol\":6834:6849  _balances[from] */\n  0xffffffffffffffffffffffffffffffffffffffff\n  and\n  0xffffffffffffffffffffffffffffffffffffffff\n  and\n  dup2\n  mstore\n  0x20\n  add\n  swap1\n  dup2\n  mstore\n  0x20\n  add\n  0x00\n  keccak256\n    /* \"@openzeppelin/contracts/token/ERC20/ERC20.sol\":6834:6871  _balances[from] = fromBalance - value */\n  dup2\n  swap1\n  sstore\n  pop\n    /* \"@openzeppelin/contracts/token/ERC20/ERC20.sol\":6534:6896  {... */\n  pop\n    /* \"@openzeppelin/contracts/token/ERC20/ERC20.sol\":6356:6896  if (from == address(0)) {... */\ntag_56:\n    /* \"@openzeppelin/contracts/token/ERC20/ERC20.sol\":6924:6925  0 */\n  0x00\n    /* \"@openzeppelin/contracts/token/ERC20/ERC20.sol\":6910:6926  to == address(0) */\n  0xffffffffffffffffffffffffffffffffffffffff\n  and\n    /* \"@openzeppelin/contracts/token/ERC20/ERC20.sol\":6910:6912  to */\n  dup3\n    /* \"@openzeppelin/contracts/token/ERC20/ERC20.sol\":6910:6926  to == address(0) */\n  0xffffffffffffffffffffffffffffffffffffffff\n  and\n  sub\n    /* \"@openzeppelin/contracts/token/ERC20/ERC20.sol\":6906:7331  if (to == address(0)) {... */\n  tag_60\n  jumpi\n    /* \"@openzeppelin/contracts/token/ERC20/ERC20.sol\":7089:7094  value */\n  dup1\n    /* \"@openzeppelin/contracts/token/ERC20/ERC20.sol\":7073:7085  _totalSupply */\n  0x02\n  0x00\n    /* \"@openzeppelin/contracts/token/ERC20/ERC20.sol\":7073:7094  _totalSupply -= value */\n  dup3\n  dup3\n  sload\n  sub\n  swap3\n  pop\n  pop\n  dup2\n  swap1\n  sstore\n  pop\n    /* \"@openzeppelin/contracts/token/ERC20/ERC20.sol\":6906:7331  if (to == address(0)) {... */\n  jump(tag_61)\ntag_60:\n    /* \"@openzeppelin/contracts/token/ERC20/ERC20.sol\":7301:7306  value */\n  dup1\n    /* \"@openzeppelin/contracts/token/ERC20/ERC20.sol\":7284:7293  _balances */\n  0x00\n    /* \"@openzeppelin/contracts/token/ERC20/ERC20.sol\":7284:7297  _balances[to] */\n  dup1\n    /* \"@openzeppelin/contracts/token/ERC20/ERC20.sol\":7294:7296  to */\n  dup5\n    /* \"@openzeppelin/contracts/token/ERC20/ERC20.sol\":7284:7297  _balances[to] */\n  0xffffffffffffffffffffffffffffffffffffffff\n  and\n  0xffffffffffffffffffffffffffffffffffffffff\n  and\n  dup2\n  mstore\n  0x20\n  add\n  swap1\n  dup2\n  mstore\n  0x20\n  add\n  0x00\n  keccak256\n  0x00\n    /* \"@openzeppelin/contracts/token/ERC20/ERC20.sol\":7284:7306  _balances[to] += value */\n  dup3\n  dup3\n  sload\n  add\n  swap3\n  pop\n  pop\n  dup2\n  swap1\n  sstore\n  pop\n    /* \"@openzeppelin/contracts/token/ERC20/ERC20.sol\":6906:7331  if (to == address(0)) {... */\ntag_61:\n    /* \"@openzeppelin/contracts/token/ERC20/ERC20.sol\":7361:7363  to */\n  dup2\n    /* \"@openzeppelin/contracts/token/ERC20/ERC20.sol\":7346:7371  Transfer(from, to, value) */\n  0xffffffffffffffffffffffffffffffffffffffff\n  and\n    /* \"@openzeppelin/contracts/token/ERC20/ERC20.sol\":7355:7359  from */\n  dup4\n    /* \"@openzeppelin/contracts/token/ERC20/ERC20.sol\":7346:7371  Transfer(from, to, value) */\n  0xffffffffffffffffffffffffffffffffffffffff\n  and\n  0xddf252ad1be2c89b69c2b068fc378daa952ba7f163c4a11628f55a4df523b3ef\n    /* \"@openzeppelin/contracts/token/ERC20/ERC20.sol\":7365:7370  value */\n  dup4\n    /* \"@openzeppelin/contracts/token/ERC20/ERC20.sol\":7346:7371  Transfer(from, to, value) */\n  mload(0x40)\n  tag_62\n  swap2\n  swap1\n  tag_63\n  jump\t// in\ntag_62:\n  mload(0x40)\n  dup1\n  swap2\n  sub\n  swap1\n  log3\n    /* \"@openzeppelin/contracts/token/ERC20/ERC20.sol\":6271:7378  function _update(address from, address to, uint256 value) internal virtual {... */\n  pop\n  pop\n  pop\n  jump\t// out\n    /* \"#utility.yul\":88:205   */\ntag_65:\n    /* \"#utility.yul\":197:198   */\n  0x00\n    /* \"#utility.yul\":194:195   */\n  dup1\n    /* \"#utility.yul\":187:199   */\n  revert\n    /* \"#utility.yul\":334:460   */\ntag_67:\n    /* \"#utility.yul\":371:378   */\n  0x00\n    /* \"#utility.yul\":411:453   */\n  0xffffffffffffffffffffffffffffffffffffffff\n    /* \"#utility.yul\":404:409   */\n  dup3\n    /* \"#utility.yul\":400:454   */\n  and\n    /* \"#utility.yul\":389:454   */\n  swap1\n  pop\n    /* \"#utility.yul\":334:460   */\n  swap2\n  swap1\n  pop\n  jump\t// out\n    /* \"#utility.yul\":466:562   */\ntag_68:\n    /* \"#utility.yul\":503:510   */\n  0x00\n    /* \"#utility.yul\":532:556   */\n  tag_103\n    /* \"#utility.yul\":550:555   */\n  dup3\n    /* \"#utility.yul\":532:556   */\n  tag_67\n  jump\t// in\ntag_103:\n    /* \"#utility.yul\":521:556   */\n  swap1\n  pop\n    /* \"#utility.yul\":466:562   */\n  swap2\n  swap1\n  pop\n  jump\t// out\n    /* \"#utility.yul\":568:690   */\ntag_69:\n    /* \"#utility.yul\":641:665   */\n  tag_105\n    /* \"#utility.yul\":659:664   */\n  dup2\n    /* \"#utility.yul\":641:665   */\n  tag_68\n  jump\t// in\ntag_105:\n    /* \"#utility.yul\":634:639   */\n  dup2\n    /* \"#utility.yul\":631:666   */\n  eq\n    /* \"#utility.yul\":621:684   */\n  tag_106\n  jumpi\n    /* \"#utility.yul\":680:681   */\n  0x00\n    /* \"#utility.yul\":677:678   */\n  dup1\n    /* \"#utility.yul\":670:682   */\n  revert\n    /* \"#utility.yul\":621:684   */\ntag_106:\n    /* \"#utility.yul\":568:690   */\n  pop\n  jump\t// out\n    /* \"#utility.yul\":696:839   */\ntag_70:\n    /* \"#utility.yul\":753:758   */\n  0x00\n    /* \"#utility.yul\":784:790   */\n  dup2\n    /* \"#utility.yul\":778:791   */\n  mload\n    /* \"#utility.yul\":769:791   */\n  swap1\n  pop\n    /* \"#utility.yul\":800:833   */\n  tag_108\n    /* \"#utility.yul\":827:832   */\n  dup2\n    /* \"#utility.yul\":800:833   */\n  tag_69\n  jump\t// in\ntag_108:\n    /* \"#utility.yul\":696:839   */\n  swap3\n  swap2\n  pop\n  pop\n  jump\t// out\n    /* \"#utility.yul\":845:1196   */\ntag_3:\n    /* \"#utility.yul\":915:921   */\n  0x00\n    /* \"#utility.yul\":964:966   */\n  0x20\n    /* \"#utility.yul\":952:961   */\n  dup3\n    /* \"#utility.yul\":943:950   */\n  dup5\n    /* \"#utility.yul\":939:962   */\n  sub\n    /* \"#utility.yul\":935:967   */\n  slt\n    /* \"#utility.yul\":932:1051   */\n  iszero\n  tag_110\n  jumpi\n    /* \"#utility.yul\":970:1049   */\n  tag_111\n  tag_65\n  jump\t// in\ntag_111:\n    /* \"#utility.yul\":932:1051   */\ntag_110:\n    /* \"#utility.yul\":1090:1091   */\n  0x00\n    /* \"#utility.yul\":1115:1179   */\n  tag_112\n    /* \"#utility.yul\":1171:1178   */\n  dup5\n    /* \"#utility.yul\":1162:1168   */\n  dup3\n    /* \"#utility.yul\":1151:1160   */\n  dup6\n    /* \"#utility.yul\":1147:1169   */\n  add\n    /* \"#utility.yul\":1115:1179   */\n  tag_70\n  jump\t// in\ntag_112:\n    /* \"#utility.yul\":1105:1179   */\n  swap2\n  pop\n    /* \"#utility.yul\":1061:1189   */\n  pop\n    /* \"#utility.yul\":845:1196   */\n  swap3\n  swap2\n  pop\n  pop\n  jump\t// out\n    /* \"#utility.yul\":1202:1301   */\ntag_71:\n    /* \"#utility.yul\":1254:1260   */\n  0x00\n    /* \"#utility.yul\":1288:1293   */\n  dup2\n    /* \"#utility.yul\":1282:1294   */\n  mload\n    /* \"#utility.yul\":1272:1294   */\n  swap1\n  pop\n    /* \"#utility.yul\":1202:1301   */\n  swap2\n  swap1\n  pop\n  jump\t// out\n    /* \"#utility.yul\":1307:1487   */\ntag_72:\n    /* \"#utility.yul\":1355:1432   */\n  0x4e487b7100000000000000000000000000000000000000000000000000000000\n    /* \"#utility.yul\":1352:1353   */\n  0x00\n    /* \"#utility.yul\":1345:1433   */\n  mstore\n    /* \"#utility.yul\":1452:1456   */\n  0x41\n    /* \"#utility.yul\":1449:1450   */\n  0x04\n    /* \"#utility.yul\":1442:1457   */\n  mstore\n    /* \"#utility.yul\":1476:1480   */\n  0x24\n    /* \"#utility.yul\":1473:1474   */\n  0x00\n    /* \"#utility.yul\":1466:1481   */\n  revert\n    /* \"#utility.yul\":1493:1673   */\ntag_73:\n    /* \"#utility.yul\":1541:1618   */\n  0x4e487b7100000000000000000000000000000000000000000000000000000000\n    /* \"#utility.yul\":1538:1539   */\n  0x00\n    /* \"#utility.yul\":1531:1619   */\n  mstore\n    /* \"#utility.yul\":1638:1642   */\n  0x22\n    /* \"#utility.yul\":1635:1636   */\n  0x04\n    /* \"#utility.yul\":1628:1643   */\n  mstore\n    /* \"#utility.yul\":1662:1666   */\n  0x24\n    /* \"#utility.yul\":1659:1660   */\n  0x00\n    /* \"#utility.yul\":1652:1667   */\n  revert\n    /* \"#utility.yul\":1679:1999   */\ntag_74:\n    /* \"#utility.yul\":1723:1729   */\n  0x00\n    /* \"#utility.yul\":1760:1761   */\n  0x02\n    /* \"#utility.yul\":1754:1758   */\n  dup3\n    /* \"#utility.yul\":1750:1762   */\n  div\n    /* \"#utility.yul\":1740:1762   */\n  swap1\n  pop\n    /* \"#utility.yul\":1807:1808   */\n  0x01\n    /* \"#utility.yul\":1801:1805   */\n  dup3\n    /* \"#utility.yul\":1797:1809   */\n  and\n    /* \"#utility.yul\":1828:1846   */\n  dup1\n    /* \"#utility.yul\":1818:1899   */\n  tag_117\n  jumpi\n    /* \"#utility.yul\":1884:1888   */\n  0x7f\n    /* \"#utility.yul\":1876:1882   */\n  dup3\n    /* \"#utility.yul\":1872:1889   */\n  and\n    /* \"#utility.yul\":1862:1889   */\n  swap2\n  pop\n    /* \"#utility.yul\":1818:1899   */\ntag_117:\n    /* \"#utility.yul\":1946:1948   */\n  0x20\n    /* \"#utility.yul\":1938:1944   */\n  dup3\n    /* \"#utility.yul\":1935:1949   */\n  lt\n    /* \"#utility.yul\":1915:1933   */\n  dup2\n    /* \"#utility.yul\":1912:1950   */\n  sub\n    /* \"#utility.yul\":1909:1993   */\n  tag_118\n  jumpi\n    /* \"#utility.yul\":1965:1983   */\n  tag_119\n  tag_73\n  jump\t// in\ntag_119:\n    /* \"#utility.yul\":1909:1993   */\ntag_118:\n    /* \"#utility.yul\":1730:1999   */\n  pop\n    /* \"#utility.yul\":1679:1999   */\n  swap2\n  swap1\n  pop\n  jump\t// out\n    /* \"#utility.yul\":2005:2146   */\ntag_75:\n    /* \"#utility.yul\":2054:2058   */\n  0x00\n    /* \"#utility.yul\":2077:2080   */\n  dup2\n    /* \"#utility.yul\":2069:2080   */\n  swap1\n  pop\n    /* \"#utility.yul\":2100:2103   */\n  dup2\n    /* \"#utility.yul\":2097:2098   */\n  0x00\n    /* \"#utility.yul\":2090:2104   */\n  mstore\n    /* \"#utility.yul\":2134:2138   */\n  0x20\n    /* \"#utility.yul\":2131:2132   */\n  0x00\n    /* \"#utility.yul\":2121:2139   */\n  keccak256\n    /* \"#utility.yul\":2113:2139   */\n  swap1\n  pop\n    /* \"#utility.yul\":2005:2146   */\n  swap2\n  swap1\n  pop\n  jump\t// out\n    /* \"#utility.yul\":2152:2245   */\ntag_76:\n    /* \"#utility.yul\":2189:2195   */\n  0x00\n    /* \"#utility.yul\":2236:2238   */\n  0x20\n    /* \"#utility.yul\":2231:2233   */\n  0x1f\n    /* \"#utility.yul\":2224:2229   */\n  dup4\n    /* \"#utility.yul\":2220:2234   */\n  add\n    /* \"#utility.yul\":2216:2239   */\n  div\n    /* \"#utility.yul\":2206:2239   */\n  swap1\n  pop\n    /* \"#utility.yul\":2152:2245   */\n  swap2\n  swap1\n  pop\n  jump\t// out\n    /* \"#utility.yul\":2251:2358   */\ntag_77:\n    /* \"#utility.yul\":2295:2303   */\n  0x00\n    /* \"#utility.yul\":2345:2350   */\n  dup3\n    /* \"#utility.yul\":2339:2343   */\n  dup3\n    /* \"#utility.yul\":2335:2351   */\n  shl\n    /* \"#utility.yul\":2314:2351   */\n  swap1\n  pop\n    /* \"#utility.yul\":2251:2358   */\n  swap3\n  swap2\n  pop\n  pop\n  jump\t// out\n    /* \"#utility.yul\":2364:2757   */\ntag_78:\n    /* \"#utility.yul\":2433:2439   */\n  0x00\n    /* \"#utility.yul\":2483:2484   */\n  0x08\n    /* \"#utility.yul\":2471:2481   */\n  dup4\n    /* \"#utility.yul\":2467:2485   */\n  mul\n    /* \"#utility.yul\":2506:2603   */\n  tag_124\n    /* \"#utility.yul\":2536:2602   */\n  0xffffffffffffffffffffffffffffffffffffffffffffffffffffffffffffffff\n    /* \"#utility.yul\":2525:2534   */\n  dup3\n    /* \"#utility.yul\":2506:2603   */\n  tag_77\n  jump\t// in\ntag_124:\n    /* \"#utility.yul\":2624:2663   */\n  tag_125\n    /* \"#utility.yul\":2654:2662   */\n  dup7\n    /* \"#utility.yul\":2643:2652   */\n  dup4\n    /* \"#utility.yul\":2624:2663   */\n  tag_77\n  jump\t// in\ntag_125:\n    /* \"#utility.yul\":2612:2663   */\n  swap6\n  pop\n    /* \"#utility.yul\":2696:2700   */\n  dup1\n    /* \"#utility.yul\":2692:2701   */\n  not\n    /* \"#utility.yul\":2685:2690   */\n  dup5\n    /* \"#utility.yul\":2681:2702   */\n  and\n    /* \"#utility.yul\":2672:2702   */\n  swap4\n  pop\n    /* \"#utility.yul\":2745:2749   */\n  dup1\n    /* \"#utility.yul\":2735:2743   */\n  dup7\n    /* \"#utility.yul\":2731:2750   */\n  and\n    /* \"#utility.yul\":2724:2729   */\n  dup5\n    /* \"#utility.yul\":2721:2751   */\n  or\n    /* \"#utility.yul\":2711:2751   */\n  swap3\n  pop\n    /* \"#utility.yul\":2440:2757   */\n  pop\n  pop\n    /* \"#utility.yul\":2364:2757   */\n  swap4\n  swap3\n  pop\n  pop\n  pop\n  jump\t// out\n    /* \"#utility.yul\":2763:2840   */\ntag_79:\n    /* \"#utility.yul\":2800:2807   */\n  0x00\n    /* \"#utility.yul\":2829:2834   */\n  dup2\n    /* \"#utility.yul\":2818:2834   */\n  swap1\n  pop\n    /* \"#utility.yul\":2763:2840   */\n  swap2\n  swap1\n  pop\n  jump\t// out\n    /* \"#utility.yul\":2846:2906   */\ntag_80:\n    /* \"#utility.yul\":2874:2877   */\n  0x00\n    /* \"#utility.yul\":2895:2900   */\n  dup2\n    /* \"#utility.yul\":2888:2900   */\n  swap1\n  pop\n    /* \"#utility.yul\":2846:2906   */\n  swap2\n  swap1\n  pop\n  jump\t// out\n    /* \"#utility.yul\":2912:3054   */\ntag_81:\n    /* \"#utility.yul\":2962:2971   */\n  0x00\n    /* \"#utility.yul\":2995:3048   */\n  tag_129\n    /* \"#utility.yul\":3013:3047   */\n  tag_130\n    /* \"#utility.yul\":3022:3046   */\n  tag_131\n    /* \"#utility.yul\":3040:3045   */\n  dup5\n    /* \"#utility.yul\":3022:3046   */\n  tag_79\n  jump\t// in\ntag_131:\n    /* \"#utility.yul\":3013:3047   */\n  tag_80\n  jump\t// in\ntag_130:\n    /* \"#utility.yul\":2995:3048   */\n  tag_79\n  jump\t// in\ntag_129:\n    /* \"#utility.yul\":2982:3048   */\n  swap1\n  pop\n    /* \"#utility.yul\":2912:3054   */\n  swap2\n  swap1\n  pop\n  jump\t// out\n    /* \"#utility.yul\":3060:3135   */\ntag_82:\n    /* \"#utility.yul\":3103:3106   */\n  0x00\n    /* \"#utility.yul\":3124:3129   */\n  dup2\n    /* \"#utility.yul\":3117:3129   */\n  swap1\n  pop\n    /* \"#utility.yul\":3060:3135   */\n  swap2\n  swap1\n  pop\n  jump\t// out\n    /* \"#utility.yul\":3141:3410   */\ntag_83:\n    /* \"#utility.yul\":3251:3290   */\n  tag_134\n    /* \"#utility.yul\":3282:3289   */\n  dup4\n    /* \"#utility.yul\":3251:3290   */\n  tag_81\n  jump\t// in\ntag_134:\n    /* \"#utility.yul\":3312:3403   */\n  tag_135\n    /* \"#utility.yul\":3361:3402   */\n  tag_136\n    /* \"#utility.yul\":3385:3401   */\n  dup3\n    /* \"#utility.yul\":3361:3402   */\n  tag_82\n  jump\t// in\ntag_136:\n    /* \"#utility.yul\":3353:3359   */\n  dup5\n    /* \"#utility.yul\":3346:3350   */\n  dup5\n    /* \"#utility.yul\":3340:3351   */\n  sload\n    /* \"#utility.yul\":3312:3403   */\n  tag_78\n  jump\t// in\ntag_135:\n    /* \"#utility.yul\":3306:3310   */\n  dup3\n    /* \"#utility.yul\":3299:3404   */\n  sstore\n    /* \"#utility.yul\":3217:3410   */\n  pop\n    /* \"#utility.yul\":3141:3410   */\n  pop\n  pop\n  pop\n  jump\t// out\n    /* \"#utility.yul\":3416:3489   */\ntag_84:\n    /* \"#utility.yul\":3461:3464   */\n  0x00\n    /* \"#utility.yul\":3416:3489   */\n  swap1\n  jump\t// out\n    /* \"#utility.yul\":3495:3684   */\ntag_85:\n    /* \"#utility.yul\":3572:3604   */\n  tag_139\n  tag_84\n  jump\t// in\ntag_139:\n    /* \"#utility.yul\":3613:3678   */\n  tag_140\n    /* \"#utility.yul\":3671:3677   */\n  dup2\n    /* \"#utility.yul\":3663:3669   */\n  dup5\n    /* \"#utility.yul\":3657:3661   */\n  dup5\n    /* \"#utility.yul\":3613:3678   */\n  tag_83\n  jump\t// in\ntag_140:\n    /* \"#utility.yul\":3548:3684   */\n  pop\n    /* \"#utility.yul\":3495:3684   */\n  pop\n  pop\n  jump\t// out\n    /* \"#utility.yul\":3690:3876   */\ntag_86:\n    /* \"#utility.yul\":3750:3870   */\ntag_142:\n    /* \"#utility.yul\":3767:3770   */\n  dup2\n    /* \"#utility.yul\":3760:3765   */\n  dup2\n    /* \"#utility.yul\":3757:3771   */\n  lt\n    /* \"#utility.yul\":3750:3870   */\n  iszero\n  tag_144\n  jumpi\n    /* \"#utility.yul\":3821:3860   */\n  tag_145\n    /* \"#utility.yul\":3858:3859   */\n  0x00\n    /* \"#utility.yul\":3851:3856   */\n  dup3\n    /* \"#utility.yul\":3821:3860   */\n  tag_85\n  jump\t// in\ntag_145:\n    /* \"#utility.yul\":3794:3795   */\n  0x01\n    /* \"#utility.yul\":3787:3792   */\n  dup2\n    /* \"#utility.yul\":3783:3796   */\n  add\n    /* \"#utility.yul\":3774:3796   */\n  swap1\n  pop\n    /* \"#utility.yul\":3750:3870   */\n  jump(tag_142)\ntag_144:\n    /* \"#utility.yul\":3690:3876   */\n  pop\n  pop\n  jump\t// out\n    /* \"#utility.yul\":3882:4425   */\ntag_87:\n    /* \"#utility.yul\":3983:3985   */\n  0x1f\n    /* \"#utility.yul\":3978:3981   */\n  dup3\n    /* \"#utility.yul\":3975:3986   */\n  gt\n    /* \"#utility.yul\":3972:4418   */\n  iszero\n  tag_147\n  jumpi\n    /* \"#utility.yul\":4017:4055   */\n  tag_148\n    /* \"#utility.yul\":4049:4054   */\n  dup2\n    /* \"#utility.yul\":4017:4055   */\n  tag_75\n  jump\t// in\ntag_148:\n    /* \"#utility.yul\":4101:4130   */\n  tag_149\n    /* \"#utility.yul\":4119:4129   */\n  dup5\n    /* \"#utility.yul\":4101:4130   */\n  tag_76\n  jump\t// in\ntag_149:\n    /* \"#utility.yul\":4091:4099   */\n  dup2\n    /* \"#utility.yul\":4087:4131   */\n  add\n    /* \"#utility.yul\":4284:4286   */\n  0x20\n    /* \"#utility.yul\":4272:4282   */\n  dup6\n    /* \"#utility.yul\":4269:4287   */\n  lt\n    /* \"#utility.yul\":4266:4315   */\n  iszero\n  tag_150\n  jumpi\n    /* \"#utility.yul\":4305:4313   */\n  dup2\n    /* \"#utility.yul\":4290:4313   */\n  swap1\n  pop\n    /* \"#utility.yul\":4266:4315   */\ntag_150:\n    /* \"#utility.yul\":4328:4408   */\n  tag_151\n    /* \"#utility.yul\":4384:4406   */\n  tag_152\n    /* \"#utility.yul\":4402:4405   */\n  dup6\n    /* \"#utility.yul\":4384:4406   */\n  tag_76\n  jump\t// in\ntag_152:\n    /* \"#utility.yul\":4374:4382   */\n  dup4\n    /* \"#utility.yul\":4370:4407   */\n  add\n    /* \"#utility.yul\":4357:4368   */\n  dup3\n    /* \"#utility.yul\":4328:4408   */\n  tag_86\n  jump\t// in\ntag_151:\n    /* \"#utility.yul\":3987:4418   */\n  pop\n  pop\n    /* \"#utility.yul\":3972:4418   */\ntag_147:\n    /* \"#utility.yul\":3882:4425   */\n  pop\n  pop\n  pop\n  jump\t// out\n    /* \"#utility.yul\":4431:4548   */\ntag_88:\n    /* \"#utility.yul\":4485:4493   */\n  0x00\n    /* \"#utility.yul\":4535:4540   */\n  dup3\n    /* \"#utility.yul\":4529:4533   */\n  dup3\n    /* \"#utility.yul\":4525:4541   */\n  shr\n    /* \"#utility.yul\":4504:4541   */\n  swap1\n  pop\n    /* \"#utility.yul\":4431:4548   */\n  swap3\n  swap2\n  pop\n  pop\n  jump\t// out\n    /* \"#utility.yul\":4554:4723   */\ntag_89:\n    /* \"#utility.yul\":4598:4604   */\n  0x00\n    /* \"#utility.yul\":4631:4682   */\n  tag_155\n    /* \"#utility.yul\":4679:4680   */\n  0x00\n    /* \"#utility.yul\":4675:4681   */\n  not\n    /* \"#utility.yul\":4667:4672   */\n  dup5\n    /* \"#utility.yul\":4664:4665   */\n  0x08\n    /* \"#utility.yul\":4660:4673   */\n  mul\n    /* \"#utility.yul\":4631:4682   */\n  tag_88\n  jump\t// in\ntag_155:\n    /* \"#utility.yul\":4627:4683   */\n  not\n    /* \"#utility.yul\":4712:4716   */\n  dup1\n    /* \"#utility.yul\":4706:4710   */\n  dup4\n    /* \"#utility.yul\":4702:4717   */\n  and\n    /* \"#utility.yul\":4692:4717   */\n  swap2\n  pop\n    /* \"#utility.yul\":4605:4723   */\n  pop\n    /* \"#utility.yul\":4554:4723   */\n  swap3\n  swap2\n  pop\n  pop\n  jump\t// out\n    /* \"#utility.yul\":4728:5023   */\ntag_90:\n    /* \"#utility.yul\":4804:4808   */\n  0x00\n    /* \"#utility.yul\":4950:4979   */\n  tag_157\n    /* \"#utility.yul\":4975:4978   */\n  dup4\n    /* \"#utility.yul\":4969:4973   */\n  dup4\n    /* \"#utility.yul\":4950:4979   */\n  tag_89\n  jump\t// in\ntag_157:\n    /* \"#utility.yul\":4942:4979   */\n  swap2\n  pop\n    /* \"#utility.yul\":5012:5015   */\n  dup3\n    /* \"#utility.yul\":5009:5010   */\n  0x02\n    /* \"#utility.yul\":5005:5016   */\n  mul\n    /* \"#utility.yul\":4999:5003   */\n  dup3\n    /* \"#utility.yul\":4996:5017   */\n  or\n    /* \"#utility.yul\":4988:5017   */\n  swap1\n  pop\n    /* \"#utility.yul\":4728:5023   */\n  swap3\n  swap2\n  pop\n  pop\n  jump\t// out\n    /* \"#utility.yul\":5028:6423   */\ntag_9:\n    /* \"#utility.yul\":5145:5182   */\n  tag_159\n    /* \"#utility.yul\":5178:5181   */\n  dup3\n    /* \"#utility.yul\":5145:5182   */\n  tag_71\n  jump\t// in\ntag_159:\n    /* \"#utility.yul\":5247:5265   */\n  0xffffffffffffffff\n    /* \"#utility.yul\":5239:5245   */\n  dup2\n    /* \"#utility.yul\":5236:5266   */\n  gt\n    /* \"#utility.yul\":5233:5289   */\n  iszero\n  tag_160\n  jumpi\n    /* \"#utility.yul\":5269:5287   */\n  tag_161\n  tag_72\n  jump\t// in\ntag_161:\n    /* \"#utility.yul\":5233:5289   */\ntag_160:\n    /* \"#utility.yul\":5313:5351   */\n  tag_162\n    /* \"#utility.yul\":5345:5349   */\n  dup3\n    /* \"#utility.yul\":5339:5350   */\n  sload\n    /* \"#utility.yul\":5313:5351   */\n  tag_74\n  jump\t// in\ntag_162:\n    /* \"#utility.yul\":5398:5465   */\n  tag_163\n    /* \"#utility.yul\":5458:5464   */\n  dup3\n    /* \"#utility.yul\":5450:5456   */\n  dup3\n    /* \"#utility.yul\":5444:5448   */\n  dup6\n    /* \"#utility.yul\":5398:5465   */\n  tag_87\n  jump\t// in\ntag_163:\n    /* \"#utility.yul\":5492:5493   */\n  0x00\n    /* \"#utility.yul\":5516:5520   */\n  0x20\n    /* \"#utility.yul\":5503:5520   */\n  swap1\n  pop\n    /* \"#utility.yul\":5548:5550   */\n  0x1f\n    /* \"#utility.yul\":5540:5546   */\n  dup4\n    /* \"#utility.yul\":5537:5551   */\n  gt\n    /* \"#utility.yul\":5565:5566   */\n  0x01\n    /* \"#utility.yul\":5560:6178   */\n  dup2\n  eq\n  tag_165\n  jumpi\n    /* \"#utility.yul\":6222:6223   */\n  0x00\n    /* \"#utility.yul\":6239:6245   */\n  dup5\n    /* \"#utility.yul\":6236:6313   */\n  iszero\n  tag_166\n  jumpi\n    /* \"#utility.yul\":6288:6297   */\n  dup3\n    /* \"#utility.yul\":6283:6286   */\n  dup8\n    /* \"#utility.yul\":6279:6298   */\n  add\n    /* \"#utility.yul\":6273:6299   */\n  mload\n    /* \"#utility.yul\":6264:6299   */\n  swap1\n  pop\n    /* \"#utility.yul\":6236:6313   */\ntag_166:\n    /* \"#utility.yul\":6339:6406   */\n  tag_167\n    /* \"#utility.yul\":6399:6405   */\n  dup6\n    /* \"#utility.yul\":6392:6397   */\n  dup3\n    /* \"#utility.yul\":6339:6406   */\n  tag_90\n  jump\t// in\ntag_167:\n    /* \"#utility.yul\":6333:6337   */\n  dup7\n    /* \"#utility.yul\":6326:6407   */\n  sstore\n    /* \"#utility.yul\":6195:6417   */\n  pop\n    /* \"#utility.yul\":5530:6417   */\n  jump(tag_164)\n    /* \"#utility.yul\":5560:6178   */\ntag_165:\n    /* \"#utility.yul\":5612:5616   */\n  0x1f\n    /* \"#utility.yul\":5608:5617   */\n  not\n    /* \"#utility.yul\":5600:5606   */\n  dup5\n    /* \"#utility.yul\":5596:5618   */\n  and\n    /* \"#utility.yul\":5646:5683   */\n  tag_168\n    /* \"#utility.yul\":5678:5682   */\n  dup7\n    /* \"#utility.yul\":5646:5683   */\n  tag_75\n  jump\t// in\ntag_168:\n    /* \"#utility.yul\":5705:5706   */\n  0x00\n    /* \"#utility.yul\":5719:5927   */\ntag_169:\n    /* \"#utility.yul\":5733:5740   */\n  dup3\n    /* \"#utility.yul\":5730:5731   */\n  dup2\n    /* \"#utility.yul\":5727:5741   */\n  lt\n    /* \"#utility.yul\":5719:5927   */\n  iszero\n  tag_171\n  jumpi\n    /* \"#utility.yul\":5812:5821   */\n  dup5\n    /* \"#utility.yul\":5807:5810   */\n  dup10\n    /* \"#utility.yul\":5803:5822   */\n  add\n    /* \"#utility.yul\":5797:5823   */\n  mload\n    /* \"#utility.yul\":5789:5795   */\n  dup3\n    /* \"#utility.yul\":5782:5824   */\n  sstore\n    /* \"#utility.yul\":5863:5864   */\n  0x01\n    /* \"#utility.yul\":5855:5861   */\n  dup3\n    /* \"#utility.yul\":5851:5865   */\n  add\n    /* \"#utility.yul\":5841:5865   */\n  swap2\n  pop\n    /* \"#utility.yul\":5910:5912   */\n  0x20\n    /* \"#utility.yul\":5899:5908   */\n  dup6\n    /* \"#utility.yul\":5895:5913   */\n  add\n    /* \"#utility.yul\":5882:5913   */\n  swap5\n  pop\n    /* \"#utility.yul\":5756:5760   */\n  0x20\n    /* \"#utility.yul\":5753:5754   */\n  dup2\n    /* \"#utility.yul\":5749:5761   */\n  add\n    /* \"#utility.yul\":5744:5761   */\n  swap1\n  pop\n    /* \"#utility.yul\":5719:5927   */\n  jump(tag_169)\ntag_171:\n    /* \"#utility.yul\":5955:5961   */\n  dup7\n    /* \"#utility.yul\":5946:5953   */\n  dup4\n    /* \"#utility.yul\":5943:5962   */\n  lt\n    /* \"#utility.yul\":5940:6119   */\n  iszero\n  tag_172\n  jumpi\n    /* \"#utility.yul\":6013:6022   */\n  dup5\n    /* \"#utility.yul\":6008:6011   */\n  dup10\n    /* \"#utility.yul\":6004:6023   */\n  add\n    /* \"#utility.yul\":5998:6024   */\n  mload\n    /* \"#utility.yul\":6056:6104   */\n  tag_173\n    /* \"#utility.yul\":6098:6102   */\n  0x1f\n    /* \"#utility.yul\":6090:6096   */\n  dup10\n    /* \"#utility.yul\":6086:6103   */\n  and\n    /* \"#utility.yul\":6075:6084   */\n  dup3\n    /* \"#utility.yul\":6056:6104   */\n  tag_89\n  jump\t// in\ntag_173:\n    /* \"#utility.yul\":6048:6054   */\n  dup4\n    /* \"#utility.yul\":6041:6105   */\n  sstore\n    /* \"#utility.yul\":5963:6119   */\n  pop\n    /* \"#utility.yul\":5940:6119   */\ntag_172:\n    /* \"#utility.yul\":6165:6166   */\n  0x01\n    /* \"#utility.yul\":6161:6162   */\n  0x02\n    /* \"#utility.yul\":6153:6159   */\n  dup9\n    /* \"#utility.yul\":6149:6163   */\n  mul\n    /* \"#utility.yul\":6145:6167   */\n  add\n    /* \"#utility.yul\":6139:6143   */\n  dup9\n    /* \"#utility.yul\":6132:6168   */\n  sstore\n    /* \"#utility.yul\":5567:6178   */\n  pop\n  pop\n  pop\n    /* \"#utility.yul\":5530:6417   */\ntag_164:\n  pop\n    /* \"#utility.yul\":5120:6423   */\n  pop\n  pop\n  pop\n    /* \"#utility.yul\":5028:6423   */\n  pop\n  pop\n  jump\t// out\n    /* \"#utility.yul\":6429:6547   */\ntag_91:\n    /* \"#utility.yul\":6516:6540   */\n  tag_175\n    /* \"#utility.yul\":6534:6539   */\n  dup2\n    /* \"#utility.yul\":6516:6540   */\n  tag_68\n  jump\t// in\ntag_175:\n    /* \"#utility.yul\":6511:6514   */\n  dup3\n    /* \"#utility.yul\":6504:6541   */\n  mstore\n    /* \"#utility.yul\":6429:6547   */\n  pop\n  pop\n  jump\t// out\n    /* \"#utility.yul\":6553:6775   */\ntag_37:\n    /* \"#utility.yul\":6646:6650   */\n  0x00\n    /* \"#utility.yul\":6684:6686   */\n  0x20\n    /* \"#utility.yul\":6673:6682   */\n  dup3\n    /* \"#utility.yul\":6669:6687   */\n  add\n    /* \"#utility.yul\":6661:6687   */\n  swap1\n  pop\n    /* \"#utility.yul\":6697:6768   */\n  tag_177\n    /* \"#utility.yul\":6765:6766   */\n  0x00\n    /* \"#utility.yul\":6754:6763   */\n  dup4\n    /* \"#utility.yul\":6750:6767   */\n  add\n    /* \"#utility.yul\":6741:6747   */\n  dup5\n    /* \"#utility.yul\":6697:6768   */\n  tag_91\n  jump\t// in\ntag_177:\n    /* \"#utility.yul\":6553:6775   */\n  swap3\n  swap2\n  pop\n  pop\n  jump\t// out\n    /* \"#utility.yul\":6781:6961   */\ntag_92:\n    /* \"#utility.yul\":6829:6906   */\n  0x4e487b7100000000000000000000000000000000000000000000000000000000\n    /* \"#utility.yul\":6826:6827   */\n  0x00\n    /* \"#utility.yul\":6819:6907   */\n  mstore\n    /* \"#utility.yul\":6926:6930   */\n  0x11\n    /* \"#utility.yul\":6923:6924   */\n  0x04\n    /* \"#utility.yul\":6916:6931   */\n  mstore\n    /* \"#utility.yul\":6950:6954   */\n  0x24\n    /* \"#utility.yul\":6947:6948   */\n  0x00\n    /* \"#utility.yul\":6940:6955   */\n  revert\n    /* \"#utility.yul\":6967:7158   */\ntag_46:\n    /* \"#utility.yul\":7007:7010   */\n  0x00\n    /* \"#utility.yul\":7026:7046   */\n  tag_180\n    /* \"#utility.yul\":7044:7045   */\n  dup3\n    /* \"#utility.yul\":7026:7046   */\n  tag_79\n  jump\t// in\ntag_180:\n    /* \"#utility.yul\":7021:7046   */\n  swap2\n  pop\n    /* \"#utility.yul\":7060:7080   */\n  tag_181\n    /* \"#utility.yul\":7078:7079   */\n  dup4\n    /* \"#utility.yul\":7060:7080   */\n  tag_79\n  jump\t// in\ntag_181:\n    /* \"#utility.yul\":7055:7080   */\n  swap3\n  pop\n    /* \"#utility.yul\":7103:7104   */\n  dup3\n    /* \"#utility.yul\":7100:7101   */\n  dup3\n    /* \"#utility.yul\":7096:7105   */\n  add\n    /* \"#utility.yul\":7089:7105   */\n  swap1\n  pop\n    /* \"#utility.yul\":7124:7127   */\n  dup1\n    /* \"#utility.yul\":7121:7122   */\n  dup3\n    /* \"#utility.yul\":7118:7128   */\n  gt\n    /* \"#utility.yul\":7115:7151   */\n  iszero\n  tag_182\n  jumpi\n    /* \"#utility.yul\":7131:7149   */\n  tag_183\n  tag_92\n  jump\t// in\ntag_183:\n    /* \"#utility.yul\":7115:7151   */\ntag_182:\n    /* \"#utility.yul\":6967:7158   */\n  swap3\n  swap2\n  pop\n  pop\n  jump\t// out\n    /* \"#utility.yul\":7164:7333   */\ntag_93:\n    /* \"#utility.yul\":7248:7259   */\n  0x00\n    /* \"#utility.yul\":7282:7288   */\n  dup3\n    /* \"#utility.yul\":7277:7280   */\n  dup3\n    /* \"#utility.yul\":7270:7289   */\n  mstore\n    /* \"#utility.yul\":7322:7326   */\n  0x20\n    /* \"#utility.yul\":7317:7320   */\n  dup3\n    /* \"#utility.yul\":7313:7327   */\n  add\n    /* \"#utility.yul\":7298:7327   */\n  swap1\n  pop\n    /* \"#utility.yul\":7164:7333   */\n  swap3\n  swap2\n  pop\n  pop\n  jump\t// out\n    /* \"#utility.yul\":7339:7518   */\ntag_94:\n    /* \"#utility.yul\":7479:7510   */\n  0x436f6e74726163743a20537570706c7920436170206578636565646564000000\n    /* \"#utility.yul\":7475:7476   */\n  0x00\n    /* \"#utility.yul\":7467:7473   */\n  dup3\n    /* \"#utility.yul\":7463:7477   */\n  add\n    /* \"#utility.yul\":7456:7511   */\n  mstore\n    /* \"#utility.yul\":7339:7518   */\n  pop\n  jump\t// out\n    /* \"#utility.yul\":7524:7890   */\ntag_95:\n    /* \"#utility.yul\":7666:7669   */\n  0x00\n    /* \"#utility.yul\":7687:7754   */\n  tag_187\n    /* \"#utility.yul\":7751:7753   */\n  0x1d\n    /* \"#utility.yul\":7746:7749   */\n  dup4\n    /* \"#utility.yul\":7687:7754   */\n  tag_93\n  jump\t// in\ntag_187:\n    /* \"#utility.yul\":7680:7754   */\n  swap2\n  pop\n    /* \"#utility.yul\":7763:7856   */\n  tag_188\n    /* \"#utility.yul\":7852:7855   */\n  dup3\n    /* \"#utility.yul\":7763:7856   */\n  tag_94\n  jump\t// in\ntag_188:\n    /* \"#utility.yul\":7881:7883   */\n  0x20\n    /* \"#utility.yul\":7876:7879   */\n  dup3\n    /* \"#utility.yul\":7872:7884   */\n  add\n    /* \"#utility.yul\":7865:7884   */\n  swap1\n  pop\n    /* \"#utility.yul\":7524:7890   */\n  swap2\n  swap1\n  pop\n  jump\t// out\n    /* \"#utility.yul\":7896:8315   */\ntag_49:\n    /* \"#utility.yul\":8062:8066   */\n  0x00\n    /* \"#utility.yul\":8100:8102   */\n  0x20\n    /* \"#utility.yul\":8089:8098   */\n  dup3\n    /* \"#utility.yul\":8085:8103   */\n  add\n    /* \"#utility.yul\":8077:8103   */\n  swap1\n  pop\n    /* \"#utility.yul\":8149:8158   */\n  dup2\n    /* \"#utility.yul\":8143:8147   */\n  dup2\n    /* \"#utility.yul\":8139:8159   */\n  sub\n    /* \"#utility.yul\":8135:8136   */\n  0x00\n    /* \"#utility.yul\":8124:8133   */\n  dup4\n    /* \"#utility.yul\":8120:8137   */\n  add\n    /* \"#utility.yul\":8113:8160   */\n  mstore\n    /* \"#utility.yul\":8177:8308   */\n  tag_190\n    /* \"#utility.yul\":8303:8307   */\n  dup2\n    /* \"#utility.yul\":8177:8308   */\n  tag_95\n  jump\t// in\ntag_190:\n    /* \"#utility.yul\":8169:8308   */\n  swap1\n  pop\n    /* \"#utility.yul\":7896:8315   */\n  swap2\n  swap1\n  pop\n  jump\t// out\n    /* \"#utility.yul\":8321:8439   */\ntag_96:\n    /* \"#utility.yul\":8408:8432   */\n  tag_192\n    /* \"#utility.yul\":8426:8431   */\n  dup2\n    /* \"#utility.yul\":8408:8432   */\n  tag_79\n  jump\t// in\ntag_192:\n    /* \"#utility.yul\":8403:8406   */\n  dup3\n    /* \"#utility.yul\":8396:8433   */\n  mstore\n    /* \"#utility.yul\":8321:8439   */\n  pop\n  pop\n  jump\t// out\n    /* \"#utility.yul\":8445:8887   */\ntag_59:\n    /* \"#utility.yul\":8594:8598   */\n  0x00\n    /* \"#utility.yul\":8632:8634   */\n  0x60\n    /* \"#utility.yul\":8621:8630   */\n  dup3\n    /* \"#utility.yul\":8617:8635   */\n  add\n    /* \"#utility.yul\":8609:8635   */\n  swap1\n  pop\n    /* \"#utility.yul\":8645:8716   */\n  tag_194\n    /* \"#utility.yul\":8713:8714   */\n  0x00\n    /* \"#utility.yul\":8702:8711   */\n  dup4\n    /* \"#utility.yul\":8698:8715   */\n  add\n    /* \"#utility.yul\":8689:8695   */\n  dup7\n    /* \"#utility.yul\":8645:8716   */\n  tag_91\n  jump\t// in\ntag_194:\n    /* \"#utility.yul\":8726:8798   */\n  tag_195\n    /* \"#utility.yul\":8794:8796   */\n  0x20\n    /* \"#utility.yul\":8783:8792   */\n  dup4\n    /* \"#utility.yul\":8779:8797   */\n  add\n    /* \"#utility.yul\":8770:8776   */\n  dup6\n    /* \"#utility.yul\":8726:8798   */\n  tag_96\n  jump\t// in\ntag_195:\n    /* \"#utility.yul\":8808:8880   */\n  tag_196\n    /* \"#utility.yul\":8876:8878   */\n  0x40\n    /* \"#utility.yul\":8865:8874   */\n  dup4\n    /* \"#utility.yul\":8861:8879   */\n  add\n    /* \"#utility.yul\":8852:8858   */\n  dup5\n    /* \"#utility.yul\":8808:8880   */\n  tag_96\n  jump\t// in\ntag_196:\n    /* \"#utility.yul\":8445:8887   */\n  swap5\n  swap4\n  pop\n  pop\n  pop\n  pop\n  jump\t// out\n    /* \"#utility.yul\":8893:9115   */\ntag_63:\n    /* \"#utility.yul\":8986:8990   */\n  0x00\n    /* \"#utility.yul\":9024:9026   */\n  0x20\n    /* \"#utility.yul\":9013:9022   */\n  dup3\n    /* \"#utility.yul\":9009:9027   */\n  add\n    /* \"#utility.yul\":9001:9027   */\n  swap1\n  pop\n    /* \"#utility.yul\":9037:9108   */\n  tag_198\n    /* \"#utility.yul\":9105:9106   */\n  0x00\n    /* \"#utility.yul\":9094:9103   */\n  dup4\n    /* \"#utility.yul\":9090:9107   */\n  add\n    /* \"#utility.yul\":9081:9087   */\n  dup5\n    /* \"#utility.yul\":9037:9108   */\n  tag_96\n  jump\t// in\ntag_198:\n    /* \"#utility.yul\":8893:9115   */\n  swap3\n  swap2\n  pop\n  pop\n  jump\t// out\n    /* \"src/token.sol\":740:12422  contract Token is ERC20, AccessControl, ReentrancyGuard {... */\ntag_26:\n  dataSize(sub_0)\n  dup1\n  dataOffset(sub_0)\n  0x00\n  codecopy\n  0x00\n  return\nstop\n\nsub_0: assembly {\n        /* \"src/token.sol\":740:12422  contract Token is ERC20, AccessControl, ReentrancyGuard {... */\n      mstore(0x40, 0x80)\n      callvalue\n      dup1\n      iszero\n      tag_1\n      jumpi\n      0x00\n      dup1\n      revert\n    tag_1:\n      pop\n      jumpi(tag_2, lt(calldatasize, 0x04))\n      shr(0xe0, calldataload(0x00))\n      dup1\n      0x79cc6790\n      gt\n      tag_44\n      jumpi\n      dup1\n      0xa9059cbb\n      gt\n      tag_45\n      jumpi\n      dup1\n      0xd547741f\n      gt\n      tag_46\n      jumpi\n      dup1\n      0xd547741f\n      eq\n      tag_38\n      jumpi\n      dup1\n      0xdd62ed3e\n      eq\n      tag_39\n      jumpi\n      dup1\n      0xdeb6db36\n      eq\n      tag_40\n      jumpi\n      dup1\n      0xea5cb532\n      eq\n      tag_41\n      jumpi\n      dup1\n      0xf2250d3d\n      eq\n      tag_42\n      jumpi\n      dup1\n      0xfbfa77cf\n      eq\n      tag_43\n      jumpi\n      jump(tag_2)\n    tag_46:\n      dup1\n      0xa9059cbb\n      eq\n      tag_33\n      jumpi\n      dup1\n      0xb6a3f59a\n      eq\n      tag_34\n      jumpi\n      dup1\n      0xc30796ab\n      eq\n      tag_35\n      jumpi\n      dup1\n      0xcf820461\n      eq\n      tag_36\n      jumpi\n      dup1\n      0xd1c9f69b\n      eq\n      tag_37\n      jumpi\n      jump(tag_2)\n    tag_45:\n      dup1\n      0x91d14854\n      gt\n      tag_47\n      jumpi\n      dup1\n      0x91d14854\n      eq\n      tag_28\n      jumpi\n      dup1\n      0x956feccf\n      eq\n      tag_29\n      jumpi\n      dup1\n      0x95d89b41\n      eq\n      tag_30\n      jumpi\n      dup1\n      0xa0712d68\n      eq\n      tag_31\n      jumpi\n      dup1\n      0xa217fddf\n      eq\n      tag_32\n      jumpi\n      jump(tag_2)\n    tag_47:\n      dup1\n      0x79cc6790\n      eq\n      tag_23\n      jumpi\n      dup1\n      0x7e92a7fd\n      eq\n      tag_24\n      jumpi\n      dup1\n      0x8d580b9f\n      eq\n      tag_25\n      jumpi\n      dup1\n      0x8ebed5b1\n      eq\n      tag_26\n      jumpi\n      dup1\n      0x8f770ad0\n      eq\n      tag_27\n      jumpi\n      jump(tag_2)\n    tag_44:\n      dup1\n      0x3f914aef\n      gt\n      tag_48\n      jumpi\n      dup1\n      0x51557289\n      gt\n      tag_49\n      jumpi\n      dup1\n      0x51557289\n      eq\n      tag_18\n      jumpi\n      dup1\n      0x53a4c31e\n      eq\n      tag_19\n      jumpi\n      dup1\n      0x5c975abb\n      eq\n      tag_20\n      jumpi\n      dup1\n      0x6ba77a38\n      eq\n      tag_21\n      jumpi\n      dup1\n      0x70a08231\n      eq\n      tag_22\n      jumpi\n      jump(tag_2)\n    tag_49:\n      dup1\n      0x3f914aef\n      eq\n      tag_13\n      jumpi\n      dup1\n      0x41f431fd\n      eq\n      tag_14\n      jumpi\n      dup1\n      0x42966c68\n      eq\n      tag_15\n      jumpi\n      dup1\n      0x449a52f8\n      eq\n      tag_16\n      jumpi\n      dup1\n      0x48132f48\n      eq\n      tag_17\n      jumpi\n      jump(tag_2)\n    tag_48:\n      dup1\n      0x23b872dd\n      gt\n      tag_50\n      jumpi\n      dup1\n      0x23b872dd\n      eq\n      tag_8\n      jumpi\n      dup1\n      0x248a9ca3\n      eq\n      tag_9\n      jumpi\n      dup1\n      0x2f2ff15d\n      eq\n      tag_10\n      jumpi\n      dup1\n      0x313ce567\n      eq\n      tag_11\n      jumpi\n      dup1\n      0x36568abe\n      eq\n      tag_12\n      jumpi\n      jump(tag_2)\n    tag_50:\n      dup1\n      0x01ffc9a7\n      eq\n      tag_3\n      jumpi\n      dup1\n      0x06fdde03\n      eq\n      tag_4\n      jumpi\n      dup1\n      0x095ea7b3\n      eq\n      tag_5\n      jumpi\n      dup1\n      0x16c38b3c\n      eq\n      tag_6\n      jumpi\n      dup1\n      0x18160ddd\n      eq\n      tag_7\n      jumpi\n    tag_2:\n      0x00\n      dup1\n      revert\n        /* \"@openzeppelin/contracts/access/AccessControl.sol\":2565:2767  function supportsInterface(bytes4 interfaceId) public view virtual override returns (bool) {... */\n    tag_3:\n      tag_51\n      0x04\n      dup1\n      calldatasize\n      sub\n      dup2\n      add\n      swap1\n      tag_52\n      swap2\n      swap1\n      tag_53\n      jump\t// in\n    tag_52:\n      tag_54\n      jump\t// in\n    tag_51:\n      mload(0x40)\n      tag_55\n      swap2\n      swap1\n      tag_56\n      jump\t// in\n    tag_55:\n      mload(0x40)\n      dup1\n      swap2\n      sub\n      swap1\n      return\n        /* \"@openzeppelin/contracts/token/ERC20/ERC20.sol\":2074:2163  function name() public view virtual returns (string memory) {... */\n    tag_4:\n      tag_57\n      tag_58\n      jump\t// in\n    tag_57:\n      mload(0x40)\n      tag_59\n      swap2\n      swap1\n      tag_60\n      jump\t// in\n    tag_59:\n      mload(0x40)\n      dup1\n      swap2\n      sub\n      swap1\n      return\n        /* \"@openzeppelin/contracts/token/ERC20/ERC20.sol\":4293:4479  function approve(address spender, uint256 value) public virtual returns (bool) {... */\n    tag_5:\n      tag_61\n      0x04\n      dup1\n      calldatasize\n      sub\n      dup2\n      add\n      swap1\n      tag_62\n      swap2\n      swap1\n      tag_63\n      jump\t// in\n    tag_62:\n      tag_64\n      jump\t// in\n    tag_61:\n      mload(0x40)\n      tag_65\n      swap2\n      swap1\n      tag_56\n      jump\t// in\n    tag_65:\n      mload(0x40)\n      dup1\n      swap2\n      sub\n      swap1\n      return\n        /* \"src/token.sol\":3794:4116  function setPaused(bool _paused) external {... */\n    tag_6:\n      tag_66\n      0x04\n      dup1\n      calldatasize\n      sub\n      dup2\n      add\n      swap1\n      tag_67\n      swap2\n      swap1\n      tag_68\n      jump\t// in\n    tag_67:\n      tag_69\n      jump\t// in\n    tag_66:\n      stop\n        /* \"@openzeppelin/contracts/token/ERC20/ERC20.sol\":3144:3241  function totalSupply() public view virtual returns (uint256) {... */\n    tag_7:\n      tag_70\n      tag_71\n      jump\t// in\n    tag_70:\n      mload(0x40)\n      tag_72\n      swap2\n      swap1\n      tag_73\n      jump\t// in\n    tag_72:\n      mload(0x40)\n      dup1\n      swap2\n      sub\n      swap1\n      return\n        /* \"src/token.sol\":9594:9970  function transferFrom(address from, address to, uint256 value) nonReentrant public virtual override returns (bool) {... */\n    tag_8:\n      tag_74\n      0x04\n      dup1\n      calldatasize\n      sub\n      dup2\n      add\n      swap1\n      tag_75\n      swap2\n      swap1\n      tag_76\n      jump\t// in\n    tag_75:\n      tag_77\n      jump\t// in\n    tag_74:\n      mload(0x40)\n      tag_78\n      swap2\n      swap1\n      tag_56\n      jump\t// in\n    tag_78:\n      mload(0x40)\n      dup1\n      swap2\n      sub\n      swap1\n      return\n        /* \"@openzeppelin/contracts/access/AccessControl.sol\":3810:3930  function getRoleAdmin(bytes32 role) public view virtual returns (bytes32) {... */\n    tag_9:\n      tag_79\n      0x04\n      dup1\n      calldatasize\n      sub\n      dup2\n      add\n      swap1\n      tag_80\n      swap2\n      swap1\n      tag_81\n      jump\t// in\n    tag_80:\n      tag_82\n      jump\t// in\n    tag_79:\n      mload(0x40)\n      tag_83\n      swap2\n      swap1\n      tag_84\n      jump\t// in\n    tag_83:\n      mload(0x40)\n      dup1\n      swap2\n      sub\n      swap1\n      return\n        /* \"@openzeppelin/contracts/access/AccessControl.sol\":4226:4362  function grantRole(bytes32 role, address account) public virtual onlyRole(getRoleAdmin(role)) {... */\n    tag_10:\n      tag_85\n      0x04\n      dup1\n      calldatasize\n      sub\n      dup2\n      add\n      swap1\n      tag_86\n      swap2\n      swap1\n      tag_87\n      jump\t// in\n    tag_86:\n      tag_88\n      jump\t// in\n    tag_85:\n      stop\n        /* \"@openzeppelin/contracts/token/ERC20/ERC20.sol\":3002:3084  function decimals() public view virtual returns (uint8) {... */\n    tag_11:\n      tag_89\n      tag_90\n      jump\t// in\n    tag_89:\n      mload(0x40)\n      tag_91\n      swap2\n      swap1\n      tag_92\n      jump\t// in\n    tag_91:\n      mload(0x40)\n      dup1\n      swap2\n      sub\n      swap1\n      return\n        /* \"@openzeppelin/contracts/access/AccessControl.sol\":5328:5573  function renounceRole(bytes32 role, address callerConfirmation) public virtual {... */\n    tag_12:\n      tag_93\n      0x04\n      dup1\n      calldatasize\n      sub\n      dup2\n      add\n      swap1\n      tag_94\n      swap2\n      swap1\n      tag_87\n      jump\t// in\n    tag_94:\n      tag_95\n      jump\t// in\n    tag_93:\n      stop\n        /* \"src/token.sol\":11019:11270  function setWhitelistAddress(address _whitelist, bool _status) external {... */\n    tag_13:\n      tag_96\n      0x04\n      dup1\n      calldatasize\n      sub\n      dup2\n      add\n      swap1\n      tag_97\n      swap2\n      swap1\n      tag_98\n      jump\t// in\n    tag_97:\n      tag_99\n      jump\t// in\n    tag_96:\n      stop\n        /* \"src/token.sol\":11612:11897  function moveERC20(IERC20 _ERC20, address _dest, uint _ERC20Amount) nonReentrant public {... */\n    tag_14:\n      tag_100\n      0x04\n      dup1\n      calldatasize\n      sub\n      dup2\n      add\n      swap1\n      tag_101\n      swap2\n      swap1\n      tag_102\n      jump\t// in\n    tag_101:\n      tag_103\n      jump\t// in\n    tag_100:\n      stop\n        /* \"src/token.sol\":7257:7466  function burn(uint _amount) external pause { ... */\n    tag_15:\n      tag_104\n      0x04\n      dup1\n      calldatasize\n      sub\n      dup2\n      add\n      swap1\n      tag_105\n      swap2\n      swap1\n      tag_106\n      jump\t// in\n    tag_105:\n      tag_107\n      jump\t// in\n    tag_104:\n      stop\n        /* \"src/token.sol\":6202:6505  function mintTo(address _to, uint _amount) external pause mintToDis {... */\n    tag_16:\n      tag_108\n      0x04\n      dup1\n      calldatasize\n      sub\n      dup2\n      add\n      swap1\n      tag_109\n      swap2\n      swap1\n      tag_63\n      jump\t// in\n    tag_109:\n      tag_110\n      jump\t// in\n    tag_108:\n      stop\n        /* \"src/token.sol\":12167:12415  function ethRescue(address payable _dest, uint _etherAmount) nonReentrant public {... */\n    tag_17:\n      tag_111\n      0x04\n      dup1\n      calldatasize\n      sub\n      dup2\n      add\n      swap1\n      tag_112\n      swap2\n      swap1\n      tag_113\n      jump\t// in\n    tag_112:\n      tag_114\n      jump\t// in\n    tag_111:\n      stop\n        /* \"src/token.sol\":1197:1249  bytes32 public constant _ADMIN = keccak256(\"_ADMIN\") */\n    tag_18:\n      tag_115\n      tag_116\n      jump\t// in\n    tag_115:\n      mload(0x40)\n      tag_117\n      swap2\n      swap1\n      tag_84\n      jump\t// in\n    tag_117:\n      mload(0x40)\n      dup1\n      swap2\n      sub\n      swap1\n      return\n        /* \"src/token.sol\":1017:1067  bytes32 public constant _BURN = keccak256(\"_BURN\") */\n    tag_19:\n      tag_118\n      tag_119\n      jump\t// in\n    tag_118:\n      mload(0x40)\n      tag_120\n      swap2\n      swap1\n      tag_84\n      jump\t// in\n    tag_120:\n      mload(0x40)\n      dup1\n      swap2\n      sub\n      swap1\n      return\n        /* \"src/token.sol\":1522:1540  bool public paused */\n    tag_20:\n      tag_121\n      tag_122\n      jump\t// in\n    tag_121:\n      mload(0x40)\n      tag_123\n      swap2\n      swap1\n      tag_56\n      jump\t// in\n    tag_123:\n      mload(0x40)\n      dup1\n      swap2\n      sub\n      swap1\n      return\n        /* \"src/token.sol\":1073:1131  bytes32 public constant _BURNFROM = keccak256(\"_BURNFROM\") */\n    tag_21:\n      tag_124\n      tag_125\n      jump\t// in\n    tag_124:\n      mload(0x40)\n      tag_126\n      swap2\n      swap1\n      tag_84\n      jump\t// in\n    tag_126:\n      mload(0x40)\n      dup1\n      swap2\n      sub\n      swap1\n      return\n        /* \"@openzeppelin/contracts/token/ERC20/ERC20.sol\":3299:3415  function balanceOf(address account) public view virtual returns (uint256) {... */\n    tag_22:\n      tag_127\n      0x04\n      dup1\n      calldatasize\n      sub\n      dup2\n      add\n      swap1\n      tag_128\n      swap2\n      swap1\n      tag_129\n      jump\t// in\n    tag_128:\n      tag_130\n      jump\t// in\n    tag_127:\n      mload(0x40)\n      tag_131\n      swap2\n      swap1\n      tag_73\n      jump\t// in\n    tag_131:\n      mload(0x40)\n      dup1\n      swap2\n      sub\n      swap1\n      return\n        /* \"src/token.sol\":7753:7992  function burnFrom(address _from, uint _amount) external pause {... */\n    tag_23:\n      tag_132\n      0x04\n      dup1\n      calldatasize\n      sub\n      dup2\n      add\n      swap1\n      tag_133\n      swap2\n      swap1\n      tag_63\n      jump\t// in\n    tag_133:\n      tag_134\n      jump\t// in\n    tag_132:\n      stop\n        /* \"src/token.sol\":957:1011  bytes32 public constant _MINTTO = keccak256(\"_MINTTO\") */\n    tag_24:\n      tag_135\n      tag_136\n      jump\t// in\n    tag_135:\n      mload(0x40)\n      tag_137\n      swap2\n      swap1\n      tag_84\n      jump\t// in\n    tag_137:\n      mload(0x40)\n      dup1\n      swap2\n      sub\n      swap1\n      return\n        /* \"src/token.sol\":1255:1309  bytes32 public constant _RESCUE = keccak256(\"_RESCUE\") */\n    tag_25:\n      tag_138\n      tag_139\n      jump\t// in\n    tag_138:\n      mload(0x40)\n      tag_140\n      swap2\n      swap1\n      tag_84\n      jump\t// in\n    tag_140:\n      mload(0x40)\n      dup1\n      swap2\n      sub\n      swap1\n      return\n        /* \"src/token.sol\":901:951  bytes32 public constant _MINT = keccak256(\"_MINT\") */\n    tag_26:\n      tag_141\n      tag_142\n      jump\t// in\n    tag_141:\n      mload(0x40)\n      tag_143\n      swap2\n      swap1\n      tag_84\n      jump\t// in\n    tag_143:\n      mload(0x40)\n      dup1\n      swap2\n      sub\n      swap1\n      return\n        /* \"src/token.sol\":8620:8696  function supplyCap() public view returns (uint) {... */\n    tag_27:\n      tag_144\n      tag_145\n      jump\t// in\n    tag_144:\n      mload(0x40)\n      tag_146\n      swap2\n      swap1\n      tag_73\n      jump\t// in\n    tag_146:\n      mload(0x40)\n      dup1\n      swap2\n      sub\n      swap1\n      return\n        /* \"@openzeppelin/contracts/access/AccessControl.sol\":2854:2990  function hasRole(bytes32 role, address account) public view virtual returns (bool) {... */\n    tag_28:\n      tag_147\n      0x04\n      dup1\n      calldatasize\n      sub\n      dup2\n      add\n      swap1\n      tag_148\n      swap2\n      swap1\n      tag_87\n      jump\t// in\n    tag_148:\n      tag_149\n      jump\t// in\n    tag_147:\n      mload(0x40)\n      tag_150\n      swap2\n      swap1\n      tag_56\n      jump\t// in\n    tag_150:\n      mload(0x40)\n      dup1\n      swap2\n      sub\n      swap1\n      return\n        /* \"src/token.sol\":1589:1613  bool public mintDisabled */\n    tag_29:\n      tag_151\n      tag_152\n      jump\t// in\n    tag_151:\n      mload(0x40)\n      tag_153\n      swap2\n      swap1\n      tag_56\n      jump\t// in\n    tag_153:\n      mload(0x40)\n      dup1\n      swap2\n      sub\n      swap1\n      return\n        /* \"@openzeppelin/contracts/token/ERC20/ERC20.sol\":2276:2369  function symbol() public view virtual returns (string memory) {... */\n    tag_30:\n      tag_154\n      tag_155\n      jump\t// in\n    tag_154:\n      mload(0x40)\n      tag_156\n      swap2\n      swap1\n      tag_60\n      jump\t// in\n    tag_156:\n      mload(0x40)\n      dup1\n      swap2\n      sub\n      swap1\n      return\n        /* \"src/token.sol\":6740:7025  function mint(uint _amount) external pause mintDis {... */\n    tag_31:\n      tag_157\n      0x04\n      dup1\n      calldatasize\n      sub\n      dup2\n      add\n      swap1\n      tag_158\n      swap2\n      swap1\n      tag_106\n      jump\t// in\n    tag_158:\n      tag_159\n      jump\t// in\n    tag_157:\n      stop\n        /* \"@openzeppelin/contracts/access/AccessControl.sol\":2187:2236  bytes32 public constant DEFAULT_ADMIN_ROLE = 0x00 */\n    tag_32:\n      tag_160\n      tag_161\n      jump\t// in\n    tag_160:\n      mload(0x40)\n      tag_162\n      swap2\n      swap1\n      tag_84\n      jump\t// in\n    tag_162:\n      mload(0x40)\n      dup1\n      swap2\n      sub\n      swap1\n      return\n        /* \"src/token.sol\":10284:10641  function transfer(address to, uint256 value) nonReentrant public virtual override returns (bool) {... */\n    tag_33:\n      tag_163\n      0x04\n      dup1\n      calldatasize\n      sub\n      dup2\n      add\n      swap1\n      tag_164\n      swap2\n      swap1\n      tag_63\n      jump\t// in\n    tag_164:\n      tag_165\n      jump\t// in\n    tag_163:\n      mload(0x40)\n      tag_166\n      swap2\n      swap1\n      tag_56\n      jump\t// in\n    tag_166:\n      mload(0x40)\n      dup1\n      swap2\n      sub\n      swap1\n      return\n        /* \"src/token.sol\":8216:8503  function setSupplyCap(uint _supplyCap) external pause {... */\n    tag_34:\n      tag_167\n      0x04\n      dup1\n      calldatasize\n      sub\n      dup2\n      add\n      swap1\n      tag_168\n      swap2\n      swap1\n      tag_106\n      jump\t// in\n    tag_168:\n      tag_169\n      jump\t// in\n    tag_167:\n      stop\n        /* \"src/token.sol\":2625:2675  mapping(address => bool) public whitelistedAddress */\n    tag_35:\n      tag_170\n      0x04\n      dup1\n      calldatasize\n      sub\n      dup2\n      add\n      swap1\n      tag_171\n      swap2\n      swap1\n      tag_129\n      jump\t// in\n    tag_171:\n      tag_172\n      jump\t// in\n    tag_170:\n      mload(0x40)\n      tag_173\n      swap2\n      swap1\n      tag_56\n      jump\t// in\n    tag_173:\n      mload(0x40)\n      dup1\n      swap2\n      sub\n      swap1\n      return\n        /* \"src/token.sol\":1447:1478  uint public txFee = 0.005 ether */\n    tag_36:\n      tag_174\n      tag_175\n      jump\t// in\n    tag_174:\n      mload(0x40)\n      tag_176\n      swap2\n      swap1\n      tag_73\n      jump\t// in\n    tag_176:\n      mload(0x40)\n      dup1\n      swap2\n      sub\n      swap1\n      return\n        /* \"src/token.sol\":1646:1672  bool public mintToDisabled */\n    tag_37:\n      tag_177\n      tag_178\n      jump\t// in\n    tag_177:\n      mload(0x40)\n      tag_179\n      swap2\n      swap1\n      tag_56\n      jump\t// in\n    tag_179:\n      mload(0x40)\n      dup1\n      swap2\n      sub\n      swap1\n      return\n        /* \"@openzeppelin/contracts/access/AccessControl.sol\":4642:4780  function revokeRole(bytes32 role, address account) public virtual onlyRole(getRoleAdmin(role)) {... */\n    tag_38:\n      tag_180\n      0x04\n      dup1\n      calldatasize\n      sub\n      dup2\n      add\n      swap1\n      tag_181\n      swap2\n      swap1\n      tag_87\n      jump\t// in\n    tag_181:\n      tag_182\n      jump\t// in\n    tag_180:\n      stop\n        /* \"@openzeppelin/contracts/token/ERC20/ERC20.sol\":3846:3986  function allowance(address owner, address spender) public view virtual returns (uint256) {... */\n    tag_39:\n      tag_183\n      0x04\n      dup1\n      calldatasize\n      sub\n      dup2\n      add\n      swap1\n      tag_184\n      swap2\n      swap1\n      tag_185\n      jump\t// in\n    tag_184:\n      tag_186\n      jump\t// in\n    tag_183:\n      mload(0x40)\n      tag_187\n      swap2\n      swap1\n      tag_73\n      jump\t// in\n    tag_187:\n      mload(0x40)\n      dup1\n      swap2\n      sub\n      swap1\n      return\n        /* \"src/token.sol\":4308:4661  function disableMint(bool _disableMinting) external {... */\n    tag_40:\n      tag_188\n      0x04\n      dup1\n      calldatasize\n      sub\n      dup2\n      add\n      swap1\n      tag_189\n      swap2\n      swap1\n      tag_68\n      jump\t// in\n    tag_189:\n      tag_190\n      jump\t// in\n    tag_188:\n      stop\n        /* \"src/token.sol\":1137:1191  bytes32 public constant _SUPPLY = keccak256(\"_SUPPLY\") */\n    tag_41:\n      tag_191\n      tag_192\n      jump\t// in\n    tag_191:\n      mload(0x40)\n      tag_193\n      swap2\n      swap1\n      tag_84\n      jump\t// in\n    tag_193:\n      mload(0x40)\n      dup1\n      swap2\n      sub\n      swap1\n      return\n        /* \"src/token.sol\":4899:5247  function disableMintTo(bool _disableMintTo) external {... */\n    tag_42:\n      tag_194\n      0x04\n      dup1\n      calldatasize\n      sub\n      dup2\n      add\n      swap1\n      tag_195\n      swap2\n      swap1\n      tag_68\n      jump\t// in\n    tag_195:\n      tag_196\n      jump\t// in\n    tag_194:\n      stop\n        /* \"src/token.sol\":1378:1398  address public vault */\n    tag_43:\n      tag_197\n      tag_198\n      jump\t// in\n    tag_197:\n      mload(0x40)\n      tag_199\n      swap2\n      swap1\n      tag_200\n      jump\t// in\n    tag_199:\n      mload(0x40)\n      dup1\n      swap2\n      sub\n      swap1\n      return\n        /* \"@openzeppelin/contracts/access/AccessControl.sol\":2565:2767  function supportsInterface(bytes4 interfaceId) public view virtual override returns (bool) {... */\n    tag_54:\n        /* \"@openzeppelin/contracts/access/AccessControl.sol\":2650:2654  bool */\n      0x00\n        /* \"@openzeppelin/contracts/access/AccessControl.sol\":2688:2720  type(IAccessControl).interfaceId */\n      0x7965db0b00000000000000000000000000000000000000000000000000000000\n        /* \"@openzeppelin/contracts/access/AccessControl.sol\":2673:2720  interfaceId == type(IAccessControl).interfaceId */\n      not(0xffffffffffffffffffffffffffffffffffffffffffffffffffffffff)\n      and\n        /* \"@openzeppelin/contracts/access/AccessControl.sol\":2673:2684  interfaceId */\n      dup3\n        /* \"@openzeppelin/contracts/access/AccessControl.sol\":2673:2720  interfaceId == type(IAccessControl).interfaceId */\n      not(0xffffffffffffffffffffffffffffffffffffffffffffffffffffffff)\n      and\n      eq\n        /* \"@openzeppelin/contracts/access/AccessControl.sol\":2673:2760  interfaceId == type(IAccessControl).interfaceId || super.supportsInterface(interfaceId) */\n      dup1\n      tag_202\n      jumpi\n      pop\n        /* \"@openzeppelin/contracts/access/AccessControl.sol\":2724:2760  super.supportsInterface(interfaceId) */\n      tag_203\n        /* \"@openzeppelin/contracts/access/AccessControl.sol\":2748:2759  interfaceId */\n      dup3\n        /* \"@openzeppelin/contracts/access/AccessControl.sol\":2724:2747  super.supportsInterface */\n      tag_204\n        /* \"@openzeppelin/contracts/access/AccessControl.sol\":2724:2760  super.supportsInterface(interfaceId) */\n      jump\t// in\n    tag_203:\n        /* \"@openzeppelin/contracts/access/AccessControl.sol\":2673:2760  interfaceId == type(IAccessControl).interfaceId || super.supportsInterface(interfaceId) */\n    tag_202:\n        /* \"@openzeppelin/contracts/access/AccessControl.sol\":2666:2760  return interfaceId == type(IAccessControl).interfaceId || super.supportsInterface(interfaceId) */\n      swap1\n      pop\n        /* \"@openzeppelin/contracts/access/AccessControl.sol\":2565:2767  function supportsInterface(bytes4 interfaceId) public view virtual override returns (bool) {... */\n      swap2\n      swap1\n      pop\n      jump\t// out\n        /* \"@openzeppelin/contracts/token/ERC20/ERC20.sol\":2074:2163  function name() public view virtual returns (string memory) {... */\n    tag_58:\n        /* \"@openzeppelin/contracts/token/ERC20/ERC20.sol\":2119:2132  string memory */\n      0x60\n        /* \"@openzeppelin/contracts/token/ERC20/ERC20.sol\":2151:2156  _name */\n      0x03\n        /* \"@openzeppelin/contracts/token/ERC20/ERC20.sol\":2144:2156  return _name */\n      dup1\n      sload\n      tag_206\n      swap1\n      tag_207\n      jump\t// in\n    tag_206:\n      dup1\n      0x1f\n      add\n      0x20\n      dup1\n      swap2\n      div\n      mul\n      0x20\n      add\n      mload(0x40)\n      swap1\n      dup2\n      add\n      0x40\n      mstore\n      dup1\n      swap3\n      swap2\n      swap1\n      dup2\n      dup2\n      mstore\n      0x20\n      add\n      dup3\n      dup1\n      sload\n      tag_208\n      swap1\n      tag_207\n      jump\t// in\n    tag_208:\n      dup1\n      iszero\n      tag_209\n      jumpi\n      dup1\n      0x1f\n      lt\n      tag_210\n      jumpi\n      0x0100\n      dup1\n      dup4\n      sload\n      div\n      mul\n      dup4\n      mstore\n      swap2\n      0x20\n      add\n      swap2\n      jump(tag_209)\n    tag_210:\n      dup3\n      add\n      swap2\n      swap1\n      0x00\n      mstore\n      keccak256(0x00, 0x20)\n      swap1\n    tag_211:\n      dup2\n      sload\n      dup2\n      mstore\n      swap1\n      0x01\n      add\n      swap1\n      0x20\n      add\n      dup1\n      dup4\n      gt\n      tag_211\n      jumpi\n      dup3\n      swap1\n      sub\n      0x1f\n      and\n      dup3\n      add\n      swap2\n    tag_209:\n      pop\n      pop\n      pop\n      pop\n      pop\n      swap1\n      pop\n        /* \"@openzeppelin/contracts/token/ERC20/ERC20.sol\":2074:2163  function name() public view virtual returns (string memory) {... */\n      swap1\n      jump\t// out\n        /* \"@openzeppelin/contracts/token/ERC20/ERC20.sol\":4293:4479  function approve(address spender, uint256 value) public virtual returns (bool) {... */\n    tag_64:\n        /* \"@openzeppelin/contracts/token/ERC20/ERC20.sol\":4366:4370  bool */\n      0x00\n        /* \"@openzeppelin/contracts/token/ERC20/ERC20.sol\":4382:4395  address owner */\n      dup1\n        /* \"@openzeppelin/contracts/token/ERC20/ERC20.sol\":4398:4410  _msgSender() */\n      tag_213\n        /* \"@openzeppelin/contracts/token/ERC20/ERC20.sol\":4398:4408  _msgSender */\n      tag_214\n        /* \"@openzeppelin/contracts/token/ERC20/ERC20.sol\":4398:4410  _msgSender() */\n      jump\t// in\n    tag_213:\n        /* \"@openzeppelin/contracts/token/ERC20/ERC20.sol\":4382:4410  address owner = _msgSender() */\n      swap1\n      pop\n        /* \"@openzeppelin/contracts/token/ERC20/ERC20.sol\":4420:4451  _approve(owner, spender, value) */\n      tag_215\n        /* \"@openzeppelin/contracts/token/ERC20/ERC20.sol\":4429:4434  owner */\n      dup2\n        /* \"@openzeppelin/contracts/token/ERC20/ERC20.sol\":4436:4443  spender */\n      dup6\n        /* \"@openzeppelin/contracts/token/ERC20/ERC20.sol\":4445:4450  value */\n      dup6\n        /* \"@openzeppelin/contracts/token/ERC20/ERC20.sol\":4420:4428  _approve */\n      tag_216\n        /* \"@openzeppelin/contracts/token/ERC20/ERC20.sol\":4420:4451  _approve(owner, spender, value) */\n      jump\t// in\n    tag_215:\n        /* \"@openzeppelin/contracts/token/ERC20/ERC20.sol\":4468:4472  true */\n      0x01\n        /* \"@openzeppelin/contracts/token/ERC20/ERC20.sol\":4461:4472  return true */\n      swap2\n      pop\n      pop\n        /* \"@openzeppelin/contracts/token/ERC20/ERC20.sol\":4293:4479  function approve(address spender, uint256 value) public virtual returns (bool) {... */\n      swap3\n      swap2\n      pop\n      pop\n      jump\t// out\n        /* \"src/token.sol\":3794:4116  function setPaused(bool _paused) external {... */\n    tag_69:\n        /* \"src/token.sol\":3854:3883  hasRole(_ADMIN, _msgSender()) */\n      tag_218\n        /* \"src/token.sol\":1230:1249  keccak256(\"_ADMIN\") */\n      0xae6c2fc584631af4c9385b8a55683f1a75c813747e27efef5afece31c6b230d3\n        /* \"src/token.sol\":3870:3882  _msgSender() */\n      tag_219\n        /* \"src/token.sol\":3870:3880  _msgSender */\n      tag_214\n        /* \"src/token.sol\":3870:3882  _msgSender() */\n      jump\t// in\n    tag_219:\n        /* \"src/token.sol\":3854:3861  hasRole */\n      tag_149\n        /* \"src/token.sol\":3854:3883  hasRole(_ADMIN, _msgSender()) */\n      jump\t// in\n    tag_218:\n        /* \"src/token.sol\":3846:3908  require(hasRole(_ADMIN, _msgSender()), \"Contract: Need Admin\") */\n      tag_220\n      jumpi\n      mload(0x40)\n      0x08c379a000000000000000000000000000000000000000000000000000000000\n      dup2\n      mstore\n      0x04\n      add\n      tag_221\n      swap1\n      tag_222\n      jump\t// in\n    tag_221:\n      mload(0x40)\n      dup1\n      swap2\n      sub\n      swap1\n      revert\n    tag_220:\n        /* \"src/token.sol\":3927:3934  _paused */\n      dup1\n        /* \"src/token.sol\":3918:3924  paused */\n      0x0a\n      0x00\n        /* \"src/token.sol\":3918:3934  paused = _paused */\n      0x0100\n      exp\n      dup2\n      sload\n      dup2\n      0xff\n      mul\n      not\n      and\n      swap1\n      dup4\n      iszero\n      iszero\n      mul\n      or\n      swap1\n      sstore\n      pop\n        /* \"src/token.sol\":3949:3956  _paused */\n      dup1\n        /* \"src/token.sol\":3945:4110  if (_paused) {... */\n      iszero\n      tag_223\n      jumpi\n        /* \"src/token.sol\":3977:4019  ContractPaused(block.number, _msgSender()) */\n      0xd8c9c5623123df8e137854c59a08f9084b75609fe24584228d44ffdce5ab920a\n        /* \"src/token.sol\":3992:4004  block.number */\n      number\n        /* \"src/token.sol\":4006:4018  _msgSender() */\n      tag_224\n        /* \"src/token.sol\":4006:4016  _msgSender */\n      tag_214\n        /* \"src/token.sol\":4006:4018  _msgSender() */\n      jump\t// in\n    tag_224:\n        /* \"src/token.sol\":3977:4019  ContractPaused(block.number, _msgSender()) */\n      mload(0x40)\n      tag_225\n      swap3\n      swap2\n      swap1\n      tag_226\n      jump\t// in\n    tag_225:\n      mload(0x40)\n      dup1\n      swap2\n      sub\n      swap1\n      log1\n        /* \"src/token.sol\":3945:4110  if (_paused) {... */\n      jump(tag_227)\n    tag_223:\n        /* \"src/token.sol\":4055:4099  ContractUnpaused(block.number, _msgSender()) */\n      0x1e7a7234ad01ed7353bf129217f5c162773639a6cb22773e84bcd5a2b0ef362e\n        /* \"src/token.sol\":4072:4084  block.number */\n      number\n        /* \"src/token.sol\":4086:4098  _msgSender() */\n      tag_228\n        /* \"src/token.sol\":4086:4096  _msgSender */\n      tag_214\n        /* \"src/token.sol\":4086:4098  _msgSender() */\n      jump\t// in\n    tag_228:\n        /* \"src/token.sol\":4055:4099  ContractUnpaused(block.number, _msgSender()) */\n      mload(0x40)\n      tag_229\n      swap3\n      swap2\n      swap1\n      tag_226\n      jump\t// in\n    tag_229:\n      mload(0x40)\n      dup1\n      swap2\n      sub\n      swap1\n      log1\n        /* \"src/token.sol\":3945:4110  if (_paused) {... */\n    tag_227:\n        /* \"src/token.sol\":3794:4116  function setPaused(bool _paused) external {... */\n      pop\n      jump\t// out\n        /* \"@openzeppelin/contracts/token/ERC20/ERC20.sol\":3144:3241  function totalSupply() public view virtual returns (uint256) {... */\n    tag_71:\n        /* \"@openzeppelin/contracts/token/ERC20/ERC20.sol\":3196:3203  uint256 */\n      0x00\n        /* \"@openzeppelin/contracts/token/ERC20/ERC20.sol\":3222:3234  _totalSupply */\n      sload(0x02)\n        /* \"@openzeppelin/contracts/token/ERC20/ERC20.sol\":3215:3234  return _totalSupply */\n      swap1\n      pop\n        /* \"@openzeppelin/contracts/token/ERC20/ERC20.sol\":3144:3241  function totalSupply() public view virtual returns (uint256) {... */\n      swap1\n      jump\t// out\n        /* \"src/token.sol\":9594:9970  function transferFrom(address from, address to, uint256 value) nonReentrant public virtual override returns (bool) {... */\n    tag_77:\n        /* \"src/token.sol\":9703:9707  bool */\n      0x00\n        /* \"@openzeppelin/contracts/security/ReentrancyGuard.sol\":2261:2282  _nonReentrantBefore() */\n      tag_232\n        /* \"@openzeppelin/contracts/security/ReentrancyGuard.sol\":2261:2280  _nonReentrantBefore */\n      tag_233\n        /* \"@openzeppelin/contracts/security/ReentrancyGuard.sol\":2261:2282  _nonReentrantBefore() */\n      jump\t// in\n    tag_232:\n        /* \"src/token.sol\":9719:9734  address spender */\n      0x00\n        /* \"src/token.sol\":9737:9749  _msgSender() */\n      tag_235\n        /* \"src/token.sol\":9737:9747  _msgSender */\n      tag_214\n        /* \"src/token.sol\":9737:9749  _msgSender() */\n      jump\t// in\n    tag_235:\n        /* \"src/token.sol\":9719:9749  address spender = _msgSender() */\n      swap1\n      pop\n        /* \"src/token.sol\":9763:9781  whitelistedAddress */\n      0x0b\n        /* \"src/token.sol\":9763:9790  whitelistedAddress[spender] */\n      0x00\n        /* \"src/token.sol\":9782:9789  spender */\n      dup3\n        /* \"src/token.sol\":9763:9790  whitelistedAddress[spender] */\n      0xffffffffffffffffffffffffffffffffffffffff\n      and\n      0xffffffffffffffffffffffffffffffffffffffff\n      and\n      dup2\n      mstore\n      0x20\n      add\n      swap1\n      dup2\n      mstore\n      0x20\n      add\n      0x00\n      keccak256\n      0x00\n      swap1\n      sload\n      swap1\n      0x0100\n      exp\n      swap1\n      div\n      0xff\n      and\n        /* \"src/token.sol\":9759:9943  if (whitelistedAddress[spender]) {... */\n      iszero\n      tag_236\n      jumpi\n        /* \"src/token.sol\":9806:9832  _transfer(from, to, value) */\n      tag_237\n        /* \"src/token.sol\":9816:9820  from */\n      dup6\n        /* \"src/token.sol\":9822:9824  to */\n      dup6\n        /* \"src/token.sol\":9826:9831  value */\n      dup6\n        /* \"src/token.sol\":9806:9815  _transfer */\n      tag_238\n        /* \"src/token.sol\":9806:9832  _transfer(from, to, value) */\n      jump\t// in\n    tag_237:\n        /* \"src/token.sol\":9759:9943  if (whitelistedAddress[spender]) {... */\n      jump(tag_239)\n    tag_236:\n        /* \"src/token.sol\":9863:9889  _transfer(from, to, value) */\n      tag_240\n        /* \"src/token.sol\":9873:9877  from */\n      dup6\n        /* \"src/token.sol\":9879:9881  to */\n      dup6\n        /* \"src/token.sol\":9883:9888  value */\n      dup6\n        /* \"src/token.sol\":9863:9872  _transfer */\n      tag_238\n        /* \"src/token.sol\":9863:9889  _transfer(from, to, value) */\n      jump\t// in\n    tag_240:\n        /* \"src/token.sol\":9903:9932  _transfer(from, vault, txFee) */\n      tag_241\n        /* \"src/token.sol\":9913:9917  from */\n      dup6\n        /* \"src/token.sol\":9919:9924  vault */\n      0x08\n      0x00\n      swap1\n      sload\n      swap1\n      0x0100\n      exp\n      swap1\n      div\n      0xffffffffffffffffffffffffffffffffffffffff\n      and\n        /* \"src/token.sol\":9926:9931  txFee */\n      sload(0x09)\n        /* \"src/token.sol\":9903:9912  _transfer */\n      tag_238\n        /* \"src/token.sol\":9903:9932  _transfer(from, vault, txFee) */\n      jump\t// in\n    tag_241:\n        /* \"src/token.sol\":9759:9943  if (whitelistedAddress[spender]) {... */\n    tag_239:\n        /* \"src/token.sol\":9959:9963  true */\n      0x01\n        /* \"src/token.sol\":9952:9963  return true */\n      swap2\n      pop\n      pop\n        /* \"@openzeppelin/contracts/security/ReentrancyGuard.sol\":2303:2323  _nonReentrantAfter() */\n      tag_242\n        /* \"@openzeppelin/contracts/security/ReentrancyGuard.sol\":2303:2321  _nonReentrantAfter */\n      tag_243\n        /* \"@openzeppelin/contracts/security/ReentrancyGuard.sol\":2303:2323  _nonReentrantAfter() */\n      jump\t// in\n    tag_242:\n        /* \"src/token.sol\":9594:9970  function transferFrom(address from, address to, uint256 value) nonReentrant public virtual override returns (bool) {... */\n      swap4\n      swap3\n      pop\n      pop\n      pop\n      jump\t// out\n        /* \"@openzeppelin/contracts/access/AccessControl.sol\":3810:3930  function getRoleAdmin(bytes32 role) public view virtual returns (bytes32) {... */\n    tag_82:\n        /* \"@openzeppelin/contracts/access/AccessControl.sol\":3875:3882  bytes32 */\n      0x00\n        /* \"@openzeppelin/contracts/access/AccessControl.sol\":3901:3907  _roles */\n      0x05\n        /* \"@openzeppelin/contracts/access/AccessControl.sol\":3901:3913  _roles[role] */\n      0x00\n        /* \"@openzeppelin/contracts/access/AccessControl.sol\":3908:3912  role */\n      dup4\n        /* \"@openzeppelin/contracts/access/AccessControl.sol\":3901:3913  _roles[role] */\n      dup2\n      mstore\n      0x20\n      add\n      swap1\n      dup2\n      mstore\n      0x20\n      add\n      0x00\n      keccak256\n        /* \"@openzeppelin/contracts/access/AccessControl.sol\":3901:3923  _roles[role].adminRole */\n      0x01\n      add\n      sload\n        /* \"@openzeppelin/contracts/access/AccessControl.sol\":3894:3923  return _roles[role].adminRole */\n      swap1\n      pop\n        /* \"@openzeppelin/contracts/access/AccessControl.sol\":3810:3930  function getRoleAdmin(bytes32 role) public view virtual returns (bytes32) {... */\n      swap2\n      swap1\n      pop\n      jump\t// out\n        /* \"@openzeppelin/contracts/access/AccessControl.sol\":4226:4362  function grantRole(bytes32 role, address account) public virtual onlyRole(getRoleAdmin(role)) {... */\n    tag_88:\n        /* \"@openzeppelin/contracts/access/AccessControl.sol\":4300:4318  getRoleAdmin(role) */\n      tag_245\n        /* \"@openzeppelin/contracts/access/AccessControl.sol\":4313:4317  role */\n      dup3\n        /* \"@openzeppelin/contracts/access/AccessControl.sol\":4300:4312  getRoleAdmin */\n      tag_82\n        /* \"@openzeppelin/contracts/access/AccessControl.sol\":4300:4318  getRoleAdmin(role) */\n      jump\t// in\n    tag_245:\n        /* \"@openzeppelin/contracts/access/AccessControl.sol\":2464:2480  _checkRole(role) */\n      tag_247\n        /* \"@openzeppelin/contracts/access/AccessControl.sol\":2475:2479  role */\n      dup2\n        /* \"@openzeppelin/contracts/access/AccessControl.sol\":2464:2474  _checkRole */\n      tag_248\n        /* \"@openzeppelin/contracts/access/AccessControl.sol\":2464:2480  _checkRole(role) */\n      jump\t// in\n    tag_247:\n        /* \"@openzeppelin/contracts/access/AccessControl.sol\":4330:4355  _grantRole(role, account) */\n      tag_250\n        /* \"@openzeppelin/contracts/access/AccessControl.sol\":4341:4345  role */\n      dup4\n        /* \"@openzeppelin/contracts/access/AccessControl.sol\":4347:4354  account */\n      dup4\n        /* \"@openzeppelin/contracts/access/AccessControl.sol\":4330:4340  _grantRole */\n      tag_251\n        /* \"@openzeppelin/contracts/access/AccessControl.sol\":4330:4355  _grantRole(role, account) */\n      jump\t// in\n    tag_250:\n      pop\n        /* \"@openzeppelin/contracts/access/AccessControl.sol\":4226:4362  function grantRole(bytes32 role, address account) public virtual onlyRole(getRoleAdmin(role)) {... */\n      pop\n      pop\n      pop\n      jump\t// out\n        /* \"@openzeppelin/contracts/token/ERC20/ERC20.sol\":3002:3084  function decimals() public view virtual returns (uint8) {... */\n    tag_90:\n        /* \"@openzeppelin/contracts/token/ERC20/ERC20.sol\":3051:3056  uint8 */\n      0x00\n        /* \"@openzeppelin/contracts/token/ERC20/ERC20.sol\":3075:3077  18 */\n      0x12\n        /* \"@openzeppelin/contracts/token/ERC20/ERC20.sol\":3068:3077  return 18 */\n      swap1\n      pop\n        /* \"@openzeppelin/contracts/token/ERC20/ERC20.sol\":3002:3084  function decimals() public view virtual returns (uint8) {... */\n      swap1\n      jump\t// out\n        /* \"@openzeppelin/contracts/access/AccessControl.sol\":5328:5573  function renounceRole(bytes32 role, address callerConfirmation) public virtual {... */\n    tag_95:\n        /* \"@openzeppelin/contracts/access/AccessControl.sol\":5443:5455  _msgSender() */\n      tag_254\n        /* \"@openzeppelin/contracts/access/AccessControl.sol\":5443:5453  _msgSender */\n      tag_214\n        /* \"@openzeppelin/contracts/access/AccessControl.sol\":5443:5455  _msgSender() */\n      jump\t// in\n    tag_254:\n        /* \"@openzeppelin/contracts/access/AccessControl.sol\":5421:5455  callerConfirmation != _msgSender() */\n      0xffffffffffffffffffffffffffffffffffffffff\n      and\n        /* \"@openzeppelin/contracts/access/AccessControl.sol\":5421:5439  callerConfirmation */\n      dup2\n        /* \"@openzeppelin/contracts/access/AccessControl.sol\":5421:5455  callerConfirmation != _msgSender() */\n      0xffffffffffffffffffffffffffffffffffffffff\n      and\n      eq\n        /* \"@openzeppelin/contracts/access/AccessControl.sol\":5417:5519  if (callerConfirmation != _msgSender()) {... */\n      tag_255\n      jumpi\n        /* \"@openzeppelin/contracts/access/AccessControl.sol\":5478:5508  AccessControlBadConfirmation() */\n      mload(0x40)\n      0x6697b23200000000000000000000000000000000000000000000000000000000\n      dup2\n      mstore\n      0x04\n      add\n      mload(0x40)\n      dup1\n      swap2\n      sub\n      swap1\n      revert\n        /* \"@openzeppelin/contracts/access/AccessControl.sol\":5417:5519  if (callerConfirmation != _msgSender()) {... */\n    tag_255:\n        /* \"@openzeppelin/contracts/access/AccessControl.sol\":5529:5566  _revokeRole(role, callerConfirmation) */\n      tag_256\n        /* \"@openzeppelin/contracts/access/AccessControl.sol\":5541:5545  role */\n      dup3\n        /* \"@openzeppelin/contracts/access/AccessControl.sol\":5547:5565  callerConfirmation */\n      dup3\n        /* \"@openzeppelin/contracts/access/AccessControl.sol\":5529:5540  _revokeRole */\n      tag_257\n        /* \"@openzeppelin/contracts/access/AccessControl.sol\":5529:5566  _revokeRole(role, callerConfirmation) */\n      jump\t// in\n    tag_256:\n      pop\n        /* \"@openzeppelin/contracts/access/AccessControl.sol\":5328:5573  function renounceRole(bytes32 role, address callerConfirmation) public virtual {... */\n      pop\n      pop\n      jump\t// out\n        /* \"src/token.sol\":11019:11270  function setWhitelistAddress(address _whitelist, bool _status) external {... */\n    tag_99:\n        /* \"src/token.sol\":11109:11136  hasRole(_ADMIN, msg.sender) */\n      tag_259\n        /* \"src/token.sol\":1230:1249  keccak256(\"_ADMIN\") */\n      0xae6c2fc584631af4c9385b8a55683f1a75c813747e27efef5afece31c6b230d3\n        /* \"src/token.sol\":11125:11135  msg.sender */\n      caller\n        /* \"src/token.sol\":11109:11116  hasRole */\n      tag_149\n        /* \"src/token.sol\":11109:11136  hasRole(_ADMIN, msg.sender) */\n      jump\t// in\n    tag_259:\n        /* \"src/token.sol\":11101:11151  require(hasRole(_ADMIN, msg.sender), \"Need Admin\") */\n      tag_260\n      jumpi\n      mload(0x40)\n      0x08c379a000000000000000000000000000000000000000000000000000000000\n      dup2\n      mstore\n      0x04\n      add\n      tag_261\n      swap1\n      tag_262\n      jump\t// in\n    tag_261:\n      mload(0x40)\n      dup1\n      swap2\n      sub\n      swap1\n      revert\n    tag_260:\n        /* \"src/token.sol\":11191:11192  0 */\n      0x00\n        /* \"src/token.sol\":11169:11193  _whitelist != address(0) */\n      0xffffffffffffffffffffffffffffffffffffffff\n      and\n        /* \"src/token.sol\":11169:11179  _whitelist */\n      dup3\n        /* \"src/token.sol\":11169:11193  _whitelist != address(0) */\n      0xffffffffffffffffffffffffffffffffffffffff\n      and\n      sub\n        /* \"src/token.sol\":11161:11213  require(_whitelist != address(0), \"Invalid address\") */\n      tag_263\n      jumpi\n      mload(0x40)\n      0x08c379a000000000000000000000000000000000000000000000000000000000\n      dup2\n      mstore\n      0x04\n      add\n      tag_264\n      swap1\n      tag_265\n      jump\t// in\n    tag_264:\n      mload(0x40)\n      dup1\n      swap2\n      sub\n      swap1\n      revert\n    tag_263:\n        /* \"src/token.sol\":11256:11263  _status */\n      dup1\n        /* \"src/token.sol\":11223:11241  whitelistedAddress */\n      0x0b\n        /* \"src/token.sol\":11223:11253  whitelistedAddress[_whitelist] */\n      0x00\n        /* \"src/token.sol\":11242:11252  _whitelist */\n      dup5\n        /* \"src/token.sol\":11223:11253  whitelistedAddress[_whitelist] */\n      0xffffffffffffffffffffffffffffffffffffffff\n      and\n      0xffffffffffffffffffffffffffffffffffffffff\n      and\n      dup2\n      mstore\n      0x20\n      add\n      swap1\n      dup2\n      mstore\n      0x20\n      add\n      0x00\n      keccak256\n      0x00\n        /* \"src/token.sol\":11223:11263  whitelistedAddress[_whitelist] = _status */\n      0x0100\n      exp\n      dup2\n      sload\n      dup2\n      0xff\n      mul\n      not\n      and\n      swap1\n      dup4\n      iszero\n      iszero\n      mul\n      or\n      swap1\n      sstore\n      pop\n        /* \"src/token.sol\":11019:11270  function setWhitelistAddress(address _whitelist, bool _status) external {... */\n      pop\n      pop\n      jump\t// out\n        /* \"src/token.sol\":11612:11897  function moveERC20(IERC20 _ERC20, address _dest, uint _ERC20Amount) nonReentrant public {... */\n    tag_103:\n        /* \"@openzeppelin/contracts/security/ReentrancyGuard.sol\":2261:2282  _nonReentrantBefore() */\n      tag_267\n        /* \"@openzeppelin/contracts/security/ReentrancyGuard.sol\":2261:2280  _nonReentrantBefore */\n      tag_233\n        /* \"@openzeppelin/contracts/security/ReentrancyGuard.sol\":2261:2282  _nonReentrantBefore() */\n      jump\t// in\n    tag_267:\n        /* \"src/token.sol\":11718:11746  hasRole(_RESCUE, msg.sender) */\n      tag_269\n        /* \"src/token.sol\":1289:1309  keccak256(\"_RESCUE\") */\n      0x508f8f8be8f5dbcb88f4f4500430b8b3684c471ed936f31fea912c78ad46a6b9\n        /* \"src/token.sol\":11735:11745  msg.sender */\n      caller\n        /* \"src/token.sol\":11718:11725  hasRole */\n      tag_149\n        /* \"src/token.sol\":11718:11746  hasRole(_RESCUE, msg.sender) */\n      jump\t// in\n    tag_269:\n        /* \"src/token.sol\":11710:11762  require(hasRole(_RESCUE, msg.sender), \"Need RESCUE\") */\n      tag_270\n      jumpi\n      mload(0x40)\n      0x08c379a000000000000000000000000000000000000000000000000000000000\n      dup2\n      mstore\n      0x04\n      add\n      tag_271\n      swap1\n      tag_272\n      jump\t// in\n    tag_271:\n      mload(0x40)\n      dup1\n      swap2\n      sub\n      swap1\n      revert\n    tag_270:\n        /* \"src/token.sol\":11772:11820  IERC20(_ERC20).safeTransfer(_dest, _ERC20Amount) */\n      tag_273\n        /* \"src/token.sol\":11800:11805  _dest */\n      dup3\n        /* \"src/token.sol\":11807:11819  _ERC20Amount */\n      dup3\n        /* \"src/token.sol\":11779:11785  _ERC20 */\n      dup6\n        /* \"src/token.sol\":11772:11799  IERC20(_ERC20).safeTransfer */\n      0xffffffffffffffffffffffffffffffffffffffff\n      and\n      tag_274\n      swap1\n        /* \"src/token.sol\":11772:11820  IERC20(_ERC20).safeTransfer(_dest, _ERC20Amount) */\n      swap3\n      swap2\n      swap1\n      0xffffffff\n      and\n      jump\t// in\n    tag_273:\n        /* \"src/token.sol\":11835:11890  ERC20Rescued(_ERC20, block.number, _dest, _ERC20Amount) */\n      0x494215f965756bbc8b7f57addd2a0ebdbce467a4999f8320c67adc1771885d7b\n        /* \"src/token.sol\":11848:11854  _ERC20 */\n      dup4\n        /* \"src/token.sol\":11856:11868  block.number */\n      number\n        /* \"src/token.sol\":11870:11875  _dest */\n      dup5\n        /* \"src/token.sol\":11877:11889  _ERC20Amount */\n      dup5\n        /* \"src/token.sol\":11835:11890  ERC20Rescued(_ERC20, block.number, _dest, _ERC20Amount) */\n      mload(0x40)\n      tag_275\n      swap5\n      swap4\n      swap3\n      swap2\n      swap1\n      tag_276\n      jump\t// in\n    tag_275:\n      mload(0x40)\n      dup1\n      swap2\n      sub\n      swap1\n      log1\n        /* \"@openzeppelin/contracts/security/ReentrancyGuard.sol\":2303:2323  _nonReentrantAfter() */\n      tag_277\n        /* \"@openzeppelin/contracts/security/ReentrancyGuard.sol\":2303:2321  _nonReentrantAfter */\n      tag_243\n        /* \"@openzeppelin/contracts/security/ReentrancyGuard.sol\":2303:2323  _nonReentrantAfter() */\n      jump\t// in\n    tag_277:\n        /* \"src/token.sol\":11612:11897  function moveERC20(IERC20 _ERC20, address _dest, uint _ERC20Amount) nonReentrant public {... */\n      pop\n      pop\n      pop\n      jump\t// out\n        /* \"src/token.sol\":7257:7466  function burn(uint _amount) external pause { ... */\n    tag_107:\n        /* \"src/token.sol\":5403:5409  paused */\n      0x0a\n      0x00\n      swap1\n      sload\n      swap1\n      0x0100\n      exp\n      swap1\n      div\n      0xff\n      and\n        /* \"src/token.sol\":5402:5409  !paused */\n      iszero\n        /* \"src/token.sol\":5394:5442  require(!paused, \"Contract: Contract is Paused\") */\n      tag_279\n      jumpi\n      mload(0x40)\n      0x08c379a000000000000000000000000000000000000000000000000000000000\n      dup2\n      mstore\n      0x04\n      add\n      tag_280\n      swap1\n      tag_281\n      jump\t// in\n    tag_280:\n      mload(0x40)\n      dup1\n      swap2\n      sub\n      swap1\n      revert\n    tag_279:\n        /* \"src/token.sol\":7319:7347  hasRole(_BURN, _msgSender()) */\n      tag_283\n        /* \"src/token.sol\":1049:1067  keccak256(\"_BURN\") */\n      0x9edfad36e7d4d9da54b4f78f22bf97cb5b58bb7998294a4288da41c15c647c45\n        /* \"src/token.sol\":7334:7346  _msgSender() */\n      tag_284\n        /* \"src/token.sol\":7334:7344  _msgSender */\n      tag_214\n        /* \"src/token.sol\":7334:7346  _msgSender() */\n      jump\t// in\n    tag_284:\n        /* \"src/token.sol\":7319:7326  hasRole */\n      tag_149\n        /* \"src/token.sol\":7319:7347  hasRole(_BURN, _msgSender()) */\n      jump\t// in\n    tag_283:\n        /* \"src/token.sol\":7311:7371  require(hasRole(_BURN, _msgSender()), \"Contract: Need Burn\") */\n      tag_285\n      jumpi\n      mload(0x40)\n      0x08c379a000000000000000000000000000000000000000000000000000000000\n      dup2\n      mstore\n      0x04\n      add\n      tag_286\n      swap1\n      tag_287\n      jump\t// in\n    tag_286:\n      mload(0x40)\n      dup1\n      swap2\n      sub\n      swap1\n      revert\n    tag_285:\n        /* \"src/token.sol\":7386:7421  TokensBurned(_amount, _msgSender()) */\n      0x63706707d038997d2210eb026bb1339397deab463921538a81bb98e69ee54ca8\n        /* \"src/token.sol\":7399:7406  _amount */\n      dup2\n        /* \"src/token.sol\":7408:7420  _msgSender() */\n      tag_288\n        /* \"src/token.sol\":7408:7418  _msgSender */\n      tag_214\n        /* \"src/token.sol\":7408:7420  _msgSender() */\n      jump\t// in\n    tag_288:\n        /* \"src/token.sol\":7386:7421  TokensBurned(_amount, _msgSender()) */\n      mload(0x40)\n      tag_289\n      swap3\n      swap2\n      swap1\n      tag_226\n      jump\t// in\n    tag_289:\n      mload(0x40)\n      dup1\n      swap2\n      sub\n      swap1\n      log1\n        /* \"src/token.sol\":7431:7459  _burn(_msgSender(), _amount) */\n      tag_290\n        /* \"src/token.sol\":7437:7449  _msgSender() */\n      tag_291\n        /* \"src/token.sol\":7437:7447  _msgSender */\n      tag_214\n        /* \"src/token.sol\":7437:7449  _msgSender() */\n      jump\t// in\n    tag_291:\n        /* \"src/token.sol\":7451:7458  _amount */\n      dup3\n        /* \"src/token.sol\":7431:7436  _burn */\n      tag_292\n        /* \"src/token.sol\":7431:7459  _burn(_msgSender(), _amount) */\n      jump\t// in\n    tag_290:\n        /* \"src/token.sol\":7257:7466  function burn(uint _amount) external pause { ... */\n      pop\n      jump\t// out\n        /* \"src/token.sol\":6202:6505  function mintTo(address _to, uint _amount) external pause mintToDis {... */\n    tag_110:\n        /* \"src/token.sol\":5403:5409  paused */\n      0x0a\n      0x00\n      swap1\n      sload\n      swap1\n      0x0100\n      exp\n      swap1\n      div\n      0xff\n      and\n        /* \"src/token.sol\":5402:5409  !paused */\n      iszero\n        /* \"src/token.sol\":5394:5442  require(!paused, \"Contract: Contract is Paused\") */\n      tag_294\n      jumpi\n      mload(0x40)\n      0x08c379a000000000000000000000000000000000000000000000000000000000\n      dup2\n      mstore\n      0x04\n      add\n      tag_295\n      swap1\n      tag_281\n      jump\t// in\n    tag_295:\n      mload(0x40)\n      dup1\n      swap2\n      sub\n      swap1\n      revert\n    tag_294:\n        /* \"src/token.sol\":5845:5859  mintToDisabled */\n      0x0a\n      0x02\n      swap1\n      sload\n      swap1\n      0x0100\n      exp\n      swap1\n      div\n      0xff\n      and\n        /* \"src/token.sol\":5844:5859  !mintToDisabled */\n      iszero\n        /* \"src/token.sol\":5836:5883  require(!mintToDisabled, \"Minting to disabled\") */\n      tag_297\n      jumpi\n      mload(0x40)\n      0x08c379a000000000000000000000000000000000000000000000000000000000\n      dup2\n      mstore\n      0x04\n      add\n      tag_298\n      swap1\n      tag_299\n      jump\t// in\n    tag_298:\n      mload(0x40)\n      dup1\n      swap2\n      sub\n      swap1\n      revert\n    tag_297:\n        /* \"src/token.sol\":6288:6318  hasRole(_MINTTO, _msgSender()) */\n      tag_301\n        /* \"src/token.sol\":991:1011  keccak256(\"_MINTTO\") */\n      0x7d800f56a05adcb6245df540492a560d0e668aac15ee6c7dd40668064913da33\n        /* \"src/token.sol\":6305:6317  _msgSender() */\n      tag_302\n        /* \"src/token.sol\":6305:6315  _msgSender */\n      tag_214\n        /* \"src/token.sol\":6305:6317  _msgSender() */\n      jump\t// in\n    tag_302:\n        /* \"src/token.sol\":6288:6295  hasRole */\n      tag_149\n        /* \"src/token.sol\":6288:6318  hasRole(_MINTTO, _msgSender()) */\n      jump\t// in\n    tag_301:\n        /* \"src/token.sol\":6280:6343  require(hasRole(_MINTTO, _msgSender()), \"Contract: Need Minto\") */\n      tag_303\n      jumpi\n      mload(0x40)\n      0x08c379a000000000000000000000000000000000000000000000000000000000\n      dup2\n      mstore\n      0x04\n      add\n      tag_304\n      swap1\n      tag_305\n      jump\t// in\n    tag_304:\n      mload(0x40)\n      dup1\n      swap2\n      sub\n      swap1\n      revert\n    tag_303:\n        /* \"src/token.sol\":6388:6392  _cap */\n      sload(0x07)\n        /* \"src/token.sol\":6377:6384  _amount */\n      dup2\n        /* \"src/token.sol\":6361:6374  totalSupply() */\n      tag_306\n        /* \"src/token.sol\":6361:6372  totalSupply */\n      tag_71\n        /* \"src/token.sol\":6361:6374  totalSupply() */\n      jump\t// in\n    tag_306:\n        /* \"src/token.sol\":6361:6384  totalSupply() + _amount */\n      tag_307\n      swap2\n      swap1\n      tag_308\n      jump\t// in\n    tag_307:\n        /* \"src/token.sol\":6361:6392  totalSupply() + _amount <= _cap */\n      gt\n      iszero\n        /* \"src/token.sol\":6353:6426  require(totalSupply() + _amount <= _cap, \"Contract: Supply Cap exceeded\") */\n      tag_309\n      jumpi\n      mload(0x40)\n      0x08c379a000000000000000000000000000000000000000000000000000000000\n      dup2\n      mstore\n      0x04\n      add\n      tag_310\n      swap1\n      tag_311\n      jump\t// in\n    tag_310:\n      mload(0x40)\n      dup1\n      swap2\n      sub\n      swap1\n      revert\n    tag_309:\n        /* \"src/token.sol\":6441:6469  TokensMintedTo(_to, _amount) */\n      0xe98063832b4ff0356868961b75f7f49b096b14ea066c9725301ad197f2f63147\n        /* \"src/token.sol\":6456:6459  _to */\n      dup3\n        /* \"src/token.sol\":6461:6468  _amount */\n      dup3\n        /* \"src/token.sol\":6441:6469  TokensMintedTo(_to, _amount) */\n      mload(0x40)\n      tag_312\n      swap3\n      swap2\n      swap1\n      tag_313\n      jump\t// in\n    tag_312:\n      mload(0x40)\n      dup1\n      swap2\n      sub\n      swap1\n      log1\n        /* \"src/token.sol\":6479:6498  _mint(_to, _amount) */\n      tag_314\n        /* \"src/token.sol\":6485:6488  _to */\n      dup3\n        /* \"src/token.sol\":6490:6497  _amount */\n      dup3\n        /* \"src/token.sol\":6479:6484  _mint */\n      tag_315\n        /* \"src/token.sol\":6479:6498  _mint(_to, _amount) */\n      jump\t// in\n    tag_314:\n        /* \"src/token.sol\":6202:6505  function mintTo(address _to, uint _amount) external pause mintToDis {... */\n      pop\n      pop\n      jump\t// out\n        /* \"src/token.sol\":12167:12415  function ethRescue(address payable _dest, uint _etherAmount) nonReentrant public {... */\n    tag_114:\n        /* \"@openzeppelin/contracts/security/ReentrancyGuard.sol\":2261:2282  _nonReentrantBefore() */\n      tag_317\n        /* \"@openzeppelin/contracts/security/ReentrancyGuard.sol\":2261:2280  _nonReentrantBefore */\n      tag_233\n        /* \"@openzeppelin/contracts/security/ReentrancyGuard.sol\":2261:2282  _nonReentrantBefore() */\n      jump\t// in\n    tag_317:\n        /* \"src/token.sol\":12266:12294  hasRole(_RESCUE, msg.sender) */\n      tag_319\n        /* \"src/token.sol\":1289:1309  keccak256(\"_RESCUE\") */\n      0x508f8f8be8f5dbcb88f4f4500430b8b3684c471ed936f31fea912c78ad46a6b9\n        /* \"src/token.sol\":12283:12293  msg.sender */\n      caller\n        /* \"src/token.sol\":12266:12273  hasRole */\n      tag_149\n        /* \"src/token.sol\":12266:12294  hasRole(_RESCUE, msg.sender) */\n      jump\t// in\n    tag_319:\n        /* \"src/token.sol\":12258:12310  require(hasRole(_RESCUE, msg.sender), \"Need RESCUE\") */\n      tag_320\n      jumpi\n      mload(0x40)\n      0x08c379a000000000000000000000000000000000000000000000000000000000\n      dup2\n      mstore\n      0x04\n      add\n      tag_321\n      swap1\n      tag_272\n      jump\t// in\n    tag_321:\n      mload(0x40)\n      dup1\n      swap2\n      sub\n      swap1\n      revert\n    tag_320:\n        /* \"src/token.sol\":12320:12325  _dest */\n      dup2\n        /* \"src/token.sol\":12320:12334  _dest.transfer */\n      0xffffffffffffffffffffffffffffffffffffffff\n      and\n        /* \"src/token.sol\":12320:12348  _dest.transfer(_etherAmount) */\n      0x08fc\n        /* \"src/token.sol\":12335:12347  _etherAmount */\n      dup3\n        /* \"src/token.sol\":12320:12348  _dest.transfer(_etherAmount) */\n      swap1\n      dup2\n      iszero\n      mul\n      swap1\n      mload(0x40)\n      0x00\n      mload(0x40)\n      dup1\n      dup4\n      sub\n      dup2\n      dup6\n      dup9\n      dup9\n      call\n      swap4\n      pop\n      pop\n      pop\n      pop\n      iszero\n      dup1\n      iszero\n      tag_323\n      jumpi\n      returndatasize\n      0x00\n      dup1\n      returndatacopy\n      revert(0x00, returndatasize)\n    tag_323:\n      pop\n        /* \"src/token.sol\":12363:12408  ETHRescued(_dest, block.number, _etherAmount) */\n      0x3b1c0368c81e47d03164182dc6f9fcf4f5e4b3bd9462d74960d729f73138ce36\n        /* \"src/token.sol\":12374:12379  _dest */\n      dup3\n        /* \"src/token.sol\":12381:12393  block.number */\n      number\n        /* \"src/token.sol\":12395:12407  _etherAmount */\n      dup4\n        /* \"src/token.sol\":12363:12408  ETHRescued(_dest, block.number, _etherAmount) */\n      mload(0x40)\n      tag_324\n      swap4\n      swap3\n      swap2\n      swap1\n      tag_325\n      jump\t// in\n    tag_324:\n      mload(0x40)\n      dup1\n      swap2\n      sub\n      swap1\n      log1\n        /* \"@openzeppelin/contracts/security/ReentrancyGuard.sol\":2303:2323  _nonReentrantAfter() */\n      tag_326\n        /* \"@openzeppelin/contracts/security/ReentrancyGuard.sol\":2303:2321  _nonReentrantAfter */\n      tag_243\n        /* \"@openzeppelin/contracts/security/ReentrancyGuard.sol\":2303:2323  _nonReentrantAfter() */\n      jump\t// in\n    tag_326:\n        /* \"src/token.sol\":12167:12415  function ethRescue(address payable _dest, uint _etherAmount) nonReentrant public {... */\n      pop\n      pop\n      jump\t// out\n        /* \"src/token.sol\":1197:1249  bytes32 public constant _ADMIN = keccak256(\"_ADMIN\") */\n    tag_116:\n        /* \"src/token.sol\":1230:1249  keccak256(\"_ADMIN\") */\n      0xae6c2fc584631af4c9385b8a55683f1a75c813747e27efef5afece31c6b230d3\n        /* \"src/token.sol\":1197:1249  bytes32 public constant _ADMIN = keccak256(\"_ADMIN\") */\n      dup2\n      jump\t// out\n        /* \"src/token.sol\":1017:1067  bytes32 public constant _BURN = keccak256(\"_BURN\") */\n    tag_119:\n        /* \"src/token.sol\":1049:1067  keccak256(\"_BURN\") */\n      0x9edfad36e7d4d9da54b4f78f22bf97cb5b58bb7998294a4288da41c15c647c45\n        /* \"src/token.sol\":1017:1067  bytes32 public constant _BURN = keccak256(\"_BURN\") */\n      dup2\n      jump\t// out\n        /* \"src/token.sol\":1522:1540  bool public paused */\n    tag_122:\n      0x0a\n      0x00\n      swap1\n      sload\n      swap1\n      0x0100\n      exp\n      swap1\n      div\n      0xff\n      and\n      dup2\n      jump\t// out\n        /* \"src/token.sol\":1073:1131  bytes32 public constant _BURNFROM = keccak256(\"_BURNFROM\") */\n    tag_125:\n        /* \"src/token.sol\":1109:1131  keccak256(\"_BURNFROM\") */\n      0xc8a3befa5973ff6e159afc769978d92f26bae29c51a73d11c9112a05b68d25e6\n        /* \"src/token.sol\":1073:1131  bytes32 public constant _BURNFROM = keccak256(\"_BURNFROM\") */\n      dup2\n      jump\t// out\n        /* \"@openzeppelin/contracts/token/ERC20/ERC20.sol\":3299:3415  function balanceOf(address account) public view virtual returns (uint256) {... */\n    tag_130:\n        /* \"@openzeppelin/contracts/token/ERC20/ERC20.sol\":3364:3371  uint256 */\n      0x00\n        /* \"@openzeppelin/contracts/token/ERC20/ERC20.sol\":3390:3399  _balances */\n      dup1\n        /* \"@openzeppelin/contracts/token/ERC20/ERC20.sol\":3390:3408  _balances[account] */\n      0x00\n        /* \"@openzeppelin/contracts/token/ERC20/ERC20.sol\":3400:3407  account */\n      dup4\n        /* \"@openzeppelin/contracts/token/ERC20/ERC20.sol\":3390:3408  _balances[account] */\n      0xffffffffffffffffffffffffffffffffffffffff\n      and\n      0xffffffffffffffffffffffffffffffffffffffff\n      and\n      dup2\n      mstore\n      0x20\n      add\n      swap1\n      dup2\n      mstore\n      0x20\n      add\n      0x00\n      keccak256\n      sload\n        /* \"@openzeppelin/contracts/token/ERC20/ERC20.sol\":3383:3408  return _balances[account] */\n      swap1\n      pop\n        /* \"@openzeppelin/contracts/token/ERC20/ERC20.sol\":3299:3415  function balanceOf(address account) public view virtual returns (uint256) {... */\n      swap2\n      swap1\n      pop\n      jump\t// out\n        /* \"src/token.sol\":7753:7992  function burnFrom(address _from, uint _amount) external pause {... */\n    tag_134:\n        /* \"src/token.sol\":5403:5409  paused */\n      0x0a\n      0x00\n      swap1\n      sload\n      swap1\n      0x0100\n      exp\n      swap1\n      div\n      0xff\n      and\n        /* \"src/token.sol\":5402:5409  !paused */\n      iszero\n        /* \"src/token.sol\":5394:5442  require(!paused, \"Contract: Contract is Paused\") */\n      tag_329\n      jumpi\n      mload(0x40)\n      0x08c379a000000000000000000000000000000000000000000000000000000000\n      dup2\n      mstore\n      0x04\n      add\n      tag_330\n      swap1\n      tag_281\n      jump\t// in\n    tag_330:\n      mload(0x40)\n      dup1\n      swap2\n      sub\n      swap1\n      revert\n    tag_329:\n        /* \"src/token.sol\":7833:7865  hasRole(_BURNFROM, _msgSender()) */\n      tag_332\n        /* \"src/token.sol\":1109:1131  keccak256(\"_BURNFROM\") */\n      0xc8a3befa5973ff6e159afc769978d92f26bae29c51a73d11c9112a05b68d25e6\n        /* \"src/token.sol\":7852:7864  _msgSender() */\n      tag_333\n        /* \"src/token.sol\":7852:7862  _msgSender */\n      tag_214\n        /* \"src/token.sol\":7852:7864  _msgSender() */\n      jump\t// in\n    tag_333:\n        /* \"src/token.sol\":7833:7840  hasRole */\n      tag_149\n        /* \"src/token.sol\":7833:7865  hasRole(_BURNFROM, _msgSender()) */\n      jump\t// in\n    tag_332:\n        /* \"src/token.sol\":7825:7893  require(hasRole(_BURNFROM, _msgSender()), \"Contract: Need Burnfrom\") */\n      tag_334\n      jumpi\n      mload(0x40)\n      0x08c379a000000000000000000000000000000000000000000000000000000000\n      dup2\n      mstore\n      0x04\n      add\n      tag_335\n      swap1\n      tag_336\n      jump\t// in\n    tag_335:\n      mload(0x40)\n      dup1\n      swap2\n      sub\n      swap1\n      revert\n    tag_334:\n        /* \"src/token.sol\":7908:7954  TokensBurnedFrom(_from, _amount, _msgSender()) */\n      0xe419ce2aab145a1feaf5893bb6a9478f9282415bbd81c76d5cfff2d4f13431dd\n        /* \"src/token.sol\":7925:7930  _from */\n      dup3\n        /* \"src/token.sol\":7932:7939  _amount */\n      dup3\n        /* \"src/token.sol\":7941:7953  _msgSender() */\n      tag_337\n        /* \"src/token.sol\":7941:7951  _msgSender */\n      tag_214\n        /* \"src/token.sol\":7941:7953  _msgSender() */\n      jump\t// in\n    tag_337:\n        /* \"src/token.sol\":7908:7954  TokensBurnedFrom(_from, _amount, _msgSender()) */\n      mload(0x40)\n      tag_338\n      swap4\n      swap3\n      swap2\n      swap1\n      tag_339\n      jump\t// in\n    tag_338:\n      mload(0x40)\n      dup1\n      swap2\n      sub\n      swap1\n      log1\n        /* \"src/token.sol\":7964:7985  _burn(_from, _amount) */\n      tag_340\n        /* \"src/token.sol\":7970:7975  _from */\n      dup3\n        /* \"src/token.sol\":7977:7984  _amount */\n      dup3\n        /* \"src/token.sol\":7964:7969  _burn */\n      tag_292\n        /* \"src/token.sol\":7964:7985  _burn(_from, _amount) */\n      jump\t// in\n    tag_340:\n        /* \"src/token.sol\":7753:7992  function burnFrom(address _from, uint _amount) external pause {... */\n      pop\n      pop\n      jump\t// out\n        /* \"src/token.sol\":957:1011  bytes32 public constant _MINTTO = keccak256(\"_MINTTO\") */\n    tag_136:\n        /* \"src/token.sol\":991:1011  keccak256(\"_MINTTO\") */\n      0x7d800f56a05adcb6245df540492a560d0e668aac15ee6c7dd40668064913da33\n        /* \"src/token.sol\":957:1011  bytes32 public constant _MINTTO = keccak256(\"_MINTTO\") */\n      dup2\n      jump\t// out\n        /* \"src/token.sol\":1255:1309  bytes32 public constant _RESCUE = keccak256(\"_RESCUE\") */\n    tag_139:\n        /* \"src/token.sol\":1289:1309  keccak256(\"_RESCUE\") */\n      0x508f8f8be8f5dbcb88f4f4500430b8b3684c471ed936f31fea912c78ad46a6b9\n        /* \"src/token.sol\":1255:1309  bytes32 public constant _RESCUE = keccak256(\"_RESCUE\") */\n      dup2\n      jump\t// out\n        /* \"src/token.sol\":901:951  bytes32 public constant _MINT = keccak256(\"_MINT\") */\n    tag_142:\n        /* \"src/token.sol\":933:951  keccak256(\"_MINT\") */\n      0x8c66330d9d4f6aba064f25ef2a307366ea6d917616f44c075aa60fa15e5cb1cb\n        /* \"src/token.sol\":901:951  bytes32 public constant _MINT = keccak256(\"_MINT\") */\n      dup2\n      jump\t// out\n        /* \"src/token.sol\":8620:8696  function supplyCap() public view returns (uint) {... */\n    tag_145:\n        /* \"src/token.sol\":8662:8666  uint */\n      0x00\n        /* \"src/token.sol\":8685:8689  _cap */\n      sload(0x07)\n        /* \"src/token.sol\":8678:8689  return _cap */\n      swap1\n      pop\n        /* \"src/token.sol\":8620:8696  function supplyCap() public view returns (uint) {... */\n      swap1\n      jump\t// out\n        /* \"@openzeppelin/contracts/access/AccessControl.sol\":2854:2990  function hasRole(bytes32 role, address account) public view virtual returns (bool) {... */\n    tag_149:\n        /* \"@openzeppelin/contracts/access/AccessControl.sol\":2931:2935  bool */\n      0x00\n        /* \"@openzeppelin/contracts/access/AccessControl.sol\":2954:2960  _roles */\n      0x05\n        /* \"@openzeppelin/contracts/access/AccessControl.sol\":2954:2966  _roles[role] */\n      0x00\n        /* \"@openzeppelin/contracts/access/AccessControl.sol\":2961:2965  role */\n      dup5\n        /* \"@openzeppelin/contracts/access/AccessControl.sol\":2954:2966  _roles[role] */\n      dup2\n      mstore\n      0x20\n      add\n      swap1\n      dup2\n      mstore\n      0x20\n      add\n      0x00\n      keccak256\n        /* \"@openzeppelin/contracts/access/AccessControl.sol\":2954:2974  _roles[role].hasRole */\n      0x00\n      add\n        /* \"@openzeppelin/contracts/access/AccessControl.sol\":2954:2983  _roles[role].hasRole[account] */\n      0x00\n        /* \"@openzeppelin/contracts/access/AccessControl.sol\":2975:2982  account */\n      dup4\n        /* \"@openzeppelin/contracts/access/AccessControl.sol\":2954:2983  _roles[role].hasRole[account] */\n      0xffffffffffffffffffffffffffffffffffffffff\n      and\n      0xffffffffffffffffffffffffffffffffffffffff\n      and\n      dup2\n      mstore\n      0x20\n      add\n      swap1\n      dup2\n      mstore\n      0x20\n      add\n      0x00\n      keccak256\n      0x00\n      swap1\n      sload\n      swap1\n      0x0100\n      exp\n      swap1\n      div\n      0xff\n      and\n        /* \"@openzeppelin/contracts/access/AccessControl.sol\":2947:2983  return _roles[role].hasRole[account] */\n      swap1\n      pop\n        /* \"@openzeppelin/contracts/access/AccessControl.sol\":2854:2990  function hasRole(bytes32 role, address account) public view virtual returns (bool) {... */\n      swap3\n      swap2\n      pop\n      pop\n      jump\t// out\n        /* \"src/token.sol\":1589:1613  bool public mintDisabled */\n    tag_152:\n      0x0a\n      0x01\n      swap1\n      sload\n      swap1\n      0x0100\n      exp\n      swap1\n      div\n      0xff\n      and\n      dup2\n      jump\t// out\n        /* \"@openzeppelin/contracts/token/ERC20/ERC20.sol\":2276:2369  function symbol() public view virtual returns (string memory) {... */\n    tag_155:\n        /* \"@openzeppelin/contracts/token/ERC20/ERC20.sol\":2323:2336  string memory */\n      0x60\n        /* \"@openzeppelin/contracts/token/ERC20/ERC20.sol\":2355:2362  _symbol */\n      0x04\n        /* \"@openzeppelin/contracts/token/ERC20/ERC20.sol\":2348:2362  return _symbol */\n      dup1\n      sload\n      tag_344\n      swap1\n      tag_207\n      jump\t// in\n    tag_344:\n      dup1\n      0x1f\n      add\n      0x20\n      dup1\n      swap2\n      div\n      mul\n      0x20\n      add\n      mload(0x40)\n      swap1\n      dup2\n      add\n      0x40\n      mstore\n      dup1\n      swap3\n      swap2\n      swap1\n      dup2\n      dup2\n      mstore\n      0x20\n      add\n      dup3\n      dup1\n      sload\n      tag_345\n      swap1\n      tag_207\n      jump\t// in\n    tag_345:\n      dup1\n      iszero\n      tag_346\n      jumpi\n      dup1\n      0x1f\n      lt\n      tag_347\n      jumpi\n      0x0100\n      dup1\n      dup4\n      sload\n      div\n      mul\n      dup4\n      mstore\n      swap2\n      0x20\n      add\n      swap2\n      jump(tag_346)\n    tag_347:\n      dup3\n      add\n      swap2\n      swap1\n      0x00\n      mstore\n      keccak256(0x00, 0x20)\n      swap1\n    tag_348:\n      dup2\n      sload\n      dup2\n      mstore\n      swap1\n      0x01\n      add\n      swap1\n      0x20\n      add\n      dup1\n      dup4\n      gt\n      tag_348\n      jumpi\n      dup3\n      swap1\n      sub\n      0x1f\n      and\n      dup3\n      add\n      swap2\n    tag_346:\n      pop\n      pop\n      pop\n      pop\n      pop\n      swap1\n      pop\n        /* \"@openzeppelin/contracts/token/ERC20/ERC20.sol\":2276:2369  function symbol() public view virtual returns (string memory) {... */\n      swap1\n      jump\t// out\n        /* \"src/token.sol\":6740:7025  function mint(uint _amount) external pause mintDis {... */\n    tag_159:\n        /* \"src/token.sol\":5403:5409  paused */\n      0x0a\n      0x00\n      swap1\n      sload\n      swap1\n      0x0100\n      exp\n      swap1\n      div\n      0xff\n      and\n        /* \"src/token.sol\":5402:5409  !paused */\n      iszero\n        /* \"src/token.sol\":5394:5442  require(!paused, \"Contract: Contract is Paused\") */\n      tag_350\n      jumpi\n      mload(0x40)\n      0x08c379a000000000000000000000000000000000000000000000000000000000\n      dup2\n      mstore\n      0x04\n      add\n      tag_351\n      swap1\n      tag_281\n      jump\t// in\n    tag_351:\n      mload(0x40)\n      dup1\n      swap2\n      sub\n      swap1\n      revert\n    tag_350:\n        /* \"src/token.sol\":5615:5627  mintDisabled */\n      0x0a\n      0x01\n      swap1\n      sload\n      swap1\n      0x0100\n      exp\n      swap1\n      div\n      0xff\n      and\n        /* \"src/token.sol\":5614:5627  !mintDisabled */\n      iszero\n        /* \"src/token.sol\":5606:5648  require(!mintDisabled, \"Minting disabled\") */\n      tag_353\n      jumpi\n      mload(0x40)\n      0x08c379a000000000000000000000000000000000000000000000000000000000\n      dup2\n      mstore\n      0x04\n      add\n      tag_354\n      swap1\n      tag_355\n      jump\t// in\n    tag_354:\n      mload(0x40)\n      dup1\n      swap2\n      sub\n      swap1\n      revert\n    tag_353:\n        /* \"src/token.sol\":6809:6837  hasRole(_MINT, _msgSender()) */\n      tag_357\n        /* \"src/token.sol\":933:951  keccak256(\"_MINT\") */\n      0x8c66330d9d4f6aba064f25ef2a307366ea6d917616f44c075aa60fa15e5cb1cb\n        /* \"src/token.sol\":6824:6836  _msgSender() */\n      tag_358\n        /* \"src/token.sol\":6824:6834  _msgSender */\n      tag_214\n        /* \"src/token.sol\":6824:6836  _msgSender() */\n      jump\t// in\n    tag_358:\n        /* \"src/token.sol\":6809:6816  hasRole */\n      tag_149\n        /* \"src/token.sol\":6809:6837  hasRole(_MINT, _msgSender()) */\n      jump\t// in\n    tag_357:\n        /* \"src/token.sol\":6801:6861  require(hasRole(_MINT, _msgSender()), \"Contract: Need Mint\") */\n      tag_359\n      jumpi\n      mload(0x40)\n      0x08c379a000000000000000000000000000000000000000000000000000000000\n      dup2\n      mstore\n      0x04\n      add\n      tag_360\n      swap1\n      tag_361\n      jump\t// in\n    tag_360:\n      mload(0x40)\n      dup1\n      swap2\n      sub\n      swap1\n      revert\n    tag_359:\n        /* \"src/token.sol\":6906:6910  _cap */\n      sload(0x07)\n        /* \"src/token.sol\":6895:6902  _amount */\n      dup2\n        /* \"src/token.sol\":6879:6892  totalSupply() */\n      tag_362\n        /* \"src/token.sol\":6879:6890  totalSupply */\n      tag_71\n        /* \"src/token.sol\":6879:6892  totalSupply() */\n      jump\t// in\n    tag_362:\n        /* \"src/token.sol\":6879:6902  totalSupply() + _amount */\n      tag_363\n      swap2\n      swap1\n      tag_308\n      jump\t// in\n    tag_363:\n        /* \"src/token.sol\":6879:6910  totalSupply() + _amount <= _cap */\n      gt\n      iszero\n        /* \"src/token.sol\":6871:6944  require(totalSupply() + _amount <= _cap, \"Contract: Supply Cap exceeded\") */\n      tag_364\n      jumpi\n      mload(0x40)\n      0x08c379a000000000000000000000000000000000000000000000000000000000\n      dup2\n      mstore\n      0x04\n      add\n      tag_365\n      swap1\n      tag_311\n      jump\t// in\n    tag_365:\n      mload(0x40)\n      dup1\n      swap2\n      sub\n      swap1\n      revert\n    tag_364:\n        /* \"src/token.sol\":6959:6980  TokensMinted(_amount) */\n      0x772f66a00a405709c30e7f18feadcc8f123b20c09c7260165d3eec36c9f21372\n        /* \"src/token.sol\":6972:6979  _amount */\n      dup2\n        /* \"src/token.sol\":6959:6980  TokensMinted(_amount) */\n      mload(0x40)\n      tag_366\n      swap2\n      swap1\n      tag_73\n      jump\t// in\n    tag_366:\n      mload(0x40)\n      dup1\n      swap2\n      sub\n      swap1\n      log1\n        /* \"src/token.sol\":6990:7018  _mint(_msgSender(), _amount) */\n      tag_367\n        /* \"src/token.sol\":6996:7008  _msgSender() */\n      tag_368\n        /* \"src/token.sol\":6996:7006  _msgSender */\n      tag_214\n        /* \"src/token.sol\":6996:7008  _msgSender() */\n      jump\t// in\n    tag_368:\n        /* \"src/token.sol\":7010:7017  _amount */\n      dup3\n        /* \"src/token.sol\":6990:6995  _mint */\n      tag_315\n        /* \"src/token.sol\":6990:7018  _mint(_msgSender(), _amount) */\n      jump\t// in\n    tag_367:\n        /* \"src/token.sol\":6740:7025  function mint(uint _amount) external pause mintDis {... */\n      pop\n      jump\t// out\n        /* \"@openzeppelin/contracts/access/AccessControl.sol\":2187:2236  bytes32 public constant DEFAULT_ADMIN_ROLE = 0x00 */\n    tag_161:\n        /* \"@openzeppelin/contracts/access/AccessControl.sol\":2232:2236  0x00 */\n      0x00\n        /* \"@openzeppelin/contracts/access/AccessControl.sol\":2187:2236  bytes32 public constant DEFAULT_ADMIN_ROLE = 0x00 */\n      dup1\n      shl\n      dup2\n      jump\t// out\n        /* \"src/token.sol\":10284:10641  function transfer(address to, uint256 value) nonReentrant public virtual override returns (bool) {... */\n    tag_165:\n        /* \"src/token.sol\":10375:10379  bool */\n      0x00\n        /* \"@openzeppelin/contracts/security/ReentrancyGuard.sol\":2261:2282  _nonReentrantBefore() */\n      tag_370\n        /* \"@openzeppelin/contracts/security/ReentrancyGuard.sol\":2261:2280  _nonReentrantBefore */\n      tag_233\n        /* \"@openzeppelin/contracts/security/ReentrancyGuard.sol\":2261:2282  _nonReentrantBefore() */\n      jump\t// in\n    tag_370:\n        /* \"src/token.sol\":10391:10404  address owner */\n      0x00\n        /* \"src/token.sol\":10407:10419  _msgSender() */\n      tag_372\n        /* \"src/token.sol\":10407:10417  _msgSender */\n      tag_214\n        /* \"src/token.sol\":10407:10419  _msgSender() */\n      jump\t// in\n    tag_372:\n        /* \"src/token.sol\":10391:10419  address owner = _msgSender() */\n      swap1\n      pop\n        /* \"src/token.sol\":10433:10451  whitelistedAddress */\n      0x0b\n        /* \"src/token.sol\":10433:10458  whitelistedAddress[owner] */\n      0x00\n        /* \"src/token.sol\":10452:10457  owner */\n      dup3\n        /* \"src/token.sol\":10433:10458  whitelistedAddress[owner] */\n      0xffffffffffffffffffffffffffffffffffffffff\n      and\n      0xffffffffffffffffffffffffffffffffffffffff\n      and\n      dup2\n      mstore\n      0x20\n      add\n      swap1\n      dup2\n      mstore\n      0x20\n      add\n      0x00\n      keccak256\n      0x00\n      swap1\n      sload\n      swap1\n      0x0100\n      exp\n      swap1\n      div\n      0xff\n      and\n        /* \"src/token.sol\":10429:10614  if (whitelistedAddress[owner]) {... */\n      iszero\n      tag_373\n      jumpi\n        /* \"src/token.sol\":10474:10501  _transfer(owner, to, value) */\n      tag_374\n        /* \"src/token.sol\":10484:10489  owner */\n      dup2\n        /* \"src/token.sol\":10491:10493  to */\n      dup6\n        /* \"src/token.sol\":10495:10500  value */\n      dup6\n        /* \"src/token.sol\":10474:10483  _transfer */\n      tag_238\n        /* \"src/token.sol\":10474:10501  _transfer(owner, to, value) */\n      jump\t// in\n    tag_374:\n        /* \"src/token.sol\":10429:10614  if (whitelistedAddress[owner]) {... */\n      jump(tag_375)\n    tag_373:\n        /* \"src/token.sol\":10532:10559  _transfer(owner, to, value) */\n      tag_376\n        /* \"src/token.sol\":10542:10547  owner */\n      dup2\n        /* \"src/token.sol\":10549:10551  to */\n      dup6\n        /* \"src/token.sol\":10553:10558  value */\n      dup6\n        /* \"src/token.sol\":10532:10541  _transfer */\n      tag_238\n        /* \"src/token.sol\":10532:10559  _transfer(owner, to, value) */\n      jump\t// in\n    tag_376:\n        /* \"src/token.sol\":10573:10603  _transfer(owner, vault, txFee) */\n      tag_377\n        /* \"src/token.sol\":10583:10588  owner */\n      dup2\n        /* \"src/token.sol\":10590:10595  vault */\n      0x08\n      0x00\n      swap1\n      sload\n      swap1\n      0x0100\n      exp\n      swap1\n      div\n      0xffffffffffffffffffffffffffffffffffffffff\n      and\n        /* \"src/token.sol\":10597:10602  txFee */\n      sload(0x09)\n        /* \"src/token.sol\":10573:10582  _transfer */\n      tag_238\n        /* \"src/token.sol\":10573:10603  _transfer(owner, vault, txFee) */\n      jump\t// in\n    tag_377:\n        /* \"src/token.sol\":10429:10614  if (whitelistedAddress[owner]) {... */\n    tag_375:\n        /* \"src/token.sol\":10630:10634  true */\n      0x01\n        /* \"src/token.sol\":10623:10634  return true */\n      swap2\n      pop\n      pop\n        /* \"@openzeppelin/contracts/security/ReentrancyGuard.sol\":2303:2323  _nonReentrantAfter() */\n      tag_378\n        /* \"@openzeppelin/contracts/security/ReentrancyGuard.sol\":2303:2321  _nonReentrantAfter */\n      tag_243\n        /* \"@openzeppelin/contracts/security/ReentrancyGuard.sol\":2303:2323  _nonReentrantAfter() */\n      jump\t// in\n    tag_378:\n        /* \"src/token.sol\":10284:10641  function transfer(address to, uint256 value) nonReentrant public virtual override returns (bool) {... */\n      swap3\n      swap2\n      pop\n      pop\n      jump\t// out\n        /* \"src/token.sol\":8216:8503  function setSupplyCap(uint _supplyCap) external pause {... */\n    tag_169:\n        /* \"src/token.sol\":5403:5409  paused */\n      0x0a\n      0x00\n      swap1\n      sload\n      swap1\n      0x0100\n      exp\n      swap1\n      div\n      0xff\n      and\n        /* \"src/token.sol\":5402:5409  !paused */\n      iszero\n        /* \"src/token.sol\":5394:5442  require(!paused, \"Contract: Contract is Paused\") */\n      tag_380\n      jumpi\n      mload(0x40)\n      0x08c379a000000000000000000000000000000000000000000000000000000000\n      dup2\n      mstore\n      0x04\n      add\n      tag_381\n      swap1\n      tag_281\n      jump\t// in\n    tag_381:\n      mload(0x40)\n      dup1\n      swap2\n      sub\n      swap1\n      revert\n    tag_380:\n        /* \"src/token.sol\":8288:8318  hasRole(_SUPPLY, _msgSender()) */\n      tag_383\n        /* \"src/token.sol\":1171:1191  keccak256(\"_SUPPLY\") */\n      0xea4defabeb90fa1e79f929d6c8d482fee8a115926a592b79634d39a67cce3b62\n        /* \"src/token.sol\":8305:8317  _msgSender() */\n      tag_384\n        /* \"src/token.sol\":8305:8315  _msgSender */\n      tag_214\n        /* \"src/token.sol\":8305:8317  _msgSender() */\n      jump\t// in\n    tag_384:\n        /* \"src/token.sol\":8288:8295  hasRole */\n      tag_149\n        /* \"src/token.sol\":8288:8318  hasRole(_SUPPLY, _msgSender()) */\n      jump\t// in\n    tag_383:\n        /* \"src/token.sol\":8280:8334  require(hasRole(_SUPPLY, _msgSender()), \"Need Supply\") */\n      tag_385\n      jumpi\n      mload(0x40)\n      0x08c379a000000000000000000000000000000000000000000000000000000000\n      dup2\n      mstore\n      0x04\n      add\n      tag_386\n      swap1\n      tag_387\n      jump\t// in\n    tag_386:\n      mload(0x40)\n      dup1\n      swap2\n      sub\n      swap1\n      revert\n    tag_385:\n        /* \"src/token.sol\":8366:8379  totalSupply() */\n      tag_388\n        /* \"src/token.sol\":8366:8377  totalSupply */\n      tag_71\n        /* \"src/token.sol\":8366:8379  totalSupply() */\n      jump\t// in\n    tag_388:\n        /* \"src/token.sol\":8352:8362  _supplyCap */\n      dup2\n        /* \"src/token.sol\":8352:8379  _supplyCap >= totalSupply() */\n      lt\n      iszero\n        /* \"src/token.sol\":8344:8412  require(_supplyCap >= totalSupply(), \"Contract: Supply Cap too low\") */\n      tag_389\n      jumpi\n      mload(0x40)\n      0x08c379a000000000000000000000000000000000000000000000000000000000\n      dup2\n      mstore\n      0x04\n      add\n      tag_390\n      swap1\n      tag_391\n      jump\t// in\n    tag_390:\n      mload(0x40)\n      dup1\n      swap2\n      sub\n      swap1\n      revert\n    tag_389:\n        /* \"src/token.sol\":8429:8439  _supplyCap */\n      dup1\n        /* \"src/token.sol\":8422:8426  _cap */\n      0x07\n        /* \"src/token.sol\":8422:8439  _cap = _supplyCap */\n      dup2\n      swap1\n      sstore\n      pop\n        /* \"src/token.sol\":8454:8496  SupplyCapChanged(_supplyCap, _msgSender()) */\n      0xa11cbdeb4d62442fae7c8ec6286585b17c47acb7b17bbcab1beadce84befa300\n        /* \"src/token.sol\":8471:8481  _supplyCap */\n      dup2\n        /* \"src/token.sol\":8483:8495  _msgSender() */\n      tag_392\n        /* \"src/token.sol\":8483:8493  _msgSender */\n      tag_214\n        /* \"src/token.sol\":8483:8495  _msgSender() */\n      jump\t// in\n    tag_392:\n        /* \"src/token.sol\":8454:8496  SupplyCapChanged(_supplyCap, _msgSender()) */\n      mload(0x40)\n      tag_393\n      swap3\n      swap2\n      swap1\n      tag_226\n      jump\t// in\n    tag_393:\n      mload(0x40)\n      dup1\n      swap2\n      sub\n      swap1\n      log1\n        /* \"src/token.sol\":8216:8503  function setSupplyCap(uint _supplyCap) external pause {... */\n      pop\n      jump\t// out\n        /* \"src/token.sol\":2625:2675  mapping(address => bool) public whitelistedAddress */\n    tag_172:\n      mstore(0x20, 0x0b)\n      dup1\n      0x00\n      mstore\n      keccak256(0x00, 0x40)\n      0x00\n      swap2\n      pop\n      sload\n      swap1\n      0x0100\n      exp\n      swap1\n      div\n      0xff\n      and\n      dup2\n      jump\t// out\n        /* \"src/token.sol\":1447:1478  uint public txFee = 0.005 ether */\n    tag_175:\n      sload(0x09)\n      dup2\n      jump\t// out\n        /* \"src/token.sol\":1646:1672  bool public mintToDisabled */\n    tag_178:\n      0x0a\n      0x02\n      swap1\n      sload\n      swap1\n      0x0100\n      exp\n      swap1\n      div\n      0xff\n      and\n      dup2\n      jump\t// out\n        /* \"@openzeppelin/contracts/access/AccessControl.sol\":4642:4780  function revokeRole(bytes32 role, address account) public virtual onlyRole(getRoleAdmin(role)) {... */\n    tag_182:\n        /* \"@openzeppelin/contracts/access/AccessControl.sol\":4717:4735  getRoleAdmin(role) */\n      tag_394\n        /* \"@openzeppelin/contracts/access/AccessControl.sol\":4730:4734  role */\n      dup3\n        /* \"@openzeppelin/contracts/access/AccessControl.sol\":4717:4729  getRoleAdmin */\n      tag_82\n        /* \"@openzeppelin/contracts/access/AccessControl.sol\":4717:4735  getRoleAdmin(role) */\n      jump\t// in\n    tag_394:\n        /* \"@openzeppelin/contracts/access/AccessControl.sol\":2464:2480  _checkRole(role) */\n      tag_396\n        /* \"@openzeppelin/contracts/access/AccessControl.sol\":2475:2479  role */\n      dup2\n        /* \"@openzeppelin/contracts/access/AccessControl.sol\":2464:2474  _checkRole */\n      tag_248\n        /* \"@openzeppelin/contracts/access/AccessControl.sol\":2464:2480  _checkRole(role) */\n      jump\t// in\n    tag_396:\n        /* \"@openzeppelin/contracts/access/AccessControl.sol\":4747:4773  _revokeRole(role, account) */\n      tag_398\n        /* \"@openzeppelin/contracts/access/AccessControl.sol\":4759:4763  role */\n      dup4\n        /* \"@openzeppelin/contracts/access/AccessControl.sol\":4765:4772  account */\n      dup4\n        /* \"@openzeppelin/contracts/access/AccessControl.sol\":4747:4758  _revokeRole */\n      tag_257\n        /* \"@openzeppelin/contracts/access/AccessControl.sol\":4747:4773  _revokeRole(role, account) */\n      jump\t// in\n    tag_398:\n      pop\n        /* \"@openzeppelin/contracts/access/AccessControl.sol\":4642:4780  function revokeRole(bytes32 role, address account) public virtual onlyRole(getRoleAdmin(role)) {... */\n      pop\n      pop\n      pop\n      jump\t// out\n        /* \"@openzeppelin/contracts/token/ERC20/ERC20.sol\":3846:3986  function allowance(address owner, address spender) public view virtual returns (uint256) {... */\n    tag_186:\n        /* \"@openzeppelin/contracts/token/ERC20/ERC20.sol\":3926:3933  uint256 */\n      0x00\n        /* \"@openzeppelin/contracts/token/ERC20/ERC20.sol\":3952:3963  _allowances */\n      0x01\n        /* \"@openzeppelin/contracts/token/ERC20/ERC20.sol\":3952:3970  _allowances[owner] */\n      0x00\n        /* \"@openzeppelin/contracts/token/ERC20/ERC20.sol\":3964:3969  owner */\n      dup5\n        /* \"@openzeppelin/contracts/token/ERC20/ERC20.sol\":3952:3970  _allowances[owner] */\n      0xffffffffffffffffffffffffffffffffffffffff\n      and\n      0xffffffffffffffffffffffffffffffffffffffff\n      and\n      dup2\n      mstore\n      0x20\n      add\n      swap1\n      dup2\n      mstore\n      0x20\n      add\n      0x00\n      keccak256\n        /* \"@openzeppelin/contracts/token/ERC20/ERC20.sol\":3952:3979  _allowances[owner][spender] */\n      0x00\n        /* \"@openzeppelin/contracts/token/ERC20/ERC20.sol\":3971:3978  spender */\n      dup4\n        /* \"@openzeppelin/contracts/token/ERC20/ERC20.sol\":3952:3979  _allowances[owner][spender] */\n      0xffffffffffffffffffffffffffffffffffffffff\n      and\n      0xffffffffffffffffffffffffffffffffffffffff\n      and\n      dup2\n      mstore\n      0x20\n      add\n      swap1\n      dup2\n      mstore\n      0x20\n      add\n      0x00\n      keccak256\n      sload\n        /* \"@openzeppelin/contracts/token/ERC20/ERC20.sol\":3945:3979  return _allowances[owner][spender] */\n      swap1\n      pop\n        /* \"@openzeppelin/contracts/token/ERC20/ERC20.sol\":3846:3986  function allowance(address owner, address spender) public view virtual returns (uint256) {... */\n      swap3\n      swap2\n      pop\n      pop\n      jump\t// out\n        /* \"src/token.sol\":4308:4661  function disableMint(bool _disableMinting) external {... */\n    tag_190:\n        /* \"src/token.sol\":4378:4407  hasRole(_ADMIN, _msgSender()) */\n      tag_401\n        /* \"src/token.sol\":1230:1249  keccak256(\"_ADMIN\") */\n      0xae6c2fc584631af4c9385b8a55683f1a75c813747e27efef5afece31c6b230d3\n        /* \"src/token.sol\":4394:4406  _msgSender() */\n      tag_402\n        /* \"src/token.sol\":4394:4404  _msgSender */\n      tag_214\n        /* \"src/token.sol\":4394:4406  _msgSender() */\n      jump\t// in\n    tag_402:\n        /* \"src/token.sol\":4378:4385  hasRole */\n      tag_149\n        /* \"src/token.sol\":4378:4407  hasRole(_ADMIN, _msgSender()) */\n      jump\t// in\n    tag_401:\n        /* \"src/token.sol\":4370:4432  require(hasRole(_ADMIN, _msgSender()), \"Contract: Need Admin\") */\n      tag_403\n      jumpi\n      mload(0x40)\n      0x08c379a000000000000000000000000000000000000000000000000000000000\n      dup2\n      mstore\n      0x04\n      add\n      tag_404\n      swap1\n      tag_222\n      jump\t// in\n    tag_404:\n      mload(0x40)\n      dup1\n      swap2\n      sub\n      swap1\n      revert\n    tag_403:\n        /* \"src/token.sol\":4457:4472  _disableMinting */\n      dup1\n        /* \"src/token.sol\":4442:4454  mintDisabled */\n      0x0a\n      0x01\n        /* \"src/token.sol\":4442:4472  mintDisabled = _disableMinting */\n      0x0100\n      exp\n      dup2\n      sload\n      dup2\n      0xff\n      mul\n      not\n      and\n      swap1\n      dup4\n      iszero\n      iszero\n      mul\n      or\n      swap1\n      sstore\n      pop\n        /* \"src/token.sol\":4487:4502  _disableMinting */\n      dup1\n        /* \"src/token.sol\":4483:4655  if (_disableMinting) {... */\n      iszero\n      tag_405\n      jumpi\n        /* \"src/token.sol\":4523:4566  MintingDisabled(block.number, _msgSender()) */\n      0x5668502ca8e7b393c09d1dac964ca45a27870a78d7ba212b7a189450897ca05f\n        /* \"src/token.sol\":4539:4551  block.number */\n      number\n        /* \"src/token.sol\":4553:4565  _msgSender() */\n      tag_406\n        /* \"src/token.sol\":4553:4563  _msgSender */\n      tag_214\n        /* \"src/token.sol\":4553:4565  _msgSender() */\n      jump\t// in\n    tag_406:\n        /* \"src/token.sol\":4523:4566  MintingDisabled(block.number, _msgSender()) */\n      mload(0x40)\n      tag_407\n      swap3\n      swap2\n      swap1\n      tag_226\n      jump\t// in\n    tag_407:\n      mload(0x40)\n      dup1\n      swap2\n      sub\n      swap1\n      log1\n        /* \"src/token.sol\":4483:4655  if (_disableMinting) {... */\n      jump(tag_408)\n    tag_405:\n        /* \"src/token.sol\":4602:4644  MintingEnabled(block.number, _msgSender()) */\n      0x98e05482fdb38df5eb461fb932fa6e1af90a3569939ce5a8d92d699b102d6402\n        /* \"src/token.sol\":4617:4629  block.number */\n      number\n        /* \"src/token.sol\":4631:4643  _msgSender() */\n      tag_409\n        /* \"src/token.sol\":4631:4641  _msgSender */\n      tag_214\n        /* \"src/token.sol\":4631:4643  _msgSender() */\n      jump\t// in\n    tag_409:\n        /* \"src/token.sol\":4602:4644  MintingEnabled(block.number, _msgSender()) */\n      mload(0x40)\n      tag_410\n      swap3\n      swap2\n      swap1\n      tag_226\n      jump\t// in\n    tag_410:\n      mload(0x40)\n      dup1\n      swap2\n      sub\n      swap1\n      log1\n        /* \"src/token.sol\":4483:4655  if (_disableMinting) {... */\n    tag_408:\n        /* \"src/token.sol\":4308:4661  function disableMint(bool _disableMinting) external {... */\n      pop\n      jump\t// out\n        /* \"src/token.sol\":1137:1191  bytes32 public constant _SUPPLY = keccak256(\"_SUPPLY\") */\n    tag_192:\n        /* \"src/token.sol\":1171:1191  keccak256(\"_SUPPLY\") */\n      0xea4defabeb90fa1e79f929d6c8d482fee8a115926a592b79634d39a67cce3b62\n        /* \"src/token.sol\":1137:1191  bytes32 public constant _SUPPLY = keccak256(\"_SUPPLY\") */\n      dup2\n      jump\t// out\n        /* \"src/token.sol\":4899:5247  function disableMintTo(bool _disableMintTo) external {... */\n    tag_196:\n        /* \"src/token.sol\":4970:4999  hasRole(_ADMIN, _msgSender()) */\n      tag_412\n        /* \"src/token.sol\":1230:1249  keccak256(\"_ADMIN\") */\n      0xae6c2fc584631af4c9385b8a55683f1a75c813747e27efef5afece31c6b230d3\n        /* \"src/token.sol\":4986:4998  _msgSender() */\n      tag_413\n        /* \"src/token.sol\":4986:4996  _msgSender */\n      tag_214\n        /* \"src/token.sol\":4986:4998  _msgSender() */\n      jump\t// in\n    tag_413:\n        /* \"src/token.sol\":4970:4977  hasRole */\n      tag_149\n        /* \"src/token.sol\":4970:4999  hasRole(_ADMIN, _msgSender()) */\n      jump\t// in\n    tag_412:\n        /* \"src/token.sol\":4962:5014  require(hasRole(_ADMIN, _msgSender()), \"Need Admin\") */\n      tag_414\n      jumpi\n      mload(0x40)\n      0x08c379a000000000000000000000000000000000000000000000000000000000\n      dup2\n      mstore\n      0x04\n      add\n      tag_415\n      swap1\n      tag_262\n      jump\t// in\n    tag_415:\n      mload(0x40)\n      dup1\n      swap2\n      sub\n      swap1\n      revert\n    tag_414:\n        /* \"src/token.sol\":5041:5055  _disableMintTo */\n      dup1\n        /* \"src/token.sol\":5024:5038  mintToDisabled */\n      0x0a\n      0x02\n        /* \"src/token.sol\":5024:5055  mintToDisabled = _disableMintTo */\n      0x0100\n      exp\n      dup2\n      sload\n      dup2\n      0xff\n      mul\n      not\n      and\n      swap1\n      dup4\n      iszero\n      iszero\n      mul\n      or\n      swap1\n      sstore\n      pop\n        /* \"src/token.sol\":5070:5084  _disableMintTo */\n      dup1\n        /* \"src/token.sol\":5066:5241  if (_disableMintTo) {... */\n      iszero\n      tag_416\n      jumpi\n        /* \"src/token.sol\":5105:5150  MintingToDisabled(block.number, _msgSender()) */\n      0x218e25f0a7435729f5a66aae50a9ed0084535a0080300c1c2e8366d8df7136ed\n        /* \"src/token.sol\":5123:5135  block.number */\n      number\n        /* \"src/token.sol\":5137:5149  _msgSender() */\n      tag_417\n        /* \"src/token.sol\":5137:5147  _msgSender */\n      tag_214\n        /* \"src/token.sol\":5137:5149  _msgSender() */\n      jump\t// in\n    tag_417:\n        /* \"src/token.sol\":5105:5150  MintingToDisabled(block.number, _msgSender()) */\n      mload(0x40)\n      tag_418\n      swap3\n      swap2\n      swap1\n      tag_226\n      jump\t// in\n    tag_418:\n      mload(0x40)\n      dup1\n      swap2\n      sub\n      swap1\n      log1\n        /* \"src/token.sol\":5066:5241  if (_disableMintTo) {... */\n      jump(tag_419)\n    tag_416:\n        /* \"src/token.sol\":5186:5230  MintingToEnabled(block.number, _msgSender()) */\n      0x41606e1dcee38320f9edbfcd642aeaa81bb2140c705de9d4a7814024a1e9a314\n        /* \"src/token.sol\":5203:5215  block.number */\n      number\n        /* \"src/token.sol\":5217:5229  _msgSender() */\n      tag_420\n        /* \"src/token.sol\":5217:5227  _msgSender */\n      tag_214\n        /* \"src/token.sol\":5217:5229  _msgSender() */\n      jump\t// in\n    tag_420:\n        /* \"src/token.sol\":5186:5230  MintingToEnabled(block.number, _msgSender()) */\n      mload(0x40)\n      tag_421\n      swap3\n      swap2\n      swap1\n      tag_226\n      jump\t// in\n    tag_421:\n      mload(0x40)\n      dup1\n      swap2\n      sub\n      swap1\n      log1\n        /* \"src/token.sol\":5066:5241  if (_disableMintTo) {... */\n    tag_419:\n        /* \"src/token.sol\":4899:5247  function disableMintTo(bool _disableMintTo) external {... */\n      pop\n      jump\t// out\n        /* \"src/token.sol\":1378:1398  address public vault */\n    tag_198:\n      0x08\n      0x00\n      swap1\n      sload\n      swap1\n      0x0100\n      exp\n      swap1\n      div\n      0xffffffffffffffffffffffffffffffffffffffff\n      and\n      dup2\n      jump\t// out\n        /* \"@openzeppelin/contracts/utils/introspection/ERC165.sol\":762:908  function supportsInterface(bytes4 interfaceId) public view virtual returns (bool) {... */\n    tag_204:\n        /* \"@openzeppelin/contracts/utils/introspection/ERC165.sol\":838:842  bool */\n      0x00\n        /* \"@openzeppelin/contracts/utils/introspection/ERC165.sol\":876:901  type(IERC165).interfaceId */\n      0x01ffc9a700000000000000000000000000000000000000000000000000000000\n        /* \"@openzeppelin/contracts/utils/introspection/ERC165.sol\":861:901  interfaceId == type(IERC165).interfaceId */\n      not(0xffffffffffffffffffffffffffffffffffffffffffffffffffffffff)\n      and\n        /* \"@openzeppelin/contracts/utils/introspection/ERC165.sol\":861:872  interfaceId */\n      dup3\n        /* \"@openzeppelin/contracts/utils/introspection/ERC165.sol\":861:901  interfaceId == type(IERC165).interfaceId */\n      not(0xffffffffffffffffffffffffffffffffffffffffffffffffffffffff)\n      and\n      eq\n        /* \"@openzeppelin/contracts/utils/introspection/ERC165.sol\":854:901  return interfaceId == type(IERC165).interfaceId */\n      swap1\n      pop\n        /* \"@openzeppelin/contracts/utils/introspection/ERC165.sol\":762:908  function supportsInterface(bytes4 interfaceId) public view virtual returns (bool) {... */\n      swap2\n      swap1\n      pop\n      jump\t// out\n        /* \"@openzeppelin/contracts/utils/Context.sol\":656:752  function _msgSender() internal view virtual returns (address) {... */\n    tag_214:\n        /* \"@openzeppelin/contracts/utils/Context.sol\":709:716  address */\n      0x00\n        /* \"@openzeppelin/contracts/utils/Context.sol\":735:745  msg.sender */\n      caller\n        /* \"@openzeppelin/contracts/utils/Context.sol\":728:745  return msg.sender */\n      swap1\n      pop\n        /* \"@openzeppelin/contracts/utils/Context.sol\":656:752  function _msgSender() internal view virtual returns (address) {... */\n      swap1\n      jump\t// out\n        /* \"@openzeppelin/contracts/token/ERC20/ERC20.sol\":8989:9117  function _approve(address owner, address spender, uint256 value) internal {... */\n    tag_216:\n        /* \"@openzeppelin/contracts/token/ERC20/ERC20.sol\":9073:9110  _approve(owner, spender, value, true) */\n      tag_425\n        /* \"@openzeppelin/contracts/token/ERC20/ERC20.sol\":9082:9087  owner */\n      dup4\n        /* \"@openzeppelin/contracts/token/ERC20/ERC20.sol\":9089:9096  spender */\n      dup4\n        /* \"@openzeppelin/contracts/token/ERC20/ERC20.sol\":9098:9103  value */\n      dup4\n        /* \"@openzeppelin/contracts/token/ERC20/ERC20.sol\":9105:9109  true */\n      0x01\n        /* \"@openzeppelin/contracts/token/ERC20/ERC20.sol\":9073:9081  _approve */\n      tag_426\n        /* \"@openzeppelin/contracts/token/ERC20/ERC20.sol\":9073:9110  _approve(owner, spender, value, true) */\n      jump\t// in\n    tag_425:\n        /* \"@openzeppelin/contracts/token/ERC20/ERC20.sol\":8989:9117  function _approve(address owner, address spender, uint256 value) internal {... */\n      pop\n      pop\n      pop\n      jump\t// out\n        /* \"@openzeppelin/contracts/security/ReentrancyGuard.sol\":2336:2623  function _nonReentrantBefore() private {... */\n    tag_233:\n        /* \"@openzeppelin/contracts/security/ReentrancyGuard.sol\":1759:1760  2 */\n      0x02\n        /* \"@openzeppelin/contracts/security/ReentrancyGuard.sol\":2468:2475  _status */\n      sload(0x06)\n        /* \"@openzeppelin/contracts/security/ReentrancyGuard.sol\":2468:2487  _status != _ENTERED */\n      sub\n        /* \"@openzeppelin/contracts/security/ReentrancyGuard.sol\":2460:2523  require(_status != _ENTERED, \"ReentrancyGuard: reentrant call\") */\n      tag_428\n      jumpi\n      mload(0x40)\n      0x08c379a000000000000000000000000000000000000000000000000000000000\n      dup2\n      mstore\n      0x04\n      add\n      tag_429\n      swap1\n      tag_430\n      jump\t// in\n    tag_429:\n      mload(0x40)\n      dup1\n      swap2\n      sub\n      swap1\n      revert\n    tag_428:\n        /* \"@openzeppelin/contracts/security/ReentrancyGuard.sol\":1759:1760  2 */\n      0x02\n        /* \"@openzeppelin/contracts/security/ReentrancyGuard.sol\":2598:2605  _status */\n      0x06\n        /* \"@openzeppelin/contracts/security/ReentrancyGuard.sol\":2598:2616  _status = _ENTERED */\n      dup2\n      swap1\n      sstore\n      pop\n        /* \"@openzeppelin/contracts/security/ReentrancyGuard.sol\":2336:2623  function _nonReentrantBefore() private {... */\n      jump\t// out\n        /* \"@openzeppelin/contracts/token/ERC20/ERC20.sol\":5656:5956  function _transfer(address from, address to, uint256 value) internal {... */\n    tag_238:\n        /* \"@openzeppelin/contracts/token/ERC20/ERC20.sol\":5755:5756  0 */\n      0x00\n        /* \"@openzeppelin/contracts/token/ERC20/ERC20.sol\":5739:5757  from == address(0) */\n      0xffffffffffffffffffffffffffffffffffffffff\n      and\n        /* \"@openzeppelin/contracts/token/ERC20/ERC20.sol\":5739:5743  from */\n      dup4\n        /* \"@openzeppelin/contracts/token/ERC20/ERC20.sol\":5739:5757  from == address(0) */\n      0xffffffffffffffffffffffffffffffffffffffff\n      and\n      sub\n        /* \"@openzeppelin/contracts/token/ERC20/ERC20.sol\":5735:5821  if (from == address(0)) {... */\n      tag_432\n      jumpi\n        /* \"@openzeppelin/contracts/token/ERC20/ERC20.sol\":5807:5808  0 */\n      0x00\n        /* \"@openzeppelin/contracts/token/ERC20/ERC20.sol\":5780:5810  ERC20InvalidSender(address(0)) */\n      mload(0x40)\n      0x96c6fd1e00000000000000000000000000000000000000000000000000000000\n      dup2\n      mstore\n      0x04\n      add\n      tag_433\n      swap2\n      swap1\n      tag_200\n      jump\t// in\n    tag_433:\n      mload(0x40)\n      dup1\n      swap2\n      sub\n      swap1\n      revert\n        /* \"@openzeppelin/contracts/token/ERC20/ERC20.sol\":5735:5821  if (from == address(0)) {... */\n    tag_432:\n        /* \"@openzeppelin/contracts/token/ERC20/ERC20.sol\":5848:5849  0 */\n      0x00\n        /* \"@openzeppelin/contracts/token/ERC20/ERC20.sol\":5834:5850  to == address(0) */\n      0xffffffffffffffffffffffffffffffffffffffff\n      and\n        /* \"@openzeppelin/contracts/token/ERC20/ERC20.sol\":5834:5836  to */\n      dup3\n        /* \"@openzeppelin/contracts/token/ERC20/ERC20.sol\":5834:5850  to == address(0) */\n      0xffffffffffffffffffffffffffffffffffffffff\n      and\n      sub\n        /* \"@openzeppelin/contracts/token/ERC20/ERC20.sol\":5830:5916  if (to == address(0)) {... */\n      tag_434\n      jumpi\n        /* \"@openzeppelin/contracts/token/ERC20/ERC20.sol\":5902:5903  0 */\n      0x00\n        /* \"@openzeppelin/contracts/token/ERC20/ERC20.sol\":5873:5905  ERC20InvalidReceiver(address(0)) */\n      mload(0x40)\n      0xec442f0500000000000000000000000000000000000000000000000000000000\n      dup2\n      mstore\n      0x04\n      add\n      tag_435\n      swap2\n      swap1\n      tag_200\n      jump\t// in\n    tag_435:\n      mload(0x40)\n      dup1\n      swap2\n      sub\n      swap1\n      revert\n        /* \"@openzeppelin/contracts/token/ERC20/ERC20.sol\":5830:5916  if (to == address(0)) {... */\n    tag_434:\n        /* \"@openzeppelin/contracts/token/ERC20/ERC20.sol\":5925:5949  _update(from, to, value) */\n      tag_436\n        /* \"@openzeppelin/contracts/token/ERC20/ERC20.sol\":5933:5937  from */\n      dup4\n        /* \"@openzeppelin/contracts/token/ERC20/ERC20.sol\":5939:5941  to */\n      dup4\n        /* \"@openzeppelin/contracts/token/ERC20/ERC20.sol\":5943:5948  value */\n      dup4\n        /* \"@openzeppelin/contracts/token/ERC20/ERC20.sol\":5925:5932  _update */\n      tag_437\n        /* \"@openzeppelin/contracts/token/ERC20/ERC20.sol\":5925:5949  _update(from, to, value) */\n      jump\t// in\n    tag_436:\n        /* \"@openzeppelin/contracts/token/ERC20/ERC20.sol\":5656:5956  function _transfer(address from, address to, uint256 value) internal {... */\n      pop\n      pop\n      pop\n      jump\t// out\n        /* \"@openzeppelin/contracts/security/ReentrancyGuard.sol\":2629:2838  function _nonReentrantAfter() private {... */\n    tag_243:\n        /* \"@openzeppelin/contracts/security/ReentrancyGuard.sol\":1716:1717  1 */\n      0x01\n        /* \"@openzeppelin/contracts/security/ReentrancyGuard.sol\":2809:2816  _status */\n      0x06\n        /* \"@openzeppelin/contracts/security/ReentrancyGuard.sol\":2809:2831  _status = _NOT_ENTERED */\n      dup2\n      swap1\n      sstore\n      pop\n        /* \"@openzeppelin/contracts/security/ReentrancyGuard.sol\":2629:2838  function _nonReentrantAfter() private {... */\n      jump\t// out\n        /* \"@openzeppelin/contracts/access/AccessControl.sol\":3199:3302  function _checkRole(bytes32 role) internal view virtual {... */\n    tag_248:\n        /* \"@openzeppelin/contracts/access/AccessControl.sol\":3265:3295  _checkRole(role, _msgSender()) */\n      tag_440\n        /* \"@openzeppelin/contracts/access/AccessControl.sol\":3276:3280  role */\n      dup2\n        /* \"@openzeppelin/contracts/access/AccessControl.sol\":3282:3294  _msgSender() */\n      tag_441\n        /* \"@openzeppelin/contracts/access/AccessControl.sol\":3282:3292  _msgSender */\n      tag_214\n        /* \"@openzeppelin/contracts/access/AccessControl.sol\":3282:3294  _msgSender() */\n      jump\t// in\n    tag_441:\n        /* \"@openzeppelin/contracts/access/AccessControl.sol\":3265:3275  _checkRole */\n      tag_442\n        /* \"@openzeppelin/contracts/access/AccessControl.sol\":3265:3295  _checkRole(role, _msgSender()) */\n      jump\t// in\n    tag_440:\n        /* \"@openzeppelin/contracts/access/AccessControl.sol\":3199:3302  function _checkRole(bytes32 role) internal view virtual {... */\n      pop\n      jump\t// out\n        /* \"@openzeppelin/contracts/access/AccessControl.sol\":6179:6495  function _grantRole(bytes32 role, address account) internal virtual returns (bool) {... */\n    tag_251:\n        /* \"@openzeppelin/contracts/access/AccessControl.sol\":6256:6260  bool */\n      0x00\n        /* \"@openzeppelin/contracts/access/AccessControl.sol\":6277:6299  hasRole(role, account) */\n      tag_444\n        /* \"@openzeppelin/contracts/access/AccessControl.sol\":6285:6289  role */\n      dup4\n        /* \"@openzeppelin/contracts/access/AccessControl.sol\":6291:6298  account */\n      dup4\n        /* \"@openzeppelin/contracts/access/AccessControl.sol\":6277:6284  hasRole */\n      tag_149\n        /* \"@openzeppelin/contracts/access/AccessControl.sol\":6277:6299  hasRole(role, account) */\n      jump\t// in\n    tag_444:\n        /* \"@openzeppelin/contracts/access/AccessControl.sol\":6272:6489  if (!hasRole(role, account)) {... */\n      tag_445\n      jumpi\n        /* \"@openzeppelin/contracts/access/AccessControl.sol\":6347:6351  true */\n      0x01\n        /* \"@openzeppelin/contracts/access/AccessControl.sol\":6315:6321  _roles */\n      0x05\n        /* \"@openzeppelin/contracts/access/AccessControl.sol\":6315:6327  _roles[role] */\n      0x00\n        /* \"@openzeppelin/contracts/access/AccessControl.sol\":6322:6326  role */\n      dup6\n        /* \"@openzeppelin/contracts/access/AccessControl.sol\":6315:6327  _roles[role] */\n      dup2\n      mstore\n      0x20\n      add\n      swap1\n      dup2\n      mstore\n      0x20\n      add\n      0x00\n      keccak256\n        /* \"@openzeppelin/contracts/access/AccessControl.sol\":6315:6335  _roles[role].hasRole */\n      0x00\n      add\n        /* \"@openzeppelin/contracts/access/AccessControl.sol\":6315:6344  _roles[role].hasRole[account] */\n      0x00\n        /* \"@openzeppelin/contracts/access/AccessControl.sol\":6336:6343  account */\n      dup5\n        /* \"@openzeppelin/contracts/access/AccessControl.sol\":6315:6344  _roles[role].hasRole[account] */\n      0xffffffffffffffffffffffffffffffffffffffff\n      and\n      0xffffffffffffffffffffffffffffffffffffffff\n      and\n      dup2\n      mstore\n      0x20\n      add\n      swap1\n      dup2\n      mstore\n      0x20\n      add\n      0x00\n      keccak256\n      0x00\n        /* \"@openzeppelin/contracts/access/AccessControl.sol\":6315:6351  _roles[role].hasRole[account] = true */\n      0x0100\n      exp\n      dup2\n      sload\n      dup2\n      0xff\n      mul\n      not\n      and\n      swap1\n      dup4\n      iszero\n      iszero\n      mul\n      or\n      swap1\n      sstore\n      pop\n        /* \"@openzeppelin/contracts/access/AccessControl.sol\":6397:6409  _msgSender() */\n      tag_446\n        /* \"@openzeppelin/contracts/access/AccessControl.sol\":6397:6407  _msgSender */\n      tag_214\n        /* \"@openzeppelin/contracts/access/AccessControl.sol\":6397:6409  _msgSender() */\n      jump\t// in\n    tag_446:\n        /* \"@openzeppelin/contracts/access/AccessControl.sol\":6370:6410  RoleGranted(role, account, _msgSender()) */\n      0xffffffffffffffffffffffffffffffffffffffff\n      and\n        /* \"@openzeppelin/contracts/access/AccessControl.sol\":6388:6395  account */\n      dup3\n        /* \"@openzeppelin/contracts/access/AccessControl.sol\":6370:6410  RoleGranted(role, account, _msgSender()) */\n      0xffffffffffffffffffffffffffffffffffffffff\n      and\n        /* \"@openzeppelin/contracts/access/AccessControl.sol\":6382:6386  role */\n      dup5\n        /* \"@openzeppelin/contracts/access/AccessControl.sol\":6370:6410  RoleGranted(role, account, _msgSender()) */\n      0x2f8788117e7eff1d82e926ec794901d17c78024a50270940304540a733656f0d\n      mload(0x40)\n      mload(0x40)\n      dup1\n      swap2\n      sub\n      swap1\n      log4\n        /* \"@openzeppelin/contracts/access/AccessControl.sol\":6431:6435  true */\n      0x01\n        /* \"@openzeppelin/contracts/access/AccessControl.sol\":6424:6435  return true */\n      swap1\n      pop\n      jump(tag_443)\n        /* \"@openzeppelin/contracts/access/AccessControl.sol\":6272:6489  if (!hasRole(role, account)) {... */\n    tag_445:\n        /* \"@openzeppelin/contracts/access/AccessControl.sol\":6473:6478  false */\n      0x00\n        /* \"@openzeppelin/contracts/access/AccessControl.sol\":6466:6478  return false */\n      swap1\n      pop\n        /* \"@openzeppelin/contracts/access/AccessControl.sol\":6179:6495  function _grantRole(bytes32 role, address account) internal virtual returns (bool) {... */\n    tag_443:\n      swap3\n      swap2\n      pop\n      pop\n      jump\t// out\n        /* \"@openzeppelin/contracts/access/AccessControl.sol\":6730:7047  function _revokeRole(bytes32 role, address account) internal virtual returns (bool) {... */\n    tag_257:\n        /* \"@openzeppelin/contracts/access/AccessControl.sol\":6808:6812  bool */\n      0x00\n        /* \"@openzeppelin/contracts/access/AccessControl.sol\":6828:6850  hasRole(role, account) */\n      tag_449\n        /* \"@openzeppelin/contracts/access/AccessControl.sol\":6836:6840  role */\n      dup4\n        /* \"@openzeppelin/contracts/access/AccessControl.sol\":6842:6849  account */\n      dup4\n        /* \"@openzeppelin/contracts/access/AccessControl.sol\":6828:6835  hasRole */\n      tag_149\n        /* \"@openzeppelin/contracts/access/AccessControl.sol\":6828:6850  hasRole(role, account) */\n      jump\t// in\n    tag_449:\n        /* \"@openzeppelin/contracts/access/AccessControl.sol\":6824:7041  if (hasRole(role, account)) {... */\n      iszero\n      tag_450\n      jumpi\n        /* \"@openzeppelin/contracts/access/AccessControl.sol\":6898:6903  false */\n      0x00\n        /* \"@openzeppelin/contracts/access/AccessControl.sol\":6866:6872  _roles */\n      0x05\n        /* \"@openzeppelin/contracts/access/AccessControl.sol\":6866:6878  _roles[role] */\n      0x00\n        /* \"@openzeppelin/contracts/access/AccessControl.sol\":6873:6877  role */\n      dup6\n        /* \"@openzeppelin/contracts/access/AccessControl.sol\":6866:6878  _roles[role] */\n      dup2\n      mstore\n      0x20\n      add\n      swap1\n      dup2\n      mstore\n      0x20\n      add\n      0x00\n      keccak256\n        /* \"@openzeppelin/contracts/access/AccessControl.sol\":6866:6886  _roles[role].hasRole */\n      0x00\n      add\n        /* \"@openzeppelin/contracts/access/AccessControl.sol\":6866:6895  _roles[role].hasRole[account] */\n      0x00\n        /* \"@openzeppelin/contracts/access/AccessControl.sol\":6887:6894  account */\n      dup5\n        /* \"@openzeppelin/contracts/access/AccessControl.sol\":6866:6895  _roles[role].hasRole[account] */\n      0xffffffffffffffffffffffffffffffffffffffff\n      and\n      0xffffffffffffffffffffffffffffffffffffffff\n      and\n      dup2\n      mstore\n      0x20\n      add\n      swap1\n      dup2\n      mstore\n      0x20\n      add\n      0x00\n      keccak256\n      0x00\n        /* \"@openzeppelin/contracts/access/AccessControl.sol\":6866:6903  _roles[role].hasRole[account] = false */\n      0x0100\n      exp\n      dup2\n      sload\n      dup2\n      0xff\n      mul\n      not\n      and\n      swap1\n      dup4\n      iszero\n      iszero\n      mul\n      or\n      swap1\n      sstore\n      pop\n        /* \"@openzeppelin/contracts/access/AccessControl.sol\":6949:6961  _msgSender() */\n      tag_451\n        /* \"@openzeppelin/contracts/access/AccessControl.sol\":6949:6959  _msgSender */\n      tag_214\n        /* \"@openzeppelin/contracts/access/AccessControl.sol\":6949:6961  _msgSender() */\n      jump\t// in\n    tag_451:\n        /* \"@openzeppelin/contracts/access/AccessControl.sol\":6922:6962  RoleRevoked(role, account, _msgSender()) */\n      0xffffffffffffffffffffffffffffffffffffffff\n      and\n        /* \"@openzeppelin/contracts/access/AccessControl.sol\":6940:6947  account */\n      dup3\n        /* \"@openzeppelin/contracts/access/AccessControl.sol\":6922:6962  RoleRevoked(role, account, _msgSender()) */\n      0xffffffffffffffffffffffffffffffffffffffff\n      and\n        /* \"@openzeppelin/contracts/access/AccessControl.sol\":6934:6938  role */\n      dup5\n        /* \"@openzeppelin/contracts/access/AccessControl.sol\":6922:6962  RoleRevoked(role, account, _msgSender()) */\n      0xf6391f5c32d9c69d2a47ea670b442974b53935d1edc7fd64eb21e047a839171b\n      mload(0x40)\n      mload(0x40)\n      dup1\n      swap2\n      sub\n      swap1\n      log4\n        /* \"@openzeppelin/contracts/access/AccessControl.sol\":6983:6987  true */\n      0x01\n        /* \"@openzeppelin/contracts/access/AccessControl.sol\":6976:6987  return true */\n      swap1\n      pop\n      jump(tag_448)\n        /* \"@openzeppelin/contracts/access/AccessControl.sol\":6824:7041  if (hasRole(role, account)) {... */\n    tag_450:\n        /* \"@openzeppelin/contracts/access/AccessControl.sol\":7025:7030  false */\n      0x00\n        /* \"@openzeppelin/contracts/access/AccessControl.sol\":7018:7030  return false */\n      swap1\n      pop\n        /* \"@openzeppelin/contracts/access/AccessControl.sol\":6730:7047  function _revokeRole(bytes32 role, address account) internal virtual returns (bool) {... */\n    tag_448:\n      swap3\n      swap2\n      pop\n      pop\n      jump\t// out\n        /* \"@openzeppelin/contracts/token/ERC20/utils/SafeERC20.sol\":1303:1463  function safeTransfer(IERC20 token, address to, uint256 value) internal {... */\n    tag_274:\n        /* \"@openzeppelin/contracts/token/ERC20/utils/SafeERC20.sol\":1385:1456  _callOptionalReturn(token, abi.encodeCall(token.transfer, (to, value))) */\n      tag_454\n        /* \"@openzeppelin/contracts/token/ERC20/utils/SafeERC20.sol\":1405:1410  token */\n      dup4\n        /* \"@openzeppelin/contracts/token/ERC20/utils/SafeERC20.sol\":1427:1432  token */\n      dup5\n        /* \"@openzeppelin/contracts/token/ERC20/utils/SafeERC20.sol\":1427:1441  token.transfer */\n      0xffffffffffffffffffffffffffffffffffffffff\n      and\n      0xa9059cbb\n        /* \"@openzeppelin/contracts/token/ERC20/utils/SafeERC20.sol\":1444:1446  to */\n      dup6\n        /* \"@openzeppelin/contracts/token/ERC20/utils/SafeERC20.sol\":1448:1453  value */\n      dup6\n        /* \"@openzeppelin/contracts/token/ERC20/utils/SafeERC20.sol\":1412:1455  abi.encodeCall(token.transfer, (to, value)) */\n      add(0x24, mload(0x40))\n      tag_455\n      swap3\n      swap2\n      swap1\n      tag_313\n      jump\t// in\n    tag_455:\n      mload(0x40)\n      0x20\n      dup2\n      dup4\n      sub\n      sub\n      dup2\n      mstore\n      swap1\n      0x40\n      mstore\n      swap2\n      pop\n      0xe0\n      shl\n      0x20\n      dup3\n      add\n      dup1\n      mload\n      0xffffffffffffffffffffffffffffffffffffffffffffffffffffffff\n      dup4\n      dup2\n      dup4\n      and\n      or\n      dup4\n      mstore\n      pop\n      pop\n      pop\n      pop\n        /* \"@openzeppelin/contracts/token/ERC20/utils/SafeERC20.sol\":1385:1404  _callOptionalReturn */\n      tag_456\n        /* \"@openzeppelin/contracts/token/ERC20/utils/SafeERC20.sol\":1385:1456  _callOptionalReturn(token, abi.encodeCall(token.transfer, (to, value))) */\n      jump\t// in\n    tag_454:\n        /* \"@openzeppelin/contracts/token/ERC20/utils/SafeERC20.sol\":1303:1463  function safeTransfer(IERC20 token, address to, uint256 value) internal {... */\n      pop\n      pop\n      pop\n      jump\t// out\n        /* \"@openzeppelin/contracts/token/ERC20/ERC20.sol\":8247:8453  function _burn(address account, uint256 value) internal {... */\n    tag_292:\n        /* \"@openzeppelin/contracts/token/ERC20/ERC20.sol\":8336:8337  0 */\n      0x00\n        /* \"@openzeppelin/contracts/token/ERC20/ERC20.sol\":8317:8338  account == address(0) */\n      0xffffffffffffffffffffffffffffffffffffffff\n      and\n        /* \"@openzeppelin/contracts/token/ERC20/ERC20.sol\":8317:8324  account */\n      dup3\n        /* \"@openzeppelin/contracts/token/ERC20/ERC20.sol\":8317:8338  account == address(0) */\n      0xffffffffffffffffffffffffffffffffffffffff\n      and\n      sub\n        /* \"@openzeppelin/contracts/token/ERC20/ERC20.sol\":8313:8402  if (account == address(0)) {... */\n      tag_458\n      jumpi\n        /* \"@openzeppelin/contracts/token/ERC20/ERC20.sol\":8388:8389  0 */\n      0x00\n        /* \"@openzeppelin/contracts/token/ERC20/ERC20.sol\":8361:8391  ERC20InvalidSender(address(0)) */\n      mload(0x40)\n      0x96c6fd1e00000000000000000000000000000000000000000000000000000000\n      dup2\n      mstore\n      0x04\n      add\n      tag_459\n      swap2\n      swap1\n      tag_200\n      jump\t// in\n    tag_459:\n      mload(0x40)\n      dup1\n      swap2\n      sub\n      swap1\n      revert\n        /* \"@openzeppelin/contracts/token/ERC20/ERC20.sol\":8313:8402  if (account == address(0)) {... */\n    tag_458:\n        /* \"@openzeppelin/contracts/token/ERC20/ERC20.sol\":8411:8446  _update(account, address(0), value) */\n      tag_460\n        /* \"@openzeppelin/contracts/token/ERC20/ERC20.sol\":8419:8426  account */\n      dup3\n        /* \"@openzeppelin/contracts/token/ERC20/ERC20.sol\":8436:8437  0 */\n      0x00\n        /* \"@openzeppelin/contracts/token/ERC20/ERC20.sol\":8440:8445  value */\n      dup4\n        /* \"@openzeppelin/contracts/token/ERC20/ERC20.sol\":8411:8418  _update */\n      tag_437\n        /* \"@openzeppelin/contracts/token/ERC20/ERC20.sol\":8411:8446  _update(account, address(0), value) */\n      jump\t// in\n    tag_460:\n        /* \"@openzeppelin/contracts/token/ERC20/ERC20.sol\":8247:8453  function _burn(address account, uint256 value) internal {... */\n      pop\n      pop\n      jump\t// out\n        /* \"@openzeppelin/contracts/token/ERC20/ERC20.sol\":7721:7929  function _mint(address account, uint256 value) internal {... */\n    tag_315:\n        /* \"@openzeppelin/contracts/token/ERC20/ERC20.sol\":7810:7811  0 */\n      0x00\n        /* \"@openzeppelin/contracts/token/ERC20/ERC20.sol\":7791:7812  account == address(0) */\n      0xffffffffffffffffffffffffffffffffffffffff\n      and\n        /* \"@openzeppelin/contracts/token/ERC20/ERC20.sol\":7791:7798  account */\n      dup3\n        /* \"@openzeppelin/contracts/token/ERC20/ERC20.sol\":7791:7812  account == address(0) */\n      0xffffffffffffffffffffffffffffffffffffffff\n      and\n      sub\n        /* \"@openzeppelin/contracts/token/ERC20/ERC20.sol\":7787:7878  if (account == address(0)) {... */\n      tag_462\n      jumpi\n        /* \"@openzeppelin/contracts/token/ERC20/ERC20.sol\":7864:7865  0 */\n      0x00\n        /* \"@openzeppelin/contracts/token/ERC20/ERC20.sol\":7835:7867  ERC20InvalidReceiver(address(0)) */\n      mload(0x40)\n      0xec442f0500000000000000000000000000000000000000000000000000000000\n      dup2\n      mstore\n      0x04\n      add\n      tag_463\n      swap2\n      swap1\n      tag_200\n      jump\t// in\n    tag_463:\n      mload(0x40)\n      dup1\n      swap2\n      sub\n      swap1\n      revert\n        /* \"@openzeppelin/contracts/token/ERC20/ERC20.sol\":7787:7878  if (account == address(0)) {... */\n    tag_462:\n        /* \"@openzeppelin/contracts/token/ERC20/ERC20.sol\":7887:7922  _update(address(0), account, value) */\n      tag_464\n        /* \"@openzeppelin/contracts/token/ERC20/ERC20.sol\":7903:7904  0 */\n      0x00\n        /* \"@openzeppelin/contracts/token/ERC20/ERC20.sol\":7907:7914  account */\n      dup4\n        /* \"@openzeppelin/contracts/token/ERC20/ERC20.sol\":7916:7921  value */\n      dup4\n        /* \"@openzeppelin/contracts/token/ERC20/ERC20.sol\":7887:7894  _update */\n      tag_437\n        /* \"@openzeppelin/contracts/token/ERC20/ERC20.sol\":7887:7922  _update(address(0), account, value) */\n      jump\t// in\n    tag_464:\n        /* \"@openzeppelin/contracts/token/ERC20/ERC20.sol\":7721:7929  function _mint(address account, uint256 value) internal {... */\n      pop\n      pop\n      jump\t// out\n        /* \"@openzeppelin/contracts/token/ERC20/ERC20.sol\":9949:10381  function _approve(address owner, address spender, uint256 value, bool emitEvent) internal virtual {... */\n    tag_426:\n        /* \"@openzeppelin/contracts/token/ERC20/ERC20.sol\":10078:10079  0 */\n      0x00\n        /* \"@openzeppelin/contracts/token/ERC20/ERC20.sol\":10061:10080  owner == address(0) */\n      0xffffffffffffffffffffffffffffffffffffffff\n      and\n        /* \"@openzeppelin/contracts/token/ERC20/ERC20.sol\":10061:10066  owner */\n      dup5\n        /* \"@openzeppelin/contracts/token/ERC20/ERC20.sol\":10061:10080  owner == address(0) */\n      0xffffffffffffffffffffffffffffffffffffffff\n      and\n      sub\n        /* \"@openzeppelin/contracts/token/ERC20/ERC20.sol\":10057:10146  if (owner == address(0)) {... */\n      tag_466\n      jumpi\n        /* \"@openzeppelin/contracts/token/ERC20/ERC20.sol\":10132:10133  0 */\n      0x00\n        /* \"@openzeppelin/contracts/token/ERC20/ERC20.sol\":10103:10135  ERC20InvalidApprover(address(0)) */\n      mload(0x40)\n      0xe602df0500000000000000000000000000000000000000000000000000000000\n      dup2\n      mstore\n      0x04\n      add\n      tag_467\n      swap2\n      swap1\n      tag_200\n      jump\t// in\n    tag_467:\n      mload(0x40)\n      dup1\n      swap2\n      sub\n      swap1\n      revert\n        /* \"@openzeppelin/contracts/token/ERC20/ERC20.sol\":10057:10146  if (owner == address(0)) {... */\n    tag_466:\n        /* \"@openzeppelin/contracts/token/ERC20/ERC20.sol\":10178:10179  0 */\n      0x00\n        /* \"@openzeppelin/contracts/token/ERC20/ERC20.sol\":10159:10180  spender == address(0) */\n      0xffffffffffffffffffffffffffffffffffffffff\n      and\n        /* \"@openzeppelin/contracts/token/ERC20/ERC20.sol\":10159:10166  spender */\n      dup4\n        /* \"@openzeppelin/contracts/token/ERC20/ERC20.sol\":10159:10180  spender == address(0) */\n      0xffffffffffffffffffffffffffffffffffffffff\n      and\n      sub\n        /* \"@openzeppelin/contracts/token/ERC20/ERC20.sol\":10155:10245  if (spender == address(0)) {... */\n      tag_468\n      jumpi\n        /* \"@openzeppelin/contracts/token/ERC20/ERC20.sol\":10231:10232  0 */\n      0x00\n        /* \"@openzeppelin/contracts/token/ERC20/ERC20.sol\":10203:10234  ERC20InvalidSpender(address(0)) */\n      mload(0x40)\n      0x94280d6200000000000000000000000000000000000000000000000000000000\n      dup2\n      mstore\n      0x04\n      add\n      tag_469\n      swap2\n      swap1\n      tag_200\n      jump\t// in\n    tag_469:\n      mload(0x40)\n      dup1\n      swap2\n      sub\n      swap1\n      revert\n        /* \"@openzeppelin/contracts/token/ERC20/ERC20.sol\":10155:10245  if (spender == address(0)) {... */\n    tag_468:\n        /* \"@openzeppelin/contracts/token/ERC20/ERC20.sol\":10284:10289  value */\n      dup2\n        /* \"@openzeppelin/contracts/token/ERC20/ERC20.sol\":10254:10265  _allowances */\n      0x01\n        /* \"@openzeppelin/contracts/token/ERC20/ERC20.sol\":10254:10272  _allowances[owner] */\n      0x00\n        /* \"@openzeppelin/contracts/token/ERC20/ERC20.sol\":10266:10271  owner */\n      dup7\n        /* \"@openzeppelin/contracts/token/ERC20/ERC20.sol\":10254:10272  _allowances[owner] */\n      0xffffffffffffffffffffffffffffffffffffffff\n      and\n      0xffffffffffffffffffffffffffffffffffffffff\n      and\n      dup2\n      mstore\n      0x20\n      add\n      swap1\n      dup2\n      mstore\n      0x20\n      add\n      0x00\n      keccak256\n        /* \"@openzeppelin/contracts/token/ERC20/ERC20.sol\":10254:10281  _allowances[owner][spender] */\n      0x00\n        /* \"@openzeppelin/contracts/token/ERC20/ERC20.sol\":10273:10280  spender */\n      dup6\n        /* \"@openzeppelin/contracts/token/ERC20/ERC20.sol\":10254:10281  _allowances[owner][spender] */\n      0xffffffffffffffffffffffffffffffffffffffff\n      and\n      0xffffffffffffffffffffffffffffffffffffffff\n      and\n      dup2\n      mstore\n      0x20\n      add\n      swap1\n      dup2\n      mstore\n      0x20\n      add\n      0x00\n      keccak256\n        /* \"@openzeppelin/contracts/token/ERC20/ERC20.sol\":10254:10289  _allowances[owner][spender] = value */\n      dup2\n      swap1\n      sstore\n      pop\n        /* \"@openzeppelin/contracts/token/ERC20/ERC20.sol\":10303:10312  emitEvent */\n      dup1\n        /* \"@openzeppelin/contracts/token/ERC20/ERC20.sol\":10299:10375  if (emitEvent) {... */\n      iszero\n      tag_470\n      jumpi\n        /* \"@openzeppelin/contracts/token/ERC20/ERC20.sol\":10349:10356  spender */\n      dup3\n        /* \"@openzeppelin/contracts/token/ERC20/ERC20.sol\":10333:10364  Approval(owner, spender, value) */\n      0xffffffffffffffffffffffffffffffffffffffff\n      and\n        /* \"@openzeppelin/contracts/token/ERC20/ERC20.sol\":10342:10347  owner */\n      dup5\n        /* \"@openzeppelin/contracts/token/ERC20/ERC20.sol\":10333:10364  Approval(owner, spender, value) */\n      0xffffffffffffffffffffffffffffffffffffffff\n      and\n      0x8c5be1e5ebec7d5bd14f71427d1e84f3dd0314c0f7b2291e5b200ac8c7c3b925\n        /* \"@openzeppelin/contracts/token/ERC20/ERC20.sol\":10358:10363  value */\n      dup5\n        /* \"@openzeppelin/contracts/token/ERC20/ERC20.sol\":10333:10364  Approval(owner, spender, value) */\n      mload(0x40)\n      tag_471\n      swap2\n      swap1\n      tag_73\n      jump\t// in\n    tag_471:\n      mload(0x40)\n      dup1\n      swap2\n      sub\n      swap1\n      log3\n        /* \"@openzeppelin/contracts/token/ERC20/ERC20.sol\":10299:10375  if (emitEvent) {... */\n    tag_470:\n        /* \"@openzeppelin/contracts/token/ERC20/ERC20.sol\":9949:10381  function _approve(address owner, address spender, uint256 value, bool emitEvent) internal virtual {... */\n      pop\n      pop\n      pop\n      pop\n      jump\t// out\n        /* \"src/token.sol\":8978:9242  function _update(address from, address to, uint256 amount) internal virtual override {... */\n    tag_437:\n        /* \"src/token.sol\":9093:9094  0 */\n      0x00\n        /* \"src/token.sol\":9077:9095  from == address(0) */\n      0xffffffffffffffffffffffffffffffffffffffff\n      and\n        /* \"src/token.sol\":9077:9081  from */\n      dup4\n        /* \"src/token.sol\":9077:9095  from == address(0) */\n      0xffffffffffffffffffffffffffffffffffffffff\n      and\n      sub\n        /* \"src/token.sol\":9073:9195  if (from == address(0)) { ... */\n      tag_473\n      jumpi\n        /* \"src/token.sol\":9146:9150  _cap */\n      sload(0x07)\n        /* \"src/token.sol\":9136:9142  amount */\n      dup2\n        /* \"src/token.sol\":9120:9133  totalSupply() */\n      tag_474\n        /* \"src/token.sol\":9120:9131  totalSupply */\n      tag_71\n        /* \"src/token.sol\":9120:9133  totalSupply() */\n      jump\t// in\n    tag_474:\n        /* \"src/token.sol\":9120:9142  totalSupply() + amount */\n      tag_475\n      swap2\n      swap1\n      tag_308\n      jump\t// in\n    tag_475:\n        /* \"src/token.sol\":9120:9150  totalSupply() + amount <= _cap */\n      gt\n      iszero\n        /* \"src/token.sol\":9112:9184  require(totalSupply() + amount <= _cap, \"Contract: Supply Cap exceeded\") */\n      tag_476\n      jumpi\n      mload(0x40)\n      0x08c379a000000000000000000000000000000000000000000000000000000000\n      dup2\n      mstore\n      0x04\n      add\n      tag_477\n      swap1\n      tag_311\n      jump\t// in\n    tag_477:\n      mload(0x40)\n      dup1\n      swap2\n      sub\n      swap1\n      revert\n    tag_476:\n        /* \"src/token.sol\":9073:9195  if (from == address(0)) { ... */\n    tag_473:\n        /* \"src/token.sol\":9204:9235  super._update(from, to, amount) */\n      tag_478\n        /* \"src/token.sol\":9218:9222  from */\n      dup4\n        /* \"src/token.sol\":9224:9226  to */\n      dup4\n        /* \"src/token.sol\":9228:9234  amount */\n      dup4\n        /* \"src/token.sol\":9204:9217  super._update */\n      tag_479\n        /* \"src/token.sol\":9204:9235  super._update(from, to, amount) */\n      jump\t// in\n    tag_478:\n        /* \"src/token.sol\":8978:9242  function _update(address from, address to, uint256 amount) internal virtual override {... */\n      pop\n      pop\n      pop\n      jump\t// out\n        /* \"@openzeppelin/contracts/access/AccessControl.sol\":3432:3629  function _checkRole(bytes32 role, address account) internal view virtual {... */\n    tag_442:\n        /* \"@openzeppelin/contracts/access/AccessControl.sol\":3520:3542  hasRole(role, account) */\n      tag_481\n        /* \"@openzeppelin/contracts/access/AccessControl.sol\":3528:3532  role */\n      dup3\n        /* \"@openzeppelin/contracts/access/AccessControl.sol\":3534:3541  account */\n      dup3\n        /* \"@openzeppelin/contracts/access/AccessControl.sol\":3520:3527  hasRole */\n      tag_149\n        /* \"@openzeppelin/contracts/access/AccessControl.sol\":3520:3542  hasRole(role, account) */\n      jump\t// in\n    tag_481:\n        /* \"@openzeppelin/contracts/access/AccessControl.sol\":3515:3623  if (!hasRole(role, account)) {... */\n      tag_482\n      jumpi\n        /* \"@openzeppelin/contracts/access/AccessControl.sol\":3598:3605  account */\n      dup1\n        /* \"@openzeppelin/contracts/access/AccessControl.sol\":3607:3611  role */\n      dup3\n        /* \"@openzeppelin/contracts/access/AccessControl.sol\":3565:3612  AccessControlUnauthorizedAccount(account, role) */\n      mload(0x40)\n      0xe2517d3f00000000000000000000000000000000000000000000000000000000\n      dup2\n      mstore\n      0x04\n      add\n      tag_483\n      swap3\n      swap2\n      swap1\n      tag_484\n      jump\t// in\n    tag_483:\n      mload(0x40)\n      dup1\n      swap2\n      sub\n      swap1\n      revert\n        /* \"@openzeppelin/contracts/access/AccessControl.sol\":3515:3623  if (!hasRole(role, account)) {... */\n    tag_482:\n        /* \"@openzeppelin/contracts/access/AccessControl.sol\":3432:3629  function _checkRole(bytes32 role, address account) internal view virtual {... */\n      pop\n      pop\n      jump\t// out\n        /* \"@openzeppelin/contracts/token/ERC20/utils/SafeERC20.sol\":4059:4688  function _callOptionalReturn(IERC20 token, bytes memory data) private {... */\n    tag_456:\n        /* \"@openzeppelin/contracts/token/ERC20/utils/SafeERC20.sol\":4478:4501  bytes memory returndata */\n      0x00\n        /* \"@openzeppelin/contracts/token/ERC20/utils/SafeERC20.sol\":4504:4537  address(token).functionCall(data) */\n      tag_486\n        /* \"@openzeppelin/contracts/token/ERC20/utils/SafeERC20.sol\":4532:4536  data */\n      dup3\n        /* \"@openzeppelin/contracts/token/ERC20/utils/SafeERC20.sol\":4512:4517  token */\n      dup5\n        /* \"@openzeppelin/contracts/token/ERC20/utils/SafeERC20.sol\":4504:4531  address(token).functionCall */\n      0xffffffffffffffffffffffffffffffffffffffff\n      and\n      tag_487\n      swap1\n        /* \"@openzeppelin/contracts/token/ERC20/utils/SafeERC20.sol\":4504:4537  address(token).functionCall(data) */\n      swap2\n      swap1\n      0xffffffff\n      and\n      jump\t// in\n    tag_486:\n        /* \"@openzeppelin/contracts/token/ERC20/utils/SafeERC20.sol\":4478:4537  bytes memory returndata = address(token).functionCall(data) */\n      swap1\n      pop\n        /* \"@openzeppelin/contracts/token/ERC20/utils/SafeERC20.sol\":4572:4573  0 */\n      0x00\n        /* \"@openzeppelin/contracts/token/ERC20/utils/SafeERC20.sol\":4551:4561  returndata */\n      dup2\n        /* \"@openzeppelin/contracts/token/ERC20/utils/SafeERC20.sol\":4551:4568  returndata.length */\n      mload\n        /* \"@openzeppelin/contracts/token/ERC20/utils/SafeERC20.sol\":4551:4573  returndata.length != 0 */\n      eq\n      iszero\n        /* \"@openzeppelin/contracts/token/ERC20/utils/SafeERC20.sol\":4551:4608  returndata.length != 0 && !abi.decode(returndata, (bool)) */\n      dup1\n      iszero\n      tag_488\n      jumpi\n      pop\n        /* \"@openzeppelin/contracts/token/ERC20/utils/SafeERC20.sol\":4589:4599  returndata */\n      dup1\n        /* \"@openzeppelin/contracts/token/ERC20/utils/SafeERC20.sol\":4578:4608  abi.decode(returndata, (bool)) */\n      dup1\n      0x20\n      add\n      swap1\n      mload\n      dup2\n      add\n      swap1\n      tag_489\n      swap2\n      swap1\n      tag_490\n      jump\t// in\n    tag_489:\n        /* \"@openzeppelin/contracts/token/ERC20/utils/SafeERC20.sol\":4577:4608  !abi.decode(returndata, (bool)) */\n      iszero\n        /* \"@openzeppelin/contracts/token/ERC20/utils/SafeERC20.sol\":4551:4608  returndata.length != 0 && !abi.decode(returndata, (bool)) */\n    tag_488:\n        /* \"@openzeppelin/contracts/token/ERC20/utils/SafeERC20.sol\":4547:4682  if (returndata.length != 0 && !abi.decode(returndata, (bool))) {... */\n      iszero\n      tag_491\n      jumpi\n        /* \"@openzeppelin/contracts/token/ERC20/utils/SafeERC20.sol\":4664:4669  token */\n      dup3\n        /* \"@openzeppelin/contracts/token/ERC20/utils/SafeERC20.sol\":4631:4671  SafeERC20FailedOperation(address(token)) */\n      mload(0x40)\n      0x5274afe700000000000000000000000000000000000000000000000000000000\n      dup2\n      mstore\n      0x04\n      add\n      tag_492\n      swap2\n      swap1\n      tag_200\n      jump\t// in\n    tag_492:\n      mload(0x40)\n      dup1\n      swap2\n      sub\n      swap1\n      revert\n        /* \"@openzeppelin/contracts/token/ERC20/utils/SafeERC20.sol\":4547:4682  if (returndata.length != 0 && !abi.decode(returndata, (bool))) {... */\n    tag_491:\n        /* \"@openzeppelin/contracts/token/ERC20/utils/SafeERC20.sol\":4129:4688  {... */\n      pop\n        /* \"@openzeppelin/contracts/token/ERC20/utils/SafeERC20.sol\":4059:4688  function _callOptionalReturn(IERC20 token, bytes memory data) private {... */\n      pop\n      pop\n      jump\t// out\n        /* \"@openzeppelin/contracts/token/ERC20/ERC20.sol\":6271:7378  function _update(address from, address to, uint256 value) internal virtual {... */\n    tag_479:\n        /* \"@openzeppelin/contracts/token/ERC20/ERC20.sol\":6376:6377  0 */\n      0x00\n        /* \"@openzeppelin/contracts/token/ERC20/ERC20.sol\":6360:6378  from == address(0) */\n      0xffffffffffffffffffffffffffffffffffffffff\n      and\n        /* \"@openzeppelin/contracts/token/ERC20/ERC20.sol\":6360:6364  from */\n      dup4\n        /* \"@openzeppelin/contracts/token/ERC20/ERC20.sol\":6360:6378  from == address(0) */\n      0xffffffffffffffffffffffffffffffffffffffff\n      and\n      sub\n        /* \"@openzeppelin/contracts/token/ERC20/ERC20.sol\":6356:6896  if (from == address(0)) {... */\n      tag_494\n      jumpi\n        /* \"@openzeppelin/contracts/token/ERC20/ERC20.sol\":6512:6517  value */\n      dup1\n        /* \"@openzeppelin/contracts/token/ERC20/ERC20.sol\":6496:6508  _totalSupply */\n      0x02\n      0x00\n        /* \"@openzeppelin/contracts/token/ERC20/ERC20.sol\":6496:6517  _totalSupply += value */\n      dup3\n      dup3\n      sload\n      tag_495\n      swap2\n      swap1\n      tag_308\n      jump\t// in\n    tag_495:\n      swap3\n      pop\n      pop\n      dup2\n      swap1\n      sstore\n      pop\n        /* \"@openzeppelin/contracts/token/ERC20/ERC20.sol\":6356:6896  if (from == address(0)) {... */\n      jump(tag_496)\n    tag_494:\n        /* \"@openzeppelin/contracts/token/ERC20/ERC20.sol\":6548:6567  uint256 fromBalance */\n      0x00\n        /* \"@openzeppelin/contracts/token/ERC20/ERC20.sol\":6570:6579  _balances */\n      dup1\n        /* \"@openzeppelin/contracts/token/ERC20/ERC20.sol\":6570:6585  _balances[from] */\n      0x00\n        /* \"@openzeppelin/contracts/token/ERC20/ERC20.sol\":6580:6584  from */\n      dup6\n        /* \"@openzeppelin/contracts/token/ERC20/ERC20.sol\":6570:6585  _balances[from] */\n      0xffffffffffffffffffffffffffffffffffffffff\n      and\n      0xffffffffffffffffffffffffffffffffffffffff\n      and\n      dup2\n      mstore\n      0x20\n      add\n      swap1\n      dup2\n      mstore\n      0x20\n      add\n      0x00\n      keccak256\n      sload\n        /* \"@openzeppelin/contracts/token/ERC20/ERC20.sol\":6548:6585  uint256 fromBalance = _balances[from] */\n      swap1\n      pop\n        /* \"@openzeppelin/contracts/token/ERC20/ERC20.sol\":6617:6622  value */\n      dup2\n        /* \"@openzeppelin/contracts/token/ERC20/ERC20.sol\":6603:6614  fromBalance */\n      dup2\n        /* \"@openzeppelin/contracts/token/ERC20/ERC20.sol\":6603:6622  fromBalance < value */\n      lt\n        /* \"@openzeppelin/contracts/token/ERC20/ERC20.sol\":6599:6714  if (fromBalance < value) {... */\n      iszero\n      tag_497\n      jumpi\n        /* \"@openzeppelin/contracts/token/ERC20/ERC20.sol\":6674:6678  from */\n      dup4\n        /* \"@openzeppelin/contracts/token/ERC20/ERC20.sol\":6680:6691  fromBalance */\n      dup2\n        /* \"@openzeppelin/contracts/token/ERC20/ERC20.sol\":6693:6698  value */\n      dup4\n        /* \"@openzeppelin/contracts/token/ERC20/ERC20.sol\":6649:6699  ERC20InsufficientBalance(from, fromBalance, value) */\n      mload(0x40)\n      0xe450d38c00000000000000000000000000000000000000000000000000000000\n      dup2\n      mstore\n      0x04\n      add\n      tag_498\n      swap4\n      swap3\n      swap2\n      swap1\n      tag_499\n      jump\t// in\n    tag_498:\n      mload(0x40)\n      dup1\n      swap2\n      sub\n      swap1\n      revert\n        /* \"@openzeppelin/contracts/token/ERC20/ERC20.sol\":6599:6714  if (fromBalance < value) {... */\n    tag_497:\n        /* \"@openzeppelin/contracts/token/ERC20/ERC20.sol\":6866:6871  value */\n      dup2\n        /* \"@openzeppelin/contracts/token/ERC20/ERC20.sol\":6852:6863  fromBalance */\n      dup2\n        /* \"@openzeppelin/contracts/token/ERC20/ERC20.sol\":6852:6871  fromBalance - value */\n      sub\n        /* \"@openzeppelin/contracts/token/ERC20/ERC20.sol\":6834:6843  _balances */\n      0x00\n        /* \"@openzeppelin/contracts/token/ERC20/ERC20.sol\":6834:6849  _balances[from] */\n      dup1\n        /* \"@openzeppelin/contracts/token/ERC20/ERC20.sol\":6844:6848  from */\n      dup7\n        /* \"@openzeppelin/contracts/token/ERC20/ERC20.sol\":6834:6849  _balances[from] */\n      0xffffffffffffffffffffffffffffffffffffffff\n      and\n      0xffffffffffffffffffffffffffffffffffffffff\n      and\n      dup2\n      mstore\n      0x20\n      add\n      swap1\n      dup2\n      mstore\n      0x20\n      add\n      0x00\n      keccak256\n        /* \"@openzeppelin/contracts/token/ERC20/ERC20.sol\":6834:6871  _balances[from] = fromBalance - value */\n      dup2\n      swap1\n      sstore\n      pop\n        /* \"@openzeppelin/contracts/token/ERC20/ERC20.sol\":6534:6896  {... */\n      pop\n        /* \"@openzeppelin/contracts/token/ERC20/ERC20.sol\":6356:6896  if (from == address(0)) {... */\n    tag_496:\n        /* \"@openzeppelin/contracts/token/ERC20/ERC20.sol\":6924:6925  0 */\n      0x00\n        /* \"@openzeppelin/contracts/token/ERC20/ERC20.sol\":6910:6926  to == address(0) */\n      0xffffffffffffffffffffffffffffffffffffffff\n      and\n        /* \"@openzeppelin/contracts/token/ERC20/ERC20.sol\":6910:6912  to */\n      dup3\n        /* \"@openzeppelin/contracts/token/ERC20/ERC20.sol\":6910:6926  to == address(0) */\n      0xffffffffffffffffffffffffffffffffffffffff\n      and\n      sub\n        /* \"@openzeppelin/contracts/token/ERC20/ERC20.sol\":6906:7331  if (to == address(0)) {... */\n      tag_500\n      jumpi\n        /* \"@openzeppelin/contracts/token/ERC20/ERC20.sol\":7089:7094  value */\n      dup1\n        /* \"@openzeppelin/contracts/token/ERC20/ERC20.sol\":7073:7085  _totalSupply */\n      0x02\n      0x00\n        /* \"@openzeppelin/contracts/token/ERC20/ERC20.sol\":7073:7094  _totalSupply -= value */\n      dup3\n      dup3\n      sload\n      sub\n      swap3\n      pop\n      pop\n      dup2\n      swap1\n      sstore\n      pop\n        /* \"@openzeppelin/contracts/token/ERC20/ERC20.sol\":6906:7331  if (to == address(0)) {... */\n      jump(tag_501)\n    tag_500:\n        /* \"@openzeppelin/contracts/token/ERC20/ERC20.sol\":7301:7306  value */\n      dup1\n        /* \"@openzeppelin/contracts/token/ERC20/ERC20.sol\":7284:7293  _balances */\n      0x00\n        /* \"@openzeppelin/contracts/token/ERC20/ERC20.sol\":7284:7297  _balances[to] */\n      dup1\n        /* \"@openzeppelin/contracts/token/ERC20/ERC20.sol\":7294:7296  to */\n      dup5\n        /* \"@openzeppelin/contracts/token/ERC20/ERC20.sol\":7284:7297  _balances[to] */\n      0xffffffffffffffffffffffffffffffffffffffff\n      and\n      0xffffffffffffffffffffffffffffffffffffffff\n      and\n      dup2\n      mstore\n      0x20\n      add\n      swap1\n      dup2\n      mstore\n      0x20\n      add\n      0x00\n      keccak256\n      0x00\n        /* \"@openzeppelin/contracts/token/ERC20/ERC20.sol\":7284:7306  _balances[to] += value */\n      dup3\n      dup3\n      sload\n      add\n      swap3\n      pop\n      pop\n      dup2\n      swap1\n      sstore\n      pop\n        /* \"@openzeppelin/contracts/token/ERC20/ERC20.sol\":6906:7331  if (to == address(0)) {... */\n    tag_501:\n        /* \"@openzeppelin/contracts/token/ERC20/ERC20.sol\":7361:7363  to */\n      dup2\n        /* \"@openzeppelin/contracts/token/ERC20/ERC20.sol\":7346:7371  Transfer(from, to, value) */\n      0xffffffffffffffffffffffffffffffffffffffff\n      and\n        /* \"@openzeppelin/contracts/token/ERC20/ERC20.sol\":7355:7359  from */\n      dup4\n        /* \"@openzeppelin/contracts/token/ERC20/ERC20.sol\":7346:7371  Transfer(from, to, value) */\n      0xffffffffffffffffffffffffffffffffffffffff\n      and\n      0xddf252ad1be2c89b69c2b068fc378daa952ba7f163c4a11628f55a4df523b3ef\n        /* \"@openzeppelin/contracts/token/ERC20/ERC20.sol\":7365:7370  value */\n      dup4\n        /* \"@openzeppelin/contracts/token/ERC20/ERC20.sol\":7346:7371  Transfer(from, to, value) */\n      mload(0x40)\n      tag_502\n      swap2\n      swap1\n      tag_73\n      jump\t// in\n    tag_502:\n      mload(0x40)\n      dup1\n      swap2\n      sub\n      swap1\n      log3\n        /* \"@openzeppelin/contracts/token/ERC20/ERC20.sol\":6271:7378  function _update(address from, address to, uint256 value) internal virtual {... */\n      pop\n      pop\n      pop\n      jump\t// out\n        /* \"@openzeppelin/contracts/utils/Address.sol\":2705:2856  function functionCall(address target, bytes memory data) internal returns (bytes memory) {... */\n    tag_487:\n        /* \"@openzeppelin/contracts/utils/Address.sol\":2780:2792  bytes memory */\n      0x60\n        /* \"@openzeppelin/contracts/utils/Address.sol\":2811:2849  functionCallWithValue(target, data, 0) */\n      tag_504\n        /* \"@openzeppelin/contracts/utils/Address.sol\":2833:2839  target */\n      dup4\n        /* \"@openzeppelin/contracts/utils/Address.sol\":2841:2845  data */\n      dup4\n        /* \"@openzeppelin/contracts/utils/Address.sol\":2847:2848  0 */\n      0x00\n        /* \"@openzeppelin/contracts/utils/Address.sol\":2811:2832  functionCallWithValue */\n      tag_505\n        /* \"@openzeppelin/contracts/utils/Address.sol\":2811:2849  functionCallWithValue(target, data, 0) */\n      jump\t// in\n    tag_504:\n        /* \"@openzeppelin/contracts/utils/Address.sol\":2804:2849  return functionCallWithValue(target, data, 0) */\n      swap1\n      pop\n        /* \"@openzeppelin/contracts/utils/Address.sol\":2705:2856  function functionCall(address target, bytes memory data) internal returns (bytes memory) {... */\n      swap3\n      swap2\n      pop\n      pop\n      jump\t// out\n        /* \"@openzeppelin/contracts/utils/Address.sol\":3180:3572  function functionCallWithValue(address target, bytes memory data, uint256 value) internal returns (bytes memory) {... */\n    tag_505:\n        /* \"@openzeppelin/contracts/utils/Address.sol\":3279:3291  bytes memory */\n      0x60\n        /* \"@openzeppelin/contracts/utils/Address.sol\":3331:3336  value */\n      dup2\n        /* \"@openzeppelin/contracts/utils/Address.sol\":3307:3328  address(this).balance */\n      selfbalance\n        /* \"@openzeppelin/contracts/utils/Address.sol\":3307:3336  address(this).balance < value */\n      lt\n        /* \"@openzeppelin/contracts/utils/Address.sol\":3303:3411  if (address(this).balance < value) {... */\n      iszero\n      tag_507\n      jumpi\n        /* \"@openzeppelin/contracts/utils/Address.sol\":3394:3398  this */\n      address\n        /* \"@openzeppelin/contracts/utils/Address.sol\":3359:3400  AddressInsufficientBalance(address(this)) */\n      mload(0x40)\n      0xcd78605900000000000000000000000000000000000000000000000000000000\n      dup2\n      mstore\n      0x04\n      add\n      tag_508\n      swap2\n      swap1\n      tag_200\n      jump\t// in\n    tag_508:\n      mload(0x40)\n      dup1\n      swap2\n      sub\n      swap1\n      revert\n        /* \"@openzeppelin/contracts/utils/Address.sol\":3303:3411  if (address(this).balance < value) {... */\n    tag_507:\n        /* \"@openzeppelin/contracts/utils/Address.sol\":3421:3433  bool success */\n      0x00\n        /* \"@openzeppelin/contracts/utils/Address.sol\":3435:3458  bytes memory returndata */\n      dup1\n        /* \"@openzeppelin/contracts/utils/Address.sol\":3462:3468  target */\n      dup6\n        /* \"@openzeppelin/contracts/utils/Address.sol\":3462:3473  target.call */\n      0xffffffffffffffffffffffffffffffffffffffff\n      and\n        /* \"@openzeppelin/contracts/utils/Address.sol\":3481:3486  value */\n      dup5\n        /* \"@openzeppelin/contracts/utils/Address.sol\":3488:3492  data */\n      dup7\n        /* \"@openzeppelin/contracts/utils/Address.sol\":3462:3493  target.call{value: value}(data) */\n      mload(0x40)\n      tag_509\n      swap2\n      swap1\n      tag_510\n      jump\t// in\n    tag_509:\n      0x00\n      mload(0x40)\n      dup1\n      dup4\n      sub\n      dup2\n      dup6\n      dup8\n      gas\n      call\n      swap3\n      pop\n      pop\n      pop\n      returndatasize\n      dup1\n      0x00\n      dup2\n      eq\n      tag_513\n      jumpi\n      mload(0x40)\n      swap2\n      pop\n      and(add(returndatasize, 0x3f), not(0x1f))\n      dup3\n      add\n      0x40\n      mstore\n      returndatasize\n      dup3\n      mstore\n      returndatasize\n      0x00\n      0x20\n      dup5\n      add\n      returndatacopy\n      jump(tag_512)\n    tag_513:\n      0x60\n      swap2\n      pop\n    tag_512:\n      pop\n        /* \"@openzeppelin/contracts/utils/Address.sol\":3420:3493  (bool success, bytes memory returndata) = target.call{value: value}(data) */\n      swap2\n      pop\n      swap2\n      pop\n        /* \"@openzeppelin/contracts/utils/Address.sol\":3510:3565  verifyCallResultFromTarget(target, success, returndata) */\n      tag_514\n        /* \"@openzeppelin/contracts/utils/Address.sol\":3537:3543  target */\n      dup7\n        /* \"@openzeppelin/contracts/utils/Address.sol\":3545:3552  success */\n      dup4\n        /* \"@openzeppelin/contracts/utils/Address.sol\":3554:3564  returndata */\n      dup4\n        /* \"@openzeppelin/contracts/utils/Address.sol\":3510:3536  verifyCallResultFromTarget */\n      tag_515\n        /* \"@openzeppelin/contracts/utils/Address.sol\":3510:3565  verifyCallResultFromTarget(target, success, returndata) */\n      jump\t// in\n    tag_514:\n        /* \"@openzeppelin/contracts/utils/Address.sol\":3503:3565  return verifyCallResultFromTarget(target, success, returndata) */\n      swap3\n      pop\n      pop\n      pop\n        /* \"@openzeppelin/contracts/utils/Address.sol\":3180:3572  function functionCallWithValue(address target, bytes memory data, uint256 value) internal returns (bytes memory) {... */\n      swap4\n      swap3\n      pop\n      pop\n      pop\n      jump\t// out\n        /* \"@openzeppelin/contracts/utils/Address.sol\":4625:5207  function verifyCallResultFromTarget(... */\n    tag_515:\n        /* \"@openzeppelin/contracts/utils/Address.sol\":4769:4781  bytes memory */\n      0x60\n        /* \"@openzeppelin/contracts/utils/Address.sol\":4798:4805  success */\n      dup3\n        /* \"@openzeppelin/contracts/utils/Address.sol\":4793:5201  if (!success) {... */\n      tag_517\n      jumpi\n        /* \"@openzeppelin/contracts/utils/Address.sol\":4821:4840  _revert(returndata) */\n      tag_518\n        /* \"@openzeppelin/contracts/utils/Address.sol\":4829:4839  returndata */\n      dup3\n        /* \"@openzeppelin/contracts/utils/Address.sol\":4821:4828  _revert */\n      tag_519\n        /* \"@openzeppelin/contracts/utils/Address.sol\":4821:4840  _revert(returndata) */\n      jump\t// in\n    tag_518:\n        /* \"@openzeppelin/contracts/utils/Address.sol\":4793:5201  if (!success) {... */\n      jump(tag_520)\n    tag_517:\n        /* \"@openzeppelin/contracts/utils/Address.sol\":5066:5067  0 */\n      0x00\n        /* \"@openzeppelin/contracts/utils/Address.sol\":5045:5055  returndata */\n      dup3\n        /* \"@openzeppelin/contracts/utils/Address.sol\":5045:5062  returndata.length */\n      mload\n        /* \"@openzeppelin/contracts/utils/Address.sol\":5045:5067  returndata.length == 0 */\n      eq\n        /* \"@openzeppelin/contracts/utils/Address.sol\":5045:5094  returndata.length == 0 && target.code.length == 0 */\n      dup1\n      iszero\n      tag_521\n      jumpi\n      pop\n        /* \"@openzeppelin/contracts/utils/Address.sol\":5093:5094  0 */\n      0x00\n        /* \"@openzeppelin/contracts/utils/Address.sol\":5071:5077  target */\n      dup5\n        /* \"@openzeppelin/contracts/utils/Address.sol\":5071:5089  target.code.length */\n      0xffffffffffffffffffffffffffffffffffffffff\n      and\n      extcodesize\n        /* \"@openzeppelin/contracts/utils/Address.sol\":5071:5094  target.code.length == 0 */\n      eq\n        /* \"@openzeppelin/contracts/utils/Address.sol\":5045:5094  returndata.length == 0 && target.code.length == 0 */\n    tag_521:\n        /* \"@openzeppelin/contracts/utils/Address.sol\":5041:5160  if (returndata.length == 0 && target.code.length == 0) {... */\n      iszero\n      tag_522\n      jumpi\n        /* \"@openzeppelin/contracts/utils/Address.sol\":5138:5144  target */\n      dup4\n        /* \"@openzeppelin/contracts/utils/Address.sol\":5121:5145  AddressEmptyCode(target) */\n      mload(0x40)\n      0x9996b31500000000000000000000000000000000000000000000000000000000\n      dup2\n      mstore\n      0x04\n      add\n      tag_523\n      swap2\n      swap1\n      tag_200\n      jump\t// in\n    tag_523:\n      mload(0x40)\n      dup1\n      swap2\n      sub\n      swap1\n      revert\n        /* \"@openzeppelin/contracts/utils/Address.sol\":5041:5160  if (returndata.length == 0 && target.code.length == 0) {... */\n    tag_522:\n        /* \"@openzeppelin/contracts/utils/Address.sol\":5180:5190  returndata */\n      dup2\n        /* \"@openzeppelin/contracts/utils/Address.sol\":5173:5190  return returndata */\n      swap1\n      pop\n      jump(tag_516)\n        /* \"@openzeppelin/contracts/utils/Address.sol\":4793:5201  if (!success) {... */\n    tag_520:\n        /* \"@openzeppelin/contracts/utils/Address.sol\":4625:5207  function verifyCallResultFromTarget(... */\n    tag_516:\n      swap4\n      swap3\n      pop\n      pop\n      pop\n      jump\t// out\n        /* \"@openzeppelin/contracts/utils/Address.sol\":5743:6259  function _revert(bytes memory returndata) private pure {... */\n    tag_519:\n        /* \"@openzeppelin/contracts/utils/Address.sol\":5894:5895  0 */\n      0x00\n        /* \"@openzeppelin/contracts/utils/Address.sol\":5874:5884  returndata */\n      dup2\n        /* \"@openzeppelin/contracts/utils/Address.sol\":5874:5891  returndata.length */\n      mload\n        /* \"@openzeppelin/contracts/utils/Address.sol\":5874:5895  returndata.length > 0 */\n      gt\n        /* \"@openzeppelin/contracts/utils/Address.sol\":5870:6253  if (returndata.length > 0) {... */\n      iszero\n      tag_525\n      jumpi\n        /* \"@openzeppelin/contracts/utils/Address.sol\":6102:6112  returndata */\n      dup1\n        /* \"@openzeppelin/contracts/utils/Address.sol\":6096:6113  mload(returndata) */\n      mload\n        /* \"@openzeppelin/contracts/utils/Address.sol\":6158:6173  returndata_size */\n      dup1\n        /* \"@openzeppelin/contracts/utils/Address.sol\":6145:6155  returndata */\n      dup3\n        /* \"@openzeppelin/contracts/utils/Address.sol\":6141:6143  32 */\n      0x20\n        /* \"@openzeppelin/contracts/utils/Address.sol\":6137:6156  add(32, returndata) */\n      add\n        /* \"@openzeppelin/contracts/utils/Address.sol\":6130:6174  revert(add(32, returndata), returndata_size) */\n      revert\n        /* \"@openzeppelin/contracts/utils/Address.sol\":5870:6253  if (returndata.length > 0) {... */\n    tag_525:\n        /* \"@openzeppelin/contracts/utils/Address.sol\":6225:6242  FailedInnerCall() */\n      mload(0x40)\n      0x1425ea4200000000000000000000000000000000000000000000000000000000\n      dup2\n      mstore\n      0x04\n      add\n      mload(0x40)\n      dup1\n      swap2\n      sub\n      swap1\n      revert\n        /* \"#utility.yul\":88:205   */\n    tag_528:\n        /* \"#utility.yul\":197:198   */\n      0x00\n        /* \"#utility.yul\":194:195   */\n      dup1\n        /* \"#utility.yul\":187:199   */\n      revert\n        /* \"#utility.yul\":334:483   */\n    tag_530:\n        /* \"#utility.yul\":370:377   */\n      0x00\n        /* \"#utility.yul\":410:476   */\n      0xffffffff00000000000000000000000000000000000000000000000000000000\n        /* \"#utility.yul\":403:408   */\n      dup3\n        /* \"#utility.yul\":399:477   */\n      and\n        /* \"#utility.yul\":388:477   */\n      swap1\n      pop\n        /* \"#utility.yul\":334:483   */\n      swap2\n      swap1\n      pop\n      jump\t// out\n        /* \"#utility.yul\":489:609   */\n    tag_531:\n        /* \"#utility.yul\":561:584   */\n      tag_612\n        /* \"#utility.yul\":578:583   */\n      dup2\n        /* \"#utility.yul\":561:584   */\n      tag_530\n      jump\t// in\n    tag_612:\n        /* \"#utility.yul\":554:559   */\n      dup2\n        /* \"#utility.yul\":551:585   */\n      eq\n        /* \"#utility.yul\":541:603   */\n      tag_613\n      jumpi\n        /* \"#utility.yul\":599:600   */\n      0x00\n        /* \"#utility.yul\":596:597   */\n      dup1\n        /* \"#utility.yul\":589:601   */\n      revert\n        /* \"#utility.yul\":541:603   */\n    tag_613:\n        /* \"#utility.yul\":489:609   */\n      pop\n      jump\t// out\n        /* \"#utility.yul\":615:752   */\n    tag_532:\n        /* \"#utility.yul\":660:665   */\n      0x00\n        /* \"#utility.yul\":698:704   */\n      dup2\n        /* \"#utility.yul\":685:705   */\n      calldataload\n        /* \"#utility.yul\":676:705   */\n      swap1\n      pop\n        /* \"#utility.yul\":714:746   */\n      tag_615\n        /* \"#utility.yul\":740:745   */\n      dup2\n        /* \"#utility.yul\":714:746   */\n      tag_531\n      jump\t// in\n    tag_615:\n        /* \"#utility.yul\":615:752   */\n      swap3\n      swap2\n      pop\n      pop\n      jump\t// out\n        /* \"#utility.yul\":758:1085   */\n    tag_53:\n        /* \"#utility.yul\":816:822   */\n      0x00\n        /* \"#utility.yul\":865:867   */\n      0x20\n        /* \"#utility.yul\":853:862   */\n      dup3\n        /* \"#utility.yul\":844:851   */\n      dup5\n        /* \"#utility.yul\":840:863   */\n      sub\n        /* \"#utility.yul\":836:868   */\n      slt\n        /* \"#utility.yul\":833:952   */\n      iszero\n      tag_617\n      jumpi\n        /* \"#utility.yul\":871:950   */\n      tag_618\n      tag_528\n      jump\t// in\n    tag_618:\n        /* \"#utility.yul\":833:952   */\n    tag_617:\n        /* \"#utility.yul\":991:992   */\n      0x00\n        /* \"#utility.yul\":1016:1068   */\n      tag_619\n        /* \"#utility.yul\":1060:1067   */\n      dup5\n        /* \"#utility.yul\":1051:1057   */\n      dup3\n        /* \"#utility.yul\":1040:1049   */\n      dup6\n        /* \"#utility.yul\":1036:1058   */\n      add\n        /* \"#utility.yul\":1016:1068   */\n      tag_532\n      jump\t// in\n    tag_619:\n        /* \"#utility.yul\":1006:1068   */\n      swap2\n      pop\n        /* \"#utility.yul\":962:1078   */\n      pop\n        /* \"#utility.yul\":758:1085   */\n      swap3\n      swap2\n      pop\n      pop\n      jump\t// out\n        /* \"#utility.yul\":1091:1181   */\n    tag_533:\n        /* \"#utility.yul\":1125:1132   */\n      0x00\n        /* \"#utility.yul\":1168:1173   */\n      dup2\n        /* \"#utility.yul\":1161:1174   */\n      iszero\n        /* \"#utility.yul\":1154:1175   */\n      iszero\n        /* \"#utility.yul\":1143:1175   */\n      swap1\n      pop\n        /* \"#utility.yul\":1091:1181   */\n      swap2\n      swap1\n      pop\n      jump\t// out\n        /* \"#utility.yul\":1187:1296   */\n    tag_534:\n        /* \"#utility.yul\":1268:1289   */\n      tag_622\n        /* \"#utility.yul\":1283:1288   */\n      dup2\n        /* \"#utility.yul\":1268:1289   */\n      tag_533\n      jump\t// in\n    tag_622:\n        /* \"#utility.yul\":1263:1266   */\n      dup3\n        /* \"#utility.yul\":1256:1290   */\n      mstore\n        /* \"#utility.yul\":1187:1296   */\n      pop\n      pop\n      jump\t// out\n        /* \"#utility.yul\":1302:1512   */\n    tag_56:\n        /* \"#utility.yul\":1389:1393   */\n      0x00\n        /* \"#utility.yul\":1427:1429   */\n      0x20\n        /* \"#utility.yul\":1416:1425   */\n      dup3\n        /* \"#utility.yul\":1412:1430   */\n      add\n        /* \"#utility.yul\":1404:1430   */\n      swap1\n      pop\n        /* \"#utility.yul\":1440:1505   */\n      tag_624\n        /* \"#utility.yul\":1502:1503   */\n      0x00\n        /* \"#utility.yul\":1491:1500   */\n      dup4\n        /* \"#utility.yul\":1487:1504   */\n      add\n        /* \"#utility.yul\":1478:1484   */\n      dup5\n        /* \"#utility.yul\":1440:1505   */\n      tag_534\n      jump\t// in\n    tag_624:\n        /* \"#utility.yul\":1302:1512   */\n      swap3\n      swap2\n      pop\n      pop\n      jump\t// out\n        /* \"#utility.yul\":1518:1617   */\n    tag_535:\n        /* \"#utility.yul\":1570:1576   */\n      0x00\n        /* \"#utility.yul\":1604:1609   */\n      dup2\n        /* \"#utility.yul\":1598:1610   */\n      mload\n        /* \"#utility.yul\":1588:1610   */\n      swap1\n      pop\n        /* \"#utility.yul\":1518:1617   */\n      swap2\n      swap1\n      pop\n      jump\t// out\n        /* \"#utility.yul\":1623:1792   */\n    tag_536:\n        /* \"#utility.yul\":1707:1718   */\n      0x00\n        /* \"#utility.yul\":1741:1747   */\n      dup3\n        /* \"#utility.yul\":1736:1739   */\n      dup3\n        /* \"#utility.yul\":1729:1748   */\n      mstore\n        /* \"#utility.yul\":1781:1785   */\n      0x20\n        /* \"#utility.yul\":1776:1779   */\n      dup3\n        /* \"#utility.yul\":1772:1786   */\n      add\n        /* \"#utility.yul\":1757:1786   */\n      swap1\n      pop\n        /* \"#utility.yul\":1623:1792   */\n      swap3\n      swap2\n      pop\n      pop\n      jump\t// out\n        /* \"#utility.yul\":1798:1937   */\n    tag_537:\n        /* \"#utility.yul\":1887:1893   */\n      dup3\n        /* \"#utility.yul\":1882:1885   */\n      dup2\n        /* \"#utility.yul\":1877:1880   */\n      dup4\n        /* \"#utility.yul\":1871:1894   */\n      mcopy\n        /* \"#utility.yul\":1928:1929   */\n      0x00\n        /* \"#utility.yul\":1919:1925   */\n      dup4\n        /* \"#utility.yul\":1914:1917   */\n      dup4\n        /* \"#utility.yul\":1910:1926   */\n      add\n        /* \"#utility.yul\":1903:1930   */\n      mstore\n        /* \"#utility.yul\":1798:1937   */\n      pop\n      pop\n      pop\n      jump\t// out\n        /* \"#utility.yul\":1943:2045   */\n    tag_538:\n        /* \"#utility.yul\":1984:1990   */\n      0x00\n        /* \"#utility.yul\":2035:2037   */\n      0x1f\n        /* \"#utility.yul\":2031:2038   */\n      not\n        /* \"#utility.yul\":2026:2028   */\n      0x1f\n        /* \"#utility.yul\":2019:2024   */\n      dup4\n        /* \"#utility.yul\":2015:2029   */\n      add\n        /* \"#utility.yul\":2011:2039   */\n      and\n        /* \"#utility.yul\":2001:2039   */\n      swap1\n      pop\n        /* \"#utility.yul\":1943:2045   */\n      swap2\n      swap1\n      pop\n      jump\t// out\n        /* \"#utility.yul\":2051:2428   */\n    tag_539:\n        /* \"#utility.yul\":2139:2142   */\n      0x00\n        /* \"#utility.yul\":2167:2206   */\n      tag_630\n        /* \"#utility.yul\":2200:2205   */\n      dup3\n        /* \"#utility.yul\":2167:2206   */\n      tag_535\n      jump\t// in\n    tag_630:\n        /* \"#utility.yul\":2222:2293   */\n      tag_631\n        /* \"#utility.yul\":2286:2292   */\n      dup2\n        /* \"#utility.yul\":2281:2284   */\n      dup6\n        /* \"#utility.yul\":2222:2293   */\n      tag_536\n      jump\t// in\n    tag_631:\n        /* \"#utility.yul\":2215:2293   */\n      swap4\n      pop\n        /* \"#utility.yul\":2302:2367   */\n      tag_632\n        /* \"#utility.yul\":2360:2366   */\n      dup2\n        /* \"#utility.yul\":2355:2358   */\n      dup6\n        /* \"#utility.yul\":2348:2352   */\n      0x20\n        /* \"#utility.yul\":2341:2346   */\n      dup7\n        /* \"#utility.yul\":2337:2353   */\n      add\n        /* \"#utility.yul\":2302:2367   */\n      tag_537\n      jump\t// in\n    tag_632:\n        /* \"#utility.yul\":2392:2421   */\n      tag_633\n        /* \"#utility.yul\":2414:2420   */\n      dup2\n        /* \"#utility.yul\":2392:2421   */\n      tag_538\n      jump\t// in\n    tag_633:\n        /* \"#utility.yul\":2387:2390   */\n      dup5\n        /* \"#utility.yul\":2383:2422   */\n      add\n        /* \"#utility.yul\":2376:2422   */\n      swap2\n      pop\n        /* \"#utility.yul\":2143:2428   */\n      pop\n        /* \"#utility.yul\":2051:2428   */\n      swap3\n      swap2\n      pop\n      pop\n      jump\t// out\n        /* \"#utility.yul\":2434:2747   */\n    tag_60:\n        /* \"#utility.yul\":2547:2551   */\n      0x00\n        /* \"#utility.yul\":2585:2587   */\n      0x20\n        /* \"#utility.yul\":2574:2583   */\n      dup3\n        /* \"#utility.yul\":2570:2588   */\n      add\n        /* \"#utility.yul\":2562:2588   */\n      swap1\n      pop\n        /* \"#utility.yul\":2634:2643   */\n      dup2\n        /* \"#utility.yul\":2628:2632   */\n      dup2\n        /* \"#utility.yul\":2624:2644   */\n      sub\n        /* \"#utility.yul\":2620:2621   */\n      0x00\n        /* \"#utility.yul\":2609:2618   */\n      dup4\n        /* \"#utility.yul\":2605:2622   */\n      add\n        /* \"#utility.yul\":2598:2645   */\n      mstore\n        /* \"#utility.yul\":2662:2740   */\n      tag_635\n        /* \"#utility.yul\":2735:2739   */\n      dup2\n        /* \"#utility.yul\":2726:2732   */\n      dup5\n        /* \"#utility.yul\":2662:2740   */\n      tag_539\n      jump\t// in\n    tag_635:\n        /* \"#utility.yul\":2654:2740   */\n      swap1\n      pop\n        /* \"#utility.yul\":2434:2747   */\n      swap3\n      swap2\n      pop\n      pop\n      jump\t// out\n        /* \"#utility.yul\":2753:2879   */\n    tag_540:\n        /* \"#utility.yul\":2790:2797   */\n      0x00\n        /* \"#utility.yul\":2830:2872   */\n      0xffffffffffffffffffffffffffffffffffffffff\n        /* \"#utility.yul\":2823:2828   */\n      dup3\n        /* \"#utility.yul\":2819:2873   */\n      and\n        /* \"#utility.yul\":2808:2873   */\n      swap1\n      pop\n        /* \"#utility.yul\":2753:2879   */\n      swap2\n      swap1\n      pop\n      jump\t// out\n        /* \"#utility.yul\":2885:2981   */\n    tag_541:\n        /* \"#utility.yul\":2922:2929   */\n      0x00\n        /* \"#utility.yul\":2951:2975   */\n      tag_638\n        /* \"#utility.yul\":2969:2974   */\n      dup3\n        /* \"#utility.yul\":2951:2975   */\n      tag_540\n      jump\t// in\n    tag_638:\n        /* \"#utility.yul\":2940:2975   */\n      swap1\n      pop\n        /* \"#utility.yul\":2885:2981   */\n      swap2\n      swap1\n      pop\n      jump\t// out\n        /* \"#utility.yul\":2987:3109   */\n    tag_542:\n        /* \"#utility.yul\":3060:3084   */\n      tag_640\n        /* \"#utility.yul\":3078:3083   */\n      dup2\n        /* \"#utility.yul\":3060:3084   */\n      tag_541\n      jump\t// in\n    tag_640:\n        /* \"#utility.yul\":3053:3058   */\n      dup2\n        /* \"#utility.yul\":3050:3085   */\n      eq\n        /* \"#utility.yul\":3040:3103   */\n      tag_641\n      jumpi\n        /* \"#utility.yul\":3099:3100   */\n      0x00\n        /* \"#utility.yul\":3096:3097   */\n      dup1\n        /* \"#utility.yul\":3089:3101   */\n      revert\n        /* \"#utility.yul\":3040:3103   */\n    tag_641:\n        /* \"#utility.yul\":2987:3109   */\n      pop\n      jump\t// out\n        /* \"#utility.yul\":3115:3254   */\n    tag_543:\n        /* \"#utility.yul\":3161:3166   */\n      0x00\n        /* \"#utility.yul\":3199:3205   */\n      dup2\n        /* \"#utility.yul\":3186:3206   */\n      calldataload\n        /* \"#utility.yul\":3177:3206   */\n      swap1\n      pop\n        /* \"#utility.yul\":3215:3248   */\n      tag_643\n        /* \"#utility.yul\":3242:3247   */\n      dup2\n        /* \"#utility.yul\":3215:3248   */\n      tag_542\n      jump\t// in\n    tag_643:\n        /* \"#utility.yul\":3115:3254   */\n      swap3\n      swap2\n      pop\n      pop\n      jump\t// out\n        /* \"#utility.yul\":3260:3337   */\n    tag_544:\n        /* \"#utility.yul\":3297:3304   */\n      0x00\n        /* \"#utility.yul\":3326:3331   */\n      dup2\n        /* \"#utility.yul\":3315:3331   */\n      swap1\n      pop\n        /* \"#utility.yul\":3260:3337   */\n      swap2\n      swap1\n      pop\n      jump\t// out\n        /* \"#utility.yul\":3343:3465   */\n    tag_545:\n        /* \"#utility.yul\":3416:3440   */\n      tag_646\n        /* \"#utility.yul\":3434:3439   */\n      dup2\n        /* \"#utility.yul\":3416:3440   */\n      tag_544\n      jump\t// in\n    tag_646:\n        /* \"#utility.yul\":3409:3414   */\n      dup2\n        /* \"#utility.yul\":3406:3441   */\n      eq\n        /* \"#utility.yul\":3396:3459   */\n      tag_647\n      jumpi\n        /* \"#utility.yul\":3455:3456   */\n      0x00\n        /* \"#utility.yul\":3452:3453   */\n      dup1\n        /* \"#utility.yul\":3445:3457   */\n      revert\n        /* \"#utility.yul\":3396:3459   */\n    tag_647:\n        /* \"#utility.yul\":3343:3465   */\n      pop\n      jump\t// out\n        /* \"#utility.yul\":3471:3610   */\n    tag_546:\n        /* \"#utility.yul\":3517:3522   */\n      0x00\n        /* \"#utility.yul\":3555:3561   */\n      dup2\n        /* \"#utility.yul\":3542:3562   */\n      calldataload\n        /* \"#utility.yul\":3533:3562   */\n      swap1\n      pop\n        /* \"#utility.yul\":3571:3604   */\n      tag_649\n        /* \"#utility.yul\":3598:3603   */\n      dup2\n        /* \"#utility.yul\":3571:3604   */\n      tag_545\n      jump\t// in\n    tag_649:\n        /* \"#utility.yul\":3471:3610   */\n      swap3\n      swap2\n      pop\n      pop\n      jump\t// out\n        /* \"#utility.yul\":3616:4090   */\n    tag_63:\n        /* \"#utility.yul\":3684:3690   */\n      0x00\n        /* \"#utility.yul\":3692:3698   */\n      dup1\n        /* \"#utility.yul\":3741:3743   */\n      0x40\n        /* \"#utility.yul\":3729:3738   */\n      dup4\n        /* \"#utility.yul\":3720:3727   */\n      dup6\n        /* \"#utility.yul\":3716:3739   */\n      sub\n        /* \"#utility.yul\":3712:3744   */\n      slt\n        /* \"#utility.yul\":3709:3828   */\n      iszero\n      tag_651\n      jumpi\n        /* \"#utility.yul\":3747:3826   */\n      tag_652\n      tag_528\n      jump\t// in\n    tag_652:\n        /* \"#utility.yul\":3709:3828   */\n    tag_651:\n        /* \"#utility.yul\":3867:3868   */\n      0x00\n        /* \"#utility.yul\":3892:3945   */\n      tag_653\n        /* \"#utility.yul\":3937:3944   */\n      dup6\n        /* \"#utility.yul\":3928:3934   */\n      dup3\n        /* \"#utility.yul\":3917:3926   */\n      dup7\n        /* \"#utility.yul\":3913:3935   */\n      add\n        /* \"#utility.yul\":3892:3945   */\n      tag_543\n      jump\t// in\n    tag_653:\n        /* \"#utility.yul\":3882:3945   */\n      swap3\n      pop\n        /* \"#utility.yul\":3838:3955   */\n      pop\n        /* \"#utility.yul\":3994:3996   */\n      0x20\n        /* \"#utility.yul\":4020:4073   */\n      tag_654\n        /* \"#utility.yul\":4065:4072   */\n      dup6\n        /* \"#utility.yul\":4056:4062   */\n      dup3\n        /* \"#utility.yul\":4045:4054   */\n      dup7\n        /* \"#utility.yul\":4041:4063   */\n      add\n        /* \"#utility.yul\":4020:4073   */\n      tag_546\n      jump\t// in\n    tag_654:\n        /* \"#utility.yul\":4010:4073   */\n      swap2\n      pop\n        /* \"#utility.yul\":3965:4083   */\n      pop\n        /* \"#utility.yul\":3616:4090   */\n      swap3\n      pop\n      swap3\n      swap1\n      pop\n      jump\t// out\n        /* \"#utility.yul\":4096:4212   */\n    tag_547:\n        /* \"#utility.yul\":4166:4187   */\n      tag_656\n        /* \"#utility.yul\":4181:4186   */\n      dup2\n        /* \"#utility.yul\":4166:4187   */\n      tag_533\n      jump\t// in\n    tag_656:\n        /* \"#utility.yul\":4159:4164   */\n      dup2\n        /* \"#utility.yul\":4156:4188   */\n      eq\n        /* \"#utility.yul\":4146:4206   */\n      tag_657\n      jumpi\n        /* \"#utility.yul\":4202:4203   */\n      0x00\n        /* \"#utility.yul\":4199:4200   */\n      dup1\n        /* \"#utility.yul\":4192:4204   */\n      revert\n        /* \"#utility.yul\":4146:4206   */\n    tag_657:\n        /* \"#utility.yul\":4096:4212   */\n      pop\n      jump\t// out\n        /* \"#utility.yul\":4218:4351   */\n    tag_548:\n        /* \"#utility.yul\":4261:4266   */\n      0x00\n        /* \"#utility.yul\":4299:4305   */\n      dup2\n        /* \"#utility.yul\":4286:4306   */\n      calldataload\n        /* \"#utility.yul\":4277:4306   */\n      swap1\n      pop\n        /* \"#utility.yul\":4315:4345   */\n      tag_659\n        /* \"#utility.yul\":4339:4344   */\n      dup2\n        /* \"#utility.yul\":4315:4345   */\n      tag_547\n      jump\t// in\n    tag_659:\n        /* \"#utility.yul\":4218:4351   */\n      swap3\n      swap2\n      pop\n      pop\n      jump\t// out\n        /* \"#utility.yul\":4357:4680   */\n    tag_68:\n        /* \"#utility.yul\":4413:4419   */\n      0x00\n        /* \"#utility.yul\":4462:4464   */\n      0x20\n        /* \"#utility.yul\":4450:4459   */\n      dup3\n        /* \"#utility.yul\":4441:4448   */\n      dup5\n        /* \"#utility.yul\":4437:4460   */\n      sub\n        /* \"#utility.yul\":4433:4465   */\n      slt\n        /* \"#utility.yul\":4430:4549   */\n      iszero\n      tag_661\n      jumpi\n        /* \"#utility.yul\":4468:4547   */\n      tag_662\n      tag_528\n      jump\t// in\n    tag_662:\n        /* \"#utility.yul\":4430:4549   */\n    tag_661:\n        /* \"#utility.yul\":4588:4589   */\n      0x00\n        /* \"#utility.yul\":4613:4663   */\n      tag_663\n        /* \"#utility.yul\":4655:4662   */\n      dup5\n        /* \"#utility.yul\":4646:4652   */\n      dup3\n        /* \"#utility.yul\":4635:4644   */\n      dup6\n        /* \"#utility.yul\":4631:4653   */\n      add\n        /* \"#utility.yul\":4613:4663   */\n      tag_548\n      jump\t// in\n    tag_663:\n        /* \"#utility.yul\":4603:4663   */\n      swap2\n      pop\n        /* \"#utility.yul\":4559:4673   */\n      pop\n        /* \"#utility.yul\":4357:4680   */\n      swap3\n      swap2\n      pop\n      pop\n      jump\t// out\n        /* \"#utility.yul\":4686:4804   */\n    tag_549:\n        /* \"#utility.yul\":4773:4797   */\n      tag_665\n        /* \"#utility.yul\":4791:4796   */\n      dup2\n        /* \"#utility.yul\":4773:4797   */\n      tag_544\n      jump\t// in\n    tag_665:\n        /* \"#utility.yul\":4768:4771   */\n      dup3\n        /* \"#utility.yul\":4761:4798   */\n      mstore\n        /* \"#utility.yul\":4686:4804   */\n      pop\n      pop\n      jump\t// out\n        /* \"#utility.yul\":4810:5032   */\n    tag_73:\n        /* \"#utility.yul\":4903:4907   */\n      0x00\n        /* \"#utility.yul\":4941:4943   */\n      0x20\n        /* \"#utility.yul\":4930:4939   */\n      dup3\n        /* \"#utility.yul\":4926:4944   */\n      add\n        /* \"#utility.yul\":4918:4944   */\n      swap1\n      pop\n        /* \"#utility.yul\":4954:5025   */\n      tag_667\n        /* \"#utility.yul\":5022:5023   */\n      0x00\n        /* \"#utility.yul\":5011:5020   */\n      dup4\n        /* \"#utility.yul\":5007:5024   */\n      add\n        /* \"#utility.yul\":4998:5004   */\n      dup5\n        /* \"#utility.yul\":4954:5025   */\n      tag_549\n      jump\t// in\n    tag_667:\n        /* \"#utility.yul\":4810:5032   */\n      swap3\n      swap2\n      pop\n      pop\n      jump\t// out\n        /* \"#utility.yul\":5038:5657   */\n    tag_76:\n        /* \"#utility.yul\":5115:5121   */\n      0x00\n        /* \"#utility.yul\":5123:5129   */\n      dup1\n        /* \"#utility.yul\":5131:5137   */\n      0x00\n        /* \"#utility.yul\":5180:5182   */\n      0x60\n        /* \"#utility.yul\":5168:5177   */\n      dup5\n        /* \"#utility.yul\":5159:5166   */\n      dup7\n        /* \"#utility.yul\":5155:5178   */\n      sub\n        /* \"#utility.yul\":5151:5183   */\n      slt\n        /* \"#utility.yul\":5148:5267   */\n      iszero\n      tag_669\n      jumpi\n        /* \"#utility.yul\":5186:5265   */\n      tag_670\n      tag_528\n      jump\t// in\n    tag_670:\n        /* \"#utility.yul\":5148:5267   */\n    tag_669:\n        /* \"#utility.yul\":5306:5307   */\n      0x00\n        /* \"#utility.yul\":5331:5384   */\n      tag_671\n        /* \"#utility.yul\":5376:5383   */\n      dup7\n        /* \"#utility.yul\":5367:5373   */\n      dup3\n        /* \"#utility.yul\":5356:5365   */\n      dup8\n        /* \"#utility.yul\":5352:5374   */\n      add\n        /* \"#utility.yul\":5331:5384   */\n      tag_543\n      jump\t// in\n    tag_671:\n        /* \"#utility.yul\":5321:5384   */\n      swap4\n      pop\n        /* \"#utility.yul\":5277:5394   */\n      pop\n        /* \"#utility.yul\":5433:5435   */\n      0x20\n        /* \"#utility.yul\":5459:5512   */\n      tag_672\n        /* \"#utility.yul\":5504:5511   */\n      dup7\n        /* \"#utility.yul\":5495:5501   */\n      dup3\n        /* \"#utility.yul\":5484:5493   */\n      dup8\n        /* \"#utility.yul\":5480:5502   */\n      add\n        /* \"#utility.yul\":5459:5512   */\n      tag_543\n      jump\t// in\n    tag_672:\n        /* \"#utility.yul\":5449:5512   */\n      swap3\n      pop\n        /* \"#utility.yul\":5404:5522   */\n      pop\n        /* \"#utility.yul\":5561:5563   */\n      0x40\n        /* \"#utility.yul\":5587:5640   */\n      tag_673\n        /* \"#utility.yul\":5632:5639   */\n      dup7\n        /* \"#utility.yul\":5623:5629   */\n      dup3\n        /* \"#utility.yul\":5612:5621   */\n      dup8\n        /* \"#utility.yul\":5608:5630   */\n      add\n        /* \"#utility.yul\":5587:5640   */\n      tag_546\n      jump\t// in\n    tag_673:\n        /* \"#utility.yul\":5577:5640   */\n      swap2\n      pop\n        /* \"#utility.yul\":5532:5650   */\n      pop\n        /* \"#utility.yul\":5038:5657   */\n      swap3\n      pop\n      swap3\n      pop\n      swap3\n      jump\t// out\n        /* \"#utility.yul\":5663:5740   */\n    tag_550:\n        /* \"#utility.yul\":5700:5707   */\n      0x00\n        /* \"#utility.yul\":5729:5734   */\n      dup2\n        /* \"#utility.yul\":5718:5734   */\n      swap1\n      pop\n        /* \"#utility.yul\":5663:5740   */\n      swap2\n      swap1\n      pop\n      jump\t// out\n        /* \"#utility.yul\":5746:5868   */\n    tag_551:\n        /* \"#utility.yul\":5819:5843   */\n      tag_676\n        /* \"#utility.yul\":5837:5842   */\n      dup2\n        /* \"#utility.yul\":5819:5843   */\n      tag_550\n      jump\t// in\n    tag_676:\n        /* \"#utility.yul\":5812:5817   */\n      dup2\n        /* \"#utility.yul\":5809:5844   */\n      eq\n        /* \"#utility.yul\":5799:5862   */\n      tag_677\n      jumpi\n        /* \"#utility.yul\":5858:5859   */\n      0x00\n        /* \"#utility.yul\":5855:5856   */\n      dup1\n        /* \"#utility.yul\":5848:5860   */\n      revert\n        /* \"#utility.yul\":5799:5862   */\n    tag_677:\n        /* \"#utility.yul\":5746:5868   */\n      pop\n      jump\t// out\n        /* \"#utility.yul\":5874:6013   */\n    tag_552:\n        /* \"#utility.yul\":5920:5925   */\n      0x00\n        /* \"#utility.yul\":5958:5964   */\n      dup2\n        /* \"#utility.yul\":5945:5965   */\n      calldataload\n        /* \"#utility.yul\":5936:5965   */\n      swap1\n      pop\n        /* \"#utility.yul\":5974:6007   */\n      tag_679\n        /* \"#utility.yul\":6001:6006   */\n      dup2\n        /* \"#utility.yul\":5974:6007   */\n      tag_551\n      jump\t// in\n    tag_679:\n        /* \"#utility.yul\":5874:6013   */\n      swap3\n      swap2\n      pop\n      pop\n      jump\t// out\n        /* \"#utility.yul\":6019:6348   */\n    tag_81:\n        /* \"#utility.yul\":6078:6084   */\n      0x00\n        /* \"#utility.yul\":6127:6129   */\n      0x20\n        /* \"#utility.yul\":6115:6124   */\n      dup3\n        /* \"#utility.yul\":6106:6113   */\n      dup5\n        /* \"#utility.yul\":6102:6125   */\n      sub\n        /* \"#utility.yul\":6098:6130   */\n      slt\n        /* \"#utility.yul\":6095:6214   */\n      iszero\n      tag_681\n      jumpi\n        /* \"#utility.yul\":6133:6212   */\n      tag_682\n      tag_528\n      jump\t// in\n    tag_682:\n        /* \"#utility.yul\":6095:6214   */\n    tag_681:\n        /* \"#utility.yul\":6253:6254   */\n      0x00\n        /* \"#utility.yul\":6278:6331   */\n      tag_683\n        /* \"#utility.yul\":6323:6330   */\n      dup5\n        /* \"#utility.yul\":6314:6320   */\n      dup3\n        /* \"#utility.yul\":6303:6312   */\n      dup6\n        /* \"#utility.yul\":6299:6321   */\n      add\n        /* \"#utility.yul\":6278:6331   */\n      tag_552\n      jump\t// in\n    tag_683:\n        /* \"#utility.yul\":6268:6331   */\n      swap2\n      pop\n        /* \"#utility.yul\":6224:6341   */\n      pop\n        /* \"#utility.yul\":6019:6348   */\n      swap3\n      swap2\n      pop\n      pop\n      jump\t// out\n        /* \"#utility.yul\":6354:6472   */\n    tag_553:\n        /* \"#utility.yul\":6441:6465   */\n      tag_685\n        /* \"#utility.yul\":6459:6464   */\n      dup2\n        /* \"#utility.yul\":6441:6465   */\n      tag_550\n      jump\t// in\n    tag_685:\n        /* \"#utility.yul\":6436:6439   */\n      dup3\n        /* \"#utility.yul\":6429:6466   */\n      mstore\n        /* \"#utility.yul\":6354:6472   */\n      pop\n      pop\n      jump\t// out\n        /* \"#utility.yul\":6478:6700   */\n    tag_84:\n        /* \"#utility.yul\":6571:6575   */\n      0x00\n        /* \"#utility.yul\":6609:6611   */\n      0x20\n        /* \"#utility.yul\":6598:6607   */\n      dup3\n        /* \"#utility.yul\":6594:6612   */\n      add\n        /* \"#utility.yul\":6586:6612   */\n      swap1\n      pop\n        /* \"#utility.yul\":6622:6693   */\n      tag_687\n        /* \"#utility.yul\":6690:6691   */\n      0x00\n        /* \"#utility.yul\":6679:6688   */\n      dup4\n        /* \"#utility.yul\":6675:6692   */\n      add\n        /* \"#utility.yul\":6666:6672   */\n      dup5\n        /* \"#utility.yul\":6622:6693   */\n      tag_553\n      jump\t// in\n    tag_687:\n        /* \"#utility.yul\":6478:6700   */\n      swap3\n      swap2\n      pop\n      pop\n      jump\t// out\n        /* \"#utility.yul\":6706:7180   */\n    tag_87:\n        /* \"#utility.yul\":6774:6780   */\n      0x00\n        /* \"#utility.yul\":6782:6788   */\n      dup1\n        /* \"#utility.yul\":6831:6833   */\n      0x40\n        /* \"#utility.yul\":6819:6828   */\n      dup4\n        /* \"#utility.yul\":6810:6817   */\n      dup6\n        /* \"#utility.yul\":6806:6829   */\n      sub\n        /* \"#utility.yul\":6802:6834   */\n      slt\n        /* \"#utility.yul\":6799:6918   */\n      iszero\n      tag_689\n      jumpi\n        /* \"#utility.yul\":6837:6916   */\n      tag_690\n      tag_528\n      jump\t// in\n    tag_690:\n        /* \"#utility.yul\":6799:6918   */\n    tag_689:\n        /* \"#utility.yul\":6957:6958   */\n      0x00\n        /* \"#utility.yul\":6982:7035   */\n      tag_691\n        /* \"#utility.yul\":7027:7034   */\n      dup6\n        /* \"#utility.yul\":7018:7024   */\n      dup3\n        /* \"#utility.yul\":7007:7016   */\n      dup7\n        /* \"#utility.yul\":7003:7025   */\n      add\n        /* \"#utility.yul\":6982:7035   */\n      tag_552\n      jump\t// in\n    tag_691:\n        /* \"#utility.yul\":6972:7035   */\n      swap3\n      pop\n        /* \"#utility.yul\":6928:7045   */\n      pop\n        /* \"#utility.yul\":7084:7086   */\n      0x20\n        /* \"#utility.yul\":7110:7163   */\n      tag_692\n        /* \"#utility.yul\":7155:7162   */\n      dup6\n        /* \"#utility.yul\":7146:7152   */\n      dup3\n        /* \"#utility.yul\":7135:7144   */\n      dup7\n        /* \"#utility.yul\":7131:7153   */\n      add\n        /* \"#utility.yul\":7110:7163   */\n      tag_543\n      jump\t// in\n    tag_692:\n        /* \"#utility.yul\":7100:7163   */\n      swap2\n      pop\n        /* \"#utility.yul\":7055:7173   */\n      pop\n        /* \"#utility.yul\":6706:7180   */\n      swap3\n      pop\n      swap3\n      swap1\n      pop\n      jump\t// out\n        /* \"#utility.yul\":7186:7272   */\n    tag_554:\n        /* \"#utility.yul\":7221:7228   */\n      0x00\n        /* \"#utility.yul\":7261:7265   */\n      0xff\n        /* \"#utility.yul\":7254:7259   */\n      dup3\n        /* \"#utility.yul\":7250:7266   */\n      and\n        /* \"#utility.yul\":7239:7266   */\n      swap1\n      pop\n        /* \"#utility.yul\":7186:7272   */\n      swap2\n      swap1\n      pop\n      jump\t// out\n        /* \"#utility.yul\":7278:7390   */\n    tag_555:\n        /* \"#utility.yul\":7361:7383   */\n      tag_695\n        /* \"#utility.yul\":7377:7382   */\n      dup2\n        /* \"#utility.yul\":7361:7383   */\n      tag_554\n      jump\t// in\n    tag_695:\n        /* \"#utility.yul\":7356:7359   */\n      dup3\n        /* \"#utility.yul\":7349:7384   */\n      mstore\n        /* \"#utility.yul\":7278:7390   */\n      pop\n      pop\n      jump\t// out\n        /* \"#utility.yul\":7396:7610   */\n    tag_92:\n        /* \"#utility.yul\":7485:7489   */\n      0x00\n        /* \"#utility.yul\":7523:7525   */\n      0x20\n        /* \"#utility.yul\":7512:7521   */\n      dup3\n        /* \"#utility.yul\":7508:7526   */\n      add\n        /* \"#utility.yul\":7500:7526   */\n      swap1\n      pop\n        /* \"#utility.yul\":7536:7603   */\n      tag_697\n        /* \"#utility.yul\":7600:7601   */\n      0x00\n        /* \"#utility.yul\":7589:7598   */\n      dup4\n        /* \"#utility.yul\":7585:7602   */\n      add\n        /* \"#utility.yul\":7576:7582   */\n      dup5\n        /* \"#utility.yul\":7536:7603   */\n      tag_555\n      jump\t// in\n    tag_697:\n        /* \"#utility.yul\":7396:7610   */\n      swap3\n      swap2\n      pop\n      pop\n      jump\t// out\n        /* \"#utility.yul\":7616:8084   */\n    tag_98:\n        /* \"#utility.yul\":7681:7687   */\n      0x00\n        /* \"#utility.yul\":7689:7695   */\n      dup1\n        /* \"#utility.yul\":7738:7740   */\n      0x40\n        /* \"#utility.yul\":7726:7735   */\n      dup4\n        /* \"#utility.yul\":7717:7724   */\n      dup6\n        /* \"#utility.yul\":7713:7736   */\n      sub\n        /* \"#utility.yul\":7709:7741   */\n      slt\n        /* \"#utility.yul\":7706:7825   */\n      iszero\n      tag_699\n      jumpi\n        /* \"#utility.yul\":7744:7823   */\n      tag_700\n      tag_528\n      jump\t// in\n    tag_700:\n        /* \"#utility.yul\":7706:7825   */\n    tag_699:\n        /* \"#utility.yul\":7864:7865   */\n      0x00\n        /* \"#utility.yul\":7889:7942   */\n      tag_701\n        /* \"#utility.yul\":7934:7941   */\n      dup6\n        /* \"#utility.yul\":7925:7931   */\n      dup3\n        /* \"#utility.yul\":7914:7923   */\n      dup7\n        /* \"#utility.yul\":7910:7932   */\n      add\n        /* \"#utility.yul\":7889:7942   */\n      tag_543\n      jump\t// in\n    tag_701:\n        /* \"#utility.yul\":7879:7942   */\n      swap3\n      pop\n        /* \"#utility.yul\":7835:7952   */\n      pop\n        /* \"#utility.yul\":7991:7993   */\n      0x20\n        /* \"#utility.yul\":8017:8067   */\n      tag_702\n        /* \"#utility.yul\":8059:8066   */\n      dup6\n        /* \"#utility.yul\":8050:8056   */\n      dup3\n        /* \"#utility.yul\":8039:8048   */\n      dup7\n        /* \"#utility.yul\":8035:8057   */\n      add\n        /* \"#utility.yul\":8017:8067   */\n      tag_548\n      jump\t// in\n    tag_702:\n        /* \"#utility.yul\":8007:8067   */\n      swap2\n      pop\n        /* \"#utility.yul\":7962:8077   */\n      pop\n        /* \"#utility.yul\":7616:8084   */\n      swap3\n      pop\n      swap3\n      swap1\n      pop\n      jump\t// out\n        /* \"#utility.yul\":8090:8201   */\n    tag_556:\n        /* \"#utility.yul\":8142:8149   */\n      0x00\n        /* \"#utility.yul\":8171:8195   */\n      tag_704\n        /* \"#utility.yul\":8189:8194   */\n      dup3\n        /* \"#utility.yul\":8171:8195   */\n      tag_541\n      jump\t// in\n    tag_704:\n        /* \"#utility.yul\":8160:8195   */\n      swap1\n      pop\n        /* \"#utility.yul\":8090:8201   */\n      swap2\n      swap1\n      pop\n      jump\t// out\n        /* \"#utility.yul\":8207:8359   */\n    tag_557:\n        /* \"#utility.yul\":8295:8334   */\n      tag_706\n        /* \"#utility.yul\":8328:8333   */\n      dup2\n        /* \"#utility.yul\":8295:8334   */\n      tag_556\n      jump\t// in\n    tag_706:\n        /* \"#utility.yul\":8288:8293   */\n      dup2\n        /* \"#utility.yul\":8285:8335   */\n      eq\n        /* \"#utility.yul\":8275:8353   */\n      tag_707\n      jumpi\n        /* \"#utility.yul\":8349:8350   */\n      0x00\n        /* \"#utility.yul\":8346:8347   */\n      dup1\n        /* \"#utility.yul\":8339:8351   */\n      revert\n        /* \"#utility.yul\":8275:8353   */\n    tag_707:\n        /* \"#utility.yul\":8207:8359   */\n      pop\n      jump\t// out\n        /* \"#utility.yul\":8365:8534   */\n    tag_558:\n        /* \"#utility.yul\":8426:8431   */\n      0x00\n        /* \"#utility.yul\":8464:8470   */\n      dup2\n        /* \"#utility.yul\":8451:8471   */\n      calldataload\n        /* \"#utility.yul\":8442:8471   */\n      swap1\n      pop\n        /* \"#utility.yul\":8480:8528   */\n      tag_709\n        /* \"#utility.yul\":8522:8527   */\n      dup2\n        /* \"#utility.yul\":8480:8528   */\n      tag_557\n      jump\t// in\n    tag_709:\n        /* \"#utility.yul\":8365:8534   */\n      swap3\n      swap2\n      pop\n      pop\n      jump\t// out\n        /* \"#utility.yul\":8540:9189   */\n    tag_102:\n        /* \"#utility.yul\":8632:8638   */\n      0x00\n        /* \"#utility.yul\":8640:8646   */\n      dup1\n        /* \"#utility.yul\":8648:8654   */\n      0x00\n        /* \"#utility.yul\":8697:8699   */\n      0x60\n        /* \"#utility.yul\":8685:8694   */\n      dup5\n        /* \"#utility.yul\":8676:8683   */\n      dup7\n        /* \"#utility.yul\":8672:8695   */\n      sub\n        /* \"#utility.yul\":8668:8700   */\n      slt\n        /* \"#utility.yul\":8665:8784   */\n      iszero\n      tag_711\n      jumpi\n        /* \"#utility.yul\":8703:8782   */\n      tag_712\n      tag_528\n      jump\t// in\n    tag_712:\n        /* \"#utility.yul\":8665:8784   */\n    tag_711:\n        /* \"#utility.yul\":8823:8824   */\n      0x00\n        /* \"#utility.yul\":8848:8916   */\n      tag_713\n        /* \"#utility.yul\":8908:8915   */\n      dup7\n        /* \"#utility.yul\":8899:8905   */\n      dup3\n        /* \"#utility.yul\":8888:8897   */\n      dup8\n        /* \"#utility.yul\":8884:8906   */\n      add\n        /* \"#utility.yul\":8848:8916   */\n      tag_558\n      jump\t// in\n    tag_713:\n        /* \"#utility.yul\":8838:8916   */\n      swap4\n      pop\n        /* \"#utility.yul\":8794:8926   */\n      pop\n        /* \"#utility.yul\":8965:8967   */\n      0x20\n        /* \"#utility.yul\":8991:9044   */\n      tag_714\n        /* \"#utility.yul\":9036:9043   */\n      dup7\n        /* \"#utility.yul\":9027:9033   */\n      dup3\n        /* \"#utility.yul\":9016:9025   */\n      dup8\n        /* \"#utility.yul\":9012:9034   */\n      add\n        /* \"#utility.yul\":8991:9044   */\n      tag_543\n      jump\t// in\n    tag_714:\n        /* \"#utility.yul\":8981:9044   */\n      swap3\n      pop\n        /* \"#utility.yul\":8936:9054   */\n      pop\n        /* \"#utility.yul\":9093:9095   */\n      0x40\n        /* \"#utility.yul\":9119:9172   */\n      tag_715\n        /* \"#utility.yul\":9164:9171   */\n      dup7\n        /* \"#utility.yul\":9155:9161   */\n      dup3\n        /* \"#utility.yul\":9144:9153   */\n      dup8\n        /* \"#utility.yul\":9140:9162   */\n      add\n        /* \"#utility.yul\":9119:9172   */\n      tag_546\n      jump\t// in\n    tag_715:\n        /* \"#utility.yul\":9109:9172   */\n      swap2\n      pop\n        /* \"#utility.yul\":9064:9182   */\n      pop\n        /* \"#utility.yul\":8540:9189   */\n      swap3\n      pop\n      swap3\n      pop\n      swap3\n      jump\t// out\n        /* \"#utility.yul\":9195:9524   */\n    tag_106:\n        /* \"#utility.yul\":9254:9260   */\n      0x00\n        /* \"#utility.yul\":9303:9305   */\n      0x20\n        /* \"#utility.yul\":9291:9300   */\n      dup3\n        /* \"#utility.yul\":9282:9289   */\n      dup5\n        /* \"#utility.yul\":9278:9301   */\n      sub\n        /* \"#utility.yul\":9274:9306   */\n      slt\n        /* \"#utility.yul\":9271:9390   */\n      iszero\n      tag_717\n      jumpi\n        /* \"#utility.yul\":9309:9388   */\n      tag_718\n      tag_528\n      jump\t// in\n    tag_718:\n        /* \"#utility.yul\":9271:9390   */\n    tag_717:\n        /* \"#utility.yul\":9429:9430   */\n      0x00\n        /* \"#utility.yul\":9454:9507   */\n      tag_719\n        /* \"#utility.yul\":9499:9506   */\n      dup5\n        /* \"#utility.yul\":9490:9496   */\n      dup3\n        /* \"#utility.yul\":9479:9488   */\n      dup6\n        /* \"#utility.yul\":9475:9497   */\n      add\n        /* \"#utility.yul\":9454:9507   */\n      tag_546\n      jump\t// in\n    tag_719:\n        /* \"#utility.yul\":9444:9507   */\n      swap2\n      pop\n        /* \"#utility.yul\":9400:9517   */\n      pop\n        /* \"#utility.yul\":9195:9524   */\n      swap3\n      swap2\n      pop\n      pop\n      jump\t// out\n        /* \"#utility.yul\":9530:9634   */\n    tag_559:\n        /* \"#utility.yul\":9575:9582   */\n      0x00\n        /* \"#utility.yul\":9604:9628   */\n      tag_721\n        /* \"#utility.yul\":9622:9627   */\n      dup3\n        /* \"#utility.yul\":9604:9628   */\n      tag_540\n      jump\t// in\n    tag_721:\n        /* \"#utility.yul\":9593:9628   */\n      swap1\n      pop\n        /* \"#utility.yul\":9530:9634   */\n      swap2\n      swap1\n      pop\n      jump\t// out\n        /* \"#utility.yul\":9640:9778   */\n    tag_560:\n        /* \"#utility.yul\":9721:9753   */\n      tag_723\n        /* \"#utility.yul\":9747:9752   */\n      dup2\n        /* \"#utility.yul\":9721:9753   */\n      tag_559\n      jump\t// in\n    tag_723:\n        /* \"#utility.yul\":9714:9719   */\n      dup2\n        /* \"#utility.yul\":9711:9754   */\n      eq\n        /* \"#utility.yul\":9701:9772   */\n      tag_724\n      jumpi\n        /* \"#utility.yul\":9768:9769   */\n      0x00\n        /* \"#utility.yul\":9765:9766   */\n      dup1\n        /* \"#utility.yul\":9758:9770   */\n      revert\n        /* \"#utility.yul\":9701:9772   */\n    tag_724:\n        /* \"#utility.yul\":9640:9778   */\n      pop\n      jump\t// out\n        /* \"#utility.yul\":9784:9939   */\n    tag_561:\n        /* \"#utility.yul\":9838:9843   */\n      0x00\n        /* \"#utility.yul\":9876:9882   */\n      dup2\n        /* \"#utility.yul\":9863:9883   */\n      calldataload\n        /* \"#utility.yul\":9854:9883   */\n      swap1\n      pop\n        /* \"#utility.yul\":9892:9933   */\n      tag_726\n        /* \"#utility.yul\":9927:9932   */\n      dup2\n        /* \"#utility.yul\":9892:9933   */\n      tag_560\n      jump\t// in\n    tag_726:\n        /* \"#utility.yul\":9784:9939   */\n      swap3\n      swap2\n      pop\n      pop\n      jump\t// out\n        /* \"#utility.yul\":9945:10435   */\n    tag_113:\n        /* \"#utility.yul\":10021:10027   */\n      0x00\n        /* \"#utility.yul\":10029:10035   */\n      dup1\n        /* \"#utility.yul\":10078:10080   */\n      0x40\n        /* \"#utility.yul\":10066:10075   */\n      dup4\n        /* \"#utility.yul\":10057:10064   */\n      dup6\n        /* \"#utility.yul\":10053:10076   */\n      sub\n        /* \"#utility.yul\":10049:10081   */\n      slt\n        /* \"#utility.yul\":10046:10165   */\n      iszero\n      tag_728\n      jumpi\n        /* \"#utility.yul\":10084:10163   */\n      tag_729\n      tag_528\n      jump\t// in\n    tag_729:\n        /* \"#utility.yul\":10046:10165   */\n    tag_728:\n        /* \"#utility.yul\":10204:10205   */\n      0x00\n        /* \"#utility.yul\":10229:10290   */\n      tag_730\n        /* \"#utility.yul\":10282:10289   */\n      dup6\n        /* \"#utility.yul\":10273:10279   */\n      dup3\n        /* \"#utility.yul\":10262:10271   */\n      dup7\n        /* \"#utility.yul\":10258:10280   */\n      add\n        /* \"#utility.yul\":10229:10290   */\n      tag_561\n      jump\t// in\n    tag_730:\n        /* \"#utility.yul\":10219:10290   */\n      swap3\n      pop\n        /* \"#utility.yul\":10175:10300   */\n      pop\n        /* \"#utility.yul\":10339:10341   */\n      0x20\n        /* \"#utility.yul\":10365:10418   */\n      tag_731\n        /* \"#utility.yul\":10410:10417   */\n      dup6\n        /* \"#utility.yul\":10401:10407   */\n      dup3\n        /* \"#utility.yul\":10390:10399   */\n      dup7\n        /* \"#utility.yul\":10386:10408   */\n      add\n        /* \"#utility.yul\":10365:10418   */\n      tag_546\n      jump\t// in\n    tag_731:\n        /* \"#utility.yul\":10355:10418   */\n      swap2\n      pop\n        /* \"#utility.yul\":10310:10428   */\n      pop\n        /* \"#utility.yul\":9945:10435   */\n      swap3\n      pop\n      swap3\n      swap1\n      pop\n      jump\t// out\n        /* \"#utility.yul\":10441:10770   */\n    tag_129:\n        /* \"#utility.yul\":10500:10506   */\n      0x00\n        /* \"#utility.yul\":10549:10551   */\n      0x20\n        /* \"#utility.yul\":10537:10546   */\n      dup3\n        /* \"#utility.yul\":10528:10535   */\n      dup5\n        /* \"#utility.yul\":10524:10547   */\n      sub\n        /* \"#utility.yul\":10520:10552   */\n      slt\n        /* \"#utility.yul\":10517:10636   */\n      iszero\n      tag_733\n      jumpi\n        /* \"#utility.yul\":10555:10634   */\n      tag_734\n      tag_528\n      jump\t// in\n    tag_734:\n        /* \"#utility.yul\":10517:10636   */\n    tag_733:\n        /* \"#utility.yul\":10675:10676   */\n      0x00\n        /* \"#utility.yul\":10700:10753   */\n      tag_735\n        /* \"#utility.yul\":10745:10752   */\n      dup5\n        /* \"#utility.yul\":10736:10742   */\n      dup3\n        /* \"#utility.yul\":10725:10734   */\n      dup6\n        /* \"#utility.yul\":10721:10743   */\n      add\n        /* \"#utility.yul\":10700:10753   */\n      tag_543\n      jump\t// in\n    tag_735:\n        /* \"#utility.yul\":10690:10753   */\n      swap2\n      pop\n        /* \"#utility.yul\":10646:10763   */\n      pop\n        /* \"#utility.yul\":10441:10770   */\n      swap3\n      swap2\n      pop\n      pop\n      jump\t// out\n        /* \"#utility.yul\":10776:11250   */\n    tag_185:\n        /* \"#utility.yul\":10844:10850   */\n      0x00\n        /* \"#utility.yul\":10852:10858   */\n      dup1\n        /* \"#utility.yul\":10901:10903   */\n      0x40\n        /* \"#utility.yul\":10889:10898   */\n      dup4\n        /* \"#utility.yul\":10880:10887   */\n      dup6\n        /* \"#utility.yul\":10876:10899   */\n      sub\n        /* \"#utility.yul\":10872:10904   */\n      slt\n        /* \"#utility.yul\":10869:10988   */\n      iszero\n      tag_737\n      jumpi\n        /* \"#utility.yul\":10907:10986   */\n      tag_738\n      tag_528\n      jump\t// in\n    tag_738:\n        /* \"#utility.yul\":10869:10988   */\n    tag_737:\n        /* \"#utility.yul\":11027:11028   */\n      0x00\n        /* \"#utility.yul\":11052:11105   */\n      tag_739\n        /* \"#utility.yul\":11097:11104   */\n      dup6\n        /* \"#utility.yul\":11088:11094   */\n      dup3\n        /* \"#utility.yul\":11077:11086   */\n      dup7\n        /* \"#utility.yul\":11073:11095   */\n      add\n        /* \"#utility.yul\":11052:11105   */\n      tag_543\n      jump\t// in\n    tag_739:\n        /* \"#utility.yul\":11042:11105   */\n      swap3\n      pop\n        /* \"#utility.yul\":10998:11115   */\n      pop\n        /* \"#utility.yul\":11154:11156   */\n      0x20\n        /* \"#utility.yul\":11180:11233   */\n      tag_740\n        /* \"#utility.yul\":11225:11232   */\n      dup6\n        /* \"#utility.yul\":11216:11222   */\n      dup3\n        /* \"#utility.yul\":11205:11214   */\n      dup7\n        /* \"#utility.yul\":11201:11223   */\n      add\n        /* \"#utility.yul\":11180:11233   */\n      tag_543\n      jump\t// in\n    tag_740:\n        /* \"#utility.yul\":11170:11233   */\n      swap2\n      pop\n        /* \"#utility.yul\":11125:11243   */\n      pop\n        /* \"#utility.yul\":10776:11250   */\n      swap3\n      pop\n      swap3\n      swap1\n      pop\n      jump\t// out\n        /* \"#utility.yul\":11256:11374   */\n    tag_562:\n        /* \"#utility.yul\":11343:11367   */\n      tag_742\n        /* \"#utility.yul\":11361:11366   */\n      dup2\n        /* \"#utility.yul\":11343:11367   */\n      tag_541\n      jump\t// in\n    tag_742:\n        /* \"#utility.yul\":11338:11341   */\n      dup3\n        /* \"#utility.yul\":11331:11368   */\n      mstore\n        /* \"#utility.yul\":11256:11374   */\n      pop\n      pop\n      jump\t// out\n        /* \"#utility.yul\":11380:11602   */\n    tag_200:\n        /* \"#utility.yul\":11473:11477   */\n      0x00\n        /* \"#utility.yul\":11511:11513   */\n      0x20\n        /* \"#utility.yul\":11500:11509   */\n      dup3\n        /* \"#utility.yul\":11496:11514   */\n      add\n        /* \"#utility.yul\":11488:11514   */\n      swap1\n      pop\n        /* \"#utility.yul\":11524:11595   */\n      tag_744\n        /* \"#utility.yul\":11592:11593   */\n      0x00\n        /* \"#utility.yul\":11581:11590   */\n      dup4\n        /* \"#utility.yul\":11577:11594   */\n      add\n        /* \"#utility.yul\":11568:11574   */\n      dup5\n        /* \"#utility.yul\":11524:11595   */\n      tag_562\n      jump\t// in\n    tag_744:\n        /* \"#utility.yul\":11380:11602   */\n      swap3\n      swap2\n      pop\n      pop\n      jump\t// out\n        /* \"#utility.yul\":11608:11788   */\n    tag_563:\n        /* \"#utility.yul\":11656:11733   */\n      0x4e487b7100000000000000000000000000000000000000000000000000000000\n        /* \"#utility.yul\":11653:11654   */\n      0x00\n        /* \"#utility.yul\":11646:11734   */\n      mstore\n        /* \"#utility.yul\":11753:11757   */\n      0x22\n        /* \"#utility.yul\":11750:11751   */\n      0x04\n        /* \"#utility.yul\":11743:11758   */\n      mstore\n        /* \"#utility.yul\":11777:11781   */\n      0x24\n        /* \"#utility.yul\":11774:11775   */\n      0x00\n        /* \"#utility.yul\":11767:11782   */\n      revert\n        /* \"#utility.yul\":11794:12114   */\n    tag_207:\n        /* \"#utility.yul\":11838:11844   */\n      0x00\n        /* \"#utility.yul\":11875:11876   */\n      0x02\n        /* \"#utility.yul\":11869:11873   */\n      dup3\n        /* \"#utility.yul\":11865:11877   */\n      div\n        /* \"#utility.yul\":11855:11877   */\n      swap1\n      pop\n        /* \"#utility.yul\":11922:11923   */\n      0x01\n        /* \"#utility.yul\":11916:11920   */\n      dup3\n        /* \"#utility.yul\":11912:11924   */\n      and\n        /* \"#utility.yul\":11943:11961   */\n      dup1\n        /* \"#utility.yul\":11933:12014   */\n      tag_747\n      jumpi\n        /* \"#utility.yul\":11999:12003   */\n      0x7f\n        /* \"#utility.yul\":11991:11997   */\n      dup3\n        /* \"#utility.yul\":11987:12004   */\n      and\n        /* \"#utility.yul\":11977:12004   */\n      swap2\n      pop\n        /* \"#utility.yul\":11933:12014   */\n    tag_747:\n        /* \"#utility.yul\":12061:12063   */\n      0x20\n        /* \"#utility.yul\":12053:12059   */\n      dup3\n        /* \"#utility.yul\":12050:12064   */\n      lt\n        /* \"#utility.yul\":12030:12048   */\n      dup2\n        /* \"#utility.yul\":12027:12065   */\n      sub\n        /* \"#utility.yul\":12024:12108   */\n      tag_748\n      jumpi\n        /* \"#utility.yul\":12080:12098   */\n      tag_749\n      tag_563\n      jump\t// in\n    tag_749:\n        /* \"#utility.yul\":12024:12108   */\n    tag_748:\n        /* \"#utility.yul\":11845:12114   */\n      pop\n        /* \"#utility.yul\":11794:12114   */\n      swap2\n      swap1\n      pop\n      jump\t// out\n        /* \"#utility.yul\":12120:12290   */\n    tag_564:\n        /* \"#utility.yul\":12260:12282   */\n      0x436f6e74726163743a204e6565642041646d696e000000000000000000000000\n        /* \"#utility.yul\":12256:12257   */\n      0x00\n        /* \"#utility.yul\":12248:12254   */\n      dup3\n        /* \"#utility.yul\":12244:12258   */\n      add\n        /* \"#utility.yul\":12237:12283   */\n      mstore\n        /* \"#utility.yul\":12120:12290   */\n      pop\n      jump\t// out\n        /* \"#utility.yul\":12296:12662   */\n    tag_565:\n        /* \"#utility.yul\":12438:12441   */\n      0x00\n        /* \"#utility.yul\":12459:12526   */\n      tag_752\n        /* \"#utility.yul\":12523:12525   */\n      0x14\n        /* \"#utility.yul\":12518:12521   */\n      dup4\n        /* \"#utility.yul\":12459:12526   */\n      tag_536\n      jump\t// in\n    tag_752:\n        /* \"#utility.yul\":12452:12526   */\n      swap2\n      pop\n        /* \"#utility.yul\":12535:12628   */\n      tag_753\n        /* \"#utility.yul\":12624:12627   */\n      dup3\n        /* \"#utility.yul\":12535:12628   */\n      tag_564\n      jump\t// in\n    tag_753:\n        /* \"#utility.yul\":12653:12655   */\n      0x20\n        /* \"#utility.yul\":12648:12651   */\n      dup3\n        /* \"#utility.yul\":12644:12656   */\n      add\n        /* \"#utility.yul\":12637:12656   */\n      swap1\n      pop\n        /* \"#utility.yul\":12296:12662   */\n      swap2\n      swap1\n      pop\n      jump\t// out\n        /* \"#utility.yul\":12668:13087   */\n    tag_222:\n        /* \"#utility.yul\":12834:12838   */\n      0x00\n        /* \"#utility.yul\":12872:12874   */\n      0x20\n        /* \"#utility.yul\":12861:12870   */\n      dup3\n        /* \"#utility.yul\":12857:12875   */\n      add\n        /* \"#utility.yul\":12849:12875   */\n      swap1\n      pop\n        /* \"#utility.yul\":12921:12930   */\n      dup2\n        /* \"#utility.yul\":12915:12919   */\n      dup2\n        /* \"#utility.yul\":12911:12931   */\n      sub\n        /* \"#utility.yul\":12907:12908   */\n      0x00\n        /* \"#utility.yul\":12896:12905   */\n      dup4\n        /* \"#utility.yul\":12892:12909   */\n      add\n        /* \"#utility.yul\":12885:12932   */\n      mstore\n        /* \"#utility.yul\":12949:13080   */\n      tag_755\n        /* \"#utility.yul\":13075:13079   */\n      dup2\n        /* \"#utility.yul\":12949:13080   */\n      tag_565\n      jump\t// in\n    tag_755:\n        /* \"#utility.yul\":12941:13080   */\n      swap1\n      pop\n        /* \"#utility.yul\":12668:13087   */\n      swap2\n      swap1\n      pop\n      jump\t// out\n        /* \"#utility.yul\":13093:13425   */\n    tag_226:\n        /* \"#utility.yul\":13214:13218   */\n      0x00\n        /* \"#utility.yul\":13252:13254   */\n      0x40\n        /* \"#utility.yul\":13241:13250   */\n      dup3\n        /* \"#utility.yul\":13237:13255   */\n      add\n        /* \"#utility.yul\":13229:13255   */\n      swap1\n      pop\n        /* \"#utility.yul\":13265:13336   */\n      tag_757\n        /* \"#utility.yul\":13333:13334   */\n      0x00\n        /* \"#utility.yul\":13322:13331   */\n      dup4\n        /* \"#utility.yul\":13318:13335   */\n      add\n        /* \"#utility.yul\":13309:13315   */\n      dup6\n        /* \"#utility.yul\":13265:13336   */\n      tag_549\n      jump\t// in\n    tag_757:\n        /* \"#utility.yul\":13346:13418   */\n      tag_758\n        /* \"#utility.yul\":13414:13416   */\n      0x20\n        /* \"#utility.yul\":13403:13412   */\n      dup4\n        /* \"#utility.yul\":13399:13417   */\n      add\n        /* \"#utility.yul\":13390:13396   */\n      dup5\n        /* \"#utility.yul\":13346:13418   */\n      tag_562\n      jump\t// in\n    tag_758:\n        /* \"#utility.yul\":13093:13425   */\n      swap4\n      swap3\n      pop\n      pop\n      pop\n      jump\t// out\n        /* \"#utility.yul\":13431:13591   */\n    tag_566:\n        /* \"#utility.yul\":13571:13583   */\n      0x4e6565642041646d696e00000000000000000000000000000000000000000000\n        /* \"#utility.yul\":13567:13568   */\n      0x00\n        /* \"#utility.yul\":13559:13565   */\n      dup3\n        /* \"#utility.yul\":13555:13569   */\n      add\n        /* \"#utility.yul\":13548:13584   */\n      mstore\n        /* \"#utility.yul\":13431:13591   */\n      pop\n      jump\t// out\n        /* \"#utility.yul\":13597:13963   */\n    tag_567:\n        /* \"#utility.yul\":13739:13742   */\n      0x00\n        /* \"#utility.yul\":13760:13827   */\n      tag_761\n        /* \"#utility.yul\":13824:13826   */\n      0x0a\n        /* \"#utility.yul\":13819:13822   */\n      dup4\n        /* \"#utility.yul\":13760:13827   */\n      tag_536\n      jump\t// in\n    tag_761:\n        /* \"#utility.yul\":13753:13827   */\n      swap2\n      pop\n        /* \"#utility.yul\":13836:13929   */\n      tag_762\n        /* \"#utility.yul\":13925:13928   */\n      dup3\n        /* \"#utility.yul\":13836:13929   */\n      tag_566\n      jump\t// in\n    tag_762:\n        /* \"#utility.yul\":13954:13956   */\n      0x20\n        /* \"#utility.yul\":13949:13952   */\n      dup3\n        /* \"#utility.yul\":13945:13957   */\n      add\n        /* \"#utility.yul\":13938:13957   */\n      swap1\n      pop\n        /* \"#utility.yul\":13597:13963   */\n      swap2\n      swap1\n      pop\n      jump\t// out\n        /* \"#utility.yul\":13969:14388   */\n    tag_262:\n        /* \"#utility.yul\":14135:14139   */\n      0x00\n        /* \"#utility.yul\":14173:14175   */\n      0x20\n        /* \"#utility.yul\":14162:14171   */\n      dup3\n        /* \"#utility.yul\":14158:14176   */\n      add\n        /* \"#utility.yul\":14150:14176   */\n      swap1\n      pop\n        /* \"#utility.yul\":14222:14231   */\n      dup2\n        /* \"#utility.yul\":14216:14220   */\n      dup2\n        /* \"#utility.yul\":14212:14232   */\n      sub\n        /* \"#utility.yul\":14208:14209   */\n      0x00\n        /* \"#utility.yul\":14197:14206   */\n      dup4\n        /* \"#utility.yul\":14193:14210   */\n      add\n        /* \"#utility.yul\":14186:14233   */\n      mstore\n        /* \"#utility.yul\":14250:14381   */\n      tag_764\n        /* \"#utility.yul\":14376:14380   */\n      dup2\n        /* \"#utility.yul\":14250:14381   */\n      tag_567\n      jump\t// in\n    tag_764:\n        /* \"#utility.yul\":14242:14381   */\n      swap1\n      pop\n        /* \"#utility.yul\":13969:14388   */\n      swap2\n      swap1\n      pop\n      jump\t// out\n        /* \"#utility.yul\":14394:14559   */\n    tag_568:\n        /* \"#utility.yul\":14534:14551   */\n      0x496e76616c696420616464726573730000000000000000000000000000000000\n        /* \"#utility.yul\":14530:14531   */\n      0x00\n        /* \"#utility.yul\":14522:14528   */\n      dup3\n        /* \"#utility.yul\":14518:14532   */\n      add\n        /* \"#utility.yul\":14511:14552   */\n      mstore\n        /* \"#utility.yul\":14394:14559   */\n      pop\n      jump\t// out\n        /* \"#utility.yul\":14565:14931   */\n    tag_569:\n        /* \"#utility.yul\":14707:14710   */\n      0x00\n        /* \"#utility.yul\":14728:14795   */\n      tag_767\n        /* \"#utility.yul\":14792:14794   */\n      0x0f\n        /* \"#utility.yul\":14787:14790   */\n      dup4\n        /* \"#utility.yul\":14728:14795   */\n      tag_536\n      jump\t// in\n    tag_767:\n        /* \"#utility.yul\":14721:14795   */\n      swap2\n      pop\n        /* \"#utility.yul\":14804:14897   */\n      tag_768\n        /* \"#utility.yul\":14893:14896   */\n      dup3\n        /* \"#utility.yul\":14804:14897   */\n      tag_568\n      jump\t// in\n    tag_768:\n        /* \"#utility.yul\":14922:14924   */\n      0x20\n        /* \"#utility.yul\":14917:14920   */\n      dup3\n        /* \"#utility.yul\":14913:14925   */\n      add\n        /* \"#utility.yul\":14906:14925   */\n      swap1\n      pop\n        /* \"#utility.yul\":14565:14931   */\n      swap2\n      swap1\n      pop\n      jump\t// out\n        /* \"#utility.yul\":14937:15356   */\n    tag_265:\n        /* \"#utility.yul\":15103:15107   */\n      0x00\n        /* \"#utility.yul\":15141:15143   */\n      0x20\n        /* \"#utility.yul\":15130:15139   */\n      dup3\n        /* \"#utility.yul\":15126:15144   */\n      add\n        /* \"#utility.yul\":15118:15144   */\n      swap1\n      pop\n        /* \"#utility.yul\":15190:15199   */\n      dup2\n        /* \"#utility.yul\":15184:15188   */\n      dup2\n        /* \"#utility.yul\":15180:15200   */\n      sub\n        /* \"#utility.yul\":15176:15177   */\n      0x00\n        /* \"#utility.yul\":15165:15174   */\n      dup4\n        /* \"#utility.yul\":15161:15178   */\n      add\n        /* \"#utility.yul\":15154:15201   */\n      mstore\n        /* \"#utility.yul\":15218:15349   */\n      tag_770\n        /* \"#utility.yul\":15344:15348   */\n      dup2\n        /* \"#utility.yul\":15218:15349   */\n      tag_569\n      jump\t// in\n    tag_770:\n        /* \"#utility.yul\":15210:15349   */\n      swap1\n      pop\n        /* \"#utility.yul\":14937:15356   */\n      swap2\n      swap1\n      pop\n      jump\t// out\n        /* \"#utility.yul\":15362:15523   */\n    tag_570:\n        /* \"#utility.yul\":15502:15515   */\n      0x4e65656420524553435545000000000000000000000000000000000000000000\n        /* \"#utility.yul\":15498:15499   */\n      0x00\n        /* \"#utility.yul\":15490:15496   */\n      dup3\n        /* \"#utility.yul\":15486:15500   */\n      add\n        /* \"#utility.yul\":15479:15516   */\n      mstore\n        /* \"#utility.yul\":15362:15523   */\n      pop\n      jump\t// out\n        /* \"#utility.yul\":15529:15895   */\n    tag_571:\n        /* \"#utility.yul\":15671:15674   */\n      0x00\n        /* \"#utility.yul\":15692:15759   */\n      tag_773\n        /* \"#utility.yul\":15756:15758   */\n      0x0b\n        /* \"#utility.yul\":15751:15754   */\n      dup4\n        /* \"#utility.yul\":15692:15759   */\n      tag_536\n      jump\t// in\n    tag_773:\n        /* \"#utility.yul\":15685:15759   */\n      swap2\n      pop\n        /* \"#utility.yul\":15768:15861   */\n      tag_774\n        /* \"#utility.yul\":15857:15860   */\n      dup3\n        /* \"#utility.yul\":15768:15861   */\n      tag_570\n      jump\t// in\n    tag_774:\n        /* \"#utility.yul\":15886:15888   */\n      0x20\n        /* \"#utility.yul\":15881:15884   */\n      dup3\n        /* \"#utility.yul\":15877:15889   */\n      add\n        /* \"#utility.yul\":15870:15889   */\n      swap1\n      pop\n        /* \"#utility.yul\":15529:15895   */\n      swap2\n      swap1\n      pop\n      jump\t// out\n        /* \"#utility.yul\":15901:16320   */\n    tag_272:\n        /* \"#utility.yul\":16067:16071   */\n      0x00\n        /* \"#utility.yul\":16105:16107   */\n      0x20\n        /* \"#utility.yul\":16094:16103   */\n      dup3\n        /* \"#utility.yul\":16090:16108   */\n      add\n        /* \"#utility.yul\":16082:16108   */\n      swap1\n      pop\n        /* \"#utility.yul\":16154:16163   */\n      dup2\n        /* \"#utility.yul\":16148:16152   */\n      dup2\n        /* \"#utility.yul\":16144:16164   */\n      sub\n        /* \"#utility.yul\":16140:16141   */\n      0x00\n        /* \"#utility.yul\":16129:16138   */\n      dup4\n        /* \"#utility.yul\":16125:16142   */\n      add\n        /* \"#utility.yul\":16118:16165   */\n      mstore\n        /* \"#utility.yul\":16182:16313   */\n      tag_776\n        /* \"#utility.yul\":16308:16312   */\n      dup2\n        /* \"#utility.yul\":16182:16313   */\n      tag_571\n      jump\t// in\n    tag_776:\n        /* \"#utility.yul\":16174:16313   */\n      swap1\n      pop\n        /* \"#utility.yul\":15901:16320   */\n      swap2\n      swap1\n      pop\n      jump\t// out\n        /* \"#utility.yul\":16326:16386   */\n    tag_572:\n        /* \"#utility.yul\":16354:16357   */\n      0x00\n        /* \"#utility.yul\":16375:16380   */\n      dup2\n        /* \"#utility.yul\":16368:16380   */\n      swap1\n      pop\n        /* \"#utility.yul\":16326:16386   */\n      swap2\n      swap1\n      pop\n      jump\t// out\n        /* \"#utility.yul\":16392:16534   */\n    tag_573:\n        /* \"#utility.yul\":16442:16451   */\n      0x00\n        /* \"#utility.yul\":16475:16528   */\n      tag_779\n        /* \"#utility.yul\":16493:16527   */\n      tag_780\n        /* \"#utility.yul\":16502:16526   */\n      tag_781\n        /* \"#utility.yul\":16520:16525   */\n      dup5\n        /* \"#utility.yul\":16502:16526   */\n      tag_540\n      jump\t// in\n    tag_781:\n        /* \"#utility.yul\":16493:16527   */\n      tag_572\n      jump\t// in\n    tag_780:\n        /* \"#utility.yul\":16475:16528   */\n      tag_540\n      jump\t// in\n    tag_779:\n        /* \"#utility.yul\":16462:16528   */\n      swap1\n      pop\n        /* \"#utility.yul\":16392:16534   */\n      swap2\n      swap1\n      pop\n      jump\t// out\n        /* \"#utility.yul\":16540:16666   */\n    tag_574:\n        /* \"#utility.yul\":16590:16599   */\n      0x00\n        /* \"#utility.yul\":16623:16660   */\n      tag_783\n        /* \"#utility.yul\":16654:16659   */\n      dup3\n        /* \"#utility.yul\":16623:16660   */\n      tag_573\n      jump\t// in\n    tag_783:\n        /* \"#utility.yul\":16610:16660   */\n      swap1\n      pop\n        /* \"#utility.yul\":16540:16666   */\n      swap2\n      swap1\n      pop\n      jump\t// out\n        /* \"#utility.yul\":16672:16813   */\n    tag_575:\n        /* \"#utility.yul\":16737:16746   */\n      0x00\n        /* \"#utility.yul\":16770:16807   */\n      tag_785\n        /* \"#utility.yul\":16801:16806   */\n      dup3\n        /* \"#utility.yul\":16770:16807   */\n      tag_574\n      jump\t// in\n    tag_785:\n        /* \"#utility.yul\":16757:16807   */\n      swap1\n      pop\n        /* \"#utility.yul\":16672:16813   */\n      swap2\n      swap1\n      pop\n      jump\t// out\n        /* \"#utility.yul\":16819:16980   */\n    tag_576:\n        /* \"#utility.yul\":16921:16973   */\n      tag_787\n        /* \"#utility.yul\":16967:16972   */\n      dup2\n        /* \"#utility.yul\":16921:16973   */\n      tag_575\n      jump\t// in\n    tag_787:\n        /* \"#utility.yul\":16916:16919   */\n      dup3\n        /* \"#utility.yul\":16909:16974   */\n      mstore\n        /* \"#utility.yul\":16819:16980   */\n      pop\n      pop\n      jump\t// out\n        /* \"#utility.yul\":16986:17569   */\n    tag_276:\n        /* \"#utility.yul\":17178:17182   */\n      0x00\n        /* \"#utility.yul\":17216:17219   */\n      0x80\n        /* \"#utility.yul\":17205:17214   */\n      dup3\n        /* \"#utility.yul\":17201:17220   */\n      add\n        /* \"#utility.yul\":17193:17220   */\n      swap1\n      pop\n        /* \"#utility.yul\":17230:17316   */\n      tag_789\n        /* \"#utility.yul\":17313:17314   */\n      0x00\n        /* \"#utility.yul\":17302:17311   */\n      dup4\n        /* \"#utility.yul\":17298:17315   */\n      add\n        /* \"#utility.yul\":17289:17295   */\n      dup8\n        /* \"#utility.yul\":17230:17316   */\n      tag_576\n      jump\t// in\n    tag_789:\n        /* \"#utility.yul\":17326:17398   */\n      tag_790\n        /* \"#utility.yul\":17394:17396   */\n      0x20\n        /* \"#utility.yul\":17383:17392   */\n      dup4\n        /* \"#utility.yul\":17379:17397   */\n      add\n        /* \"#utility.yul\":17370:17376   */\n      dup7\n        /* \"#utility.yul\":17326:17398   */\n      tag_549\n      jump\t// in\n    tag_790:\n        /* \"#utility.yul\":17408:17480   */\n      tag_791\n        /* \"#utility.yul\":17476:17478   */\n      0x40\n        /* \"#utility.yul\":17465:17474   */\n      dup4\n        /* \"#utility.yul\":17461:17479   */\n      add\n        /* \"#utility.yul\":17452:17458   */\n      dup6\n        /* \"#utility.yul\":17408:17480   */\n      tag_562\n      jump\t// in\n    tag_791:\n        /* \"#utility.yul\":17490:17562   */\n      tag_792\n        /* \"#utility.yul\":17558:17560   */\n      0x60\n        /* \"#utility.yul\":17547:17556   */\n      dup4\n        /* \"#utility.yul\":17543:17561   */\n      add\n        /* \"#utility.yul\":17534:17540   */\n      dup5\n        /* \"#utility.yul\":17490:17562   */\n      tag_549\n      jump\t// in\n    tag_792:\n        /* \"#utility.yul\":16986:17569   */\n      swap6\n      swap5\n      pop\n      pop\n      pop\n      pop\n      pop\n      jump\t// out\n        /* \"#utility.yul\":17575:17753   */\n    tag_577:\n        /* \"#utility.yul\":17715:17745   */\n      0x436f6e74726163743a20436f6e74726163742069732050617573656400000000\n        /* \"#utility.yul\":17711:17712   */\n      0x00\n        /* \"#utility.yul\":17703:17709   */\n      dup3\n        /* \"#utility.yul\":17699:17713   */\n      add\n        /* \"#utility.yul\":17692:17746   */\n      mstore\n        /* \"#utility.yul\":17575:17753   */\n      pop\n      jump\t// out\n        /* \"#utility.yul\":17759:18125   */\n    tag_578:\n        /* \"#utility.yul\":17901:17904   */\n      0x00\n        /* \"#utility.yul\":17922:17989   */\n      tag_795\n        /* \"#utility.yul\":17986:17988   */\n      0x1c\n        /* \"#utility.yul\":17981:17984   */\n      dup4\n        /* \"#utility.yul\":17922:17989   */\n      tag_536\n      jump\t// in\n    tag_795:\n        /* \"#utility.yul\":17915:17989   */\n      swap2\n      pop\n        /* \"#utility.yul\":17998:18091   */\n      tag_796\n        /* \"#utility.yul\":18087:18090   */\n      dup3\n        /* \"#utility.yul\":17998:18091   */\n      tag_577\n      jump\t// in\n    tag_796:\n        /* \"#utility.yul\":18116:18118   */\n      0x20\n        /* \"#utility.yul\":18111:18114   */\n      dup3\n        /* \"#utility.yul\":18107:18119   */\n      add\n        /* \"#utility.yul\":18100:18119   */\n      swap1\n      pop\n        /* \"#utility.yul\":17759:18125   */\n      swap2\n      swap1\n      pop\n      jump\t// out\n        /* \"#utility.yul\":18131:18550   */\n    tag_281:\n        /* \"#utility.yul\":18297:18301   */\n      0x00\n        /* \"#utility.yul\":18335:18337   */\n      0x20\n        /* \"#utility.yul\":18324:18333   */\n      dup3\n        /* \"#utility.yul\":18320:18338   */\n      add\n        /* \"#utility.yul\":18312:18338   */\n      swap1\n      pop\n        /* \"#utility.yul\":18384:18393   */\n      dup2\n        /* \"#utility.yul\":18378:18382   */\n      dup2\n        /* \"#utility.yul\":18374:18394   */\n      sub\n        /* \"#utility.yul\":18370:18371   */\n      0x00\n        /* \"#utility.yul\":18359:18368   */\n      dup4\n        /* \"#utility.yul\":18355:18372   */\n      add\n        /* \"#utility.yul\":18348:18395   */\n      mstore\n        /* \"#utility.yul\":18412:18543   */\n      tag_798\n        /* \"#utility.yul\":18538:18542   */\n      dup2\n        /* \"#utility.yul\":18412:18543   */\n      tag_578\n      jump\t// in\n    tag_798:\n        /* \"#utility.yul\":18404:18543   */\n      swap1\n      pop\n        /* \"#utility.yul\":18131:18550   */\n      swap2\n      swap1\n      pop\n      jump\t// out\n        /* \"#utility.yul\":18556:18725   */\n    tag_579:\n        /* \"#utility.yul\":18696:18717   */\n      0x436f6e74726163743a204e656564204275726e00000000000000000000000000\n        /* \"#utility.yul\":18692:18693   */\n      0x00\n        /* \"#utility.yul\":18684:18690   */\n      dup3\n        /* \"#utility.yul\":18680:18694   */\n      add\n        /* \"#utility.yul\":18673:18718   */\n      mstore\n        /* \"#utility.yul\":18556:18725   */\n      pop\n      jump\t// out\n        /* \"#utility.yul\":18731:19097   */\n    tag_580:\n        /* \"#utility.yul\":18873:18876   */\n      0x00\n        /* \"#utility.yul\":18894:18961   */\n      tag_801\n        /* \"#utility.yul\":18958:18960   */\n      0x13\n        /* \"#utility.yul\":18953:18956   */\n      dup4\n        /* \"#utility.yul\":18894:18961   */\n      tag_536\n      jump\t// in\n    tag_801:\n        /* \"#utility.yul\":18887:18961   */\n      swap2\n      pop\n        /* \"#utility.yul\":18970:19063   */\n      tag_802\n        /* \"#utility.yul\":19059:19062   */\n      dup3\n        /* \"#utility.yul\":18970:19063   */\n      tag_579\n      jump\t// in\n    tag_802:\n        /* \"#utility.yul\":19088:19090   */\n      0x20\n        /* \"#utility.yul\":19083:19086   */\n      dup3\n        /* \"#utility.yul\":19079:19091   */\n      add\n        /* \"#utility.yul\":19072:19091   */\n      swap1\n      pop\n        /* \"#utility.yul\":18731:19097   */\n      swap2\n      swap1\n      pop\n      jump\t// out\n        /* \"#utility.yul\":19103:19522   */\n    tag_287:\n        /* \"#utility.yul\":19269:19273   */\n      0x00\n        /* \"#utility.yul\":19307:19309   */\n      0x20\n        /* \"#utility.yul\":19296:19305   */\n      dup3\n        /* \"#utility.yul\":19292:19310   */\n      add\n        /* \"#utility.yul\":19284:19310   */\n      swap1\n      pop\n        /* \"#utility.yul\":19356:19365   */\n      dup2\n        /* \"#utility.yul\":19350:19354   */\n      dup2\n        /* \"#utility.yul\":19346:19366   */\n      sub\n        /* \"#utility.yul\":19342:19343   */\n      0x00\n        /* \"#utility.yul\":19331:19340   */\n      dup4\n        /* \"#utility.yul\":19327:19344   */\n      add\n        /* \"#utility.yul\":19320:19367   */\n      mstore\n        /* \"#utility.yul\":19384:19515   */\n      tag_804\n        /* \"#utility.yul\":19510:19514   */\n      dup2\n        /* \"#utility.yul\":19384:19515   */\n      tag_580\n      jump\t// in\n    tag_804:\n        /* \"#utility.yul\":19376:19515   */\n      swap1\n      pop\n        /* \"#utility.yul\":19103:19522   */\n      swap2\n      swap1\n      pop\n      jump\t// out\n        /* \"#utility.yul\":19528:19697   */\n    tag_581:\n        /* \"#utility.yul\":19668:19689   */\n      0x4d696e74696e6720746f2064697361626c656400000000000000000000000000\n        /* \"#utility.yul\":19664:19665   */\n      0x00\n        /* \"#utility.yul\":19656:19662   */\n      dup3\n        /* \"#utility.yul\":19652:19666   */\n      add\n        /* \"#utility.yul\":19645:19690   */\n      mstore\n        /* \"#utility.yul\":19528:19697   */\n      pop\n      jump\t// out\n        /* \"#utility.yul\":19703:20069   */\n    tag_582:\n        /* \"#utility.yul\":19845:19848   */\n      0x00\n        /* \"#utility.yul\":19866:19933   */\n      tag_807\n        /* \"#utility.yul\":19930:19932   */\n      0x13\n        /* \"#utility.yul\":19925:19928   */\n      dup4\n        /* \"#utility.yul\":19866:19933   */\n      tag_536\n      jump\t// in\n    tag_807:\n        /* \"#utility.yul\":19859:19933   */\n      swap2\n      pop\n        /* \"#utility.yul\":19942:20035   */\n      tag_808\n        /* \"#utility.yul\":20031:20034   */\n      dup3\n        /* \"#utility.yul\":19942:20035   */\n      tag_581\n      jump\t// in\n    tag_808:\n        /* \"#utility.yul\":20060:20062   */\n      0x20\n        /* \"#utility.yul\":20055:20058   */\n      dup3\n        /* \"#utility.yul\":20051:20063   */\n      add\n        /* \"#utility.yul\":20044:20063   */\n      swap1\n      pop\n        /* \"#utility.yul\":19703:20069   */\n      swap2\n      swap1\n      pop\n      jump\t// out\n        /* \"#utility.yul\":20075:20494   */\n    tag_299:\n        /* \"#utility.yul\":20241:20245   */\n      0x00\n        /* \"#utility.yul\":20279:20281   */\n      0x20\n        /* \"#utility.yul\":20268:20277   */\n      dup3\n        /* \"#utility.yul\":20264:20282   */\n      add\n        /* \"#utility.yul\":20256:20282   */\n      swap1\n      pop\n        /* \"#utility.yul\":20328:20337   */\n      dup2\n        /* \"#utility.yul\":20322:20326   */\n      dup2\n        /* \"#utility.yul\":20318:20338   */\n      sub\n        /* \"#utility.yul\":20314:20315   */\n      0x00\n        /* \"#utility.yul\":20303:20312   */\n      dup4\n        /* \"#utility.yul\":20299:20316   */\n      add\n        /* \"#utility.yul\":20292:20339   */\n      mstore\n        /* \"#utility.yul\":20356:20487   */\n      tag_810\n        /* \"#utility.yul\":20482:20486   */\n      dup2\n        /* \"#utility.yul\":20356:20487   */\n      tag_582\n      jump\t// in\n    tag_810:\n        /* \"#utility.yul\":20348:20487   */\n      swap1\n      pop\n        /* \"#utility.yul\":20075:20494   */\n      swap2\n      swap1\n      pop\n      jump\t// out\n        /* \"#utility.yul\":20500:20670   */\n    tag_583:\n        /* \"#utility.yul\":20640:20662   */\n      0x436f6e74726163743a204e656564204d696e746f000000000000000000000000\n        /* \"#utility.yul\":20636:20637   */\n      0x00\n        /* \"#utility.yul\":20628:20634   */\n      dup3\n        /* \"#utility.yul\":20624:20638   */\n      add\n        /* \"#utility.yul\":20617:20663   */\n      mstore\n        /* \"#utility.yul\":20500:20670   */\n      pop\n      jump\t// out\n        /* \"#utility.yul\":20676:21042   */\n    tag_584:\n        /* \"#utility.yul\":20818:20821   */\n      0x00\n        /* \"#utility.yul\":20839:20906   */\n      tag_813\n        /* \"#utility.yul\":20903:20905   */\n      0x14\n        /* \"#utility.yul\":20898:20901   */\n      dup4\n        /* \"#utility.yul\":20839:20906   */\n      tag_536\n      jump\t// in\n    tag_813:\n        /* \"#utility.yul\":20832:20906   */\n      swap2\n      pop\n        /* \"#utility.yul\":20915:21008   */\n      tag_814\n        /* \"#utility.yul\":21004:21007   */\n      dup3\n        /* \"#utility.yul\":20915:21008   */\n      tag_583\n      jump\t// in\n    tag_814:\n        /* \"#utility.yul\":21033:21035   */\n      0x20\n        /* \"#utility.yul\":21028:21031   */\n      dup3\n        /* \"#utility.yul\":21024:21036   */\n      add\n        /* \"#utility.yul\":21017:21036   */\n      swap1\n      pop\n        /* \"#utility.yul\":20676:21042   */\n      swap2\n      swap1\n      pop\n      jump\t// out\n        /* \"#utility.yul\":21048:21467   */\n    tag_305:\n        /* \"#utility.yul\":21214:21218   */\n      0x00\n        /* \"#utility.yul\":21252:21254   */\n      0x20\n        /* \"#utility.yul\":21241:21250   */\n      dup3\n        /* \"#utility.yul\":21237:21255   */\n      add\n        /* \"#utility.yul\":21229:21255   */\n      swap1\n      pop\n        /* \"#utility.yul\":21301:21310   */\n      dup2\n        /* \"#utility.yul\":21295:21299   */\n      dup2\n        /* \"#utility.yul\":21291:21311   */\n      sub\n        /* \"#utility.yul\":21287:21288   */\n      0x00\n        /* \"#utility.yul\":21276:21285   */\n      dup4\n        /* \"#utility.yul\":21272:21289   */\n      add\n        /* \"#utility.yul\":21265:21312   */\n      mstore\n        /* \"#utility.yul\":21329:21460   */\n      tag_816\n        /* \"#utility.yul\":21455:21459   */\n      dup2\n        /* \"#utility.yul\":21329:21460   */\n      tag_584\n      jump\t// in\n    tag_816:\n        /* \"#utility.yul\":21321:21460   */\n      swap1\n      pop\n        /* \"#utility.yul\":21048:21467   */\n      swap2\n      swap1\n      pop\n      jump\t// out\n        /* \"#utility.yul\":21473:21653   */\n    tag_585:\n        /* \"#utility.yul\":21521:21598   */\n      0x4e487b7100000000000000000000000000000000000000000000000000000000\n        /* \"#utility.yul\":21518:21519   */\n      0x00\n        /* \"#utility.yul\":21511:21599   */\n      mstore\n        /* \"#utility.yul\":21618:21622   */\n      0x11\n        /* \"#utility.yul\":21615:21616   */\n      0x04\n        /* \"#utility.yul\":21608:21623   */\n      mstore\n        /* \"#utility.yul\":21642:21646   */\n      0x24\n        /* \"#utility.yul\":21639:21640   */\n      0x00\n        /* \"#utility.yul\":21632:21647   */\n      revert\n        /* \"#utility.yul\":21659:21850   */\n    tag_308:\n        /* \"#utility.yul\":21699:21702   */\n      0x00\n        /* \"#utility.yul\":21718:21738   */\n      tag_819\n        /* \"#utility.yul\":21736:21737   */\n      dup3\n        /* \"#utility.yul\":21718:21738   */\n      tag_544\n      jump\t// in\n    tag_819:\n        /* \"#utility.yul\":21713:21738   */\n      swap2\n      pop\n        /* \"#utility.yul\":21752:21772   */\n      tag_820\n        /* \"#utility.yul\":21770:21771   */\n      dup4\n        /* \"#utility.yul\":21752:21772   */\n      tag_544\n      jump\t// in\n    tag_820:\n        /* \"#utility.yul\":21747:21772   */\n      swap3\n      pop\n        /* \"#utility.yul\":21795:21796   */\n      dup3\n        /* \"#utility.yul\":21792:21793   */\n      dup3\n        /* \"#utility.yul\":21788:21797   */\n      add\n        /* \"#utility.yul\":21781:21797   */\n      swap1\n      pop\n        /* \"#utility.yul\":21816:21819   */\n      dup1\n        /* \"#utility.yul\":21813:21814   */\n      dup3\n        /* \"#utility.yul\":21810:21820   */\n      gt\n        /* \"#utility.yul\":21807:21843   */\n      iszero\n      tag_821\n      jumpi\n        /* \"#utility.yul\":21823:21841   */\n      tag_822\n      tag_585\n      jump\t// in\n    tag_822:\n        /* \"#utility.yul\":21807:21843   */\n    tag_821:\n        /* \"#utility.yul\":21659:21850   */\n      swap3\n      swap2\n      pop\n      pop\n      jump\t// out\n        /* \"#utility.yul\":21856:22035   */\n    tag_586:\n        /* \"#utility.yul\":21996:22027   */\n      0x436f6e74726163743a20537570706c7920436170206578636565646564000000\n        /* \"#utility.yul\":21992:21993   */\n      0x00\n        /* \"#utility.yul\":21984:21990   */\n      dup3\n        /* \"#utility.yul\":21980:21994   */\n      add\n        /* \"#utility.yul\":21973:22028   */\n      mstore\n        /* \"#utility.yul\":21856:22035   */\n      pop\n      jump\t// out\n        /* \"#utility.yul\":22041:22407   */\n    tag_587:\n        /* \"#utility.yul\":22183:22186   */\n      0x00\n        /* \"#utility.yul\":22204:22271   */\n      tag_825\n        /* \"#utility.yul\":22268:22270   */\n      0x1d\n        /* \"#utility.yul\":22263:22266   */\n      dup4\n        /* \"#utility.yul\":22204:22271   */\n      tag_536\n      jump\t// in\n    tag_825:\n        /* \"#utility.yul\":22197:22271   */\n      swap2\n      pop\n        /* \"#utility.yul\":22280:22373   */\n      tag_826\n        /* \"#utility.yul\":22369:22372   */\n      dup3\n        /* \"#utility.yul\":22280:22373   */\n      tag_586\n      jump\t// in\n    tag_826:\n        /* \"#utility.yul\":22398:22400   */\n      0x20\n        /* \"#utility.yul\":22393:22396   */\n      dup3\n        /* \"#utility.yul\":22389:22401   */\n      add\n        /* \"#utility.yul\":22382:22401   */\n      swap1\n      pop\n        /* \"#utility.yul\":22041:22407   */\n      swap2\n      swap1\n      pop\n      jump\t// out\n        /* \"#utility.yul\":22413:22832   */\n    tag_311:\n        /* \"#utility.yul\":22579:22583   */\n      0x00\n        /* \"#utility.yul\":22617:22619   */\n      0x20\n        /* \"#utility.yul\":22606:22615   */\n      dup3\n        /* \"#utility.yul\":22602:22620   */\n      add\n        /* \"#utility.yul\":22594:22620   */\n      swap1\n      pop\n        /* \"#utility.yul\":22666:22675   */\n      dup2\n        /* \"#utility.yul\":22660:22664   */\n      dup2\n        /* \"#utility.yul\":22656:22676   */\n      sub\n        /* \"#utility.yul\":22652:22653   */\n      0x00\n        /* \"#utility.yul\":22641:22650   */\n      dup4\n        /* \"#utility.yul\":22637:22654   */\n      add\n        /* \"#utility.yul\":22630:22677   */\n      mstore\n        /* \"#utility.yul\":22694:22825   */\n      tag_828\n        /* \"#utility.yul\":22820:22824   */\n      dup2\n        /* \"#utility.yul\":22694:22825   */\n      tag_587\n      jump\t// in\n    tag_828:\n        /* \"#utility.yul\":22686:22825   */\n      swap1\n      pop\n        /* \"#utility.yul\":22413:22832   */\n      swap2\n      swap1\n      pop\n      jump\t// out\n        /* \"#utility.yul\":22838:23170   */\n    tag_313:\n        /* \"#utility.yul\":22959:22963   */\n      0x00\n        /* \"#utility.yul\":22997:22999   */\n      0x40\n        /* \"#utility.yul\":22986:22995   */\n      dup3\n        /* \"#utility.yul\":22982:23000   */\n      add\n        /* \"#utility.yul\":22974:23000   */\n      swap1\n      pop\n        /* \"#utility.yul\":23010:23081   */\n      tag_830\n        /* \"#utility.yul\":23078:23079   */\n      0x00\n        /* \"#utility.yul\":23067:23076   */\n      dup4\n        /* \"#utility.yul\":23063:23080   */\n      add\n        /* \"#utility.yul\":23054:23060   */\n      dup6\n        /* \"#utility.yul\":23010:23081   */\n      tag_562\n      jump\t// in\n    tag_830:\n        /* \"#utility.yul\":23091:23163   */\n      tag_831\n        /* \"#utility.yul\":23159:23161   */\n      0x20\n        /* \"#utility.yul\":23148:23157   */\n      dup4\n        /* \"#utility.yul\":23144:23162   */\n      add\n        /* \"#utility.yul\":23135:23141   */\n      dup5\n        /* \"#utility.yul\":23091:23163   */\n      tag_549\n      jump\t// in\n    tag_831:\n        /* \"#utility.yul\":22838:23170   */\n      swap4\n      swap3\n      pop\n      pop\n      pop\n      jump\t// out\n        /* \"#utility.yul\":23176:23310   */\n    tag_588:\n        /* \"#utility.yul\":23234:23243   */\n      0x00\n        /* \"#utility.yul\":23267:23304   */\n      tag_833\n        /* \"#utility.yul\":23298:23303   */\n      dup3\n        /* \"#utility.yul\":23267:23304   */\n      tag_574\n      jump\t// in\n    tag_833:\n        /* \"#utility.yul\":23254:23304   */\n      swap1\n      pop\n        /* \"#utility.yul\":23176:23310   */\n      swap2\n      swap1\n      pop\n      jump\t// out\n        /* \"#utility.yul\":23316:23463   */\n    tag_589:\n        /* \"#utility.yul\":23411:23456   */\n      tag_835\n        /* \"#utility.yul\":23450:23455   */\n      dup2\n        /* \"#utility.yul\":23411:23456   */\n      tag_588\n      jump\t// in\n    tag_835:\n        /* \"#utility.yul\":23406:23409   */\n      dup3\n        /* \"#utility.yul\":23399:23457   */\n      mstore\n        /* \"#utility.yul\":23316:23463   */\n      pop\n      pop\n      jump\t// out\n        /* \"#utility.yul\":23469:23927   */\n    tag_325:\n        /* \"#utility.yul\":23626:23630   */\n      0x00\n        /* \"#utility.yul\":23664:23666   */\n      0x60\n        /* \"#utility.yul\":23653:23662   */\n      dup3\n        /* \"#utility.yul\":23649:23667   */\n      add\n        /* \"#utility.yul\":23641:23667   */\n      swap1\n      pop\n        /* \"#utility.yul\":23677:23756   */\n      tag_837\n        /* \"#utility.yul\":23753:23754   */\n      0x00\n        /* \"#utility.yul\":23742:23751   */\n      dup4\n        /* \"#utility.yul\":23738:23755   */\n      add\n        /* \"#utility.yul\":23729:23735   */\n      dup7\n        /* \"#utility.yul\":23677:23756   */\n      tag_589\n      jump\t// in\n    tag_837:\n        /* \"#utility.yul\":23766:23838   */\n      tag_838\n        /* \"#utility.yul\":23834:23836   */\n      0x20\n        /* \"#utility.yul\":23823:23832   */\n      dup4\n        /* \"#utility.yul\":23819:23837   */\n      add\n        /* \"#utility.yul\":23810:23816   */\n      dup6\n        /* \"#utility.yul\":23766:23838   */\n      tag_549\n      jump\t// in\n    tag_838:\n        /* \"#utility.yul\":23848:23920   */\n      tag_839\n        /* \"#utility.yul\":23916:23918   */\n      0x40\n        /* \"#utility.yul\":23905:23914   */\n      dup4\n        /* \"#utility.yul\":23901:23919   */\n      add\n        /* \"#utility.yul\":23892:23898   */\n      dup5\n        /* \"#utility.yul\":23848:23920   */\n      tag_549\n      jump\t// in\n    tag_839:\n        /* \"#utility.yul\":23469:23927   */\n      swap5\n      swap4\n      pop\n      pop\n      pop\n      pop\n      jump\t// out\n        /* \"#utility.yul\":23933:24106   */\n    tag_590:\n        /* \"#utility.yul\":24073:24098   */\n      0x436f6e74726163743a204e656564204275726e66726f6d000000000000000000\n        /* \"#utility.yul\":24069:24070   */\n      0x00\n        /* \"#utility.yul\":24061:24067   */\n      dup3\n        /* \"#utility.yul\":24057:24071   */\n      add\n        /* \"#utility.yul\":24050:24099   */\n      mstore\n        /* \"#utility.yul\":23933:24106   */\n      pop\n      jump\t// out\n        /* \"#utility.yul\":24112:24478   */\n    tag_591:\n        /* \"#utility.yul\":24254:24257   */\n      0x00\n        /* \"#utility.yul\":24275:24342   */\n      tag_842\n        /* \"#utility.yul\":24339:24341   */\n      0x17\n        /* \"#utility.yul\":24334:24337   */\n      dup4\n        /* \"#utility.yul\":24275:24342   */\n      tag_536\n      jump\t// in\n    tag_842:\n        /* \"#utility.yul\":24268:24342   */\n      swap2\n      pop\n        /* \"#utility.yul\":24351:24444   */\n      tag_843\n        /* \"#utility.yul\":24440:24443   */\n      dup3\n        /* \"#utility.yul\":24351:24444   */\n      tag_590\n      jump\t// in\n    tag_843:\n        /* \"#utility.yul\":24469:24471   */\n      0x20\n        /* \"#utility.yul\":24464:24467   */\n      dup3\n        /* \"#utility.yul\":24460:24472   */\n      add\n        /* \"#utility.yul\":24453:24472   */\n      swap1\n      pop\n        /* \"#utility.yul\":24112:24478   */\n      swap2\n      swap1\n      pop\n      jump\t// out\n        /* \"#utility.yul\":24484:24903   */\n    tag_336:\n        /* \"#utility.yul\":24650:24654   */\n      0x00\n        /* \"#utility.yul\":24688:24690   */\n      0x20\n        /* \"#utility.yul\":24677:24686   */\n      dup3\n        /* \"#utility.yul\":24673:24691   */\n      add\n        /* \"#utility.yul\":24665:24691   */\n      swap1\n      pop\n        /* \"#utility.yul\":24737:24746   */\n      dup2\n        /* \"#utility.yul\":24731:24735   */\n      dup2\n        /* \"#utility.yul\":24727:24747   */\n      sub\n        /* \"#utility.yul\":24723:24724   */\n      0x00\n        /* \"#utility.yul\":24712:24721   */\n      dup4\n        /* \"#utility.yul\":24708:24725   */\n      add\n        /* \"#utility.yul\":24701:24748   */\n      mstore\n        /* \"#utility.yul\":24765:24896   */\n      tag_845\n        /* \"#utility.yul\":24891:24895   */\n      dup2\n        /* \"#utility.yul\":24765:24896   */\n      tag_591\n      jump\t// in\n    tag_845:\n        /* \"#utility.yul\":24757:24896   */\n      swap1\n      pop\n        /* \"#utility.yul\":24484:24903   */\n      swap2\n      swap1\n      pop\n      jump\t// out\n        /* \"#utility.yul\":24909:25351   */\n    tag_339:\n        /* \"#utility.yul\":25058:25062   */\n      0x00\n        /* \"#utility.yul\":25096:25098   */\n      0x60\n        /* \"#utility.yul\":25085:25094   */\n      dup3\n        /* \"#utility.yul\":25081:25099   */\n      add\n        /* \"#utility.yul\":25073:25099   */\n      swap1\n      pop\n        /* \"#utility.yul\":25109:25180   */\n      tag_847\n        /* \"#utility.yul\":25177:25178   */\n      0x00\n        /* \"#utility.yul\":25166:25175   */\n      dup4\n        /* \"#utility.yul\":25162:25179   */\n      add\n        /* \"#utility.yul\":25153:25159   */\n      dup7\n        /* \"#utility.yul\":25109:25180   */\n      tag_562\n      jump\t// in\n    tag_847:\n        /* \"#utility.yul\":25190:25262   */\n      tag_848\n        /* \"#utility.yul\":25258:25260   */\n      0x20\n        /* \"#utility.yul\":25247:25256   */\n      dup4\n        /* \"#utility.yul\":25243:25261   */\n      add\n        /* \"#utility.yul\":25234:25240   */\n      dup6\n        /* \"#utility.yul\":25190:25262   */\n      tag_549\n      jump\t// in\n    tag_848:\n        /* \"#utility.yul\":25272:25344   */\n      tag_849\n        /* \"#utility.yul\":25340:25342   */\n      0x40\n        /* \"#utility.yul\":25329:25338   */\n      dup4\n        /* \"#utility.yul\":25325:25343   */\n      add\n        /* \"#utility.yul\":25316:25322   */\n      dup5\n        /* \"#utility.yul\":25272:25344   */\n      tag_562\n      jump\t// in\n    tag_849:\n        /* \"#utility.yul\":24909:25351   */\n      swap5\n      swap4\n      pop\n      pop\n      pop\n      pop\n      jump\t// out\n        /* \"#utility.yul\":25357:25523   */\n    tag_592:\n        /* \"#utility.yul\":25497:25515   */\n      0x4d696e74696e672064697361626c656400000000000000000000000000000000\n        /* \"#utility.yul\":25493:25494   */\n      0x00\n        /* \"#utility.yul\":25485:25491   */\n      dup3\n        /* \"#utility.yul\":25481:25495   */\n      add\n        /* \"#utility.yul\":25474:25516   */\n      mstore\n        /* \"#utility.yul\":25357:25523   */\n      pop\n      jump\t// out\n        /* \"#utility.yul\":25529:25895   */\n    tag_593:\n        /* \"#utility.yul\":25671:25674   */\n      0x00\n        /* \"#utility.yul\":25692:25759   */\n      tag_852\n        /* \"#utility.yul\":25756:25758   */\n      0x10\n        /* \"#utility.yul\":25751:25754   */\n      dup4\n        /* \"#utility.yul\":25692:25759   */\n      tag_536\n      jump\t// in\n    tag_852:\n        /* \"#utility.yul\":25685:25759   */\n      swap2\n      pop\n        /* \"#utility.yul\":25768:25861   */\n      tag_853\n        /* \"#utility.yul\":25857:25860   */\n      dup3\n        /* \"#utility.yul\":25768:25861   */\n      tag_592\n      jump\t// in\n    tag_853:\n        /* \"#utility.yul\":25886:25888   */\n      0x20\n        /* \"#utility.yul\":25881:25884   */\n      dup3\n        /* \"#utility.yul\":25877:25889   */\n      add\n        /* \"#utility.yul\":25870:25889   */\n      swap1\n      pop\n        /* \"#utility.yul\":25529:25895   */\n      swap2\n      swap1\n      pop\n      jump\t// out\n        /* \"#utility.yul\":25901:26320   */\n    tag_355:\n        /* \"#utility.yul\":26067:26071   */\n      0x00\n        /* \"#utility.yul\":26105:26107   */\n      0x20\n        /* \"#utility.yul\":26094:26103   */\n      dup3\n        /* \"#utility.yul\":26090:26108   */\n      add\n        /* \"#utility.yul\":26082:26108   */\n      swap1\n      pop\n        /* \"#utility.yul\":26154:26163   */\n      dup2\n        /* \"#utility.yul\":26148:26152   */\n      dup2\n        /* \"#utility.yul\":26144:26164   */\n      sub\n        /* \"#utility.yul\":26140:26141   */\n      0x00\n        /* \"#utility.yul\":26129:26138   */\n      dup4\n        /* \"#utility.yul\":26125:26142   */\n      add\n        /* \"#utility.yul\":26118:26165   */\n      mstore\n        /* \"#utility.yul\":26182:26313   */\n      tag_855\n        /* \"#utility.yul\":26308:26312   */\n      dup2\n        /* \"#utility.yul\":26182:26313   */\n      tag_593\n      jump\t// in\n    tag_855:\n        /* \"#utility.yul\":26174:26313   */\n      swap1\n      pop\n        /* \"#utility.yul\":25901:26320   */\n      swap2\n      swap1\n      pop\n      jump\t// out\n        /* \"#utility.yul\":26326:26495   */\n    tag_594:\n        /* \"#utility.yul\":26466:26487   */\n      0x436f6e74726163743a204e656564204d696e7400000000000000000000000000\n        /* \"#utility.yul\":26462:26463   */\n      0x00\n        /* \"#utility.yul\":26454:26460   */\n      dup3\n        /* \"#utility.yul\":26450:26464   */\n      add\n        /* \"#utility.yul\":26443:26488   */\n      mstore\n        /* \"#utility.yul\":26326:26495   */\n      pop\n      jump\t// out\n        /* \"#utility.yul\":26501:26867   */\n    tag_595:\n        /* \"#utility.yul\":26643:26646   */\n      0x00\n        /* \"#utility.yul\":26664:26731   */\n      tag_858\n        /* \"#utility.yul\":26728:26730   */\n      0x13\n        /* \"#utility.yul\":26723:26726   */\n      dup4\n        /* \"#utility.yul\":26664:26731   */\n      tag_536\n      jump\t// in\n    tag_858:\n        /* \"#utility.yul\":26657:26731   */\n      swap2\n      pop\n        /* \"#utility.yul\":26740:26833   */\n      tag_859\n        /* \"#utility.yul\":26829:26832   */\n      dup3\n        /* \"#utility.yul\":26740:26833   */\n      tag_594\n      jump\t// in\n    tag_859:\n        /* \"#utility.yul\":26858:26860   */\n      0x20\n        /* \"#utility.yul\":26853:26856   */\n      dup3\n        /* \"#utility.yul\":26849:26861   */\n      add\n        /* \"#utility.yul\":26842:26861   */\n      swap1\n      pop\n        /* \"#utility.yul\":26501:26867   */\n      swap2\n      swap1\n      pop\n      jump\t// out\n        /* \"#utility.yul\":26873:27292   */\n    tag_361:\n        /* \"#utility.yul\":27039:27043   */\n      0x00\n        /* \"#utility.yul\":27077:27079   */\n      0x20\n        /* \"#utility.yul\":27066:27075   */\n      dup3\n        /* \"#utility.yul\":27062:27080   */\n      add\n        /* \"#utility.yul\":27054:27080   */\n      swap1\n      pop\n        /* \"#utility.yul\":27126:27135   */\n      dup2\n        /* \"#utility.yul\":27120:27124   */\n      dup2\n        /* \"#utility.yul\":27116:27136   */\n      sub\n        /* \"#utility.yul\":27112:27113   */\n      0x00\n        /* \"#utility.yul\":27101:27110   */\n      dup4\n        /* \"#utility.yul\":27097:27114   */\n      add\n        /* \"#utility.yul\":27090:27137   */\n      mstore\n        /* \"#utility.yul\":27154:27285   */\n      tag_861\n        /* \"#utility.yul\":27280:27284   */\n      dup2\n        /* \"#utility.yul\":27154:27285   */\n      tag_595\n      jump\t// in\n    tag_861:\n        /* \"#utility.yul\":27146:27285   */\n      swap1\n      pop\n        /* \"#utility.yul\":26873:27292   */\n      swap2\n      swap1\n      pop\n      jump\t// out\n        /* \"#utility.yul\":27298:27459   */\n    tag_596:\n        /* \"#utility.yul\":27438:27451   */\n      0x4e65656420537570706c79000000000000000000000000000000000000000000\n        /* \"#utility.yul\":27434:27435   */\n      0x00\n        /* \"#utility.yul\":27426:27432   */\n      dup3\n        /* \"#utility.yul\":27422:27436   */\n      add\n        /* \"#utility.yul\":27415:27452   */\n      mstore\n        /* \"#utility.yul\":27298:27459   */\n      pop\n      jump\t// out\n        /* \"#utility.yul\":27465:27831   */\n    tag_597:\n        /* \"#utility.yul\":27607:27610   */\n      0x00\n        /* \"#utility.yul\":27628:27695   */\n      tag_864\n        /* \"#utility.yul\":27692:27694   */\n      0x0b\n        /* \"#utility.yul\":27687:27690   */\n      dup4\n        /* \"#utility.yul\":27628:27695   */\n      tag_536\n      jump\t// in\n    tag_864:\n        /* \"#utility.yul\":27621:27695   */\n      swap2\n      pop\n        /* \"#utility.yul\":27704:27797   */\n      tag_865\n        /* \"#utility.yul\":27793:27796   */\n      dup3\n        /* \"#utility.yul\":27704:27797   */\n      tag_596\n      jump\t// in\n    tag_865:\n        /* \"#utility.yul\":27822:27824   */\n      0x20\n        /* \"#utility.yul\":27817:27820   */\n      dup3\n        /* \"#utility.yul\":27813:27825   */\n      add\n        /* \"#utility.yul\":27806:27825   */\n      swap1\n      pop\n        /* \"#utility.yul\":27465:27831   */\n      swap2\n      swap1\n      pop\n      jump\t// out\n        /* \"#utility.yul\":27837:28256   */\n    tag_387:\n        /* \"#utility.yul\":28003:28007   */\n      0x00\n        /* \"#utility.yul\":28041:28043   */\n      0x20\n        /* \"#utility.yul\":28030:28039   */\n      dup3\n        /* \"#utility.yul\":28026:28044   */\n      add\n        /* \"#utility.yul\":28018:28044   */\n      swap1\n      pop\n        /* \"#utility.yul\":28090:28099   */\n      dup2\n        /* \"#utility.yul\":28084:28088   */\n      dup2\n        /* \"#utility.yul\":28080:28100   */\n      sub\n        /* \"#utility.yul\":28076:28077   */\n      0x00\n        /* \"#utility.yul\":28065:28074   */\n      dup4\n        /* \"#utility.yul\":28061:28078   */\n      add\n        /* \"#utility.yul\":28054:28101   */\n      mstore\n        /* \"#utility.yul\":28118:28249   */\n      tag_867\n        /* \"#utility.yul\":28244:28248   */\n      dup2\n        /* \"#utility.yul\":28118:28249   */\n      tag_597\n      jump\t// in\n    tag_867:\n        /* \"#utility.yul\":28110:28249   */\n      swap1\n      pop\n        /* \"#utility.yul\":27837:28256   */\n      swap2\n      swap1\n      pop\n      jump\t// out\n        /* \"#utility.yul\":28262:28440   */\n    tag_598:\n        /* \"#utility.yul\":28402:28432   */\n      0x436f6e74726163743a20537570706c792043617020746f6f206c6f7700000000\n        /* \"#utility.yul\":28398:28399   */\n      0x00\n        /* \"#utility.yul\":28390:28396   */\n      dup3\n        /* \"#utility.yul\":28386:28400   */\n      add\n        /* \"#utility.yul\":28379:28433   */\n      mstore\n        /* \"#utility.yul\":28262:28440   */\n      pop\n      jump\t// out\n        /* \"#utility.yul\":28446:28812   */\n    tag_599:\n        /* \"#utility.yul\":28588:28591   */\n      0x00\n        /* \"#utility.yul\":28609:28676   */\n      tag_870\n        /* \"#utility.yul\":28673:28675   */\n      0x1c\n        /* \"#utility.yul\":28668:28671   */\n      dup4\n        /* \"#utility.yul\":28609:28676   */\n      tag_536\n      jump\t// in\n    tag_870:\n        /* \"#utility.yul\":28602:28676   */\n      swap2\n      pop\n        /* \"#utility.yul\":28685:28778   */\n      tag_871\n        /* \"#utility.yul\":28774:28777   */\n      dup3\n        /* \"#utility.yul\":28685:28778   */\n      tag_598\n      jump\t// in\n    tag_871:\n        /* \"#utility.yul\":28803:28805   */\n      0x20\n        /* \"#utility.yul\":28798:28801   */\n      dup3\n        /* \"#utility.yul\":28794:28806   */\n      add\n        /* \"#utility.yul\":28787:28806   */\n      swap1\n      pop\n        /* \"#utility.yul\":28446:28812   */\n      swap2\n      swap1\n      pop\n      jump\t// out\n        /* \"#utility.yul\":28818:29237   */\n    tag_391:\n        /* \"#utility.yul\":28984:28988   */\n      0x00\n        /* \"#utility.yul\":29022:29024   */\n      0x20\n        /* \"#utility.yul\":29011:29020   */\n      dup3\n        /* \"#utility.yul\":29007:29025   */\n      add\n        /* \"#utility.yul\":28999:29025   */\n      swap1\n      pop\n        /* \"#utility.yul\":29071:29080   */\n      dup2\n        /* \"#utility.yul\":29065:29069   */\n      dup2\n        /* \"#utility.yul\":29061:29081   */\n      sub\n        /* \"#utility.yul\":29057:29058   */\n      0x00\n        /* \"#utility.yul\":29046:29055   */\n      dup4\n        /* \"#utility.yul\":29042:29059   */\n      add\n        /* \"#utility.yul\":29035:29082   */\n      mstore\n        /* \"#utility.yul\":29099:29230   */\n      tag_873\n        /* \"#utility.yul\":29225:29229   */\n      dup2\n        /* \"#utility.yul\":29099:29230   */\n      tag_599\n      jump\t// in\n    tag_873:\n        /* \"#utility.yul\":29091:29230   */\n      swap1\n      pop\n        /* \"#utility.yul\":28818:29237   */\n      swap2\n      swap1\n      pop\n      jump\t// out\n        /* \"#utility.yul\":29243:29424   */\n    tag_600:\n        /* \"#utility.yul\":29383:29416   */\n      0x5265656e7472616e637947756172643a207265656e7472616e742063616c6c00\n        /* \"#utility.yul\":29379:29380   */\n      0x00\n        /* \"#utility.yul\":29371:29377   */\n      dup3\n        /* \"#utility.yul\":29367:29381   */\n      add\n        /* \"#utility.yul\":29360:29417   */\n      mstore\n        /* \"#utility.yul\":29243:29424   */\n      pop\n      jump\t// out\n        /* \"#utility.yul\":29430:29796   */\n    tag_601:\n        /* \"#utility.yul\":29572:29575   */\n      0x00\n        /* \"#utility.yul\":29593:29660   */\n      tag_876\n        /* \"#utility.yul\":29657:29659   */\n      0x1f\n        /* \"#utility.yul\":29652:29655   */\n      dup4\n        /* \"#utility.yul\":29593:29660   */\n      tag_536\n      jump\t// in\n    tag_876:\n        /* \"#utility.yul\":29586:29660   */\n      swap2\n      pop\n        /* \"#utility.yul\":29669:29762   */\n      tag_877\n        /* \"#utility.yul\":29758:29761   */\n      dup3\n        /* \"#utility.yul\":29669:29762   */\n      tag_600\n      jump\t// in\n    tag_877:\n        /* \"#utility.yul\":29787:29789   */\n      0x20\n        /* \"#utility.yul\":29782:29785   */\n      dup3\n        /* \"#utility.yul\":29778:29790   */\n      add\n        /* \"#utility.yul\":29771:29790   */\n      swap1\n      pop\n        /* \"#utility.yul\":29430:29796   */\n      swap2\n      swap1\n      pop\n      jump\t// out\n        /* \"#utility.yul\":29802:30221   */\n    tag_430:\n        /* \"#utility.yul\":29968:29972   */\n      0x00\n        /* \"#utility.yul\":30006:30008   */\n      0x20\n        /* \"#utility.yul\":29995:30004   */\n      dup3\n        /* \"#utility.yul\":29991:30009   */\n      add\n        /* \"#utility.yul\":29983:30009   */\n      swap1\n      pop\n        /* \"#utility.yul\":30055:30064   */\n      dup2\n        /* \"#utility.yul\":30049:30053   */\n      dup2\n        /* \"#utility.yul\":30045:30065   */\n      sub\n        /* \"#utility.yul\":30041:30042   */\n      0x00\n        /* \"#utility.yul\":30030:30039   */\n      dup4\n        /* \"#utility.yul\":30026:30043   */\n      add\n        /* \"#utility.yul\":30019:30066   */\n      mstore\n        /* \"#utility.yul\":30083:30214   */\n      tag_879\n        /* \"#utility.yul\":30209:30213   */\n      dup2\n        /* \"#utility.yul\":30083:30214   */\n      tag_601\n      jump\t// in\n    tag_879:\n        /* \"#utility.yul\":30075:30214   */\n      swap1\n      pop\n        /* \"#utility.yul\":29802:30221   */\n      swap2\n      swap1\n      pop\n      jump\t// out\n        /* \"#utility.yul\":30227:30559   */\n    tag_484:\n        /* \"#utility.yul\":30348:30352   */\n      0x00\n        /* \"#utility.yul\":30386:30388   */\n      0x40\n        /* \"#utility.yul\":30375:30384   */\n      dup3\n        /* \"#utility.yul\":30371:30389   */\n      add\n        /* \"#utility.yul\":30363:30389   */\n      swap1\n      pop\n        /* \"#utility.yul\":30399:30470   */\n      tag_881\n        /* \"#utility.yul\":30467:30468   */\n      0x00\n        /* \"#utility.yul\":30456:30465   */\n      dup4\n        /* \"#utility.yul\":30452:30469   */\n      add\n        /* \"#utility.yul\":30443:30449   */\n      dup6\n        /* \"#utility.yul\":30399:30470   */\n      tag_562\n      jump\t// in\n    tag_881:\n        /* \"#utility.yul\":30480:30552   */\n      tag_882\n        /* \"#utility.yul\":30548:30550   */\n      0x20\n        /* \"#utility.yul\":30537:30546   */\n      dup4\n        /* \"#utility.yul\":30533:30551   */\n      add\n        /* \"#utility.yul\":30524:30530   */\n      dup5\n        /* \"#utility.yul\":30480:30552   */\n      tag_553\n      jump\t// in\n    tag_882:\n        /* \"#utility.yul\":30227:30559   */\n      swap4\n      swap3\n      pop\n      pop\n      pop\n      jump\t// out\n        /* \"#utility.yul\":30565:30702   */\n    tag_602:\n        /* \"#utility.yul\":30619:30624   */\n      0x00\n        /* \"#utility.yul\":30650:30656   */\n      dup2\n        /* \"#utility.yul\":30644:30657   */\n      mload\n        /* \"#utility.yul\":30635:30657   */\n      swap1\n      pop\n        /* \"#utility.yul\":30666:30696   */\n      tag_884\n        /* \"#utility.yul\":30690:30695   */\n      dup2\n        /* \"#utility.yul\":30666:30696   */\n      tag_547\n      jump\t// in\n    tag_884:\n        /* \"#utility.yul\":30565:30702   */\n      swap3\n      swap2\n      pop\n      pop\n      jump\t// out\n        /* \"#utility.yul\":30708:31053   */\n    tag_490:\n        /* \"#utility.yul\":30775:30781   */\n      0x00\n        /* \"#utility.yul\":30824:30826   */\n      0x20\n        /* \"#utility.yul\":30812:30821   */\n      dup3\n        /* \"#utility.yul\":30803:30810   */\n      dup5\n        /* \"#utility.yul\":30799:30822   */\n      sub\n        /* \"#utility.yul\":30795:30827   */\n      slt\n        /* \"#utility.yul\":30792:30911   */\n      iszero\n      tag_886\n      jumpi\n        /* \"#utility.yul\":30830:30909   */\n      tag_887\n      tag_528\n      jump\t// in\n    tag_887:\n        /* \"#utility.yul\":30792:30911   */\n    tag_886:\n        /* \"#utility.yul\":30950:30951   */\n      0x00\n        /* \"#utility.yul\":30975:31036   */\n      tag_888\n        /* \"#utility.yul\":31028:31035   */\n      dup5\n        /* \"#utility.yul\":31019:31025   */\n      dup3\n        /* \"#utility.yul\":31008:31017   */\n      dup6\n        /* \"#utility.yul\":31004:31026   */\n      add\n        /* \"#utility.yul\":30975:31036   */\n      tag_602\n      jump\t// in\n    tag_888:\n        /* \"#utility.yul\":30965:31036   */\n      swap2\n      pop\n        /* \"#utility.yul\":30921:31046   */\n      pop\n        /* \"#utility.yul\":30708:31053   */\n      swap3\n      swap2\n      pop\n      pop\n      jump\t// out\n        /* \"#utility.yul\":31059:31501   */\n    tag_499:\n        /* \"#utility.yul\":31208:31212   */\n      0x00\n        /* \"#utility.yul\":31246:31248   */\n      0x60\n        /* \"#utility.yul\":31235:31244   */\n      dup3\n        /* \"#utility.yul\":31231:31249   */\n      add\n        /* \"#utility.yul\":31223:31249   */\n      swap1\n      pop\n        /* \"#utility.yul\":31259:31330   */\n      tag_890\n        /* \"#utility.yul\":31327:31328   */\n      0x00\n        /* \"#utility.yul\":31316:31325   */\n      dup4\n        /* \"#utility.yul\":31312:31329   */\n      add\n        /* \"#utility.yul\":31303:31309   */\n      dup7\n        /* \"#utility.yul\":31259:31330   */\n      tag_562\n      jump\t// in\n    tag_890:\n        /* \"#utility.yul\":31340:31412   */\n      tag_891\n        /* \"#utility.yul\":31408:31410   */\n      0x20\n        /* \"#utility.yul\":31397:31406   */\n      dup4\n        /* \"#utility.yul\":31393:31411   */\n      add\n        /* \"#utility.yul\":31384:31390   */\n      dup6\n        /* \"#utility.yul\":31340:31412   */\n      tag_549\n      jump\t// in\n    tag_891:\n        /* \"#utility.yul\":31422:31494   */\n      tag_892\n        /* \"#utility.yul\":31490:31492   */\n      0x40\n        /* \"#utility.yul\":31479:31488   */\n      dup4\n        /* \"#utility.yul\":31475:31493   */\n      add\n        /* \"#utility.yul\":31466:31472   */\n      dup5\n        /* \"#utility.yul\":31422:31494   */\n      tag_549\n      jump\t// in\n    tag_892:\n        /* \"#utility.yul\":31059:31501   */\n      swap5\n      swap4\n      pop\n      pop\n      pop\n      pop\n      jump\t// out\n        /* \"#utility.yul\":31507:31605   */\n    tag_603:\n        /* \"#utility.yul\":31558:31564   */\n      0x00\n        /* \"#utility.yul\":31592:31597   */\n      dup2\n        /* \"#utility.yul\":31586:31598   */\n      mload\n        /* \"#utility.yul\":31576:31598   */\n      swap1\n      pop\n        /* \"#utility.yul\":31507:31605   */\n      swap2\n      swap1\n      pop\n      jump\t// out\n        /* \"#utility.yul\":31611:31758   */\n    tag_604:\n        /* \"#utility.yul\":31712:31723   */\n      0x00\n        /* \"#utility.yul\":31749:31752   */\n      dup2\n        /* \"#utility.yul\":31734:31752   */\n      swap1\n      pop\n        /* \"#utility.yul\":31611:31758   */\n      swap3\n      swap2\n      pop\n      pop\n      jump\t// out\n        /* \"#utility.yul\":31764:32150   */\n    tag_605:\n        /* \"#utility.yul\":31868:31871   */\n      0x00\n        /* \"#utility.yul\":31896:31934   */\n      tag_896\n        /* \"#utility.yul\":31928:31933   */\n      dup3\n        /* \"#utility.yul\":31896:31934   */\n      tag_603\n      jump\t// in\n    tag_896:\n        /* \"#utility.yul\":31950:32038   */\n      tag_897\n        /* \"#utility.yul\":32031:32037   */\n      dup2\n        /* \"#utility.yul\":32026:32029   */\n      dup6\n        /* \"#utility.yul\":31950:32038   */\n      tag_604\n      jump\t// in\n    tag_897:\n        /* \"#utility.yul\":31943:32038   */\n      swap4\n      pop\n        /* \"#utility.yul\":32047:32112   */\n      tag_898\n        /* \"#utility.yul\":32105:32111   */\n      dup2\n        /* \"#utility.yul\":32100:32103   */\n      dup6\n        /* \"#utility.yul\":32093:32097   */\n      0x20\n        /* \"#utility.yul\":32086:32091   */\n      dup7\n        /* \"#utility.yul\":32082:32098   */\n      add\n        /* \"#utility.yul\":32047:32112   */\n      tag_537\n      jump\t// in\n    tag_898:\n        /* \"#utility.yul\":32137:32143   */\n      dup1\n        /* \"#utility.yul\":32132:32135   */\n      dup5\n        /* \"#utility.yul\":32128:32144   */\n      add\n        /* \"#utility.yul\":32121:32144   */\n      swap2\n      pop\n        /* \"#utility.yul\":31872:32150   */\n      pop\n        /* \"#utility.yul\":31764:32150   */\n      swap3\n      swap2\n      pop\n      pop\n      jump\t// out\n        /* \"#utility.yul\":32156:32427   */\n    tag_510:\n        /* \"#utility.yul\":32286:32289   */\n      0x00\n        /* \"#utility.yul\":32308:32401   */\n      tag_900\n        /* \"#utility.yul\":32397:32400   */\n      dup3\n        /* \"#utility.yul\":32388:32394   */\n      dup5\n        /* \"#utility.yul\":32308:32401   */\n      tag_605\n      jump\t// in\n    tag_900:\n        /* \"#utility.yul\":32301:32401   */\n      swap2\n      pop\n        /* \"#utility.yul\":32418:32421   */\n      dup2\n        /* \"#utility.yul\":32411:32421   */\n      swap1\n      pop\n        /* \"#utility.yul\":32156:32427   */\n      swap3\n      swap2\n      pop\n      pop\n      jump\t// out\n\n    auxdata: 0xa264697066735822122080b674cc755c7de8ae8962d81bc7e5de88ec0d20390e5865b0db8a8289f8c0cd64736f6c634300081a0033\n}\n",
				"bytecode": {
					"linkReferences": {},
					"object": "60806040526611c37937e0800060095534801561001a575f80fd5b50604051614353380380614353833981810160405281019061003c919061076c565b6040518060400160405280600581526020017f546f6b656e0000000000000000000000000000000000000000000000000000008152506040518060400160405280600381526020017f544b4e000000000000000000000000000000000000000000000000000000000081525081600390816100b791906109d1565b5080600490816100c791906109d1565b50505060016006819055506a084595161401484a0000006007819055505f600a60016101000a81548160ff0219169083151502179055505f600a60026101000a81548160ff0219169083151502179055508060085f6101000a81548173ffffffffffffffffffffffffffffffffffffffff021916908373ffffffffffffffffffffffffffffffffffffffff1602179055506101775f801b61016c61025f60201b60201c565b61026660201b60201c565b506101b57fae6c2fc584631af4c9385b8a55683f1a75c813747e27efef5afece31c6b230d36101aa61025f60201b60201c565b61026660201b60201c565b506101f37f8c66330d9d4f6aba064f25ef2a307366ea6d917616f44c075aa60fa15e5cb1cb6101e861025f60201b60201c565b61026660201b60201c565b506102317f9edfad36e7d4d9da54b4f78f22bf97cb5b58bb7998294a4288da41c15c647c4561022661025f60201b60201c565b61026660201b60201c565b5061025961024361025f60201b60201c565b69d3c21bcecceda100000061035c60201b60201c565b50610bfd565b5f33905090565b5f61027783836103e160201b60201c565b61035257600160055f8581526020019081526020015f205f015f8473ffffffffffffffffffffffffffffffffffffffff1673ffffffffffffffffffffffffffffffffffffffff1681526020019081526020015f205f6101000a81548160ff0219169083151502179055506102ef61025f60201b60201c565b73ffffffffffffffffffffffffffffffffffffffff168273ffffffffffffffffffffffffffffffffffffffff16847f2f8788117e7eff1d82e926ec794901d17c78024a50270940304540a733656f0d60405160405180910390a460019050610356565b5f90505b92915050565b5f73ffffffffffffffffffffffffffffffffffffffff168273ffffffffffffffffffffffffffffffffffffffff16036103cc575f6040517fec442f050000000000000000000000000000000000000000000000000000000081526004016103c39190610aaf565b60405180910390fd5b6103dd5f838361044560201b60201c565b5050565b5f60055f8481526020019081526020015f205f015f8373ffffffffffffffffffffffffffffffffffffffff1673ffffffffffffffffffffffffffffffffffffffff1681526020019081526020015f205f9054906101000a900460ff16905092915050565b5f73ffffffffffffffffffffffffffffffffffffffff168373ffffffffffffffffffffffffffffffffffffffff16036104d6576007548161048a6104ec60201b60201c565b6104949190610af5565b11156104d5576040517f08c379a00000000000000000000000000000000000000000000000000000000081526004016104cc90610b82565b60405180910390fd5b5b6104e78383836104f560201b60201c565b505050565b5f600254905090565b5f73ffffffffffffffffffffffffffffffffffffffff168373ffffffffffffffffffffffffffffffffffffffff1603610545578060025f8282546105399190610af5565b92505081905550610613565b5f805f8573ffffffffffffffffffffffffffffffffffffffff1673ffffffffffffffffffffffffffffffffffffffff1681526020019081526020015f20549050818110156105ce578381836040517fe450d38c0000000000000000000000000000000000000000000000000000000081526004016105c593929190610baf565b60405180910390fd5b8181035f808673ffffffffffffffffffffffffffffffffffffffff1673ffffffffffffffffffffffffffffffffffffffff1681526020019081526020015f2081905550505b5f73ffffffffffffffffffffffffffffffffffffffff168273ffffffffffffffffffffffffffffffffffffffff160361065a578060025f82825403925050819055506106a4565b805f808473ffffffffffffffffffffffffffffffffffffffff1673ffffffffffffffffffffffffffffffffffffffff1681526020019081526020015f205f82825401925050819055505b8173ffffffffffffffffffffffffffffffffffffffff168373ffffffffffffffffffffffffffffffffffffffff167fddf252ad1be2c89b69c2b068fc378daa952ba7f163c4a11628f55a4df523b3ef836040516107019190610be4565b60405180910390a3505050565b5f80fd5b5f73ffffffffffffffffffffffffffffffffffffffff82169050919050565b5f61073b82610712565b9050919050565b61074b81610731565b8114610755575f80fd5b50565b5f8151905061076681610742565b92915050565b5f602082840312156107815761078061070e565b5b5f61078e84828501610758565b91505092915050565b5f81519050919050565b7f4e487b71000000000000000000000000000000000000000000000000000000005f52604160045260245ffd5b7f4e487b71000000000000000000000000000000000000000000000000000000005f52602260045260245ffd5b5f600282049050600182168061081257607f821691505b602082108103610825576108246107ce565b5b50919050565b5f819050815f5260205f209050919050565b5f6020601f8301049050919050565b5f82821b905092915050565b5f600883026108877fffffffffffffffffffffffffffffffffffffffffffffffffffffffffffffffff8261084c565b610891868361084c565b95508019841693508086168417925050509392505050565b5f819050919050565b5f819050919050565b5f6108d56108d06108cb846108a9565b6108b2565b6108a9565b9050919050565b5f819050919050565b6108ee836108bb565b6109026108fa826108dc565b848454610858565b825550505050565b5f90565b61091661090a565b6109218184846108e5565b505050565b5b81811015610944576109395f8261090e565b600181019050610927565b5050565b601f8211156109895761095a8161082b565b6109638461083d565b81016020851015610972578190505b61098661097e8561083d565b830182610926565b50505b505050565b5f82821c905092915050565b5f6109a95f198460080261098e565b1980831691505092915050565b5f6109c1838361099a565b9150826002028217905092915050565b6109da82610797565b67ffffffffffffffff8111156109f3576109f26107a1565b5b6109fd82546107fb565b610a08828285610948565b5f60209050601f831160018114610a39575f8415610a27578287015190505b610a3185826109b6565b865550610a98565b601f198416610a478661082b565b5f5b82811015610a6e57848901518255600182019150602085019450602081019050610a49565b86831015610a8b5784890151610a87601f89168261099a565b8355505b6001600288020188555050505b505050505050565b610aa981610731565b82525050565b5f602082019050610ac25f830184610aa0565b92915050565b7f4e487b71000000000000000000000000000000000000000000000000000000005f52601160045260245ffd5b5f610aff826108a9565b9150610b0a836108a9565b9250828201905080821115610b2257610b21610ac8565b5b92915050565b5f82825260208201905092915050565b7f436f6e74726163743a20537570706c79204361702065786365656465640000005f82015250565b5f610b6c601d83610b28565b9150610b7782610b38565b602082019050919050565b5f6020820190508181035f830152610b9981610b60565b9050919050565b610ba9816108a9565b82525050565b5f606082019050610bc25f830186610aa0565b610bcf6020830185610ba0565b610bdc6040830184610ba0565b949350505050565b5f602082019050610bf75f830184610ba0565b92915050565b61374980610c0a5f395ff3fe608060405234801561000f575f80fd5b5060043610610251575f3560e01c806379cc679011610144578063a9059cbb116100c1578063d547741f11610085578063d547741f146106e9578063dd62ed3e14610705578063deb6db3614610735578063ea5cb53214610751578063f2250d3d1461076f578063fbfa77cf1461078b57610251565b8063a9059cbb14610631578063b6a3f59a14610661578063c30796ab1461067d578063cf820461146106ad578063d1c9f69b146106cb57610251565b806391d148541161010857806391d148541461058b578063956feccf146105bb57806395d89b41146105d9578063a0712d68146105f7578063a217fddf1461061357610251565b806379cc6790146104f75780637e92a7fd146105135780638d580b9f146105315780638ebed5b11461054f5780638f770ad01461056d57610251565b80633f914aef116101d25780635155728911610196578063515572891461044f57806353a4c31e1461046d5780635c975abb1461048b5780636ba77a38146104a957806370a08231146104c757610251565b80633f914aef146103c357806341f431fd146103df57806342966c68146103fb578063449a52f81461041757806348132f481461043357610251565b806323b872dd1161021957806323b872dd1461030d578063248a9ca31461033d5780632f2ff15d1461036d578063313ce5671461038957806336568abe146103a757610251565b806301ffc9a71461025557806306fdde0314610285578063095ea7b3146102a357806316c38b3c146102d357806318160ddd146102ef575b5f80fd5b61026f600480360381019061026a9190612857565b6107a9565b60405161027c919061289c565b60405180910390f35b61028d610822565b60405161029a9190612925565b60405180910390f35b6102bd60048036038101906102b891906129d2565b6108b2565b6040516102ca919061289c565b60405180910390f35b6102ed60048036038101906102e89190612a3a565b6108d4565b005b6102f76109ec565b6040516103049190612a74565b60405180910390f35b61032760048036038101906103229190612a8d565b6109f5565b604051610334919061289c565b60405180910390f35b61035760048036038101906103529190612b10565b610ab6565b6040516103649190612b4a565b60405180910390f35b61038760048036038101906103829190612b63565b610ad3565b005b610391610af5565b60405161039e9190612bbc565b60405180910390f35b6103c160048036038101906103bc9190612b63565b610afd565b005b6103dd60048036038101906103d89190612bd5565b610b78565b005b6103f960048036038101906103f49190612c4e565b610ca7565b005b61041560048036038101906104109190612c9e565b610d8d565b005b610431600480360381019061042c91906129d2565b610ea0565b005b61044d60048036038101906104489190612d04565b61104d565b005b610457611149565b6040516104649190612b4a565b60405180910390f35b61047561116d565b6040516104829190612b4a565b60405180910390f35b610493611191565b6040516104a0919061289c565b60405180910390f35b6104b16111a3565b6040516104be9190612b4a565b60405180910390f35b6104e160048036038101906104dc9190612d42565b6111c7565b6040516104ee9190612a74565b60405180910390f35b610511600480360381019061050c91906129d2565b61120c565b005b61051b61131b565b6040516105289190612b4a565b60405180910390f35b61053961133f565b6040516105469190612b4a565b60405180910390f35b610557611363565b6040516105649190612b4a565b60405180910390f35b610575611387565b6040516105829190612a74565b60405180910390f35b6105a560048036038101906105a09190612b63565b611390565b6040516105b2919061289c565b60405180910390f35b6105c36113f4565b6040516105d0919061289c565b60405180910390f35b6105e1611407565b6040516105ee9190612925565b60405180910390f35b610611600480360381019061060c9190612c9e565b611497565b005b61061b611648565b6040516106289190612b4a565b60405180910390f35b61064b600480360381019061064691906129d2565b61164e565b604051610658919061289c565b60405180910390f35b61067b60048036038101906106769190612c9e565b61170e565b005b61069760048036038101906106929190612d42565b611861565b6040516106a4919061289c565b60405180910390f35b6106b561187e565b6040516106c29190612a74565b60405180910390f35b6106d3611884565b6040516106e0919061289c565b60405180910390f35b61070360048036038101906106fe9190612b63565b611897565b005b61071f600480360381019061071a9190612d6d565b6118b9565b60405161072c9190612a74565b60405180910390f35b61074f600480360381019061074a9190612a3a565b61193b565b005b610759611a54565b6040516107669190612b4a565b60405180910390f35b61078960048036038101906107849190612a3a565b611a78565b005b610793611b91565b6040516107a09190612dba565b60405180910390f35b5f7f7965db0b000000000000000000000000000000000000000000000000000000007bffffffffffffffffffffffffffffffffffffffffffffffffffffffff1916827bffffffffffffffffffffffffffffffffffffffffffffffffffffffff1916148061081b575061081a82611bb6565b5b9050919050565b60606003805461083190612e00565b80601f016020809104026020016040519081016040528092919081815260200182805461085d90612e00565b80156108a85780601f1061087f576101008083540402835291602001916108a8565b820191905f5260205f20905b81548152906001019060200180831161088b57829003601f168201915b5050505050905090565b5f806108bc611c1f565b90506108c9818585611c26565b600191505092915050565b6109057fae6c2fc584631af4c9385b8a55683f1a75c813747e27efef5afece31c6b230d3610900611c1f565b611390565b610944576040517f08c379a000000000000000000000000000000000000000000000000000000000815260040161093b90612e7a565b60405180910390fd5b80600a5f6101000a81548160ff02191690831515021790555080156109a8577fd8c9c5623123df8e137854c59a08f9084b75609fe24584228d44ffdce5ab920a4361098d611c1f565b60405161099b929190612e98565b60405180910390a16109e9565b7f1e7a7234ad01ed7353bf129217f5c162773639a6cb22773e84bcd5a2b0ef362e436109d2611c1f565b6040516109e0929190612e98565b60405180910390a15b50565b5f600254905090565b5f6109fe611c38565b5f610a07611c1f565b9050600b5f8273ffffffffffffffffffffffffffffffffffffffff1673ffffffffffffffffffffffffffffffffffffffff1681526020019081526020015f205f9054906101000a900460ff1615610a6857610a63858585611c87565b610aa2565b610a73858585611c87565b610aa18560085f9054906101000a900473ffffffffffffffffffffffffffffffffffffffff16600954611c87565b5b6001915050610aaf611d77565b9392505050565b5f60055f8381526020019081526020015f20600101549050919050565b610adc82610ab6565b610ae581611d81565b610aef8383611d95565b50505050565b5f6012905090565b610b05611c1f565b73ffffffffffffffffffffffffffffffffffffffff168173ffffffffffffffffffffffffffffffffffffffff1614610b69576040517f6697b23200000000000000000000000000000000000000000000000000000000815260040160405180910390fd5b610b738282611e7f565b505050565b610ba27fae6c2fc584631af4c9385b8a55683f1a75c813747e27efef5afece31c6b230d333611390565b610be1576040517f08c379a0000000000000000000000000000000000000000000000000000000008152600401610bd890612f09565b60405180910390fd5b5f73ffffffffffffffffffffffffffffffffffffffff168273ffffffffffffffffffffffffffffffffffffffff1603610c4f576040517f08c379a0000000000000000000000000000000000000000000000000000000008152600401610c4690612f71565b60405180910390fd5b80600b5f8473ffffffffffffffffffffffffffffffffffffffff1673ffffffffffffffffffffffffffffffffffffffff1681526020019081526020015f205f6101000a81548160ff0219169083151502179055505050565b610caf611c38565b610cd97f508f8f8be8f5dbcb88f4f4500430b8b3684c471ed936f31fea912c78ad46a6b933611390565b610d18576040517f08c379a0000000000000000000000000000000000000000000000000000000008152600401610d0f90612fd9565b60405180910390fd5b610d4382828573ffffffffffffffffffffffffffffffffffffffff16611f699092919063ffffffff16565b7f494215f965756bbc8b7f57addd2a0ebdbce467a4999f8320c67adc1771885d7b83438484604051610d789493929190613052565b60405180910390a1610d88611d77565b505050565b600a5f9054906101000a900460ff1615610ddc576040517f08c379a0000000000000000000000000000000000000000000000000000000008152600401610dd3906130df565b60405180910390fd5b610e0d7f9edfad36e7d4d9da54b4f78f22bf97cb5b58bb7998294a4288da41c15c647c45610e08611c1f565b611390565b610e4c576040517f08c379a0000000000000000000000000000000000000000000000000000000008152600401610e4390613147565b60405180910390fd5b7f63706707d038997d2210eb026bb1339397deab463921538a81bb98e69ee54ca881610e76611c1f565b604051610e84929190612e98565b60405180910390a1610e9d610e97611c1f565b82611fe8565b50565b600a5f9054906101000a900460ff1615610eef576040517f08c379a0000000000000000000000000000000000000000000000000000000008152600401610ee6906130df565b60405180910390fd5b600a60029054906101000a900460ff1615610f3f576040517f08c379a0000000000000000000000000000000000000000000000000000000008152600401610f36906131af565b60405180910390fd5b610f707f7d800f56a05adcb6245df540492a560d0e668aac15ee6c7dd40668064913da33610f6b611c1f565b611390565b610faf576040517f08c379a0000000000000000000000000000000000000000000000000000000008152600401610fa690613217565b60405180910390fd5b60075481610fbb6109ec565b610fc59190613262565b1115611006576040517f08c379a0000000000000000000000000000000000000000000000000000000008152600401610ffd906132df565b60405180910390fd5b7fe98063832b4ff0356868961b75f7f49b096b14ea066c9725301ad197f2f6314782826040516110379291906132fd565b60405180910390a16110498282612067565b5050565b611055611c38565b61107f7f508f8f8be8f5dbcb88f4f4500430b8b3684c471ed936f31fea912c78ad46a6b933611390565b6110be576040517f08c379a00000000000000000000000000000000000000000000000000000000081526004016110b590612fd9565b60405180910390fd5b8173ffffffffffffffffffffffffffffffffffffffff166108fc8290811502906040515f60405180830381858888f19350505050158015611101573d5f803e3d5ffd5b507f3b1c0368c81e47d03164182dc6f9fcf4f5e4b3bd9462d74960d729f73138ce3682438360405161113593929190613344565b60405180910390a1611145611d77565b5050565b7fae6c2fc584631af4c9385b8a55683f1a75c813747e27efef5afece31c6b230d381565b7f9edfad36e7d4d9da54b4f78f22bf97cb5b58bb7998294a4288da41c15c647c4581565b600a5f9054906101000a900460ff1681565b7fc8a3befa5973ff6e159afc769978d92f26bae29c51a73d11c9112a05b68d25e681565b5f805f8373ffffffffffffffffffffffffffffffffffffffff1673ffffffffffffffffffffffffffffffffffffffff1681526020019081526020015f20549050919050565b600a5f9054906101000a900460ff161561125b576040517f08c379a0000000000000000000000000000000000000000000000000000000008152600401611252906130df565b60405180910390fd5b61128c7fc8a3befa5973ff6e159afc769978d92f26bae29c51a73d11c9112a05b68d25e6611287611c1f565b611390565b6112cb576040517f08c379a00000000000000000000000000000000000000000000000000000000081526004016112c2906133c3565b60405180910390fd5b7fe419ce2aab145a1feaf5893bb6a9478f9282415bbd81c76d5cfff2d4f13431dd82826112f6611c1f565b604051611305939291906133e1565b60405180910390a16113178282611fe8565b5050565b7f7d800f56a05adcb6245df540492a560d0e668aac15ee6c7dd40668064913da3381565b7f508f8f8be8f5dbcb88f4f4500430b8b3684c471ed936f31fea912c78ad46a6b981565b7f8c66330d9d4f6aba064f25ef2a307366ea6d917616f44c075aa60fa15e5cb1cb81565b5f600754905090565b5f60055f8481526020019081526020015f205f015f8373ffffffffffffffffffffffffffffffffffffffff1673ffffffffffffffffffffffffffffffffffffffff1681526020019081526020015f205f9054906101000a900460ff16905092915050565b600a60019054906101000a900460ff1681565b60606004805461141690612e00565b80601f016020809104026020016040519081016040528092919081815260200182805461144290612e00565b801561148d5780601f106114645761010080835404028352916020019161148d565b820191905f5260205f20905b81548152906001019060200180831161147057829003601f168201915b5050505050905090565b600a5f9054906101000a900460ff16156114e6576040517f08c379a00000000000000000000000000000000000000000000000000000000081526004016114dd906130df565b60405180910390fd5b600a60019054906101000a900460ff1615611536576040517f08c379a000000000000000000000000000000000000000000000000000000000815260040161152d90613460565b60405180910390fd5b6115677f8c66330d9d4f6aba064f25ef2a307366ea6d917616f44c075aa60fa15e5cb1cb611562611c1f565b611390565b6115a6576040517f08c379a000000000000000000000000000000000000000000000000000000000815260040161159d906134c8565b60405180910390fd5b600754816115b26109ec565b6115bc9190613262565b11156115fd576040517f08c379a00000000000000000000000000000000000000000000000000000000081526004016115f4906132df565b60405180910390fd5b7f772f66a00a405709c30e7f18feadcc8f123b20c09c7260165d3eec36c9f213728160405161162c9190612a74565b60405180910390a161164561163f611c1f565b82612067565b50565b5f801b81565b5f611657611c38565b5f611660611c1f565b9050600b5f8273ffffffffffffffffffffffffffffffffffffffff1673ffffffffffffffffffffffffffffffffffffffff1681526020019081526020015f205f9054906101000a900460ff16156116c1576116bc818585611c87565b6116fb565b6116cc818585611c87565b6116fa8160085f9054906101000a900473ffffffffffffffffffffffffffffffffffffffff16600954611c87565b5b6001915050611708611d77565b92915050565b600a5f9054906101000a900460ff161561175d576040517f08c379a0000000000000000000000000000000000000000000000000000000008152600401611754906130df565b60405180910390fd5b61178e7fea4defabeb90fa1e79f929d6c8d482fee8a115926a592b79634d39a67cce3b62611789611c1f565b611390565b6117cd576040517f08c379a00000000000000000000000000000000000000000000000000000000081526004016117c490613530565b60405180910390fd5b6117d56109ec565b811015611817576040517f08c379a000000000000000000000000000000000000000000000000000000000815260040161180e90613598565b60405180910390fd5b806007819055507fa11cbdeb4d62442fae7c8ec6286585b17c47acb7b17bbcab1beadce84befa30081611848611c1f565b604051611856929190612e98565b60405180910390a150565b600b602052805f5260405f205f915054906101000a900460ff1681565b60095481565b600a60029054906101000a900460ff1681565b6118a082610ab6565b6118a981611d81565b6118b38383611e7f565b50505050565b5f60015f8473ffffffffffffffffffffffffffffffffffffffff1673ffffffffffffffffffffffffffffffffffffffff1681526020019081526020015f205f8373ffffffffffffffffffffffffffffffffffffffff1673ffffffffffffffffffffffffffffffffffffffff1681526020019081526020015f2054905092915050565b61196c7fae6c2fc584631af4c9385b8a55683f1a75c813747e27efef5afece31c6b230d3611967611c1f565b611390565b6119ab576040517f08c379a00000000000000000000000000000000000000000000000000000000081526004016119a290612e7a565b60405180910390fd5b80600a60016101000a81548160ff0219169083151502179055508015611a10577f5668502ca8e7b393c09d1dac964ca45a27870a78d7ba212b7a189450897ca05f436119f5611c1f565b604051611a03929190612e98565b60405180910390a1611a51565b7f98e05482fdb38df5eb461fb932fa6e1af90a3569939ce5a8d92d699b102d640243611a3a611c1f565b604051611a48929190612e98565b60405180910390a15b50565b7fea4defabeb90fa1e79f929d6c8d482fee8a115926a592b79634d39a67cce3b6281565b611aa97fae6c2fc584631af4c9385b8a55683f1a75c813747e27efef5afece31c6b230d3611aa4611c1f565b611390565b611ae8576040517f08c379a0000000000000000000000000000000000000000000000000000000008152600401611adf90612f09565b60405180910390fd5b80600a60026101000a81548160ff0219169083151502179055508015611b4d577f218e25f0a7435729f5a66aae50a9ed0084535a0080300c1c2e8366d8df7136ed43611b32611c1f565b604051611b40929190612e98565b60405180910390a1611b8e565b7f41606e1dcee38320f9edbfcd642aeaa81bb2140c705de9d4a7814024a1e9a31443611b77611c1f565b604051611b85929190612e98565b60405180910390a15b50565b60085f9054906101000a900473ffffffffffffffffffffffffffffffffffffffff1681565b5f7f01ffc9a7000000000000000000000000000000000000000000000000000000007bffffffffffffffffffffffffffffffffffffffffffffffffffffffff1916827bffffffffffffffffffffffffffffffffffffffffffffffffffffffff1916149050919050565b5f33905090565b611c3383838360016120e6565b505050565b600260065403611c7d576040517f08c379a0000000000000000000000000000000000000000000000000000000008152600401611c7490613600565b60405180910390fd5b6002600681905550565b5f73ffffffffffffffffffffffffffffffffffffffff168373ffffffffffffffffffffffffffffffffffffffff1603611cf7575f6040517f96c6fd1e000000000000000000000000000000000000000000000000000000008152600401611cee9190612dba565b60405180910390fd5b5f73ffffffffffffffffffffffffffffffffffffffff168273ffffffffffffffffffffffffffffffffffffffff1603611d67575f6040517fec442f05000000000000000000000000000000000000000000000000000000008152600401611d5e9190612dba565b60405180910390fd5b611d728383836122b5565b505050565b6001600681905550565b611d9281611d8d611c1f565b612350565b50565b5f611da08383611390565b611e7557600160055f8581526020019081526020015f205f015f8473ffffffffffffffffffffffffffffffffffffffff1673ffffffffffffffffffffffffffffffffffffffff1681526020019081526020015f205f6101000a81548160ff021916908315150217905550611e12611c1f565b73ffffffffffffffffffffffffffffffffffffffff168273ffffffffffffffffffffffffffffffffffffffff16847f2f8788117e7eff1d82e926ec794901d17c78024a50270940304540a733656f0d60405160405180910390a460019050611e79565b5f90505b92915050565b5f611e8a8383611390565b15611f5f575f60055f8581526020019081526020015f205f015f8473ffffffffffffffffffffffffffffffffffffffff1673ffffffffffffffffffffffffffffffffffffffff1681526020019081526020015f205f6101000a81548160ff021916908315150217905550611efc611c1f565b73ffffffffffffffffffffffffffffffffffffffff168273ffffffffffffffffffffffffffffffffffffffff16847ff6391f5c32d9c69d2a47ea670b442974b53935d1edc7fd64eb21e047a839171b60405160405180910390a460019050611f63565b5f90505b92915050565b611fe3838473ffffffffffffffffffffffffffffffffffffffff1663a9059cbb8585604051602401611f9c9291906132fd565b604051602081830303815290604052915060e01b6020820180517bffffffffffffffffffffffffffffffffffffffffffffffffffffffff83818316178352505050506123a1565b505050565b5f73ffffffffffffffffffffffffffffffffffffffff168273ffffffffffffffffffffffffffffffffffffffff1603612058575f6040517f96c6fd1e00000000000000000000000000000000000000000000000000000000815260040161204f9190612dba565b60405180910390fd5b612063825f836122b5565b5050565b5f73ffffffffffffffffffffffffffffffffffffffff168273ffffffffffffffffffffffffffffffffffffffff16036120d7575f6040517fec442f050000000000000000000000000000000000000000000000000000000081526004016120ce9190612dba565b60405180910390fd5b6120e25f83836122b5565b5050565b5f73ffffffffffffffffffffffffffffffffffffffff168473ffffffffffffffffffffffffffffffffffffffff1603612156575f6040517fe602df0500000000000000000000000000000000000000000000000000000000815260040161214d9190612dba565b60405180910390fd5b5f73ffffffffffffffffffffffffffffffffffffffff168373ffffffffffffffffffffffffffffffffffffffff16036121c6575f6040517f94280d620000000000000000000000000000000000000000000000000000000081526004016121bd9190612dba565b60405180910390fd5b8160015f8673ffffffffffffffffffffffffffffffffffffffff1673ffffffffffffffffffffffffffffffffffffffff1681526020019081526020015f205f8573ffffffffffffffffffffffffffffffffffffffff1673ffffffffffffffffffffffffffffffffffffffff1681526020019081526020015f208190555080156122af578273ffffffffffffffffffffffffffffffffffffffff168473ffffffffffffffffffffffffffffffffffffffff167f8c5be1e5ebec7d5bd14f71427d1e84f3dd0314c0f7b2291e5b200ac8c7c3b925846040516122a69190612a74565b60405180910390a35b50505050565b5f73ffffffffffffffffffffffffffffffffffffffff168373ffffffffffffffffffffffffffffffffffffffff160361234057600754816122f46109ec565b6122fe9190613262565b111561233f576040517f08c379a0000000000000000000000000000000000000000000000000000000008152600401612336906132df565b60405180910390fd5b5b61234b838383612436565b505050565b61235a8282611390565b61239d5780826040517fe2517d3f00000000000000000000000000000000000000000000000000000000815260040161239492919061361e565b60405180910390fd5b5050565b5f6123cb828473ffffffffffffffffffffffffffffffffffffffff1661264f90919063ffffffff16565b90505f8151141580156123ef5750808060200190518101906123ed9190613659565b155b1561243157826040517f5274afe70000000000000000000000000000000000000000000000000000000081526004016124289190612dba565b60405180910390fd5b505050565b5f73ffffffffffffffffffffffffffffffffffffffff168373ffffffffffffffffffffffffffffffffffffffff1603612486578060025f82825461247a9190613262565b92505081905550612554565b5f805f8573ffffffffffffffffffffffffffffffffffffffff1673ffffffffffffffffffffffffffffffffffffffff1681526020019081526020015f205490508181101561250f578381836040517fe450d38c00000000000000000000000000000000000000000000000000000000815260040161250693929190613684565b60405180910390fd5b8181035f808673ffffffffffffffffffffffffffffffffffffffff1673ffffffffffffffffffffffffffffffffffffffff1681526020019081526020015f2081905550505b5f73ffffffffffffffffffffffffffffffffffffffff168273ffffffffffffffffffffffffffffffffffffffff160361259b578060025f82825403925050819055506125e5565b805f808473ffffffffffffffffffffffffffffffffffffffff1673ffffffffffffffffffffffffffffffffffffffff1681526020019081526020015f205f82825401925050819055505b8173ffffffffffffffffffffffffffffffffffffffff168373ffffffffffffffffffffffffffffffffffffffff167fddf252ad1be2c89b69c2b068fc378daa952ba7f163c4a11628f55a4df523b3ef836040516126429190612a74565b60405180910390a3505050565b606061265c83835f612664565b905092915050565b6060814710156126ab57306040517fcd7860590000000000000000000000000000000000000000000000000000000081526004016126a29190612dba565b60405180910390fd5b5f808573ffffffffffffffffffffffffffffffffffffffff1684866040516126d391906136fd565b5f6040518083038185875af1925050503d805f811461270d576040519150601f19603f3d011682016040523d82523d5f602084013e612712565b606091505b509150915061272286838361272d565b925050509392505050565b6060826127425761273d826127ba565b6127b2565b5f825114801561276857505f8473ffffffffffffffffffffffffffffffffffffffff163b145b156127aa57836040517f9996b3150000000000000000000000000000000000000000000000000000000081526004016127a19190612dba565b60405180910390fd5b8190506127b3565b5b9392505050565b5f815111156127cc5780518082602001fd5b6040517f1425ea4200000000000000000000000000000000000000000000000000000000815260040160405180910390fd5b5f80fd5b5f7fffffffff0000000000000000000000000000000000000000000000000000000082169050919050565b61283681612802565b8114612840575f80fd5b50565b5f813590506128518161282d565b92915050565b5f6020828403121561286c5761286b6127fe565b5b5f61287984828501612843565b91505092915050565b5f8115159050919050565b61289681612882565b82525050565b5f6020820190506128af5f83018461288d565b92915050565b5f81519050919050565b5f82825260208201905092915050565b8281835e5f83830152505050565b5f601f19601f8301169050919050565b5f6128f7826128b5565b61290181856128bf565b93506129118185602086016128cf565b61291a816128dd565b840191505092915050565b5f6020820190508181035f83015261293d81846128ed565b905092915050565b5f73ffffffffffffffffffffffffffffffffffffffff82169050919050565b5f61296e82612945565b9050919050565b61297e81612964565b8114612988575f80fd5b50565b5f8135905061299981612975565b92915050565b5f819050919050565b6129b18161299f565b81146129bb575f80fd5b50565b5f813590506129cc816129a8565b92915050565b5f80604083850312156129e8576129e76127fe565b5b5f6129f58582860161298b565b9250506020612a06858286016129be565b9150509250929050565b612a1981612882565b8114612a23575f80fd5b50565b5f81359050612a3481612a10565b92915050565b5f60208284031215612a4f57612a4e6127fe565b5b5f612a5c84828501612a26565b91505092915050565b612a6e8161299f565b82525050565b5f602082019050612a875f830184612a65565b92915050565b5f805f60608486031215612aa457612aa36127fe565b5b5f612ab18682870161298b565b9350506020612ac28682870161298b565b9250506040612ad3868287016129be565b9150509250925092565b5f819050919050565b612aef81612add565b8114612af9575f80fd5b50565b5f81359050612b0a81612ae6565b92915050565b5f60208284031215612b2557612b246127fe565b5b5f612b3284828501612afc565b91505092915050565b612b4481612add565b82525050565b5f602082019050612b5d5f830184612b3b565b92915050565b5f8060408385031215612b7957612b786127fe565b5b5f612b8685828601612afc565b9250506020612b978582860161298b565b9150509250929050565b5f60ff82169050919050565b612bb681612ba1565b82525050565b5f602082019050612bcf5f830184612bad565b92915050565b5f8060408385031215612beb57612bea6127fe565b5b5f612bf88582860161298b565b9250506020612c0985828601612a26565b9150509250929050565b5f612c1d82612964565b9050919050565b612c2d81612c13565b8114612c37575f80fd5b50565b5f81359050612c4881612c24565b92915050565b5f805f60608486031215612c6557612c646127fe565b5b5f612c7286828701612c3a565b9350506020612c838682870161298b565b9250506040612c94868287016129be565b9150509250925092565b5f60208284031215612cb357612cb26127fe565b5b5f612cc0848285016129be565b91505092915050565b5f612cd382612945565b9050919050565b612ce381612cc9565b8114612ced575f80fd5b50565b5f81359050612cfe81612cda565b92915050565b5f8060408385031215612d1a57612d196127fe565b5b5f612d2785828601612cf0565b9250506020612d38858286016129be565b9150509250929050565b5f60208284031215612d5757612d566127fe565b5b5f612d648482850161298b565b91505092915050565b5f8060408385031215612d8357612d826127fe565b5b5f612d908582860161298b565b9250506020612da18582860161298b565b9150509250929050565b612db481612964565b82525050565b5f602082019050612dcd5f830184612dab565b92915050565b7f4e487b71000000000000000000000000000000000000000000000000000000005f52602260045260245ffd5b5f6002820490506001821680612e1757607f821691505b602082108103612e2a57612e29612dd3565b5b50919050565b7f436f6e74726163743a204e6565642041646d696e0000000000000000000000005f82015250565b5f612e646014836128bf565b9150612e6f82612e30565b602082019050919050565b5f6020820190508181035f830152612e9181612e58565b9050919050565b5f604082019050612eab5f830185612a65565b612eb86020830184612dab565b9392505050565b7f4e6565642041646d696e000000000000000000000000000000000000000000005f82015250565b5f612ef3600a836128bf565b9150612efe82612ebf565b602082019050919050565b5f6020820190508181035f830152612f2081612ee7565b9050919050565b7f496e76616c6964206164647265737300000000000000000000000000000000005f82015250565b5f612f5b600f836128bf565b9150612f6682612f27565b602082019050919050565b5f6020820190508181035f830152612f8881612f4f565b9050919050565b7f4e656564205245534355450000000000000000000000000000000000000000005f82015250565b5f612fc3600b836128bf565b9150612fce82612f8f565b602082019050919050565b5f6020820190508181035f830152612ff081612fb7565b9050919050565b5f819050919050565b5f61301a61301561301084612945565b612ff7565b612945565b9050919050565b5f61302b82613000565b9050919050565b5f61303c82613021565b9050919050565b61304c81613032565b82525050565b5f6080820190506130655f830187613043565b6130726020830186612a65565b61307f6040830185612dab565b61308c6060830184612a65565b95945050505050565b7f436f6e74726163743a20436f6e747261637420697320506175736564000000005f82015250565b5f6130c9601c836128bf565b91506130d482613095565b602082019050919050565b5f6020820190508181035f8301526130f6816130bd565b9050919050565b7f436f6e74726163743a204e656564204275726e000000000000000000000000005f82015250565b5f6131316013836128bf565b915061313c826130fd565b602082019050919050565b5f6020820190508181035f83015261315e81613125565b9050919050565b7f4d696e74696e6720746f2064697361626c6564000000000000000000000000005f82015250565b5f6131996013836128bf565b91506131a482613165565b602082019050919050565b5f6020820190508181035f8301526131c68161318d565b9050919050565b7f436f6e74726163743a204e656564204d696e746f0000000000000000000000005f82015250565b5f6132016014836128bf565b915061320c826131cd565b602082019050919050565b5f6020820190508181035f83015261322e816131f5565b9050919050565b7f4e487b71000000000000000000000000000000000000000000000000000000005f52601160045260245ffd5b5f61326c8261299f565b91506132778361299f565b925082820190508082111561328f5761328e613235565b5b92915050565b7f436f6e74726163743a20537570706c79204361702065786365656465640000005f82015250565b5f6132c9601d836128bf565b91506132d482613295565b602082019050919050565b5f6020820190508181035f8301526132f6816132bd565b9050919050565b5f6040820190506133105f830185612dab565b61331d6020830184612a65565b9392505050565b5f61332e82613021565b9050919050565b61333e81613324565b82525050565b5f6060820190506133575f830186613335565b6133646020830185612a65565b6133716040830184612a65565b949350505050565b7f436f6e74726163743a204e656564204275726e66726f6d0000000000000000005f82015250565b5f6133ad6017836128bf565b91506133b882613379565b602082019050919050565b5f6020820190508181035f8301526133da816133a1565b9050919050565b5f6060820190506133f45f830186612dab565b6134016020830185612a65565b61340e6040830184612dab565b949350505050565b7f4d696e74696e672064697361626c6564000000000000000000000000000000005f82015250565b5f61344a6010836128bf565b915061345582613416565b602082019050919050565b5f6020820190508181035f8301526134778161343e565b9050919050565b7f436f6e74726163743a204e656564204d696e74000000000000000000000000005f82015250565b5f6134b26013836128bf565b91506134bd8261347e565b602082019050919050565b5f6020820190508181035f8301526134df816134a6565b9050919050565b7f4e65656420537570706c790000000000000000000000000000000000000000005f82015250565b5f61351a600b836128bf565b9150613525826134e6565b602082019050919050565b5f6020820190508181035f8301526135478161350e565b9050919050565b7f436f6e74726163743a20537570706c792043617020746f6f206c6f77000000005f82015250565b5f613582601c836128bf565b915061358d8261354e565b602082019050919050565b5f6020820190508181035f8301526135af81613576565b9050919050565b7f5265656e7472616e637947756172643a207265656e7472616e742063616c6c005f82015250565b5f6135ea601f836128bf565b91506135f5826135b6565b602082019050919050565b5f6020820190508181035f830152613617816135de565b9050919050565b5f6040820190506136315f830185612dab565b61363e6020830184612b3b565b9392505050565b5f8151905061365381612a10565b92915050565b5f6020828403121561366e5761366d6127fe565b5b5f61367b84828501613645565b91505092915050565b5f6060820190506136975f830186612dab565b6136a46020830185612a65565b6136b16040830184612a65565b949350505050565b5f81519050919050565b5f81905092915050565b5f6136d7826136b9565b6136e181856136c3565b93506136f18185602086016128cf565b80840191505092915050565b5f61370882846136cd565b91508190509291505056fea264697066735822122080b674cc755c7de8ae8962d81bc7e5de88ec0d20390e5865b0db8a8289f8c0cd64736f6c634300081a0033",
					"opcodes": "PUSH1 0x80 PUSH1 0x40 MSTORE PUSH7 0x11C37937E08000 PUSH1 0x9 SSTORE CALLVALUE DUP1 ISZERO PUSH2 0x1A JUMPI PUSH0 DUP1 REVERT JUMPDEST POP PUSH1 0x40 MLOAD PUSH2 0x4353 CODESIZE SUB DUP1 PUSH2 0x4353 DUP4 CODECOPY DUP2 DUP2 ADD PUSH1 0x40 MSTORE DUP2 ADD SWAP1 PUSH2 0x3C SWAP2 SWAP1 PUSH2 0x76C JUMP JUMPDEST PUSH1 0x40 MLOAD DUP1 PUSH1 0x40 ADD PUSH1 0x40 MSTORE DUP1 PUSH1 0x5 DUP2 MSTORE PUSH1 0x20 ADD PUSH32 0x546F6B656E000000000000000000000000000000000000000000000000000000 DUP2 MSTORE POP PUSH1 0x40 MLOAD DUP1 PUSH1 0x40 ADD PUSH1 0x40 MSTORE DUP1 PUSH1 0x3 DUP2 MSTORE PUSH1 0x20 ADD PUSH32 0x544B4E0000000000000000000000000000000000000000000000000000000000 DUP2 MSTORE POP DUP2 PUSH1 0x3 SWAP1 DUP2 PUSH2 0xB7 SWAP2 SWAP1 PUSH2 0x9D1 JUMP JUMPDEST POP DUP1 PUSH1 0x4 SWAP1 DUP2 PUSH2 0xC7 SWAP2 SWAP1 PUSH2 0x9D1 JUMP JUMPDEST POP POP POP PUSH1 0x1 PUSH1 0x6 DUP2 SWAP1 SSTORE POP PUSH11 0x84595161401484A000000 PUSH1 0x7 DUP2 SWAP1 SSTORE POP PUSH0 PUSH1 0xA PUSH1 0x1 PUSH2 0x100 EXP DUP2 SLOAD DUP2 PUSH1 0xFF MUL NOT AND SWAP1 DUP4 ISZERO ISZERO MUL OR SWAP1 SSTORE POP PUSH0 PUSH1 0xA PUSH1 0x2 PUSH2 0x100 EXP DUP2 SLOAD DUP2 PUSH1 0xFF MUL NOT AND SWAP1 DUP4 ISZERO ISZERO MUL OR SWAP1 SSTORE POP DUP1 PUSH1 0x8 PUSH0 PUSH2 0x100 EXP DUP2 SLOAD DUP2 PUSH20 0xFFFFFFFFFFFFFFFFFFFFFFFFFFFFFFFFFFFFFFFF MUL NOT AND SWAP1 DUP4 PUSH20 0xFFFFFFFFFFFFFFFFFFFFFFFFFFFFFFFFFFFFFFFF AND MUL OR SWAP1 SSTORE POP PUSH2 0x177 PUSH0 DUP1 SHL PUSH2 0x16C PUSH2 0x25F PUSH1 0x20 SHL PUSH1 0x20 SHR JUMP JUMPDEST PUSH2 0x266 PUSH1 0x20 SHL PUSH1 0x20 SHR JUMP JUMPDEST POP PUSH2 0x1B5 PUSH32 0xAE6C2FC584631AF4C9385B8A55683F1A75C813747E27EFEF5AFECE31C6B230D3 PUSH2 0x1AA PUSH2 0x25F PUSH1 0x20 SHL PUSH1 0x20 SHR JUMP JUMPDEST PUSH2 0x266 PUSH1 0x20 SHL PUSH1 0x20 SHR JUMP JUMPDEST POP PUSH2 0x1F3 PUSH32 0x8C66330D9D4F6ABA064F25EF2A307366EA6D917616F44C075AA60FA15E5CB1CB PUSH2 0x1E8 PUSH2 0x25F PUSH1 0x20 SHL PUSH1 0x20 SHR JUMP JUMPDEST PUSH2 0x266 PUSH1 0x20 SHL PUSH1 0x20 SHR JUMP JUMPDEST POP PUSH2 0x231 PUSH32 0x9EDFAD36E7D4D9DA54B4F78F22BF97CB5B58BB7998294A4288DA41C15C647C45 PUSH2 0x226 PUSH2 0x25F PUSH1 0x20 SHL PUSH1 0x20 SHR JUMP JUMPDEST PUSH2 0x266 PUSH1 0x20 SHL PUSH1 0x20 SHR JUMP JUMPDEST POP PUSH2 0x259 PUSH2 0x243 PUSH2 0x25F PUSH1 0x20 SHL PUSH1 0x20 SHR JUMP JUMPDEST PUSH10 0xD3C21BCECCEDA1000000 PUSH2 0x35C PUSH1 0x20 SHL PUSH1 0x20 SHR JUMP JUMPDEST POP PUSH2 0xBFD JUMP JUMPDEST PUSH0 CALLER SWAP1 POP SWAP1 JUMP JUMPDEST PUSH0 PUSH2 0x277 DUP4 DUP4 PUSH2 0x3E1 PUSH1 0x20 SHL PUSH1 0x20 SHR JUMP JUMPDEST PUSH2 0x352 JUMPI PUSH1 0x1 PUSH1 0x5 PUSH0 DUP6 DUP2 MSTORE PUSH1 0x20 ADD SWAP1 DUP2 MSTORE PUSH1 0x20 ADD PUSH0 KECCAK256 PUSH0 ADD PUSH0 DUP5 PUSH20 0xFFFFFFFFFFFFFFFFFFFFFFFFFFFFFFFFFFFFFFFF AND PUSH20 0xFFFFFFFFFFFFFFFFFFFFFFFFFFFFFFFFFFFFFFFF AND DUP2 MSTORE PUSH1 0x20 ADD SWAP1 DUP2 MSTORE PUSH1 0x20 ADD PUSH0 KECCAK256 PUSH0 PUSH2 0x100 EXP DUP2 SLOAD DUP2 PUSH1 0xFF MUL NOT AND SWAP1 DUP4 ISZERO ISZERO MUL OR SWAP1 SSTORE POP PUSH2 0x2EF PUSH2 0x25F PUSH1 0x20 SHL PUSH1 0x20 SHR JUMP JUMPDEST PUSH20 0xFFFFFFFFFFFFFFFFFFFFFFFFFFFFFFFFFFFFFFFF AND DUP3 PUSH20 0xFFFFFFFFFFFFFFFFFFFFFFFFFFFFFFFFFFFFFFFF AND DUP5 PUSH32 0x2F8788117E7EFF1D82E926EC794901D17C78024A50270940304540A733656F0D PUSH1 0x40 MLOAD PUSH1 0x40 MLOAD DUP1 SWAP2 SUB SWAP1 LOG4 PUSH1 0x1 SWAP1 POP PUSH2 0x356 JUMP JUMPDEST PUSH0 SWAP1 POP JUMPDEST SWAP3 SWAP2 POP POP JUMP JUMPDEST PUSH0 PUSH20 0xFFFFFFFFFFFFFFFFFFFFFFFFFFFFFFFFFFFFFFFF AND DUP3 PUSH20 0xFFFFFFFFFFFFFFFFFFFFFFFFFFFFFFFFFFFFFFFF AND SUB PUSH2 0x3CC JUMPI PUSH0 PUSH1 0x40 MLOAD PUSH32 0xEC442F0500000000000000000000000000000000000000000000000000000000 DUP2 MSTORE PUSH1 0x4 ADD PUSH2 0x3C3 SWAP2 SWAP1 PUSH2 0xAAF JUMP JUMPDEST PUSH1 0x40 MLOAD DUP1 SWAP2 SUB SWAP1 REVERT JUMPDEST PUSH2 0x3DD PUSH0 DUP4 DUP4 PUSH2 0x445 PUSH1 0x20 SHL PUSH1 0x20 SHR JUMP JUMPDEST POP POP JUMP JUMPDEST PUSH0 PUSH1 0x5 PUSH0 DUP5 DUP2 MSTORE PUSH1 0x20 ADD SWAP1 DUP2 MSTORE PUSH1 0x20 ADD PUSH0 KECCAK256 PUSH0 ADD PUSH0 DUP4 PUSH20 0xFFFFFFFFFFFFFFFFFFFFFFFFFFFFFFFFFFFFFFFF AND PUSH20 0xFFFFFFFFFFFFFFFFFFFFFFFFFFFFFFFFFFFFFFFF AND DUP2 MSTORE PUSH1 0x20 ADD SWAP1 DUP2 MSTORE PUSH1 0x20 ADD PUSH0 KECCAK256 PUSH0 SWAP1 SLOAD SWAP1 PUSH2 0x100 EXP SWAP1 DIV PUSH1 0xFF AND SWAP1 POP SWAP3 SWAP2 POP POP JUMP JUMPDEST PUSH0 PUSH20 0xFFFFFFFFFFFFFFFFFFFFFFFFFFFFFFFFFFFFFFFF AND DUP4 PUSH20 0xFFFFFFFFFFFFFFFFFFFFFFFFFFFFFFFFFFFFFFFF AND SUB PUSH2 0x4D6 JUMPI PUSH1 0x7 SLOAD DUP2 PUSH2 0x48A PUSH2 0x4EC PUSH1 0x20 SHL PUSH1 0x20 SHR JUMP JUMPDEST PUSH2 0x494 SWAP2 SWAP1 PUSH2 0xAF5 JUMP JUMPDEST GT ISZERO PUSH2 0x4D5 JUMPI PUSH1 0x40 MLOAD PUSH32 0x8C379A000000000000000000000000000000000000000000000000000000000 DUP2 MSTORE PUSH1 0x4 ADD PUSH2 0x4CC SWAP1 PUSH2 0xB82 JUMP JUMPDEST PUSH1 0x40 MLOAD DUP1 SWAP2 SUB SWAP1 REVERT JUMPDEST JUMPDEST PUSH2 0x4E7 DUP4 DUP4 DUP4 PUSH2 0x4F5 PUSH1 0x20 SHL PUSH1 0x20 SHR JUMP JUMPDEST POP POP POP JUMP JUMPDEST PUSH0 PUSH1 0x2 SLOAD SWAP1 POP SWAP1 JUMP JUMPDEST PUSH0 PUSH20 0xFFFFFFFFFFFFFFFFFFFFFFFFFFFFFFFFFFFFFFFF AND DUP4 PUSH20 0xFFFFFFFFFFFFFFFFFFFFFFFFFFFFFFFFFFFFFFFF AND SUB PUSH2 0x545 JUMPI DUP1 PUSH1 0x2 PUSH0 DUP3 DUP3 SLOAD PUSH2 0x539 SWAP2 SWAP1 PUSH2 0xAF5 JUMP JUMPDEST SWAP3 POP POP DUP2 SWAP1 SSTORE POP PUSH2 0x613 JUMP JUMPDEST PUSH0 DUP1 PUSH0 DUP6 PUSH20 0xFFFFFFFFFFFFFFFFFFFFFFFFFFFFFFFFFFFFFFFF AND PUSH20 0xFFFFFFFFFFFFFFFFFFFFFFFFFFFFFFFFFFFFFFFF AND DUP2 MSTORE PUSH1 0x20 ADD SWAP1 DUP2 MSTORE PUSH1 0x20 ADD PUSH0 KECCAK256 SLOAD SWAP1 POP DUP2 DUP2 LT ISZERO PUSH2 0x5CE JUMPI DUP4 DUP2 DUP4 PUSH1 0x40 MLOAD PUSH32 0xE450D38C00000000000000000000000000000000000000000000000000000000 DUP2 MSTORE PUSH1 0x4 ADD PUSH2 0x5C5 SWAP4 SWAP3 SWAP2 SWAP1 PUSH2 0xBAF JUMP JUMPDEST PUSH1 0x40 MLOAD DUP1 SWAP2 SUB SWAP1 REVERT JUMPDEST DUP2 DUP2 SUB PUSH0 DUP1 DUP7 PUSH20 0xFFFFFFFFFFFFFFFFFFFFFFFFFFFFFFFFFFFFFFFF AND PUSH20 0xFFFFFFFFFFFFFFFFFFFFFFFFFFFFFFFFFFFFFFFF AND DUP2 MSTORE PUSH1 0x20 ADD SWAP1 DUP2 MSTORE PUSH1 0x20 ADD PUSH0 KECCAK256 DUP2 SWAP1 SSTORE POP POP JUMPDEST PUSH0 PUSH20 0xFFFFFFFFFFFFFFFFFFFFFFFFFFFFFFFFFFFFFFFF AND DUP3 PUSH20 0xFFFFFFFFFFFFFFFFFFFFFFFFFFFFFFFFFFFFFFFF AND SUB PUSH2 0x65A JUMPI DUP1 PUSH1 0x2 PUSH0 DUP3 DUP3 SLOAD SUB SWAP3 POP POP DUP2 SWAP1 SSTORE POP PUSH2 0x6A4 JUMP JUMPDEST DUP1 PUSH0 DUP1 DUP5 PUSH20 0xFFFFFFFFFFFFFFFFFFFFFFFFFFFFFFFFFFFFFFFF AND PUSH20 0xFFFFFFFFFFFFFFFFFFFFFFFFFFFFFFFFFFFFFFFF AND DUP2 MSTORE PUSH1 0x20 ADD SWAP1 DUP2 MSTORE PUSH1 0x20 ADD PUSH0 KECCAK256 PUSH0 DUP3 DUP3 SLOAD ADD SWAP3 POP POP DUP2 SWAP1 SSTORE POP JUMPDEST DUP2 PUSH20 0xFFFFFFFFFFFFFFFFFFFFFFFFFFFFFFFFFFFFFFFF AND DUP4 PUSH20 0xFFFFFFFFFFFFFFFFFFFFFFFFFFFFFFFFFFFFFFFF AND PUSH32 0xDDF252AD1BE2C89B69C2B068FC378DAA952BA7F163C4A11628F55A4DF523B3EF DUP4 PUSH1 0x40 MLOAD PUSH2 0x701 SWAP2 SWAP1 PUSH2 0xBE4 JUMP JUMPDEST PUSH1 0x40 MLOAD DUP1 SWAP2 SUB SWAP1 LOG3 POP POP POP JUMP JUMPDEST PUSH0 DUP1 REVERT JUMPDEST PUSH0 PUSH20 0xFFFFFFFFFFFFFFFFFFFFFFFFFFFFFFFFFFFFFFFF DUP3 AND SWAP1 POP SWAP2 SWAP1 POP JUMP JUMPDEST PUSH0 PUSH2 0x73B DUP3 PUSH2 0x712 JUMP JUMPDEST SWAP1 POP SWAP2 SWAP1 POP JUMP JUMPDEST PUSH2 0x74B DUP2 PUSH2 0x731 JUMP JUMPDEST DUP2 EQ PUSH2 0x755 JUMPI PUSH0 DUP1 REVERT JUMPDEST POP JUMP JUMPDEST PUSH0 DUP2 MLOAD SWAP1 POP PUSH2 0x766 DUP2 PUSH2 0x742 JUMP JUMPDEST SWAP3 SWAP2 POP POP JUMP JUMPDEST PUSH0 PUSH1 0x20 DUP3 DUP5 SUB SLT ISZERO PUSH2 0x781 JUMPI PUSH2 0x780 PUSH2 0x70E JUMP JUMPDEST JUMPDEST PUSH0 PUSH2 0x78E DUP5 DUP3 DUP6 ADD PUSH2 0x758 JUMP JUMPDEST SWAP2 POP POP SWAP3 SWAP2 POP POP JUMP JUMPDEST PUSH0 DUP2 MLOAD SWAP1 POP SWAP2 SWAP1 POP JUMP JUMPDEST PUSH32 0x4E487B7100000000000000000000000000000000000000000000000000000000 PUSH0 MSTORE PUSH1 0x41 PUSH1 0x4 MSTORE PUSH1 0x24 PUSH0 REVERT JUMPDEST PUSH32 0x4E487B7100000000000000000000000000000000000000000000000000000000 PUSH0 MSTORE PUSH1 0x22 PUSH1 0x4 MSTORE PUSH1 0x24 PUSH0 REVERT JUMPDEST PUSH0 PUSH1 0x2 DUP3 DIV SWAP1 POP PUSH1 0x1 DUP3 AND DUP1 PUSH2 0x812 JUMPI PUSH1 0x7F DUP3 AND SWAP2 POP JUMPDEST PUSH1 0x20 DUP3 LT DUP2 SUB PUSH2 0x825 JUMPI PUSH2 0x824 PUSH2 0x7CE JUMP JUMPDEST JUMPDEST POP SWAP2 SWAP1 POP JUMP JUMPDEST PUSH0 DUP2 SWAP1 POP DUP2 PUSH0 MSTORE PUSH1 0x20 PUSH0 KECCAK256 SWAP1 POP SWAP2 SWAP1 POP JUMP JUMPDEST PUSH0 PUSH1 0x20 PUSH1 0x1F DUP4 ADD DIV SWAP1 POP SWAP2 SWAP1 POP JUMP JUMPDEST PUSH0 DUP3 DUP3 SHL SWAP1 POP SWAP3 SWAP2 POP POP JUMP JUMPDEST PUSH0 PUSH1 0x8 DUP4 MUL PUSH2 0x887 PUSH32 0xFFFFFFFFFFFFFFFFFFFFFFFFFFFFFFFFFFFFFFFFFFFFFFFFFFFFFFFFFFFFFFFF DUP3 PUSH2 0x84C JUMP JUMPDEST PUSH2 0x891 DUP7 DUP4 PUSH2 0x84C JUMP JUMPDEST SWAP6 POP DUP1 NOT DUP5 AND SWAP4 POP DUP1 DUP7 AND DUP5 OR SWAP3 POP POP POP SWAP4 SWAP3 POP POP POP JUMP JUMPDEST PUSH0 DUP2 SWAP1 POP SWAP2 SWAP1 POP JUMP JUMPDEST PUSH0 DUP2 SWAP1 POP SWAP2 SWAP1 POP JUMP JUMPDEST PUSH0 PUSH2 0x8D5 PUSH2 0x8D0 PUSH2 0x8CB DUP5 PUSH2 0x8A9 JUMP JUMPDEST PUSH2 0x8B2 JUMP JUMPDEST PUSH2 0x8A9 JUMP JUMPDEST SWAP1 POP SWAP2 SWAP1 POP JUMP JUMPDEST PUSH0 DUP2 SWAP1 POP SWAP2 SWAP1 POP JUMP JUMPDEST PUSH2 0x8EE DUP4 PUSH2 0x8BB JUMP JUMPDEST PUSH2 0x902 PUSH2 0x8FA DUP3 PUSH2 0x8DC JUMP JUMPDEST DUP5 DUP5 SLOAD PUSH2 0x858 JUMP JUMPDEST DUP3 SSTORE POP POP POP POP JUMP JUMPDEST PUSH0 SWAP1 JUMP JUMPDEST PUSH2 0x916 PUSH2 0x90A JUMP JUMPDEST PUSH2 0x921 DUP2 DUP5 DUP5 PUSH2 0x8E5 JUMP JUMPDEST POP POP POP JUMP JUMPDEST JUMPDEST DUP2 DUP2 LT ISZERO PUSH2 0x944 JUMPI PUSH2 0x939 PUSH0 DUP3 PUSH2 0x90E JUMP JUMPDEST PUSH1 0x1 DUP2 ADD SWAP1 POP PUSH2 0x927 JUMP JUMPDEST POP POP JUMP JUMPDEST PUSH1 0x1F DUP3 GT ISZERO PUSH2 0x989 JUMPI PUSH2 0x95A DUP2 PUSH2 0x82B JUMP JUMPDEST PUSH2 0x963 DUP5 PUSH2 0x83D JUMP JUMPDEST DUP2 ADD PUSH1 0x20 DUP6 LT ISZERO PUSH2 0x972 JUMPI DUP2 SWAP1 POP JUMPDEST PUSH2 0x986 PUSH2 0x97E DUP6 PUSH2 0x83D JUMP JUMPDEST DUP4 ADD DUP3 PUSH2 0x926 JUMP JUMPDEST POP POP JUMPDEST POP POP POP JUMP JUMPDEST PUSH0 DUP3 DUP3 SHR SWAP1 POP SWAP3 SWAP2 POP POP JUMP JUMPDEST PUSH0 PUSH2 0x9A9 PUSH0 NOT DUP5 PUSH1 0x8 MUL PUSH2 0x98E JUMP JUMPDEST NOT DUP1 DUP4 AND SWAP2 POP POP SWAP3 SWAP2 POP POP JUMP JUMPDEST PUSH0 PUSH2 0x9C1 DUP4 DUP4 PUSH2 0x99A JUMP JUMPDEST SWAP2 POP DUP3 PUSH1 0x2 MUL DUP3 OR SWAP1 POP SWAP3 SWAP2 POP POP JUMP JUMPDEST PUSH2 0x9DA DUP3 PUSH2 0x797 JUMP JUMPDEST PUSH8 0xFFFFFFFFFFFFFFFF DUP2 GT ISZERO PUSH2 0x9F3 JUMPI PUSH2 0x9F2 PUSH2 0x7A1 JUMP JUMPDEST JUMPDEST PUSH2 0x9FD DUP3 SLOAD PUSH2 0x7FB JUMP JUMPDEST PUSH2 0xA08 DUP3 DUP3 DUP6 PUSH2 0x948 JUMP JUMPDEST PUSH0 PUSH1 0x20 SWAP1 POP PUSH1 0x1F DUP4 GT PUSH1 0x1 DUP2 EQ PUSH2 0xA39 JUMPI PUSH0 DUP5 ISZERO PUSH2 0xA27 JUMPI DUP3 DUP8 ADD MLOAD SWAP1 POP JUMPDEST PUSH2 0xA31 DUP6 DUP3 PUSH2 0x9B6 JUMP JUMPDEST DUP7 SSTORE POP PUSH2 0xA98 JUMP JUMPDEST PUSH1 0x1F NOT DUP5 AND PUSH2 0xA47 DUP7 PUSH2 0x82B JUMP JUMPDEST PUSH0 JUMPDEST DUP3 DUP2 LT ISZERO PUSH2 0xA6E JUMPI DUP5 DUP10 ADD MLOAD DUP3 SSTORE PUSH1 0x1 DUP3 ADD SWAP2 POP PUSH1 0x20 DUP6 ADD SWAP5 POP PUSH1 0x20 DUP2 ADD SWAP1 POP PUSH2 0xA49 JUMP JUMPDEST DUP7 DUP4 LT ISZERO PUSH2 0xA8B JUMPI DUP5 DUP10 ADD MLOAD PUSH2 0xA87 PUSH1 0x1F DUP10 AND DUP3 PUSH2 0x99A JUMP JUMPDEST DUP4 SSTORE POP JUMPDEST PUSH1 0x1 PUSH1 0x2 DUP9 MUL ADD DUP9 SSTORE POP POP POP JUMPDEST POP POP POP POP POP POP JUMP JUMPDEST PUSH2 0xAA9 DUP2 PUSH2 0x731 JUMP JUMPDEST DUP3 MSTORE POP POP JUMP JUMPDEST PUSH0 PUSH1 0x20 DUP3 ADD SWAP1 POP PUSH2 0xAC2 PUSH0 DUP4 ADD DUP5 PUSH2 0xAA0 JUMP JUMPDEST SWAP3 SWAP2 POP POP JUMP JUMPDEST PUSH32 0x4E487B7100000000000000000000000000000000000000000000000000000000 PUSH0 MSTORE PUSH1 0x11 PUSH1 0x4 MSTORE PUSH1 0x24 PUSH0 REVERT JUMPDEST PUSH0 PUSH2 0xAFF DUP3 PUSH2 0x8A9 JUMP JUMPDEST SWAP2 POP PUSH2 0xB0A DUP4 PUSH2 0x8A9 JUMP JUMPDEST SWAP3 POP DUP3 DUP3 ADD SWAP1 POP DUP1 DUP3 GT ISZERO PUSH2 0xB22 JUMPI PUSH2 0xB21 PUSH2 0xAC8 JUMP JUMPDEST JUMPDEST SWAP3 SWAP2 POP POP JUMP JUMPDEST PUSH0 DUP3 DUP3 MSTORE PUSH1 0x20 DUP3 ADD SWAP1 POP SWAP3 SWAP2 POP POP JUMP JUMPDEST PUSH32 0x436F6E74726163743A20537570706C7920436170206578636565646564000000 PUSH0 DUP3 ADD MSTORE POP JUMP JUMPDEST PUSH0 PUSH2 0xB6C PUSH1 0x1D DUP4 PUSH2 0xB28 JUMP JUMPDEST SWAP2 POP PUSH2 0xB77 DUP3 PUSH2 0xB38 JUMP JUMPDEST PUSH1 0x20 DUP3 ADD SWAP1 POP SWAP2 SWAP1 POP JUMP JUMPDEST PUSH0 PUSH1 0x20 DUP3 ADD SWAP1 POP DUP2 DUP2 SUB PUSH0 DUP4 ADD MSTORE PUSH2 0xB99 DUP2 PUSH2 0xB60 JUMP JUMPDEST SWAP1 POP SWAP2 SWAP1 POP JUMP JUMPDEST PUSH2 0xBA9 DUP2 PUSH2 0x8A9 JUMP JUMPDEST DUP3 MSTORE POP POP JUMP JUMPDEST PUSH0 PUSH1 0x60 DUP3 ADD SWAP1 POP PUSH2 0xBC2 PUSH0 DUP4 ADD DUP7 PUSH2 0xAA0 JUMP JUMPDEST PUSH2 0xBCF PUSH1 0x20 DUP4 ADD DUP6 PUSH2 0xBA0 JUMP JUMPDEST PUSH2 0xBDC PUSH1 0x40 DUP4 ADD DUP5 PUSH2 0xBA0 JUMP JUMPDEST SWAP5 SWAP4 POP POP POP POP JUMP JUMPDEST PUSH0 PUSH1 0x20 DUP3 ADD SWAP1 POP PUSH2 0xBF7 PUSH0 DUP4 ADD DUP5 PUSH2 0xBA0 JUMP JUMPDEST SWAP3 SWAP2 POP POP JUMP JUMPDEST PUSH2 0x3749 DUP1 PUSH2 0xC0A PUSH0 CODECOPY PUSH0 RETURN INVALID PUSH1 0x80 PUSH1 0x40 MSTORE CALLVALUE DUP1 ISZERO PUSH2 0xF JUMPI PUSH0 DUP1 REVERT JUMPDEST POP PUSH1 0x4 CALLDATASIZE LT PUSH2 0x251 JUMPI PUSH0 CALLDATALOAD PUSH1 0xE0 SHR DUP1 PUSH4 0x79CC6790 GT PUSH2 0x144 JUMPI DUP1 PUSH4 0xA9059CBB GT PUSH2 0xC1 JUMPI DUP1 PUSH4 0xD547741F GT PUSH2 0x85 JUMPI DUP1 PUSH4 0xD547741F EQ PUSH2 0x6E9 JUMPI DUP1 PUSH4 0xDD62ED3E EQ PUSH2 0x705 JUMPI DUP1 PUSH4 0xDEB6DB36 EQ PUSH2 0x735 JUMPI DUP1 PUSH4 0xEA5CB532 EQ PUSH2 0x751 JUMPI DUP1 PUSH4 0xF2250D3D EQ PUSH2 0x76F JUMPI DUP1 PUSH4 0xFBFA77CF EQ PUSH2 0x78B JUMPI PUSH2 0x251 JUMP JUMPDEST DUP1 PUSH4 0xA9059CBB EQ PUSH2 0x631 JUMPI DUP1 PUSH4 0xB6A3F59A EQ PUSH2 0x661 JUMPI DUP1 PUSH4 0xC30796AB EQ PUSH2 0x67D JUMPI DUP1 PUSH4 0xCF820461 EQ PUSH2 0x6AD JUMPI DUP1 PUSH4 0xD1C9F69B EQ PUSH2 0x6CB JUMPI PUSH2 0x251 JUMP JUMPDEST DUP1 PUSH4 0x91D14854 GT PUSH2 0x108 JUMPI DUP1 PUSH4 0x91D14854 EQ PUSH2 0x58B JUMPI DUP1 PUSH4 0x956FECCF EQ PUSH2 0x5BB JUMPI DUP1 PUSH4 0x95D89B41 EQ PUSH2 0x5D9 JUMPI DUP1 PUSH4 0xA0712D68 EQ PUSH2 0x5F7 JUMPI DUP1 PUSH4 0xA217FDDF EQ PUSH2 0x613 JUMPI PUSH2 0x251 JUMP JUMPDEST DUP1 PUSH4 0x79CC6790 EQ PUSH2 0x4F7 JUMPI DUP1 PUSH4 0x7E92A7FD EQ PUSH2 0x513 JUMPI DUP1 PUSH4 0x8D580B9F EQ PUSH2 0x531 JUMPI DUP1 PUSH4 0x8EBED5B1 EQ PUSH2 0x54F JUMPI DUP1 PUSH4 0x8F770AD0 EQ PUSH2 0x56D JUMPI PUSH2 0x251 JUMP JUMPDEST DUP1 PUSH4 0x3F914AEF GT PUSH2 0x1D2 JUMPI DUP1 PUSH4 0x51557289 GT PUSH2 0x196 JUMPI DUP1 PUSH4 0x51557289 EQ PUSH2 0x44F JUMPI DUP1 PUSH4 0x53A4C31E EQ PUSH2 0x46D JUMPI DUP1 PUSH4 0x5C975ABB EQ PUSH2 0x48B JUMPI DUP1 PUSH4 0x6BA77A38 EQ PUSH2 0x4A9 JUMPI DUP1 PUSH4 0x70A08231 EQ PUSH2 0x4C7 JUMPI PUSH2 0x251 JUMP JUMPDEST DUP1 PUSH4 0x3F914AEF EQ PUSH2 0x3C3 JUMPI DUP1 PUSH4 0x41F431FD EQ PUSH2 0x3DF JUMPI DUP1 PUSH4 0x42966C68 EQ PUSH2 0x3FB JUMPI DUP1 PUSH4 0x449A52F8 EQ PUSH2 0x417 JUMPI DUP1 PUSH4 0x48132F48 EQ PUSH2 0x433 JUMPI PUSH2 0x251 JUMP JUMPDEST DUP1 PUSH4 0x23B872DD GT PUSH2 0x219 JUMPI DUP1 PUSH4 0x23B872DD EQ PUSH2 0x30D JUMPI DUP1 PUSH4 0x248A9CA3 EQ PUSH2 0x33D JUMPI DUP1 PUSH4 0x2F2FF15D EQ PUSH2 0x36D JUMPI DUP1 PUSH4 0x313CE567 EQ PUSH2 0x389 JUMPI DUP1 PUSH4 0x36568ABE EQ PUSH2 0x3A7 JUMPI PUSH2 0x251 JUMP JUMPDEST DUP1 PUSH4 0x1FFC9A7 EQ PUSH2 0x255 JUMPI DUP1 PUSH4 0x6FDDE03 EQ PUSH2 0x285 JUMPI DUP1 PUSH4 0x95EA7B3 EQ PUSH2 0x2A3 JUMPI DUP1 PUSH4 0x16C38B3C EQ PUSH2 0x2D3 JUMPI DUP1 PUSH4 0x18160DDD EQ PUSH2 0x2EF JUMPI JUMPDEST PUSH0 DUP1 REVERT JUMPDEST PUSH2 0x26F PUSH1 0x4 DUP1 CALLDATASIZE SUB DUP2 ADD SWAP1 PUSH2 0x26A SWAP2 SWAP1 PUSH2 0x2857 JUMP JUMPDEST PUSH2 0x7A9 JUMP JUMPDEST PUSH1 0x40 MLOAD PUSH2 0x27C SWAP2 SWAP1 PUSH2 0x289C JUMP JUMPDEST PUSH1 0x40 MLOAD DUP1 SWAP2 SUB SWAP1 RETURN JUMPDEST PUSH2 0x28D PUSH2 0x822 JUMP JUMPDEST PUSH1 0x40 MLOAD PUSH2 0x29A SWAP2 SWAP1 PUSH2 0x2925 JUMP JUMPDEST PUSH1 0x40 MLOAD DUP1 SWAP2 SUB SWAP1 RETURN JUMPDEST PUSH2 0x2BD PUSH1 0x4 DUP1 CALLDATASIZE SUB DUP2 ADD SWAP1 PUSH2 0x2B8 SWAP2 SWAP1 PUSH2 0x29D2 JUMP JUMPDEST PUSH2 0x8B2 JUMP JUMPDEST PUSH1 0x40 MLOAD PUSH2 0x2CA SWAP2 SWAP1 PUSH2 0x289C JUMP JUMPDEST PUSH1 0x40 MLOAD DUP1 SWAP2 SUB SWAP1 RETURN JUMPDEST PUSH2 0x2ED PUSH1 0x4 DUP1 CALLDATASIZE SUB DUP2 ADD SWAP1 PUSH2 0x2E8 SWAP2 SWAP1 PUSH2 0x2A3A JUMP JUMPDEST PUSH2 0x8D4 JUMP JUMPDEST STOP JUMPDEST PUSH2 0x2F7 PUSH2 0x9EC JUMP JUMPDEST PUSH1 0x40 MLOAD PUSH2 0x304 SWAP2 SWAP1 PUSH2 0x2A74 JUMP JUMPDEST PUSH1 0x40 MLOAD DUP1 SWAP2 SUB SWAP1 RETURN JUMPDEST PUSH2 0x327 PUSH1 0x4 DUP1 CALLDATASIZE SUB DUP2 ADD SWAP1 PUSH2 0x322 SWAP2 SWAP1 PUSH2 0x2A8D JUMP JUMPDEST PUSH2 0x9F5 JUMP JUMPDEST PUSH1 0x40 MLOAD PUSH2 0x334 SWAP2 SWAP1 PUSH2 0x289C JUMP JUMPDEST PUSH1 0x40 MLOAD DUP1 SWAP2 SUB SWAP1 RETURN JUMPDEST PUSH2 0x357 PUSH1 0x4 DUP1 CALLDATASIZE SUB DUP2 ADD SWAP1 PUSH2 0x352 SWAP2 SWAP1 PUSH2 0x2B10 JUMP JUMPDEST PUSH2 0xAB6 JUMP JUMPDEST PUSH1 0x40 MLOAD PUSH2 0x364 SWAP2 SWAP1 PUSH2 0x2B4A JUMP JUMPDEST PUSH1 0x40 MLOAD DUP1 SWAP2 SUB SWAP1 RETURN JUMPDEST PUSH2 0x387 PUSH1 0x4 DUP1 CALLDATASIZE SUB DUP2 ADD SWAP1 PUSH2 0x382 SWAP2 SWAP1 PUSH2 0x2B63 JUMP JUMPDEST PUSH2 0xAD3 JUMP JUMPDEST STOP JUMPDEST PUSH2 0x391 PUSH2 0xAF5 JUMP JUMPDEST PUSH1 0x40 MLOAD PUSH2 0x39E SWAP2 SWAP1 PUSH2 0x2BBC JUMP JUMPDEST PUSH1 0x40 MLOAD DUP1 SWAP2 SUB SWAP1 RETURN JUMPDEST PUSH2 0x3C1 PUSH1 0x4 DUP1 CALLDATASIZE SUB DUP2 ADD SWAP1 PUSH2 0x3BC SWAP2 SWAP1 PUSH2 0x2B63 JUMP JUMPDEST PUSH2 0xAFD JUMP JUMPDEST STOP JUMPDEST PUSH2 0x3DD PUSH1 0x4 DUP1 CALLDATASIZE SUB DUP2 ADD SWAP1 PUSH2 0x3D8 SWAP2 SWAP1 PUSH2 0x2BD5 JUMP JUMPDEST PUSH2 0xB78 JUMP JUMPDEST STOP JUMPDEST PUSH2 0x3F9 PUSH1 0x4 DUP1 CALLDATASIZE SUB DUP2 ADD SWAP1 PUSH2 0x3F4 SWAP2 SWAP1 PUSH2 0x2C4E JUMP JUMPDEST PUSH2 0xCA7 JUMP JUMPDEST STOP JUMPDEST PUSH2 0x415 PUSH1 0x4 DUP1 CALLDATASIZE SUB DUP2 ADD SWAP1 PUSH2 0x410 SWAP2 SWAP1 PUSH2 0x2C9E JUMP JUMPDEST PUSH2 0xD8D JUMP JUMPDEST STOP JUMPDEST PUSH2 0x431 PUSH1 0x4 DUP1 CALLDATASIZE SUB DUP2 ADD SWAP1 PUSH2 0x42C SWAP2 SWAP1 PUSH2 0x29D2 JUMP JUMPDEST PUSH2 0xEA0 JUMP JUMPDEST STOP JUMPDEST PUSH2 0x44D PUSH1 0x4 DUP1 CALLDATASIZE SUB DUP2 ADD SWAP1 PUSH2 0x448 SWAP2 SWAP1 PUSH2 0x2D04 JUMP JUMPDEST PUSH2 0x104D JUMP JUMPDEST STOP JUMPDEST PUSH2 0x457 PUSH2 0x1149 JUMP JUMPDEST PUSH1 0x40 MLOAD PUSH2 0x464 SWAP2 SWAP1 PUSH2 0x2B4A JUMP JUMPDEST PUSH1 0x40 MLOAD DUP1 SWAP2 SUB SWAP1 RETURN JUMPDEST PUSH2 0x475 PUSH2 0x116D JUMP JUMPDEST PUSH1 0x40 MLOAD PUSH2 0x482 SWAP2 SWAP1 PUSH2 0x2B4A JUMP JUMPDEST PUSH1 0x40 MLOAD DUP1 SWAP2 SUB SWAP1 RETURN JUMPDEST PUSH2 0x493 PUSH2 0x1191 JUMP JUMPDEST PUSH1 0x40 MLOAD PUSH2 0x4A0 SWAP2 SWAP1 PUSH2 0x289C JUMP JUMPDEST PUSH1 0x40 MLOAD DUP1 SWAP2 SUB SWAP1 RETURN JUMPDEST PUSH2 0x4B1 PUSH2 0x11A3 JUMP JUMPDEST PUSH1 0x40 MLOAD PUSH2 0x4BE SWAP2 SWAP1 PUSH2 0x2B4A JUMP JUMPDEST PUSH1 0x40 MLOAD DUP1 SWAP2 SUB SWAP1 RETURN JUMPDEST PUSH2 0x4E1 PUSH1 0x4 DUP1 CALLDATASIZE SUB DUP2 ADD SWAP1 PUSH2 0x4DC SWAP2 SWAP1 PUSH2 0x2D42 JUMP JUMPDEST PUSH2 0x11C7 JUMP JUMPDEST PUSH1 0x40 MLOAD PUSH2 0x4EE SWAP2 SWAP1 PUSH2 0x2A74 JUMP JUMPDEST PUSH1 0x40 MLOAD DUP1 SWAP2 SUB SWAP1 RETURN JUMPDEST PUSH2 0x511 PUSH1 0x4 DUP1 CALLDATASIZE SUB DUP2 ADD SWAP1 PUSH2 0x50C SWAP2 SWAP1 PUSH2 0x29D2 JUMP JUMPDEST PUSH2 0x120C JUMP JUMPDEST STOP JUMPDEST PUSH2 0x51B PUSH2 0x131B JUMP JUMPDEST PUSH1 0x40 MLOAD PUSH2 0x528 SWAP2 SWAP1 PUSH2 0x2B4A JUMP JUMPDEST PUSH1 0x40 MLOAD DUP1 SWAP2 SUB SWAP1 RETURN JUMPDEST PUSH2 0x539 PUSH2 0x133F JUMP JUMPDEST PUSH1 0x40 MLOAD PUSH2 0x546 SWAP2 SWAP1 PUSH2 0x2B4A JUMP JUMPDEST PUSH1 0x40 MLOAD DUP1 SWAP2 SUB SWAP1 RETURN JUMPDEST PUSH2 0x557 PUSH2 0x1363 JUMP JUMPDEST PUSH1 0x40 MLOAD PUSH2 0x564 SWAP2 SWAP1 PUSH2 0x2B4A JUMP JUMPDEST PUSH1 0x40 MLOAD DUP1 SWAP2 SUB SWAP1 RETURN JUMPDEST PUSH2 0x575 PUSH2 0x1387 JUMP JUMPDEST PUSH1 0x40 MLOAD PUSH2 0x582 SWAP2 SWAP1 PUSH2 0x2A74 JUMP JUMPDEST PUSH1 0x40 MLOAD DUP1 SWAP2 SUB SWAP1 RETURN JUMPDEST PUSH2 0x5A5 PUSH1 0x4 DUP1 CALLDATASIZE SUB DUP2 ADD SWAP1 PUSH2 0x5A0 SWAP2 SWAP1 PUSH2 0x2B63 JUMP JUMPDEST PUSH2 0x1390 JUMP JUMPDEST PUSH1 0x40 MLOAD PUSH2 0x5B2 SWAP2 SWAP1 PUSH2 0x289C JUMP JUMPDEST PUSH1 0x40 MLOAD DUP1 SWAP2 SUB SWAP1 RETURN JUMPDEST PUSH2 0x5C3 PUSH2 0x13F4 JUMP JUMPDEST PUSH1 0x40 MLOAD PUSH2 0x5D0 SWAP2 SWAP1 PUSH2 0x289C JUMP JUMPDEST PUSH1 0x40 MLOAD DUP1 SWAP2 SUB SWAP1 RETURN JUMPDEST PUSH2 0x5E1 PUSH2 0x1407 JUMP JUMPDEST PUSH1 0x40 MLOAD PUSH2 0x5EE SWAP2 SWAP1 PUSH2 0x2925 JUMP JUMPDEST PUSH1 0x40 MLOAD DUP1 SWAP2 SUB SWAP1 RETURN JUMPDEST PUSH2 0x611 PUSH1 0x4 DUP1 CALLDATASIZE SUB DUP2 ADD SWAP1 PUSH2 0x60C SWAP2 SWAP1 PUSH2 0x2C9E JUMP JUMPDEST PUSH2 0x1497 JUMP JUMPDEST STOP JUMPDEST PUSH2 0x61B PUSH2 0x1648 JUMP JUMPDEST PUSH1 0x40 MLOAD PUSH2 0x628 SWAP2 SWAP1 PUSH2 0x2B4A JUMP JUMPDEST PUSH1 0x40 MLOAD DUP1 SWAP2 SUB SWAP1 RETURN JUMPDEST PUSH2 0x64B PUSH1 0x4 DUP1 CALLDATASIZE SUB DUP2 ADD SWAP1 PUSH2 0x646 SWAP2 SWAP1 PUSH2 0x29D2 JUMP JUMPDEST PUSH2 0x164E JUMP JUMPDEST PUSH1 0x40 MLOAD PUSH2 0x658 SWAP2 SWAP1 PUSH2 0x289C JUMP JUMPDEST PUSH1 0x40 MLOAD DUP1 SWAP2 SUB SWAP1 RETURN JUMPDEST PUSH2 0x67B PUSH1 0x4 DUP1 CALLDATASIZE SUB DUP2 ADD SWAP1 PUSH2 0x676 SWAP2 SWAP1 PUSH2 0x2C9E JUMP JUMPDEST PUSH2 0x170E JUMP JUMPDEST STOP JUMPDEST PUSH2 0x697 PUSH1 0x4 DUP1 CALLDATASIZE SUB DUP2 ADD SWAP1 PUSH2 0x692 SWAP2 SWAP1 PUSH2 0x2D42 JUMP JUMPDEST PUSH2 0x1861 JUMP JUMPDEST PUSH1 0x40 MLOAD PUSH2 0x6A4 SWAP2 SWAP1 PUSH2 0x289C JUMP JUMPDEST PUSH1 0x40 MLOAD DUP1 SWAP2 SUB SWAP1 RETURN JUMPDEST PUSH2 0x6B5 PUSH2 0x187E JUMP JUMPDEST PUSH1 0x40 MLOAD PUSH2 0x6C2 SWAP2 SWAP1 PUSH2 0x2A74 JUMP JUMPDEST PUSH1 0x40 MLOAD DUP1 SWAP2 SUB SWAP1 RETURN JUMPDEST PUSH2 0x6D3 PUSH2 0x1884 JUMP JUMPDEST PUSH1 0x40 MLOAD PUSH2 0x6E0 SWAP2 SWAP1 PUSH2 0x289C JUMP JUMPDEST PUSH1 0x40 MLOAD DUP1 SWAP2 SUB SWAP1 RETURN JUMPDEST PUSH2 0x703 PUSH1 0x4 DUP1 CALLDATASIZE SUB DUP2 ADD SWAP1 PUSH2 0x6FE SWAP2 SWAP1 PUSH2 0x2B63 JUMP JUMPDEST PUSH2 0x1897 JUMP JUMPDEST STOP JUMPDEST PUSH2 0x71F PUSH1 0x4 DUP1 CALLDATASIZE SUB DUP2 ADD SWAP1 PUSH2 0x71A SWAP2 SWAP1 PUSH2 0x2D6D JUMP JUMPDEST PUSH2 0x18B9 JUMP JUMPDEST PUSH1 0x40 MLOAD PUSH2 0x72C SWAP2 SWAP1 PUSH2 0x2A74 JUMP JUMPDEST PUSH1 0x40 MLOAD DUP1 SWAP2 SUB SWAP1 RETURN JUMPDEST PUSH2 0x74F PUSH1 0x4 DUP1 CALLDATASIZE SUB DUP2 ADD SWAP1 PUSH2 0x74A SWAP2 SWAP1 PUSH2 0x2A3A JUMP JUMPDEST PUSH2 0x193B JUMP JUMPDEST STOP JUMPDEST PUSH2 0x759 PUSH2 0x1A54 JUMP JUMPDEST PUSH1 0x40 MLOAD PUSH2 0x766 SWAP2 SWAP1 PUSH2 0x2B4A JUMP JUMPDEST PUSH1 0x40 MLOAD DUP1 SWAP2 SUB SWAP1 RETURN JUMPDEST PUSH2 0x789 PUSH1 0x4 DUP1 CALLDATASIZE SUB DUP2 ADD SWAP1 PUSH2 0x784 SWAP2 SWAP1 PUSH2 0x2A3A JUMP JUMPDEST PUSH2 0x1A78 JUMP JUMPDEST STOP JUMPDEST PUSH2 0x793 PUSH2 0x1B91 JUMP JUMPDEST PUSH1 0x40 MLOAD PUSH2 0x7A0 SWAP2 SWAP1 PUSH2 0x2DBA JUMP JUMPDEST PUSH1 0x40 MLOAD DUP1 SWAP2 SUB SWAP1 RETURN JUMPDEST PUSH0 PUSH32 0x7965DB0B00000000000000000000000000000000000000000000000000000000 PUSH28 0xFFFFFFFFFFFFFFFFFFFFFFFFFFFFFFFFFFFFFFFFFFFFFFFFFFFFFFFF NOT AND DUP3 PUSH28 0xFFFFFFFFFFFFFFFFFFFFFFFFFFFFFFFFFFFFFFFFFFFFFFFFFFFFFFFF NOT AND EQ DUP1 PUSH2 0x81B JUMPI POP PUSH2 0x81A DUP3 PUSH2 0x1BB6 JUMP JUMPDEST JUMPDEST SWAP1 POP SWAP2 SWAP1 POP JUMP JUMPDEST PUSH1 0x60 PUSH1 0x3 DUP1 SLOAD PUSH2 0x831 SWAP1 PUSH2 0x2E00 JUMP JUMPDEST DUP1 PUSH1 0x1F ADD PUSH1 0x20 DUP1 SWAP2 DIV MUL PUSH1 0x20 ADD PUSH1 0x40 MLOAD SWAP1 DUP2 ADD PUSH1 0x40 MSTORE DUP1 SWAP3 SWAP2 SWAP1 DUP2 DUP2 MSTORE PUSH1 0x20 ADD DUP3 DUP1 SLOAD PUSH2 0x85D SWAP1 PUSH2 0x2E00 JUMP JUMPDEST DUP1 ISZERO PUSH2 0x8A8 JUMPI DUP1 PUSH1 0x1F LT PUSH2 0x87F JUMPI PUSH2 0x100 DUP1 DUP4 SLOAD DIV MUL DUP4 MSTORE SWAP2 PUSH1 0x20 ADD SWAP2 PUSH2 0x8A8 JUMP JUMPDEST DUP3 ADD SWAP2 SWAP1 PUSH0 MSTORE PUSH1 0x20 PUSH0 KECCAK256 SWAP1 JUMPDEST DUP2 SLOAD DUP2 MSTORE SWAP1 PUSH1 0x1 ADD SWAP1 PUSH1 0x20 ADD DUP1 DUP4 GT PUSH2 0x88B JUMPI DUP3 SWAP1 SUB PUSH1 0x1F AND DUP3 ADD SWAP2 JUMPDEST POP POP POP POP POP SWAP1 POP SWAP1 JUMP JUMPDEST PUSH0 DUP1 PUSH2 0x8BC PUSH2 0x1C1F JUMP JUMPDEST SWAP1 POP PUSH2 0x8C9 DUP2 DUP6 DUP6 PUSH2 0x1C26 JUMP JUMPDEST PUSH1 0x1 SWAP2 POP POP SWAP3 SWAP2 POP POP JUMP JUMPDEST PUSH2 0x905 PUSH32 0xAE6C2FC584631AF4C9385B8A55683F1A75C813747E27EFEF5AFECE31C6B230D3 PUSH2 0x900 PUSH2 0x1C1F JUMP JUMPDEST PUSH2 0x1390 JUMP JUMPDEST PUSH2 0x944 JUMPI PUSH1 0x40 MLOAD PUSH32 0x8C379A000000000000000000000000000000000000000000000000000000000 DUP2 MSTORE PUSH1 0x4 ADD PUSH2 0x93B SWAP1 PUSH2 0x2E7A JUMP JUMPDEST PUSH1 0x40 MLOAD DUP1 SWAP2 SUB SWAP1 REVERT JUMPDEST DUP1 PUSH1 0xA PUSH0 PUSH2 0x100 EXP DUP2 SLOAD DUP2 PUSH1 0xFF MUL NOT AND SWAP1 DUP4 ISZERO ISZERO MUL OR SWAP1 SSTORE POP DUP1 ISZERO PUSH2 0x9A8 JUMPI PUSH32 0xD8C9C5623123DF8E137854C59A08F9084B75609FE24584228D44FFDCE5AB920A NUMBER PUSH2 0x98D PUSH2 0x1C1F JUMP JUMPDEST PUSH1 0x40 MLOAD PUSH2 0x99B SWAP3 SWAP2 SWAP1 PUSH2 0x2E98 JUMP JUMPDEST PUSH1 0x40 MLOAD DUP1 SWAP2 SUB SWAP1 LOG1 PUSH2 0x9E9 JUMP JUMPDEST PUSH32 0x1E7A7234AD01ED7353BF129217F5C162773639A6CB22773E84BCD5A2B0EF362E NUMBER PUSH2 0x9D2 PUSH2 0x1C1F JUMP JUMPDEST PUSH1 0x40 MLOAD PUSH2 0x9E0 SWAP3 SWAP2 SWAP1 PUSH2 0x2E98 JUMP JUMPDEST PUSH1 0x40 MLOAD DUP1 SWAP2 SUB SWAP1 LOG1 JUMPDEST POP JUMP JUMPDEST PUSH0 PUSH1 0x2 SLOAD SWAP1 POP SWAP1 JUMP JUMPDEST PUSH0 PUSH2 0x9FE PUSH2 0x1C38 JUMP JUMPDEST PUSH0 PUSH2 0xA07 PUSH2 0x1C1F JUMP JUMPDEST SWAP1 POP PUSH1 0xB PUSH0 DUP3 PUSH20 0xFFFFFFFFFFFFFFFFFFFFFFFFFFFFFFFFFFFFFFFF AND PUSH20 0xFFFFFFFFFFFFFFFFFFFFFFFFFFFFFFFFFFFFFFFF AND DUP2 MSTORE PUSH1 0x20 ADD SWAP1 DUP2 MSTORE PUSH1 0x20 ADD PUSH0 KECCAK256 PUSH0 SWAP1 SLOAD SWAP1 PUSH2 0x100 EXP SWAP1 DIV PUSH1 0xFF AND ISZERO PUSH2 0xA68 JUMPI PUSH2 0xA63 DUP6 DUP6 DUP6 PUSH2 0x1C87 JUMP JUMPDEST PUSH2 0xAA2 JUMP JUMPDEST PUSH2 0xA73 DUP6 DUP6 DUP6 PUSH2 0x1C87 JUMP JUMPDEST PUSH2 0xAA1 DUP6 PUSH1 0x8 PUSH0 SWAP1 SLOAD SWAP1 PUSH2 0x100 EXP SWAP1 DIV PUSH20 0xFFFFFFFFFFFFFFFFFFFFFFFFFFFFFFFFFFFFFFFF AND PUSH1 0x9 SLOAD PUSH2 0x1C87 JUMP JUMPDEST JUMPDEST PUSH1 0x1 SWAP2 POP POP PUSH2 0xAAF PUSH2 0x1D77 JUMP JUMPDEST SWAP4 SWAP3 POP POP POP JUMP JUMPDEST PUSH0 PUSH1 0x5 PUSH0 DUP4 DUP2 MSTORE PUSH1 0x20 ADD SWAP1 DUP2 MSTORE PUSH1 0x20 ADD PUSH0 KECCAK256 PUSH1 0x1 ADD SLOAD SWAP1 POP SWAP2 SWAP1 POP JUMP JUMPDEST PUSH2 0xADC DUP3 PUSH2 0xAB6 JUMP JUMPDEST PUSH2 0xAE5 DUP2 PUSH2 0x1D81 JUMP JUMPDEST PUSH2 0xAEF DUP4 DUP4 PUSH2 0x1D95 JUMP JUMPDEST POP POP POP POP JUMP JUMPDEST PUSH0 PUSH1 0x12 SWAP1 POP SWAP1 JUMP JUMPDEST PUSH2 0xB05 PUSH2 0x1C1F JUMP JUMPDEST PUSH20 0xFFFFFFFFFFFFFFFFFFFFFFFFFFFFFFFFFFFFFFFF AND DUP2 PUSH20 0xFFFFFFFFFFFFFFFFFFFFFFFFFFFFFFFFFFFFFFFF AND EQ PUSH2 0xB69 JUMPI PUSH1 0x40 MLOAD PUSH32 0x6697B23200000000000000000000000000000000000000000000000000000000 DUP2 MSTORE PUSH1 0x4 ADD PUSH1 0x40 MLOAD DUP1 SWAP2 SUB SWAP1 REVERT JUMPDEST PUSH2 0xB73 DUP3 DUP3 PUSH2 0x1E7F JUMP JUMPDEST POP POP POP JUMP JUMPDEST PUSH2 0xBA2 PUSH32 0xAE6C2FC584631AF4C9385B8A55683F1A75C813747E27EFEF5AFECE31C6B230D3 CALLER PUSH2 0x1390 JUMP JUMPDEST PUSH2 0xBE1 JUMPI PUSH1 0x40 MLOAD PUSH32 0x8C379A000000000000000000000000000000000000000000000000000000000 DUP2 MSTORE PUSH1 0x4 ADD PUSH2 0xBD8 SWAP1 PUSH2 0x2F09 JUMP JUMPDEST PUSH1 0x40 MLOAD DUP1 SWAP2 SUB SWAP1 REVERT JUMPDEST PUSH0 PUSH20 0xFFFFFFFFFFFFFFFFFFFFFFFFFFFFFFFFFFFFFFFF AND DUP3 PUSH20 0xFFFFFFFFFFFFFFFFFFFFFFFFFFFFFFFFFFFFFFFF AND SUB PUSH2 0xC4F JUMPI PUSH1 0x40 MLOAD PUSH32 0x8C379A000000000000000000000000000000000000000000000000000000000 DUP2 MSTORE PUSH1 0x4 ADD PUSH2 0xC46 SWAP1 PUSH2 0x2F71 JUMP JUMPDEST PUSH1 0x40 MLOAD DUP1 SWAP2 SUB SWAP1 REVERT JUMPDEST DUP1 PUSH1 0xB PUSH0 DUP5 PUSH20 0xFFFFFFFFFFFFFFFFFFFFFFFFFFFFFFFFFFFFFFFF AND PUSH20 0xFFFFFFFFFFFFFFFFFFFFFFFFFFFFFFFFFFFFFFFF AND DUP2 MSTORE PUSH1 0x20 ADD SWAP1 DUP2 MSTORE PUSH1 0x20 ADD PUSH0 KECCAK256 PUSH0 PUSH2 0x100 EXP DUP2 SLOAD DUP2 PUSH1 0xFF MUL NOT AND SWAP1 DUP4 ISZERO ISZERO MUL OR SWAP1 SSTORE POP POP POP JUMP JUMPDEST PUSH2 0xCAF PUSH2 0x1C38 JUMP JUMPDEST PUSH2 0xCD9 PUSH32 0x508F8F8BE8F5DBCB88F4F4500430B8B3684C471ED936F31FEA912C78AD46A6B9 CALLER PUSH2 0x1390 JUMP JUMPDEST PUSH2 0xD18 JUMPI PUSH1 0x40 MLOAD PUSH32 0x8C379A000000000000000000000000000000000000000000000000000000000 DUP2 MSTORE PUSH1 0x4 ADD PUSH2 0xD0F SWAP1 PUSH2 0x2FD9 JUMP JUMPDEST PUSH1 0x40 MLOAD DUP1 SWAP2 SUB SWAP1 REVERT JUMPDEST PUSH2 0xD43 DUP3 DUP3 DUP6 PUSH20 0xFFFFFFFFFFFFFFFFFFFFFFFFFFFFFFFFFFFFFFFF AND PUSH2 0x1F69 SWAP1 SWAP3 SWAP2 SWAP1 PUSH4 0xFFFFFFFF AND JUMP JUMPDEST PUSH32 0x494215F965756BBC8B7F57ADDD2A0EBDBCE467A4999F8320C67ADC1771885D7B DUP4 NUMBER DUP5 DUP5 PUSH1 0x40 MLOAD PUSH2 0xD78 SWAP5 SWAP4 SWAP3 SWAP2 SWAP1 PUSH2 0x3052 JUMP JUMPDEST PUSH1 0x40 MLOAD DUP1 SWAP2 SUB SWAP1 LOG1 PUSH2 0xD88 PUSH2 0x1D77 JUMP JUMPDEST POP POP POP JUMP JUMPDEST PUSH1 0xA PUSH0 SWAP1 SLOAD SWAP1 PUSH2 0x100 EXP SWAP1 DIV PUSH1 0xFF AND ISZERO PUSH2 0xDDC JUMPI PUSH1 0x40 MLOAD PUSH32 0x8C379A000000000000000000000000000000000000000000000000000000000 DUP2 MSTORE PUSH1 0x4 ADD PUSH2 0xDD3 SWAP1 PUSH2 0x30DF JUMP JUMPDEST PUSH1 0x40 MLOAD DUP1 SWAP2 SUB SWAP1 REVERT JUMPDEST PUSH2 0xE0D PUSH32 0x9EDFAD36E7D4D9DA54B4F78F22BF97CB5B58BB7998294A4288DA41C15C647C45 PUSH2 0xE08 PUSH2 0x1C1F JUMP JUMPDEST PUSH2 0x1390 JUMP JUMPDEST PUSH2 0xE4C JUMPI PUSH1 0x40 MLOAD PUSH32 0x8C379A000000000000000000000000000000000000000000000000000000000 DUP2 MSTORE PUSH1 0x4 ADD PUSH2 0xE43 SWAP1 PUSH2 0x3147 JUMP JUMPDEST PUSH1 0x40 MLOAD DUP1 SWAP2 SUB SWAP1 REVERT JUMPDEST PUSH32 0x63706707D038997D2210EB026BB1339397DEAB463921538A81BB98E69EE54CA8 DUP2 PUSH2 0xE76 PUSH2 0x1C1F JUMP JUMPDEST PUSH1 0x40 MLOAD PUSH2 0xE84 SWAP3 SWAP2 SWAP1 PUSH2 0x2E98 JUMP JUMPDEST PUSH1 0x40 MLOAD DUP1 SWAP2 SUB SWAP1 LOG1 PUSH2 0xE9D PUSH2 0xE97 PUSH2 0x1C1F JUMP JUMPDEST DUP3 PUSH2 0x1FE8 JUMP JUMPDEST POP JUMP JUMPDEST PUSH1 0xA PUSH0 SWAP1 SLOAD SWAP1 PUSH2 0x100 EXP SWAP1 DIV PUSH1 0xFF AND ISZERO PUSH2 0xEEF JUMPI PUSH1 0x40 MLOAD PUSH32 0x8C379A000000000000000000000000000000000000000000000000000000000 DUP2 MSTORE PUSH1 0x4 ADD PUSH2 0xEE6 SWAP1 PUSH2 0x30DF JUMP JUMPDEST PUSH1 0x40 MLOAD DUP1 SWAP2 SUB SWAP1 REVERT JUMPDEST PUSH1 0xA PUSH1 0x2 SWAP1 SLOAD SWAP1 PUSH2 0x100 EXP SWAP1 DIV PUSH1 0xFF AND ISZERO PUSH2 0xF3F JUMPI PUSH1 0x40 MLOAD PUSH32 0x8C379A000000000000000000000000000000000000000000000000000000000 DUP2 MSTORE PUSH1 0x4 ADD PUSH2 0xF36 SWAP1 PUSH2 0x31AF JUMP JUMPDEST PUSH1 0x40 MLOAD DUP1 SWAP2 SUB SWAP1 REVERT JUMPDEST PUSH2 0xF70 PUSH32 0x7D800F56A05ADCB6245DF540492A560D0E668AAC15EE6C7DD40668064913DA33 PUSH2 0xF6B PUSH2 0x1C1F JUMP JUMPDEST PUSH2 0x1390 JUMP JUMPDEST PUSH2 0xFAF JUMPI PUSH1 0x40 MLOAD PUSH32 0x8C379A000000000000000000000000000000000000000000000000000000000 DUP2 MSTORE PUSH1 0x4 ADD PUSH2 0xFA6 SWAP1 PUSH2 0x3217 JUMP JUMPDEST PUSH1 0x40 MLOAD DUP1 SWAP2 SUB SWAP1 REVERT JUMPDEST PUSH1 0x7 SLOAD DUP2 PUSH2 0xFBB PUSH2 0x9EC JUMP JUMPDEST PUSH2 0xFC5 SWAP2 SWAP1 PUSH2 0x3262 JUMP JUMPDEST GT ISZERO PUSH2 0x1006 JUMPI PUSH1 0x40 MLOAD PUSH32 0x8C379A000000000000000000000000000000000000000000000000000000000 DUP2 MSTORE PUSH1 0x4 ADD PUSH2 0xFFD SWAP1 PUSH2 0x32DF JUMP JUMPDEST PUSH1 0x40 MLOAD DUP1 SWAP2 SUB SWAP1 REVERT JUMPDEST PUSH32 0xE98063832B4FF0356868961B75F7F49B096B14EA066C9725301AD197F2F63147 DUP3 DUP3 PUSH1 0x40 MLOAD PUSH2 0x1037 SWAP3 SWAP2 SWAP1 PUSH2 0x32FD JUMP JUMPDEST PUSH1 0x40 MLOAD DUP1 SWAP2 SUB SWAP1 LOG1 PUSH2 0x1049 DUP3 DUP3 PUSH2 0x2067 JUMP JUMPDEST POP POP JUMP JUMPDEST PUSH2 0x1055 PUSH2 0x1C38 JUMP JUMPDEST PUSH2 0x107F PUSH32 0x508F8F8BE8F5DBCB88F4F4500430B8B3684C471ED936F31FEA912C78AD46A6B9 CALLER PUSH2 0x1390 JUMP JUMPDEST PUSH2 0x10BE JUMPI PUSH1 0x40 MLOAD PUSH32 0x8C379A000000000000000000000000000000000000000000000000000000000 DUP2 MSTORE PUSH1 0x4 ADD PUSH2 0x10B5 SWAP1 PUSH2 0x2FD9 JUMP JUMPDEST PUSH1 0x40 MLOAD DUP1 SWAP2 SUB SWAP1 REVERT JUMPDEST DUP2 PUSH20 0xFFFFFFFFFFFFFFFFFFFFFFFFFFFFFFFFFFFFFFFF AND PUSH2 0x8FC DUP3 SWAP1 DUP2 ISZERO MUL SWAP1 PUSH1 0x40 MLOAD PUSH0 PUSH1 0x40 MLOAD DUP1 DUP4 SUB DUP2 DUP6 DUP9 DUP9 CALL SWAP4 POP POP POP POP ISZERO DUP1 ISZERO PUSH2 0x1101 JUMPI RETURNDATASIZE PUSH0 DUP1 RETURNDATACOPY RETURNDATASIZE PUSH0 REVERT JUMPDEST POP PUSH32 0x3B1C0368C81E47D03164182DC6F9FCF4F5E4B3BD9462D74960D729F73138CE36 DUP3 NUMBER DUP4 PUSH1 0x40 MLOAD PUSH2 0x1135 SWAP4 SWAP3 SWAP2 SWAP1 PUSH2 0x3344 JUMP JUMPDEST PUSH1 0x40 MLOAD DUP1 SWAP2 SUB SWAP1 LOG1 PUSH2 0x1145 PUSH2 0x1D77 JUMP JUMPDEST POP POP JUMP JUMPDEST PUSH32 0xAE6C2FC584631AF4C9385B8A55683F1A75C813747E27EFEF5AFECE31C6B230D3 DUP2 JUMP JUMPDEST PUSH32 0x9EDFAD36E7D4D9DA54B4F78F22BF97CB5B58BB7998294A4288DA41C15C647C45 DUP2 JUMP JUMPDEST PUSH1 0xA PUSH0 SWAP1 SLOAD SWAP1 PUSH2 0x100 EXP SWAP1 DIV PUSH1 0xFF AND DUP2 JUMP JUMPDEST PUSH32 0xC8A3BEFA5973FF6E159AFC769978D92F26BAE29C51A73D11C9112A05B68D25E6 DUP2 JUMP JUMPDEST PUSH0 DUP1 PUSH0 DUP4 PUSH20 0xFFFFFFFFFFFFFFFFFFFFFFFFFFFFFFFFFFFFFFFF AND PUSH20 0xFFFFFFFFFFFFFFFFFFFFFFFFFFFFFFFFFFFFFFFF AND DUP2 MSTORE PUSH1 0x20 ADD SWAP1 DUP2 MSTORE PUSH1 0x20 ADD PUSH0 KECCAK256 SLOAD SWAP1 POP SWAP2 SWAP1 POP JUMP JUMPDEST PUSH1 0xA PUSH0 SWAP1 SLOAD SWAP1 PUSH2 0x100 EXP SWAP1 DIV PUSH1 0xFF AND ISZERO PUSH2 0x125B JUMPI PUSH1 0x40 MLOAD PUSH32 0x8C379A000000000000000000000000000000000000000000000000000000000 DUP2 MSTORE PUSH1 0x4 ADD PUSH2 0x1252 SWAP1 PUSH2 0x30DF JUMP JUMPDEST PUSH1 0x40 MLOAD DUP1 SWAP2 SUB SWAP1 REVERT JUMPDEST PUSH2 0x128C PUSH32 0xC8A3BEFA5973FF6E159AFC769978D92F26BAE29C51A73D11C9112A05B68D25E6 PUSH2 0x1287 PUSH2 0x1C1F JUMP JUMPDEST PUSH2 0x1390 JUMP JUMPDEST PUSH2 0x12CB JUMPI PUSH1 0x40 MLOAD PUSH32 0x8C379A000000000000000000000000000000000000000000000000000000000 DUP2 MSTORE PUSH1 0x4 ADD PUSH2 0x12C2 SWAP1 PUSH2 0x33C3 JUMP JUMPDEST PUSH1 0x40 MLOAD DUP1 SWAP2 SUB SWAP1 REVERT JUMPDEST PUSH32 0xE419CE2AAB145A1FEAF5893BB6A9478F9282415BBD81C76D5CFFF2D4F13431DD DUP3 DUP3 PUSH2 0x12F6 PUSH2 0x1C1F JUMP JUMPDEST PUSH1 0x40 MLOAD PUSH2 0x1305 SWAP4 SWAP3 SWAP2 SWAP1 PUSH2 0x33E1 JUMP JUMPDEST PUSH1 0x40 MLOAD DUP1 SWAP2 SUB SWAP1 LOG1 PUSH2 0x1317 DUP3 DUP3 PUSH2 0x1FE8 JUMP JUMPDEST POP POP JUMP JUMPDEST PUSH32 0x7D800F56A05ADCB6245DF540492A560D0E668AAC15EE6C7DD40668064913DA33 DUP2 JUMP JUMPDEST PUSH32 0x508F8F8BE8F5DBCB88F4F4500430B8B3684C471ED936F31FEA912C78AD46A6B9 DUP2 JUMP JUMPDEST PUSH32 0x8C66330D9D4F6ABA064F25EF2A307366EA6D917616F44C075AA60FA15E5CB1CB DUP2 JUMP JUMPDEST PUSH0 PUSH1 0x7 SLOAD SWAP1 POP SWAP1 JUMP JUMPDEST PUSH0 PUSH1 0x5 PUSH0 DUP5 DUP2 MSTORE PUSH1 0x20 ADD SWAP1 DUP2 MSTORE PUSH1 0x20 ADD PUSH0 KECCAK256 PUSH0 ADD PUSH0 DUP4 PUSH20 0xFFFFFFFFFFFFFFFFFFFFFFFFFFFFFFFFFFFFFFFF AND PUSH20 0xFFFFFFFFFFFFFFFFFFFFFFFFFFFFFFFFFFFFFFFF AND DUP2 MSTORE PUSH1 0x20 ADD SWAP1 DUP2 MSTORE PUSH1 0x20 ADD PUSH0 KECCAK256 PUSH0 SWAP1 SLOAD SWAP1 PUSH2 0x100 EXP SWAP1 DIV PUSH1 0xFF AND SWAP1 POP SWAP3 SWAP2 POP POP JUMP JUMPDEST PUSH1 0xA PUSH1 0x1 SWAP1 SLOAD SWAP1 PUSH2 0x100 EXP SWAP1 DIV PUSH1 0xFF AND DUP2 JUMP JUMPDEST PUSH1 0x60 PUSH1 0x4 DUP1 SLOAD PUSH2 0x1416 SWAP1 PUSH2 0x2E00 JUMP JUMPDEST DUP1 PUSH1 0x1F ADD PUSH1 0x20 DUP1 SWAP2 DIV MUL PUSH1 0x20 ADD PUSH1 0x40 MLOAD SWAP1 DUP2 ADD PUSH1 0x40 MSTORE DUP1 SWAP3 SWAP2 SWAP1 DUP2 DUP2 MSTORE PUSH1 0x20 ADD DUP3 DUP1 SLOAD PUSH2 0x1442 SWAP1 PUSH2 0x2E00 JUMP JUMPDEST DUP1 ISZERO PUSH2 0x148D JUMPI DUP1 PUSH1 0x1F LT PUSH2 0x1464 JUMPI PUSH2 0x100 DUP1 DUP4 SLOAD DIV MUL DUP4 MSTORE SWAP2 PUSH1 0x20 ADD SWAP2 PUSH2 0x148D JUMP JUMPDEST DUP3 ADD SWAP2 SWAP1 PUSH0 MSTORE PUSH1 0x20 PUSH0 KECCAK256 SWAP1 JUMPDEST DUP2 SLOAD DUP2 MSTORE SWAP1 PUSH1 0x1 ADD SWAP1 PUSH1 0x20 ADD DUP1 DUP4 GT PUSH2 0x1470 JUMPI DUP3 SWAP1 SUB PUSH1 0x1F AND DUP3 ADD SWAP2 JUMPDEST POP POP POP POP POP SWAP1 POP SWAP1 JUMP JUMPDEST PUSH1 0xA PUSH0 SWAP1 SLOAD SWAP1 PUSH2 0x100 EXP SWAP1 DIV PUSH1 0xFF AND ISZERO PUSH2 0x14E6 JUMPI PUSH1 0x40 MLOAD PUSH32 0x8C379A000000000000000000000000000000000000000000000000000000000 DUP2 MSTORE PUSH1 0x4 ADD PUSH2 0x14DD SWAP1 PUSH2 0x30DF JUMP JUMPDEST PUSH1 0x40 MLOAD DUP1 SWAP2 SUB SWAP1 REVERT JUMPDEST PUSH1 0xA PUSH1 0x1 SWAP1 SLOAD SWAP1 PUSH2 0x100 EXP SWAP1 DIV PUSH1 0xFF AND ISZERO PUSH2 0x1536 JUMPI PUSH1 0x40 MLOAD PUSH32 0x8C379A000000000000000000000000000000000000000000000000000000000 DUP2 MSTORE PUSH1 0x4 ADD PUSH2 0x152D SWAP1 PUSH2 0x3460 JUMP JUMPDEST PUSH1 0x40 MLOAD DUP1 SWAP2 SUB SWAP1 REVERT JUMPDEST PUSH2 0x1567 PUSH32 0x8C66330D9D4F6ABA064F25EF2A307366EA6D917616F44C075AA60FA15E5CB1CB PUSH2 0x1562 PUSH2 0x1C1F JUMP JUMPDEST PUSH2 0x1390 JUMP JUMPDEST PUSH2 0x15A6 JUMPI PUSH1 0x40 MLOAD PUSH32 0x8C379A000000000000000000000000000000000000000000000000000000000 DUP2 MSTORE PUSH1 0x4 ADD PUSH2 0x159D SWAP1 PUSH2 0x34C8 JUMP JUMPDEST PUSH1 0x40 MLOAD DUP1 SWAP2 SUB SWAP1 REVERT JUMPDEST PUSH1 0x7 SLOAD DUP2 PUSH2 0x15B2 PUSH2 0x9EC JUMP JUMPDEST PUSH2 0x15BC SWAP2 SWAP1 PUSH2 0x3262 JUMP JUMPDEST GT ISZERO PUSH2 0x15FD JUMPI PUSH1 0x40 MLOAD PUSH32 0x8C379A000000000000000000000000000000000000000000000000000000000 DUP2 MSTORE PUSH1 0x4 ADD PUSH2 0x15F4 SWAP1 PUSH2 0x32DF JUMP JUMPDEST PUSH1 0x40 MLOAD DUP1 SWAP2 SUB SWAP1 REVERT JUMPDEST PUSH32 0x772F66A00A405709C30E7F18FEADCC8F123B20C09C7260165D3EEC36C9F21372 DUP2 PUSH1 0x40 MLOAD PUSH2 0x162C SWAP2 SWAP1 PUSH2 0x2A74 JUMP JUMPDEST PUSH1 0x40 MLOAD DUP1 SWAP2 SUB SWAP1 LOG1 PUSH2 0x1645 PUSH2 0x163F PUSH2 0x1C1F JUMP JUMPDEST DUP3 PUSH2 0x2067 JUMP JUMPDEST POP JUMP JUMPDEST PUSH0 DUP1 SHL DUP2 JUMP JUMPDEST PUSH0 PUSH2 0x1657 PUSH2 0x1C38 JUMP JUMPDEST PUSH0 PUSH2 0x1660 PUSH2 0x1C1F JUMP JUMPDEST SWAP1 POP PUSH1 0xB PUSH0 DUP3 PUSH20 0xFFFFFFFFFFFFFFFFFFFFFFFFFFFFFFFFFFFFFFFF AND PUSH20 0xFFFFFFFFFFFFFFFFFFFFFFFFFFFFFFFFFFFFFFFF AND DUP2 MSTORE PUSH1 0x20 ADD SWAP1 DUP2 MSTORE PUSH1 0x20 ADD PUSH0 KECCAK256 PUSH0 SWAP1 SLOAD SWAP1 PUSH2 0x100 EXP SWAP1 DIV PUSH1 0xFF AND ISZERO PUSH2 0x16C1 JUMPI PUSH2 0x16BC DUP2 DUP6 DUP6 PUSH2 0x1C87 JUMP JUMPDEST PUSH2 0x16FB JUMP JUMPDEST PUSH2 0x16CC DUP2 DUP6 DUP6 PUSH2 0x1C87 JUMP JUMPDEST PUSH2 0x16FA DUP2 PUSH1 0x8 PUSH0 SWAP1 SLOAD SWAP1 PUSH2 0x100 EXP SWAP1 DIV PUSH20 0xFFFFFFFFFFFFFFFFFFFFFFFFFFFFFFFFFFFFFFFF AND PUSH1 0x9 SLOAD PUSH2 0x1C87 JUMP JUMPDEST JUMPDEST PUSH1 0x1 SWAP2 POP POP PUSH2 0x1708 PUSH2 0x1D77 JUMP JUMPDEST SWAP3 SWAP2 POP POP JUMP JUMPDEST PUSH1 0xA PUSH0 SWAP1 SLOAD SWAP1 PUSH2 0x100 EXP SWAP1 DIV PUSH1 0xFF AND ISZERO PUSH2 0x175D JUMPI PUSH1 0x40 MLOAD PUSH32 0x8C379A000000000000000000000000000000000000000000000000000000000 DUP2 MSTORE PUSH1 0x4 ADD PUSH2 0x1754 SWAP1 PUSH2 0x30DF JUMP JUMPDEST PUSH1 0x40 MLOAD DUP1 SWAP2 SUB SWAP1 REVERT JUMPDEST PUSH2 0x178E PUSH32 0xEA4DEFABEB90FA1E79F929D6C8D482FEE8A115926A592B79634D39A67CCE3B62 PUSH2 0x1789 PUSH2 0x1C1F JUMP JUMPDEST PUSH2 0x1390 JUMP JUMPDEST PUSH2 0x17CD JUMPI PUSH1 0x40 MLOAD PUSH32 0x8C379A000000000000000000000000000000000000000000000000000000000 DUP2 MSTORE PUSH1 0x4 ADD PUSH2 0x17C4 SWAP1 PUSH2 0x3530 JUMP JUMPDEST PUSH1 0x40 MLOAD DUP1 SWAP2 SUB SWAP1 REVERT JUMPDEST PUSH2 0x17D5 PUSH2 0x9EC JUMP JUMPDEST DUP2 LT ISZERO PUSH2 0x1817 JUMPI PUSH1 0x40 MLOAD PUSH32 0x8C379A000000000000000000000000000000000000000000000000000000000 DUP2 MSTORE PUSH1 0x4 ADD PUSH2 0x180E SWAP1 PUSH2 0x3598 JUMP JUMPDEST PUSH1 0x40 MLOAD DUP1 SWAP2 SUB SWAP1 REVERT JUMPDEST DUP1 PUSH1 0x7 DUP2 SWAP1 SSTORE POP PUSH32 0xA11CBDEB4D62442FAE7C8EC6286585B17C47ACB7B17BBCAB1BEADCE84BEFA300 DUP2 PUSH2 0x1848 PUSH2 0x1C1F JUMP JUMPDEST PUSH1 0x40 MLOAD PUSH2 0x1856 SWAP3 SWAP2 SWAP1 PUSH2 0x2E98 JUMP JUMPDEST PUSH1 0x40 MLOAD DUP1 SWAP2 SUB SWAP1 LOG1 POP JUMP JUMPDEST PUSH1 0xB PUSH1 0x20 MSTORE DUP1 PUSH0 MSTORE PUSH1 0x40 PUSH0 KECCAK256 PUSH0 SWAP2 POP SLOAD SWAP1 PUSH2 0x100 EXP SWAP1 DIV PUSH1 0xFF AND DUP2 JUMP JUMPDEST PUSH1 0x9 SLOAD DUP2 JUMP JUMPDEST PUSH1 0xA PUSH1 0x2 SWAP1 SLOAD SWAP1 PUSH2 0x100 EXP SWAP1 DIV PUSH1 0xFF AND DUP2 JUMP JUMPDEST PUSH2 0x18A0 DUP3 PUSH2 0xAB6 JUMP JUMPDEST PUSH2 0x18A9 DUP2 PUSH2 0x1D81 JUMP JUMPDEST PUSH2 0x18B3 DUP4 DUP4 PUSH2 0x1E7F JUMP JUMPDEST POP POP POP POP JUMP JUMPDEST PUSH0 PUSH1 0x1 PUSH0 DUP5 PUSH20 0xFFFFFFFFFFFFFFFFFFFFFFFFFFFFFFFFFFFFFFFF AND PUSH20 0xFFFFFFFFFFFFFFFFFFFFFFFFFFFFFFFFFFFFFFFF AND DUP2 MSTORE PUSH1 0x20 ADD SWAP1 DUP2 MSTORE PUSH1 0x20 ADD PUSH0 KECCAK256 PUSH0 DUP4 PUSH20 0xFFFFFFFFFFFFFFFFFFFFFFFFFFFFFFFFFFFFFFFF AND PUSH20 0xFFFFFFFFFFFFFFFFFFFFFFFFFFFFFFFFFFFFFFFF AND DUP2 MSTORE PUSH1 0x20 ADD SWAP1 DUP2 MSTORE PUSH1 0x20 ADD PUSH0 KECCAK256 SLOAD SWAP1 POP SWAP3 SWAP2 POP POP JUMP JUMPDEST PUSH2 0x196C PUSH32 0xAE6C2FC584631AF4C9385B8A55683F1A75C813747E27EFEF5AFECE31C6B230D3 PUSH2 0x1967 PUSH2 0x1C1F JUMP JUMPDEST PUSH2 0x1390 JUMP JUMPDEST PUSH2 0x19AB JUMPI PUSH1 0x40 MLOAD PUSH32 0x8C379A000000000000000000000000000000000000000000000000000000000 DUP2 MSTORE PUSH1 0x4 ADD PUSH2 0x19A2 SWAP1 PUSH2 0x2E7A JUMP JUMPDEST PUSH1 0x40 MLOAD DUP1 SWAP2 SUB SWAP1 REVERT JUMPDEST DUP1 PUSH1 0xA PUSH1 0x1 PUSH2 0x100 EXP DUP2 SLOAD DUP2 PUSH1 0xFF MUL NOT AND SWAP1 DUP4 ISZERO ISZERO MUL OR SWAP1 SSTORE POP DUP1 ISZERO PUSH2 0x1A10 JUMPI PUSH32 0x5668502CA8E7B393C09D1DAC964CA45A27870A78D7BA212B7A189450897CA05F NUMBER PUSH2 0x19F5 PUSH2 0x1C1F JUMP JUMPDEST PUSH1 0x40 MLOAD PUSH2 0x1A03 SWAP3 SWAP2 SWAP1 PUSH2 0x2E98 JUMP JUMPDEST PUSH1 0x40 MLOAD DUP1 SWAP2 SUB SWAP1 LOG1 PUSH2 0x1A51 JUMP JUMPDEST PUSH32 0x98E05482FDB38DF5EB461FB932FA6E1AF90A3569939CE5A8D92D699B102D6402 NUMBER PUSH2 0x1A3A PUSH2 0x1C1F JUMP JUMPDEST PUSH1 0x40 MLOAD PUSH2 0x1A48 SWAP3 SWAP2 SWAP1 PUSH2 0x2E98 JUMP JUMPDEST PUSH1 0x40 MLOAD DUP1 SWAP2 SUB SWAP1 LOG1 JUMPDEST POP JUMP JUMPDEST PUSH32 0xEA4DEFABEB90FA1E79F929D6C8D482FEE8A115926A592B79634D39A67CCE3B62 DUP2 JUMP JUMPDEST PUSH2 0x1AA9 PUSH32 0xAE6C2FC584631AF4C9385B8A55683F1A75C813747E27EFEF5AFECE31C6B230D3 PUSH2 0x1AA4 PUSH2 0x1C1F JUMP JUMPDEST PUSH2 0x1390 JUMP JUMPDEST PUSH2 0x1AE8 JUMPI PUSH1 0x40 MLOAD PUSH32 0x8C379A000000000000000000000000000000000000000000000000000000000 DUP2 MSTORE PUSH1 0x4 ADD PUSH2 0x1ADF SWAP1 PUSH2 0x2F09 JUMP JUMPDEST PUSH1 0x40 MLOAD DUP1 SWAP2 SUB SWAP1 REVERT JUMPDEST DUP1 PUSH1 0xA PUSH1 0x2 PUSH2 0x100 EXP DUP2 SLOAD DUP2 PUSH1 0xFF MUL NOT AND SWAP1 DUP4 ISZERO ISZERO MUL OR SWAP1 SSTORE POP DUP1 ISZERO PUSH2 0x1B4D JUMPI PUSH32 0x218E25F0A7435729F5A66AAE50A9ED0084535A0080300C1C2E8366D8DF7136ED NUMBER PUSH2 0x1B32 PUSH2 0x1C1F JUMP JUMPDEST PUSH1 0x40 MLOAD PUSH2 0x1B40 SWAP3 SWAP2 SWAP1 PUSH2 0x2E98 JUMP JUMPDEST PUSH1 0x40 MLOAD DUP1 SWAP2 SUB SWAP1 LOG1 PUSH2 0x1B8E JUMP JUMPDEST PUSH32 0x41606E1DCEE38320F9EDBFCD642AEAA81BB2140C705DE9D4A7814024A1E9A314 NUMBER PUSH2 0x1B77 PUSH2 0x1C1F JUMP JUMPDEST PUSH1 0x40 MLOAD PUSH2 0x1B85 SWAP3 SWAP2 SWAP1 PUSH2 0x2E98 JUMP JUMPDEST PUSH1 0x40 MLOAD DUP1 SWAP2 SUB SWAP1 LOG1 JUMPDEST POP JUMP JUMPDEST PUSH1 0x8 PUSH0 SWAP1 SLOAD SWAP1 PUSH2 0x100 EXP SWAP1 DIV PUSH20 0xFFFFFFFFFFFFFFFFFFFFFFFFFFFFFFFFFFFFFFFF AND DUP2 JUMP JUMPDEST PUSH0 PUSH32 0x1FFC9A700000000000000000000000000000000000000000000000000000000 PUSH28 0xFFFFFFFFFFFFFFFFFFFFFFFFFFFFFFFFFFFFFFFFFFFFFFFFFFFFFFFF NOT AND DUP3 PUSH28 0xFFFFFFFFFFFFFFFFFFFFFFFFFFFFFFFFFFFFFFFFFFFFFFFFFFFFFFFF NOT AND EQ SWAP1 POP SWAP2 SWAP1 POP JUMP JUMPDEST PUSH0 CALLER SWAP1 POP SWAP1 JUMP JUMPDEST PUSH2 0x1C33 DUP4 DUP4 DUP4 PUSH1 0x1 PUSH2 0x20E6 JUMP JUMPDEST POP POP POP JUMP JUMPDEST PUSH1 0x2 PUSH1 0x6 SLOAD SUB PUSH2 0x1C7D JUMPI PUSH1 0x40 MLOAD PUSH32 0x8C379A000000000000000000000000000000000000000000000000000000000 DUP2 MSTORE PUSH1 0x4 ADD PUSH2 0x1C74 SWAP1 PUSH2 0x3600 JUMP JUMPDEST PUSH1 0x40 MLOAD DUP1 SWAP2 SUB SWAP1 REVERT JUMPDEST PUSH1 0x2 PUSH1 0x6 DUP2 SWAP1 SSTORE POP JUMP JUMPDEST PUSH0 PUSH20 0xFFFFFFFFFFFFFFFFFFFFFFFFFFFFFFFFFFFFFFFF AND DUP4 PUSH20 0xFFFFFFFFFFFFFFFFFFFFFFFFFFFFFFFFFFFFFFFF AND SUB PUSH2 0x1CF7 JUMPI PUSH0 PUSH1 0x40 MLOAD PUSH32 0x96C6FD1E00000000000000000000000000000000000000000000000000000000 DUP2 MSTORE PUSH1 0x4 ADD PUSH2 0x1CEE SWAP2 SWAP1 PUSH2 0x2DBA JUMP JUMPDEST PUSH1 0x40 MLOAD DUP1 SWAP2 SUB SWAP1 REVERT JUMPDEST PUSH0 PUSH20 0xFFFFFFFFFFFFFFFFFFFFFFFFFFFFFFFFFFFFFFFF AND DUP3 PUSH20 0xFFFFFFFFFFFFFFFFFFFFFFFFFFFFFFFFFFFFFFFF AND SUB PUSH2 0x1D67 JUMPI PUSH0 PUSH1 0x40 MLOAD PUSH32 0xEC442F0500000000000000000000000000000000000000000000000000000000 DUP2 MSTORE PUSH1 0x4 ADD PUSH2 0x1D5E SWAP2 SWAP1 PUSH2 0x2DBA JUMP JUMPDEST PUSH1 0x40 MLOAD DUP1 SWAP2 SUB SWAP1 REVERT JUMPDEST PUSH2 0x1D72 DUP4 DUP4 DUP4 PUSH2 0x22B5 JUMP JUMPDEST POP POP POP JUMP JUMPDEST PUSH1 0x1 PUSH1 0x6 DUP2 SWAP1 SSTORE POP JUMP JUMPDEST PUSH2 0x1D92 DUP2 PUSH2 0x1D8D PUSH2 0x1C1F JUMP JUMPDEST PUSH2 0x2350 JUMP JUMPDEST POP JUMP JUMPDEST PUSH0 PUSH2 0x1DA0 DUP4 DUP4 PUSH2 0x1390 JUMP JUMPDEST PUSH2 0x1E75 JUMPI PUSH1 0x1 PUSH1 0x5 PUSH0 DUP6 DUP2 MSTORE PUSH1 0x20 ADD SWAP1 DUP2 MSTORE PUSH1 0x20 ADD PUSH0 KECCAK256 PUSH0 ADD PUSH0 DUP5 PUSH20 0xFFFFFFFFFFFFFFFFFFFFFFFFFFFFFFFFFFFFFFFF AND PUSH20 0xFFFFFFFFFFFFFFFFFFFFFFFFFFFFFFFFFFFFFFFF AND DUP2 MSTORE PUSH1 0x20 ADD SWAP1 DUP2 MSTORE PUSH1 0x20 ADD PUSH0 KECCAK256 PUSH0 PUSH2 0x100 EXP DUP2 SLOAD DUP2 PUSH1 0xFF MUL NOT AND SWAP1 DUP4 ISZERO ISZERO MUL OR SWAP1 SSTORE POP PUSH2 0x1E12 PUSH2 0x1C1F JUMP JUMPDEST PUSH20 0xFFFFFFFFFFFFFFFFFFFFFFFFFFFFFFFFFFFFFFFF AND DUP3 PUSH20 0xFFFFFFFFFFFFFFFFFFFFFFFFFFFFFFFFFFFFFFFF AND DUP5 PUSH32 0x2F8788117E7EFF1D82E926EC794901D17C78024A50270940304540A733656F0D PUSH1 0x40 MLOAD PUSH1 0x40 MLOAD DUP1 SWAP2 SUB SWAP1 LOG4 PUSH1 0x1 SWAP1 POP PUSH2 0x1E79 JUMP JUMPDEST PUSH0 SWAP1 POP JUMPDEST SWAP3 SWAP2 POP POP JUMP JUMPDEST PUSH0 PUSH2 0x1E8A DUP4 DUP4 PUSH2 0x1390 JUMP JUMPDEST ISZERO PUSH2 0x1F5F JUMPI PUSH0 PUSH1 0x5 PUSH0 DUP6 DUP2 MSTORE PUSH1 0x20 ADD SWAP1 DUP2 MSTORE PUSH1 0x20 ADD PUSH0 KECCAK256 PUSH0 ADD PUSH0 DUP5 PUSH20 0xFFFFFFFFFFFFFFFFFFFFFFFFFFFFFFFFFFFFFFFF AND PUSH20 0xFFFFFFFFFFFFFFFFFFFFFFFFFFFFFFFFFFFFFFFF AND DUP2 MSTORE PUSH1 0x20 ADD SWAP1 DUP2 MSTORE PUSH1 0x20 ADD PUSH0 KECCAK256 PUSH0 PUSH2 0x100 EXP DUP2 SLOAD DUP2 PUSH1 0xFF MUL NOT AND SWAP1 DUP4 ISZERO ISZERO MUL OR SWAP1 SSTORE POP PUSH2 0x1EFC PUSH2 0x1C1F JUMP JUMPDEST PUSH20 0xFFFFFFFFFFFFFFFFFFFFFFFFFFFFFFFFFFFFFFFF AND DUP3 PUSH20 0xFFFFFFFFFFFFFFFFFFFFFFFFFFFFFFFFFFFFFFFF AND DUP5 PUSH32 0xF6391F5C32D9C69D2A47EA670B442974B53935D1EDC7FD64EB21E047A839171B PUSH1 0x40 MLOAD PUSH1 0x40 MLOAD DUP1 SWAP2 SUB SWAP1 LOG4 PUSH1 0x1 SWAP1 POP PUSH2 0x1F63 JUMP JUMPDEST PUSH0 SWAP1 POP JUMPDEST SWAP3 SWAP2 POP POP JUMP JUMPDEST PUSH2 0x1FE3 DUP4 DUP5 PUSH20 0xFFFFFFFFFFFFFFFFFFFFFFFFFFFFFFFFFFFFFFFF AND PUSH4 0xA9059CBB DUP6 DUP6 PUSH1 0x40 MLOAD PUSH1 0x24 ADD PUSH2 0x1F9C SWAP3 SWAP2 SWAP1 PUSH2 0x32FD JUMP JUMPDEST PUSH1 0x40 MLOAD PUSH1 0x20 DUP2 DUP4 SUB SUB DUP2 MSTORE SWAP1 PUSH1 0x40 MSTORE SWAP2 POP PUSH1 0xE0 SHL PUSH1 0x20 DUP3 ADD DUP1 MLOAD PUSH28 0xFFFFFFFFFFFFFFFFFFFFFFFFFFFFFFFFFFFFFFFFFFFFFFFFFFFFFFFF DUP4 DUP2 DUP4 AND OR DUP4 MSTORE POP POP POP POP PUSH2 0x23A1 JUMP JUMPDEST POP POP POP JUMP JUMPDEST PUSH0 PUSH20 0xFFFFFFFFFFFFFFFFFFFFFFFFFFFFFFFFFFFFFFFF AND DUP3 PUSH20 0xFFFFFFFFFFFFFFFFFFFFFFFFFFFFFFFFFFFFFFFF AND SUB PUSH2 0x2058 JUMPI PUSH0 PUSH1 0x40 MLOAD PUSH32 0x96C6FD1E00000000000000000000000000000000000000000000000000000000 DUP2 MSTORE PUSH1 0x4 ADD PUSH2 0x204F SWAP2 SWAP1 PUSH2 0x2DBA JUMP JUMPDEST PUSH1 0x40 MLOAD DUP1 SWAP2 SUB SWAP1 REVERT JUMPDEST PUSH2 0x2063 DUP3 PUSH0 DUP4 PUSH2 0x22B5 JUMP JUMPDEST POP POP JUMP JUMPDEST PUSH0 PUSH20 0xFFFFFFFFFFFFFFFFFFFFFFFFFFFFFFFFFFFFFFFF AND DUP3 PUSH20 0xFFFFFFFFFFFFFFFFFFFFFFFFFFFFFFFFFFFFFFFF AND SUB PUSH2 0x20D7 JUMPI PUSH0 PUSH1 0x40 MLOAD PUSH32 0xEC442F0500000000000000000000000000000000000000000000000000000000 DUP2 MSTORE PUSH1 0x4 ADD PUSH2 0x20CE SWAP2 SWAP1 PUSH2 0x2DBA JUMP JUMPDEST PUSH1 0x40 MLOAD DUP1 SWAP2 SUB SWAP1 REVERT JUMPDEST PUSH2 0x20E2 PUSH0 DUP4 DUP4 PUSH2 0x22B5 JUMP JUMPDEST POP POP JUMP JUMPDEST PUSH0 PUSH20 0xFFFFFFFFFFFFFFFFFFFFFFFFFFFFFFFFFFFFFFFF AND DUP5 PUSH20 0xFFFFFFFFFFFFFFFFFFFFFFFFFFFFFFFFFFFFFFFF AND SUB PUSH2 0x2156 JUMPI PUSH0 PUSH1 0x40 MLOAD PUSH32 0xE602DF0500000000000000000000000000000000000000000000000000000000 DUP2 MSTORE PUSH1 0x4 ADD PUSH2 0x214D SWAP2 SWAP1 PUSH2 0x2DBA JUMP JUMPDEST PUSH1 0x40 MLOAD DUP1 SWAP2 SUB SWAP1 REVERT JUMPDEST PUSH0 PUSH20 0xFFFFFFFFFFFFFFFFFFFFFFFFFFFFFFFFFFFFFFFF AND DUP4 PUSH20 0xFFFFFFFFFFFFFFFFFFFFFFFFFFFFFFFFFFFFFFFF AND SUB PUSH2 0x21C6 JUMPI PUSH0 PUSH1 0x40 MLOAD PUSH32 0x94280D6200000000000000000000000000000000000000000000000000000000 DUP2 MSTORE PUSH1 0x4 ADD PUSH2 0x21BD SWAP2 SWAP1 PUSH2 0x2DBA JUMP JUMPDEST PUSH1 0x40 MLOAD DUP1 SWAP2 SUB SWAP1 REVERT JUMPDEST DUP2 PUSH1 0x1 PUSH0 DUP7 PUSH20 0xFFFFFFFFFFFFFFFFFFFFFFFFFFFFFFFFFFFFFFFF AND PUSH20 0xFFFFFFFFFFFFFFFFFFFFFFFFFFFFFFFFFFFFFFFF AND DUP2 MSTORE PUSH1 0x20 ADD SWAP1 DUP2 MSTORE PUSH1 0x20 ADD PUSH0 KECCAK256 PUSH0 DUP6 PUSH20 0xFFFFFFFFFFFFFFFFFFFFFFFFFFFFFFFFFFFFFFFF AND PUSH20 0xFFFFFFFFFFFFFFFFFFFFFFFFFFFFFFFFFFFFFFFF AND DUP2 MSTORE PUSH1 0x20 ADD SWAP1 DUP2 MSTORE PUSH1 0x20 ADD PUSH0 KECCAK256 DUP2 SWAP1 SSTORE POP DUP1 ISZERO PUSH2 0x22AF JUMPI DUP3 PUSH20 0xFFFFFFFFFFFFFFFFFFFFFFFFFFFFFFFFFFFFFFFF AND DUP5 PUSH20 0xFFFFFFFFFFFFFFFFFFFFFFFFFFFFFFFFFFFFFFFF AND PUSH32 0x8C5BE1E5EBEC7D5BD14F71427D1E84F3DD0314C0F7B2291E5B200AC8C7C3B925 DUP5 PUSH1 0x40 MLOAD PUSH2 0x22A6 SWAP2 SWAP1 PUSH2 0x2A74 JUMP JUMPDEST PUSH1 0x40 MLOAD DUP1 SWAP2 SUB SWAP1 LOG3 JUMPDEST POP POP POP POP JUMP JUMPDEST PUSH0 PUSH20 0xFFFFFFFFFFFFFFFFFFFFFFFFFFFFFFFFFFFFFFFF AND DUP4 PUSH20 0xFFFFFFFFFFFFFFFFFFFFFFFFFFFFFFFFFFFFFFFF AND SUB PUSH2 0x2340 JUMPI PUSH1 0x7 SLOAD DUP2 PUSH2 0x22F4 PUSH2 0x9EC JUMP JUMPDEST PUSH2 0x22FE SWAP2 SWAP1 PUSH2 0x3262 JUMP JUMPDEST GT ISZERO PUSH2 0x233F JUMPI PUSH1 0x40 MLOAD PUSH32 0x8C379A000000000000000000000000000000000000000000000000000000000 DUP2 MSTORE PUSH1 0x4 ADD PUSH2 0x2336 SWAP1 PUSH2 0x32DF JUMP JUMPDEST PUSH1 0x40 MLOAD DUP1 SWAP2 SUB SWAP1 REVERT JUMPDEST JUMPDEST PUSH2 0x234B DUP4 DUP4 DUP4 PUSH2 0x2436 JUMP JUMPDEST POP POP POP JUMP JUMPDEST PUSH2 0x235A DUP3 DUP3 PUSH2 0x1390 JUMP JUMPDEST PUSH2 0x239D JUMPI DUP1 DUP3 PUSH1 0x40 MLOAD PUSH32 0xE2517D3F00000000000000000000000000000000000000000000000000000000 DUP2 MSTORE PUSH1 0x4 ADD PUSH2 0x2394 SWAP3 SWAP2 SWAP1 PUSH2 0x361E JUMP JUMPDEST PUSH1 0x40 MLOAD DUP1 SWAP2 SUB SWAP1 REVERT JUMPDEST POP POP JUMP JUMPDEST PUSH0 PUSH2 0x23CB DUP3 DUP5 PUSH20 0xFFFFFFFFFFFFFFFFFFFFFFFFFFFFFFFFFFFFFFFF AND PUSH2 0x264F SWAP1 SWAP2 SWAP1 PUSH4 0xFFFFFFFF AND JUMP JUMPDEST SWAP1 POP PUSH0 DUP2 MLOAD EQ ISZERO DUP1 ISZERO PUSH2 0x23EF JUMPI POP DUP1 DUP1 PUSH1 0x20 ADD SWAP1 MLOAD DUP2 ADD SWAP1 PUSH2 0x23ED SWAP2 SWAP1 PUSH2 0x3659 JUMP JUMPDEST ISZERO JUMPDEST ISZERO PUSH2 0x2431 JUMPI DUP3 PUSH1 0x40 MLOAD PUSH32 0x5274AFE700000000000000000000000000000000000000000000000000000000 DUP2 MSTORE PUSH1 0x4 ADD PUSH2 0x2428 SWAP2 SWAP1 PUSH2 0x2DBA JUMP JUMPDEST PUSH1 0x40 MLOAD DUP1 SWAP2 SUB SWAP1 REVERT JUMPDEST POP POP POP JUMP JUMPDEST PUSH0 PUSH20 0xFFFFFFFFFFFFFFFFFFFFFFFFFFFFFFFFFFFFFFFF AND DUP4 PUSH20 0xFFFFFFFFFFFFFFFFFFFFFFFFFFFFFFFFFFFFFFFF AND SUB PUSH2 0x2486 JUMPI DUP1 PUSH1 0x2 PUSH0 DUP3 DUP3 SLOAD PUSH2 0x247A SWAP2 SWAP1 PUSH2 0x3262 JUMP JUMPDEST SWAP3 POP POP DUP2 SWAP1 SSTORE POP PUSH2 0x2554 JUMP JUMPDEST PUSH0 DUP1 PUSH0 DUP6 PUSH20 0xFFFFFFFFFFFFFFFFFFFFFFFFFFFFFFFFFFFFFFFF AND PUSH20 0xFFFFFFFFFFFFFFFFFFFFFFFFFFFFFFFFFFFFFFFF AND DUP2 MSTORE PUSH1 0x20 ADD SWAP1 DUP2 MSTORE PUSH1 0x20 ADD PUSH0 KECCAK256 SLOAD SWAP1 POP DUP2 DUP2 LT ISZERO PUSH2 0x250F JUMPI DUP4 DUP2 DUP4 PUSH1 0x40 MLOAD PUSH32 0xE450D38C00000000000000000000000000000000000000000000000000000000 DUP2 MSTORE PUSH1 0x4 ADD PUSH2 0x2506 SWAP4 SWAP3 SWAP2 SWAP1 PUSH2 0x3684 JUMP JUMPDEST PUSH1 0x40 MLOAD DUP1 SWAP2 SUB SWAP1 REVERT JUMPDEST DUP2 DUP2 SUB PUSH0 DUP1 DUP7 PUSH20 0xFFFFFFFFFFFFFFFFFFFFFFFFFFFFFFFFFFFFFFFF AND PUSH20 0xFFFFFFFFFFFFFFFFFFFFFFFFFFFFFFFFFFFFFFFF AND DUP2 MSTORE PUSH1 0x20 ADD SWAP1 DUP2 MSTORE PUSH1 0x20 ADD PUSH0 KECCAK256 DUP2 SWAP1 SSTORE POP POP JUMPDEST PUSH0 PUSH20 0xFFFFFFFFFFFFFFFFFFFFFFFFFFFFFFFFFFFFFFFF AND DUP3 PUSH20 0xFFFFFFFFFFFFFFFFFFFFFFFFFFFFFFFFFFFFFFFF AND SUB PUSH2 0x259B JUMPI DUP1 PUSH1 0x2 PUSH0 DUP3 DUP3 SLOAD SUB SWAP3 POP POP DUP2 SWAP1 SSTORE POP PUSH2 0x25E5 JUMP JUMPDEST DUP1 PUSH0 DUP1 DUP5 PUSH20 0xFFFFFFFFFFFFFFFFFFFFFFFFFFFFFFFFFFFFFFFF AND PUSH20 0xFFFFFFFFFFFFFFFFFFFFFFFFFFFFFFFFFFFFFFFF AND DUP2 MSTORE PUSH1 0x20 ADD SWAP1 DUP2 MSTORE PUSH1 0x20 ADD PUSH0 KECCAK256 PUSH0 DUP3 DUP3 SLOAD ADD SWAP3 POP POP DUP2 SWAP1 SSTORE POP JUMPDEST DUP2 PUSH20 0xFFFFFFFFFFFFFFFFFFFFFFFFFFFFFFFFFFFFFFFF AND DUP4 PUSH20 0xFFFFFFFFFFFFFFFFFFFFFFFFFFFFFFFFFFFFFFFF AND PUSH32 0xDDF252AD1BE2C89B69C2B068FC378DAA952BA7F163C4A11628F55A4DF523B3EF DUP4 PUSH1 0x40 MLOAD PUSH2 0x2642 SWAP2 SWAP1 PUSH2 0x2A74 JUMP JUMPDEST PUSH1 0x40 MLOAD DUP1 SWAP2 SUB SWAP1 LOG3 POP POP POP JUMP JUMPDEST PUSH1 0x60 PUSH2 0x265C DUP4 DUP4 PUSH0 PUSH2 0x2664 JUMP JUMPDEST SWAP1 POP SWAP3 SWAP2 POP POP JUMP JUMPDEST PUSH1 0x60 DUP2 SELFBALANCE LT ISZERO PUSH2 0x26AB JUMPI ADDRESS PUSH1 0x40 MLOAD PUSH32 0xCD78605900000000000000000000000000000000000000000000000000000000 DUP2 MSTORE PUSH1 0x4 ADD PUSH2 0x26A2 SWAP2 SWAP1 PUSH2 0x2DBA JUMP JUMPDEST PUSH1 0x40 MLOAD DUP1 SWAP2 SUB SWAP1 REVERT JUMPDEST PUSH0 DUP1 DUP6 PUSH20 0xFFFFFFFFFFFFFFFFFFFFFFFFFFFFFFFFFFFFFFFF AND DUP5 DUP7 PUSH1 0x40 MLOAD PUSH2 0x26D3 SWAP2 SWAP1 PUSH2 0x36FD JUMP JUMPDEST PUSH0 PUSH1 0x40 MLOAD DUP1 DUP4 SUB DUP2 DUP6 DUP8 GAS CALL SWAP3 POP POP POP RETURNDATASIZE DUP1 PUSH0 DUP2 EQ PUSH2 0x270D JUMPI PUSH1 0x40 MLOAD SWAP2 POP PUSH1 0x1F NOT PUSH1 0x3F RETURNDATASIZE ADD AND DUP3 ADD PUSH1 0x40 MSTORE RETURNDATASIZE DUP3 MSTORE RETURNDATASIZE PUSH0 PUSH1 0x20 DUP5 ADD RETURNDATACOPY PUSH2 0x2712 JUMP JUMPDEST PUSH1 0x60 SWAP2 POP JUMPDEST POP SWAP2 POP SWAP2 POP PUSH2 0x2722 DUP7 DUP4 DUP4 PUSH2 0x272D JUMP JUMPDEST SWAP3 POP POP POP SWAP4 SWAP3 POP POP POP JUMP JUMPDEST PUSH1 0x60 DUP3 PUSH2 0x2742 JUMPI PUSH2 0x273D DUP3 PUSH2 0x27BA JUMP JUMPDEST PUSH2 0x27B2 JUMP JUMPDEST PUSH0 DUP3 MLOAD EQ DUP1 ISZERO PUSH2 0x2768 JUMPI POP PUSH0 DUP5 PUSH20 0xFFFFFFFFFFFFFFFFFFFFFFFFFFFFFFFFFFFFFFFF AND EXTCODESIZE EQ JUMPDEST ISZERO PUSH2 0x27AA JUMPI DUP4 PUSH1 0x40 MLOAD PUSH32 0x9996B31500000000000000000000000000000000000000000000000000000000 DUP2 MSTORE PUSH1 0x4 ADD PUSH2 0x27A1 SWAP2 SWAP1 PUSH2 0x2DBA JUMP JUMPDEST PUSH1 0x40 MLOAD DUP1 SWAP2 SUB SWAP1 REVERT JUMPDEST DUP2 SWAP1 POP PUSH2 0x27B3 JUMP JUMPDEST JUMPDEST SWAP4 SWAP3 POP POP POP JUMP JUMPDEST PUSH0 DUP2 MLOAD GT ISZERO PUSH2 0x27CC JUMPI DUP1 MLOAD DUP1 DUP3 PUSH1 0x20 ADD REVERT JUMPDEST PUSH1 0x40 MLOAD PUSH32 0x1425EA4200000000000000000000000000000000000000000000000000000000 DUP2 MSTORE PUSH1 0x4 ADD PUSH1 0x40 MLOAD DUP1 SWAP2 SUB SWAP1 REVERT JUMPDEST PUSH0 DUP1 REVERT JUMPDEST PUSH0 PUSH32 0xFFFFFFFF00000000000000000000000000000000000000000000000000000000 DUP3 AND SWAP1 POP SWAP2 SWAP1 POP JUMP JUMPDEST PUSH2 0x2836 DUP2 PUSH2 0x2802 JUMP JUMPDEST DUP2 EQ PUSH2 0x2840 JUMPI PUSH0 DUP1 REVERT JUMPDEST POP JUMP JUMPDEST PUSH0 DUP2 CALLDATALOAD SWAP1 POP PUSH2 0x2851 DUP2 PUSH2 0x282D JUMP JUMPDEST SWAP3 SWAP2 POP POP JUMP JUMPDEST PUSH0 PUSH1 0x20 DUP3 DUP5 SUB SLT ISZERO PUSH2 0x286C JUMPI PUSH2 0x286B PUSH2 0x27FE JUMP JUMPDEST JUMPDEST PUSH0 PUSH2 0x2879 DUP5 DUP3 DUP6 ADD PUSH2 0x2843 JUMP JUMPDEST SWAP2 POP POP SWAP3 SWAP2 POP POP JUMP JUMPDEST PUSH0 DUP2 ISZERO ISZERO SWAP1 POP SWAP2 SWAP1 POP JUMP JUMPDEST PUSH2 0x2896 DUP2 PUSH2 0x2882 JUMP JUMPDEST DUP3 MSTORE POP POP JUMP JUMPDEST PUSH0 PUSH1 0x20 DUP3 ADD SWAP1 POP PUSH2 0x28AF PUSH0 DUP4 ADD DUP5 PUSH2 0x288D JUMP JUMPDEST SWAP3 SWAP2 POP POP JUMP JUMPDEST PUSH0 DUP2 MLOAD SWAP1 POP SWAP2 SWAP1 POP JUMP JUMPDEST PUSH0 DUP3 DUP3 MSTORE PUSH1 0x20 DUP3 ADD SWAP1 POP SWAP3 SWAP2 POP POP JUMP JUMPDEST DUP3 DUP2 DUP4 MCOPY PUSH0 DUP4 DUP4 ADD MSTORE POP POP POP JUMP JUMPDEST PUSH0 PUSH1 0x1F NOT PUSH1 0x1F DUP4 ADD AND SWAP1 POP SWAP2 SWAP1 POP JUMP JUMPDEST PUSH0 PUSH2 0x28F7 DUP3 PUSH2 0x28B5 JUMP JUMPDEST PUSH2 0x2901 DUP2 DUP6 PUSH2 0x28BF JUMP JUMPDEST SWAP4 POP PUSH2 0x2911 DUP2 DUP6 PUSH1 0x20 DUP7 ADD PUSH2 0x28CF JUMP JUMPDEST PUSH2 0x291A DUP2 PUSH2 0x28DD JUMP JUMPDEST DUP5 ADD SWAP2 POP POP SWAP3 SWAP2 POP POP JUMP JUMPDEST PUSH0 PUSH1 0x20 DUP3 ADD SWAP1 POP DUP2 DUP2 SUB PUSH0 DUP4 ADD MSTORE PUSH2 0x293D DUP2 DUP5 PUSH2 0x28ED JUMP JUMPDEST SWAP1 POP SWAP3 SWAP2 POP POP JUMP JUMPDEST PUSH0 PUSH20 0xFFFFFFFFFFFFFFFFFFFFFFFFFFFFFFFFFFFFFFFF DUP3 AND SWAP1 POP SWAP2 SWAP1 POP JUMP JUMPDEST PUSH0 PUSH2 0x296E DUP3 PUSH2 0x2945 JUMP JUMPDEST SWAP1 POP SWAP2 SWAP1 POP JUMP JUMPDEST PUSH2 0x297E DUP2 PUSH2 0x2964 JUMP JUMPDEST DUP2 EQ PUSH2 0x2988 JUMPI PUSH0 DUP1 REVERT JUMPDEST POP JUMP JUMPDEST PUSH0 DUP2 CALLDATALOAD SWAP1 POP PUSH2 0x2999 DUP2 PUSH2 0x2975 JUMP JUMPDEST SWAP3 SWAP2 POP POP JUMP JUMPDEST PUSH0 DUP2 SWAP1 POP SWAP2 SWAP1 POP JUMP JUMPDEST PUSH2 0x29B1 DUP2 PUSH2 0x299F JUMP JUMPDEST DUP2 EQ PUSH2 0x29BB JUMPI PUSH0 DUP1 REVERT JUMPDEST POP JUMP JUMPDEST PUSH0 DUP2 CALLDATALOAD SWAP1 POP PUSH2 0x29CC DUP2 PUSH2 0x29A8 JUMP JUMPDEST SWAP3 SWAP2 POP POP JUMP JUMPDEST PUSH0 DUP1 PUSH1 0x40 DUP4 DUP6 SUB SLT ISZERO PUSH2 0x29E8 JUMPI PUSH2 0x29E7 PUSH2 0x27FE JUMP JUMPDEST JUMPDEST PUSH0 PUSH2 0x29F5 DUP6 DUP3 DUP7 ADD PUSH2 0x298B JUMP JUMPDEST SWAP3 POP POP PUSH1 0x20 PUSH2 0x2A06 DUP6 DUP3 DUP7 ADD PUSH2 0x29BE JUMP JUMPDEST SWAP2 POP POP SWAP3 POP SWAP3 SWAP1 POP JUMP JUMPDEST PUSH2 0x2A19 DUP2 PUSH2 0x2882 JUMP JUMPDEST DUP2 EQ PUSH2 0x2A23 JUMPI PUSH0 DUP1 REVERT JUMPDEST POP JUMP JUMPDEST PUSH0 DUP2 CALLDATALOAD SWAP1 POP PUSH2 0x2A34 DUP2 PUSH2 0x2A10 JUMP JUMPDEST SWAP3 SWAP2 POP POP JUMP JUMPDEST PUSH0 PUSH1 0x20 DUP3 DUP5 SUB SLT ISZERO PUSH2 0x2A4F JUMPI PUSH2 0x2A4E PUSH2 0x27FE JUMP JUMPDEST JUMPDEST PUSH0 PUSH2 0x2A5C DUP5 DUP3 DUP6 ADD PUSH2 0x2A26 JUMP JUMPDEST SWAP2 POP POP SWAP3 SWAP2 POP POP JUMP JUMPDEST PUSH2 0x2A6E DUP2 PUSH2 0x299F JUMP JUMPDEST DUP3 MSTORE POP POP JUMP JUMPDEST PUSH0 PUSH1 0x20 DUP3 ADD SWAP1 POP PUSH2 0x2A87 PUSH0 DUP4 ADD DUP5 PUSH2 0x2A65 JUMP JUMPDEST SWAP3 SWAP2 POP POP JUMP JUMPDEST PUSH0 DUP1 PUSH0 PUSH1 0x60 DUP5 DUP7 SUB SLT ISZERO PUSH2 0x2AA4 JUMPI PUSH2 0x2AA3 PUSH2 0x27FE JUMP JUMPDEST JUMPDEST PUSH0 PUSH2 0x2AB1 DUP7 DUP3 DUP8 ADD PUSH2 0x298B JUMP JUMPDEST SWAP4 POP POP PUSH1 0x20 PUSH2 0x2AC2 DUP7 DUP3 DUP8 ADD PUSH2 0x298B JUMP JUMPDEST SWAP3 POP POP PUSH1 0x40 PUSH2 0x2AD3 DUP7 DUP3 DUP8 ADD PUSH2 0x29BE JUMP JUMPDEST SWAP2 POP POP SWAP3 POP SWAP3 POP SWAP3 JUMP JUMPDEST PUSH0 DUP2 SWAP1 POP SWAP2 SWAP1 POP JUMP JUMPDEST PUSH2 0x2AEF DUP2 PUSH2 0x2ADD JUMP JUMPDEST DUP2 EQ PUSH2 0x2AF9 JUMPI PUSH0 DUP1 REVERT JUMPDEST POP JUMP JUMPDEST PUSH0 DUP2 CALLDATALOAD SWAP1 POP PUSH2 0x2B0A DUP2 PUSH2 0x2AE6 JUMP JUMPDEST SWAP3 SWAP2 POP POP JUMP JUMPDEST PUSH0 PUSH1 0x20 DUP3 DUP5 SUB SLT ISZERO PUSH2 0x2B25 JUMPI PUSH2 0x2B24 PUSH2 0x27FE JUMP JUMPDEST JUMPDEST PUSH0 PUSH2 0x2B32 DUP5 DUP3 DUP6 ADD PUSH2 0x2AFC JUMP JUMPDEST SWAP2 POP POP SWAP3 SWAP2 POP POP JUMP JUMPDEST PUSH2 0x2B44 DUP2 PUSH2 0x2ADD JUMP JUMPDEST DUP3 MSTORE POP POP JUMP JUMPDEST PUSH0 PUSH1 0x20 DUP3 ADD SWAP1 POP PUSH2 0x2B5D PUSH0 DUP4 ADD DUP5 PUSH2 0x2B3B JUMP JUMPDEST SWAP3 SWAP2 POP POP JUMP JUMPDEST PUSH0 DUP1 PUSH1 0x40 DUP4 DUP6 SUB SLT ISZERO PUSH2 0x2B79 JUMPI PUSH2 0x2B78 PUSH2 0x27FE JUMP JUMPDEST JUMPDEST PUSH0 PUSH2 0x2B86 DUP6 DUP3 DUP7 ADD PUSH2 0x2AFC JUMP JUMPDEST SWAP3 POP POP PUSH1 0x20 PUSH2 0x2B97 DUP6 DUP3 DUP7 ADD PUSH2 0x298B JUMP JUMPDEST SWAP2 POP POP SWAP3 POP SWAP3 SWAP1 POP JUMP JUMPDEST PUSH0 PUSH1 0xFF DUP3 AND SWAP1 POP SWAP2 SWAP1 POP JUMP JUMPDEST PUSH2 0x2BB6 DUP2 PUSH2 0x2BA1 JUMP JUMPDEST DUP3 MSTORE POP POP JUMP JUMPDEST PUSH0 PUSH1 0x20 DUP3 ADD SWAP1 POP PUSH2 0x2BCF PUSH0 DUP4 ADD DUP5 PUSH2 0x2BAD JUMP JUMPDEST SWAP3 SWAP2 POP POP JUMP JUMPDEST PUSH0 DUP1 PUSH1 0x40 DUP4 DUP6 SUB SLT ISZERO PUSH2 0x2BEB JUMPI PUSH2 0x2BEA PUSH2 0x27FE JUMP JUMPDEST JUMPDEST PUSH0 PUSH2 0x2BF8 DUP6 DUP3 DUP7 ADD PUSH2 0x298B JUMP JUMPDEST SWAP3 POP POP PUSH1 0x20 PUSH2 0x2C09 DUP6 DUP3 DUP7 ADD PUSH2 0x2A26 JUMP JUMPDEST SWAP2 POP POP SWAP3 POP SWAP3 SWAP1 POP JUMP JUMPDEST PUSH0 PUSH2 0x2C1D DUP3 PUSH2 0x2964 JUMP JUMPDEST SWAP1 POP SWAP2 SWAP1 POP JUMP JUMPDEST PUSH2 0x2C2D DUP2 PUSH2 0x2C13 JUMP JUMPDEST DUP2 EQ PUSH2 0x2C37 JUMPI PUSH0 DUP1 REVERT JUMPDEST POP JUMP JUMPDEST PUSH0 DUP2 CALLDATALOAD SWAP1 POP PUSH2 0x2C48 DUP2 PUSH2 0x2C24 JUMP JUMPDEST SWAP3 SWAP2 POP POP JUMP JUMPDEST PUSH0 DUP1 PUSH0 PUSH1 0x60 DUP5 DUP7 SUB SLT ISZERO PUSH2 0x2C65 JUMPI PUSH2 0x2C64 PUSH2 0x27FE JUMP JUMPDEST JUMPDEST PUSH0 PUSH2 0x2C72 DUP7 DUP3 DUP8 ADD PUSH2 0x2C3A JUMP JUMPDEST SWAP4 POP POP PUSH1 0x20 PUSH2 0x2C83 DUP7 DUP3 DUP8 ADD PUSH2 0x298B JUMP JUMPDEST SWAP3 POP POP PUSH1 0x40 PUSH2 0x2C94 DUP7 DUP3 DUP8 ADD PUSH2 0x29BE JUMP JUMPDEST SWAP2 POP POP SWAP3 POP SWAP3 POP SWAP3 JUMP JUMPDEST PUSH0 PUSH1 0x20 DUP3 DUP5 SUB SLT ISZERO PUSH2 0x2CB3 JUMPI PUSH2 0x2CB2 PUSH2 0x27FE JUMP JUMPDEST JUMPDEST PUSH0 PUSH2 0x2CC0 DUP5 DUP3 DUP6 ADD PUSH2 0x29BE JUMP JUMPDEST SWAP2 POP POP SWAP3 SWAP2 POP POP JUMP JUMPDEST PUSH0 PUSH2 0x2CD3 DUP3 PUSH2 0x2945 JUMP JUMPDEST SWAP1 POP SWAP2 SWAP1 POP JUMP JUMPDEST PUSH2 0x2CE3 DUP2 PUSH2 0x2CC9 JUMP JUMPDEST DUP2 EQ PUSH2 0x2CED JUMPI PUSH0 DUP1 REVERT JUMPDEST POP JUMP JUMPDEST PUSH0 DUP2 CALLDATALOAD SWAP1 POP PUSH2 0x2CFE DUP2 PUSH2 0x2CDA JUMP JUMPDEST SWAP3 SWAP2 POP POP JUMP JUMPDEST PUSH0 DUP1 PUSH1 0x40 DUP4 DUP6 SUB SLT ISZERO PUSH2 0x2D1A JUMPI PUSH2 0x2D19 PUSH2 0x27FE JUMP JUMPDEST JUMPDEST PUSH0 PUSH2 0x2D27 DUP6 DUP3 DUP7 ADD PUSH2 0x2CF0 JUMP JUMPDEST SWAP3 POP POP PUSH1 0x20 PUSH2 0x2D38 DUP6 DUP3 DUP7 ADD PUSH2 0x29BE JUMP JUMPDEST SWAP2 POP POP SWAP3 POP SWAP3 SWAP1 POP JUMP JUMPDEST PUSH0 PUSH1 0x20 DUP3 DUP5 SUB SLT ISZERO PUSH2 0x2D57 JUMPI PUSH2 0x2D56 PUSH2 0x27FE JUMP JUMPDEST JUMPDEST PUSH0 PUSH2 0x2D64 DUP5 DUP3 DUP6 ADD PUSH2 0x298B JUMP JUMPDEST SWAP2 POP POP SWAP3 SWAP2 POP POP JUMP JUMPDEST PUSH0 DUP1 PUSH1 0x40 DUP4 DUP6 SUB SLT ISZERO PUSH2 0x2D83 JUMPI PUSH2 0x2D82 PUSH2 0x27FE JUMP JUMPDEST JUMPDEST PUSH0 PUSH2 0x2D90 DUP6 DUP3 DUP7 ADD PUSH2 0x298B JUMP JUMPDEST SWAP3 POP POP PUSH1 0x20 PUSH2 0x2DA1 DUP6 DUP3 DUP7 ADD PUSH2 0x298B JUMP JUMPDEST SWAP2 POP POP SWAP3 POP SWAP3 SWAP1 POP JUMP JUMPDEST PUSH2 0x2DB4 DUP2 PUSH2 0x2964 JUMP JUMPDEST DUP3 MSTORE POP POP JUMP JUMPDEST PUSH0 PUSH1 0x20 DUP3 ADD SWAP1 POP PUSH2 0x2DCD PUSH0 DUP4 ADD DUP5 PUSH2 0x2DAB JUMP JUMPDEST SWAP3 SWAP2 POP POP JUMP JUMPDEST PUSH32 0x4E487B7100000000000000000000000000000000000000000000000000000000 PUSH0 MSTORE PUSH1 0x22 PUSH1 0x4 MSTORE PUSH1 0x24 PUSH0 REVERT JUMPDEST PUSH0 PUSH1 0x2 DUP3 DIV SWAP1 POP PUSH1 0x1 DUP3 AND DUP1 PUSH2 0x2E17 JUMPI PUSH1 0x7F DUP3 AND SWAP2 POP JUMPDEST PUSH1 0x20 DUP3 LT DUP2 SUB PUSH2 0x2E2A JUMPI PUSH2 0x2E29 PUSH2 0x2DD3 JUMP JUMPDEST JUMPDEST POP SWAP2 SWAP1 POP JUMP JUMPDEST PUSH32 0x436F6E74726163743A204E6565642041646D696E000000000000000000000000 PUSH0 DUP3 ADD MSTORE POP JUMP JUMPDEST PUSH0 PUSH2 0x2E64 PUSH1 0x14 DUP4 PUSH2 0x28BF JUMP JUMPDEST SWAP2 POP PUSH2 0x2E6F DUP3 PUSH2 0x2E30 JUMP JUMPDEST PUSH1 0x20 DUP3 ADD SWAP1 POP SWAP2 SWAP1 POP JUMP JUMPDEST PUSH0 PUSH1 0x20 DUP3 ADD SWAP1 POP DUP2 DUP2 SUB PUSH0 DUP4 ADD MSTORE PUSH2 0x2E91 DUP2 PUSH2 0x2E58 JUMP JUMPDEST SWAP1 POP SWAP2 SWAP1 POP JUMP JUMPDEST PUSH0 PUSH1 0x40 DUP3 ADD SWAP1 POP PUSH2 0x2EAB PUSH0 DUP4 ADD DUP6 PUSH2 0x2A65 JUMP JUMPDEST PUSH2 0x2EB8 PUSH1 0x20 DUP4 ADD DUP5 PUSH2 0x2DAB JUMP JUMPDEST SWAP4 SWAP3 POP POP POP JUMP JUMPDEST PUSH32 0x4E6565642041646D696E00000000000000000000000000000000000000000000 PUSH0 DUP3 ADD MSTORE POP JUMP JUMPDEST PUSH0 PUSH2 0x2EF3 PUSH1 0xA DUP4 PUSH2 0x28BF JUMP JUMPDEST SWAP2 POP PUSH2 0x2EFE DUP3 PUSH2 0x2EBF JUMP JUMPDEST PUSH1 0x20 DUP3 ADD SWAP1 POP SWAP2 SWAP1 POP JUMP JUMPDEST PUSH0 PUSH1 0x20 DUP3 ADD SWAP1 POP DUP2 DUP2 SUB PUSH0 DUP4 ADD MSTORE PUSH2 0x2F20 DUP2 PUSH2 0x2EE7 JUMP JUMPDEST SWAP1 POP SWAP2 SWAP1 POP JUMP JUMPDEST PUSH32 0x496E76616C696420616464726573730000000000000000000000000000000000 PUSH0 DUP3 ADD MSTORE POP JUMP JUMPDEST PUSH0 PUSH2 0x2F5B PUSH1 0xF DUP4 PUSH2 0x28BF JUMP JUMPDEST SWAP2 POP PUSH2 0x2F66 DUP3 PUSH2 0x2F27 JUMP JUMPDEST PUSH1 0x20 DUP3 ADD SWAP1 POP SWAP2 SWAP1 POP JUMP JUMPDEST PUSH0 PUSH1 0x20 DUP3 ADD SWAP1 POP DUP2 DUP2 SUB PUSH0 DUP4 ADD MSTORE PUSH2 0x2F88 DUP2 PUSH2 0x2F4F JUMP JUMPDEST SWAP1 POP SWAP2 SWAP1 POP JUMP JUMPDEST PUSH32 0x4E65656420524553435545000000000000000000000000000000000000000000 PUSH0 DUP3 ADD MSTORE POP JUMP JUMPDEST PUSH0 PUSH2 0x2FC3 PUSH1 0xB DUP4 PUSH2 0x28BF JUMP JUMPDEST SWAP2 POP PUSH2 0x2FCE DUP3 PUSH2 0x2F8F JUMP JUMPDEST PUSH1 0x20 DUP3 ADD SWAP1 POP SWAP2 SWAP1 POP JUMP JUMPDEST PUSH0 PUSH1 0x20 DUP3 ADD SWAP1 POP DUP2 DUP2 SUB PUSH0 DUP4 ADD MSTORE PUSH2 0x2FF0 DUP2 PUSH2 0x2FB7 JUMP JUMPDEST SWAP1 POP SWAP2 SWAP1 POP JUMP JUMPDEST PUSH0 DUP2 SWAP1 POP SWAP2 SWAP1 POP JUMP JUMPDEST PUSH0 PUSH2 0x301A PUSH2 0x3015 PUSH2 0x3010 DUP5 PUSH2 0x2945 JUMP JUMPDEST PUSH2 0x2FF7 JUMP JUMPDEST PUSH2 0x2945 JUMP JUMPDEST SWAP1 POP SWAP2 SWAP1 POP JUMP JUMPDEST PUSH0 PUSH2 0x302B DUP3 PUSH2 0x3000 JUMP JUMPDEST SWAP1 POP SWAP2 SWAP1 POP JUMP JUMPDEST PUSH0 PUSH2 0x303C DUP3 PUSH2 0x3021 JUMP JUMPDEST SWAP1 POP SWAP2 SWAP1 POP JUMP JUMPDEST PUSH2 0x304C DUP2 PUSH2 0x3032 JUMP JUMPDEST DUP3 MSTORE POP POP JUMP JUMPDEST PUSH0 PUSH1 0x80 DUP3 ADD SWAP1 POP PUSH2 0x3065 PUSH0 DUP4 ADD DUP8 PUSH2 0x3043 JUMP JUMPDEST PUSH2 0x3072 PUSH1 0x20 DUP4 ADD DUP7 PUSH2 0x2A65 JUMP JUMPDEST PUSH2 0x307F PUSH1 0x40 DUP4 ADD DUP6 PUSH2 0x2DAB JUMP JUMPDEST PUSH2 0x308C PUSH1 0x60 DUP4 ADD DUP5 PUSH2 0x2A65 JUMP JUMPDEST SWAP6 SWAP5 POP POP POP POP POP JUMP JUMPDEST PUSH32 0x436F6E74726163743A20436F6E74726163742069732050617573656400000000 PUSH0 DUP3 ADD MSTORE POP JUMP JUMPDEST PUSH0 PUSH2 0x30C9 PUSH1 0x1C DUP4 PUSH2 0x28BF JUMP JUMPDEST SWAP2 POP PUSH2 0x30D4 DUP3 PUSH2 0x3095 JUMP JUMPDEST PUSH1 0x20 DUP3 ADD SWAP1 POP SWAP2 SWAP1 POP JUMP JUMPDEST PUSH0 PUSH1 0x20 DUP3 ADD SWAP1 POP DUP2 DUP2 SUB PUSH0 DUP4 ADD MSTORE PUSH2 0x30F6 DUP2 PUSH2 0x30BD JUMP JUMPDEST SWAP1 POP SWAP2 SWAP1 POP JUMP JUMPDEST PUSH32 0x436F6E74726163743A204E656564204275726E00000000000000000000000000 PUSH0 DUP3 ADD MSTORE POP JUMP JUMPDEST PUSH0 PUSH2 0x3131 PUSH1 0x13 DUP4 PUSH2 0x28BF JUMP JUMPDEST SWAP2 POP PUSH2 0x313C DUP3 PUSH2 0x30FD JUMP JUMPDEST PUSH1 0x20 DUP3 ADD SWAP1 POP SWAP2 SWAP1 POP JUMP JUMPDEST PUSH0 PUSH1 0x20 DUP3 ADD SWAP1 POP DUP2 DUP2 SUB PUSH0 DUP4 ADD MSTORE PUSH2 0x315E DUP2 PUSH2 0x3125 JUMP JUMPDEST SWAP1 POP SWAP2 SWAP1 POP JUMP JUMPDEST PUSH32 0x4D696E74696E6720746F2064697361626C656400000000000000000000000000 PUSH0 DUP3 ADD MSTORE POP JUMP JUMPDEST PUSH0 PUSH2 0x3199 PUSH1 0x13 DUP4 PUSH2 0x28BF JUMP JUMPDEST SWAP2 POP PUSH2 0x31A4 DUP3 PUSH2 0x3165 JUMP JUMPDEST PUSH1 0x20 DUP3 ADD SWAP1 POP SWAP2 SWAP1 POP JUMP JUMPDEST PUSH0 PUSH1 0x20 DUP3 ADD SWAP1 POP DUP2 DUP2 SUB PUSH0 DUP4 ADD MSTORE PUSH2 0x31C6 DUP2 PUSH2 0x318D JUMP JUMPDEST SWAP1 POP SWAP2 SWAP1 POP JUMP JUMPDEST PUSH32 0x436F6E74726163743A204E656564204D696E746F000000000000000000000000 PUSH0 DUP3 ADD MSTORE POP JUMP JUMPDEST PUSH0 PUSH2 0x3201 PUSH1 0x14 DUP4 PUSH2 0x28BF JUMP JUMPDEST SWAP2 POP PUSH2 0x320C DUP3 PUSH2 0x31CD JUMP JUMPDEST PUSH1 0x20 DUP3 ADD SWAP1 POP SWAP2 SWAP1 POP JUMP JUMPDEST PUSH0 PUSH1 0x20 DUP3 ADD SWAP1 POP DUP2 DUP2 SUB PUSH0 DUP4 ADD MSTORE PUSH2 0x322E DUP2 PUSH2 0x31F5 JUMP JUMPDEST SWAP1 POP SWAP2 SWAP1 POP JUMP JUMPDEST PUSH32 0x4E487B7100000000000000000000000000000000000000000000000000000000 PUSH0 MSTORE PUSH1 0x11 PUSH1 0x4 MSTORE PUSH1 0x24 PUSH0 REVERT JUMPDEST PUSH0 PUSH2 0x326C DUP3 PUSH2 0x299F JUMP JUMPDEST SWAP2 POP PUSH2 0x3277 DUP4 PUSH2 0x299F JUMP JUMPDEST SWAP3 POP DUP3 DUP3 ADD SWAP1 POP DUP1 DUP3 GT ISZERO PUSH2 0x328F JUMPI PUSH2 0x328E PUSH2 0x3235 JUMP JUMPDEST JUMPDEST SWAP3 SWAP2 POP POP JUMP JUMPDEST PUSH32 0x436F6E74726163743A20537570706C7920436170206578636565646564000000 PUSH0 DUP3 ADD MSTORE POP JUMP JUMPDEST PUSH0 PUSH2 0x32C9 PUSH1 0x1D DUP4 PUSH2 0x28BF JUMP JUMPDEST SWAP2 POP PUSH2 0x32D4 DUP3 PUSH2 0x3295 JUMP JUMPDEST PUSH1 0x20 DUP3 ADD SWAP1 POP SWAP2 SWAP1 POP JUMP JUMPDEST PUSH0 PUSH1 0x20 DUP3 ADD SWAP1 POP DUP2 DUP2 SUB PUSH0 DUP4 ADD MSTORE PUSH2 0x32F6 DUP2 PUSH2 0x32BD JUMP JUMPDEST SWAP1 POP SWAP2 SWAP1 POP JUMP JUMPDEST PUSH0 PUSH1 0x40 DUP3 ADD SWAP1 POP PUSH2 0x3310 PUSH0 DUP4 ADD DUP6 PUSH2 0x2DAB JUMP JUMPDEST PUSH2 0x331D PUSH1 0x20 DUP4 ADD DUP5 PUSH2 0x2A65 JUMP JUMPDEST SWAP4 SWAP3 POP POP POP JUMP JUMPDEST PUSH0 PUSH2 0x332E DUP3 PUSH2 0x3021 JUMP JUMPDEST SWAP1 POP SWAP2 SWAP1 POP JUMP JUMPDEST PUSH2 0x333E DUP2 PUSH2 0x3324 JUMP JUMPDEST DUP3 MSTORE POP POP JUMP JUMPDEST PUSH0 PUSH1 0x60 DUP3 ADD SWAP1 POP PUSH2 0x3357 PUSH0 DUP4 ADD DUP7 PUSH2 0x3335 JUMP JUMPDEST PUSH2 0x3364 PUSH1 0x20 DUP4 ADD DUP6 PUSH2 0x2A65 JUMP JUMPDEST PUSH2 0x3371 PUSH1 0x40 DUP4 ADD DUP5 PUSH2 0x2A65 JUMP JUMPDEST SWAP5 SWAP4 POP POP POP POP JUMP JUMPDEST PUSH32 0x436F6E74726163743A204E656564204275726E66726F6D000000000000000000 PUSH0 DUP3 ADD MSTORE POP JUMP JUMPDEST PUSH0 PUSH2 0x33AD PUSH1 0x17 DUP4 PUSH2 0x28BF JUMP JUMPDEST SWAP2 POP PUSH2 0x33B8 DUP3 PUSH2 0x3379 JUMP JUMPDEST PUSH1 0x20 DUP3 ADD SWAP1 POP SWAP2 SWAP1 POP JUMP JUMPDEST PUSH0 PUSH1 0x20 DUP3 ADD SWAP1 POP DUP2 DUP2 SUB PUSH0 DUP4 ADD MSTORE PUSH2 0x33DA DUP2 PUSH2 0x33A1 JUMP JUMPDEST SWAP1 POP SWAP2 SWAP1 POP JUMP JUMPDEST PUSH0 PUSH1 0x60 DUP3 ADD SWAP1 POP PUSH2 0x33F4 PUSH0 DUP4 ADD DUP7 PUSH2 0x2DAB JUMP JUMPDEST PUSH2 0x3401 PUSH1 0x20 DUP4 ADD DUP6 PUSH2 0x2A65 JUMP JUMPDEST PUSH2 0x340E PUSH1 0x40 DUP4 ADD DUP5 PUSH2 0x2DAB JUMP JUMPDEST SWAP5 SWAP4 POP POP POP POP JUMP JUMPDEST PUSH32 0x4D696E74696E672064697361626C656400000000000000000000000000000000 PUSH0 DUP3 ADD MSTORE POP JUMP JUMPDEST PUSH0 PUSH2 0x344A PUSH1 0x10 DUP4 PUSH2 0x28BF JUMP JUMPDEST SWAP2 POP PUSH2 0x3455 DUP3 PUSH2 0x3416 JUMP JUMPDEST PUSH1 0x20 DUP3 ADD SWAP1 POP SWAP2 SWAP1 POP JUMP JUMPDEST PUSH0 PUSH1 0x20 DUP3 ADD SWAP1 POP DUP2 DUP2 SUB PUSH0 DUP4 ADD MSTORE PUSH2 0x3477 DUP2 PUSH2 0x343E JUMP JUMPDEST SWAP1 POP SWAP2 SWAP1 POP JUMP JUMPDEST PUSH32 0x436F6E74726163743A204E656564204D696E7400000000000000000000000000 PUSH0 DUP3 ADD MSTORE POP JUMP JUMPDEST PUSH0 PUSH2 0x34B2 PUSH1 0x13 DUP4 PUSH2 0x28BF JUMP JUMPDEST SWAP2 POP PUSH2 0x34BD DUP3 PUSH2 0x347E JUMP JUMPDEST PUSH1 0x20 DUP3 ADD SWAP1 POP SWAP2 SWAP1 POP JUMP JUMPDEST PUSH0 PUSH1 0x20 DUP3 ADD SWAP1 POP DUP2 DUP2 SUB PUSH0 DUP4 ADD MSTORE PUSH2 0x34DF DUP2 PUSH2 0x34A6 JUMP JUMPDEST SWAP1 POP SWAP2 SWAP1 POP JUMP JUMPDEST PUSH32 0x4E65656420537570706C79000000000000000000000000000000000000000000 PUSH0 DUP3 ADD MSTORE POP JUMP JUMPDEST PUSH0 PUSH2 0x351A PUSH1 0xB DUP4 PUSH2 0x28BF JUMP JUMPDEST SWAP2 POP PUSH2 0x3525 DUP3 PUSH2 0x34E6 JUMP JUMPDEST PUSH1 0x20 DUP3 ADD SWAP1 POP SWAP2 SWAP1 POP JUMP JUMPDEST PUSH0 PUSH1 0x20 DUP3 ADD SWAP1 POP DUP2 DUP2 SUB PUSH0 DUP4 ADD MSTORE PUSH2 0x3547 DUP2 PUSH2 0x350E JUMP JUMPDEST SWAP1 POP SWAP2 SWAP1 POP JUMP JUMPDEST PUSH32 0x436F6E74726163743A20537570706C792043617020746F6F206C6F7700000000 PUSH0 DUP3 ADD MSTORE POP JUMP JUMPDEST PUSH0 PUSH2 0x3582 PUSH1 0x1C DUP4 PUSH2 0x28BF JUMP JUMPDEST SWAP2 POP PUSH2 0x358D DUP3 PUSH2 0x354E JUMP JUMPDEST PUSH1 0x20 DUP3 ADD SWAP1 POP SWAP2 SWAP1 POP JUMP JUMPDEST PUSH0 PUSH1 0x20 DUP3 ADD SWAP1 POP DUP2 DUP2 SUB PUSH0 DUP4 ADD MSTORE PUSH2 0x35AF DUP2 PUSH2 0x3576 JUMP JUMPDEST SWAP1 POP SWAP2 SWAP1 POP JUMP JUMPDEST PUSH32 0x5265656E7472616E637947756172643A207265656E7472616E742063616C6C00 PUSH0 DUP3 ADD MSTORE POP JUMP JUMPDEST PUSH0 PUSH2 0x35EA PUSH1 0x1F DUP4 PUSH2 0x28BF JUMP JUMPDEST SWAP2 POP PUSH2 0x35F5 DUP3 PUSH2 0x35B6 JUMP JUMPDEST PUSH1 0x20 DUP3 ADD SWAP1 POP SWAP2 SWAP1 POP JUMP JUMPDEST PUSH0 PUSH1 0x20 DUP3 ADD SWAP1 POP DUP2 DUP2 SUB PUSH0 DUP4 ADD MSTORE PUSH2 0x3617 DUP2 PUSH2 0x35DE JUMP JUMPDEST SWAP1 POP SWAP2 SWAP1 POP JUMP JUMPDEST PUSH0 PUSH1 0x40 DUP3 ADD SWAP1 POP PUSH2 0x3631 PUSH0 DUP4 ADD DUP6 PUSH2 0x2DAB JUMP JUMPDEST PUSH2 0x363E PUSH1 0x20 DUP4 ADD DUP5 PUSH2 0x2B3B JUMP JUMPDEST SWAP4 SWAP3 POP POP POP JUMP JUMPDEST PUSH0 DUP2 MLOAD SWAP1 POP PUSH2 0x3653 DUP2 PUSH2 0x2A10 JUMP JUMPDEST SWAP3 SWAP2 POP POP JUMP JUMPDEST PUSH0 PUSH1 0x20 DUP3 DUP5 SUB SLT ISZERO PUSH2 0x366E JUMPI PUSH2 0x366D PUSH2 0x27FE JUMP JUMPDEST JUMPDEST PUSH0 PUSH2 0x367B DUP5 DUP3 DUP6 ADD PUSH2 0x3645 JUMP JUMPDEST SWAP2 POP POP SWAP3 SWAP2 POP POP JUMP JUMPDEST PUSH0 PUSH1 0x60 DUP3 ADD SWAP1 POP PUSH2 0x3697 PUSH0 DUP4 ADD DUP7 PUSH2 0x2DAB JUMP JUMPDEST PUSH2 0x36A4 PUSH1 0x20 DUP4 ADD DUP6 PUSH2 0x2A65 JUMP JUMPDEST PUSH2 0x36B1 PUSH1 0x40 DUP4 ADD DUP5 PUSH2 0x2A65 JUMP JUMPDEST SWAP5 SWAP4 POP POP POP POP JUMP JUMPDEST PUSH0 DUP2 MLOAD SWAP1 POP SWAP2 SWAP1 POP JUMP JUMPDEST PUSH0 DUP2 SWAP1 POP SWAP3 SWAP2 POP POP JUMP JUMPDEST PUSH0 PUSH2 0x36D7 DUP3 PUSH2 0x36B9 JUMP JUMPDEST PUSH2 0x36E1 DUP2 DUP6 PUSH2 0x36C3 JUMP JUMPDEST SWAP4 POP PUSH2 0x36F1 DUP2 DUP6 PUSH1 0x20 DUP7 ADD PUSH2 0x28CF JUMP JUMPDEST DUP1 DUP5 ADD SWAP2 POP POP SWAP3 SWAP2 POP POP JUMP JUMPDEST PUSH0 PUSH2 0x3708 DUP3 DUP5 PUSH2 0x36CD JUMP JUMPDEST SWAP2 POP DUP2 SWAP1 POP SWAP3 SWAP2 POP POP JUMP INVALID LOG2 PUSH5 0x6970667358 0x22 SLT KECCAK256 DUP1 0xB6 PUSH21 0xCC755C7DE8AE8962D81BC7E5DE88EC0D20390E5865 0xB0 0xDB DUP11 DUP3 DUP10 0xF8 0xC0 0xCD PUSH5 0x736F6C6343 STOP ADDMOD BYTE STOP CALLER "
				},
				"gasEstimates": {
					"creation": {
						"codeDepositCost": "2830600",
						"executionCost": "infinite",
						"totalCost": "infinite"
					},
					"external": {
						"DEFAULT_ADMIN_ROLE()": "463",
						"_ADMIN()": "370",
						"_BURN()": "392",
						"_BURNFROM()": "436",
						"_MINT()": "437",
						"_MINTTO()": "393",
						"_RESCUE()": "415",
						"_SUPPLY()": "435",
						"allowance(address,address)": "infinite",
						"approve(address,uint256)": "infinite",
						"balanceOf(address)": "2962",
						"burn(uint256)": "infinite",
						"burnFrom(address,uint256)": "infinite",
						"decimals()": "450",
						"disableMint(bool)": "infinite",
						"disableMintTo(bool)": "infinite",
						"ethRescue(address,uint256)": "infinite",
						"getRoleAdmin(bytes32)": "infinite",
						"grantRole(bytes32,address)": "infinite",
						"hasRole(bytes32,address)": "3167",
						"mint(uint256)": "infinite",
						"mintDisabled()": "2584",
						"mintTo(address,uint256)": "infinite",
						"mintToDisabled()": "2650",
						"moveERC20(address,address,uint256)": "infinite",
						"name()": "infinite",
						"paused()": "2555",
						"renounceRole(bytes32,address)": "infinite",
						"revokeRole(bytes32,address)": "infinite",
						"setPaused(bool)": "infinite",
						"setSupplyCap(uint256)": "infinite",
						"setWhitelistAddress(address,bool)": "27427",
						"supplyCap()": "2566",
						"supportsInterface(bytes4)": "764",
						"symbol()": "infinite",
						"totalSupply()": "2567",
						"transfer(address,uint256)": "infinite",
						"transferFrom(address,address,uint256)": "infinite",
						"txFee()": "2536",
						"vault()": "2662",
						"whitelistedAddress(address)": "2922"
					},
					"internal": {
						"_update(address,address,uint256)": "infinite"
					}
				},
				"methodIdentifiers": {
					"DEFAULT_ADMIN_ROLE()": "a217fddf",
					"_ADMIN()": "51557289",
					"_BURN()": "53a4c31e",
					"_BURNFROM()": "6ba77a38",
					"_MINT()": "8ebed5b1",
					"_MINTTO()": "7e92a7fd",
					"_RESCUE()": "8d580b9f",
					"_SUPPLY()": "ea5cb532",
					"allowance(address,address)": "dd62ed3e",
					"approve(address,uint256)": "095ea7b3",
					"balanceOf(address)": "70a08231",
					"burn(uint256)": "42966c68",
					"burnFrom(address,uint256)": "79cc6790",
					"decimals()": "313ce567",
					"disableMint(bool)": "deb6db36",
					"disableMintTo(bool)": "f2250d3d",
					"ethRescue(address,uint256)": "48132f48",
					"getRoleAdmin(bytes32)": "248a9ca3",
					"grantRole(bytes32,address)": "2f2ff15d",
					"hasRole(bytes32,address)": "91d14854",
					"mint(uint256)": "a0712d68",
					"mintDisabled()": "956feccf",
					"mintTo(address,uint256)": "449a52f8",
					"mintToDisabled()": "d1c9f69b",
					"moveERC20(address,address,uint256)": "41f431fd",
					"name()": "06fdde03",
					"paused()": "5c975abb",
					"renounceRole(bytes32,address)": "36568abe",
					"revokeRole(bytes32,address)": "d547741f",
					"setPaused(bool)": "16c38b3c",
					"setSupplyCap(uint256)": "b6a3f59a",
					"setWhitelistAddress(address,bool)": "3f914aef",
					"supplyCap()": "8f770ad0",
					"supportsInterface(bytes4)": "01ffc9a7",
					"symbol()": "95d89b41",
					"totalSupply()": "18160ddd",
					"transfer(address,uint256)": "a9059cbb",
					"transferFrom(address,address,uint256)": "23b872dd",
					"txFee()": "cf820461",
					"vault()": "fbfa77cf",
					"whitelistedAddress(address)": "c30796ab"
				}
			},
			"storageLayout": {
				"storage": [
					{
						"astId": 603,
						"contract": "src/token.sol:Token",
						"label": "_balances",
						"offset": 0,
						"slot": "0",
						"type": "t_mapping(t_address,t_uint256)"
					},
					{
						"astId": 609,
						"contract": "src/token.sol:Token",
						"label": "_allowances",
						"offset": 0,
						"slot": "1",
						"type": "t_mapping(t_address,t_mapping(t_address,t_uint256))"
					},
					{
						"astId": 611,
						"contract": "src/token.sol:Token",
						"label": "_totalSupply",
						"offset": 0,
						"slot": "2",
						"type": "t_uint256"
					},
					{
						"astId": 613,
						"contract": "src/token.sol:Token",
						"label": "_name",
						"offset": 0,
						"slot": "3",
						"type": "t_string_storage"
					},
					{
						"astId": 615,
						"contract": "src/token.sol:Token",
						"label": "_symbol",
						"offset": 0,
						"slot": "4",
						"type": "t_string_storage"
					},
					{
						"astId": 26,
						"contract": "src/token.sol:Token",
						"label": "_roles",
						"offset": 0,
						"slot": "5",
						"type": "t_mapping(t_bytes32,t_struct(RoleData)21_storage)"
					},
					{
						"astId": 526,
						"contract": "src/token.sol:Token",
						"label": "_status",
						"offset": 0,
						"slot": "6",
						"type": "t_uint256"
					},
					{
						"astId": 1904,
						"contract": "src/token.sol:Token",
						"label": "_cap",
						"offset": 0,
						"slot": "7",
						"type": "t_uint256"
					},
					{
						"astId": 1906,
						"contract": "src/token.sol:Token",
						"label": "vault",
						"offset": 0,
						"slot": "8",
						"type": "t_address"
					},
					{
						"astId": 1909,
						"contract": "src/token.sol:Token",
						"label": "txFee",
						"offset": 0,
						"slot": "9",
						"type": "t_uint256"
					},
					{
						"astId": 1911,
						"contract": "src/token.sol:Token",
						"label": "paused",
						"offset": 0,
						"slot": "10",
						"type": "t_bool"
					},
					{
						"astId": 1913,
						"contract": "src/token.sol:Token",
						"label": "mintDisabled",
						"offset": 1,
						"slot": "10",
						"type": "t_bool"
					},
					{
						"astId": 1915,
						"contract": "src/token.sol:Token",
						"label": "mintToDisabled",
						"offset": 2,
						"slot": "10",
						"type": "t_bool"
					},
					{
						"astId": 2004,
						"contract": "src/token.sol:Token",
						"label": "whitelistedAddress",
						"offset": 0,
						"slot": "11",
						"type": "t_mapping(t_address,t_bool)"
					}
				],
				"types": {
					"t_address": {
						"encoding": "inplace",
						"label": "address",
						"numberOfBytes": "20"
					},
					"t_bool": {
						"encoding": "inplace",
						"label": "bool",
						"numberOfBytes": "1"
					},
					"t_bytes32": {
						"encoding": "inplace",
						"label": "bytes32",
						"numberOfBytes": "32"
					},
					"t_mapping(t_address,t_bool)": {
						"encoding": "mapping",
						"key": "t_address",
						"label": "mapping(address => bool)",
						"numberOfBytes": "32",
						"value": "t_bool"
					},
					"t_mapping(t_address,t_mapping(t_address,t_uint256))": {
						"encoding": "mapping",
						"key": "t_address",
						"label": "mapping(address => mapping(address => uint256))",
						"numberOfBytes": "32",
						"value": "t_mapping(t_address,t_uint256)"
					},
					"t_mapping(t_address,t_uint256)": {
						"encoding": "mapping",
						"key": "t_address",
						"label": "mapping(address => uint256)",
						"numberOfBytes": "32",
						"value": "t_uint256"
					},
					"t_mapping(t_bytes32,t_struct(RoleData)21_storage)": {
						"encoding": "mapping",
						"key": "t_bytes32",
						"label": "mapping(bytes32 => struct AccessControl.RoleData)",
						"numberOfBytes": "32",
						"value": "t_struct(RoleData)21_storage"
					},
					"t_string_storage": {
						"encoding": "bytes",
						"label": "string",
						"numberOfBytes": "32"
					},
					"t_struct(RoleData)21_storage": {
						"encoding": "inplace",
						"label": "struct AccessControl.RoleData",
						"members": [
							{
								"astId": 18,
								"contract": "src/token.sol:Token",
								"label": "hasRole",
								"offset": 0,
								"slot": "0",
								"type": "t_mapping(t_address,t_bool)"
							},
							{
								"astId": 20,
								"contract": "src/token.sol:Token",
								"label": "adminRole",
								"offset": 0,
								"slot": "1",
								"type": "t_bytes32"
							}
						],
						"numberOfBytes": "64"
					},
					"t_uint256": {
						"encoding": "inplace",
						"label": "uint256",
						"numberOfBytes": "32"
					}
				}
			},
			"userdoc": {
				"kind": "user",
				"methods": {},
				"version": 1
			}
		}
	}
}