{
	"src/TokenSwap.sol": {
		"TokenSwap": {
			"abi": [
				{
					"inputs": [
						{
							"internalType": "contract ISwapRouter",
							"name": "_swapRouter",
							"type": "address"
						},
						{
							"internalType": "address",
							"name": "_usdc",
							"type": "address"
						}
					],
					"stateMutability": "nonpayable",
					"type": "constructor"
				},
				{
					"inputs": [],
					"name": "AccessControlBadConfirmation",
					"type": "error"
				},
				{
					"inputs": [
						{
							"internalType": "address",
							"name": "account",
							"type": "address"
						},
						{
							"internalType": "bytes32",
							"name": "neededRole",
							"type": "bytes32"
						}
					],
					"name": "AccessControlUnauthorizedAccount",
					"type": "error"
				},
				{
					"inputs": [],
					"name": "ReentrancyGuardReentrantCall",
					"type": "error"
				},
				{
					"anonymous": false,
					"inputs": [
						{
							"indexed": true,
							"internalType": "bytes32",
							"name": "role",
							"type": "bytes32"
						},
						{
							"indexed": true,
							"internalType": "bytes32",
							"name": "previousAdminRole",
							"type": "bytes32"
						},
						{
							"indexed": true,
							"internalType": "bytes32",
							"name": "newAdminRole",
							"type": "bytes32"
						}
					],
					"name": "RoleAdminChanged",
					"type": "event"
				},
				{
					"anonymous": false,
					"inputs": [
						{
							"indexed": true,
							"internalType": "bytes32",
							"name": "role",
							"type": "bytes32"
						},
						{
							"indexed": true,
							"internalType": "address",
							"name": "account",
							"type": "address"
						},
						{
							"indexed": true,
							"internalType": "address",
							"name": "sender",
							"type": "address"
						}
					],
					"name": "RoleGranted",
					"type": "event"
				},
				{
					"anonymous": false,
					"inputs": [
						{
							"indexed": true,
							"internalType": "bytes32",
							"name": "role",
							"type": "bytes32"
						},
						{
							"indexed": true,
							"internalType": "address",
							"name": "account",
							"type": "address"
						},
						{
							"indexed": true,
							"internalType": "address",
							"name": "sender",
							"type": "address"
						}
					],
					"name": "RoleRevoked",
					"type": "event"
				},
				{
					"anonymous": false,
					"inputs": [
						{
							"indexed": true,
							"internalType": "address",
							"name": "token",
							"type": "address"
						}
					],
					"name": "TokenApproved",
					"type": "event"
				},
				{
					"anonymous": false,
					"inputs": [
						{
							"indexed": true,
							"internalType": "address",
							"name": "token",
							"type": "address"
						}
					],
					"name": "TokenRevoked",
					"type": "event"
				},
				{
					"anonymous": false,
					"inputs": [
						{
							"indexed": true,
							"internalType": "address",
							"name": "user",
							"type": "address"
						},
						{
							"indexed": true,
							"internalType": "address",
							"name": "inputToken",
							"type": "address"
						},
						{
							"indexed": false,
							"internalType": "uint256",
							"name": "inputAmount",
							"type": "uint256"
						},
						{
							"indexed": false,
							"internalType": "uint256",
							"name": "usdcReceived",
							"type": "uint256"
						}
					],
					"name": "TokenSwapped",
					"type": "event"
				},
				{
					"inputs": [],
					"name": "ADMIN_ROLE",
					"outputs": [
						{
							"internalType": "bytes32",
							"name": "",
							"type": "bytes32"
						}
					],
					"stateMutability": "view",
					"type": "function"
				},
				{
					"inputs": [],
					"name": "DEFAULT_ADMIN_ROLE",
					"outputs": [
						{
							"internalType": "bytes32",
							"name": "",
							"type": "bytes32"
						}
					],
					"stateMutability": "view",
					"type": "function"
				},
				{
					"inputs": [],
					"name": "POOL_FEE",
					"outputs": [
						{
							"internalType": "uint24",
							"name": "",
							"type": "uint24"
						}
					],
					"stateMutability": "view",
					"type": "function"
				},
				{
					"inputs": [],
					"name": "USDC",
					"outputs": [
						{
							"internalType": "address",
							"name": "",
							"type": "address"
						}
					],
					"stateMutability": "view",
					"type": "function"
				},
				{
					"inputs": [
						{
							"internalType": "address",
							"name": "token",
							"type": "address"
						}
					],
					"name": "approveToken",
					"outputs": [],
					"stateMutability": "nonpayable",
					"type": "function"
				},
				{
					"inputs": [
						{
							"internalType": "address",
							"name": "",
							"type": "address"
						}
					],
					"name": "approvedTokens",
					"outputs": [
						{
							"internalType": "bool",
							"name": "",
							"type": "bool"
						}
					],
					"stateMutability": "view",
					"type": "function"
				},
				{
					"inputs": [
						{
							"internalType": "bytes32",
							"name": "role",
							"type": "bytes32"
						}
					],
					"name": "getRoleAdmin",
					"outputs": [
						{
							"internalType": "bytes32",
							"name": "",
							"type": "bytes32"
						}
					],
					"stateMutability": "view",
					"type": "function"
				},
				{
					"inputs": [
						{
							"internalType": "bytes32",
							"name": "role",
							"type": "bytes32"
						},
						{
							"internalType": "address",
							"name": "account",
							"type": "address"
						}
					],
					"name": "grantRole",
					"outputs": [],
					"stateMutability": "nonpayable",
					"type": "function"
				},
				{
					"inputs": [
						{
							"internalType": "bytes32",
							"name": "role",
							"type": "bytes32"
						},
						{
							"internalType": "address",
							"name": "account",
							"type": "address"
						}
					],
					"name": "hasRole",
					"outputs": [
						{
							"internalType": "bool",
							"name": "",
							"type": "bool"
						}
					],
					"stateMutability": "view",
					"type": "function"
				},
				{
					"inputs": [
						{
							"internalType": "address",
							"name": "token",
							"type": "address"
						}
					],
					"name": "isTokenApproved",
					"outputs": [
						{
							"internalType": "bool",
							"name": "isApproved",
							"type": "bool"
						}
					],
					"stateMutability": "view",
					"type": "function"
				},
				{
					"inputs": [
						{
							"internalType": "bytes32",
							"name": "role",
							"type": "bytes32"
						},
						{
							"internalType": "address",
							"name": "callerConfirmation",
							"type": "address"
						}
					],
					"name": "renounceRole",
					"outputs": [],
					"stateMutability": "nonpayable",
					"type": "function"
				},
				{
					"inputs": [
						{
							"internalType": "bytes32",
							"name": "role",
							"type": "bytes32"
						},
						{
							"internalType": "address",
							"name": "account",
							"type": "address"
						}
					],
					"name": "revokeRole",
					"outputs": [],
					"stateMutability": "nonpayable",
					"type": "function"
				},
				{
					"inputs": [
						{
							"internalType": "address",
							"name": "token",
							"type": "address"
						}
					],
					"name": "revokeToken",
					"outputs": [],
					"stateMutability": "nonpayable",
					"type": "function"
				},
				{
					"inputs": [
						{
							"internalType": "bytes4",
							"name": "interfaceId",
							"type": "bytes4"
						}
					],
					"name": "supportsInterface",
					"outputs": [
						{
							"internalType": "bool",
							"name": "",
							"type": "bool"
						}
					],
					"stateMutability": "view",
					"type": "function"
				},
				{
					"inputs": [],
					"name": "swapRouter",
					"outputs": [
						{
							"internalType": "contract ISwapRouter",
							"name": "",
							"type": "address"
						}
					],
					"stateMutability": "view",
					"type": "function"
				},
				{
					"inputs": [
						{
							"internalType": "address",
							"name": "inputToken",
							"type": "address"
						},
						{
							"internalType": "uint256",
							"name": "amountIn",
							"type": "uint256"
						},
						{
							"internalType": "uint256",
							"name": "amountOutMinimum",
							"type": "uint256"
						},
						{
							"internalType": "uint256",
							"name": "deadline",
							"type": "uint256"
						}
					],
					"name": "swapToUSDC",
					"outputs": [
						{
							"internalType": "uint256",
							"name": "amountOut",
							"type": "uint256"
						}
					],
					"stateMutability": "nonpayable",
					"type": "function"
				},
				{
					"inputs": [
						{
							"internalType": "contract ISwapRouter",
							"name": "_swapRouter",
							"type": "address"
						}
					],
					"name": "updateSwapRouter",
					"outputs": [],
					"stateMutability": "nonpayable",
					"type": "function"
				}
			],
			"devdoc": {
				"details": "External contract to handle swapping approved tokens to USDC using Uniswap V3.",
				"errors": {
					"AccessControlBadConfirmation()": [
						{
							"details": "The caller of a function is not the expected one. NOTE: Don't confuse with {AccessControlUnauthorizedAccount}."
						}
					],
					"AccessControlUnauthorizedAccount(address,bytes32)": [
						{
							"details": "The `account` is missing a role."
						}
					],
					"ReentrancyGuardReentrantCall()": [
						{
							"details": "Unauthorized reentrant call."
						}
					]
				},
				"events": {
					"RoleAdminChanged(bytes32,bytes32,bytes32)": {
						"details": "Emitted when `newAdminRole` is set as ``role``'s admin role, replacing `previousAdminRole` `DEFAULT_ADMIN_ROLE` is the starting admin for all roles, despite {RoleAdminChanged} not being emitted signaling this."
					},
					"RoleGranted(bytes32,address,address)": {
						"details": "Emitted when `account` is granted `role`. `sender` is the account that originated the contract call. This account bears the admin role (for the granted role). Expected in cases where the role was granted using the internal {AccessControl-_grantRole}."
					},
					"RoleRevoked(bytes32,address,address)": {
						"details": "Emitted when `account` is revoked `role`. `sender` is the account that originated the contract call:   - if using `revokeRole`, it is the admin role bearer   - if using `renounceRole`, it is the role bearer (i.e. `account`)"
					}
				},
				"kind": "dev",
				"methods": {
					"approveToken(address)": {
						"details": "Approves a new token for swapping to USDC.",
						"params": {
							"token": "Address of the token to approve."
						}
					},
					"constructor": {
						"details": "Initializes the contract by setting the swap router and USDC address. Grants the deployer the DEFAULT_ADMIN_ROLE and ADMIN_ROLE.",
						"params": {
							"_swapRouter": "Address of the Uniswap V3 Swap Router.",
							"_usdc": "Address of the USDC token."
						}
					},
					"getRoleAdmin(bytes32)": {
						"details": "Returns the admin role that controls `role`. See {grantRole} and {revokeRole}. To change a role's admin, use {_setRoleAdmin}."
					},
					"grantRole(bytes32,address)": {
						"details": "Grants `role` to `account`. If `account` had not been already granted `role`, emits a {RoleGranted} event. Requirements: - the caller must have ``role``'s admin role. May emit a {RoleGranted} event."
					},
					"hasRole(bytes32,address)": {
						"details": "Returns `true` if `account` has been granted `role`."
					},
					"isTokenApproved(address)": {
						"details": "Checks if a token is approved for swapping.",
						"params": {
							"token": "Address of the token to check."
						},
						"returns": {
							"isApproved": "Boolean indicating approval status."
						}
					},
					"renounceRole(bytes32,address)": {
						"details": "Revokes `role` from the calling account. Roles are often managed via {grantRole} and {revokeRole}: this function's purpose is to provide a mechanism for accounts to lose their privileges if they are compromised (such as when a trusted device is misplaced). If the calling account had been revoked `role`, emits a {RoleRevoked} event. Requirements: - the caller must be `callerConfirmation`. May emit a {RoleRevoked} event."
					},
					"revokeRole(bytes32,address)": {
						"details": "Revokes `role` from `account`. If `account` had been granted `role`, emits a {RoleRevoked} event. Requirements: - the caller must have ``role``'s admin role. May emit a {RoleRevoked} event."
					},
					"revokeToken(address)": {
						"details": "Revokes a token's approval for swapping to USDC.",
						"params": {
							"token": "Address of the token to revoke."
						}
					},
					"supportsInterface(bytes4)": {
						"details": "See {IERC165-supportsInterface}."
					},
					"swapToUSDC(address,uint256,uint256,uint256)": {
						"details": "Swaps a specified amount of an approved token to USDC.",
						"params": {
							"amountIn": "Amount of the input token to swap.",
							"amountOutMinimum": "Minimum amount of USDC expected from the swap to protect against slippage.",
							"deadline": "Unix timestamp after which the swap is no longer valid.",
							"inputToken": "Address of the token to swap from."
						},
						"returns": {
							"amountOut": "Amount of USDC received from the swap."
						}
					},
					"updateSwapRouter(address)": {
						"details": "Updates the Uniswap V3 Swap Router address.",
						"params": {
							"_swapRouter": "New Swap Router address."
						}
					}
				},
				"title": "TokenSwap",
				"version": 1
			},
			"evm": {
				"assembly": "    /* \"src/TokenSwap.sol\":484:5598  contract TokenSwap is AccessControl, ReentrancyGuard {... */\n  mstore(0x40, 0xa0)\n    /* \"src/TokenSwap.sol\":1680:2039  constructor(ISwapRouter _swapRouter, address _usdc) {... */\n  callvalue\n  dup1\n  iszero\n  tag_1\n  jumpi\n  0x00\n  dup1\n  revert\ntag_1:\n  pop\n  mload(0x40)\n  sub(codesize, bytecodeSize)\n  dup1\n  bytecodeSize\n  dup4\n  codecopy\n  dup2\n  dup2\n  add\n  0x40\n  mstore\n  dup2\n  add\n  swap1\n  tag_2\n  swap2\n  swap1\n  tag_3\n  jump\t// in\ntag_2:\n    /* \"lib/openzeppelin-contracts/contracts/utils/ReentrancyGuard.sol\":1857:1858  1 */\n  0x01\n    /* \"lib/openzeppelin-contracts/contracts/utils/ReentrancyGuard.sol\":2061:2068  _status */\n  dup1\n    /* \"lib/openzeppelin-contracts/contracts/utils/ReentrancyGuard.sol\":2061:2082  _status = NOT_ENTERED */\n  dup2\n  swap1\n  sstore\n  pop\n    /* \"src/TokenSwap.sol\":1782:1783  0 */\n  0x00\n    /* \"src/TokenSwap.sol\":1750:1784  address(_swapRouter) != address(0) */\n  0xffffffffffffffffffffffffffffffffffffffff\n  and\n    /* \"src/TokenSwap.sol\":1758:1769  _swapRouter */\n  dup3\n    /* \"src/TokenSwap.sol\":1750:1784  address(_swapRouter) != address(0) */\n  0xffffffffffffffffffffffffffffffffffffffff\n  and\n  sub\n    /* \"src/TokenSwap.sol\":1742:1816  require(address(_swapRouter) != address(0), \"Invalid swap router address\") */\n  tag_8\n  jumpi\n  mload(0x40)\n  0x08c379a000000000000000000000000000000000000000000000000000000000\n  dup2\n  mstore\n  0x04\n  add\n  tag_9\n  swap1\n  tag_10\n  jump\t// in\ntag_9:\n  mload(0x40)\n  dup1\n  swap2\n  sub\n  swap1\n  revert\ntag_8:\n    /* \"src/TokenSwap.sol\":1851:1852  0 */\n  0x00\n    /* \"src/TokenSwap.sol\":1834:1853  _usdc != address(0) */\n  0xffffffffffffffffffffffffffffffffffffffff\n  and\n    /* \"src/TokenSwap.sol\":1834:1839  _usdc */\n  dup2\n    /* \"src/TokenSwap.sol\":1834:1853  _usdc != address(0) */\n  0xffffffffffffffffffffffffffffffffffffffff\n  and\n  sub\n    /* \"src/TokenSwap.sol\":1826:1878  require(_usdc != address(0), \"Invalid USDC address\") */\n  tag_11\n  jumpi\n  mload(0x40)\n  0x08c379a000000000000000000000000000000000000000000000000000000000\n  dup2\n  mstore\n  0x04\n  add\n  tag_12\n  swap1\n  tag_13\n  jump\t// in\ntag_12:\n  mload(0x40)\n  dup1\n  swap2\n  sub\n  swap1\n  revert\ntag_11:\n    /* \"src/TokenSwap.sol\":1902:1913  _swapRouter */\n  dup2\n    /* \"src/TokenSwap.sol\":1889:1899  swapRouter */\n  0x02\n  0x00\n    /* \"src/TokenSwap.sol\":1889:1913  swapRouter = _swapRouter */\n  0x0100\n  exp\n  dup2\n  sload\n  dup2\n  0xffffffffffffffffffffffffffffffffffffffff\n  mul\n  not\n  and\n  swap1\n  dup4\n  0xffffffffffffffffffffffffffffffffffffffff\n  and\n  mul\n  or\n  swap1\n  sstore\n  pop\n    /* \"src/TokenSwap.sol\":1930:1935  _usdc */\n  dup1\n    /* \"src/TokenSwap.sol\":1923:1935  USDC = _usdc */\n  0xffffffffffffffffffffffffffffffffffffffff\n  and\n  0x80\n  dup2\n  0xffffffffffffffffffffffffffffffffffffffff\n  and\n  dup2\n  mstore\n  pop\n  pop\n    /* \"src/TokenSwap.sol\":1946:1988  _grantRole(DEFAULT_ADMIN_ROLE, msg.sender) */\n  tag_14\n    /* \"lib/openzeppelin-contracts/contracts/access/AccessControl.sol\":2232:2236  0x00 */\n  0x00\n    /* \"src/TokenSwap.sol\":1957:1975  DEFAULT_ADMIN_ROLE */\n  dup1\n  shl\n    /* \"src/TokenSwap.sol\":1977:1987  msg.sender */\n  caller\n    /* \"src/TokenSwap.sol\":1946:1956  _grantRole */\n  shl(0x20, tag_15)\n    /* \"src/TokenSwap.sol\":1946:1988  _grantRole(DEFAULT_ADMIN_ROLE, msg.sender) */\n  0x20\n  shr\n  jump\t// in\ntag_14:\n  pop\n    /* \"src/TokenSwap.sol\":1998:2032  _grantRole(ADMIN_ROLE, msg.sender) */\n  tag_16\n    /* \"src/TokenSwap.sol\":647:670  keccak256(\"ADMIN_ROLE\") */\n  0xa49807205ce4d355092ef5a8a18f56e8913cf4a201fbe287825b095693c21775\n    /* \"src/TokenSwap.sol\":2021:2031  msg.sender */\n  caller\n    /* \"src/TokenSwap.sol\":1998:2008  _grantRole */\n  shl(0x20, tag_15)\n    /* \"src/TokenSwap.sol\":1998:2032  _grantRole(ADMIN_ROLE, msg.sender) */\n  0x20\n  shr\n  jump\t// in\ntag_16:\n  pop\n    /* \"src/TokenSwap.sol\":1680:2039  constructor(ISwapRouter _swapRouter, address _usdc) {... */\n  pop\n  pop\n    /* \"src/TokenSwap.sol\":484:5598  contract TokenSwap is AccessControl, ReentrancyGuard {... */\n  jump(tag_17)\n    /* \"lib/openzeppelin-contracts/contracts/access/AccessControl.sol\":6179:6495  function _grantRole(bytes32 role, address account) internal virtual returns (bool) {... */\ntag_15:\n    /* \"lib/openzeppelin-contracts/contracts/access/AccessControl.sol\":6256:6260  bool */\n  0x00\n    /* \"lib/openzeppelin-contracts/contracts/access/AccessControl.sol\":6277:6299  hasRole(role, account) */\n  tag_19\n    /* \"lib/openzeppelin-contracts/contracts/access/AccessControl.sol\":6285:6289  role */\n  dup4\n    /* \"lib/openzeppelin-contracts/contracts/access/AccessControl.sol\":6291:6298  account */\n  dup4\n    /* \"lib/openzeppelin-contracts/contracts/access/AccessControl.sol\":6277:6284  hasRole */\n  shl(0x20, tag_20)\n    /* \"lib/openzeppelin-contracts/contracts/access/AccessControl.sol\":6277:6299  hasRole(role, account) */\n  0x20\n  shr\n  jump\t// in\ntag_19:\n    /* \"lib/openzeppelin-contracts/contracts/access/AccessControl.sol\":6272:6489  if (!hasRole(role, account)) {... */\n  tag_21\n  jumpi\n    /* \"lib/openzeppelin-contracts/contracts/access/AccessControl.sol\":6347:6351  true */\n  0x01\n    /* \"lib/openzeppelin-contracts/contracts/access/AccessControl.sol\":6315:6321  _roles */\n  0x00\n    /* \"lib/openzeppelin-contracts/contracts/access/AccessControl.sol\":6315:6327  _roles[role] */\n  dup1\n    /* \"lib/openzeppelin-contracts/contracts/access/AccessControl.sol\":6322:6326  role */\n  dup6\n    /* \"lib/openzeppelin-contracts/contracts/access/AccessControl.sol\":6315:6327  _roles[role] */\n  dup2\n  mstore\n  0x20\n  add\n  swap1\n  dup2\n  mstore\n  0x20\n  add\n  0x00\n  keccak256\n    /* \"lib/openzeppelin-contracts/contracts/access/AccessControl.sol\":6315:6335  _roles[role].hasRole */\n  0x00\n  add\n    /* \"lib/openzeppelin-contracts/contracts/access/AccessControl.sol\":6315:6344  _roles[role].hasRole[account] */\n  0x00\n    /* \"lib/openzeppelin-contracts/contracts/access/AccessControl.sol\":6336:6343  account */\n  dup5\n    /* \"lib/openzeppelin-contracts/contracts/access/AccessControl.sol\":6315:6344  _roles[role].hasRole[account] */\n  0xffffffffffffffffffffffffffffffffffffffff\n  and\n  0xffffffffffffffffffffffffffffffffffffffff\n  and\n  dup2\n  mstore\n  0x20\n  add\n  swap1\n  dup2\n  mstore\n  0x20\n  add\n  0x00\n  keccak256\n  0x00\n    /* \"lib/openzeppelin-contracts/contracts/access/AccessControl.sol\":6315:6351  _roles[role].hasRole[account] = true */\n  0x0100\n  exp\n  dup2\n  sload\n  dup2\n  0xff\n  mul\n  not\n  and\n  swap1\n  dup4\n  iszero\n  iszero\n  mul\n  or\n  swap1\n  sstore\n  pop\n    /* \"lib/openzeppelin-contracts/contracts/access/AccessControl.sol\":6397:6409  _msgSender() */\n  tag_22\n    /* \"lib/openzeppelin-contracts/contracts/access/AccessControl.sol\":6397:6407  _msgSender */\n  shl(0x20, tag_23)\n    /* \"lib/openzeppelin-contracts/contracts/access/AccessControl.sol\":6397:6409  _msgSender() */\n  0x20\n  shr\n  jump\t// in\ntag_22:\n    /* \"lib/openzeppelin-contracts/contracts/access/AccessControl.sol\":6370:6410  RoleGranted(role, account, _msgSender()) */\n  0xffffffffffffffffffffffffffffffffffffffff\n  and\n    /* \"lib/openzeppelin-contracts/contracts/access/AccessControl.sol\":6388:6395  account */\n  dup3\n    /* \"lib/openzeppelin-contracts/contracts/access/AccessControl.sol\":6370:6410  RoleGranted(role, account, _msgSender()) */\n  0xffffffffffffffffffffffffffffffffffffffff\n  and\n    /* \"lib/openzeppelin-contracts/contracts/access/AccessControl.sol\":6382:6386  role */\n  dup5\n    /* \"lib/openzeppelin-contracts/contracts/access/AccessControl.sol\":6370:6410  RoleGranted(role, account, _msgSender()) */\n  0x2f8788117e7eff1d82e926ec794901d17c78024a50270940304540a733656f0d\n  mload(0x40)\n  mload(0x40)\n  dup1\n  swap2\n  sub\n  swap1\n  log4\n    /* \"lib/openzeppelin-contracts/contracts/access/AccessControl.sol\":6431:6435  true */\n  0x01\n    /* \"lib/openzeppelin-contracts/contracts/access/AccessControl.sol\":6424:6435  return true */\n  swap1\n  pop\n  jump(tag_18)\n    /* \"lib/openzeppelin-contracts/contracts/access/AccessControl.sol\":6272:6489  if (!hasRole(role, account)) {... */\ntag_21:\n    /* \"lib/openzeppelin-contracts/contracts/access/AccessControl.sol\":6473:6478  false */\n  0x00\n    /* \"lib/openzeppelin-contracts/contracts/access/AccessControl.sol\":6466:6478  return false */\n  swap1\n  pop\n    /* \"lib/openzeppelin-contracts/contracts/access/AccessControl.sol\":6179:6495  function _grantRole(bytes32 role, address account) internal virtual returns (bool) {... */\ntag_18:\n  swap3\n  swap2\n  pop\n  pop\n  jump\t// out\n    /* \"lib/openzeppelin-contracts/contracts/access/AccessControl.sol\":2854:2990  function hasRole(bytes32 role, address account) public view virtual returns (bool) {... */\ntag_20:\n    /* \"lib/openzeppelin-contracts/contracts/access/AccessControl.sol\":2931:2935  bool */\n  0x00\n    /* \"lib/openzeppelin-contracts/contracts/access/AccessControl.sol\":2954:2960  _roles */\n  dup1\n    /* \"lib/openzeppelin-contracts/contracts/access/AccessControl.sol\":2954:2966  _roles[role] */\n  0x00\n    /* \"lib/openzeppelin-contracts/contracts/access/AccessControl.sol\":2961:2965  role */\n  dup5\n    /* \"lib/openzeppelin-contracts/contracts/access/AccessControl.sol\":2954:2966  _roles[role] */\n  dup2\n  mstore\n  0x20\n  add\n  swap1\n  dup2\n  mstore\n  0x20\n  add\n  0x00\n  keccak256\n    /* \"lib/openzeppelin-contracts/contracts/access/AccessControl.sol\":2954:2974  _roles[role].hasRole */\n  0x00\n  add\n    /* \"lib/openzeppelin-contracts/contracts/access/AccessControl.sol\":2954:2983  _roles[role].hasRole[account] */\n  0x00\n    /* \"lib/openzeppelin-contracts/contracts/access/AccessControl.sol\":2975:2982  account */\n  dup4\n    /* \"lib/openzeppelin-contracts/contracts/access/AccessControl.sol\":2954:2983  _roles[role].hasRole[account] */\n  0xffffffffffffffffffffffffffffffffffffffff\n  and\n  0xffffffffffffffffffffffffffffffffffffffff\n  and\n  dup2\n  mstore\n  0x20\n  add\n  swap1\n  dup2\n  mstore\n  0x20\n  add\n  0x00\n  keccak256\n  0x00\n  swap1\n  sload\n  swap1\n  0x0100\n  exp\n  swap1\n  div\n  0xff\n  and\n    /* \"lib/openzeppelin-contracts/contracts/access/AccessControl.sol\":2947:2983  return _roles[role].hasRole[account] */\n  swap1\n  pop\n    /* \"lib/openzeppelin-contracts/contracts/access/AccessControl.sol\":2854:2990  function hasRole(bytes32 role, address account) public view virtual returns (bool) {... */\n  swap3\n  swap2\n  pop\n  pop\n  jump\t// out\n    /* \"lib/openzeppelin-contracts/contracts/utils/Context.sol\":656:752  function _msgSender() internal view virtual returns (address) {... */\ntag_23:\n    /* \"lib/openzeppelin-contracts/contracts/utils/Context.sol\":709:716  address */\n  0x00\n    /* \"lib/openzeppelin-contracts/contracts/utils/Context.sol\":735:745  msg.sender */\n  caller\n    /* \"lib/openzeppelin-contracts/contracts/utils/Context.sol\":728:745  return msg.sender */\n  swap1\n  pop\n    /* \"lib/openzeppelin-contracts/contracts/utils/Context.sol\":656:752  function _msgSender() internal view virtual returns (address) {... */\n  swap1\n  jump\t// out\n    /* \"#utility.yul\":88:205   */\ntag_28:\n    /* \"#utility.yul\":197:198   */\n  0x00\n    /* \"#utility.yul\":194:195   */\n  dup1\n    /* \"#utility.yul\":187:199   */\n  revert\n    /* \"#utility.yul\":334:460   */\ntag_30:\n    /* \"#utility.yul\":371:378   */\n  0x00\n    /* \"#utility.yul\":411:453   */\n  0xffffffffffffffffffffffffffffffffffffffff\n    /* \"#utility.yul\":404:409   */\n  dup3\n    /* \"#utility.yul\":400:454   */\n  and\n    /* \"#utility.yul\":389:454   */\n  swap1\n  pop\n    /* \"#utility.yul\":334:460   */\n  swap2\n  swap1\n  pop\n  jump\t// out\n    /* \"#utility.yul\":466:562   */\ntag_31:\n    /* \"#utility.yul\":503:510   */\n  0x00\n    /* \"#utility.yul\":532:556   */\n  tag_48\n    /* \"#utility.yul\":550:555   */\n  dup3\n    /* \"#utility.yul\":532:556   */\n  tag_30\n  jump\t// in\ntag_48:\n    /* \"#utility.yul\":521:556   */\n  swap1\n  pop\n    /* \"#utility.yul\":466:562   */\n  swap2\n  swap1\n  pop\n  jump\t// out\n    /* \"#utility.yul\":568:683   */\ntag_32:\n    /* \"#utility.yul\":624:631   */\n  0x00\n    /* \"#utility.yul\":653:677   */\n  tag_50\n    /* \"#utility.yul\":671:676   */\n  dup3\n    /* \"#utility.yul\":653:677   */\n  tag_31\n  jump\t// in\ntag_50:\n    /* \"#utility.yul\":642:677   */\n  swap1\n  pop\n    /* \"#utility.yul\":568:683   */\n  swap2\n  swap1\n  pop\n  jump\t// out\n    /* \"#utility.yul\":689:849   */\ntag_33:\n    /* \"#utility.yul\":781:824   */\n  tag_52\n    /* \"#utility.yul\":818:823   */\n  dup2\n    /* \"#utility.yul\":781:824   */\n  tag_32\n  jump\t// in\ntag_52:\n    /* \"#utility.yul\":774:779   */\n  dup2\n    /* \"#utility.yul\":771:825   */\n  eq\n    /* \"#utility.yul\":761:843   */\n  tag_53\n  jumpi\n    /* \"#utility.yul\":839:840   */\n  0x00\n    /* \"#utility.yul\":836:837   */\n  dup1\n    /* \"#utility.yul\":829:841   */\n  revert\n    /* \"#utility.yul\":761:843   */\ntag_53:\n    /* \"#utility.yul\":689:849   */\n  pop\n  jump\t// out\n    /* \"#utility.yul\":855:1036   */\ntag_34:\n    /* \"#utility.yul\":931:936   */\n  0x00\n    /* \"#utility.yul\":962:968   */\n  dup2\n    /* \"#utility.yul\":956:969   */\n  mload\n    /* \"#utility.yul\":947:969   */\n  swap1\n  pop\n    /* \"#utility.yul\":978:1030   */\n  tag_55\n    /* \"#utility.yul\":1024:1029   */\n  dup2\n    /* \"#utility.yul\":978:1030   */\n  tag_33\n  jump\t// in\ntag_55:\n    /* \"#utility.yul\":855:1036   */\n  swap3\n  swap2\n  pop\n  pop\n  jump\t// out\n    /* \"#utility.yul\":1042:1164   */\ntag_35:\n    /* \"#utility.yul\":1115:1139   */\n  tag_57\n    /* \"#utility.yul\":1133:1138   */\n  dup2\n    /* \"#utility.yul\":1115:1139   */\n  tag_31\n  jump\t// in\ntag_57:\n    /* \"#utility.yul\":1108:1113   */\n  dup2\n    /* \"#utility.yul\":1105:1140   */\n  eq\n    /* \"#utility.yul\":1095:1158   */\n  tag_58\n  jumpi\n    /* \"#utility.yul\":1154:1155   */\n  0x00\n    /* \"#utility.yul\":1151:1152   */\n  dup1\n    /* \"#utility.yul\":1144:1156   */\n  revert\n    /* \"#utility.yul\":1095:1158   */\ntag_58:\n    /* \"#utility.yul\":1042:1164   */\n  pop\n  jump\t// out\n    /* \"#utility.yul\":1170:1313   */\ntag_36:\n    /* \"#utility.yul\":1227:1232   */\n  0x00\n    /* \"#utility.yul\":1258:1264   */\n  dup2\n    /* \"#utility.yul\":1252:1265   */\n  mload\n    /* \"#utility.yul\":1243:1265   */\n  swap1\n  pop\n    /* \"#utility.yul\":1274:1307   */\n  tag_60\n    /* \"#utility.yul\":1301:1306   */\n  dup2\n    /* \"#utility.yul\":1274:1307   */\n  tag_35\n  jump\t// in\ntag_60:\n    /* \"#utility.yul\":1170:1313   */\n  swap3\n  swap2\n  pop\n  pop\n  jump\t// out\n    /* \"#utility.yul\":1319:1864   */\ntag_3:\n    /* \"#utility.yul\":1417:1423   */\n  0x00\n    /* \"#utility.yul\":1425:1431   */\n  dup1\n    /* \"#utility.yul\":1474:1476   */\n  0x40\n    /* \"#utility.yul\":1462:1471   */\n  dup4\n    /* \"#utility.yul\":1453:1460   */\n  dup6\n    /* \"#utility.yul\":1449:1472   */\n  sub\n    /* \"#utility.yul\":1445:1477   */\n  slt\n    /* \"#utility.yul\":1442:1561   */\n  iszero\n  tag_62\n  jumpi\n    /* \"#utility.yul\":1480:1559   */\n  tag_63\n  tag_28\n  jump\t// in\ntag_63:\n    /* \"#utility.yul\":1442:1561   */\ntag_62:\n    /* \"#utility.yul\":1600:1601   */\n  0x00\n    /* \"#utility.yul\":1625:1708   */\n  tag_64\n    /* \"#utility.yul\":1700:1707   */\n  dup6\n    /* \"#utility.yul\":1691:1697   */\n  dup3\n    /* \"#utility.yul\":1680:1689   */\n  dup7\n    /* \"#utility.yul\":1676:1698   */\n  add\n    /* \"#utility.yul\":1625:1708   */\n  tag_34\n  jump\t// in\ntag_64:\n    /* \"#utility.yul\":1615:1708   */\n  swap3\n  pop\n    /* \"#utility.yul\":1571:1718   */\n  pop\n    /* \"#utility.yul\":1757:1759   */\n  0x20\n    /* \"#utility.yul\":1783:1847   */\n  tag_65\n    /* \"#utility.yul\":1839:1846   */\n  dup6\n    /* \"#utility.yul\":1830:1836   */\n  dup3\n    /* \"#utility.yul\":1819:1828   */\n  dup7\n    /* \"#utility.yul\":1815:1837   */\n  add\n    /* \"#utility.yul\":1783:1847   */\n  tag_36\n  jump\t// in\ntag_65:\n    /* \"#utility.yul\":1773:1847   */\n  swap2\n  pop\n    /* \"#utility.yul\":1728:1857   */\n  pop\n    /* \"#utility.yul\":1319:1864   */\n  swap3\n  pop\n  swap3\n  swap1\n  pop\n  jump\t// out\n    /* \"#utility.yul\":1870:2039   */\ntag_37:\n    /* \"#utility.yul\":1954:1965   */\n  0x00\n    /* \"#utility.yul\":1988:1994   */\n  dup3\n    /* \"#utility.yul\":1983:1986   */\n  dup3\n    /* \"#utility.yul\":1976:1995   */\n  mstore\n    /* \"#utility.yul\":2028:2032   */\n  0x20\n    /* \"#utility.yul\":2023:2026   */\n  dup3\n    /* \"#utility.yul\":2019:2033   */\n  add\n    /* \"#utility.yul\":2004:2033   */\n  swap1\n  pop\n    /* \"#utility.yul\":1870:2039   */\n  swap3\n  swap2\n  pop\n  pop\n  jump\t// out\n    /* \"#utility.yul\":2045:2222   */\ntag_38:\n    /* \"#utility.yul\":2185:2214   */\n  0x496e76616c6964207377617020726f7574657220616464726573730000000000\n    /* \"#utility.yul\":2181:2182   */\n  0x00\n    /* \"#utility.yul\":2173:2179   */\n  dup3\n    /* \"#utility.yul\":2169:2183   */\n  add\n    /* \"#utility.yul\":2162:2215   */\n  mstore\n    /* \"#utility.yul\":2045:2222   */\n  pop\n  jump\t// out\n    /* \"#utility.yul\":2228:2594   */\ntag_39:\n    /* \"#utility.yul\":2370:2373   */\n  0x00\n    /* \"#utility.yul\":2391:2458   */\n  tag_69\n    /* \"#utility.yul\":2455:2457   */\n  0x1b\n    /* \"#utility.yul\":2450:2453   */\n  dup4\n    /* \"#utility.yul\":2391:2458   */\n  tag_37\n  jump\t// in\ntag_69:\n    /* \"#utility.yul\":2384:2458   */\n  swap2\n  pop\n    /* \"#utility.yul\":2467:2560   */\n  tag_70\n    /* \"#utility.yul\":2556:2559   */\n  dup3\n    /* \"#utility.yul\":2467:2560   */\n  tag_38\n  jump\t// in\ntag_70:\n    /* \"#utility.yul\":2585:2587   */\n  0x20\n    /* \"#utility.yul\":2580:2583   */\n  dup3\n    /* \"#utility.yul\":2576:2588   */\n  add\n    /* \"#utility.yul\":2569:2588   */\n  swap1\n  pop\n    /* \"#utility.yul\":2228:2594   */\n  swap2\n  swap1\n  pop\n  jump\t// out\n    /* \"#utility.yul\":2600:3019   */\ntag_10:\n    /* \"#utility.yul\":2766:2770   */\n  0x00\n    /* \"#utility.yul\":2804:2806   */\n  0x20\n    /* \"#utility.yul\":2793:2802   */\n  dup3\n    /* \"#utility.yul\":2789:2807   */\n  add\n    /* \"#utility.yul\":2781:2807   */\n  swap1\n  pop\n    /* \"#utility.yul\":2853:2862   */\n  dup2\n    /* \"#utility.yul\":2847:2851   */\n  dup2\n    /* \"#utility.yul\":2843:2863   */\n  sub\n    /* \"#utility.yul\":2839:2840   */\n  0x00\n    /* \"#utility.yul\":2828:2837   */\n  dup4\n    /* \"#utility.yul\":2824:2841   */\n  add\n    /* \"#utility.yul\":2817:2864   */\n  mstore\n    /* \"#utility.yul\":2881:3012   */\n  tag_72\n    /* \"#utility.yul\":3007:3011   */\n  dup2\n    /* \"#utility.yul\":2881:3012   */\n  tag_39\n  jump\t// in\ntag_72:\n    /* \"#utility.yul\":2873:3012   */\n  swap1\n  pop\n    /* \"#utility.yul\":2600:3019   */\n  swap2\n  swap1\n  pop\n  jump\t// out\n    /* \"#utility.yul\":3025:3195   */\ntag_40:\n    /* \"#utility.yul\":3165:3187   */\n  0x496e76616c696420555344432061646472657373000000000000000000000000\n    /* \"#utility.yul\":3161:3162   */\n  0x00\n    /* \"#utility.yul\":3153:3159   */\n  dup3\n    /* \"#utility.yul\":3149:3163   */\n  add\n    /* \"#utility.yul\":3142:3188   */\n  mstore\n    /* \"#utility.yul\":3025:3195   */\n  pop\n  jump\t// out\n    /* \"#utility.yul\":3201:3567   */\ntag_41:\n    /* \"#utility.yul\":3343:3346   */\n  0x00\n    /* \"#utility.yul\":3364:3431   */\n  tag_75\n    /* \"#utility.yul\":3428:3430   */\n  0x14\n    /* \"#utility.yul\":3423:3426   */\n  dup4\n    /* \"#utility.yul\":3364:3431   */\n  tag_37\n  jump\t// in\ntag_75:\n    /* \"#utility.yul\":3357:3431   */\n  swap2\n  pop\n    /* \"#utility.yul\":3440:3533   */\n  tag_76\n    /* \"#utility.yul\":3529:3532   */\n  dup3\n    /* \"#utility.yul\":3440:3533   */\n  tag_40\n  jump\t// in\ntag_76:\n    /* \"#utility.yul\":3558:3560   */\n  0x20\n    /* \"#utility.yul\":3553:3556   */\n  dup3\n    /* \"#utility.yul\":3549:3561   */\n  add\n    /* \"#utility.yul\":3542:3561   */\n  swap1\n  pop\n    /* \"#utility.yul\":3201:3567   */\n  swap2\n  swap1\n  pop\n  jump\t// out\n    /* \"#utility.yul\":3573:3992   */\ntag_13:\n    /* \"#utility.yul\":3739:3743   */\n  0x00\n    /* \"#utility.yul\":3777:3779   */\n  0x20\n    /* \"#utility.yul\":3766:3775   */\n  dup3\n    /* \"#utility.yul\":3762:3780   */\n  add\n    /* \"#utility.yul\":3754:3780   */\n  swap1\n  pop\n    /* \"#utility.yul\":3826:3835   */\n  dup2\n    /* \"#utility.yul\":3820:3824   */\n  dup2\n    /* \"#utility.yul\":3816:3836   */\n  sub\n    /* \"#utility.yul\":3812:3813   */\n  0x00\n    /* \"#utility.yul\":3801:3810   */\n  dup4\n    /* \"#utility.yul\":3797:3814   */\n  add\n    /* \"#utility.yul\":3790:3837   */\n  mstore\n    /* \"#utility.yul\":3854:3985   */\n  tag_78\n    /* \"#utility.yul\":3980:3984   */\n  dup2\n    /* \"#utility.yul\":3854:3985   */\n  tag_41\n  jump\t// in\ntag_78:\n    /* \"#utility.yul\":3846:3985   */\n  swap1\n  pop\n    /* \"#utility.yul\":3573:3992   */\n  swap2\n  swap1\n  pop\n  jump\t// out\n    /* \"src/TokenSwap.sol\":484:5598  contract TokenSwap is AccessControl, ReentrancyGuard {... */\ntag_17:\n  mload(0x80)\n  codecopy(0x00, dataOffset(sub_0), dataSize(sub_0))\n  0x00\n  assignImmutable(\"0x196bc5dfea832b0eb08b0412990d893a3342c7f023cd516b16aea5eba5390ef7\")\n  return(0x00, dataSize(sub_0))\nstop\n\nsub_0: assembly {\n        /* \"src/TokenSwap.sol\":484:5598  contract TokenSwap is AccessControl, ReentrancyGuard {... */\n      mstore(0x40, 0x80)\n      callvalue\n      dup1\n      iszero\n      tag_1\n      jumpi\n      0x00\n      dup1\n      revert\n    tag_1:\n      pop\n      jumpi(tag_2, lt(calldatasize, 0x04))\n      shr(0xe0, calldataload(0x00))\n      dup1\n      0x89a30271\n      gt\n      tag_20\n      jumpi\n      dup1\n      0xa217fddf\n      gt\n      tag_21\n      jumpi\n      dup1\n      0xa217fddf\n      eq\n      tag_15\n      jumpi\n      dup1\n      0xb98b677f\n      eq\n      tag_16\n      jumpi\n      dup1\n      0xc31c9c07\n      eq\n      tag_17\n      jumpi\n      dup1\n      0xd547741f\n      eq\n      tag_18\n      jumpi\n      dup1\n      0xdd1b9c4a\n      eq\n      tag_19\n      jumpi\n      jump(tag_2)\n    tag_21:\n      dup1\n      0x89a30271\n      eq\n      tag_11\n      jumpi\n      dup1\n      0x91d14854\n      eq\n      tag_12\n      jumpi\n      dup1\n      0x933f4eef\n      eq\n      tag_13\n      jumpi\n      dup1\n      0x9d93d352\n      eq\n      tag_14\n      jumpi\n      jump(tag_2)\n    tag_20:\n      dup1\n      0x36568abe\n      gt\n      tag_22\n      jumpi\n      dup1\n      0x36568abe\n      eq\n      tag_7\n      jumpi\n      dup1\n      0x6d1ea3fa\n      eq\n      tag_8\n      jumpi\n      dup1\n      0x75b238fc\n      eq\n      tag_9\n      jumpi\n      dup1\n      0x80b2edd8\n      eq\n      tag_10\n      jumpi\n      jump(tag_2)\n    tag_22:\n      dup1\n      0x01ffc9a7\n      eq\n      tag_3\n      jumpi\n      dup1\n      0x2197545c\n      eq\n      tag_4\n      jumpi\n      dup1\n      0x248a9ca3\n      eq\n      tag_5\n      jumpi\n      dup1\n      0x2f2ff15d\n      eq\n      tag_6\n      jumpi\n    tag_2:\n      0x00\n      dup1\n      revert\n        /* \"lib/openzeppelin-contracts/contracts/access/AccessControl.sol\":2565:2767  function supportsInterface(bytes4 interfaceId) public view virtual override returns (bool) {... */\n    tag_3:\n      tag_23\n      0x04\n      dup1\n      calldatasize\n      sub\n      dup2\n      add\n      swap1\n      tag_24\n      swap2\n      swap1\n      tag_25\n      jump\t// in\n    tag_24:\n      tag_26\n      jump\t// in\n    tag_23:\n      mload(0x40)\n      tag_27\n      swap2\n      swap1\n      tag_28\n      jump\t// in\n    tag_27:\n      mload(0x40)\n      dup1\n      swap2\n      sub\n      swap1\n      return\n        /* \"src/TokenSwap.sol\":4080:5197  function swapToUSDC(... */\n    tag_4:\n      tag_29\n      0x04\n      dup1\n      calldatasize\n      sub\n      dup2\n      add\n      swap1\n      tag_30\n      swap2\n      swap1\n      tag_31\n      jump\t// in\n    tag_30:\n      tag_32\n      jump\t// in\n    tag_29:\n      mload(0x40)\n      tag_33\n      swap2\n      swap1\n      tag_34\n      jump\t// in\n    tag_33:\n      mload(0x40)\n      dup1\n      swap2\n      sub\n      swap1\n      return\n        /* \"lib/openzeppelin-contracts/contracts/access/AccessControl.sol\":3810:3930  function getRoleAdmin(bytes32 role) public view virtual returns (bytes32) {... */\n    tag_5:\n      tag_35\n      0x04\n      dup1\n      calldatasize\n      sub\n      dup2\n      add\n      swap1\n      tag_36\n      swap2\n      swap1\n      tag_37\n      jump\t// in\n    tag_36:\n      tag_38\n      jump\t// in\n    tag_35:\n      mload(0x40)\n      tag_39\n      swap2\n      swap1\n      tag_40\n      jump\t// in\n    tag_39:\n      mload(0x40)\n      dup1\n      swap2\n      sub\n      swap1\n      return\n        /* \"lib/openzeppelin-contracts/contracts/access/AccessControl.sol\":4226:4362  function grantRole(bytes32 role, address account) public virtual onlyRole(getRoleAdmin(role)) {... */\n    tag_6:\n      tag_41\n      0x04\n      dup1\n      calldatasize\n      sub\n      dup2\n      add\n      swap1\n      tag_42\n      swap2\n      swap1\n      tag_43\n      jump\t// in\n    tag_42:\n      tag_44\n      jump\t// in\n    tag_41:\n      stop\n        /* \"lib/openzeppelin-contracts/contracts/access/AccessControl.sol\":5328:5573  function renounceRole(bytes32 role, address callerConfirmation) public virtual {... */\n    tag_7:\n      tag_45\n      0x04\n      dup1\n      calldatasize\n      sub\n      dup2\n      add\n      swap1\n      tag_46\n      swap2\n      swap1\n      tag_43\n      jump\t// in\n    tag_46:\n      tag_47\n      jump\t// in\n    tag_45:\n      stop\n        /* \"src/TokenSwap.sol\":898:944  mapping(address => bool) public approvedTokens */\n    tag_8:\n      tag_48\n      0x04\n      dup1\n      calldatasize\n      sub\n      dup2\n      add\n      swap1\n      tag_49\n      swap2\n      swap1\n      tag_50\n      jump\t// in\n    tag_49:\n      tag_51\n      jump\t// in\n    tag_48:\n      mload(0x40)\n      tag_52\n      swap2\n      swap1\n      tag_28\n      jump\t// in\n    tag_52:\n      mload(0x40)\n      dup1\n      swap2\n      sub\n      swap1\n      return\n        /* \"src/TokenSwap.sol\":610:670  bytes32 public constant ADMIN_ROLE = keccak256(\"ADMIN_ROLE\") */\n    tag_9:\n      tag_53\n      tag_54\n      jump\t// in\n    tag_53:\n      mload(0x40)\n      tag_55\n      swap2\n      swap1\n      tag_40\n      jump\t// in\n    tag_55:\n      mload(0x40)\n      dup1\n      swap2\n      sub\n      swap1\n      return\n        /* \"src/TokenSwap.sol\":2589:2867  function approveToken(address token) external onlyRole(ADMIN_ROLE) {... */\n    tag_10:\n      tag_56\n      0x04\n      dup1\n      calldatasize\n      sub\n      dup2\n      add\n      swap1\n      tag_57\n      swap2\n      swap1\n      tag_50\n      jump\t// in\n    tag_57:\n      tag_58\n      jump\t// in\n    tag_56:\n      stop\n        /* \"src/TokenSwap.sol\":789:818  address public immutable USDC */\n    tag_11:\n      tag_59\n      tag_60\n      jump\t// in\n    tag_59:\n      mload(0x40)\n      tag_61\n      swap2\n      swap1\n      tag_62\n      jump\t// in\n    tag_61:\n      mload(0x40)\n      dup1\n      swap2\n      sub\n      swap1\n      return\n        /* \"lib/openzeppelin-contracts/contracts/access/AccessControl.sol\":2854:2990  function hasRole(bytes32 role, address account) public view virtual returns (bool) {... */\n    tag_12:\n      tag_63\n      0x04\n      dup1\n      calldatasize\n      sub\n      dup2\n      add\n      swap1\n      tag_64\n      swap2\n      swap1\n      tag_43\n      jump\t// in\n    tag_64:\n      tag_65\n      jump\t// in\n    tag_63:\n      mload(0x40)\n      tag_66\n      swap2\n      swap1\n      tag_28\n      jump\t// in\n    tag_66:\n      mload(0x40)\n      dup1\n      swap2\n      sub\n      swap1\n      return\n        /* \"src/TokenSwap.sol\":3002:3213  function revokeToken(address token) external onlyRole(ADMIN_ROLE) {... */\n    tag_13:\n      tag_67\n      0x04\n      dup1\n      calldatasize\n      sub\n      dup2\n      add\n      swap1\n      tag_68\n      swap2\n      swap1\n      tag_50\n      jump\t// in\n    tag_68:\n      tag_69\n      jump\t// in\n    tag_67:\n      stop\n        /* \"src/TokenSwap.sol\":5465:5596  function isTokenApproved(address token) external view returns (bool isApproved) {... */\n    tag_14:\n      tag_70\n      0x04\n      dup1\n      calldatasize\n      sub\n      dup2\n      add\n      swap1\n      tag_71\n      swap2\n      swap1\n      tag_50\n      jump\t// in\n    tag_71:\n      tag_72\n      jump\t// in\n    tag_70:\n      mload(0x40)\n      tag_73\n      swap2\n      swap1\n      tag_28\n      jump\t// in\n    tag_73:\n      mload(0x40)\n      dup1\n      swap2\n      sub\n      swap1\n      return\n        /* \"lib/openzeppelin-contracts/contracts/access/AccessControl.sol\":2187:2236  bytes32 public constant DEFAULT_ADMIN_ROLE = 0x00 */\n    tag_15:\n      tag_74\n      tag_75\n      jump\t// in\n    tag_74:\n      mload(0x40)\n      tag_76\n      swap2\n      swap1\n      tag_40\n      jump\t// in\n    tag_76:\n      mload(0x40)\n      dup1\n      swap2\n      sub\n      swap1\n      return\n        /* \"src/TokenSwap.sol\":3342:3548  function updateSwapRouter(ISwapRouter _swapRouter) external onlyRole(ADMIN_ROLE) {... */\n    tag_16:\n      tag_77\n      0x04\n      dup1\n      calldatasize\n      sub\n      dup2\n      add\n      swap1\n      tag_78\n      swap2\n      swap1\n      tag_79\n      jump\t// in\n    tag_78:\n      tag_80\n      jump\t// in\n    tag_77:\n      stop\n        /* \"src/TokenSwap.sol\":754:783  ISwapRouter public swapRouter */\n    tag_17:\n      tag_81\n      tag_82\n      jump\t// in\n    tag_81:\n      mload(0x40)\n      tag_83\n      swap2\n      swap1\n      tag_84\n      jump\t// in\n    tag_83:\n      mload(0x40)\n      dup1\n      swap2\n      sub\n      swap1\n      return\n        /* \"lib/openzeppelin-contracts/contracts/access/AccessControl.sol\":4642:4780  function revokeRole(bytes32 role, address account) public virtual onlyRole(getRoleAdmin(role)) {... */\n    tag_18:\n      tag_85\n      0x04\n      dup1\n      calldatasize\n      sub\n      dup2\n      add\n      swap1\n      tag_86\n      swap2\n      swap1\n      tag_43\n      jump\t// in\n    tag_86:\n      tag_87\n      jump\t// in\n    tag_85:\n      stop\n        /* \"src/TokenSwap.sol\":1005:1043  uint24 public constant POOL_FEE = 3000 */\n    tag_19:\n      tag_88\n      tag_89\n      jump\t// in\n    tag_88:\n      mload(0x40)\n      tag_90\n      swap2\n      swap1\n      tag_91\n      jump\t// in\n    tag_90:\n      mload(0x40)\n      dup1\n      swap2\n      sub\n      swap1\n      return\n        /* \"lib/openzeppelin-contracts/contracts/access/AccessControl.sol\":2565:2767  function supportsInterface(bytes4 interfaceId) public view virtual override returns (bool) {... */\n    tag_26:\n        /* \"lib/openzeppelin-contracts/contracts/access/AccessControl.sol\":2650:2654  bool */\n      0x00\n        /* \"lib/openzeppelin-contracts/contracts/access/AccessControl.sol\":2688:2720  type(IAccessControl).interfaceId */\n      0x7965db0b00000000000000000000000000000000000000000000000000000000\n        /* \"lib/openzeppelin-contracts/contracts/access/AccessControl.sol\":2673:2720  interfaceId == type(IAccessControl).interfaceId */\n      not(0xffffffffffffffffffffffffffffffffffffffffffffffffffffffff)\n      and\n        /* \"lib/openzeppelin-contracts/contracts/access/AccessControl.sol\":2673:2684  interfaceId */\n      dup3\n        /* \"lib/openzeppelin-contracts/contracts/access/AccessControl.sol\":2673:2720  interfaceId == type(IAccessControl).interfaceId */\n      not(0xffffffffffffffffffffffffffffffffffffffffffffffffffffffff)\n      and\n      eq\n        /* \"lib/openzeppelin-contracts/contracts/access/AccessControl.sol\":2673:2760  interfaceId == type(IAccessControl).interfaceId || super.supportsInterface(interfaceId) */\n      dup1\n      tag_93\n      jumpi\n      pop\n        /* \"lib/openzeppelin-contracts/contracts/access/AccessControl.sol\":2724:2760  super.supportsInterface(interfaceId) */\n      tag_94\n        /* \"lib/openzeppelin-contracts/contracts/access/AccessControl.sol\":2748:2759  interfaceId */\n      dup3\n        /* \"lib/openzeppelin-contracts/contracts/access/AccessControl.sol\":2724:2747  super.supportsInterface */\n      tag_95\n        /* \"lib/openzeppelin-contracts/contracts/access/AccessControl.sol\":2724:2760  super.supportsInterface(interfaceId) */\n      jump\t// in\n    tag_94:\n        /* \"lib/openzeppelin-contracts/contracts/access/AccessControl.sol\":2673:2760  interfaceId == type(IAccessControl).interfaceId || super.supportsInterface(interfaceId) */\n    tag_93:\n        /* \"lib/openzeppelin-contracts/contracts/access/AccessControl.sol\":2666:2760  return interfaceId == type(IAccessControl).interfaceId || super.supportsInterface(interfaceId) */\n      swap1\n      pop\n        /* \"lib/openzeppelin-contracts/contracts/access/AccessControl.sol\":2565:2767  function supportsInterface(bytes4 interfaceId) public view virtual override returns (bool) {... */\n      swap2\n      swap1\n      pop\n      jump\t// out\n        /* \"src/TokenSwap.sol\":4080:5197  function swapToUSDC(... */\n    tag_32:\n        /* \"src/TokenSwap.sol\":4313:4330  uint256 amountOut */\n      0x00\n        /* \"lib/openzeppelin-contracts/contracts/utils/ReentrancyGuard.sol\":2500:2521  _nonReentrantBefore() */\n      tag_97\n        /* \"lib/openzeppelin-contracts/contracts/utils/ReentrancyGuard.sol\":2500:2519  _nonReentrantBefore */\n      tag_98\n        /* \"lib/openzeppelin-contracts/contracts/utils/ReentrancyGuard.sol\":2500:2521  _nonReentrantBefore() */\n      jump\t// in\n    tag_97:\n        /* \"src/TokenSwap.sol\":4284:4294  inputToken */\n      dup5\n        /* \"src/TokenSwap.sol\":2306:2320  approvedTokens */\n      0x03\n        /* \"src/TokenSwap.sol\":2306:2327  approvedTokens[token] */\n      0x00\n        /* \"src/TokenSwap.sol\":2321:2326  token */\n      dup3\n        /* \"src/TokenSwap.sol\":2306:2327  approvedTokens[token] */\n      0xffffffffffffffffffffffffffffffffffffffff\n      and\n      0xffffffffffffffffffffffffffffffffffffffff\n      and\n      dup2\n      mstore\n      0x20\n      add\n      swap1\n      dup2\n      mstore\n      0x20\n      add\n      0x00\n      keccak256\n      0x00\n      swap1\n      sload\n      swap1\n      0x0100\n      exp\n      swap1\n      div\n      0xff\n      and\n        /* \"src/TokenSwap.sol\":2298:2363  require(approvedTokens[token], \"Token not approved for swapping\") */\n      tag_100\n      jumpi\n      mload(0x40)\n      0x08c379a000000000000000000000000000000000000000000000000000000000\n      dup2\n      mstore\n      0x04\n      add\n      tag_101\n      swap1\n      tag_102\n      jump\t// in\n    tag_101:\n      mload(0x40)\n      dup1\n      swap2\n      sub\n      swap1\n      revert\n    tag_100:\n        /* \"src/TokenSwap.sol\":4365:4366  0 */\n      0x00\n        /* \"src/TokenSwap.sol\":4354:4362  amountIn */\n      dup6\n        /* \"src/TokenSwap.sol\":4354:4366  amountIn > 0 */\n      gt\n        /* \"src/TokenSwap.sol\":4346:4409  require(amountIn > 0, \"Input amount must be greater than zero\") */\n      tag_104\n      jumpi\n      mload(0x40)\n      0x08c379a000000000000000000000000000000000000000000000000000000000\n      dup2\n      mstore\n      0x04\n      add\n      tag_105\n      swap1\n      tag_106\n      jump\t// in\n    tag_105:\n      mload(0x40)\n      dup1\n      swap2\n      sub\n      swap1\n      revert\n    tag_104:\n        /* \"src/TokenSwap.sol\":4427:4437  inputToken */\n      dup6\n        /* \"src/TokenSwap.sol\":4420:4451  IERC20(inputToken).transferFrom */\n      0xffffffffffffffffffffffffffffffffffffffff\n      and\n      0x23b872dd\n        /* \"src/TokenSwap.sol\":4452:4462  msg.sender */\n      caller\n        /* \"src/TokenSwap.sol\":4472:4476  this */\n      address\n        /* \"src/TokenSwap.sol\":4479:4487  amountIn */\n      dup9\n        /* \"src/TokenSwap.sol\":4420:4488  IERC20(inputToken).transferFrom(msg.sender, address(this), amountIn) */\n      mload(0x40)\n      dup5\n      0xffffffff\n      and\n      0xe0\n      shl\n      dup2\n      mstore\n      0x04\n      add\n      tag_107\n      swap4\n      swap3\n      swap2\n      swap1\n      tag_108\n      jump\t// in\n    tag_107:\n      0x20\n      mload(0x40)\n      dup1\n      dup4\n      sub\n      dup2\n      0x00\n      dup8\n      gas\n      call\n      iszero\n      dup1\n      iszero\n      tag_110\n      jumpi\n      returndatasize\n      0x00\n      dup1\n      returndatacopy\n      revert(0x00, returndatasize)\n    tag_110:\n      pop\n      pop\n      pop\n      pop\n      mload(0x40)\n      returndatasize\n      not(0x1f)\n      0x1f\n      dup3\n      add\n      and\n      dup3\n      add\n      dup1\n      0x40\n      mstore\n      pop\n      dup2\n      add\n      swap1\n      tag_111\n      swap2\n      swap1\n      tag_112\n      jump\t// in\n    tag_111:\n      pop\n        /* \"src/TokenSwap.sol\":4505:4515  inputToken */\n      dup6\n        /* \"src/TokenSwap.sol\":4498:4524  IERC20(inputToken).approve */\n      0xffffffffffffffffffffffffffffffffffffffff\n      and\n      0x095ea7b3\n        /* \"src/TokenSwap.sol\":4533:4543  swapRouter */\n      0x02\n      0x00\n      swap1\n      sload\n      swap1\n      0x0100\n      exp\n      swap1\n      div\n      0xffffffffffffffffffffffffffffffffffffffff\n      and\n        /* \"src/TokenSwap.sol\":4546:4554  amountIn */\n      dup8\n        /* \"src/TokenSwap.sol\":4498:4555  IERC20(inputToken).approve(address(swapRouter), amountIn) */\n      mload(0x40)\n      dup4\n      0xffffffff\n      and\n      0xe0\n      shl\n      dup2\n      mstore\n      0x04\n      add\n      tag_113\n      swap3\n      swap2\n      swap1\n      tag_114\n      jump\t// in\n    tag_113:\n      0x20\n      mload(0x40)\n      dup1\n      dup4\n      sub\n      dup2\n      0x00\n      dup8\n      gas\n      call\n      iszero\n      dup1\n      iszero\n      tag_116\n      jumpi\n      returndatasize\n      0x00\n      dup1\n      returndatacopy\n      revert(0x00, returndatasize)\n    tag_116:\n      pop\n      pop\n      pop\n      pop\n      mload(0x40)\n      returndatasize\n      not(0x1f)\n      0x1f\n      dup3\n      add\n      and\n      dup3\n      add\n      dup1\n      0x40\n      mstore\n      pop\n      dup2\n      add\n      swap1\n      tag_117\n      swap2\n      swap1\n      tag_112\n      jump\t// in\n    tag_117:\n      pop\n        /* \"src/TokenSwap.sol\":4566:4614  ISwapRouter.ExactInputSingleParams memory params */\n      0x00\n        /* \"src/TokenSwap.sol\":4629:4980  ISwapRouter.ExactInputSingleParams({... */\n      mload(0x40)\n      dup1\n      0x0100\n      add\n      0x40\n      mstore\n      dup1\n        /* \"src/TokenSwap.sol\":4691:4701  inputToken */\n      dup9\n        /* \"src/TokenSwap.sol\":4629:4980  ISwapRouter.ExactInputSingleParams({... */\n      0xffffffffffffffffffffffffffffffffffffffff\n      and\n      dup2\n      mstore\n      0x20\n      add\n        /* \"src/TokenSwap.sol\":4729:4733  USDC */\n      immutable(\"0x196bc5dfea832b0eb08b0412990d893a3342c7f023cd516b16aea5eba5390ef7\")\n        /* \"src/TokenSwap.sol\":4629:4980  ISwapRouter.ExactInputSingleParams({... */\n      0xffffffffffffffffffffffffffffffffffffffff\n      and\n      dup2\n      mstore\n      0x20\n      add\n        /* \"src/TokenSwap.sol\":1039:1043  3000 */\n      0x0bb8\n        /* \"src/TokenSwap.sol\":4629:4980  ISwapRouter.ExactInputSingleParams({... */\n      0xffffff\n      and\n      dup2\n      mstore\n      0x20\n      add\n        /* \"src/TokenSwap.sol\":4793:4803  msg.sender */\n      caller\n        /* \"src/TokenSwap.sol\":4629:4980  ISwapRouter.ExactInputSingleParams({... */\n      0xffffffffffffffffffffffffffffffffffffffff\n      and\n      dup2\n      mstore\n      0x20\n      add\n        /* \"src/TokenSwap.sol\":4831:4839  deadline */\n      dup6\n        /* \"src/TokenSwap.sol\":4629:4980  ISwapRouter.ExactInputSingleParams({... */\n      dup2\n      mstore\n      0x20\n      add\n        /* \"src/TokenSwap.sol\":4867:4875  amountIn */\n      dup8\n        /* \"src/TokenSwap.sol\":4629:4980  ISwapRouter.ExactInputSingleParams({... */\n      dup2\n      mstore\n      0x20\n      add\n        /* \"src/TokenSwap.sol\":4911:4927  amountOutMinimum */\n      dup7\n        /* \"src/TokenSwap.sol\":4629:4980  ISwapRouter.ExactInputSingleParams({... */\n      dup2\n      mstore\n      0x20\n      add\n        /* \"src/TokenSwap.sol\":4964:4965  0 */\n      0x00\n        /* \"src/TokenSwap.sol\":4629:4980  ISwapRouter.ExactInputSingleParams({... */\n      0xffffffffffffffffffffffffffffffffffffffff\n      and\n      dup2\n      mstore\n      pop\n        /* \"src/TokenSwap.sol\":4566:4980  ISwapRouter.ExactInputSingleParams memory params =... */\n      swap1\n      pop\n        /* \"src/TokenSwap.sol\":5003:5013  swapRouter */\n      0x02\n      0x00\n      swap1\n      sload\n      swap1\n      0x0100\n      exp\n      swap1\n      div\n      0xffffffffffffffffffffffffffffffffffffffff\n      and\n        /* \"src/TokenSwap.sol\":5003:5030  swapRouter.exactInputSingle */\n      0xffffffffffffffffffffffffffffffffffffffff\n      and\n      0x414bf389\n        /* \"src/TokenSwap.sol\":5031:5037  params */\n      dup3\n        /* \"src/TokenSwap.sol\":5003:5038  swapRouter.exactInputSingle(params) */\n      mload(0x40)\n      dup3\n      0xffffffff\n      and\n      0xe0\n      shl\n      dup2\n      mstore\n      0x04\n      add\n      tag_118\n      swap2\n      swap1\n      tag_119\n      jump\t// in\n    tag_118:\n      0x20\n      mload(0x40)\n      dup1\n      dup4\n      sub\n      dup2\n      0x00\n      dup8\n      gas\n      call\n      iszero\n      dup1\n      iszero\n      tag_121\n      jumpi\n      returndatasize\n      0x00\n      dup1\n      returndatacopy\n      revert(0x00, returndatasize)\n    tag_121:\n      pop\n      pop\n      pop\n      pop\n      mload(0x40)\n      returndatasize\n      not(0x1f)\n      0x1f\n      dup3\n      add\n      and\n      dup3\n      add\n      dup1\n      0x40\n      mstore\n      pop\n      dup2\n      add\n      swap1\n      tag_122\n      swap2\n      swap1\n      tag_123\n      jump\t// in\n    tag_122:\n        /* \"src/TokenSwap.sol\":4991:5038  amountOut = swapRouter.exactInputSingle(params) */\n      swap3\n      pop\n        /* \"src/TokenSwap.sol\":5070:5086  amountOutMinimum */\n      dup5\n        /* \"src/TokenSwap.sol\":5057:5066  amountOut */\n      dup4\n        /* \"src/TokenSwap.sol\":5057:5086  amountOut >= amountOutMinimum */\n      lt\n      iszero\n        /* \"src/TokenSwap.sol\":5049:5117  require(amountOut >= amountOutMinimum, \"Insufficient output amount\") */\n      tag_124\n      jumpi\n      mload(0x40)\n      0x08c379a000000000000000000000000000000000000000000000000000000000\n      dup2\n      mstore\n      0x04\n      add\n      tag_125\n      swap1\n      tag_126\n      jump\t// in\n    tag_125:\n      mload(0x40)\n      dup1\n      swap2\n      sub\n      swap1\n      revert\n    tag_124:\n        /* \"src/TokenSwap.sol\":5158:5168  inputToken */\n      dup7\n        /* \"src/TokenSwap.sol\":5133:5190  TokenSwapped(msg.sender, inputToken, amountIn, amountOut) */\n      0xffffffffffffffffffffffffffffffffffffffff\n      and\n        /* \"src/TokenSwap.sol\":5146:5156  msg.sender */\n      caller\n        /* \"src/TokenSwap.sol\":5133:5190  TokenSwapped(msg.sender, inputToken, amountIn, amountOut) */\n      0xffffffffffffffffffffffffffffffffffffffff\n      and\n      0x30b60ee4dc75c0fb04420331b13e9ad7f8ff8fc51eac9c97d36fb20ccbe09d66\n        /* \"src/TokenSwap.sol\":5170:5178  amountIn */\n      dup9\n        /* \"src/TokenSwap.sol\":5180:5189  amountOut */\n      dup7\n        /* \"src/TokenSwap.sol\":5133:5190  TokenSwapped(msg.sender, inputToken, amountIn, amountOut) */\n      mload(0x40)\n      tag_127\n      swap3\n      swap2\n      swap1\n      tag_128\n      jump\t// in\n    tag_127:\n      mload(0x40)\n      dup1\n      swap2\n      sub\n      swap1\n      log3\n        /* \"src/TokenSwap.sol\":4336:5197  {... */\n      pop\n        /* \"lib/openzeppelin-contracts/contracts/utils/ReentrancyGuard.sol\":2531:2532  _ */\n      pop\n        /* \"lib/openzeppelin-contracts/contracts/utils/ReentrancyGuard.sol\":2542:2562  _nonReentrantAfter() */\n      tag_129\n        /* \"lib/openzeppelin-contracts/contracts/utils/ReentrancyGuard.sol\":2542:2560  _nonReentrantAfter */\n      tag_130\n        /* \"lib/openzeppelin-contracts/contracts/utils/ReentrancyGuard.sol\":2542:2562  _nonReentrantAfter() */\n      jump\t// in\n    tag_129:\n        /* \"src/TokenSwap.sol\":4080:5197  function swapToUSDC(... */\n      swap5\n      swap4\n      pop\n      pop\n      pop\n      pop\n      jump\t// out\n        /* \"lib/openzeppelin-contracts/contracts/access/AccessControl.sol\":3810:3930  function getRoleAdmin(bytes32 role) public view virtual returns (bytes32) {... */\n    tag_38:\n        /* \"lib/openzeppelin-contracts/contracts/access/AccessControl.sol\":3875:3882  bytes32 */\n      0x00\n        /* \"lib/openzeppelin-contracts/contracts/access/AccessControl.sol\":3901:3907  _roles */\n      dup1\n        /* \"lib/openzeppelin-contracts/contracts/access/AccessControl.sol\":3901:3913  _roles[role] */\n      0x00\n        /* \"lib/openzeppelin-contracts/contracts/access/AccessControl.sol\":3908:3912  role */\n      dup4\n        /* \"lib/openzeppelin-contracts/contracts/access/AccessControl.sol\":3901:3913  _roles[role] */\n      dup2\n      mstore\n      0x20\n      add\n      swap1\n      dup2\n      mstore\n      0x20\n      add\n      0x00\n      keccak256\n        /* \"lib/openzeppelin-contracts/contracts/access/AccessControl.sol\":3901:3923  _roles[role].adminRole */\n      0x01\n      add\n      sload\n        /* \"lib/openzeppelin-contracts/contracts/access/AccessControl.sol\":3894:3923  return _roles[role].adminRole */\n      swap1\n      pop\n        /* \"lib/openzeppelin-contracts/contracts/access/AccessControl.sol\":3810:3930  function getRoleAdmin(bytes32 role) public view virtual returns (bytes32) {... */\n      swap2\n      swap1\n      pop\n      jump\t// out\n        /* \"lib/openzeppelin-contracts/contracts/access/AccessControl.sol\":4226:4362  function grantRole(bytes32 role, address account) public virtual onlyRole(getRoleAdmin(role)) {... */\n    tag_44:\n        /* \"lib/openzeppelin-contracts/contracts/access/AccessControl.sol\":4300:4318  getRoleAdmin(role) */\n      tag_132\n        /* \"lib/openzeppelin-contracts/contracts/access/AccessControl.sol\":4313:4317  role */\n      dup3\n        /* \"lib/openzeppelin-contracts/contracts/access/AccessControl.sol\":4300:4312  getRoleAdmin */\n      tag_38\n        /* \"lib/openzeppelin-contracts/contracts/access/AccessControl.sol\":4300:4318  getRoleAdmin(role) */\n      jump\t// in\n    tag_132:\n        /* \"lib/openzeppelin-contracts/contracts/access/AccessControl.sol\":2464:2480  _checkRole(role) */\n      tag_134\n        /* \"lib/openzeppelin-contracts/contracts/access/AccessControl.sol\":2475:2479  role */\n      dup2\n        /* \"lib/openzeppelin-contracts/contracts/access/AccessControl.sol\":2464:2474  _checkRole */\n      tag_135\n        /* \"lib/openzeppelin-contracts/contracts/access/AccessControl.sol\":2464:2480  _checkRole(role) */\n      jump\t// in\n    tag_134:\n        /* \"lib/openzeppelin-contracts/contracts/access/AccessControl.sol\":4330:4355  _grantRole(role, account) */\n      tag_137\n        /* \"lib/openzeppelin-contracts/contracts/access/AccessControl.sol\":4341:4345  role */\n      dup4\n        /* \"lib/openzeppelin-contracts/contracts/access/AccessControl.sol\":4347:4354  account */\n      dup4\n        /* \"lib/openzeppelin-contracts/contracts/access/AccessControl.sol\":4330:4340  _grantRole */\n      tag_138\n        /* \"lib/openzeppelin-contracts/contracts/access/AccessControl.sol\":4330:4355  _grantRole(role, account) */\n      jump\t// in\n    tag_137:\n      pop\n        /* \"lib/openzeppelin-contracts/contracts/access/AccessControl.sol\":4226:4362  function grantRole(bytes32 role, address account) public virtual onlyRole(getRoleAdmin(role)) {... */\n      pop\n      pop\n      pop\n      jump\t// out\n        /* \"lib/openzeppelin-contracts/contracts/access/AccessControl.sol\":5328:5573  function renounceRole(bytes32 role, address callerConfirmation) public virtual {... */\n    tag_47:\n        /* \"lib/openzeppelin-contracts/contracts/access/AccessControl.sol\":5443:5455  _msgSender() */\n      tag_140\n        /* \"lib/openzeppelin-contracts/contracts/access/AccessControl.sol\":5443:5453  _msgSender */\n      tag_141\n        /* \"lib/openzeppelin-contracts/contracts/access/AccessControl.sol\":5443:5455  _msgSender() */\n      jump\t// in\n    tag_140:\n        /* \"lib/openzeppelin-contracts/contracts/access/AccessControl.sol\":5421:5455  callerConfirmation != _msgSender() */\n      0xffffffffffffffffffffffffffffffffffffffff\n      and\n        /* \"lib/openzeppelin-contracts/contracts/access/AccessControl.sol\":5421:5439  callerConfirmation */\n      dup2\n        /* \"lib/openzeppelin-contracts/contracts/access/AccessControl.sol\":5421:5455  callerConfirmation != _msgSender() */\n      0xffffffffffffffffffffffffffffffffffffffff\n      and\n      eq\n        /* \"lib/openzeppelin-contracts/contracts/access/AccessControl.sol\":5417:5519  if (callerConfirmation != _msgSender()) {... */\n      tag_142\n      jumpi\n        /* \"lib/openzeppelin-contracts/contracts/access/AccessControl.sol\":5478:5508  AccessControlBadConfirmation() */\n      mload(0x40)\n      0x6697b23200000000000000000000000000000000000000000000000000000000\n      dup2\n      mstore\n      0x04\n      add\n      mload(0x40)\n      dup1\n      swap2\n      sub\n      swap1\n      revert\n        /* \"lib/openzeppelin-contracts/contracts/access/AccessControl.sol\":5417:5519  if (callerConfirmation != _msgSender()) {... */\n    tag_142:\n        /* \"lib/openzeppelin-contracts/contracts/access/AccessControl.sol\":5529:5566  _revokeRole(role, callerConfirmation) */\n      tag_143\n        /* \"lib/openzeppelin-contracts/contracts/access/AccessControl.sol\":5541:5545  role */\n      dup3\n        /* \"lib/openzeppelin-contracts/contracts/access/AccessControl.sol\":5547:5565  callerConfirmation */\n      dup3\n        /* \"lib/openzeppelin-contracts/contracts/access/AccessControl.sol\":5529:5540  _revokeRole */\n      tag_144\n        /* \"lib/openzeppelin-contracts/contracts/access/AccessControl.sol\":5529:5566  _revokeRole(role, callerConfirmation) */\n      jump\t// in\n    tag_143:\n      pop\n        /* \"lib/openzeppelin-contracts/contracts/access/AccessControl.sol\":5328:5573  function renounceRole(bytes32 role, address callerConfirmation) public virtual {... */\n      pop\n      pop\n      jump\t// out\n        /* \"src/TokenSwap.sol\":898:944  mapping(address => bool) public approvedTokens */\n    tag_51:\n      mstore(0x20, 0x03)\n      dup1\n      0x00\n      mstore\n      keccak256(0x00, 0x40)\n      0x00\n      swap2\n      pop\n      sload\n      swap1\n      0x0100\n      exp\n      swap1\n      div\n      0xff\n      and\n      dup2\n      jump\t// out\n        /* \"src/TokenSwap.sol\":610:670  bytes32 public constant ADMIN_ROLE = keccak256(\"ADMIN_ROLE\") */\n    tag_54:\n        /* \"src/TokenSwap.sol\":647:670  keccak256(\"ADMIN_ROLE\") */\n      0xa49807205ce4d355092ef5a8a18f56e8913cf4a201fbe287825b095693c21775\n        /* \"src/TokenSwap.sol\":610:670  bytes32 public constant ADMIN_ROLE = keccak256(\"ADMIN_ROLE\") */\n      dup2\n      jump\t// out\n        /* \"src/TokenSwap.sol\":2589:2867  function approveToken(address token) external onlyRole(ADMIN_ROLE) {... */\n    tag_58:\n        /* \"src/TokenSwap.sol\":647:670  keccak256(\"ADMIN_ROLE\") */\n      0xa49807205ce4d355092ef5a8a18f56e8913cf4a201fbe287825b095693c21775\n        /* \"lib/openzeppelin-contracts/contracts/access/AccessControl.sol\":2464:2480  _checkRole(role) */\n      tag_146\n        /* \"lib/openzeppelin-contracts/contracts/access/AccessControl.sol\":2475:2479  role */\n      dup2\n        /* \"lib/openzeppelin-contracts/contracts/access/AccessControl.sol\":2464:2474  _checkRole */\n      tag_135\n        /* \"lib/openzeppelin-contracts/contracts/access/AccessControl.sol\":2464:2480  _checkRole(role) */\n      jump\t// in\n    tag_146:\n        /* \"src/TokenSwap.sol\":2683:2687  USDC */\n      immutable(\"0x196bc5dfea832b0eb08b0412990d893a3342c7f023cd516b16aea5eba5390ef7\")\n        /* \"src/TokenSwap.sol\":2674:2687  token != USDC */\n      0xffffffffffffffffffffffffffffffffffffffff\n      and\n        /* \"src/TokenSwap.sol\":2674:2679  token */\n      dup3\n        /* \"src/TokenSwap.sol\":2674:2687  token != USDC */\n      0xffffffffffffffffffffffffffffffffffffffff\n      and\n      sub\n        /* \"src/TokenSwap.sol\":2666:2724  require(token != USDC, \"USDC is already the target token\") */\n      tag_148\n      jumpi\n      mload(0x40)\n      0x08c379a000000000000000000000000000000000000000000000000000000000\n      dup2\n      mstore\n      0x04\n      add\n      tag_149\n      swap1\n      tag_150\n      jump\t// in\n    tag_149:\n      mload(0x40)\n      dup1\n      swap2\n      sub\n      swap1\n      revert\n    tag_148:\n        /* \"src/TokenSwap.sol\":2759:2760  0 */\n      0x00\n        /* \"src/TokenSwap.sol\":2742:2761  token != address(0) */\n      0xffffffffffffffffffffffffffffffffffffffff\n      and\n        /* \"src/TokenSwap.sol\":2742:2747  token */\n      dup3\n        /* \"src/TokenSwap.sol\":2742:2761  token != address(0) */\n      0xffffffffffffffffffffffffffffffffffffffff\n      and\n      sub\n        /* \"src/TokenSwap.sol\":2734:2787  require(token != address(0), \"Invalid token address\") */\n      tag_151\n      jumpi\n      mload(0x40)\n      0x08c379a000000000000000000000000000000000000000000000000000000000\n      dup2\n      mstore\n      0x04\n      add\n      tag_152\n      swap1\n      tag_153\n      jump\t// in\n    tag_152:\n      mload(0x40)\n      dup1\n      swap2\n      sub\n      swap1\n      revert\n    tag_151:\n        /* \"src/TokenSwap.sol\":2821:2825  true */\n      0x01\n        /* \"src/TokenSwap.sol\":2797:2811  approvedTokens */\n      0x03\n        /* \"src/TokenSwap.sol\":2797:2818  approvedTokens[token] */\n      0x00\n        /* \"src/TokenSwap.sol\":2812:2817  token */\n      dup5\n        /* \"src/TokenSwap.sol\":2797:2818  approvedTokens[token] */\n      0xffffffffffffffffffffffffffffffffffffffff\n      and\n      0xffffffffffffffffffffffffffffffffffffffff\n      and\n      dup2\n      mstore\n      0x20\n      add\n      swap1\n      dup2\n      mstore\n      0x20\n      add\n      0x00\n      keccak256\n      0x00\n        /* \"src/TokenSwap.sol\":2797:2825  approvedTokens[token] = true */\n      0x0100\n      exp\n      dup2\n      sload\n      dup2\n      0xff\n      mul\n      not\n      and\n      swap1\n      dup4\n      iszero\n      iszero\n      mul\n      or\n      swap1\n      sstore\n      pop\n        /* \"src/TokenSwap.sol\":2854:2859  token */\n      dup2\n        /* \"src/TokenSwap.sol\":2840:2860  TokenApproved(token) */\n      0xffffffffffffffffffffffffffffffffffffffff\n      and\n      0x5f5916d70d5479c1795a9d461360dfa5c673bc37904c8ab4fcbdc970b9e90f3d\n      mload(0x40)\n      mload(0x40)\n      dup1\n      swap2\n      sub\n      swap1\n      log2\n        /* \"src/TokenSwap.sol\":2589:2867  function approveToken(address token) external onlyRole(ADMIN_ROLE) {... */\n      pop\n      pop\n      jump\t// out\n        /* \"src/TokenSwap.sol\":789:818  address public immutable USDC */\n    tag_60:\n      immutable(\"0x196bc5dfea832b0eb08b0412990d893a3342c7f023cd516b16aea5eba5390ef7\")\n      dup2\n      jump\t// out\n        /* \"lib/openzeppelin-contracts/contracts/access/AccessControl.sol\":2854:2990  function hasRole(bytes32 role, address account) public view virtual returns (bool) {... */\n    tag_65:\n        /* \"lib/openzeppelin-contracts/contracts/access/AccessControl.sol\":2931:2935  bool */\n      0x00\n        /* \"lib/openzeppelin-contracts/contracts/access/AccessControl.sol\":2954:2960  _roles */\n      dup1\n        /* \"lib/openzeppelin-contracts/contracts/access/AccessControl.sol\":2954:2966  _roles[role] */\n      0x00\n        /* \"lib/openzeppelin-contracts/contracts/access/AccessControl.sol\":2961:2965  role */\n      dup5\n        /* \"lib/openzeppelin-contracts/contracts/access/AccessControl.sol\":2954:2966  _roles[role] */\n      dup2\n      mstore\n      0x20\n      add\n      swap1\n      dup2\n      mstore\n      0x20\n      add\n      0x00\n      keccak256\n        /* \"lib/openzeppelin-contracts/contracts/access/AccessControl.sol\":2954:2974  _roles[role].hasRole */\n      0x00\n      add\n        /* \"lib/openzeppelin-contracts/contracts/access/AccessControl.sol\":2954:2983  _roles[role].hasRole[account] */\n      0x00\n        /* \"lib/openzeppelin-contracts/contracts/access/AccessControl.sol\":2975:2982  account */\n      dup4\n        /* \"lib/openzeppelin-contracts/contracts/access/AccessControl.sol\":2954:2983  _roles[role].hasRole[account] */\n      0xffffffffffffffffffffffffffffffffffffffff\n      and\n      0xffffffffffffffffffffffffffffffffffffffff\n      and\n      dup2\n      mstore\n      0x20\n      add\n      swap1\n      dup2\n      mstore\n      0x20\n      add\n      0x00\n      keccak256\n      0x00\n      swap1\n      sload\n      swap1\n      0x0100\n      exp\n      swap1\n      div\n      0xff\n      and\n        /* \"lib/openzeppelin-contracts/contracts/access/AccessControl.sol\":2947:2983  return _roles[role].hasRole[account] */\n      swap1\n      pop\n        /* \"lib/openzeppelin-contracts/contracts/access/AccessControl.sol\":2854:2990  function hasRole(bytes32 role, address account) public view virtual returns (bool) {... */\n      swap3\n      swap2\n      pop\n      pop\n      jump\t// out\n        /* \"src/TokenSwap.sol\":3002:3213  function revokeToken(address token) external onlyRole(ADMIN_ROLE) {... */\n    tag_69:\n        /* \"src/TokenSwap.sol\":647:670  keccak256(\"ADMIN_ROLE\") */\n      0xa49807205ce4d355092ef5a8a18f56e8913cf4a201fbe287825b095693c21775\n        /* \"lib/openzeppelin-contracts/contracts/access/AccessControl.sol\":2464:2480  _checkRole(role) */\n      tag_156\n        /* \"lib/openzeppelin-contracts/contracts/access/AccessControl.sol\":2475:2479  role */\n      dup2\n        /* \"lib/openzeppelin-contracts/contracts/access/AccessControl.sol\":2464:2474  _checkRole */\n      tag_135\n        /* \"lib/openzeppelin-contracts/contracts/access/AccessControl.sol\":2464:2480  _checkRole(role) */\n      jump\t// in\n    tag_156:\n        /* \"src/TokenSwap.sol\":3086:3100  approvedTokens */\n      0x03\n        /* \"src/TokenSwap.sol\":3086:3107  approvedTokens[token] */\n      0x00\n        /* \"src/TokenSwap.sol\":3101:3106  token */\n      dup4\n        /* \"src/TokenSwap.sol\":3086:3107  approvedTokens[token] */\n      0xffffffffffffffffffffffffffffffffffffffff\n      and\n      0xffffffffffffffffffffffffffffffffffffffff\n      and\n      dup2\n      mstore\n      0x20\n      add\n      swap1\n      dup2\n      mstore\n      0x20\n      add\n      0x00\n      keccak256\n      0x00\n      swap1\n      sload\n      swap1\n      0x0100\n      exp\n      swap1\n      div\n      0xff\n      and\n        /* \"src/TokenSwap.sol\":3078:3133  require(approvedTokens[token], \"Token is not approved\") */\n      tag_158\n      jumpi\n      mload(0x40)\n      0x08c379a000000000000000000000000000000000000000000000000000000000\n      dup2\n      mstore\n      0x04\n      add\n      tag_159\n      swap1\n      tag_160\n      jump\t// in\n    tag_159:\n      mload(0x40)\n      dup1\n      swap2\n      sub\n      swap1\n      revert\n    tag_158:\n        /* \"src/TokenSwap.sol\":3167:3172  false */\n      0x00\n        /* \"src/TokenSwap.sol\":3143:3157  approvedTokens */\n      0x03\n        /* \"src/TokenSwap.sol\":3143:3164  approvedTokens[token] */\n      0x00\n        /* \"src/TokenSwap.sol\":3158:3163  token */\n      dup5\n        /* \"src/TokenSwap.sol\":3143:3164  approvedTokens[token] */\n      0xffffffffffffffffffffffffffffffffffffffff\n      and\n      0xffffffffffffffffffffffffffffffffffffffff\n      and\n      dup2\n      mstore\n      0x20\n      add\n      swap1\n      dup2\n      mstore\n      0x20\n      add\n      0x00\n      keccak256\n      0x00\n        /* \"src/TokenSwap.sol\":3143:3172  approvedTokens[token] = false */\n      0x0100\n      exp\n      dup2\n      sload\n      dup2\n      0xff\n      mul\n      not\n      and\n      swap1\n      dup4\n      iszero\n      iszero\n      mul\n      or\n      swap1\n      sstore\n      pop\n        /* \"src/TokenSwap.sol\":3200:3205  token */\n      dup2\n        /* \"src/TokenSwap.sol\":3187:3206  TokenRevoked(token) */\n      0xffffffffffffffffffffffffffffffffffffffff\n      and\n      0x45f62f30e7b8439e0da7d8e560fe39d01238091ce9e789e3d12b514edf98acea\n      mload(0x40)\n      mload(0x40)\n      dup1\n      swap2\n      sub\n      swap1\n      log2\n        /* \"src/TokenSwap.sol\":3002:3213  function revokeToken(address token) external onlyRole(ADMIN_ROLE) {... */\n      pop\n      pop\n      jump\t// out\n        /* \"src/TokenSwap.sol\":5465:5596  function isTokenApproved(address token) external view returns (bool isApproved) {... */\n    tag_72:\n        /* \"src/TokenSwap.sol\":5528:5543  bool isApproved */\n      0x00\n        /* \"src/TokenSwap.sol\":5568:5582  approvedTokens */\n      0x03\n        /* \"src/TokenSwap.sol\":5568:5589  approvedTokens[token] */\n      0x00\n        /* \"src/TokenSwap.sol\":5583:5588  token */\n      dup4\n        /* \"src/TokenSwap.sol\":5568:5589  approvedTokens[token] */\n      0xffffffffffffffffffffffffffffffffffffffff\n      and\n      0xffffffffffffffffffffffffffffffffffffffff\n      and\n      dup2\n      mstore\n      0x20\n      add\n      swap1\n      dup2\n      mstore\n      0x20\n      add\n      0x00\n      keccak256\n      0x00\n      swap1\n      sload\n      swap1\n      0x0100\n      exp\n      swap1\n      div\n      0xff\n      and\n        /* \"src/TokenSwap.sol\":5555:5589  isApproved = approvedTokens[token] */\n      swap1\n      pop\n        /* \"src/TokenSwap.sol\":5465:5596  function isTokenApproved(address token) external view returns (bool isApproved) {... */\n      swap2\n      swap1\n      pop\n      jump\t// out\n        /* \"lib/openzeppelin-contracts/contracts/access/AccessControl.sol\":2187:2236  bytes32 public constant DEFAULT_ADMIN_ROLE = 0x00 */\n    tag_75:\n        /* \"lib/openzeppelin-contracts/contracts/access/AccessControl.sol\":2232:2236  0x00 */\n      0x00\n        /* \"lib/openzeppelin-contracts/contracts/access/AccessControl.sol\":2187:2236  bytes32 public constant DEFAULT_ADMIN_ROLE = 0x00 */\n      dup1\n      shl\n      dup2\n      jump\t// out\n        /* \"src/TokenSwap.sol\":3342:3548  function updateSwapRouter(ISwapRouter _swapRouter) external onlyRole(ADMIN_ROLE) {... */\n    tag_80:\n        /* \"src/TokenSwap.sol\":647:670  keccak256(\"ADMIN_ROLE\") */\n      0xa49807205ce4d355092ef5a8a18f56e8913cf4a201fbe287825b095693c21775\n        /* \"lib/openzeppelin-contracts/contracts/access/AccessControl.sol\":2464:2480  _checkRole(role) */\n      tag_163\n        /* \"lib/openzeppelin-contracts/contracts/access/AccessControl.sol\":2475:2479  role */\n      dup2\n        /* \"lib/openzeppelin-contracts/contracts/access/AccessControl.sol\":2464:2474  _checkRole */\n      tag_135\n        /* \"lib/openzeppelin-contracts/contracts/access/AccessControl.sol\":2464:2480  _checkRole(role) */\n      jump\t// in\n    tag_163:\n        /* \"src/TokenSwap.sol\":3473:3474  0 */\n      0x00\n        /* \"src/TokenSwap.sol\":3441:3475  address(_swapRouter) != address(0) */\n      0xffffffffffffffffffffffffffffffffffffffff\n      and\n        /* \"src/TokenSwap.sol\":3449:3460  _swapRouter */\n      dup3\n        /* \"src/TokenSwap.sol\":3441:3475  address(_swapRouter) != address(0) */\n      0xffffffffffffffffffffffffffffffffffffffff\n      and\n      sub\n        /* \"src/TokenSwap.sol\":3433:3507  require(address(_swapRouter) != address(0), \"Invalid swap router address\") */\n      tag_165\n      jumpi\n      mload(0x40)\n      0x08c379a000000000000000000000000000000000000000000000000000000000\n      dup2\n      mstore\n      0x04\n      add\n      tag_166\n      swap1\n      tag_167\n      jump\t// in\n    tag_166:\n      mload(0x40)\n      dup1\n      swap2\n      sub\n      swap1\n      revert\n    tag_165:\n        /* \"src/TokenSwap.sol\":3530:3541  _swapRouter */\n      dup2\n        /* \"src/TokenSwap.sol\":3517:3527  swapRouter */\n      0x02\n      0x00\n        /* \"src/TokenSwap.sol\":3517:3541  swapRouter = _swapRouter */\n      0x0100\n      exp\n      dup2\n      sload\n      dup2\n      0xffffffffffffffffffffffffffffffffffffffff\n      mul\n      not\n      and\n      swap1\n      dup4\n      0xffffffffffffffffffffffffffffffffffffffff\n      and\n      mul\n      or\n      swap1\n      sstore\n      pop\n        /* \"src/TokenSwap.sol\":3342:3548  function updateSwapRouter(ISwapRouter _swapRouter) external onlyRole(ADMIN_ROLE) {... */\n      pop\n      pop\n      jump\t// out\n        /* \"src/TokenSwap.sol\":754:783  ISwapRouter public swapRouter */\n    tag_82:\n      0x02\n      0x00\n      swap1\n      sload\n      swap1\n      0x0100\n      exp\n      swap1\n      div\n      0xffffffffffffffffffffffffffffffffffffffff\n      and\n      dup2\n      jump\t// out\n        /* \"lib/openzeppelin-contracts/contracts/access/AccessControl.sol\":4642:4780  function revokeRole(bytes32 role, address account) public virtual onlyRole(getRoleAdmin(role)) {... */\n    tag_87:\n        /* \"lib/openzeppelin-contracts/contracts/access/AccessControl.sol\":4717:4735  getRoleAdmin(role) */\n      tag_168\n        /* \"lib/openzeppelin-contracts/contracts/access/AccessControl.sol\":4730:4734  role */\n      dup3\n        /* \"lib/openzeppelin-contracts/contracts/access/AccessControl.sol\":4717:4729  getRoleAdmin */\n      tag_38\n        /* \"lib/openzeppelin-contracts/contracts/access/AccessControl.sol\":4717:4735  getRoleAdmin(role) */\n      jump\t// in\n    tag_168:\n        /* \"lib/openzeppelin-contracts/contracts/access/AccessControl.sol\":2464:2480  _checkRole(role) */\n      tag_170\n        /* \"lib/openzeppelin-contracts/contracts/access/AccessControl.sol\":2475:2479  role */\n      dup2\n        /* \"lib/openzeppelin-contracts/contracts/access/AccessControl.sol\":2464:2474  _checkRole */\n      tag_135\n        /* \"lib/openzeppelin-contracts/contracts/access/AccessControl.sol\":2464:2480  _checkRole(role) */\n      jump\t// in\n    tag_170:\n        /* \"lib/openzeppelin-contracts/contracts/access/AccessControl.sol\":4747:4773  _revokeRole(role, account) */\n      tag_172\n        /* \"lib/openzeppelin-contracts/contracts/access/AccessControl.sol\":4759:4763  role */\n      dup4\n        /* \"lib/openzeppelin-contracts/contracts/access/AccessControl.sol\":4765:4772  account */\n      dup4\n        /* \"lib/openzeppelin-contracts/contracts/access/AccessControl.sol\":4747:4758  _revokeRole */\n      tag_144\n        /* \"lib/openzeppelin-contracts/contracts/access/AccessControl.sol\":4747:4773  _revokeRole(role, account) */\n      jump\t// in\n    tag_172:\n      pop\n        /* \"lib/openzeppelin-contracts/contracts/access/AccessControl.sol\":4642:4780  function revokeRole(bytes32 role, address account) public virtual onlyRole(getRoleAdmin(role)) {... */\n      pop\n      pop\n      pop\n      jump\t// out\n        /* \"src/TokenSwap.sol\":1005:1043  uint24 public constant POOL_FEE = 3000 */\n    tag_89:\n        /* \"src/TokenSwap.sol\":1039:1043  3000 */\n      0x0bb8\n        /* \"src/TokenSwap.sol\":1005:1043  uint24 public constant POOL_FEE = 3000 */\n      dup2\n      jump\t// out\n        /* \"lib/openzeppelin-contracts/contracts/utils/introspection/ERC165.sol\":763:909  function supportsInterface(bytes4 interfaceId) public view virtual returns (bool) {... */\n    tag_95:\n        /* \"lib/openzeppelin-contracts/contracts/utils/introspection/ERC165.sol\":839:843  bool */\n      0x00\n        /* \"lib/openzeppelin-contracts/contracts/utils/introspection/ERC165.sol\":877:902  type(IERC165).interfaceId */\n      0x01ffc9a700000000000000000000000000000000000000000000000000000000\n        /* \"lib/openzeppelin-contracts/contracts/utils/introspection/ERC165.sol\":862:902  interfaceId == type(IERC165).interfaceId */\n      not(0xffffffffffffffffffffffffffffffffffffffffffffffffffffffff)\n      and\n        /* \"lib/openzeppelin-contracts/contracts/utils/introspection/ERC165.sol\":862:873  interfaceId */\n      dup3\n        /* \"lib/openzeppelin-contracts/contracts/utils/introspection/ERC165.sol\":862:902  interfaceId == type(IERC165).interfaceId */\n      not(0xffffffffffffffffffffffffffffffffffffffffffffffffffffffff)\n      and\n      eq\n        /* \"lib/openzeppelin-contracts/contracts/utils/introspection/ERC165.sol\":855:902  return interfaceId == type(IERC165).interfaceId */\n      swap1\n      pop\n        /* \"lib/openzeppelin-contracts/contracts/utils/introspection/ERC165.sol\":763:909  function supportsInterface(bytes4 interfaceId) public view virtual returns (bool) {... */\n      swap2\n      swap1\n      pop\n      jump\t// out\n        /* \"lib/openzeppelin-contracts/contracts/utils/ReentrancyGuard.sol\":2575:2882  function _nonReentrantBefore() private {... */\n    tag_98:\n        /* \"lib/openzeppelin-contracts/contracts/utils/ReentrancyGuard.sol\":1899:1900  2 */\n      0x02\n        /* \"lib/openzeppelin-contracts/contracts/utils/ReentrancyGuard.sol\":2702:2709  _status */\n      sload(0x01)\n        /* \"lib/openzeppelin-contracts/contracts/utils/ReentrancyGuard.sol\":2702:2720  _status == ENTERED */\n      sub\n        /* \"lib/openzeppelin-contracts/contracts/utils/ReentrancyGuard.sol\":2698:2784  if (_status == ENTERED) {... */\n      tag_175\n      jumpi\n        /* \"lib/openzeppelin-contracts/contracts/utils/ReentrancyGuard.sol\":2743:2773  ReentrancyGuardReentrantCall() */\n      mload(0x40)\n      0x3ee5aeb500000000000000000000000000000000000000000000000000000000\n      dup2\n      mstore\n      0x04\n      add\n      mload(0x40)\n      dup1\n      swap2\n      sub\n      swap1\n      revert\n        /* \"lib/openzeppelin-contracts/contracts/utils/ReentrancyGuard.sol\":2698:2784  if (_status == ENTERED) {... */\n    tag_175:\n        /* \"lib/openzeppelin-contracts/contracts/utils/ReentrancyGuard.sol\":1899:1900  2 */\n      0x02\n        /* \"lib/openzeppelin-contracts/contracts/utils/ReentrancyGuard.sol\":2858:2865  _status */\n      0x01\n        /* \"lib/openzeppelin-contracts/contracts/utils/ReentrancyGuard.sol\":2858:2875  _status = ENTERED */\n      dup2\n      swap1\n      sstore\n      pop\n        /* \"lib/openzeppelin-contracts/contracts/utils/ReentrancyGuard.sol\":2575:2882  function _nonReentrantBefore() private {... */\n      jump\t// out\n        /* \"lib/openzeppelin-contracts/contracts/utils/ReentrancyGuard.sol\":2888:3096  function _nonReentrantAfter() private {... */\n    tag_130:\n        /* \"lib/openzeppelin-contracts/contracts/utils/ReentrancyGuard.sol\":1857:1858  1 */\n      0x01\n        /* \"lib/openzeppelin-contracts/contracts/utils/ReentrancyGuard.sol\":3068:3075  _status */\n      dup1\n        /* \"lib/openzeppelin-contracts/contracts/utils/ReentrancyGuard.sol\":3068:3089  _status = NOT_ENTERED */\n      dup2\n      swap1\n      sstore\n      pop\n        /* \"lib/openzeppelin-contracts/contracts/utils/ReentrancyGuard.sol\":2888:3096  function _nonReentrantAfter() private {... */\n      jump\t// out\n        /* \"lib/openzeppelin-contracts/contracts/access/AccessControl.sol\":3199:3302  function _checkRole(bytes32 role) internal view virtual {... */\n    tag_135:\n        /* \"lib/openzeppelin-contracts/contracts/access/AccessControl.sol\":3265:3295  _checkRole(role, _msgSender()) */\n      tag_178\n        /* \"lib/openzeppelin-contracts/contracts/access/AccessControl.sol\":3276:3280  role */\n      dup2\n        /* \"lib/openzeppelin-contracts/contracts/access/AccessControl.sol\":3282:3294  _msgSender() */\n      tag_179\n        /* \"lib/openzeppelin-contracts/contracts/access/AccessControl.sol\":3282:3292  _msgSender */\n      tag_141\n        /* \"lib/openzeppelin-contracts/contracts/access/AccessControl.sol\":3282:3294  _msgSender() */\n      jump\t// in\n    tag_179:\n        /* \"lib/openzeppelin-contracts/contracts/access/AccessControl.sol\":3265:3275  _checkRole */\n      tag_180\n        /* \"lib/openzeppelin-contracts/contracts/access/AccessControl.sol\":3265:3295  _checkRole(role, _msgSender()) */\n      jump\t// in\n    tag_178:\n        /* \"lib/openzeppelin-contracts/contracts/access/AccessControl.sol\":3199:3302  function _checkRole(bytes32 role) internal view virtual {... */\n      pop\n      jump\t// out\n        /* \"lib/openzeppelin-contracts/contracts/access/AccessControl.sol\":6179:6495  function _grantRole(bytes32 role, address account) internal virtual returns (bool) {... */\n    tag_138:\n        /* \"lib/openzeppelin-contracts/contracts/access/AccessControl.sol\":6256:6260  bool */\n      0x00\n        /* \"lib/openzeppelin-contracts/contracts/access/AccessControl.sol\":6277:6299  hasRole(role, account) */\n      tag_182\n        /* \"lib/openzeppelin-contracts/contracts/access/AccessControl.sol\":6285:6289  role */\n      dup4\n        /* \"lib/openzeppelin-contracts/contracts/access/AccessControl.sol\":6291:6298  account */\n      dup4\n        /* \"lib/openzeppelin-contracts/contracts/access/AccessControl.sol\":6277:6284  hasRole */\n      tag_65\n        /* \"lib/openzeppelin-contracts/contracts/access/AccessControl.sol\":6277:6299  hasRole(role, account) */\n      jump\t// in\n    tag_182:\n        /* \"lib/openzeppelin-contracts/contracts/access/AccessControl.sol\":6272:6489  if (!hasRole(role, account)) {... */\n      tag_183\n      jumpi\n        /* \"lib/openzeppelin-contracts/contracts/access/AccessControl.sol\":6347:6351  true */\n      0x01\n        /* \"lib/openzeppelin-contracts/contracts/access/AccessControl.sol\":6315:6321  _roles */\n      0x00\n        /* \"lib/openzeppelin-contracts/contracts/access/AccessControl.sol\":6315:6327  _roles[role] */\n      dup1\n        /* \"lib/openzeppelin-contracts/contracts/access/AccessControl.sol\":6322:6326  role */\n      dup6\n        /* \"lib/openzeppelin-contracts/contracts/access/AccessControl.sol\":6315:6327  _roles[role] */\n      dup2\n      mstore\n      0x20\n      add\n      swap1\n      dup2\n      mstore\n      0x20\n      add\n      0x00\n      keccak256\n        /* \"lib/openzeppelin-contracts/contracts/access/AccessControl.sol\":6315:6335  _roles[role].hasRole */\n      0x00\n      add\n        /* \"lib/openzeppelin-contracts/contracts/access/AccessControl.sol\":6315:6344  _roles[role].hasRole[account] */\n      0x00\n        /* \"lib/openzeppelin-contracts/contracts/access/AccessControl.sol\":6336:6343  account */\n      dup5\n        /* \"lib/openzeppelin-contracts/contracts/access/AccessControl.sol\":6315:6344  _roles[role].hasRole[account] */\n      0xffffffffffffffffffffffffffffffffffffffff\n      and\n      0xffffffffffffffffffffffffffffffffffffffff\n      and\n      dup2\n      mstore\n      0x20\n      add\n      swap1\n      dup2\n      mstore\n      0x20\n      add\n      0x00\n      keccak256\n      0x00\n        /* \"lib/openzeppelin-contracts/contracts/access/AccessControl.sol\":6315:6351  _roles[role].hasRole[account] = true */\n      0x0100\n      exp\n      dup2\n      sload\n      dup2\n      0xff\n      mul\n      not\n      and\n      swap1\n      dup4\n      iszero\n      iszero\n      mul\n      or\n      swap1\n      sstore\n      pop\n        /* \"lib/openzeppelin-contracts/contracts/access/AccessControl.sol\":6397:6409  _msgSender() */\n      tag_184\n        /* \"lib/openzeppelin-contracts/contracts/access/AccessControl.sol\":6397:6407  _msgSender */\n      tag_141\n        /* \"lib/openzeppelin-contracts/contracts/access/AccessControl.sol\":6397:6409  _msgSender() */\n      jump\t// in\n    tag_184:\n        /* \"lib/openzeppelin-contracts/contracts/access/AccessControl.sol\":6370:6410  RoleGranted(role, account, _msgSender()) */\n      0xffffffffffffffffffffffffffffffffffffffff\n      and\n        /* \"lib/openzeppelin-contracts/contracts/access/AccessControl.sol\":6388:6395  account */\n      dup3\n        /* \"lib/openzeppelin-contracts/contracts/access/AccessControl.sol\":6370:6410  RoleGranted(role, account, _msgSender()) */\n      0xffffffffffffffffffffffffffffffffffffffff\n      and\n        /* \"lib/openzeppelin-contracts/contracts/access/AccessControl.sol\":6382:6386  role */\n      dup5\n        /* \"lib/openzeppelin-contracts/contracts/access/AccessControl.sol\":6370:6410  RoleGranted(role, account, _msgSender()) */\n      0x2f8788117e7eff1d82e926ec794901d17c78024a50270940304540a733656f0d\n      mload(0x40)\n      mload(0x40)\n      dup1\n      swap2\n      sub\n      swap1\n      log4\n        /* \"lib/openzeppelin-contracts/contracts/access/AccessControl.sol\":6431:6435  true */\n      0x01\n        /* \"lib/openzeppelin-contracts/contracts/access/AccessControl.sol\":6424:6435  return true */\n      swap1\n      pop\n      jump(tag_181)\n        /* \"lib/openzeppelin-contracts/contracts/access/AccessControl.sol\":6272:6489  if (!hasRole(role, account)) {... */\n    tag_183:\n        /* \"lib/openzeppelin-contracts/contracts/access/AccessControl.sol\":6473:6478  false */\n      0x00\n        /* \"lib/openzeppelin-contracts/contracts/access/AccessControl.sol\":6466:6478  return false */\n      swap1\n      pop\n        /* \"lib/openzeppelin-contracts/contracts/access/AccessControl.sol\":6179:6495  function _grantRole(bytes32 role, address account) internal virtual returns (bool) {... */\n    tag_181:\n      swap3\n      swap2\n      pop\n      pop\n      jump\t// out\n        /* \"lib/openzeppelin-contracts/contracts/utils/Context.sol\":656:752  function _msgSender() internal view virtual returns (address) {... */\n    tag_141:\n        /* \"lib/openzeppelin-contracts/contracts/utils/Context.sol\":709:716  address */\n      0x00\n        /* \"lib/openzeppelin-contracts/contracts/utils/Context.sol\":735:745  msg.sender */\n      caller\n        /* \"lib/openzeppelin-contracts/contracts/utils/Context.sol\":728:745  return msg.sender */\n      swap1\n      pop\n        /* \"lib/openzeppelin-contracts/contracts/utils/Context.sol\":656:752  function _msgSender() internal view virtual returns (address) {... */\n      swap1\n      jump\t// out\n        /* \"lib/openzeppelin-contracts/contracts/access/AccessControl.sol\":6730:7047  function _revokeRole(bytes32 role, address account) internal virtual returns (bool) {... */\n    tag_144:\n        /* \"lib/openzeppelin-contracts/contracts/access/AccessControl.sol\":6808:6812  bool */\n      0x00\n        /* \"lib/openzeppelin-contracts/contracts/access/AccessControl.sol\":6828:6850  hasRole(role, account) */\n      tag_188\n        /* \"lib/openzeppelin-contracts/contracts/access/AccessControl.sol\":6836:6840  role */\n      dup4\n        /* \"lib/openzeppelin-contracts/contracts/access/AccessControl.sol\":6842:6849  account */\n      dup4\n        /* \"lib/openzeppelin-contracts/contracts/access/AccessControl.sol\":6828:6835  hasRole */\n      tag_65\n        /* \"lib/openzeppelin-contracts/contracts/access/AccessControl.sol\":6828:6850  hasRole(role, account) */\n      jump\t// in\n    tag_188:\n        /* \"lib/openzeppelin-contracts/contracts/access/AccessControl.sol\":6824:7041  if (hasRole(role, account)) {... */\n      iszero\n      tag_189\n      jumpi\n        /* \"lib/openzeppelin-contracts/contracts/access/AccessControl.sol\":6898:6903  false */\n      0x00\n        /* \"lib/openzeppelin-contracts/contracts/access/AccessControl.sol\":6866:6872  _roles */\n      dup1\n        /* \"lib/openzeppelin-contracts/contracts/access/AccessControl.sol\":6866:6878  _roles[role] */\n      0x00\n        /* \"lib/openzeppelin-contracts/contracts/access/AccessControl.sol\":6873:6877  role */\n      dup6\n        /* \"lib/openzeppelin-contracts/contracts/access/AccessControl.sol\":6866:6878  _roles[role] */\n      dup2\n      mstore\n      0x20\n      add\n      swap1\n      dup2\n      mstore\n      0x20\n      add\n      0x00\n      keccak256\n        /* \"lib/openzeppelin-contracts/contracts/access/AccessControl.sol\":6866:6886  _roles[role].hasRole */\n      0x00\n      add\n        /* \"lib/openzeppelin-contracts/contracts/access/AccessControl.sol\":6866:6895  _roles[role].hasRole[account] */\n      0x00\n        /* \"lib/openzeppelin-contracts/contracts/access/AccessControl.sol\":6887:6894  account */\n      dup5\n        /* \"lib/openzeppelin-contracts/contracts/access/AccessControl.sol\":6866:6895  _roles[role].hasRole[account] */\n      0xffffffffffffffffffffffffffffffffffffffff\n      and\n      0xffffffffffffffffffffffffffffffffffffffff\n      and\n      dup2\n      mstore\n      0x20\n      add\n      swap1\n      dup2\n      mstore\n      0x20\n      add\n      0x00\n      keccak256\n      0x00\n        /* \"lib/openzeppelin-contracts/contracts/access/AccessControl.sol\":6866:6903  _roles[role].hasRole[account] = false */\n      0x0100\n      exp\n      dup2\n      sload\n      dup2\n      0xff\n      mul\n      not\n      and\n      swap1\n      dup4\n      iszero\n      iszero\n      mul\n      or\n      swap1\n      sstore\n      pop\n        /* \"lib/openzeppelin-contracts/contracts/access/AccessControl.sol\":6949:6961  _msgSender() */\n      tag_190\n        /* \"lib/openzeppelin-contracts/contracts/access/AccessControl.sol\":6949:6959  _msgSender */\n      tag_141\n        /* \"lib/openzeppelin-contracts/contracts/access/AccessControl.sol\":6949:6961  _msgSender() */\n      jump\t// in\n    tag_190:\n        /* \"lib/openzeppelin-contracts/contracts/access/AccessControl.sol\":6922:6962  RoleRevoked(role, account, _msgSender()) */\n      0xffffffffffffffffffffffffffffffffffffffff\n      and\n        /* \"lib/openzeppelin-contracts/contracts/access/AccessControl.sol\":6940:6947  account */\n      dup3\n        /* \"lib/openzeppelin-contracts/contracts/access/AccessControl.sol\":6922:6962  RoleRevoked(role, account, _msgSender()) */\n      0xffffffffffffffffffffffffffffffffffffffff\n      and\n        /* \"lib/openzeppelin-contracts/contracts/access/AccessControl.sol\":6934:6938  role */\n      dup5\n        /* \"lib/openzeppelin-contracts/contracts/access/AccessControl.sol\":6922:6962  RoleRevoked(role, account, _msgSender()) */\n      0xf6391f5c32d9c69d2a47ea670b442974b53935d1edc7fd64eb21e047a839171b\n      mload(0x40)\n      mload(0x40)\n      dup1\n      swap2\n      sub\n      swap1\n      log4\n        /* \"lib/openzeppelin-contracts/contracts/access/AccessControl.sol\":6983:6987  true */\n      0x01\n        /* \"lib/openzeppelin-contracts/contracts/access/AccessControl.sol\":6976:6987  return true */\n      swap1\n      pop\n      jump(tag_187)\n        /* \"lib/openzeppelin-contracts/contracts/access/AccessControl.sol\":6824:7041  if (hasRole(role, account)) {... */\n    tag_189:\n        /* \"lib/openzeppelin-contracts/contracts/access/AccessControl.sol\":7025:7030  false */\n      0x00\n        /* \"lib/openzeppelin-contracts/contracts/access/AccessControl.sol\":7018:7030  return false */\n      swap1\n      pop\n        /* \"lib/openzeppelin-contracts/contracts/access/AccessControl.sol\":6730:7047  function _revokeRole(bytes32 role, address account) internal virtual returns (bool) {... */\n    tag_187:\n      swap3\n      swap2\n      pop\n      pop\n      jump\t// out\n        /* \"lib/openzeppelin-contracts/contracts/access/AccessControl.sol\":3432:3629  function _checkRole(bytes32 role, address account) internal view virtual {... */\n    tag_180:\n        /* \"lib/openzeppelin-contracts/contracts/access/AccessControl.sol\":3520:3542  hasRole(role, account) */\n      tag_193\n        /* \"lib/openzeppelin-contracts/contracts/access/AccessControl.sol\":3528:3532  role */\n      dup3\n        /* \"lib/openzeppelin-contracts/contracts/access/AccessControl.sol\":3534:3541  account */\n      dup3\n        /* \"lib/openzeppelin-contracts/contracts/access/AccessControl.sol\":3520:3527  hasRole */\n      tag_65\n        /* \"lib/openzeppelin-contracts/contracts/access/AccessControl.sol\":3520:3542  hasRole(role, account) */\n      jump\t// in\n    tag_193:\n        /* \"lib/openzeppelin-contracts/contracts/access/AccessControl.sol\":3515:3623  if (!hasRole(role, account)) {... */\n      tag_194\n      jumpi\n        /* \"lib/openzeppelin-contracts/contracts/access/AccessControl.sol\":3598:3605  account */\n      dup1\n        /* \"lib/openzeppelin-contracts/contracts/access/AccessControl.sol\":3607:3611  role */\n      dup3\n        /* \"lib/openzeppelin-contracts/contracts/access/AccessControl.sol\":3565:3612  AccessControlUnauthorizedAccount(account, role) */\n      mload(0x40)\n      0xe2517d3f00000000000000000000000000000000000000000000000000000000\n      dup2\n      mstore\n      0x04\n      add\n      tag_195\n      swap3\n      swap2\n      swap1\n      tag_196\n      jump\t// in\n    tag_195:\n      mload(0x40)\n      dup1\n      swap2\n      sub\n      swap1\n      revert\n        /* \"lib/openzeppelin-contracts/contracts/access/AccessControl.sol\":3515:3623  if (!hasRole(role, account)) {... */\n    tag_194:\n        /* \"lib/openzeppelin-contracts/contracts/access/AccessControl.sol\":3432:3629  function _checkRole(bytes32 role, address account) internal view virtual {... */\n      pop\n      pop\n      jump\t// out\n        /* \"#utility.yul\":88:205   */\n    tag_198:\n        /* \"#utility.yul\":197:198   */\n      0x00\n        /* \"#utility.yul\":194:195   */\n      dup1\n        /* \"#utility.yul\":187:199   */\n      revert\n        /* \"#utility.yul\":334:483   */\n    tag_200:\n        /* \"#utility.yul\":370:377   */\n      0x00\n        /* \"#utility.yul\":410:476   */\n      0xffffffff00000000000000000000000000000000000000000000000000000000\n        /* \"#utility.yul\":403:408   */\n      dup3\n        /* \"#utility.yul\":399:477   */\n      and\n        /* \"#utility.yul\":388:477   */\n      swap1\n      pop\n        /* \"#utility.yul\":334:483   */\n      swap2\n      swap1\n      pop\n      jump\t// out\n        /* \"#utility.yul\":489:609   */\n    tag_201:\n        /* \"#utility.yul\":561:584   */\n      tag_257\n        /* \"#utility.yul\":578:583   */\n      dup2\n        /* \"#utility.yul\":561:584   */\n      tag_200\n      jump\t// in\n    tag_257:\n        /* \"#utility.yul\":554:559   */\n      dup2\n        /* \"#utility.yul\":551:585   */\n      eq\n        /* \"#utility.yul\":541:603   */\n      tag_258\n      jumpi\n        /* \"#utility.yul\":599:600   */\n      0x00\n        /* \"#utility.yul\":596:597   */\n      dup1\n        /* \"#utility.yul\":589:601   */\n      revert\n        /* \"#utility.yul\":541:603   */\n    tag_258:\n        /* \"#utility.yul\":489:609   */\n      pop\n      jump\t// out\n        /* \"#utility.yul\":615:752   */\n    tag_202:\n        /* \"#utility.yul\":660:665   */\n      0x00\n        /* \"#utility.yul\":698:704   */\n      dup2\n        /* \"#utility.yul\":685:705   */\n      calldataload\n        /* \"#utility.yul\":676:705   */\n      swap1\n      pop\n        /* \"#utility.yul\":714:746   */\n      tag_260\n        /* \"#utility.yul\":740:745   */\n      dup2\n        /* \"#utility.yul\":714:746   */\n      tag_201\n      jump\t// in\n    tag_260:\n        /* \"#utility.yul\":615:752   */\n      swap3\n      swap2\n      pop\n      pop\n      jump\t// out\n        /* \"#utility.yul\":758:1085   */\n    tag_25:\n        /* \"#utility.yul\":816:822   */\n      0x00\n        /* \"#utility.yul\":865:867   */\n      0x20\n        /* \"#utility.yul\":853:862   */\n      dup3\n        /* \"#utility.yul\":844:851   */\n      dup5\n        /* \"#utility.yul\":840:863   */\n      sub\n        /* \"#utility.yul\":836:868   */\n      slt\n        /* \"#utility.yul\":833:952   */\n      iszero\n      tag_262\n      jumpi\n        /* \"#utility.yul\":871:950   */\n      tag_263\n      tag_198\n      jump\t// in\n    tag_263:\n        /* \"#utility.yul\":833:952   */\n    tag_262:\n        /* \"#utility.yul\":991:992   */\n      0x00\n        /* \"#utility.yul\":1016:1068   */\n      tag_264\n        /* \"#utility.yul\":1060:1067   */\n      dup5\n        /* \"#utility.yul\":1051:1057   */\n      dup3\n        /* \"#utility.yul\":1040:1049   */\n      dup6\n        /* \"#utility.yul\":1036:1058   */\n      add\n        /* \"#utility.yul\":1016:1068   */\n      tag_202\n      jump\t// in\n    tag_264:\n        /* \"#utility.yul\":1006:1068   */\n      swap2\n      pop\n        /* \"#utility.yul\":962:1078   */\n      pop\n        /* \"#utility.yul\":758:1085   */\n      swap3\n      swap2\n      pop\n      pop\n      jump\t// out\n        /* \"#utility.yul\":1091:1181   */\n    tag_203:\n        /* \"#utility.yul\":1125:1132   */\n      0x00\n        /* \"#utility.yul\":1168:1173   */\n      dup2\n        /* \"#utility.yul\":1161:1174   */\n      iszero\n        /* \"#utility.yul\":1154:1175   */\n      iszero\n        /* \"#utility.yul\":1143:1175   */\n      swap1\n      pop\n        /* \"#utility.yul\":1091:1181   */\n      swap2\n      swap1\n      pop\n      jump\t// out\n        /* \"#utility.yul\":1187:1296   */\n    tag_204:\n        /* \"#utility.yul\":1268:1289   */\n      tag_267\n        /* \"#utility.yul\":1283:1288   */\n      dup2\n        /* \"#utility.yul\":1268:1289   */\n      tag_203\n      jump\t// in\n    tag_267:\n        /* \"#utility.yul\":1263:1266   */\n      dup3\n        /* \"#utility.yul\":1256:1290   */\n      mstore\n        /* \"#utility.yul\":1187:1296   */\n      pop\n      pop\n      jump\t// out\n        /* \"#utility.yul\":1302:1512   */\n    tag_28:\n        /* \"#utility.yul\":1389:1393   */\n      0x00\n        /* \"#utility.yul\":1427:1429   */\n      0x20\n        /* \"#utility.yul\":1416:1425   */\n      dup3\n        /* \"#utility.yul\":1412:1430   */\n      add\n        /* \"#utility.yul\":1404:1430   */\n      swap1\n      pop\n        /* \"#utility.yul\":1440:1505   */\n      tag_269\n        /* \"#utility.yul\":1502:1503   */\n      0x00\n        /* \"#utility.yul\":1491:1500   */\n      dup4\n        /* \"#utility.yul\":1487:1504   */\n      add\n        /* \"#utility.yul\":1478:1484   */\n      dup5\n        /* \"#utility.yul\":1440:1505   */\n      tag_204\n      jump\t// in\n    tag_269:\n        /* \"#utility.yul\":1302:1512   */\n      swap3\n      swap2\n      pop\n      pop\n      jump\t// out\n        /* \"#utility.yul\":1518:1644   */\n    tag_205:\n        /* \"#utility.yul\":1555:1562   */\n      0x00\n        /* \"#utility.yul\":1595:1637   */\n      0xffffffffffffffffffffffffffffffffffffffff\n        /* \"#utility.yul\":1588:1593   */\n      dup3\n        /* \"#utility.yul\":1584:1638   */\n      and\n        /* \"#utility.yul\":1573:1638   */\n      swap1\n      pop\n        /* \"#utility.yul\":1518:1644   */\n      swap2\n      swap1\n      pop\n      jump\t// out\n        /* \"#utility.yul\":1650:1746   */\n    tag_206:\n        /* \"#utility.yul\":1687:1694   */\n      0x00\n        /* \"#utility.yul\":1716:1740   */\n      tag_272\n        /* \"#utility.yul\":1734:1739   */\n      dup3\n        /* \"#utility.yul\":1716:1740   */\n      tag_205\n      jump\t// in\n    tag_272:\n        /* \"#utility.yul\":1705:1740   */\n      swap1\n      pop\n        /* \"#utility.yul\":1650:1746   */\n      swap2\n      swap1\n      pop\n      jump\t// out\n        /* \"#utility.yul\":1752:1874   */\n    tag_207:\n        /* \"#utility.yul\":1825:1849   */\n      tag_274\n        /* \"#utility.yul\":1843:1848   */\n      dup2\n        /* \"#utility.yul\":1825:1849   */\n      tag_206\n      jump\t// in\n    tag_274:\n        /* \"#utility.yul\":1818:1823   */\n      dup2\n        /* \"#utility.yul\":1815:1850   */\n      eq\n        /* \"#utility.yul\":1805:1868   */\n      tag_275\n      jumpi\n        /* \"#utility.yul\":1864:1865   */\n      0x00\n        /* \"#utility.yul\":1861:1862   */\n      dup1\n        /* \"#utility.yul\":1854:1866   */\n      revert\n        /* \"#utility.yul\":1805:1868   */\n    tag_275:\n        /* \"#utility.yul\":1752:1874   */\n      pop\n      jump\t// out\n        /* \"#utility.yul\":1880:2019   */\n    tag_208:\n        /* \"#utility.yul\":1926:1931   */\n      0x00\n        /* \"#utility.yul\":1964:1970   */\n      dup2\n        /* \"#utility.yul\":1951:1971   */\n      calldataload\n        /* \"#utility.yul\":1942:1971   */\n      swap1\n      pop\n        /* \"#utility.yul\":1980:2013   */\n      tag_277\n        /* \"#utility.yul\":2007:2012   */\n      dup2\n        /* \"#utility.yul\":1980:2013   */\n      tag_207\n      jump\t// in\n    tag_277:\n        /* \"#utility.yul\":1880:2019   */\n      swap3\n      swap2\n      pop\n      pop\n      jump\t// out\n        /* \"#utility.yul\":2025:2102   */\n    tag_209:\n        /* \"#utility.yul\":2062:2069   */\n      0x00\n        /* \"#utility.yul\":2091:2096   */\n      dup2\n        /* \"#utility.yul\":2080:2096   */\n      swap1\n      pop\n        /* \"#utility.yul\":2025:2102   */\n      swap2\n      swap1\n      pop\n      jump\t// out\n        /* \"#utility.yul\":2108:2230   */\n    tag_210:\n        /* \"#utility.yul\":2181:2205   */\n      tag_280\n        /* \"#utility.yul\":2199:2204   */\n      dup2\n        /* \"#utility.yul\":2181:2205   */\n      tag_209\n      jump\t// in\n    tag_280:\n        /* \"#utility.yul\":2174:2179   */\n      dup2\n        /* \"#utility.yul\":2171:2206   */\n      eq\n        /* \"#utility.yul\":2161:2224   */\n      tag_281\n      jumpi\n        /* \"#utility.yul\":2220:2221   */\n      0x00\n        /* \"#utility.yul\":2217:2218   */\n      dup1\n        /* \"#utility.yul\":2210:2222   */\n      revert\n        /* \"#utility.yul\":2161:2224   */\n    tag_281:\n        /* \"#utility.yul\":2108:2230   */\n      pop\n      jump\t// out\n        /* \"#utility.yul\":2236:2375   */\n    tag_211:\n        /* \"#utility.yul\":2282:2287   */\n      0x00\n        /* \"#utility.yul\":2320:2326   */\n      dup2\n        /* \"#utility.yul\":2307:2327   */\n      calldataload\n        /* \"#utility.yul\":2298:2327   */\n      swap1\n      pop\n        /* \"#utility.yul\":2336:2369   */\n      tag_283\n        /* \"#utility.yul\":2363:2368   */\n      dup2\n        /* \"#utility.yul\":2336:2369   */\n      tag_210\n      jump\t// in\n    tag_283:\n        /* \"#utility.yul\":2236:2375   */\n      swap3\n      swap2\n      pop\n      pop\n      jump\t// out\n        /* \"#utility.yul\":2381:3146   */\n    tag_31:\n        /* \"#utility.yul\":2467:2473   */\n      0x00\n        /* \"#utility.yul\":2475:2481   */\n      dup1\n        /* \"#utility.yul\":2483:2489   */\n      0x00\n        /* \"#utility.yul\":2491:2497   */\n      dup1\n        /* \"#utility.yul\":2540:2543   */\n      0x80\n        /* \"#utility.yul\":2528:2537   */\n      dup6\n        /* \"#utility.yul\":2519:2526   */\n      dup8\n        /* \"#utility.yul\":2515:2538   */\n      sub\n        /* \"#utility.yul\":2511:2544   */\n      slt\n        /* \"#utility.yul\":2508:2628   */\n      iszero\n      tag_285\n      jumpi\n        /* \"#utility.yul\":2547:2626   */\n      tag_286\n      tag_198\n      jump\t// in\n    tag_286:\n        /* \"#utility.yul\":2508:2628   */\n    tag_285:\n        /* \"#utility.yul\":2667:2668   */\n      0x00\n        /* \"#utility.yul\":2692:2745   */\n      tag_287\n        /* \"#utility.yul\":2737:2744   */\n      dup8\n        /* \"#utility.yul\":2728:2734   */\n      dup3\n        /* \"#utility.yul\":2717:2726   */\n      dup9\n        /* \"#utility.yul\":2713:2735   */\n      add\n        /* \"#utility.yul\":2692:2745   */\n      tag_208\n      jump\t// in\n    tag_287:\n        /* \"#utility.yul\":2682:2745   */\n      swap5\n      pop\n        /* \"#utility.yul\":2638:2755   */\n      pop\n        /* \"#utility.yul\":2794:2796   */\n      0x20\n        /* \"#utility.yul\":2820:2873   */\n      tag_288\n        /* \"#utility.yul\":2865:2872   */\n      dup8\n        /* \"#utility.yul\":2856:2862   */\n      dup3\n        /* \"#utility.yul\":2845:2854   */\n      dup9\n        /* \"#utility.yul\":2841:2863   */\n      add\n        /* \"#utility.yul\":2820:2873   */\n      tag_211\n      jump\t// in\n    tag_288:\n        /* \"#utility.yul\":2810:2873   */\n      swap4\n      pop\n        /* \"#utility.yul\":2765:2883   */\n      pop\n        /* \"#utility.yul\":2922:2924   */\n      0x40\n        /* \"#utility.yul\":2948:3001   */\n      tag_289\n        /* \"#utility.yul\":2993:3000   */\n      dup8\n        /* \"#utility.yul\":2984:2990   */\n      dup3\n        /* \"#utility.yul\":2973:2982   */\n      dup9\n        /* \"#utility.yul\":2969:2991   */\n      add\n        /* \"#utility.yul\":2948:3001   */\n      tag_211\n      jump\t// in\n    tag_289:\n        /* \"#utility.yul\":2938:3001   */\n      swap3\n      pop\n        /* \"#utility.yul\":2893:3011   */\n      pop\n        /* \"#utility.yul\":3050:3052   */\n      0x60\n        /* \"#utility.yul\":3076:3129   */\n      tag_290\n        /* \"#utility.yul\":3121:3128   */\n      dup8\n        /* \"#utility.yul\":3112:3118   */\n      dup3\n        /* \"#utility.yul\":3101:3110   */\n      dup9\n        /* \"#utility.yul\":3097:3119   */\n      add\n        /* \"#utility.yul\":3076:3129   */\n      tag_211\n      jump\t// in\n    tag_290:\n        /* \"#utility.yul\":3066:3129   */\n      swap2\n      pop\n        /* \"#utility.yul\":3021:3139   */\n      pop\n        /* \"#utility.yul\":2381:3146   */\n      swap3\n      swap6\n      swap2\n      swap5\n      pop\n      swap3\n      pop\n      jump\t// out\n        /* \"#utility.yul\":3152:3270   */\n    tag_212:\n        /* \"#utility.yul\":3239:3263   */\n      tag_292\n        /* \"#utility.yul\":3257:3262   */\n      dup2\n        /* \"#utility.yul\":3239:3263   */\n      tag_209\n      jump\t// in\n    tag_292:\n        /* \"#utility.yul\":3234:3237   */\n      dup3\n        /* \"#utility.yul\":3227:3264   */\n      mstore\n        /* \"#utility.yul\":3152:3270   */\n      pop\n      pop\n      jump\t// out\n        /* \"#utility.yul\":3276:3498   */\n    tag_34:\n        /* \"#utility.yul\":3369:3373   */\n      0x00\n        /* \"#utility.yul\":3407:3409   */\n      0x20\n        /* \"#utility.yul\":3396:3405   */\n      dup3\n        /* \"#utility.yul\":3392:3410   */\n      add\n        /* \"#utility.yul\":3384:3410   */\n      swap1\n      pop\n        /* \"#utility.yul\":3420:3491   */\n      tag_294\n        /* \"#utility.yul\":3488:3489   */\n      0x00\n        /* \"#utility.yul\":3477:3486   */\n      dup4\n        /* \"#utility.yul\":3473:3490   */\n      add\n        /* \"#utility.yul\":3464:3470   */\n      dup5\n        /* \"#utility.yul\":3420:3491   */\n      tag_212\n      jump\t// in\n    tag_294:\n        /* \"#utility.yul\":3276:3498   */\n      swap3\n      swap2\n      pop\n      pop\n      jump\t// out\n        /* \"#utility.yul\":3504:3581   */\n    tag_213:\n        /* \"#utility.yul\":3541:3548   */\n      0x00\n        /* \"#utility.yul\":3570:3575   */\n      dup2\n        /* \"#utility.yul\":3559:3575   */\n      swap1\n      pop\n        /* \"#utility.yul\":3504:3581   */\n      swap2\n      swap1\n      pop\n      jump\t// out\n        /* \"#utility.yul\":3587:3709   */\n    tag_214:\n        /* \"#utility.yul\":3660:3684   */\n      tag_297\n        /* \"#utility.yul\":3678:3683   */\n      dup2\n        /* \"#utility.yul\":3660:3684   */\n      tag_213\n      jump\t// in\n    tag_297:\n        /* \"#utility.yul\":3653:3658   */\n      dup2\n        /* \"#utility.yul\":3650:3685   */\n      eq\n        /* \"#utility.yul\":3640:3703   */\n      tag_298\n      jumpi\n        /* \"#utility.yul\":3699:3700   */\n      0x00\n        /* \"#utility.yul\":3696:3697   */\n      dup1\n        /* \"#utility.yul\":3689:3701   */\n      revert\n        /* \"#utility.yul\":3640:3703   */\n    tag_298:\n        /* \"#utility.yul\":3587:3709   */\n      pop\n      jump\t// out\n        /* \"#utility.yul\":3715:3854   */\n    tag_215:\n        /* \"#utility.yul\":3761:3766   */\n      0x00\n        /* \"#utility.yul\":3799:3805   */\n      dup2\n        /* \"#utility.yul\":3786:3806   */\n      calldataload\n        /* \"#utility.yul\":3777:3806   */\n      swap1\n      pop\n        /* \"#utility.yul\":3815:3848   */\n      tag_300\n        /* \"#utility.yul\":3842:3847   */\n      dup2\n        /* \"#utility.yul\":3815:3848   */\n      tag_214\n      jump\t// in\n    tag_300:\n        /* \"#utility.yul\":3715:3854   */\n      swap3\n      swap2\n      pop\n      pop\n      jump\t// out\n        /* \"#utility.yul\":3860:4189   */\n    tag_37:\n        /* \"#utility.yul\":3919:3925   */\n      0x00\n        /* \"#utility.yul\":3968:3970   */\n      0x20\n        /* \"#utility.yul\":3956:3965   */\n      dup3\n        /* \"#utility.yul\":3947:3954   */\n      dup5\n        /* \"#utility.yul\":3943:3966   */\n      sub\n        /* \"#utility.yul\":3939:3971   */\n      slt\n        /* \"#utility.yul\":3936:4055   */\n      iszero\n      tag_302\n      jumpi\n        /* \"#utility.yul\":3974:4053   */\n      tag_303\n      tag_198\n      jump\t// in\n    tag_303:\n        /* \"#utility.yul\":3936:4055   */\n    tag_302:\n        /* \"#utility.yul\":4094:4095   */\n      0x00\n        /* \"#utility.yul\":4119:4172   */\n      tag_304\n        /* \"#utility.yul\":4164:4171   */\n      dup5\n        /* \"#utility.yul\":4155:4161   */\n      dup3\n        /* \"#utility.yul\":4144:4153   */\n      dup6\n        /* \"#utility.yul\":4140:4162   */\n      add\n        /* \"#utility.yul\":4119:4172   */\n      tag_215\n      jump\t// in\n    tag_304:\n        /* \"#utility.yul\":4109:4172   */\n      swap2\n      pop\n        /* \"#utility.yul\":4065:4182   */\n      pop\n        /* \"#utility.yul\":3860:4189   */\n      swap3\n      swap2\n      pop\n      pop\n      jump\t// out\n        /* \"#utility.yul\":4195:4313   */\n    tag_216:\n        /* \"#utility.yul\":4282:4306   */\n      tag_306\n        /* \"#utility.yul\":4300:4305   */\n      dup2\n        /* \"#utility.yul\":4282:4306   */\n      tag_213\n      jump\t// in\n    tag_306:\n        /* \"#utility.yul\":4277:4280   */\n      dup3\n        /* \"#utility.yul\":4270:4307   */\n      mstore\n        /* \"#utility.yul\":4195:4313   */\n      pop\n      pop\n      jump\t// out\n        /* \"#utility.yul\":4319:4541   */\n    tag_40:\n        /* \"#utility.yul\":4412:4416   */\n      0x00\n        /* \"#utility.yul\":4450:4452   */\n      0x20\n        /* \"#utility.yul\":4439:4448   */\n      dup3\n        /* \"#utility.yul\":4435:4453   */\n      add\n        /* \"#utility.yul\":4427:4453   */\n      swap1\n      pop\n        /* \"#utility.yul\":4463:4534   */\n      tag_308\n        /* \"#utility.yul\":4531:4532   */\n      0x00\n        /* \"#utility.yul\":4520:4529   */\n      dup4\n        /* \"#utility.yul\":4516:4533   */\n      add\n        /* \"#utility.yul\":4507:4513   */\n      dup5\n        /* \"#utility.yul\":4463:4534   */\n      tag_216\n      jump\t// in\n    tag_308:\n        /* \"#utility.yul\":4319:4541   */\n      swap3\n      swap2\n      pop\n      pop\n      jump\t// out\n        /* \"#utility.yul\":4547:5021   */\n    tag_43:\n        /* \"#utility.yul\":4615:4621   */\n      0x00\n        /* \"#utility.yul\":4623:4629   */\n      dup1\n        /* \"#utility.yul\":4672:4674   */\n      0x40\n        /* \"#utility.yul\":4660:4669   */\n      dup4\n        /* \"#utility.yul\":4651:4658   */\n      dup6\n        /* \"#utility.yul\":4647:4670   */\n      sub\n        /* \"#utility.yul\":4643:4675   */\n      slt\n        /* \"#utility.yul\":4640:4759   */\n      iszero\n      tag_310\n      jumpi\n        /* \"#utility.yul\":4678:4757   */\n      tag_311\n      tag_198\n      jump\t// in\n    tag_311:\n        /* \"#utility.yul\":4640:4759   */\n    tag_310:\n        /* \"#utility.yul\":4798:4799   */\n      0x00\n        /* \"#utility.yul\":4823:4876   */\n      tag_312\n        /* \"#utility.yul\":4868:4875   */\n      dup6\n        /* \"#utility.yul\":4859:4865   */\n      dup3\n        /* \"#utility.yul\":4848:4857   */\n      dup7\n        /* \"#utility.yul\":4844:4866   */\n      add\n        /* \"#utility.yul\":4823:4876   */\n      tag_215\n      jump\t// in\n    tag_312:\n        /* \"#utility.yul\":4813:4876   */\n      swap3\n      pop\n        /* \"#utility.yul\":4769:4886   */\n      pop\n        /* \"#utility.yul\":4925:4927   */\n      0x20\n        /* \"#utility.yul\":4951:5004   */\n      tag_313\n        /* \"#utility.yul\":4996:5003   */\n      dup6\n        /* \"#utility.yul\":4987:4993   */\n      dup3\n        /* \"#utility.yul\":4976:4985   */\n      dup7\n        /* \"#utility.yul\":4972:4994   */\n      add\n        /* \"#utility.yul\":4951:5004   */\n      tag_208\n      jump\t// in\n    tag_313:\n        /* \"#utility.yul\":4941:5004   */\n      swap2\n      pop\n        /* \"#utility.yul\":4896:5014   */\n      pop\n        /* \"#utility.yul\":4547:5021   */\n      swap3\n      pop\n      swap3\n      swap1\n      pop\n      jump\t// out\n        /* \"#utility.yul\":5027:5356   */\n    tag_50:\n        /* \"#utility.yul\":5086:5092   */\n      0x00\n        /* \"#utility.yul\":5135:5137   */\n      0x20\n        /* \"#utility.yul\":5123:5132   */\n      dup3\n        /* \"#utility.yul\":5114:5121   */\n      dup5\n        /* \"#utility.yul\":5110:5133   */\n      sub\n        /* \"#utility.yul\":5106:5138   */\n      slt\n        /* \"#utility.yul\":5103:5222   */\n      iszero\n      tag_315\n      jumpi\n        /* \"#utility.yul\":5141:5220   */\n      tag_316\n      tag_198\n      jump\t// in\n    tag_316:\n        /* \"#utility.yul\":5103:5222   */\n    tag_315:\n        /* \"#utility.yul\":5261:5262   */\n      0x00\n        /* \"#utility.yul\":5286:5339   */\n      tag_317\n        /* \"#utility.yul\":5331:5338   */\n      dup5\n        /* \"#utility.yul\":5322:5328   */\n      dup3\n        /* \"#utility.yul\":5311:5320   */\n      dup6\n        /* \"#utility.yul\":5307:5329   */\n      add\n        /* \"#utility.yul\":5286:5339   */\n      tag_208\n      jump\t// in\n    tag_317:\n        /* \"#utility.yul\":5276:5339   */\n      swap2\n      pop\n        /* \"#utility.yul\":5232:5349   */\n      pop\n        /* \"#utility.yul\":5027:5356   */\n      swap3\n      swap2\n      pop\n      pop\n      jump\t// out\n        /* \"#utility.yul\":5362:5480   */\n    tag_217:\n        /* \"#utility.yul\":5449:5473   */\n      tag_319\n        /* \"#utility.yul\":5467:5472   */\n      dup2\n        /* \"#utility.yul\":5449:5473   */\n      tag_206\n      jump\t// in\n    tag_319:\n        /* \"#utility.yul\":5444:5447   */\n      dup3\n        /* \"#utility.yul\":5437:5474   */\n      mstore\n        /* \"#utility.yul\":5362:5480   */\n      pop\n      pop\n      jump\t// out\n        /* \"#utility.yul\":5486:5708   */\n    tag_62:\n        /* \"#utility.yul\":5579:5583   */\n      0x00\n        /* \"#utility.yul\":5617:5619   */\n      0x20\n        /* \"#utility.yul\":5606:5615   */\n      dup3\n        /* \"#utility.yul\":5602:5620   */\n      add\n        /* \"#utility.yul\":5594:5620   */\n      swap1\n      pop\n        /* \"#utility.yul\":5630:5701   */\n      tag_321\n        /* \"#utility.yul\":5698:5699   */\n      0x00\n        /* \"#utility.yul\":5687:5696   */\n      dup4\n        /* \"#utility.yul\":5683:5700   */\n      add\n        /* \"#utility.yul\":5674:5680   */\n      dup5\n        /* \"#utility.yul\":5630:5701   */\n      tag_217\n      jump\t// in\n    tag_321:\n        /* \"#utility.yul\":5486:5708   */\n      swap3\n      swap2\n      pop\n      pop\n      jump\t// out\n        /* \"#utility.yul\":5714:5829   */\n    tag_218:\n        /* \"#utility.yul\":5770:5777   */\n      0x00\n        /* \"#utility.yul\":5799:5823   */\n      tag_323\n        /* \"#utility.yul\":5817:5822   */\n      dup3\n        /* \"#utility.yul\":5799:5823   */\n      tag_206\n      jump\t// in\n    tag_323:\n        /* \"#utility.yul\":5788:5823   */\n      swap1\n      pop\n        /* \"#utility.yul\":5714:5829   */\n      swap2\n      swap1\n      pop\n      jump\t// out\n        /* \"#utility.yul\":5835:5995   */\n    tag_219:\n        /* \"#utility.yul\":5927:5970   */\n      tag_325\n        /* \"#utility.yul\":5964:5969   */\n      dup2\n        /* \"#utility.yul\":5927:5970   */\n      tag_218\n      jump\t// in\n    tag_325:\n        /* \"#utility.yul\":5920:5925   */\n      dup2\n        /* \"#utility.yul\":5917:5971   */\n      eq\n        /* \"#utility.yul\":5907:5989   */\n      tag_326\n      jumpi\n        /* \"#utility.yul\":5985:5986   */\n      0x00\n        /* \"#utility.yul\":5982:5983   */\n      dup1\n        /* \"#utility.yul\":5975:5987   */\n      revert\n        /* \"#utility.yul\":5907:5989   */\n    tag_326:\n        /* \"#utility.yul\":5835:5995   */\n      pop\n      jump\t// out\n        /* \"#utility.yul\":6001:6178   */\n    tag_220:\n        /* \"#utility.yul\":6066:6071   */\n      0x00\n        /* \"#utility.yul\":6104:6110   */\n      dup2\n        /* \"#utility.yul\":6091:6111   */\n      calldataload\n        /* \"#utility.yul\":6082:6111   */\n      swap1\n      pop\n        /* \"#utility.yul\":6120:6172   */\n      tag_328\n        /* \"#utility.yul\":6166:6171   */\n      dup2\n        /* \"#utility.yul\":6120:6172   */\n      tag_219\n      jump\t// in\n    tag_328:\n        /* \"#utility.yul\":6001:6178   */\n      swap3\n      swap2\n      pop\n      pop\n      jump\t// out\n        /* \"#utility.yul\":6184:6551   */\n    tag_79:\n        /* \"#utility.yul\":6262:6268   */\n      0x00\n        /* \"#utility.yul\":6311:6313   */\n      0x20\n        /* \"#utility.yul\":6299:6308   */\n      dup3\n        /* \"#utility.yul\":6290:6297   */\n      dup5\n        /* \"#utility.yul\":6286:6309   */\n      sub\n        /* \"#utility.yul\":6282:6314   */\n      slt\n        /* \"#utility.yul\":6279:6398   */\n      iszero\n      tag_330\n      jumpi\n        /* \"#utility.yul\":6317:6396   */\n      tag_331\n      tag_198\n      jump\t// in\n    tag_331:\n        /* \"#utility.yul\":6279:6398   */\n    tag_330:\n        /* \"#utility.yul\":6437:6438   */\n      0x00\n        /* \"#utility.yul\":6462:6534   */\n      tag_332\n        /* \"#utility.yul\":6526:6533   */\n      dup5\n        /* \"#utility.yul\":6517:6523   */\n      dup3\n        /* \"#utility.yul\":6506:6515   */\n      dup6\n        /* \"#utility.yul\":6502:6524   */\n      add\n        /* \"#utility.yul\":6462:6534   */\n      tag_220\n      jump\t// in\n    tag_332:\n        /* \"#utility.yul\":6452:6534   */\n      swap2\n      pop\n        /* \"#utility.yul\":6408:6544   */\n      pop\n        /* \"#utility.yul\":6184:6551   */\n      swap3\n      swap2\n      pop\n      pop\n      jump\t// out\n        /* \"#utility.yul\":6557:6617   */\n    tag_221:\n        /* \"#utility.yul\":6585:6588   */\n      0x00\n        /* \"#utility.yul\":6606:6611   */\n      dup2\n        /* \"#utility.yul\":6599:6611   */\n      swap1\n      pop\n        /* \"#utility.yul\":6557:6617   */\n      swap2\n      swap1\n      pop\n      jump\t// out\n        /* \"#utility.yul\":6623:6765   */\n    tag_222:\n        /* \"#utility.yul\":6673:6682   */\n      0x00\n        /* \"#utility.yul\":6706:6759   */\n      tag_335\n        /* \"#utility.yul\":6724:6758   */\n      tag_336\n        /* \"#utility.yul\":6733:6757   */\n      tag_337\n        /* \"#utility.yul\":6751:6756   */\n      dup5\n        /* \"#utility.yul\":6733:6757   */\n      tag_205\n      jump\t// in\n    tag_337:\n        /* \"#utility.yul\":6724:6758   */\n      tag_221\n      jump\t// in\n    tag_336:\n        /* \"#utility.yul\":6706:6759   */\n      tag_205\n      jump\t// in\n    tag_335:\n        /* \"#utility.yul\":6693:6759   */\n      swap1\n      pop\n        /* \"#utility.yul\":6623:6765   */\n      swap2\n      swap1\n      pop\n      jump\t// out\n        /* \"#utility.yul\":6771:6897   */\n    tag_223:\n        /* \"#utility.yul\":6821:6830   */\n      0x00\n        /* \"#utility.yul\":6854:6891   */\n      tag_339\n        /* \"#utility.yul\":6885:6890   */\n      dup3\n        /* \"#utility.yul\":6854:6891   */\n      tag_222\n      jump\t// in\n    tag_339:\n        /* \"#utility.yul\":6841:6891   */\n      swap1\n      pop\n        /* \"#utility.yul\":6771:6897   */\n      swap2\n      swap1\n      pop\n      jump\t// out\n        /* \"#utility.yul\":6903:7048   */\n    tag_224:\n        /* \"#utility.yul\":6972:6981   */\n      0x00\n        /* \"#utility.yul\":7005:7042   */\n      tag_341\n        /* \"#utility.yul\":7036:7041   */\n      dup3\n        /* \"#utility.yul\":7005:7042   */\n      tag_223\n      jump\t// in\n    tag_341:\n        /* \"#utility.yul\":6992:7042   */\n      swap1\n      pop\n        /* \"#utility.yul\":6903:7048   */\n      swap2\n      swap1\n      pop\n      jump\t// out\n        /* \"#utility.yul\":7054:7223   */\n    tag_225:\n        /* \"#utility.yul\":7160:7216   */\n      tag_343\n        /* \"#utility.yul\":7210:7215   */\n      dup2\n        /* \"#utility.yul\":7160:7216   */\n      tag_224\n      jump\t// in\n    tag_343:\n        /* \"#utility.yul\":7155:7158   */\n      dup3\n        /* \"#utility.yul\":7148:7217   */\n      mstore\n        /* \"#utility.yul\":7054:7223   */\n      pop\n      pop\n      jump\t// out\n        /* \"#utility.yul\":7229:7489   */\n    tag_84:\n        /* \"#utility.yul\":7341:7345   */\n      0x00\n        /* \"#utility.yul\":7379:7381   */\n      0x20\n        /* \"#utility.yul\":7368:7377   */\n      dup3\n        /* \"#utility.yul\":7364:7382   */\n      add\n        /* \"#utility.yul\":7356:7382   */\n      swap1\n      pop\n        /* \"#utility.yul\":7392:7482   */\n      tag_345\n        /* \"#utility.yul\":7479:7480   */\n      0x00\n        /* \"#utility.yul\":7468:7477   */\n      dup4\n        /* \"#utility.yul\":7464:7481   */\n      add\n        /* \"#utility.yul\":7455:7461   */\n      dup5\n        /* \"#utility.yul\":7392:7482   */\n      tag_225\n      jump\t// in\n    tag_345:\n        /* \"#utility.yul\":7229:7489   */\n      swap3\n      swap2\n      pop\n      pop\n      jump\t// out\n        /* \"#utility.yul\":7495:7586   */\n    tag_226:\n        /* \"#utility.yul\":7531:7538   */\n      0x00\n        /* \"#utility.yul\":7571:7579   */\n      0xffffff\n        /* \"#utility.yul\":7564:7569   */\n      dup3\n        /* \"#utility.yul\":7560:7580   */\n      and\n        /* \"#utility.yul\":7549:7580   */\n      swap1\n      pop\n        /* \"#utility.yul\":7495:7586   */\n      swap2\n      swap1\n      pop\n      jump\t// out\n        /* \"#utility.yul\":7592:7707   */\n    tag_227:\n        /* \"#utility.yul\":7677:7700   */\n      tag_348\n        /* \"#utility.yul\":7694:7699   */\n      dup2\n        /* \"#utility.yul\":7677:7700   */\n      tag_226\n      jump\t// in\n    tag_348:\n        /* \"#utility.yul\":7672:7675   */\n      dup3\n        /* \"#utility.yul\":7665:7701   */\n      mstore\n        /* \"#utility.yul\":7592:7707   */\n      pop\n      pop\n      jump\t// out\n        /* \"#utility.yul\":7713:7931   */\n    tag_91:\n        /* \"#utility.yul\":7804:7808   */\n      0x00\n        /* \"#utility.yul\":7842:7844   */\n      0x20\n        /* \"#utility.yul\":7831:7840   */\n      dup3\n        /* \"#utility.yul\":7827:7845   */\n      add\n        /* \"#utility.yul\":7819:7845   */\n      swap1\n      pop\n        /* \"#utility.yul\":7855:7924   */\n      tag_350\n        /* \"#utility.yul\":7921:7922   */\n      0x00\n        /* \"#utility.yul\":7910:7919   */\n      dup4\n        /* \"#utility.yul\":7906:7923   */\n      add\n        /* \"#utility.yul\":7897:7903   */\n      dup5\n        /* \"#utility.yul\":7855:7924   */\n      tag_227\n      jump\t// in\n    tag_350:\n        /* \"#utility.yul\":7713:7931   */\n      swap3\n      swap2\n      pop\n      pop\n      jump\t// out\n        /* \"#utility.yul\":7937:8106   */\n    tag_228:\n        /* \"#utility.yul\":8021:8032   */\n      0x00\n        /* \"#utility.yul\":8055:8061   */\n      dup3\n        /* \"#utility.yul\":8050:8053   */\n      dup3\n        /* \"#utility.yul\":8043:8062   */\n      mstore\n        /* \"#utility.yul\":8095:8099   */\n      0x20\n        /* \"#utility.yul\":8090:8093   */\n      dup3\n        /* \"#utility.yul\":8086:8100   */\n      add\n        /* \"#utility.yul\":8071:8100   */\n      swap1\n      pop\n        /* \"#utility.yul\":7937:8106   */\n      swap3\n      swap2\n      pop\n      pop\n      jump\t// out\n        /* \"#utility.yul\":8112:8293   */\n    tag_229:\n        /* \"#utility.yul\":8252:8285   */\n      0x546f6b656e206e6f7420617070726f76656420666f72207377617070696e6700\n        /* \"#utility.yul\":8248:8249   */\n      0x00\n        /* \"#utility.yul\":8240:8246   */\n      dup3\n        /* \"#utility.yul\":8236:8250   */\n      add\n        /* \"#utility.yul\":8229:8286   */\n      mstore\n        /* \"#utility.yul\":8112:8293   */\n      pop\n      jump\t// out\n        /* \"#utility.yul\":8299:8665   */\n    tag_230:\n        /* \"#utility.yul\":8441:8444   */\n      0x00\n        /* \"#utility.yul\":8462:8529   */\n      tag_354\n        /* \"#utility.yul\":8526:8528   */\n      0x1f\n        /* \"#utility.yul\":8521:8524   */\n      dup4\n        /* \"#utility.yul\":8462:8529   */\n      tag_228\n      jump\t// in\n    tag_354:\n        /* \"#utility.yul\":8455:8529   */\n      swap2\n      pop\n        /* \"#utility.yul\":8538:8631   */\n      tag_355\n        /* \"#utility.yul\":8627:8630   */\n      dup3\n        /* \"#utility.yul\":8538:8631   */\n      tag_229\n      jump\t// in\n    tag_355:\n        /* \"#utility.yul\":8656:8658   */\n      0x20\n        /* \"#utility.yul\":8651:8654   */\n      dup3\n        /* \"#utility.yul\":8647:8659   */\n      add\n        /* \"#utility.yul\":8640:8659   */\n      swap1\n      pop\n        /* \"#utility.yul\":8299:8665   */\n      swap2\n      swap1\n      pop\n      jump\t// out\n        /* \"#utility.yul\":8671:9090   */\n    tag_102:\n        /* \"#utility.yul\":8837:8841   */\n      0x00\n        /* \"#utility.yul\":8875:8877   */\n      0x20\n        /* \"#utility.yul\":8864:8873   */\n      dup3\n        /* \"#utility.yul\":8860:8878   */\n      add\n        /* \"#utility.yul\":8852:8878   */\n      swap1\n      pop\n        /* \"#utility.yul\":8924:8933   */\n      dup2\n        /* \"#utility.yul\":8918:8922   */\n      dup2\n        /* \"#utility.yul\":8914:8934   */\n      sub\n        /* \"#utility.yul\":8910:8911   */\n      0x00\n        /* \"#utility.yul\":8899:8908   */\n      dup4\n        /* \"#utility.yul\":8895:8912   */\n      add\n        /* \"#utility.yul\":8888:8935   */\n      mstore\n        /* \"#utility.yul\":8952:9083   */\n      tag_357\n        /* \"#utility.yul\":9078:9082   */\n      dup2\n        /* \"#utility.yul\":8952:9083   */\n      tag_230\n      jump\t// in\n    tag_357:\n        /* \"#utility.yul\":8944:9083   */\n      swap1\n      pop\n        /* \"#utility.yul\":8671:9090   */\n      swap2\n      swap1\n      pop\n      jump\t// out\n        /* \"#utility.yul\":9096:9321   */\n    tag_231:\n        /* \"#utility.yul\":9236:9270   */\n      0x496e70757420616d6f756e74206d757374206265206772656174657220746861\n        /* \"#utility.yul\":9232:9233   */\n      0x00\n        /* \"#utility.yul\":9224:9230   */\n      dup3\n        /* \"#utility.yul\":9220:9234   */\n      add\n        /* \"#utility.yul\":9213:9271   */\n      mstore\n        /* \"#utility.yul\":9305:9313   */\n      0x6e207a65726f0000000000000000000000000000000000000000000000000000\n        /* \"#utility.yul\":9300:9302   */\n      0x20\n        /* \"#utility.yul\":9292:9298   */\n      dup3\n        /* \"#utility.yul\":9288:9303   */\n      add\n        /* \"#utility.yul\":9281:9314   */\n      mstore\n        /* \"#utility.yul\":9096:9321   */\n      pop\n      jump\t// out\n        /* \"#utility.yul\":9327:9693   */\n    tag_232:\n        /* \"#utility.yul\":9469:9472   */\n      0x00\n        /* \"#utility.yul\":9490:9557   */\n      tag_360\n        /* \"#utility.yul\":9554:9556   */\n      0x26\n        /* \"#utility.yul\":9549:9552   */\n      dup4\n        /* \"#utility.yul\":9490:9557   */\n      tag_228\n      jump\t// in\n    tag_360:\n        /* \"#utility.yul\":9483:9557   */\n      swap2\n      pop\n        /* \"#utility.yul\":9566:9659   */\n      tag_361\n        /* \"#utility.yul\":9655:9658   */\n      dup3\n        /* \"#utility.yul\":9566:9659   */\n      tag_231\n      jump\t// in\n    tag_361:\n        /* \"#utility.yul\":9684:9686   */\n      0x40\n        /* \"#utility.yul\":9679:9682   */\n      dup3\n        /* \"#utility.yul\":9675:9687   */\n      add\n        /* \"#utility.yul\":9668:9687   */\n      swap1\n      pop\n        /* \"#utility.yul\":9327:9693   */\n      swap2\n      swap1\n      pop\n      jump\t// out\n        /* \"#utility.yul\":9699:10118   */\n    tag_106:\n        /* \"#utility.yul\":9865:9869   */\n      0x00\n        /* \"#utility.yul\":9903:9905   */\n      0x20\n        /* \"#utility.yul\":9892:9901   */\n      dup3\n        /* \"#utility.yul\":9888:9906   */\n      add\n        /* \"#utility.yul\":9880:9906   */\n      swap1\n      pop\n        /* \"#utility.yul\":9952:9961   */\n      dup2\n        /* \"#utility.yul\":9946:9950   */\n      dup2\n        /* \"#utility.yul\":9942:9962   */\n      sub\n        /* \"#utility.yul\":9938:9939   */\n      0x00\n        /* \"#utility.yul\":9927:9936   */\n      dup4\n        /* \"#utility.yul\":9923:9940   */\n      add\n        /* \"#utility.yul\":9916:9963   */\n      mstore\n        /* \"#utility.yul\":9980:10111   */\n      tag_363\n        /* \"#utility.yul\":10106:10110   */\n      dup2\n        /* \"#utility.yul\":9980:10111   */\n      tag_232\n      jump\t// in\n    tag_363:\n        /* \"#utility.yul\":9972:10111   */\n      swap1\n      pop\n        /* \"#utility.yul\":9699:10118   */\n      swap2\n      swap1\n      pop\n      jump\t// out\n        /* \"#utility.yul\":10124:10566   */\n    tag_108:\n        /* \"#utility.yul\":10273:10277   */\n      0x00\n        /* \"#utility.yul\":10311:10313   */\n      0x60\n        /* \"#utility.yul\":10300:10309   */\n      dup3\n        /* \"#utility.yul\":10296:10314   */\n      add\n        /* \"#utility.yul\":10288:10314   */\n      swap1\n      pop\n        /* \"#utility.yul\":10324:10395   */\n      tag_365\n        /* \"#utility.yul\":10392:10393   */\n      0x00\n        /* \"#utility.yul\":10381:10390   */\n      dup4\n        /* \"#utility.yul\":10377:10394   */\n      add\n        /* \"#utility.yul\":10368:10374   */\n      dup7\n        /* \"#utility.yul\":10324:10395   */\n      tag_217\n      jump\t// in\n    tag_365:\n        /* \"#utility.yul\":10405:10477   */\n      tag_366\n        /* \"#utility.yul\":10473:10475   */\n      0x20\n        /* \"#utility.yul\":10462:10471   */\n      dup4\n        /* \"#utility.yul\":10458:10476   */\n      add\n        /* \"#utility.yul\":10449:10455   */\n      dup6\n        /* \"#utility.yul\":10405:10477   */\n      tag_217\n      jump\t// in\n    tag_366:\n        /* \"#utility.yul\":10487:10559   */\n      tag_367\n        /* \"#utility.yul\":10555:10557   */\n      0x40\n        /* \"#utility.yul\":10544:10553   */\n      dup4\n        /* \"#utility.yul\":10540:10558   */\n      add\n        /* \"#utility.yul\":10531:10537   */\n      dup5\n        /* \"#utility.yul\":10487:10559   */\n      tag_212\n      jump\t// in\n    tag_367:\n        /* \"#utility.yul\":10124:10566   */\n      swap5\n      swap4\n      pop\n      pop\n      pop\n      pop\n      jump\t// out\n        /* \"#utility.yul\":10572:10688   */\n    tag_233:\n        /* \"#utility.yul\":10642:10663   */\n      tag_369\n        /* \"#utility.yul\":10657:10662   */\n      dup2\n        /* \"#utility.yul\":10642:10663   */\n      tag_203\n      jump\t// in\n    tag_369:\n        /* \"#utility.yul\":10635:10640   */\n      dup2\n        /* \"#utility.yul\":10632:10664   */\n      eq\n        /* \"#utility.yul\":10622:10682   */\n      tag_370\n      jumpi\n        /* \"#utility.yul\":10678:10679   */\n      0x00\n        /* \"#utility.yul\":10675:10676   */\n      dup1\n        /* \"#utility.yul\":10668:10680   */\n      revert\n        /* \"#utility.yul\":10622:10682   */\n    tag_370:\n        /* \"#utility.yul\":10572:10688   */\n      pop\n      jump\t// out\n        /* \"#utility.yul\":10694:10831   */\n    tag_234:\n        /* \"#utility.yul\":10748:10753   */\n      0x00\n        /* \"#utility.yul\":10779:10785   */\n      dup2\n        /* \"#utility.yul\":10773:10786   */\n      mload\n        /* \"#utility.yul\":10764:10786   */\n      swap1\n      pop\n        /* \"#utility.yul\":10795:10825   */\n      tag_372\n        /* \"#utility.yul\":10819:10824   */\n      dup2\n        /* \"#utility.yul\":10795:10825   */\n      tag_233\n      jump\t// in\n    tag_372:\n        /* \"#utility.yul\":10694:10831   */\n      swap3\n      swap2\n      pop\n      pop\n      jump\t// out\n        /* \"#utility.yul\":10837:11182   */\n    tag_112:\n        /* \"#utility.yul\":10904:10910   */\n      0x00\n        /* \"#utility.yul\":10953:10955   */\n      0x20\n        /* \"#utility.yul\":10941:10950   */\n      dup3\n        /* \"#utility.yul\":10932:10939   */\n      dup5\n        /* \"#utility.yul\":10928:10951   */\n      sub\n        /* \"#utility.yul\":10924:10956   */\n      slt\n        /* \"#utility.yul\":10921:11040   */\n      iszero\n      tag_374\n      jumpi\n        /* \"#utility.yul\":10959:11038   */\n      tag_375\n      tag_198\n      jump\t// in\n    tag_375:\n        /* \"#utility.yul\":10921:11040   */\n    tag_374:\n        /* \"#utility.yul\":11079:11080   */\n      0x00\n        /* \"#utility.yul\":11104:11165   */\n      tag_376\n        /* \"#utility.yul\":11157:11164   */\n      dup5\n        /* \"#utility.yul\":11148:11154   */\n      dup3\n        /* \"#utility.yul\":11137:11146   */\n      dup6\n        /* \"#utility.yul\":11133:11155   */\n      add\n        /* \"#utility.yul\":11104:11165   */\n      tag_234\n      jump\t// in\n    tag_376:\n        /* \"#utility.yul\":11094:11165   */\n      swap2\n      pop\n        /* \"#utility.yul\":11050:11175   */\n      pop\n        /* \"#utility.yul\":10837:11182   */\n      swap3\n      swap2\n      pop\n      pop\n      jump\t// out\n        /* \"#utility.yul\":11188:11520   */\n    tag_114:\n        /* \"#utility.yul\":11309:11313   */\n      0x00\n        /* \"#utility.yul\":11347:11349   */\n      0x40\n        /* \"#utility.yul\":11336:11345   */\n      dup3\n        /* \"#utility.yul\":11332:11350   */\n      add\n        /* \"#utility.yul\":11324:11350   */\n      swap1\n      pop\n        /* \"#utility.yul\":11360:11431   */\n      tag_378\n        /* \"#utility.yul\":11428:11429   */\n      0x00\n        /* \"#utility.yul\":11417:11426   */\n      dup4\n        /* \"#utility.yul\":11413:11430   */\n      add\n        /* \"#utility.yul\":11404:11410   */\n      dup6\n        /* \"#utility.yul\":11360:11431   */\n      tag_217\n      jump\t// in\n    tag_378:\n        /* \"#utility.yul\":11441:11513   */\n      tag_379\n        /* \"#utility.yul\":11509:11511   */\n      0x20\n        /* \"#utility.yul\":11498:11507   */\n      dup4\n        /* \"#utility.yul\":11494:11512   */\n      add\n        /* \"#utility.yul\":11485:11491   */\n      dup5\n        /* \"#utility.yul\":11441:11513   */\n      tag_212\n      jump\t// in\n    tag_379:\n        /* \"#utility.yul\":11188:11520   */\n      swap4\n      swap3\n      pop\n      pop\n      pop\n      jump\t// out\n        /* \"#utility.yul\":11526:11634   */\n    tag_235:\n        /* \"#utility.yul\":11603:11627   */\n      tag_381\n        /* \"#utility.yul\":11621:11626   */\n      dup2\n        /* \"#utility.yul\":11603:11627   */\n      tag_206\n      jump\t// in\n    tag_381:\n        /* \"#utility.yul\":11598:11601   */\n      dup3\n        /* \"#utility.yul\":11591:11628   */\n      mstore\n        /* \"#utility.yul\":11526:11634   */\n      pop\n      pop\n      jump\t// out\n        /* \"#utility.yul\":11640:11745   */\n    tag_236:\n        /* \"#utility.yul\":11715:11738   */\n      tag_383\n        /* \"#utility.yul\":11732:11737   */\n      dup2\n        /* \"#utility.yul\":11715:11738   */\n      tag_226\n      jump\t// in\n    tag_383:\n        /* \"#utility.yul\":11710:11713   */\n      dup3\n        /* \"#utility.yul\":11703:11739   */\n      mstore\n        /* \"#utility.yul\":11640:11745   */\n      pop\n      pop\n      jump\t// out\n        /* \"#utility.yul\":11751:11859   */\n    tag_237:\n        /* \"#utility.yul\":11828:11852   */\n      tag_385\n        /* \"#utility.yul\":11846:11851   */\n      dup2\n        /* \"#utility.yul\":11828:11852   */\n      tag_209\n      jump\t// in\n    tag_385:\n        /* \"#utility.yul\":11823:11826   */\n      dup3\n        /* \"#utility.yul\":11816:11853   */\n      mstore\n        /* \"#utility.yul\":11751:11859   */\n      pop\n      pop\n      jump\t// out\n        /* \"#utility.yul\":11865:11973   */\n    tag_238:\n        /* \"#utility.yul\":11942:11966   */\n      tag_387\n        /* \"#utility.yul\":11960:11965   */\n      dup2\n        /* \"#utility.yul\":11942:11966   */\n      tag_205\n      jump\t// in\n    tag_387:\n        /* \"#utility.yul\":11937:11940   */\n      dup3\n        /* \"#utility.yul\":11930:11967   */\n      mstore\n        /* \"#utility.yul\":11865:11973   */\n      pop\n      pop\n      jump\t// out\n        /* \"#utility.yul\":12073:13696   */\n    tag_239:\n        /* \"#utility.yul\":12248:12254   */\n      0x0100\n        /* \"#utility.yul\":12243:12246   */\n      dup3\n        /* \"#utility.yul\":12239:12255   */\n      add\n        /* \"#utility.yul\":12340:12344   */\n      0x00\n        /* \"#utility.yul\":12333:12338   */\n      dup3\n        /* \"#utility.yul\":12329:12345   */\n      add\n        /* \"#utility.yul\":12323:12346   */\n      mload\n        /* \"#utility.yul\":12359:12422   */\n      tag_389\n        /* \"#utility.yul\":12416:12420   */\n      0x00\n        /* \"#utility.yul\":12411:12414   */\n      dup6\n        /* \"#utility.yul\":12407:12421   */\n      add\n        /* \"#utility.yul\":12393:12405   */\n      dup3\n        /* \"#utility.yul\":12359:12422   */\n      tag_235\n      jump\t// in\n    tag_389:\n        /* \"#utility.yul\":12265:12432   */\n      pop\n        /* \"#utility.yul\":12518:12522   */\n      0x20\n        /* \"#utility.yul\":12511:12516   */\n      dup3\n        /* \"#utility.yul\":12507:12523   */\n      add\n        /* \"#utility.yul\":12501:12524   */\n      mload\n        /* \"#utility.yul\":12537:12600   */\n      tag_390\n        /* \"#utility.yul\":12594:12598   */\n      0x20\n        /* \"#utility.yul\":12589:12592   */\n      dup6\n        /* \"#utility.yul\":12585:12599   */\n      add\n        /* \"#utility.yul\":12571:12583   */\n      dup3\n        /* \"#utility.yul\":12537:12600   */\n      tag_235\n      jump\t// in\n    tag_390:\n        /* \"#utility.yul\":12442:12610   */\n      pop\n        /* \"#utility.yul\":12691:12695   */\n      0x40\n        /* \"#utility.yul\":12684:12689   */\n      dup3\n        /* \"#utility.yul\":12680:12696   */\n      add\n        /* \"#utility.yul\":12674:12697   */\n      mload\n        /* \"#utility.yul\":12710:12771   */\n      tag_391\n        /* \"#utility.yul\":12765:12769   */\n      0x40\n        /* \"#utility.yul\":12760:12763   */\n      dup6\n        /* \"#utility.yul\":12756:12770   */\n      add\n        /* \"#utility.yul\":12742:12754   */\n      dup3\n        /* \"#utility.yul\":12710:12771   */\n      tag_236\n      jump\t// in\n    tag_391:\n        /* \"#utility.yul\":12620:12781   */\n      pop\n        /* \"#utility.yul\":12868:12872   */\n      0x60\n        /* \"#utility.yul\":12861:12866   */\n      dup3\n        /* \"#utility.yul\":12857:12873   */\n      add\n        /* \"#utility.yul\":12851:12874   */\n      mload\n        /* \"#utility.yul\":12887:12950   */\n      tag_392\n        /* \"#utility.yul\":12944:12948   */\n      0x60\n        /* \"#utility.yul\":12939:12942   */\n      dup6\n        /* \"#utility.yul\":12935:12949   */\n      add\n        /* \"#utility.yul\":12921:12933   */\n      dup3\n        /* \"#utility.yul\":12887:12950   */\n      tag_235\n      jump\t// in\n    tag_392:\n        /* \"#utility.yul\":12791:12960   */\n      pop\n        /* \"#utility.yul\":13046:13050   */\n      0x80\n        /* \"#utility.yul\":13039:13044   */\n      dup3\n        /* \"#utility.yul\":13035:13051   */\n      add\n        /* \"#utility.yul\":13029:13052   */\n      mload\n        /* \"#utility.yul\":13065:13128   */\n      tag_393\n        /* \"#utility.yul\":13122:13126   */\n      0x80\n        /* \"#utility.yul\":13117:13120   */\n      dup6\n        /* \"#utility.yul\":13113:13127   */\n      add\n        /* \"#utility.yul\":13099:13111   */\n      dup3\n        /* \"#utility.yul\":13065:13128   */\n      tag_237\n      jump\t// in\n    tag_393:\n        /* \"#utility.yul\":12970:13138   */\n      pop\n        /* \"#utility.yul\":13224:13228   */\n      0xa0\n        /* \"#utility.yul\":13217:13222   */\n      dup3\n        /* \"#utility.yul\":13213:13229   */\n      add\n        /* \"#utility.yul\":13207:13230   */\n      mload\n        /* \"#utility.yul\":13243:13306   */\n      tag_394\n        /* \"#utility.yul\":13300:13304   */\n      0xa0\n        /* \"#utility.yul\":13295:13298   */\n      dup6\n        /* \"#utility.yul\":13291:13305   */\n      add\n        /* \"#utility.yul\":13277:13289   */\n      dup3\n        /* \"#utility.yul\":13243:13306   */\n      tag_237\n      jump\t// in\n    tag_394:\n        /* \"#utility.yul\":13148:13316   */\n      pop\n        /* \"#utility.yul\":13410:13414   */\n      0xc0\n        /* \"#utility.yul\":13403:13408   */\n      dup3\n        /* \"#utility.yul\":13399:13415   */\n      add\n        /* \"#utility.yul\":13393:13416   */\n      mload\n        /* \"#utility.yul\":13429:13492   */\n      tag_395\n        /* \"#utility.yul\":13486:13490   */\n      0xc0\n        /* \"#utility.yul\":13481:13484   */\n      dup6\n        /* \"#utility.yul\":13477:13491   */\n      add\n        /* \"#utility.yul\":13463:13475   */\n      dup3\n        /* \"#utility.yul\":13429:13492   */\n      tag_237\n      jump\t// in\n    tag_395:\n        /* \"#utility.yul\":13326:13502   */\n      pop\n        /* \"#utility.yul\":13597:13601   */\n      0xe0\n        /* \"#utility.yul\":13590:13595   */\n      dup3\n        /* \"#utility.yul\":13586:13602   */\n      add\n        /* \"#utility.yul\":13580:13603   */\n      mload\n        /* \"#utility.yul\":13616:13679   */\n      tag_396\n        /* \"#utility.yul\":13673:13677   */\n      0xe0\n        /* \"#utility.yul\":13668:13671   */\n      dup6\n        /* \"#utility.yul\":13664:13678   */\n      add\n        /* \"#utility.yul\":13650:13662   */\n      dup3\n        /* \"#utility.yul\":13616:13679   */\n      tag_238\n      jump\t// in\n    tag_396:\n        /* \"#utility.yul\":13512:13689   */\n      pop\n        /* \"#utility.yul\":12217:13696   */\n      pop\n        /* \"#utility.yul\":12073:13696   */\n      pop\n      pop\n      jump\t// out\n        /* \"#utility.yul\":13702:14081   */\n    tag_119:\n        /* \"#utility.yul\":13873:13877   */\n      0x00\n        /* \"#utility.yul\":13911:13914   */\n      0x0100\n        /* \"#utility.yul\":13900:13909   */\n      dup3\n        /* \"#utility.yul\":13896:13915   */\n      add\n        /* \"#utility.yul\":13888:13915   */\n      swap1\n      pop\n        /* \"#utility.yul\":13925:14074   */\n      tag_398\n        /* \"#utility.yul\":14071:14072   */\n      0x00\n        /* \"#utility.yul\":14060:14069   */\n      dup4\n        /* \"#utility.yul\":14056:14073   */\n      add\n        /* \"#utility.yul\":14047:14053   */\n      dup5\n        /* \"#utility.yul\":13925:14074   */\n      tag_239\n      jump\t// in\n    tag_398:\n        /* \"#utility.yul\":13702:14081   */\n      swap3\n      swap2\n      pop\n      pop\n      jump\t// out\n        /* \"#utility.yul\":14087:14230   */\n    tag_240:\n        /* \"#utility.yul\":14144:14149   */\n      0x00\n        /* \"#utility.yul\":14175:14181   */\n      dup2\n        /* \"#utility.yul\":14169:14182   */\n      mload\n        /* \"#utility.yul\":14160:14182   */\n      swap1\n      pop\n        /* \"#utility.yul\":14191:14224   */\n      tag_400\n        /* \"#utility.yul\":14218:14223   */\n      dup2\n        /* \"#utility.yul\":14191:14224   */\n      tag_210\n      jump\t// in\n    tag_400:\n        /* \"#utility.yul\":14087:14230   */\n      swap3\n      swap2\n      pop\n      pop\n      jump\t// out\n        /* \"#utility.yul\":14236:14587   */\n    tag_123:\n        /* \"#utility.yul\":14306:14312   */\n      0x00\n        /* \"#utility.yul\":14355:14357   */\n      0x20\n        /* \"#utility.yul\":14343:14352   */\n      dup3\n        /* \"#utility.yul\":14334:14341   */\n      dup5\n        /* \"#utility.yul\":14330:14353   */\n      sub\n        /* \"#utility.yul\":14326:14358   */\n      slt\n        /* \"#utility.yul\":14323:14442   */\n      iszero\n      tag_402\n      jumpi\n        /* \"#utility.yul\":14361:14440   */\n      tag_403\n      tag_198\n      jump\t// in\n    tag_403:\n        /* \"#utility.yul\":14323:14442   */\n    tag_402:\n        /* \"#utility.yul\":14481:14482   */\n      0x00\n        /* \"#utility.yul\":14506:14570   */\n      tag_404\n        /* \"#utility.yul\":14562:14569   */\n      dup5\n        /* \"#utility.yul\":14553:14559   */\n      dup3\n        /* \"#utility.yul\":14542:14551   */\n      dup6\n        /* \"#utility.yul\":14538:14560   */\n      add\n        /* \"#utility.yul\":14506:14570   */\n      tag_240\n      jump\t// in\n    tag_404:\n        /* \"#utility.yul\":14496:14570   */\n      swap2\n      pop\n        /* \"#utility.yul\":14452:14580   */\n      pop\n        /* \"#utility.yul\":14236:14587   */\n      swap3\n      swap2\n      pop\n      pop\n      jump\t// out\n        /* \"#utility.yul\":14593:14769   */\n    tag_241:\n        /* \"#utility.yul\":14733:14761   */\n      0x496e73756666696369656e74206f757470757420616d6f756e74000000000000\n        /* \"#utility.yul\":14729:14730   */\n      0x00\n        /* \"#utility.yul\":14721:14727   */\n      dup3\n        /* \"#utility.yul\":14717:14731   */\n      add\n        /* \"#utility.yul\":14710:14762   */\n      mstore\n        /* \"#utility.yul\":14593:14769   */\n      pop\n      jump\t// out\n        /* \"#utility.yul\":14775:15141   */\n    tag_242:\n        /* \"#utility.yul\":14917:14920   */\n      0x00\n        /* \"#utility.yul\":14938:15005   */\n      tag_407\n        /* \"#utility.yul\":15002:15004   */\n      0x1a\n        /* \"#utility.yul\":14997:15000   */\n      dup4\n        /* \"#utility.yul\":14938:15005   */\n      tag_228\n      jump\t// in\n    tag_407:\n        /* \"#utility.yul\":14931:15005   */\n      swap2\n      pop\n        /* \"#utility.yul\":15014:15107   */\n      tag_408\n        /* \"#utility.yul\":15103:15106   */\n      dup3\n        /* \"#utility.yul\":15014:15107   */\n      tag_241\n      jump\t// in\n    tag_408:\n        /* \"#utility.yul\":15132:15134   */\n      0x20\n        /* \"#utility.yul\":15127:15130   */\n      dup3\n        /* \"#utility.yul\":15123:15135   */\n      add\n        /* \"#utility.yul\":15116:15135   */\n      swap1\n      pop\n        /* \"#utility.yul\":14775:15141   */\n      swap2\n      swap1\n      pop\n      jump\t// out\n        /* \"#utility.yul\":15147:15566   */\n    tag_126:\n        /* \"#utility.yul\":15313:15317   */\n      0x00\n        /* \"#utility.yul\":15351:15353   */\n      0x20\n        /* \"#utility.yul\":15340:15349   */\n      dup3\n        /* \"#utility.yul\":15336:15354   */\n      add\n        /* \"#utility.yul\":15328:15354   */\n      swap1\n      pop\n        /* \"#utility.yul\":15400:15409   */\n      dup2\n        /* \"#utility.yul\":15394:15398   */\n      dup2\n        /* \"#utility.yul\":15390:15410   */\n      sub\n        /* \"#utility.yul\":15386:15387   */\n      0x00\n        /* \"#utility.yul\":15375:15384   */\n      dup4\n        /* \"#utility.yul\":15371:15388   */\n      add\n        /* \"#utility.yul\":15364:15411   */\n      mstore\n        /* \"#utility.yul\":15428:15559   */\n      tag_410\n        /* \"#utility.yul\":15554:15558   */\n      dup2\n        /* \"#utility.yul\":15428:15559   */\n      tag_242\n      jump\t// in\n    tag_410:\n        /* \"#utility.yul\":15420:15559   */\n      swap1\n      pop\n        /* \"#utility.yul\":15147:15566   */\n      swap2\n      swap1\n      pop\n      jump\t// out\n        /* \"#utility.yul\":15572:15904   */\n    tag_128:\n        /* \"#utility.yul\":15693:15697   */\n      0x00\n        /* \"#utility.yul\":15731:15733   */\n      0x40\n        /* \"#utility.yul\":15720:15729   */\n      dup3\n        /* \"#utility.yul\":15716:15734   */\n      add\n        /* \"#utility.yul\":15708:15734   */\n      swap1\n      pop\n        /* \"#utility.yul\":15744:15815   */\n      tag_412\n        /* \"#utility.yul\":15812:15813   */\n      0x00\n        /* \"#utility.yul\":15801:15810   */\n      dup4\n        /* \"#utility.yul\":15797:15814   */\n      add\n        /* \"#utility.yul\":15788:15794   */\n      dup6\n        /* \"#utility.yul\":15744:15815   */\n      tag_212\n      jump\t// in\n    tag_412:\n        /* \"#utility.yul\":15825:15897   */\n      tag_413\n        /* \"#utility.yul\":15893:15895   */\n      0x20\n        /* \"#utility.yul\":15882:15891   */\n      dup4\n        /* \"#utility.yul\":15878:15896   */\n      add\n        /* \"#utility.yul\":15869:15875   */\n      dup5\n        /* \"#utility.yul\":15825:15897   */\n      tag_212\n      jump\t// in\n    tag_413:\n        /* \"#utility.yul\":15572:15904   */\n      swap4\n      swap3\n      pop\n      pop\n      pop\n      jump\t// out\n        /* \"#utility.yul\":15910:16092   */\n    tag_243:\n        /* \"#utility.yul\":16050:16084   */\n      0x5553444320697320616c7265616479207468652074617267657420746f6b656e\n        /* \"#utility.yul\":16046:16047   */\n      0x00\n        /* \"#utility.yul\":16038:16044   */\n      dup3\n        /* \"#utility.yul\":16034:16048   */\n      add\n        /* \"#utility.yul\":16027:16085   */\n      mstore\n        /* \"#utility.yul\":15910:16092   */\n      pop\n      jump\t// out\n        /* \"#utility.yul\":16098:16464   */\n    tag_244:\n        /* \"#utility.yul\":16240:16243   */\n      0x00\n        /* \"#utility.yul\":16261:16328   */\n      tag_416\n        /* \"#utility.yul\":16325:16327   */\n      0x20\n        /* \"#utility.yul\":16320:16323   */\n      dup4\n        /* \"#utility.yul\":16261:16328   */\n      tag_228\n      jump\t// in\n    tag_416:\n        /* \"#utility.yul\":16254:16328   */\n      swap2\n      pop\n        /* \"#utility.yul\":16337:16430   */\n      tag_417\n        /* \"#utility.yul\":16426:16429   */\n      dup3\n        /* \"#utility.yul\":16337:16430   */\n      tag_243\n      jump\t// in\n    tag_417:\n        /* \"#utility.yul\":16455:16457   */\n      0x20\n        /* \"#utility.yul\":16450:16453   */\n      dup3\n        /* \"#utility.yul\":16446:16458   */\n      add\n        /* \"#utility.yul\":16439:16458   */\n      swap1\n      pop\n        /* \"#utility.yul\":16098:16464   */\n      swap2\n      swap1\n      pop\n      jump\t// out\n        /* \"#utility.yul\":16470:16889   */\n    tag_150:\n        /* \"#utility.yul\":16636:16640   */\n      0x00\n        /* \"#utility.yul\":16674:16676   */\n      0x20\n        /* \"#utility.yul\":16663:16672   */\n      dup3\n        /* \"#utility.yul\":16659:16677   */\n      add\n        /* \"#utility.yul\":16651:16677   */\n      swap1\n      pop\n        /* \"#utility.yul\":16723:16732   */\n      dup2\n        /* \"#utility.yul\":16717:16721   */\n      dup2\n        /* \"#utility.yul\":16713:16733   */\n      sub\n        /* \"#utility.yul\":16709:16710   */\n      0x00\n        /* \"#utility.yul\":16698:16707   */\n      dup4\n        /* \"#utility.yul\":16694:16711   */\n      add\n        /* \"#utility.yul\":16687:16734   */\n      mstore\n        /* \"#utility.yul\":16751:16882   */\n      tag_419\n        /* \"#utility.yul\":16877:16881   */\n      dup2\n        /* \"#utility.yul\":16751:16882   */\n      tag_244\n      jump\t// in\n    tag_419:\n        /* \"#utility.yul\":16743:16882   */\n      swap1\n      pop\n        /* \"#utility.yul\":16470:16889   */\n      swap2\n      swap1\n      pop\n      jump\t// out\n        /* \"#utility.yul\":16895:17066   */\n    tag_245:\n        /* \"#utility.yul\":17035:17058   */\n      0x496e76616c696420746f6b656e20616464726573730000000000000000000000\n        /* \"#utility.yul\":17031:17032   */\n      0x00\n        /* \"#utility.yul\":17023:17029   */\n      dup3\n        /* \"#utility.yul\":17019:17033   */\n      add\n        /* \"#utility.yul\":17012:17059   */\n      mstore\n        /* \"#utility.yul\":16895:17066   */\n      pop\n      jump\t// out\n        /* \"#utility.yul\":17072:17438   */\n    tag_246:\n        /* \"#utility.yul\":17214:17217   */\n      0x00\n        /* \"#utility.yul\":17235:17302   */\n      tag_422\n        /* \"#utility.yul\":17299:17301   */\n      0x15\n        /* \"#utility.yul\":17294:17297   */\n      dup4\n        /* \"#utility.yul\":17235:17302   */\n      tag_228\n      jump\t// in\n    tag_422:\n        /* \"#utility.yul\":17228:17302   */\n      swap2\n      pop\n        /* \"#utility.yul\":17311:17404   */\n      tag_423\n        /* \"#utility.yul\":17400:17403   */\n      dup3\n        /* \"#utility.yul\":17311:17404   */\n      tag_245\n      jump\t// in\n    tag_423:\n        /* \"#utility.yul\":17429:17431   */\n      0x20\n        /* \"#utility.yul\":17424:17427   */\n      dup3\n        /* \"#utility.yul\":17420:17432   */\n      add\n        /* \"#utility.yul\":17413:17432   */\n      swap1\n      pop\n        /* \"#utility.yul\":17072:17438   */\n      swap2\n      swap1\n      pop\n      jump\t// out\n        /* \"#utility.yul\":17444:17863   */\n    tag_153:\n        /* \"#utility.yul\":17610:17614   */\n      0x00\n        /* \"#utility.yul\":17648:17650   */\n      0x20\n        /* \"#utility.yul\":17637:17646   */\n      dup3\n        /* \"#utility.yul\":17633:17651   */\n      add\n        /* \"#utility.yul\":17625:17651   */\n      swap1\n      pop\n        /* \"#utility.yul\":17697:17706   */\n      dup2\n        /* \"#utility.yul\":17691:17695   */\n      dup2\n        /* \"#utility.yul\":17687:17707   */\n      sub\n        /* \"#utility.yul\":17683:17684   */\n      0x00\n        /* \"#utility.yul\":17672:17681   */\n      dup4\n        /* \"#utility.yul\":17668:17685   */\n      add\n        /* \"#utility.yul\":17661:17708   */\n      mstore\n        /* \"#utility.yul\":17725:17856   */\n      tag_425\n        /* \"#utility.yul\":17851:17855   */\n      dup2\n        /* \"#utility.yul\":17725:17856   */\n      tag_246\n      jump\t// in\n    tag_425:\n        /* \"#utility.yul\":17717:17856   */\n      swap1\n      pop\n        /* \"#utility.yul\":17444:17863   */\n      swap2\n      swap1\n      pop\n      jump\t// out\n        /* \"#utility.yul\":17869:18040   */\n    tag_247:\n        /* \"#utility.yul\":18009:18032   */\n      0x546f6b656e206973206e6f7420617070726f7665640000000000000000000000\n        /* \"#utility.yul\":18005:18006   */\n      0x00\n        /* \"#utility.yul\":17997:18003   */\n      dup3\n        /* \"#utility.yul\":17993:18007   */\n      add\n        /* \"#utility.yul\":17986:18033   */\n      mstore\n        /* \"#utility.yul\":17869:18040   */\n      pop\n      jump\t// out\n        /* \"#utility.yul\":18046:18412   */\n    tag_248:\n        /* \"#utility.yul\":18188:18191   */\n      0x00\n        /* \"#utility.yul\":18209:18276   */\n      tag_428\n        /* \"#utility.yul\":18273:18275   */\n      0x15\n        /* \"#utility.yul\":18268:18271   */\n      dup4\n        /* \"#utility.yul\":18209:18276   */\n      tag_228\n      jump\t// in\n    tag_428:\n        /* \"#utility.yul\":18202:18276   */\n      swap2\n      pop\n        /* \"#utility.yul\":18285:18378   */\n      tag_429\n        /* \"#utility.yul\":18374:18377   */\n      dup3\n        /* \"#utility.yul\":18285:18378   */\n      tag_247\n      jump\t// in\n    tag_429:\n        /* \"#utility.yul\":18403:18405   */\n      0x20\n        /* \"#utility.yul\":18398:18401   */\n      dup3\n        /* \"#utility.yul\":18394:18406   */\n      add\n        /* \"#utility.yul\":18387:18406   */\n      swap1\n      pop\n        /* \"#utility.yul\":18046:18412   */\n      swap2\n      swap1\n      pop\n      jump\t// out\n        /* \"#utility.yul\":18418:18837   */\n    tag_160:\n        /* \"#utility.yul\":18584:18588   */\n      0x00\n        /* \"#utility.yul\":18622:18624   */\n      0x20\n        /* \"#utility.yul\":18611:18620   */\n      dup3\n        /* \"#utility.yul\":18607:18625   */\n      add\n        /* \"#utility.yul\":18599:18625   */\n      swap1\n      pop\n        /* \"#utility.yul\":18671:18680   */\n      dup2\n        /* \"#utility.yul\":18665:18669   */\n      dup2\n        /* \"#utility.yul\":18661:18681   */\n      sub\n        /* \"#utility.yul\":18657:18658   */\n      0x00\n        /* \"#utility.yul\":18646:18655   */\n      dup4\n        /* \"#utility.yul\":18642:18659   */\n      add\n        /* \"#utility.yul\":18635:18682   */\n      mstore\n        /* \"#utility.yul\":18699:18830   */\n      tag_431\n        /* \"#utility.yul\":18825:18829   */\n      dup2\n        /* \"#utility.yul\":18699:18830   */\n      tag_248\n      jump\t// in\n    tag_431:\n        /* \"#utility.yul\":18691:18830   */\n      swap1\n      pop\n        /* \"#utility.yul\":18418:18837   */\n      swap2\n      swap1\n      pop\n      jump\t// out\n        /* \"#utility.yul\":18843:19020   */\n    tag_249:\n        /* \"#utility.yul\":18983:19012   */\n      0x496e76616c6964207377617020726f7574657220616464726573730000000000\n        /* \"#utility.yul\":18979:18980   */\n      0x00\n        /* \"#utility.yul\":18971:18977   */\n      dup3\n        /* \"#utility.yul\":18967:18981   */\n      add\n        /* \"#utility.yul\":18960:19013   */\n      mstore\n        /* \"#utility.yul\":18843:19020   */\n      pop\n      jump\t// out\n        /* \"#utility.yul\":19026:19392   */\n    tag_250:\n        /* \"#utility.yul\":19168:19171   */\n      0x00\n        /* \"#utility.yul\":19189:19256   */\n      tag_434\n        /* \"#utility.yul\":19253:19255   */\n      0x1b\n        /* \"#utility.yul\":19248:19251   */\n      dup4\n        /* \"#utility.yul\":19189:19256   */\n      tag_228\n      jump\t// in\n    tag_434:\n        /* \"#utility.yul\":19182:19256   */\n      swap2\n      pop\n        /* \"#utility.yul\":19265:19358   */\n      tag_435\n        /* \"#utility.yul\":19354:19357   */\n      dup3\n        /* \"#utility.yul\":19265:19358   */\n      tag_249\n      jump\t// in\n    tag_435:\n        /* \"#utility.yul\":19383:19385   */\n      0x20\n        /* \"#utility.yul\":19378:19381   */\n      dup3\n        /* \"#utility.yul\":19374:19386   */\n      add\n        /* \"#utility.yul\":19367:19386   */\n      swap1\n      pop\n        /* \"#utility.yul\":19026:19392   */\n      swap2\n      swap1\n      pop\n      jump\t// out\n        /* \"#utility.yul\":19398:19817   */\n    tag_167:\n        /* \"#utility.yul\":19564:19568   */\n      0x00\n        /* \"#utility.yul\":19602:19604   */\n      0x20\n        /* \"#utility.yul\":19591:19600   */\n      dup3\n        /* \"#utility.yul\":19587:19605   */\n      add\n        /* \"#utility.yul\":19579:19605   */\n      swap1\n      pop\n        /* \"#utility.yul\":19651:19660   */\n      dup2\n        /* \"#utility.yul\":19645:19649   */\n      dup2\n        /* \"#utility.yul\":19641:19661   */\n      sub\n        /* \"#utility.yul\":19637:19638   */\n      0x00\n        /* \"#utility.yul\":19626:19635   */\n      dup4\n        /* \"#utility.yul\":19622:19639   */\n      add\n        /* \"#utility.yul\":19615:19662   */\n      mstore\n        /* \"#utility.yul\":19679:19810   */\n      tag_437\n        /* \"#utility.yul\":19805:19809   */\n      dup2\n        /* \"#utility.yul\":19679:19810   */\n      tag_250\n      jump\t// in\n    tag_437:\n        /* \"#utility.yul\":19671:19810   */\n      swap1\n      pop\n        /* \"#utility.yul\":19398:19817   */\n      swap2\n      swap1\n      pop\n      jump\t// out\n        /* \"#utility.yul\":19823:20155   */\n    tag_196:\n        /* \"#utility.yul\":19944:19948   */\n      0x00\n        /* \"#utility.yul\":19982:19984   */\n      0x40\n        /* \"#utility.yul\":19971:19980   */\n      dup3\n        /* \"#utility.yul\":19967:19985   */\n      add\n        /* \"#utility.yul\":19959:19985   */\n      swap1\n      pop\n        /* \"#utility.yul\":19995:20066   */\n      tag_439\n        /* \"#utility.yul\":20063:20064   */\n      0x00\n        /* \"#utility.yul\":20052:20061   */\n      dup4\n        /* \"#utility.yul\":20048:20065   */\n      add\n        /* \"#utility.yul\":20039:20045   */\n      dup6\n        /* \"#utility.yul\":19995:20066   */\n      tag_217\n      jump\t// in\n    tag_439:\n        /* \"#utility.yul\":20076:20148   */\n      tag_440\n        /* \"#utility.yul\":20144:20146   */\n      0x20\n        /* \"#utility.yul\":20133:20142   */\n      dup4\n        /* \"#utility.yul\":20129:20147   */\n      add\n        /* \"#utility.yul\":20120:20126   */\n      dup5\n        /* \"#utility.yul\":20076:20148   */\n      tag_216\n      jump\t// in\n    tag_440:\n        /* \"#utility.yul\":19823:20155   */\n      swap4\n      swap3\n      pop\n      pop\n      pop\n      jump\t// out\n\n    auxdata: 0xa2646970667358221220670e813ce75eb630d7eb2b6111b20c6443ffc10e9b1a03956ec997cc31e68c0864736f6c634300081a0033\n}\n",
				"bytecode": {
					"linkReferences": {},
					"object": "60a060405234801561000f575f80fd5b50604051611f6e380380611f6e833981810160405281019061003191906103cb565b600180819055505f73ffffffffffffffffffffffffffffffffffffffff168273ffffffffffffffffffffffffffffffffffffffff16036100a6576040517f08c379a000000000000000000000000000000000000000000000000000000000815260040161009d90610463565b60405180910390fd5b5f73ffffffffffffffffffffffffffffffffffffffff168173ffffffffffffffffffffffffffffffffffffffff1603610114576040517f08c379a000000000000000000000000000000000000000000000000000000000815260040161010b906104cb565b60405180910390fd5b8160025f6101000a81548173ffffffffffffffffffffffffffffffffffffffff021916908373ffffffffffffffffffffffffffffffffffffffff1602179055508073ffffffffffffffffffffffffffffffffffffffff1660808173ffffffffffffffffffffffffffffffffffffffff168152505061019a5f801b336101d360201b60201c565b506101cb7fa49807205ce4d355092ef5a8a18f56e8913cf4a201fbe287825b095693c21775336101d360201b60201c565b5050506104e9565b5f6101e483836102c860201b60201c565b6102be5760015f808581526020019081526020015f205f015f8473ffffffffffffffffffffffffffffffffffffffff1673ffffffffffffffffffffffffffffffffffffffff1681526020019081526020015f205f6101000a81548160ff02191690831515021790555061025b61032b60201b60201c565b73ffffffffffffffffffffffffffffffffffffffff168273ffffffffffffffffffffffffffffffffffffffff16847f2f8788117e7eff1d82e926ec794901d17c78024a50270940304540a733656f0d60405160405180910390a4600190506102c2565b5f90505b92915050565b5f805f8481526020019081526020015f205f015f8373ffffffffffffffffffffffffffffffffffffffff1673ffffffffffffffffffffffffffffffffffffffff1681526020019081526020015f205f9054906101000a900460ff16905092915050565b5f33905090565b5f80fd5b5f73ffffffffffffffffffffffffffffffffffffffff82169050919050565b5f61035f82610336565b9050919050565b5f61037082610355565b9050919050565b61038081610366565b811461038a575f80fd5b50565b5f8151905061039b81610377565b92915050565b6103aa81610355565b81146103b4575f80fd5b50565b5f815190506103c5816103a1565b92915050565b5f80604083850312156103e1576103e0610332565b5b5f6103ee8582860161038d565b92505060206103ff858286016103b7565b9150509250929050565b5f82825260208201905092915050565b7f496e76616c6964207377617020726f75746572206164647265737300000000005f82015250565b5f61044d601b83610409565b915061045882610419565b602082019050919050565b5f6020820190508181035f83015261047a81610441565b9050919050565b7f496e76616c6964205553444320616464726573730000000000000000000000005f82015250565b5f6104b5601483610409565b91506104c082610481565b602082019050919050565b5f6020820190508181035f8301526104e2816104a9565b9050919050565b608051611a5f61050f5f395f81816105ff0152818161090e0152610aa60152611a5f5ff3fe608060405234801561000f575f80fd5b5060043610610109575f3560e01c806389a30271116100a0578063a217fddf1161006f578063a217fddf146102d9578063b98b677f146102f7578063c31c9c0714610313578063d547741f14610331578063dd1b9c4a1461034d57610109565b806389a302711461023f57806391d148541461025d578063933f4eef1461028d5780639d93d352146102a957610109565b806336568abe116100dc57806336568abe146101b95780636d1ea3fa146101d557806375b238fc1461020557806380b2edd81461022357610109565b806301ffc9a71461010d5780632197545c1461013d578063248a9ca31461016d5780632f2ff15d1461019d575b5f80fd5b61012760048036038101906101229190611149565b61036b565b604051610134919061118e565b60405180910390f35b61015760048036038101906101529190611234565b6103e4565b60405161016491906112a7565b60405180910390f35b610187600480360381019061018291906112f3565b6107e8565b604051610194919061132d565b60405180910390f35b6101b760048036038101906101b29190611346565b610804565b005b6101d360048036038101906101ce9190611346565b610826565b005b6101ef60048036038101906101ea9190611384565b6108a1565b6040516101fc919061118e565b60405180910390f35b61020d6108be565b60405161021a919061132d565b60405180910390f35b61023d60048036038101906102389190611384565b6108e2565b005b610247610aa4565b60405161025491906113be565b60405180910390f35b61027760048036038101906102729190611346565b610ac8565b604051610284919061118e565b60405180910390f35b6102a760048036038101906102a29190611384565b610b2b565b005b6102c360048036038101906102be9190611384565b610c79565b6040516102d0919061118e565b60405180910390f35b6102e1610ccb565b6040516102ee919061132d565b60405180910390f35b610311600480360381019061030c9190611412565b610cd1565b005b61031b610dad565b6040516103289190611498565b60405180910390f35b61034b60048036038101906103469190611346565b610dd2565b005b610355610df4565b60405161036291906114ce565b60405180910390f35b5f7f7965db0b000000000000000000000000000000000000000000000000000000007bffffffffffffffffffffffffffffffffffffffffffffffffffffffff1916827bffffffffffffffffffffffffffffffffffffffffffffffffffffffff191614806103dd57506103dc82610dfa565b5b9050919050565b5f6103ed610e63565b8460035f8273ffffffffffffffffffffffffffffffffffffffff1673ffffffffffffffffffffffffffffffffffffffff1681526020019081526020015f205f9054906101000a900460ff16610477576040517f08c379a000000000000000000000000000000000000000000000000000000000815260040161046e90611541565b60405180910390fd5b5f85116104b9576040517f08c379a00000000000000000000000000000000000000000000000000000000081526004016104b0906115cf565b60405180910390fd5b8573ffffffffffffffffffffffffffffffffffffffff166323b872dd3330886040518463ffffffff1660e01b81526004016104f6939291906115ed565b6020604051808303815f875af1158015610512573d5f803e3d5ffd5b505050506040513d601f19601f82011682018060405250810190610536919061164c565b508573ffffffffffffffffffffffffffffffffffffffff1663095ea7b360025f9054906101000a900473ffffffffffffffffffffffffffffffffffffffff16876040518363ffffffff1660e01b8152600401610593929190611677565b6020604051808303815f875af11580156105af573d5f803e3d5ffd5b505050506040513d601f19601f820116820180604052508101906105d3919061164c565b505f6040518061010001604052808873ffffffffffffffffffffffffffffffffffffffff1681526020017f000000000000000000000000000000000000000000000000000000000000000073ffffffffffffffffffffffffffffffffffffffff168152602001610bb862ffffff1681526020013373ffffffffffffffffffffffffffffffffffffffff1681526020018581526020018781526020018681526020015f73ffffffffffffffffffffffffffffffffffffffff16815250905060025f9054906101000a900473ffffffffffffffffffffffffffffffffffffffff1673ffffffffffffffffffffffffffffffffffffffff1663414bf389826040518263ffffffff1660e01b81526004016106ea919061177a565b6020604051808303815f875af1158015610706573d5f803e3d5ffd5b505050506040513d601f19601f8201168201806040525081019061072a91906117a8565b92508483101561076f576040517f08c379a00000000000000000000000000000000000000000000000000000000081526004016107669061181d565b60405180910390fd5b8673ffffffffffffffffffffffffffffffffffffffff163373ffffffffffffffffffffffffffffffffffffffff167f30b60ee4dc75c0fb04420331b13e9ad7f8ff8fc51eac9c97d36fb20ccbe09d6688866040516107ce92919061183b565b60405180910390a350506107e0610ea9565b949350505050565b5f805f8381526020019081526020015f20600101549050919050565b61080d826107e8565b61081681610eb2565b6108208383610ec6565b50505050565b61082e610faf565b73ffffffffffffffffffffffffffffffffffffffff168173ffffffffffffffffffffffffffffffffffffffff1614610892576040517f6697b23200000000000000000000000000000000000000000000000000000000815260040160405180910390fd5b61089c8282610fb6565b505050565b6003602052805f5260405f205f915054906101000a900460ff1681565b7fa49807205ce4d355092ef5a8a18f56e8913cf4a201fbe287825b095693c2177581565b7fa49807205ce4d355092ef5a8a18f56e8913cf4a201fbe287825b095693c2177561090c81610eb2565b7f000000000000000000000000000000000000000000000000000000000000000073ffffffffffffffffffffffffffffffffffffffff168273ffffffffffffffffffffffffffffffffffffffff160361099a576040517f08c379a0000000000000000000000000000000000000000000000000000000008152600401610991906118ac565b60405180910390fd5b5f73ffffffffffffffffffffffffffffffffffffffff168273ffffffffffffffffffffffffffffffffffffffff1603610a08576040517f08c379a00000000000000000000000000000000000000000000000000000000081526004016109ff90611914565b60405180910390fd5b600160035f8473ffffffffffffffffffffffffffffffffffffffff1673ffffffffffffffffffffffffffffffffffffffff1681526020019081526020015f205f6101000a81548160ff0219169083151502179055508173ffffffffffffffffffffffffffffffffffffffff167f5f5916d70d5479c1795a9d461360dfa5c673bc37904c8ab4fcbdc970b9e90f3d60405160405180910390a25050565b7f000000000000000000000000000000000000000000000000000000000000000081565b5f805f8481526020019081526020015f205f015f8373ffffffffffffffffffffffffffffffffffffffff1673ffffffffffffffffffffffffffffffffffffffff1681526020019081526020015f205f9054906101000a900460ff16905092915050565b7fa49807205ce4d355092ef5a8a18f56e8913cf4a201fbe287825b095693c21775610b5581610eb2565b60035f8373ffffffffffffffffffffffffffffffffffffffff1673ffffffffffffffffffffffffffffffffffffffff1681526020019081526020015f205f9054906101000a900460ff16610bde576040517f08c379a0000000000000000000000000000000000000000000000000000000008152600401610bd59061197c565b60405180910390fd5b5f60035f8473ffffffffffffffffffffffffffffffffffffffff1673ffffffffffffffffffffffffffffffffffffffff1681526020019081526020015f205f6101000a81548160ff0219169083151502179055508173ffffffffffffffffffffffffffffffffffffffff167f45f62f30e7b8439e0da7d8e560fe39d01238091ce9e789e3d12b514edf98acea60405160405180910390a25050565b5f60035f8373ffffffffffffffffffffffffffffffffffffffff1673ffffffffffffffffffffffffffffffffffffffff1681526020019081526020015f205f9054906101000a900460ff169050919050565b5f801b81565b7fa49807205ce4d355092ef5a8a18f56e8913cf4a201fbe287825b095693c21775610cfb81610eb2565b5f73ffffffffffffffffffffffffffffffffffffffff168273ffffffffffffffffffffffffffffffffffffffff1603610d69576040517f08c379a0000000000000000000000000000000000000000000000000000000008152600401610d60906119e4565b60405180910390fd5b8160025f6101000a81548173ffffffffffffffffffffffffffffffffffffffff021916908373ffffffffffffffffffffffffffffffffffffffff1602179055505050565b60025f9054906101000a900473ffffffffffffffffffffffffffffffffffffffff1681565b610ddb826107e8565b610de481610eb2565b610dee8383610fb6565b50505050565b610bb881565b5f7f01ffc9a7000000000000000000000000000000000000000000000000000000007bffffffffffffffffffffffffffffffffffffffffffffffffffffffff1916827bffffffffffffffffffffffffffffffffffffffffffffffffffffffff1916149050919050565b600260015403610e9f576040517f3ee5aeb500000000000000000000000000000000000000000000000000000000815260040160405180910390fd5b6002600181905550565b60018081905550565b610ec381610ebe610faf565b61109f565b50565b5f610ed18383610ac8565b610fa55760015f808581526020019081526020015f205f015f8473ffffffffffffffffffffffffffffffffffffffff1673ffffffffffffffffffffffffffffffffffffffff1681526020019081526020015f205f6101000a81548160ff021916908315150217905550610f42610faf565b73ffffffffffffffffffffffffffffffffffffffff168273ffffffffffffffffffffffffffffffffffffffff16847f2f8788117e7eff1d82e926ec794901d17c78024a50270940304540a733656f0d60405160405180910390a460019050610fa9565b5f90505b92915050565b5f33905090565b5f610fc18383610ac8565b15611095575f805f8581526020019081526020015f205f015f8473ffffffffffffffffffffffffffffffffffffffff1673ffffffffffffffffffffffffffffffffffffffff1681526020019081526020015f205f6101000a81548160ff021916908315150217905550611032610faf565b73ffffffffffffffffffffffffffffffffffffffff168273ffffffffffffffffffffffffffffffffffffffff16847ff6391f5c32d9c69d2a47ea670b442974b53935d1edc7fd64eb21e047a839171b60405160405180910390a460019050611099565b5f90505b92915050565b6110a98282610ac8565b6110ec5780826040517fe2517d3f0000000000000000000000000000000000000000000000000000000081526004016110e3929190611a02565b60405180910390fd5b5050565b5f80fd5b5f7fffffffff0000000000000000000000000000000000000000000000000000000082169050919050565b611128816110f4565b8114611132575f80fd5b50565b5f813590506111438161111f565b92915050565b5f6020828403121561115e5761115d6110f0565b5b5f61116b84828501611135565b91505092915050565b5f8115159050919050565b61118881611174565b82525050565b5f6020820190506111a15f83018461117f565b92915050565b5f73ffffffffffffffffffffffffffffffffffffffff82169050919050565b5f6111d0826111a7565b9050919050565b6111e0816111c6565b81146111ea575f80fd5b50565b5f813590506111fb816111d7565b92915050565b5f819050919050565b61121381611201565b811461121d575f80fd5b50565b5f8135905061122e8161120a565b92915050565b5f805f806080858703121561124c5761124b6110f0565b5b5f611259878288016111ed565b945050602061126a87828801611220565b935050604061127b87828801611220565b925050606061128c87828801611220565b91505092959194509250565b6112a181611201565b82525050565b5f6020820190506112ba5f830184611298565b92915050565b5f819050919050565b6112d2816112c0565b81146112dc575f80fd5b50565b5f813590506112ed816112c9565b92915050565b5f60208284031215611308576113076110f0565b5b5f611315848285016112df565b91505092915050565b611327816112c0565b82525050565b5f6020820190506113405f83018461131e565b92915050565b5f806040838503121561135c5761135b6110f0565b5b5f611369858286016112df565b925050602061137a858286016111ed565b9150509250929050565b5f60208284031215611399576113986110f0565b5b5f6113a6848285016111ed565b91505092915050565b6113b8816111c6565b82525050565b5f6020820190506113d15f8301846113af565b92915050565b5f6113e1826111c6565b9050919050565b6113f1816113d7565b81146113fb575f80fd5b50565b5f8135905061140c816113e8565b92915050565b5f60208284031215611427576114266110f0565b5b5f611434848285016113fe565b91505092915050565b5f819050919050565b5f61146061145b611456846111a7565b61143d565b6111a7565b9050919050565b5f61147182611446565b9050919050565b5f61148282611467565b9050919050565b61149281611478565b82525050565b5f6020820190506114ab5f830184611489565b92915050565b5f62ffffff82169050919050565b6114c8816114b1565b82525050565b5f6020820190506114e15f8301846114bf565b92915050565b5f82825260208201905092915050565b7f546f6b656e206e6f7420617070726f76656420666f72207377617070696e67005f82015250565b5f61152b601f836114e7565b9150611536826114f7565b602082019050919050565b5f6020820190508181035f8301526115588161151f565b9050919050565b7f496e70757420616d6f756e74206d7573742062652067726561746572207468615f8201527f6e207a65726f0000000000000000000000000000000000000000000000000000602082015250565b5f6115b96026836114e7565b91506115c48261155f565b604082019050919050565b5f6020820190508181035f8301526115e6816115ad565b9050919050565b5f6060820190506116005f8301866113af565b61160d60208301856113af565b61161a6040830184611298565b949350505050565b61162b81611174565b8114611635575f80fd5b50565b5f8151905061164681611622565b92915050565b5f60208284031215611661576116606110f0565b5b5f61166e84828501611638565b91505092915050565b5f60408201905061168a5f8301856113af565b6116976020830184611298565b9392505050565b6116a7816111c6565b82525050565b6116b6816114b1565b82525050565b6116c581611201565b82525050565b6116d4816111a7565b82525050565b61010082015f8201516116ef5f85018261169e565b506020820151611702602085018261169e565b50604082015161171560408501826116ad565b506060820151611728606085018261169e565b50608082015161173b60808501826116bc565b5060a082015161174e60a08501826116bc565b5060c082015161176160c08501826116bc565b5060e082015161177460e08501826116cb565b50505050565b5f6101008201905061178e5f8301846116da565b92915050565b5f815190506117a28161120a565b92915050565b5f602082840312156117bd576117bc6110f0565b5b5f6117ca84828501611794565b91505092915050565b7f496e73756666696369656e74206f757470757420616d6f756e740000000000005f82015250565b5f611807601a836114e7565b9150611812826117d3565b602082019050919050565b5f6020820190508181035f830152611834816117fb565b9050919050565b5f60408201905061184e5f830185611298565b61185b6020830184611298565b9392505050565b7f5553444320697320616c7265616479207468652074617267657420746f6b656e5f82015250565b5f6118966020836114e7565b91506118a182611862565b602082019050919050565b5f6020820190508181035f8301526118c38161188a565b9050919050565b7f496e76616c696420746f6b656e206164647265737300000000000000000000005f82015250565b5f6118fe6015836114e7565b9150611909826118ca565b602082019050919050565b5f6020820190508181035f83015261192b816118f2565b9050919050565b7f546f6b656e206973206e6f7420617070726f76656400000000000000000000005f82015250565b5f6119666015836114e7565b915061197182611932565b602082019050919050565b5f6020820190508181035f8301526119938161195a565b9050919050565b7f496e76616c6964207377617020726f75746572206164647265737300000000005f82015250565b5f6119ce601b836114e7565b91506119d98261199a565b602082019050919050565b5f6020820190508181035f8301526119fb816119c2565b9050919050565b5f604082019050611a155f8301856113af565b611a22602083018461131e565b939250505056fea2646970667358221220670e813ce75eb630d7eb2b6111b20c6443ffc10e9b1a03956ec997cc31e68c0864736f6c634300081a0033",
					"opcodes": "PUSH1 0xA0 PUSH1 0x40 MSTORE CALLVALUE DUP1 ISZERO PUSH2 0xF JUMPI PUSH0 DUP1 REVERT JUMPDEST POP PUSH1 0x40 MLOAD PUSH2 0x1F6E CODESIZE SUB DUP1 PUSH2 0x1F6E DUP4 CODECOPY DUP2 DUP2 ADD PUSH1 0x40 MSTORE DUP2 ADD SWAP1 PUSH2 0x31 SWAP2 SWAP1 PUSH2 0x3CB JUMP JUMPDEST PUSH1 0x1 DUP1 DUP2 SWAP1 SSTORE POP PUSH0 PUSH20 0xFFFFFFFFFFFFFFFFFFFFFFFFFFFFFFFFFFFFFFFF AND DUP3 PUSH20 0xFFFFFFFFFFFFFFFFFFFFFFFFFFFFFFFFFFFFFFFF AND SUB PUSH2 0xA6 JUMPI PUSH1 0x40 MLOAD PUSH32 0x8C379A000000000000000000000000000000000000000000000000000000000 DUP2 MSTORE PUSH1 0x4 ADD PUSH2 0x9D SWAP1 PUSH2 0x463 JUMP JUMPDEST PUSH1 0x40 MLOAD DUP1 SWAP2 SUB SWAP1 REVERT JUMPDEST PUSH0 PUSH20 0xFFFFFFFFFFFFFFFFFFFFFFFFFFFFFFFFFFFFFFFF AND DUP2 PUSH20 0xFFFFFFFFFFFFFFFFFFFFFFFFFFFFFFFFFFFFFFFF AND SUB PUSH2 0x114 JUMPI PUSH1 0x40 MLOAD PUSH32 0x8C379A000000000000000000000000000000000000000000000000000000000 DUP2 MSTORE PUSH1 0x4 ADD PUSH2 0x10B SWAP1 PUSH2 0x4CB JUMP JUMPDEST PUSH1 0x40 MLOAD DUP1 SWAP2 SUB SWAP1 REVERT JUMPDEST DUP2 PUSH1 0x2 PUSH0 PUSH2 0x100 EXP DUP2 SLOAD DUP2 PUSH20 0xFFFFFFFFFFFFFFFFFFFFFFFFFFFFFFFFFFFFFFFF MUL NOT AND SWAP1 DUP4 PUSH20 0xFFFFFFFFFFFFFFFFFFFFFFFFFFFFFFFFFFFFFFFF AND MUL OR SWAP1 SSTORE POP DUP1 PUSH20 0xFFFFFFFFFFFFFFFFFFFFFFFFFFFFFFFFFFFFFFFF AND PUSH1 0x80 DUP2 PUSH20 0xFFFFFFFFFFFFFFFFFFFFFFFFFFFFFFFFFFFFFFFF AND DUP2 MSTORE POP POP PUSH2 0x19A PUSH0 DUP1 SHL CALLER PUSH2 0x1D3 PUSH1 0x20 SHL PUSH1 0x20 SHR JUMP JUMPDEST POP PUSH2 0x1CB PUSH32 0xA49807205CE4D355092EF5A8A18F56E8913CF4A201FBE287825B095693C21775 CALLER PUSH2 0x1D3 PUSH1 0x20 SHL PUSH1 0x20 SHR JUMP JUMPDEST POP POP POP PUSH2 0x4E9 JUMP JUMPDEST PUSH0 PUSH2 0x1E4 DUP4 DUP4 PUSH2 0x2C8 PUSH1 0x20 SHL PUSH1 0x20 SHR JUMP JUMPDEST PUSH2 0x2BE JUMPI PUSH1 0x1 PUSH0 DUP1 DUP6 DUP2 MSTORE PUSH1 0x20 ADD SWAP1 DUP2 MSTORE PUSH1 0x20 ADD PUSH0 KECCAK256 PUSH0 ADD PUSH0 DUP5 PUSH20 0xFFFFFFFFFFFFFFFFFFFFFFFFFFFFFFFFFFFFFFFF AND PUSH20 0xFFFFFFFFFFFFFFFFFFFFFFFFFFFFFFFFFFFFFFFF AND DUP2 MSTORE PUSH1 0x20 ADD SWAP1 DUP2 MSTORE PUSH1 0x20 ADD PUSH0 KECCAK256 PUSH0 PUSH2 0x100 EXP DUP2 SLOAD DUP2 PUSH1 0xFF MUL NOT AND SWAP1 DUP4 ISZERO ISZERO MUL OR SWAP1 SSTORE POP PUSH2 0x25B PUSH2 0x32B PUSH1 0x20 SHL PUSH1 0x20 SHR JUMP JUMPDEST PUSH20 0xFFFFFFFFFFFFFFFFFFFFFFFFFFFFFFFFFFFFFFFF AND DUP3 PUSH20 0xFFFFFFFFFFFFFFFFFFFFFFFFFFFFFFFFFFFFFFFF AND DUP5 PUSH32 0x2F8788117E7EFF1D82E926EC794901D17C78024A50270940304540A733656F0D PUSH1 0x40 MLOAD PUSH1 0x40 MLOAD DUP1 SWAP2 SUB SWAP1 LOG4 PUSH1 0x1 SWAP1 POP PUSH2 0x2C2 JUMP JUMPDEST PUSH0 SWAP1 POP JUMPDEST SWAP3 SWAP2 POP POP JUMP JUMPDEST PUSH0 DUP1 PUSH0 DUP5 DUP2 MSTORE PUSH1 0x20 ADD SWAP1 DUP2 MSTORE PUSH1 0x20 ADD PUSH0 KECCAK256 PUSH0 ADD PUSH0 DUP4 PUSH20 0xFFFFFFFFFFFFFFFFFFFFFFFFFFFFFFFFFFFFFFFF AND PUSH20 0xFFFFFFFFFFFFFFFFFFFFFFFFFFFFFFFFFFFFFFFF AND DUP2 MSTORE PUSH1 0x20 ADD SWAP1 DUP2 MSTORE PUSH1 0x20 ADD PUSH0 KECCAK256 PUSH0 SWAP1 SLOAD SWAP1 PUSH2 0x100 EXP SWAP1 DIV PUSH1 0xFF AND SWAP1 POP SWAP3 SWAP2 POP POP JUMP JUMPDEST PUSH0 CALLER SWAP1 POP SWAP1 JUMP JUMPDEST PUSH0 DUP1 REVERT JUMPDEST PUSH0 PUSH20 0xFFFFFFFFFFFFFFFFFFFFFFFFFFFFFFFFFFFFFFFF DUP3 AND SWAP1 POP SWAP2 SWAP1 POP JUMP JUMPDEST PUSH0 PUSH2 0x35F DUP3 PUSH2 0x336 JUMP JUMPDEST SWAP1 POP SWAP2 SWAP1 POP JUMP JUMPDEST PUSH0 PUSH2 0x370 DUP3 PUSH2 0x355 JUMP JUMPDEST SWAP1 POP SWAP2 SWAP1 POP JUMP JUMPDEST PUSH2 0x380 DUP2 PUSH2 0x366 JUMP JUMPDEST DUP2 EQ PUSH2 0x38A JUMPI PUSH0 DUP1 REVERT JUMPDEST POP JUMP JUMPDEST PUSH0 DUP2 MLOAD SWAP1 POP PUSH2 0x39B DUP2 PUSH2 0x377 JUMP JUMPDEST SWAP3 SWAP2 POP POP JUMP JUMPDEST PUSH2 0x3AA DUP2 PUSH2 0x355 JUMP JUMPDEST DUP2 EQ PUSH2 0x3B4 JUMPI PUSH0 DUP1 REVERT JUMPDEST POP JUMP JUMPDEST PUSH0 DUP2 MLOAD SWAP1 POP PUSH2 0x3C5 DUP2 PUSH2 0x3A1 JUMP JUMPDEST SWAP3 SWAP2 POP POP JUMP JUMPDEST PUSH0 DUP1 PUSH1 0x40 DUP4 DUP6 SUB SLT ISZERO PUSH2 0x3E1 JUMPI PUSH2 0x3E0 PUSH2 0x332 JUMP JUMPDEST JUMPDEST PUSH0 PUSH2 0x3EE DUP6 DUP3 DUP7 ADD PUSH2 0x38D JUMP JUMPDEST SWAP3 POP POP PUSH1 0x20 PUSH2 0x3FF DUP6 DUP3 DUP7 ADD PUSH2 0x3B7 JUMP JUMPDEST SWAP2 POP POP SWAP3 POP SWAP3 SWAP1 POP JUMP JUMPDEST PUSH0 DUP3 DUP3 MSTORE PUSH1 0x20 DUP3 ADD SWAP1 POP SWAP3 SWAP2 POP POP JUMP JUMPDEST PUSH32 0x496E76616C6964207377617020726F7574657220616464726573730000000000 PUSH0 DUP3 ADD MSTORE POP JUMP JUMPDEST PUSH0 PUSH2 0x44D PUSH1 0x1B DUP4 PUSH2 0x409 JUMP JUMPDEST SWAP2 POP PUSH2 0x458 DUP3 PUSH2 0x419 JUMP JUMPDEST PUSH1 0x20 DUP3 ADD SWAP1 POP SWAP2 SWAP1 POP JUMP JUMPDEST PUSH0 PUSH1 0x20 DUP3 ADD SWAP1 POP DUP2 DUP2 SUB PUSH0 DUP4 ADD MSTORE PUSH2 0x47A DUP2 PUSH2 0x441 JUMP JUMPDEST SWAP1 POP SWAP2 SWAP1 POP JUMP JUMPDEST PUSH32 0x496E76616C696420555344432061646472657373000000000000000000000000 PUSH0 DUP3 ADD MSTORE POP JUMP JUMPDEST PUSH0 PUSH2 0x4B5 PUSH1 0x14 DUP4 PUSH2 0x409 JUMP JUMPDEST SWAP2 POP PUSH2 0x4C0 DUP3 PUSH2 0x481 JUMP JUMPDEST PUSH1 0x20 DUP3 ADD SWAP1 POP SWAP2 SWAP1 POP JUMP JUMPDEST PUSH0 PUSH1 0x20 DUP3 ADD SWAP1 POP DUP2 DUP2 SUB PUSH0 DUP4 ADD MSTORE PUSH2 0x4E2 DUP2 PUSH2 0x4A9 JUMP JUMPDEST SWAP1 POP SWAP2 SWAP1 POP JUMP JUMPDEST PUSH1 0x80 MLOAD PUSH2 0x1A5F PUSH2 0x50F PUSH0 CODECOPY PUSH0 DUP2 DUP2 PUSH2 0x5FF ADD MSTORE DUP2 DUP2 PUSH2 0x90E ADD MSTORE PUSH2 0xAA6 ADD MSTORE PUSH2 0x1A5F PUSH0 RETURN INVALID PUSH1 0x80 PUSH1 0x40 MSTORE CALLVALUE DUP1 ISZERO PUSH2 0xF JUMPI PUSH0 DUP1 REVERT JUMPDEST POP PUSH1 0x4 CALLDATASIZE LT PUSH2 0x109 JUMPI PUSH0 CALLDATALOAD PUSH1 0xE0 SHR DUP1 PUSH4 0x89A30271 GT PUSH2 0xA0 JUMPI DUP1 PUSH4 0xA217FDDF GT PUSH2 0x6F JUMPI DUP1 PUSH4 0xA217FDDF EQ PUSH2 0x2D9 JUMPI DUP1 PUSH4 0xB98B677F EQ PUSH2 0x2F7 JUMPI DUP1 PUSH4 0xC31C9C07 EQ PUSH2 0x313 JUMPI DUP1 PUSH4 0xD547741F EQ PUSH2 0x331 JUMPI DUP1 PUSH4 0xDD1B9C4A EQ PUSH2 0x34D JUMPI PUSH2 0x109 JUMP JUMPDEST DUP1 PUSH4 0x89A30271 EQ PUSH2 0x23F JUMPI DUP1 PUSH4 0x91D14854 EQ PUSH2 0x25D JUMPI DUP1 PUSH4 0x933F4EEF EQ PUSH2 0x28D JUMPI DUP1 PUSH4 0x9D93D352 EQ PUSH2 0x2A9 JUMPI PUSH2 0x109 JUMP JUMPDEST DUP1 PUSH4 0x36568ABE GT PUSH2 0xDC JUMPI DUP1 PUSH4 0x36568ABE EQ PUSH2 0x1B9 JUMPI DUP1 PUSH4 0x6D1EA3FA EQ PUSH2 0x1D5 JUMPI DUP1 PUSH4 0x75B238FC EQ PUSH2 0x205 JUMPI DUP1 PUSH4 0x80B2EDD8 EQ PUSH2 0x223 JUMPI PUSH2 0x109 JUMP JUMPDEST DUP1 PUSH4 0x1FFC9A7 EQ PUSH2 0x10D JUMPI DUP1 PUSH4 0x2197545C EQ PUSH2 0x13D JUMPI DUP1 PUSH4 0x248A9CA3 EQ PUSH2 0x16D JUMPI DUP1 PUSH4 0x2F2FF15D EQ PUSH2 0x19D JUMPI JUMPDEST PUSH0 DUP1 REVERT JUMPDEST PUSH2 0x127 PUSH1 0x4 DUP1 CALLDATASIZE SUB DUP2 ADD SWAP1 PUSH2 0x122 SWAP2 SWAP1 PUSH2 0x1149 JUMP JUMPDEST PUSH2 0x36B JUMP JUMPDEST PUSH1 0x40 MLOAD PUSH2 0x134 SWAP2 SWAP1 PUSH2 0x118E JUMP JUMPDEST PUSH1 0x40 MLOAD DUP1 SWAP2 SUB SWAP1 RETURN JUMPDEST PUSH2 0x157 PUSH1 0x4 DUP1 CALLDATASIZE SUB DUP2 ADD SWAP1 PUSH2 0x152 SWAP2 SWAP1 PUSH2 0x1234 JUMP JUMPDEST PUSH2 0x3E4 JUMP JUMPDEST PUSH1 0x40 MLOAD PUSH2 0x164 SWAP2 SWAP1 PUSH2 0x12A7 JUMP JUMPDEST PUSH1 0x40 MLOAD DUP1 SWAP2 SUB SWAP1 RETURN JUMPDEST PUSH2 0x187 PUSH1 0x4 DUP1 CALLDATASIZE SUB DUP2 ADD SWAP1 PUSH2 0x182 SWAP2 SWAP1 PUSH2 0x12F3 JUMP JUMPDEST PUSH2 0x7E8 JUMP JUMPDEST PUSH1 0x40 MLOAD PUSH2 0x194 SWAP2 SWAP1 PUSH2 0x132D JUMP JUMPDEST PUSH1 0x40 MLOAD DUP1 SWAP2 SUB SWAP1 RETURN JUMPDEST PUSH2 0x1B7 PUSH1 0x4 DUP1 CALLDATASIZE SUB DUP2 ADD SWAP1 PUSH2 0x1B2 SWAP2 SWAP1 PUSH2 0x1346 JUMP JUMPDEST PUSH2 0x804 JUMP JUMPDEST STOP JUMPDEST PUSH2 0x1D3 PUSH1 0x4 DUP1 CALLDATASIZE SUB DUP2 ADD SWAP1 PUSH2 0x1CE SWAP2 SWAP1 PUSH2 0x1346 JUMP JUMPDEST PUSH2 0x826 JUMP JUMPDEST STOP JUMPDEST PUSH2 0x1EF PUSH1 0x4 DUP1 CALLDATASIZE SUB DUP2 ADD SWAP1 PUSH2 0x1EA SWAP2 SWAP1 PUSH2 0x1384 JUMP JUMPDEST PUSH2 0x8A1 JUMP JUMPDEST PUSH1 0x40 MLOAD PUSH2 0x1FC SWAP2 SWAP1 PUSH2 0x118E JUMP JUMPDEST PUSH1 0x40 MLOAD DUP1 SWAP2 SUB SWAP1 RETURN JUMPDEST PUSH2 0x20D PUSH2 0x8BE JUMP JUMPDEST PUSH1 0x40 MLOAD PUSH2 0x21A SWAP2 SWAP1 PUSH2 0x132D JUMP JUMPDEST PUSH1 0x40 MLOAD DUP1 SWAP2 SUB SWAP1 RETURN JUMPDEST PUSH2 0x23D PUSH1 0x4 DUP1 CALLDATASIZE SUB DUP2 ADD SWAP1 PUSH2 0x238 SWAP2 SWAP1 PUSH2 0x1384 JUMP JUMPDEST PUSH2 0x8E2 JUMP JUMPDEST STOP JUMPDEST PUSH2 0x247 PUSH2 0xAA4 JUMP JUMPDEST PUSH1 0x40 MLOAD PUSH2 0x254 SWAP2 SWAP1 PUSH2 0x13BE JUMP JUMPDEST PUSH1 0x40 MLOAD DUP1 SWAP2 SUB SWAP1 RETURN JUMPDEST PUSH2 0x277 PUSH1 0x4 DUP1 CALLDATASIZE SUB DUP2 ADD SWAP1 PUSH2 0x272 SWAP2 SWAP1 PUSH2 0x1346 JUMP JUMPDEST PUSH2 0xAC8 JUMP JUMPDEST PUSH1 0x40 MLOAD PUSH2 0x284 SWAP2 SWAP1 PUSH2 0x118E JUMP JUMPDEST PUSH1 0x40 MLOAD DUP1 SWAP2 SUB SWAP1 RETURN JUMPDEST PUSH2 0x2A7 PUSH1 0x4 DUP1 CALLDATASIZE SUB DUP2 ADD SWAP1 PUSH2 0x2A2 SWAP2 SWAP1 PUSH2 0x1384 JUMP JUMPDEST PUSH2 0xB2B JUMP JUMPDEST STOP JUMPDEST PUSH2 0x2C3 PUSH1 0x4 DUP1 CALLDATASIZE SUB DUP2 ADD SWAP1 PUSH2 0x2BE SWAP2 SWAP1 PUSH2 0x1384 JUMP JUMPDEST PUSH2 0xC79 JUMP JUMPDEST PUSH1 0x40 MLOAD PUSH2 0x2D0 SWAP2 SWAP1 PUSH2 0x118E JUMP JUMPDEST PUSH1 0x40 MLOAD DUP1 SWAP2 SUB SWAP1 RETURN JUMPDEST PUSH2 0x2E1 PUSH2 0xCCB JUMP JUMPDEST PUSH1 0x40 MLOAD PUSH2 0x2EE SWAP2 SWAP1 PUSH2 0x132D JUMP JUMPDEST PUSH1 0x40 MLOAD DUP1 SWAP2 SUB SWAP1 RETURN JUMPDEST PUSH2 0x311 PUSH1 0x4 DUP1 CALLDATASIZE SUB DUP2 ADD SWAP1 PUSH2 0x30C SWAP2 SWAP1 PUSH2 0x1412 JUMP JUMPDEST PUSH2 0xCD1 JUMP JUMPDEST STOP JUMPDEST PUSH2 0x31B PUSH2 0xDAD JUMP JUMPDEST PUSH1 0x40 MLOAD PUSH2 0x328 SWAP2 SWAP1 PUSH2 0x1498 JUMP JUMPDEST PUSH1 0x40 MLOAD DUP1 SWAP2 SUB SWAP1 RETURN JUMPDEST PUSH2 0x34B PUSH1 0x4 DUP1 CALLDATASIZE SUB DUP2 ADD SWAP1 PUSH2 0x346 SWAP2 SWAP1 PUSH2 0x1346 JUMP JUMPDEST PUSH2 0xDD2 JUMP JUMPDEST STOP JUMPDEST PUSH2 0x355 PUSH2 0xDF4 JUMP JUMPDEST PUSH1 0x40 MLOAD PUSH2 0x362 SWAP2 SWAP1 PUSH2 0x14CE JUMP JUMPDEST PUSH1 0x40 MLOAD DUP1 SWAP2 SUB SWAP1 RETURN JUMPDEST PUSH0 PUSH32 0x7965DB0B00000000000000000000000000000000000000000000000000000000 PUSH28 0xFFFFFFFFFFFFFFFFFFFFFFFFFFFFFFFFFFFFFFFFFFFFFFFFFFFFFFFF NOT AND DUP3 PUSH28 0xFFFFFFFFFFFFFFFFFFFFFFFFFFFFFFFFFFFFFFFFFFFFFFFFFFFFFFFF NOT AND EQ DUP1 PUSH2 0x3DD JUMPI POP PUSH2 0x3DC DUP3 PUSH2 0xDFA JUMP JUMPDEST JUMPDEST SWAP1 POP SWAP2 SWAP1 POP JUMP JUMPDEST PUSH0 PUSH2 0x3ED PUSH2 0xE63 JUMP JUMPDEST DUP5 PUSH1 0x3 PUSH0 DUP3 PUSH20 0xFFFFFFFFFFFFFFFFFFFFFFFFFFFFFFFFFFFFFFFF AND PUSH20 0xFFFFFFFFFFFFFFFFFFFFFFFFFFFFFFFFFFFFFFFF AND DUP2 MSTORE PUSH1 0x20 ADD SWAP1 DUP2 MSTORE PUSH1 0x20 ADD PUSH0 KECCAK256 PUSH0 SWAP1 SLOAD SWAP1 PUSH2 0x100 EXP SWAP1 DIV PUSH1 0xFF AND PUSH2 0x477 JUMPI PUSH1 0x40 MLOAD PUSH32 0x8C379A000000000000000000000000000000000000000000000000000000000 DUP2 MSTORE PUSH1 0x4 ADD PUSH2 0x46E SWAP1 PUSH2 0x1541 JUMP JUMPDEST PUSH1 0x40 MLOAD DUP1 SWAP2 SUB SWAP1 REVERT JUMPDEST PUSH0 DUP6 GT PUSH2 0x4B9 JUMPI PUSH1 0x40 MLOAD PUSH32 0x8C379A000000000000000000000000000000000000000000000000000000000 DUP2 MSTORE PUSH1 0x4 ADD PUSH2 0x4B0 SWAP1 PUSH2 0x15CF JUMP JUMPDEST PUSH1 0x40 MLOAD DUP1 SWAP2 SUB SWAP1 REVERT JUMPDEST DUP6 PUSH20 0xFFFFFFFFFFFFFFFFFFFFFFFFFFFFFFFFFFFFFFFF AND PUSH4 0x23B872DD CALLER ADDRESS DUP9 PUSH1 0x40 MLOAD DUP5 PUSH4 0xFFFFFFFF AND PUSH1 0xE0 SHL DUP2 MSTORE PUSH1 0x4 ADD PUSH2 0x4F6 SWAP4 SWAP3 SWAP2 SWAP1 PUSH2 0x15ED JUMP JUMPDEST PUSH1 0x20 PUSH1 0x40 MLOAD DUP1 DUP4 SUB DUP2 PUSH0 DUP8 GAS CALL ISZERO DUP1 ISZERO PUSH2 0x512 JUMPI RETURNDATASIZE PUSH0 DUP1 RETURNDATACOPY RETURNDATASIZE PUSH0 REVERT JUMPDEST POP POP POP POP PUSH1 0x40 MLOAD RETURNDATASIZE PUSH1 0x1F NOT PUSH1 0x1F DUP3 ADD AND DUP3 ADD DUP1 PUSH1 0x40 MSTORE POP DUP2 ADD SWAP1 PUSH2 0x536 SWAP2 SWAP1 PUSH2 0x164C JUMP JUMPDEST POP DUP6 PUSH20 0xFFFFFFFFFFFFFFFFFFFFFFFFFFFFFFFFFFFFFFFF AND PUSH4 0x95EA7B3 PUSH1 0x2 PUSH0 SWAP1 SLOAD SWAP1 PUSH2 0x100 EXP SWAP1 DIV PUSH20 0xFFFFFFFFFFFFFFFFFFFFFFFFFFFFFFFFFFFFFFFF AND DUP8 PUSH1 0x40 MLOAD DUP4 PUSH4 0xFFFFFFFF AND PUSH1 0xE0 SHL DUP2 MSTORE PUSH1 0x4 ADD PUSH2 0x593 SWAP3 SWAP2 SWAP1 PUSH2 0x1677 JUMP JUMPDEST PUSH1 0x20 PUSH1 0x40 MLOAD DUP1 DUP4 SUB DUP2 PUSH0 DUP8 GAS CALL ISZERO DUP1 ISZERO PUSH2 0x5AF JUMPI RETURNDATASIZE PUSH0 DUP1 RETURNDATACOPY RETURNDATASIZE PUSH0 REVERT JUMPDEST POP POP POP POP PUSH1 0x40 MLOAD RETURNDATASIZE PUSH1 0x1F NOT PUSH1 0x1F DUP3 ADD AND DUP3 ADD DUP1 PUSH1 0x40 MSTORE POP DUP2 ADD SWAP1 PUSH2 0x5D3 SWAP2 SWAP1 PUSH2 0x164C JUMP JUMPDEST POP PUSH0 PUSH1 0x40 MLOAD DUP1 PUSH2 0x100 ADD PUSH1 0x40 MSTORE DUP1 DUP9 PUSH20 0xFFFFFFFFFFFFFFFFFFFFFFFFFFFFFFFFFFFFFFFF AND DUP2 MSTORE PUSH1 0x20 ADD PUSH32 0x0 PUSH20 0xFFFFFFFFFFFFFFFFFFFFFFFFFFFFFFFFFFFFFFFF AND DUP2 MSTORE PUSH1 0x20 ADD PUSH2 0xBB8 PUSH3 0xFFFFFF AND DUP2 MSTORE PUSH1 0x20 ADD CALLER PUSH20 0xFFFFFFFFFFFFFFFFFFFFFFFFFFFFFFFFFFFFFFFF AND DUP2 MSTORE PUSH1 0x20 ADD DUP6 DUP2 MSTORE PUSH1 0x20 ADD DUP8 DUP2 MSTORE PUSH1 0x20 ADD DUP7 DUP2 MSTORE PUSH1 0x20 ADD PUSH0 PUSH20 0xFFFFFFFFFFFFFFFFFFFFFFFFFFFFFFFFFFFFFFFF AND DUP2 MSTORE POP SWAP1 POP PUSH1 0x2 PUSH0 SWAP1 SLOAD SWAP1 PUSH2 0x100 EXP SWAP1 DIV PUSH20 0xFFFFFFFFFFFFFFFFFFFFFFFFFFFFFFFFFFFFFFFF AND PUSH20 0xFFFFFFFFFFFFFFFFFFFFFFFFFFFFFFFFFFFFFFFF AND PUSH4 0x414BF389 DUP3 PUSH1 0x40 MLOAD DUP3 PUSH4 0xFFFFFFFF AND PUSH1 0xE0 SHL DUP2 MSTORE PUSH1 0x4 ADD PUSH2 0x6EA SWAP2 SWAP1 PUSH2 0x177A JUMP JUMPDEST PUSH1 0x20 PUSH1 0x40 MLOAD DUP1 DUP4 SUB DUP2 PUSH0 DUP8 GAS CALL ISZERO DUP1 ISZERO PUSH2 0x706 JUMPI RETURNDATASIZE PUSH0 DUP1 RETURNDATACOPY RETURNDATASIZE PUSH0 REVERT JUMPDEST POP POP POP POP PUSH1 0x40 MLOAD RETURNDATASIZE PUSH1 0x1F NOT PUSH1 0x1F DUP3 ADD AND DUP3 ADD DUP1 PUSH1 0x40 MSTORE POP DUP2 ADD SWAP1 PUSH2 0x72A SWAP2 SWAP1 PUSH2 0x17A8 JUMP JUMPDEST SWAP3 POP DUP5 DUP4 LT ISZERO PUSH2 0x76F JUMPI PUSH1 0x40 MLOAD PUSH32 0x8C379A000000000000000000000000000000000000000000000000000000000 DUP2 MSTORE PUSH1 0x4 ADD PUSH2 0x766 SWAP1 PUSH2 0x181D JUMP JUMPDEST PUSH1 0x40 MLOAD DUP1 SWAP2 SUB SWAP1 REVERT JUMPDEST DUP7 PUSH20 0xFFFFFFFFFFFFFFFFFFFFFFFFFFFFFFFFFFFFFFFF AND CALLER PUSH20 0xFFFFFFFFFFFFFFFFFFFFFFFFFFFFFFFFFFFFFFFF AND PUSH32 0x30B60EE4DC75C0FB04420331B13E9AD7F8FF8FC51EAC9C97D36FB20CCBE09D66 DUP9 DUP7 PUSH1 0x40 MLOAD PUSH2 0x7CE SWAP3 SWAP2 SWAP1 PUSH2 0x183B JUMP JUMPDEST PUSH1 0x40 MLOAD DUP1 SWAP2 SUB SWAP1 LOG3 POP POP PUSH2 0x7E0 PUSH2 0xEA9 JUMP JUMPDEST SWAP5 SWAP4 POP POP POP POP JUMP JUMPDEST PUSH0 DUP1 PUSH0 DUP4 DUP2 MSTORE PUSH1 0x20 ADD SWAP1 DUP2 MSTORE PUSH1 0x20 ADD PUSH0 KECCAK256 PUSH1 0x1 ADD SLOAD SWAP1 POP SWAP2 SWAP1 POP JUMP JUMPDEST PUSH2 0x80D DUP3 PUSH2 0x7E8 JUMP JUMPDEST PUSH2 0x816 DUP2 PUSH2 0xEB2 JUMP JUMPDEST PUSH2 0x820 DUP4 DUP4 PUSH2 0xEC6 JUMP JUMPDEST POP POP POP POP JUMP JUMPDEST PUSH2 0x82E PUSH2 0xFAF JUMP JUMPDEST PUSH20 0xFFFFFFFFFFFFFFFFFFFFFFFFFFFFFFFFFFFFFFFF AND DUP2 PUSH20 0xFFFFFFFFFFFFFFFFFFFFFFFFFFFFFFFFFFFFFFFF AND EQ PUSH2 0x892 JUMPI PUSH1 0x40 MLOAD PUSH32 0x6697B23200000000000000000000000000000000000000000000000000000000 DUP2 MSTORE PUSH1 0x4 ADD PUSH1 0x40 MLOAD DUP1 SWAP2 SUB SWAP1 REVERT JUMPDEST PUSH2 0x89C DUP3 DUP3 PUSH2 0xFB6 JUMP JUMPDEST POP POP POP JUMP JUMPDEST PUSH1 0x3 PUSH1 0x20 MSTORE DUP1 PUSH0 MSTORE PUSH1 0x40 PUSH0 KECCAK256 PUSH0 SWAP2 POP SLOAD SWAP1 PUSH2 0x100 EXP SWAP1 DIV PUSH1 0xFF AND DUP2 JUMP JUMPDEST PUSH32 0xA49807205CE4D355092EF5A8A18F56E8913CF4A201FBE287825B095693C21775 DUP2 JUMP JUMPDEST PUSH32 0xA49807205CE4D355092EF5A8A18F56E8913CF4A201FBE287825B095693C21775 PUSH2 0x90C DUP2 PUSH2 0xEB2 JUMP JUMPDEST PUSH32 0x0 PUSH20 0xFFFFFFFFFFFFFFFFFFFFFFFFFFFFFFFFFFFFFFFF AND DUP3 PUSH20 0xFFFFFFFFFFFFFFFFFFFFFFFFFFFFFFFFFFFFFFFF AND SUB PUSH2 0x99A JUMPI PUSH1 0x40 MLOAD PUSH32 0x8C379A000000000000000000000000000000000000000000000000000000000 DUP2 MSTORE PUSH1 0x4 ADD PUSH2 0x991 SWAP1 PUSH2 0x18AC JUMP JUMPDEST PUSH1 0x40 MLOAD DUP1 SWAP2 SUB SWAP1 REVERT JUMPDEST PUSH0 PUSH20 0xFFFFFFFFFFFFFFFFFFFFFFFFFFFFFFFFFFFFFFFF AND DUP3 PUSH20 0xFFFFFFFFFFFFFFFFFFFFFFFFFFFFFFFFFFFFFFFF AND SUB PUSH2 0xA08 JUMPI PUSH1 0x40 MLOAD PUSH32 0x8C379A000000000000000000000000000000000000000000000000000000000 DUP2 MSTORE PUSH1 0x4 ADD PUSH2 0x9FF SWAP1 PUSH2 0x1914 JUMP JUMPDEST PUSH1 0x40 MLOAD DUP1 SWAP2 SUB SWAP1 REVERT JUMPDEST PUSH1 0x1 PUSH1 0x3 PUSH0 DUP5 PUSH20 0xFFFFFFFFFFFFFFFFFFFFFFFFFFFFFFFFFFFFFFFF AND PUSH20 0xFFFFFFFFFFFFFFFFFFFFFFFFFFFFFFFFFFFFFFFF AND DUP2 MSTORE PUSH1 0x20 ADD SWAP1 DUP2 MSTORE PUSH1 0x20 ADD PUSH0 KECCAK256 PUSH0 PUSH2 0x100 EXP DUP2 SLOAD DUP2 PUSH1 0xFF MUL NOT AND SWAP1 DUP4 ISZERO ISZERO MUL OR SWAP1 SSTORE POP DUP2 PUSH20 0xFFFFFFFFFFFFFFFFFFFFFFFFFFFFFFFFFFFFFFFF AND PUSH32 0x5F5916D70D5479C1795A9D461360DFA5C673BC37904C8AB4FCBDC970B9E90F3D PUSH1 0x40 MLOAD PUSH1 0x40 MLOAD DUP1 SWAP2 SUB SWAP1 LOG2 POP POP JUMP JUMPDEST PUSH32 0x0 DUP2 JUMP JUMPDEST PUSH0 DUP1 PUSH0 DUP5 DUP2 MSTORE PUSH1 0x20 ADD SWAP1 DUP2 MSTORE PUSH1 0x20 ADD PUSH0 KECCAK256 PUSH0 ADD PUSH0 DUP4 PUSH20 0xFFFFFFFFFFFFFFFFFFFFFFFFFFFFFFFFFFFFFFFF AND PUSH20 0xFFFFFFFFFFFFFFFFFFFFFFFFFFFFFFFFFFFFFFFF AND DUP2 MSTORE PUSH1 0x20 ADD SWAP1 DUP2 MSTORE PUSH1 0x20 ADD PUSH0 KECCAK256 PUSH0 SWAP1 SLOAD SWAP1 PUSH2 0x100 EXP SWAP1 DIV PUSH1 0xFF AND SWAP1 POP SWAP3 SWAP2 POP POP JUMP JUMPDEST PUSH32 0xA49807205CE4D355092EF5A8A18F56E8913CF4A201FBE287825B095693C21775 PUSH2 0xB55 DUP2 PUSH2 0xEB2 JUMP JUMPDEST PUSH1 0x3 PUSH0 DUP4 PUSH20 0xFFFFFFFFFFFFFFFFFFFFFFFFFFFFFFFFFFFFFFFF AND PUSH20 0xFFFFFFFFFFFFFFFFFFFFFFFFFFFFFFFFFFFFFFFF AND DUP2 MSTORE PUSH1 0x20 ADD SWAP1 DUP2 MSTORE PUSH1 0x20 ADD PUSH0 KECCAK256 PUSH0 SWAP1 SLOAD SWAP1 PUSH2 0x100 EXP SWAP1 DIV PUSH1 0xFF AND PUSH2 0xBDE JUMPI PUSH1 0x40 MLOAD PUSH32 0x8C379A000000000000000000000000000000000000000000000000000000000 DUP2 MSTORE PUSH1 0x4 ADD PUSH2 0xBD5 SWAP1 PUSH2 0x197C JUMP JUMPDEST PUSH1 0x40 MLOAD DUP1 SWAP2 SUB SWAP1 REVERT JUMPDEST PUSH0 PUSH1 0x3 PUSH0 DUP5 PUSH20 0xFFFFFFFFFFFFFFFFFFFFFFFFFFFFFFFFFFFFFFFF AND PUSH20 0xFFFFFFFFFFFFFFFFFFFFFFFFFFFFFFFFFFFFFFFF AND DUP2 MSTORE PUSH1 0x20 ADD SWAP1 DUP2 MSTORE PUSH1 0x20 ADD PUSH0 KECCAK256 PUSH0 PUSH2 0x100 EXP DUP2 SLOAD DUP2 PUSH1 0xFF MUL NOT AND SWAP1 DUP4 ISZERO ISZERO MUL OR SWAP1 SSTORE POP DUP2 PUSH20 0xFFFFFFFFFFFFFFFFFFFFFFFFFFFFFFFFFFFFFFFF AND PUSH32 0x45F62F30E7B8439E0DA7D8E560FE39D01238091CE9E789E3D12B514EDF98ACEA PUSH1 0x40 MLOAD PUSH1 0x40 MLOAD DUP1 SWAP2 SUB SWAP1 LOG2 POP POP JUMP JUMPDEST PUSH0 PUSH1 0x3 PUSH0 DUP4 PUSH20 0xFFFFFFFFFFFFFFFFFFFFFFFFFFFFFFFFFFFFFFFF AND PUSH20 0xFFFFFFFFFFFFFFFFFFFFFFFFFFFFFFFFFFFFFFFF AND DUP2 MSTORE PUSH1 0x20 ADD SWAP1 DUP2 MSTORE PUSH1 0x20 ADD PUSH0 KECCAK256 PUSH0 SWAP1 SLOAD SWAP1 PUSH2 0x100 EXP SWAP1 DIV PUSH1 0xFF AND SWAP1 POP SWAP2 SWAP1 POP JUMP JUMPDEST PUSH0 DUP1 SHL DUP2 JUMP JUMPDEST PUSH32 0xA49807205CE4D355092EF5A8A18F56E8913CF4A201FBE287825B095693C21775 PUSH2 0xCFB DUP2 PUSH2 0xEB2 JUMP JUMPDEST PUSH0 PUSH20 0xFFFFFFFFFFFFFFFFFFFFFFFFFFFFFFFFFFFFFFFF AND DUP3 PUSH20 0xFFFFFFFFFFFFFFFFFFFFFFFFFFFFFFFFFFFFFFFF AND SUB PUSH2 0xD69 JUMPI PUSH1 0x40 MLOAD PUSH32 0x8C379A000000000000000000000000000000000000000000000000000000000 DUP2 MSTORE PUSH1 0x4 ADD PUSH2 0xD60 SWAP1 PUSH2 0x19E4 JUMP JUMPDEST PUSH1 0x40 MLOAD DUP1 SWAP2 SUB SWAP1 REVERT JUMPDEST DUP2 PUSH1 0x2 PUSH0 PUSH2 0x100 EXP DUP2 SLOAD DUP2 PUSH20 0xFFFFFFFFFFFFFFFFFFFFFFFFFFFFFFFFFFFFFFFF MUL NOT AND SWAP1 DUP4 PUSH20 0xFFFFFFFFFFFFFFFFFFFFFFFFFFFFFFFFFFFFFFFF AND MUL OR SWAP1 SSTORE POP POP POP JUMP JUMPDEST PUSH1 0x2 PUSH0 SWAP1 SLOAD SWAP1 PUSH2 0x100 EXP SWAP1 DIV PUSH20 0xFFFFFFFFFFFFFFFFFFFFFFFFFFFFFFFFFFFFFFFF AND DUP2 JUMP JUMPDEST PUSH2 0xDDB DUP3 PUSH2 0x7E8 JUMP JUMPDEST PUSH2 0xDE4 DUP2 PUSH2 0xEB2 JUMP JUMPDEST PUSH2 0xDEE DUP4 DUP4 PUSH2 0xFB6 JUMP JUMPDEST POP POP POP POP JUMP JUMPDEST PUSH2 0xBB8 DUP2 JUMP JUMPDEST PUSH0 PUSH32 0x1FFC9A700000000000000000000000000000000000000000000000000000000 PUSH28 0xFFFFFFFFFFFFFFFFFFFFFFFFFFFFFFFFFFFFFFFFFFFFFFFFFFFFFFFF NOT AND DUP3 PUSH28 0xFFFFFFFFFFFFFFFFFFFFFFFFFFFFFFFFFFFFFFFFFFFFFFFFFFFFFFFF NOT AND EQ SWAP1 POP SWAP2 SWAP1 POP JUMP JUMPDEST PUSH1 0x2 PUSH1 0x1 SLOAD SUB PUSH2 0xE9F JUMPI PUSH1 0x40 MLOAD PUSH32 0x3EE5AEB500000000000000000000000000000000000000000000000000000000 DUP2 MSTORE PUSH1 0x4 ADD PUSH1 0x40 MLOAD DUP1 SWAP2 SUB SWAP1 REVERT JUMPDEST PUSH1 0x2 PUSH1 0x1 DUP2 SWAP1 SSTORE POP JUMP JUMPDEST PUSH1 0x1 DUP1 DUP2 SWAP1 SSTORE POP JUMP JUMPDEST PUSH2 0xEC3 DUP2 PUSH2 0xEBE PUSH2 0xFAF JUMP JUMPDEST PUSH2 0x109F JUMP JUMPDEST POP JUMP JUMPDEST PUSH0 PUSH2 0xED1 DUP4 DUP4 PUSH2 0xAC8 JUMP JUMPDEST PUSH2 0xFA5 JUMPI PUSH1 0x1 PUSH0 DUP1 DUP6 DUP2 MSTORE PUSH1 0x20 ADD SWAP1 DUP2 MSTORE PUSH1 0x20 ADD PUSH0 KECCAK256 PUSH0 ADD PUSH0 DUP5 PUSH20 0xFFFFFFFFFFFFFFFFFFFFFFFFFFFFFFFFFFFFFFFF AND PUSH20 0xFFFFFFFFFFFFFFFFFFFFFFFFFFFFFFFFFFFFFFFF AND DUP2 MSTORE PUSH1 0x20 ADD SWAP1 DUP2 MSTORE PUSH1 0x20 ADD PUSH0 KECCAK256 PUSH0 PUSH2 0x100 EXP DUP2 SLOAD DUP2 PUSH1 0xFF MUL NOT AND SWAP1 DUP4 ISZERO ISZERO MUL OR SWAP1 SSTORE POP PUSH2 0xF42 PUSH2 0xFAF JUMP JUMPDEST PUSH20 0xFFFFFFFFFFFFFFFFFFFFFFFFFFFFFFFFFFFFFFFF AND DUP3 PUSH20 0xFFFFFFFFFFFFFFFFFFFFFFFFFFFFFFFFFFFFFFFF AND DUP5 PUSH32 0x2F8788117E7EFF1D82E926EC794901D17C78024A50270940304540A733656F0D PUSH1 0x40 MLOAD PUSH1 0x40 MLOAD DUP1 SWAP2 SUB SWAP1 LOG4 PUSH1 0x1 SWAP1 POP PUSH2 0xFA9 JUMP JUMPDEST PUSH0 SWAP1 POP JUMPDEST SWAP3 SWAP2 POP POP JUMP JUMPDEST PUSH0 CALLER SWAP1 POP SWAP1 JUMP JUMPDEST PUSH0 PUSH2 0xFC1 DUP4 DUP4 PUSH2 0xAC8 JUMP JUMPDEST ISZERO PUSH2 0x1095 JUMPI PUSH0 DUP1 PUSH0 DUP6 DUP2 MSTORE PUSH1 0x20 ADD SWAP1 DUP2 MSTORE PUSH1 0x20 ADD PUSH0 KECCAK256 PUSH0 ADD PUSH0 DUP5 PUSH20 0xFFFFFFFFFFFFFFFFFFFFFFFFFFFFFFFFFFFFFFFF AND PUSH20 0xFFFFFFFFFFFFFFFFFFFFFFFFFFFFFFFFFFFFFFFF AND DUP2 MSTORE PUSH1 0x20 ADD SWAP1 DUP2 MSTORE PUSH1 0x20 ADD PUSH0 KECCAK256 PUSH0 PUSH2 0x100 EXP DUP2 SLOAD DUP2 PUSH1 0xFF MUL NOT AND SWAP1 DUP4 ISZERO ISZERO MUL OR SWAP1 SSTORE POP PUSH2 0x1032 PUSH2 0xFAF JUMP JUMPDEST PUSH20 0xFFFFFFFFFFFFFFFFFFFFFFFFFFFFFFFFFFFFFFFF AND DUP3 PUSH20 0xFFFFFFFFFFFFFFFFFFFFFFFFFFFFFFFFFFFFFFFF AND DUP5 PUSH32 0xF6391F5C32D9C69D2A47EA670B442974B53935D1EDC7FD64EB21E047A839171B PUSH1 0x40 MLOAD PUSH1 0x40 MLOAD DUP1 SWAP2 SUB SWAP1 LOG4 PUSH1 0x1 SWAP1 POP PUSH2 0x1099 JUMP JUMPDEST PUSH0 SWAP1 POP JUMPDEST SWAP3 SWAP2 POP POP JUMP JUMPDEST PUSH2 0x10A9 DUP3 DUP3 PUSH2 0xAC8 JUMP JUMPDEST PUSH2 0x10EC JUMPI DUP1 DUP3 PUSH1 0x40 MLOAD PUSH32 0xE2517D3F00000000000000000000000000000000000000000000000000000000 DUP2 MSTORE PUSH1 0x4 ADD PUSH2 0x10E3 SWAP3 SWAP2 SWAP1 PUSH2 0x1A02 JUMP JUMPDEST PUSH1 0x40 MLOAD DUP1 SWAP2 SUB SWAP1 REVERT JUMPDEST POP POP JUMP JUMPDEST PUSH0 DUP1 REVERT JUMPDEST PUSH0 PUSH32 0xFFFFFFFF00000000000000000000000000000000000000000000000000000000 DUP3 AND SWAP1 POP SWAP2 SWAP1 POP JUMP JUMPDEST PUSH2 0x1128 DUP2 PUSH2 0x10F4 JUMP JUMPDEST DUP2 EQ PUSH2 0x1132 JUMPI PUSH0 DUP1 REVERT JUMPDEST POP JUMP JUMPDEST PUSH0 DUP2 CALLDATALOAD SWAP1 POP PUSH2 0x1143 DUP2 PUSH2 0x111F JUMP JUMPDEST SWAP3 SWAP2 POP POP JUMP JUMPDEST PUSH0 PUSH1 0x20 DUP3 DUP5 SUB SLT ISZERO PUSH2 0x115E JUMPI PUSH2 0x115D PUSH2 0x10F0 JUMP JUMPDEST JUMPDEST PUSH0 PUSH2 0x116B DUP5 DUP3 DUP6 ADD PUSH2 0x1135 JUMP JUMPDEST SWAP2 POP POP SWAP3 SWAP2 POP POP JUMP JUMPDEST PUSH0 DUP2 ISZERO ISZERO SWAP1 POP SWAP2 SWAP1 POP JUMP JUMPDEST PUSH2 0x1188 DUP2 PUSH2 0x1174 JUMP JUMPDEST DUP3 MSTORE POP POP JUMP JUMPDEST PUSH0 PUSH1 0x20 DUP3 ADD SWAP1 POP PUSH2 0x11A1 PUSH0 DUP4 ADD DUP5 PUSH2 0x117F JUMP JUMPDEST SWAP3 SWAP2 POP POP JUMP JUMPDEST PUSH0 PUSH20 0xFFFFFFFFFFFFFFFFFFFFFFFFFFFFFFFFFFFFFFFF DUP3 AND SWAP1 POP SWAP2 SWAP1 POP JUMP JUMPDEST PUSH0 PUSH2 0x11D0 DUP3 PUSH2 0x11A7 JUMP JUMPDEST SWAP1 POP SWAP2 SWAP1 POP JUMP JUMPDEST PUSH2 0x11E0 DUP2 PUSH2 0x11C6 JUMP JUMPDEST DUP2 EQ PUSH2 0x11EA JUMPI PUSH0 DUP1 REVERT JUMPDEST POP JUMP JUMPDEST PUSH0 DUP2 CALLDATALOAD SWAP1 POP PUSH2 0x11FB DUP2 PUSH2 0x11D7 JUMP JUMPDEST SWAP3 SWAP2 POP POP JUMP JUMPDEST PUSH0 DUP2 SWAP1 POP SWAP2 SWAP1 POP JUMP JUMPDEST PUSH2 0x1213 DUP2 PUSH2 0x1201 JUMP JUMPDEST DUP2 EQ PUSH2 0x121D JUMPI PUSH0 DUP1 REVERT JUMPDEST POP JUMP JUMPDEST PUSH0 DUP2 CALLDATALOAD SWAP1 POP PUSH2 0x122E DUP2 PUSH2 0x120A JUMP JUMPDEST SWAP3 SWAP2 POP POP JUMP JUMPDEST PUSH0 DUP1 PUSH0 DUP1 PUSH1 0x80 DUP6 DUP8 SUB SLT ISZERO PUSH2 0x124C JUMPI PUSH2 0x124B PUSH2 0x10F0 JUMP JUMPDEST JUMPDEST PUSH0 PUSH2 0x1259 DUP8 DUP3 DUP9 ADD PUSH2 0x11ED JUMP JUMPDEST SWAP5 POP POP PUSH1 0x20 PUSH2 0x126A DUP8 DUP3 DUP9 ADD PUSH2 0x1220 JUMP JUMPDEST SWAP4 POP POP PUSH1 0x40 PUSH2 0x127B DUP8 DUP3 DUP9 ADD PUSH2 0x1220 JUMP JUMPDEST SWAP3 POP POP PUSH1 0x60 PUSH2 0x128C DUP8 DUP3 DUP9 ADD PUSH2 0x1220 JUMP JUMPDEST SWAP2 POP POP SWAP3 SWAP6 SWAP2 SWAP5 POP SWAP3 POP JUMP JUMPDEST PUSH2 0x12A1 DUP2 PUSH2 0x1201 JUMP JUMPDEST DUP3 MSTORE POP POP JUMP JUMPDEST PUSH0 PUSH1 0x20 DUP3 ADD SWAP1 POP PUSH2 0x12BA PUSH0 DUP4 ADD DUP5 PUSH2 0x1298 JUMP JUMPDEST SWAP3 SWAP2 POP POP JUMP JUMPDEST PUSH0 DUP2 SWAP1 POP SWAP2 SWAP1 POP JUMP JUMPDEST PUSH2 0x12D2 DUP2 PUSH2 0x12C0 JUMP JUMPDEST DUP2 EQ PUSH2 0x12DC JUMPI PUSH0 DUP1 REVERT JUMPDEST POP JUMP JUMPDEST PUSH0 DUP2 CALLDATALOAD SWAP1 POP PUSH2 0x12ED DUP2 PUSH2 0x12C9 JUMP JUMPDEST SWAP3 SWAP2 POP POP JUMP JUMPDEST PUSH0 PUSH1 0x20 DUP3 DUP5 SUB SLT ISZERO PUSH2 0x1308 JUMPI PUSH2 0x1307 PUSH2 0x10F0 JUMP JUMPDEST JUMPDEST PUSH0 PUSH2 0x1315 DUP5 DUP3 DUP6 ADD PUSH2 0x12DF JUMP JUMPDEST SWAP2 POP POP SWAP3 SWAP2 POP POP JUMP JUMPDEST PUSH2 0x1327 DUP2 PUSH2 0x12C0 JUMP JUMPDEST DUP3 MSTORE POP POP JUMP JUMPDEST PUSH0 PUSH1 0x20 DUP3 ADD SWAP1 POP PUSH2 0x1340 PUSH0 DUP4 ADD DUP5 PUSH2 0x131E JUMP JUMPDEST SWAP3 SWAP2 POP POP JUMP JUMPDEST PUSH0 DUP1 PUSH1 0x40 DUP4 DUP6 SUB SLT ISZERO PUSH2 0x135C JUMPI PUSH2 0x135B PUSH2 0x10F0 JUMP JUMPDEST JUMPDEST PUSH0 PUSH2 0x1369 DUP6 DUP3 DUP7 ADD PUSH2 0x12DF JUMP JUMPDEST SWAP3 POP POP PUSH1 0x20 PUSH2 0x137A DUP6 DUP3 DUP7 ADD PUSH2 0x11ED JUMP JUMPDEST SWAP2 POP POP SWAP3 POP SWAP3 SWAP1 POP JUMP JUMPDEST PUSH0 PUSH1 0x20 DUP3 DUP5 SUB SLT ISZERO PUSH2 0x1399 JUMPI PUSH2 0x1398 PUSH2 0x10F0 JUMP JUMPDEST JUMPDEST PUSH0 PUSH2 0x13A6 DUP5 DUP3 DUP6 ADD PUSH2 0x11ED JUMP JUMPDEST SWAP2 POP POP SWAP3 SWAP2 POP POP JUMP JUMPDEST PUSH2 0x13B8 DUP2 PUSH2 0x11C6 JUMP JUMPDEST DUP3 MSTORE POP POP JUMP JUMPDEST PUSH0 PUSH1 0x20 DUP3 ADD SWAP1 POP PUSH2 0x13D1 PUSH0 DUP4 ADD DUP5 PUSH2 0x13AF JUMP JUMPDEST SWAP3 SWAP2 POP POP JUMP JUMPDEST PUSH0 PUSH2 0x13E1 DUP3 PUSH2 0x11C6 JUMP JUMPDEST SWAP1 POP SWAP2 SWAP1 POP JUMP JUMPDEST PUSH2 0x13F1 DUP2 PUSH2 0x13D7 JUMP JUMPDEST DUP2 EQ PUSH2 0x13FB JUMPI PUSH0 DUP1 REVERT JUMPDEST POP JUMP JUMPDEST PUSH0 DUP2 CALLDATALOAD SWAP1 POP PUSH2 0x140C DUP2 PUSH2 0x13E8 JUMP JUMPDEST SWAP3 SWAP2 POP POP JUMP JUMPDEST PUSH0 PUSH1 0x20 DUP3 DUP5 SUB SLT ISZERO PUSH2 0x1427 JUMPI PUSH2 0x1426 PUSH2 0x10F0 JUMP JUMPDEST JUMPDEST PUSH0 PUSH2 0x1434 DUP5 DUP3 DUP6 ADD PUSH2 0x13FE JUMP JUMPDEST SWAP2 POP POP SWAP3 SWAP2 POP POP JUMP JUMPDEST PUSH0 DUP2 SWAP1 POP SWAP2 SWAP1 POP JUMP JUMPDEST PUSH0 PUSH2 0x1460 PUSH2 0x145B PUSH2 0x1456 DUP5 PUSH2 0x11A7 JUMP JUMPDEST PUSH2 0x143D JUMP JUMPDEST PUSH2 0x11A7 JUMP JUMPDEST SWAP1 POP SWAP2 SWAP1 POP JUMP JUMPDEST PUSH0 PUSH2 0x1471 DUP3 PUSH2 0x1446 JUMP JUMPDEST SWAP1 POP SWAP2 SWAP1 POP JUMP JUMPDEST PUSH0 PUSH2 0x1482 DUP3 PUSH2 0x1467 JUMP JUMPDEST SWAP1 POP SWAP2 SWAP1 POP JUMP JUMPDEST PUSH2 0x1492 DUP2 PUSH2 0x1478 JUMP JUMPDEST DUP3 MSTORE POP POP JUMP JUMPDEST PUSH0 PUSH1 0x20 DUP3 ADD SWAP1 POP PUSH2 0x14AB PUSH0 DUP4 ADD DUP5 PUSH2 0x1489 JUMP JUMPDEST SWAP3 SWAP2 POP POP JUMP JUMPDEST PUSH0 PUSH3 0xFFFFFF DUP3 AND SWAP1 POP SWAP2 SWAP1 POP JUMP JUMPDEST PUSH2 0x14C8 DUP2 PUSH2 0x14B1 JUMP JUMPDEST DUP3 MSTORE POP POP JUMP JUMPDEST PUSH0 PUSH1 0x20 DUP3 ADD SWAP1 POP PUSH2 0x14E1 PUSH0 DUP4 ADD DUP5 PUSH2 0x14BF JUMP JUMPDEST SWAP3 SWAP2 POP POP JUMP JUMPDEST PUSH0 DUP3 DUP3 MSTORE PUSH1 0x20 DUP3 ADD SWAP1 POP SWAP3 SWAP2 POP POP JUMP JUMPDEST PUSH32 0x546F6B656E206E6F7420617070726F76656420666F72207377617070696E6700 PUSH0 DUP3 ADD MSTORE POP JUMP JUMPDEST PUSH0 PUSH2 0x152B PUSH1 0x1F DUP4 PUSH2 0x14E7 JUMP JUMPDEST SWAP2 POP PUSH2 0x1536 DUP3 PUSH2 0x14F7 JUMP JUMPDEST PUSH1 0x20 DUP3 ADD SWAP1 POP SWAP2 SWAP1 POP JUMP JUMPDEST PUSH0 PUSH1 0x20 DUP3 ADD SWAP1 POP DUP2 DUP2 SUB PUSH0 DUP4 ADD MSTORE PUSH2 0x1558 DUP2 PUSH2 0x151F JUMP JUMPDEST SWAP1 POP SWAP2 SWAP1 POP JUMP JUMPDEST PUSH32 0x496E70757420616D6F756E74206D757374206265206772656174657220746861 PUSH0 DUP3 ADD MSTORE PUSH32 0x6E207A65726F0000000000000000000000000000000000000000000000000000 PUSH1 0x20 DUP3 ADD MSTORE POP JUMP JUMPDEST PUSH0 PUSH2 0x15B9 PUSH1 0x26 DUP4 PUSH2 0x14E7 JUMP JUMPDEST SWAP2 POP PUSH2 0x15C4 DUP3 PUSH2 0x155F JUMP JUMPDEST PUSH1 0x40 DUP3 ADD SWAP1 POP SWAP2 SWAP1 POP JUMP JUMPDEST PUSH0 PUSH1 0x20 DUP3 ADD SWAP1 POP DUP2 DUP2 SUB PUSH0 DUP4 ADD MSTORE PUSH2 0x15E6 DUP2 PUSH2 0x15AD JUMP JUMPDEST SWAP1 POP SWAP2 SWAP1 POP JUMP JUMPDEST PUSH0 PUSH1 0x60 DUP3 ADD SWAP1 POP PUSH2 0x1600 PUSH0 DUP4 ADD DUP7 PUSH2 0x13AF JUMP JUMPDEST PUSH2 0x160D PUSH1 0x20 DUP4 ADD DUP6 PUSH2 0x13AF JUMP JUMPDEST PUSH2 0x161A PUSH1 0x40 DUP4 ADD DUP5 PUSH2 0x1298 JUMP JUMPDEST SWAP5 SWAP4 POP POP POP POP JUMP JUMPDEST PUSH2 0x162B DUP2 PUSH2 0x1174 JUMP JUMPDEST DUP2 EQ PUSH2 0x1635 JUMPI PUSH0 DUP1 REVERT JUMPDEST POP JUMP JUMPDEST PUSH0 DUP2 MLOAD SWAP1 POP PUSH2 0x1646 DUP2 PUSH2 0x1622 JUMP JUMPDEST SWAP3 SWAP2 POP POP JUMP JUMPDEST PUSH0 PUSH1 0x20 DUP3 DUP5 SUB SLT ISZERO PUSH2 0x1661 JUMPI PUSH2 0x1660 PUSH2 0x10F0 JUMP JUMPDEST JUMPDEST PUSH0 PUSH2 0x166E DUP5 DUP3 DUP6 ADD PUSH2 0x1638 JUMP JUMPDEST SWAP2 POP POP SWAP3 SWAP2 POP POP JUMP JUMPDEST PUSH0 PUSH1 0x40 DUP3 ADD SWAP1 POP PUSH2 0x168A PUSH0 DUP4 ADD DUP6 PUSH2 0x13AF JUMP JUMPDEST PUSH2 0x1697 PUSH1 0x20 DUP4 ADD DUP5 PUSH2 0x1298 JUMP JUMPDEST SWAP4 SWAP3 POP POP POP JUMP JUMPDEST PUSH2 0x16A7 DUP2 PUSH2 0x11C6 JUMP JUMPDEST DUP3 MSTORE POP POP JUMP JUMPDEST PUSH2 0x16B6 DUP2 PUSH2 0x14B1 JUMP JUMPDEST DUP3 MSTORE POP POP JUMP JUMPDEST PUSH2 0x16C5 DUP2 PUSH2 0x1201 JUMP JUMPDEST DUP3 MSTORE POP POP JUMP JUMPDEST PUSH2 0x16D4 DUP2 PUSH2 0x11A7 JUMP JUMPDEST DUP3 MSTORE POP POP JUMP JUMPDEST PUSH2 0x100 DUP3 ADD PUSH0 DUP3 ADD MLOAD PUSH2 0x16EF PUSH0 DUP6 ADD DUP3 PUSH2 0x169E JUMP JUMPDEST POP PUSH1 0x20 DUP3 ADD MLOAD PUSH2 0x1702 PUSH1 0x20 DUP6 ADD DUP3 PUSH2 0x169E JUMP JUMPDEST POP PUSH1 0x40 DUP3 ADD MLOAD PUSH2 0x1715 PUSH1 0x40 DUP6 ADD DUP3 PUSH2 0x16AD JUMP JUMPDEST POP PUSH1 0x60 DUP3 ADD MLOAD PUSH2 0x1728 PUSH1 0x60 DUP6 ADD DUP3 PUSH2 0x169E JUMP JUMPDEST POP PUSH1 0x80 DUP3 ADD MLOAD PUSH2 0x173B PUSH1 0x80 DUP6 ADD DUP3 PUSH2 0x16BC JUMP JUMPDEST POP PUSH1 0xA0 DUP3 ADD MLOAD PUSH2 0x174E PUSH1 0xA0 DUP6 ADD DUP3 PUSH2 0x16BC JUMP JUMPDEST POP PUSH1 0xC0 DUP3 ADD MLOAD PUSH2 0x1761 PUSH1 0xC0 DUP6 ADD DUP3 PUSH2 0x16BC JUMP JUMPDEST POP PUSH1 0xE0 DUP3 ADD MLOAD PUSH2 0x1774 PUSH1 0xE0 DUP6 ADD DUP3 PUSH2 0x16CB JUMP JUMPDEST POP POP POP POP JUMP JUMPDEST PUSH0 PUSH2 0x100 DUP3 ADD SWAP1 POP PUSH2 0x178E PUSH0 DUP4 ADD DUP5 PUSH2 0x16DA JUMP JUMPDEST SWAP3 SWAP2 POP POP JUMP JUMPDEST PUSH0 DUP2 MLOAD SWAP1 POP PUSH2 0x17A2 DUP2 PUSH2 0x120A JUMP JUMPDEST SWAP3 SWAP2 POP POP JUMP JUMPDEST PUSH0 PUSH1 0x20 DUP3 DUP5 SUB SLT ISZERO PUSH2 0x17BD JUMPI PUSH2 0x17BC PUSH2 0x10F0 JUMP JUMPDEST JUMPDEST PUSH0 PUSH2 0x17CA DUP5 DUP3 DUP6 ADD PUSH2 0x1794 JUMP JUMPDEST SWAP2 POP POP SWAP3 SWAP2 POP POP JUMP JUMPDEST PUSH32 0x496E73756666696369656E74206F757470757420616D6F756E74000000000000 PUSH0 DUP3 ADD MSTORE POP JUMP JUMPDEST PUSH0 PUSH2 0x1807 PUSH1 0x1A DUP4 PUSH2 0x14E7 JUMP JUMPDEST SWAP2 POP PUSH2 0x1812 DUP3 PUSH2 0x17D3 JUMP JUMPDEST PUSH1 0x20 DUP3 ADD SWAP1 POP SWAP2 SWAP1 POP JUMP JUMPDEST PUSH0 PUSH1 0x20 DUP3 ADD SWAP1 POP DUP2 DUP2 SUB PUSH0 DUP4 ADD MSTORE PUSH2 0x1834 DUP2 PUSH2 0x17FB JUMP JUMPDEST SWAP1 POP SWAP2 SWAP1 POP JUMP JUMPDEST PUSH0 PUSH1 0x40 DUP3 ADD SWAP1 POP PUSH2 0x184E PUSH0 DUP4 ADD DUP6 PUSH2 0x1298 JUMP JUMPDEST PUSH2 0x185B PUSH1 0x20 DUP4 ADD DUP5 PUSH2 0x1298 JUMP JUMPDEST SWAP4 SWAP3 POP POP POP JUMP JUMPDEST PUSH32 0x5553444320697320616C7265616479207468652074617267657420746F6B656E PUSH0 DUP3 ADD MSTORE POP JUMP JUMPDEST PUSH0 PUSH2 0x1896 PUSH1 0x20 DUP4 PUSH2 0x14E7 JUMP JUMPDEST SWAP2 POP PUSH2 0x18A1 DUP3 PUSH2 0x1862 JUMP JUMPDEST PUSH1 0x20 DUP3 ADD SWAP1 POP SWAP2 SWAP1 POP JUMP JUMPDEST PUSH0 PUSH1 0x20 DUP3 ADD SWAP1 POP DUP2 DUP2 SUB PUSH0 DUP4 ADD MSTORE PUSH2 0x18C3 DUP2 PUSH2 0x188A JUMP JUMPDEST SWAP1 POP SWAP2 SWAP1 POP JUMP JUMPDEST PUSH32 0x496E76616C696420746F6B656E20616464726573730000000000000000000000 PUSH0 DUP3 ADD MSTORE POP JUMP JUMPDEST PUSH0 PUSH2 0x18FE PUSH1 0x15 DUP4 PUSH2 0x14E7 JUMP JUMPDEST SWAP2 POP PUSH2 0x1909 DUP3 PUSH2 0x18CA JUMP JUMPDEST PUSH1 0x20 DUP3 ADD SWAP1 POP SWAP2 SWAP1 POP JUMP JUMPDEST PUSH0 PUSH1 0x20 DUP3 ADD SWAP1 POP DUP2 DUP2 SUB PUSH0 DUP4 ADD MSTORE PUSH2 0x192B DUP2 PUSH2 0x18F2 JUMP JUMPDEST SWAP1 POP SWAP2 SWAP1 POP JUMP JUMPDEST PUSH32 0x546F6B656E206973206E6F7420617070726F7665640000000000000000000000 PUSH0 DUP3 ADD MSTORE POP JUMP JUMPDEST PUSH0 PUSH2 0x1966 PUSH1 0x15 DUP4 PUSH2 0x14E7 JUMP JUMPDEST SWAP2 POP PUSH2 0x1971 DUP3 PUSH2 0x1932 JUMP JUMPDEST PUSH1 0x20 DUP3 ADD SWAP1 POP SWAP2 SWAP1 POP JUMP JUMPDEST PUSH0 PUSH1 0x20 DUP3 ADD SWAP1 POP DUP2 DUP2 SUB PUSH0 DUP4 ADD MSTORE PUSH2 0x1993 DUP2 PUSH2 0x195A JUMP JUMPDEST SWAP1 POP SWAP2 SWAP1 POP JUMP JUMPDEST PUSH32 0x496E76616C6964207377617020726F7574657220616464726573730000000000 PUSH0 DUP3 ADD MSTORE POP JUMP JUMPDEST PUSH0 PUSH2 0x19CE PUSH1 0x1B DUP4 PUSH2 0x14E7 JUMP JUMPDEST SWAP2 POP PUSH2 0x19D9 DUP3 PUSH2 0x199A JUMP JUMPDEST PUSH1 0x20 DUP3 ADD SWAP1 POP SWAP2 SWAP1 POP JUMP JUMPDEST PUSH0 PUSH1 0x20 DUP3 ADD SWAP1 POP DUP2 DUP2 SUB PUSH0 DUP4 ADD MSTORE PUSH2 0x19FB DUP2 PUSH2 0x19C2 JUMP JUMPDEST SWAP1 POP SWAP2 SWAP1 POP JUMP JUMPDEST PUSH0 PUSH1 0x40 DUP3 ADD SWAP1 POP PUSH2 0x1A15 PUSH0 DUP4 ADD DUP6 PUSH2 0x13AF JUMP JUMPDEST PUSH2 0x1A22 PUSH1 0x20 DUP4 ADD DUP5 PUSH2 0x131E JUMP JUMPDEST SWAP4 SWAP3 POP POP POP JUMP INVALID LOG2 PUSH5 0x6970667358 0x22 SLT KECCAK256 PUSH8 0xE813CE75EB630D7 0xEB 0x2B PUSH2 0x11B2 0xC PUSH5 0x43FFC10E9B BYTE SUB SWAP6 PUSH15 0xC997CC31E68C0864736F6C63430008 BYTE STOP CALLER "
				},
				"gasEstimates": {
					"creation": {
						"codeDepositCost": "1350200",
						"executionCost": "infinite",
						"totalCost": "infinite"
					},
					"external": {
						"ADMIN_ROLE()": "392",
						"DEFAULT_ADMIN_ROLE()": "352",
						"POOL_FEE()": "441",
						"USDC()": "infinite",
						"approveToken(address)": "infinite",
						"approvedTokens(address)": "2878",
						"getRoleAdmin(bytes32)": "infinite",
						"grantRole(bytes32,address)": "infinite",
						"hasRole(bytes32,address)": "3167",
						"isTokenApproved(address)": "2959",
						"renounceRole(bytes32,address)": "infinite",
						"revokeRole(bytes32,address)": "infinite",
						"revokeToken(address)": "infinite",
						"supportsInterface(bytes4)": "741",
						"swapRouter()": "infinite",
						"swapToUSDC(address,uint256,uint256,uint256)": "infinite",
						"updateSwapRouter(address)": "infinite"
					}
				},
				"methodIdentifiers": {
					"ADMIN_ROLE()": "75b238fc",
					"DEFAULT_ADMIN_ROLE()": "a217fddf",
					"POOL_FEE()": "dd1b9c4a",
					"USDC()": "89a30271",
					"approveToken(address)": "80b2edd8",
					"approvedTokens(address)": "6d1ea3fa",
					"getRoleAdmin(bytes32)": "248a9ca3",
					"grantRole(bytes32,address)": "2f2ff15d",
					"hasRole(bytes32,address)": "91d14854",
					"isTokenApproved(address)": "9d93d352",
					"renounceRole(bytes32,address)": "36568abe",
					"revokeRole(bytes32,address)": "d547741f",
					"revokeToken(address)": "933f4eef",
					"supportsInterface(bytes4)": "01ffc9a7",
					"swapRouter()": "c31c9c07",
					"swapToUSDC(address,uint256,uint256,uint256)": "2197545c",
					"updateSwapRouter(address)": "b98b677f"
				}
			},
			"storageLayout": {
				"storage": [
					{
						"astId": 26,
						"contract": "src/TokenSwap.sol:TokenSwap",
						"label": "_roles",
						"offset": 0,
						"slot": "0",
						"type": "t_mapping(t_bytes32,t_struct(RoleData)21_storage)"
					},
					{
						"astId": 497,
						"contract": "src/TokenSwap.sol:TokenSwap",
						"label": "_status",
						"offset": 0,
						"slot": "1",
						"type": "t_uint256"
					},
					{
						"astId": 724,
						"contract": "src/TokenSwap.sol:TokenSwap",
						"label": "swapRouter",
						"offset": 0,
						"slot": "2",
						"type": "t_contract(ISwapRouter)705"
					},
					{
						"astId": 730,
						"contract": "src/TokenSwap.sol:TokenSwap",
						"label": "approvedTokens",
						"offset": 0,
						"slot": "3",
						"type": "t_mapping(t_address,t_bool)"
					}
				],
				"types": {
					"t_address": {
						"encoding": "inplace",
						"label": "address",
						"numberOfBytes": "20"
					},
					"t_bool": {
						"encoding": "inplace",
						"label": "bool",
						"numberOfBytes": "1"
					},
					"t_bytes32": {
						"encoding": "inplace",
						"label": "bytes32",
						"numberOfBytes": "32"
					},
					"t_contract(ISwapRouter)705": {
						"encoding": "inplace",
						"label": "contract ISwapRouter",
						"numberOfBytes": "20"
					},
					"t_mapping(t_address,t_bool)": {
						"encoding": "mapping",
						"key": "t_address",
						"label": "mapping(address => bool)",
						"numberOfBytes": "32",
						"value": "t_bool"
					},
					"t_mapping(t_bytes32,t_struct(RoleData)21_storage)": {
						"encoding": "mapping",
						"key": "t_bytes32",
						"label": "mapping(bytes32 => struct AccessControl.RoleData)",
						"numberOfBytes": "32",
						"value": "t_struct(RoleData)21_storage"
					},
					"t_struct(RoleData)21_storage": {
						"encoding": "inplace",
						"label": "struct AccessControl.RoleData",
						"members": [
							{
								"astId": 18,
								"contract": "src/TokenSwap.sol:TokenSwap",
								"label": "hasRole",
								"offset": 0,
								"slot": "0",
								"type": "t_mapping(t_address,t_bool)"
							},
							{
								"astId": 20,
								"contract": "src/TokenSwap.sol:TokenSwap",
								"label": "adminRole",
								"offset": 0,
								"slot": "1",
								"type": "t_bytes32"
							}
						],
						"numberOfBytes": "64"
					},
					"t_uint256": {
						"encoding": "inplace",
						"label": "uint256",
						"numberOfBytes": "32"
					}
				}
			},
			"userdoc": {
				"kind": "user",
				"methods": {},
				"version": 1
			}
		}
	}
}