{
	"src/LiquidityPoolManager.sol": {
		"UniswapV3LiquidityManager": {
			"abi": [
				{
					"inputs": [
						{
							"internalType": "address",
							"name": "_positionManager",
							"type": "address"
						},
						{
							"internalType": "address",
							"name": "_factory",
							"type": "address"
						}
					],
					"stateMutability": "nonpayable",
					"type": "constructor"
				},
				{
					"inputs": [],
					"name": "AccessControlBadConfirmation",
					"type": "error"
				},
				{
					"inputs": [
						{
							"internalType": "address",
							"name": "account",
							"type": "address"
						},
						{
							"internalType": "bytes32",
							"name": "neededRole",
							"type": "bytes32"
						}
					],
					"name": "AccessControlUnauthorizedAccount",
					"type": "error"
				},
				{
					"anonymous": false,
					"inputs": [
						{
							"indexed": true,
							"internalType": "bytes32",
							"name": "role",
							"type": "bytes32"
						},
						{
							"indexed": true,
							"internalType": "bytes32",
							"name": "previousAdminRole",
							"type": "bytes32"
						},
						{
							"indexed": true,
							"internalType": "bytes32",
							"name": "newAdminRole",
							"type": "bytes32"
						}
					],
					"name": "RoleAdminChanged",
					"type": "event"
				},
				{
					"anonymous": false,
					"inputs": [
						{
							"indexed": true,
							"internalType": "bytes32",
							"name": "role",
							"type": "bytes32"
						},
						{
							"indexed": true,
							"internalType": "address",
							"name": "account",
							"type": "address"
						},
						{
							"indexed": true,
							"internalType": "address",
							"name": "sender",
							"type": "address"
						}
					],
					"name": "RoleGranted",
					"type": "event"
				},
				{
					"anonymous": false,
					"inputs": [
						{
							"indexed": true,
							"internalType": "bytes32",
							"name": "role",
							"type": "bytes32"
						},
						{
							"indexed": true,
							"internalType": "address",
							"name": "account",
							"type": "address"
						},
						{
							"indexed": true,
							"internalType": "address",
							"name": "sender",
							"type": "address"
						}
					],
					"name": "RoleRevoked",
					"type": "event"
				},
				{
					"inputs": [],
					"name": "DEFAULT_ADMIN_ROLE",
					"outputs": [
						{
							"internalType": "bytes32",
							"name": "",
							"type": "bytes32"
						}
					],
					"stateMutability": "view",
					"type": "function"
				},
				{
					"inputs": [
						{
							"internalType": "address",
							"name": "tokenA",
							"type": "address"
						},
						{
							"internalType": "address",
							"name": "tokenB",
							"type": "address"
						},
						{
							"internalType": "uint24",
							"name": "fee",
							"type": "uint24"
						},
						{
							"internalType": "uint256",
							"name": "amountA",
							"type": "uint256"
						},
						{
							"internalType": "uint256",
							"name": "amountB",
							"type": "uint256"
						},
						{
							"internalType": "int24",
							"name": "tickLower",
							"type": "int24"
						},
						{
							"internalType": "int24",
							"name": "tickUpper",
							"type": "int24"
						}
					],
					"name": "addLiquidity",
					"outputs": [
						{
							"internalType": "uint256",
							"name": "tokenId",
							"type": "uint256"
						},
						{
							"internalType": "uint128",
							"name": "liquidity",
							"type": "uint128"
						},
						{
							"internalType": "uint256",
							"name": "amount0",
							"type": "uint256"
						},
						{
							"internalType": "uint256",
							"name": "amount1",
							"type": "uint256"
						}
					],
					"stateMutability": "nonpayable",
					"type": "function"
				},
				{
					"inputs": [
						{
							"internalType": "address",
							"name": "tokenA",
							"type": "address"
						},
						{
							"internalType": "address",
							"name": "tokenB",
							"type": "address"
						},
						{
							"internalType": "uint256",
							"name": "amountA",
							"type": "uint256"
						},
						{
							"internalType": "uint256",
							"name": "amountB",
							"type": "uint256"
						}
					],
					"name": "approveTokens",
					"outputs": [],
					"stateMutability": "nonpayable",
					"type": "function"
				},
				{
					"inputs": [
						{
							"internalType": "address",
							"name": "tokenA",
							"type": "address"
						},
						{
							"internalType": "address",
							"name": "tokenB",
							"type": "address"
						},
						{
							"internalType": "uint24",
							"name": "fee",
							"type": "uint24"
						},
						{
							"internalType": "uint160",
							"name": "sqrtPriceX96",
							"type": "uint160"
						}
					],
					"name": "createPool",
					"outputs": [
						{
							"internalType": "address",
							"name": "pool",
							"type": "address"
						}
					],
					"stateMutability": "nonpayable",
					"type": "function"
				},
				{
					"inputs": [],
					"name": "factory",
					"outputs": [
						{
							"internalType": "contract IUniswapV3Factory",
							"name": "",
							"type": "address"
						}
					],
					"stateMutability": "view",
					"type": "function"
				},
				{
					"inputs": [
						{
							"internalType": "bytes32",
							"name": "role",
							"type": "bytes32"
						}
					],
					"name": "getRoleAdmin",
					"outputs": [
						{
							"internalType": "bytes32",
							"name": "",
							"type": "bytes32"
						}
					],
					"stateMutability": "view",
					"type": "function"
				},
				{
					"inputs": [
						{
							"internalType": "bytes32",
							"name": "role",
							"type": "bytes32"
						},
						{
							"internalType": "address",
							"name": "account",
							"type": "address"
						}
					],
					"name": "grantRole",
					"outputs": [],
					"stateMutability": "nonpayable",
					"type": "function"
				},
				{
					"inputs": [
						{
							"internalType": "bytes32",
							"name": "role",
							"type": "bytes32"
						},
						{
							"internalType": "address",
							"name": "account",
							"type": "address"
						}
					],
					"name": "hasRole",
					"outputs": [
						{
							"internalType": "bool",
							"name": "",
							"type": "bool"
						}
					],
					"stateMutability": "view",
					"type": "function"
				},
				{
					"inputs": [],
					"name": "positionManager",
					"outputs": [
						{
							"internalType": "contract INonfungiblePositionManager",
							"name": "",
							"type": "address"
						}
					],
					"stateMutability": "view",
					"type": "function"
				},
				{
					"inputs": [
						{
							"internalType": "bytes32",
							"name": "role",
							"type": "bytes32"
						},
						{
							"internalType": "address",
							"name": "callerConfirmation",
							"type": "address"
						}
					],
					"name": "renounceRole",
					"outputs": [],
					"stateMutability": "nonpayable",
					"type": "function"
				},
				{
					"inputs": [
						{
							"internalType": "bytes32",
							"name": "role",
							"type": "bytes32"
						},
						{
							"internalType": "address",
							"name": "account",
							"type": "address"
						}
					],
					"name": "revokeRole",
					"outputs": [],
					"stateMutability": "nonpayable",
					"type": "function"
				},
				{
					"inputs": [
						{
							"internalType": "bytes4",
							"name": "interfaceId",
							"type": "bytes4"
						}
					],
					"name": "supportsInterface",
					"outputs": [
						{
							"internalType": "bool",
							"name": "",
							"type": "bool"
						}
					],
					"stateMutability": "view",
					"type": "function"
				}
			],
			"devdoc": {
				"errors": {
					"AccessControlBadConfirmation()": [
						{
							"details": "The caller of a function is not the expected one. NOTE: Don't confuse with {AccessControlUnauthorizedAccount}."
						}
					],
					"AccessControlUnauthorizedAccount(address,bytes32)": [
						{
							"details": "The `account` is missing a role."
						}
					]
				},
				"events": {
					"RoleAdminChanged(bytes32,bytes32,bytes32)": {
						"details": "Emitted when `newAdminRole` is set as ``role``'s admin role, replacing `previousAdminRole` `DEFAULT_ADMIN_ROLE` is the starting admin for all roles, despite {RoleAdminChanged} not being emitted signaling this."
					},
					"RoleGranted(bytes32,address,address)": {
						"details": "Emitted when `account` is granted `role`. `sender` is the account that originated the contract call. This account bears the admin role (for the granted role). Expected in cases where the role was granted using the internal {AccessControl-_grantRole}."
					},
					"RoleRevoked(bytes32,address,address)": {
						"details": "Emitted when `account` is revoked `role`. `sender` is the account that originated the contract call:   - if using `revokeRole`, it is the admin role bearer   - if using `renounceRole`, it is the role bearer (i.e. `account`)"
					}
				},
				"kind": "dev",
				"methods": {
					"getRoleAdmin(bytes32)": {
						"details": "Returns the admin role that controls `role`. See {grantRole} and {revokeRole}. To change a role's admin, use {_setRoleAdmin}."
					},
					"grantRole(bytes32,address)": {
						"details": "Grants `role` to `account`. If `account` had not been already granted `role`, emits a {RoleGranted} event. Requirements: - the caller must have ``role``'s admin role. May emit a {RoleGranted} event."
					},
					"hasRole(bytes32,address)": {
						"details": "Returns `true` if `account` has been granted `role`."
					},
					"renounceRole(bytes32,address)": {
						"details": "Revokes `role` from the calling account. Roles are often managed via {grantRole} and {revokeRole}: this function's purpose is to provide a mechanism for accounts to lose their privileges if they are compromised (such as when a trusted device is misplaced). If the calling account had been revoked `role`, emits a {RoleRevoked} event. Requirements: - the caller must be `callerConfirmation`. May emit a {RoleRevoked} event."
					},
					"revokeRole(bytes32,address)": {
						"details": "Revokes `role` from `account`. If `account` had been granted `role`, emits a {RoleRevoked} event. Requirements: - the caller must have ``role``'s admin role. May emit a {RoleRevoked} event."
					},
					"supportsInterface(bytes4)": {
						"details": "See {IERC165-supportsInterface}."
					}
				},
				"version": 1
			},
			"evm": {
				"assembly": "    /* \"src/LiquidityPoolManager.sol\":396:2934  contract UniswapV3LiquidityManager is AccessControl {... */\n  mstore(0x40, 0x80)\n    /* \"src/LiquidityPoolManager.sol\":549:754  constructor(... */\n  callvalue\n  dup1\n  iszero\n  tag_1\n  jumpi\n  0x00\n  dup1\n  revert\ntag_1:\n  pop\n  mload(0x40)\n  sub(codesize, bytecodeSize)\n  dup1\n  bytecodeSize\n  dup4\n  codecopy\n  dup2\n  dup2\n  add\n  0x40\n  mstore\n  dup2\n  add\n  swap1\n  tag_2\n  swap2\n  swap1\n  tag_3\n  jump\t// in\ntag_2:\n    /* \"src/LiquidityPoolManager.sol\":683:699  _positionManager */\n  dup2\n    /* \"src/LiquidityPoolManager.sol\":637:652  positionManager */\n  0x01\n  0x00\n    /* \"src/LiquidityPoolManager.sol\":637:700  positionManager = INonfungiblePositionManager(_positionManager) */\n  0x0100\n  exp\n  dup2\n  sload\n  dup2\n  0xffffffffffffffffffffffffffffffffffffffff\n  mul\n  not\n  and\n  swap1\n  dup4\n  0xffffffffffffffffffffffffffffffffffffffff\n  and\n  mul\n  or\n  swap1\n  sstore\n  pop\n    /* \"src/LiquidityPoolManager.sol\":738:746  _factory */\n  dup1\n    /* \"src/LiquidityPoolManager.sol\":710:717  factory */\n  0x02\n  0x00\n    /* \"src/LiquidityPoolManager.sol\":710:747  factory = IUniswapV3Factory(_factory) */\n  0x0100\n  exp\n  dup2\n  sload\n  dup2\n  0xffffffffffffffffffffffffffffffffffffffff\n  mul\n  not\n  and\n  swap1\n  dup4\n  0xffffffffffffffffffffffffffffffffffffffff\n  and\n  mul\n  or\n  swap1\n  sstore\n  pop\n    /* \"src/LiquidityPoolManager.sol\":549:754  constructor(... */\n  pop\n  pop\n    /* \"src/LiquidityPoolManager.sol\":396:2934  contract UniswapV3LiquidityManager is AccessControl {... */\n  jump(tag_6)\n    /* \"#utility.yul\":88:205   */\ntag_8:\n    /* \"#utility.yul\":197:198   */\n  0x00\n    /* \"#utility.yul\":194:195   */\n  dup1\n    /* \"#utility.yul\":187:199   */\n  revert\n    /* \"#utility.yul\":334:460   */\ntag_10:\n    /* \"#utility.yul\":371:378   */\n  0x00\n    /* \"#utility.yul\":411:453   */\n  0xffffffffffffffffffffffffffffffffffffffff\n    /* \"#utility.yul\":404:409   */\n  dup3\n    /* \"#utility.yul\":400:454   */\n  and\n    /* \"#utility.yul\":389:454   */\n  swap1\n  pop\n    /* \"#utility.yul\":334:460   */\n  swap2\n  swap1\n  pop\n  jump\t// out\n    /* \"#utility.yul\":466:562   */\ntag_11:\n    /* \"#utility.yul\":503:510   */\n  0x00\n    /* \"#utility.yul\":532:556   */\n  tag_20\n    /* \"#utility.yul\":550:555   */\n  dup3\n    /* \"#utility.yul\":532:556   */\n  tag_10\n  jump\t// in\ntag_20:\n    /* \"#utility.yul\":521:556   */\n  swap1\n  pop\n    /* \"#utility.yul\":466:562   */\n  swap2\n  swap1\n  pop\n  jump\t// out\n    /* \"#utility.yul\":568:690   */\ntag_12:\n    /* \"#utility.yul\":641:665   */\n  tag_22\n    /* \"#utility.yul\":659:664   */\n  dup2\n    /* \"#utility.yul\":641:665   */\n  tag_11\n  jump\t// in\ntag_22:\n    /* \"#utility.yul\":634:639   */\n  dup2\n    /* \"#utility.yul\":631:666   */\n  eq\n    /* \"#utility.yul\":621:684   */\n  tag_23\n  jumpi\n    /* \"#utility.yul\":680:681   */\n  0x00\n    /* \"#utility.yul\":677:678   */\n  dup1\n    /* \"#utility.yul\":670:682   */\n  revert\n    /* \"#utility.yul\":621:684   */\ntag_23:\n    /* \"#utility.yul\":568:690   */\n  pop\n  jump\t// out\n    /* \"#utility.yul\":696:839   */\ntag_13:\n    /* \"#utility.yul\":753:758   */\n  0x00\n    /* \"#utility.yul\":784:790   */\n  dup2\n    /* \"#utility.yul\":778:791   */\n  mload\n    /* \"#utility.yul\":769:791   */\n  swap1\n  pop\n    /* \"#utility.yul\":800:833   */\n  tag_25\n    /* \"#utility.yul\":827:832   */\n  dup2\n    /* \"#utility.yul\":800:833   */\n  tag_12\n  jump\t// in\ntag_25:\n    /* \"#utility.yul\":696:839   */\n  swap3\n  swap2\n  pop\n  pop\n  jump\t// out\n    /* \"#utility.yul\":845:1352   */\ntag_3:\n    /* \"#utility.yul\":924:930   */\n  0x00\n    /* \"#utility.yul\":932:938   */\n  dup1\n    /* \"#utility.yul\":981:983   */\n  0x40\n    /* \"#utility.yul\":969:978   */\n  dup4\n    /* \"#utility.yul\":960:967   */\n  dup6\n    /* \"#utility.yul\":956:979   */\n  sub\n    /* \"#utility.yul\":952:984   */\n  slt\n    /* \"#utility.yul\":949:1068   */\n  iszero\n  tag_27\n  jumpi\n    /* \"#utility.yul\":987:1066   */\n  tag_28\n  tag_8\n  jump\t// in\ntag_28:\n    /* \"#utility.yul\":949:1068   */\ntag_27:\n    /* \"#utility.yul\":1107:1108   */\n  0x00\n    /* \"#utility.yul\":1132:1196   */\n  tag_29\n    /* \"#utility.yul\":1188:1195   */\n  dup6\n    /* \"#utility.yul\":1179:1185   */\n  dup3\n    /* \"#utility.yul\":1168:1177   */\n  dup7\n    /* \"#utility.yul\":1164:1186   */\n  add\n    /* \"#utility.yul\":1132:1196   */\n  tag_13\n  jump\t// in\ntag_29:\n    /* \"#utility.yul\":1122:1196   */\n  swap3\n  pop\n    /* \"#utility.yul\":1078:1206   */\n  pop\n    /* \"#utility.yul\":1245:1247   */\n  0x20\n    /* \"#utility.yul\":1271:1335   */\n  tag_30\n    /* \"#utility.yul\":1327:1334   */\n  dup6\n    /* \"#utility.yul\":1318:1324   */\n  dup3\n    /* \"#utility.yul\":1307:1316   */\n  dup7\n    /* \"#utility.yul\":1303:1325   */\n  add\n    /* \"#utility.yul\":1271:1335   */\n  tag_13\n  jump\t// in\ntag_30:\n    /* \"#utility.yul\":1261:1335   */\n  swap2\n  pop\n    /* \"#utility.yul\":1216:1345   */\n  pop\n    /* \"#utility.yul\":845:1352   */\n  swap3\n  pop\n  swap3\n  swap1\n  pop\n  jump\t// out\n    /* \"src/LiquidityPoolManager.sol\":396:2934  contract UniswapV3LiquidityManager is AccessControl {... */\ntag_6:\n  dataSize(sub_0)\n  dup1\n  dataOffset(sub_0)\n  0x00\n  codecopy\n  0x00\n  return\nstop\n\nsub_0: assembly {\n        /* \"src/LiquidityPoolManager.sol\":396:2934  contract UniswapV3LiquidityManager is AccessControl {... */\n      mstore(0x40, 0x80)\n      callvalue\n      dup1\n      iszero\n      tag_1\n      jumpi\n      0x00\n      dup1\n      revert\n    tag_1:\n      pop\n      jumpi(tag_2, lt(calldatasize, 0x04))\n      shr(0xe0, calldataload(0x00))\n      dup1\n      0x91d14854\n      gt\n      tag_15\n      jumpi\n      dup1\n      0x91d14854\n      eq\n      tag_9\n      jumpi\n      dup1\n      0xa217fddf\n      eq\n      tag_10\n      jumpi\n      dup1\n      0xafbce84e\n      eq\n      tag_11\n      jumpi\n      dup1\n      0xc45a0155\n      eq\n      tag_12\n      jumpi\n      dup1\n      0xd547741f\n      eq\n      tag_13\n      jumpi\n      dup1\n      0xecf4daa7\n      eq\n      tag_14\n      jumpi\n      jump(tag_2)\n    tag_15:\n      dup1\n      0x01ffc9a7\n      eq\n      tag_3\n      jumpi\n      dup1\n      0x248a9ca3\n      eq\n      tag_4\n      jumpi\n      dup1\n      0x2f2ff15d\n      eq\n      tag_5\n      jumpi\n      dup1\n      0x36568abe\n      eq\n      tag_6\n      jumpi\n      dup1\n      0x791b98bc\n      eq\n      tag_7\n      jumpi\n      dup1\n      0x8e909e51\n      eq\n      tag_8\n      jumpi\n    tag_2:\n      0x00\n      dup1\n      revert\n        /* \"lib/openzeppelin-contracts/contracts/access/AccessControl.sol\":2565:2767  function supportsInterface(bytes4 interfaceId) public view virtual override returns (bool) {... */\n    tag_3:\n      tag_16\n      0x04\n      dup1\n      calldatasize\n      sub\n      dup2\n      add\n      swap1\n      tag_17\n      swap2\n      swap1\n      tag_18\n      jump\t// in\n    tag_17:\n      tag_19\n      jump\t// in\n    tag_16:\n      mload(0x40)\n      tag_20\n      swap2\n      swap1\n      tag_21\n      jump\t// in\n    tag_20:\n      mload(0x40)\n      dup1\n      swap2\n      sub\n      swap1\n      return\n        /* \"lib/openzeppelin-contracts/contracts/access/AccessControl.sol\":3810:3930  function getRoleAdmin(bytes32 role) public view virtual returns (bytes32) {... */\n    tag_4:\n      tag_22\n      0x04\n      dup1\n      calldatasize\n      sub\n      dup2\n      add\n      swap1\n      tag_23\n      swap2\n      swap1\n      tag_24\n      jump\t// in\n    tag_23:\n      tag_25\n      jump\t// in\n    tag_22:\n      mload(0x40)\n      tag_26\n      swap2\n      swap1\n      tag_27\n      jump\t// in\n    tag_26:\n      mload(0x40)\n      dup1\n      swap2\n      sub\n      swap1\n      return\n        /* \"lib/openzeppelin-contracts/contracts/access/AccessControl.sol\":4226:4362  function grantRole(bytes32 role, address account) public virtual onlyRole(getRoleAdmin(role)) {... */\n    tag_5:\n      tag_28\n      0x04\n      dup1\n      calldatasize\n      sub\n      dup2\n      add\n      swap1\n      tag_29\n      swap2\n      swap1\n      tag_30\n      jump\t// in\n    tag_29:\n      tag_31\n      jump\t// in\n    tag_28:\n      stop\n        /* \"lib/openzeppelin-contracts/contracts/access/AccessControl.sol\":5328:5573  function renounceRole(bytes32 role, address callerConfirmation) public virtual {... */\n    tag_6:\n      tag_32\n      0x04\n      dup1\n      calldatasize\n      sub\n      dup2\n      add\n      swap1\n      tag_33\n      swap2\n      swap1\n      tag_30\n      jump\t// in\n    tag_33:\n      tag_34\n      jump\t// in\n    tag_32:\n      stop\n        /* \"src/LiquidityPoolManager.sol\":454:504  INonfungiblePositionManager public positionManager */\n    tag_7:\n      tag_35\n      tag_36\n      jump\t// in\n    tag_35:\n      mload(0x40)\n      tag_37\n      swap2\n      swap1\n      tag_38\n      jump\t// in\n    tag_37:\n      mload(0x40)\n      dup1\n      swap2\n      sub\n      swap1\n      return\n        /* \"src/LiquidityPoolManager.sol\":1201:1563  function createPool(address tokenA, address tokenB, uint24 fee, uint160 sqrtPriceX96) external  returns (address pool) {... */\n    tag_8:\n      tag_39\n      0x04\n      dup1\n      calldatasize\n      sub\n      dup2\n      add\n      swap1\n      tag_40\n      swap2\n      swap1\n      tag_41\n      jump\t// in\n    tag_40:\n      tag_42\n      jump\t// in\n    tag_39:\n      mload(0x40)\n      tag_43\n      swap2\n      swap1\n      tag_44\n      jump\t// in\n    tag_43:\n      mload(0x40)\n      dup1\n      swap2\n      sub\n      swap1\n      return\n        /* \"lib/openzeppelin-contracts/contracts/access/AccessControl.sol\":2854:2990  function hasRole(bytes32 role, address account) public view virtual returns (bool) {... */\n    tag_9:\n      tag_45\n      0x04\n      dup1\n      calldatasize\n      sub\n      dup2\n      add\n      swap1\n      tag_46\n      swap2\n      swap1\n      tag_30\n      jump\t// in\n    tag_46:\n      tag_47\n      jump\t// in\n    tag_45:\n      mload(0x40)\n      tag_48\n      swap2\n      swap1\n      tag_21\n      jump\t// in\n    tag_48:\n      mload(0x40)\n      dup1\n      swap2\n      sub\n      swap1\n      return\n        /* \"lib/openzeppelin-contracts/contracts/access/AccessControl.sol\":2187:2236  bytes32 public constant DEFAULT_ADMIN_ROLE = 0x00 */\n    tag_10:\n      tag_49\n      tag_50\n      jump\t// in\n    tag_49:\n      mload(0x40)\n      tag_51\n      swap2\n      swap1\n      tag_27\n      jump\t// in\n    tag_51:\n      mload(0x40)\n      dup1\n      swap2\n      sub\n      swap1\n      return\n        /* \"src/LiquidityPoolManager.sol\":1651:2932  function addLiquidity(... */\n    tag_11:\n      tag_52\n      0x04\n      dup1\n      calldatasize\n      sub\n      dup2\n      add\n      swap1\n      tag_53\n      swap2\n      swap1\n      tag_54\n      jump\t// in\n    tag_53:\n      tag_55\n      jump\t// in\n    tag_52:\n      mload(0x40)\n      tag_56\n      swap5\n      swap4\n      swap3\n      swap2\n      swap1\n      tag_57\n      jump\t// in\n    tag_56:\n      mload(0x40)\n      dup1\n      swap2\n      sub\n      swap1\n      return\n        /* \"src/LiquidityPoolManager.sol\":510:542  IUniswapV3Factory public factory */\n    tag_12:\n      tag_58\n      tag_59\n      jump\t// in\n    tag_58:\n      mload(0x40)\n      tag_60\n      swap2\n      swap1\n      tag_61\n      jump\t// in\n    tag_60:\n      mload(0x40)\n      dup1\n      swap2\n      sub\n      swap1\n      return\n        /* \"lib/openzeppelin-contracts/contracts/access/AccessControl.sol\":4642:4780  function revokeRole(bytes32 role, address account) public virtual onlyRole(getRoleAdmin(role)) {... */\n    tag_13:\n      tag_62\n      0x04\n      dup1\n      calldatasize\n      sub\n      dup2\n      add\n      swap1\n      tag_63\n      swap2\n      swap1\n      tag_30\n      jump\t// in\n    tag_63:\n      tag_64\n      jump\t// in\n    tag_62:\n      stop\n        /* \"src/LiquidityPoolManager.sol\":824:1063  function approveTokens(address tokenA, address tokenB, uint256 amountA, uint256 amountB) external {... */\n    tag_14:\n      tag_65\n      0x04\n      dup1\n      calldatasize\n      sub\n      dup2\n      add\n      swap1\n      tag_66\n      swap2\n      swap1\n      tag_67\n      jump\t// in\n    tag_66:\n      tag_68\n      jump\t// in\n    tag_65:\n      stop\n        /* \"lib/openzeppelin-contracts/contracts/access/AccessControl.sol\":2565:2767  function supportsInterface(bytes4 interfaceId) public view virtual override returns (bool) {... */\n    tag_19:\n        /* \"lib/openzeppelin-contracts/contracts/access/AccessControl.sol\":2650:2654  bool */\n      0x00\n        /* \"lib/openzeppelin-contracts/contracts/access/AccessControl.sol\":2688:2720  type(IAccessControl).interfaceId */\n      0x7965db0b00000000000000000000000000000000000000000000000000000000\n        /* \"lib/openzeppelin-contracts/contracts/access/AccessControl.sol\":2673:2720  interfaceId == type(IAccessControl).interfaceId */\n      not(0xffffffffffffffffffffffffffffffffffffffffffffffffffffffff)\n      and\n        /* \"lib/openzeppelin-contracts/contracts/access/AccessControl.sol\":2673:2684  interfaceId */\n      dup3\n        /* \"lib/openzeppelin-contracts/contracts/access/AccessControl.sol\":2673:2720  interfaceId == type(IAccessControl).interfaceId */\n      not(0xffffffffffffffffffffffffffffffffffffffffffffffffffffffff)\n      and\n      eq\n        /* \"lib/openzeppelin-contracts/contracts/access/AccessControl.sol\":2673:2760  interfaceId == type(IAccessControl).interfaceId || super.supportsInterface(interfaceId) */\n      dup1\n      tag_70\n      jumpi\n      pop\n        /* \"lib/openzeppelin-contracts/contracts/access/AccessControl.sol\":2724:2760  super.supportsInterface(interfaceId) */\n      tag_71\n        /* \"lib/openzeppelin-contracts/contracts/access/AccessControl.sol\":2748:2759  interfaceId */\n      dup3\n        /* \"lib/openzeppelin-contracts/contracts/access/AccessControl.sol\":2724:2747  super.supportsInterface */\n      tag_72\n        /* \"lib/openzeppelin-contracts/contracts/access/AccessControl.sol\":2724:2760  super.supportsInterface(interfaceId) */\n      jump\t// in\n    tag_71:\n        /* \"lib/openzeppelin-contracts/contracts/access/AccessControl.sol\":2673:2760  interfaceId == type(IAccessControl).interfaceId || super.supportsInterface(interfaceId) */\n    tag_70:\n        /* \"lib/openzeppelin-contracts/contracts/access/AccessControl.sol\":2666:2760  return interfaceId == type(IAccessControl).interfaceId || super.supportsInterface(interfaceId) */\n      swap1\n      pop\n        /* \"lib/openzeppelin-contracts/contracts/access/AccessControl.sol\":2565:2767  function supportsInterface(bytes4 interfaceId) public view virtual override returns (bool) {... */\n      swap2\n      swap1\n      pop\n      jump\t// out\n        /* \"lib/openzeppelin-contracts/contracts/access/AccessControl.sol\":3810:3930  function getRoleAdmin(bytes32 role) public view virtual returns (bytes32) {... */\n    tag_25:\n        /* \"lib/openzeppelin-contracts/contracts/access/AccessControl.sol\":3875:3882  bytes32 */\n      0x00\n        /* \"lib/openzeppelin-contracts/contracts/access/AccessControl.sol\":3901:3907  _roles */\n      dup1\n        /* \"lib/openzeppelin-contracts/contracts/access/AccessControl.sol\":3901:3913  _roles[role] */\n      0x00\n        /* \"lib/openzeppelin-contracts/contracts/access/AccessControl.sol\":3908:3912  role */\n      dup4\n        /* \"lib/openzeppelin-contracts/contracts/access/AccessControl.sol\":3901:3913  _roles[role] */\n      dup2\n      mstore\n      0x20\n      add\n      swap1\n      dup2\n      mstore\n      0x20\n      add\n      0x00\n      keccak256\n        /* \"lib/openzeppelin-contracts/contracts/access/AccessControl.sol\":3901:3923  _roles[role].adminRole */\n      0x01\n      add\n      sload\n        /* \"lib/openzeppelin-contracts/contracts/access/AccessControl.sol\":3894:3923  return _roles[role].adminRole */\n      swap1\n      pop\n        /* \"lib/openzeppelin-contracts/contracts/access/AccessControl.sol\":3810:3930  function getRoleAdmin(bytes32 role) public view virtual returns (bytes32) {... */\n      swap2\n      swap1\n      pop\n      jump\t// out\n        /* \"lib/openzeppelin-contracts/contracts/access/AccessControl.sol\":4226:4362  function grantRole(bytes32 role, address account) public virtual onlyRole(getRoleAdmin(role)) {... */\n    tag_31:\n        /* \"lib/openzeppelin-contracts/contracts/access/AccessControl.sol\":4300:4318  getRoleAdmin(role) */\n      tag_74\n        /* \"lib/openzeppelin-contracts/contracts/access/AccessControl.sol\":4313:4317  role */\n      dup3\n        /* \"lib/openzeppelin-contracts/contracts/access/AccessControl.sol\":4300:4312  getRoleAdmin */\n      tag_25\n        /* \"lib/openzeppelin-contracts/contracts/access/AccessControl.sol\":4300:4318  getRoleAdmin(role) */\n      jump\t// in\n    tag_74:\n        /* \"lib/openzeppelin-contracts/contracts/access/AccessControl.sol\":2464:2480  _checkRole(role) */\n      tag_76\n        /* \"lib/openzeppelin-contracts/contracts/access/AccessControl.sol\":2475:2479  role */\n      dup2\n        /* \"lib/openzeppelin-contracts/contracts/access/AccessControl.sol\":2464:2474  _checkRole */\n      tag_77\n        /* \"lib/openzeppelin-contracts/contracts/access/AccessControl.sol\":2464:2480  _checkRole(role) */\n      jump\t// in\n    tag_76:\n        /* \"lib/openzeppelin-contracts/contracts/access/AccessControl.sol\":4330:4355  _grantRole(role, account) */\n      tag_79\n        /* \"lib/openzeppelin-contracts/contracts/access/AccessControl.sol\":4341:4345  role */\n      dup4\n        /* \"lib/openzeppelin-contracts/contracts/access/AccessControl.sol\":4347:4354  account */\n      dup4\n        /* \"lib/openzeppelin-contracts/contracts/access/AccessControl.sol\":4330:4340  _grantRole */\n      tag_80\n        /* \"lib/openzeppelin-contracts/contracts/access/AccessControl.sol\":4330:4355  _grantRole(role, account) */\n      jump\t// in\n    tag_79:\n      pop\n        /* \"lib/openzeppelin-contracts/contracts/access/AccessControl.sol\":4226:4362  function grantRole(bytes32 role, address account) public virtual onlyRole(getRoleAdmin(role)) {... */\n      pop\n      pop\n      pop\n      jump\t// out\n        /* \"lib/openzeppelin-contracts/contracts/access/AccessControl.sol\":5328:5573  function renounceRole(bytes32 role, address callerConfirmation) public virtual {... */\n    tag_34:\n        /* \"lib/openzeppelin-contracts/contracts/access/AccessControl.sol\":5443:5455  _msgSender() */\n      tag_82\n        /* \"lib/openzeppelin-contracts/contracts/access/AccessControl.sol\":5443:5453  _msgSender */\n      tag_83\n        /* \"lib/openzeppelin-contracts/contracts/access/AccessControl.sol\":5443:5455  _msgSender() */\n      jump\t// in\n    tag_82:\n        /* \"lib/openzeppelin-contracts/contracts/access/AccessControl.sol\":5421:5455  callerConfirmation != _msgSender() */\n      0xffffffffffffffffffffffffffffffffffffffff\n      and\n        /* \"lib/openzeppelin-contracts/contracts/access/AccessControl.sol\":5421:5439  callerConfirmation */\n      dup2\n        /* \"lib/openzeppelin-contracts/contracts/access/AccessControl.sol\":5421:5455  callerConfirmation != _msgSender() */\n      0xffffffffffffffffffffffffffffffffffffffff\n      and\n      eq\n        /* \"lib/openzeppelin-contracts/contracts/access/AccessControl.sol\":5417:5519  if (callerConfirmation != _msgSender()) {... */\n      tag_84\n      jumpi\n        /* \"lib/openzeppelin-contracts/contracts/access/AccessControl.sol\":5478:5508  AccessControlBadConfirmation() */\n      mload(0x40)\n      0x6697b23200000000000000000000000000000000000000000000000000000000\n      dup2\n      mstore\n      0x04\n      add\n      mload(0x40)\n      dup1\n      swap2\n      sub\n      swap1\n      revert\n        /* \"lib/openzeppelin-contracts/contracts/access/AccessControl.sol\":5417:5519  if (callerConfirmation != _msgSender()) {... */\n    tag_84:\n        /* \"lib/openzeppelin-contracts/contracts/access/AccessControl.sol\":5529:5566  _revokeRole(role, callerConfirmation) */\n      tag_85\n        /* \"lib/openzeppelin-contracts/contracts/access/AccessControl.sol\":5541:5545  role */\n      dup3\n        /* \"lib/openzeppelin-contracts/contracts/access/AccessControl.sol\":5547:5565  callerConfirmation */\n      dup3\n        /* \"lib/openzeppelin-contracts/contracts/access/AccessControl.sol\":5529:5540  _revokeRole */\n      tag_86\n        /* \"lib/openzeppelin-contracts/contracts/access/AccessControl.sol\":5529:5566  _revokeRole(role, callerConfirmation) */\n      jump\t// in\n    tag_85:\n      pop\n        /* \"lib/openzeppelin-contracts/contracts/access/AccessControl.sol\":5328:5573  function renounceRole(bytes32 role, address callerConfirmation) public virtual {... */\n      pop\n      pop\n      jump\t// out\n        /* \"src/LiquidityPoolManager.sol\":454:504  INonfungiblePositionManager public positionManager */\n    tag_36:\n      0x01\n      0x00\n      swap1\n      sload\n      swap1\n      0x0100\n      exp\n      swap1\n      div\n      0xffffffffffffffffffffffffffffffffffffffff\n      and\n      dup2\n      jump\t// out\n        /* \"src/LiquidityPoolManager.sol\":1201:1563  function createPool(address tokenA, address tokenB, uint24 fee, uint160 sqrtPriceX96) external  returns (address pool) {... */\n    tag_42:\n        /* \"src/LiquidityPoolManager.sol\":1306:1318  address pool */\n      0x00\n        /* \"src/LiquidityPoolManager.sol\":1386:1387  0 */\n      dup1\n        /* \"src/LiquidityPoolManager.sol\":1338:1388  factory.getPool(tokenA, tokenB, fee) == address(0) */\n      0xffffffffffffffffffffffffffffffffffffffff\n      and\n        /* \"src/LiquidityPoolManager.sol\":1338:1345  factory */\n      0x02\n      0x00\n      swap1\n      sload\n      swap1\n      0x0100\n      exp\n      swap1\n      div\n      0xffffffffffffffffffffffffffffffffffffffff\n      and\n        /* \"src/LiquidityPoolManager.sol\":1338:1353  factory.getPool */\n      0xffffffffffffffffffffffffffffffffffffffff\n      and\n      0x1698ee82\n        /* \"src/LiquidityPoolManager.sol\":1354:1360  tokenA */\n      dup8\n        /* \"src/LiquidityPoolManager.sol\":1362:1368  tokenB */\n      dup8\n        /* \"src/LiquidityPoolManager.sol\":1370:1373  fee */\n      dup8\n        /* \"src/LiquidityPoolManager.sol\":1338:1374  factory.getPool(tokenA, tokenB, fee) */\n      mload(0x40)\n      dup5\n      0xffffffff\n      and\n      0xe0\n      shl\n      dup2\n      mstore\n      0x04\n      add\n      tag_88\n      swap4\n      swap3\n      swap2\n      swap1\n      tag_89\n      jump\t// in\n    tag_88:\n      0x20\n      mload(0x40)\n      dup1\n      dup4\n      sub\n      dup2\n      dup7\n      gas\n      staticcall\n      iszero\n      dup1\n      iszero\n      tag_91\n      jumpi\n      returndatasize\n      0x00\n      dup1\n      returndatacopy\n      revert(0x00, returndatasize)\n    tag_91:\n      pop\n      pop\n      pop\n      pop\n      mload(0x40)\n      returndatasize\n      not(0x1f)\n      0x1f\n      dup3\n      add\n      and\n      dup3\n      add\n      dup1\n      0x40\n      mstore\n      pop\n      dup2\n      add\n      swap1\n      tag_92\n      swap2\n      swap1\n      tag_93\n      jump\t// in\n    tag_92:\n        /* \"src/LiquidityPoolManager.sol\":1338:1388  factory.getPool(tokenA, tokenB, fee) == address(0) */\n      0xffffffffffffffffffffffffffffffffffffffff\n      and\n      eq\n        /* \"src/LiquidityPoolManager.sol\":1330:1412  require(factory.getPool(tokenA, tokenB, fee) == address(0), \"Pool already exists\") */\n      tag_94\n      jumpi\n      mload(0x40)\n      0x08c379a000000000000000000000000000000000000000000000000000000000\n      dup2\n      mstore\n      0x04\n      add\n      tag_95\n      swap1\n      tag_96\n      jump\t// in\n    tag_95:\n      mload(0x40)\n      dup1\n      swap2\n      sub\n      swap1\n      revert\n    tag_94:\n        /* \"src/LiquidityPoolManager.sol\":1429:1436  factory */\n      0x02\n      0x00\n      swap1\n      sload\n      swap1\n      0x0100\n      exp\n      swap1\n      div\n      0xffffffffffffffffffffffffffffffffffffffff\n      and\n        /* \"src/LiquidityPoolManager.sol\":1429:1447  factory.createPool */\n      0xffffffffffffffffffffffffffffffffffffffff\n      and\n      0xa1671295\n        /* \"src/LiquidityPoolManager.sol\":1448:1454  tokenA */\n      dup7\n        /* \"src/LiquidityPoolManager.sol\":1456:1462  tokenB */\n      dup7\n        /* \"src/LiquidityPoolManager.sol\":1464:1467  fee */\n      dup7\n        /* \"src/LiquidityPoolManager.sol\":1429:1468  factory.createPool(tokenA, tokenB, fee) */\n      mload(0x40)\n      dup5\n      0xffffffff\n      and\n      0xe0\n      shl\n      dup2\n      mstore\n      0x04\n      add\n      tag_97\n      swap4\n      swap3\n      swap2\n      swap1\n      tag_89\n      jump\t// in\n    tag_97:\n      0x20\n      mload(0x40)\n      dup1\n      dup4\n      sub\n      dup2\n      0x00\n      dup8\n      gas\n      call\n      iszero\n      dup1\n      iszero\n      tag_99\n      jumpi\n      returndatasize\n      0x00\n      dup1\n      returndatacopy\n      revert(0x00, returndatasize)\n    tag_99:\n      pop\n      pop\n      pop\n      pop\n      mload(0x40)\n      returndatasize\n      not(0x1f)\n      0x1f\n      dup3\n      add\n      and\n      dup3\n      add\n      dup1\n      0x40\n      mstore\n      pop\n      dup2\n      add\n      swap1\n      tag_100\n      swap2\n      swap1\n      tag_93\n      jump\t// in\n    tag_100:\n        /* \"src/LiquidityPoolManager.sol\":1422:1468  pool = factory.createPool(tokenA, tokenB, fee) */\n      swap1\n      pop\n        /* \"src/LiquidityPoolManager.sol\":1493:1497  pool */\n      dup1\n        /* \"src/LiquidityPoolManager.sol\":1478:1509  IUniswapV3Pool(pool).initialize */\n      0xffffffffffffffffffffffffffffffffffffffff\n      and\n      0xf637731d\n        /* \"src/LiquidityPoolManager.sol\":1510:1522  sqrtPriceX96 */\n      dup4\n        /* \"src/LiquidityPoolManager.sol\":1478:1523  IUniswapV3Pool(pool).initialize(sqrtPriceX96) */\n      mload(0x40)\n      dup3\n      0xffffffff\n      and\n      0xe0\n      shl\n      dup2\n      mstore\n      0x04\n      add\n      tag_101\n      swap2\n      swap1\n      tag_102\n      jump\t// in\n    tag_101:\n      0x00\n      mload(0x40)\n      dup1\n      dup4\n      sub\n      dup2\n      0x00\n      dup8\n      dup1\n      extcodesize\n      iszero\n      dup1\n      iszero\n      tag_103\n      jumpi\n      0x00\n      dup1\n      revert\n    tag_103:\n      pop\n      gas\n      call\n      iszero\n      dup1\n      iszero\n      tag_105\n      jumpi\n      returndatasize\n      0x00\n      dup1\n      returndatacopy\n      revert(0x00, returndatasize)\n    tag_105:\n      pop\n      pop\n      pop\n      pop\n        /* \"src/LiquidityPoolManager.sol\":1201:1563  function createPool(address tokenA, address tokenB, uint24 fee, uint160 sqrtPriceX96) external  returns (address pool) {... */\n      swap5\n      swap4\n      pop\n      pop\n      pop\n      pop\n      jump\t// out\n        /* \"lib/openzeppelin-contracts/contracts/access/AccessControl.sol\":2854:2990  function hasRole(bytes32 role, address account) public view virtual returns (bool) {... */\n    tag_47:\n        /* \"lib/openzeppelin-contracts/contracts/access/AccessControl.sol\":2931:2935  bool */\n      0x00\n        /* \"lib/openzeppelin-contracts/contracts/access/AccessControl.sol\":2954:2960  _roles */\n      dup1\n        /* \"lib/openzeppelin-contracts/contracts/access/AccessControl.sol\":2954:2966  _roles[role] */\n      0x00\n        /* \"lib/openzeppelin-contracts/contracts/access/AccessControl.sol\":2961:2965  role */\n      dup5\n        /* \"lib/openzeppelin-contracts/contracts/access/AccessControl.sol\":2954:2966  _roles[role] */\n      dup2\n      mstore\n      0x20\n      add\n      swap1\n      dup2\n      mstore\n      0x20\n      add\n      0x00\n      keccak256\n        /* \"lib/openzeppelin-contracts/contracts/access/AccessControl.sol\":2954:2974  _roles[role].hasRole */\n      0x00\n      add\n        /* \"lib/openzeppelin-contracts/contracts/access/AccessControl.sol\":2954:2983  _roles[role].hasRole[account] */\n      0x00\n        /* \"lib/openzeppelin-contracts/contracts/access/AccessControl.sol\":2975:2982  account */\n      dup4\n        /* \"lib/openzeppelin-contracts/contracts/access/AccessControl.sol\":2954:2983  _roles[role].hasRole[account] */\n      0xffffffffffffffffffffffffffffffffffffffff\n      and\n      0xffffffffffffffffffffffffffffffffffffffff\n      and\n      dup2\n      mstore\n      0x20\n      add\n      swap1\n      dup2\n      mstore\n      0x20\n      add\n      0x00\n      keccak256\n      0x00\n      swap1\n      sload\n      swap1\n      0x0100\n      exp\n      swap1\n      div\n      0xff\n      and\n        /* \"lib/openzeppelin-contracts/contracts/access/AccessControl.sol\":2947:2983  return _roles[role].hasRole[account] */\n      swap1\n      pop\n        /* \"lib/openzeppelin-contracts/contracts/access/AccessControl.sol\":2854:2990  function hasRole(bytes32 role, address account) public view virtual returns (bool) {... */\n      swap3\n      swap2\n      pop\n      pop\n      jump\t// out\n        /* \"lib/openzeppelin-contracts/contracts/access/AccessControl.sol\":2187:2236  bytes32 public constant DEFAULT_ADMIN_ROLE = 0x00 */\n    tag_50:\n        /* \"lib/openzeppelin-contracts/contracts/access/AccessControl.sol\":2232:2236  0x00 */\n      0x00\n        /* \"lib/openzeppelin-contracts/contracts/access/AccessControl.sol\":2187:2236  bytes32 public constant DEFAULT_ADMIN_ROLE = 0x00 */\n      dup1\n      shl\n      dup2\n      jump\t// out\n        /* \"src/LiquidityPoolManager.sol\":1651:2932  function addLiquidity(... */\n    tag_55:\n        /* \"src/LiquidityPoolManager.sol\":1866:1881  uint256 tokenId */\n      0x00\n        /* \"src/LiquidityPoolManager.sol\":1883:1900  uint128 liquidity */\n      dup1\n        /* \"src/LiquidityPoolManager.sol\":1902:1917  uint256 amount0 */\n      0x00\n        /* \"src/LiquidityPoolManager.sol\":1919:1934  uint256 amount1 */\n      dup1\n        /* \"src/LiquidityPoolManager.sol\":1997:2004  amountA */\n      dup8\n        /* \"src/LiquidityPoolManager.sol\":1961:1967  tokenA */\n      dup12\n        /* \"src/LiquidityPoolManager.sol\":1954:1978  IERC20(tokenA).balanceOf */\n      0xffffffffffffffffffffffffffffffffffffffff\n      and\n      0x70a08231\n        /* \"src/LiquidityPoolManager.sol\":1987:1991  this */\n      address\n        /* \"src/LiquidityPoolManager.sol\":1954:1993  IERC20(tokenA).balanceOf(address(this)) */\n      mload(0x40)\n      dup3\n      0xffffffff\n      and\n      0xe0\n      shl\n      dup2\n      mstore\n      0x04\n      add\n      tag_108\n      swap2\n      swap1\n      tag_44\n      jump\t// in\n    tag_108:\n      0x20\n      mload(0x40)\n      dup1\n      dup4\n      sub\n      dup2\n      dup7\n      gas\n      staticcall\n      iszero\n      dup1\n      iszero\n      tag_110\n      jumpi\n      returndatasize\n      0x00\n      dup1\n      returndatacopy\n      revert(0x00, returndatasize)\n    tag_110:\n      pop\n      pop\n      pop\n      pop\n      mload(0x40)\n      returndatasize\n      not(0x1f)\n      0x1f\n      dup3\n      add\n      and\n      dup3\n      add\n      dup1\n      0x40\n      mstore\n      pop\n      dup2\n      add\n      swap1\n      tag_111\n      swap2\n      swap1\n      tag_112\n      jump\t// in\n    tag_111:\n        /* \"src/LiquidityPoolManager.sol\":1954:2004  IERC20(tokenA).balanceOf(address(this)) >= amountA */\n      lt\n      iszero\n        /* \"src/LiquidityPoolManager.sol\":1946:2028  require(IERC20(tokenA).balanceOf(address(this)) >= amountA, \"Insufficient TokenA\") */\n      tag_113\n      jumpi\n      mload(0x40)\n      0x08c379a000000000000000000000000000000000000000000000000000000000\n      dup2\n      mstore\n      0x04\n      add\n      tag_114\n      swap1\n      tag_115\n      jump\t// in\n    tag_114:\n      mload(0x40)\n      dup1\n      swap2\n      sub\n      swap1\n      revert\n    tag_113:\n        /* \"src/LiquidityPoolManager.sol\":2089:2096  amountB */\n      dup7\n        /* \"src/LiquidityPoolManager.sol\":2053:2059  tokenB */\n      dup11\n        /* \"src/LiquidityPoolManager.sol\":2046:2070  IERC20(tokenB).balanceOf */\n      0xffffffffffffffffffffffffffffffffffffffff\n      and\n      0x70a08231\n        /* \"src/LiquidityPoolManager.sol\":2079:2083  this */\n      address\n        /* \"src/LiquidityPoolManager.sol\":2046:2085  IERC20(tokenB).balanceOf(address(this)) */\n      mload(0x40)\n      dup3\n      0xffffffff\n      and\n      0xe0\n      shl\n      dup2\n      mstore\n      0x04\n      add\n      tag_116\n      swap2\n      swap1\n      tag_44\n      jump\t// in\n    tag_116:\n      0x20\n      mload(0x40)\n      dup1\n      dup4\n      sub\n      dup2\n      dup7\n      gas\n      staticcall\n      iszero\n      dup1\n      iszero\n      tag_118\n      jumpi\n      returndatasize\n      0x00\n      dup1\n      returndatacopy\n      revert(0x00, returndatasize)\n    tag_118:\n      pop\n      pop\n      pop\n      pop\n      mload(0x40)\n      returndatasize\n      not(0x1f)\n      0x1f\n      dup3\n      add\n      and\n      dup3\n      add\n      dup1\n      0x40\n      mstore\n      pop\n      dup2\n      add\n      swap1\n      tag_119\n      swap2\n      swap1\n      tag_112\n      jump\t// in\n    tag_119:\n        /* \"src/LiquidityPoolManager.sol\":2046:2096  IERC20(tokenB).balanceOf(address(this)) >= amountB */\n      lt\n      iszero\n        /* \"src/LiquidityPoolManager.sol\":2038:2120  require(IERC20(tokenB).balanceOf(address(this)) >= amountB, \"Insufficient TokenB\") */\n      tag_120\n      jumpi\n      mload(0x40)\n      0x08c379a000000000000000000000000000000000000000000000000000000000\n      dup2\n      mstore\n      0x04\n      add\n      tag_121\n      swap1\n      tag_122\n      jump\t// in\n    tag_121:\n      mload(0x40)\n      dup1\n      swap2\n      sub\n      swap1\n      revert\n    tag_120:\n        /* \"src/LiquidityPoolManager.sol\":2131:2183  INonfungiblePositionManager.MintParams memory params */\n      0x00\n        /* \"src/LiquidityPoolManager.sol\":2186:2590  INonfungiblePositionManager.MintParams({... */\n      mload(0x40)\n      dup1\n      0x0160\n      add\n      0x40\n      mstore\n      dup1\n        /* \"src/LiquidityPoolManager.sol\":2247:2253  tokenA */\n      dup14\n        /* \"src/LiquidityPoolManager.sol\":2186:2590  INonfungiblePositionManager.MintParams({... */\n      0xffffffffffffffffffffffffffffffffffffffff\n      and\n      dup2\n      mstore\n      0x20\n      add\n        /* \"src/LiquidityPoolManager.sol\":2275:2281  tokenB */\n      dup13\n        /* \"src/LiquidityPoolManager.sol\":2186:2590  INonfungiblePositionManager.MintParams({... */\n      0xffffffffffffffffffffffffffffffffffffffff\n      and\n      dup2\n      mstore\n      0x20\n      add\n        /* \"src/LiquidityPoolManager.sol\":2300:2303  fee */\n      dup12\n        /* \"src/LiquidityPoolManager.sol\":2186:2590  INonfungiblePositionManager.MintParams({... */\n      0xffffff\n      and\n      dup2\n      mstore\n      0x20\n      add\n        /* \"src/LiquidityPoolManager.sol\":2328:2337  tickLower */\n      dup9\n        /* \"src/LiquidityPoolManager.sol\":2186:2590  INonfungiblePositionManager.MintParams({... */\n      0x02\n      signextend\n      dup2\n      mstore\n      0x20\n      add\n        /* \"src/LiquidityPoolManager.sol\":2362:2371  tickUpper */\n      dup8\n        /* \"src/LiquidityPoolManager.sol\":2186:2590  INonfungiblePositionManager.MintParams({... */\n      0x02\n      signextend\n      dup2\n      mstore\n      0x20\n      add\n        /* \"src/LiquidityPoolManager.sol\":2401:2408  amountA */\n      dup11\n        /* \"src/LiquidityPoolManager.sol\":2186:2590  INonfungiblePositionManager.MintParams({... */\n      dup2\n      mstore\n      0x20\n      add\n        /* \"src/LiquidityPoolManager.sol\":2438:2445  amountB */\n      dup10\n        /* \"src/LiquidityPoolManager.sol\":2186:2590  INonfungiblePositionManager.MintParams({... */\n      dup2\n      mstore\n      0x20\n      add\n        /* \"src/LiquidityPoolManager.sol\":2471:2472  0 */\n      0x00\n        /* \"src/LiquidityPoolManager.sol\":2186:2590  INonfungiblePositionManager.MintParams({... */\n      dup2\n      mstore\n      0x20\n      add\n        /* \"src/LiquidityPoolManager.sol\":2498:2499  0 */\n      0x00\n        /* \"src/LiquidityPoolManager.sol\":2186:2590  INonfungiblePositionManager.MintParams({... */\n      dup2\n      mstore\n      0x20\n      add\n        /* \"src/LiquidityPoolManager.sol\":2524:2534  msg.sender */\n      caller\n        /* \"src/LiquidityPoolManager.sol\":2186:2590  INonfungiblePositionManager.MintParams({... */\n      0xffffffffffffffffffffffffffffffffffffffff\n      and\n      dup2\n      mstore\n      0x20\n      add\n        /* \"src/LiquidityPoolManager.sol\":2576:2579  120 */\n      0x78\n        /* \"src/LiquidityPoolManager.sol\":2558:2573  block.timestamp */\n      timestamp\n        /* \"src/LiquidityPoolManager.sol\":2558:2579  block.timestamp + 120 */\n      tag_123\n      swap2\n      swap1\n      tag_124\n      jump\t// in\n    tag_123:\n        /* \"src/LiquidityPoolManager.sol\":2186:2590  INonfungiblePositionManager.MintParams({... */\n      dup2\n      mstore\n      pop\n        /* \"src/LiquidityPoolManager.sol\":2131:2590  INonfungiblePositionManager.MintParams memory params = INonfungiblePositionManager.MintParams({... */\n      swap1\n      pop\n        /* \"src/LiquidityPoolManager.sol\":2642:2657  positionManager */\n      0x01\n      0x00\n      swap1\n      sload\n      swap1\n      0x0100\n      exp\n      swap1\n      div\n      0xffffffffffffffffffffffffffffffffffffffff\n      and\n        /* \"src/LiquidityPoolManager.sol\":2642:2662  positionManager.mint */\n      0xffffffffffffffffffffffffffffffffffffffff\n      and\n      0x88316456\n        /* \"src/LiquidityPoolManager.sol\":2663:2669  params */\n      dup3\n        /* \"src/LiquidityPoolManager.sol\":2642:2670  positionManager.mint(params) */\n      mload(0x40)\n      dup3\n      0xffffffff\n      and\n      0xe0\n      shl\n      dup2\n      mstore\n      0x04\n      add\n      tag_125\n      swap2\n      swap1\n      tag_126\n      jump\t// in\n    tag_125:\n      0x80\n      mload(0x40)\n      dup1\n      dup4\n      sub\n      dup2\n      0x00\n      dup8\n      gas\n      call\n      iszero\n      dup1\n      iszero\n      tag_128\n      jumpi\n      returndatasize\n      0x00\n      dup1\n      returndatacopy\n      revert(0x00, returndatasize)\n    tag_128:\n      pop\n      pop\n      pop\n      pop\n      mload(0x40)\n      returndatasize\n      not(0x1f)\n      0x1f\n      dup3\n      add\n      and\n      dup3\n      add\n      dup1\n      0x40\n      mstore\n      pop\n      dup2\n      add\n      swap1\n      tag_129\n      swap2\n      swap1\n      tag_130\n      jump\t// in\n    tag_129:\n        /* \"src/LiquidityPoolManager.sol\":2601:2670  (tokenId, liquidity, amount0, amount1) = positionManager.mint(params) */\n      dup1\n      swap6\n      pop\n      dup2\n      swap7\n      pop\n      dup3\n      swap8\n      pop\n      dup4\n      swap9\n      pop\n      pop\n      pop\n      pop\n      pop\n        /* \"src/LiquidityPoolManager.sol\":2727:2734  amount0 */\n      dup3\n        /* \"src/LiquidityPoolManager.sol\":2717:2724  amountA */\n      dup10\n        /* \"src/LiquidityPoolManager.sol\":2717:2734  amountA > amount0 */\n      gt\n        /* \"src/LiquidityPoolManager.sol\":2713:2815  if (amountA > amount0) {... */\n      iszero\n      tag_131\n      jumpi\n        /* \"src/LiquidityPoolManager.sol\":2757:2763  tokenA */\n      dup12\n        /* \"src/LiquidityPoolManager.sol\":2750:2773  IERC20(tokenA).transfer */\n      0xffffffffffffffffffffffffffffffffffffffff\n      and\n      0xa9059cbb\n        /* \"src/LiquidityPoolManager.sol\":2774:2784  msg.sender */\n      caller\n        /* \"src/LiquidityPoolManager.sol\":2796:2803  amount0 */\n      dup6\n        /* \"src/LiquidityPoolManager.sol\":2786:2793  amountA */\n      dup13\n        /* \"src/LiquidityPoolManager.sol\":2786:2803  amountA - amount0 */\n      tag_132\n      swap2\n      swap1\n      tag_133\n      jump\t// in\n    tag_132:\n        /* \"src/LiquidityPoolManager.sol\":2750:2804  IERC20(tokenA).transfer(msg.sender, amountA - amount0) */\n      mload(0x40)\n      dup4\n      0xffffffff\n      and\n      0xe0\n      shl\n      dup2\n      mstore\n      0x04\n      add\n      tag_134\n      swap3\n      swap2\n      swap1\n      tag_135\n      jump\t// in\n    tag_134:\n      0x20\n      mload(0x40)\n      dup1\n      dup4\n      sub\n      dup2\n      0x00\n      dup8\n      gas\n      call\n      iszero\n      dup1\n      iszero\n      tag_137\n      jumpi\n      returndatasize\n      0x00\n      dup1\n      returndatacopy\n      revert(0x00, returndatasize)\n    tag_137:\n      pop\n      pop\n      pop\n      pop\n      mload(0x40)\n      returndatasize\n      not(0x1f)\n      0x1f\n      dup3\n      add\n      and\n      dup3\n      add\n      dup1\n      0x40\n      mstore\n      pop\n      dup2\n      add\n      swap1\n      tag_138\n      swap2\n      swap1\n      tag_139\n      jump\t// in\n    tag_138:\n      pop\n        /* \"src/LiquidityPoolManager.sol\":2713:2815  if (amountA > amount0) {... */\n    tag_131:\n        /* \"src/LiquidityPoolManager.sol\":2838:2845  amount1 */\n      dup2\n        /* \"src/LiquidityPoolManager.sol\":2828:2835  amountB */\n      dup9\n        /* \"src/LiquidityPoolManager.sol\":2828:2845  amountB > amount1 */\n      gt\n        /* \"src/LiquidityPoolManager.sol\":2824:2926  if (amountB > amount1) {... */\n      iszero\n      tag_140\n      jumpi\n        /* \"src/LiquidityPoolManager.sol\":2868:2874  tokenB */\n      dup11\n        /* \"src/LiquidityPoolManager.sol\":2861:2884  IERC20(tokenB).transfer */\n      0xffffffffffffffffffffffffffffffffffffffff\n      and\n      0xa9059cbb\n        /* \"src/LiquidityPoolManager.sol\":2885:2895  msg.sender */\n      caller\n        /* \"src/LiquidityPoolManager.sol\":2907:2914  amount1 */\n      dup5\n        /* \"src/LiquidityPoolManager.sol\":2897:2904  amountB */\n      dup12\n        /* \"src/LiquidityPoolManager.sol\":2897:2914  amountB - amount1 */\n      tag_141\n      swap2\n      swap1\n      tag_133\n      jump\t// in\n    tag_141:\n        /* \"src/LiquidityPoolManager.sol\":2861:2915  IERC20(tokenB).transfer(msg.sender, amountB - amount1) */\n      mload(0x40)\n      dup4\n      0xffffffff\n      and\n      0xe0\n      shl\n      dup2\n      mstore\n      0x04\n      add\n      tag_142\n      swap3\n      swap2\n      swap1\n      tag_135\n      jump\t// in\n    tag_142:\n      0x20\n      mload(0x40)\n      dup1\n      dup4\n      sub\n      dup2\n      0x00\n      dup8\n      gas\n      call\n      iszero\n      dup1\n      iszero\n      tag_144\n      jumpi\n      returndatasize\n      0x00\n      dup1\n      returndatacopy\n      revert(0x00, returndatasize)\n    tag_144:\n      pop\n      pop\n      pop\n      pop\n      mload(0x40)\n      returndatasize\n      not(0x1f)\n      0x1f\n      dup3\n      add\n      and\n      dup3\n      add\n      dup1\n      0x40\n      mstore\n      pop\n      dup2\n      add\n      swap1\n      tag_145\n      swap2\n      swap1\n      tag_139\n      jump\t// in\n    tag_145:\n      pop\n        /* \"src/LiquidityPoolManager.sol\":2824:2926  if (amountB > amount1) {... */\n    tag_140:\n        /* \"src/LiquidityPoolManager.sol\":1936:2932  {... */\n      pop\n        /* \"src/LiquidityPoolManager.sol\":1651:2932  function addLiquidity(... */\n      swap8\n      pop\n      swap8\n      pop\n      swap8\n      pop\n      swap8\n      swap4\n      pop\n      pop\n      pop\n      pop\n      jump\t// out\n        /* \"src/LiquidityPoolManager.sol\":510:542  IUniswapV3Factory public factory */\n    tag_59:\n      0x02\n      0x00\n      swap1\n      sload\n      swap1\n      0x0100\n      exp\n      swap1\n      div\n      0xffffffffffffffffffffffffffffffffffffffff\n      and\n      dup2\n      jump\t// out\n        /* \"lib/openzeppelin-contracts/contracts/access/AccessControl.sol\":4642:4780  function revokeRole(bytes32 role, address account) public virtual onlyRole(getRoleAdmin(role)) {... */\n    tag_64:\n        /* \"lib/openzeppelin-contracts/contracts/access/AccessControl.sol\":4717:4735  getRoleAdmin(role) */\n      tag_146\n        /* \"lib/openzeppelin-contracts/contracts/access/AccessControl.sol\":4730:4734  role */\n      dup3\n        /* \"lib/openzeppelin-contracts/contracts/access/AccessControl.sol\":4717:4729  getRoleAdmin */\n      tag_25\n        /* \"lib/openzeppelin-contracts/contracts/access/AccessControl.sol\":4717:4735  getRoleAdmin(role) */\n      jump\t// in\n    tag_146:\n        /* \"lib/openzeppelin-contracts/contracts/access/AccessControl.sol\":2464:2480  _checkRole(role) */\n      tag_148\n        /* \"lib/openzeppelin-contracts/contracts/access/AccessControl.sol\":2475:2479  role */\n      dup2\n        /* \"lib/openzeppelin-contracts/contracts/access/AccessControl.sol\":2464:2474  _checkRole */\n      tag_77\n        /* \"lib/openzeppelin-contracts/contracts/access/AccessControl.sol\":2464:2480  _checkRole(role) */\n      jump\t// in\n    tag_148:\n        /* \"lib/openzeppelin-contracts/contracts/access/AccessControl.sol\":4747:4773  _revokeRole(role, account) */\n      tag_150\n        /* \"lib/openzeppelin-contracts/contracts/access/AccessControl.sol\":4759:4763  role */\n      dup4\n        /* \"lib/openzeppelin-contracts/contracts/access/AccessControl.sol\":4765:4772  account */\n      dup4\n        /* \"lib/openzeppelin-contracts/contracts/access/AccessControl.sol\":4747:4758  _revokeRole */\n      tag_86\n        /* \"lib/openzeppelin-contracts/contracts/access/AccessControl.sol\":4747:4773  _revokeRole(role, account) */\n      jump\t// in\n    tag_150:\n      pop\n        /* \"lib/openzeppelin-contracts/contracts/access/AccessControl.sol\":4642:4780  function revokeRole(bytes32 role, address account) public virtual onlyRole(getRoleAdmin(role)) {... */\n      pop\n      pop\n      pop\n      jump\t// out\n        /* \"src/LiquidityPoolManager.sol\":824:1063  function approveTokens(address tokenA, address tokenB, uint256 amountA, uint256 amountB) external {... */\n    tag_68:\n        /* \"src/LiquidityPoolManager.sol\":939:945  tokenA */\n      dup4\n        /* \"src/LiquidityPoolManager.sol\":932:954  IERC20(tokenA).approve */\n      0xffffffffffffffffffffffffffffffffffffffff\n      and\n      0x095ea7b3\n        /* \"src/LiquidityPoolManager.sol\":963:978  positionManager */\n      0x01\n      0x00\n      swap1\n      sload\n      swap1\n      0x0100\n      exp\n      swap1\n      div\n      0xffffffffffffffffffffffffffffffffffffffff\n      and\n        /* \"src/LiquidityPoolManager.sol\":981:988  amountA */\n      dup5\n        /* \"src/LiquidityPoolManager.sol\":932:989  IERC20(tokenA).approve(address(positionManager), amountA) */\n      mload(0x40)\n      dup4\n      0xffffffff\n      and\n      0xe0\n      shl\n      dup2\n      mstore\n      0x04\n      add\n      tag_152\n      swap3\n      swap2\n      swap1\n      tag_135\n      jump\t// in\n    tag_152:\n      0x20\n      mload(0x40)\n      dup1\n      dup4\n      sub\n      dup2\n      0x00\n      dup8\n      gas\n      call\n      iszero\n      dup1\n      iszero\n      tag_154\n      jumpi\n      returndatasize\n      0x00\n      dup1\n      returndatacopy\n      revert(0x00, returndatasize)\n    tag_154:\n      pop\n      pop\n      pop\n      pop\n      mload(0x40)\n      returndatasize\n      not(0x1f)\n      0x1f\n      dup3\n      add\n      and\n      dup3\n      add\n      dup1\n      0x40\n      mstore\n      pop\n      dup2\n      add\n      swap1\n      tag_155\n      swap2\n      swap1\n      tag_139\n      jump\t// in\n    tag_155:\n      pop\n        /* \"src/LiquidityPoolManager.sol\":1006:1012  tokenB */\n      dup3\n        /* \"src/LiquidityPoolManager.sol\":999:1021  IERC20(tokenB).approve */\n      0xffffffffffffffffffffffffffffffffffffffff\n      and\n      0x095ea7b3\n        /* \"src/LiquidityPoolManager.sol\":1030:1045  positionManager */\n      0x01\n      0x00\n      swap1\n      sload\n      swap1\n      0x0100\n      exp\n      swap1\n      div\n      0xffffffffffffffffffffffffffffffffffffffff\n      and\n        /* \"src/LiquidityPoolManager.sol\":1048:1055  amountB */\n      dup4\n        /* \"src/LiquidityPoolManager.sol\":999:1056  IERC20(tokenB).approve(address(positionManager), amountB) */\n      mload(0x40)\n      dup4\n      0xffffffff\n      and\n      0xe0\n      shl\n      dup2\n      mstore\n      0x04\n      add\n      tag_156\n      swap3\n      swap2\n      swap1\n      tag_135\n      jump\t// in\n    tag_156:\n      0x20\n      mload(0x40)\n      dup1\n      dup4\n      sub\n      dup2\n      0x00\n      dup8\n      gas\n      call\n      iszero\n      dup1\n      iszero\n      tag_158\n      jumpi\n      returndatasize\n      0x00\n      dup1\n      returndatacopy\n      revert(0x00, returndatasize)\n    tag_158:\n      pop\n      pop\n      pop\n      pop\n      mload(0x40)\n      returndatasize\n      not(0x1f)\n      0x1f\n      dup3\n      add\n      and\n      dup3\n      add\n      dup1\n      0x40\n      mstore\n      pop\n      dup2\n      add\n      swap1\n      tag_159\n      swap2\n      swap1\n      tag_139\n      jump\t// in\n    tag_159:\n      pop\n        /* \"src/LiquidityPoolManager.sol\":824:1063  function approveTokens(address tokenA, address tokenB, uint256 amountA, uint256 amountB) external {... */\n      pop\n      pop\n      pop\n      pop\n      jump\t// out\n        /* \"lib/openzeppelin-contracts/contracts/utils/introspection/ERC165.sol\":763:909  function supportsInterface(bytes4 interfaceId) public view virtual returns (bool) {... */\n    tag_72:\n        /* \"lib/openzeppelin-contracts/contracts/utils/introspection/ERC165.sol\":839:843  bool */\n      0x00\n        /* \"lib/openzeppelin-contracts/contracts/utils/introspection/ERC165.sol\":877:902  type(IERC165).interfaceId */\n      0x01ffc9a700000000000000000000000000000000000000000000000000000000\n        /* \"lib/openzeppelin-contracts/contracts/utils/introspection/ERC165.sol\":862:902  interfaceId == type(IERC165).interfaceId */\n      not(0xffffffffffffffffffffffffffffffffffffffffffffffffffffffff)\n      and\n        /* \"lib/openzeppelin-contracts/contracts/utils/introspection/ERC165.sol\":862:873  interfaceId */\n      dup3\n        /* \"lib/openzeppelin-contracts/contracts/utils/introspection/ERC165.sol\":862:902  interfaceId == type(IERC165).interfaceId */\n      not(0xffffffffffffffffffffffffffffffffffffffffffffffffffffffff)\n      and\n      eq\n        /* \"lib/openzeppelin-contracts/contracts/utils/introspection/ERC165.sol\":855:902  return interfaceId == type(IERC165).interfaceId */\n      swap1\n      pop\n        /* \"lib/openzeppelin-contracts/contracts/utils/introspection/ERC165.sol\":763:909  function supportsInterface(bytes4 interfaceId) public view virtual returns (bool) {... */\n      swap2\n      swap1\n      pop\n      jump\t// out\n        /* \"lib/openzeppelin-contracts/contracts/access/AccessControl.sol\":3199:3302  function _checkRole(bytes32 role) internal view virtual {... */\n    tag_77:\n        /* \"lib/openzeppelin-contracts/contracts/access/AccessControl.sol\":3265:3295  _checkRole(role, _msgSender()) */\n      tag_162\n        /* \"lib/openzeppelin-contracts/contracts/access/AccessControl.sol\":3276:3280  role */\n      dup2\n        /* \"lib/openzeppelin-contracts/contracts/access/AccessControl.sol\":3282:3294  _msgSender() */\n      tag_163\n        /* \"lib/openzeppelin-contracts/contracts/access/AccessControl.sol\":3282:3292  _msgSender */\n      tag_83\n        /* \"lib/openzeppelin-contracts/contracts/access/AccessControl.sol\":3282:3294  _msgSender() */\n      jump\t// in\n    tag_163:\n        /* \"lib/openzeppelin-contracts/contracts/access/AccessControl.sol\":3265:3275  _checkRole */\n      tag_164\n        /* \"lib/openzeppelin-contracts/contracts/access/AccessControl.sol\":3265:3295  _checkRole(role, _msgSender()) */\n      jump\t// in\n    tag_162:\n        /* \"lib/openzeppelin-contracts/contracts/access/AccessControl.sol\":3199:3302  function _checkRole(bytes32 role) internal view virtual {... */\n      pop\n      jump\t// out\n        /* \"lib/openzeppelin-contracts/contracts/access/AccessControl.sol\":6179:6495  function _grantRole(bytes32 role, address account) internal virtual returns (bool) {... */\n    tag_80:\n        /* \"lib/openzeppelin-contracts/contracts/access/AccessControl.sol\":6256:6260  bool */\n      0x00\n        /* \"lib/openzeppelin-contracts/contracts/access/AccessControl.sol\":6277:6299  hasRole(role, account) */\n      tag_166\n        /* \"lib/openzeppelin-contracts/contracts/access/AccessControl.sol\":6285:6289  role */\n      dup4\n        /* \"lib/openzeppelin-contracts/contracts/access/AccessControl.sol\":6291:6298  account */\n      dup4\n        /* \"lib/openzeppelin-contracts/contracts/access/AccessControl.sol\":6277:6284  hasRole */\n      tag_47\n        /* \"lib/openzeppelin-contracts/contracts/access/AccessControl.sol\":6277:6299  hasRole(role, account) */\n      jump\t// in\n    tag_166:\n        /* \"lib/openzeppelin-contracts/contracts/access/AccessControl.sol\":6272:6489  if (!hasRole(role, account)) {... */\n      tag_167\n      jumpi\n        /* \"lib/openzeppelin-contracts/contracts/access/AccessControl.sol\":6347:6351  true */\n      0x01\n        /* \"lib/openzeppelin-contracts/contracts/access/AccessControl.sol\":6315:6321  _roles */\n      0x00\n        /* \"lib/openzeppelin-contracts/contracts/access/AccessControl.sol\":6315:6327  _roles[role] */\n      dup1\n        /* \"lib/openzeppelin-contracts/contracts/access/AccessControl.sol\":6322:6326  role */\n      dup6\n        /* \"lib/openzeppelin-contracts/contracts/access/AccessControl.sol\":6315:6327  _roles[role] */\n      dup2\n      mstore\n      0x20\n      add\n      swap1\n      dup2\n      mstore\n      0x20\n      add\n      0x00\n      keccak256\n        /* \"lib/openzeppelin-contracts/contracts/access/AccessControl.sol\":6315:6335  _roles[role].hasRole */\n      0x00\n      add\n        /* \"lib/openzeppelin-contracts/contracts/access/AccessControl.sol\":6315:6344  _roles[role].hasRole[account] */\n      0x00\n        /* \"lib/openzeppelin-contracts/contracts/access/AccessControl.sol\":6336:6343  account */\n      dup5\n        /* \"lib/openzeppelin-contracts/contracts/access/AccessControl.sol\":6315:6344  _roles[role].hasRole[account] */\n      0xffffffffffffffffffffffffffffffffffffffff\n      and\n      0xffffffffffffffffffffffffffffffffffffffff\n      and\n      dup2\n      mstore\n      0x20\n      add\n      swap1\n      dup2\n      mstore\n      0x20\n      add\n      0x00\n      keccak256\n      0x00\n        /* \"lib/openzeppelin-contracts/contracts/access/AccessControl.sol\":6315:6351  _roles[role].hasRole[account] = true */\n      0x0100\n      exp\n      dup2\n      sload\n      dup2\n      0xff\n      mul\n      not\n      and\n      swap1\n      dup4\n      iszero\n      iszero\n      mul\n      or\n      swap1\n      sstore\n      pop\n        /* \"lib/openzeppelin-contracts/contracts/access/AccessControl.sol\":6397:6409  _msgSender() */\n      tag_168\n        /* \"lib/openzeppelin-contracts/contracts/access/AccessControl.sol\":6397:6407  _msgSender */\n      tag_83\n        /* \"lib/openzeppelin-contracts/contracts/access/AccessControl.sol\":6397:6409  _msgSender() */\n      jump\t// in\n    tag_168:\n        /* \"lib/openzeppelin-contracts/contracts/access/AccessControl.sol\":6370:6410  RoleGranted(role, account, _msgSender()) */\n      0xffffffffffffffffffffffffffffffffffffffff\n      and\n        /* \"lib/openzeppelin-contracts/contracts/access/AccessControl.sol\":6388:6395  account */\n      dup3\n        /* \"lib/openzeppelin-contracts/contracts/access/AccessControl.sol\":6370:6410  RoleGranted(role, account, _msgSender()) */\n      0xffffffffffffffffffffffffffffffffffffffff\n      and\n        /* \"lib/openzeppelin-contracts/contracts/access/AccessControl.sol\":6382:6386  role */\n      dup5\n        /* \"lib/openzeppelin-contracts/contracts/access/AccessControl.sol\":6370:6410  RoleGranted(role, account, _msgSender()) */\n      0x2f8788117e7eff1d82e926ec794901d17c78024a50270940304540a733656f0d\n      mload(0x40)\n      mload(0x40)\n      dup1\n      swap2\n      sub\n      swap1\n      log4\n        /* \"lib/openzeppelin-contracts/contracts/access/AccessControl.sol\":6431:6435  true */\n      0x01\n        /* \"lib/openzeppelin-contracts/contracts/access/AccessControl.sol\":6424:6435  return true */\n      swap1\n      pop\n      jump(tag_165)\n        /* \"lib/openzeppelin-contracts/contracts/access/AccessControl.sol\":6272:6489  if (!hasRole(role, account)) {... */\n    tag_167:\n        /* \"lib/openzeppelin-contracts/contracts/access/AccessControl.sol\":6473:6478  false */\n      0x00\n        /* \"lib/openzeppelin-contracts/contracts/access/AccessControl.sol\":6466:6478  return false */\n      swap1\n      pop\n        /* \"lib/openzeppelin-contracts/contracts/access/AccessControl.sol\":6179:6495  function _grantRole(bytes32 role, address account) internal virtual returns (bool) {... */\n    tag_165:\n      swap3\n      swap2\n      pop\n      pop\n      jump\t// out\n        /* \"lib/openzeppelin-contracts/contracts/utils/Context.sol\":656:752  function _msgSender() internal view virtual returns (address) {... */\n    tag_83:\n        /* \"lib/openzeppelin-contracts/contracts/utils/Context.sol\":709:716  address */\n      0x00\n        /* \"lib/openzeppelin-contracts/contracts/utils/Context.sol\":735:745  msg.sender */\n      caller\n        /* \"lib/openzeppelin-contracts/contracts/utils/Context.sol\":728:745  return msg.sender */\n      swap1\n      pop\n        /* \"lib/openzeppelin-contracts/contracts/utils/Context.sol\":656:752  function _msgSender() internal view virtual returns (address) {... */\n      swap1\n      jump\t// out\n        /* \"lib/openzeppelin-contracts/contracts/access/AccessControl.sol\":6730:7047  function _revokeRole(bytes32 role, address account) internal virtual returns (bool) {... */\n    tag_86:\n        /* \"lib/openzeppelin-contracts/contracts/access/AccessControl.sol\":6808:6812  bool */\n      0x00\n        /* \"lib/openzeppelin-contracts/contracts/access/AccessControl.sol\":6828:6850  hasRole(role, account) */\n      tag_172\n        /* \"lib/openzeppelin-contracts/contracts/access/AccessControl.sol\":6836:6840  role */\n      dup4\n        /* \"lib/openzeppelin-contracts/contracts/access/AccessControl.sol\":6842:6849  account */\n      dup4\n        /* \"lib/openzeppelin-contracts/contracts/access/AccessControl.sol\":6828:6835  hasRole */\n      tag_47\n        /* \"lib/openzeppelin-contracts/contracts/access/AccessControl.sol\":6828:6850  hasRole(role, account) */\n      jump\t// in\n    tag_172:\n        /* \"lib/openzeppelin-contracts/contracts/access/AccessControl.sol\":6824:7041  if (hasRole(role, account)) {... */\n      iszero\n      tag_173\n      jumpi\n        /* \"lib/openzeppelin-contracts/contracts/access/AccessControl.sol\":6898:6903  false */\n      0x00\n        /* \"lib/openzeppelin-contracts/contracts/access/AccessControl.sol\":6866:6872  _roles */\n      dup1\n        /* \"lib/openzeppelin-contracts/contracts/access/AccessControl.sol\":6866:6878  _roles[role] */\n      0x00\n        /* \"lib/openzeppelin-contracts/contracts/access/AccessControl.sol\":6873:6877  role */\n      dup6\n        /* \"lib/openzeppelin-contracts/contracts/access/AccessControl.sol\":6866:6878  _roles[role] */\n      dup2\n      mstore\n      0x20\n      add\n      swap1\n      dup2\n      mstore\n      0x20\n      add\n      0x00\n      keccak256\n        /* \"lib/openzeppelin-contracts/contracts/access/AccessControl.sol\":6866:6886  _roles[role].hasRole */\n      0x00\n      add\n        /* \"lib/openzeppelin-contracts/contracts/access/AccessControl.sol\":6866:6895  _roles[role].hasRole[account] */\n      0x00\n        /* \"lib/openzeppelin-contracts/contracts/access/AccessControl.sol\":6887:6894  account */\n      dup5\n        /* \"lib/openzeppelin-contracts/contracts/access/AccessControl.sol\":6866:6895  _roles[role].hasRole[account] */\n      0xffffffffffffffffffffffffffffffffffffffff\n      and\n      0xffffffffffffffffffffffffffffffffffffffff\n      and\n      dup2\n      mstore\n      0x20\n      add\n      swap1\n      dup2\n      mstore\n      0x20\n      add\n      0x00\n      keccak256\n      0x00\n        /* \"lib/openzeppelin-contracts/contracts/access/AccessControl.sol\":6866:6903  _roles[role].hasRole[account] = false */\n      0x0100\n      exp\n      dup2\n      sload\n      dup2\n      0xff\n      mul\n      not\n      and\n      swap1\n      dup4\n      iszero\n      iszero\n      mul\n      or\n      swap1\n      sstore\n      pop\n        /* \"lib/openzeppelin-contracts/contracts/access/AccessControl.sol\":6949:6961  _msgSender() */\n      tag_174\n        /* \"lib/openzeppelin-contracts/contracts/access/AccessControl.sol\":6949:6959  _msgSender */\n      tag_83\n        /* \"lib/openzeppelin-contracts/contracts/access/AccessControl.sol\":6949:6961  _msgSender() */\n      jump\t// in\n    tag_174:\n        /* \"lib/openzeppelin-contracts/contracts/access/AccessControl.sol\":6922:6962  RoleRevoked(role, account, _msgSender()) */\n      0xffffffffffffffffffffffffffffffffffffffff\n      and\n        /* \"lib/openzeppelin-contracts/contracts/access/AccessControl.sol\":6940:6947  account */\n      dup3\n        /* \"lib/openzeppelin-contracts/contracts/access/AccessControl.sol\":6922:6962  RoleRevoked(role, account, _msgSender()) */\n      0xffffffffffffffffffffffffffffffffffffffff\n      and\n        /* \"lib/openzeppelin-contracts/contracts/access/AccessControl.sol\":6934:6938  role */\n      dup5\n        /* \"lib/openzeppelin-contracts/contracts/access/AccessControl.sol\":6922:6962  RoleRevoked(role, account, _msgSender()) */\n      0xf6391f5c32d9c69d2a47ea670b442974b53935d1edc7fd64eb21e047a839171b\n      mload(0x40)\n      mload(0x40)\n      dup1\n      swap2\n      sub\n      swap1\n      log4\n        /* \"lib/openzeppelin-contracts/contracts/access/AccessControl.sol\":6983:6987  true */\n      0x01\n        /* \"lib/openzeppelin-contracts/contracts/access/AccessControl.sol\":6976:6987  return true */\n      swap1\n      pop\n      jump(tag_171)\n        /* \"lib/openzeppelin-contracts/contracts/access/AccessControl.sol\":6824:7041  if (hasRole(role, account)) {... */\n    tag_173:\n        /* \"lib/openzeppelin-contracts/contracts/access/AccessControl.sol\":7025:7030  false */\n      0x00\n        /* \"lib/openzeppelin-contracts/contracts/access/AccessControl.sol\":7018:7030  return false */\n      swap1\n      pop\n        /* \"lib/openzeppelin-contracts/contracts/access/AccessControl.sol\":6730:7047  function _revokeRole(bytes32 role, address account) internal virtual returns (bool) {... */\n    tag_171:\n      swap3\n      swap2\n      pop\n      pop\n      jump\t// out\n        /* \"lib/openzeppelin-contracts/contracts/access/AccessControl.sol\":3432:3629  function _checkRole(bytes32 role, address account) internal view virtual {... */\n    tag_164:\n        /* \"lib/openzeppelin-contracts/contracts/access/AccessControl.sol\":3520:3542  hasRole(role, account) */\n      tag_177\n        /* \"lib/openzeppelin-contracts/contracts/access/AccessControl.sol\":3528:3532  role */\n      dup3\n        /* \"lib/openzeppelin-contracts/contracts/access/AccessControl.sol\":3534:3541  account */\n      dup3\n        /* \"lib/openzeppelin-contracts/contracts/access/AccessControl.sol\":3520:3527  hasRole */\n      tag_47\n        /* \"lib/openzeppelin-contracts/contracts/access/AccessControl.sol\":3520:3542  hasRole(role, account) */\n      jump\t// in\n    tag_177:\n        /* \"lib/openzeppelin-contracts/contracts/access/AccessControl.sol\":3515:3623  if (!hasRole(role, account)) {... */\n      tag_178\n      jumpi\n        /* \"lib/openzeppelin-contracts/contracts/access/AccessControl.sol\":3598:3605  account */\n      dup1\n        /* \"lib/openzeppelin-contracts/contracts/access/AccessControl.sol\":3607:3611  role */\n      dup3\n        /* \"lib/openzeppelin-contracts/contracts/access/AccessControl.sol\":3565:3612  AccessControlUnauthorizedAccount(account, role) */\n      mload(0x40)\n      0xe2517d3f00000000000000000000000000000000000000000000000000000000\n      dup2\n      mstore\n      0x04\n      add\n      tag_179\n      swap3\n      swap2\n      swap1\n      tag_180\n      jump\t// in\n    tag_179:\n      mload(0x40)\n      dup1\n      swap2\n      sub\n      swap1\n      revert\n        /* \"lib/openzeppelin-contracts/contracts/access/AccessControl.sol\":3515:3623  if (!hasRole(role, account)) {... */\n    tag_178:\n        /* \"lib/openzeppelin-contracts/contracts/access/AccessControl.sol\":3432:3629  function _checkRole(bytes32 role, address account) internal view virtual {... */\n      pop\n      pop\n      jump\t// out\n        /* \"#utility.yul\":88:205   */\n    tag_182:\n        /* \"#utility.yul\":197:198   */\n      0x00\n        /* \"#utility.yul\":194:195   */\n      dup1\n        /* \"#utility.yul\":187:199   */\n      revert\n        /* \"#utility.yul\":334:483   */\n    tag_184:\n        /* \"#utility.yul\":370:377   */\n      0x00\n        /* \"#utility.yul\":410:476   */\n      0xffffffff00000000000000000000000000000000000000000000000000000000\n        /* \"#utility.yul\":403:408   */\n      dup3\n        /* \"#utility.yul\":399:477   */\n      and\n        /* \"#utility.yul\":388:477   */\n      swap1\n      pop\n        /* \"#utility.yul\":334:483   */\n      swap2\n      swap1\n      pop\n      jump\t// out\n        /* \"#utility.yul\":489:609   */\n    tag_185:\n        /* \"#utility.yul\":561:584   */\n      tag_246\n        /* \"#utility.yul\":578:583   */\n      dup2\n        /* \"#utility.yul\":561:584   */\n      tag_184\n      jump\t// in\n    tag_246:\n        /* \"#utility.yul\":554:559   */\n      dup2\n        /* \"#utility.yul\":551:585   */\n      eq\n        /* \"#utility.yul\":541:603   */\n      tag_247\n      jumpi\n        /* \"#utility.yul\":599:600   */\n      0x00\n        /* \"#utility.yul\":596:597   */\n      dup1\n        /* \"#utility.yul\":589:601   */\n      revert\n        /* \"#utility.yul\":541:603   */\n    tag_247:\n        /* \"#utility.yul\":489:609   */\n      pop\n      jump\t// out\n        /* \"#utility.yul\":615:752   */\n    tag_186:\n        /* \"#utility.yul\":660:665   */\n      0x00\n        /* \"#utility.yul\":698:704   */\n      dup2\n        /* \"#utility.yul\":685:705   */\n      calldataload\n        /* \"#utility.yul\":676:705   */\n      swap1\n      pop\n        /* \"#utility.yul\":714:746   */\n      tag_249\n        /* \"#utility.yul\":740:745   */\n      dup2\n        /* \"#utility.yul\":714:746   */\n      tag_185\n      jump\t// in\n    tag_249:\n        /* \"#utility.yul\":615:752   */\n      swap3\n      swap2\n      pop\n      pop\n      jump\t// out\n        /* \"#utility.yul\":758:1085   */\n    tag_18:\n        /* \"#utility.yul\":816:822   */\n      0x00\n        /* \"#utility.yul\":865:867   */\n      0x20\n        /* \"#utility.yul\":853:862   */\n      dup3\n        /* \"#utility.yul\":844:851   */\n      dup5\n        /* \"#utility.yul\":840:863   */\n      sub\n        /* \"#utility.yul\":836:868   */\n      slt\n        /* \"#utility.yul\":833:952   */\n      iszero\n      tag_251\n      jumpi\n        /* \"#utility.yul\":871:950   */\n      tag_252\n      tag_182\n      jump\t// in\n    tag_252:\n        /* \"#utility.yul\":833:952   */\n    tag_251:\n        /* \"#utility.yul\":991:992   */\n      0x00\n        /* \"#utility.yul\":1016:1068   */\n      tag_253\n        /* \"#utility.yul\":1060:1067   */\n      dup5\n        /* \"#utility.yul\":1051:1057   */\n      dup3\n        /* \"#utility.yul\":1040:1049   */\n      dup6\n        /* \"#utility.yul\":1036:1058   */\n      add\n        /* \"#utility.yul\":1016:1068   */\n      tag_186\n      jump\t// in\n    tag_253:\n        /* \"#utility.yul\":1006:1068   */\n      swap2\n      pop\n        /* \"#utility.yul\":962:1078   */\n      pop\n        /* \"#utility.yul\":758:1085   */\n      swap3\n      swap2\n      pop\n      pop\n      jump\t// out\n        /* \"#utility.yul\":1091:1181   */\n    tag_187:\n        /* \"#utility.yul\":1125:1132   */\n      0x00\n        /* \"#utility.yul\":1168:1173   */\n      dup2\n        /* \"#utility.yul\":1161:1174   */\n      iszero\n        /* \"#utility.yul\":1154:1175   */\n      iszero\n        /* \"#utility.yul\":1143:1175   */\n      swap1\n      pop\n        /* \"#utility.yul\":1091:1181   */\n      swap2\n      swap1\n      pop\n      jump\t// out\n        /* \"#utility.yul\":1187:1296   */\n    tag_188:\n        /* \"#utility.yul\":1268:1289   */\n      tag_256\n        /* \"#utility.yul\":1283:1288   */\n      dup2\n        /* \"#utility.yul\":1268:1289   */\n      tag_187\n      jump\t// in\n    tag_256:\n        /* \"#utility.yul\":1263:1266   */\n      dup3\n        /* \"#utility.yul\":1256:1290   */\n      mstore\n        /* \"#utility.yul\":1187:1296   */\n      pop\n      pop\n      jump\t// out\n        /* \"#utility.yul\":1302:1512   */\n    tag_21:\n        /* \"#utility.yul\":1389:1393   */\n      0x00\n        /* \"#utility.yul\":1427:1429   */\n      0x20\n        /* \"#utility.yul\":1416:1425   */\n      dup3\n        /* \"#utility.yul\":1412:1430   */\n      add\n        /* \"#utility.yul\":1404:1430   */\n      swap1\n      pop\n        /* \"#utility.yul\":1440:1505   */\n      tag_258\n        /* \"#utility.yul\":1502:1503   */\n      0x00\n        /* \"#utility.yul\":1491:1500   */\n      dup4\n        /* \"#utility.yul\":1487:1504   */\n      add\n        /* \"#utility.yul\":1478:1484   */\n      dup5\n        /* \"#utility.yul\":1440:1505   */\n      tag_188\n      jump\t// in\n    tag_258:\n        /* \"#utility.yul\":1302:1512   */\n      swap3\n      swap2\n      pop\n      pop\n      jump\t// out\n        /* \"#utility.yul\":1518:1595   */\n    tag_189:\n        /* \"#utility.yul\":1555:1562   */\n      0x00\n        /* \"#utility.yul\":1584:1589   */\n      dup2\n        /* \"#utility.yul\":1573:1589   */\n      swap1\n      pop\n        /* \"#utility.yul\":1518:1595   */\n      swap2\n      swap1\n      pop\n      jump\t// out\n        /* \"#utility.yul\":1601:1723   */\n    tag_190:\n        /* \"#utility.yul\":1674:1698   */\n      tag_261\n        /* \"#utility.yul\":1692:1697   */\n      dup2\n        /* \"#utility.yul\":1674:1698   */\n      tag_189\n      jump\t// in\n    tag_261:\n        /* \"#utility.yul\":1667:1672   */\n      dup2\n        /* \"#utility.yul\":1664:1699   */\n      eq\n        /* \"#utility.yul\":1654:1717   */\n      tag_262\n      jumpi\n        /* \"#utility.yul\":1713:1714   */\n      0x00\n        /* \"#utility.yul\":1710:1711   */\n      dup1\n        /* \"#utility.yul\":1703:1715   */\n      revert\n        /* \"#utility.yul\":1654:1717   */\n    tag_262:\n        /* \"#utility.yul\":1601:1723   */\n      pop\n      jump\t// out\n        /* \"#utility.yul\":1729:1868   */\n    tag_191:\n        /* \"#utility.yul\":1775:1780   */\n      0x00\n        /* \"#utility.yul\":1813:1819   */\n      dup2\n        /* \"#utility.yul\":1800:1820   */\n      calldataload\n        /* \"#utility.yul\":1791:1820   */\n      swap1\n      pop\n        /* \"#utility.yul\":1829:1862   */\n      tag_264\n        /* \"#utility.yul\":1856:1861   */\n      dup2\n        /* \"#utility.yul\":1829:1862   */\n      tag_190\n      jump\t// in\n    tag_264:\n        /* \"#utility.yul\":1729:1868   */\n      swap3\n      swap2\n      pop\n      pop\n      jump\t// out\n        /* \"#utility.yul\":1874:2203   */\n    tag_24:\n        /* \"#utility.yul\":1933:1939   */\n      0x00\n        /* \"#utility.yul\":1982:1984   */\n      0x20\n        /* \"#utility.yul\":1970:1979   */\n      dup3\n        /* \"#utility.yul\":1961:1968   */\n      dup5\n        /* \"#utility.yul\":1957:1980   */\n      sub\n        /* \"#utility.yul\":1953:1985   */\n      slt\n        /* \"#utility.yul\":1950:2069   */\n      iszero\n      tag_266\n      jumpi\n        /* \"#utility.yul\":1988:2067   */\n      tag_267\n      tag_182\n      jump\t// in\n    tag_267:\n        /* \"#utility.yul\":1950:2069   */\n    tag_266:\n        /* \"#utility.yul\":2108:2109   */\n      0x00\n        /* \"#utility.yul\":2133:2186   */\n      tag_268\n        /* \"#utility.yul\":2178:2185   */\n      dup5\n        /* \"#utility.yul\":2169:2175   */\n      dup3\n        /* \"#utility.yul\":2158:2167   */\n      dup6\n        /* \"#utility.yul\":2154:2176   */\n      add\n        /* \"#utility.yul\":2133:2186   */\n      tag_191\n      jump\t// in\n    tag_268:\n        /* \"#utility.yul\":2123:2186   */\n      swap2\n      pop\n        /* \"#utility.yul\":2079:2196   */\n      pop\n        /* \"#utility.yul\":1874:2203   */\n      swap3\n      swap2\n      pop\n      pop\n      jump\t// out\n        /* \"#utility.yul\":2209:2327   */\n    tag_192:\n        /* \"#utility.yul\":2296:2320   */\n      tag_270\n        /* \"#utility.yul\":2314:2319   */\n      dup2\n        /* \"#utility.yul\":2296:2320   */\n      tag_189\n      jump\t// in\n    tag_270:\n        /* \"#utility.yul\":2291:2294   */\n      dup3\n        /* \"#utility.yul\":2284:2321   */\n      mstore\n        /* \"#utility.yul\":2209:2327   */\n      pop\n      pop\n      jump\t// out\n        /* \"#utility.yul\":2333:2555   */\n    tag_27:\n        /* \"#utility.yul\":2426:2430   */\n      0x00\n        /* \"#utility.yul\":2464:2466   */\n      0x20\n        /* \"#utility.yul\":2453:2462   */\n      dup3\n        /* \"#utility.yul\":2449:2467   */\n      add\n        /* \"#utility.yul\":2441:2467   */\n      swap1\n      pop\n        /* \"#utility.yul\":2477:2548   */\n      tag_272\n        /* \"#utility.yul\":2545:2546   */\n      0x00\n        /* \"#utility.yul\":2534:2543   */\n      dup4\n        /* \"#utility.yul\":2530:2547   */\n      add\n        /* \"#utility.yul\":2521:2527   */\n      dup5\n        /* \"#utility.yul\":2477:2548   */\n      tag_192\n      jump\t// in\n    tag_272:\n        /* \"#utility.yul\":2333:2555   */\n      swap3\n      swap2\n      pop\n      pop\n      jump\t// out\n        /* \"#utility.yul\":2561:2687   */\n    tag_193:\n        /* \"#utility.yul\":2598:2605   */\n      0x00\n        /* \"#utility.yul\":2638:2680   */\n      0xffffffffffffffffffffffffffffffffffffffff\n        /* \"#utility.yul\":2631:2636   */\n      dup3\n        /* \"#utility.yul\":2627:2681   */\n      and\n        /* \"#utility.yul\":2616:2681   */\n      swap1\n      pop\n        /* \"#utility.yul\":2561:2687   */\n      swap2\n      swap1\n      pop\n      jump\t// out\n        /* \"#utility.yul\":2693:2789   */\n    tag_194:\n        /* \"#utility.yul\":2730:2737   */\n      0x00\n        /* \"#utility.yul\":2759:2783   */\n      tag_275\n        /* \"#utility.yul\":2777:2782   */\n      dup3\n        /* \"#utility.yul\":2759:2783   */\n      tag_193\n      jump\t// in\n    tag_275:\n        /* \"#utility.yul\":2748:2783   */\n      swap1\n      pop\n        /* \"#utility.yul\":2693:2789   */\n      swap2\n      swap1\n      pop\n      jump\t// out\n        /* \"#utility.yul\":2795:2917   */\n    tag_195:\n        /* \"#utility.yul\":2868:2892   */\n      tag_277\n        /* \"#utility.yul\":2886:2891   */\n      dup2\n        /* \"#utility.yul\":2868:2892   */\n      tag_194\n      jump\t// in\n    tag_277:\n        /* \"#utility.yul\":2861:2866   */\n      dup2\n        /* \"#utility.yul\":2858:2893   */\n      eq\n        /* \"#utility.yul\":2848:2911   */\n      tag_278\n      jumpi\n        /* \"#utility.yul\":2907:2908   */\n      0x00\n        /* \"#utility.yul\":2904:2905   */\n      dup1\n        /* \"#utility.yul\":2897:2909   */\n      revert\n        /* \"#utility.yul\":2848:2911   */\n    tag_278:\n        /* \"#utility.yul\":2795:2917   */\n      pop\n      jump\t// out\n        /* \"#utility.yul\":2923:3062   */\n    tag_196:\n        /* \"#utility.yul\":2969:2974   */\n      0x00\n        /* \"#utility.yul\":3007:3013   */\n      dup2\n        /* \"#utility.yul\":2994:3014   */\n      calldataload\n        /* \"#utility.yul\":2985:3014   */\n      swap1\n      pop\n        /* \"#utility.yul\":3023:3056   */\n      tag_280\n        /* \"#utility.yul\":3050:3055   */\n      dup2\n        /* \"#utility.yul\":3023:3056   */\n      tag_195\n      jump\t// in\n    tag_280:\n        /* \"#utility.yul\":2923:3062   */\n      swap3\n      swap2\n      pop\n      pop\n      jump\t// out\n        /* \"#utility.yul\":3068:3542   */\n    tag_30:\n        /* \"#utility.yul\":3136:3142   */\n      0x00\n        /* \"#utility.yul\":3144:3150   */\n      dup1\n        /* \"#utility.yul\":3193:3195   */\n      0x40\n        /* \"#utility.yul\":3181:3190   */\n      dup4\n        /* \"#utility.yul\":3172:3179   */\n      dup6\n        /* \"#utility.yul\":3168:3191   */\n      sub\n        /* \"#utility.yul\":3164:3196   */\n      slt\n        /* \"#utility.yul\":3161:3280   */\n      iszero\n      tag_282\n      jumpi\n        /* \"#utility.yul\":3199:3278   */\n      tag_283\n      tag_182\n      jump\t// in\n    tag_283:\n        /* \"#utility.yul\":3161:3280   */\n    tag_282:\n        /* \"#utility.yul\":3319:3320   */\n      0x00\n        /* \"#utility.yul\":3344:3397   */\n      tag_284\n        /* \"#utility.yul\":3389:3396   */\n      dup6\n        /* \"#utility.yul\":3380:3386   */\n      dup3\n        /* \"#utility.yul\":3369:3378   */\n      dup7\n        /* \"#utility.yul\":3365:3387   */\n      add\n        /* \"#utility.yul\":3344:3397   */\n      tag_191\n      jump\t// in\n    tag_284:\n        /* \"#utility.yul\":3334:3397   */\n      swap3\n      pop\n        /* \"#utility.yul\":3290:3407   */\n      pop\n        /* \"#utility.yul\":3446:3448   */\n      0x20\n        /* \"#utility.yul\":3472:3525   */\n      tag_285\n        /* \"#utility.yul\":3517:3524   */\n      dup6\n        /* \"#utility.yul\":3508:3514   */\n      dup3\n        /* \"#utility.yul\":3497:3506   */\n      dup7\n        /* \"#utility.yul\":3493:3515   */\n      add\n        /* \"#utility.yul\":3472:3525   */\n      tag_196\n      jump\t// in\n    tag_285:\n        /* \"#utility.yul\":3462:3525   */\n      swap2\n      pop\n        /* \"#utility.yul\":3417:3535   */\n      pop\n        /* \"#utility.yul\":3068:3542   */\n      swap3\n      pop\n      swap3\n      swap1\n      pop\n      jump\t// out\n        /* \"#utility.yul\":3548:3608   */\n    tag_197:\n        /* \"#utility.yul\":3576:3579   */\n      0x00\n        /* \"#utility.yul\":3597:3602   */\n      dup2\n        /* \"#utility.yul\":3590:3602   */\n      swap1\n      pop\n        /* \"#utility.yul\":3548:3608   */\n      swap2\n      swap1\n      pop\n      jump\t// out\n        /* \"#utility.yul\":3614:3756   */\n    tag_198:\n        /* \"#utility.yul\":3664:3673   */\n      0x00\n        /* \"#utility.yul\":3697:3750   */\n      tag_288\n        /* \"#utility.yul\":3715:3749   */\n      tag_289\n        /* \"#utility.yul\":3724:3748   */\n      tag_290\n        /* \"#utility.yul\":3742:3747   */\n      dup5\n        /* \"#utility.yul\":3724:3748   */\n      tag_193\n      jump\t// in\n    tag_290:\n        /* \"#utility.yul\":3715:3749   */\n      tag_197\n      jump\t// in\n    tag_289:\n        /* \"#utility.yul\":3697:3750   */\n      tag_193\n      jump\t// in\n    tag_288:\n        /* \"#utility.yul\":3684:3750   */\n      swap1\n      pop\n        /* \"#utility.yul\":3614:3756   */\n      swap2\n      swap1\n      pop\n      jump\t// out\n        /* \"#utility.yul\":3762:3888   */\n    tag_199:\n        /* \"#utility.yul\":3812:3821   */\n      0x00\n        /* \"#utility.yul\":3845:3882   */\n      tag_292\n        /* \"#utility.yul\":3876:3881   */\n      dup3\n        /* \"#utility.yul\":3845:3882   */\n      tag_198\n      jump\t// in\n    tag_292:\n        /* \"#utility.yul\":3832:3882   */\n      swap1\n      pop\n        /* \"#utility.yul\":3762:3888   */\n      swap2\n      swap1\n      pop\n      jump\t// out\n        /* \"#utility.yul\":3894:4056   */\n    tag_200:\n        /* \"#utility.yul\":3980:3989   */\n      0x00\n        /* \"#utility.yul\":4013:4050   */\n      tag_294\n        /* \"#utility.yul\":4044:4049   */\n      dup3\n        /* \"#utility.yul\":4013:4050   */\n      tag_199\n      jump\t// in\n    tag_294:\n        /* \"#utility.yul\":4000:4050   */\n      swap1\n      pop\n        /* \"#utility.yul\":3894:4056   */\n      swap2\n      swap1\n      pop\n      jump\t// out\n        /* \"#utility.yul\":4062:4265   */\n    tag_201:\n        /* \"#utility.yul\":4185:4258   */\n      tag_296\n        /* \"#utility.yul\":4252:4257   */\n      dup2\n        /* \"#utility.yul\":4185:4258   */\n      tag_200\n      jump\t// in\n    tag_296:\n        /* \"#utility.yul\":4180:4183   */\n      dup3\n        /* \"#utility.yul\":4173:4259   */\n      mstore\n        /* \"#utility.yul\":4062:4265   */\n      pop\n      pop\n      jump\t// out\n        /* \"#utility.yul\":4271:4565   */\n    tag_38:\n        /* \"#utility.yul\":4400:4404   */\n      0x00\n        /* \"#utility.yul\":4438:4440   */\n      0x20\n        /* \"#utility.yul\":4427:4436   */\n      dup3\n        /* \"#utility.yul\":4423:4441   */\n      add\n        /* \"#utility.yul\":4415:4441   */\n      swap1\n      pop\n        /* \"#utility.yul\":4451:4558   */\n      tag_298\n        /* \"#utility.yul\":4555:4556   */\n      0x00\n        /* \"#utility.yul\":4544:4553   */\n      dup4\n        /* \"#utility.yul\":4540:4557   */\n      add\n        /* \"#utility.yul\":4531:4537   */\n      dup5\n        /* \"#utility.yul\":4451:4558   */\n      tag_201\n      jump\t// in\n    tag_298:\n        /* \"#utility.yul\":4271:4565   */\n      swap3\n      swap2\n      pop\n      pop\n      jump\t// out\n        /* \"#utility.yul\":4571:4662   */\n    tag_202:\n        /* \"#utility.yul\":4607:4614   */\n      0x00\n        /* \"#utility.yul\":4647:4655   */\n      0xffffff\n        /* \"#utility.yul\":4640:4645   */\n      dup3\n        /* \"#utility.yul\":4636:4656   */\n      and\n        /* \"#utility.yul\":4625:4656   */\n      swap1\n      pop\n        /* \"#utility.yul\":4571:4662   */\n      swap2\n      swap1\n      pop\n      jump\t// out\n        /* \"#utility.yul\":4668:4788   */\n    tag_203:\n        /* \"#utility.yul\":4740:4763   */\n      tag_301\n        /* \"#utility.yul\":4757:4762   */\n      dup2\n        /* \"#utility.yul\":4740:4763   */\n      tag_202\n      jump\t// in\n    tag_301:\n        /* \"#utility.yul\":4733:4738   */\n      dup2\n        /* \"#utility.yul\":4730:4764   */\n      eq\n        /* \"#utility.yul\":4720:4782   */\n      tag_302\n      jumpi\n        /* \"#utility.yul\":4778:4779   */\n      0x00\n        /* \"#utility.yul\":4775:4776   */\n      dup1\n        /* \"#utility.yul\":4768:4780   */\n      revert\n        /* \"#utility.yul\":4720:4782   */\n    tag_302:\n        /* \"#utility.yul\":4668:4788   */\n      pop\n      jump\t// out\n        /* \"#utility.yul\":4794:4931   */\n    tag_204:\n        /* \"#utility.yul\":4839:4844   */\n      0x00\n        /* \"#utility.yul\":4877:4883   */\n      dup2\n        /* \"#utility.yul\":4864:4884   */\n      calldataload\n        /* \"#utility.yul\":4855:4884   */\n      swap1\n      pop\n        /* \"#utility.yul\":4893:4925   */\n      tag_304\n        /* \"#utility.yul\":4919:4924   */\n      dup2\n        /* \"#utility.yul\":4893:4925   */\n      tag_203\n      jump\t// in\n    tag_304:\n        /* \"#utility.yul\":4794:4931   */\n      swap3\n      swap2\n      pop\n      pop\n      jump\t// out\n        /* \"#utility.yul\":4937:5059   */\n    tag_205:\n        /* \"#utility.yul\":5010:5034   */\n      tag_306\n        /* \"#utility.yul\":5028:5033   */\n      dup2\n        /* \"#utility.yul\":5010:5034   */\n      tag_193\n      jump\t// in\n    tag_306:\n        /* \"#utility.yul\":5003:5008   */\n      dup2\n        /* \"#utility.yul\":5000:5035   */\n      eq\n        /* \"#utility.yul\":4990:5053   */\n      tag_307\n      jumpi\n        /* \"#utility.yul\":5049:5050   */\n      0x00\n        /* \"#utility.yul\":5046:5047   */\n      dup1\n        /* \"#utility.yul\":5039:5051   */\n      revert\n        /* \"#utility.yul\":4990:5053   */\n    tag_307:\n        /* \"#utility.yul\":4937:5059   */\n      pop\n      jump\t// out\n        /* \"#utility.yul\":5065:5204   */\n    tag_206:\n        /* \"#utility.yul\":5111:5116   */\n      0x00\n        /* \"#utility.yul\":5149:5155   */\n      dup2\n        /* \"#utility.yul\":5136:5156   */\n      calldataload\n        /* \"#utility.yul\":5127:5156   */\n      swap1\n      pop\n        /* \"#utility.yul\":5165:5198   */\n      tag_309\n        /* \"#utility.yul\":5192:5197   */\n      dup2\n        /* \"#utility.yul\":5165:5198   */\n      tag_205\n      jump\t// in\n    tag_309:\n        /* \"#utility.yul\":5065:5204   */\n      swap3\n      swap2\n      pop\n      pop\n      jump\t// out\n        /* \"#utility.yul\":5210:5973   */\n    tag_41:\n        /* \"#utility.yul\":5295:5301   */\n      0x00\n        /* \"#utility.yul\":5303:5309   */\n      dup1\n        /* \"#utility.yul\":5311:5317   */\n      0x00\n        /* \"#utility.yul\":5319:5325   */\n      dup1\n        /* \"#utility.yul\":5368:5371   */\n      0x80\n        /* \"#utility.yul\":5356:5365   */\n      dup6\n        /* \"#utility.yul\":5347:5354   */\n      dup8\n        /* \"#utility.yul\":5343:5366   */\n      sub\n        /* \"#utility.yul\":5339:5372   */\n      slt\n        /* \"#utility.yul\":5336:5456   */\n      iszero\n      tag_311\n      jumpi\n        /* \"#utility.yul\":5375:5454   */\n      tag_312\n      tag_182\n      jump\t// in\n    tag_312:\n        /* \"#utility.yul\":5336:5456   */\n    tag_311:\n        /* \"#utility.yul\":5495:5496   */\n      0x00\n        /* \"#utility.yul\":5520:5573   */\n      tag_313\n        /* \"#utility.yul\":5565:5572   */\n      dup8\n        /* \"#utility.yul\":5556:5562   */\n      dup3\n        /* \"#utility.yul\":5545:5554   */\n      dup9\n        /* \"#utility.yul\":5541:5563   */\n      add\n        /* \"#utility.yul\":5520:5573   */\n      tag_196\n      jump\t// in\n    tag_313:\n        /* \"#utility.yul\":5510:5573   */\n      swap5\n      pop\n        /* \"#utility.yul\":5466:5583   */\n      pop\n        /* \"#utility.yul\":5622:5624   */\n      0x20\n        /* \"#utility.yul\":5648:5701   */\n      tag_314\n        /* \"#utility.yul\":5693:5700   */\n      dup8\n        /* \"#utility.yul\":5684:5690   */\n      dup3\n        /* \"#utility.yul\":5673:5682   */\n      dup9\n        /* \"#utility.yul\":5669:5691   */\n      add\n        /* \"#utility.yul\":5648:5701   */\n      tag_196\n      jump\t// in\n    tag_314:\n        /* \"#utility.yul\":5638:5701   */\n      swap4\n      pop\n        /* \"#utility.yul\":5593:5711   */\n      pop\n        /* \"#utility.yul\":5750:5752   */\n      0x40\n        /* \"#utility.yul\":5776:5828   */\n      tag_315\n        /* \"#utility.yul\":5820:5827   */\n      dup8\n        /* \"#utility.yul\":5811:5817   */\n      dup3\n        /* \"#utility.yul\":5800:5809   */\n      dup9\n        /* \"#utility.yul\":5796:5818   */\n      add\n        /* \"#utility.yul\":5776:5828   */\n      tag_204\n      jump\t// in\n    tag_315:\n        /* \"#utility.yul\":5766:5828   */\n      swap3\n      pop\n        /* \"#utility.yul\":5721:5838   */\n      pop\n        /* \"#utility.yul\":5877:5879   */\n      0x60\n        /* \"#utility.yul\":5903:5956   */\n      tag_316\n        /* \"#utility.yul\":5948:5955   */\n      dup8\n        /* \"#utility.yul\":5939:5945   */\n      dup3\n        /* \"#utility.yul\":5928:5937   */\n      dup9\n        /* \"#utility.yul\":5924:5946   */\n      add\n        /* \"#utility.yul\":5903:5956   */\n      tag_206\n      jump\t// in\n    tag_316:\n        /* \"#utility.yul\":5893:5956   */\n      swap2\n      pop\n        /* \"#utility.yul\":5848:5966   */\n      pop\n        /* \"#utility.yul\":5210:5973   */\n      swap3\n      swap6\n      swap2\n      swap5\n      pop\n      swap3\n      pop\n      jump\t// out\n        /* \"#utility.yul\":5979:6097   */\n    tag_207:\n        /* \"#utility.yul\":6066:6090   */\n      tag_318\n        /* \"#utility.yul\":6084:6089   */\n      dup2\n        /* \"#utility.yul\":6066:6090   */\n      tag_194\n      jump\t// in\n    tag_318:\n        /* \"#utility.yul\":6061:6064   */\n      dup3\n        /* \"#utility.yul\":6054:6091   */\n      mstore\n        /* \"#utility.yul\":5979:6097   */\n      pop\n      pop\n      jump\t// out\n        /* \"#utility.yul\":6103:6325   */\n    tag_44:\n        /* \"#utility.yul\":6196:6200   */\n      0x00\n        /* \"#utility.yul\":6234:6236   */\n      0x20\n        /* \"#utility.yul\":6223:6232   */\n      dup3\n        /* \"#utility.yul\":6219:6237   */\n      add\n        /* \"#utility.yul\":6211:6237   */\n      swap1\n      pop\n        /* \"#utility.yul\":6247:6318   */\n      tag_320\n        /* \"#utility.yul\":6315:6316   */\n      0x00\n        /* \"#utility.yul\":6304:6313   */\n      dup4\n        /* \"#utility.yul\":6300:6317   */\n      add\n        /* \"#utility.yul\":6291:6297   */\n      dup5\n        /* \"#utility.yul\":6247:6318   */\n      tag_207\n      jump\t// in\n    tag_320:\n        /* \"#utility.yul\":6103:6325   */\n      swap3\n      swap2\n      pop\n      pop\n      jump\t// out\n        /* \"#utility.yul\":6331:6408   */\n    tag_208:\n        /* \"#utility.yul\":6368:6375   */\n      0x00\n        /* \"#utility.yul\":6397:6402   */\n      dup2\n        /* \"#utility.yul\":6386:6402   */\n      swap1\n      pop\n        /* \"#utility.yul\":6331:6408   */\n      swap2\n      swap1\n      pop\n      jump\t// out\n        /* \"#utility.yul\":6414:6536   */\n    tag_209:\n        /* \"#utility.yul\":6487:6511   */\n      tag_323\n        /* \"#utility.yul\":6505:6510   */\n      dup2\n        /* \"#utility.yul\":6487:6511   */\n      tag_208\n      jump\t// in\n    tag_323:\n        /* \"#utility.yul\":6480:6485   */\n      dup2\n        /* \"#utility.yul\":6477:6512   */\n      eq\n        /* \"#utility.yul\":6467:6530   */\n      tag_324\n      jumpi\n        /* \"#utility.yul\":6526:6527   */\n      0x00\n        /* \"#utility.yul\":6523:6524   */\n      dup1\n        /* \"#utility.yul\":6516:6528   */\n      revert\n        /* \"#utility.yul\":6467:6530   */\n    tag_324:\n        /* \"#utility.yul\":6414:6536   */\n      pop\n      jump\t// out\n        /* \"#utility.yul\":6542:6681   */\n    tag_210:\n        /* \"#utility.yul\":6588:6593   */\n      0x00\n        /* \"#utility.yul\":6626:6632   */\n      dup2\n        /* \"#utility.yul\":6613:6633   */\n      calldataload\n        /* \"#utility.yul\":6604:6633   */\n      swap1\n      pop\n        /* \"#utility.yul\":6642:6675   */\n      tag_326\n        /* \"#utility.yul\":6669:6674   */\n      dup2\n        /* \"#utility.yul\":6642:6675   */\n      tag_209\n      jump\t// in\n    tag_326:\n        /* \"#utility.yul\":6542:6681   */\n      swap3\n      swap2\n      pop\n      pop\n      jump\t// out\n        /* \"#utility.yul\":6687:6777   */\n    tag_211:\n        /* \"#utility.yul\":6722:6729   */\n      0x00\n        /* \"#utility.yul\":6765:6770   */\n      dup2\n        /* \"#utility.yul\":6762:6763   */\n      0x02\n        /* \"#utility.yul\":6751:6771   */\n      signextend\n        /* \"#utility.yul\":6740:6771   */\n      swap1\n      pop\n        /* \"#utility.yul\":6687:6777   */\n      swap2\n      swap1\n      pop\n      jump\t// out\n        /* \"#utility.yul\":6783:6901   */\n    tag_212:\n        /* \"#utility.yul\":6854:6876   */\n      tag_329\n        /* \"#utility.yul\":6870:6875   */\n      dup2\n        /* \"#utility.yul\":6854:6876   */\n      tag_211\n      jump\t// in\n    tag_329:\n        /* \"#utility.yul\":6847:6852   */\n      dup2\n        /* \"#utility.yul\":6844:6877   */\n      eq\n        /* \"#utility.yul\":6834:6895   */\n      tag_330\n      jumpi\n        /* \"#utility.yul\":6891:6892   */\n      0x00\n        /* \"#utility.yul\":6888:6889   */\n      dup1\n        /* \"#utility.yul\":6881:6893   */\n      revert\n        /* \"#utility.yul\":6834:6895   */\n    tag_330:\n        /* \"#utility.yul\":6783:6901   */\n      pop\n      jump\t// out\n        /* \"#utility.yul\":6907:7042   */\n    tag_213:\n        /* \"#utility.yul\":6951:6956   */\n      0x00\n        /* \"#utility.yul\":6989:6995   */\n      dup2\n        /* \"#utility.yul\":6976:6996   */\n      calldataload\n        /* \"#utility.yul\":6967:6996   */\n      swap1\n      pop\n        /* \"#utility.yul\":7005:7036   */\n      tag_332\n        /* \"#utility.yul\":7030:7035   */\n      dup2\n        /* \"#utility.yul\":7005:7036   */\n      tag_212\n      jump\t// in\n    tag_332:\n        /* \"#utility.yul\":6907:7042   */\n      swap3\n      swap2\n      pop\n      pop\n      jump\t// out\n        /* \"#utility.yul\":7048:8241   */\n    tag_54:\n        /* \"#utility.yul\":7156:7162   */\n      0x00\n        /* \"#utility.yul\":7164:7170   */\n      dup1\n        /* \"#utility.yul\":7172:7178   */\n      0x00\n        /* \"#utility.yul\":7180:7186   */\n      dup1\n        /* \"#utility.yul\":7188:7194   */\n      0x00\n        /* \"#utility.yul\":7196:7202   */\n      dup1\n        /* \"#utility.yul\":7204:7210   */\n      0x00\n        /* \"#utility.yul\":7253:7256   */\n      0xe0\n        /* \"#utility.yul\":7241:7250   */\n      dup9\n        /* \"#utility.yul\":7232:7239   */\n      dup11\n        /* \"#utility.yul\":7228:7251   */\n      sub\n        /* \"#utility.yul\":7224:7257   */\n      slt\n        /* \"#utility.yul\":7221:7341   */\n      iszero\n      tag_334\n      jumpi\n        /* \"#utility.yul\":7260:7339   */\n      tag_335\n      tag_182\n      jump\t// in\n    tag_335:\n        /* \"#utility.yul\":7221:7341   */\n    tag_334:\n        /* \"#utility.yul\":7380:7381   */\n      0x00\n        /* \"#utility.yul\":7405:7458   */\n      tag_336\n        /* \"#utility.yul\":7450:7457   */\n      dup11\n        /* \"#utility.yul\":7441:7447   */\n      dup3\n        /* \"#utility.yul\":7430:7439   */\n      dup12\n        /* \"#utility.yul\":7426:7448   */\n      add\n        /* \"#utility.yul\":7405:7458   */\n      tag_196\n      jump\t// in\n    tag_336:\n        /* \"#utility.yul\":7395:7458   */\n      swap8\n      pop\n        /* \"#utility.yul\":7351:7468   */\n      pop\n        /* \"#utility.yul\":7507:7509   */\n      0x20\n        /* \"#utility.yul\":7533:7586   */\n      tag_337\n        /* \"#utility.yul\":7578:7585   */\n      dup11\n        /* \"#utility.yul\":7569:7575   */\n      dup3\n        /* \"#utility.yul\":7558:7567   */\n      dup12\n        /* \"#utility.yul\":7554:7576   */\n      add\n        /* \"#utility.yul\":7533:7586   */\n      tag_196\n      jump\t// in\n    tag_337:\n        /* \"#utility.yul\":7523:7586   */\n      swap7\n      pop\n        /* \"#utility.yul\":7478:7596   */\n      pop\n        /* \"#utility.yul\":7635:7637   */\n      0x40\n        /* \"#utility.yul\":7661:7713   */\n      tag_338\n        /* \"#utility.yul\":7705:7712   */\n      dup11\n        /* \"#utility.yul\":7696:7702   */\n      dup3\n        /* \"#utility.yul\":7685:7694   */\n      dup12\n        /* \"#utility.yul\":7681:7703   */\n      add\n        /* \"#utility.yul\":7661:7713   */\n      tag_204\n      jump\t// in\n    tag_338:\n        /* \"#utility.yul\":7651:7713   */\n      swap6\n      pop\n        /* \"#utility.yul\":7606:7723   */\n      pop\n        /* \"#utility.yul\":7762:7764   */\n      0x60\n        /* \"#utility.yul\":7788:7841   */\n      tag_339\n        /* \"#utility.yul\":7833:7840   */\n      dup11\n        /* \"#utility.yul\":7824:7830   */\n      dup3\n        /* \"#utility.yul\":7813:7822   */\n      dup12\n        /* \"#utility.yul\":7809:7831   */\n      add\n        /* \"#utility.yul\":7788:7841   */\n      tag_210\n      jump\t// in\n    tag_339:\n        /* \"#utility.yul\":7778:7841   */\n      swap5\n      pop\n        /* \"#utility.yul\":7733:7851   */\n      pop\n        /* \"#utility.yul\":7890:7893   */\n      0x80\n        /* \"#utility.yul\":7917:7970   */\n      tag_340\n        /* \"#utility.yul\":7962:7969   */\n      dup11\n        /* \"#utility.yul\":7953:7959   */\n      dup3\n        /* \"#utility.yul\":7942:7951   */\n      dup12\n        /* \"#utility.yul\":7938:7960   */\n      add\n        /* \"#utility.yul\":7917:7970   */\n      tag_210\n      jump\t// in\n    tag_340:\n        /* \"#utility.yul\":7907:7970   */\n      swap4\n      pop\n        /* \"#utility.yul\":7861:7980   */\n      pop\n        /* \"#utility.yul\":8019:8022   */\n      0xa0\n        /* \"#utility.yul\":8046:8097   */\n      tag_341\n        /* \"#utility.yul\":8089:8096   */\n      dup11\n        /* \"#utility.yul\":8080:8086   */\n      dup3\n        /* \"#utility.yul\":8069:8078   */\n      dup12\n        /* \"#utility.yul\":8065:8087   */\n      add\n        /* \"#utility.yul\":8046:8097   */\n      tag_213\n      jump\t// in\n    tag_341:\n        /* \"#utility.yul\":8036:8097   */\n      swap3\n      pop\n        /* \"#utility.yul\":7990:8107   */\n      pop\n        /* \"#utility.yul\":8146:8149   */\n      0xc0\n        /* \"#utility.yul\":8173:8224   */\n      tag_342\n        /* \"#utility.yul\":8216:8223   */\n      dup11\n        /* \"#utility.yul\":8207:8213   */\n      dup3\n        /* \"#utility.yul\":8196:8205   */\n      dup12\n        /* \"#utility.yul\":8192:8214   */\n      add\n        /* \"#utility.yul\":8173:8224   */\n      tag_213\n      jump\t// in\n    tag_342:\n        /* \"#utility.yul\":8163:8224   */\n      swap2\n      pop\n        /* \"#utility.yul\":8117:8234   */\n      pop\n        /* \"#utility.yul\":7048:8241   */\n      swap3\n      swap6\n      swap9\n      swap2\n      swap5\n      swap8\n      pop\n      swap3\n      swap6\n      pop\n      jump\t// out\n        /* \"#utility.yul\":8247:8365   */\n    tag_214:\n        /* \"#utility.yul\":8334:8358   */\n      tag_344\n        /* \"#utility.yul\":8352:8357   */\n      dup2\n        /* \"#utility.yul\":8334:8358   */\n      tag_208\n      jump\t// in\n    tag_344:\n        /* \"#utility.yul\":8329:8332   */\n      dup3\n        /* \"#utility.yul\":8322:8359   */\n      mstore\n        /* \"#utility.yul\":8247:8365   */\n      pop\n      pop\n      jump\t// out\n        /* \"#utility.yul\":8371:8489   */\n    tag_215:\n        /* \"#utility.yul\":8408:8415   */\n      0x00\n        /* \"#utility.yul\":8448:8482   */\n      0xffffffffffffffffffffffffffffffff\n        /* \"#utility.yul\":8441:8446   */\n      dup3\n        /* \"#utility.yul\":8437:8483   */\n      and\n        /* \"#utility.yul\":8426:8483   */\n      swap1\n      pop\n        /* \"#utility.yul\":8371:8489   */\n      swap2\n      swap1\n      pop\n      jump\t// out\n        /* \"#utility.yul\":8495:8613   */\n    tag_216:\n        /* \"#utility.yul\":8582:8606   */\n      tag_347\n        /* \"#utility.yul\":8600:8605   */\n      dup2\n        /* \"#utility.yul\":8582:8606   */\n      tag_215\n      jump\t// in\n    tag_347:\n        /* \"#utility.yul\":8577:8580   */\n      dup3\n        /* \"#utility.yul\":8570:8607   */\n      mstore\n        /* \"#utility.yul\":8495:8613   */\n      pop\n      pop\n      jump\t// out\n        /* \"#utility.yul\":8619:9172   */\n    tag_57:\n        /* \"#utility.yul\":8796:8800   */\n      0x00\n        /* \"#utility.yul\":8834:8837   */\n      0x80\n        /* \"#utility.yul\":8823:8832   */\n      dup3\n        /* \"#utility.yul\":8819:8838   */\n      add\n        /* \"#utility.yul\":8811:8838   */\n      swap1\n      pop\n        /* \"#utility.yul\":8848:8919   */\n      tag_349\n        /* \"#utility.yul\":8916:8917   */\n      0x00\n        /* \"#utility.yul\":8905:8914   */\n      dup4\n        /* \"#utility.yul\":8901:8918   */\n      add\n        /* \"#utility.yul\":8892:8898   */\n      dup8\n        /* \"#utility.yul\":8848:8919   */\n      tag_214\n      jump\t// in\n    tag_349:\n        /* \"#utility.yul\":8929:9001   */\n      tag_350\n        /* \"#utility.yul\":8997:8999   */\n      0x20\n        /* \"#utility.yul\":8986:8995   */\n      dup4\n        /* \"#utility.yul\":8982:9000   */\n      add\n        /* \"#utility.yul\":8973:8979   */\n      dup7\n        /* \"#utility.yul\":8929:9001   */\n      tag_216\n      jump\t// in\n    tag_350:\n        /* \"#utility.yul\":9011:9083   */\n      tag_351\n        /* \"#utility.yul\":9079:9081   */\n      0x40\n        /* \"#utility.yul\":9068:9077   */\n      dup4\n        /* \"#utility.yul\":9064:9082   */\n      add\n        /* \"#utility.yul\":9055:9061   */\n      dup6\n        /* \"#utility.yul\":9011:9083   */\n      tag_214\n      jump\t// in\n    tag_351:\n        /* \"#utility.yul\":9093:9165   */\n      tag_352\n        /* \"#utility.yul\":9161:9163   */\n      0x60\n        /* \"#utility.yul\":9150:9159   */\n      dup4\n        /* \"#utility.yul\":9146:9164   */\n      add\n        /* \"#utility.yul\":9137:9143   */\n      dup5\n        /* \"#utility.yul\":9093:9165   */\n      tag_214\n      jump\t// in\n    tag_352:\n        /* \"#utility.yul\":8619:9172   */\n      swap6\n      swap5\n      pop\n      pop\n      pop\n      pop\n      pop\n      jump\t// out\n        /* \"#utility.yul\":9178:9329   */\n    tag_217:\n        /* \"#utility.yul\":9253:9262   */\n      0x00\n        /* \"#utility.yul\":9286:9323   */\n      tag_354\n        /* \"#utility.yul\":9317:9322   */\n      dup3\n        /* \"#utility.yul\":9286:9323   */\n      tag_199\n      jump\t// in\n    tag_354:\n        /* \"#utility.yul\":9273:9323   */\n      swap1\n      pop\n        /* \"#utility.yul\":9178:9329   */\n      swap2\n      swap1\n      pop\n      jump\t// out\n        /* \"#utility.yul\":9335:9516   */\n    tag_218:\n        /* \"#utility.yul\":9447:9509   */\n      tag_356\n        /* \"#utility.yul\":9503:9508   */\n      dup2\n        /* \"#utility.yul\":9447:9509   */\n      tag_217\n      jump\t// in\n    tag_356:\n        /* \"#utility.yul\":9442:9445   */\n      dup3\n        /* \"#utility.yul\":9435:9510   */\n      mstore\n        /* \"#utility.yul\":9335:9516   */\n      pop\n      pop\n      jump\t// out\n        /* \"#utility.yul\":9522:9794   */\n    tag_61:\n        /* \"#utility.yul\":9640:9644   */\n      0x00\n        /* \"#utility.yul\":9678:9680   */\n      0x20\n        /* \"#utility.yul\":9667:9676   */\n      dup3\n        /* \"#utility.yul\":9663:9681   */\n      add\n        /* \"#utility.yul\":9655:9681   */\n      swap1\n      pop\n        /* \"#utility.yul\":9691:9787   */\n      tag_358\n        /* \"#utility.yul\":9784:9785   */\n      0x00\n        /* \"#utility.yul\":9773:9782   */\n      dup4\n        /* \"#utility.yul\":9769:9786   */\n      add\n        /* \"#utility.yul\":9760:9766   */\n      dup5\n        /* \"#utility.yul\":9691:9787   */\n      tag_218\n      jump\t// in\n    tag_358:\n        /* \"#utility.yul\":9522:9794   */\n      swap3\n      swap2\n      pop\n      pop\n      jump\t// out\n        /* \"#utility.yul\":9800:10565   */\n    tag_67:\n        /* \"#utility.yul\":9886:9892   */\n      0x00\n        /* \"#utility.yul\":9894:9900   */\n      dup1\n        /* \"#utility.yul\":9902:9908   */\n      0x00\n        /* \"#utility.yul\":9910:9916   */\n      dup1\n        /* \"#utility.yul\":9959:9962   */\n      0x80\n        /* \"#utility.yul\":9947:9956   */\n      dup6\n        /* \"#utility.yul\":9938:9945   */\n      dup8\n        /* \"#utility.yul\":9934:9957   */\n      sub\n        /* \"#utility.yul\":9930:9963   */\n      slt\n        /* \"#utility.yul\":9927:10047   */\n      iszero\n      tag_360\n      jumpi\n        /* \"#utility.yul\":9966:10045   */\n      tag_361\n      tag_182\n      jump\t// in\n    tag_361:\n        /* \"#utility.yul\":9927:10047   */\n    tag_360:\n        /* \"#utility.yul\":10086:10087   */\n      0x00\n        /* \"#utility.yul\":10111:10164   */\n      tag_362\n        /* \"#utility.yul\":10156:10163   */\n      dup8\n        /* \"#utility.yul\":10147:10153   */\n      dup3\n        /* \"#utility.yul\":10136:10145   */\n      dup9\n        /* \"#utility.yul\":10132:10154   */\n      add\n        /* \"#utility.yul\":10111:10164   */\n      tag_196\n      jump\t// in\n    tag_362:\n        /* \"#utility.yul\":10101:10164   */\n      swap5\n      pop\n        /* \"#utility.yul\":10057:10174   */\n      pop\n        /* \"#utility.yul\":10213:10215   */\n      0x20\n        /* \"#utility.yul\":10239:10292   */\n      tag_363\n        /* \"#utility.yul\":10284:10291   */\n      dup8\n        /* \"#utility.yul\":10275:10281   */\n      dup3\n        /* \"#utility.yul\":10264:10273   */\n      dup9\n        /* \"#utility.yul\":10260:10282   */\n      add\n        /* \"#utility.yul\":10239:10292   */\n      tag_196\n      jump\t// in\n    tag_363:\n        /* \"#utility.yul\":10229:10292   */\n      swap4\n      pop\n        /* \"#utility.yul\":10184:10302   */\n      pop\n        /* \"#utility.yul\":10341:10343   */\n      0x40\n        /* \"#utility.yul\":10367:10420   */\n      tag_364\n        /* \"#utility.yul\":10412:10419   */\n      dup8\n        /* \"#utility.yul\":10403:10409   */\n      dup3\n        /* \"#utility.yul\":10392:10401   */\n      dup9\n        /* \"#utility.yul\":10388:10410   */\n      add\n        /* \"#utility.yul\":10367:10420   */\n      tag_210\n      jump\t// in\n    tag_364:\n        /* \"#utility.yul\":10357:10420   */\n      swap3\n      pop\n        /* \"#utility.yul\":10312:10430   */\n      pop\n        /* \"#utility.yul\":10469:10471   */\n      0x60\n        /* \"#utility.yul\":10495:10548   */\n      tag_365\n        /* \"#utility.yul\":10540:10547   */\n      dup8\n        /* \"#utility.yul\":10531:10537   */\n      dup3\n        /* \"#utility.yul\":10520:10529   */\n      dup9\n        /* \"#utility.yul\":10516:10538   */\n      add\n        /* \"#utility.yul\":10495:10548   */\n      tag_210\n      jump\t// in\n    tag_365:\n        /* \"#utility.yul\":10485:10548   */\n      swap2\n      pop\n        /* \"#utility.yul\":10440:10558   */\n      pop\n        /* \"#utility.yul\":9800:10565   */\n      swap3\n      swap6\n      swap2\n      swap5\n      pop\n      swap3\n      pop\n      jump\t// out\n        /* \"#utility.yul\":10571:10686   */\n    tag_219:\n        /* \"#utility.yul\":10656:10679   */\n      tag_367\n        /* \"#utility.yul\":10673:10678   */\n      dup2\n        /* \"#utility.yul\":10656:10679   */\n      tag_202\n      jump\t// in\n    tag_367:\n        /* \"#utility.yul\":10651:10654   */\n      dup3\n        /* \"#utility.yul\":10644:10680   */\n      mstore\n        /* \"#utility.yul\":10571:10686   */\n      pop\n      pop\n      jump\t// out\n        /* \"#utility.yul\":10692:11130   */\n    tag_89:\n        /* \"#utility.yul\":10839:10843   */\n      0x00\n        /* \"#utility.yul\":10877:10879   */\n      0x60\n        /* \"#utility.yul\":10866:10875   */\n      dup3\n        /* \"#utility.yul\":10862:10880   */\n      add\n        /* \"#utility.yul\":10854:10880   */\n      swap1\n      pop\n        /* \"#utility.yul\":10890:10961   */\n      tag_369\n        /* \"#utility.yul\":10958:10959   */\n      0x00\n        /* \"#utility.yul\":10947:10956   */\n      dup4\n        /* \"#utility.yul\":10943:10960   */\n      add\n        /* \"#utility.yul\":10934:10940   */\n      dup7\n        /* \"#utility.yul\":10890:10961   */\n      tag_207\n      jump\t// in\n    tag_369:\n        /* \"#utility.yul\":10971:11043   */\n      tag_370\n        /* \"#utility.yul\":11039:11041   */\n      0x20\n        /* \"#utility.yul\":11028:11037   */\n      dup4\n        /* \"#utility.yul\":11024:11042   */\n      add\n        /* \"#utility.yul\":11015:11021   */\n      dup6\n        /* \"#utility.yul\":10971:11043   */\n      tag_207\n      jump\t// in\n    tag_370:\n        /* \"#utility.yul\":11053:11123   */\n      tag_371\n        /* \"#utility.yul\":11119:11121   */\n      0x40\n        /* \"#utility.yul\":11108:11117   */\n      dup4\n        /* \"#utility.yul\":11104:11122   */\n      add\n        /* \"#utility.yul\":11095:11101   */\n      dup5\n        /* \"#utility.yul\":11053:11123   */\n      tag_219\n      jump\t// in\n    tag_371:\n        /* \"#utility.yul\":10692:11130   */\n      swap5\n      swap4\n      pop\n      pop\n      pop\n      pop\n      jump\t// out\n        /* \"#utility.yul\":11136:11279   */\n    tag_220:\n        /* \"#utility.yul\":11193:11198   */\n      0x00\n        /* \"#utility.yul\":11224:11230   */\n      dup2\n        /* \"#utility.yul\":11218:11231   */\n      mload\n        /* \"#utility.yul\":11209:11231   */\n      swap1\n      pop\n        /* \"#utility.yul\":11240:11273   */\n      tag_373\n        /* \"#utility.yul\":11267:11272   */\n      dup2\n        /* \"#utility.yul\":11240:11273   */\n      tag_195\n      jump\t// in\n    tag_373:\n        /* \"#utility.yul\":11136:11279   */\n      swap3\n      swap2\n      pop\n      pop\n      jump\t// out\n        /* \"#utility.yul\":11285:11636   */\n    tag_93:\n        /* \"#utility.yul\":11355:11361   */\n      0x00\n        /* \"#utility.yul\":11404:11406   */\n      0x20\n        /* \"#utility.yul\":11392:11401   */\n      dup3\n        /* \"#utility.yul\":11383:11390   */\n      dup5\n        /* \"#utility.yul\":11379:11402   */\n      sub\n        /* \"#utility.yul\":11375:11407   */\n      slt\n        /* \"#utility.yul\":11372:11491   */\n      iszero\n      tag_375\n      jumpi\n        /* \"#utility.yul\":11410:11489   */\n      tag_376\n      tag_182\n      jump\t// in\n    tag_376:\n        /* \"#utility.yul\":11372:11491   */\n    tag_375:\n        /* \"#utility.yul\":11530:11531   */\n      0x00\n        /* \"#utility.yul\":11555:11619   */\n      tag_377\n        /* \"#utility.yul\":11611:11618   */\n      dup5\n        /* \"#utility.yul\":11602:11608   */\n      dup3\n        /* \"#utility.yul\":11591:11600   */\n      dup6\n        /* \"#utility.yul\":11587:11609   */\n      add\n        /* \"#utility.yul\":11555:11619   */\n      tag_220\n      jump\t// in\n    tag_377:\n        /* \"#utility.yul\":11545:11619   */\n      swap2\n      pop\n        /* \"#utility.yul\":11501:11629   */\n      pop\n        /* \"#utility.yul\":11285:11636   */\n      swap3\n      swap2\n      pop\n      pop\n      jump\t// out\n        /* \"#utility.yul\":11642:11811   */\n    tag_221:\n        /* \"#utility.yul\":11726:11737   */\n      0x00\n        /* \"#utility.yul\":11760:11766   */\n      dup3\n        /* \"#utility.yul\":11755:11758   */\n      dup3\n        /* \"#utility.yul\":11748:11767   */\n      mstore\n        /* \"#utility.yul\":11800:11804   */\n      0x20\n        /* \"#utility.yul\":11795:11798   */\n      dup3\n        /* \"#utility.yul\":11791:11805   */\n      add\n        /* \"#utility.yul\":11776:11805   */\n      swap1\n      pop\n        /* \"#utility.yul\":11642:11811   */\n      swap3\n      swap2\n      pop\n      pop\n      jump\t// out\n        /* \"#utility.yul\":11817:11986   */\n    tag_222:\n        /* \"#utility.yul\":11957:11978   */\n      0x506f6f6c20616c72656164792065786973747300000000000000000000000000\n        /* \"#utility.yul\":11953:11954   */\n      0x00\n        /* \"#utility.yul\":11945:11951   */\n      dup3\n        /* \"#utility.yul\":11941:11955   */\n      add\n        /* \"#utility.yul\":11934:11979   */\n      mstore\n        /* \"#utility.yul\":11817:11986   */\n      pop\n      jump\t// out\n        /* \"#utility.yul\":11992:12358   */\n    tag_223:\n        /* \"#utility.yul\":12134:12137   */\n      0x00\n        /* \"#utility.yul\":12155:12222   */\n      tag_381\n        /* \"#utility.yul\":12219:12221   */\n      0x13\n        /* \"#utility.yul\":12214:12217   */\n      dup4\n        /* \"#utility.yul\":12155:12222   */\n      tag_221\n      jump\t// in\n    tag_381:\n        /* \"#utility.yul\":12148:12222   */\n      swap2\n      pop\n        /* \"#utility.yul\":12231:12324   */\n      tag_382\n        /* \"#utility.yul\":12320:12323   */\n      dup3\n        /* \"#utility.yul\":12231:12324   */\n      tag_222\n      jump\t// in\n    tag_382:\n        /* \"#utility.yul\":12349:12351   */\n      0x20\n        /* \"#utility.yul\":12344:12347   */\n      dup3\n        /* \"#utility.yul\":12340:12352   */\n      add\n        /* \"#utility.yul\":12333:12352   */\n      swap1\n      pop\n        /* \"#utility.yul\":11992:12358   */\n      swap2\n      swap1\n      pop\n      jump\t// out\n        /* \"#utility.yul\":12364:12783   */\n    tag_96:\n        /* \"#utility.yul\":12530:12534   */\n      0x00\n        /* \"#utility.yul\":12568:12570   */\n      0x20\n        /* \"#utility.yul\":12557:12566   */\n      dup3\n        /* \"#utility.yul\":12553:12571   */\n      add\n        /* \"#utility.yul\":12545:12571   */\n      swap1\n      pop\n        /* \"#utility.yul\":12617:12626   */\n      dup2\n        /* \"#utility.yul\":12611:12615   */\n      dup2\n        /* \"#utility.yul\":12607:12627   */\n      sub\n        /* \"#utility.yul\":12603:12604   */\n      0x00\n        /* \"#utility.yul\":12592:12601   */\n      dup4\n        /* \"#utility.yul\":12588:12605   */\n      add\n        /* \"#utility.yul\":12581:12628   */\n      mstore\n        /* \"#utility.yul\":12645:12776   */\n      tag_384\n        /* \"#utility.yul\":12771:12775   */\n      dup2\n        /* \"#utility.yul\":12645:12776   */\n      tag_223\n      jump\t// in\n    tag_384:\n        /* \"#utility.yul\":12637:12776   */\n      swap1\n      pop\n        /* \"#utility.yul\":12364:12783   */\n      swap2\n      swap1\n      pop\n      jump\t// out\n        /* \"#utility.yul\":12789:12907   */\n    tag_224:\n        /* \"#utility.yul\":12876:12900   */\n      tag_386\n        /* \"#utility.yul\":12894:12899   */\n      dup2\n        /* \"#utility.yul\":12876:12900   */\n      tag_193\n      jump\t// in\n    tag_386:\n        /* \"#utility.yul\":12871:12874   */\n      dup3\n        /* \"#utility.yul\":12864:12901   */\n      mstore\n        /* \"#utility.yul\":12789:12907   */\n      pop\n      pop\n      jump\t// out\n        /* \"#utility.yul\":12913:13135   */\n    tag_102:\n        /* \"#utility.yul\":13006:13010   */\n      0x00\n        /* \"#utility.yul\":13044:13046   */\n      0x20\n        /* \"#utility.yul\":13033:13042   */\n      dup3\n        /* \"#utility.yul\":13029:13047   */\n      add\n        /* \"#utility.yul\":13021:13047   */\n      swap1\n      pop\n        /* \"#utility.yul\":13057:13128   */\n      tag_388\n        /* \"#utility.yul\":13125:13126   */\n      0x00\n        /* \"#utility.yul\":13114:13123   */\n      dup4\n        /* \"#utility.yul\":13110:13127   */\n      add\n        /* \"#utility.yul\":13101:13107   */\n      dup5\n        /* \"#utility.yul\":13057:13128   */\n      tag_224\n      jump\t// in\n    tag_388:\n        /* \"#utility.yul\":12913:13135   */\n      swap3\n      swap2\n      pop\n      pop\n      jump\t// out\n        /* \"#utility.yul\":13141:13284   */\n    tag_225:\n        /* \"#utility.yul\":13198:13203   */\n      0x00\n        /* \"#utility.yul\":13229:13235   */\n      dup2\n        /* \"#utility.yul\":13223:13236   */\n      mload\n        /* \"#utility.yul\":13214:13236   */\n      swap1\n      pop\n        /* \"#utility.yul\":13245:13278   */\n      tag_390\n        /* \"#utility.yul\":13272:13277   */\n      dup2\n        /* \"#utility.yul\":13245:13278   */\n      tag_209\n      jump\t// in\n    tag_390:\n        /* \"#utility.yul\":13141:13284   */\n      swap3\n      swap2\n      pop\n      pop\n      jump\t// out\n        /* \"#utility.yul\":13290:13641   */\n    tag_112:\n        /* \"#utility.yul\":13360:13366   */\n      0x00\n        /* \"#utility.yul\":13409:13411   */\n      0x20\n        /* \"#utility.yul\":13397:13406   */\n      dup3\n        /* \"#utility.yul\":13388:13395   */\n      dup5\n        /* \"#utility.yul\":13384:13407   */\n      sub\n        /* \"#utility.yul\":13380:13412   */\n      slt\n        /* \"#utility.yul\":13377:13496   */\n      iszero\n      tag_392\n      jumpi\n        /* \"#utility.yul\":13415:13494   */\n      tag_393\n      tag_182\n      jump\t// in\n    tag_393:\n        /* \"#utility.yul\":13377:13496   */\n    tag_392:\n        /* \"#utility.yul\":13535:13536   */\n      0x00\n        /* \"#utility.yul\":13560:13624   */\n      tag_394\n        /* \"#utility.yul\":13616:13623   */\n      dup5\n        /* \"#utility.yul\":13607:13613   */\n      dup3\n        /* \"#utility.yul\":13596:13605   */\n      dup6\n        /* \"#utility.yul\":13592:13614   */\n      add\n        /* \"#utility.yul\":13560:13624   */\n      tag_225\n      jump\t// in\n    tag_394:\n        /* \"#utility.yul\":13550:13624   */\n      swap2\n      pop\n        /* \"#utility.yul\":13506:13634   */\n      pop\n        /* \"#utility.yul\":13290:13641   */\n      swap3\n      swap2\n      pop\n      pop\n      jump\t// out\n        /* \"#utility.yul\":13647:13816   */\n    tag_226:\n        /* \"#utility.yul\":13787:13808   */\n      0x496e73756666696369656e7420546f6b656e4100000000000000000000000000\n        /* \"#utility.yul\":13783:13784   */\n      0x00\n        /* \"#utility.yul\":13775:13781   */\n      dup3\n        /* \"#utility.yul\":13771:13785   */\n      add\n        /* \"#utility.yul\":13764:13809   */\n      mstore\n        /* \"#utility.yul\":13647:13816   */\n      pop\n      jump\t// out\n        /* \"#utility.yul\":13822:14188   */\n    tag_227:\n        /* \"#utility.yul\":13964:13967   */\n      0x00\n        /* \"#utility.yul\":13985:14052   */\n      tag_397\n        /* \"#utility.yul\":14049:14051   */\n      0x13\n        /* \"#utility.yul\":14044:14047   */\n      dup4\n        /* \"#utility.yul\":13985:14052   */\n      tag_221\n      jump\t// in\n    tag_397:\n        /* \"#utility.yul\":13978:14052   */\n      swap2\n      pop\n        /* \"#utility.yul\":14061:14154   */\n      tag_398\n        /* \"#utility.yul\":14150:14153   */\n      dup3\n        /* \"#utility.yul\":14061:14154   */\n      tag_226\n      jump\t// in\n    tag_398:\n        /* \"#utility.yul\":14179:14181   */\n      0x20\n        /* \"#utility.yul\":14174:14177   */\n      dup3\n        /* \"#utility.yul\":14170:14182   */\n      add\n        /* \"#utility.yul\":14163:14182   */\n      swap1\n      pop\n        /* \"#utility.yul\":13822:14188   */\n      swap2\n      swap1\n      pop\n      jump\t// out\n        /* \"#utility.yul\":14194:14613   */\n    tag_115:\n        /* \"#utility.yul\":14360:14364   */\n      0x00\n        /* \"#utility.yul\":14398:14400   */\n      0x20\n        /* \"#utility.yul\":14387:14396   */\n      dup3\n        /* \"#utility.yul\":14383:14401   */\n      add\n        /* \"#utility.yul\":14375:14401   */\n      swap1\n      pop\n        /* \"#utility.yul\":14447:14456   */\n      dup2\n        /* \"#utility.yul\":14441:14445   */\n      dup2\n        /* \"#utility.yul\":14437:14457   */\n      sub\n        /* \"#utility.yul\":14433:14434   */\n      0x00\n        /* \"#utility.yul\":14422:14431   */\n      dup4\n        /* \"#utility.yul\":14418:14435   */\n      add\n        /* \"#utility.yul\":14411:14458   */\n      mstore\n        /* \"#utility.yul\":14475:14606   */\n      tag_400\n        /* \"#utility.yul\":14601:14605   */\n      dup2\n        /* \"#utility.yul\":14475:14606   */\n      tag_227\n      jump\t// in\n    tag_400:\n        /* \"#utility.yul\":14467:14606   */\n      swap1\n      pop\n        /* \"#utility.yul\":14194:14613   */\n      swap2\n      swap1\n      pop\n      jump\t// out\n        /* \"#utility.yul\":14619:14788   */\n    tag_228:\n        /* \"#utility.yul\":14759:14780   */\n      0x496e73756666696369656e7420546f6b656e4200000000000000000000000000\n        /* \"#utility.yul\":14755:14756   */\n      0x00\n        /* \"#utility.yul\":14747:14753   */\n      dup3\n        /* \"#utility.yul\":14743:14757   */\n      add\n        /* \"#utility.yul\":14736:14781   */\n      mstore\n        /* \"#utility.yul\":14619:14788   */\n      pop\n      jump\t// out\n        /* \"#utility.yul\":14794:15160   */\n    tag_229:\n        /* \"#utility.yul\":14936:14939   */\n      0x00\n        /* \"#utility.yul\":14957:15024   */\n      tag_403\n        /* \"#utility.yul\":15021:15023   */\n      0x13\n        /* \"#utility.yul\":15016:15019   */\n      dup4\n        /* \"#utility.yul\":14957:15024   */\n      tag_221\n      jump\t// in\n    tag_403:\n        /* \"#utility.yul\":14950:15024   */\n      swap2\n      pop\n        /* \"#utility.yul\":15033:15126   */\n      tag_404\n        /* \"#utility.yul\":15122:15125   */\n      dup3\n        /* \"#utility.yul\":15033:15126   */\n      tag_228\n      jump\t// in\n    tag_404:\n        /* \"#utility.yul\":15151:15153   */\n      0x20\n        /* \"#utility.yul\":15146:15149   */\n      dup3\n        /* \"#utility.yul\":15142:15154   */\n      add\n        /* \"#utility.yul\":15135:15154   */\n      swap1\n      pop\n        /* \"#utility.yul\":14794:15160   */\n      swap2\n      swap1\n      pop\n      jump\t// out\n        /* \"#utility.yul\":15166:15585   */\n    tag_122:\n        /* \"#utility.yul\":15332:15336   */\n      0x00\n        /* \"#utility.yul\":15370:15372   */\n      0x20\n        /* \"#utility.yul\":15359:15368   */\n      dup3\n        /* \"#utility.yul\":15355:15373   */\n      add\n        /* \"#utility.yul\":15347:15373   */\n      swap1\n      pop\n        /* \"#utility.yul\":15419:15428   */\n      dup2\n        /* \"#utility.yul\":15413:15417   */\n      dup2\n        /* \"#utility.yul\":15409:15429   */\n      sub\n        /* \"#utility.yul\":15405:15406   */\n      0x00\n        /* \"#utility.yul\":15394:15403   */\n      dup4\n        /* \"#utility.yul\":15390:15407   */\n      add\n        /* \"#utility.yul\":15383:15430   */\n      mstore\n        /* \"#utility.yul\":15447:15578   */\n      tag_406\n        /* \"#utility.yul\":15573:15577   */\n      dup2\n        /* \"#utility.yul\":15447:15578   */\n      tag_229\n      jump\t// in\n    tag_406:\n        /* \"#utility.yul\":15439:15578   */\n      swap1\n      pop\n        /* \"#utility.yul\":15166:15585   */\n      swap2\n      swap1\n      pop\n      jump\t// out\n        /* \"#utility.yul\":15591:15771   */\n    tag_230:\n        /* \"#utility.yul\":15639:15716   */\n      0x4e487b7100000000000000000000000000000000000000000000000000000000\n        /* \"#utility.yul\":15636:15637   */\n      0x00\n        /* \"#utility.yul\":15629:15717   */\n      mstore\n        /* \"#utility.yul\":15736:15740   */\n      0x11\n        /* \"#utility.yul\":15733:15734   */\n      0x04\n        /* \"#utility.yul\":15726:15741   */\n      mstore\n        /* \"#utility.yul\":15760:15764   */\n      0x24\n        /* \"#utility.yul\":15757:15758   */\n      0x00\n        /* \"#utility.yul\":15750:15765   */\n      revert\n        /* \"#utility.yul\":15777:15968   */\n    tag_124:\n        /* \"#utility.yul\":15817:15820   */\n      0x00\n        /* \"#utility.yul\":15836:15856   */\n      tag_409\n        /* \"#utility.yul\":15854:15855   */\n      dup3\n        /* \"#utility.yul\":15836:15856   */\n      tag_208\n      jump\t// in\n    tag_409:\n        /* \"#utility.yul\":15831:15856   */\n      swap2\n      pop\n        /* \"#utility.yul\":15870:15890   */\n      tag_410\n        /* \"#utility.yul\":15888:15889   */\n      dup4\n        /* \"#utility.yul\":15870:15890   */\n      tag_208\n      jump\t// in\n    tag_410:\n        /* \"#utility.yul\":15865:15890   */\n      swap3\n      pop\n        /* \"#utility.yul\":15913:15914   */\n      dup3\n        /* \"#utility.yul\":15910:15911   */\n      dup3\n        /* \"#utility.yul\":15906:15915   */\n      add\n        /* \"#utility.yul\":15899:15915   */\n      swap1\n      pop\n        /* \"#utility.yul\":15934:15937   */\n      dup1\n        /* \"#utility.yul\":15931:15932   */\n      dup3\n        /* \"#utility.yul\":15928:15938   */\n      gt\n        /* \"#utility.yul\":15925:15961   */\n      iszero\n      tag_411\n      jumpi\n        /* \"#utility.yul\":15941:15959   */\n      tag_412\n      tag_230\n      jump\t// in\n    tag_412:\n        /* \"#utility.yul\":15925:15961   */\n    tag_411:\n        /* \"#utility.yul\":15777:15968   */\n      swap3\n      swap2\n      pop\n      pop\n      jump\t// out\n        /* \"#utility.yul\":15974:16082   */\n    tag_231:\n        /* \"#utility.yul\":16051:16075   */\n      tag_414\n        /* \"#utility.yul\":16069:16074   */\n      dup2\n        /* \"#utility.yul\":16051:16075   */\n      tag_194\n      jump\t// in\n    tag_414:\n        /* \"#utility.yul\":16046:16049   */\n      dup3\n        /* \"#utility.yul\":16039:16076   */\n      mstore\n        /* \"#utility.yul\":15974:16082   */\n      pop\n      pop\n      jump\t// out\n        /* \"#utility.yul\":16088:16193   */\n    tag_232:\n        /* \"#utility.yul\":16163:16186   */\n      tag_416\n        /* \"#utility.yul\":16180:16185   */\n      dup2\n        /* \"#utility.yul\":16163:16186   */\n      tag_202\n      jump\t// in\n    tag_416:\n        /* \"#utility.yul\":16158:16161   */\n      dup3\n        /* \"#utility.yul\":16151:16187   */\n      mstore\n        /* \"#utility.yul\":16088:16193   */\n      pop\n      pop\n      jump\t// out\n        /* \"#utility.yul\":16199:16301   */\n    tag_233:\n        /* \"#utility.yul\":16272:16294   */\n      tag_418\n        /* \"#utility.yul\":16288:16293   */\n      dup2\n        /* \"#utility.yul\":16272:16294   */\n      tag_211\n      jump\t// in\n    tag_418:\n        /* \"#utility.yul\":16267:16270   */\n      dup3\n        /* \"#utility.yul\":16260:16295   */\n      mstore\n        /* \"#utility.yul\":16199:16301   */\n      pop\n      pop\n      jump\t// out\n        /* \"#utility.yul\":16307:16415   */\n    tag_234:\n        /* \"#utility.yul\":16384:16408   */\n      tag_420\n        /* \"#utility.yul\":16402:16407   */\n      dup2\n        /* \"#utility.yul\":16384:16408   */\n      tag_208\n      jump\t// in\n    tag_420:\n        /* \"#utility.yul\":16379:16382   */\n      dup3\n        /* \"#utility.yul\":16372:16409   */\n      mstore\n        /* \"#utility.yul\":16307:16415   */\n      pop\n      pop\n      jump\t// out\n        /* \"#utility.yul\":16523:18660   */\n    tag_235:\n        /* \"#utility.yul\":16676:16682   */\n      0x0160\n        /* \"#utility.yul\":16671:16674   */\n      dup3\n        /* \"#utility.yul\":16667:16683   */\n      add\n        /* \"#utility.yul\":16767:16771   */\n      0x00\n        /* \"#utility.yul\":16760:16765   */\n      dup3\n        /* \"#utility.yul\":16756:16772   */\n      add\n        /* \"#utility.yul\":16750:16773   */\n      mload\n        /* \"#utility.yul\":16786:16849   */\n      tag_422\n        /* \"#utility.yul\":16843:16847   */\n      0x00\n        /* \"#utility.yul\":16838:16841   */\n      dup6\n        /* \"#utility.yul\":16834:16848   */\n      add\n        /* \"#utility.yul\":16820:16832   */\n      dup3\n        /* \"#utility.yul\":16786:16849   */\n      tag_231\n      jump\t// in\n    tag_422:\n        /* \"#utility.yul\":16693:16859   */\n      pop\n        /* \"#utility.yul\":16943:16947   */\n      0x20\n        /* \"#utility.yul\":16936:16941   */\n      dup3\n        /* \"#utility.yul\":16932:16948   */\n      add\n        /* \"#utility.yul\":16926:16949   */\n      mload\n        /* \"#utility.yul\":16962:17025   */\n      tag_423\n        /* \"#utility.yul\":17019:17023   */\n      0x20\n        /* \"#utility.yul\":17014:17017   */\n      dup6\n        /* \"#utility.yul\":17010:17024   */\n      add\n        /* \"#utility.yul\":16996:17008   */\n      dup3\n        /* \"#utility.yul\":16962:17025   */\n      tag_231\n      jump\t// in\n    tag_423:\n        /* \"#utility.yul\":16869:17035   */\n      pop\n        /* \"#utility.yul\":17116:17120   */\n      0x40\n        /* \"#utility.yul\":17109:17114   */\n      dup3\n        /* \"#utility.yul\":17105:17121   */\n      add\n        /* \"#utility.yul\":17099:17122   */\n      mload\n        /* \"#utility.yul\":17135:17196   */\n      tag_424\n        /* \"#utility.yul\":17190:17194   */\n      0x40\n        /* \"#utility.yul\":17185:17188   */\n      dup6\n        /* \"#utility.yul\":17181:17195   */\n      add\n        /* \"#utility.yul\":17167:17179   */\n      dup3\n        /* \"#utility.yul\":17135:17196   */\n      tag_232\n      jump\t// in\n    tag_424:\n        /* \"#utility.yul\":17045:17206   */\n      pop\n        /* \"#utility.yul\":17293:17297   */\n      0x60\n        /* \"#utility.yul\":17286:17291   */\n      dup3\n        /* \"#utility.yul\":17282:17298   */\n      add\n        /* \"#utility.yul\":17276:17299   */\n      mload\n        /* \"#utility.yul\":17312:17371   */\n      tag_425\n        /* \"#utility.yul\":17365:17369   */\n      0x60\n        /* \"#utility.yul\":17360:17363   */\n      dup6\n        /* \"#utility.yul\":17356:17370   */\n      add\n        /* \"#utility.yul\":17342:17354   */\n      dup3\n        /* \"#utility.yul\":17312:17371   */\n      tag_233\n      jump\t// in\n    tag_425:\n        /* \"#utility.yul\":17216:17381   */\n      pop\n        /* \"#utility.yul\":17468:17472   */\n      0x80\n        /* \"#utility.yul\":17461:17466   */\n      dup3\n        /* \"#utility.yul\":17457:17473   */\n      add\n        /* \"#utility.yul\":17451:17474   */\n      mload\n        /* \"#utility.yul\":17487:17546   */\n      tag_426\n        /* \"#utility.yul\":17540:17544   */\n      0x80\n        /* \"#utility.yul\":17535:17538   */\n      dup6\n        /* \"#utility.yul\":17531:17545   */\n      add\n        /* \"#utility.yul\":17517:17529   */\n      dup3\n        /* \"#utility.yul\":17487:17546   */\n      tag_233\n      jump\t// in\n    tag_426:\n        /* \"#utility.yul\":17391:17556   */\n      pop\n        /* \"#utility.yul\":17648:17652   */\n      0xa0\n        /* \"#utility.yul\":17641:17646   */\n      dup3\n        /* \"#utility.yul\":17637:17653   */\n      add\n        /* \"#utility.yul\":17631:17654   */\n      mload\n        /* \"#utility.yul\":17667:17730   */\n      tag_427\n        /* \"#utility.yul\":17724:17728   */\n      0xa0\n        /* \"#utility.yul\":17719:17722   */\n      dup6\n        /* \"#utility.yul\":17715:17729   */\n      add\n        /* \"#utility.yul\":17701:17713   */\n      dup3\n        /* \"#utility.yul\":17667:17730   */\n      tag_234\n      jump\t// in\n    tag_427:\n        /* \"#utility.yul\":17566:17740   */\n      pop\n        /* \"#utility.yul\":17832:17836   */\n      0xc0\n        /* \"#utility.yul\":17825:17830   */\n      dup3\n        /* \"#utility.yul\":17821:17837   */\n      add\n        /* \"#utility.yul\":17815:17838   */\n      mload\n        /* \"#utility.yul\":17851:17914   */\n      tag_428\n        /* \"#utility.yul\":17908:17912   */\n      0xc0\n        /* \"#utility.yul\":17903:17906   */\n      dup6\n        /* \"#utility.yul\":17899:17913   */\n      add\n        /* \"#utility.yul\":17885:17897   */\n      dup3\n        /* \"#utility.yul\":17851:17914   */\n      tag_234\n      jump\t// in\n    tag_428:\n        /* \"#utility.yul\":17750:17924   */\n      pop\n        /* \"#utility.yul\":18012:18016   */\n      0xe0\n        /* \"#utility.yul\":18005:18010   */\n      dup3\n        /* \"#utility.yul\":18001:18017   */\n      add\n        /* \"#utility.yul\":17995:18018   */\n      mload\n        /* \"#utility.yul\":18031:18094   */\n      tag_429\n        /* \"#utility.yul\":18088:18092   */\n      0xe0\n        /* \"#utility.yul\":18083:18086   */\n      dup6\n        /* \"#utility.yul\":18079:18093   */\n      add\n        /* \"#utility.yul\":18065:18077   */\n      dup3\n        /* \"#utility.yul\":18031:18094   */\n      tag_234\n      jump\t// in\n    tag_429:\n        /* \"#utility.yul\":17934:18104   */\n      pop\n        /* \"#utility.yul\":18192:18198   */\n      0x0100\n        /* \"#utility.yul\":18185:18190   */\n      dup3\n        /* \"#utility.yul\":18181:18199   */\n      add\n        /* \"#utility.yul\":18175:18200   */\n      mload\n        /* \"#utility.yul\":18213:18278   */\n      tag_430\n        /* \"#utility.yul\":18270:18276   */\n      0x0100\n        /* \"#utility.yul\":18265:18268   */\n      dup6\n        /* \"#utility.yul\":18261:18277   */\n      add\n        /* \"#utility.yul\":18247:18259   */\n      dup3\n        /* \"#utility.yul\":18213:18278   */\n      tag_234\n      jump\t// in\n    tag_430:\n        /* \"#utility.yul\":18114:18288   */\n      pop\n        /* \"#utility.yul\":18375:18381   */\n      0x0120\n        /* \"#utility.yul\":18368:18373   */\n      dup3\n        /* \"#utility.yul\":18364:18382   */\n      add\n        /* \"#utility.yul\":18358:18383   */\n      mload\n        /* \"#utility.yul\":18396:18461   */\n      tag_431\n        /* \"#utility.yul\":18453:18459   */\n      0x0120\n        /* \"#utility.yul\":18448:18451   */\n      dup6\n        /* \"#utility.yul\":18444:18460   */\n      add\n        /* \"#utility.yul\":18430:18442   */\n      dup3\n        /* \"#utility.yul\":18396:18461   */\n      tag_231\n      jump\t// in\n    tag_431:\n        /* \"#utility.yul\":18298:18471   */\n      pop\n        /* \"#utility.yul\":18557:18563   */\n      0x0140\n        /* \"#utility.yul\":18550:18555   */\n      dup3\n        /* \"#utility.yul\":18546:18564   */\n      add\n        /* \"#utility.yul\":18540:18565   */\n      mload\n        /* \"#utility.yul\":18578:18643   */\n      tag_432\n        /* \"#utility.yul\":18635:18641   */\n      0x0140\n        /* \"#utility.yul\":18630:18633   */\n      dup6\n        /* \"#utility.yul\":18626:18642   */\n      add\n        /* \"#utility.yul\":18612:18624   */\n      dup3\n        /* \"#utility.yul\":18578:18643   */\n      tag_234\n      jump\t// in\n    tag_432:\n        /* \"#utility.yul\":18481:18653   */\n      pop\n        /* \"#utility.yul\":16645:18660   */\n      pop\n        /* \"#utility.yul\":16523:18660   */\n      pop\n      pop\n      jump\t// out\n        /* \"#utility.yul\":18666:19001   */\n    tag_126:\n        /* \"#utility.yul\":18815:18819   */\n      0x00\n        /* \"#utility.yul\":18853:18856   */\n      0x0160\n        /* \"#utility.yul\":18842:18851   */\n      dup3\n        /* \"#utility.yul\":18838:18857   */\n      add\n        /* \"#utility.yul\":18830:18857   */\n      swap1\n      pop\n        /* \"#utility.yul\":18867:18994   */\n      tag_434\n        /* \"#utility.yul\":18991:18992   */\n      0x00\n        /* \"#utility.yul\":18980:18989   */\n      dup4\n        /* \"#utility.yul\":18976:18993   */\n      add\n        /* \"#utility.yul\":18967:18973   */\n      dup5\n        /* \"#utility.yul\":18867:18994   */\n      tag_235\n      jump\t// in\n    tag_434:\n        /* \"#utility.yul\":18666:19001   */\n      swap3\n      swap2\n      pop\n      pop\n      jump\t// out\n        /* \"#utility.yul\":19007:19129   */\n    tag_236:\n        /* \"#utility.yul\":19080:19104   */\n      tag_436\n        /* \"#utility.yul\":19098:19103   */\n      dup2\n        /* \"#utility.yul\":19080:19104   */\n      tag_215\n      jump\t// in\n    tag_436:\n        /* \"#utility.yul\":19073:19078   */\n      dup2\n        /* \"#utility.yul\":19070:19105   */\n      eq\n        /* \"#utility.yul\":19060:19123   */\n      tag_437\n      jumpi\n        /* \"#utility.yul\":19119:19120   */\n      0x00\n        /* \"#utility.yul\":19116:19117   */\n      dup1\n        /* \"#utility.yul\":19109:19121   */\n      revert\n        /* \"#utility.yul\":19060:19123   */\n    tag_437:\n        /* \"#utility.yul\":19007:19129   */\n      pop\n      jump\t// out\n        /* \"#utility.yul\":19135:19278   */\n    tag_237:\n        /* \"#utility.yul\":19192:19197   */\n      0x00\n        /* \"#utility.yul\":19223:19229   */\n      dup2\n        /* \"#utility.yul\":19217:19230   */\n      mload\n        /* \"#utility.yul\":19208:19230   */\n      swap1\n      pop\n        /* \"#utility.yul\":19239:19272   */\n      tag_439\n        /* \"#utility.yul\":19266:19271   */\n      dup2\n        /* \"#utility.yul\":19239:19272   */\n      tag_236\n      jump\t// in\n    tag_439:\n        /* \"#utility.yul\":19135:19278   */\n      swap3\n      swap2\n      pop\n      pop\n      jump\t// out\n        /* \"#utility.yul\":19284:20104   */\n    tag_130:\n        /* \"#utility.yul\":19381:19387   */\n      0x00\n        /* \"#utility.yul\":19389:19395   */\n      dup1\n        /* \"#utility.yul\":19397:19403   */\n      0x00\n        /* \"#utility.yul\":19405:19411   */\n      dup1\n        /* \"#utility.yul\":19454:19457   */\n      0x80\n        /* \"#utility.yul\":19442:19451   */\n      dup6\n        /* \"#utility.yul\":19433:19440   */\n      dup8\n        /* \"#utility.yul\":19429:19452   */\n      sub\n        /* \"#utility.yul\":19425:19458   */\n      slt\n        /* \"#utility.yul\":19422:19542   */\n      iszero\n      tag_441\n      jumpi\n        /* \"#utility.yul\":19461:19540   */\n      tag_442\n      tag_182\n      jump\t// in\n    tag_442:\n        /* \"#utility.yul\":19422:19542   */\n    tag_441:\n        /* \"#utility.yul\":19581:19582   */\n      0x00\n        /* \"#utility.yul\":19606:19670   */\n      tag_443\n        /* \"#utility.yul\":19662:19669   */\n      dup8\n        /* \"#utility.yul\":19653:19659   */\n      dup3\n        /* \"#utility.yul\":19642:19651   */\n      dup9\n        /* \"#utility.yul\":19638:19660   */\n      add\n        /* \"#utility.yul\":19606:19670   */\n      tag_225\n      jump\t// in\n    tag_443:\n        /* \"#utility.yul\":19596:19670   */\n      swap5\n      pop\n        /* \"#utility.yul\":19552:19680   */\n      pop\n        /* \"#utility.yul\":19719:19721   */\n      0x20\n        /* \"#utility.yul\":19745:19809   */\n      tag_444\n        /* \"#utility.yul\":19801:19808   */\n      dup8\n        /* \"#utility.yul\":19792:19798   */\n      dup3\n        /* \"#utility.yul\":19781:19790   */\n      dup9\n        /* \"#utility.yul\":19777:19799   */\n      add\n        /* \"#utility.yul\":19745:19809   */\n      tag_237\n      jump\t// in\n    tag_444:\n        /* \"#utility.yul\":19735:19809   */\n      swap4\n      pop\n        /* \"#utility.yul\":19690:19819   */\n      pop\n        /* \"#utility.yul\":19858:19860   */\n      0x40\n        /* \"#utility.yul\":19884:19948   */\n      tag_445\n        /* \"#utility.yul\":19940:19947   */\n      dup8\n        /* \"#utility.yul\":19931:19937   */\n      dup3\n        /* \"#utility.yul\":19920:19929   */\n      dup9\n        /* \"#utility.yul\":19916:19938   */\n      add\n        /* \"#utility.yul\":19884:19948   */\n      tag_225\n      jump\t// in\n    tag_445:\n        /* \"#utility.yul\":19874:19948   */\n      swap3\n      pop\n        /* \"#utility.yul\":19829:19958   */\n      pop\n        /* \"#utility.yul\":19997:19999   */\n      0x60\n        /* \"#utility.yul\":20023:20087   */\n      tag_446\n        /* \"#utility.yul\":20079:20086   */\n      dup8\n        /* \"#utility.yul\":20070:20076   */\n      dup3\n        /* \"#utility.yul\":20059:20068   */\n      dup9\n        /* \"#utility.yul\":20055:20077   */\n      add\n        /* \"#utility.yul\":20023:20087   */\n      tag_225\n      jump\t// in\n    tag_446:\n        /* \"#utility.yul\":20013:20087   */\n      swap2\n      pop\n        /* \"#utility.yul\":19968:20097   */\n      pop\n        /* \"#utility.yul\":19284:20104   */\n      swap3\n      swap6\n      swap2\n      swap5\n      pop\n      swap3\n      pop\n      jump\t// out\n        /* \"#utility.yul\":20110:20304   */\n    tag_133:\n        /* \"#utility.yul\":20150:20154   */\n      0x00\n        /* \"#utility.yul\":20170:20190   */\n      tag_448\n        /* \"#utility.yul\":20188:20189   */\n      dup3\n        /* \"#utility.yul\":20170:20190   */\n      tag_208\n      jump\t// in\n    tag_448:\n        /* \"#utility.yul\":20165:20190   */\n      swap2\n      pop\n        /* \"#utility.yul\":20204:20224   */\n      tag_449\n        /* \"#utility.yul\":20222:20223   */\n      dup4\n        /* \"#utility.yul\":20204:20224   */\n      tag_208\n      jump\t// in\n    tag_449:\n        /* \"#utility.yul\":20199:20224   */\n      swap3\n      pop\n        /* \"#utility.yul\":20248:20249   */\n      dup3\n        /* \"#utility.yul\":20245:20246   */\n      dup3\n        /* \"#utility.yul\":20241:20250   */\n      sub\n        /* \"#utility.yul\":20233:20250   */\n      swap1\n      pop\n        /* \"#utility.yul\":20272:20273   */\n      dup2\n        /* \"#utility.yul\":20266:20270   */\n      dup2\n        /* \"#utility.yul\":20263:20274   */\n      gt\n        /* \"#utility.yul\":20260:20297   */\n      iszero\n      tag_450\n      jumpi\n        /* \"#utility.yul\":20277:20295   */\n      tag_451\n      tag_230\n      jump\t// in\n    tag_451:\n        /* \"#utility.yul\":20260:20297   */\n    tag_450:\n        /* \"#utility.yul\":20110:20304   */\n      swap3\n      swap2\n      pop\n      pop\n      jump\t// out\n        /* \"#utility.yul\":20310:20642   */\n    tag_135:\n        /* \"#utility.yul\":20431:20435   */\n      0x00\n        /* \"#utility.yul\":20469:20471   */\n      0x40\n        /* \"#utility.yul\":20458:20467   */\n      dup3\n        /* \"#utility.yul\":20454:20472   */\n      add\n        /* \"#utility.yul\":20446:20472   */\n      swap1\n      pop\n        /* \"#utility.yul\":20482:20553   */\n      tag_453\n        /* \"#utility.yul\":20550:20551   */\n      0x00\n        /* \"#utility.yul\":20539:20548   */\n      dup4\n        /* \"#utility.yul\":20535:20552   */\n      add\n        /* \"#utility.yul\":20526:20532   */\n      dup6\n        /* \"#utility.yul\":20482:20553   */\n      tag_207\n      jump\t// in\n    tag_453:\n        /* \"#utility.yul\":20563:20635   */\n      tag_454\n        /* \"#utility.yul\":20631:20633   */\n      0x20\n        /* \"#utility.yul\":20620:20629   */\n      dup4\n        /* \"#utility.yul\":20616:20634   */\n      add\n        /* \"#utility.yul\":20607:20613   */\n      dup5\n        /* \"#utility.yul\":20563:20635   */\n      tag_214\n      jump\t// in\n    tag_454:\n        /* \"#utility.yul\":20310:20642   */\n      swap4\n      swap3\n      pop\n      pop\n      pop\n      jump\t// out\n        /* \"#utility.yul\":20648:20764   */\n    tag_238:\n        /* \"#utility.yul\":20718:20739   */\n      tag_456\n        /* \"#utility.yul\":20733:20738   */\n      dup2\n        /* \"#utility.yul\":20718:20739   */\n      tag_187\n      jump\t// in\n    tag_456:\n        /* \"#utility.yul\":20711:20716   */\n      dup2\n        /* \"#utility.yul\":20708:20740   */\n      eq\n        /* \"#utility.yul\":20698:20758   */\n      tag_457\n      jumpi\n        /* \"#utility.yul\":20754:20755   */\n      0x00\n        /* \"#utility.yul\":20751:20752   */\n      dup1\n        /* \"#utility.yul\":20744:20756   */\n      revert\n        /* \"#utility.yul\":20698:20758   */\n    tag_457:\n        /* \"#utility.yul\":20648:20764   */\n      pop\n      jump\t// out\n        /* \"#utility.yul\":20770:20907   */\n    tag_239:\n        /* \"#utility.yul\":20824:20829   */\n      0x00\n        /* \"#utility.yul\":20855:20861   */\n      dup2\n        /* \"#utility.yul\":20849:20862   */\n      mload\n        /* \"#utility.yul\":20840:20862   */\n      swap1\n      pop\n        /* \"#utility.yul\":20871:20901   */\n      tag_459\n        /* \"#utility.yul\":20895:20900   */\n      dup2\n        /* \"#utility.yul\":20871:20901   */\n      tag_238\n      jump\t// in\n    tag_459:\n        /* \"#utility.yul\":20770:20907   */\n      swap3\n      swap2\n      pop\n      pop\n      jump\t// out\n        /* \"#utility.yul\":20913:21258   */\n    tag_139:\n        /* \"#utility.yul\":20980:20986   */\n      0x00\n        /* \"#utility.yul\":21029:21031   */\n      0x20\n        /* \"#utility.yul\":21017:21026   */\n      dup3\n        /* \"#utility.yul\":21008:21015   */\n      dup5\n        /* \"#utility.yul\":21004:21027   */\n      sub\n        /* \"#utility.yul\":21000:21032   */\n      slt\n        /* \"#utility.yul\":20997:21116   */\n      iszero\n      tag_461\n      jumpi\n        /* \"#utility.yul\":21035:21114   */\n      tag_462\n      tag_182\n      jump\t// in\n    tag_462:\n        /* \"#utility.yul\":20997:21116   */\n    tag_461:\n        /* \"#utility.yul\":21155:21156   */\n      0x00\n        /* \"#utility.yul\":21180:21241   */\n      tag_463\n        /* \"#utility.yul\":21233:21240   */\n      dup5\n        /* \"#utility.yul\":21224:21230   */\n      dup3\n        /* \"#utility.yul\":21213:21222   */\n      dup6\n        /* \"#utility.yul\":21209:21231   */\n      add\n        /* \"#utility.yul\":21180:21241   */\n      tag_239\n      jump\t// in\n    tag_463:\n        /* \"#utility.yul\":21170:21241   */\n      swap2\n      pop\n        /* \"#utility.yul\":21126:21251   */\n      pop\n        /* \"#utility.yul\":20913:21258   */\n      swap3\n      swap2\n      pop\n      pop\n      jump\t// out\n        /* \"#utility.yul\":21264:21596   */\n    tag_180:\n        /* \"#utility.yul\":21385:21389   */\n      0x00\n        /* \"#utility.yul\":21423:21425   */\n      0x40\n        /* \"#utility.yul\":21412:21421   */\n      dup3\n        /* \"#utility.yul\":21408:21426   */\n      add\n        /* \"#utility.yul\":21400:21426   */\n      swap1\n      pop\n        /* \"#utility.yul\":21436:21507   */\n      tag_465\n        /* \"#utility.yul\":21504:21505   */\n      0x00\n        /* \"#utility.yul\":21493:21502   */\n      dup4\n        /* \"#utility.yul\":21489:21506   */\n      add\n        /* \"#utility.yul\":21480:21486   */\n      dup6\n        /* \"#utility.yul\":21436:21507   */\n      tag_207\n      jump\t// in\n    tag_465:\n        /* \"#utility.yul\":21517:21589   */\n      tag_466\n        /* \"#utility.yul\":21585:21587   */\n      0x20\n        /* \"#utility.yul\":21574:21583   */\n      dup4\n        /* \"#utility.yul\":21570:21588   */\n      add\n        /* \"#utility.yul\":21561:21567   */\n      dup5\n        /* \"#utility.yul\":21517:21589   */\n      tag_192\n      jump\t// in\n    tag_466:\n        /* \"#utility.yul\":21264:21596   */\n      swap4\n      swap3\n      pop\n      pop\n      pop\n      jump\t// out\n\n    auxdata: 0xa26469706673582212202746b90d6488fee63cc53a1ddf1f3eff0c8214ec5407ec25de9921348485824f64736f6c634300081a0033\n}\n",
				"bytecode": {
					"linkReferences": {},
					"object": "608060405234801561000f575f80fd5b50604051611a8b380380611a8b83398181016040528101906100319190610116565b8160015f6101000a81548173ffffffffffffffffffffffffffffffffffffffff021916908373ffffffffffffffffffffffffffffffffffffffff1602179055508060025f6101000a81548173ffffffffffffffffffffffffffffffffffffffff021916908373ffffffffffffffffffffffffffffffffffffffff1602179055505050610154565b5f80fd5b5f73ffffffffffffffffffffffffffffffffffffffff82169050919050565b5f6100e5826100bc565b9050919050565b6100f5816100db565b81146100ff575f80fd5b50565b5f81519050610110816100ec565b92915050565b5f806040838503121561012c5761012b6100b8565b5b5f61013985828601610102565b925050602061014a85828601610102565b9150509250929050565b61192a806101615f395ff3fe608060405234801561000f575f80fd5b50600436106100b2575f3560e01c806391d148541161006f57806391d148541461019c578063a217fddf146101cc578063afbce84e146101ea578063c45a01551461021d578063d547741f1461023b578063ecf4daa714610257576100b2565b806301ffc9a7146100b6578063248a9ca3146100e65780632f2ff15d1461011657806336568abe14610132578063791b98bc1461014e5780638e909e511461016c575b5f80fd5b6100d060048036038101906100cb9190610ecc565b610273565b6040516100dd9190610f11565b60405180910390f35b61010060048036038101906100fb9190610f5d565b6102ec565b60405161010d9190610f97565b60405180910390f35b610130600480360381019061012b919061100a565b610308565b005b61014c6004803603810190610147919061100a565b61032a565b005b6101566103a5565b60405161016391906110a3565b60405180910390f35b6101866004803603810190610181919061111e565b6103ca565b6040516101939190611191565b60405180910390f35b6101b660048036038101906101b1919061100a565b6105e3565b6040516101c39190610f11565b60405180910390f35b6101d4610646565b6040516101e19190610f97565b60405180910390f35b61020460048036038101906101ff9190611213565b61064c565b60405161021494939291906112e9565b60405180910390f35b610225610a45565b604051610232919061134c565b60405180910390f35b6102556004803603810190610250919061100a565b610a6a565b005b610271600480360381019061026c9190611365565b610a8c565b005b5f7f7965db0b000000000000000000000000000000000000000000000000000000007bffffffffffffffffffffffffffffffffffffffffffffffffffffffff1916827bffffffffffffffffffffffffffffffffffffffffffffffffffffffff191614806102e557506102e482610bcc565b5b9050919050565b5f805f8381526020019081526020015f20600101549050919050565b610311826102ec565b61031a81610c35565b6103248383610c49565b50505050565b610332610d32565b73ffffffffffffffffffffffffffffffffffffffff168173ffffffffffffffffffffffffffffffffffffffff1614610396576040517f6697b23200000000000000000000000000000000000000000000000000000000815260040160405180910390fd5b6103a08282610d39565b505050565b60015f9054906101000a900473ffffffffffffffffffffffffffffffffffffffff1681565b5f8073ffffffffffffffffffffffffffffffffffffffff1660025f9054906101000a900473ffffffffffffffffffffffffffffffffffffffff1673ffffffffffffffffffffffffffffffffffffffff16631698ee828787876040518463ffffffff1660e01b8152600401610440939291906113d8565b602060405180830381865afa15801561045b573d5f803e3d5ffd5b505050506040513d601f19601f8201168201806040525081019061047f9190611421565b73ffffffffffffffffffffffffffffffffffffffff16146104d5576040517f08c379a00000000000000000000000000000000000000000000000000000000081526004016104cc906114a6565b60405180910390fd5b60025f9054906101000a900473ffffffffffffffffffffffffffffffffffffffff1673ffffffffffffffffffffffffffffffffffffffff1663a16712958686866040518463ffffffff1660e01b8152600401610533939291906113d8565b6020604051808303815f875af115801561054f573d5f803e3d5ffd5b505050506040513d601f19601f820116820180604052508101906105739190611421565b90508073ffffffffffffffffffffffffffffffffffffffff1663f637731d836040518263ffffffff1660e01b81526004016105ae91906114d3565b5f604051808303815f87803b1580156105c5575f80fd5b505af11580156105d7573d5f803e3d5ffd5b50505050949350505050565b5f805f8481526020019081526020015f205f015f8373ffffffffffffffffffffffffffffffffffffffff1673ffffffffffffffffffffffffffffffffffffffff1681526020019081526020015f205f9054906101000a900460ff16905092915050565b5f801b81565b5f805f80878b73ffffffffffffffffffffffffffffffffffffffff166370a08231306040518263ffffffff1660e01b815260040161068a9190611191565b602060405180830381865afa1580156106a5573d5f803e3d5ffd5b505050506040513d601f19601f820116820180604052508101906106c99190611500565b101561070a576040517f08c379a000000000000000000000000000000000000000000000000000000000815260040161070190611575565b60405180910390fd5b868a73ffffffffffffffffffffffffffffffffffffffff166370a08231306040518263ffffffff1660e01b81526004016107449190611191565b602060405180830381865afa15801561075f573d5f803e3d5ffd5b505050506040513d601f19601f820116820180604052508101906107839190611500565b10156107c4576040517f08c379a00000000000000000000000000000000000000000000000000000000081526004016107bb906115dd565b60405180910390fd5b5f6040518061016001604052808d73ffffffffffffffffffffffffffffffffffffffff1681526020018c73ffffffffffffffffffffffffffffffffffffffff1681526020018b62ffffff1681526020018860020b81526020018760020b81526020018a81526020018981526020015f81526020015f81526020013373ffffffffffffffffffffffffffffffffffffffff1681526020016078426108679190611628565b815250905060015f9054906101000a900473ffffffffffffffffffffffffffffffffffffffff1673ffffffffffffffffffffffffffffffffffffffff166388316456826040518263ffffffff1660e01b81526004016108c69190611776565b6080604051808303815f875af11580156108e2573d5f803e3d5ffd5b505050506040513d601f19601f8201168201806040525081019061090691906117ba565b80955081965082975083985050505050828911156109a6578b73ffffffffffffffffffffffffffffffffffffffff1663a9059cbb33858c610947919061181e565b6040518363ffffffff1660e01b8152600401610964929190611851565b6020604051808303815f875af1158015610980573d5f803e3d5ffd5b505050506040513d601f19601f820116820180604052508101906109a491906118a2565b505b81881115610a36578a73ffffffffffffffffffffffffffffffffffffffff1663a9059cbb33848b6109d7919061181e565b6040518363ffffffff1660e01b81526004016109f4929190611851565b6020604051808303815f875af1158015610a10573d5f803e3d5ffd5b505050506040513d601f19601f82011682018060405250810190610a3491906118a2565b505b50975097509750979350505050565b60025f9054906101000a900473ffffffffffffffffffffffffffffffffffffffff1681565b610a73826102ec565b610a7c81610c35565b610a868383610d39565b50505050565b8373ffffffffffffffffffffffffffffffffffffffff1663095ea7b360015f9054906101000a900473ffffffffffffffffffffffffffffffffffffffff16846040518363ffffffff1660e01b8152600401610ae8929190611851565b6020604051808303815f875af1158015610b04573d5f803e3d5ffd5b505050506040513d601f19601f82011682018060405250810190610b2891906118a2565b508273ffffffffffffffffffffffffffffffffffffffff1663095ea7b360015f9054906101000a900473ffffffffffffffffffffffffffffffffffffffff16836040518363ffffffff1660e01b8152600401610b85929190611851565b6020604051808303815f875af1158015610ba1573d5f803e3d5ffd5b505050506040513d601f19601f82011682018060405250810190610bc591906118a2565b5050505050565b5f7f01ffc9a7000000000000000000000000000000000000000000000000000000007bffffffffffffffffffffffffffffffffffffffffffffffffffffffff1916827bffffffffffffffffffffffffffffffffffffffffffffffffffffffff1916149050919050565b610c4681610c41610d32565b610e22565b50565b5f610c5483836105e3565b610d285760015f808581526020019081526020015f205f015f8473ffffffffffffffffffffffffffffffffffffffff1673ffffffffffffffffffffffffffffffffffffffff1681526020019081526020015f205f6101000a81548160ff021916908315150217905550610cc5610d32565b73ffffffffffffffffffffffffffffffffffffffff168273ffffffffffffffffffffffffffffffffffffffff16847f2f8788117e7eff1d82e926ec794901d17c78024a50270940304540a733656f0d60405160405180910390a460019050610d2c565b5f90505b92915050565b5f33905090565b5f610d4483836105e3565b15610e18575f805f8581526020019081526020015f205f015f8473ffffffffffffffffffffffffffffffffffffffff1673ffffffffffffffffffffffffffffffffffffffff1681526020019081526020015f205f6101000a81548160ff021916908315150217905550610db5610d32565b73ffffffffffffffffffffffffffffffffffffffff168273ffffffffffffffffffffffffffffffffffffffff16847ff6391f5c32d9c69d2a47ea670b442974b53935d1edc7fd64eb21e047a839171b60405160405180910390a460019050610e1c565b5f90505b92915050565b610e2c82826105e3565b610e6f5780826040517fe2517d3f000000000000000000000000000000000000000000000000000000008152600401610e669291906118cd565b60405180910390fd5b5050565b5f80fd5b5f7fffffffff0000000000000000000000000000000000000000000000000000000082169050919050565b610eab81610e77565b8114610eb5575f80fd5b50565b5f81359050610ec681610ea2565b92915050565b5f60208284031215610ee157610ee0610e73565b5b5f610eee84828501610eb8565b91505092915050565b5f8115159050919050565b610f0b81610ef7565b82525050565b5f602082019050610f245f830184610f02565b92915050565b5f819050919050565b610f3c81610f2a565b8114610f46575f80fd5b50565b5f81359050610f5781610f33565b92915050565b5f60208284031215610f7257610f71610e73565b5b5f610f7f84828501610f49565b91505092915050565b610f9181610f2a565b82525050565b5f602082019050610faa5f830184610f88565b92915050565b5f73ffffffffffffffffffffffffffffffffffffffff82169050919050565b5f610fd982610fb0565b9050919050565b610fe981610fcf565b8114610ff3575f80fd5b50565b5f8135905061100481610fe0565b92915050565b5f80604083850312156110205761101f610e73565b5b5f61102d85828601610f49565b925050602061103e85828601610ff6565b9150509250929050565b5f819050919050565b5f61106b61106661106184610fb0565b611048565b610fb0565b9050919050565b5f61107c82611051565b9050919050565b5f61108d82611072565b9050919050565b61109d81611083565b82525050565b5f6020820190506110b65f830184611094565b92915050565b5f62ffffff82169050919050565b6110d3816110bc565b81146110dd575f80fd5b50565b5f813590506110ee816110ca565b92915050565b6110fd81610fb0565b8114611107575f80fd5b50565b5f81359050611118816110f4565b92915050565b5f805f806080858703121561113657611135610e73565b5b5f61114387828801610ff6565b945050602061115487828801610ff6565b9350506040611165878288016110e0565b92505060606111768782880161110a565b91505092959194509250565b61118b81610fcf565b82525050565b5f6020820190506111a45f830184611182565b92915050565b5f819050919050565b6111bc816111aa565b81146111c6575f80fd5b50565b5f813590506111d7816111b3565b92915050565b5f8160020b9050919050565b6111f2816111dd565b81146111fc575f80fd5b50565b5f8135905061120d816111e9565b92915050565b5f805f805f805f60e0888a03121561122e5761122d610e73565b5b5f61123b8a828b01610ff6565b975050602061124c8a828b01610ff6565b965050604061125d8a828b016110e0565b955050606061126e8a828b016111c9565b945050608061127f8a828b016111c9565b93505060a06112908a828b016111ff565b92505060c06112a18a828b016111ff565b91505092959891949750929550565b6112b9816111aa565b82525050565b5f6fffffffffffffffffffffffffffffffff82169050919050565b6112e3816112bf565b82525050565b5f6080820190506112fc5f8301876112b0565b61130960208301866112da565b61131660408301856112b0565b61132360608301846112b0565b95945050505050565b5f61133682611072565b9050919050565b6113468161132c565b82525050565b5f60208201905061135f5f83018461133d565b92915050565b5f805f806080858703121561137d5761137c610e73565b5b5f61138a87828801610ff6565b945050602061139b87828801610ff6565b93505060406113ac878288016111c9565b92505060606113bd878288016111c9565b91505092959194509250565b6113d2816110bc565b82525050565b5f6060820190506113eb5f830186611182565b6113f86020830185611182565b61140560408301846113c9565b949350505050565b5f8151905061141b81610fe0565b92915050565b5f6020828403121561143657611435610e73565b5b5f6114438482850161140d565b91505092915050565b5f82825260208201905092915050565b7f506f6f6c20616c726561647920657869737473000000000000000000000000005f82015250565b5f61149060138361144c565b915061149b8261145c565b602082019050919050565b5f6020820190508181035f8301526114bd81611484565b9050919050565b6114cd81610fb0565b82525050565b5f6020820190506114e65f8301846114c4565b92915050565b5f815190506114fa816111b3565b92915050565b5f6020828403121561151557611514610e73565b5b5f611522848285016114ec565b91505092915050565b7f496e73756666696369656e7420546f6b656e41000000000000000000000000005f82015250565b5f61155f60138361144c565b915061156a8261152b565b602082019050919050565b5f6020820190508181035f83015261158c81611553565b9050919050565b7f496e73756666696369656e7420546f6b656e42000000000000000000000000005f82015250565b5f6115c760138361144c565b91506115d282611593565b602082019050919050565b5f6020820190508181035f8301526115f4816115bb565b9050919050565b7f4e487b71000000000000000000000000000000000000000000000000000000005f52601160045260245ffd5b5f611632826111aa565b915061163d836111aa565b9250828201905080821115611655576116546115fb565b5b92915050565b61166481610fcf565b82525050565b611673816110bc565b82525050565b611682816111dd565b82525050565b611691816111aa565b82525050565b61016082015f8201516116ac5f85018261165b565b5060208201516116bf602085018261165b565b5060408201516116d2604085018261166a565b5060608201516116e56060850182611679565b5060808201516116f86080850182611679565b5060a082015161170b60a0850182611688565b5060c082015161171e60c0850182611688565b5060e082015161173160e0850182611688565b50610100820151611746610100850182611688565b5061012082015161175b61012085018261165b565b50610140820151611770610140850182611688565b50505050565b5f6101608201905061178a5f830184611697565b92915050565b611799816112bf565b81146117a3575f80fd5b50565b5f815190506117b481611790565b92915050565b5f805f80608085870312156117d2576117d1610e73565b5b5f6117df878288016114ec565b94505060206117f0878288016117a6565b9350506040611801878288016114ec565b9250506060611812878288016114ec565b91505092959194509250565b5f611828826111aa565b9150611833836111aa565b925082820390508181111561184b5761184a6115fb565b5b92915050565b5f6040820190506118645f830185611182565b61187160208301846112b0565b9392505050565b61188181610ef7565b811461188b575f80fd5b50565b5f8151905061189c81611878565b92915050565b5f602082840312156118b7576118b6610e73565b5b5f6118c48482850161188e565b91505092915050565b5f6040820190506118e05f830185611182565b6118ed6020830184610f88565b939250505056fea26469706673582212202746b90d6488fee63cc53a1ddf1f3eff0c8214ec5407ec25de9921348485824f64736f6c634300081a0033",
					"opcodes": "PUSH1 0x80 PUSH1 0x40 MSTORE CALLVALUE DUP1 ISZERO PUSH2 0xF JUMPI PUSH0 DUP1 REVERT JUMPDEST POP PUSH1 0x40 MLOAD PUSH2 0x1A8B CODESIZE SUB DUP1 PUSH2 0x1A8B DUP4 CODECOPY DUP2 DUP2 ADD PUSH1 0x40 MSTORE DUP2 ADD SWAP1 PUSH2 0x31 SWAP2 SWAP1 PUSH2 0x116 JUMP JUMPDEST DUP2 PUSH1 0x1 PUSH0 PUSH2 0x100 EXP DUP2 SLOAD DUP2 PUSH20 0xFFFFFFFFFFFFFFFFFFFFFFFFFFFFFFFFFFFFFFFF MUL NOT AND SWAP1 DUP4 PUSH20 0xFFFFFFFFFFFFFFFFFFFFFFFFFFFFFFFFFFFFFFFF AND MUL OR SWAP1 SSTORE POP DUP1 PUSH1 0x2 PUSH0 PUSH2 0x100 EXP DUP2 SLOAD DUP2 PUSH20 0xFFFFFFFFFFFFFFFFFFFFFFFFFFFFFFFFFFFFFFFF MUL NOT AND SWAP1 DUP4 PUSH20 0xFFFFFFFFFFFFFFFFFFFFFFFFFFFFFFFFFFFFFFFF AND MUL OR SWAP1 SSTORE POP POP POP PUSH2 0x154 JUMP JUMPDEST PUSH0 DUP1 REVERT JUMPDEST PUSH0 PUSH20 0xFFFFFFFFFFFFFFFFFFFFFFFFFFFFFFFFFFFFFFFF DUP3 AND SWAP1 POP SWAP2 SWAP1 POP JUMP JUMPDEST PUSH0 PUSH2 0xE5 DUP3 PUSH2 0xBC JUMP JUMPDEST SWAP1 POP SWAP2 SWAP1 POP JUMP JUMPDEST PUSH2 0xF5 DUP2 PUSH2 0xDB JUMP JUMPDEST DUP2 EQ PUSH2 0xFF JUMPI PUSH0 DUP1 REVERT JUMPDEST POP JUMP JUMPDEST PUSH0 DUP2 MLOAD SWAP1 POP PUSH2 0x110 DUP2 PUSH2 0xEC JUMP JUMPDEST SWAP3 SWAP2 POP POP JUMP JUMPDEST PUSH0 DUP1 PUSH1 0x40 DUP4 DUP6 SUB SLT ISZERO PUSH2 0x12C JUMPI PUSH2 0x12B PUSH2 0xB8 JUMP JUMPDEST JUMPDEST PUSH0 PUSH2 0x139 DUP6 DUP3 DUP7 ADD PUSH2 0x102 JUMP JUMPDEST SWAP3 POP POP PUSH1 0x20 PUSH2 0x14A DUP6 DUP3 DUP7 ADD PUSH2 0x102 JUMP JUMPDEST SWAP2 POP POP SWAP3 POP SWAP3 SWAP1 POP JUMP JUMPDEST PUSH2 0x192A DUP1 PUSH2 0x161 PUSH0 CODECOPY PUSH0 RETURN INVALID PUSH1 0x80 PUSH1 0x40 MSTORE CALLVALUE DUP1 ISZERO PUSH2 0xF JUMPI PUSH0 DUP1 REVERT JUMPDEST POP PUSH1 0x4 CALLDATASIZE LT PUSH2 0xB2 JUMPI PUSH0 CALLDATALOAD PUSH1 0xE0 SHR DUP1 PUSH4 0x91D14854 GT PUSH2 0x6F JUMPI DUP1 PUSH4 0x91D14854 EQ PUSH2 0x19C JUMPI DUP1 PUSH4 0xA217FDDF EQ PUSH2 0x1CC JUMPI DUP1 PUSH4 0xAFBCE84E EQ PUSH2 0x1EA JUMPI DUP1 PUSH4 0xC45A0155 EQ PUSH2 0x21D JUMPI DUP1 PUSH4 0xD547741F EQ PUSH2 0x23B JUMPI DUP1 PUSH4 0xECF4DAA7 EQ PUSH2 0x257 JUMPI PUSH2 0xB2 JUMP JUMPDEST DUP1 PUSH4 0x1FFC9A7 EQ PUSH2 0xB6 JUMPI DUP1 PUSH4 0x248A9CA3 EQ PUSH2 0xE6 JUMPI DUP1 PUSH4 0x2F2FF15D EQ PUSH2 0x116 JUMPI DUP1 PUSH4 0x36568ABE EQ PUSH2 0x132 JUMPI DUP1 PUSH4 0x791B98BC EQ PUSH2 0x14E JUMPI DUP1 PUSH4 0x8E909E51 EQ PUSH2 0x16C JUMPI JUMPDEST PUSH0 DUP1 REVERT JUMPDEST PUSH2 0xD0 PUSH1 0x4 DUP1 CALLDATASIZE SUB DUP2 ADD SWAP1 PUSH2 0xCB SWAP2 SWAP1 PUSH2 0xECC JUMP JUMPDEST PUSH2 0x273 JUMP JUMPDEST PUSH1 0x40 MLOAD PUSH2 0xDD SWAP2 SWAP1 PUSH2 0xF11 JUMP JUMPDEST PUSH1 0x40 MLOAD DUP1 SWAP2 SUB SWAP1 RETURN JUMPDEST PUSH2 0x100 PUSH1 0x4 DUP1 CALLDATASIZE SUB DUP2 ADD SWAP1 PUSH2 0xFB SWAP2 SWAP1 PUSH2 0xF5D JUMP JUMPDEST PUSH2 0x2EC JUMP JUMPDEST PUSH1 0x40 MLOAD PUSH2 0x10D SWAP2 SWAP1 PUSH2 0xF97 JUMP JUMPDEST PUSH1 0x40 MLOAD DUP1 SWAP2 SUB SWAP1 RETURN JUMPDEST PUSH2 0x130 PUSH1 0x4 DUP1 CALLDATASIZE SUB DUP2 ADD SWAP1 PUSH2 0x12B SWAP2 SWAP1 PUSH2 0x100A JUMP JUMPDEST PUSH2 0x308 JUMP JUMPDEST STOP JUMPDEST PUSH2 0x14C PUSH1 0x4 DUP1 CALLDATASIZE SUB DUP2 ADD SWAP1 PUSH2 0x147 SWAP2 SWAP1 PUSH2 0x100A JUMP JUMPDEST PUSH2 0x32A JUMP JUMPDEST STOP JUMPDEST PUSH2 0x156 PUSH2 0x3A5 JUMP JUMPDEST PUSH1 0x40 MLOAD PUSH2 0x163 SWAP2 SWAP1 PUSH2 0x10A3 JUMP JUMPDEST PUSH1 0x40 MLOAD DUP1 SWAP2 SUB SWAP1 RETURN JUMPDEST PUSH2 0x186 PUSH1 0x4 DUP1 CALLDATASIZE SUB DUP2 ADD SWAP1 PUSH2 0x181 SWAP2 SWAP1 PUSH2 0x111E JUMP JUMPDEST PUSH2 0x3CA JUMP JUMPDEST PUSH1 0x40 MLOAD PUSH2 0x193 SWAP2 SWAP1 PUSH2 0x1191 JUMP JUMPDEST PUSH1 0x40 MLOAD DUP1 SWAP2 SUB SWAP1 RETURN JUMPDEST PUSH2 0x1B6 PUSH1 0x4 DUP1 CALLDATASIZE SUB DUP2 ADD SWAP1 PUSH2 0x1B1 SWAP2 SWAP1 PUSH2 0x100A JUMP JUMPDEST PUSH2 0x5E3 JUMP JUMPDEST PUSH1 0x40 MLOAD PUSH2 0x1C3 SWAP2 SWAP1 PUSH2 0xF11 JUMP JUMPDEST PUSH1 0x40 MLOAD DUP1 SWAP2 SUB SWAP1 RETURN JUMPDEST PUSH2 0x1D4 PUSH2 0x646 JUMP JUMPDEST PUSH1 0x40 MLOAD PUSH2 0x1E1 SWAP2 SWAP1 PUSH2 0xF97 JUMP JUMPDEST PUSH1 0x40 MLOAD DUP1 SWAP2 SUB SWAP1 RETURN JUMPDEST PUSH2 0x204 PUSH1 0x4 DUP1 CALLDATASIZE SUB DUP2 ADD SWAP1 PUSH2 0x1FF SWAP2 SWAP1 PUSH2 0x1213 JUMP JUMPDEST PUSH2 0x64C JUMP JUMPDEST PUSH1 0x40 MLOAD PUSH2 0x214 SWAP5 SWAP4 SWAP3 SWAP2 SWAP1 PUSH2 0x12E9 JUMP JUMPDEST PUSH1 0x40 MLOAD DUP1 SWAP2 SUB SWAP1 RETURN JUMPDEST PUSH2 0x225 PUSH2 0xA45 JUMP JUMPDEST PUSH1 0x40 MLOAD PUSH2 0x232 SWAP2 SWAP1 PUSH2 0x134C JUMP JUMPDEST PUSH1 0x40 MLOAD DUP1 SWAP2 SUB SWAP1 RETURN JUMPDEST PUSH2 0x255 PUSH1 0x4 DUP1 CALLDATASIZE SUB DUP2 ADD SWAP1 PUSH2 0x250 SWAP2 SWAP1 PUSH2 0x100A JUMP JUMPDEST PUSH2 0xA6A JUMP JUMPDEST STOP JUMPDEST PUSH2 0x271 PUSH1 0x4 DUP1 CALLDATASIZE SUB DUP2 ADD SWAP1 PUSH2 0x26C SWAP2 SWAP1 PUSH2 0x1365 JUMP JUMPDEST PUSH2 0xA8C JUMP JUMPDEST STOP JUMPDEST PUSH0 PUSH32 0x7965DB0B00000000000000000000000000000000000000000000000000000000 PUSH28 0xFFFFFFFFFFFFFFFFFFFFFFFFFFFFFFFFFFFFFFFFFFFFFFFFFFFFFFFF NOT AND DUP3 PUSH28 0xFFFFFFFFFFFFFFFFFFFFFFFFFFFFFFFFFFFFFFFFFFFFFFFFFFFFFFFF NOT AND EQ DUP1 PUSH2 0x2E5 JUMPI POP PUSH2 0x2E4 DUP3 PUSH2 0xBCC JUMP JUMPDEST JUMPDEST SWAP1 POP SWAP2 SWAP1 POP JUMP JUMPDEST PUSH0 DUP1 PUSH0 DUP4 DUP2 MSTORE PUSH1 0x20 ADD SWAP1 DUP2 MSTORE PUSH1 0x20 ADD PUSH0 KECCAK256 PUSH1 0x1 ADD SLOAD SWAP1 POP SWAP2 SWAP1 POP JUMP JUMPDEST PUSH2 0x311 DUP3 PUSH2 0x2EC JUMP JUMPDEST PUSH2 0x31A DUP2 PUSH2 0xC35 JUMP JUMPDEST PUSH2 0x324 DUP4 DUP4 PUSH2 0xC49 JUMP JUMPDEST POP POP POP POP JUMP JUMPDEST PUSH2 0x332 PUSH2 0xD32 JUMP JUMPDEST PUSH20 0xFFFFFFFFFFFFFFFFFFFFFFFFFFFFFFFFFFFFFFFF AND DUP2 PUSH20 0xFFFFFFFFFFFFFFFFFFFFFFFFFFFFFFFFFFFFFFFF AND EQ PUSH2 0x396 JUMPI PUSH1 0x40 MLOAD PUSH32 0x6697B23200000000000000000000000000000000000000000000000000000000 DUP2 MSTORE PUSH1 0x4 ADD PUSH1 0x40 MLOAD DUP1 SWAP2 SUB SWAP1 REVERT JUMPDEST PUSH2 0x3A0 DUP3 DUP3 PUSH2 0xD39 JUMP JUMPDEST POP POP POP JUMP JUMPDEST PUSH1 0x1 PUSH0 SWAP1 SLOAD SWAP1 PUSH2 0x100 EXP SWAP1 DIV PUSH20 0xFFFFFFFFFFFFFFFFFFFFFFFFFFFFFFFFFFFFFFFF AND DUP2 JUMP JUMPDEST PUSH0 DUP1 PUSH20 0xFFFFFFFFFFFFFFFFFFFFFFFFFFFFFFFFFFFFFFFF AND PUSH1 0x2 PUSH0 SWAP1 SLOAD SWAP1 PUSH2 0x100 EXP SWAP1 DIV PUSH20 0xFFFFFFFFFFFFFFFFFFFFFFFFFFFFFFFFFFFFFFFF AND PUSH20 0xFFFFFFFFFFFFFFFFFFFFFFFFFFFFFFFFFFFFFFFF AND PUSH4 0x1698EE82 DUP8 DUP8 DUP8 PUSH1 0x40 MLOAD DUP5 PUSH4 0xFFFFFFFF AND PUSH1 0xE0 SHL DUP2 MSTORE PUSH1 0x4 ADD PUSH2 0x440 SWAP4 SWAP3 SWAP2 SWAP1 PUSH2 0x13D8 JUMP JUMPDEST PUSH1 0x20 PUSH1 0x40 MLOAD DUP1 DUP4 SUB DUP2 DUP7 GAS STATICCALL ISZERO DUP1 ISZERO PUSH2 0x45B JUMPI RETURNDATASIZE PUSH0 DUP1 RETURNDATACOPY RETURNDATASIZE PUSH0 REVERT JUMPDEST POP POP POP POP PUSH1 0x40 MLOAD RETURNDATASIZE PUSH1 0x1F NOT PUSH1 0x1F DUP3 ADD AND DUP3 ADD DUP1 PUSH1 0x40 MSTORE POP DUP2 ADD SWAP1 PUSH2 0x47F SWAP2 SWAP1 PUSH2 0x1421 JUMP JUMPDEST PUSH20 0xFFFFFFFFFFFFFFFFFFFFFFFFFFFFFFFFFFFFFFFF AND EQ PUSH2 0x4D5 JUMPI PUSH1 0x40 MLOAD PUSH32 0x8C379A000000000000000000000000000000000000000000000000000000000 DUP2 MSTORE PUSH1 0x4 ADD PUSH2 0x4CC SWAP1 PUSH2 0x14A6 JUMP JUMPDEST PUSH1 0x40 MLOAD DUP1 SWAP2 SUB SWAP1 REVERT JUMPDEST PUSH1 0x2 PUSH0 SWAP1 SLOAD SWAP1 PUSH2 0x100 EXP SWAP1 DIV PUSH20 0xFFFFFFFFFFFFFFFFFFFFFFFFFFFFFFFFFFFFFFFF AND PUSH20 0xFFFFFFFFFFFFFFFFFFFFFFFFFFFFFFFFFFFFFFFF AND PUSH4 0xA1671295 DUP7 DUP7 DUP7 PUSH1 0x40 MLOAD DUP5 PUSH4 0xFFFFFFFF AND PUSH1 0xE0 SHL DUP2 MSTORE PUSH1 0x4 ADD PUSH2 0x533 SWAP4 SWAP3 SWAP2 SWAP1 PUSH2 0x13D8 JUMP JUMPDEST PUSH1 0x20 PUSH1 0x40 MLOAD DUP1 DUP4 SUB DUP2 PUSH0 DUP8 GAS CALL ISZERO DUP1 ISZERO PUSH2 0x54F JUMPI RETURNDATASIZE PUSH0 DUP1 RETURNDATACOPY RETURNDATASIZE PUSH0 REVERT JUMPDEST POP POP POP POP PUSH1 0x40 MLOAD RETURNDATASIZE PUSH1 0x1F NOT PUSH1 0x1F DUP3 ADD AND DUP3 ADD DUP1 PUSH1 0x40 MSTORE POP DUP2 ADD SWAP1 PUSH2 0x573 SWAP2 SWAP1 PUSH2 0x1421 JUMP JUMPDEST SWAP1 POP DUP1 PUSH20 0xFFFFFFFFFFFFFFFFFFFFFFFFFFFFFFFFFFFFFFFF AND PUSH4 0xF637731D DUP4 PUSH1 0x40 MLOAD DUP3 PUSH4 0xFFFFFFFF AND PUSH1 0xE0 SHL DUP2 MSTORE PUSH1 0x4 ADD PUSH2 0x5AE SWAP2 SWAP1 PUSH2 0x14D3 JUMP JUMPDEST PUSH0 PUSH1 0x40 MLOAD DUP1 DUP4 SUB DUP2 PUSH0 DUP8 DUP1 EXTCODESIZE ISZERO DUP1 ISZERO PUSH2 0x5C5 JUMPI PUSH0 DUP1 REVERT JUMPDEST POP GAS CALL ISZERO DUP1 ISZERO PUSH2 0x5D7 JUMPI RETURNDATASIZE PUSH0 DUP1 RETURNDATACOPY RETURNDATASIZE PUSH0 REVERT JUMPDEST POP POP POP POP SWAP5 SWAP4 POP POP POP POP JUMP JUMPDEST PUSH0 DUP1 PUSH0 DUP5 DUP2 MSTORE PUSH1 0x20 ADD SWAP1 DUP2 MSTORE PUSH1 0x20 ADD PUSH0 KECCAK256 PUSH0 ADD PUSH0 DUP4 PUSH20 0xFFFFFFFFFFFFFFFFFFFFFFFFFFFFFFFFFFFFFFFF AND PUSH20 0xFFFFFFFFFFFFFFFFFFFFFFFFFFFFFFFFFFFFFFFF AND DUP2 MSTORE PUSH1 0x20 ADD SWAP1 DUP2 MSTORE PUSH1 0x20 ADD PUSH0 KECCAK256 PUSH0 SWAP1 SLOAD SWAP1 PUSH2 0x100 EXP SWAP1 DIV PUSH1 0xFF AND SWAP1 POP SWAP3 SWAP2 POP POP JUMP JUMPDEST PUSH0 DUP1 SHL DUP2 JUMP JUMPDEST PUSH0 DUP1 PUSH0 DUP1 DUP8 DUP12 PUSH20 0xFFFFFFFFFFFFFFFFFFFFFFFFFFFFFFFFFFFFFFFF AND PUSH4 0x70A08231 ADDRESS PUSH1 0x40 MLOAD DUP3 PUSH4 0xFFFFFFFF AND PUSH1 0xE0 SHL DUP2 MSTORE PUSH1 0x4 ADD PUSH2 0x68A SWAP2 SWAP1 PUSH2 0x1191 JUMP JUMPDEST PUSH1 0x20 PUSH1 0x40 MLOAD DUP1 DUP4 SUB DUP2 DUP7 GAS STATICCALL ISZERO DUP1 ISZERO PUSH2 0x6A5 JUMPI RETURNDATASIZE PUSH0 DUP1 RETURNDATACOPY RETURNDATASIZE PUSH0 REVERT JUMPDEST POP POP POP POP PUSH1 0x40 MLOAD RETURNDATASIZE PUSH1 0x1F NOT PUSH1 0x1F DUP3 ADD AND DUP3 ADD DUP1 PUSH1 0x40 MSTORE POP DUP2 ADD SWAP1 PUSH2 0x6C9 SWAP2 SWAP1 PUSH2 0x1500 JUMP JUMPDEST LT ISZERO PUSH2 0x70A JUMPI PUSH1 0x40 MLOAD PUSH32 0x8C379A000000000000000000000000000000000000000000000000000000000 DUP2 MSTORE PUSH1 0x4 ADD PUSH2 0x701 SWAP1 PUSH2 0x1575 JUMP JUMPDEST PUSH1 0x40 MLOAD DUP1 SWAP2 SUB SWAP1 REVERT JUMPDEST DUP7 DUP11 PUSH20 0xFFFFFFFFFFFFFFFFFFFFFFFFFFFFFFFFFFFFFFFF AND PUSH4 0x70A08231 ADDRESS PUSH1 0x40 MLOAD DUP3 PUSH4 0xFFFFFFFF AND PUSH1 0xE0 SHL DUP2 MSTORE PUSH1 0x4 ADD PUSH2 0x744 SWAP2 SWAP1 PUSH2 0x1191 JUMP JUMPDEST PUSH1 0x20 PUSH1 0x40 MLOAD DUP1 DUP4 SUB DUP2 DUP7 GAS STATICCALL ISZERO DUP1 ISZERO PUSH2 0x75F JUMPI RETURNDATASIZE PUSH0 DUP1 RETURNDATACOPY RETURNDATASIZE PUSH0 REVERT JUMPDEST POP POP POP POP PUSH1 0x40 MLOAD RETURNDATASIZE PUSH1 0x1F NOT PUSH1 0x1F DUP3 ADD AND DUP3 ADD DUP1 PUSH1 0x40 MSTORE POP DUP2 ADD SWAP1 PUSH2 0x783 SWAP2 SWAP1 PUSH2 0x1500 JUMP JUMPDEST LT ISZERO PUSH2 0x7C4 JUMPI PUSH1 0x40 MLOAD PUSH32 0x8C379A000000000000000000000000000000000000000000000000000000000 DUP2 MSTORE PUSH1 0x4 ADD PUSH2 0x7BB SWAP1 PUSH2 0x15DD JUMP JUMPDEST PUSH1 0x40 MLOAD DUP1 SWAP2 SUB SWAP1 REVERT JUMPDEST PUSH0 PUSH1 0x40 MLOAD DUP1 PUSH2 0x160 ADD PUSH1 0x40 MSTORE DUP1 DUP14 PUSH20 0xFFFFFFFFFFFFFFFFFFFFFFFFFFFFFFFFFFFFFFFF AND DUP2 MSTORE PUSH1 0x20 ADD DUP13 PUSH20 0xFFFFFFFFFFFFFFFFFFFFFFFFFFFFFFFFFFFFFFFF AND DUP2 MSTORE PUSH1 0x20 ADD DUP12 PUSH3 0xFFFFFF AND DUP2 MSTORE PUSH1 0x20 ADD DUP9 PUSH1 0x2 SIGNEXTEND DUP2 MSTORE PUSH1 0x20 ADD DUP8 PUSH1 0x2 SIGNEXTEND DUP2 MSTORE PUSH1 0x20 ADD DUP11 DUP2 MSTORE PUSH1 0x20 ADD DUP10 DUP2 MSTORE PUSH1 0x20 ADD PUSH0 DUP2 MSTORE PUSH1 0x20 ADD PUSH0 DUP2 MSTORE PUSH1 0x20 ADD CALLER PUSH20 0xFFFFFFFFFFFFFFFFFFFFFFFFFFFFFFFFFFFFFFFF AND DUP2 MSTORE PUSH1 0x20 ADD PUSH1 0x78 TIMESTAMP PUSH2 0x867 SWAP2 SWAP1 PUSH2 0x1628 JUMP JUMPDEST DUP2 MSTORE POP SWAP1 POP PUSH1 0x1 PUSH0 SWAP1 SLOAD SWAP1 PUSH2 0x100 EXP SWAP1 DIV PUSH20 0xFFFFFFFFFFFFFFFFFFFFFFFFFFFFFFFFFFFFFFFF AND PUSH20 0xFFFFFFFFFFFFFFFFFFFFFFFFFFFFFFFFFFFFFFFF AND PUSH4 0x88316456 DUP3 PUSH1 0x40 MLOAD DUP3 PUSH4 0xFFFFFFFF AND PUSH1 0xE0 SHL DUP2 MSTORE PUSH1 0x4 ADD PUSH2 0x8C6 SWAP2 SWAP1 PUSH2 0x1776 JUMP JUMPDEST PUSH1 0x80 PUSH1 0x40 MLOAD DUP1 DUP4 SUB DUP2 PUSH0 DUP8 GAS CALL ISZERO DUP1 ISZERO PUSH2 0x8E2 JUMPI RETURNDATASIZE PUSH0 DUP1 RETURNDATACOPY RETURNDATASIZE PUSH0 REVERT JUMPDEST POP POP POP POP PUSH1 0x40 MLOAD RETURNDATASIZE PUSH1 0x1F NOT PUSH1 0x1F DUP3 ADD AND DUP3 ADD DUP1 PUSH1 0x40 MSTORE POP DUP2 ADD SWAP1 PUSH2 0x906 SWAP2 SWAP1 PUSH2 0x17BA JUMP JUMPDEST DUP1 SWAP6 POP DUP2 SWAP7 POP DUP3 SWAP8 POP DUP4 SWAP9 POP POP POP POP POP DUP3 DUP10 GT ISZERO PUSH2 0x9A6 JUMPI DUP12 PUSH20 0xFFFFFFFFFFFFFFFFFFFFFFFFFFFFFFFFFFFFFFFF AND PUSH4 0xA9059CBB CALLER DUP6 DUP13 PUSH2 0x947 SWAP2 SWAP1 PUSH2 0x181E JUMP JUMPDEST PUSH1 0x40 MLOAD DUP4 PUSH4 0xFFFFFFFF AND PUSH1 0xE0 SHL DUP2 MSTORE PUSH1 0x4 ADD PUSH2 0x964 SWAP3 SWAP2 SWAP1 PUSH2 0x1851 JUMP JUMPDEST PUSH1 0x20 PUSH1 0x40 MLOAD DUP1 DUP4 SUB DUP2 PUSH0 DUP8 GAS CALL ISZERO DUP1 ISZERO PUSH2 0x980 JUMPI RETURNDATASIZE PUSH0 DUP1 RETURNDATACOPY RETURNDATASIZE PUSH0 REVERT JUMPDEST POP POP POP POP PUSH1 0x40 MLOAD RETURNDATASIZE PUSH1 0x1F NOT PUSH1 0x1F DUP3 ADD AND DUP3 ADD DUP1 PUSH1 0x40 MSTORE POP DUP2 ADD SWAP1 PUSH2 0x9A4 SWAP2 SWAP1 PUSH2 0x18A2 JUMP JUMPDEST POP JUMPDEST DUP2 DUP9 GT ISZERO PUSH2 0xA36 JUMPI DUP11 PUSH20 0xFFFFFFFFFFFFFFFFFFFFFFFFFFFFFFFFFFFFFFFF AND PUSH4 0xA9059CBB CALLER DUP5 DUP12 PUSH2 0x9D7 SWAP2 SWAP1 PUSH2 0x181E JUMP JUMPDEST PUSH1 0x40 MLOAD DUP4 PUSH4 0xFFFFFFFF AND PUSH1 0xE0 SHL DUP2 MSTORE PUSH1 0x4 ADD PUSH2 0x9F4 SWAP3 SWAP2 SWAP1 PUSH2 0x1851 JUMP JUMPDEST PUSH1 0x20 PUSH1 0x40 MLOAD DUP1 DUP4 SUB DUP2 PUSH0 DUP8 GAS CALL ISZERO DUP1 ISZERO PUSH2 0xA10 JUMPI RETURNDATASIZE PUSH0 DUP1 RETURNDATACOPY RETURNDATASIZE PUSH0 REVERT JUMPDEST POP POP POP POP PUSH1 0x40 MLOAD RETURNDATASIZE PUSH1 0x1F NOT PUSH1 0x1F DUP3 ADD AND DUP3 ADD DUP1 PUSH1 0x40 MSTORE POP DUP2 ADD SWAP1 PUSH2 0xA34 SWAP2 SWAP1 PUSH2 0x18A2 JUMP JUMPDEST POP JUMPDEST POP SWAP8 POP SWAP8 POP SWAP8 POP SWAP8 SWAP4 POP POP POP POP JUMP JUMPDEST PUSH1 0x2 PUSH0 SWAP1 SLOAD SWAP1 PUSH2 0x100 EXP SWAP1 DIV PUSH20 0xFFFFFFFFFFFFFFFFFFFFFFFFFFFFFFFFFFFFFFFF AND DUP2 JUMP JUMPDEST PUSH2 0xA73 DUP3 PUSH2 0x2EC JUMP JUMPDEST PUSH2 0xA7C DUP2 PUSH2 0xC35 JUMP JUMPDEST PUSH2 0xA86 DUP4 DUP4 PUSH2 0xD39 JUMP JUMPDEST POP POP POP POP JUMP JUMPDEST DUP4 PUSH20 0xFFFFFFFFFFFFFFFFFFFFFFFFFFFFFFFFFFFFFFFF AND PUSH4 0x95EA7B3 PUSH1 0x1 PUSH0 SWAP1 SLOAD SWAP1 PUSH2 0x100 EXP SWAP1 DIV PUSH20 0xFFFFFFFFFFFFFFFFFFFFFFFFFFFFFFFFFFFFFFFF AND DUP5 PUSH1 0x40 MLOAD DUP4 PUSH4 0xFFFFFFFF AND PUSH1 0xE0 SHL DUP2 MSTORE PUSH1 0x4 ADD PUSH2 0xAE8 SWAP3 SWAP2 SWAP1 PUSH2 0x1851 JUMP JUMPDEST PUSH1 0x20 PUSH1 0x40 MLOAD DUP1 DUP4 SUB DUP2 PUSH0 DUP8 GAS CALL ISZERO DUP1 ISZERO PUSH2 0xB04 JUMPI RETURNDATASIZE PUSH0 DUP1 RETURNDATACOPY RETURNDATASIZE PUSH0 REVERT JUMPDEST POP POP POP POP PUSH1 0x40 MLOAD RETURNDATASIZE PUSH1 0x1F NOT PUSH1 0x1F DUP3 ADD AND DUP3 ADD DUP1 PUSH1 0x40 MSTORE POP DUP2 ADD SWAP1 PUSH2 0xB28 SWAP2 SWAP1 PUSH2 0x18A2 JUMP JUMPDEST POP DUP3 PUSH20 0xFFFFFFFFFFFFFFFFFFFFFFFFFFFFFFFFFFFFFFFF AND PUSH4 0x95EA7B3 PUSH1 0x1 PUSH0 SWAP1 SLOAD SWAP1 PUSH2 0x100 EXP SWAP1 DIV PUSH20 0xFFFFFFFFFFFFFFFFFFFFFFFFFFFFFFFFFFFFFFFF AND DUP4 PUSH1 0x40 MLOAD DUP4 PUSH4 0xFFFFFFFF AND PUSH1 0xE0 SHL DUP2 MSTORE PUSH1 0x4 ADD PUSH2 0xB85 SWAP3 SWAP2 SWAP1 PUSH2 0x1851 JUMP JUMPDEST PUSH1 0x20 PUSH1 0x40 MLOAD DUP1 DUP4 SUB DUP2 PUSH0 DUP8 GAS CALL ISZERO DUP1 ISZERO PUSH2 0xBA1 JUMPI RETURNDATASIZE PUSH0 DUP1 RETURNDATACOPY RETURNDATASIZE PUSH0 REVERT JUMPDEST POP POP POP POP PUSH1 0x40 MLOAD RETURNDATASIZE PUSH1 0x1F NOT PUSH1 0x1F DUP3 ADD AND DUP3 ADD DUP1 PUSH1 0x40 MSTORE POP DUP2 ADD SWAP1 PUSH2 0xBC5 SWAP2 SWAP1 PUSH2 0x18A2 JUMP JUMPDEST POP POP POP POP POP JUMP JUMPDEST PUSH0 PUSH32 0x1FFC9A700000000000000000000000000000000000000000000000000000000 PUSH28 0xFFFFFFFFFFFFFFFFFFFFFFFFFFFFFFFFFFFFFFFFFFFFFFFFFFFFFFFF NOT AND DUP3 PUSH28 0xFFFFFFFFFFFFFFFFFFFFFFFFFFFFFFFFFFFFFFFFFFFFFFFFFFFFFFFF NOT AND EQ SWAP1 POP SWAP2 SWAP1 POP JUMP JUMPDEST PUSH2 0xC46 DUP2 PUSH2 0xC41 PUSH2 0xD32 JUMP JUMPDEST PUSH2 0xE22 JUMP JUMPDEST POP JUMP JUMPDEST PUSH0 PUSH2 0xC54 DUP4 DUP4 PUSH2 0x5E3 JUMP JUMPDEST PUSH2 0xD28 JUMPI PUSH1 0x1 PUSH0 DUP1 DUP6 DUP2 MSTORE PUSH1 0x20 ADD SWAP1 DUP2 MSTORE PUSH1 0x20 ADD PUSH0 KECCAK256 PUSH0 ADD PUSH0 DUP5 PUSH20 0xFFFFFFFFFFFFFFFFFFFFFFFFFFFFFFFFFFFFFFFF AND PUSH20 0xFFFFFFFFFFFFFFFFFFFFFFFFFFFFFFFFFFFFFFFF AND DUP2 MSTORE PUSH1 0x20 ADD SWAP1 DUP2 MSTORE PUSH1 0x20 ADD PUSH0 KECCAK256 PUSH0 PUSH2 0x100 EXP DUP2 SLOAD DUP2 PUSH1 0xFF MUL NOT AND SWAP1 DUP4 ISZERO ISZERO MUL OR SWAP1 SSTORE POP PUSH2 0xCC5 PUSH2 0xD32 JUMP JUMPDEST PUSH20 0xFFFFFFFFFFFFFFFFFFFFFFFFFFFFFFFFFFFFFFFF AND DUP3 PUSH20 0xFFFFFFFFFFFFFFFFFFFFFFFFFFFFFFFFFFFFFFFF AND DUP5 PUSH32 0x2F8788117E7EFF1D82E926EC794901D17C78024A50270940304540A733656F0D PUSH1 0x40 MLOAD PUSH1 0x40 MLOAD DUP1 SWAP2 SUB SWAP1 LOG4 PUSH1 0x1 SWAP1 POP PUSH2 0xD2C JUMP JUMPDEST PUSH0 SWAP1 POP JUMPDEST SWAP3 SWAP2 POP POP JUMP JUMPDEST PUSH0 CALLER SWAP1 POP SWAP1 JUMP JUMPDEST PUSH0 PUSH2 0xD44 DUP4 DUP4 PUSH2 0x5E3 JUMP JUMPDEST ISZERO PUSH2 0xE18 JUMPI PUSH0 DUP1 PUSH0 DUP6 DUP2 MSTORE PUSH1 0x20 ADD SWAP1 DUP2 MSTORE PUSH1 0x20 ADD PUSH0 KECCAK256 PUSH0 ADD PUSH0 DUP5 PUSH20 0xFFFFFFFFFFFFFFFFFFFFFFFFFFFFFFFFFFFFFFFF AND PUSH20 0xFFFFFFFFFFFFFFFFFFFFFFFFFFFFFFFFFFFFFFFF AND DUP2 MSTORE PUSH1 0x20 ADD SWAP1 DUP2 MSTORE PUSH1 0x20 ADD PUSH0 KECCAK256 PUSH0 PUSH2 0x100 EXP DUP2 SLOAD DUP2 PUSH1 0xFF MUL NOT AND SWAP1 DUP4 ISZERO ISZERO MUL OR SWAP1 SSTORE POP PUSH2 0xDB5 PUSH2 0xD32 JUMP JUMPDEST PUSH20 0xFFFFFFFFFFFFFFFFFFFFFFFFFFFFFFFFFFFFFFFF AND DUP3 PUSH20 0xFFFFFFFFFFFFFFFFFFFFFFFFFFFFFFFFFFFFFFFF AND DUP5 PUSH32 0xF6391F5C32D9C69D2A47EA670B442974B53935D1EDC7FD64EB21E047A839171B PUSH1 0x40 MLOAD PUSH1 0x40 MLOAD DUP1 SWAP2 SUB SWAP1 LOG4 PUSH1 0x1 SWAP1 POP PUSH2 0xE1C JUMP JUMPDEST PUSH0 SWAP1 POP JUMPDEST SWAP3 SWAP2 POP POP JUMP JUMPDEST PUSH2 0xE2C DUP3 DUP3 PUSH2 0x5E3 JUMP JUMPDEST PUSH2 0xE6F JUMPI DUP1 DUP3 PUSH1 0x40 MLOAD PUSH32 0xE2517D3F00000000000000000000000000000000000000000000000000000000 DUP2 MSTORE PUSH1 0x4 ADD PUSH2 0xE66 SWAP3 SWAP2 SWAP1 PUSH2 0x18CD JUMP JUMPDEST PUSH1 0x40 MLOAD DUP1 SWAP2 SUB SWAP1 REVERT JUMPDEST POP POP JUMP JUMPDEST PUSH0 DUP1 REVERT JUMPDEST PUSH0 PUSH32 0xFFFFFFFF00000000000000000000000000000000000000000000000000000000 DUP3 AND SWAP1 POP SWAP2 SWAP1 POP JUMP JUMPDEST PUSH2 0xEAB DUP2 PUSH2 0xE77 JUMP JUMPDEST DUP2 EQ PUSH2 0xEB5 JUMPI PUSH0 DUP1 REVERT JUMPDEST POP JUMP JUMPDEST PUSH0 DUP2 CALLDATALOAD SWAP1 POP PUSH2 0xEC6 DUP2 PUSH2 0xEA2 JUMP JUMPDEST SWAP3 SWAP2 POP POP JUMP JUMPDEST PUSH0 PUSH1 0x20 DUP3 DUP5 SUB SLT ISZERO PUSH2 0xEE1 JUMPI PUSH2 0xEE0 PUSH2 0xE73 JUMP JUMPDEST JUMPDEST PUSH0 PUSH2 0xEEE DUP5 DUP3 DUP6 ADD PUSH2 0xEB8 JUMP JUMPDEST SWAP2 POP POP SWAP3 SWAP2 POP POP JUMP JUMPDEST PUSH0 DUP2 ISZERO ISZERO SWAP1 POP SWAP2 SWAP1 POP JUMP JUMPDEST PUSH2 0xF0B DUP2 PUSH2 0xEF7 JUMP JUMPDEST DUP3 MSTORE POP POP JUMP JUMPDEST PUSH0 PUSH1 0x20 DUP3 ADD SWAP1 POP PUSH2 0xF24 PUSH0 DUP4 ADD DUP5 PUSH2 0xF02 JUMP JUMPDEST SWAP3 SWAP2 POP POP JUMP JUMPDEST PUSH0 DUP2 SWAP1 POP SWAP2 SWAP1 POP JUMP JUMPDEST PUSH2 0xF3C DUP2 PUSH2 0xF2A JUMP JUMPDEST DUP2 EQ PUSH2 0xF46 JUMPI PUSH0 DUP1 REVERT JUMPDEST POP JUMP JUMPDEST PUSH0 DUP2 CALLDATALOAD SWAP1 POP PUSH2 0xF57 DUP2 PUSH2 0xF33 JUMP JUMPDEST SWAP3 SWAP2 POP POP JUMP JUMPDEST PUSH0 PUSH1 0x20 DUP3 DUP5 SUB SLT ISZERO PUSH2 0xF72 JUMPI PUSH2 0xF71 PUSH2 0xE73 JUMP JUMPDEST JUMPDEST PUSH0 PUSH2 0xF7F DUP5 DUP3 DUP6 ADD PUSH2 0xF49 JUMP JUMPDEST SWAP2 POP POP SWAP3 SWAP2 POP POP JUMP JUMPDEST PUSH2 0xF91 DUP2 PUSH2 0xF2A JUMP JUMPDEST DUP3 MSTORE POP POP JUMP JUMPDEST PUSH0 PUSH1 0x20 DUP3 ADD SWAP1 POP PUSH2 0xFAA PUSH0 DUP4 ADD DUP5 PUSH2 0xF88 JUMP JUMPDEST SWAP3 SWAP2 POP POP JUMP JUMPDEST PUSH0 PUSH20 0xFFFFFFFFFFFFFFFFFFFFFFFFFFFFFFFFFFFFFFFF DUP3 AND SWAP1 POP SWAP2 SWAP1 POP JUMP JUMPDEST PUSH0 PUSH2 0xFD9 DUP3 PUSH2 0xFB0 JUMP JUMPDEST SWAP1 POP SWAP2 SWAP1 POP JUMP JUMPDEST PUSH2 0xFE9 DUP2 PUSH2 0xFCF JUMP JUMPDEST DUP2 EQ PUSH2 0xFF3 JUMPI PUSH0 DUP1 REVERT JUMPDEST POP JUMP JUMPDEST PUSH0 DUP2 CALLDATALOAD SWAP1 POP PUSH2 0x1004 DUP2 PUSH2 0xFE0 JUMP JUMPDEST SWAP3 SWAP2 POP POP JUMP JUMPDEST PUSH0 DUP1 PUSH1 0x40 DUP4 DUP6 SUB SLT ISZERO PUSH2 0x1020 JUMPI PUSH2 0x101F PUSH2 0xE73 JUMP JUMPDEST JUMPDEST PUSH0 PUSH2 0x102D DUP6 DUP3 DUP7 ADD PUSH2 0xF49 JUMP JUMPDEST SWAP3 POP POP PUSH1 0x20 PUSH2 0x103E DUP6 DUP3 DUP7 ADD PUSH2 0xFF6 JUMP JUMPDEST SWAP2 POP POP SWAP3 POP SWAP3 SWAP1 POP JUMP JUMPDEST PUSH0 DUP2 SWAP1 POP SWAP2 SWAP1 POP JUMP JUMPDEST PUSH0 PUSH2 0x106B PUSH2 0x1066 PUSH2 0x1061 DUP5 PUSH2 0xFB0 JUMP JUMPDEST PUSH2 0x1048 JUMP JUMPDEST PUSH2 0xFB0 JUMP JUMPDEST SWAP1 POP SWAP2 SWAP1 POP JUMP JUMPDEST PUSH0 PUSH2 0x107C DUP3 PUSH2 0x1051 JUMP JUMPDEST SWAP1 POP SWAP2 SWAP1 POP JUMP JUMPDEST PUSH0 PUSH2 0x108D DUP3 PUSH2 0x1072 JUMP JUMPDEST SWAP1 POP SWAP2 SWAP1 POP JUMP JUMPDEST PUSH2 0x109D DUP2 PUSH2 0x1083 JUMP JUMPDEST DUP3 MSTORE POP POP JUMP JUMPDEST PUSH0 PUSH1 0x20 DUP3 ADD SWAP1 POP PUSH2 0x10B6 PUSH0 DUP4 ADD DUP5 PUSH2 0x1094 JUMP JUMPDEST SWAP3 SWAP2 POP POP JUMP JUMPDEST PUSH0 PUSH3 0xFFFFFF DUP3 AND SWAP1 POP SWAP2 SWAP1 POP JUMP JUMPDEST PUSH2 0x10D3 DUP2 PUSH2 0x10BC JUMP JUMPDEST DUP2 EQ PUSH2 0x10DD JUMPI PUSH0 DUP1 REVERT JUMPDEST POP JUMP JUMPDEST PUSH0 DUP2 CALLDATALOAD SWAP1 POP PUSH2 0x10EE DUP2 PUSH2 0x10CA JUMP JUMPDEST SWAP3 SWAP2 POP POP JUMP JUMPDEST PUSH2 0x10FD DUP2 PUSH2 0xFB0 JUMP JUMPDEST DUP2 EQ PUSH2 0x1107 JUMPI PUSH0 DUP1 REVERT JUMPDEST POP JUMP JUMPDEST PUSH0 DUP2 CALLDATALOAD SWAP1 POP PUSH2 0x1118 DUP2 PUSH2 0x10F4 JUMP JUMPDEST SWAP3 SWAP2 POP POP JUMP JUMPDEST PUSH0 DUP1 PUSH0 DUP1 PUSH1 0x80 DUP6 DUP8 SUB SLT ISZERO PUSH2 0x1136 JUMPI PUSH2 0x1135 PUSH2 0xE73 JUMP JUMPDEST JUMPDEST PUSH0 PUSH2 0x1143 DUP8 DUP3 DUP9 ADD PUSH2 0xFF6 JUMP JUMPDEST SWAP5 POP POP PUSH1 0x20 PUSH2 0x1154 DUP8 DUP3 DUP9 ADD PUSH2 0xFF6 JUMP JUMPDEST SWAP4 POP POP PUSH1 0x40 PUSH2 0x1165 DUP8 DUP3 DUP9 ADD PUSH2 0x10E0 JUMP JUMPDEST SWAP3 POP POP PUSH1 0x60 PUSH2 0x1176 DUP8 DUP3 DUP9 ADD PUSH2 0x110A JUMP JUMPDEST SWAP2 POP POP SWAP3 SWAP6 SWAP2 SWAP5 POP SWAP3 POP JUMP JUMPDEST PUSH2 0x118B DUP2 PUSH2 0xFCF JUMP JUMPDEST DUP3 MSTORE POP POP JUMP JUMPDEST PUSH0 PUSH1 0x20 DUP3 ADD SWAP1 POP PUSH2 0x11A4 PUSH0 DUP4 ADD DUP5 PUSH2 0x1182 JUMP JUMPDEST SWAP3 SWAP2 POP POP JUMP JUMPDEST PUSH0 DUP2 SWAP1 POP SWAP2 SWAP1 POP JUMP JUMPDEST PUSH2 0x11BC DUP2 PUSH2 0x11AA JUMP JUMPDEST DUP2 EQ PUSH2 0x11C6 JUMPI PUSH0 DUP1 REVERT JUMPDEST POP JUMP JUMPDEST PUSH0 DUP2 CALLDATALOAD SWAP1 POP PUSH2 0x11D7 DUP2 PUSH2 0x11B3 JUMP JUMPDEST SWAP3 SWAP2 POP POP JUMP JUMPDEST PUSH0 DUP2 PUSH1 0x2 SIGNEXTEND SWAP1 POP SWAP2 SWAP1 POP JUMP JUMPDEST PUSH2 0x11F2 DUP2 PUSH2 0x11DD JUMP JUMPDEST DUP2 EQ PUSH2 0x11FC JUMPI PUSH0 DUP1 REVERT JUMPDEST POP JUMP JUMPDEST PUSH0 DUP2 CALLDATALOAD SWAP1 POP PUSH2 0x120D DUP2 PUSH2 0x11E9 JUMP JUMPDEST SWAP3 SWAP2 POP POP JUMP JUMPDEST PUSH0 DUP1 PUSH0 DUP1 PUSH0 DUP1 PUSH0 PUSH1 0xE0 DUP9 DUP11 SUB SLT ISZERO PUSH2 0x122E JUMPI PUSH2 0x122D PUSH2 0xE73 JUMP JUMPDEST JUMPDEST PUSH0 PUSH2 0x123B DUP11 DUP3 DUP12 ADD PUSH2 0xFF6 JUMP JUMPDEST SWAP8 POP POP PUSH1 0x20 PUSH2 0x124C DUP11 DUP3 DUP12 ADD PUSH2 0xFF6 JUMP JUMPDEST SWAP7 POP POP PUSH1 0x40 PUSH2 0x125D DUP11 DUP3 DUP12 ADD PUSH2 0x10E0 JUMP JUMPDEST SWAP6 POP POP PUSH1 0x60 PUSH2 0x126E DUP11 DUP3 DUP12 ADD PUSH2 0x11C9 JUMP JUMPDEST SWAP5 POP POP PUSH1 0x80 PUSH2 0x127F DUP11 DUP3 DUP12 ADD PUSH2 0x11C9 JUMP JUMPDEST SWAP4 POP POP PUSH1 0xA0 PUSH2 0x1290 DUP11 DUP3 DUP12 ADD PUSH2 0x11FF JUMP JUMPDEST SWAP3 POP POP PUSH1 0xC0 PUSH2 0x12A1 DUP11 DUP3 DUP12 ADD PUSH2 0x11FF JUMP JUMPDEST SWAP2 POP POP SWAP3 SWAP6 SWAP9 SWAP2 SWAP5 SWAP8 POP SWAP3 SWAP6 POP JUMP JUMPDEST PUSH2 0x12B9 DUP2 PUSH2 0x11AA JUMP JUMPDEST DUP3 MSTORE POP POP JUMP JUMPDEST PUSH0 PUSH16 0xFFFFFFFFFFFFFFFFFFFFFFFFFFFFFFFF DUP3 AND SWAP1 POP SWAP2 SWAP1 POP JUMP JUMPDEST PUSH2 0x12E3 DUP2 PUSH2 0x12BF JUMP JUMPDEST DUP3 MSTORE POP POP JUMP JUMPDEST PUSH0 PUSH1 0x80 DUP3 ADD SWAP1 POP PUSH2 0x12FC PUSH0 DUP4 ADD DUP8 PUSH2 0x12B0 JUMP JUMPDEST PUSH2 0x1309 PUSH1 0x20 DUP4 ADD DUP7 PUSH2 0x12DA JUMP JUMPDEST PUSH2 0x1316 PUSH1 0x40 DUP4 ADD DUP6 PUSH2 0x12B0 JUMP JUMPDEST PUSH2 0x1323 PUSH1 0x60 DUP4 ADD DUP5 PUSH2 0x12B0 JUMP JUMPDEST SWAP6 SWAP5 POP POP POP POP POP JUMP JUMPDEST PUSH0 PUSH2 0x1336 DUP3 PUSH2 0x1072 JUMP JUMPDEST SWAP1 POP SWAP2 SWAP1 POP JUMP JUMPDEST PUSH2 0x1346 DUP2 PUSH2 0x132C JUMP JUMPDEST DUP3 MSTORE POP POP JUMP JUMPDEST PUSH0 PUSH1 0x20 DUP3 ADD SWAP1 POP PUSH2 0x135F PUSH0 DUP4 ADD DUP5 PUSH2 0x133D JUMP JUMPDEST SWAP3 SWAP2 POP POP JUMP JUMPDEST PUSH0 DUP1 PUSH0 DUP1 PUSH1 0x80 DUP6 DUP8 SUB SLT ISZERO PUSH2 0x137D JUMPI PUSH2 0x137C PUSH2 0xE73 JUMP JUMPDEST JUMPDEST PUSH0 PUSH2 0x138A DUP8 DUP3 DUP9 ADD PUSH2 0xFF6 JUMP JUMPDEST SWAP5 POP POP PUSH1 0x20 PUSH2 0x139B DUP8 DUP3 DUP9 ADD PUSH2 0xFF6 JUMP JUMPDEST SWAP4 POP POP PUSH1 0x40 PUSH2 0x13AC DUP8 DUP3 DUP9 ADD PUSH2 0x11C9 JUMP JUMPDEST SWAP3 POP POP PUSH1 0x60 PUSH2 0x13BD DUP8 DUP3 DUP9 ADD PUSH2 0x11C9 JUMP JUMPDEST SWAP2 POP POP SWAP3 SWAP6 SWAP2 SWAP5 POP SWAP3 POP JUMP JUMPDEST PUSH2 0x13D2 DUP2 PUSH2 0x10BC JUMP JUMPDEST DUP3 MSTORE POP POP JUMP JUMPDEST PUSH0 PUSH1 0x60 DUP3 ADD SWAP1 POP PUSH2 0x13EB PUSH0 DUP4 ADD DUP7 PUSH2 0x1182 JUMP JUMPDEST PUSH2 0x13F8 PUSH1 0x20 DUP4 ADD DUP6 PUSH2 0x1182 JUMP JUMPDEST PUSH2 0x1405 PUSH1 0x40 DUP4 ADD DUP5 PUSH2 0x13C9 JUMP JUMPDEST SWAP5 SWAP4 POP POP POP POP JUMP JUMPDEST PUSH0 DUP2 MLOAD SWAP1 POP PUSH2 0x141B DUP2 PUSH2 0xFE0 JUMP JUMPDEST SWAP3 SWAP2 POP POP JUMP JUMPDEST PUSH0 PUSH1 0x20 DUP3 DUP5 SUB SLT ISZERO PUSH2 0x1436 JUMPI PUSH2 0x1435 PUSH2 0xE73 JUMP JUMPDEST JUMPDEST PUSH0 PUSH2 0x1443 DUP5 DUP3 DUP6 ADD PUSH2 0x140D JUMP JUMPDEST SWAP2 POP POP SWAP3 SWAP2 POP POP JUMP JUMPDEST PUSH0 DUP3 DUP3 MSTORE PUSH1 0x20 DUP3 ADD SWAP1 POP SWAP3 SWAP2 POP POP JUMP JUMPDEST PUSH32 0x506F6F6C20616C72656164792065786973747300000000000000000000000000 PUSH0 DUP3 ADD MSTORE POP JUMP JUMPDEST PUSH0 PUSH2 0x1490 PUSH1 0x13 DUP4 PUSH2 0x144C JUMP JUMPDEST SWAP2 POP PUSH2 0x149B DUP3 PUSH2 0x145C JUMP JUMPDEST PUSH1 0x20 DUP3 ADD SWAP1 POP SWAP2 SWAP1 POP JUMP JUMPDEST PUSH0 PUSH1 0x20 DUP3 ADD SWAP1 POP DUP2 DUP2 SUB PUSH0 DUP4 ADD MSTORE PUSH2 0x14BD DUP2 PUSH2 0x1484 JUMP JUMPDEST SWAP1 POP SWAP2 SWAP1 POP JUMP JUMPDEST PUSH2 0x14CD DUP2 PUSH2 0xFB0 JUMP JUMPDEST DUP3 MSTORE POP POP JUMP JUMPDEST PUSH0 PUSH1 0x20 DUP3 ADD SWAP1 POP PUSH2 0x14E6 PUSH0 DUP4 ADD DUP5 PUSH2 0x14C4 JUMP JUMPDEST SWAP3 SWAP2 POP POP JUMP JUMPDEST PUSH0 DUP2 MLOAD SWAP1 POP PUSH2 0x14FA DUP2 PUSH2 0x11B3 JUMP JUMPDEST SWAP3 SWAP2 POP POP JUMP JUMPDEST PUSH0 PUSH1 0x20 DUP3 DUP5 SUB SLT ISZERO PUSH2 0x1515 JUMPI PUSH2 0x1514 PUSH2 0xE73 JUMP JUMPDEST JUMPDEST PUSH0 PUSH2 0x1522 DUP5 DUP3 DUP6 ADD PUSH2 0x14EC JUMP JUMPDEST SWAP2 POP POP SWAP3 SWAP2 POP POP JUMP JUMPDEST PUSH32 0x496E73756666696369656E7420546F6B656E4100000000000000000000000000 PUSH0 DUP3 ADD MSTORE POP JUMP JUMPDEST PUSH0 PUSH2 0x155F PUSH1 0x13 DUP4 PUSH2 0x144C JUMP JUMPDEST SWAP2 POP PUSH2 0x156A DUP3 PUSH2 0x152B JUMP JUMPDEST PUSH1 0x20 DUP3 ADD SWAP1 POP SWAP2 SWAP1 POP JUMP JUMPDEST PUSH0 PUSH1 0x20 DUP3 ADD SWAP1 POP DUP2 DUP2 SUB PUSH0 DUP4 ADD MSTORE PUSH2 0x158C DUP2 PUSH2 0x1553 JUMP JUMPDEST SWAP1 POP SWAP2 SWAP1 POP JUMP JUMPDEST PUSH32 0x496E73756666696369656E7420546F6B656E4200000000000000000000000000 PUSH0 DUP3 ADD MSTORE POP JUMP JUMPDEST PUSH0 PUSH2 0x15C7 PUSH1 0x13 DUP4 PUSH2 0x144C JUMP JUMPDEST SWAP2 POP PUSH2 0x15D2 DUP3 PUSH2 0x1593 JUMP JUMPDEST PUSH1 0x20 DUP3 ADD SWAP1 POP SWAP2 SWAP1 POP JUMP JUMPDEST PUSH0 PUSH1 0x20 DUP3 ADD SWAP1 POP DUP2 DUP2 SUB PUSH0 DUP4 ADD MSTORE PUSH2 0x15F4 DUP2 PUSH2 0x15BB JUMP JUMPDEST SWAP1 POP SWAP2 SWAP1 POP JUMP JUMPDEST PUSH32 0x4E487B7100000000000000000000000000000000000000000000000000000000 PUSH0 MSTORE PUSH1 0x11 PUSH1 0x4 MSTORE PUSH1 0x24 PUSH0 REVERT JUMPDEST PUSH0 PUSH2 0x1632 DUP3 PUSH2 0x11AA JUMP JUMPDEST SWAP2 POP PUSH2 0x163D DUP4 PUSH2 0x11AA JUMP JUMPDEST SWAP3 POP DUP3 DUP3 ADD SWAP1 POP DUP1 DUP3 GT ISZERO PUSH2 0x1655 JUMPI PUSH2 0x1654 PUSH2 0x15FB JUMP JUMPDEST JUMPDEST SWAP3 SWAP2 POP POP JUMP JUMPDEST PUSH2 0x1664 DUP2 PUSH2 0xFCF JUMP JUMPDEST DUP3 MSTORE POP POP JUMP JUMPDEST PUSH2 0x1673 DUP2 PUSH2 0x10BC JUMP JUMPDEST DUP3 MSTORE POP POP JUMP JUMPDEST PUSH2 0x1682 DUP2 PUSH2 0x11DD JUMP JUMPDEST DUP3 MSTORE POP POP JUMP JUMPDEST PUSH2 0x1691 DUP2 PUSH2 0x11AA JUMP JUMPDEST DUP3 MSTORE POP POP JUMP JUMPDEST PUSH2 0x160 DUP3 ADD PUSH0 DUP3 ADD MLOAD PUSH2 0x16AC PUSH0 DUP6 ADD DUP3 PUSH2 0x165B JUMP JUMPDEST POP PUSH1 0x20 DUP3 ADD MLOAD PUSH2 0x16BF PUSH1 0x20 DUP6 ADD DUP3 PUSH2 0x165B JUMP JUMPDEST POP PUSH1 0x40 DUP3 ADD MLOAD PUSH2 0x16D2 PUSH1 0x40 DUP6 ADD DUP3 PUSH2 0x166A JUMP JUMPDEST POP PUSH1 0x60 DUP3 ADD MLOAD PUSH2 0x16E5 PUSH1 0x60 DUP6 ADD DUP3 PUSH2 0x1679 JUMP JUMPDEST POP PUSH1 0x80 DUP3 ADD MLOAD PUSH2 0x16F8 PUSH1 0x80 DUP6 ADD DUP3 PUSH2 0x1679 JUMP JUMPDEST POP PUSH1 0xA0 DUP3 ADD MLOAD PUSH2 0x170B PUSH1 0xA0 DUP6 ADD DUP3 PUSH2 0x1688 JUMP JUMPDEST POP PUSH1 0xC0 DUP3 ADD MLOAD PUSH2 0x171E PUSH1 0xC0 DUP6 ADD DUP3 PUSH2 0x1688 JUMP JUMPDEST POP PUSH1 0xE0 DUP3 ADD MLOAD PUSH2 0x1731 PUSH1 0xE0 DUP6 ADD DUP3 PUSH2 0x1688 JUMP JUMPDEST POP PUSH2 0x100 DUP3 ADD MLOAD PUSH2 0x1746 PUSH2 0x100 DUP6 ADD DUP3 PUSH2 0x1688 JUMP JUMPDEST POP PUSH2 0x120 DUP3 ADD MLOAD PUSH2 0x175B PUSH2 0x120 DUP6 ADD DUP3 PUSH2 0x165B JUMP JUMPDEST POP PUSH2 0x140 DUP3 ADD MLOAD PUSH2 0x1770 PUSH2 0x140 DUP6 ADD DUP3 PUSH2 0x1688 JUMP JUMPDEST POP POP POP POP JUMP JUMPDEST PUSH0 PUSH2 0x160 DUP3 ADD SWAP1 POP PUSH2 0x178A PUSH0 DUP4 ADD DUP5 PUSH2 0x1697 JUMP JUMPDEST SWAP3 SWAP2 POP POP JUMP JUMPDEST PUSH2 0x1799 DUP2 PUSH2 0x12BF JUMP JUMPDEST DUP2 EQ PUSH2 0x17A3 JUMPI PUSH0 DUP1 REVERT JUMPDEST POP JUMP JUMPDEST PUSH0 DUP2 MLOAD SWAP1 POP PUSH2 0x17B4 DUP2 PUSH2 0x1790 JUMP JUMPDEST SWAP3 SWAP2 POP POP JUMP JUMPDEST PUSH0 DUP1 PUSH0 DUP1 PUSH1 0x80 DUP6 DUP8 SUB SLT ISZERO PUSH2 0x17D2 JUMPI PUSH2 0x17D1 PUSH2 0xE73 JUMP JUMPDEST JUMPDEST PUSH0 PUSH2 0x17DF DUP8 DUP3 DUP9 ADD PUSH2 0x14EC JUMP JUMPDEST SWAP5 POP POP PUSH1 0x20 PUSH2 0x17F0 DUP8 DUP3 DUP9 ADD PUSH2 0x17A6 JUMP JUMPDEST SWAP4 POP POP PUSH1 0x40 PUSH2 0x1801 DUP8 DUP3 DUP9 ADD PUSH2 0x14EC JUMP JUMPDEST SWAP3 POP POP PUSH1 0x60 PUSH2 0x1812 DUP8 DUP3 DUP9 ADD PUSH2 0x14EC JUMP JUMPDEST SWAP2 POP POP SWAP3 SWAP6 SWAP2 SWAP5 POP SWAP3 POP JUMP JUMPDEST PUSH0 PUSH2 0x1828 DUP3 PUSH2 0x11AA JUMP JUMPDEST SWAP2 POP PUSH2 0x1833 DUP4 PUSH2 0x11AA JUMP JUMPDEST SWAP3 POP DUP3 DUP3 SUB SWAP1 POP DUP2 DUP2 GT ISZERO PUSH2 0x184B JUMPI PUSH2 0x184A PUSH2 0x15FB JUMP JUMPDEST JUMPDEST SWAP3 SWAP2 POP POP JUMP JUMPDEST PUSH0 PUSH1 0x40 DUP3 ADD SWAP1 POP PUSH2 0x1864 PUSH0 DUP4 ADD DUP6 PUSH2 0x1182 JUMP JUMPDEST PUSH2 0x1871 PUSH1 0x20 DUP4 ADD DUP5 PUSH2 0x12B0 JUMP JUMPDEST SWAP4 SWAP3 POP POP POP JUMP JUMPDEST PUSH2 0x1881 DUP2 PUSH2 0xEF7 JUMP JUMPDEST DUP2 EQ PUSH2 0x188B JUMPI PUSH0 DUP1 REVERT JUMPDEST POP JUMP JUMPDEST PUSH0 DUP2 MLOAD SWAP1 POP PUSH2 0x189C DUP2 PUSH2 0x1878 JUMP JUMPDEST SWAP3 SWAP2 POP POP JUMP JUMPDEST PUSH0 PUSH1 0x20 DUP3 DUP5 SUB SLT ISZERO PUSH2 0x18B7 JUMPI PUSH2 0x18B6 PUSH2 0xE73 JUMP JUMPDEST JUMPDEST PUSH0 PUSH2 0x18C4 DUP5 DUP3 DUP6 ADD PUSH2 0x188E JUMP JUMPDEST SWAP2 POP POP SWAP3 SWAP2 POP POP JUMP JUMPDEST PUSH0 PUSH1 0x40 DUP3 ADD SWAP1 POP PUSH2 0x18E0 PUSH0 DUP4 ADD DUP6 PUSH2 0x1182 JUMP JUMPDEST PUSH2 0x18ED PUSH1 0x20 DUP4 ADD DUP5 PUSH2 0xF88 JUMP JUMPDEST SWAP4 SWAP3 POP POP POP JUMP INVALID LOG2 PUSH5 0x6970667358 0x22 SLT KECCAK256 0x27 CHAINID 0xB9 0xD PUSH5 0x88FEE63CC5 GASPRICE SAR 0xDF 0x1F RETURNDATACOPY SELFDESTRUCT 0xC DUP3 EQ 0xEC SLOAD SMOD 0xEC 0x25 0xDE SWAP10 0x21 CALLVALUE DUP5 DUP6 DUP3 0x4F PUSH5 0x736F6C6343 STOP ADDMOD BYTE STOP CALLER "
				},
				"gasEstimates": {
					"creation": {
						"codeDepositCost": "1288400",
						"executionCost": "infinite",
						"totalCost": "infinite"
					},
					"external": {
						"DEFAULT_ADMIN_ROLE()": "352",
						"addLiquidity(address,address,uint24,uint256,uint256,int24,int24)": "infinite",
						"approveTokens(address,address,uint256,uint256)": "infinite",
						"createPool(address,address,uint24,uint160)": "infinite",
						"factory()": "infinite",
						"getRoleAdmin(bytes32)": "infinite",
						"grantRole(bytes32,address)": "infinite",
						"hasRole(bytes32,address)": "3122",
						"positionManager()": "infinite",
						"renounceRole(bytes32,address)": "infinite",
						"revokeRole(bytes32,address)": "infinite",
						"supportsInterface(bytes4)": "718"
					}
				},
				"methodIdentifiers": {
					"DEFAULT_ADMIN_ROLE()": "a217fddf",
					"addLiquidity(address,address,uint24,uint256,uint256,int24,int24)": "afbce84e",
					"approveTokens(address,address,uint256,uint256)": "ecf4daa7",
					"createPool(address,address,uint24,uint160)": "8e909e51",
					"factory()": "c45a0155",
					"getRoleAdmin(bytes32)": "248a9ca3",
					"grantRole(bytes32,address)": "2f2ff15d",
					"hasRole(bytes32,address)": "91d14854",
					"positionManager()": "791b98bc",
					"renounceRole(bytes32,address)": "36568abe",
					"revokeRole(bytes32,address)": "d547741f",
					"supportsInterface(bytes4)": "01ffc9a7"
				}
			},
			"storageLayout": {
				"storage": [
					{
						"astId": 26,
						"contract": "src/LiquidityPoolManager.sol:UniswapV3LiquidityManager",
						"label": "_roles",
						"offset": 0,
						"slot": "0",
						"type": "t_mapping(t_bytes32,t_struct(RoleData)21_storage)"
					},
					{
						"astId": 1667,
						"contract": "src/LiquidityPoolManager.sol:UniswapV3LiquidityManager",
						"label": "positionManager",
						"offset": 0,
						"slot": "1",
						"type": "t_contract(INonfungiblePositionManager)1496"
					},
					{
						"astId": 1670,
						"contract": "src/LiquidityPoolManager.sol:UniswapV3LiquidityManager",
						"label": "factory",
						"offset": 0,
						"slot": "2",
						"type": "t_contract(IUniswapV3Factory)782"
					}
				],
				"types": {
					"t_address": {
						"encoding": "inplace",
						"label": "address",
						"numberOfBytes": "20"
					},
					"t_bool": {
						"encoding": "inplace",
						"label": "bool",
						"numberOfBytes": "1"
					},
					"t_bytes32": {
						"encoding": "inplace",
						"label": "bytes32",
						"numberOfBytes": "32"
					},
					"t_contract(INonfungiblePositionManager)1496": {
						"encoding": "inplace",
						"label": "contract INonfungiblePositionManager",
						"numberOfBytes": "20"
					},
					"t_contract(IUniswapV3Factory)782": {
						"encoding": "inplace",
						"label": "contract IUniswapV3Factory",
						"numberOfBytes": "20"
					},
					"t_mapping(t_address,t_bool)": {
						"encoding": "mapping",
						"key": "t_address",
						"label": "mapping(address => bool)",
						"numberOfBytes": "32",
						"value": "t_bool"
					},
					"t_mapping(t_bytes32,t_struct(RoleData)21_storage)": {
						"encoding": "mapping",
						"key": "t_bytes32",
						"label": "mapping(bytes32 => struct AccessControl.RoleData)",
						"numberOfBytes": "32",
						"value": "t_struct(RoleData)21_storage"
					},
					"t_struct(RoleData)21_storage": {
						"encoding": "inplace",
						"label": "struct AccessControl.RoleData",
						"members": [
							{
								"astId": 18,
								"contract": "src/LiquidityPoolManager.sol:UniswapV3LiquidityManager",
								"label": "hasRole",
								"offset": 0,
								"slot": "0",
								"type": "t_mapping(t_address,t_bool)"
							},
							{
								"astId": 20,
								"contract": "src/LiquidityPoolManager.sol:UniswapV3LiquidityManager",
								"label": "adminRole",
								"offset": 0,
								"slot": "1",
								"type": "t_bytes32"
							}
						],
						"numberOfBytes": "64"
					}
				}
			},
			"userdoc": {
				"kind": "user",
				"methods": {
					"addLiquidity(address,address,uint24,uint256,uint256,int24,int24)": {
						"notice": "Adds liquidity to the specified pool, creating a new position NFT"
					},
					"approveTokens(address,address,uint256,uint256)": {
						"notice": "Approve tokens for the Uniswap position manager"
					},
					"createPool(address,address,uint24,uint160)": {
						"notice": "Create the Uniswap V3 pool for the specified token pair and fee tier if it doesn’t exist, then return its address"
					}
				},
				"version": 1
			}
		}
	}
}