{
	"data": {
		"bytecode": {
			"linkReferences": {},
			"object": "60866032600b8282823980515f1a607314602657634e487b7160e01b5f525f60045260245ffd5b305f52607381538281f3fe73000000000000000000000000000000000000000030146080604052600436106032575f3560e01c8063126082cf146036575b5f80fd5b603e61271081565b60405190815260200160405180910390f3fea26469706673582212203a4288b5f1acde05c216e993c25dacef845a4bfcbf28748e080631181902275564736f6c634300081a0033",
			"opcodes": "PUSH1 0x86 PUSH1 0x32 PUSH1 0xB DUP3 DUP3 DUP3 CODECOPY DUP1 MLOAD PUSH0 BYTE PUSH1 0x73 EQ PUSH1 0x26 JUMPI PUSH4 0x4E487B71 PUSH1 0xE0 SHL PUSH0 MSTORE PUSH0 PUSH1 0x4 MSTORE PUSH1 0x24 PUSH0 REVERT JUMPDEST ADDRESS PUSH0 MSTORE PUSH1 0x73 DUP2 MSTORE8 DUP3 DUP2 RETURN INVALID PUSH20 0x0 ADDRESS EQ PUSH1 0x80 PUSH1 0x40 MSTORE PUSH1 0x4 CALLDATASIZE LT PUSH1 0x32 JUMPI PUSH0 CALLDATALOAD PUSH1 0xE0 SHR DUP1 PUSH4 0x126082CF EQ PUSH1 0x36 JUMPI JUMPDEST PUSH0 DUP1 REVERT JUMPDEST PUSH1 0x3E PUSH2 0x2710 DUP2 JUMP JUMPDEST PUSH1 0x40 MLOAD SWAP1 DUP2 MSTORE PUSH1 0x20 ADD PUSH1 0x40 MLOAD DUP1 SWAP2 SUB SWAP1 RETURN INVALID LOG2 PUSH5 0x6970667358 0x22 SLT KECCAK256 GASPRICE TIMESTAMP DUP9 0xB5 CALL 0xAC 0xDE SDIV 0xC2 AND 0xE9 SWAP4 0xC2 TSTORE 0xAC 0xEF DUP5 GAS 0x4B 0xFC 0xBF 0x28 PUSH21 0x8E080631181902275564736F6C634300081A003300 "
		},
		"gasEstimates": {
			"creation": {
				"codeDepositCost": "26800",
				"executionCost": "108",
				"totalCost": "26908"
			},
			"external": {
				"BASIS_POINTS_DIVISOR()": "144"
			},
			"internal": {
				"distributeFees(struct LiquidityPool storage pointer,uint256)": "infinite"
			}
		},
		"methodIdentifiers": {
			"BASIS_POINTS_DIVISOR()": "126082cf"
		}
	},
	"abi": [
		{
			"inputs": [],
			"name": "BASIS_POINTS_DIVISOR",
			"outputs": [
				{
					"internalType": "uint256",
					"name": "",
					"type": "uint256"
				}
			],
			"stateMutability": "view",
			"type": "function"
		}
	]
}