{
	"data": {
		"bytecode": {
			"linkReferences": {},
			"object": "60b961004c600b8282823980515f1a6073146040577f4e487b71000000000000000000000000000000000000000000000000000000005f525f60045260245ffd5b305f52607381538281f3fe73000000000000000000000000000000000000000030146080604052600436106032575f3560e01c8063126082cf146036575b5f80fd5b603c6050565b60405160479190606c565b60405180910390f35b61271081565b5f819050919050565b6066816056565b82525050565b5f602082019050607d5f830184605f565b9291505056fea26469706673582212209c8c10cc12f13fc959bbd449cf1f759a9922a1540f0e3a4d7d8a5f8e76d19baf64736f6c634300081a0033",
			"opcodes": "PUSH1 0xB9 PUSH2 0x4C PUSH1 0xB DUP3 DUP3 DUP3 CODECOPY DUP1 MLOAD PUSH0 BYTE PUSH1 0x73 EQ PUSH1 0x40 JUMPI PUSH32 0x4E487B7100000000000000000000000000000000000000000000000000000000 PUSH0 MSTORE PUSH0 PUSH1 0x4 MSTORE PUSH1 0x24 PUSH0 REVERT JUMPDEST ADDRESS PUSH0 MSTORE PUSH1 0x73 DUP2 MSTORE8 DUP3 DUP2 RETURN INVALID PUSH20 0x0 ADDRESS EQ PUSH1 0x80 PUSH1 0x40 MSTORE PUSH1 0x4 CALLDATASIZE LT PUSH1 0x32 JUMPI PUSH0 CALLDATALOAD PUSH1 0xE0 SHR DUP1 PUSH4 0x126082CF EQ PUSH1 0x36 JUMPI JUMPDEST PUSH0 DUP1 REVERT JUMPDEST PUSH1 0x3C PUSH1 0x50 JUMP JUMPDEST PUSH1 0x40 MLOAD PUSH1 0x47 SWAP2 SWAP1 PUSH1 0x6C JUMP JUMPDEST PUSH1 0x40 MLOAD DUP1 SWAP2 SUB SWAP1 RETURN JUMPDEST PUSH2 0x2710 DUP2 JUMP JUMPDEST PUSH0 DUP2 SWAP1 POP SWAP2 SWAP1 POP JUMP JUMPDEST PUSH1 0x66 DUP2 PUSH1 0x56 JUMP JUMPDEST DUP3 MSTORE POP POP JUMP JUMPDEST PUSH0 PUSH1 0x20 DUP3 ADD SWAP1 POP PUSH1 0x7D PUSH0 DUP4 ADD DUP5 PUSH1 0x5F JUMP JUMPDEST SWAP3 SWAP2 POP POP JUMP INVALID LOG2 PUSH5 0x6970667358 0x22 SLT KECCAK256 SWAP13 DUP13 LT 0xCC SLT CALL EXTCODEHASH 0xC9 MSIZE 0xBB 0xD4 BLOBHASH 0xCF 0x1F PUSH22 0x9A9922A1540F0E3A4D7D8A5F8E76D19BAF64736F6C63 NUMBER STOP ADDMOD BYTE STOP CALLER "
		},
		"gasEstimates": {
			"creation": {
				"codeDepositCost": "37000",
				"executionCost": "113",
				"totalCost": "37113"
			},
			"external": {
				"BASIS_POINTS_DIVISOR()": "287"
			},
			"internal": {
				"distributeFees(struct LiquidityPool storage pointer,uint256)": "infinite"
			}
		},
		"methodIdentifiers": {
			"BASIS_POINTS_DIVISOR()": "126082cf"
		}
	},
	"abi": [
		{
			"inputs": [],
			"name": "BASIS_POINTS_DIVISOR",
			"outputs": [
				{
					"internalType": "uint256",
					"name": "",
					"type": "uint256"
				}
			],
			"stateMutability": "view",
			"type": "function"
		}
	]
}