{
	"data": {
		"bytecode": {
			"linkReferences": {},
			"object": "6080604052348015600e575f80fd5b50615bd08061001c5f395ff3fe608060405234801561000f575f80fd5b5060043610610034575f3560e01c806341d1de9714610038578063e7b8064a14610068575b5f80fd5b610052600480360381019061004d919061050f565b610098565b60405161005f9190610579565b60405180910390f35b610082600480360381019061007d91906107ba565b6100d2565b60405161008f9190610579565b60405180910390f35b5f81815481106100a6575f80fd5b905f5260205f20015f915054906101000a900473ffffffffffffffffffffffffffffffffffffffff1681565b5f8089898989896040516100e5906104be565b6100f395949392919061095e565b604051809103905ff08015801561010c573d5f803e3d5ffd5b5090508073ffffffffffffffffffffffffffffffffffffffff16632f2ff15d8273ffffffffffffffffffffffffffffffffffffffff1663a217fddf6040518163ffffffff1660e01b8152600401602060405180830381865afa158015610174573d5f803e3d5ffd5b505050506040513d601f19601f8201168201806040525081019061019891906109e2565b336040518363ffffffff1660e01b81526004016101b6929190610a1c565b5f604051808303815f87803b1580156101cd575f80fd5b505af11580156101df573d5f803e3d5ffd5b505050508073ffffffffffffffffffffffffffffffffffffffff16632f2ff15d8273ffffffffffffffffffffffffffffffffffffffff166375b238fc6040518163ffffffff1660e01b8152600401602060405180830381865afa158015610248573d5f803e3d5ffd5b505050506040513d601f19601f8201168201806040525081019061026c91906109e2565b336040518363ffffffff1660e01b815260040161028a929190610a1c565b5f604051808303815f87803b1580156102a1575f80fd5b505af11580156102b3573d5f803e3d5ffd5b505050508073ffffffffffffffffffffffffffffffffffffffff1663d547741f8273ffffffffffffffffffffffffffffffffffffffff1663a217fddf6040518163ffffffff1660e01b8152600401602060405180830381865afa15801561031c573d5f803e3d5ffd5b505050506040513d601f19601f8201168201806040525081019061034091906109e2565b306040518363ffffffff1660e01b815260040161035e929190610a1c565b5f604051808303815f87803b158015610375575f80fd5b505af1158015610387573d5f803e3d5ffd5b505050508073ffffffffffffffffffffffffffffffffffffffff16633b01f07e858533896040518563ffffffff1660e01b81526004016103ca9493929190610ab2565b5f604051808303815f87803b1580156103e1575f80fd5b505af11580156103f3573d5f803e3d5ffd5b505050505f81908060018154018082558091505060019003905f5260205f20015f9091909190916101000a81548173ffffffffffffffffffffffffffffffffffffffff021916908373ffffffffffffffffffffffffffffffffffffffff1602179055508073ffffffffffffffffffffffffffffffffffffffff167f60d9ffbc790f0840908917c53655a8585c45074721ba8f4e366a401e44b7eee88b8b8b8b89896040516104a696959493929190610b03565b60405180910390a28091505098975050505050505050565b61502a80610b7183390190565b5f604051905090565b5f80fd5b5f80fd5b5f819050919050565b6104ee816104dc565b81146104f8575f80fd5b50565b5f81359050610509816104e5565b92915050565b5f60208284031215610524576105236104d4565b5b5f610531848285016104fb565b91505092915050565b5f73ffffffffffffffffffffffffffffffffffffffff82169050919050565b5f6105638261053a565b9050919050565b61057381610559565b82525050565b5f60208201905061058c5f83018461056a565b92915050565b5f61059c82610559565b9050919050565b6105ac81610592565b81146105b6575f80fd5b50565b5f813590506105c7816105a3565b92915050565b5f6105d782610559565b9050919050565b6105e7816105cd565b81146105f1575f80fd5b50565b5f81359050610602816105de565b92915050565b5f61061282610559565b9050919050565b61062281610608565b811461062c575f80fd5b50565b5f8135905061063d81610619565b92915050565b5f61064d82610559565b9050919050565b61065d81610643565b8114610667575f80fd5b50565b5f8135905061067881610654565b92915050565b5f80fd5b5f80fd5b5f601f19601f8301169050919050565b7f4e487b71000000000000000000000000000000000000000000000000000000005f52604160045260245ffd5b6106cc82610686565b810181811067ffffffffffffffff821117156106eb576106ea610696565b5b80604052505050565b5f6106fd6104cb565b905061070982826106c3565b919050565b5f67ffffffffffffffff82111561072857610727610696565b5b61073182610686565b9050602081019050919050565b828183375f83830152505050565b5f61075e6107598461070e565b6106f4565b90508281526020810184848401111561077a57610779610682565b5b61078584828561073e565b509392505050565b5f82601f8301126107a1576107a061067e565b5b81356107b184826020860161074c565b91505092915050565b5f805f805f805f80610100898b0312156107d7576107d66104d4565b5b5f6107e48b828c016105b9565b98505060206107f58b828c016105b9565b97505060406108068b828c016105f4565b96505060606108178b828c0161062f565b95505060806108288b828c0161066a565b94505060a06108398b828c016104fb565b93505060c089013567ffffffffffffffff81111561085a576108596104d8565b5b6108668b828c0161078d565b92505060e089013567ffffffffffffffff811115610887576108866104d8565b5b6108938b828c0161078d565b9150509295985092959890939650565b5f819050919050565b5f6108c66108c16108bc8461053a565b6108a3565b61053a565b9050919050565b5f6108d7826108ac565b9050919050565b5f6108e8826108cd565b9050919050565b6108f8816108de565b82525050565b5f610908826108cd565b9050919050565b610918816108fe565b82525050565b5f610928826108cd565b9050919050565b6109388161091e565b82525050565b5f610948826108cd565b9050919050565b6109588161093e565b82525050565b5f60a0820190506109715f8301886108ef565b61097e60208301876108ef565b61098b604083018661090f565b610998606083018561092f565b6109a5608083018461094f565b9695505050505050565b5f819050919050565b6109c1816109af565b81146109cb575f80fd5b50565b5f815190506109dc816109b8565b92915050565b5f602082840312156109f7576109f66104d4565b5b5f610a04848285016109ce565b91505092915050565b610a16816109af565b82525050565b5f604082019050610a2f5f830185610a0d565b610a3c602083018461056a565b9392505050565b5f81519050919050565b5f82825260208201905092915050565b8281835e5f83830152505050565b5f610a7582610a43565b610a7f8185610a4d565b9350610a8f818560208601610a5d565b610a9881610686565b840191505092915050565b610aac816104dc565b82525050565b5f6080820190508181035f830152610aca8187610a6b565b90508181036020830152610ade8186610a6b565b9050610aed604083018561056a565b610afa6060830184610aa3565b95945050505050565b5f60c082019050610b165f83018961056a565b610b23602083018861056a565b610b30604083018761056a565b610b3d606083018661056a565b8181036080830152610b4f8185610a6b565b905081810360a0830152610b638184610a6b565b905097965050505050505056fe608060405260966008556203b1006009556217bb00600a55622f7600600b5562603d80600c55610226600d5561028a600e556102bc600f5561038460105561271060115562603d80601255600a601355600560145534801561005f575f80fd5b5060405161502a38038061502a833981810160405281019061008191906104af565b600180819055508460025f6101000a81548173ffffffffffffffffffffffffffffffffffffffff021916908373ffffffffffffffffffffffffffffffffffffffff1602179055508360035f6101000a81548173ffffffffffffffffffffffffffffffffffffffff021916908373ffffffffffffffffffffffffffffffffffffffff1602179055508260055f6101000a81548173ffffffffffffffffffffffffffffffffffffffff021916908373ffffffffffffffffffffffffffffffffffffffff1602179055508160065f6101000a81548173ffffffffffffffffffffffffffffffffffffffff021916908373ffffffffffffffffffffffffffffffffffffffff1602179055508060075f6101000a81548173ffffffffffffffffffffffffffffffffffffffff021916908373ffffffffffffffffffffffffffffffffffffffff1602179055506101e75f801b6101dc61023060201b60201c565b61023760201b60201c565b506102257fa49807205ce4d355092ef5a8a18f56e8913cf4a201fbe287825b095693c2177561021a61023060201b60201c565b61023760201b60201c565b505050505050610526565b5f33905090565b5f610248838361032c60201b60201c565b6103225760015f808581526020019081526020015f205f015f8473ffffffffffffffffffffffffffffffffffffffff1673ffffffffffffffffffffffffffffffffffffffff1681526020019081526020015f205f6101000a81548160ff0219169083151502179055506102bf61023060201b60201c565b73ffffffffffffffffffffffffffffffffffffffff168273ffffffffffffffffffffffffffffffffffffffff16847f2f8788117e7eff1d82e926ec794901d17c78024a50270940304540a733656f0d60405160405180910390a460019050610326565b5f90505b92915050565b5f805f8481526020019081526020015f205f015f8373ffffffffffffffffffffffffffffffffffffffff1673ffffffffffffffffffffffffffffffffffffffff1681526020019081526020015f205f9054906101000a900460ff16905092915050565b5f80fd5b5f73ffffffffffffffffffffffffffffffffffffffff82169050919050565b5f6103bc82610393565b9050919050565b5f6103cd826103b2565b9050919050565b6103dd816103c3565b81146103e7575f80fd5b50565b5f815190506103f8816103d4565b92915050565b5f610408826103b2565b9050919050565b610418816103fe565b8114610422575f80fd5b50565b5f815190506104338161040f565b92915050565b5f610443826103b2565b9050919050565b61045381610439565b811461045d575f80fd5b50565b5f8151905061046e8161044a565b92915050565b5f61047e826103b2565b9050919050565b61048e81610474565b8114610498575f80fd5b50565b5f815190506104a981610485565b92915050565b5f805f805f60a086880312156104c8576104c761038f565b5b5f6104d5888289016103ea565b95505060206104e6888289016103ea565b94505060406104f788828901610425565b935050606061050888828901610460565b92505060806105198882890161049b565b9150509295509295909350565b614af7806105335f395ff3fe608060405234801561000f575f80fd5b50600436106102b9575f3560e01c80637978dca911610180578063cfae3aa4116100e7578063e5829d20116100a0578063ee4054dc1161007a578063ee4054dc14610830578063f4068f8f1461084e578063fc0c546a1461086a578063fc54dbba14610888576102b9565b8063e5829d20146107d8578063e9cbd822146107f4578063ea071ac014610812576102b9565b8063cfae3aa41461072c578063d547741f14610748578063d8b4400814610764578063dbd5edc714610780578063e0232b421461079e578063e3363d4e146107ba576102b9565b8063a217fddf11610139578063a217fddf1461067a578063b2016bd414610698578063c07b2e59146106b6578063c4500f81146106d4578063c45a0155146106f0578063cc952b571461070e576102b9565b80637978dca9146105a45780637d882097146105c0578063874afe7d146105de5780638873edb8146105fc57806391d148541461062c5780639653dee51461065c576102b9565b80633f69d0da116102245780636938ead5116101dd5780636938ead5146104db5780636f9fb98a146104f957806372f76f1d1461051757806373b4086b14610535578063743753591461056857806375b238fc14610586576102b9565b80633f69d0da1461043f5780633fccc9271461045d578063402d88831461047b5780635e318e071461048557806361feacff146104a157806367f8d85d146104bf576102b9565b80632893bdbf116102765780632893bdbf146103935780632e1a7d4d146103b15780632f2ff15d146103cd5780633402ff1d146103e957806336568abe146104075780633b01f07e14610423576102b9565b806301ffc9a7146102bd5780630d0cd216146102ed5780630ecbcdab1461030b578063126082cf1461032757806322312f7114610345578063248a9ca314610363575b5f80fd5b6102d760048036038101906102d291906135e3565b6108a6565b6040516102e49190613628565b60405180910390f35b6102f561091f565b6040516103029190613659565b60405180910390f35b6103256004803603810190610320919061369c565b610925565b005b61032f610e39565b60405161033c9190613659565b60405180910390f35b61034d610e3f565b60405161035a9190613659565b60405180910390f35b61037d6004803603810190610378919061370d565b610e45565b60405161038a9190613747565b60405180910390f35b61039b610e61565b6040516103a89190613659565b60405180910390f35b6103cb60048036038101906103c69190613760565b610e67565b005b6103e760048036038101906103e291906137e5565b611354565b005b6103f1611376565b6040516103fe9190613659565b60405180910390f35b610421600480360381019061041c91906137e5565b61137c565b005b61043d6004803603810190610438919061395f565b6113f7565b005b610447611953565b6040516104549190613659565b60405180910390f35b610465611959565b6040516104729190613659565b60405180910390f35b61048361195f565b005b61049f600480360381019061049a9190613760565b611e1a565b005b6104a9611fa0565b6040516104b69190613659565b60405180910390f35b6104d960048036038101906104d49190613760565b611fa6565b005b6104e3611fdb565b6040516104f09190613659565b60405180910390f35b610501611fe1565b60405161050e9190613659565b60405180910390f35b61051f612080565b60405161052c9190613659565b60405180910390f35b61054f600480360381019061054a91906139fb565b612086565b60405161055f9493929190613a26565b60405180910390f35b6105706120b2565b60405161057d9190613659565b60405180910390f35b61058e6120b8565b60405161059b9190613747565b60405180910390f35b6105be60048036038101906105b99190613a69565b6120dc565b005b6105c86126a4565b6040516105d59190613659565b60405180910390f35b6105e66126aa565b6040516105f39190613659565b60405180910390f35b610616600480360381019061061191906139fb565b6126b0565b6040516106239190613659565b60405180910390f35b610646600480360381019061064191906137e5565b612751565b6040516106539190613628565b60405180910390f35b6106646127b4565b6040516106719190613b28565b60405180910390f35b6106826127d9565b60405161068f9190613747565b60405180910390f35b6106a06127df565b6040516106ad9190613b61565b60405180910390f35b6106be612804565b6040516106cb9190613659565b60405180910390f35b6106ee60048036038101906106e991906139fb565b61280a565b005b6106f8612c5b565b6040516107059190613b9a565b60405180910390f35b610716612c80565b6040516107239190613659565b60405180910390f35b61074660048036038101906107419190613760565b612c86565b005b610762600480360381019061075d91906137e5565b612cbb565b005b61077e60048036038101906107799190613760565b612cdd565b005b610788612d12565b6040516107959190613659565b60405180910390f35b6107b860048036038101906107b39190613c10565b612d18565b005b6107c2613140565b6040516107cf9190613659565b60405180910390f35b6107f260048036038101906107ed9190613760565b613146565b005b6107fc61318b565b6040516108099190613b61565b60405180910390f35b61081a6131b0565b6040516108279190613ca1565b60405180910390f35b6108386131d5565b6040516108459190613659565b60405180910390f35b61086860048036038101906108639190613cba565b6131db565b005b610872613238565b60405161087f9190613d3e565b60405180910390f35b61089061325d565b60405161089d9190613659565b60405180910390f35b5f7f7965db0b000000000000000000000000000000000000000000000000000000007bffffffffffffffffffffffffffffffffffffffffffffffffffffffff1916827bffffffffffffffffffffffffffffffffffffffffffffffffffffffff19161480610918575061091782613263565b5b9050919050565b600c5481565b61092d6132cc565b5f821161096f576040517f08c379a000000000000000000000000000000000000000000000000000000000815260040161096690613db1565b60405180910390fd5b5f73ffffffffffffffffffffffffffffffffffffffff1660045f9054906101000a900473ffffffffffffffffffffffffffffffffffffffff1673ffffffffffffffffffffffffffffffffffffffff16036109fe576040517f08c379a00000000000000000000000000000000000000000000000000000000081526004016109f590613e19565b60405180910390fd5b5f601b5f3373ffffffffffffffffffffffffffffffffffffffff1673ffffffffffffffffffffffffffffffffffffffff1681526020019081526020015f205f015414610a7f576040517f08c379a0000000000000000000000000000000000000000000000000000000008152600401610a7690613e81565b60405180910390fd5b6001811480610a8e5750600281145b80610a995750600381145b80610aa45750600481145b610ae3576040517f08c379a0000000000000000000000000000000000000000000000000000000008152600401610ada90613ee9565b60405180910390fd5b5f5a90505f606460085485610af89190613f34565b610b029190613fa2565b9050836018541015610b49576040517f08c379a0000000000000000000000000000000000000000000000000000000008152600401610b4090614042565b60405180910390fd5b60035f9054906101000a900473ffffffffffffffffffffffffffffffffffffffff1673ffffffffffffffffffffffffffffffffffffffff166323b872dd3330846040518463ffffffff1660e01b8152600401610ba79392919061406f565b6020604051808303815f875af1158015610bc3573d5f803e3d5ffd5b505050506040513d601f19601f82011682018060405250810190610be791906140ce565b505f610bf283613312565b905060055f9054906101000a900473ffffffffffffffffffffffffffffffffffffffff1673ffffffffffffffffffffffffffffffffffffffff166379cc6790610c39613336565b836040518363ffffffff1660e01b8152600401610c579291906140f9565b5f604051808303815f87803b158015610c6e575f80fd5b505af1158015610c80573d5f803e3d5ffd5b50505050604051806080016040528086815260200183815260200143815260200185815250601b5f3373ffffffffffffffffffffffffffffffffffffffff1673ffffffffffffffffffffffffffffffffffffffff1681526020019081526020015f205f820151815f01556020820151816001015560408201518160020155606082015181600301559050508460175f828254610d1c9190614120565b925050819055508460185f828254610d349190614153565b9250508190555060025f9054906101000a900473ffffffffffffffffffffffffffffffffffffffff1673ffffffffffffffffffffffffffffffffffffffff1663a9059cbb33876040518363ffffffff1660e01b8152600401610d979291906140f9565b6020604051808303815f875af1158015610db3573d5f803e3d5ffd5b505050506040513d601f19601f82011682018060405250810190610dd791906140ce565b503373ffffffffffffffffffffffffffffffffffffffff167fc4381c9c7b508979896c55381c1cb8c2aef28d753cff7661f9cd87b9a14584f8865f85604051610e22939291906141bf565b60405180910390a2505050610e3561333d565b5050565b60115481565b60095481565b5f805f8381526020019081526020015f20600101549050919050565b600f5481565b610e6f6132cc565b5f8111610eb1576040517f08c379a0000000000000000000000000000000000000000000000000000000008152600401610ea89061423e565b60405180910390fd5b5f73ffffffffffffffffffffffffffffffffffffffff1660045f9054906101000a900473ffffffffffffffffffffffffffffffffffffffff1673ffffffffffffffffffffffffffffffffffffffff1603610f40576040517f08c379a0000000000000000000000000000000000000000000000000000000008152600401610f3790613e19565b60405180910390fd5b5f60045f9054906101000a900473ffffffffffffffffffffffffffffffffffffffff1673ffffffffffffffffffffffffffffffffffffffff166318160ddd6040518163ffffffff1660e01b8152600401602060405180830381865afa158015610fab573d5f803e3d5ffd5b505050506040513d601f19601f82011682018060405250810190610fcf9190614270565b90505f8111611013576040517f08c379a000000000000000000000000000000000000000000000000000000000815260040161100a906142e5565b60405180910390fd5b5f60045f9054906101000a900473ffffffffffffffffffffffffffffffffffffffff1673ffffffffffffffffffffffffffffffffffffffff166370a08231611059613336565b6040518263ffffffff1660e01b81526004016110759190614303565b602060405180830381865afa158015611090573d5f803e3d5ffd5b505050506040513d601f19601f820116820180604052508101906110b49190614270565b9050828110156110f9576040517f08c379a00000000000000000000000000000000000000000000000000000000081526004016110f090614366565b60405180910390fd5b5f82670de0b6b3a76400008561110f9190613f34565b6111199190613fa2565b90505f670de0b6b3a7640000826016546111339190613f34565b61113d9190613fa2565b90505f670de0b6b3a764000083601a546111579190613f34565b6111619190613fa2565b90505f81836111709190614120565b905060045f9054906101000a900473ffffffffffffffffffffffffffffffffffffffff1673ffffffffffffffffffffffffffffffffffffffff166379cc67906111b7613336565b896040518363ffffffff1660e01b81526004016111d59291906140f9565b5f604051808303815f87803b1580156111ec575f80fd5b505af11580156111fe573d5f803e3d5ffd5b505050508260165f8282546112139190614153565b9250508190555081601a5f82825461122b9190614153565b925050819055508060185f8282546112439190614153565b9250508190555060025f9054906101000a900473ffffffffffffffffffffffffffffffffffffffff1673ffffffffffffffffffffffffffffffffffffffff1663a9059cbb61128f613336565b836040518363ffffffff1660e01b81526004016112ad9291906140f9565b6020604051808303815f875af11580156112c9573d5f803e3d5ffd5b505050506040513d601f19601f820116820180604052508101906112ed91906140ce565b506112f6613336565b73ffffffffffffffffffffffffffffffffffffffff167f7084f5476618d8e60b11ef0d7d3f06914655adb8793e28ff7f018d4c76d505d58260405161133b9190613659565b60405180910390a250505050505061135161333d565b50565b61135d82610e45565b61136681613346565b611370838361335a565b50505050565b60085481565b611384613336565b73ffffffffffffffffffffffffffffffffffffffff168173ffffffffffffffffffffffffffffffffffffffff16146113e8576040517f6697b23200000000000000000000000000000000000000000000000000000000815260040160405180910390fd5b6113f28282613443565b505050565b7fa49807205ce4d355092ef5a8a18f56e8913cf4a201fbe287825b095693c2177561142181613346565b5f73ffffffffffffffffffffffffffffffffffffffff1660045f9054906101000a900473ffffffffffffffffffffffffffffffffffffffff1673ffffffffffffffffffffffffffffffffffffffff16146114b0576040517f08c379a00000000000000000000000000000000000000000000000000000000081526004016114a7906143ce565b60405180910390fd5b8160158190555060065f9054906101000a900473ffffffffffffffffffffffffffffffffffffffff1673ffffffffffffffffffffffffffffffffffffffff1663a56044038686306040518463ffffffff1660e01b81526004016115159392919061443c565b6020604051808303815f875af1158015611531573d5f803e3d5ffd5b505050506040513d601f19601f8201168201806040525081019061155591906144ba565b60045f6101000a81548173ffffffffffffffffffffffffffffffffffffffff021916908373ffffffffffffffffffffffffffffffffffffffff16021790555060045f9054906101000a900473ffffffffffffffffffffffffffffffffffffffff1673ffffffffffffffffffffffffffffffffffffffff16632f2ff15d60045f9054906101000a900473ffffffffffffffffffffffffffffffffffffffff1673ffffffffffffffffffffffffffffffffffffffff1663d53913936040518163ffffffff1660e01b8152600401602060405180830381865afa15801561163b573d5f803e3d5ffd5b505050506040513d601f19601f8201168201806040525081019061165f91906144f9565b306040518363ffffffff1660e01b815260040161167d929190614524565b5f604051808303815f87803b158015611694575f80fd5b505af11580156116a6573d5f803e3d5ffd5b5050505060045f9054906101000a900473ffffffffffffffffffffffffffffffffffffffff1673ffffffffffffffffffffffffffffffffffffffff16632f2ff15d60045f9054906101000a900473ffffffffffffffffffffffffffffffffffffffff1673ffffffffffffffffffffffffffffffffffffffff1663282c51f36040518163ffffffff1660e01b8152600401602060405180830381865afa158015611751573d5f803e3d5ffd5b505050506040513d601f19601f8201168201806040525081019061177591906144f9565b306040518363ffffffff1660e01b8152600401611793929190614524565b5f604051808303815f87803b1580156117aa575f80fd5b505af11580156117bc573d5f803e3d5ffd5b5050505060045f9054906101000a900473ffffffffffffffffffffffffffffffffffffffff1673ffffffffffffffffffffffffffffffffffffffff16632f2ff15d60045f9054906101000a900473ffffffffffffffffffffffffffffffffffffffff1673ffffffffffffffffffffffffffffffffffffffff1663a217fddf6040518163ffffffff1660e01b8152600401602060405180830381865afa158015611867573d5f803e3d5ffd5b505050506040513d601f19601f8201168201806040525081019061188b91906144f9565b856040518363ffffffff1660e01b81526004016118a9929190614524565b5f604051808303815f87803b1580156118c0575f80fd5b505af11580156118d2573d5f803e3d5ffd5b505050506118de613336565b73ffffffffffffffffffffffffffffffffffffffff167f24f32f0e548f877ea0850bab3fdc7f2392f24a08ad93179b7ba7b78fc5d5b37d60045f9054906101000a900473ffffffffffffffffffffffffffffffffffffffff166040516119449190614303565b60405180910390a25050505050565b60125481565b600a5481565b6119676132cc565b5f601b5f3373ffffffffffffffffffffffffffffffffffffffff1673ffffffffffffffffffffffffffffffffffffffff1681526020019081526020015f2090505f815f0154116119ec576040517f08c379a00000000000000000000000000000000000000000000000000000000081526004016119e390614595565b60405180910390fd5b5f815f015490505f805f6001856003015403611a1157600d5491506009549050611aa0565b6002856003015403611a2c57600e549150600a549050611a9f565b6003856003015403611a4757600f549150600b549050611a9e565b6004856003015403611a62576010549150600c549050611a9d565b6040517f08c379a0000000000000000000000000000000000000000000000000000000008152600401611a94906145fd565b60405180910390fd5b5b5b5b5f856002015443611ab19190614153565b905081811115611abf578190505b5f601254601154611ad09190613f34565b8285895f0154611ae09190613f34565b611aea9190613f34565b611af49190613fa2565b90505f601154601354895f0154611b0b9190613f34565b611b159190613fa2565b9050808211611b245780611b26565b815b95508760010154861115611b6f576040517f08c379a0000000000000000000000000000000000000000000000000000000008152600401611b6690614665565b60405180910390fd5b5f601154600588611b809190613f34565b611b8a9190613fa2565b90505f8188611b999190614153565b90508160195f828254611bac9190614120565b9250508190555080601a5f828254611bc49190614120565b925050819055508089611bd79190614120565b60185f828254611be79190614120565b925050819055505f888b60010154611bff9190614153565b905060035f9054906101000a900473ffffffffffffffffffffffffffffffffffffffff1673ffffffffffffffffffffffffffffffffffffffff1663a9059cbb33836040518363ffffffff1660e01b8152600401611c5d9291906140f9565b6020604051808303815f875af1158015611c79573d5f803e3d5ffd5b505050506040513d601f19601f82011682018060405250810190611c9d91906140ce565b5060025f9054906101000a900473ffffffffffffffffffffffffffffffffffffffff1673ffffffffffffffffffffffffffffffffffffffff166323b872dd33308d6040518463ffffffff1660e01b8152600401611cfc9392919061406f565b6020604051808303815f875af1158015611d18573d5f803e3d5ffd5b505050506040513d601f19601f82011682018060405250810190611d3c91906140ce565b508a5f015460175f828254611d519190614153565b92505081905550601b5f3373ffffffffffffffffffffffffffffffffffffffff1673ffffffffffffffffffffffffffffffffffffffff1681526020019081526020015f205f8082015f9055600182015f9055600282015f9055600382015f905550503373ffffffffffffffffffffffffffffffffffffffff167f07178c166b5aef4d8409e6bbfd0e7b1ad42c92eb65903a5e5482166f3f4e62f08b838c604051611dfd93929190614683565b60405180910390a25050505050505050505050611e1861333d565b565b7fa49807205ce4d355092ef5a8a18f56e8913cf4a201fbe287825b095693c21775611e4481613346565b611e4c6132cc565b601954821115611e91576040517f08c379a0000000000000000000000000000000000000000000000000000000008152600401611e8890614702565b60405180910390fd5b8160195f828254611ea29190614153565b9250508190555060025f9054906101000a900473ffffffffffffffffffffffffffffffffffffffff1673ffffffffffffffffffffffffffffffffffffffff1663a9059cbb33846040518363ffffffff1660e01b8152600401611f059291906140f9565b6020604051808303815f875af1158015611f21573d5f803e3d5ffd5b505050506040513d601f19601f82011682018060405250810190611f4591906140ce565b503373ffffffffffffffffffffffffffffffffffffffff167fc0819c13be868895eb93e40eaceb96de976442fa1d404e5c55f14bb65a8c489a83604051611f8c9190613659565b60405180910390a2611f9c61333d565b5050565b60195481565b7fa49807205ce4d355092ef5a8a18f56e8913cf4a201fbe287825b095693c21775611fd081613346565b816012819055505050565b600e5481565b5f60025f9054906101000a900473ffffffffffffffffffffffffffffffffffffffff1673ffffffffffffffffffffffffffffffffffffffff166370a08231306040518263ffffffff1660e01b815260040161203c9190614303565b602060405180830381865afa158015612057573d5f803e3d5ffd5b505050506040513d601f19601f8201168201806040525081019061207b9190614270565b905090565b60145481565b601b602052805f5260405f205f91509050805f0154908060010154908060020154908060030154905084565b60185481565b7fa49807205ce4d355092ef5a8a18f56e8913cf4a201fbe287825b095693c2177581565b6120e46132cc565b5f8311612126576040517f08c379a000000000000000000000000000000000000000000000000000000000815260040161211d90613db1565b60405180910390fd5b5f73ffffffffffffffffffffffffffffffffffffffff1660045f9054906101000a900473ffffffffffffffffffffffffffffffffffffffff1673ffffffffffffffffffffffffffffffffffffffff16036121b5576040517f08c379a00000000000000000000000000000000000000000000000000000000081526004016121ac90613e19565b60405180910390fd5b601554836016546121c69190614120565b1115612207576040517f08c379a00000000000000000000000000000000000000000000000000000000081526004016121fe9061476a565b60405180910390fd5b5f60025f9054906101000a900473ffffffffffffffffffffffffffffffffffffffff1673ffffffffffffffffffffffffffffffffffffffff168573ffffffffffffffffffffffffffffffffffffffff160361230a5783905060025f9054906101000a900473ffffffffffffffffffffffffffffffffffffffff1673ffffffffffffffffffffffffffffffffffffffff166323b872dd6122a4613336565b30876040518463ffffffff1660e01b81526004016122c49392919061406f565b6020604051808303815f875af11580156122e0573d5f803e3d5ffd5b505050506040513d601f19601f8201168201806040525081019061230491906140ce565b5061245d565b60075f9054906101000a900473ffffffffffffffffffffffffffffffffffffffff1673ffffffffffffffffffffffffffffffffffffffff16632197545c868686866040518563ffffffff1660e01b815260040161236a9493929190614788565b6020604051808303815f875af1158015612386573d5f803e3d5ffd5b505050506040513d601f19601f820116820180604052508101906123aa9190614270565b90505f81116123ee576040517f08c379a00000000000000000000000000000000000000000000000000000000081526004016123e590614815565b60405180910390fd5b8473ffffffffffffffffffffffffffffffffffffffff1661240d613336565b73ffffffffffffffffffffffffffffffffffffffff167f25f1d03755df23c30e25db2dbd3891e31ce084bdfbfc46f9fe5e446ee5f9b2d48684604051612454929190614833565b60405180910390a35b6015548160165461246e9190614120565b11156124af576040517f08c379a00000000000000000000000000000000000000000000000000000000081526004016124a6906148a4565b60405180910390fd5b5f60045f9054906101000a900473ffffffffffffffffffffffffffffffffffffffff1673ffffffffffffffffffffffffffffffffffffffff166318160ddd6040518163ffffffff1660e01b8152600401602060405180830381865afa15801561251a573d5f803e3d5ffd5b505050506040513d601f19601f8201168201806040525081019061253e9190614270565b90505f8082036125505782905061257e565b5f601a546016546125619190614120565b90508083856125709190613f34565b61257a9190613fa2565b9150505b60045f9054906101000a900473ffffffffffffffffffffffffffffffffffffffff1673ffffffffffffffffffffffffffffffffffffffff166340c10f196125c3613336565b836040518363ffffffff1660e01b81526004016125e19291906140f9565b5f604051808303815f87803b1580156125f8575f80fd5b505af115801561260a573d5f803e3d5ffd5b505050508260165f82825461261f9190614120565b925050819055508260185f8282546126379190614120565b92505081905550612646613336565b73ffffffffffffffffffffffffffffffffffffffff167f2da466a7b24304f47e87fa2e1e5a81b9831ce54fec19055ce277ca2f39ba42c48460405161268b9190613659565b60405180910390a250505061269e61333d565b50505050565b60165481565b600b5481565b5f60045f9054906101000a900473ffffffffffffffffffffffffffffffffffffffff1673ffffffffffffffffffffffffffffffffffffffff166370a08231836040518263ffffffff1660e01b815260040161270b9190614303565b602060405180830381865afa158015612726573d5f803e3d5ffd5b505050506040513d601f19601f8201168201806040525081019061274a9190614270565b9050919050565b5f805f8481526020019081526020015f205f015f8373ffffffffffffffffffffffffffffffffffffffff1673ffffffffffffffffffffffffffffffffffffffff1681526020019081526020015f205f9054906101000a900460ff16905092915050565b60075f9054906101000a900473ffffffffffffffffffffffffffffffffffffffff1681565b5f801b81565b60035f9054906101000a900473ffffffffffffffffffffffffffffffffffffffff1681565b60105481565b7fa49807205ce4d355092ef5a8a18f56e8913cf4a201fbe287825b095693c2177561283481613346565b61283c6132cc565b5f601b5f8473ffffffffffffffffffffffffffffffffffffffff1673ffffffffffffffffffffffffffffffffffffffff1681526020019081526020015f2090505f815f0154116128c1576040517f08c379a00000000000000000000000000000000000000000000000000000000081526004016128b890614595565b60405180910390fd5b5f815f015490505f805f60018560030154036128e657600d5491506009549050612975565b600285600301540361290157600e549150600a549050612974565b600385600301540361291c57600f549150600b549050612973565b6004856003015403612937576010549150600c549050612972565b6040517f08c379a0000000000000000000000000000000000000000000000000000000008152600401612969906145fd565b60405180910390fd5b5b5b5b8085600201546129859190614120565b4310156129c7576040517f08c379a00000000000000000000000000000000000000000000000000000000081526004016129be9061490c565b60405180910390fd5b6012546011546129d79190613f34565b8183875f01546129e79190613f34565b6129f19190613f34565b6129fb9190613fa2565b92508460010154831115612a44576040517f08c379a0000000000000000000000000000000000000000000000000000000008152600401612a3b90614665565b60405180910390fd5b5f601154600585612a559190613f34565b612a5f9190613fa2565b90505f8185612a6e9190614153565b90508160195f828254612a819190614120565b9250508190555080601a5f828254612a999190614120565b925050819055508086612aac9190614120565b60185f828254612abc9190614120565b925050819055505f875f0154868960010154612ad89190614153565b612ae29190614120565b905060035f9054906101000a900473ffffffffffffffffffffffffffffffffffffffff1673ffffffffffffffffffffffffffffffffffffffff1663a9059cbb8b836040518363ffffffff1660e01b8152600401612b409291906140f9565b6020604051808303815f875af1158015612b5c573d5f803e3d5ffd5b505050506040513d601f19601f82011682018060405250810190612b8091906140ce565b50875f015460175f828254612b959190614153565b92505081905550601b5f8b73ffffffffffffffffffffffffffffffffffffffff1673ffffffffffffffffffffffffffffffffffffffff1681526020019081526020015f205f8082015f9055600182015f9055600282015f9055600382015f905550508973ffffffffffffffffffffffffffffffffffffffff167f37c72ca983f8db36d419997ac5bb11b386d99a405b2925599cb5d27a8de15d158883604051612c3f929190614833565b60405180910390a25050505050505050612c5761333d565b5050565b60065f9054906101000a900473ffffffffffffffffffffffffffffffffffffffff1681565b60175481565b7fa49807205ce4d355092ef5a8a18f56e8913cf4a201fbe287825b095693c21775612cb081613346565b816013819055505050565b612cc482610e45565b612ccd81613346565b612cd78383613443565b50505050565b7fa49807205ce4d355092ef5a8a18f56e8913cf4a201fbe287825b095693c21775612d0781613346565b816014819055505050565b60155481565b612d206132cc565b5f8311612d62576040517f08c379a0000000000000000000000000000000000000000000000000000000008152600401612d5990613db1565b60405180910390fd5b601854831115612da7576040517f08c379a0000000000000000000000000000000000000000000000000000000008152600401612d9e9061499a565b60405180910390fd5b5f60115460145485612db99190613f34565b612dc39190613fa2565b90505f8185612dd29190614120565b90505f60025f9054906101000a900473ffffffffffffffffffffffffffffffffffffffff1673ffffffffffffffffffffffffffffffffffffffff166370a08231306040518263ffffffff1660e01b8152600401612e2f9190614303565b602060405180830381865afa158015612e4a573d5f803e3d5ffd5b505050506040513d601f19601f82011682018060405250810190612e6e9190614270565b905060025f9054906101000a900473ffffffffffffffffffffffffffffffffffffffff1673ffffffffffffffffffffffffffffffffffffffff1663a9059cbb88886040518363ffffffff1660e01b8152600401612ecc9291906140f9565b6020604051808303815f875af1158015612ee8573d5f803e3d5ffd5b505050506040513d601f19601f82011682018060405250810190612f0c91906140ce565b508673ffffffffffffffffffffffffffffffffffffffff16630db7b028878588886040518563ffffffff1660e01b8152600401612f4c94939291906149f4565b5f604051808303815f87803b158015612f63575f80fd5b505af1158015612f75573d5f803e3d5ffd5b505050505f60025f9054906101000a900473ffffffffffffffffffffffffffffffffffffffff1673ffffffffffffffffffffffffffffffffffffffff166370a08231306040518263ffffffff1660e01b8152600401612fd49190614303565b602060405180830381865afa158015612fef573d5f803e3d5ffd5b505050506040513d601f19601f820116820180604052508101906130139190614270565b90505f82826130229190614153565b905083811015613067576040517f08c379a000000000000000000000000000000000000000000000000000000000815260040161305e90614a7c565b60405180910390fd5b5f6011546005876130789190613f34565b6130829190613fa2565b90505f81876130919190614153565b90508160195f8282546130a49190614120565b9250508190555080601a5f8282546130bc9190614120565b925050819055508060185f8282546130d49190614120565b925050819055508a73ffffffffffffffffffffffffffffffffffffffff167f31aaad38f00845a242d16ae90d7bd72fc68f0e22581470f9dc0de241210c28868b89604051613123929190614833565b60405180910390a25050505050505061313a61333d565b50505050565b600d5481565b7fa49807205ce4d355092ef5a8a18f56e8913cf4a201fbe287825b095693c2177561317081613346565b6131786132cc565b8160088190555061318761333d565b5050565b60025f9054906101000a900473ffffffffffffffffffffffffffffffffffffffff1681565b60045f9054906101000a900473ffffffffffffffffffffffffffffffffffffffff1681565b601a5481565b7fa49807205ce4d355092ef5a8a18f56e8913cf4a201fbe287825b095693c2177561320581613346565b61320d6132cc565b8460098190555083600a8190555082600b8190555081600c8190555061323161333d565b5050505050565b60055f9054906101000a900473ffffffffffffffffffffffffffffffffffffffff1681565b60135481565b5f7f01ffc9a7000000000000000000000000000000000000000000000000000000007bffffffffffffffffffffffffffffffffffffffffffffffffffffffff1916827bffffffffffffffffffffffffffffffffffffffffffffffffffffffff1916149050919050565b600260015403613308576040517f3ee5aeb500000000000000000000000000000000000000000000000000000000815260040160405180910390fd5b6002600181905550565b5f805a836133209190614153565b90503a8161332e9190613f34565b915050919050565b5f33905090565b60018081905550565b61335781613352613336565b61352c565b50565b5f6133658383612751565b6134395760015f808581526020019081526020015f205f015f8473ffffffffffffffffffffffffffffffffffffffff1673ffffffffffffffffffffffffffffffffffffffff1681526020019081526020015f205f6101000a81548160ff0219169083151502179055506133d6613336565b73ffffffffffffffffffffffffffffffffffffffff168273ffffffffffffffffffffffffffffffffffffffff16847f2f8788117e7eff1d82e926ec794901d17c78024a50270940304540a733656f0d60405160405180910390a46001905061343d565b5f90505b92915050565b5f61344e8383612751565b15613522575f805f8581526020019081526020015f205f015f8473ffffffffffffffffffffffffffffffffffffffff1673ffffffffffffffffffffffffffffffffffffffff1681526020019081526020015f205f6101000a81548160ff0219169083151502179055506134bf613336565b73ffffffffffffffffffffffffffffffffffffffff168273ffffffffffffffffffffffffffffffffffffffff16847ff6391f5c32d9c69d2a47ea670b442974b53935d1edc7fd64eb21e047a839171b60405160405180910390a460019050613526565b5f90505b92915050565b6135368282612751565b6135795780826040517fe2517d3f000000000000000000000000000000000000000000000000000000008152600401613570929190614a9a565b60405180910390fd5b5050565b5f604051905090565b5f80fd5b5f80fd5b5f7fffffffff0000000000000000000000000000000000000000000000000000000082169050919050565b6135c28161358e565b81146135cc575f80fd5b50565b5f813590506135dd816135b9565b92915050565b5f602082840312156135f8576135f7613586565b5b5f613605848285016135cf565b91505092915050565b5f8115159050919050565b6136228161360e565b82525050565b5f60208201905061363b5f830184613619565b92915050565b5f819050919050565b61365381613641565b82525050565b5f60208201905061366c5f83018461364a565b92915050565b61367b81613641565b8114613685575f80fd5b50565b5f8135905061369681613672565b92915050565b5f80604083850312156136b2576136b1613586565b5b5f6136bf85828601613688565b92505060206136d085828601613688565b9150509250929050565b5f819050919050565b6136ec816136da565b81146136f6575f80fd5b50565b5f81359050613707816136e3565b92915050565b5f6020828403121561372257613721613586565b5b5f61372f848285016136f9565b91505092915050565b613741816136da565b82525050565b5f60208201905061375a5f830184613738565b92915050565b5f6020828403121561377557613774613586565b5b5f61378284828501613688565b91505092915050565b5f73ffffffffffffffffffffffffffffffffffffffff82169050919050565b5f6137b48261378b565b9050919050565b6137c4816137aa565b81146137ce575f80fd5b50565b5f813590506137df816137bb565b92915050565b5f80604083850312156137fb576137fa613586565b5b5f613808858286016136f9565b9250506020613819858286016137d1565b9150509250929050565b5f80fd5b5f80fd5b5f601f19601f8301169050919050565b7f4e487b71000000000000000000000000000000000000000000000000000000005f52604160045260245ffd5b6138718261382b565b810181811067ffffffffffffffff821117156138905761388f61383b565b5b80604052505050565b5f6138a261357d565b90506138ae8282613868565b919050565b5f67ffffffffffffffff8211156138cd576138cc61383b565b5b6138d68261382b565b9050602081019050919050565b828183375f83830152505050565b5f6139036138fe846138b3565b613899565b90508281526020810184848401111561391f5761391e613827565b5b61392a8482856138e3565b509392505050565b5f82601f83011261394657613945613823565b5b81356139568482602086016138f1565b91505092915050565b5f805f806080858703121561397757613976613586565b5b5f85013567ffffffffffffffff8111156139945761399361358a565b5b6139a087828801613932565b945050602085013567ffffffffffffffff8111156139c1576139c061358a565b5b6139cd87828801613932565b93505060406139de878288016137d1565b92505060606139ef87828801613688565b91505092959194509250565b5f60208284031215613a1057613a0f613586565b5b5f613a1d848285016137d1565b91505092915050565b5f608082019050613a395f83018761364a565b613a46602083018661364a565b613a53604083018561364a565b613a60606083018461364a565b95945050505050565b5f805f8060808587031215613a8157613a80613586565b5b5f613a8e878288016137d1565b9450506020613a9f87828801613688565b9350506040613ab087828801613688565b9250506060613ac187828801613688565b91505092959194509250565b5f819050919050565b5f613af0613aeb613ae68461378b565b613acd565b61378b565b9050919050565b5f613b0182613ad6565b9050919050565b5f613b1282613af7565b9050919050565b613b2281613b08565b82525050565b5f602082019050613b3b5f830184613b19565b92915050565b5f613b4b82613af7565b9050919050565b613b5b81613b41565b82525050565b5f602082019050613b745f830184613b52565b92915050565b5f613b8482613af7565b9050919050565b613b9481613b7a565b82525050565b5f602082019050613bad5f830184613b8b565b92915050565b5f80fd5b5f80fd5b5f8083601f840112613bd057613bcf613823565b5b8235905067ffffffffffffffff811115613bed57613bec613bb3565b5b602083019150836001820283011115613c0957613c08613bb7565b5b9250929050565b5f805f8060608587031215613c2857613c27613586565b5b5f613c35878288016137d1565b9450506020613c4687828801613688565b935050604085013567ffffffffffffffff811115613c6757613c6661358a565b5b613c7387828801613bbb565b925092505092959194509250565b5f613c8b82613af7565b9050919050565b613c9b81613c81565b82525050565b5f602082019050613cb45f830184613c92565b92915050565b5f805f8060808587031215613cd257613cd1613586565b5b5f613cdf87828801613688565b9450506020613cf087828801613688565b9350506040613d0187828801613688565b9250506060613d1287828801613688565b91505092959194509250565b5f613d2882613af7565b9050919050565b613d3881613d1e565b82525050565b5f602082019050613d515f830184613d2f565b92915050565b5f82825260208201905092915050565b7f416d6f756e74206d7573742062652067726561746572207468616e207a65726f5f82015250565b5f613d9b602083613d57565b9150613da682613d67565b602082019050919050565b5f6020820190508181035f830152613dc881613d8f565b9050919050565b7f506f6f6c206e6f7420696e697469616c697a65640000000000000000000000005f82015250565b5f613e03601483613d57565b9150613e0e82613dcf565b602082019050919050565b5f6020820190508181035f830152613e3081613df7565b9050919050565b7f416c7265616479206861766520616e20616374697665206c6f616e00000000005f82015250565b5f613e6b601b83613d57565b9150613e7682613e37565b602082019050919050565b5f6020820190508181035f830152613e9881613e5f565b9050919050565b7f4c6f616e204475726174696f6e20696e76616c696400000000000000000000005f82015250565b5f613ed3601583613d57565b9150613ede82613e9f565b602082019050919050565b5f6020820190508181035f830152613f0081613ec7565b9050919050565b7f4e487b71000000000000000000000000000000000000000000000000000000005f52601160045260245ffd5b5f613f3e82613641565b9150613f4983613641565b9250828202613f5781613641565b91508282048414831517613f6e57613f6d613f07565b5b5092915050565b7f4e487b71000000000000000000000000000000000000000000000000000000005f52601260045260245ffd5b5f613fac82613641565b9150613fb783613641565b925082613fc757613fc6613f75565b5b828204905092915050565b7f4e6f7420656e6f75676820737461626c65636f696e7320696e2074686520706f5f8201527f6f6c000000000000000000000000000000000000000000000000000000000000602082015250565b5f61402c602283613d57565b915061403782613fd2565b604082019050919050565b5f6020820190508181035f83015261405981614020565b9050919050565b614069816137aa565b82525050565b5f6060820190506140825f830186614060565b61408f6020830185614060565b61409c604083018461364a565b949350505050565b6140ad8161360e565b81146140b7575f80fd5b50565b5f815190506140c8816140a4565b92915050565b5f602082840312156140e3576140e2613586565b5b5f6140f0848285016140ba565b91505092915050565b5f60408201905061410c5f830185614060565b614119602083018461364a565b9392505050565b5f61412a82613641565b915061413583613641565b925082820190508082111561414d5761414c613f07565b5b92915050565b5f61415d82613641565b915061416883613641565b92508282039050818111156141805761417f613f07565b5b92915050565b5f819050919050565b5f6141a96141a461419f84614186565b613acd565b613641565b9050919050565b6141b98161418f565b82525050565b5f6060820190506141d25f83018661364a565b6141df60208301856141b0565b6141ec604083018461364a565b949350505050565b7f536861726573206d7573742062652067726561746572207468616e207a65726f5f82015250565b5f614228602083613d57565b9150614233826141f4565b602082019050919050565b5f6020820190508181035f8301526142558161421c565b9050919050565b5f8151905061426a81613672565b92915050565b5f6020828403121561428557614284613586565b5b5f6142928482850161425c565b91505092915050565b7f4e6f2073686172657320657869737400000000000000000000000000000000005f82015250565b5f6142cf600f83613d57565b91506142da8261429b565b602082019050919050565b5f6020820190508181035f8301526142fc816142c3565b9050919050565b5f6020820190506143165f830184614060565b92915050565b7f496e73756666696369656e742073686172657320746f206275726e00000000005f82015250565b5f614350601b83613d57565b915061435b8261431c565b602082019050919050565b5f6020820190508181035f83015261437d81614344565b9050919050565b7f506f6f6c20616c726561647920696e697469616c697a656400000000000000005f82015250565b5f6143b8601883613d57565b91506143c382614384565b602082019050919050565b5f6020820190508181035f8301526143e5816143ac565b9050919050565b5f81519050919050565b8281835e5f83830152505050565b5f61440e826143ec565b6144188185613d57565b93506144288185602086016143f6565b6144318161382b565b840191505092915050565b5f6060820190508181035f8301526144548186614404565b905081810360208301526144688185614404565b90506144776040830184614060565b949350505050565b5f614489826137aa565b9050919050565b6144998161447f565b81146144a3575f80fd5b50565b5f815190506144b481614490565b92915050565b5f602082840312156144cf576144ce613586565b5b5f6144dc848285016144a6565b91505092915050565b5f815190506144f3816136e3565b92915050565b5f6020828403121561450e5761450d613586565b5b5f61451b848285016144e5565b91505092915050565b5f6040820190506145375f830185613738565b6145446020830184614060565b9392505050565b7f4e6f20616374697665206c6f616e0000000000000000000000000000000000005f82015250565b5f61457f600e83613d57565b915061458a8261454b565b602082019050919050565b5f6020820190508181035f8301526145ac81614573565b9050919050565b7f496e76616c6964206475726174696f6e000000000000000000000000000000005f82015250565b5f6145e7601083613d57565b91506145f2826145b3565b602082019050919050565b5f6020820190508181035f830152614614816145db565b9050919050565b7f466565206578636565647320636f6c6c61746572616c20616d6f756e740000005f82015250565b5f61464f601d83613d57565b915061465a8261461b565b602082019050919050565b5f6020820190508181035f83015261467c81614643565b9050919050565b5f6060820190506146965f83018661364a565b6146a3602083018561364a565b6146b0604083018461364a565b949350505050565b7f496e73756666696369656e742061646d696e206665652062616c616e636500005f82015250565b5f6146ec601e83613d57565b91506146f7826146b8565b602082019050919050565b5f6020820190508181035f830152614719816146e0565b9050919050565b7f4465706f736974206361702065786365656465640000000000000000000000005f82015250565b5f614754601483613d57565b915061475f82614720565b602082019050919050565b5f6020820190508181035f83015261478181614748565b9050919050565b5f60808201905061479b5f830187614060565b6147a8602083018661364a565b6147b5604083018561364a565b6147c2606083018461364a565b95945050505050565b7f53776170206661696c65640000000000000000000000000000000000000000005f82015250565b5f6147ff600b83613d57565b915061480a826147cb565b602082019050919050565b5f6020820190508181035f83015261482c816147f3565b9050919050565b5f6040820190506148465f83018561364a565b614853602083018461364a565b9392505050565b7f4465706f736974206361702065786365656465642061667465722073776170005f82015250565b5f61488e601f83613d57565b91506148998261485a565b602082019050919050565b5f6020820190508181035f8301526148bb81614882565b9050919050565b7f4c6f616e206475726174696f6e20686173206e6f7420657870697265640000005f82015250565b5f6148f6601d83613d57565b9150614901826148c2565b602082019050919050565b5f6020820190508181035f830152614923816148ea565b9050919050565b7f4e6f7420656e6f756768206c697175696469747920666f7220666c6173686c6f5f8201527f616e000000000000000000000000000000000000000000000000000000000000602082015250565b5f614984602283613d57565b915061498f8261492a565b604082019050919050565b5f6020820190508181035f8301526149b181614978565b9050919050565b5f82825260208201905092915050565b5f6149d383856149b8565b93506149e08385846138e3565b6149e98361382b565b840190509392505050565b5f606082019050614a075f83018761364a565b614a14602083018661364a565b8181036040830152614a278184866149c8565b905095945050505050565b7f466c6173686c6f616e206e6f74207265706169640000000000000000000000005f82015250565b5f614a66601483613d57565b9150614a7182614a32565b602082019050919050565b5f6020820190508181035f830152614a9381614a5a565b9050919050565b5f604082019050614aad5f830185614060565b614aba6020830184613738565b939250505056fea2646970667358221220c481f0a47caa711fc9e4f5e57bf427f61374065f638be289cd92863d3f39feda64736f6c634300081a0033a26469706673582212204afdd74f31027b23fd30cee105d25069f7f956d509e391855fb75f6307b374ec64736f6c634300081a0033",
			"opcodes": "PUSH1 0x80 PUSH1 0x40 MSTORE CALLVALUE DUP1 ISZERO PUSH1 0xE JUMPI PUSH0 DUP1 REVERT JUMPDEST POP PUSH2 0x5BD0 DUP1 PUSH2 0x1C PUSH0 CODECOPY PUSH0 RETURN INVALID PUSH1 0x80 PUSH1 0x40 MSTORE CALLVALUE DUP1 ISZERO PUSH2 0xF JUMPI PUSH0 DUP1 REVERT JUMPDEST POP PUSH1 0x4 CALLDATASIZE LT PUSH2 0x34 JUMPI PUSH0 CALLDATALOAD PUSH1 0xE0 SHR DUP1 PUSH4 0x41D1DE97 EQ PUSH2 0x38 JUMPI DUP1 PUSH4 0xE7B8064A EQ PUSH2 0x68 JUMPI JUMPDEST PUSH0 DUP1 REVERT JUMPDEST PUSH2 0x52 PUSH1 0x4 DUP1 CALLDATASIZE SUB DUP2 ADD SWAP1 PUSH2 0x4D SWAP2 SWAP1 PUSH2 0x50F JUMP JUMPDEST PUSH2 0x98 JUMP JUMPDEST PUSH1 0x40 MLOAD PUSH2 0x5F SWAP2 SWAP1 PUSH2 0x579 JUMP JUMPDEST PUSH1 0x40 MLOAD DUP1 SWAP2 SUB SWAP1 RETURN JUMPDEST PUSH2 0x82 PUSH1 0x4 DUP1 CALLDATASIZE SUB DUP2 ADD SWAP1 PUSH2 0x7D SWAP2 SWAP1 PUSH2 0x7BA JUMP JUMPDEST PUSH2 0xD2 JUMP JUMPDEST PUSH1 0x40 MLOAD PUSH2 0x8F SWAP2 SWAP1 PUSH2 0x579 JUMP JUMPDEST PUSH1 0x40 MLOAD DUP1 SWAP2 SUB SWAP1 RETURN JUMPDEST PUSH0 DUP2 DUP2 SLOAD DUP2 LT PUSH2 0xA6 JUMPI PUSH0 DUP1 REVERT JUMPDEST SWAP1 PUSH0 MSTORE PUSH1 0x20 PUSH0 KECCAK256 ADD PUSH0 SWAP2 POP SLOAD SWAP1 PUSH2 0x100 EXP SWAP1 DIV PUSH20 0xFFFFFFFFFFFFFFFFFFFFFFFFFFFFFFFFFFFFFFFF AND DUP2 JUMP JUMPDEST PUSH0 DUP1 DUP10 DUP10 DUP10 DUP10 DUP10 PUSH1 0x40 MLOAD PUSH2 0xE5 SWAP1 PUSH2 0x4BE JUMP JUMPDEST PUSH2 0xF3 SWAP6 SWAP5 SWAP4 SWAP3 SWAP2 SWAP1 PUSH2 0x95E JUMP JUMPDEST PUSH1 0x40 MLOAD DUP1 SWAP2 SUB SWAP1 PUSH0 CREATE DUP1 ISZERO DUP1 ISZERO PUSH2 0x10C JUMPI RETURNDATASIZE PUSH0 DUP1 RETURNDATACOPY RETURNDATASIZE PUSH0 REVERT JUMPDEST POP SWAP1 POP DUP1 PUSH20 0xFFFFFFFFFFFFFFFFFFFFFFFFFFFFFFFFFFFFFFFF AND PUSH4 0x2F2FF15D DUP3 PUSH20 0xFFFFFFFFFFFFFFFFFFFFFFFFFFFFFFFFFFFFFFFF AND PUSH4 0xA217FDDF PUSH1 0x40 MLOAD DUP2 PUSH4 0xFFFFFFFF AND PUSH1 0xE0 SHL DUP2 MSTORE PUSH1 0x4 ADD PUSH1 0x20 PUSH1 0x40 MLOAD DUP1 DUP4 SUB DUP2 DUP7 GAS STATICCALL ISZERO DUP1 ISZERO PUSH2 0x174 JUMPI RETURNDATASIZE PUSH0 DUP1 RETURNDATACOPY RETURNDATASIZE PUSH0 REVERT JUMPDEST POP POP POP POP PUSH1 0x40 MLOAD RETURNDATASIZE PUSH1 0x1F NOT PUSH1 0x1F DUP3 ADD AND DUP3 ADD DUP1 PUSH1 0x40 MSTORE POP DUP2 ADD SWAP1 PUSH2 0x198 SWAP2 SWAP1 PUSH2 0x9E2 JUMP JUMPDEST CALLER PUSH1 0x40 MLOAD DUP4 PUSH4 0xFFFFFFFF AND PUSH1 0xE0 SHL DUP2 MSTORE PUSH1 0x4 ADD PUSH2 0x1B6 SWAP3 SWAP2 SWAP1 PUSH2 0xA1C JUMP JUMPDEST PUSH0 PUSH1 0x40 MLOAD DUP1 DUP4 SUB DUP2 PUSH0 DUP8 DUP1 EXTCODESIZE ISZERO DUP1 ISZERO PUSH2 0x1CD JUMPI PUSH0 DUP1 REVERT JUMPDEST POP GAS CALL ISZERO DUP1 ISZERO PUSH2 0x1DF JUMPI RETURNDATASIZE PUSH0 DUP1 RETURNDATACOPY RETURNDATASIZE PUSH0 REVERT JUMPDEST POP POP POP POP DUP1 PUSH20 0xFFFFFFFFFFFFFFFFFFFFFFFFFFFFFFFFFFFFFFFF AND PUSH4 0x2F2FF15D DUP3 PUSH20 0xFFFFFFFFFFFFFFFFFFFFFFFFFFFFFFFFFFFFFFFF AND PUSH4 0x75B238FC PUSH1 0x40 MLOAD DUP2 PUSH4 0xFFFFFFFF AND PUSH1 0xE0 SHL DUP2 MSTORE PUSH1 0x4 ADD PUSH1 0x20 PUSH1 0x40 MLOAD DUP1 DUP4 SUB DUP2 DUP7 GAS STATICCALL ISZERO DUP1 ISZERO PUSH2 0x248 JUMPI RETURNDATASIZE PUSH0 DUP1 RETURNDATACOPY RETURNDATASIZE PUSH0 REVERT JUMPDEST POP POP POP POP PUSH1 0x40 MLOAD RETURNDATASIZE PUSH1 0x1F NOT PUSH1 0x1F DUP3 ADD AND DUP3 ADD DUP1 PUSH1 0x40 MSTORE POP DUP2 ADD SWAP1 PUSH2 0x26C SWAP2 SWAP1 PUSH2 0x9E2 JUMP JUMPDEST CALLER PUSH1 0x40 MLOAD DUP4 PUSH4 0xFFFFFFFF AND PUSH1 0xE0 SHL DUP2 MSTORE PUSH1 0x4 ADD PUSH2 0x28A SWAP3 SWAP2 SWAP1 PUSH2 0xA1C JUMP JUMPDEST PUSH0 PUSH1 0x40 MLOAD DUP1 DUP4 SUB DUP2 PUSH0 DUP8 DUP1 EXTCODESIZE ISZERO DUP1 ISZERO PUSH2 0x2A1 JUMPI PUSH0 DUP1 REVERT JUMPDEST POP GAS CALL ISZERO DUP1 ISZERO PUSH2 0x2B3 JUMPI RETURNDATASIZE PUSH0 DUP1 RETURNDATACOPY RETURNDATASIZE PUSH0 REVERT JUMPDEST POP POP POP POP DUP1 PUSH20 0xFFFFFFFFFFFFFFFFFFFFFFFFFFFFFFFFFFFFFFFF AND PUSH4 0xD547741F DUP3 PUSH20 0xFFFFFFFFFFFFFFFFFFFFFFFFFFFFFFFFFFFFFFFF AND PUSH4 0xA217FDDF PUSH1 0x40 MLOAD DUP2 PUSH4 0xFFFFFFFF AND PUSH1 0xE0 SHL DUP2 MSTORE PUSH1 0x4 ADD PUSH1 0x20 PUSH1 0x40 MLOAD DUP1 DUP4 SUB DUP2 DUP7 GAS STATICCALL ISZERO DUP1 ISZERO PUSH2 0x31C JUMPI RETURNDATASIZE PUSH0 DUP1 RETURNDATACOPY RETURNDATASIZE PUSH0 REVERT JUMPDEST POP POP POP POP PUSH1 0x40 MLOAD RETURNDATASIZE PUSH1 0x1F NOT PUSH1 0x1F DUP3 ADD AND DUP3 ADD DUP1 PUSH1 0x40 MSTORE POP DUP2 ADD SWAP1 PUSH2 0x340 SWAP2 SWAP1 PUSH2 0x9E2 JUMP JUMPDEST ADDRESS PUSH1 0x40 MLOAD DUP4 PUSH4 0xFFFFFFFF AND PUSH1 0xE0 SHL DUP2 MSTORE PUSH1 0x4 ADD PUSH2 0x35E SWAP3 SWAP2 SWAP1 PUSH2 0xA1C JUMP JUMPDEST PUSH0 PUSH1 0x40 MLOAD DUP1 DUP4 SUB DUP2 PUSH0 DUP8 DUP1 EXTCODESIZE ISZERO DUP1 ISZERO PUSH2 0x375 JUMPI PUSH0 DUP1 REVERT JUMPDEST POP GAS CALL ISZERO DUP1 ISZERO PUSH2 0x387 JUMPI RETURNDATASIZE PUSH0 DUP1 RETURNDATACOPY RETURNDATASIZE PUSH0 REVERT JUMPDEST POP POP POP POP DUP1 PUSH20 0xFFFFFFFFFFFFFFFFFFFFFFFFFFFFFFFFFFFFFFFF AND PUSH4 0x3B01F07E DUP6 DUP6 CALLER DUP10 PUSH1 0x40 MLOAD DUP6 PUSH4 0xFFFFFFFF AND PUSH1 0xE0 SHL DUP2 MSTORE PUSH1 0x4 ADD PUSH2 0x3CA SWAP5 SWAP4 SWAP3 SWAP2 SWAP1 PUSH2 0xAB2 JUMP JUMPDEST PUSH0 PUSH1 0x40 MLOAD DUP1 DUP4 SUB DUP2 PUSH0 DUP8 DUP1 EXTCODESIZE ISZERO DUP1 ISZERO PUSH2 0x3E1 JUMPI PUSH0 DUP1 REVERT JUMPDEST POP GAS CALL ISZERO DUP1 ISZERO PUSH2 0x3F3 JUMPI RETURNDATASIZE PUSH0 DUP1 RETURNDATACOPY RETURNDATASIZE PUSH0 REVERT JUMPDEST POP POP POP POP PUSH0 DUP2 SWAP1 DUP1 PUSH1 0x1 DUP2 SLOAD ADD DUP1 DUP3 SSTORE DUP1 SWAP2 POP POP PUSH1 0x1 SWAP1 SUB SWAP1 PUSH0 MSTORE PUSH1 0x20 PUSH0 KECCAK256 ADD PUSH0 SWAP1 SWAP2 SWAP1 SWAP2 SWAP1 SWAP2 PUSH2 0x100 EXP DUP2 SLOAD DUP2 PUSH20 0xFFFFFFFFFFFFFFFFFFFFFFFFFFFFFFFFFFFFFFFF MUL NOT AND SWAP1 DUP4 PUSH20 0xFFFFFFFFFFFFFFFFFFFFFFFFFFFFFFFFFFFFFFFF AND MUL OR SWAP1 SSTORE POP DUP1 PUSH20 0xFFFFFFFFFFFFFFFFFFFFFFFFFFFFFFFFFFFFFFFF AND PUSH32 0x60D9FFBC790F0840908917C53655A8585C45074721BA8F4E366A401E44B7EEE8 DUP12 DUP12 DUP12 DUP12 DUP10 DUP10 PUSH1 0x40 MLOAD PUSH2 0x4A6 SWAP7 SWAP6 SWAP5 SWAP4 SWAP3 SWAP2 SWAP1 PUSH2 0xB03 JUMP JUMPDEST PUSH1 0x40 MLOAD DUP1 SWAP2 SUB SWAP1 LOG2 DUP1 SWAP2 POP POP SWAP9 SWAP8 POP POP POP POP POP POP POP POP JUMP JUMPDEST PUSH2 0x502A DUP1 PUSH2 0xB71 DUP4 CODECOPY ADD SWAP1 JUMP JUMPDEST PUSH0 PUSH1 0x40 MLOAD SWAP1 POP SWAP1 JUMP JUMPDEST PUSH0 DUP1 REVERT JUMPDEST PUSH0 DUP1 REVERT JUMPDEST PUSH0 DUP2 SWAP1 POP SWAP2 SWAP1 POP JUMP JUMPDEST PUSH2 0x4EE DUP2 PUSH2 0x4DC JUMP JUMPDEST DUP2 EQ PUSH2 0x4F8 JUMPI PUSH0 DUP1 REVERT JUMPDEST POP JUMP JUMPDEST PUSH0 DUP2 CALLDATALOAD SWAP1 POP PUSH2 0x509 DUP2 PUSH2 0x4E5 JUMP JUMPDEST SWAP3 SWAP2 POP POP JUMP JUMPDEST PUSH0 PUSH1 0x20 DUP3 DUP5 SUB SLT ISZERO PUSH2 0x524 JUMPI PUSH2 0x523 PUSH2 0x4D4 JUMP JUMPDEST JUMPDEST PUSH0 PUSH2 0x531 DUP5 DUP3 DUP6 ADD PUSH2 0x4FB JUMP JUMPDEST SWAP2 POP POP SWAP3 SWAP2 POP POP JUMP JUMPDEST PUSH0 PUSH20 0xFFFFFFFFFFFFFFFFFFFFFFFFFFFFFFFFFFFFFFFF DUP3 AND SWAP1 POP SWAP2 SWAP1 POP JUMP JUMPDEST PUSH0 PUSH2 0x563 DUP3 PUSH2 0x53A JUMP JUMPDEST SWAP1 POP SWAP2 SWAP1 POP JUMP JUMPDEST PUSH2 0x573 DUP2 PUSH2 0x559 JUMP JUMPDEST DUP3 MSTORE POP POP JUMP JUMPDEST PUSH0 PUSH1 0x20 DUP3 ADD SWAP1 POP PUSH2 0x58C PUSH0 DUP4 ADD DUP5 PUSH2 0x56A JUMP JUMPDEST SWAP3 SWAP2 POP POP JUMP JUMPDEST PUSH0 PUSH2 0x59C DUP3 PUSH2 0x559 JUMP JUMPDEST SWAP1 POP SWAP2 SWAP1 POP JUMP JUMPDEST PUSH2 0x5AC DUP2 PUSH2 0x592 JUMP JUMPDEST DUP2 EQ PUSH2 0x5B6 JUMPI PUSH0 DUP1 REVERT JUMPDEST POP JUMP JUMPDEST PUSH0 DUP2 CALLDATALOAD SWAP1 POP PUSH2 0x5C7 DUP2 PUSH2 0x5A3 JUMP JUMPDEST SWAP3 SWAP2 POP POP JUMP JUMPDEST PUSH0 PUSH2 0x5D7 DUP3 PUSH2 0x559 JUMP JUMPDEST SWAP1 POP SWAP2 SWAP1 POP JUMP JUMPDEST PUSH2 0x5E7 DUP2 PUSH2 0x5CD JUMP JUMPDEST DUP2 EQ PUSH2 0x5F1 JUMPI PUSH0 DUP1 REVERT JUMPDEST POP JUMP JUMPDEST PUSH0 DUP2 CALLDATALOAD SWAP1 POP PUSH2 0x602 DUP2 PUSH2 0x5DE JUMP JUMPDEST SWAP3 SWAP2 POP POP JUMP JUMPDEST PUSH0 PUSH2 0x612 DUP3 PUSH2 0x559 JUMP JUMPDEST SWAP1 POP SWAP2 SWAP1 POP JUMP JUMPDEST PUSH2 0x622 DUP2 PUSH2 0x608 JUMP JUMPDEST DUP2 EQ PUSH2 0x62C JUMPI PUSH0 DUP1 REVERT JUMPDEST POP JUMP JUMPDEST PUSH0 DUP2 CALLDATALOAD SWAP1 POP PUSH2 0x63D DUP2 PUSH2 0x619 JUMP JUMPDEST SWAP3 SWAP2 POP POP JUMP JUMPDEST PUSH0 PUSH2 0x64D DUP3 PUSH2 0x559 JUMP JUMPDEST SWAP1 POP SWAP2 SWAP1 POP JUMP JUMPDEST PUSH2 0x65D DUP2 PUSH2 0x643 JUMP JUMPDEST DUP2 EQ PUSH2 0x667 JUMPI PUSH0 DUP1 REVERT JUMPDEST POP JUMP JUMPDEST PUSH0 DUP2 CALLDATALOAD SWAP1 POP PUSH2 0x678 DUP2 PUSH2 0x654 JUMP JUMPDEST SWAP3 SWAP2 POP POP JUMP JUMPDEST PUSH0 DUP1 REVERT JUMPDEST PUSH0 DUP1 REVERT JUMPDEST PUSH0 PUSH1 0x1F NOT PUSH1 0x1F DUP4 ADD AND SWAP1 POP SWAP2 SWAP1 POP JUMP JUMPDEST PUSH32 0x4E487B7100000000000000000000000000000000000000000000000000000000 PUSH0 MSTORE PUSH1 0x41 PUSH1 0x4 MSTORE PUSH1 0x24 PUSH0 REVERT JUMPDEST PUSH2 0x6CC DUP3 PUSH2 0x686 JUMP JUMPDEST DUP2 ADD DUP2 DUP2 LT PUSH8 0xFFFFFFFFFFFFFFFF DUP3 GT OR ISZERO PUSH2 0x6EB JUMPI PUSH2 0x6EA PUSH2 0x696 JUMP JUMPDEST JUMPDEST DUP1 PUSH1 0x40 MSTORE POP POP POP JUMP JUMPDEST PUSH0 PUSH2 0x6FD PUSH2 0x4CB JUMP JUMPDEST SWAP1 POP PUSH2 0x709 DUP3 DUP3 PUSH2 0x6C3 JUMP JUMPDEST SWAP2 SWAP1 POP JUMP JUMPDEST PUSH0 PUSH8 0xFFFFFFFFFFFFFFFF DUP3 GT ISZERO PUSH2 0x728 JUMPI PUSH2 0x727 PUSH2 0x696 JUMP JUMPDEST JUMPDEST PUSH2 0x731 DUP3 PUSH2 0x686 JUMP JUMPDEST SWAP1 POP PUSH1 0x20 DUP2 ADD SWAP1 POP SWAP2 SWAP1 POP JUMP JUMPDEST DUP3 DUP2 DUP4 CALLDATACOPY PUSH0 DUP4 DUP4 ADD MSTORE POP POP POP JUMP JUMPDEST PUSH0 PUSH2 0x75E PUSH2 0x759 DUP5 PUSH2 0x70E JUMP JUMPDEST PUSH2 0x6F4 JUMP JUMPDEST SWAP1 POP DUP3 DUP2 MSTORE PUSH1 0x20 DUP2 ADD DUP5 DUP5 DUP5 ADD GT ISZERO PUSH2 0x77A JUMPI PUSH2 0x779 PUSH2 0x682 JUMP JUMPDEST JUMPDEST PUSH2 0x785 DUP5 DUP3 DUP6 PUSH2 0x73E JUMP JUMPDEST POP SWAP4 SWAP3 POP POP POP JUMP JUMPDEST PUSH0 DUP3 PUSH1 0x1F DUP4 ADD SLT PUSH2 0x7A1 JUMPI PUSH2 0x7A0 PUSH2 0x67E JUMP JUMPDEST JUMPDEST DUP2 CALLDATALOAD PUSH2 0x7B1 DUP5 DUP3 PUSH1 0x20 DUP7 ADD PUSH2 0x74C JUMP JUMPDEST SWAP2 POP POP SWAP3 SWAP2 POP POP JUMP JUMPDEST PUSH0 DUP1 PUSH0 DUP1 PUSH0 DUP1 PUSH0 DUP1 PUSH2 0x100 DUP10 DUP12 SUB SLT ISZERO PUSH2 0x7D7 JUMPI PUSH2 0x7D6 PUSH2 0x4D4 JUMP JUMPDEST JUMPDEST PUSH0 PUSH2 0x7E4 DUP12 DUP3 DUP13 ADD PUSH2 0x5B9 JUMP JUMPDEST SWAP9 POP POP PUSH1 0x20 PUSH2 0x7F5 DUP12 DUP3 DUP13 ADD PUSH2 0x5B9 JUMP JUMPDEST SWAP8 POP POP PUSH1 0x40 PUSH2 0x806 DUP12 DUP3 DUP13 ADD PUSH2 0x5F4 JUMP JUMPDEST SWAP7 POP POP PUSH1 0x60 PUSH2 0x817 DUP12 DUP3 DUP13 ADD PUSH2 0x62F JUMP JUMPDEST SWAP6 POP POP PUSH1 0x80 PUSH2 0x828 DUP12 DUP3 DUP13 ADD PUSH2 0x66A JUMP JUMPDEST SWAP5 POP POP PUSH1 0xA0 PUSH2 0x839 DUP12 DUP3 DUP13 ADD PUSH2 0x4FB JUMP JUMPDEST SWAP4 POP POP PUSH1 0xC0 DUP10 ADD CALLDATALOAD PUSH8 0xFFFFFFFFFFFFFFFF DUP2 GT ISZERO PUSH2 0x85A JUMPI PUSH2 0x859 PUSH2 0x4D8 JUMP JUMPDEST JUMPDEST PUSH2 0x866 DUP12 DUP3 DUP13 ADD PUSH2 0x78D JUMP JUMPDEST SWAP3 POP POP PUSH1 0xE0 DUP10 ADD CALLDATALOAD PUSH8 0xFFFFFFFFFFFFFFFF DUP2 GT ISZERO PUSH2 0x887 JUMPI PUSH2 0x886 PUSH2 0x4D8 JUMP JUMPDEST JUMPDEST PUSH2 0x893 DUP12 DUP3 DUP13 ADD PUSH2 0x78D JUMP JUMPDEST SWAP2 POP POP SWAP3 SWAP6 SWAP9 POP SWAP3 SWAP6 SWAP9 SWAP1 SWAP4 SWAP7 POP JUMP JUMPDEST PUSH0 DUP2 SWAP1 POP SWAP2 SWAP1 POP JUMP JUMPDEST PUSH0 PUSH2 0x8C6 PUSH2 0x8C1 PUSH2 0x8BC DUP5 PUSH2 0x53A JUMP JUMPDEST PUSH2 0x8A3 JUMP JUMPDEST PUSH2 0x53A JUMP JUMPDEST SWAP1 POP SWAP2 SWAP1 POP JUMP JUMPDEST PUSH0 PUSH2 0x8D7 DUP3 PUSH2 0x8AC JUMP JUMPDEST SWAP1 POP SWAP2 SWAP1 POP JUMP JUMPDEST PUSH0 PUSH2 0x8E8 DUP3 PUSH2 0x8CD JUMP JUMPDEST SWAP1 POP SWAP2 SWAP1 POP JUMP JUMPDEST PUSH2 0x8F8 DUP2 PUSH2 0x8DE JUMP JUMPDEST DUP3 MSTORE POP POP JUMP JUMPDEST PUSH0 PUSH2 0x908 DUP3 PUSH2 0x8CD JUMP JUMPDEST SWAP1 POP SWAP2 SWAP1 POP JUMP JUMPDEST PUSH2 0x918 DUP2 PUSH2 0x8FE JUMP JUMPDEST DUP3 MSTORE POP POP JUMP JUMPDEST PUSH0 PUSH2 0x928 DUP3 PUSH2 0x8CD JUMP JUMPDEST SWAP1 POP SWAP2 SWAP1 POP JUMP JUMPDEST PUSH2 0x938 DUP2 PUSH2 0x91E JUMP JUMPDEST DUP3 MSTORE POP POP JUMP JUMPDEST PUSH0 PUSH2 0x948 DUP3 PUSH2 0x8CD JUMP JUMPDEST SWAP1 POP SWAP2 SWAP1 POP JUMP JUMPDEST PUSH2 0x958 DUP2 PUSH2 0x93E JUMP JUMPDEST DUP3 MSTORE POP POP JUMP JUMPDEST PUSH0 PUSH1 0xA0 DUP3 ADD SWAP1 POP PUSH2 0x971 PUSH0 DUP4 ADD DUP9 PUSH2 0x8EF JUMP JUMPDEST PUSH2 0x97E PUSH1 0x20 DUP4 ADD DUP8 PUSH2 0x8EF JUMP JUMPDEST PUSH2 0x98B PUSH1 0x40 DUP4 ADD DUP7 PUSH2 0x90F JUMP JUMPDEST PUSH2 0x998 PUSH1 0x60 DUP4 ADD DUP6 PUSH2 0x92F JUMP JUMPDEST PUSH2 0x9A5 PUSH1 0x80 DUP4 ADD DUP5 PUSH2 0x94F JUMP JUMPDEST SWAP7 SWAP6 POP POP POP POP POP POP JUMP JUMPDEST PUSH0 DUP2 SWAP1 POP SWAP2 SWAP1 POP JUMP JUMPDEST PUSH2 0x9C1 DUP2 PUSH2 0x9AF JUMP JUMPDEST DUP2 EQ PUSH2 0x9CB JUMPI PUSH0 DUP1 REVERT JUMPDEST POP JUMP JUMPDEST PUSH0 DUP2 MLOAD SWAP1 POP PUSH2 0x9DC DUP2 PUSH2 0x9B8 JUMP JUMPDEST SWAP3 SWAP2 POP POP JUMP JUMPDEST PUSH0 PUSH1 0x20 DUP3 DUP5 SUB SLT ISZERO PUSH2 0x9F7 JUMPI PUSH2 0x9F6 PUSH2 0x4D4 JUMP JUMPDEST JUMPDEST PUSH0 PUSH2 0xA04 DUP5 DUP3 DUP6 ADD PUSH2 0x9CE JUMP JUMPDEST SWAP2 POP POP SWAP3 SWAP2 POP POP JUMP JUMPDEST PUSH2 0xA16 DUP2 PUSH2 0x9AF JUMP JUMPDEST DUP3 MSTORE POP POP JUMP JUMPDEST PUSH0 PUSH1 0x40 DUP3 ADD SWAP1 POP PUSH2 0xA2F PUSH0 DUP4 ADD DUP6 PUSH2 0xA0D JUMP JUMPDEST PUSH2 0xA3C PUSH1 0x20 DUP4 ADD DUP5 PUSH2 0x56A JUMP JUMPDEST SWAP4 SWAP3 POP POP POP JUMP JUMPDEST PUSH0 DUP2 MLOAD SWAP1 POP SWAP2 SWAP1 POP JUMP JUMPDEST PUSH0 DUP3 DUP3 MSTORE PUSH1 0x20 DUP3 ADD SWAP1 POP SWAP3 SWAP2 POP POP JUMP JUMPDEST DUP3 DUP2 DUP4 MCOPY PUSH0 DUP4 DUP4 ADD MSTORE POP POP POP JUMP JUMPDEST PUSH0 PUSH2 0xA75 DUP3 PUSH2 0xA43 JUMP JUMPDEST PUSH2 0xA7F DUP2 DUP6 PUSH2 0xA4D JUMP JUMPDEST SWAP4 POP PUSH2 0xA8F DUP2 DUP6 PUSH1 0x20 DUP7 ADD PUSH2 0xA5D JUMP JUMPDEST PUSH2 0xA98 DUP2 PUSH2 0x686 JUMP JUMPDEST DUP5 ADD SWAP2 POP POP SWAP3 SWAP2 POP POP JUMP JUMPDEST PUSH2 0xAAC DUP2 PUSH2 0x4DC JUMP JUMPDEST DUP3 MSTORE POP POP JUMP JUMPDEST PUSH0 PUSH1 0x80 DUP3 ADD SWAP1 POP DUP2 DUP2 SUB PUSH0 DUP4 ADD MSTORE PUSH2 0xACA DUP2 DUP8 PUSH2 0xA6B JUMP JUMPDEST SWAP1 POP DUP2 DUP2 SUB PUSH1 0x20 DUP4 ADD MSTORE PUSH2 0xADE DUP2 DUP7 PUSH2 0xA6B JUMP JUMPDEST SWAP1 POP PUSH2 0xAED PUSH1 0x40 DUP4 ADD DUP6 PUSH2 0x56A JUMP JUMPDEST PUSH2 0xAFA PUSH1 0x60 DUP4 ADD DUP5 PUSH2 0xAA3 JUMP JUMPDEST SWAP6 SWAP5 POP POP POP POP POP JUMP JUMPDEST PUSH0 PUSH1 0xC0 DUP3 ADD SWAP1 POP PUSH2 0xB16 PUSH0 DUP4 ADD DUP10 PUSH2 0x56A JUMP JUMPDEST PUSH2 0xB23 PUSH1 0x20 DUP4 ADD DUP9 PUSH2 0x56A JUMP JUMPDEST PUSH2 0xB30 PUSH1 0x40 DUP4 ADD DUP8 PUSH2 0x56A JUMP JUMPDEST PUSH2 0xB3D PUSH1 0x60 DUP4 ADD DUP7 PUSH2 0x56A JUMP JUMPDEST DUP2 DUP2 SUB PUSH1 0x80 DUP4 ADD MSTORE PUSH2 0xB4F DUP2 DUP6 PUSH2 0xA6B JUMP JUMPDEST SWAP1 POP DUP2 DUP2 SUB PUSH1 0xA0 DUP4 ADD MSTORE PUSH2 0xB63 DUP2 DUP5 PUSH2 0xA6B JUMP JUMPDEST SWAP1 POP SWAP8 SWAP7 POP POP POP POP POP POP POP JUMP INVALID PUSH1 0x80 PUSH1 0x40 MSTORE PUSH1 0x96 PUSH1 0x8 SSTORE PUSH3 0x3B100 PUSH1 0x9 SSTORE PUSH3 0x17BB00 PUSH1 0xA SSTORE PUSH3 0x2F7600 PUSH1 0xB SSTORE PUSH3 0x603D80 PUSH1 0xC SSTORE PUSH2 0x226 PUSH1 0xD SSTORE PUSH2 0x28A PUSH1 0xE SSTORE PUSH2 0x2BC PUSH1 0xF SSTORE PUSH2 0x384 PUSH1 0x10 SSTORE PUSH2 0x2710 PUSH1 0x11 SSTORE PUSH3 0x603D80 PUSH1 0x12 SSTORE PUSH1 0xA PUSH1 0x13 SSTORE PUSH1 0x5 PUSH1 0x14 SSTORE CALLVALUE DUP1 ISZERO PUSH2 0x5F JUMPI PUSH0 DUP1 REVERT JUMPDEST POP PUSH1 0x40 MLOAD PUSH2 0x502A CODESIZE SUB DUP1 PUSH2 0x502A DUP4 CODECOPY DUP2 DUP2 ADD PUSH1 0x40 MSTORE DUP2 ADD SWAP1 PUSH2 0x81 SWAP2 SWAP1 PUSH2 0x4AF JUMP JUMPDEST PUSH1 0x1 DUP1 DUP2 SWAP1 SSTORE POP DUP5 PUSH1 0x2 PUSH0 PUSH2 0x100 EXP DUP2 SLOAD DUP2 PUSH20 0xFFFFFFFFFFFFFFFFFFFFFFFFFFFFFFFFFFFFFFFF MUL NOT AND SWAP1 DUP4 PUSH20 0xFFFFFFFFFFFFFFFFFFFFFFFFFFFFFFFFFFFFFFFF AND MUL OR SWAP1 SSTORE POP DUP4 PUSH1 0x3 PUSH0 PUSH2 0x100 EXP DUP2 SLOAD DUP2 PUSH20 0xFFFFFFFFFFFFFFFFFFFFFFFFFFFFFFFFFFFFFFFF MUL NOT AND SWAP1 DUP4 PUSH20 0xFFFFFFFFFFFFFFFFFFFFFFFFFFFFFFFFFFFFFFFF AND MUL OR SWAP1 SSTORE POP DUP3 PUSH1 0x5 PUSH0 PUSH2 0x100 EXP DUP2 SLOAD DUP2 PUSH20 0xFFFFFFFFFFFFFFFFFFFFFFFFFFFFFFFFFFFFFFFF MUL NOT AND SWAP1 DUP4 PUSH20 0xFFFFFFFFFFFFFFFFFFFFFFFFFFFFFFFFFFFFFFFF AND MUL OR SWAP1 SSTORE POP DUP2 PUSH1 0x6 PUSH0 PUSH2 0x100 EXP DUP2 SLOAD DUP2 PUSH20 0xFFFFFFFFFFFFFFFFFFFFFFFFFFFFFFFFFFFFFFFF MUL NOT AND SWAP1 DUP4 PUSH20 0xFFFFFFFFFFFFFFFFFFFFFFFFFFFFFFFFFFFFFFFF AND MUL OR SWAP1 SSTORE POP DUP1 PUSH1 0x7 PUSH0 PUSH2 0x100 EXP DUP2 SLOAD DUP2 PUSH20 0xFFFFFFFFFFFFFFFFFFFFFFFFFFFFFFFFFFFFFFFF MUL NOT AND SWAP1 DUP4 PUSH20 0xFFFFFFFFFFFFFFFFFFFFFFFFFFFFFFFFFFFFFFFF AND MUL OR SWAP1 SSTORE POP PUSH2 0x1E7 PUSH0 DUP1 SHL PUSH2 0x1DC PUSH2 0x230 PUSH1 0x20 SHL PUSH1 0x20 SHR JUMP JUMPDEST PUSH2 0x237 PUSH1 0x20 SHL PUSH1 0x20 SHR JUMP JUMPDEST POP PUSH2 0x225 PUSH32 0xA49807205CE4D355092EF5A8A18F56E8913CF4A201FBE287825B095693C21775 PUSH2 0x21A PUSH2 0x230 PUSH1 0x20 SHL PUSH1 0x20 SHR JUMP JUMPDEST PUSH2 0x237 PUSH1 0x20 SHL PUSH1 0x20 SHR JUMP JUMPDEST POP POP POP POP POP POP PUSH2 0x526 JUMP JUMPDEST PUSH0 CALLER SWAP1 POP SWAP1 JUMP JUMPDEST PUSH0 PUSH2 0x248 DUP4 DUP4 PUSH2 0x32C PUSH1 0x20 SHL PUSH1 0x20 SHR JUMP JUMPDEST PUSH2 0x322 JUMPI PUSH1 0x1 PUSH0 DUP1 DUP6 DUP2 MSTORE PUSH1 0x20 ADD SWAP1 DUP2 MSTORE PUSH1 0x20 ADD PUSH0 KECCAK256 PUSH0 ADD PUSH0 DUP5 PUSH20 0xFFFFFFFFFFFFFFFFFFFFFFFFFFFFFFFFFFFFFFFF AND PUSH20 0xFFFFFFFFFFFFFFFFFFFFFFFFFFFFFFFFFFFFFFFF AND DUP2 MSTORE PUSH1 0x20 ADD SWAP1 DUP2 MSTORE PUSH1 0x20 ADD PUSH0 KECCAK256 PUSH0 PUSH2 0x100 EXP DUP2 SLOAD DUP2 PUSH1 0xFF MUL NOT AND SWAP1 DUP4 ISZERO ISZERO MUL OR SWAP1 SSTORE POP PUSH2 0x2BF PUSH2 0x230 PUSH1 0x20 SHL PUSH1 0x20 SHR JUMP JUMPDEST PUSH20 0xFFFFFFFFFFFFFFFFFFFFFFFFFFFFFFFFFFFFFFFF AND DUP3 PUSH20 0xFFFFFFFFFFFFFFFFFFFFFFFFFFFFFFFFFFFFFFFF AND DUP5 PUSH32 0x2F8788117E7EFF1D82E926EC794901D17C78024A50270940304540A733656F0D PUSH1 0x40 MLOAD PUSH1 0x40 MLOAD DUP1 SWAP2 SUB SWAP1 LOG4 PUSH1 0x1 SWAP1 POP PUSH2 0x326 JUMP JUMPDEST PUSH0 SWAP1 POP JUMPDEST SWAP3 SWAP2 POP POP JUMP JUMPDEST PUSH0 DUP1 PUSH0 DUP5 DUP2 MSTORE PUSH1 0x20 ADD SWAP1 DUP2 MSTORE PUSH1 0x20 ADD PUSH0 KECCAK256 PUSH0 ADD PUSH0 DUP4 PUSH20 0xFFFFFFFFFFFFFFFFFFFFFFFFFFFFFFFFFFFFFFFF AND PUSH20 0xFFFFFFFFFFFFFFFFFFFFFFFFFFFFFFFFFFFFFFFF AND DUP2 MSTORE PUSH1 0x20 ADD SWAP1 DUP2 MSTORE PUSH1 0x20 ADD PUSH0 KECCAK256 PUSH0 SWAP1 SLOAD SWAP1 PUSH2 0x100 EXP SWAP1 DIV PUSH1 0xFF AND SWAP1 POP SWAP3 SWAP2 POP POP JUMP JUMPDEST PUSH0 DUP1 REVERT JUMPDEST PUSH0 PUSH20 0xFFFFFFFFFFFFFFFFFFFFFFFFFFFFFFFFFFFFFFFF DUP3 AND SWAP1 POP SWAP2 SWAP1 POP JUMP JUMPDEST PUSH0 PUSH2 0x3BC DUP3 PUSH2 0x393 JUMP JUMPDEST SWAP1 POP SWAP2 SWAP1 POP JUMP JUMPDEST PUSH0 PUSH2 0x3CD DUP3 PUSH2 0x3B2 JUMP JUMPDEST SWAP1 POP SWAP2 SWAP1 POP JUMP JUMPDEST PUSH2 0x3DD DUP2 PUSH2 0x3C3 JUMP JUMPDEST DUP2 EQ PUSH2 0x3E7 JUMPI PUSH0 DUP1 REVERT JUMPDEST POP JUMP JUMPDEST PUSH0 DUP2 MLOAD SWAP1 POP PUSH2 0x3F8 DUP2 PUSH2 0x3D4 JUMP JUMPDEST SWAP3 SWAP2 POP POP JUMP JUMPDEST PUSH0 PUSH2 0x408 DUP3 PUSH2 0x3B2 JUMP JUMPDEST SWAP1 POP SWAP2 SWAP1 POP JUMP JUMPDEST PUSH2 0x418 DUP2 PUSH2 0x3FE JUMP JUMPDEST DUP2 EQ PUSH2 0x422 JUMPI PUSH0 DUP1 REVERT JUMPDEST POP JUMP JUMPDEST PUSH0 DUP2 MLOAD SWAP1 POP PUSH2 0x433 DUP2 PUSH2 0x40F JUMP JUMPDEST SWAP3 SWAP2 POP POP JUMP JUMPDEST PUSH0 PUSH2 0x443 DUP3 PUSH2 0x3B2 JUMP JUMPDEST SWAP1 POP SWAP2 SWAP1 POP JUMP JUMPDEST PUSH2 0x453 DUP2 PUSH2 0x439 JUMP JUMPDEST DUP2 EQ PUSH2 0x45D JUMPI PUSH0 DUP1 REVERT JUMPDEST POP JUMP JUMPDEST PUSH0 DUP2 MLOAD SWAP1 POP PUSH2 0x46E DUP2 PUSH2 0x44A JUMP JUMPDEST SWAP3 SWAP2 POP POP JUMP JUMPDEST PUSH0 PUSH2 0x47E DUP3 PUSH2 0x3B2 JUMP JUMPDEST SWAP1 POP SWAP2 SWAP1 POP JUMP JUMPDEST PUSH2 0x48E DUP2 PUSH2 0x474 JUMP JUMPDEST DUP2 EQ PUSH2 0x498 JUMPI PUSH0 DUP1 REVERT JUMPDEST POP JUMP JUMPDEST PUSH0 DUP2 MLOAD SWAP1 POP PUSH2 0x4A9 DUP2 PUSH2 0x485 JUMP JUMPDEST SWAP3 SWAP2 POP POP JUMP JUMPDEST PUSH0 DUP1 PUSH0 DUP1 PUSH0 PUSH1 0xA0 DUP7 DUP9 SUB SLT ISZERO PUSH2 0x4C8 JUMPI PUSH2 0x4C7 PUSH2 0x38F JUMP JUMPDEST JUMPDEST PUSH0 PUSH2 0x4D5 DUP9 DUP3 DUP10 ADD PUSH2 0x3EA JUMP JUMPDEST SWAP6 POP POP PUSH1 0x20 PUSH2 0x4E6 DUP9 DUP3 DUP10 ADD PUSH2 0x3EA JUMP JUMPDEST SWAP5 POP POP PUSH1 0x40 PUSH2 0x4F7 DUP9 DUP3 DUP10 ADD PUSH2 0x425 JUMP JUMPDEST SWAP4 POP POP PUSH1 0x60 PUSH2 0x508 DUP9 DUP3 DUP10 ADD PUSH2 0x460 JUMP JUMPDEST SWAP3 POP POP PUSH1 0x80 PUSH2 0x519 DUP9 DUP3 DUP10 ADD PUSH2 0x49B JUMP JUMPDEST SWAP2 POP POP SWAP3 SWAP6 POP SWAP3 SWAP6 SWAP1 SWAP4 POP JUMP JUMPDEST PUSH2 0x4AF7 DUP1 PUSH2 0x533 PUSH0 CODECOPY PUSH0 RETURN INVALID PUSH1 0x80 PUSH1 0x40 MSTORE CALLVALUE DUP1 ISZERO PUSH2 0xF JUMPI PUSH0 DUP1 REVERT JUMPDEST POP PUSH1 0x4 CALLDATASIZE LT PUSH2 0x2B9 JUMPI PUSH0 CALLDATALOAD PUSH1 0xE0 SHR DUP1 PUSH4 0x7978DCA9 GT PUSH2 0x180 JUMPI DUP1 PUSH4 0xCFAE3AA4 GT PUSH2 0xE7 JUMPI DUP1 PUSH4 0xE5829D20 GT PUSH2 0xA0 JUMPI DUP1 PUSH4 0xEE4054DC GT PUSH2 0x7A JUMPI DUP1 PUSH4 0xEE4054DC EQ PUSH2 0x830 JUMPI DUP1 PUSH4 0xF4068F8F EQ PUSH2 0x84E JUMPI DUP1 PUSH4 0xFC0C546A EQ PUSH2 0x86A JUMPI DUP1 PUSH4 0xFC54DBBA EQ PUSH2 0x888 JUMPI PUSH2 0x2B9 JUMP JUMPDEST DUP1 PUSH4 0xE5829D20 EQ PUSH2 0x7D8 JUMPI DUP1 PUSH4 0xE9CBD822 EQ PUSH2 0x7F4 JUMPI DUP1 PUSH4 0xEA071AC0 EQ PUSH2 0x812 JUMPI PUSH2 0x2B9 JUMP JUMPDEST DUP1 PUSH4 0xCFAE3AA4 EQ PUSH2 0x72C JUMPI DUP1 PUSH4 0xD547741F EQ PUSH2 0x748 JUMPI DUP1 PUSH4 0xD8B44008 EQ PUSH2 0x764 JUMPI DUP1 PUSH4 0xDBD5EDC7 EQ PUSH2 0x780 JUMPI DUP1 PUSH4 0xE0232B42 EQ PUSH2 0x79E JUMPI DUP1 PUSH4 0xE3363D4E EQ PUSH2 0x7BA JUMPI PUSH2 0x2B9 JUMP JUMPDEST DUP1 PUSH4 0xA217FDDF GT PUSH2 0x139 JUMPI DUP1 PUSH4 0xA217FDDF EQ PUSH2 0x67A JUMPI DUP1 PUSH4 0xB2016BD4 EQ PUSH2 0x698 JUMPI DUP1 PUSH4 0xC07B2E59 EQ PUSH2 0x6B6 JUMPI DUP1 PUSH4 0xC4500F81 EQ PUSH2 0x6D4 JUMPI DUP1 PUSH4 0xC45A0155 EQ PUSH2 0x6F0 JUMPI DUP1 PUSH4 0xCC952B57 EQ PUSH2 0x70E JUMPI PUSH2 0x2B9 JUMP JUMPDEST DUP1 PUSH4 0x7978DCA9 EQ PUSH2 0x5A4 JUMPI DUP1 PUSH4 0x7D882097 EQ PUSH2 0x5C0 JUMPI DUP1 PUSH4 0x874AFE7D EQ PUSH2 0x5DE JUMPI DUP1 PUSH4 0x8873EDB8 EQ PUSH2 0x5FC JUMPI DUP1 PUSH4 0x91D14854 EQ PUSH2 0x62C JUMPI DUP1 PUSH4 0x9653DEE5 EQ PUSH2 0x65C JUMPI PUSH2 0x2B9 JUMP JUMPDEST DUP1 PUSH4 0x3F69D0DA GT PUSH2 0x224 JUMPI DUP1 PUSH4 0x6938EAD5 GT PUSH2 0x1DD JUMPI DUP1 PUSH4 0x6938EAD5 EQ PUSH2 0x4DB JUMPI DUP1 PUSH4 0x6F9FB98A EQ PUSH2 0x4F9 JUMPI DUP1 PUSH4 0x72F76F1D EQ PUSH2 0x517 JUMPI DUP1 PUSH4 0x73B4086B EQ PUSH2 0x535 JUMPI DUP1 PUSH4 0x74375359 EQ PUSH2 0x568 JUMPI DUP1 PUSH4 0x75B238FC EQ PUSH2 0x586 JUMPI PUSH2 0x2B9 JUMP JUMPDEST DUP1 PUSH4 0x3F69D0DA EQ PUSH2 0x43F JUMPI DUP1 PUSH4 0x3FCCC927 EQ PUSH2 0x45D JUMPI DUP1 PUSH4 0x402D8883 EQ PUSH2 0x47B JUMPI DUP1 PUSH4 0x5E318E07 EQ PUSH2 0x485 JUMPI DUP1 PUSH4 0x61FEACFF EQ PUSH2 0x4A1 JUMPI DUP1 PUSH4 0x67F8D85D EQ PUSH2 0x4BF JUMPI PUSH2 0x2B9 JUMP JUMPDEST DUP1 PUSH4 0x2893BDBF GT PUSH2 0x276 JUMPI DUP1 PUSH4 0x2893BDBF EQ PUSH2 0x393 JUMPI DUP1 PUSH4 0x2E1A7D4D EQ PUSH2 0x3B1 JUMPI DUP1 PUSH4 0x2F2FF15D EQ PUSH2 0x3CD JUMPI DUP1 PUSH4 0x3402FF1D EQ PUSH2 0x3E9 JUMPI DUP1 PUSH4 0x36568ABE EQ PUSH2 0x407 JUMPI DUP1 PUSH4 0x3B01F07E EQ PUSH2 0x423 JUMPI PUSH2 0x2B9 JUMP JUMPDEST DUP1 PUSH4 0x1FFC9A7 EQ PUSH2 0x2BD JUMPI DUP1 PUSH4 0xD0CD216 EQ PUSH2 0x2ED JUMPI DUP1 PUSH4 0xECBCDAB EQ PUSH2 0x30B JUMPI DUP1 PUSH4 0x126082CF EQ PUSH2 0x327 JUMPI DUP1 PUSH4 0x22312F71 EQ PUSH2 0x345 JUMPI DUP1 PUSH4 0x248A9CA3 EQ PUSH2 0x363 JUMPI JUMPDEST PUSH0 DUP1 REVERT JUMPDEST PUSH2 0x2D7 PUSH1 0x4 DUP1 CALLDATASIZE SUB DUP2 ADD SWAP1 PUSH2 0x2D2 SWAP2 SWAP1 PUSH2 0x35E3 JUMP JUMPDEST PUSH2 0x8A6 JUMP JUMPDEST PUSH1 0x40 MLOAD PUSH2 0x2E4 SWAP2 SWAP1 PUSH2 0x3628 JUMP JUMPDEST PUSH1 0x40 MLOAD DUP1 SWAP2 SUB SWAP1 RETURN JUMPDEST PUSH2 0x2F5 PUSH2 0x91F JUMP JUMPDEST PUSH1 0x40 MLOAD PUSH2 0x302 SWAP2 SWAP1 PUSH2 0x3659 JUMP JUMPDEST PUSH1 0x40 MLOAD DUP1 SWAP2 SUB SWAP1 RETURN JUMPDEST PUSH2 0x325 PUSH1 0x4 DUP1 CALLDATASIZE SUB DUP2 ADD SWAP1 PUSH2 0x320 SWAP2 SWAP1 PUSH2 0x369C JUMP JUMPDEST PUSH2 0x925 JUMP JUMPDEST STOP JUMPDEST PUSH2 0x32F PUSH2 0xE39 JUMP JUMPDEST PUSH1 0x40 MLOAD PUSH2 0x33C SWAP2 SWAP1 PUSH2 0x3659 JUMP JUMPDEST PUSH1 0x40 MLOAD DUP1 SWAP2 SUB SWAP1 RETURN JUMPDEST PUSH2 0x34D PUSH2 0xE3F JUMP JUMPDEST PUSH1 0x40 MLOAD PUSH2 0x35A SWAP2 SWAP1 PUSH2 0x3659 JUMP JUMPDEST PUSH1 0x40 MLOAD DUP1 SWAP2 SUB SWAP1 RETURN JUMPDEST PUSH2 0x37D PUSH1 0x4 DUP1 CALLDATASIZE SUB DUP2 ADD SWAP1 PUSH2 0x378 SWAP2 SWAP1 PUSH2 0x370D JUMP JUMPDEST PUSH2 0xE45 JUMP JUMPDEST PUSH1 0x40 MLOAD PUSH2 0x38A SWAP2 SWAP1 PUSH2 0x3747 JUMP JUMPDEST PUSH1 0x40 MLOAD DUP1 SWAP2 SUB SWAP1 RETURN JUMPDEST PUSH2 0x39B PUSH2 0xE61 JUMP JUMPDEST PUSH1 0x40 MLOAD PUSH2 0x3A8 SWAP2 SWAP1 PUSH2 0x3659 JUMP JUMPDEST PUSH1 0x40 MLOAD DUP1 SWAP2 SUB SWAP1 RETURN JUMPDEST PUSH2 0x3CB PUSH1 0x4 DUP1 CALLDATASIZE SUB DUP2 ADD SWAP1 PUSH2 0x3C6 SWAP2 SWAP1 PUSH2 0x3760 JUMP JUMPDEST PUSH2 0xE67 JUMP JUMPDEST STOP JUMPDEST PUSH2 0x3E7 PUSH1 0x4 DUP1 CALLDATASIZE SUB DUP2 ADD SWAP1 PUSH2 0x3E2 SWAP2 SWAP1 PUSH2 0x37E5 JUMP JUMPDEST PUSH2 0x1354 JUMP JUMPDEST STOP JUMPDEST PUSH2 0x3F1 PUSH2 0x1376 JUMP JUMPDEST PUSH1 0x40 MLOAD PUSH2 0x3FE SWAP2 SWAP1 PUSH2 0x3659 JUMP JUMPDEST PUSH1 0x40 MLOAD DUP1 SWAP2 SUB SWAP1 RETURN JUMPDEST PUSH2 0x421 PUSH1 0x4 DUP1 CALLDATASIZE SUB DUP2 ADD SWAP1 PUSH2 0x41C SWAP2 SWAP1 PUSH2 0x37E5 JUMP JUMPDEST PUSH2 0x137C JUMP JUMPDEST STOP JUMPDEST PUSH2 0x43D PUSH1 0x4 DUP1 CALLDATASIZE SUB DUP2 ADD SWAP1 PUSH2 0x438 SWAP2 SWAP1 PUSH2 0x395F JUMP JUMPDEST PUSH2 0x13F7 JUMP JUMPDEST STOP JUMPDEST PUSH2 0x447 PUSH2 0x1953 JUMP JUMPDEST PUSH1 0x40 MLOAD PUSH2 0x454 SWAP2 SWAP1 PUSH2 0x3659 JUMP JUMPDEST PUSH1 0x40 MLOAD DUP1 SWAP2 SUB SWAP1 RETURN JUMPDEST PUSH2 0x465 PUSH2 0x1959 JUMP JUMPDEST PUSH1 0x40 MLOAD PUSH2 0x472 SWAP2 SWAP1 PUSH2 0x3659 JUMP JUMPDEST PUSH1 0x40 MLOAD DUP1 SWAP2 SUB SWAP1 RETURN JUMPDEST PUSH2 0x483 PUSH2 0x195F JUMP JUMPDEST STOP JUMPDEST PUSH2 0x49F PUSH1 0x4 DUP1 CALLDATASIZE SUB DUP2 ADD SWAP1 PUSH2 0x49A SWAP2 SWAP1 PUSH2 0x3760 JUMP JUMPDEST PUSH2 0x1E1A JUMP JUMPDEST STOP JUMPDEST PUSH2 0x4A9 PUSH2 0x1FA0 JUMP JUMPDEST PUSH1 0x40 MLOAD PUSH2 0x4B6 SWAP2 SWAP1 PUSH2 0x3659 JUMP JUMPDEST PUSH1 0x40 MLOAD DUP1 SWAP2 SUB SWAP1 RETURN JUMPDEST PUSH2 0x4D9 PUSH1 0x4 DUP1 CALLDATASIZE SUB DUP2 ADD SWAP1 PUSH2 0x4D4 SWAP2 SWAP1 PUSH2 0x3760 JUMP JUMPDEST PUSH2 0x1FA6 JUMP JUMPDEST STOP JUMPDEST PUSH2 0x4E3 PUSH2 0x1FDB JUMP JUMPDEST PUSH1 0x40 MLOAD PUSH2 0x4F0 SWAP2 SWAP1 PUSH2 0x3659 JUMP JUMPDEST PUSH1 0x40 MLOAD DUP1 SWAP2 SUB SWAP1 RETURN JUMPDEST PUSH2 0x501 PUSH2 0x1FE1 JUMP JUMPDEST PUSH1 0x40 MLOAD PUSH2 0x50E SWAP2 SWAP1 PUSH2 0x3659 JUMP JUMPDEST PUSH1 0x40 MLOAD DUP1 SWAP2 SUB SWAP1 RETURN JUMPDEST PUSH2 0x51F PUSH2 0x2080 JUMP JUMPDEST PUSH1 0x40 MLOAD PUSH2 0x52C SWAP2 SWAP1 PUSH2 0x3659 JUMP JUMPDEST PUSH1 0x40 MLOAD DUP1 SWAP2 SUB SWAP1 RETURN JUMPDEST PUSH2 0x54F PUSH1 0x4 DUP1 CALLDATASIZE SUB DUP2 ADD SWAP1 PUSH2 0x54A SWAP2 SWAP1 PUSH2 0x39FB JUMP JUMPDEST PUSH2 0x2086 JUMP JUMPDEST PUSH1 0x40 MLOAD PUSH2 0x55F SWAP5 SWAP4 SWAP3 SWAP2 SWAP1 PUSH2 0x3A26 JUMP JUMPDEST PUSH1 0x40 MLOAD DUP1 SWAP2 SUB SWAP1 RETURN JUMPDEST PUSH2 0x570 PUSH2 0x20B2 JUMP JUMPDEST PUSH1 0x40 MLOAD PUSH2 0x57D SWAP2 SWAP1 PUSH2 0x3659 JUMP JUMPDEST PUSH1 0x40 MLOAD DUP1 SWAP2 SUB SWAP1 RETURN JUMPDEST PUSH2 0x58E PUSH2 0x20B8 JUMP JUMPDEST PUSH1 0x40 MLOAD PUSH2 0x59B SWAP2 SWAP1 PUSH2 0x3747 JUMP JUMPDEST PUSH1 0x40 MLOAD DUP1 SWAP2 SUB SWAP1 RETURN JUMPDEST PUSH2 0x5BE PUSH1 0x4 DUP1 CALLDATASIZE SUB DUP2 ADD SWAP1 PUSH2 0x5B9 SWAP2 SWAP1 PUSH2 0x3A69 JUMP JUMPDEST PUSH2 0x20DC JUMP JUMPDEST STOP JUMPDEST PUSH2 0x5C8 PUSH2 0x26A4 JUMP JUMPDEST PUSH1 0x40 MLOAD PUSH2 0x5D5 SWAP2 SWAP1 PUSH2 0x3659 JUMP JUMPDEST PUSH1 0x40 MLOAD DUP1 SWAP2 SUB SWAP1 RETURN JUMPDEST PUSH2 0x5E6 PUSH2 0x26AA JUMP JUMPDEST PUSH1 0x40 MLOAD PUSH2 0x5F3 SWAP2 SWAP1 PUSH2 0x3659 JUMP JUMPDEST PUSH1 0x40 MLOAD DUP1 SWAP2 SUB SWAP1 RETURN JUMPDEST PUSH2 0x616 PUSH1 0x4 DUP1 CALLDATASIZE SUB DUP2 ADD SWAP1 PUSH2 0x611 SWAP2 SWAP1 PUSH2 0x39FB JUMP JUMPDEST PUSH2 0x26B0 JUMP JUMPDEST PUSH1 0x40 MLOAD PUSH2 0x623 SWAP2 SWAP1 PUSH2 0x3659 JUMP JUMPDEST PUSH1 0x40 MLOAD DUP1 SWAP2 SUB SWAP1 RETURN JUMPDEST PUSH2 0x646 PUSH1 0x4 DUP1 CALLDATASIZE SUB DUP2 ADD SWAP1 PUSH2 0x641 SWAP2 SWAP1 PUSH2 0x37E5 JUMP JUMPDEST PUSH2 0x2751 JUMP JUMPDEST PUSH1 0x40 MLOAD PUSH2 0x653 SWAP2 SWAP1 PUSH2 0x3628 JUMP JUMPDEST PUSH1 0x40 MLOAD DUP1 SWAP2 SUB SWAP1 RETURN JUMPDEST PUSH2 0x664 PUSH2 0x27B4 JUMP JUMPDEST PUSH1 0x40 MLOAD PUSH2 0x671 SWAP2 SWAP1 PUSH2 0x3B28 JUMP JUMPDEST PUSH1 0x40 MLOAD DUP1 SWAP2 SUB SWAP1 RETURN JUMPDEST PUSH2 0x682 PUSH2 0x27D9 JUMP JUMPDEST PUSH1 0x40 MLOAD PUSH2 0x68F SWAP2 SWAP1 PUSH2 0x3747 JUMP JUMPDEST PUSH1 0x40 MLOAD DUP1 SWAP2 SUB SWAP1 RETURN JUMPDEST PUSH2 0x6A0 PUSH2 0x27DF JUMP JUMPDEST PUSH1 0x40 MLOAD PUSH2 0x6AD SWAP2 SWAP1 PUSH2 0x3B61 JUMP JUMPDEST PUSH1 0x40 MLOAD DUP1 SWAP2 SUB SWAP1 RETURN JUMPDEST PUSH2 0x6BE PUSH2 0x2804 JUMP JUMPDEST PUSH1 0x40 MLOAD PUSH2 0x6CB SWAP2 SWAP1 PUSH2 0x3659 JUMP JUMPDEST PUSH1 0x40 MLOAD DUP1 SWAP2 SUB SWAP1 RETURN JUMPDEST PUSH2 0x6EE PUSH1 0x4 DUP1 CALLDATASIZE SUB DUP2 ADD SWAP1 PUSH2 0x6E9 SWAP2 SWAP1 PUSH2 0x39FB JUMP JUMPDEST PUSH2 0x280A JUMP JUMPDEST STOP JUMPDEST PUSH2 0x6F8 PUSH2 0x2C5B JUMP JUMPDEST PUSH1 0x40 MLOAD PUSH2 0x705 SWAP2 SWAP1 PUSH2 0x3B9A JUMP JUMPDEST PUSH1 0x40 MLOAD DUP1 SWAP2 SUB SWAP1 RETURN JUMPDEST PUSH2 0x716 PUSH2 0x2C80 JUMP JUMPDEST PUSH1 0x40 MLOAD PUSH2 0x723 SWAP2 SWAP1 PUSH2 0x3659 JUMP JUMPDEST PUSH1 0x40 MLOAD DUP1 SWAP2 SUB SWAP1 RETURN JUMPDEST PUSH2 0x746 PUSH1 0x4 DUP1 CALLDATASIZE SUB DUP2 ADD SWAP1 PUSH2 0x741 SWAP2 SWAP1 PUSH2 0x3760 JUMP JUMPDEST PUSH2 0x2C86 JUMP JUMPDEST STOP JUMPDEST PUSH2 0x762 PUSH1 0x4 DUP1 CALLDATASIZE SUB DUP2 ADD SWAP1 PUSH2 0x75D SWAP2 SWAP1 PUSH2 0x37E5 JUMP JUMPDEST PUSH2 0x2CBB JUMP JUMPDEST STOP JUMPDEST PUSH2 0x77E PUSH1 0x4 DUP1 CALLDATASIZE SUB DUP2 ADD SWAP1 PUSH2 0x779 SWAP2 SWAP1 PUSH2 0x3760 JUMP JUMPDEST PUSH2 0x2CDD JUMP JUMPDEST STOP JUMPDEST PUSH2 0x788 PUSH2 0x2D12 JUMP JUMPDEST PUSH1 0x40 MLOAD PUSH2 0x795 SWAP2 SWAP1 PUSH2 0x3659 JUMP JUMPDEST PUSH1 0x40 MLOAD DUP1 SWAP2 SUB SWAP1 RETURN JUMPDEST PUSH2 0x7B8 PUSH1 0x4 DUP1 CALLDATASIZE SUB DUP2 ADD SWAP1 PUSH2 0x7B3 SWAP2 SWAP1 PUSH2 0x3C10 JUMP JUMPDEST PUSH2 0x2D18 JUMP JUMPDEST STOP JUMPDEST PUSH2 0x7C2 PUSH2 0x3140 JUMP JUMPDEST PUSH1 0x40 MLOAD PUSH2 0x7CF SWAP2 SWAP1 PUSH2 0x3659 JUMP JUMPDEST PUSH1 0x40 MLOAD DUP1 SWAP2 SUB SWAP1 RETURN JUMPDEST PUSH2 0x7F2 PUSH1 0x4 DUP1 CALLDATASIZE SUB DUP2 ADD SWAP1 PUSH2 0x7ED SWAP2 SWAP1 PUSH2 0x3760 JUMP JUMPDEST PUSH2 0x3146 JUMP JUMPDEST STOP JUMPDEST PUSH2 0x7FC PUSH2 0x318B JUMP JUMPDEST PUSH1 0x40 MLOAD PUSH2 0x809 SWAP2 SWAP1 PUSH2 0x3B61 JUMP JUMPDEST PUSH1 0x40 MLOAD DUP1 SWAP2 SUB SWAP1 RETURN JUMPDEST PUSH2 0x81A PUSH2 0x31B0 JUMP JUMPDEST PUSH1 0x40 MLOAD PUSH2 0x827 SWAP2 SWAP1 PUSH2 0x3CA1 JUMP JUMPDEST PUSH1 0x40 MLOAD DUP1 SWAP2 SUB SWAP1 RETURN JUMPDEST PUSH2 0x838 PUSH2 0x31D5 JUMP JUMPDEST PUSH1 0x40 MLOAD PUSH2 0x845 SWAP2 SWAP1 PUSH2 0x3659 JUMP JUMPDEST PUSH1 0x40 MLOAD DUP1 SWAP2 SUB SWAP1 RETURN JUMPDEST PUSH2 0x868 PUSH1 0x4 DUP1 CALLDATASIZE SUB DUP2 ADD SWAP1 PUSH2 0x863 SWAP2 SWAP1 PUSH2 0x3CBA JUMP JUMPDEST PUSH2 0x31DB JUMP JUMPDEST STOP JUMPDEST PUSH2 0x872 PUSH2 0x3238 JUMP JUMPDEST PUSH1 0x40 MLOAD PUSH2 0x87F SWAP2 SWAP1 PUSH2 0x3D3E JUMP JUMPDEST PUSH1 0x40 MLOAD DUP1 SWAP2 SUB SWAP1 RETURN JUMPDEST PUSH2 0x890 PUSH2 0x325D JUMP JUMPDEST PUSH1 0x40 MLOAD PUSH2 0x89D SWAP2 SWAP1 PUSH2 0x3659 JUMP JUMPDEST PUSH1 0x40 MLOAD DUP1 SWAP2 SUB SWAP1 RETURN JUMPDEST PUSH0 PUSH32 0x7965DB0B00000000000000000000000000000000000000000000000000000000 PUSH28 0xFFFFFFFFFFFFFFFFFFFFFFFFFFFFFFFFFFFFFFFFFFFFFFFFFFFFFFFF NOT AND DUP3 PUSH28 0xFFFFFFFFFFFFFFFFFFFFFFFFFFFFFFFFFFFFFFFFFFFFFFFFFFFFFFFF NOT AND EQ DUP1 PUSH2 0x918 JUMPI POP PUSH2 0x917 DUP3 PUSH2 0x3263 JUMP JUMPDEST JUMPDEST SWAP1 POP SWAP2 SWAP1 POP JUMP JUMPDEST PUSH1 0xC SLOAD DUP2 JUMP JUMPDEST PUSH2 0x92D PUSH2 0x32CC JUMP JUMPDEST PUSH0 DUP3 GT PUSH2 0x96F JUMPI PUSH1 0x40 MLOAD PUSH32 0x8C379A000000000000000000000000000000000000000000000000000000000 DUP2 MSTORE PUSH1 0x4 ADD PUSH2 0x966 SWAP1 PUSH2 0x3DB1 JUMP JUMPDEST PUSH1 0x40 MLOAD DUP1 SWAP2 SUB SWAP1 REVERT JUMPDEST PUSH0 PUSH20 0xFFFFFFFFFFFFFFFFFFFFFFFFFFFFFFFFFFFFFFFF AND PUSH1 0x4 PUSH0 SWAP1 SLOAD SWAP1 PUSH2 0x100 EXP SWAP1 DIV PUSH20 0xFFFFFFFFFFFFFFFFFFFFFFFFFFFFFFFFFFFFFFFF AND PUSH20 0xFFFFFFFFFFFFFFFFFFFFFFFFFFFFFFFFFFFFFFFF AND SUB PUSH2 0x9FE JUMPI PUSH1 0x40 MLOAD PUSH32 0x8C379A000000000000000000000000000000000000000000000000000000000 DUP2 MSTORE PUSH1 0x4 ADD PUSH2 0x9F5 SWAP1 PUSH2 0x3E19 JUMP JUMPDEST PUSH1 0x40 MLOAD DUP1 SWAP2 SUB SWAP1 REVERT JUMPDEST PUSH0 PUSH1 0x1B PUSH0 CALLER PUSH20 0xFFFFFFFFFFFFFFFFFFFFFFFFFFFFFFFFFFFFFFFF AND PUSH20 0xFFFFFFFFFFFFFFFFFFFFFFFFFFFFFFFFFFFFFFFF AND DUP2 MSTORE PUSH1 0x20 ADD SWAP1 DUP2 MSTORE PUSH1 0x20 ADD PUSH0 KECCAK256 PUSH0 ADD SLOAD EQ PUSH2 0xA7F JUMPI PUSH1 0x40 MLOAD PUSH32 0x8C379A000000000000000000000000000000000000000000000000000000000 DUP2 MSTORE PUSH1 0x4 ADD PUSH2 0xA76 SWAP1 PUSH2 0x3E81 JUMP JUMPDEST PUSH1 0x40 MLOAD DUP1 SWAP2 SUB SWAP1 REVERT JUMPDEST PUSH1 0x1 DUP2 EQ DUP1 PUSH2 0xA8E JUMPI POP PUSH1 0x2 DUP2 EQ JUMPDEST DUP1 PUSH2 0xA99 JUMPI POP PUSH1 0x3 DUP2 EQ JUMPDEST DUP1 PUSH2 0xAA4 JUMPI POP PUSH1 0x4 DUP2 EQ JUMPDEST PUSH2 0xAE3 JUMPI PUSH1 0x40 MLOAD PUSH32 0x8C379A000000000000000000000000000000000000000000000000000000000 DUP2 MSTORE PUSH1 0x4 ADD PUSH2 0xADA SWAP1 PUSH2 0x3EE9 JUMP JUMPDEST PUSH1 0x40 MLOAD DUP1 SWAP2 SUB SWAP1 REVERT JUMPDEST PUSH0 GAS SWAP1 POP PUSH0 PUSH1 0x64 PUSH1 0x8 SLOAD DUP6 PUSH2 0xAF8 SWAP2 SWAP1 PUSH2 0x3F34 JUMP JUMPDEST PUSH2 0xB02 SWAP2 SWAP1 PUSH2 0x3FA2 JUMP JUMPDEST SWAP1 POP DUP4 PUSH1 0x18 SLOAD LT ISZERO PUSH2 0xB49 JUMPI PUSH1 0x40 MLOAD PUSH32 0x8C379A000000000000000000000000000000000000000000000000000000000 DUP2 MSTORE PUSH1 0x4 ADD PUSH2 0xB40 SWAP1 PUSH2 0x4042 JUMP JUMPDEST PUSH1 0x40 MLOAD DUP1 SWAP2 SUB SWAP1 REVERT JUMPDEST PUSH1 0x3 PUSH0 SWAP1 SLOAD SWAP1 PUSH2 0x100 EXP SWAP1 DIV PUSH20 0xFFFFFFFFFFFFFFFFFFFFFFFFFFFFFFFFFFFFFFFF AND PUSH20 0xFFFFFFFFFFFFFFFFFFFFFFFFFFFFFFFFFFFFFFFF AND PUSH4 0x23B872DD CALLER ADDRESS DUP5 PUSH1 0x40 MLOAD DUP5 PUSH4 0xFFFFFFFF AND PUSH1 0xE0 SHL DUP2 MSTORE PUSH1 0x4 ADD PUSH2 0xBA7 SWAP4 SWAP3 SWAP2 SWAP1 PUSH2 0x406F JUMP JUMPDEST PUSH1 0x20 PUSH1 0x40 MLOAD DUP1 DUP4 SUB DUP2 PUSH0 DUP8 GAS CALL ISZERO DUP1 ISZERO PUSH2 0xBC3 JUMPI RETURNDATASIZE PUSH0 DUP1 RETURNDATACOPY RETURNDATASIZE PUSH0 REVERT JUMPDEST POP POP POP POP PUSH1 0x40 MLOAD RETURNDATASIZE PUSH1 0x1F NOT PUSH1 0x1F DUP3 ADD AND DUP3 ADD DUP1 PUSH1 0x40 MSTORE POP DUP2 ADD SWAP1 PUSH2 0xBE7 SWAP2 SWAP1 PUSH2 0x40CE JUMP JUMPDEST POP PUSH0 PUSH2 0xBF2 DUP4 PUSH2 0x3312 JUMP JUMPDEST SWAP1 POP PUSH1 0x5 PUSH0 SWAP1 SLOAD SWAP1 PUSH2 0x100 EXP SWAP1 DIV PUSH20 0xFFFFFFFFFFFFFFFFFFFFFFFFFFFFFFFFFFFFFFFF AND PUSH20 0xFFFFFFFFFFFFFFFFFFFFFFFFFFFFFFFFFFFFFFFF AND PUSH4 0x79CC6790 PUSH2 0xC39 PUSH2 0x3336 JUMP JUMPDEST DUP4 PUSH1 0x40 MLOAD DUP4 PUSH4 0xFFFFFFFF AND PUSH1 0xE0 SHL DUP2 MSTORE PUSH1 0x4 ADD PUSH2 0xC57 SWAP3 SWAP2 SWAP1 PUSH2 0x40F9 JUMP JUMPDEST PUSH0 PUSH1 0x40 MLOAD DUP1 DUP4 SUB DUP2 PUSH0 DUP8 DUP1 EXTCODESIZE ISZERO DUP1 ISZERO PUSH2 0xC6E JUMPI PUSH0 DUP1 REVERT JUMPDEST POP GAS CALL ISZERO DUP1 ISZERO PUSH2 0xC80 JUMPI RETURNDATASIZE PUSH0 DUP1 RETURNDATACOPY RETURNDATASIZE PUSH0 REVERT JUMPDEST POP POP POP POP PUSH1 0x40 MLOAD DUP1 PUSH1 0x80 ADD PUSH1 0x40 MSTORE DUP1 DUP7 DUP2 MSTORE PUSH1 0x20 ADD DUP4 DUP2 MSTORE PUSH1 0x20 ADD NUMBER DUP2 MSTORE PUSH1 0x20 ADD DUP6 DUP2 MSTORE POP PUSH1 0x1B PUSH0 CALLER PUSH20 0xFFFFFFFFFFFFFFFFFFFFFFFFFFFFFFFFFFFFFFFF AND PUSH20 0xFFFFFFFFFFFFFFFFFFFFFFFFFFFFFFFFFFFFFFFF AND DUP2 MSTORE PUSH1 0x20 ADD SWAP1 DUP2 MSTORE PUSH1 0x20 ADD PUSH0 KECCAK256 PUSH0 DUP3 ADD MLOAD DUP2 PUSH0 ADD SSTORE PUSH1 0x20 DUP3 ADD MLOAD DUP2 PUSH1 0x1 ADD SSTORE PUSH1 0x40 DUP3 ADD MLOAD DUP2 PUSH1 0x2 ADD SSTORE PUSH1 0x60 DUP3 ADD MLOAD DUP2 PUSH1 0x3 ADD SSTORE SWAP1 POP POP DUP5 PUSH1 0x17 PUSH0 DUP3 DUP3 SLOAD PUSH2 0xD1C SWAP2 SWAP1 PUSH2 0x4120 JUMP JUMPDEST SWAP3 POP POP DUP2 SWAP1 SSTORE POP DUP5 PUSH1 0x18 PUSH0 DUP3 DUP3 SLOAD PUSH2 0xD34 SWAP2 SWAP1 PUSH2 0x4153 JUMP JUMPDEST SWAP3 POP POP DUP2 SWAP1 SSTORE POP PUSH1 0x2 PUSH0 SWAP1 SLOAD SWAP1 PUSH2 0x100 EXP SWAP1 DIV PUSH20 0xFFFFFFFFFFFFFFFFFFFFFFFFFFFFFFFFFFFFFFFF AND PUSH20 0xFFFFFFFFFFFFFFFFFFFFFFFFFFFFFFFFFFFFFFFF AND PUSH4 0xA9059CBB CALLER DUP8 PUSH1 0x40 MLOAD DUP4 PUSH4 0xFFFFFFFF AND PUSH1 0xE0 SHL DUP2 MSTORE PUSH1 0x4 ADD PUSH2 0xD97 SWAP3 SWAP2 SWAP1 PUSH2 0x40F9 JUMP JUMPDEST PUSH1 0x20 PUSH1 0x40 MLOAD DUP1 DUP4 SUB DUP2 PUSH0 DUP8 GAS CALL ISZERO DUP1 ISZERO PUSH2 0xDB3 JUMPI RETURNDATASIZE PUSH0 DUP1 RETURNDATACOPY RETURNDATASIZE PUSH0 REVERT JUMPDEST POP POP POP POP PUSH1 0x40 MLOAD RETURNDATASIZE PUSH1 0x1F NOT PUSH1 0x1F DUP3 ADD AND DUP3 ADD DUP1 PUSH1 0x40 MSTORE POP DUP2 ADD SWAP1 PUSH2 0xDD7 SWAP2 SWAP1 PUSH2 0x40CE JUMP JUMPDEST POP CALLER PUSH20 0xFFFFFFFFFFFFFFFFFFFFFFFFFFFFFFFFFFFFFFFF AND PUSH32 0xC4381C9C7B508979896C55381C1CB8C2AEF28D753CFF7661F9CD87B9A14584F8 DUP7 PUSH0 DUP6 PUSH1 0x40 MLOAD PUSH2 0xE22 SWAP4 SWAP3 SWAP2 SWAP1 PUSH2 0x41BF JUMP JUMPDEST PUSH1 0x40 MLOAD DUP1 SWAP2 SUB SWAP1 LOG2 POP POP POP PUSH2 0xE35 PUSH2 0x333D JUMP JUMPDEST POP POP JUMP JUMPDEST PUSH1 0x11 SLOAD DUP2 JUMP JUMPDEST PUSH1 0x9 SLOAD DUP2 JUMP JUMPDEST PUSH0 DUP1 PUSH0 DUP4 DUP2 MSTORE PUSH1 0x20 ADD SWAP1 DUP2 MSTORE PUSH1 0x20 ADD PUSH0 KECCAK256 PUSH1 0x1 ADD SLOAD SWAP1 POP SWAP2 SWAP1 POP JUMP JUMPDEST PUSH1 0xF SLOAD DUP2 JUMP JUMPDEST PUSH2 0xE6F PUSH2 0x32CC JUMP JUMPDEST PUSH0 DUP2 GT PUSH2 0xEB1 JUMPI PUSH1 0x40 MLOAD PUSH32 0x8C379A000000000000000000000000000000000000000000000000000000000 DUP2 MSTORE PUSH1 0x4 ADD PUSH2 0xEA8 SWAP1 PUSH2 0x423E JUMP JUMPDEST PUSH1 0x40 MLOAD DUP1 SWAP2 SUB SWAP1 REVERT JUMPDEST PUSH0 PUSH20 0xFFFFFFFFFFFFFFFFFFFFFFFFFFFFFFFFFFFFFFFF AND PUSH1 0x4 PUSH0 SWAP1 SLOAD SWAP1 PUSH2 0x100 EXP SWAP1 DIV PUSH20 0xFFFFFFFFFFFFFFFFFFFFFFFFFFFFFFFFFFFFFFFF AND PUSH20 0xFFFFFFFFFFFFFFFFFFFFFFFFFFFFFFFFFFFFFFFF AND SUB PUSH2 0xF40 JUMPI PUSH1 0x40 MLOAD PUSH32 0x8C379A000000000000000000000000000000000000000000000000000000000 DUP2 MSTORE PUSH1 0x4 ADD PUSH2 0xF37 SWAP1 PUSH2 0x3E19 JUMP JUMPDEST PUSH1 0x40 MLOAD DUP1 SWAP2 SUB SWAP1 REVERT JUMPDEST PUSH0 PUSH1 0x4 PUSH0 SWAP1 SLOAD SWAP1 PUSH2 0x100 EXP SWAP1 DIV PUSH20 0xFFFFFFFFFFFFFFFFFFFFFFFFFFFFFFFFFFFFFFFF AND PUSH20 0xFFFFFFFFFFFFFFFFFFFFFFFFFFFFFFFFFFFFFFFF AND PUSH4 0x18160DDD PUSH1 0x40 MLOAD DUP2 PUSH4 0xFFFFFFFF AND PUSH1 0xE0 SHL DUP2 MSTORE PUSH1 0x4 ADD PUSH1 0x20 PUSH1 0x40 MLOAD DUP1 DUP4 SUB DUP2 DUP7 GAS STATICCALL ISZERO DUP1 ISZERO PUSH2 0xFAB JUMPI RETURNDATASIZE PUSH0 DUP1 RETURNDATACOPY RETURNDATASIZE PUSH0 REVERT JUMPDEST POP POP POP POP PUSH1 0x40 MLOAD RETURNDATASIZE PUSH1 0x1F NOT PUSH1 0x1F DUP3 ADD AND DUP3 ADD DUP1 PUSH1 0x40 MSTORE POP DUP2 ADD SWAP1 PUSH2 0xFCF SWAP2 SWAP1 PUSH2 0x4270 JUMP JUMPDEST SWAP1 POP PUSH0 DUP2 GT PUSH2 0x1013 JUMPI PUSH1 0x40 MLOAD PUSH32 0x8C379A000000000000000000000000000000000000000000000000000000000 DUP2 MSTORE PUSH1 0x4 ADD PUSH2 0x100A SWAP1 PUSH2 0x42E5 JUMP JUMPDEST PUSH1 0x40 MLOAD DUP1 SWAP2 SUB SWAP1 REVERT JUMPDEST PUSH0 PUSH1 0x4 PUSH0 SWAP1 SLOAD SWAP1 PUSH2 0x100 EXP SWAP1 DIV PUSH20 0xFFFFFFFFFFFFFFFFFFFFFFFFFFFFFFFFFFFFFFFF AND PUSH20 0xFFFFFFFFFFFFFFFFFFFFFFFFFFFFFFFFFFFFFFFF AND PUSH4 0x70A08231 PUSH2 0x1059 PUSH2 0x3336 JUMP JUMPDEST PUSH1 0x40 MLOAD DUP3 PUSH4 0xFFFFFFFF AND PUSH1 0xE0 SHL DUP2 MSTORE PUSH1 0x4 ADD PUSH2 0x1075 SWAP2 SWAP1 PUSH2 0x4303 JUMP JUMPDEST PUSH1 0x20 PUSH1 0x40 MLOAD DUP1 DUP4 SUB DUP2 DUP7 GAS STATICCALL ISZERO DUP1 ISZERO PUSH2 0x1090 JUMPI RETURNDATASIZE PUSH0 DUP1 RETURNDATACOPY RETURNDATASIZE PUSH0 REVERT JUMPDEST POP POP POP POP PUSH1 0x40 MLOAD RETURNDATASIZE PUSH1 0x1F NOT PUSH1 0x1F DUP3 ADD AND DUP3 ADD DUP1 PUSH1 0x40 MSTORE POP DUP2 ADD SWAP1 PUSH2 0x10B4 SWAP2 SWAP1 PUSH2 0x4270 JUMP JUMPDEST SWAP1 POP DUP3 DUP2 LT ISZERO PUSH2 0x10F9 JUMPI PUSH1 0x40 MLOAD PUSH32 0x8C379A000000000000000000000000000000000000000000000000000000000 DUP2 MSTORE PUSH1 0x4 ADD PUSH2 0x10F0 SWAP1 PUSH2 0x4366 JUMP JUMPDEST PUSH1 0x40 MLOAD DUP1 SWAP2 SUB SWAP1 REVERT JUMPDEST PUSH0 DUP3 PUSH8 0xDE0B6B3A7640000 DUP6 PUSH2 0x110F SWAP2 SWAP1 PUSH2 0x3F34 JUMP JUMPDEST PUSH2 0x1119 SWAP2 SWAP1 PUSH2 0x3FA2 JUMP JUMPDEST SWAP1 POP PUSH0 PUSH8 0xDE0B6B3A7640000 DUP3 PUSH1 0x16 SLOAD PUSH2 0x1133 SWAP2 SWAP1 PUSH2 0x3F34 JUMP JUMPDEST PUSH2 0x113D SWAP2 SWAP1 PUSH2 0x3FA2 JUMP JUMPDEST SWAP1 POP PUSH0 PUSH8 0xDE0B6B3A7640000 DUP4 PUSH1 0x1A SLOAD PUSH2 0x1157 SWAP2 SWAP1 PUSH2 0x3F34 JUMP JUMPDEST PUSH2 0x1161 SWAP2 SWAP1 PUSH2 0x3FA2 JUMP JUMPDEST SWAP1 POP PUSH0 DUP2 DUP4 PUSH2 0x1170 SWAP2 SWAP1 PUSH2 0x4120 JUMP JUMPDEST SWAP1 POP PUSH1 0x4 PUSH0 SWAP1 SLOAD SWAP1 PUSH2 0x100 EXP SWAP1 DIV PUSH20 0xFFFFFFFFFFFFFFFFFFFFFFFFFFFFFFFFFFFFFFFF AND PUSH20 0xFFFFFFFFFFFFFFFFFFFFFFFFFFFFFFFFFFFFFFFF AND PUSH4 0x79CC6790 PUSH2 0x11B7 PUSH2 0x3336 JUMP JUMPDEST DUP10 PUSH1 0x40 MLOAD DUP4 PUSH4 0xFFFFFFFF AND PUSH1 0xE0 SHL DUP2 MSTORE PUSH1 0x4 ADD PUSH2 0x11D5 SWAP3 SWAP2 SWAP1 PUSH2 0x40F9 JUMP JUMPDEST PUSH0 PUSH1 0x40 MLOAD DUP1 DUP4 SUB DUP2 PUSH0 DUP8 DUP1 EXTCODESIZE ISZERO DUP1 ISZERO PUSH2 0x11EC JUMPI PUSH0 DUP1 REVERT JUMPDEST POP GAS CALL ISZERO DUP1 ISZERO PUSH2 0x11FE JUMPI RETURNDATASIZE PUSH0 DUP1 RETURNDATACOPY RETURNDATASIZE PUSH0 REVERT JUMPDEST POP POP POP POP DUP3 PUSH1 0x16 PUSH0 DUP3 DUP3 SLOAD PUSH2 0x1213 SWAP2 SWAP1 PUSH2 0x4153 JUMP JUMPDEST SWAP3 POP POP DUP2 SWAP1 SSTORE POP DUP2 PUSH1 0x1A PUSH0 DUP3 DUP3 SLOAD PUSH2 0x122B SWAP2 SWAP1 PUSH2 0x4153 JUMP JUMPDEST SWAP3 POP POP DUP2 SWAP1 SSTORE POP DUP1 PUSH1 0x18 PUSH0 DUP3 DUP3 SLOAD PUSH2 0x1243 SWAP2 SWAP1 PUSH2 0x4153 JUMP JUMPDEST SWAP3 POP POP DUP2 SWAP1 SSTORE POP PUSH1 0x2 PUSH0 SWAP1 SLOAD SWAP1 PUSH2 0x100 EXP SWAP1 DIV PUSH20 0xFFFFFFFFFFFFFFFFFFFFFFFFFFFFFFFFFFFFFFFF AND PUSH20 0xFFFFFFFFFFFFFFFFFFFFFFFFFFFFFFFFFFFFFFFF AND PUSH4 0xA9059CBB PUSH2 0x128F PUSH2 0x3336 JUMP JUMPDEST DUP4 PUSH1 0x40 MLOAD DUP4 PUSH4 0xFFFFFFFF AND PUSH1 0xE0 SHL DUP2 MSTORE PUSH1 0x4 ADD PUSH2 0x12AD SWAP3 SWAP2 SWAP1 PUSH2 0x40F9 JUMP JUMPDEST PUSH1 0x20 PUSH1 0x40 MLOAD DUP1 DUP4 SUB DUP2 PUSH0 DUP8 GAS CALL ISZERO DUP1 ISZERO PUSH2 0x12C9 JUMPI RETURNDATASIZE PUSH0 DUP1 RETURNDATACOPY RETURNDATASIZE PUSH0 REVERT JUMPDEST POP POP POP POP PUSH1 0x40 MLOAD RETURNDATASIZE PUSH1 0x1F NOT PUSH1 0x1F DUP3 ADD AND DUP3 ADD DUP1 PUSH1 0x40 MSTORE POP DUP2 ADD SWAP1 PUSH2 0x12ED SWAP2 SWAP1 PUSH2 0x40CE JUMP JUMPDEST POP PUSH2 0x12F6 PUSH2 0x3336 JUMP JUMPDEST PUSH20 0xFFFFFFFFFFFFFFFFFFFFFFFFFFFFFFFFFFFFFFFF AND PUSH32 0x7084F5476618D8E60B11EF0D7D3F06914655ADB8793E28FF7F018D4C76D505D5 DUP3 PUSH1 0x40 MLOAD PUSH2 0x133B SWAP2 SWAP1 PUSH2 0x3659 JUMP JUMPDEST PUSH1 0x40 MLOAD DUP1 SWAP2 SUB SWAP1 LOG2 POP POP POP POP POP POP PUSH2 0x1351 PUSH2 0x333D JUMP JUMPDEST POP JUMP JUMPDEST PUSH2 0x135D DUP3 PUSH2 0xE45 JUMP JUMPDEST PUSH2 0x1366 DUP2 PUSH2 0x3346 JUMP JUMPDEST PUSH2 0x1370 DUP4 DUP4 PUSH2 0x335A JUMP JUMPDEST POP POP POP POP JUMP JUMPDEST PUSH1 0x8 SLOAD DUP2 JUMP JUMPDEST PUSH2 0x1384 PUSH2 0x3336 JUMP JUMPDEST PUSH20 0xFFFFFFFFFFFFFFFFFFFFFFFFFFFFFFFFFFFFFFFF AND DUP2 PUSH20 0xFFFFFFFFFFFFFFFFFFFFFFFFFFFFFFFFFFFFFFFF AND EQ PUSH2 0x13E8 JUMPI PUSH1 0x40 MLOAD PUSH32 0x6697B23200000000000000000000000000000000000000000000000000000000 DUP2 MSTORE PUSH1 0x4 ADD PUSH1 0x40 MLOAD DUP1 SWAP2 SUB SWAP1 REVERT JUMPDEST PUSH2 0x13F2 DUP3 DUP3 PUSH2 0x3443 JUMP JUMPDEST POP POP POP JUMP JUMPDEST PUSH32 0xA49807205CE4D355092EF5A8A18F56E8913CF4A201FBE287825B095693C21775 PUSH2 0x1421 DUP2 PUSH2 0x3346 JUMP JUMPDEST PUSH0 PUSH20 0xFFFFFFFFFFFFFFFFFFFFFFFFFFFFFFFFFFFFFFFF AND PUSH1 0x4 PUSH0 SWAP1 SLOAD SWAP1 PUSH2 0x100 EXP SWAP1 DIV PUSH20 0xFFFFFFFFFFFFFFFFFFFFFFFFFFFFFFFFFFFFFFFF AND PUSH20 0xFFFFFFFFFFFFFFFFFFFFFFFFFFFFFFFFFFFFFFFF AND EQ PUSH2 0x14B0 JUMPI PUSH1 0x40 MLOAD PUSH32 0x8C379A000000000000000000000000000000000000000000000000000000000 DUP2 MSTORE PUSH1 0x4 ADD PUSH2 0x14A7 SWAP1 PUSH2 0x43CE JUMP JUMPDEST PUSH1 0x40 MLOAD DUP1 SWAP2 SUB SWAP1 REVERT JUMPDEST DUP2 PUSH1 0x15 DUP2 SWAP1 SSTORE POP PUSH1 0x6 PUSH0 SWAP1 SLOAD SWAP1 PUSH2 0x100 EXP SWAP1 DIV PUSH20 0xFFFFFFFFFFFFFFFFFFFFFFFFFFFFFFFFFFFFFFFF AND PUSH20 0xFFFFFFFFFFFFFFFFFFFFFFFFFFFFFFFFFFFFFFFF AND PUSH4 0xA5604403 DUP7 DUP7 ADDRESS PUSH1 0x40 MLOAD DUP5 PUSH4 0xFFFFFFFF AND PUSH1 0xE0 SHL DUP2 MSTORE PUSH1 0x4 ADD PUSH2 0x1515 SWAP4 SWAP3 SWAP2 SWAP1 PUSH2 0x443C JUMP JUMPDEST PUSH1 0x20 PUSH1 0x40 MLOAD DUP1 DUP4 SUB DUP2 PUSH0 DUP8 GAS CALL ISZERO DUP1 ISZERO PUSH2 0x1531 JUMPI RETURNDATASIZE PUSH0 DUP1 RETURNDATACOPY RETURNDATASIZE PUSH0 REVERT JUMPDEST POP POP POP POP PUSH1 0x40 MLOAD RETURNDATASIZE PUSH1 0x1F NOT PUSH1 0x1F DUP3 ADD AND DUP3 ADD DUP1 PUSH1 0x40 MSTORE POP DUP2 ADD SWAP1 PUSH2 0x1555 SWAP2 SWAP1 PUSH2 0x44BA JUMP JUMPDEST PUSH1 0x4 PUSH0 PUSH2 0x100 EXP DUP2 SLOAD DUP2 PUSH20 0xFFFFFFFFFFFFFFFFFFFFFFFFFFFFFFFFFFFFFFFF MUL NOT AND SWAP1 DUP4 PUSH20 0xFFFFFFFFFFFFFFFFFFFFFFFFFFFFFFFFFFFFFFFF AND MUL OR SWAP1 SSTORE POP PUSH1 0x4 PUSH0 SWAP1 SLOAD SWAP1 PUSH2 0x100 EXP SWAP1 DIV PUSH20 0xFFFFFFFFFFFFFFFFFFFFFFFFFFFFFFFFFFFFFFFF AND PUSH20 0xFFFFFFFFFFFFFFFFFFFFFFFFFFFFFFFFFFFFFFFF AND PUSH4 0x2F2FF15D PUSH1 0x4 PUSH0 SWAP1 SLOAD SWAP1 PUSH2 0x100 EXP SWAP1 DIV PUSH20 0xFFFFFFFFFFFFFFFFFFFFFFFFFFFFFFFFFFFFFFFF AND PUSH20 0xFFFFFFFFFFFFFFFFFFFFFFFFFFFFFFFFFFFFFFFF AND PUSH4 0xD5391393 PUSH1 0x40 MLOAD DUP2 PUSH4 0xFFFFFFFF AND PUSH1 0xE0 SHL DUP2 MSTORE PUSH1 0x4 ADD PUSH1 0x20 PUSH1 0x40 MLOAD DUP1 DUP4 SUB DUP2 DUP7 GAS STATICCALL ISZERO DUP1 ISZERO PUSH2 0x163B JUMPI RETURNDATASIZE PUSH0 DUP1 RETURNDATACOPY RETURNDATASIZE PUSH0 REVERT JUMPDEST POP POP POP POP PUSH1 0x40 MLOAD RETURNDATASIZE PUSH1 0x1F NOT PUSH1 0x1F DUP3 ADD AND DUP3 ADD DUP1 PUSH1 0x40 MSTORE POP DUP2 ADD SWAP1 PUSH2 0x165F SWAP2 SWAP1 PUSH2 0x44F9 JUMP JUMPDEST ADDRESS PUSH1 0x40 MLOAD DUP4 PUSH4 0xFFFFFFFF AND PUSH1 0xE0 SHL DUP2 MSTORE PUSH1 0x4 ADD PUSH2 0x167D SWAP3 SWAP2 SWAP1 PUSH2 0x4524 JUMP JUMPDEST PUSH0 PUSH1 0x40 MLOAD DUP1 DUP4 SUB DUP2 PUSH0 DUP8 DUP1 EXTCODESIZE ISZERO DUP1 ISZERO PUSH2 0x1694 JUMPI PUSH0 DUP1 REVERT JUMPDEST POP GAS CALL ISZERO DUP1 ISZERO PUSH2 0x16A6 JUMPI RETURNDATASIZE PUSH0 DUP1 RETURNDATACOPY RETURNDATASIZE PUSH0 REVERT JUMPDEST POP POP POP POP PUSH1 0x4 PUSH0 SWAP1 SLOAD SWAP1 PUSH2 0x100 EXP SWAP1 DIV PUSH20 0xFFFFFFFFFFFFFFFFFFFFFFFFFFFFFFFFFFFFFFFF AND PUSH20 0xFFFFFFFFFFFFFFFFFFFFFFFFFFFFFFFFFFFFFFFF AND PUSH4 0x2F2FF15D PUSH1 0x4 PUSH0 SWAP1 SLOAD SWAP1 PUSH2 0x100 EXP SWAP1 DIV PUSH20 0xFFFFFFFFFFFFFFFFFFFFFFFFFFFFFFFFFFFFFFFF AND PUSH20 0xFFFFFFFFFFFFFFFFFFFFFFFFFFFFFFFFFFFFFFFF AND PUSH4 0x282C51F3 PUSH1 0x40 MLOAD DUP2 PUSH4 0xFFFFFFFF AND PUSH1 0xE0 SHL DUP2 MSTORE PUSH1 0x4 ADD PUSH1 0x20 PUSH1 0x40 MLOAD DUP1 DUP4 SUB DUP2 DUP7 GAS STATICCALL ISZERO DUP1 ISZERO PUSH2 0x1751 JUMPI RETURNDATASIZE PUSH0 DUP1 RETURNDATACOPY RETURNDATASIZE PUSH0 REVERT JUMPDEST POP POP POP POP PUSH1 0x40 MLOAD RETURNDATASIZE PUSH1 0x1F NOT PUSH1 0x1F DUP3 ADD AND DUP3 ADD DUP1 PUSH1 0x40 MSTORE POP DUP2 ADD SWAP1 PUSH2 0x1775 SWAP2 SWAP1 PUSH2 0x44F9 JUMP JUMPDEST ADDRESS PUSH1 0x40 MLOAD DUP4 PUSH4 0xFFFFFFFF AND PUSH1 0xE0 SHL DUP2 MSTORE PUSH1 0x4 ADD PUSH2 0x1793 SWAP3 SWAP2 SWAP1 PUSH2 0x4524 JUMP JUMPDEST PUSH0 PUSH1 0x40 MLOAD DUP1 DUP4 SUB DUP2 PUSH0 DUP8 DUP1 EXTCODESIZE ISZERO DUP1 ISZERO PUSH2 0x17AA JUMPI PUSH0 DUP1 REVERT JUMPDEST POP GAS CALL ISZERO DUP1 ISZERO PUSH2 0x17BC JUMPI RETURNDATASIZE PUSH0 DUP1 RETURNDATACOPY RETURNDATASIZE PUSH0 REVERT JUMPDEST POP POP POP POP PUSH1 0x4 PUSH0 SWAP1 SLOAD SWAP1 PUSH2 0x100 EXP SWAP1 DIV PUSH20 0xFFFFFFFFFFFFFFFFFFFFFFFFFFFFFFFFFFFFFFFF AND PUSH20 0xFFFFFFFFFFFFFFFFFFFFFFFFFFFFFFFFFFFFFFFF AND PUSH4 0x2F2FF15D PUSH1 0x4 PUSH0 SWAP1 SLOAD SWAP1 PUSH2 0x100 EXP SWAP1 DIV PUSH20 0xFFFFFFFFFFFFFFFFFFFFFFFFFFFFFFFFFFFFFFFF AND PUSH20 0xFFFFFFFFFFFFFFFFFFFFFFFFFFFFFFFFFFFFFFFF AND PUSH4 0xA217FDDF PUSH1 0x40 MLOAD DUP2 PUSH4 0xFFFFFFFF AND PUSH1 0xE0 SHL DUP2 MSTORE PUSH1 0x4 ADD PUSH1 0x20 PUSH1 0x40 MLOAD DUP1 DUP4 SUB DUP2 DUP7 GAS STATICCALL ISZERO DUP1 ISZERO PUSH2 0x1867 JUMPI RETURNDATASIZE PUSH0 DUP1 RETURNDATACOPY RETURNDATASIZE PUSH0 REVERT JUMPDEST POP POP POP POP PUSH1 0x40 MLOAD RETURNDATASIZE PUSH1 0x1F NOT PUSH1 0x1F DUP3 ADD AND DUP3 ADD DUP1 PUSH1 0x40 MSTORE POP DUP2 ADD SWAP1 PUSH2 0x188B SWAP2 SWAP1 PUSH2 0x44F9 JUMP JUMPDEST DUP6 PUSH1 0x40 MLOAD DUP4 PUSH4 0xFFFFFFFF AND PUSH1 0xE0 SHL DUP2 MSTORE PUSH1 0x4 ADD PUSH2 0x18A9 SWAP3 SWAP2 SWAP1 PUSH2 0x4524 JUMP JUMPDEST PUSH0 PUSH1 0x40 MLOAD DUP1 DUP4 SUB DUP2 PUSH0 DUP8 DUP1 EXTCODESIZE ISZERO DUP1 ISZERO PUSH2 0x18C0 JUMPI PUSH0 DUP1 REVERT JUMPDEST POP GAS CALL ISZERO DUP1 ISZERO PUSH2 0x18D2 JUMPI RETURNDATASIZE PUSH0 DUP1 RETURNDATACOPY RETURNDATASIZE PUSH0 REVERT JUMPDEST POP POP POP POP PUSH2 0x18DE PUSH2 0x3336 JUMP JUMPDEST PUSH20 0xFFFFFFFFFFFFFFFFFFFFFFFFFFFFFFFFFFFFFFFF AND PUSH32 0x24F32F0E548F877EA0850BAB3FDC7F2392F24A08AD93179B7BA7B78FC5D5B37D PUSH1 0x4 PUSH0 SWAP1 SLOAD SWAP1 PUSH2 0x100 EXP SWAP1 DIV PUSH20 0xFFFFFFFFFFFFFFFFFFFFFFFFFFFFFFFFFFFFFFFF AND PUSH1 0x40 MLOAD PUSH2 0x1944 SWAP2 SWAP1 PUSH2 0x4303 JUMP JUMPDEST PUSH1 0x40 MLOAD DUP1 SWAP2 SUB SWAP1 LOG2 POP POP POP POP POP JUMP JUMPDEST PUSH1 0x12 SLOAD DUP2 JUMP JUMPDEST PUSH1 0xA SLOAD DUP2 JUMP JUMPDEST PUSH2 0x1967 PUSH2 0x32CC JUMP JUMPDEST PUSH0 PUSH1 0x1B PUSH0 CALLER PUSH20 0xFFFFFFFFFFFFFFFFFFFFFFFFFFFFFFFFFFFFFFFF AND PUSH20 0xFFFFFFFFFFFFFFFFFFFFFFFFFFFFFFFFFFFFFFFF AND DUP2 MSTORE PUSH1 0x20 ADD SWAP1 DUP2 MSTORE PUSH1 0x20 ADD PUSH0 KECCAK256 SWAP1 POP PUSH0 DUP2 PUSH0 ADD SLOAD GT PUSH2 0x19EC JUMPI PUSH1 0x40 MLOAD PUSH32 0x8C379A000000000000000000000000000000000000000000000000000000000 DUP2 MSTORE PUSH1 0x4 ADD PUSH2 0x19E3 SWAP1 PUSH2 0x4595 JUMP JUMPDEST PUSH1 0x40 MLOAD DUP1 SWAP2 SUB SWAP1 REVERT JUMPDEST PUSH0 DUP2 PUSH0 ADD SLOAD SWAP1 POP PUSH0 DUP1 PUSH0 PUSH1 0x1 DUP6 PUSH1 0x3 ADD SLOAD SUB PUSH2 0x1A11 JUMPI PUSH1 0xD SLOAD SWAP2 POP PUSH1 0x9 SLOAD SWAP1 POP PUSH2 0x1AA0 JUMP JUMPDEST PUSH1 0x2 DUP6 PUSH1 0x3 ADD SLOAD SUB PUSH2 0x1A2C JUMPI PUSH1 0xE SLOAD SWAP2 POP PUSH1 0xA SLOAD SWAP1 POP PUSH2 0x1A9F JUMP JUMPDEST PUSH1 0x3 DUP6 PUSH1 0x3 ADD SLOAD SUB PUSH2 0x1A47 JUMPI PUSH1 0xF SLOAD SWAP2 POP PUSH1 0xB SLOAD SWAP1 POP PUSH2 0x1A9E JUMP JUMPDEST PUSH1 0x4 DUP6 PUSH1 0x3 ADD SLOAD SUB PUSH2 0x1A62 JUMPI PUSH1 0x10 SLOAD SWAP2 POP PUSH1 0xC SLOAD SWAP1 POP PUSH2 0x1A9D JUMP JUMPDEST PUSH1 0x40 MLOAD PUSH32 0x8C379A000000000000000000000000000000000000000000000000000000000 DUP2 MSTORE PUSH1 0x4 ADD PUSH2 0x1A94 SWAP1 PUSH2 0x45FD JUMP JUMPDEST PUSH1 0x40 MLOAD DUP1 SWAP2 SUB SWAP1 REVERT JUMPDEST JUMPDEST JUMPDEST JUMPDEST PUSH0 DUP6 PUSH1 0x2 ADD SLOAD NUMBER PUSH2 0x1AB1 SWAP2 SWAP1 PUSH2 0x4153 JUMP JUMPDEST SWAP1 POP DUP2 DUP2 GT ISZERO PUSH2 0x1ABF JUMPI DUP2 SWAP1 POP JUMPDEST PUSH0 PUSH1 0x12 SLOAD PUSH1 0x11 SLOAD PUSH2 0x1AD0 SWAP2 SWAP1 PUSH2 0x3F34 JUMP JUMPDEST DUP3 DUP6 DUP10 PUSH0 ADD SLOAD PUSH2 0x1AE0 SWAP2 SWAP1 PUSH2 0x3F34 JUMP JUMPDEST PUSH2 0x1AEA SWAP2 SWAP1 PUSH2 0x3F34 JUMP JUMPDEST PUSH2 0x1AF4 SWAP2 SWAP1 PUSH2 0x3FA2 JUMP JUMPDEST SWAP1 POP PUSH0 PUSH1 0x11 SLOAD PUSH1 0x13 SLOAD DUP10 PUSH0 ADD SLOAD PUSH2 0x1B0B SWAP2 SWAP1 PUSH2 0x3F34 JUMP JUMPDEST PUSH2 0x1B15 SWAP2 SWAP1 PUSH2 0x3FA2 JUMP JUMPDEST SWAP1 POP DUP1 DUP3 GT PUSH2 0x1B24 JUMPI DUP1 PUSH2 0x1B26 JUMP JUMPDEST DUP2 JUMPDEST SWAP6 POP DUP8 PUSH1 0x1 ADD SLOAD DUP7 GT ISZERO PUSH2 0x1B6F JUMPI PUSH1 0x40 MLOAD PUSH32 0x8C379A000000000000000000000000000000000000000000000000000000000 DUP2 MSTORE PUSH1 0x4 ADD PUSH2 0x1B66 SWAP1 PUSH2 0x4665 JUMP JUMPDEST PUSH1 0x40 MLOAD DUP1 SWAP2 SUB SWAP1 REVERT JUMPDEST PUSH0 PUSH1 0x11 SLOAD PUSH1 0x5 DUP9 PUSH2 0x1B80 SWAP2 SWAP1 PUSH2 0x3F34 JUMP JUMPDEST PUSH2 0x1B8A SWAP2 SWAP1 PUSH2 0x3FA2 JUMP JUMPDEST SWAP1 POP PUSH0 DUP2 DUP9 PUSH2 0x1B99 SWAP2 SWAP1 PUSH2 0x4153 JUMP JUMPDEST SWAP1 POP DUP2 PUSH1 0x19 PUSH0 DUP3 DUP3 SLOAD PUSH2 0x1BAC SWAP2 SWAP1 PUSH2 0x4120 JUMP JUMPDEST SWAP3 POP POP DUP2 SWAP1 SSTORE POP DUP1 PUSH1 0x1A PUSH0 DUP3 DUP3 SLOAD PUSH2 0x1BC4 SWAP2 SWAP1 PUSH2 0x4120 JUMP JUMPDEST SWAP3 POP POP DUP2 SWAP1 SSTORE POP DUP1 DUP10 PUSH2 0x1BD7 SWAP2 SWAP1 PUSH2 0x4120 JUMP JUMPDEST PUSH1 0x18 PUSH0 DUP3 DUP3 SLOAD PUSH2 0x1BE7 SWAP2 SWAP1 PUSH2 0x4120 JUMP JUMPDEST SWAP3 POP POP DUP2 SWAP1 SSTORE POP PUSH0 DUP9 DUP12 PUSH1 0x1 ADD SLOAD PUSH2 0x1BFF SWAP2 SWAP1 PUSH2 0x4153 JUMP JUMPDEST SWAP1 POP PUSH1 0x3 PUSH0 SWAP1 SLOAD SWAP1 PUSH2 0x100 EXP SWAP1 DIV PUSH20 0xFFFFFFFFFFFFFFFFFFFFFFFFFFFFFFFFFFFFFFFF AND PUSH20 0xFFFFFFFFFFFFFFFFFFFFFFFFFFFFFFFFFFFFFFFF AND PUSH4 0xA9059CBB CALLER DUP4 PUSH1 0x40 MLOAD DUP4 PUSH4 0xFFFFFFFF AND PUSH1 0xE0 SHL DUP2 MSTORE PUSH1 0x4 ADD PUSH2 0x1C5D SWAP3 SWAP2 SWAP1 PUSH2 0x40F9 JUMP JUMPDEST PUSH1 0x20 PUSH1 0x40 MLOAD DUP1 DUP4 SUB DUP2 PUSH0 DUP8 GAS CALL ISZERO DUP1 ISZERO PUSH2 0x1C79 JUMPI RETURNDATASIZE PUSH0 DUP1 RETURNDATACOPY RETURNDATASIZE PUSH0 REVERT JUMPDEST POP POP POP POP PUSH1 0x40 MLOAD RETURNDATASIZE PUSH1 0x1F NOT PUSH1 0x1F DUP3 ADD AND DUP3 ADD DUP1 PUSH1 0x40 MSTORE POP DUP2 ADD SWAP1 PUSH2 0x1C9D SWAP2 SWAP1 PUSH2 0x40CE JUMP JUMPDEST POP PUSH1 0x2 PUSH0 SWAP1 SLOAD SWAP1 PUSH2 0x100 EXP SWAP1 DIV PUSH20 0xFFFFFFFFFFFFFFFFFFFFFFFFFFFFFFFFFFFFFFFF AND PUSH20 0xFFFFFFFFFFFFFFFFFFFFFFFFFFFFFFFFFFFFFFFF AND PUSH4 0x23B872DD CALLER ADDRESS DUP14 PUSH1 0x40 MLOAD DUP5 PUSH4 0xFFFFFFFF AND PUSH1 0xE0 SHL DUP2 MSTORE PUSH1 0x4 ADD PUSH2 0x1CFC SWAP4 SWAP3 SWAP2 SWAP1 PUSH2 0x406F JUMP JUMPDEST PUSH1 0x20 PUSH1 0x40 MLOAD DUP1 DUP4 SUB DUP2 PUSH0 DUP8 GAS CALL ISZERO DUP1 ISZERO PUSH2 0x1D18 JUMPI RETURNDATASIZE PUSH0 DUP1 RETURNDATACOPY RETURNDATASIZE PUSH0 REVERT JUMPDEST POP POP POP POP PUSH1 0x40 MLOAD RETURNDATASIZE PUSH1 0x1F NOT PUSH1 0x1F DUP3 ADD AND DUP3 ADD DUP1 PUSH1 0x40 MSTORE POP DUP2 ADD SWAP1 PUSH2 0x1D3C SWAP2 SWAP1 PUSH2 0x40CE JUMP JUMPDEST POP DUP11 PUSH0 ADD SLOAD PUSH1 0x17 PUSH0 DUP3 DUP3 SLOAD PUSH2 0x1D51 SWAP2 SWAP1 PUSH2 0x4153 JUMP JUMPDEST SWAP3 POP POP DUP2 SWAP1 SSTORE POP PUSH1 0x1B PUSH0 CALLER PUSH20 0xFFFFFFFFFFFFFFFFFFFFFFFFFFFFFFFFFFFFFFFF AND PUSH20 0xFFFFFFFFFFFFFFFFFFFFFFFFFFFFFFFFFFFFFFFF AND DUP2 MSTORE PUSH1 0x20 ADD SWAP1 DUP2 MSTORE PUSH1 0x20 ADD PUSH0 KECCAK256 PUSH0 DUP1 DUP3 ADD PUSH0 SWAP1 SSTORE PUSH1 0x1 DUP3 ADD PUSH0 SWAP1 SSTORE PUSH1 0x2 DUP3 ADD PUSH0 SWAP1 SSTORE PUSH1 0x3 DUP3 ADD PUSH0 SWAP1 SSTORE POP POP CALLER PUSH20 0xFFFFFFFFFFFFFFFFFFFFFFFFFFFFFFFFFFFFFFFF AND PUSH32 0x7178C166B5AEF4D8409E6BBFD0E7B1AD42C92EB65903A5E5482166F3F4E62F0 DUP12 DUP4 DUP13 PUSH1 0x40 MLOAD PUSH2 0x1DFD SWAP4 SWAP3 SWAP2 SWAP1 PUSH2 0x4683 JUMP JUMPDEST PUSH1 0x40 MLOAD DUP1 SWAP2 SUB SWAP1 LOG2 POP POP POP POP POP POP POP POP POP POP POP PUSH2 0x1E18 PUSH2 0x333D JUMP JUMPDEST JUMP JUMPDEST PUSH32 0xA49807205CE4D355092EF5A8A18F56E8913CF4A201FBE287825B095693C21775 PUSH2 0x1E44 DUP2 PUSH2 0x3346 JUMP JUMPDEST PUSH2 0x1E4C PUSH2 0x32CC JUMP JUMPDEST PUSH1 0x19 SLOAD DUP3 GT ISZERO PUSH2 0x1E91 JUMPI PUSH1 0x40 MLOAD PUSH32 0x8C379A000000000000000000000000000000000000000000000000000000000 DUP2 MSTORE PUSH1 0x4 ADD PUSH2 0x1E88 SWAP1 PUSH2 0x4702 JUMP JUMPDEST PUSH1 0x40 MLOAD DUP1 SWAP2 SUB SWAP1 REVERT JUMPDEST DUP2 PUSH1 0x19 PUSH0 DUP3 DUP3 SLOAD PUSH2 0x1EA2 SWAP2 SWAP1 PUSH2 0x4153 JUMP JUMPDEST SWAP3 POP POP DUP2 SWAP1 SSTORE POP PUSH1 0x2 PUSH0 SWAP1 SLOAD SWAP1 PUSH2 0x100 EXP SWAP1 DIV PUSH20 0xFFFFFFFFFFFFFFFFFFFFFFFFFFFFFFFFFFFFFFFF AND PUSH20 0xFFFFFFFFFFFFFFFFFFFFFFFFFFFFFFFFFFFFFFFF AND PUSH4 0xA9059CBB CALLER DUP5 PUSH1 0x40 MLOAD DUP4 PUSH4 0xFFFFFFFF AND PUSH1 0xE0 SHL DUP2 MSTORE PUSH1 0x4 ADD PUSH2 0x1F05 SWAP3 SWAP2 SWAP1 PUSH2 0x40F9 JUMP JUMPDEST PUSH1 0x20 PUSH1 0x40 MLOAD DUP1 DUP4 SUB DUP2 PUSH0 DUP8 GAS CALL ISZERO DUP1 ISZERO PUSH2 0x1F21 JUMPI RETURNDATASIZE PUSH0 DUP1 RETURNDATACOPY RETURNDATASIZE PUSH0 REVERT JUMPDEST POP POP POP POP PUSH1 0x40 MLOAD RETURNDATASIZE PUSH1 0x1F NOT PUSH1 0x1F DUP3 ADD AND DUP3 ADD DUP1 PUSH1 0x40 MSTORE POP DUP2 ADD SWAP1 PUSH2 0x1F45 SWAP2 SWAP1 PUSH2 0x40CE JUMP JUMPDEST POP CALLER PUSH20 0xFFFFFFFFFFFFFFFFFFFFFFFFFFFFFFFFFFFFFFFF AND PUSH32 0xC0819C13BE868895EB93E40EACEB96DE976442FA1D404E5C55F14BB65A8C489A DUP4 PUSH1 0x40 MLOAD PUSH2 0x1F8C SWAP2 SWAP1 PUSH2 0x3659 JUMP JUMPDEST PUSH1 0x40 MLOAD DUP1 SWAP2 SUB SWAP1 LOG2 PUSH2 0x1F9C PUSH2 0x333D JUMP JUMPDEST POP POP JUMP JUMPDEST PUSH1 0x19 SLOAD DUP2 JUMP JUMPDEST PUSH32 0xA49807205CE4D355092EF5A8A18F56E8913CF4A201FBE287825B095693C21775 PUSH2 0x1FD0 DUP2 PUSH2 0x3346 JUMP JUMPDEST DUP2 PUSH1 0x12 DUP2 SWAP1 SSTORE POP POP POP JUMP JUMPDEST PUSH1 0xE SLOAD DUP2 JUMP JUMPDEST PUSH0 PUSH1 0x2 PUSH0 SWAP1 SLOAD SWAP1 PUSH2 0x100 EXP SWAP1 DIV PUSH20 0xFFFFFFFFFFFFFFFFFFFFFFFFFFFFFFFFFFFFFFFF AND PUSH20 0xFFFFFFFFFFFFFFFFFFFFFFFFFFFFFFFFFFFFFFFF AND PUSH4 0x70A08231 ADDRESS PUSH1 0x40 MLOAD DUP3 PUSH4 0xFFFFFFFF AND PUSH1 0xE0 SHL DUP2 MSTORE PUSH1 0x4 ADD PUSH2 0x203C SWAP2 SWAP1 PUSH2 0x4303 JUMP JUMPDEST PUSH1 0x20 PUSH1 0x40 MLOAD DUP1 DUP4 SUB DUP2 DUP7 GAS STATICCALL ISZERO DUP1 ISZERO PUSH2 0x2057 JUMPI RETURNDATASIZE PUSH0 DUP1 RETURNDATACOPY RETURNDATASIZE PUSH0 REVERT JUMPDEST POP POP POP POP PUSH1 0x40 MLOAD RETURNDATASIZE PUSH1 0x1F NOT PUSH1 0x1F DUP3 ADD AND DUP3 ADD DUP1 PUSH1 0x40 MSTORE POP DUP2 ADD SWAP1 PUSH2 0x207B SWAP2 SWAP1 PUSH2 0x4270 JUMP JUMPDEST SWAP1 POP SWAP1 JUMP JUMPDEST PUSH1 0x14 SLOAD DUP2 JUMP JUMPDEST PUSH1 0x1B PUSH1 0x20 MSTORE DUP1 PUSH0 MSTORE PUSH1 0x40 PUSH0 KECCAK256 PUSH0 SWAP2 POP SWAP1 POP DUP1 PUSH0 ADD SLOAD SWAP1 DUP1 PUSH1 0x1 ADD SLOAD SWAP1 DUP1 PUSH1 0x2 ADD SLOAD SWAP1 DUP1 PUSH1 0x3 ADD SLOAD SWAP1 POP DUP5 JUMP JUMPDEST PUSH1 0x18 SLOAD DUP2 JUMP JUMPDEST PUSH32 0xA49807205CE4D355092EF5A8A18F56E8913CF4A201FBE287825B095693C21775 DUP2 JUMP JUMPDEST PUSH2 0x20E4 PUSH2 0x32CC JUMP JUMPDEST PUSH0 DUP4 GT PUSH2 0x2126 JUMPI PUSH1 0x40 MLOAD PUSH32 0x8C379A000000000000000000000000000000000000000000000000000000000 DUP2 MSTORE PUSH1 0x4 ADD PUSH2 0x211D SWAP1 PUSH2 0x3DB1 JUMP JUMPDEST PUSH1 0x40 MLOAD DUP1 SWAP2 SUB SWAP1 REVERT JUMPDEST PUSH0 PUSH20 0xFFFFFFFFFFFFFFFFFFFFFFFFFFFFFFFFFFFFFFFF AND PUSH1 0x4 PUSH0 SWAP1 SLOAD SWAP1 PUSH2 0x100 EXP SWAP1 DIV PUSH20 0xFFFFFFFFFFFFFFFFFFFFFFFFFFFFFFFFFFFFFFFF AND PUSH20 0xFFFFFFFFFFFFFFFFFFFFFFFFFFFFFFFFFFFFFFFF AND SUB PUSH2 0x21B5 JUMPI PUSH1 0x40 MLOAD PUSH32 0x8C379A000000000000000000000000000000000000000000000000000000000 DUP2 MSTORE PUSH1 0x4 ADD PUSH2 0x21AC SWAP1 PUSH2 0x3E19 JUMP JUMPDEST PUSH1 0x40 MLOAD DUP1 SWAP2 SUB SWAP1 REVERT JUMPDEST PUSH1 0x15 SLOAD DUP4 PUSH1 0x16 SLOAD PUSH2 0x21C6 SWAP2 SWAP1 PUSH2 0x4120 JUMP JUMPDEST GT ISZERO PUSH2 0x2207 JUMPI PUSH1 0x40 MLOAD PUSH32 0x8C379A000000000000000000000000000000000000000000000000000000000 DUP2 MSTORE PUSH1 0x4 ADD PUSH2 0x21FE SWAP1 PUSH2 0x476A JUMP JUMPDEST PUSH1 0x40 MLOAD DUP1 SWAP2 SUB SWAP1 REVERT JUMPDEST PUSH0 PUSH1 0x2 PUSH0 SWAP1 SLOAD SWAP1 PUSH2 0x100 EXP SWAP1 DIV PUSH20 0xFFFFFFFFFFFFFFFFFFFFFFFFFFFFFFFFFFFFFFFF AND PUSH20 0xFFFFFFFFFFFFFFFFFFFFFFFFFFFFFFFFFFFFFFFF AND DUP6 PUSH20 0xFFFFFFFFFFFFFFFFFFFFFFFFFFFFFFFFFFFFFFFF AND SUB PUSH2 0x230A JUMPI DUP4 SWAP1 POP PUSH1 0x2 PUSH0 SWAP1 SLOAD SWAP1 PUSH2 0x100 EXP SWAP1 DIV PUSH20 0xFFFFFFFFFFFFFFFFFFFFFFFFFFFFFFFFFFFFFFFF AND PUSH20 0xFFFFFFFFFFFFFFFFFFFFFFFFFFFFFFFFFFFFFFFF AND PUSH4 0x23B872DD PUSH2 0x22A4 PUSH2 0x3336 JUMP JUMPDEST ADDRESS DUP8 PUSH1 0x40 MLOAD DUP5 PUSH4 0xFFFFFFFF AND PUSH1 0xE0 SHL DUP2 MSTORE PUSH1 0x4 ADD PUSH2 0x22C4 SWAP4 SWAP3 SWAP2 SWAP1 PUSH2 0x406F JUMP JUMPDEST PUSH1 0x20 PUSH1 0x40 MLOAD DUP1 DUP4 SUB DUP2 PUSH0 DUP8 GAS CALL ISZERO DUP1 ISZERO PUSH2 0x22E0 JUMPI RETURNDATASIZE PUSH0 DUP1 RETURNDATACOPY RETURNDATASIZE PUSH0 REVERT JUMPDEST POP POP POP POP PUSH1 0x40 MLOAD RETURNDATASIZE PUSH1 0x1F NOT PUSH1 0x1F DUP3 ADD AND DUP3 ADD DUP1 PUSH1 0x40 MSTORE POP DUP2 ADD SWAP1 PUSH2 0x2304 SWAP2 SWAP1 PUSH2 0x40CE JUMP JUMPDEST POP PUSH2 0x245D JUMP JUMPDEST PUSH1 0x7 PUSH0 SWAP1 SLOAD SWAP1 PUSH2 0x100 EXP SWAP1 DIV PUSH20 0xFFFFFFFFFFFFFFFFFFFFFFFFFFFFFFFFFFFFFFFF AND PUSH20 0xFFFFFFFFFFFFFFFFFFFFFFFFFFFFFFFFFFFFFFFF AND PUSH4 0x2197545C DUP7 DUP7 DUP7 DUP7 PUSH1 0x40 MLOAD DUP6 PUSH4 0xFFFFFFFF AND PUSH1 0xE0 SHL DUP2 MSTORE PUSH1 0x4 ADD PUSH2 0x236A SWAP5 SWAP4 SWAP3 SWAP2 SWAP1 PUSH2 0x4788 JUMP JUMPDEST PUSH1 0x20 PUSH1 0x40 MLOAD DUP1 DUP4 SUB DUP2 PUSH0 DUP8 GAS CALL ISZERO DUP1 ISZERO PUSH2 0x2386 JUMPI RETURNDATASIZE PUSH0 DUP1 RETURNDATACOPY RETURNDATASIZE PUSH0 REVERT JUMPDEST POP POP POP POP PUSH1 0x40 MLOAD RETURNDATASIZE PUSH1 0x1F NOT PUSH1 0x1F DUP3 ADD AND DUP3 ADD DUP1 PUSH1 0x40 MSTORE POP DUP2 ADD SWAP1 PUSH2 0x23AA SWAP2 SWAP1 PUSH2 0x4270 JUMP JUMPDEST SWAP1 POP PUSH0 DUP2 GT PUSH2 0x23EE JUMPI PUSH1 0x40 MLOAD PUSH32 0x8C379A000000000000000000000000000000000000000000000000000000000 DUP2 MSTORE PUSH1 0x4 ADD PUSH2 0x23E5 SWAP1 PUSH2 0x4815 JUMP JUMPDEST PUSH1 0x40 MLOAD DUP1 SWAP2 SUB SWAP1 REVERT JUMPDEST DUP5 PUSH20 0xFFFFFFFFFFFFFFFFFFFFFFFFFFFFFFFFFFFFFFFF AND PUSH2 0x240D PUSH2 0x3336 JUMP JUMPDEST PUSH20 0xFFFFFFFFFFFFFFFFFFFFFFFFFFFFFFFFFFFFFFFF AND PUSH32 0x25F1D03755DF23C30E25DB2DBD3891E31CE084BDFBFC46F9FE5E446EE5F9B2D4 DUP7 DUP5 PUSH1 0x40 MLOAD PUSH2 0x2454 SWAP3 SWAP2 SWAP1 PUSH2 0x4833 JUMP JUMPDEST PUSH1 0x40 MLOAD DUP1 SWAP2 SUB SWAP1 LOG3 JUMPDEST PUSH1 0x15 SLOAD DUP2 PUSH1 0x16 SLOAD PUSH2 0x246E SWAP2 SWAP1 PUSH2 0x4120 JUMP JUMPDEST GT ISZERO PUSH2 0x24AF JUMPI PUSH1 0x40 MLOAD PUSH32 0x8C379A000000000000000000000000000000000000000000000000000000000 DUP2 MSTORE PUSH1 0x4 ADD PUSH2 0x24A6 SWAP1 PUSH2 0x48A4 JUMP JUMPDEST PUSH1 0x40 MLOAD DUP1 SWAP2 SUB SWAP1 REVERT JUMPDEST PUSH0 PUSH1 0x4 PUSH0 SWAP1 SLOAD SWAP1 PUSH2 0x100 EXP SWAP1 DIV PUSH20 0xFFFFFFFFFFFFFFFFFFFFFFFFFFFFFFFFFFFFFFFF AND PUSH20 0xFFFFFFFFFFFFFFFFFFFFFFFFFFFFFFFFFFFFFFFF AND PUSH4 0x18160DDD PUSH1 0x40 MLOAD DUP2 PUSH4 0xFFFFFFFF AND PUSH1 0xE0 SHL DUP2 MSTORE PUSH1 0x4 ADD PUSH1 0x20 PUSH1 0x40 MLOAD DUP1 DUP4 SUB DUP2 DUP7 GAS STATICCALL ISZERO DUP1 ISZERO PUSH2 0x251A JUMPI RETURNDATASIZE PUSH0 DUP1 RETURNDATACOPY RETURNDATASIZE PUSH0 REVERT JUMPDEST POP POP POP POP PUSH1 0x40 MLOAD RETURNDATASIZE PUSH1 0x1F NOT PUSH1 0x1F DUP3 ADD AND DUP3 ADD DUP1 PUSH1 0x40 MSTORE POP DUP2 ADD SWAP1 PUSH2 0x253E SWAP2 SWAP1 PUSH2 0x4270 JUMP JUMPDEST SWAP1 POP PUSH0 DUP1 DUP3 SUB PUSH2 0x2550 JUMPI DUP3 SWAP1 POP PUSH2 0x257E JUMP JUMPDEST PUSH0 PUSH1 0x1A SLOAD PUSH1 0x16 SLOAD PUSH2 0x2561 SWAP2 SWAP1 PUSH2 0x4120 JUMP JUMPDEST SWAP1 POP DUP1 DUP4 DUP6 PUSH2 0x2570 SWAP2 SWAP1 PUSH2 0x3F34 JUMP JUMPDEST PUSH2 0x257A SWAP2 SWAP1 PUSH2 0x3FA2 JUMP JUMPDEST SWAP2 POP POP JUMPDEST PUSH1 0x4 PUSH0 SWAP1 SLOAD SWAP1 PUSH2 0x100 EXP SWAP1 DIV PUSH20 0xFFFFFFFFFFFFFFFFFFFFFFFFFFFFFFFFFFFFFFFF AND PUSH20 0xFFFFFFFFFFFFFFFFFFFFFFFFFFFFFFFFFFFFFFFF AND PUSH4 0x40C10F19 PUSH2 0x25C3 PUSH2 0x3336 JUMP JUMPDEST DUP4 PUSH1 0x40 MLOAD DUP4 PUSH4 0xFFFFFFFF AND PUSH1 0xE0 SHL DUP2 MSTORE PUSH1 0x4 ADD PUSH2 0x25E1 SWAP3 SWAP2 SWAP1 PUSH2 0x40F9 JUMP JUMPDEST PUSH0 PUSH1 0x40 MLOAD DUP1 DUP4 SUB DUP2 PUSH0 DUP8 DUP1 EXTCODESIZE ISZERO DUP1 ISZERO PUSH2 0x25F8 JUMPI PUSH0 DUP1 REVERT JUMPDEST POP GAS CALL ISZERO DUP1 ISZERO PUSH2 0x260A JUMPI RETURNDATASIZE PUSH0 DUP1 RETURNDATACOPY RETURNDATASIZE PUSH0 REVERT JUMPDEST POP POP POP POP DUP3 PUSH1 0x16 PUSH0 DUP3 DUP3 SLOAD PUSH2 0x261F SWAP2 SWAP1 PUSH2 0x4120 JUMP JUMPDEST SWAP3 POP POP DUP2 SWAP1 SSTORE POP DUP3 PUSH1 0x18 PUSH0 DUP3 DUP3 SLOAD PUSH2 0x2637 SWAP2 SWAP1 PUSH2 0x4120 JUMP JUMPDEST SWAP3 POP POP DUP2 SWAP1 SSTORE POP PUSH2 0x2646 PUSH2 0x3336 JUMP JUMPDEST PUSH20 0xFFFFFFFFFFFFFFFFFFFFFFFFFFFFFFFFFFFFFFFF AND PUSH32 0x2DA466A7B24304F47E87FA2E1E5A81B9831CE54FEC19055CE277CA2F39BA42C4 DUP5 PUSH1 0x40 MLOAD PUSH2 0x268B SWAP2 SWAP1 PUSH2 0x3659 JUMP JUMPDEST PUSH1 0x40 MLOAD DUP1 SWAP2 SUB SWAP1 LOG2 POP POP POP PUSH2 0x269E PUSH2 0x333D JUMP JUMPDEST POP POP POP POP JUMP JUMPDEST PUSH1 0x16 SLOAD DUP2 JUMP JUMPDEST PUSH1 0xB SLOAD DUP2 JUMP JUMPDEST PUSH0 PUSH1 0x4 PUSH0 SWAP1 SLOAD SWAP1 PUSH2 0x100 EXP SWAP1 DIV PUSH20 0xFFFFFFFFFFFFFFFFFFFFFFFFFFFFFFFFFFFFFFFF AND PUSH20 0xFFFFFFFFFFFFFFFFFFFFFFFFFFFFFFFFFFFFFFFF AND PUSH4 0x70A08231 DUP4 PUSH1 0x40 MLOAD DUP3 PUSH4 0xFFFFFFFF AND PUSH1 0xE0 SHL DUP2 MSTORE PUSH1 0x4 ADD PUSH2 0x270B SWAP2 SWAP1 PUSH2 0x4303 JUMP JUMPDEST PUSH1 0x20 PUSH1 0x40 MLOAD DUP1 DUP4 SUB DUP2 DUP7 GAS STATICCALL ISZERO DUP1 ISZERO PUSH2 0x2726 JUMPI RETURNDATASIZE PUSH0 DUP1 RETURNDATACOPY RETURNDATASIZE PUSH0 REVERT JUMPDEST POP POP POP POP PUSH1 0x40 MLOAD RETURNDATASIZE PUSH1 0x1F NOT PUSH1 0x1F DUP3 ADD AND DUP3 ADD DUP1 PUSH1 0x40 MSTORE POP DUP2 ADD SWAP1 PUSH2 0x274A SWAP2 SWAP1 PUSH2 0x4270 JUMP JUMPDEST SWAP1 POP SWAP2 SWAP1 POP JUMP JUMPDEST PUSH0 DUP1 PUSH0 DUP5 DUP2 MSTORE PUSH1 0x20 ADD SWAP1 DUP2 MSTORE PUSH1 0x20 ADD PUSH0 KECCAK256 PUSH0 ADD PUSH0 DUP4 PUSH20 0xFFFFFFFFFFFFFFFFFFFFFFFFFFFFFFFFFFFFFFFF AND PUSH20 0xFFFFFFFFFFFFFFFFFFFFFFFFFFFFFFFFFFFFFFFF AND DUP2 MSTORE PUSH1 0x20 ADD SWAP1 DUP2 MSTORE PUSH1 0x20 ADD PUSH0 KECCAK256 PUSH0 SWAP1 SLOAD SWAP1 PUSH2 0x100 EXP SWAP1 DIV PUSH1 0xFF AND SWAP1 POP SWAP3 SWAP2 POP POP JUMP JUMPDEST PUSH1 0x7 PUSH0 SWAP1 SLOAD SWAP1 PUSH2 0x100 EXP SWAP1 DIV PUSH20 0xFFFFFFFFFFFFFFFFFFFFFFFFFFFFFFFFFFFFFFFF AND DUP2 JUMP JUMPDEST PUSH0 DUP1 SHL DUP2 JUMP JUMPDEST PUSH1 0x3 PUSH0 SWAP1 SLOAD SWAP1 PUSH2 0x100 EXP SWAP1 DIV PUSH20 0xFFFFFFFFFFFFFFFFFFFFFFFFFFFFFFFFFFFFFFFF AND DUP2 JUMP JUMPDEST PUSH1 0x10 SLOAD DUP2 JUMP JUMPDEST PUSH32 0xA49807205CE4D355092EF5A8A18F56E8913CF4A201FBE287825B095693C21775 PUSH2 0x2834 DUP2 PUSH2 0x3346 JUMP JUMPDEST PUSH2 0x283C PUSH2 0x32CC JUMP JUMPDEST PUSH0 PUSH1 0x1B PUSH0 DUP5 PUSH20 0xFFFFFFFFFFFFFFFFFFFFFFFFFFFFFFFFFFFFFFFF AND PUSH20 0xFFFFFFFFFFFFFFFFFFFFFFFFFFFFFFFFFFFFFFFF AND DUP2 MSTORE PUSH1 0x20 ADD SWAP1 DUP2 MSTORE PUSH1 0x20 ADD PUSH0 KECCAK256 SWAP1 POP PUSH0 DUP2 PUSH0 ADD SLOAD GT PUSH2 0x28C1 JUMPI PUSH1 0x40 MLOAD PUSH32 0x8C379A000000000000000000000000000000000000000000000000000000000 DUP2 MSTORE PUSH1 0x4 ADD PUSH2 0x28B8 SWAP1 PUSH2 0x4595 JUMP JUMPDEST PUSH1 0x40 MLOAD DUP1 SWAP2 SUB SWAP1 REVERT JUMPDEST PUSH0 DUP2 PUSH0 ADD SLOAD SWAP1 POP PUSH0 DUP1 PUSH0 PUSH1 0x1 DUP6 PUSH1 0x3 ADD SLOAD SUB PUSH2 0x28E6 JUMPI PUSH1 0xD SLOAD SWAP2 POP PUSH1 0x9 SLOAD SWAP1 POP PUSH2 0x2975 JUMP JUMPDEST PUSH1 0x2 DUP6 PUSH1 0x3 ADD SLOAD SUB PUSH2 0x2901 JUMPI PUSH1 0xE SLOAD SWAP2 POP PUSH1 0xA SLOAD SWAP1 POP PUSH2 0x2974 JUMP JUMPDEST PUSH1 0x3 DUP6 PUSH1 0x3 ADD SLOAD SUB PUSH2 0x291C JUMPI PUSH1 0xF SLOAD SWAP2 POP PUSH1 0xB SLOAD SWAP1 POP PUSH2 0x2973 JUMP JUMPDEST PUSH1 0x4 DUP6 PUSH1 0x3 ADD SLOAD SUB PUSH2 0x2937 JUMPI PUSH1 0x10 SLOAD SWAP2 POP PUSH1 0xC SLOAD SWAP1 POP PUSH2 0x2972 JUMP JUMPDEST PUSH1 0x40 MLOAD PUSH32 0x8C379A000000000000000000000000000000000000000000000000000000000 DUP2 MSTORE PUSH1 0x4 ADD PUSH2 0x2969 SWAP1 PUSH2 0x45FD JUMP JUMPDEST PUSH1 0x40 MLOAD DUP1 SWAP2 SUB SWAP1 REVERT JUMPDEST JUMPDEST JUMPDEST JUMPDEST DUP1 DUP6 PUSH1 0x2 ADD SLOAD PUSH2 0x2985 SWAP2 SWAP1 PUSH2 0x4120 JUMP JUMPDEST NUMBER LT ISZERO PUSH2 0x29C7 JUMPI PUSH1 0x40 MLOAD PUSH32 0x8C379A000000000000000000000000000000000000000000000000000000000 DUP2 MSTORE PUSH1 0x4 ADD PUSH2 0x29BE SWAP1 PUSH2 0x490C JUMP JUMPDEST PUSH1 0x40 MLOAD DUP1 SWAP2 SUB SWAP1 REVERT JUMPDEST PUSH1 0x12 SLOAD PUSH1 0x11 SLOAD PUSH2 0x29D7 SWAP2 SWAP1 PUSH2 0x3F34 JUMP JUMPDEST DUP2 DUP4 DUP8 PUSH0 ADD SLOAD PUSH2 0x29E7 SWAP2 SWAP1 PUSH2 0x3F34 JUMP JUMPDEST PUSH2 0x29F1 SWAP2 SWAP1 PUSH2 0x3F34 JUMP JUMPDEST PUSH2 0x29FB SWAP2 SWAP1 PUSH2 0x3FA2 JUMP JUMPDEST SWAP3 POP DUP5 PUSH1 0x1 ADD SLOAD DUP4 GT ISZERO PUSH2 0x2A44 JUMPI PUSH1 0x40 MLOAD PUSH32 0x8C379A000000000000000000000000000000000000000000000000000000000 DUP2 MSTORE PUSH1 0x4 ADD PUSH2 0x2A3B SWAP1 PUSH2 0x4665 JUMP JUMPDEST PUSH1 0x40 MLOAD DUP1 SWAP2 SUB SWAP1 REVERT JUMPDEST PUSH0 PUSH1 0x11 SLOAD PUSH1 0x5 DUP6 PUSH2 0x2A55 SWAP2 SWAP1 PUSH2 0x3F34 JUMP JUMPDEST PUSH2 0x2A5F SWAP2 SWAP1 PUSH2 0x3FA2 JUMP JUMPDEST SWAP1 POP PUSH0 DUP2 DUP6 PUSH2 0x2A6E SWAP2 SWAP1 PUSH2 0x4153 JUMP JUMPDEST SWAP1 POP DUP2 PUSH1 0x19 PUSH0 DUP3 DUP3 SLOAD PUSH2 0x2A81 SWAP2 SWAP1 PUSH2 0x4120 JUMP JUMPDEST SWAP3 POP POP DUP2 SWAP1 SSTORE POP DUP1 PUSH1 0x1A PUSH0 DUP3 DUP3 SLOAD PUSH2 0x2A99 SWAP2 SWAP1 PUSH2 0x4120 JUMP JUMPDEST SWAP3 POP POP DUP2 SWAP1 SSTORE POP DUP1 DUP7 PUSH2 0x2AAC SWAP2 SWAP1 PUSH2 0x4120 JUMP JUMPDEST PUSH1 0x18 PUSH0 DUP3 DUP3 SLOAD PUSH2 0x2ABC SWAP2 SWAP1 PUSH2 0x4120 JUMP JUMPDEST SWAP3 POP POP DUP2 SWAP1 SSTORE POP PUSH0 DUP8 PUSH0 ADD SLOAD DUP7 DUP10 PUSH1 0x1 ADD SLOAD PUSH2 0x2AD8 SWAP2 SWAP1 PUSH2 0x4153 JUMP JUMPDEST PUSH2 0x2AE2 SWAP2 SWAP1 PUSH2 0x4120 JUMP JUMPDEST SWAP1 POP PUSH1 0x3 PUSH0 SWAP1 SLOAD SWAP1 PUSH2 0x100 EXP SWAP1 DIV PUSH20 0xFFFFFFFFFFFFFFFFFFFFFFFFFFFFFFFFFFFFFFFF AND PUSH20 0xFFFFFFFFFFFFFFFFFFFFFFFFFFFFFFFFFFFFFFFF AND PUSH4 0xA9059CBB DUP12 DUP4 PUSH1 0x40 MLOAD DUP4 PUSH4 0xFFFFFFFF AND PUSH1 0xE0 SHL DUP2 MSTORE PUSH1 0x4 ADD PUSH2 0x2B40 SWAP3 SWAP2 SWAP1 PUSH2 0x40F9 JUMP JUMPDEST PUSH1 0x20 PUSH1 0x40 MLOAD DUP1 DUP4 SUB DUP2 PUSH0 DUP8 GAS CALL ISZERO DUP1 ISZERO PUSH2 0x2B5C JUMPI RETURNDATASIZE PUSH0 DUP1 RETURNDATACOPY RETURNDATASIZE PUSH0 REVERT JUMPDEST POP POP POP POP PUSH1 0x40 MLOAD RETURNDATASIZE PUSH1 0x1F NOT PUSH1 0x1F DUP3 ADD AND DUP3 ADD DUP1 PUSH1 0x40 MSTORE POP DUP2 ADD SWAP1 PUSH2 0x2B80 SWAP2 SWAP1 PUSH2 0x40CE JUMP JUMPDEST POP DUP8 PUSH0 ADD SLOAD PUSH1 0x17 PUSH0 DUP3 DUP3 SLOAD PUSH2 0x2B95 SWAP2 SWAP1 PUSH2 0x4153 JUMP JUMPDEST SWAP3 POP POP DUP2 SWAP1 SSTORE POP PUSH1 0x1B PUSH0 DUP12 PUSH20 0xFFFFFFFFFFFFFFFFFFFFFFFFFFFFFFFFFFFFFFFF AND PUSH20 0xFFFFFFFFFFFFFFFFFFFFFFFFFFFFFFFFFFFFFFFF AND DUP2 MSTORE PUSH1 0x20 ADD SWAP1 DUP2 MSTORE PUSH1 0x20 ADD PUSH0 KECCAK256 PUSH0 DUP1 DUP3 ADD PUSH0 SWAP1 SSTORE PUSH1 0x1 DUP3 ADD PUSH0 SWAP1 SSTORE PUSH1 0x2 DUP3 ADD PUSH0 SWAP1 SSTORE PUSH1 0x3 DUP3 ADD PUSH0 SWAP1 SSTORE POP POP DUP10 PUSH20 0xFFFFFFFFFFFFFFFFFFFFFFFFFFFFFFFFFFFFFFFF AND PUSH32 0x37C72CA983F8DB36D419997AC5BB11B386D99A405B2925599CB5D27A8DE15D15 DUP9 DUP4 PUSH1 0x40 MLOAD PUSH2 0x2C3F SWAP3 SWAP2 SWAP1 PUSH2 0x4833 JUMP JUMPDEST PUSH1 0x40 MLOAD DUP1 SWAP2 SUB SWAP1 LOG2 POP POP POP POP POP POP POP POP PUSH2 0x2C57 PUSH2 0x333D JUMP JUMPDEST POP POP JUMP JUMPDEST PUSH1 0x6 PUSH0 SWAP1 SLOAD SWAP1 PUSH2 0x100 EXP SWAP1 DIV PUSH20 0xFFFFFFFFFFFFFFFFFFFFFFFFFFFFFFFFFFFFFFFF AND DUP2 JUMP JUMPDEST PUSH1 0x17 SLOAD DUP2 JUMP JUMPDEST PUSH32 0xA49807205CE4D355092EF5A8A18F56E8913CF4A201FBE287825B095693C21775 PUSH2 0x2CB0 DUP2 PUSH2 0x3346 JUMP JUMPDEST DUP2 PUSH1 0x13 DUP2 SWAP1 SSTORE POP POP POP JUMP JUMPDEST PUSH2 0x2CC4 DUP3 PUSH2 0xE45 JUMP JUMPDEST PUSH2 0x2CCD DUP2 PUSH2 0x3346 JUMP JUMPDEST PUSH2 0x2CD7 DUP4 DUP4 PUSH2 0x3443 JUMP JUMPDEST POP POP POP POP JUMP JUMPDEST PUSH32 0xA49807205CE4D355092EF5A8A18F56E8913CF4A201FBE287825B095693C21775 PUSH2 0x2D07 DUP2 PUSH2 0x3346 JUMP JUMPDEST DUP2 PUSH1 0x14 DUP2 SWAP1 SSTORE POP POP POP JUMP JUMPDEST PUSH1 0x15 SLOAD DUP2 JUMP JUMPDEST PUSH2 0x2D20 PUSH2 0x32CC JUMP JUMPDEST PUSH0 DUP4 GT PUSH2 0x2D62 JUMPI PUSH1 0x40 MLOAD PUSH32 0x8C379A000000000000000000000000000000000000000000000000000000000 DUP2 MSTORE PUSH1 0x4 ADD PUSH2 0x2D59 SWAP1 PUSH2 0x3DB1 JUMP JUMPDEST PUSH1 0x40 MLOAD DUP1 SWAP2 SUB SWAP1 REVERT JUMPDEST PUSH1 0x18 SLOAD DUP4 GT ISZERO PUSH2 0x2DA7 JUMPI PUSH1 0x40 MLOAD PUSH32 0x8C379A000000000000000000000000000000000000000000000000000000000 DUP2 MSTORE PUSH1 0x4 ADD PUSH2 0x2D9E SWAP1 PUSH2 0x499A JUMP JUMPDEST PUSH1 0x40 MLOAD DUP1 SWAP2 SUB SWAP1 REVERT JUMPDEST PUSH0 PUSH1 0x11 SLOAD PUSH1 0x14 SLOAD DUP6 PUSH2 0x2DB9 SWAP2 SWAP1 PUSH2 0x3F34 JUMP JUMPDEST PUSH2 0x2DC3 SWAP2 SWAP1 PUSH2 0x3FA2 JUMP JUMPDEST SWAP1 POP PUSH0 DUP2 DUP6 PUSH2 0x2DD2 SWAP2 SWAP1 PUSH2 0x4120 JUMP JUMPDEST SWAP1 POP PUSH0 PUSH1 0x2 PUSH0 SWAP1 SLOAD SWAP1 PUSH2 0x100 EXP SWAP1 DIV PUSH20 0xFFFFFFFFFFFFFFFFFFFFFFFFFFFFFFFFFFFFFFFF AND PUSH20 0xFFFFFFFFFFFFFFFFFFFFFFFFFFFFFFFFFFFFFFFF AND PUSH4 0x70A08231 ADDRESS PUSH1 0x40 MLOAD DUP3 PUSH4 0xFFFFFFFF AND PUSH1 0xE0 SHL DUP2 MSTORE PUSH1 0x4 ADD PUSH2 0x2E2F SWAP2 SWAP1 PUSH2 0x4303 JUMP JUMPDEST PUSH1 0x20 PUSH1 0x40 MLOAD DUP1 DUP4 SUB DUP2 DUP7 GAS STATICCALL ISZERO DUP1 ISZERO PUSH2 0x2E4A JUMPI RETURNDATASIZE PUSH0 DUP1 RETURNDATACOPY RETURNDATASIZE PUSH0 REVERT JUMPDEST POP POP POP POP PUSH1 0x40 MLOAD RETURNDATASIZE PUSH1 0x1F NOT PUSH1 0x1F DUP3 ADD AND DUP3 ADD DUP1 PUSH1 0x40 MSTORE POP DUP2 ADD SWAP1 PUSH2 0x2E6E SWAP2 SWAP1 PUSH2 0x4270 JUMP JUMPDEST SWAP1 POP PUSH1 0x2 PUSH0 SWAP1 SLOAD SWAP1 PUSH2 0x100 EXP SWAP1 DIV PUSH20 0xFFFFFFFFFFFFFFFFFFFFFFFFFFFFFFFFFFFFFFFF AND PUSH20 0xFFFFFFFFFFFFFFFFFFFFFFFFFFFFFFFFFFFFFFFF AND PUSH4 0xA9059CBB DUP9 DUP9 PUSH1 0x40 MLOAD DUP4 PUSH4 0xFFFFFFFF AND PUSH1 0xE0 SHL DUP2 MSTORE PUSH1 0x4 ADD PUSH2 0x2ECC SWAP3 SWAP2 SWAP1 PUSH2 0x40F9 JUMP JUMPDEST PUSH1 0x20 PUSH1 0x40 MLOAD DUP1 DUP4 SUB DUP2 PUSH0 DUP8 GAS CALL ISZERO DUP1 ISZERO PUSH2 0x2EE8 JUMPI RETURNDATASIZE PUSH0 DUP1 RETURNDATACOPY RETURNDATASIZE PUSH0 REVERT JUMPDEST POP POP POP POP PUSH1 0x40 MLOAD RETURNDATASIZE PUSH1 0x1F NOT PUSH1 0x1F DUP3 ADD AND DUP3 ADD DUP1 PUSH1 0x40 MSTORE POP DUP2 ADD SWAP1 PUSH2 0x2F0C SWAP2 SWAP1 PUSH2 0x40CE JUMP JUMPDEST POP DUP7 PUSH20 0xFFFFFFFFFFFFFFFFFFFFFFFFFFFFFFFFFFFFFFFF AND PUSH4 0xDB7B028 DUP8 DUP6 DUP9 DUP9 PUSH1 0x40 MLOAD DUP6 PUSH4 0xFFFFFFFF AND PUSH1 0xE0 SHL DUP2 MSTORE PUSH1 0x4 ADD PUSH2 0x2F4C SWAP5 SWAP4 SWAP3 SWAP2 SWAP1 PUSH2 0x49F4 JUMP JUMPDEST PUSH0 PUSH1 0x40 MLOAD DUP1 DUP4 SUB DUP2 PUSH0 DUP8 DUP1 EXTCODESIZE ISZERO DUP1 ISZERO PUSH2 0x2F63 JUMPI PUSH0 DUP1 REVERT JUMPDEST POP GAS CALL ISZERO DUP1 ISZERO PUSH2 0x2F75 JUMPI RETURNDATASIZE PUSH0 DUP1 RETURNDATACOPY RETURNDATASIZE PUSH0 REVERT JUMPDEST POP POP POP POP PUSH0 PUSH1 0x2 PUSH0 SWAP1 SLOAD SWAP1 PUSH2 0x100 EXP SWAP1 DIV PUSH20 0xFFFFFFFFFFFFFFFFFFFFFFFFFFFFFFFFFFFFFFFF AND PUSH20 0xFFFFFFFFFFFFFFFFFFFFFFFFFFFFFFFFFFFFFFFF AND PUSH4 0x70A08231 ADDRESS PUSH1 0x40 MLOAD DUP3 PUSH4 0xFFFFFFFF AND PUSH1 0xE0 SHL DUP2 MSTORE PUSH1 0x4 ADD PUSH2 0x2FD4 SWAP2 SWAP1 PUSH2 0x4303 JUMP JUMPDEST PUSH1 0x20 PUSH1 0x40 MLOAD DUP1 DUP4 SUB DUP2 DUP7 GAS STATICCALL ISZERO DUP1 ISZERO PUSH2 0x2FEF JUMPI RETURNDATASIZE PUSH0 DUP1 RETURNDATACOPY RETURNDATASIZE PUSH0 REVERT JUMPDEST POP POP POP POP PUSH1 0x40 MLOAD RETURNDATASIZE PUSH1 0x1F NOT PUSH1 0x1F DUP3 ADD AND DUP3 ADD DUP1 PUSH1 0x40 MSTORE POP DUP2 ADD SWAP1 PUSH2 0x3013 SWAP2 SWAP1 PUSH2 0x4270 JUMP JUMPDEST SWAP1 POP PUSH0 DUP3 DUP3 PUSH2 0x3022 SWAP2 SWAP1 PUSH2 0x4153 JUMP JUMPDEST SWAP1 POP DUP4 DUP2 LT ISZERO PUSH2 0x3067 JUMPI PUSH1 0x40 MLOAD PUSH32 0x8C379A000000000000000000000000000000000000000000000000000000000 DUP2 MSTORE PUSH1 0x4 ADD PUSH2 0x305E SWAP1 PUSH2 0x4A7C JUMP JUMPDEST PUSH1 0x40 MLOAD DUP1 SWAP2 SUB SWAP1 REVERT JUMPDEST PUSH0 PUSH1 0x11 SLOAD PUSH1 0x5 DUP8 PUSH2 0x3078 SWAP2 SWAP1 PUSH2 0x3F34 JUMP JUMPDEST PUSH2 0x3082 SWAP2 SWAP1 PUSH2 0x3FA2 JUMP JUMPDEST SWAP1 POP PUSH0 DUP2 DUP8 PUSH2 0x3091 SWAP2 SWAP1 PUSH2 0x4153 JUMP JUMPDEST SWAP1 POP DUP2 PUSH1 0x19 PUSH0 DUP3 DUP3 SLOAD PUSH2 0x30A4 SWAP2 SWAP1 PUSH2 0x4120 JUMP JUMPDEST SWAP3 POP POP DUP2 SWAP1 SSTORE POP DUP1 PUSH1 0x1A PUSH0 DUP3 DUP3 SLOAD PUSH2 0x30BC SWAP2 SWAP1 PUSH2 0x4120 JUMP JUMPDEST SWAP3 POP POP DUP2 SWAP1 SSTORE POP DUP1 PUSH1 0x18 PUSH0 DUP3 DUP3 SLOAD PUSH2 0x30D4 SWAP2 SWAP1 PUSH2 0x4120 JUMP JUMPDEST SWAP3 POP POP DUP2 SWAP1 SSTORE POP DUP11 PUSH20 0xFFFFFFFFFFFFFFFFFFFFFFFFFFFFFFFFFFFFFFFF AND PUSH32 0x31AAAD38F00845A242D16AE90D7BD72FC68F0E22581470F9DC0DE241210C2886 DUP12 DUP10 PUSH1 0x40 MLOAD PUSH2 0x3123 SWAP3 SWAP2 SWAP1 PUSH2 0x4833 JUMP JUMPDEST PUSH1 0x40 MLOAD DUP1 SWAP2 SUB SWAP1 LOG2 POP POP POP POP POP POP POP PUSH2 0x313A PUSH2 0x333D JUMP JUMPDEST POP POP POP POP JUMP JUMPDEST PUSH1 0xD SLOAD DUP2 JUMP JUMPDEST PUSH32 0xA49807205CE4D355092EF5A8A18F56E8913CF4A201FBE287825B095693C21775 PUSH2 0x3170 DUP2 PUSH2 0x3346 JUMP JUMPDEST PUSH2 0x3178 PUSH2 0x32CC JUMP JUMPDEST DUP2 PUSH1 0x8 DUP2 SWAP1 SSTORE POP PUSH2 0x3187 PUSH2 0x333D JUMP JUMPDEST POP POP JUMP JUMPDEST PUSH1 0x2 PUSH0 SWAP1 SLOAD SWAP1 PUSH2 0x100 EXP SWAP1 DIV PUSH20 0xFFFFFFFFFFFFFFFFFFFFFFFFFFFFFFFFFFFFFFFF AND DUP2 JUMP JUMPDEST PUSH1 0x4 PUSH0 SWAP1 SLOAD SWAP1 PUSH2 0x100 EXP SWAP1 DIV PUSH20 0xFFFFFFFFFFFFFFFFFFFFFFFFFFFFFFFFFFFFFFFF AND DUP2 JUMP JUMPDEST PUSH1 0x1A SLOAD DUP2 JUMP JUMPDEST PUSH32 0xA49807205CE4D355092EF5A8A18F56E8913CF4A201FBE287825B095693C21775 PUSH2 0x3205 DUP2 PUSH2 0x3346 JUMP JUMPDEST PUSH2 0x320D PUSH2 0x32CC JUMP JUMPDEST DUP5 PUSH1 0x9 DUP2 SWAP1 SSTORE POP DUP4 PUSH1 0xA DUP2 SWAP1 SSTORE POP DUP3 PUSH1 0xB DUP2 SWAP1 SSTORE POP DUP2 PUSH1 0xC DUP2 SWAP1 SSTORE POP PUSH2 0x3231 PUSH2 0x333D JUMP JUMPDEST POP POP POP POP POP JUMP JUMPDEST PUSH1 0x5 PUSH0 SWAP1 SLOAD SWAP1 PUSH2 0x100 EXP SWAP1 DIV PUSH20 0xFFFFFFFFFFFFFFFFFFFFFFFFFFFFFFFFFFFFFFFF AND DUP2 JUMP JUMPDEST PUSH1 0x13 SLOAD DUP2 JUMP JUMPDEST PUSH0 PUSH32 0x1FFC9A700000000000000000000000000000000000000000000000000000000 PUSH28 0xFFFFFFFFFFFFFFFFFFFFFFFFFFFFFFFFFFFFFFFFFFFFFFFFFFFFFFFF NOT AND DUP3 PUSH28 0xFFFFFFFFFFFFFFFFFFFFFFFFFFFFFFFFFFFFFFFFFFFFFFFFFFFFFFFF NOT AND EQ SWAP1 POP SWAP2 SWAP1 POP JUMP JUMPDEST PUSH1 0x2 PUSH1 0x1 SLOAD SUB PUSH2 0x3308 JUMPI PUSH1 0x40 MLOAD PUSH32 0x3EE5AEB500000000000000000000000000000000000000000000000000000000 DUP2 MSTORE PUSH1 0x4 ADD PUSH1 0x40 MLOAD DUP1 SWAP2 SUB SWAP1 REVERT JUMPDEST PUSH1 0x2 PUSH1 0x1 DUP2 SWAP1 SSTORE POP JUMP JUMPDEST PUSH0 DUP1 GAS DUP4 PUSH2 0x3320 SWAP2 SWAP1 PUSH2 0x4153 JUMP JUMPDEST SWAP1 POP GASPRICE DUP2 PUSH2 0x332E SWAP2 SWAP1 PUSH2 0x3F34 JUMP JUMPDEST SWAP2 POP POP SWAP2 SWAP1 POP JUMP JUMPDEST PUSH0 CALLER SWAP1 POP SWAP1 JUMP JUMPDEST PUSH1 0x1 DUP1 DUP2 SWAP1 SSTORE POP JUMP JUMPDEST PUSH2 0x3357 DUP2 PUSH2 0x3352 PUSH2 0x3336 JUMP JUMPDEST PUSH2 0x352C JUMP JUMPDEST POP JUMP JUMPDEST PUSH0 PUSH2 0x3365 DUP4 DUP4 PUSH2 0x2751 JUMP JUMPDEST PUSH2 0x3439 JUMPI PUSH1 0x1 PUSH0 DUP1 DUP6 DUP2 MSTORE PUSH1 0x20 ADD SWAP1 DUP2 MSTORE PUSH1 0x20 ADD PUSH0 KECCAK256 PUSH0 ADD PUSH0 DUP5 PUSH20 0xFFFFFFFFFFFFFFFFFFFFFFFFFFFFFFFFFFFFFFFF AND PUSH20 0xFFFFFFFFFFFFFFFFFFFFFFFFFFFFFFFFFFFFFFFF AND DUP2 MSTORE PUSH1 0x20 ADD SWAP1 DUP2 MSTORE PUSH1 0x20 ADD PUSH0 KECCAK256 PUSH0 PUSH2 0x100 EXP DUP2 SLOAD DUP2 PUSH1 0xFF MUL NOT AND SWAP1 DUP4 ISZERO ISZERO MUL OR SWAP1 SSTORE POP PUSH2 0x33D6 PUSH2 0x3336 JUMP JUMPDEST PUSH20 0xFFFFFFFFFFFFFFFFFFFFFFFFFFFFFFFFFFFFFFFF AND DUP3 PUSH20 0xFFFFFFFFFFFFFFFFFFFFFFFFFFFFFFFFFFFFFFFF AND DUP5 PUSH32 0x2F8788117E7EFF1D82E926EC794901D17C78024A50270940304540A733656F0D PUSH1 0x40 MLOAD PUSH1 0x40 MLOAD DUP1 SWAP2 SUB SWAP1 LOG4 PUSH1 0x1 SWAP1 POP PUSH2 0x343D JUMP JUMPDEST PUSH0 SWAP1 POP JUMPDEST SWAP3 SWAP2 POP POP JUMP JUMPDEST PUSH0 PUSH2 0x344E DUP4 DUP4 PUSH2 0x2751 JUMP JUMPDEST ISZERO PUSH2 0x3522 JUMPI PUSH0 DUP1 PUSH0 DUP6 DUP2 MSTORE PUSH1 0x20 ADD SWAP1 DUP2 MSTORE PUSH1 0x20 ADD PUSH0 KECCAK256 PUSH0 ADD PUSH0 DUP5 PUSH20 0xFFFFFFFFFFFFFFFFFFFFFFFFFFFFFFFFFFFFFFFF AND PUSH20 0xFFFFFFFFFFFFFFFFFFFFFFFFFFFFFFFFFFFFFFFF AND DUP2 MSTORE PUSH1 0x20 ADD SWAP1 DUP2 MSTORE PUSH1 0x20 ADD PUSH0 KECCAK256 PUSH0 PUSH2 0x100 EXP DUP2 SLOAD DUP2 PUSH1 0xFF MUL NOT AND SWAP1 DUP4 ISZERO ISZERO MUL OR SWAP1 SSTORE POP PUSH2 0x34BF PUSH2 0x3336 JUMP JUMPDEST PUSH20 0xFFFFFFFFFFFFFFFFFFFFFFFFFFFFFFFFFFFFFFFF AND DUP3 PUSH20 0xFFFFFFFFFFFFFFFFFFFFFFFFFFFFFFFFFFFFFFFF AND DUP5 PUSH32 0xF6391F5C32D9C69D2A47EA670B442974B53935D1EDC7FD64EB21E047A839171B PUSH1 0x40 MLOAD PUSH1 0x40 MLOAD DUP1 SWAP2 SUB SWAP1 LOG4 PUSH1 0x1 SWAP1 POP PUSH2 0x3526 JUMP JUMPDEST PUSH0 SWAP1 POP JUMPDEST SWAP3 SWAP2 POP POP JUMP JUMPDEST PUSH2 0x3536 DUP3 DUP3 PUSH2 0x2751 JUMP JUMPDEST PUSH2 0x3579 JUMPI DUP1 DUP3 PUSH1 0x40 MLOAD PUSH32 0xE2517D3F00000000000000000000000000000000000000000000000000000000 DUP2 MSTORE PUSH1 0x4 ADD PUSH2 0x3570 SWAP3 SWAP2 SWAP1 PUSH2 0x4A9A JUMP JUMPDEST PUSH1 0x40 MLOAD DUP1 SWAP2 SUB SWAP1 REVERT JUMPDEST POP POP JUMP JUMPDEST PUSH0 PUSH1 0x40 MLOAD SWAP1 POP SWAP1 JUMP JUMPDEST PUSH0 DUP1 REVERT JUMPDEST PUSH0 DUP1 REVERT JUMPDEST PUSH0 PUSH32 0xFFFFFFFF00000000000000000000000000000000000000000000000000000000 DUP3 AND SWAP1 POP SWAP2 SWAP1 POP JUMP JUMPDEST PUSH2 0x35C2 DUP2 PUSH2 0x358E JUMP JUMPDEST DUP2 EQ PUSH2 0x35CC JUMPI PUSH0 DUP1 REVERT JUMPDEST POP JUMP JUMPDEST PUSH0 DUP2 CALLDATALOAD SWAP1 POP PUSH2 0x35DD DUP2 PUSH2 0x35B9 JUMP JUMPDEST SWAP3 SWAP2 POP POP JUMP JUMPDEST PUSH0 PUSH1 0x20 DUP3 DUP5 SUB SLT ISZERO PUSH2 0x35F8 JUMPI PUSH2 0x35F7 PUSH2 0x3586 JUMP JUMPDEST JUMPDEST PUSH0 PUSH2 0x3605 DUP5 DUP3 DUP6 ADD PUSH2 0x35CF JUMP JUMPDEST SWAP2 POP POP SWAP3 SWAP2 POP POP JUMP JUMPDEST PUSH0 DUP2 ISZERO ISZERO SWAP1 POP SWAP2 SWAP1 POP JUMP JUMPDEST PUSH2 0x3622 DUP2 PUSH2 0x360E JUMP JUMPDEST DUP3 MSTORE POP POP JUMP JUMPDEST PUSH0 PUSH1 0x20 DUP3 ADD SWAP1 POP PUSH2 0x363B PUSH0 DUP4 ADD DUP5 PUSH2 0x3619 JUMP JUMPDEST SWAP3 SWAP2 POP POP JUMP JUMPDEST PUSH0 DUP2 SWAP1 POP SWAP2 SWAP1 POP JUMP JUMPDEST PUSH2 0x3653 DUP2 PUSH2 0x3641 JUMP JUMPDEST DUP3 MSTORE POP POP JUMP JUMPDEST PUSH0 PUSH1 0x20 DUP3 ADD SWAP1 POP PUSH2 0x366C PUSH0 DUP4 ADD DUP5 PUSH2 0x364A JUMP JUMPDEST SWAP3 SWAP2 POP POP JUMP JUMPDEST PUSH2 0x367B DUP2 PUSH2 0x3641 JUMP JUMPDEST DUP2 EQ PUSH2 0x3685 JUMPI PUSH0 DUP1 REVERT JUMPDEST POP JUMP JUMPDEST PUSH0 DUP2 CALLDATALOAD SWAP1 POP PUSH2 0x3696 DUP2 PUSH2 0x3672 JUMP JUMPDEST SWAP3 SWAP2 POP POP JUMP JUMPDEST PUSH0 DUP1 PUSH1 0x40 DUP4 DUP6 SUB SLT ISZERO PUSH2 0x36B2 JUMPI PUSH2 0x36B1 PUSH2 0x3586 JUMP JUMPDEST JUMPDEST PUSH0 PUSH2 0x36BF DUP6 DUP3 DUP7 ADD PUSH2 0x3688 JUMP JUMPDEST SWAP3 POP POP PUSH1 0x20 PUSH2 0x36D0 DUP6 DUP3 DUP7 ADD PUSH2 0x3688 JUMP JUMPDEST SWAP2 POP POP SWAP3 POP SWAP3 SWAP1 POP JUMP JUMPDEST PUSH0 DUP2 SWAP1 POP SWAP2 SWAP1 POP JUMP JUMPDEST PUSH2 0x36EC DUP2 PUSH2 0x36DA JUMP JUMPDEST DUP2 EQ PUSH2 0x36F6 JUMPI PUSH0 DUP1 REVERT JUMPDEST POP JUMP JUMPDEST PUSH0 DUP2 CALLDATALOAD SWAP1 POP PUSH2 0x3707 DUP2 PUSH2 0x36E3 JUMP JUMPDEST SWAP3 SWAP2 POP POP JUMP JUMPDEST PUSH0 PUSH1 0x20 DUP3 DUP5 SUB SLT ISZERO PUSH2 0x3722 JUMPI PUSH2 0x3721 PUSH2 0x3586 JUMP JUMPDEST JUMPDEST PUSH0 PUSH2 0x372F DUP5 DUP3 DUP6 ADD PUSH2 0x36F9 JUMP JUMPDEST SWAP2 POP POP SWAP3 SWAP2 POP POP JUMP JUMPDEST PUSH2 0x3741 DUP2 PUSH2 0x36DA JUMP JUMPDEST DUP3 MSTORE POP POP JUMP JUMPDEST PUSH0 PUSH1 0x20 DUP3 ADD SWAP1 POP PUSH2 0x375A PUSH0 DUP4 ADD DUP5 PUSH2 0x3738 JUMP JUMPDEST SWAP3 SWAP2 POP POP JUMP JUMPDEST PUSH0 PUSH1 0x20 DUP3 DUP5 SUB SLT ISZERO PUSH2 0x3775 JUMPI PUSH2 0x3774 PUSH2 0x3586 JUMP JUMPDEST JUMPDEST PUSH0 PUSH2 0x3782 DUP5 DUP3 DUP6 ADD PUSH2 0x3688 JUMP JUMPDEST SWAP2 POP POP SWAP3 SWAP2 POP POP JUMP JUMPDEST PUSH0 PUSH20 0xFFFFFFFFFFFFFFFFFFFFFFFFFFFFFFFFFFFFFFFF DUP3 AND SWAP1 POP SWAP2 SWAP1 POP JUMP JUMPDEST PUSH0 PUSH2 0x37B4 DUP3 PUSH2 0x378B JUMP JUMPDEST SWAP1 POP SWAP2 SWAP1 POP JUMP JUMPDEST PUSH2 0x37C4 DUP2 PUSH2 0x37AA JUMP JUMPDEST DUP2 EQ PUSH2 0x37CE JUMPI PUSH0 DUP1 REVERT JUMPDEST POP JUMP JUMPDEST PUSH0 DUP2 CALLDATALOAD SWAP1 POP PUSH2 0x37DF DUP2 PUSH2 0x37BB JUMP JUMPDEST SWAP3 SWAP2 POP POP JUMP JUMPDEST PUSH0 DUP1 PUSH1 0x40 DUP4 DUP6 SUB SLT ISZERO PUSH2 0x37FB JUMPI PUSH2 0x37FA PUSH2 0x3586 JUMP JUMPDEST JUMPDEST PUSH0 PUSH2 0x3808 DUP6 DUP3 DUP7 ADD PUSH2 0x36F9 JUMP JUMPDEST SWAP3 POP POP PUSH1 0x20 PUSH2 0x3819 DUP6 DUP3 DUP7 ADD PUSH2 0x37D1 JUMP JUMPDEST SWAP2 POP POP SWAP3 POP SWAP3 SWAP1 POP JUMP JUMPDEST PUSH0 DUP1 REVERT JUMPDEST PUSH0 DUP1 REVERT JUMPDEST PUSH0 PUSH1 0x1F NOT PUSH1 0x1F DUP4 ADD AND SWAP1 POP SWAP2 SWAP1 POP JUMP JUMPDEST PUSH32 0x4E487B7100000000000000000000000000000000000000000000000000000000 PUSH0 MSTORE PUSH1 0x41 PUSH1 0x4 MSTORE PUSH1 0x24 PUSH0 REVERT JUMPDEST PUSH2 0x3871 DUP3 PUSH2 0x382B JUMP JUMPDEST DUP2 ADD DUP2 DUP2 LT PUSH8 0xFFFFFFFFFFFFFFFF DUP3 GT OR ISZERO PUSH2 0x3890 JUMPI PUSH2 0x388F PUSH2 0x383B JUMP JUMPDEST JUMPDEST DUP1 PUSH1 0x40 MSTORE POP POP POP JUMP JUMPDEST PUSH0 PUSH2 0x38A2 PUSH2 0x357D JUMP JUMPDEST SWAP1 POP PUSH2 0x38AE DUP3 DUP3 PUSH2 0x3868 JUMP JUMPDEST SWAP2 SWAP1 POP JUMP JUMPDEST PUSH0 PUSH8 0xFFFFFFFFFFFFFFFF DUP3 GT ISZERO PUSH2 0x38CD JUMPI PUSH2 0x38CC PUSH2 0x383B JUMP JUMPDEST JUMPDEST PUSH2 0x38D6 DUP3 PUSH2 0x382B JUMP JUMPDEST SWAP1 POP PUSH1 0x20 DUP2 ADD SWAP1 POP SWAP2 SWAP1 POP JUMP JUMPDEST DUP3 DUP2 DUP4 CALLDATACOPY PUSH0 DUP4 DUP4 ADD MSTORE POP POP POP JUMP JUMPDEST PUSH0 PUSH2 0x3903 PUSH2 0x38FE DUP5 PUSH2 0x38B3 JUMP JUMPDEST PUSH2 0x3899 JUMP JUMPDEST SWAP1 POP DUP3 DUP2 MSTORE PUSH1 0x20 DUP2 ADD DUP5 DUP5 DUP5 ADD GT ISZERO PUSH2 0x391F JUMPI PUSH2 0x391E PUSH2 0x3827 JUMP JUMPDEST JUMPDEST PUSH2 0x392A DUP5 DUP3 DUP6 PUSH2 0x38E3 JUMP JUMPDEST POP SWAP4 SWAP3 POP POP POP JUMP JUMPDEST PUSH0 DUP3 PUSH1 0x1F DUP4 ADD SLT PUSH2 0x3946 JUMPI PUSH2 0x3945 PUSH2 0x3823 JUMP JUMPDEST JUMPDEST DUP2 CALLDATALOAD PUSH2 0x3956 DUP5 DUP3 PUSH1 0x20 DUP7 ADD PUSH2 0x38F1 JUMP JUMPDEST SWAP2 POP POP SWAP3 SWAP2 POP POP JUMP JUMPDEST PUSH0 DUP1 PUSH0 DUP1 PUSH1 0x80 DUP6 DUP8 SUB SLT ISZERO PUSH2 0x3977 JUMPI PUSH2 0x3976 PUSH2 0x3586 JUMP JUMPDEST JUMPDEST PUSH0 DUP6 ADD CALLDATALOAD PUSH8 0xFFFFFFFFFFFFFFFF DUP2 GT ISZERO PUSH2 0x3994 JUMPI PUSH2 0x3993 PUSH2 0x358A JUMP JUMPDEST JUMPDEST PUSH2 0x39A0 DUP8 DUP3 DUP9 ADD PUSH2 0x3932 JUMP JUMPDEST SWAP5 POP POP PUSH1 0x20 DUP6 ADD CALLDATALOAD PUSH8 0xFFFFFFFFFFFFFFFF DUP2 GT ISZERO PUSH2 0x39C1 JUMPI PUSH2 0x39C0 PUSH2 0x358A JUMP JUMPDEST JUMPDEST PUSH2 0x39CD DUP8 DUP3 DUP9 ADD PUSH2 0x3932 JUMP JUMPDEST SWAP4 POP POP PUSH1 0x40 PUSH2 0x39DE DUP8 DUP3 DUP9 ADD PUSH2 0x37D1 JUMP JUMPDEST SWAP3 POP POP PUSH1 0x60 PUSH2 0x39EF DUP8 DUP3 DUP9 ADD PUSH2 0x3688 JUMP JUMPDEST SWAP2 POP POP SWAP3 SWAP6 SWAP2 SWAP5 POP SWAP3 POP JUMP JUMPDEST PUSH0 PUSH1 0x20 DUP3 DUP5 SUB SLT ISZERO PUSH2 0x3A10 JUMPI PUSH2 0x3A0F PUSH2 0x3586 JUMP JUMPDEST JUMPDEST PUSH0 PUSH2 0x3A1D DUP5 DUP3 DUP6 ADD PUSH2 0x37D1 JUMP JUMPDEST SWAP2 POP POP SWAP3 SWAP2 POP POP JUMP JUMPDEST PUSH0 PUSH1 0x80 DUP3 ADD SWAP1 POP PUSH2 0x3A39 PUSH0 DUP4 ADD DUP8 PUSH2 0x364A JUMP JUMPDEST PUSH2 0x3A46 PUSH1 0x20 DUP4 ADD DUP7 PUSH2 0x364A JUMP JUMPDEST PUSH2 0x3A53 PUSH1 0x40 DUP4 ADD DUP6 PUSH2 0x364A JUMP JUMPDEST PUSH2 0x3A60 PUSH1 0x60 DUP4 ADD DUP5 PUSH2 0x364A JUMP JUMPDEST SWAP6 SWAP5 POP POP POP POP POP JUMP JUMPDEST PUSH0 DUP1 PUSH0 DUP1 PUSH1 0x80 DUP6 DUP8 SUB SLT ISZERO PUSH2 0x3A81 JUMPI PUSH2 0x3A80 PUSH2 0x3586 JUMP JUMPDEST JUMPDEST PUSH0 PUSH2 0x3A8E DUP8 DUP3 DUP9 ADD PUSH2 0x37D1 JUMP JUMPDEST SWAP5 POP POP PUSH1 0x20 PUSH2 0x3A9F DUP8 DUP3 DUP9 ADD PUSH2 0x3688 JUMP JUMPDEST SWAP4 POP POP PUSH1 0x40 PUSH2 0x3AB0 DUP8 DUP3 DUP9 ADD PUSH2 0x3688 JUMP JUMPDEST SWAP3 POP POP PUSH1 0x60 PUSH2 0x3AC1 DUP8 DUP3 DUP9 ADD PUSH2 0x3688 JUMP JUMPDEST SWAP2 POP POP SWAP3 SWAP6 SWAP2 SWAP5 POP SWAP3 POP JUMP JUMPDEST PUSH0 DUP2 SWAP1 POP SWAP2 SWAP1 POP JUMP JUMPDEST PUSH0 PUSH2 0x3AF0 PUSH2 0x3AEB PUSH2 0x3AE6 DUP5 PUSH2 0x378B JUMP JUMPDEST PUSH2 0x3ACD JUMP JUMPDEST PUSH2 0x378B JUMP JUMPDEST SWAP1 POP SWAP2 SWAP1 POP JUMP JUMPDEST PUSH0 PUSH2 0x3B01 DUP3 PUSH2 0x3AD6 JUMP JUMPDEST SWAP1 POP SWAP2 SWAP1 POP JUMP JUMPDEST PUSH0 PUSH2 0x3B12 DUP3 PUSH2 0x3AF7 JUMP JUMPDEST SWAP1 POP SWAP2 SWAP1 POP JUMP JUMPDEST PUSH2 0x3B22 DUP2 PUSH2 0x3B08 JUMP JUMPDEST DUP3 MSTORE POP POP JUMP JUMPDEST PUSH0 PUSH1 0x20 DUP3 ADD SWAP1 POP PUSH2 0x3B3B PUSH0 DUP4 ADD DUP5 PUSH2 0x3B19 JUMP JUMPDEST SWAP3 SWAP2 POP POP JUMP JUMPDEST PUSH0 PUSH2 0x3B4B DUP3 PUSH2 0x3AF7 JUMP JUMPDEST SWAP1 POP SWAP2 SWAP1 POP JUMP JUMPDEST PUSH2 0x3B5B DUP2 PUSH2 0x3B41 JUMP JUMPDEST DUP3 MSTORE POP POP JUMP JUMPDEST PUSH0 PUSH1 0x20 DUP3 ADD SWAP1 POP PUSH2 0x3B74 PUSH0 DUP4 ADD DUP5 PUSH2 0x3B52 JUMP JUMPDEST SWAP3 SWAP2 POP POP JUMP JUMPDEST PUSH0 PUSH2 0x3B84 DUP3 PUSH2 0x3AF7 JUMP JUMPDEST SWAP1 POP SWAP2 SWAP1 POP JUMP JUMPDEST PUSH2 0x3B94 DUP2 PUSH2 0x3B7A JUMP JUMPDEST DUP3 MSTORE POP POP JUMP JUMPDEST PUSH0 PUSH1 0x20 DUP3 ADD SWAP1 POP PUSH2 0x3BAD PUSH0 DUP4 ADD DUP5 PUSH2 0x3B8B JUMP JUMPDEST SWAP3 SWAP2 POP POP JUMP JUMPDEST PUSH0 DUP1 REVERT JUMPDEST PUSH0 DUP1 REVERT JUMPDEST PUSH0 DUP1 DUP4 PUSH1 0x1F DUP5 ADD SLT PUSH2 0x3BD0 JUMPI PUSH2 0x3BCF PUSH2 0x3823 JUMP JUMPDEST JUMPDEST DUP3 CALLDATALOAD SWAP1 POP PUSH8 0xFFFFFFFFFFFFFFFF DUP2 GT ISZERO PUSH2 0x3BED JUMPI PUSH2 0x3BEC PUSH2 0x3BB3 JUMP JUMPDEST JUMPDEST PUSH1 0x20 DUP4 ADD SWAP2 POP DUP4 PUSH1 0x1 DUP3 MUL DUP4 ADD GT ISZERO PUSH2 0x3C09 JUMPI PUSH2 0x3C08 PUSH2 0x3BB7 JUMP JUMPDEST JUMPDEST SWAP3 POP SWAP3 SWAP1 POP JUMP JUMPDEST PUSH0 DUP1 PUSH0 DUP1 PUSH1 0x60 DUP6 DUP8 SUB SLT ISZERO PUSH2 0x3C28 JUMPI PUSH2 0x3C27 PUSH2 0x3586 JUMP JUMPDEST JUMPDEST PUSH0 PUSH2 0x3C35 DUP8 DUP3 DUP9 ADD PUSH2 0x37D1 JUMP JUMPDEST SWAP5 POP POP PUSH1 0x20 PUSH2 0x3C46 DUP8 DUP3 DUP9 ADD PUSH2 0x3688 JUMP JUMPDEST SWAP4 POP POP PUSH1 0x40 DUP6 ADD CALLDATALOAD PUSH8 0xFFFFFFFFFFFFFFFF DUP2 GT ISZERO PUSH2 0x3C67 JUMPI PUSH2 0x3C66 PUSH2 0x358A JUMP JUMPDEST JUMPDEST PUSH2 0x3C73 DUP8 DUP3 DUP9 ADD PUSH2 0x3BBB JUMP JUMPDEST SWAP3 POP SWAP3 POP POP SWAP3 SWAP6 SWAP2 SWAP5 POP SWAP3 POP JUMP JUMPDEST PUSH0 PUSH2 0x3C8B DUP3 PUSH2 0x3AF7 JUMP JUMPDEST SWAP1 POP SWAP2 SWAP1 POP JUMP JUMPDEST PUSH2 0x3C9B DUP2 PUSH2 0x3C81 JUMP JUMPDEST DUP3 MSTORE POP POP JUMP JUMPDEST PUSH0 PUSH1 0x20 DUP3 ADD SWAP1 POP PUSH2 0x3CB4 PUSH0 DUP4 ADD DUP5 PUSH2 0x3C92 JUMP JUMPDEST SWAP3 SWAP2 POP POP JUMP JUMPDEST PUSH0 DUP1 PUSH0 DUP1 PUSH1 0x80 DUP6 DUP8 SUB SLT ISZERO PUSH2 0x3CD2 JUMPI PUSH2 0x3CD1 PUSH2 0x3586 JUMP JUMPDEST JUMPDEST PUSH0 PUSH2 0x3CDF DUP8 DUP3 DUP9 ADD PUSH2 0x3688 JUMP JUMPDEST SWAP5 POP POP PUSH1 0x20 PUSH2 0x3CF0 DUP8 DUP3 DUP9 ADD PUSH2 0x3688 JUMP JUMPDEST SWAP4 POP POP PUSH1 0x40 PUSH2 0x3D01 DUP8 DUP3 DUP9 ADD PUSH2 0x3688 JUMP JUMPDEST SWAP3 POP POP PUSH1 0x60 PUSH2 0x3D12 DUP8 DUP3 DUP9 ADD PUSH2 0x3688 JUMP JUMPDEST SWAP2 POP POP SWAP3 SWAP6 SWAP2 SWAP5 POP SWAP3 POP JUMP JUMPDEST PUSH0 PUSH2 0x3D28 DUP3 PUSH2 0x3AF7 JUMP JUMPDEST SWAP1 POP SWAP2 SWAP1 POP JUMP JUMPDEST PUSH2 0x3D38 DUP2 PUSH2 0x3D1E JUMP JUMPDEST DUP3 MSTORE POP POP JUMP JUMPDEST PUSH0 PUSH1 0x20 DUP3 ADD SWAP1 POP PUSH2 0x3D51 PUSH0 DUP4 ADD DUP5 PUSH2 0x3D2F JUMP JUMPDEST SWAP3 SWAP2 POP POP JUMP JUMPDEST PUSH0 DUP3 DUP3 MSTORE PUSH1 0x20 DUP3 ADD SWAP1 POP SWAP3 SWAP2 POP POP JUMP JUMPDEST PUSH32 0x416D6F756E74206D7573742062652067726561746572207468616E207A65726F PUSH0 DUP3 ADD MSTORE POP JUMP JUMPDEST PUSH0 PUSH2 0x3D9B PUSH1 0x20 DUP4 PUSH2 0x3D57 JUMP JUMPDEST SWAP2 POP PUSH2 0x3DA6 DUP3 PUSH2 0x3D67 JUMP JUMPDEST PUSH1 0x20 DUP3 ADD SWAP1 POP SWAP2 SWAP1 POP JUMP JUMPDEST PUSH0 PUSH1 0x20 DUP3 ADD SWAP1 POP DUP2 DUP2 SUB PUSH0 DUP4 ADD MSTORE PUSH2 0x3DC8 DUP2 PUSH2 0x3D8F JUMP JUMPDEST SWAP1 POP SWAP2 SWAP1 POP JUMP JUMPDEST PUSH32 0x506F6F6C206E6F7420696E697469616C697A6564000000000000000000000000 PUSH0 DUP3 ADD MSTORE POP JUMP JUMPDEST PUSH0 PUSH2 0x3E03 PUSH1 0x14 DUP4 PUSH2 0x3D57 JUMP JUMPDEST SWAP2 POP PUSH2 0x3E0E DUP3 PUSH2 0x3DCF JUMP JUMPDEST PUSH1 0x20 DUP3 ADD SWAP1 POP SWAP2 SWAP1 POP JUMP JUMPDEST PUSH0 PUSH1 0x20 DUP3 ADD SWAP1 POP DUP2 DUP2 SUB PUSH0 DUP4 ADD MSTORE PUSH2 0x3E30 DUP2 PUSH2 0x3DF7 JUMP JUMPDEST SWAP1 POP SWAP2 SWAP1 POP JUMP JUMPDEST PUSH32 0x416C7265616479206861766520616E20616374697665206C6F616E0000000000 PUSH0 DUP3 ADD MSTORE POP JUMP JUMPDEST PUSH0 PUSH2 0x3E6B PUSH1 0x1B DUP4 PUSH2 0x3D57 JUMP JUMPDEST SWAP2 POP PUSH2 0x3E76 DUP3 PUSH2 0x3E37 JUMP JUMPDEST PUSH1 0x20 DUP3 ADD SWAP1 POP SWAP2 SWAP1 POP JUMP JUMPDEST PUSH0 PUSH1 0x20 DUP3 ADD SWAP1 POP DUP2 DUP2 SUB PUSH0 DUP4 ADD MSTORE PUSH2 0x3E98 DUP2 PUSH2 0x3E5F JUMP JUMPDEST SWAP1 POP SWAP2 SWAP1 POP JUMP JUMPDEST PUSH32 0x4C6F616E204475726174696F6E20696E76616C69640000000000000000000000 PUSH0 DUP3 ADD MSTORE POP JUMP JUMPDEST PUSH0 PUSH2 0x3ED3 PUSH1 0x15 DUP4 PUSH2 0x3D57 JUMP JUMPDEST SWAP2 POP PUSH2 0x3EDE DUP3 PUSH2 0x3E9F JUMP JUMPDEST PUSH1 0x20 DUP3 ADD SWAP1 POP SWAP2 SWAP1 POP JUMP JUMPDEST PUSH0 PUSH1 0x20 DUP3 ADD SWAP1 POP DUP2 DUP2 SUB PUSH0 DUP4 ADD MSTORE PUSH2 0x3F00 DUP2 PUSH2 0x3EC7 JUMP JUMPDEST SWAP1 POP SWAP2 SWAP1 POP JUMP JUMPDEST PUSH32 0x4E487B7100000000000000000000000000000000000000000000000000000000 PUSH0 MSTORE PUSH1 0x11 PUSH1 0x4 MSTORE PUSH1 0x24 PUSH0 REVERT JUMPDEST PUSH0 PUSH2 0x3F3E DUP3 PUSH2 0x3641 JUMP JUMPDEST SWAP2 POP PUSH2 0x3F49 DUP4 PUSH2 0x3641 JUMP JUMPDEST SWAP3 POP DUP3 DUP3 MUL PUSH2 0x3F57 DUP2 PUSH2 0x3641 JUMP JUMPDEST SWAP2 POP DUP3 DUP3 DIV DUP5 EQ DUP4 ISZERO OR PUSH2 0x3F6E JUMPI PUSH2 0x3F6D PUSH2 0x3F07 JUMP JUMPDEST JUMPDEST POP SWAP3 SWAP2 POP POP JUMP JUMPDEST PUSH32 0x4E487B7100000000000000000000000000000000000000000000000000000000 PUSH0 MSTORE PUSH1 0x12 PUSH1 0x4 MSTORE PUSH1 0x24 PUSH0 REVERT JUMPDEST PUSH0 PUSH2 0x3FAC DUP3 PUSH2 0x3641 JUMP JUMPDEST SWAP2 POP PUSH2 0x3FB7 DUP4 PUSH2 0x3641 JUMP JUMPDEST SWAP3 POP DUP3 PUSH2 0x3FC7 JUMPI PUSH2 0x3FC6 PUSH2 0x3F75 JUMP JUMPDEST JUMPDEST DUP3 DUP3 DIV SWAP1 POP SWAP3 SWAP2 POP POP JUMP JUMPDEST PUSH32 0x4E6F7420656E6F75676820737461626C65636F696E7320696E2074686520706F PUSH0 DUP3 ADD MSTORE PUSH32 0x6F6C000000000000000000000000000000000000000000000000000000000000 PUSH1 0x20 DUP3 ADD MSTORE POP JUMP JUMPDEST PUSH0 PUSH2 0x402C PUSH1 0x22 DUP4 PUSH2 0x3D57 JUMP JUMPDEST SWAP2 POP PUSH2 0x4037 DUP3 PUSH2 0x3FD2 JUMP JUMPDEST PUSH1 0x40 DUP3 ADD SWAP1 POP SWAP2 SWAP1 POP JUMP JUMPDEST PUSH0 PUSH1 0x20 DUP3 ADD SWAP1 POP DUP2 DUP2 SUB PUSH0 DUP4 ADD MSTORE PUSH2 0x4059 DUP2 PUSH2 0x4020 JUMP JUMPDEST SWAP1 POP SWAP2 SWAP1 POP JUMP JUMPDEST PUSH2 0x4069 DUP2 PUSH2 0x37AA JUMP JUMPDEST DUP3 MSTORE POP POP JUMP JUMPDEST PUSH0 PUSH1 0x60 DUP3 ADD SWAP1 POP PUSH2 0x4082 PUSH0 DUP4 ADD DUP7 PUSH2 0x4060 JUMP JUMPDEST PUSH2 0x408F PUSH1 0x20 DUP4 ADD DUP6 PUSH2 0x4060 JUMP JUMPDEST PUSH2 0x409C PUSH1 0x40 DUP4 ADD DUP5 PUSH2 0x364A JUMP JUMPDEST SWAP5 SWAP4 POP POP POP POP JUMP JUMPDEST PUSH2 0x40AD DUP2 PUSH2 0x360E JUMP JUMPDEST DUP2 EQ PUSH2 0x40B7 JUMPI PUSH0 DUP1 REVERT JUMPDEST POP JUMP JUMPDEST PUSH0 DUP2 MLOAD SWAP1 POP PUSH2 0x40C8 DUP2 PUSH2 0x40A4 JUMP JUMPDEST SWAP3 SWAP2 POP POP JUMP JUMPDEST PUSH0 PUSH1 0x20 DUP3 DUP5 SUB SLT ISZERO PUSH2 0x40E3 JUMPI PUSH2 0x40E2 PUSH2 0x3586 JUMP JUMPDEST JUMPDEST PUSH0 PUSH2 0x40F0 DUP5 DUP3 DUP6 ADD PUSH2 0x40BA JUMP JUMPDEST SWAP2 POP POP SWAP3 SWAP2 POP POP JUMP JUMPDEST PUSH0 PUSH1 0x40 DUP3 ADD SWAP1 POP PUSH2 0x410C PUSH0 DUP4 ADD DUP6 PUSH2 0x4060 JUMP JUMPDEST PUSH2 0x4119 PUSH1 0x20 DUP4 ADD DUP5 PUSH2 0x364A JUMP JUMPDEST SWAP4 SWAP3 POP POP POP JUMP JUMPDEST PUSH0 PUSH2 0x412A DUP3 PUSH2 0x3641 JUMP JUMPDEST SWAP2 POP PUSH2 0x4135 DUP4 PUSH2 0x3641 JUMP JUMPDEST SWAP3 POP DUP3 DUP3 ADD SWAP1 POP DUP1 DUP3 GT ISZERO PUSH2 0x414D JUMPI PUSH2 0x414C PUSH2 0x3F07 JUMP JUMPDEST JUMPDEST SWAP3 SWAP2 POP POP JUMP JUMPDEST PUSH0 PUSH2 0x415D DUP3 PUSH2 0x3641 JUMP JUMPDEST SWAP2 POP PUSH2 0x4168 DUP4 PUSH2 0x3641 JUMP JUMPDEST SWAP3 POP DUP3 DUP3 SUB SWAP1 POP DUP2 DUP2 GT ISZERO PUSH2 0x4180 JUMPI PUSH2 0x417F PUSH2 0x3F07 JUMP JUMPDEST JUMPDEST SWAP3 SWAP2 POP POP JUMP JUMPDEST PUSH0 DUP2 SWAP1 POP SWAP2 SWAP1 POP JUMP JUMPDEST PUSH0 PUSH2 0x41A9 PUSH2 0x41A4 PUSH2 0x419F DUP5 PUSH2 0x4186 JUMP JUMPDEST PUSH2 0x3ACD JUMP JUMPDEST PUSH2 0x3641 JUMP JUMPDEST SWAP1 POP SWAP2 SWAP1 POP JUMP JUMPDEST PUSH2 0x41B9 DUP2 PUSH2 0x418F JUMP JUMPDEST DUP3 MSTORE POP POP JUMP JUMPDEST PUSH0 PUSH1 0x60 DUP3 ADD SWAP1 POP PUSH2 0x41D2 PUSH0 DUP4 ADD DUP7 PUSH2 0x364A JUMP JUMPDEST PUSH2 0x41DF PUSH1 0x20 DUP4 ADD DUP6 PUSH2 0x41B0 JUMP JUMPDEST PUSH2 0x41EC PUSH1 0x40 DUP4 ADD DUP5 PUSH2 0x364A JUMP JUMPDEST SWAP5 SWAP4 POP POP POP POP JUMP JUMPDEST PUSH32 0x536861726573206D7573742062652067726561746572207468616E207A65726F PUSH0 DUP3 ADD MSTORE POP JUMP JUMPDEST PUSH0 PUSH2 0x4228 PUSH1 0x20 DUP4 PUSH2 0x3D57 JUMP JUMPDEST SWAP2 POP PUSH2 0x4233 DUP3 PUSH2 0x41F4 JUMP JUMPDEST PUSH1 0x20 DUP3 ADD SWAP1 POP SWAP2 SWAP1 POP JUMP JUMPDEST PUSH0 PUSH1 0x20 DUP3 ADD SWAP1 POP DUP2 DUP2 SUB PUSH0 DUP4 ADD MSTORE PUSH2 0x4255 DUP2 PUSH2 0x421C JUMP JUMPDEST SWAP1 POP SWAP2 SWAP1 POP JUMP JUMPDEST PUSH0 DUP2 MLOAD SWAP1 POP PUSH2 0x426A DUP2 PUSH2 0x3672 JUMP JUMPDEST SWAP3 SWAP2 POP POP JUMP JUMPDEST PUSH0 PUSH1 0x20 DUP3 DUP5 SUB SLT ISZERO PUSH2 0x4285 JUMPI PUSH2 0x4284 PUSH2 0x3586 JUMP JUMPDEST JUMPDEST PUSH0 PUSH2 0x4292 DUP5 DUP3 DUP6 ADD PUSH2 0x425C JUMP JUMPDEST SWAP2 POP POP SWAP3 SWAP2 POP POP JUMP JUMPDEST PUSH32 0x4E6F207368617265732065786973740000000000000000000000000000000000 PUSH0 DUP3 ADD MSTORE POP JUMP JUMPDEST PUSH0 PUSH2 0x42CF PUSH1 0xF DUP4 PUSH2 0x3D57 JUMP JUMPDEST SWAP2 POP PUSH2 0x42DA DUP3 PUSH2 0x429B JUMP JUMPDEST PUSH1 0x20 DUP3 ADD SWAP1 POP SWAP2 SWAP1 POP JUMP JUMPDEST PUSH0 PUSH1 0x20 DUP3 ADD SWAP1 POP DUP2 DUP2 SUB PUSH0 DUP4 ADD MSTORE PUSH2 0x42FC DUP2 PUSH2 0x42C3 JUMP JUMPDEST SWAP1 POP SWAP2 SWAP1 POP JUMP JUMPDEST PUSH0 PUSH1 0x20 DUP3 ADD SWAP1 POP PUSH2 0x4316 PUSH0 DUP4 ADD DUP5 PUSH2 0x4060 JUMP JUMPDEST SWAP3 SWAP2 POP POP JUMP JUMPDEST PUSH32 0x496E73756666696369656E742073686172657320746F206275726E0000000000 PUSH0 DUP3 ADD MSTORE POP JUMP JUMPDEST PUSH0 PUSH2 0x4350 PUSH1 0x1B DUP4 PUSH2 0x3D57 JUMP JUMPDEST SWAP2 POP PUSH2 0x435B DUP3 PUSH2 0x431C JUMP JUMPDEST PUSH1 0x20 DUP3 ADD SWAP1 POP SWAP2 SWAP1 POP JUMP JUMPDEST PUSH0 PUSH1 0x20 DUP3 ADD SWAP1 POP DUP2 DUP2 SUB PUSH0 DUP4 ADD MSTORE PUSH2 0x437D DUP2 PUSH2 0x4344 JUMP JUMPDEST SWAP1 POP SWAP2 SWAP1 POP JUMP JUMPDEST PUSH32 0x506F6F6C20616C726561647920696E697469616C697A65640000000000000000 PUSH0 DUP3 ADD MSTORE POP JUMP JUMPDEST PUSH0 PUSH2 0x43B8 PUSH1 0x18 DUP4 PUSH2 0x3D57 JUMP JUMPDEST SWAP2 POP PUSH2 0x43C3 DUP3 PUSH2 0x4384 JUMP JUMPDEST PUSH1 0x20 DUP3 ADD SWAP1 POP SWAP2 SWAP1 POP JUMP JUMPDEST PUSH0 PUSH1 0x20 DUP3 ADD SWAP1 POP DUP2 DUP2 SUB PUSH0 DUP4 ADD MSTORE PUSH2 0x43E5 DUP2 PUSH2 0x43AC JUMP JUMPDEST SWAP1 POP SWAP2 SWAP1 POP JUMP JUMPDEST PUSH0 DUP2 MLOAD SWAP1 POP SWAP2 SWAP1 POP JUMP JUMPDEST DUP3 DUP2 DUP4 MCOPY PUSH0 DUP4 DUP4 ADD MSTORE POP POP POP JUMP JUMPDEST PUSH0 PUSH2 0x440E DUP3 PUSH2 0x43EC JUMP JUMPDEST PUSH2 0x4418 DUP2 DUP6 PUSH2 0x3D57 JUMP JUMPDEST SWAP4 POP PUSH2 0x4428 DUP2 DUP6 PUSH1 0x20 DUP7 ADD PUSH2 0x43F6 JUMP JUMPDEST PUSH2 0x4431 DUP2 PUSH2 0x382B JUMP JUMPDEST DUP5 ADD SWAP2 POP POP SWAP3 SWAP2 POP POP JUMP JUMPDEST PUSH0 PUSH1 0x60 DUP3 ADD SWAP1 POP DUP2 DUP2 SUB PUSH0 DUP4 ADD MSTORE PUSH2 0x4454 DUP2 DUP7 PUSH2 0x4404 JUMP JUMPDEST SWAP1 POP DUP2 DUP2 SUB PUSH1 0x20 DUP4 ADD MSTORE PUSH2 0x4468 DUP2 DUP6 PUSH2 0x4404 JUMP JUMPDEST SWAP1 POP PUSH2 0x4477 PUSH1 0x40 DUP4 ADD DUP5 PUSH2 0x4060 JUMP JUMPDEST SWAP5 SWAP4 POP POP POP POP JUMP JUMPDEST PUSH0 PUSH2 0x4489 DUP3 PUSH2 0x37AA JUMP JUMPDEST SWAP1 POP SWAP2 SWAP1 POP JUMP JUMPDEST PUSH2 0x4499 DUP2 PUSH2 0x447F JUMP JUMPDEST DUP2 EQ PUSH2 0x44A3 JUMPI PUSH0 DUP1 REVERT JUMPDEST POP JUMP JUMPDEST PUSH0 DUP2 MLOAD SWAP1 POP PUSH2 0x44B4 DUP2 PUSH2 0x4490 JUMP JUMPDEST SWAP3 SWAP2 POP POP JUMP JUMPDEST PUSH0 PUSH1 0x20 DUP3 DUP5 SUB SLT ISZERO PUSH2 0x44CF JUMPI PUSH2 0x44CE PUSH2 0x3586 JUMP JUMPDEST JUMPDEST PUSH0 PUSH2 0x44DC DUP5 DUP3 DUP6 ADD PUSH2 0x44A6 JUMP JUMPDEST SWAP2 POP POP SWAP3 SWAP2 POP POP JUMP JUMPDEST PUSH0 DUP2 MLOAD SWAP1 POP PUSH2 0x44F3 DUP2 PUSH2 0x36E3 JUMP JUMPDEST SWAP3 SWAP2 POP POP JUMP JUMPDEST PUSH0 PUSH1 0x20 DUP3 DUP5 SUB SLT ISZERO PUSH2 0x450E JUMPI PUSH2 0x450D PUSH2 0x3586 JUMP JUMPDEST JUMPDEST PUSH0 PUSH2 0x451B DUP5 DUP3 DUP6 ADD PUSH2 0x44E5 JUMP JUMPDEST SWAP2 POP POP SWAP3 SWAP2 POP POP JUMP JUMPDEST PUSH0 PUSH1 0x40 DUP3 ADD SWAP1 POP PUSH2 0x4537 PUSH0 DUP4 ADD DUP6 PUSH2 0x3738 JUMP JUMPDEST PUSH2 0x4544 PUSH1 0x20 DUP4 ADD DUP5 PUSH2 0x4060 JUMP JUMPDEST SWAP4 SWAP3 POP POP POP JUMP JUMPDEST PUSH32 0x4E6F20616374697665206C6F616E000000000000000000000000000000000000 PUSH0 DUP3 ADD MSTORE POP JUMP JUMPDEST PUSH0 PUSH2 0x457F PUSH1 0xE DUP4 PUSH2 0x3D57 JUMP JUMPDEST SWAP2 POP PUSH2 0x458A DUP3 PUSH2 0x454B JUMP JUMPDEST PUSH1 0x20 DUP3 ADD SWAP1 POP SWAP2 SWAP1 POP JUMP JUMPDEST PUSH0 PUSH1 0x20 DUP3 ADD SWAP1 POP DUP2 DUP2 SUB PUSH0 DUP4 ADD MSTORE PUSH2 0x45AC DUP2 PUSH2 0x4573 JUMP JUMPDEST SWAP1 POP SWAP2 SWAP1 POP JUMP JUMPDEST PUSH32 0x496E76616C6964206475726174696F6E00000000000000000000000000000000 PUSH0 DUP3 ADD MSTORE POP JUMP JUMPDEST PUSH0 PUSH2 0x45E7 PUSH1 0x10 DUP4 PUSH2 0x3D57 JUMP JUMPDEST SWAP2 POP PUSH2 0x45F2 DUP3 PUSH2 0x45B3 JUMP JUMPDEST PUSH1 0x20 DUP3 ADD SWAP1 POP SWAP2 SWAP1 POP JUMP JUMPDEST PUSH0 PUSH1 0x20 DUP3 ADD SWAP1 POP DUP2 DUP2 SUB PUSH0 DUP4 ADD MSTORE PUSH2 0x4614 DUP2 PUSH2 0x45DB JUMP JUMPDEST SWAP1 POP SWAP2 SWAP1 POP JUMP JUMPDEST PUSH32 0x466565206578636565647320636F6C6C61746572616C20616D6F756E74000000 PUSH0 DUP3 ADD MSTORE POP JUMP JUMPDEST PUSH0 PUSH2 0x464F PUSH1 0x1D DUP4 PUSH2 0x3D57 JUMP JUMPDEST SWAP2 POP PUSH2 0x465A DUP3 PUSH2 0x461B JUMP JUMPDEST PUSH1 0x20 DUP3 ADD SWAP1 POP SWAP2 SWAP1 POP JUMP JUMPDEST PUSH0 PUSH1 0x20 DUP3 ADD SWAP1 POP DUP2 DUP2 SUB PUSH0 DUP4 ADD MSTORE PUSH2 0x467C DUP2 PUSH2 0x4643 JUMP JUMPDEST SWAP1 POP SWAP2 SWAP1 POP JUMP JUMPDEST PUSH0 PUSH1 0x60 DUP3 ADD SWAP1 POP PUSH2 0x4696 PUSH0 DUP4 ADD DUP7 PUSH2 0x364A JUMP JUMPDEST PUSH2 0x46A3 PUSH1 0x20 DUP4 ADD DUP6 PUSH2 0x364A JUMP JUMPDEST PUSH2 0x46B0 PUSH1 0x40 DUP4 ADD DUP5 PUSH2 0x364A JUMP JUMPDEST SWAP5 SWAP4 POP POP POP POP JUMP JUMPDEST PUSH32 0x496E73756666696369656E742061646D696E206665652062616C616E63650000 PUSH0 DUP3 ADD MSTORE POP JUMP JUMPDEST PUSH0 PUSH2 0x46EC PUSH1 0x1E DUP4 PUSH2 0x3D57 JUMP JUMPDEST SWAP2 POP PUSH2 0x46F7 DUP3 PUSH2 0x46B8 JUMP JUMPDEST PUSH1 0x20 DUP3 ADD SWAP1 POP SWAP2 SWAP1 POP JUMP JUMPDEST PUSH0 PUSH1 0x20 DUP3 ADD SWAP1 POP DUP2 DUP2 SUB PUSH0 DUP4 ADD MSTORE PUSH2 0x4719 DUP2 PUSH2 0x46E0 JUMP JUMPDEST SWAP1 POP SWAP2 SWAP1 POP JUMP JUMPDEST PUSH32 0x4465706F73697420636170206578636565646564000000000000000000000000 PUSH0 DUP3 ADD MSTORE POP JUMP JUMPDEST PUSH0 PUSH2 0x4754 PUSH1 0x14 DUP4 PUSH2 0x3D57 JUMP JUMPDEST SWAP2 POP PUSH2 0x475F DUP3 PUSH2 0x4720 JUMP JUMPDEST PUSH1 0x20 DUP3 ADD SWAP1 POP SWAP2 SWAP1 POP JUMP JUMPDEST PUSH0 PUSH1 0x20 DUP3 ADD SWAP1 POP DUP2 DUP2 SUB PUSH0 DUP4 ADD MSTORE PUSH2 0x4781 DUP2 PUSH2 0x4748 JUMP JUMPDEST SWAP1 POP SWAP2 SWAP1 POP JUMP JUMPDEST PUSH0 PUSH1 0x80 DUP3 ADD SWAP1 POP PUSH2 0x479B PUSH0 DUP4 ADD DUP8 PUSH2 0x4060 JUMP JUMPDEST PUSH2 0x47A8 PUSH1 0x20 DUP4 ADD DUP7 PUSH2 0x364A JUMP JUMPDEST PUSH2 0x47B5 PUSH1 0x40 DUP4 ADD DUP6 PUSH2 0x364A JUMP JUMPDEST PUSH2 0x47C2 PUSH1 0x60 DUP4 ADD DUP5 PUSH2 0x364A JUMP JUMPDEST SWAP6 SWAP5 POP POP POP POP POP JUMP JUMPDEST PUSH32 0x53776170206661696C6564000000000000000000000000000000000000000000 PUSH0 DUP3 ADD MSTORE POP JUMP JUMPDEST PUSH0 PUSH2 0x47FF PUSH1 0xB DUP4 PUSH2 0x3D57 JUMP JUMPDEST SWAP2 POP PUSH2 0x480A DUP3 PUSH2 0x47CB JUMP JUMPDEST PUSH1 0x20 DUP3 ADD SWAP1 POP SWAP2 SWAP1 POP JUMP JUMPDEST PUSH0 PUSH1 0x20 DUP3 ADD SWAP1 POP DUP2 DUP2 SUB PUSH0 DUP4 ADD MSTORE PUSH2 0x482C DUP2 PUSH2 0x47F3 JUMP JUMPDEST SWAP1 POP SWAP2 SWAP1 POP JUMP JUMPDEST PUSH0 PUSH1 0x40 DUP3 ADD SWAP1 POP PUSH2 0x4846 PUSH0 DUP4 ADD DUP6 PUSH2 0x364A JUMP JUMPDEST PUSH2 0x4853 PUSH1 0x20 DUP4 ADD DUP5 PUSH2 0x364A JUMP JUMPDEST SWAP4 SWAP3 POP POP POP JUMP JUMPDEST PUSH32 0x4465706F73697420636170206578636565646564206166746572207377617000 PUSH0 DUP3 ADD MSTORE POP JUMP JUMPDEST PUSH0 PUSH2 0x488E PUSH1 0x1F DUP4 PUSH2 0x3D57 JUMP JUMPDEST SWAP2 POP PUSH2 0x4899 DUP3 PUSH2 0x485A JUMP JUMPDEST PUSH1 0x20 DUP3 ADD SWAP1 POP SWAP2 SWAP1 POP JUMP JUMPDEST PUSH0 PUSH1 0x20 DUP3 ADD SWAP1 POP DUP2 DUP2 SUB PUSH0 DUP4 ADD MSTORE PUSH2 0x48BB DUP2 PUSH2 0x4882 JUMP JUMPDEST SWAP1 POP SWAP2 SWAP1 POP JUMP JUMPDEST PUSH32 0x4C6F616E206475726174696F6E20686173206E6F742065787069726564000000 PUSH0 DUP3 ADD MSTORE POP JUMP JUMPDEST PUSH0 PUSH2 0x48F6 PUSH1 0x1D DUP4 PUSH2 0x3D57 JUMP JUMPDEST SWAP2 POP PUSH2 0x4901 DUP3 PUSH2 0x48C2 JUMP JUMPDEST PUSH1 0x20 DUP3 ADD SWAP1 POP SWAP2 SWAP1 POP JUMP JUMPDEST PUSH0 PUSH1 0x20 DUP3 ADD SWAP1 POP DUP2 DUP2 SUB PUSH0 DUP4 ADD MSTORE PUSH2 0x4923 DUP2 PUSH2 0x48EA JUMP JUMPDEST SWAP1 POP SWAP2 SWAP1 POP JUMP JUMPDEST PUSH32 0x4E6F7420656E6F756768206C697175696469747920666F7220666C6173686C6F PUSH0 DUP3 ADD MSTORE PUSH32 0x616E000000000000000000000000000000000000000000000000000000000000 PUSH1 0x20 DUP3 ADD MSTORE POP JUMP JUMPDEST PUSH0 PUSH2 0x4984 PUSH1 0x22 DUP4 PUSH2 0x3D57 JUMP JUMPDEST SWAP2 POP PUSH2 0x498F DUP3 PUSH2 0x492A JUMP JUMPDEST PUSH1 0x40 DUP3 ADD SWAP1 POP SWAP2 SWAP1 POP JUMP JUMPDEST PUSH0 PUSH1 0x20 DUP3 ADD SWAP1 POP DUP2 DUP2 SUB PUSH0 DUP4 ADD MSTORE PUSH2 0x49B1 DUP2 PUSH2 0x4978 JUMP JUMPDEST SWAP1 POP SWAP2 SWAP1 POP JUMP JUMPDEST PUSH0 DUP3 DUP3 MSTORE PUSH1 0x20 DUP3 ADD SWAP1 POP SWAP3 SWAP2 POP POP JUMP JUMPDEST PUSH0 PUSH2 0x49D3 DUP4 DUP6 PUSH2 0x49B8 JUMP JUMPDEST SWAP4 POP PUSH2 0x49E0 DUP4 DUP6 DUP5 PUSH2 0x38E3 JUMP JUMPDEST PUSH2 0x49E9 DUP4 PUSH2 0x382B JUMP JUMPDEST DUP5 ADD SWAP1 POP SWAP4 SWAP3 POP POP POP JUMP JUMPDEST PUSH0 PUSH1 0x60 DUP3 ADD SWAP1 POP PUSH2 0x4A07 PUSH0 DUP4 ADD DUP8 PUSH2 0x364A JUMP JUMPDEST PUSH2 0x4A14 PUSH1 0x20 DUP4 ADD DUP7 PUSH2 0x364A JUMP JUMPDEST DUP2 DUP2 SUB PUSH1 0x40 DUP4 ADD MSTORE PUSH2 0x4A27 DUP2 DUP5 DUP7 PUSH2 0x49C8 JUMP JUMPDEST SWAP1 POP SWAP6 SWAP5 POP POP POP POP POP JUMP JUMPDEST PUSH32 0x466C6173686C6F616E206E6F7420726570616964000000000000000000000000 PUSH0 DUP3 ADD MSTORE POP JUMP JUMPDEST PUSH0 PUSH2 0x4A66 PUSH1 0x14 DUP4 PUSH2 0x3D57 JUMP JUMPDEST SWAP2 POP PUSH2 0x4A71 DUP3 PUSH2 0x4A32 JUMP JUMPDEST PUSH1 0x20 DUP3 ADD SWAP1 POP SWAP2 SWAP1 POP JUMP JUMPDEST PUSH0 PUSH1 0x20 DUP3 ADD SWAP1 POP DUP2 DUP2 SUB PUSH0 DUP4 ADD MSTORE PUSH2 0x4A93 DUP2 PUSH2 0x4A5A JUMP JUMPDEST SWAP1 POP SWAP2 SWAP1 POP JUMP JUMPDEST PUSH0 PUSH1 0x40 DUP3 ADD SWAP1 POP PUSH2 0x4AAD PUSH0 DUP4 ADD DUP6 PUSH2 0x4060 JUMP JUMPDEST PUSH2 0x4ABA PUSH1 0x20 DUP4 ADD DUP5 PUSH2 0x3738 JUMP JUMPDEST SWAP4 SWAP3 POP POP POP JUMP INVALID LOG2 PUSH5 0x6970667358 0x22 SLT KECCAK256 0xC4 DUP2 CREATE LOG4 PUSH29 0xAA711FC9E4F5E57BF427F61374065F638BE289CD92863D3F39FEDA6473 PUSH16 0x6C634300081A0033A264697066735822 SLT KECCAK256 BLOBBASEFEE REVERT 0xD7 0x4F BALANCE MUL PUSH28 0x23FD30CEE105D25069F7F956D509E391855FB75F6307B374EC64736F PUSH13 0x634300081A0033000000000000 "
		},
		"gasEstimates": {
			"creation": {
				"codeDepositCost": "4700800",
				"executionCost": "5514",
				"totalCost": "4706314"
			},
			"external": {
				"allPools(uint256)": "4921",
				"createLendingPool(address,address,address,address,address,uint256,string,string)": "infinite"
			}
		},
		"methodIdentifiers": {
			"allPools(uint256)": "41d1de97",
			"createLendingPool(address,address,address,address,address,uint256,string,string)": "e7b8064a"
		}
	},
	"abi": [
		{
			"anonymous": false,
			"inputs": [
				{
					"indexed": true,
					"internalType": "address",
					"name": "poolAddress",
					"type": "address"
				},
				{
					"indexed": false,
					"internalType": "address",
					"name": "stablecoin",
					"type": "address"
				},
				{
					"indexed": false,
					"internalType": "address",
					"name": "collateralToken",
					"type": "address"
				},
				{
					"indexed": false,
					"internalType": "address",
					"name": "token",
					"type": "address"
				},
				{
					"indexed": false,
					"internalType": "address",
					"name": "factory",
					"type": "address"
				},
				{
					"indexed": false,
					"internalType": "string",
					"name": "depositTokenName",
					"type": "string"
				},
				{
					"indexed": false,
					"internalType": "string",
					"name": "depositTokenSymbol",
					"type": "string"
				}
			],
			"name": "PoolCreated",
			"type": "event"
		},
		{
			"inputs": [
				{
					"internalType": "uint256",
					"name": "",
					"type": "uint256"
				}
			],
			"name": "allPools",
			"outputs": [
				{
					"internalType": "address",
					"name": "",
					"type": "address"
				}
			],
			"stateMutability": "view",
			"type": "function"
		},
		{
			"inputs": [
				{
					"internalType": "contract IERC20",
					"name": "stablecoin",
					"type": "address"
				},
				{
					"internalType": "contract IERC20",
					"name": "collateralToken",
					"type": "address"
				},
				{
					"internalType": "contract TokenIface",
					"name": "token",
					"type": "address"
				},
				{
					"internalType": "contract EqualFiLPFactory",
					"name": "lpFactory",
					"type": "address"
				},
				{
					"internalType": "contract ITokenSwap",
					"name": "tokenSwap",
					"type": "address"
				},
				{
					"internalType": "uint256",
					"name": "depositCapAmount",
					"type": "uint256"
				},
				{
					"internalType": "string",
					"name": "depositTokenName",
					"type": "string"
				},
				{
					"internalType": "string",
					"name": "depositTokenSymbol",
					"type": "string"
				}
			],
			"name": "createLendingPool",
			"outputs": [
				{
					"internalType": "address",
					"name": "",
					"type": "address"
				}
			],
			"stateMutability": "nonpayable",
			"type": "function"
		}
	]
}