{
	"data": {
		"bytecode": {
			"linkReferences": {},
			"object": "60806040526611c37937e0800060085534801561001a575f80fd5b506040518060400160405280600581526020017f546f6b656e0000000000000000000000000000000000000000000000000000008152506040518060400160405280600381526020017f544b4e000000000000000000000000000000000000000000000000000000000081525081600390816100969190610836565b5080600490816100a69190610836565b50505060016006819055506a084595161401484a0000006007819055505f600960016101000a81548160ff0219169083151502179055505f600960026101000a81548160ff0219169083151502179055506101165f801b61010b6101fd60201b60201c565b61020460201b60201c565b506101547fae6c2fc584631af4c9385b8a55683f1a75c813747e27efef5afece31c6b230d36101496101fd60201b60201c565b61020460201b60201c565b506101927f8c66330d9d4f6aba064f25ef2a307366ea6d917616f44c075aa60fa15e5cb1cb6101876101fd60201b60201c565b61020460201b60201c565b506101d07f9edfad36e7d4d9da54b4f78f22bf97cb5b58bb7998294a4288da41c15c647c456101c56101fd60201b60201c565b61020460201b60201c565b506101f86101e26101fd60201b60201c565b69d3c21bcecceda10000006102fa60201b60201c565b610a1a565b5f33905090565b5f610215838361037f60201b60201c565b6102f057600160055f8581526020019081526020015f205f015f8473ffffffffffffffffffffffffffffffffffffffff1673ffffffffffffffffffffffffffffffffffffffff1681526020019081526020015f205f6101000a81548160ff02191690831515021790555061028d6101fd60201b60201c565b73ffffffffffffffffffffffffffffffffffffffff168273ffffffffffffffffffffffffffffffffffffffff16847f2f8788117e7eff1d82e926ec794901d17c78024a50270940304540a733656f0d60405160405180910390a4600190506102f4565b5f90505b92915050565b5f73ffffffffffffffffffffffffffffffffffffffff168273ffffffffffffffffffffffffffffffffffffffff160361036a575f6040517fec442f050000000000000000000000000000000000000000000000000000000081526004016103619190610944565b60405180910390fd5b61037b5f83836103e360201b60201c565b5050565b5f60055f8481526020019081526020015f205f015f8373ffffffffffffffffffffffffffffffffffffffff1673ffffffffffffffffffffffffffffffffffffffff1681526020019081526020015f205f9054906101000a900460ff16905092915050565b5f73ffffffffffffffffffffffffffffffffffffffff168373ffffffffffffffffffffffffffffffffffffffff1603610433578060025f828254610427919061098a565b92505081905550610501565b5f805f8573ffffffffffffffffffffffffffffffffffffffff1673ffffffffffffffffffffffffffffffffffffffff1681526020019081526020015f20549050818110156104bc578381836040517fe450d38c0000000000000000000000000000000000000000000000000000000081526004016104b3939291906109cc565b60405180910390fd5b8181035f808673ffffffffffffffffffffffffffffffffffffffff1673ffffffffffffffffffffffffffffffffffffffff1681526020019081526020015f2081905550505b5f73ffffffffffffffffffffffffffffffffffffffff168273ffffffffffffffffffffffffffffffffffffffff1603610548578060025f8282540392505081905550610592565b805f808473ffffffffffffffffffffffffffffffffffffffff1673ffffffffffffffffffffffffffffffffffffffff1681526020019081526020015f205f82825401925050819055505b8173ffffffffffffffffffffffffffffffffffffffff168373ffffffffffffffffffffffffffffffffffffffff167fddf252ad1be2c89b69c2b068fc378daa952ba7f163c4a11628f55a4df523b3ef836040516105ef9190610a01565b60405180910390a3505050565b5f81519050919050565b7f4e487b71000000000000000000000000000000000000000000000000000000005f52604160045260245ffd5b7f4e487b71000000000000000000000000000000000000000000000000000000005f52602260045260245ffd5b5f600282049050600182168061067757607f821691505b60208210810361068a57610689610633565b5b50919050565b5f819050815f5260205f209050919050565b5f6020601f8301049050919050565b5f82821b905092915050565b5f600883026106ec7fffffffffffffffffffffffffffffffffffffffffffffffffffffffffffffffff826106b1565b6106f686836106b1565b95508019841693508086168417925050509392505050565b5f819050919050565b5f819050919050565b5f61073a6107356107308461070e565b610717565b61070e565b9050919050565b5f819050919050565b61075383610720565b61076761075f82610741565b8484546106bd565b825550505050565b5f90565b61077b61076f565b61078681848461074a565b505050565b5b818110156107a95761079e5f82610773565b60018101905061078c565b5050565b601f8211156107ee576107bf81610690565b6107c8846106a2565b810160208510156107d7578190505b6107eb6107e3856106a2565b83018261078b565b50505b505050565b5f82821c905092915050565b5f61080e5f19846008026107f3565b1980831691505092915050565b5f61082683836107ff565b9150826002028217905092915050565b61083f826105fc565b67ffffffffffffffff81111561085857610857610606565b5b6108628254610660565b61086d8282856107ad565b5f60209050601f83116001811461089e575f841561088c578287015190505b610896858261081b565b8655506108fd565b601f1984166108ac86610690565b5f5b828110156108d3578489015182556001820191506020850194506020810190506108ae565b868310156108f057848901516108ec601f8916826107ff565b8355505b6001600288020188555050505b505050505050565b5f73ffffffffffffffffffffffffffffffffffffffff82169050919050565b5f61092e82610905565b9050919050565b61093e81610924565b82525050565b5f6020820190506109575f830184610935565b92915050565b7f4e487b71000000000000000000000000000000000000000000000000000000005f52601160045260245ffd5b5f6109948261070e565b915061099f8361070e565b92508282019050808211156109b7576109b661095d565b5b92915050565b6109c68161070e565b82525050565b5f6060820190506109df5f830186610935565b6109ec60208301856109bd565b6109f960408301846109bd565b949350505050565b5f602082019050610a145f8301846109bd565b92915050565b612f0080610a275f395ff3fe608060405234801561000f575f80fd5b506004361061025c575f3560e01c806379cc679011610144578063a9059cbb116100c1578063d547741f11610085578063d547741f14610712578063dd62ed3e1461072e578063deb6db361461075e578063ea5cb5321461077a578063f05d16f714610798578063f2250d3d146107b45761025c565b8063a9059cbb1461065a578063b6a3f59a1461068a578063c30796ab146106a6578063cf820461146106d6578063d1c9f69b146106f45761025c565b806391d148541161010857806391d14854146105b4578063956feccf146105e457806395d89b4114610602578063a0712d6814610620578063a217fddf1461063c5761025c565b806379cc6790146105205780637e92a7fd1461053c5780638d580b9f1461055a5780638ebed5b1146105785780638f770ad0146105965761025c565b806336568abe116101dd57806348132f48116101a157806348132f481461045c578063515572891461047857806353a4c31e146104965780635c975abb146104b45780636ba77a38146104d257806370a08231146104f05761025c565b806336568abe146103d05780633f914aef146103ec57806341f431fd1461040857806342966c6814610424578063449a52f8146104405761025c565b806318160ddd1161022457806318160ddd1461031857806323b872dd14610336578063248a9ca3146103665780632f2ff15d14610396578063313ce567146103b25761025c565b806301ffc9a714610260578063060cf4e81461029057806306fdde03146102ae578063095ea7b3146102cc57806316c38b3c146102fc575b5f80fd5b61027a6004803603810190610275919061238e565b6107d0565b60405161028791906123d3565b60405180910390f35b610298610849565b6040516102a59190612404565b60405180910390f35b6102b661084f565b6040516102c3919061248d565b60405180910390f35b6102e660048036038101906102e19190612531565b6108df565b6040516102f391906123d3565b60405180910390f35b61031660048036038101906103119190612599565b610901565b005b6103206109d4565b60405161032d9190612404565b60405180910390f35b610350600480360381019061034b91906125c4565b6109dd565b60405161035d91906123d3565b60405180910390f35b610380600480360381019061037b9190612647565b610ae9565b60405161038d9190612681565b60405180910390f35b6103b060048036038101906103ab919061269a565b610b06565b005b6103ba610b28565b6040516103c791906126f3565b60405180910390f35b6103ea60048036038101906103e5919061269a565b610b30565b005b6104066004803603810190610401919061270c565b610bab565b005b610422600480360381019061041d9190612785565b610c9c565b005b61043e600480360381019061043991906127d5565b610d44565b005b61045a60048036038101906104559190612531565b610e12565b005b6104766004803603810190610471919061283b565b610f7a565b005b610480611038565b60405161048d9190612681565b60405180910390f35b61049e61105c565b6040516104ab9190612681565b60405180910390f35b6104bc611080565b6040516104c991906123d3565b60405180910390f35b6104da611092565b6040516104e79190612681565b60405180910390f35b61050a60048036038101906105059190612879565b6110b6565b6040516105179190612404565b60405180910390f35b61053a60048036038101906105359190612531565b6110fb565b005b6105446111c5565b6040516105519190612681565b60405180910390f35b6105626111e9565b60405161056f9190612681565b60405180910390f35b61058061120d565b60405161058d9190612681565b60405180910390f35b61059e611231565b6040516105ab9190612404565b60405180910390f35b6105ce60048036038101906105c9919061269a565b61123a565b6040516105db91906123d3565b60405180910390f35b6105ec61129e565b6040516105f991906123d3565b60405180910390f35b61060a6112b1565b604051610617919061248d565b60405180910390f35b61063a600480360381019061063591906127d5565b611341565b005b6106446114ad565b6040516106519190612681565b60405180910390f35b610674600480360381019061066f9190612531565b6114b3565b60405161068191906123d3565b60405180910390f35b6106a4600480360381019061069f91906127d5565b611551565b005b6106c060048036038101906106bb9190612879565b61165f565b6040516106cd91906123d3565b60405180910390f35b6106de61167c565b6040516106eb9190612404565b60405180910390f35b6106fc611682565b60405161070991906123d3565b60405180910390f35b61072c6004803603810190610727919061269a565b611695565b005b610748600480360381019061074391906128a4565b6116b7565b6040516107559190612404565b60405180910390f35b61077860048036038101906107739190612599565b611739565b005b61078261180d565b60405161078f9190612681565b60405180910390f35b6107b260048036038101906107ad91906127d5565b611831565b005b6107ce60048036038101906107c99190612599565b611866565b005b5f7f7965db0b000000000000000000000000000000000000000000000000000000007bffffffffffffffffffffffffffffffffffffffffffffffffffffffff1916827bffffffffffffffffffffffffffffffffffffffffffffffffffffffff1916148061084257506108418261193a565b5b9050919050565b60075481565b60606003805461085e9061290f565b80601f016020809104026020016040519081016040528092919081815260200182805461088a9061290f565b80156108d55780601f106108ac576101008083540402835291602001916108d5565b820191905f5260205f20905b8154815290600101906020018083116108b857829003601f168201915b5050505050905090565b5f806108e96119a3565b90506108f68185856119aa565b600191505092915050565b7fae6c2fc584631af4c9385b8a55683f1a75c813747e27efef5afece31c6b230d361092b816119bc565b8160095f6101000a81548160ff021916908315150217905550811561098f577fd8c9c5623123df8e137854c59a08f9084b75609fe24584228d44ffdce5ab920a436109746119a3565b60405161098292919061294e565b60405180910390a16109d0565b7f1e7a7234ad01ed7353bf129217f5c162773639a6cb22773e84bcd5a2b0ef362e436109b96119a3565b6040516109c792919061294e565b60405180910390a15b5050565b5f600254905090565b5f6109e66119d0565b5f6109ef6119a3565b90505f6109fc86836116b7565b905083811015610a41576040517f08c379a0000000000000000000000000000000000000000000000000000000008152600401610a38906129e5565b60405180910390fd5b610a5786838684610a529190612a30565b6119aa565b60011515600a5f8473ffffffffffffffffffffffffffffffffffffffff1673ffffffffffffffffffffffffffffffffffffffff1681526020019081526020015f205f9054906101000a900460ff16151503610abc57610ab7868686611a16565b610ad4565b610ac7868686611a16565b610ad386600854611b06565b5b600192505050610ae2611b85565b9392505050565b5f60055f8381526020019081526020015f20600101549050919050565b610b0f82610ae9565b610b18816119bc565b610b228383611b8f565b50505050565b5f6012905090565b610b386119a3565b73ffffffffffffffffffffffffffffffffffffffff168173ffffffffffffffffffffffffffffffffffffffff1614610b9c576040517f6697b23200000000000000000000000000000000000000000000000000000000815260040160405180910390fd5b610ba68282611c79565b505050565b7fae6c2fc584631af4c9385b8a55683f1a75c813747e27efef5afece31c6b230d3610bd5816119bc565b5f73ffffffffffffffffffffffffffffffffffffffff168373ffffffffffffffffffffffffffffffffffffffff1603610c43576040517f08c379a0000000000000000000000000000000000000000000000000000000008152600401610c3a90612aad565b60405180910390fd5b81600a5f8573ffffffffffffffffffffffffffffffffffffffff1673ffffffffffffffffffffffffffffffffffffffff1681526020019081526020015f205f6101000a81548160ff021916908315150217905550505050565b610ca46119d0565b7f508f8f8be8f5dbcb88f4f4500430b8b3684c471ed936f31fea912c78ad46a6b9610cce816119bc565b610cf983838673ffffffffffffffffffffffffffffffffffffffff16611d639092919063ffffffff16565b7f494215f965756bbc8b7f57addd2a0ebdbce467a4999f8320c67adc1771885d7b84438585604051610d2e9493929190612b26565b60405180910390a150610d3f611b85565b505050565b60095f9054906101000a900460ff1615610d93576040517f08c379a0000000000000000000000000000000000000000000000000000000008152600401610d8a90612bb3565b60405180910390fd5b7f9edfad36e7d4d9da54b4f78f22bf97cb5b58bb7998294a4288da41c15c647c45610dbd816119bc565b7f63706707d038997d2210eb026bb1339397deab463921538a81bb98e69ee54ca882610de76119a3565b604051610df592919061294e565b60405180910390a1610e0e610e086119a3565b83611b06565b5050565b60095f9054906101000a900460ff1615610e61576040517f08c379a0000000000000000000000000000000000000000000000000000000008152600401610e5890612bb3565b60405180910390fd5b600960029054906101000a900460ff1615610eb1576040517f08c379a0000000000000000000000000000000000000000000000000000000008152600401610ea890612c1b565b60405180910390fd5b7f7d800f56a05adcb6245df540492a560d0e668aac15ee6c7dd40668064913da33610edb816119bc565b60075482610ee76109d4565b610ef19190612c39565b1115610f32576040517f08c379a0000000000000000000000000000000000000000000000000000000008152600401610f2990612cb6565b60405180910390fd5b7fe98063832b4ff0356868961b75f7f49b096b14ea066c9725301ad197f2f631478383604051610f63929190612cd4565b60405180910390a1610f758383611de2565b505050565b610f826119d0565b7f508f8f8be8f5dbcb88f4f4500430b8b3684c471ed936f31fea912c78ad46a6b9610fac816119bc565b8273ffffffffffffffffffffffffffffffffffffffff166108fc8390811502906040515f60405180830381858888f19350505050158015610fef573d5f803e3d5ffd5b507f3b1c0368c81e47d03164182dc6f9fcf4f5e4b3bd9462d74960d729f73138ce3683438460405161102393929190612d1b565b60405180910390a150611034611b85565b5050565b7fae6c2fc584631af4c9385b8a55683f1a75c813747e27efef5afece31c6b230d381565b7f9edfad36e7d4d9da54b4f78f22bf97cb5b58bb7998294a4288da41c15c647c4581565b60095f9054906101000a900460ff1681565b7fc8a3befa5973ff6e159afc769978d92f26bae29c51a73d11c9112a05b68d25e681565b5f805f8373ffffffffffffffffffffffffffffffffffffffff1673ffffffffffffffffffffffffffffffffffffffff1681526020019081526020015f20549050919050565b60095f9054906101000a900460ff161561114a576040517f08c379a000000000000000000000000000000000000000000000000000000000815260040161114190612bb3565b60405180910390fd5b7fc8a3befa5973ff6e159afc769978d92f26bae29c51a73d11c9112a05b68d25e6611174816119bc565b7fe419ce2aab145a1feaf5893bb6a9478f9282415bbd81c76d5cfff2d4f13431dd838361119f6119a3565b6040516111ae93929190612d50565b60405180910390a16111c08383611b06565b505050565b7f7d800f56a05adcb6245df540492a560d0e668aac15ee6c7dd40668064913da3381565b7f508f8f8be8f5dbcb88f4f4500430b8b3684c471ed936f31fea912c78ad46a6b981565b7f8c66330d9d4f6aba064f25ef2a307366ea6d917616f44c075aa60fa15e5cb1cb81565b5f600754905090565b5f60055f8481526020019081526020015f205f015f8373ffffffffffffffffffffffffffffffffffffffff1673ffffffffffffffffffffffffffffffffffffffff1681526020019081526020015f205f9054906101000a900460ff16905092915050565b600960019054906101000a900460ff1681565b6060600480546112c09061290f565b80601f01602080910402602001604051908101604052809291908181526020018280546112ec9061290f565b80156113375780601f1061130e57610100808354040283529160200191611337565b820191905f5260205f20905b81548152906001019060200180831161131a57829003601f168201915b5050505050905090565b60095f9054906101000a900460ff1615611390576040517f08c379a000000000000000000000000000000000000000000000000000000000815260040161138790612bb3565b60405180910390fd5b600960019054906101000a900460ff16156113e0576040517f08c379a00000000000000000000000000000000000000000000000000000000081526004016113d790612dcf565b60405180910390fd5b7f8c66330d9d4f6aba064f25ef2a307366ea6d917616f44c075aa60fa15e5cb1cb61140a816119bc565b600754826114166109d4565b6114209190612c39565b1115611461576040517f08c379a000000000000000000000000000000000000000000000000000000000815260040161145890612cb6565b60405180910390fd5b7f772f66a00a405709c30e7f18feadcc8f123b20c09c7260165d3eec36c9f21372826040516114909190612404565b60405180910390a16114a96114a36119a3565b83611de2565b5050565b5f801b81565b5f6114bc6119d0565b5f6114c56119a3565b9050600a5f8273ffffffffffffffffffffffffffffffffffffffff1673ffffffffffffffffffffffffffffffffffffffff1681526020019081526020015f205f9054906101000a900460ff161561152657611521818585611a16565b61153e565b611531818585611a16565b61153d81600854611b06565b5b600191505061154b611b85565b92915050565b60095f9054906101000a900460ff16156115a0576040517f08c379a000000000000000000000000000000000000000000000000000000000815260040161159790612bb3565b60405180910390fd5b7fea4defabeb90fa1e79f929d6c8d482fee8a115926a592b79634d39a67cce3b626115ca816119bc565b6115d26109d4565b821015611614576040517f08c379a000000000000000000000000000000000000000000000000000000000815260040161160b90612e37565b60405180910390fd5b816007819055507fa11cbdeb4d62442fae7c8ec6286585b17c47acb7b17bbcab1beadce84befa300826116456119a3565b60405161165392919061294e565b60405180910390a15050565b600a602052805f5260405f205f915054906101000a900460ff1681565b60085481565b600960029054906101000a900460ff1681565b61169e82610ae9565b6116a7816119bc565b6116b18383611c79565b50505050565b5f60015f8473ffffffffffffffffffffffffffffffffffffffff1673ffffffffffffffffffffffffffffffffffffffff1681526020019081526020015f205f8373ffffffffffffffffffffffffffffffffffffffff1673ffffffffffffffffffffffffffffffffffffffff1681526020019081526020015f2054905092915050565b7fae6c2fc584631af4c9385b8a55683f1a75c813747e27efef5afece31c6b230d3611763816119bc565b81600960016101000a81548160ff02191690831515021790555081156117c8577f5668502ca8e7b393c09d1dac964ca45a27870a78d7ba212b7a189450897ca05f436117ad6119a3565b6040516117bb92919061294e565b60405180910390a1611809565b7f98e05482fdb38df5eb461fb932fa6e1af90a3569939ce5a8d92d699b102d6402436117f26119a3565b60405161180092919061294e565b60405180910390a15b5050565b7fea4defabeb90fa1e79f929d6c8d482fee8a115926a592b79634d39a67cce3b6281565b7fae6c2fc584631af4c9385b8a55683f1a75c813747e27efef5afece31c6b230d361185b816119bc565b816008819055505050565b7fae6c2fc584631af4c9385b8a55683f1a75c813747e27efef5afece31c6b230d3611890816119bc565b81600960026101000a81548160ff02191690831515021790555081156118f5577f218e25f0a7435729f5a66aae50a9ed0084535a0080300c1c2e8366d8df7136ed436118da6119a3565b6040516118e892919061294e565b60405180910390a1611936565b7f41606e1dcee38320f9edbfcd642aeaa81bb2140c705de9d4a7814024a1e9a3144361191f6119a3565b60405161192d92919061294e565b60405180910390a15b5050565b5f7f01ffc9a7000000000000000000000000000000000000000000000000000000007bffffffffffffffffffffffffffffffffffffffffffffffffffffffff1916827bffffffffffffffffffffffffffffffffffffffffffffffffffffffff1916149050919050565b5f33905090565b6119b78383836001611e61565b505050565b6119cd816119c86119a3565b612030565b50565b600260065403611a0c576040517f3ee5aeb500000000000000000000000000000000000000000000000000000000815260040160405180910390fd5b6002600681905550565b5f73ffffffffffffffffffffffffffffffffffffffff168373ffffffffffffffffffffffffffffffffffffffff1603611a86575f6040517f96c6fd1e000000000000000000000000000000000000000000000000000000008152600401611a7d9190612e55565b60405180910390fd5b5f73ffffffffffffffffffffffffffffffffffffffff168273ffffffffffffffffffffffffffffffffffffffff1603611af6575f6040517fec442f05000000000000000000000000000000000000000000000000000000008152600401611aed9190612e55565b60405180910390fd5b611b01838383612081565b505050565b5f73ffffffffffffffffffffffffffffffffffffffff168273ffffffffffffffffffffffffffffffffffffffff1603611b76575f6040517f96c6fd1e000000000000000000000000000000000000000000000000000000008152600401611b6d9190612e55565b60405180910390fd5b611b81825f83612081565b5050565b6001600681905550565b5f611b9a838361123a565b611c6f57600160055f8581526020019081526020015f205f015f8473ffffffffffffffffffffffffffffffffffffffff1673ffffffffffffffffffffffffffffffffffffffff1681526020019081526020015f205f6101000a81548160ff021916908315150217905550611c0c6119a3565b73ffffffffffffffffffffffffffffffffffffffff168273ffffffffffffffffffffffffffffffffffffffff16847f2f8788117e7eff1d82e926ec794901d17c78024a50270940304540a733656f0d60405160405180910390a460019050611c73565b5f90505b92915050565b5f611c84838361123a565b15611d59575f60055f8581526020019081526020015f205f015f8473ffffffffffffffffffffffffffffffffffffffff1673ffffffffffffffffffffffffffffffffffffffff1681526020019081526020015f205f6101000a81548160ff021916908315150217905550611cf66119a3565b73ffffffffffffffffffffffffffffffffffffffff168273ffffffffffffffffffffffffffffffffffffffff16847ff6391f5c32d9c69d2a47ea670b442974b53935d1edc7fd64eb21e047a839171b60405160405180910390a460019050611d5d565b5f90505b92915050565b611ddd838473ffffffffffffffffffffffffffffffffffffffff1663a9059cbb8585604051602401611d96929190612cd4565b604051602081830303815290604052915060e01b6020820180517bffffffffffffffffffffffffffffffffffffffffffffffffffffffff838183161783525050505061229a565b505050565b5f73ffffffffffffffffffffffffffffffffffffffff168273ffffffffffffffffffffffffffffffffffffffff1603611e52575f6040517fec442f05000000000000000000000000000000000000000000000000000000008152600401611e499190612e55565b60405180910390fd5b611e5d5f8383612081565b5050565b5f73ffffffffffffffffffffffffffffffffffffffff168473ffffffffffffffffffffffffffffffffffffffff1603611ed1575f6040517fe602df05000000000000000000000000000000000000000000000000000000008152600401611ec89190612e55565b60405180910390fd5b5f73ffffffffffffffffffffffffffffffffffffffff168373ffffffffffffffffffffffffffffffffffffffff1603611f41575f6040517f94280d62000000000000000000000000000000000000000000000000000000008152600401611f389190612e55565b60405180910390fd5b8160015f8673ffffffffffffffffffffffffffffffffffffffff1673ffffffffffffffffffffffffffffffffffffffff1681526020019081526020015f205f8573ffffffffffffffffffffffffffffffffffffffff1673ffffffffffffffffffffffffffffffffffffffff1681526020019081526020015f2081905550801561202a578273ffffffffffffffffffffffffffffffffffffffff168473ffffffffffffffffffffffffffffffffffffffff167f8c5be1e5ebec7d5bd14f71427d1e84f3dd0314c0f7b2291e5b200ac8c7c3b925846040516120219190612404565b60405180910390a35b50505050565b61203a828261123a565b61207d5780826040517fe2517d3f000000000000000000000000000000000000000000000000000000008152600401612074929190612e6e565b60405180910390fd5b5050565b5f73ffffffffffffffffffffffffffffffffffffffff168373ffffffffffffffffffffffffffffffffffffffff16036120d1578060025f8282546120c59190612c39565b9250508190555061219f565b5f805f8573ffffffffffffffffffffffffffffffffffffffff1673ffffffffffffffffffffffffffffffffffffffff1681526020019081526020015f205490508181101561215a578381836040517fe450d38c00000000000000000000000000000000000000000000000000000000815260040161215193929190612e95565b60405180910390fd5b8181035f808673ffffffffffffffffffffffffffffffffffffffff1673ffffffffffffffffffffffffffffffffffffffff1681526020019081526020015f2081905550505b5f73ffffffffffffffffffffffffffffffffffffffff168273ffffffffffffffffffffffffffffffffffffffff16036121e6578060025f8282540392505081905550612230565b805f808473ffffffffffffffffffffffffffffffffffffffff1673ffffffffffffffffffffffffffffffffffffffff1681526020019081526020015f205f82825401925050819055505b8173ffffffffffffffffffffffffffffffffffffffff168373ffffffffffffffffffffffffffffffffffffffff167fddf252ad1be2c89b69c2b068fc378daa952ba7f163c4a11628f55a4df523b3ef8360405161228d9190612404565b60405180910390a3505050565b5f8060205f8451602086015f885af1806122b9576040513d5f823e3d81fd5b3d92505f519150505f82146122d25760018114156122ed565b5f8473ffffffffffffffffffffffffffffffffffffffff163b145b1561232f57836040517f5274afe70000000000000000000000000000000000000000000000000000000081526004016123269190612e55565b60405180910390fd5b50505050565b5f80fd5b5f7fffffffff0000000000000000000000000000000000000000000000000000000082169050919050565b61236d81612339565b8114612377575f80fd5b50565b5f8135905061238881612364565b92915050565b5f602082840312156123a3576123a2612335565b5b5f6123b08482850161237a565b91505092915050565b5f8115159050919050565b6123cd816123b9565b82525050565b5f6020820190506123e65f8301846123c4565b92915050565b5f819050919050565b6123fe816123ec565b82525050565b5f6020820190506124175f8301846123f5565b92915050565b5f81519050919050565b5f82825260208201905092915050565b8281835e5f83830152505050565b5f601f19601f8301169050919050565b5f61245f8261241d565b6124698185612427565b9350612479818560208601612437565b61248281612445565b840191505092915050565b5f6020820190508181035f8301526124a58184612455565b905092915050565b5f73ffffffffffffffffffffffffffffffffffffffff82169050919050565b5f6124d6826124ad565b9050919050565b6124e6816124cc565b81146124f0575f80fd5b50565b5f81359050612501816124dd565b92915050565b612510816123ec565b811461251a575f80fd5b50565b5f8135905061252b81612507565b92915050565b5f806040838503121561254757612546612335565b5b5f612554858286016124f3565b92505060206125658582860161251d565b9150509250929050565b612578816123b9565b8114612582575f80fd5b50565b5f813590506125938161256f565b92915050565b5f602082840312156125ae576125ad612335565b5b5f6125bb84828501612585565b91505092915050565b5f805f606084860312156125db576125da612335565b5b5f6125e8868287016124f3565b93505060206125f9868287016124f3565b925050604061260a8682870161251d565b9150509250925092565b5f819050919050565b61262681612614565b8114612630575f80fd5b50565b5f813590506126418161261d565b92915050565b5f6020828403121561265c5761265b612335565b5b5f61266984828501612633565b91505092915050565b61267b81612614565b82525050565b5f6020820190506126945f830184612672565b92915050565b5f80604083850312156126b0576126af612335565b5b5f6126bd85828601612633565b92505060206126ce858286016124f3565b9150509250929050565b5f60ff82169050919050565b6126ed816126d8565b82525050565b5f6020820190506127065f8301846126e4565b92915050565b5f806040838503121561272257612721612335565b5b5f61272f858286016124f3565b925050602061274085828601612585565b9150509250929050565b5f612754826124cc565b9050919050565b6127648161274a565b811461276e575f80fd5b50565b5f8135905061277f8161275b565b92915050565b5f805f6060848603121561279c5761279b612335565b5b5f6127a986828701612771565b93505060206127ba868287016124f3565b92505060406127cb8682870161251d565b9150509250925092565b5f602082840312156127ea576127e9612335565b5b5f6127f78482850161251d565b91505092915050565b5f61280a826124ad565b9050919050565b61281a81612800565b8114612824575f80fd5b50565b5f8135905061283581612811565b92915050565b5f806040838503121561285157612850612335565b5b5f61285e85828601612827565b925050602061286f8582860161251d565b9150509250929050565b5f6020828403121561288e5761288d612335565b5b5f61289b848285016124f3565b91505092915050565b5f80604083850312156128ba576128b9612335565b5b5f6128c7858286016124f3565b92505060206128d8858286016124f3565b9150509250929050565b7f4e487b71000000000000000000000000000000000000000000000000000000005f52602260045260245ffd5b5f600282049050600182168061292657607f821691505b602082108103612939576129386128e2565b5b50919050565b612948816124cc565b82525050565b5f6040820190506129615f8301856123f5565b61296e602083018461293f565b9392505050565b7f45524332303a207472616e7366657220616d6f756e74206578636565647320615f8201527f6c6c6f77616e6365000000000000000000000000000000000000000000000000602082015250565b5f6129cf602883612427565b91506129da82612975565b604082019050919050565b5f6020820190508181035f8301526129fc816129c3565b9050919050565b7f4e487b71000000000000000000000000000000000000000000000000000000005f52601160045260245ffd5b5f612a3a826123ec565b9150612a45836123ec565b9250828203905081811115612a5d57612a5c612a03565b5b92915050565b7f496e76616c6964206164647265737300000000000000000000000000000000005f82015250565b5f612a97600f83612427565b9150612aa282612a63565b602082019050919050565b5f6020820190508181035f830152612ac481612a8b565b9050919050565b5f819050919050565b5f612aee612ae9612ae4846124ad565b612acb565b6124ad565b9050919050565b5f612aff82612ad4565b9050919050565b5f612b1082612af5565b9050919050565b612b2081612b06565b82525050565b5f608082019050612b395f830187612b17565b612b4660208301866123f5565b612b53604083018561293f565b612b6060608301846123f5565b95945050505050565b7f436f6e74726163743a20436f6e747261637420697320506175736564000000005f82015250565b5f612b9d601c83612427565b9150612ba882612b69565b602082019050919050565b5f6020820190508181035f830152612bca81612b91565b9050919050565b7f4d696e74696e6720746f2064697361626c6564000000000000000000000000005f82015250565b5f612c05601383612427565b9150612c1082612bd1565b602082019050919050565b5f6020820190508181035f830152612c3281612bf9565b9050919050565b5f612c43826123ec565b9150612c4e836123ec565b9250828201905080821115612c6657612c65612a03565b5b92915050565b7f436f6e74726163743a20537570706c79204361702065786365656465640000005f82015250565b5f612ca0601d83612427565b9150612cab82612c6c565b602082019050919050565b5f6020820190508181035f830152612ccd81612c94565b9050919050565b5f604082019050612ce75f83018561293f565b612cf460208301846123f5565b9392505050565b5f612d0582612af5565b9050919050565b612d1581612cfb565b82525050565b5f606082019050612d2e5f830186612d0c565b612d3b60208301856123f5565b612d4860408301846123f5565b949350505050565b5f606082019050612d635f83018661293f565b612d7060208301856123f5565b612d7d604083018461293f565b949350505050565b7f4d696e74696e672064697361626c6564000000000000000000000000000000005f82015250565b5f612db9601083612427565b9150612dc482612d85565b602082019050919050565b5f6020820190508181035f830152612de681612dad565b9050919050565b7f436f6e74726163743a20537570706c792043617020746f6f206c6f77000000005f82015250565b5f612e21601c83612427565b9150612e2c82612ded565b602082019050919050565b5f6020820190508181035f830152612e4e81612e15565b9050919050565b5f602082019050612e685f83018461293f565b92915050565b5f604082019050612e815f83018561293f565b612e8e6020830184612672565b9392505050565b5f606082019050612ea85f83018661293f565b612eb560208301856123f5565b612ec260408301846123f5565b94935050505056fea2646970667358221220bff9d0013640c6ef3513800fbcca4bd42eee571afeaf7e5ad10ebf4b5198a3a364736f6c634300081a0033",
			"opcodes": "PUSH1 0x80 PUSH1 0x40 MSTORE PUSH7 0x11C37937E08000 PUSH1 0x8 SSTORE CALLVALUE DUP1 ISZERO PUSH2 0x1A JUMPI PUSH0 DUP1 REVERT JUMPDEST POP PUSH1 0x40 MLOAD DUP1 PUSH1 0x40 ADD PUSH1 0x40 MSTORE DUP1 PUSH1 0x5 DUP2 MSTORE PUSH1 0x20 ADD PUSH32 0x546F6B656E000000000000000000000000000000000000000000000000000000 DUP2 MSTORE POP PUSH1 0x40 MLOAD DUP1 PUSH1 0x40 ADD PUSH1 0x40 MSTORE DUP1 PUSH1 0x3 DUP2 MSTORE PUSH1 0x20 ADD PUSH32 0x544B4E0000000000000000000000000000000000000000000000000000000000 DUP2 MSTORE POP DUP2 PUSH1 0x3 SWAP1 DUP2 PUSH2 0x96 SWAP2 SWAP1 PUSH2 0x836 JUMP JUMPDEST POP DUP1 PUSH1 0x4 SWAP1 DUP2 PUSH2 0xA6 SWAP2 SWAP1 PUSH2 0x836 JUMP JUMPDEST POP POP POP PUSH1 0x1 PUSH1 0x6 DUP2 SWAP1 SSTORE POP PUSH11 0x84595161401484A000000 PUSH1 0x7 DUP2 SWAP1 SSTORE POP PUSH0 PUSH1 0x9 PUSH1 0x1 PUSH2 0x100 EXP DUP2 SLOAD DUP2 PUSH1 0xFF MUL NOT AND SWAP1 DUP4 ISZERO ISZERO MUL OR SWAP1 SSTORE POP PUSH0 PUSH1 0x9 PUSH1 0x2 PUSH2 0x100 EXP DUP2 SLOAD DUP2 PUSH1 0xFF MUL NOT AND SWAP1 DUP4 ISZERO ISZERO MUL OR SWAP1 SSTORE POP PUSH2 0x116 PUSH0 DUP1 SHL PUSH2 0x10B PUSH2 0x1FD PUSH1 0x20 SHL PUSH1 0x20 SHR JUMP JUMPDEST PUSH2 0x204 PUSH1 0x20 SHL PUSH1 0x20 SHR JUMP JUMPDEST POP PUSH2 0x154 PUSH32 0xAE6C2FC584631AF4C9385B8A55683F1A75C813747E27EFEF5AFECE31C6B230D3 PUSH2 0x149 PUSH2 0x1FD PUSH1 0x20 SHL PUSH1 0x20 SHR JUMP JUMPDEST PUSH2 0x204 PUSH1 0x20 SHL PUSH1 0x20 SHR JUMP JUMPDEST POP PUSH2 0x192 PUSH32 0x8C66330D9D4F6ABA064F25EF2A307366EA6D917616F44C075AA60FA15E5CB1CB PUSH2 0x187 PUSH2 0x1FD PUSH1 0x20 SHL PUSH1 0x20 SHR JUMP JUMPDEST PUSH2 0x204 PUSH1 0x20 SHL PUSH1 0x20 SHR JUMP JUMPDEST POP PUSH2 0x1D0 PUSH32 0x9EDFAD36E7D4D9DA54B4F78F22BF97CB5B58BB7998294A4288DA41C15C647C45 PUSH2 0x1C5 PUSH2 0x1FD PUSH1 0x20 SHL PUSH1 0x20 SHR JUMP JUMPDEST PUSH2 0x204 PUSH1 0x20 SHL PUSH1 0x20 SHR JUMP JUMPDEST POP PUSH2 0x1F8 PUSH2 0x1E2 PUSH2 0x1FD PUSH1 0x20 SHL PUSH1 0x20 SHR JUMP JUMPDEST PUSH10 0xD3C21BCECCEDA1000000 PUSH2 0x2FA PUSH1 0x20 SHL PUSH1 0x20 SHR JUMP JUMPDEST PUSH2 0xA1A JUMP JUMPDEST PUSH0 CALLER SWAP1 POP SWAP1 JUMP JUMPDEST PUSH0 PUSH2 0x215 DUP4 DUP4 PUSH2 0x37F PUSH1 0x20 SHL PUSH1 0x20 SHR JUMP JUMPDEST PUSH2 0x2F0 JUMPI PUSH1 0x1 PUSH1 0x5 PUSH0 DUP6 DUP2 MSTORE PUSH1 0x20 ADD SWAP1 DUP2 MSTORE PUSH1 0x20 ADD PUSH0 KECCAK256 PUSH0 ADD PUSH0 DUP5 PUSH20 0xFFFFFFFFFFFFFFFFFFFFFFFFFFFFFFFFFFFFFFFF AND PUSH20 0xFFFFFFFFFFFFFFFFFFFFFFFFFFFFFFFFFFFFFFFF AND DUP2 MSTORE PUSH1 0x20 ADD SWAP1 DUP2 MSTORE PUSH1 0x20 ADD PUSH0 KECCAK256 PUSH0 PUSH2 0x100 EXP DUP2 SLOAD DUP2 PUSH1 0xFF MUL NOT AND SWAP1 DUP4 ISZERO ISZERO MUL OR SWAP1 SSTORE POP PUSH2 0x28D PUSH2 0x1FD PUSH1 0x20 SHL PUSH1 0x20 SHR JUMP JUMPDEST PUSH20 0xFFFFFFFFFFFFFFFFFFFFFFFFFFFFFFFFFFFFFFFF AND DUP3 PUSH20 0xFFFFFFFFFFFFFFFFFFFFFFFFFFFFFFFFFFFFFFFF AND DUP5 PUSH32 0x2F8788117E7EFF1D82E926EC794901D17C78024A50270940304540A733656F0D PUSH1 0x40 MLOAD PUSH1 0x40 MLOAD DUP1 SWAP2 SUB SWAP1 LOG4 PUSH1 0x1 SWAP1 POP PUSH2 0x2F4 JUMP JUMPDEST PUSH0 SWAP1 POP JUMPDEST SWAP3 SWAP2 POP POP JUMP JUMPDEST PUSH0 PUSH20 0xFFFFFFFFFFFFFFFFFFFFFFFFFFFFFFFFFFFFFFFF AND DUP3 PUSH20 0xFFFFFFFFFFFFFFFFFFFFFFFFFFFFFFFFFFFFFFFF AND SUB PUSH2 0x36A JUMPI PUSH0 PUSH1 0x40 MLOAD PUSH32 0xEC442F0500000000000000000000000000000000000000000000000000000000 DUP2 MSTORE PUSH1 0x4 ADD PUSH2 0x361 SWAP2 SWAP1 PUSH2 0x944 JUMP JUMPDEST PUSH1 0x40 MLOAD DUP1 SWAP2 SUB SWAP1 REVERT JUMPDEST PUSH2 0x37B PUSH0 DUP4 DUP4 PUSH2 0x3E3 PUSH1 0x20 SHL PUSH1 0x20 SHR JUMP JUMPDEST POP POP JUMP JUMPDEST PUSH0 PUSH1 0x5 PUSH0 DUP5 DUP2 MSTORE PUSH1 0x20 ADD SWAP1 DUP2 MSTORE PUSH1 0x20 ADD PUSH0 KECCAK256 PUSH0 ADD PUSH0 DUP4 PUSH20 0xFFFFFFFFFFFFFFFFFFFFFFFFFFFFFFFFFFFFFFFF AND PUSH20 0xFFFFFFFFFFFFFFFFFFFFFFFFFFFFFFFFFFFFFFFF AND DUP2 MSTORE PUSH1 0x20 ADD SWAP1 DUP2 MSTORE PUSH1 0x20 ADD PUSH0 KECCAK256 PUSH0 SWAP1 SLOAD SWAP1 PUSH2 0x100 EXP SWAP1 DIV PUSH1 0xFF AND SWAP1 POP SWAP3 SWAP2 POP POP JUMP JUMPDEST PUSH0 PUSH20 0xFFFFFFFFFFFFFFFFFFFFFFFFFFFFFFFFFFFFFFFF AND DUP4 PUSH20 0xFFFFFFFFFFFFFFFFFFFFFFFFFFFFFFFFFFFFFFFF AND SUB PUSH2 0x433 JUMPI DUP1 PUSH1 0x2 PUSH0 DUP3 DUP3 SLOAD PUSH2 0x427 SWAP2 SWAP1 PUSH2 0x98A JUMP JUMPDEST SWAP3 POP POP DUP2 SWAP1 SSTORE POP PUSH2 0x501 JUMP JUMPDEST PUSH0 DUP1 PUSH0 DUP6 PUSH20 0xFFFFFFFFFFFFFFFFFFFFFFFFFFFFFFFFFFFFFFFF AND PUSH20 0xFFFFFFFFFFFFFFFFFFFFFFFFFFFFFFFFFFFFFFFF AND DUP2 MSTORE PUSH1 0x20 ADD SWAP1 DUP2 MSTORE PUSH1 0x20 ADD PUSH0 KECCAK256 SLOAD SWAP1 POP DUP2 DUP2 LT ISZERO PUSH2 0x4BC JUMPI DUP4 DUP2 DUP4 PUSH1 0x40 MLOAD PUSH32 0xE450D38C00000000000000000000000000000000000000000000000000000000 DUP2 MSTORE PUSH1 0x4 ADD PUSH2 0x4B3 SWAP4 SWAP3 SWAP2 SWAP1 PUSH2 0x9CC JUMP JUMPDEST PUSH1 0x40 MLOAD DUP1 SWAP2 SUB SWAP1 REVERT JUMPDEST DUP2 DUP2 SUB PUSH0 DUP1 DUP7 PUSH20 0xFFFFFFFFFFFFFFFFFFFFFFFFFFFFFFFFFFFFFFFF AND PUSH20 0xFFFFFFFFFFFFFFFFFFFFFFFFFFFFFFFFFFFFFFFF AND DUP2 MSTORE PUSH1 0x20 ADD SWAP1 DUP2 MSTORE PUSH1 0x20 ADD PUSH0 KECCAK256 DUP2 SWAP1 SSTORE POP POP JUMPDEST PUSH0 PUSH20 0xFFFFFFFFFFFFFFFFFFFFFFFFFFFFFFFFFFFFFFFF AND DUP3 PUSH20 0xFFFFFFFFFFFFFFFFFFFFFFFFFFFFFFFFFFFFFFFF AND SUB PUSH2 0x548 JUMPI DUP1 PUSH1 0x2 PUSH0 DUP3 DUP3 SLOAD SUB SWAP3 POP POP DUP2 SWAP1 SSTORE POP PUSH2 0x592 JUMP JUMPDEST DUP1 PUSH0 DUP1 DUP5 PUSH20 0xFFFFFFFFFFFFFFFFFFFFFFFFFFFFFFFFFFFFFFFF AND PUSH20 0xFFFFFFFFFFFFFFFFFFFFFFFFFFFFFFFFFFFFFFFF AND DUP2 MSTORE PUSH1 0x20 ADD SWAP1 DUP2 MSTORE PUSH1 0x20 ADD PUSH0 KECCAK256 PUSH0 DUP3 DUP3 SLOAD ADD SWAP3 POP POP DUP2 SWAP1 SSTORE POP JUMPDEST DUP2 PUSH20 0xFFFFFFFFFFFFFFFFFFFFFFFFFFFFFFFFFFFFFFFF AND DUP4 PUSH20 0xFFFFFFFFFFFFFFFFFFFFFFFFFFFFFFFFFFFFFFFF AND PUSH32 0xDDF252AD1BE2C89B69C2B068FC378DAA952BA7F163C4A11628F55A4DF523B3EF DUP4 PUSH1 0x40 MLOAD PUSH2 0x5EF SWAP2 SWAP1 PUSH2 0xA01 JUMP JUMPDEST PUSH1 0x40 MLOAD DUP1 SWAP2 SUB SWAP1 LOG3 POP POP POP JUMP JUMPDEST PUSH0 DUP2 MLOAD SWAP1 POP SWAP2 SWAP1 POP JUMP JUMPDEST PUSH32 0x4E487B7100000000000000000000000000000000000000000000000000000000 PUSH0 MSTORE PUSH1 0x41 PUSH1 0x4 MSTORE PUSH1 0x24 PUSH0 REVERT JUMPDEST PUSH32 0x4E487B7100000000000000000000000000000000000000000000000000000000 PUSH0 MSTORE PUSH1 0x22 PUSH1 0x4 MSTORE PUSH1 0x24 PUSH0 REVERT JUMPDEST PUSH0 PUSH1 0x2 DUP3 DIV SWAP1 POP PUSH1 0x1 DUP3 AND DUP1 PUSH2 0x677 JUMPI PUSH1 0x7F DUP3 AND SWAP2 POP JUMPDEST PUSH1 0x20 DUP3 LT DUP2 SUB PUSH2 0x68A JUMPI PUSH2 0x689 PUSH2 0x633 JUMP JUMPDEST JUMPDEST POP SWAP2 SWAP1 POP JUMP JUMPDEST PUSH0 DUP2 SWAP1 POP DUP2 PUSH0 MSTORE PUSH1 0x20 PUSH0 KECCAK256 SWAP1 POP SWAP2 SWAP1 POP JUMP JUMPDEST PUSH0 PUSH1 0x20 PUSH1 0x1F DUP4 ADD DIV SWAP1 POP SWAP2 SWAP1 POP JUMP JUMPDEST PUSH0 DUP3 DUP3 SHL SWAP1 POP SWAP3 SWAP2 POP POP JUMP JUMPDEST PUSH0 PUSH1 0x8 DUP4 MUL PUSH2 0x6EC PUSH32 0xFFFFFFFFFFFFFFFFFFFFFFFFFFFFFFFFFFFFFFFFFFFFFFFFFFFFFFFFFFFFFFFF DUP3 PUSH2 0x6B1 JUMP JUMPDEST PUSH2 0x6F6 DUP7 DUP4 PUSH2 0x6B1 JUMP JUMPDEST SWAP6 POP DUP1 NOT DUP5 AND SWAP4 POP DUP1 DUP7 AND DUP5 OR SWAP3 POP POP POP SWAP4 SWAP3 POP POP POP JUMP JUMPDEST PUSH0 DUP2 SWAP1 POP SWAP2 SWAP1 POP JUMP JUMPDEST PUSH0 DUP2 SWAP1 POP SWAP2 SWAP1 POP JUMP JUMPDEST PUSH0 PUSH2 0x73A PUSH2 0x735 PUSH2 0x730 DUP5 PUSH2 0x70E JUMP JUMPDEST PUSH2 0x717 JUMP JUMPDEST PUSH2 0x70E JUMP JUMPDEST SWAP1 POP SWAP2 SWAP1 POP JUMP JUMPDEST PUSH0 DUP2 SWAP1 POP SWAP2 SWAP1 POP JUMP JUMPDEST PUSH2 0x753 DUP4 PUSH2 0x720 JUMP JUMPDEST PUSH2 0x767 PUSH2 0x75F DUP3 PUSH2 0x741 JUMP JUMPDEST DUP5 DUP5 SLOAD PUSH2 0x6BD JUMP JUMPDEST DUP3 SSTORE POP POP POP POP JUMP JUMPDEST PUSH0 SWAP1 JUMP JUMPDEST PUSH2 0x77B PUSH2 0x76F JUMP JUMPDEST PUSH2 0x786 DUP2 DUP5 DUP5 PUSH2 0x74A JUMP JUMPDEST POP POP POP JUMP JUMPDEST JUMPDEST DUP2 DUP2 LT ISZERO PUSH2 0x7A9 JUMPI PUSH2 0x79E PUSH0 DUP3 PUSH2 0x773 JUMP JUMPDEST PUSH1 0x1 DUP2 ADD SWAP1 POP PUSH2 0x78C JUMP JUMPDEST POP POP JUMP JUMPDEST PUSH1 0x1F DUP3 GT ISZERO PUSH2 0x7EE JUMPI PUSH2 0x7BF DUP2 PUSH2 0x690 JUMP JUMPDEST PUSH2 0x7C8 DUP5 PUSH2 0x6A2 JUMP JUMPDEST DUP2 ADD PUSH1 0x20 DUP6 LT ISZERO PUSH2 0x7D7 JUMPI DUP2 SWAP1 POP JUMPDEST PUSH2 0x7EB PUSH2 0x7E3 DUP6 PUSH2 0x6A2 JUMP JUMPDEST DUP4 ADD DUP3 PUSH2 0x78B JUMP JUMPDEST POP POP JUMPDEST POP POP POP JUMP JUMPDEST PUSH0 DUP3 DUP3 SHR SWAP1 POP SWAP3 SWAP2 POP POP JUMP JUMPDEST PUSH0 PUSH2 0x80E PUSH0 NOT DUP5 PUSH1 0x8 MUL PUSH2 0x7F3 JUMP JUMPDEST NOT DUP1 DUP4 AND SWAP2 POP POP SWAP3 SWAP2 POP POP JUMP JUMPDEST PUSH0 PUSH2 0x826 DUP4 DUP4 PUSH2 0x7FF JUMP JUMPDEST SWAP2 POP DUP3 PUSH1 0x2 MUL DUP3 OR SWAP1 POP SWAP3 SWAP2 POP POP JUMP JUMPDEST PUSH2 0x83F DUP3 PUSH2 0x5FC JUMP JUMPDEST PUSH8 0xFFFFFFFFFFFFFFFF DUP2 GT ISZERO PUSH2 0x858 JUMPI PUSH2 0x857 PUSH2 0x606 JUMP JUMPDEST JUMPDEST PUSH2 0x862 DUP3 SLOAD PUSH2 0x660 JUMP JUMPDEST PUSH2 0x86D DUP3 DUP3 DUP6 PUSH2 0x7AD JUMP JUMPDEST PUSH0 PUSH1 0x20 SWAP1 POP PUSH1 0x1F DUP4 GT PUSH1 0x1 DUP2 EQ PUSH2 0x89E JUMPI PUSH0 DUP5 ISZERO PUSH2 0x88C JUMPI DUP3 DUP8 ADD MLOAD SWAP1 POP JUMPDEST PUSH2 0x896 DUP6 DUP3 PUSH2 0x81B JUMP JUMPDEST DUP7 SSTORE POP PUSH2 0x8FD JUMP JUMPDEST PUSH1 0x1F NOT DUP5 AND PUSH2 0x8AC DUP7 PUSH2 0x690 JUMP JUMPDEST PUSH0 JUMPDEST DUP3 DUP2 LT ISZERO PUSH2 0x8D3 JUMPI DUP5 DUP10 ADD MLOAD DUP3 SSTORE PUSH1 0x1 DUP3 ADD SWAP2 POP PUSH1 0x20 DUP6 ADD SWAP5 POP PUSH1 0x20 DUP2 ADD SWAP1 POP PUSH2 0x8AE JUMP JUMPDEST DUP7 DUP4 LT ISZERO PUSH2 0x8F0 JUMPI DUP5 DUP10 ADD MLOAD PUSH2 0x8EC PUSH1 0x1F DUP10 AND DUP3 PUSH2 0x7FF JUMP JUMPDEST DUP4 SSTORE POP JUMPDEST PUSH1 0x1 PUSH1 0x2 DUP9 MUL ADD DUP9 SSTORE POP POP POP JUMPDEST POP POP POP POP POP POP JUMP JUMPDEST PUSH0 PUSH20 0xFFFFFFFFFFFFFFFFFFFFFFFFFFFFFFFFFFFFFFFF DUP3 AND SWAP1 POP SWAP2 SWAP1 POP JUMP JUMPDEST PUSH0 PUSH2 0x92E DUP3 PUSH2 0x905 JUMP JUMPDEST SWAP1 POP SWAP2 SWAP1 POP JUMP JUMPDEST PUSH2 0x93E DUP2 PUSH2 0x924 JUMP JUMPDEST DUP3 MSTORE POP POP JUMP JUMPDEST PUSH0 PUSH1 0x20 DUP3 ADD SWAP1 POP PUSH2 0x957 PUSH0 DUP4 ADD DUP5 PUSH2 0x935 JUMP JUMPDEST SWAP3 SWAP2 POP POP JUMP JUMPDEST PUSH32 0x4E487B7100000000000000000000000000000000000000000000000000000000 PUSH0 MSTORE PUSH1 0x11 PUSH1 0x4 MSTORE PUSH1 0x24 PUSH0 REVERT JUMPDEST PUSH0 PUSH2 0x994 DUP3 PUSH2 0x70E JUMP JUMPDEST SWAP2 POP PUSH2 0x99F DUP4 PUSH2 0x70E JUMP JUMPDEST SWAP3 POP DUP3 DUP3 ADD SWAP1 POP DUP1 DUP3 GT ISZERO PUSH2 0x9B7 JUMPI PUSH2 0x9B6 PUSH2 0x95D JUMP JUMPDEST JUMPDEST SWAP3 SWAP2 POP POP JUMP JUMPDEST PUSH2 0x9C6 DUP2 PUSH2 0x70E JUMP JUMPDEST DUP3 MSTORE POP POP JUMP JUMPDEST PUSH0 PUSH1 0x60 DUP3 ADD SWAP1 POP PUSH2 0x9DF PUSH0 DUP4 ADD DUP7 PUSH2 0x935 JUMP JUMPDEST PUSH2 0x9EC PUSH1 0x20 DUP4 ADD DUP6 PUSH2 0x9BD JUMP JUMPDEST PUSH2 0x9F9 PUSH1 0x40 DUP4 ADD DUP5 PUSH2 0x9BD JUMP JUMPDEST SWAP5 SWAP4 POP POP POP POP JUMP JUMPDEST PUSH0 PUSH1 0x20 DUP3 ADD SWAP1 POP PUSH2 0xA14 PUSH0 DUP4 ADD DUP5 PUSH2 0x9BD JUMP JUMPDEST SWAP3 SWAP2 POP POP JUMP JUMPDEST PUSH2 0x2F00 DUP1 PUSH2 0xA27 PUSH0 CODECOPY PUSH0 RETURN INVALID PUSH1 0x80 PUSH1 0x40 MSTORE CALLVALUE DUP1 ISZERO PUSH2 0xF JUMPI PUSH0 DUP1 REVERT JUMPDEST POP PUSH1 0x4 CALLDATASIZE LT PUSH2 0x25C JUMPI PUSH0 CALLDATALOAD PUSH1 0xE0 SHR DUP1 PUSH4 0x79CC6790 GT PUSH2 0x144 JUMPI DUP1 PUSH4 0xA9059CBB GT PUSH2 0xC1 JUMPI DUP1 PUSH4 0xD547741F GT PUSH2 0x85 JUMPI DUP1 PUSH4 0xD547741F EQ PUSH2 0x712 JUMPI DUP1 PUSH4 0xDD62ED3E EQ PUSH2 0x72E JUMPI DUP1 PUSH4 0xDEB6DB36 EQ PUSH2 0x75E JUMPI DUP1 PUSH4 0xEA5CB532 EQ PUSH2 0x77A JUMPI DUP1 PUSH4 0xF05D16F7 EQ PUSH2 0x798 JUMPI DUP1 PUSH4 0xF2250D3D EQ PUSH2 0x7B4 JUMPI PUSH2 0x25C JUMP JUMPDEST DUP1 PUSH4 0xA9059CBB EQ PUSH2 0x65A JUMPI DUP1 PUSH4 0xB6A3F59A EQ PUSH2 0x68A JUMPI DUP1 PUSH4 0xC30796AB EQ PUSH2 0x6A6 JUMPI DUP1 PUSH4 0xCF820461 EQ PUSH2 0x6D6 JUMPI DUP1 PUSH4 0xD1C9F69B EQ PUSH2 0x6F4 JUMPI PUSH2 0x25C JUMP JUMPDEST DUP1 PUSH4 0x91D14854 GT PUSH2 0x108 JUMPI DUP1 PUSH4 0x91D14854 EQ PUSH2 0x5B4 JUMPI DUP1 PUSH4 0x956FECCF EQ PUSH2 0x5E4 JUMPI DUP1 PUSH4 0x95D89B41 EQ PUSH2 0x602 JUMPI DUP1 PUSH4 0xA0712D68 EQ PUSH2 0x620 JUMPI DUP1 PUSH4 0xA217FDDF EQ PUSH2 0x63C JUMPI PUSH2 0x25C JUMP JUMPDEST DUP1 PUSH4 0x79CC6790 EQ PUSH2 0x520 JUMPI DUP1 PUSH4 0x7E92A7FD EQ PUSH2 0x53C JUMPI DUP1 PUSH4 0x8D580B9F EQ PUSH2 0x55A JUMPI DUP1 PUSH4 0x8EBED5B1 EQ PUSH2 0x578 JUMPI DUP1 PUSH4 0x8F770AD0 EQ PUSH2 0x596 JUMPI PUSH2 0x25C JUMP JUMPDEST DUP1 PUSH4 0x36568ABE GT PUSH2 0x1DD JUMPI DUP1 PUSH4 0x48132F48 GT PUSH2 0x1A1 JUMPI DUP1 PUSH4 0x48132F48 EQ PUSH2 0x45C JUMPI DUP1 PUSH4 0x51557289 EQ PUSH2 0x478 JUMPI DUP1 PUSH4 0x53A4C31E EQ PUSH2 0x496 JUMPI DUP1 PUSH4 0x5C975ABB EQ PUSH2 0x4B4 JUMPI DUP1 PUSH4 0x6BA77A38 EQ PUSH2 0x4D2 JUMPI DUP1 PUSH4 0x70A08231 EQ PUSH2 0x4F0 JUMPI PUSH2 0x25C JUMP JUMPDEST DUP1 PUSH4 0x36568ABE EQ PUSH2 0x3D0 JUMPI DUP1 PUSH4 0x3F914AEF EQ PUSH2 0x3EC JUMPI DUP1 PUSH4 0x41F431FD EQ PUSH2 0x408 JUMPI DUP1 PUSH4 0x42966C68 EQ PUSH2 0x424 JUMPI DUP1 PUSH4 0x449A52F8 EQ PUSH2 0x440 JUMPI PUSH2 0x25C JUMP JUMPDEST DUP1 PUSH4 0x18160DDD GT PUSH2 0x224 JUMPI DUP1 PUSH4 0x18160DDD EQ PUSH2 0x318 JUMPI DUP1 PUSH4 0x23B872DD EQ PUSH2 0x336 JUMPI DUP1 PUSH4 0x248A9CA3 EQ PUSH2 0x366 JUMPI DUP1 PUSH4 0x2F2FF15D EQ PUSH2 0x396 JUMPI DUP1 PUSH4 0x313CE567 EQ PUSH2 0x3B2 JUMPI PUSH2 0x25C JUMP JUMPDEST DUP1 PUSH4 0x1FFC9A7 EQ PUSH2 0x260 JUMPI DUP1 PUSH4 0x60CF4E8 EQ PUSH2 0x290 JUMPI DUP1 PUSH4 0x6FDDE03 EQ PUSH2 0x2AE JUMPI DUP1 PUSH4 0x95EA7B3 EQ PUSH2 0x2CC JUMPI DUP1 PUSH4 0x16C38B3C EQ PUSH2 0x2FC JUMPI JUMPDEST PUSH0 DUP1 REVERT JUMPDEST PUSH2 0x27A PUSH1 0x4 DUP1 CALLDATASIZE SUB DUP2 ADD SWAP1 PUSH2 0x275 SWAP2 SWAP1 PUSH2 0x238E JUMP JUMPDEST PUSH2 0x7D0 JUMP JUMPDEST PUSH1 0x40 MLOAD PUSH2 0x287 SWAP2 SWAP1 PUSH2 0x23D3 JUMP JUMPDEST PUSH1 0x40 MLOAD DUP1 SWAP2 SUB SWAP1 RETURN JUMPDEST PUSH2 0x298 PUSH2 0x849 JUMP JUMPDEST PUSH1 0x40 MLOAD PUSH2 0x2A5 SWAP2 SWAP1 PUSH2 0x2404 JUMP JUMPDEST PUSH1 0x40 MLOAD DUP1 SWAP2 SUB SWAP1 RETURN JUMPDEST PUSH2 0x2B6 PUSH2 0x84F JUMP JUMPDEST PUSH1 0x40 MLOAD PUSH2 0x2C3 SWAP2 SWAP1 PUSH2 0x248D JUMP JUMPDEST PUSH1 0x40 MLOAD DUP1 SWAP2 SUB SWAP1 RETURN JUMPDEST PUSH2 0x2E6 PUSH1 0x4 DUP1 CALLDATASIZE SUB DUP2 ADD SWAP1 PUSH2 0x2E1 SWAP2 SWAP1 PUSH2 0x2531 JUMP JUMPDEST PUSH2 0x8DF JUMP JUMPDEST PUSH1 0x40 MLOAD PUSH2 0x2F3 SWAP2 SWAP1 PUSH2 0x23D3 JUMP JUMPDEST PUSH1 0x40 MLOAD DUP1 SWAP2 SUB SWAP1 RETURN JUMPDEST PUSH2 0x316 PUSH1 0x4 DUP1 CALLDATASIZE SUB DUP2 ADD SWAP1 PUSH2 0x311 SWAP2 SWAP1 PUSH2 0x2599 JUMP JUMPDEST PUSH2 0x901 JUMP JUMPDEST STOP JUMPDEST PUSH2 0x320 PUSH2 0x9D4 JUMP JUMPDEST PUSH1 0x40 MLOAD PUSH2 0x32D SWAP2 SWAP1 PUSH2 0x2404 JUMP JUMPDEST PUSH1 0x40 MLOAD DUP1 SWAP2 SUB SWAP1 RETURN JUMPDEST PUSH2 0x350 PUSH1 0x4 DUP1 CALLDATASIZE SUB DUP2 ADD SWAP1 PUSH2 0x34B SWAP2 SWAP1 PUSH2 0x25C4 JUMP JUMPDEST PUSH2 0x9DD JUMP JUMPDEST PUSH1 0x40 MLOAD PUSH2 0x35D SWAP2 SWAP1 PUSH2 0x23D3 JUMP JUMPDEST PUSH1 0x40 MLOAD DUP1 SWAP2 SUB SWAP1 RETURN JUMPDEST PUSH2 0x380 PUSH1 0x4 DUP1 CALLDATASIZE SUB DUP2 ADD SWAP1 PUSH2 0x37B SWAP2 SWAP1 PUSH2 0x2647 JUMP JUMPDEST PUSH2 0xAE9 JUMP JUMPDEST PUSH1 0x40 MLOAD PUSH2 0x38D SWAP2 SWAP1 PUSH2 0x2681 JUMP JUMPDEST PUSH1 0x40 MLOAD DUP1 SWAP2 SUB SWAP1 RETURN JUMPDEST PUSH2 0x3B0 PUSH1 0x4 DUP1 CALLDATASIZE SUB DUP2 ADD SWAP1 PUSH2 0x3AB SWAP2 SWAP1 PUSH2 0x269A JUMP JUMPDEST PUSH2 0xB06 JUMP JUMPDEST STOP JUMPDEST PUSH2 0x3BA PUSH2 0xB28 JUMP JUMPDEST PUSH1 0x40 MLOAD PUSH2 0x3C7 SWAP2 SWAP1 PUSH2 0x26F3 JUMP JUMPDEST PUSH1 0x40 MLOAD DUP1 SWAP2 SUB SWAP1 RETURN JUMPDEST PUSH2 0x3EA PUSH1 0x4 DUP1 CALLDATASIZE SUB DUP2 ADD SWAP1 PUSH2 0x3E5 SWAP2 SWAP1 PUSH2 0x269A JUMP JUMPDEST PUSH2 0xB30 JUMP JUMPDEST STOP JUMPDEST PUSH2 0x406 PUSH1 0x4 DUP1 CALLDATASIZE SUB DUP2 ADD SWAP1 PUSH2 0x401 SWAP2 SWAP1 PUSH2 0x270C JUMP JUMPDEST PUSH2 0xBAB JUMP JUMPDEST STOP JUMPDEST PUSH2 0x422 PUSH1 0x4 DUP1 CALLDATASIZE SUB DUP2 ADD SWAP1 PUSH2 0x41D SWAP2 SWAP1 PUSH2 0x2785 JUMP JUMPDEST PUSH2 0xC9C JUMP JUMPDEST STOP JUMPDEST PUSH2 0x43E PUSH1 0x4 DUP1 CALLDATASIZE SUB DUP2 ADD SWAP1 PUSH2 0x439 SWAP2 SWAP1 PUSH2 0x27D5 JUMP JUMPDEST PUSH2 0xD44 JUMP JUMPDEST STOP JUMPDEST PUSH2 0x45A PUSH1 0x4 DUP1 CALLDATASIZE SUB DUP2 ADD SWAP1 PUSH2 0x455 SWAP2 SWAP1 PUSH2 0x2531 JUMP JUMPDEST PUSH2 0xE12 JUMP JUMPDEST STOP JUMPDEST PUSH2 0x476 PUSH1 0x4 DUP1 CALLDATASIZE SUB DUP2 ADD SWAP1 PUSH2 0x471 SWAP2 SWAP1 PUSH2 0x283B JUMP JUMPDEST PUSH2 0xF7A JUMP JUMPDEST STOP JUMPDEST PUSH2 0x480 PUSH2 0x1038 JUMP JUMPDEST PUSH1 0x40 MLOAD PUSH2 0x48D SWAP2 SWAP1 PUSH2 0x2681 JUMP JUMPDEST PUSH1 0x40 MLOAD DUP1 SWAP2 SUB SWAP1 RETURN JUMPDEST PUSH2 0x49E PUSH2 0x105C JUMP JUMPDEST PUSH1 0x40 MLOAD PUSH2 0x4AB SWAP2 SWAP1 PUSH2 0x2681 JUMP JUMPDEST PUSH1 0x40 MLOAD DUP1 SWAP2 SUB SWAP1 RETURN JUMPDEST PUSH2 0x4BC PUSH2 0x1080 JUMP JUMPDEST PUSH1 0x40 MLOAD PUSH2 0x4C9 SWAP2 SWAP1 PUSH2 0x23D3 JUMP JUMPDEST PUSH1 0x40 MLOAD DUP1 SWAP2 SUB SWAP1 RETURN JUMPDEST PUSH2 0x4DA PUSH2 0x1092 JUMP JUMPDEST PUSH1 0x40 MLOAD PUSH2 0x4E7 SWAP2 SWAP1 PUSH2 0x2681 JUMP JUMPDEST PUSH1 0x40 MLOAD DUP1 SWAP2 SUB SWAP1 RETURN JUMPDEST PUSH2 0x50A PUSH1 0x4 DUP1 CALLDATASIZE SUB DUP2 ADD SWAP1 PUSH2 0x505 SWAP2 SWAP1 PUSH2 0x2879 JUMP JUMPDEST PUSH2 0x10B6 JUMP JUMPDEST PUSH1 0x40 MLOAD PUSH2 0x517 SWAP2 SWAP1 PUSH2 0x2404 JUMP JUMPDEST PUSH1 0x40 MLOAD DUP1 SWAP2 SUB SWAP1 RETURN JUMPDEST PUSH2 0x53A PUSH1 0x4 DUP1 CALLDATASIZE SUB DUP2 ADD SWAP1 PUSH2 0x535 SWAP2 SWAP1 PUSH2 0x2531 JUMP JUMPDEST PUSH2 0x10FB JUMP JUMPDEST STOP JUMPDEST PUSH2 0x544 PUSH2 0x11C5 JUMP JUMPDEST PUSH1 0x40 MLOAD PUSH2 0x551 SWAP2 SWAP1 PUSH2 0x2681 JUMP JUMPDEST PUSH1 0x40 MLOAD DUP1 SWAP2 SUB SWAP1 RETURN JUMPDEST PUSH2 0x562 PUSH2 0x11E9 JUMP JUMPDEST PUSH1 0x40 MLOAD PUSH2 0x56F SWAP2 SWAP1 PUSH2 0x2681 JUMP JUMPDEST PUSH1 0x40 MLOAD DUP1 SWAP2 SUB SWAP1 RETURN JUMPDEST PUSH2 0x580 PUSH2 0x120D JUMP JUMPDEST PUSH1 0x40 MLOAD PUSH2 0x58D SWAP2 SWAP1 PUSH2 0x2681 JUMP JUMPDEST PUSH1 0x40 MLOAD DUP1 SWAP2 SUB SWAP1 RETURN JUMPDEST PUSH2 0x59E PUSH2 0x1231 JUMP JUMPDEST PUSH1 0x40 MLOAD PUSH2 0x5AB SWAP2 SWAP1 PUSH2 0x2404 JUMP JUMPDEST PUSH1 0x40 MLOAD DUP1 SWAP2 SUB SWAP1 RETURN JUMPDEST PUSH2 0x5CE PUSH1 0x4 DUP1 CALLDATASIZE SUB DUP2 ADD SWAP1 PUSH2 0x5C9 SWAP2 SWAP1 PUSH2 0x269A JUMP JUMPDEST PUSH2 0x123A JUMP JUMPDEST PUSH1 0x40 MLOAD PUSH2 0x5DB SWAP2 SWAP1 PUSH2 0x23D3 JUMP JUMPDEST PUSH1 0x40 MLOAD DUP1 SWAP2 SUB SWAP1 RETURN JUMPDEST PUSH2 0x5EC PUSH2 0x129E JUMP JUMPDEST PUSH1 0x40 MLOAD PUSH2 0x5F9 SWAP2 SWAP1 PUSH2 0x23D3 JUMP JUMPDEST PUSH1 0x40 MLOAD DUP1 SWAP2 SUB SWAP1 RETURN JUMPDEST PUSH2 0x60A PUSH2 0x12B1 JUMP JUMPDEST PUSH1 0x40 MLOAD PUSH2 0x617 SWAP2 SWAP1 PUSH2 0x248D JUMP JUMPDEST PUSH1 0x40 MLOAD DUP1 SWAP2 SUB SWAP1 RETURN JUMPDEST PUSH2 0x63A PUSH1 0x4 DUP1 CALLDATASIZE SUB DUP2 ADD SWAP1 PUSH2 0x635 SWAP2 SWAP1 PUSH2 0x27D5 JUMP JUMPDEST PUSH2 0x1341 JUMP JUMPDEST STOP JUMPDEST PUSH2 0x644 PUSH2 0x14AD JUMP JUMPDEST PUSH1 0x40 MLOAD PUSH2 0x651 SWAP2 SWAP1 PUSH2 0x2681 JUMP JUMPDEST PUSH1 0x40 MLOAD DUP1 SWAP2 SUB SWAP1 RETURN JUMPDEST PUSH2 0x674 PUSH1 0x4 DUP1 CALLDATASIZE SUB DUP2 ADD SWAP1 PUSH2 0x66F SWAP2 SWAP1 PUSH2 0x2531 JUMP JUMPDEST PUSH2 0x14B3 JUMP JUMPDEST PUSH1 0x40 MLOAD PUSH2 0x681 SWAP2 SWAP1 PUSH2 0x23D3 JUMP JUMPDEST PUSH1 0x40 MLOAD DUP1 SWAP2 SUB SWAP1 RETURN JUMPDEST PUSH2 0x6A4 PUSH1 0x4 DUP1 CALLDATASIZE SUB DUP2 ADD SWAP1 PUSH2 0x69F SWAP2 SWAP1 PUSH2 0x27D5 JUMP JUMPDEST PUSH2 0x1551 JUMP JUMPDEST STOP JUMPDEST PUSH2 0x6C0 PUSH1 0x4 DUP1 CALLDATASIZE SUB DUP2 ADD SWAP1 PUSH2 0x6BB SWAP2 SWAP1 PUSH2 0x2879 JUMP JUMPDEST PUSH2 0x165F JUMP JUMPDEST PUSH1 0x40 MLOAD PUSH2 0x6CD SWAP2 SWAP1 PUSH2 0x23D3 JUMP JUMPDEST PUSH1 0x40 MLOAD DUP1 SWAP2 SUB SWAP1 RETURN JUMPDEST PUSH2 0x6DE PUSH2 0x167C JUMP JUMPDEST PUSH1 0x40 MLOAD PUSH2 0x6EB SWAP2 SWAP1 PUSH2 0x2404 JUMP JUMPDEST PUSH1 0x40 MLOAD DUP1 SWAP2 SUB SWAP1 RETURN JUMPDEST PUSH2 0x6FC PUSH2 0x1682 JUMP JUMPDEST PUSH1 0x40 MLOAD PUSH2 0x709 SWAP2 SWAP1 PUSH2 0x23D3 JUMP JUMPDEST PUSH1 0x40 MLOAD DUP1 SWAP2 SUB SWAP1 RETURN JUMPDEST PUSH2 0x72C PUSH1 0x4 DUP1 CALLDATASIZE SUB DUP2 ADD SWAP1 PUSH2 0x727 SWAP2 SWAP1 PUSH2 0x269A JUMP JUMPDEST PUSH2 0x1695 JUMP JUMPDEST STOP JUMPDEST PUSH2 0x748 PUSH1 0x4 DUP1 CALLDATASIZE SUB DUP2 ADD SWAP1 PUSH2 0x743 SWAP2 SWAP1 PUSH2 0x28A4 JUMP JUMPDEST PUSH2 0x16B7 JUMP JUMPDEST PUSH1 0x40 MLOAD PUSH2 0x755 SWAP2 SWAP1 PUSH2 0x2404 JUMP JUMPDEST PUSH1 0x40 MLOAD DUP1 SWAP2 SUB SWAP1 RETURN JUMPDEST PUSH2 0x778 PUSH1 0x4 DUP1 CALLDATASIZE SUB DUP2 ADD SWAP1 PUSH2 0x773 SWAP2 SWAP1 PUSH2 0x2599 JUMP JUMPDEST PUSH2 0x1739 JUMP JUMPDEST STOP JUMPDEST PUSH2 0x782 PUSH2 0x180D JUMP JUMPDEST PUSH1 0x40 MLOAD PUSH2 0x78F SWAP2 SWAP1 PUSH2 0x2681 JUMP JUMPDEST PUSH1 0x40 MLOAD DUP1 SWAP2 SUB SWAP1 RETURN JUMPDEST PUSH2 0x7B2 PUSH1 0x4 DUP1 CALLDATASIZE SUB DUP2 ADD SWAP1 PUSH2 0x7AD SWAP2 SWAP1 PUSH2 0x27D5 JUMP JUMPDEST PUSH2 0x1831 JUMP JUMPDEST STOP JUMPDEST PUSH2 0x7CE PUSH1 0x4 DUP1 CALLDATASIZE SUB DUP2 ADD SWAP1 PUSH2 0x7C9 SWAP2 SWAP1 PUSH2 0x2599 JUMP JUMPDEST PUSH2 0x1866 JUMP JUMPDEST STOP JUMPDEST PUSH0 PUSH32 0x7965DB0B00000000000000000000000000000000000000000000000000000000 PUSH28 0xFFFFFFFFFFFFFFFFFFFFFFFFFFFFFFFFFFFFFFFFFFFFFFFFFFFFFFFF NOT AND DUP3 PUSH28 0xFFFFFFFFFFFFFFFFFFFFFFFFFFFFFFFFFFFFFFFFFFFFFFFFFFFFFFFF NOT AND EQ DUP1 PUSH2 0x842 JUMPI POP PUSH2 0x841 DUP3 PUSH2 0x193A JUMP JUMPDEST JUMPDEST SWAP1 POP SWAP2 SWAP1 POP JUMP JUMPDEST PUSH1 0x7 SLOAD DUP2 JUMP JUMPDEST PUSH1 0x60 PUSH1 0x3 DUP1 SLOAD PUSH2 0x85E SWAP1 PUSH2 0x290F JUMP JUMPDEST DUP1 PUSH1 0x1F ADD PUSH1 0x20 DUP1 SWAP2 DIV MUL PUSH1 0x20 ADD PUSH1 0x40 MLOAD SWAP1 DUP2 ADD PUSH1 0x40 MSTORE DUP1 SWAP3 SWAP2 SWAP1 DUP2 DUP2 MSTORE PUSH1 0x20 ADD DUP3 DUP1 SLOAD PUSH2 0x88A SWAP1 PUSH2 0x290F JUMP JUMPDEST DUP1 ISZERO PUSH2 0x8D5 JUMPI DUP1 PUSH1 0x1F LT PUSH2 0x8AC JUMPI PUSH2 0x100 DUP1 DUP4 SLOAD DIV MUL DUP4 MSTORE SWAP2 PUSH1 0x20 ADD SWAP2 PUSH2 0x8D5 JUMP JUMPDEST DUP3 ADD SWAP2 SWAP1 PUSH0 MSTORE PUSH1 0x20 PUSH0 KECCAK256 SWAP1 JUMPDEST DUP2 SLOAD DUP2 MSTORE SWAP1 PUSH1 0x1 ADD SWAP1 PUSH1 0x20 ADD DUP1 DUP4 GT PUSH2 0x8B8 JUMPI DUP3 SWAP1 SUB PUSH1 0x1F AND DUP3 ADD SWAP2 JUMPDEST POP POP POP POP POP SWAP1 POP SWAP1 JUMP JUMPDEST PUSH0 DUP1 PUSH2 0x8E9 PUSH2 0x19A3 JUMP JUMPDEST SWAP1 POP PUSH2 0x8F6 DUP2 DUP6 DUP6 PUSH2 0x19AA JUMP JUMPDEST PUSH1 0x1 SWAP2 POP POP SWAP3 SWAP2 POP POP JUMP JUMPDEST PUSH32 0xAE6C2FC584631AF4C9385B8A55683F1A75C813747E27EFEF5AFECE31C6B230D3 PUSH2 0x92B DUP2 PUSH2 0x19BC JUMP JUMPDEST DUP2 PUSH1 0x9 PUSH0 PUSH2 0x100 EXP DUP2 SLOAD DUP2 PUSH1 0xFF MUL NOT AND SWAP1 DUP4 ISZERO ISZERO MUL OR SWAP1 SSTORE POP DUP2 ISZERO PUSH2 0x98F JUMPI PUSH32 0xD8C9C5623123DF8E137854C59A08F9084B75609FE24584228D44FFDCE5AB920A NUMBER PUSH2 0x974 PUSH2 0x19A3 JUMP JUMPDEST PUSH1 0x40 MLOAD PUSH2 0x982 SWAP3 SWAP2 SWAP1 PUSH2 0x294E JUMP JUMPDEST PUSH1 0x40 MLOAD DUP1 SWAP2 SUB SWAP1 LOG1 PUSH2 0x9D0 JUMP JUMPDEST PUSH32 0x1E7A7234AD01ED7353BF129217F5C162773639A6CB22773E84BCD5A2B0EF362E NUMBER PUSH2 0x9B9 PUSH2 0x19A3 JUMP JUMPDEST PUSH1 0x40 MLOAD PUSH2 0x9C7 SWAP3 SWAP2 SWAP1 PUSH2 0x294E JUMP JUMPDEST PUSH1 0x40 MLOAD DUP1 SWAP2 SUB SWAP1 LOG1 JUMPDEST POP POP JUMP JUMPDEST PUSH0 PUSH1 0x2 SLOAD SWAP1 POP SWAP1 JUMP JUMPDEST PUSH0 PUSH2 0x9E6 PUSH2 0x19D0 JUMP JUMPDEST PUSH0 PUSH2 0x9EF PUSH2 0x19A3 JUMP JUMPDEST SWAP1 POP PUSH0 PUSH2 0x9FC DUP7 DUP4 PUSH2 0x16B7 JUMP JUMPDEST SWAP1 POP DUP4 DUP2 LT ISZERO PUSH2 0xA41 JUMPI PUSH1 0x40 MLOAD PUSH32 0x8C379A000000000000000000000000000000000000000000000000000000000 DUP2 MSTORE PUSH1 0x4 ADD PUSH2 0xA38 SWAP1 PUSH2 0x29E5 JUMP JUMPDEST PUSH1 0x40 MLOAD DUP1 SWAP2 SUB SWAP1 REVERT JUMPDEST PUSH2 0xA57 DUP7 DUP4 DUP7 DUP5 PUSH2 0xA52 SWAP2 SWAP1 PUSH2 0x2A30 JUMP JUMPDEST PUSH2 0x19AA JUMP JUMPDEST PUSH1 0x1 ISZERO ISZERO PUSH1 0xA PUSH0 DUP5 PUSH20 0xFFFFFFFFFFFFFFFFFFFFFFFFFFFFFFFFFFFFFFFF AND PUSH20 0xFFFFFFFFFFFFFFFFFFFFFFFFFFFFFFFFFFFFFFFF AND DUP2 MSTORE PUSH1 0x20 ADD SWAP1 DUP2 MSTORE PUSH1 0x20 ADD PUSH0 KECCAK256 PUSH0 SWAP1 SLOAD SWAP1 PUSH2 0x100 EXP SWAP1 DIV PUSH1 0xFF AND ISZERO ISZERO SUB PUSH2 0xABC JUMPI PUSH2 0xAB7 DUP7 DUP7 DUP7 PUSH2 0x1A16 JUMP JUMPDEST PUSH2 0xAD4 JUMP JUMPDEST PUSH2 0xAC7 DUP7 DUP7 DUP7 PUSH2 0x1A16 JUMP JUMPDEST PUSH2 0xAD3 DUP7 PUSH1 0x8 SLOAD PUSH2 0x1B06 JUMP JUMPDEST JUMPDEST PUSH1 0x1 SWAP3 POP POP POP PUSH2 0xAE2 PUSH2 0x1B85 JUMP JUMPDEST SWAP4 SWAP3 POP POP POP JUMP JUMPDEST PUSH0 PUSH1 0x5 PUSH0 DUP4 DUP2 MSTORE PUSH1 0x20 ADD SWAP1 DUP2 MSTORE PUSH1 0x20 ADD PUSH0 KECCAK256 PUSH1 0x1 ADD SLOAD SWAP1 POP SWAP2 SWAP1 POP JUMP JUMPDEST PUSH2 0xB0F DUP3 PUSH2 0xAE9 JUMP JUMPDEST PUSH2 0xB18 DUP2 PUSH2 0x19BC JUMP JUMPDEST PUSH2 0xB22 DUP4 DUP4 PUSH2 0x1B8F JUMP JUMPDEST POP POP POP POP JUMP JUMPDEST PUSH0 PUSH1 0x12 SWAP1 POP SWAP1 JUMP JUMPDEST PUSH2 0xB38 PUSH2 0x19A3 JUMP JUMPDEST PUSH20 0xFFFFFFFFFFFFFFFFFFFFFFFFFFFFFFFFFFFFFFFF AND DUP2 PUSH20 0xFFFFFFFFFFFFFFFFFFFFFFFFFFFFFFFFFFFFFFFF AND EQ PUSH2 0xB9C JUMPI PUSH1 0x40 MLOAD PUSH32 0x6697B23200000000000000000000000000000000000000000000000000000000 DUP2 MSTORE PUSH1 0x4 ADD PUSH1 0x40 MLOAD DUP1 SWAP2 SUB SWAP1 REVERT JUMPDEST PUSH2 0xBA6 DUP3 DUP3 PUSH2 0x1C79 JUMP JUMPDEST POP POP POP JUMP JUMPDEST PUSH32 0xAE6C2FC584631AF4C9385B8A55683F1A75C813747E27EFEF5AFECE31C6B230D3 PUSH2 0xBD5 DUP2 PUSH2 0x19BC JUMP JUMPDEST PUSH0 PUSH20 0xFFFFFFFFFFFFFFFFFFFFFFFFFFFFFFFFFFFFFFFF AND DUP4 PUSH20 0xFFFFFFFFFFFFFFFFFFFFFFFFFFFFFFFFFFFFFFFF AND SUB PUSH2 0xC43 JUMPI PUSH1 0x40 MLOAD PUSH32 0x8C379A000000000000000000000000000000000000000000000000000000000 DUP2 MSTORE PUSH1 0x4 ADD PUSH2 0xC3A SWAP1 PUSH2 0x2AAD JUMP JUMPDEST PUSH1 0x40 MLOAD DUP1 SWAP2 SUB SWAP1 REVERT JUMPDEST DUP2 PUSH1 0xA PUSH0 DUP6 PUSH20 0xFFFFFFFFFFFFFFFFFFFFFFFFFFFFFFFFFFFFFFFF AND PUSH20 0xFFFFFFFFFFFFFFFFFFFFFFFFFFFFFFFFFFFFFFFF AND DUP2 MSTORE PUSH1 0x20 ADD SWAP1 DUP2 MSTORE PUSH1 0x20 ADD PUSH0 KECCAK256 PUSH0 PUSH2 0x100 EXP DUP2 SLOAD DUP2 PUSH1 0xFF MUL NOT AND SWAP1 DUP4 ISZERO ISZERO MUL OR SWAP1 SSTORE POP POP POP POP JUMP JUMPDEST PUSH2 0xCA4 PUSH2 0x19D0 JUMP JUMPDEST PUSH32 0x508F8F8BE8F5DBCB88F4F4500430B8B3684C471ED936F31FEA912C78AD46A6B9 PUSH2 0xCCE DUP2 PUSH2 0x19BC JUMP JUMPDEST PUSH2 0xCF9 DUP4 DUP4 DUP7 PUSH20 0xFFFFFFFFFFFFFFFFFFFFFFFFFFFFFFFFFFFFFFFF AND PUSH2 0x1D63 SWAP1 SWAP3 SWAP2 SWAP1 PUSH4 0xFFFFFFFF AND JUMP JUMPDEST PUSH32 0x494215F965756BBC8B7F57ADDD2A0EBDBCE467A4999F8320C67ADC1771885D7B DUP5 NUMBER DUP6 DUP6 PUSH1 0x40 MLOAD PUSH2 0xD2E SWAP5 SWAP4 SWAP3 SWAP2 SWAP1 PUSH2 0x2B26 JUMP JUMPDEST PUSH1 0x40 MLOAD DUP1 SWAP2 SUB SWAP1 LOG1 POP PUSH2 0xD3F PUSH2 0x1B85 JUMP JUMPDEST POP POP POP JUMP JUMPDEST PUSH1 0x9 PUSH0 SWAP1 SLOAD SWAP1 PUSH2 0x100 EXP SWAP1 DIV PUSH1 0xFF AND ISZERO PUSH2 0xD93 JUMPI PUSH1 0x40 MLOAD PUSH32 0x8C379A000000000000000000000000000000000000000000000000000000000 DUP2 MSTORE PUSH1 0x4 ADD PUSH2 0xD8A SWAP1 PUSH2 0x2BB3 JUMP JUMPDEST PUSH1 0x40 MLOAD DUP1 SWAP2 SUB SWAP1 REVERT JUMPDEST PUSH32 0x9EDFAD36E7D4D9DA54B4F78F22BF97CB5B58BB7998294A4288DA41C15C647C45 PUSH2 0xDBD DUP2 PUSH2 0x19BC JUMP JUMPDEST PUSH32 0x63706707D038997D2210EB026BB1339397DEAB463921538A81BB98E69EE54CA8 DUP3 PUSH2 0xDE7 PUSH2 0x19A3 JUMP JUMPDEST PUSH1 0x40 MLOAD PUSH2 0xDF5 SWAP3 SWAP2 SWAP1 PUSH2 0x294E JUMP JUMPDEST PUSH1 0x40 MLOAD DUP1 SWAP2 SUB SWAP1 LOG1 PUSH2 0xE0E PUSH2 0xE08 PUSH2 0x19A3 JUMP JUMPDEST DUP4 PUSH2 0x1B06 JUMP JUMPDEST POP POP JUMP JUMPDEST PUSH1 0x9 PUSH0 SWAP1 SLOAD SWAP1 PUSH2 0x100 EXP SWAP1 DIV PUSH1 0xFF AND ISZERO PUSH2 0xE61 JUMPI PUSH1 0x40 MLOAD PUSH32 0x8C379A000000000000000000000000000000000000000000000000000000000 DUP2 MSTORE PUSH1 0x4 ADD PUSH2 0xE58 SWAP1 PUSH2 0x2BB3 JUMP JUMPDEST PUSH1 0x40 MLOAD DUP1 SWAP2 SUB SWAP1 REVERT JUMPDEST PUSH1 0x9 PUSH1 0x2 SWAP1 SLOAD SWAP1 PUSH2 0x100 EXP SWAP1 DIV PUSH1 0xFF AND ISZERO PUSH2 0xEB1 JUMPI PUSH1 0x40 MLOAD PUSH32 0x8C379A000000000000000000000000000000000000000000000000000000000 DUP2 MSTORE PUSH1 0x4 ADD PUSH2 0xEA8 SWAP1 PUSH2 0x2C1B JUMP JUMPDEST PUSH1 0x40 MLOAD DUP1 SWAP2 SUB SWAP1 REVERT JUMPDEST PUSH32 0x7D800F56A05ADCB6245DF540492A560D0E668AAC15EE6C7DD40668064913DA33 PUSH2 0xEDB DUP2 PUSH2 0x19BC JUMP JUMPDEST PUSH1 0x7 SLOAD DUP3 PUSH2 0xEE7 PUSH2 0x9D4 JUMP JUMPDEST PUSH2 0xEF1 SWAP2 SWAP1 PUSH2 0x2C39 JUMP JUMPDEST GT ISZERO PUSH2 0xF32 JUMPI PUSH1 0x40 MLOAD PUSH32 0x8C379A000000000000000000000000000000000000000000000000000000000 DUP2 MSTORE PUSH1 0x4 ADD PUSH2 0xF29 SWAP1 PUSH2 0x2CB6 JUMP JUMPDEST PUSH1 0x40 MLOAD DUP1 SWAP2 SUB SWAP1 REVERT JUMPDEST PUSH32 0xE98063832B4FF0356868961B75F7F49B096B14EA066C9725301AD197F2F63147 DUP4 DUP4 PUSH1 0x40 MLOAD PUSH2 0xF63 SWAP3 SWAP2 SWAP1 PUSH2 0x2CD4 JUMP JUMPDEST PUSH1 0x40 MLOAD DUP1 SWAP2 SUB SWAP1 LOG1 PUSH2 0xF75 DUP4 DUP4 PUSH2 0x1DE2 JUMP JUMPDEST POP POP POP JUMP JUMPDEST PUSH2 0xF82 PUSH2 0x19D0 JUMP JUMPDEST PUSH32 0x508F8F8BE8F5DBCB88F4F4500430B8B3684C471ED936F31FEA912C78AD46A6B9 PUSH2 0xFAC DUP2 PUSH2 0x19BC JUMP JUMPDEST DUP3 PUSH20 0xFFFFFFFFFFFFFFFFFFFFFFFFFFFFFFFFFFFFFFFF AND PUSH2 0x8FC DUP4 SWAP1 DUP2 ISZERO MUL SWAP1 PUSH1 0x40 MLOAD PUSH0 PUSH1 0x40 MLOAD DUP1 DUP4 SUB DUP2 DUP6 DUP9 DUP9 CALL SWAP4 POP POP POP POP ISZERO DUP1 ISZERO PUSH2 0xFEF JUMPI RETURNDATASIZE PUSH0 DUP1 RETURNDATACOPY RETURNDATASIZE PUSH0 REVERT JUMPDEST POP PUSH32 0x3B1C0368C81E47D03164182DC6F9FCF4F5E4B3BD9462D74960D729F73138CE36 DUP4 NUMBER DUP5 PUSH1 0x40 MLOAD PUSH2 0x1023 SWAP4 SWAP3 SWAP2 SWAP1 PUSH2 0x2D1B JUMP JUMPDEST PUSH1 0x40 MLOAD DUP1 SWAP2 SUB SWAP1 LOG1 POP PUSH2 0x1034 PUSH2 0x1B85 JUMP JUMPDEST POP POP JUMP JUMPDEST PUSH32 0xAE6C2FC584631AF4C9385B8A55683F1A75C813747E27EFEF5AFECE31C6B230D3 DUP2 JUMP JUMPDEST PUSH32 0x9EDFAD36E7D4D9DA54B4F78F22BF97CB5B58BB7998294A4288DA41C15C647C45 DUP2 JUMP JUMPDEST PUSH1 0x9 PUSH0 SWAP1 SLOAD SWAP1 PUSH2 0x100 EXP SWAP1 DIV PUSH1 0xFF AND DUP2 JUMP JUMPDEST PUSH32 0xC8A3BEFA5973FF6E159AFC769978D92F26BAE29C51A73D11C9112A05B68D25E6 DUP2 JUMP JUMPDEST PUSH0 DUP1 PUSH0 DUP4 PUSH20 0xFFFFFFFFFFFFFFFFFFFFFFFFFFFFFFFFFFFFFFFF AND PUSH20 0xFFFFFFFFFFFFFFFFFFFFFFFFFFFFFFFFFFFFFFFF AND DUP2 MSTORE PUSH1 0x20 ADD SWAP1 DUP2 MSTORE PUSH1 0x20 ADD PUSH0 KECCAK256 SLOAD SWAP1 POP SWAP2 SWAP1 POP JUMP JUMPDEST PUSH1 0x9 PUSH0 SWAP1 SLOAD SWAP1 PUSH2 0x100 EXP SWAP1 DIV PUSH1 0xFF AND ISZERO PUSH2 0x114A JUMPI PUSH1 0x40 MLOAD PUSH32 0x8C379A000000000000000000000000000000000000000000000000000000000 DUP2 MSTORE PUSH1 0x4 ADD PUSH2 0x1141 SWAP1 PUSH2 0x2BB3 JUMP JUMPDEST PUSH1 0x40 MLOAD DUP1 SWAP2 SUB SWAP1 REVERT JUMPDEST PUSH32 0xC8A3BEFA5973FF6E159AFC769978D92F26BAE29C51A73D11C9112A05B68D25E6 PUSH2 0x1174 DUP2 PUSH2 0x19BC JUMP JUMPDEST PUSH32 0xE419CE2AAB145A1FEAF5893BB6A9478F9282415BBD81C76D5CFFF2D4F13431DD DUP4 DUP4 PUSH2 0x119F PUSH2 0x19A3 JUMP JUMPDEST PUSH1 0x40 MLOAD PUSH2 0x11AE SWAP4 SWAP3 SWAP2 SWAP1 PUSH2 0x2D50 JUMP JUMPDEST PUSH1 0x40 MLOAD DUP1 SWAP2 SUB SWAP1 LOG1 PUSH2 0x11C0 DUP4 DUP4 PUSH2 0x1B06 JUMP JUMPDEST POP POP POP JUMP JUMPDEST PUSH32 0x7D800F56A05ADCB6245DF540492A560D0E668AAC15EE6C7DD40668064913DA33 DUP2 JUMP JUMPDEST PUSH32 0x508F8F8BE8F5DBCB88F4F4500430B8B3684C471ED936F31FEA912C78AD46A6B9 DUP2 JUMP JUMPDEST PUSH32 0x8C66330D9D4F6ABA064F25EF2A307366EA6D917616F44C075AA60FA15E5CB1CB DUP2 JUMP JUMPDEST PUSH0 PUSH1 0x7 SLOAD SWAP1 POP SWAP1 JUMP JUMPDEST PUSH0 PUSH1 0x5 PUSH0 DUP5 DUP2 MSTORE PUSH1 0x20 ADD SWAP1 DUP2 MSTORE PUSH1 0x20 ADD PUSH0 KECCAK256 PUSH0 ADD PUSH0 DUP4 PUSH20 0xFFFFFFFFFFFFFFFFFFFFFFFFFFFFFFFFFFFFFFFF AND PUSH20 0xFFFFFFFFFFFFFFFFFFFFFFFFFFFFFFFFFFFFFFFF AND DUP2 MSTORE PUSH1 0x20 ADD SWAP1 DUP2 MSTORE PUSH1 0x20 ADD PUSH0 KECCAK256 PUSH0 SWAP1 SLOAD SWAP1 PUSH2 0x100 EXP SWAP1 DIV PUSH1 0xFF AND SWAP1 POP SWAP3 SWAP2 POP POP JUMP JUMPDEST PUSH1 0x9 PUSH1 0x1 SWAP1 SLOAD SWAP1 PUSH2 0x100 EXP SWAP1 DIV PUSH1 0xFF AND DUP2 JUMP JUMPDEST PUSH1 0x60 PUSH1 0x4 DUP1 SLOAD PUSH2 0x12C0 SWAP1 PUSH2 0x290F JUMP JUMPDEST DUP1 PUSH1 0x1F ADD PUSH1 0x20 DUP1 SWAP2 DIV MUL PUSH1 0x20 ADD PUSH1 0x40 MLOAD SWAP1 DUP2 ADD PUSH1 0x40 MSTORE DUP1 SWAP3 SWAP2 SWAP1 DUP2 DUP2 MSTORE PUSH1 0x20 ADD DUP3 DUP1 SLOAD PUSH2 0x12EC SWAP1 PUSH2 0x290F JUMP JUMPDEST DUP1 ISZERO PUSH2 0x1337 JUMPI DUP1 PUSH1 0x1F LT PUSH2 0x130E JUMPI PUSH2 0x100 DUP1 DUP4 SLOAD DIV MUL DUP4 MSTORE SWAP2 PUSH1 0x20 ADD SWAP2 PUSH2 0x1337 JUMP JUMPDEST DUP3 ADD SWAP2 SWAP1 PUSH0 MSTORE PUSH1 0x20 PUSH0 KECCAK256 SWAP1 JUMPDEST DUP2 SLOAD DUP2 MSTORE SWAP1 PUSH1 0x1 ADD SWAP1 PUSH1 0x20 ADD DUP1 DUP4 GT PUSH2 0x131A JUMPI DUP3 SWAP1 SUB PUSH1 0x1F AND DUP3 ADD SWAP2 JUMPDEST POP POP POP POP POP SWAP1 POP SWAP1 JUMP JUMPDEST PUSH1 0x9 PUSH0 SWAP1 SLOAD SWAP1 PUSH2 0x100 EXP SWAP1 DIV PUSH1 0xFF AND ISZERO PUSH2 0x1390 JUMPI PUSH1 0x40 MLOAD PUSH32 0x8C379A000000000000000000000000000000000000000000000000000000000 DUP2 MSTORE PUSH1 0x4 ADD PUSH2 0x1387 SWAP1 PUSH2 0x2BB3 JUMP JUMPDEST PUSH1 0x40 MLOAD DUP1 SWAP2 SUB SWAP1 REVERT JUMPDEST PUSH1 0x9 PUSH1 0x1 SWAP1 SLOAD SWAP1 PUSH2 0x100 EXP SWAP1 DIV PUSH1 0xFF AND ISZERO PUSH2 0x13E0 JUMPI PUSH1 0x40 MLOAD PUSH32 0x8C379A000000000000000000000000000000000000000000000000000000000 DUP2 MSTORE PUSH1 0x4 ADD PUSH2 0x13D7 SWAP1 PUSH2 0x2DCF JUMP JUMPDEST PUSH1 0x40 MLOAD DUP1 SWAP2 SUB SWAP1 REVERT JUMPDEST PUSH32 0x8C66330D9D4F6ABA064F25EF2A307366EA6D917616F44C075AA60FA15E5CB1CB PUSH2 0x140A DUP2 PUSH2 0x19BC JUMP JUMPDEST PUSH1 0x7 SLOAD DUP3 PUSH2 0x1416 PUSH2 0x9D4 JUMP JUMPDEST PUSH2 0x1420 SWAP2 SWAP1 PUSH2 0x2C39 JUMP JUMPDEST GT ISZERO PUSH2 0x1461 JUMPI PUSH1 0x40 MLOAD PUSH32 0x8C379A000000000000000000000000000000000000000000000000000000000 DUP2 MSTORE PUSH1 0x4 ADD PUSH2 0x1458 SWAP1 PUSH2 0x2CB6 JUMP JUMPDEST PUSH1 0x40 MLOAD DUP1 SWAP2 SUB SWAP1 REVERT JUMPDEST PUSH32 0x772F66A00A405709C30E7F18FEADCC8F123B20C09C7260165D3EEC36C9F21372 DUP3 PUSH1 0x40 MLOAD PUSH2 0x1490 SWAP2 SWAP1 PUSH2 0x2404 JUMP JUMPDEST PUSH1 0x40 MLOAD DUP1 SWAP2 SUB SWAP1 LOG1 PUSH2 0x14A9 PUSH2 0x14A3 PUSH2 0x19A3 JUMP JUMPDEST DUP4 PUSH2 0x1DE2 JUMP JUMPDEST POP POP JUMP JUMPDEST PUSH0 DUP1 SHL DUP2 JUMP JUMPDEST PUSH0 PUSH2 0x14BC PUSH2 0x19D0 JUMP JUMPDEST PUSH0 PUSH2 0x14C5 PUSH2 0x19A3 JUMP JUMPDEST SWAP1 POP PUSH1 0xA PUSH0 DUP3 PUSH20 0xFFFFFFFFFFFFFFFFFFFFFFFFFFFFFFFFFFFFFFFF AND PUSH20 0xFFFFFFFFFFFFFFFFFFFFFFFFFFFFFFFFFFFFFFFF AND DUP2 MSTORE PUSH1 0x20 ADD SWAP1 DUP2 MSTORE PUSH1 0x20 ADD PUSH0 KECCAK256 PUSH0 SWAP1 SLOAD SWAP1 PUSH2 0x100 EXP SWAP1 DIV PUSH1 0xFF AND ISZERO PUSH2 0x1526 JUMPI PUSH2 0x1521 DUP2 DUP6 DUP6 PUSH2 0x1A16 JUMP JUMPDEST PUSH2 0x153E JUMP JUMPDEST PUSH2 0x1531 DUP2 DUP6 DUP6 PUSH2 0x1A16 JUMP JUMPDEST PUSH2 0x153D DUP2 PUSH1 0x8 SLOAD PUSH2 0x1B06 JUMP JUMPDEST JUMPDEST PUSH1 0x1 SWAP2 POP POP PUSH2 0x154B PUSH2 0x1B85 JUMP JUMPDEST SWAP3 SWAP2 POP POP JUMP JUMPDEST PUSH1 0x9 PUSH0 SWAP1 SLOAD SWAP1 PUSH2 0x100 EXP SWAP1 DIV PUSH1 0xFF AND ISZERO PUSH2 0x15A0 JUMPI PUSH1 0x40 MLOAD PUSH32 0x8C379A000000000000000000000000000000000000000000000000000000000 DUP2 MSTORE PUSH1 0x4 ADD PUSH2 0x1597 SWAP1 PUSH2 0x2BB3 JUMP JUMPDEST PUSH1 0x40 MLOAD DUP1 SWAP2 SUB SWAP1 REVERT JUMPDEST PUSH32 0xEA4DEFABEB90FA1E79F929D6C8D482FEE8A115926A592B79634D39A67CCE3B62 PUSH2 0x15CA DUP2 PUSH2 0x19BC JUMP JUMPDEST PUSH2 0x15D2 PUSH2 0x9D4 JUMP JUMPDEST DUP3 LT ISZERO PUSH2 0x1614 JUMPI PUSH1 0x40 MLOAD PUSH32 0x8C379A000000000000000000000000000000000000000000000000000000000 DUP2 MSTORE PUSH1 0x4 ADD PUSH2 0x160B SWAP1 PUSH2 0x2E37 JUMP JUMPDEST PUSH1 0x40 MLOAD DUP1 SWAP2 SUB SWAP1 REVERT JUMPDEST DUP2 PUSH1 0x7 DUP2 SWAP1 SSTORE POP PUSH32 0xA11CBDEB4D62442FAE7C8EC6286585B17C47ACB7B17BBCAB1BEADCE84BEFA300 DUP3 PUSH2 0x1645 PUSH2 0x19A3 JUMP JUMPDEST PUSH1 0x40 MLOAD PUSH2 0x1653 SWAP3 SWAP2 SWAP1 PUSH2 0x294E JUMP JUMPDEST PUSH1 0x40 MLOAD DUP1 SWAP2 SUB SWAP1 LOG1 POP POP JUMP JUMPDEST PUSH1 0xA PUSH1 0x20 MSTORE DUP1 PUSH0 MSTORE PUSH1 0x40 PUSH0 KECCAK256 PUSH0 SWAP2 POP SLOAD SWAP1 PUSH2 0x100 EXP SWAP1 DIV PUSH1 0xFF AND DUP2 JUMP JUMPDEST PUSH1 0x8 SLOAD DUP2 JUMP JUMPDEST PUSH1 0x9 PUSH1 0x2 SWAP1 SLOAD SWAP1 PUSH2 0x100 EXP SWAP1 DIV PUSH1 0xFF AND DUP2 JUMP JUMPDEST PUSH2 0x169E DUP3 PUSH2 0xAE9 JUMP JUMPDEST PUSH2 0x16A7 DUP2 PUSH2 0x19BC JUMP JUMPDEST PUSH2 0x16B1 DUP4 DUP4 PUSH2 0x1C79 JUMP JUMPDEST POP POP POP POP JUMP JUMPDEST PUSH0 PUSH1 0x1 PUSH0 DUP5 PUSH20 0xFFFFFFFFFFFFFFFFFFFFFFFFFFFFFFFFFFFFFFFF AND PUSH20 0xFFFFFFFFFFFFFFFFFFFFFFFFFFFFFFFFFFFFFFFF AND DUP2 MSTORE PUSH1 0x20 ADD SWAP1 DUP2 MSTORE PUSH1 0x20 ADD PUSH0 KECCAK256 PUSH0 DUP4 PUSH20 0xFFFFFFFFFFFFFFFFFFFFFFFFFFFFFFFFFFFFFFFF AND PUSH20 0xFFFFFFFFFFFFFFFFFFFFFFFFFFFFFFFFFFFFFFFF AND DUP2 MSTORE PUSH1 0x20 ADD SWAP1 DUP2 MSTORE PUSH1 0x20 ADD PUSH0 KECCAK256 SLOAD SWAP1 POP SWAP3 SWAP2 POP POP JUMP JUMPDEST PUSH32 0xAE6C2FC584631AF4C9385B8A55683F1A75C813747E27EFEF5AFECE31C6B230D3 PUSH2 0x1763 DUP2 PUSH2 0x19BC JUMP JUMPDEST DUP2 PUSH1 0x9 PUSH1 0x1 PUSH2 0x100 EXP DUP2 SLOAD DUP2 PUSH1 0xFF MUL NOT AND SWAP1 DUP4 ISZERO ISZERO MUL OR SWAP1 SSTORE POP DUP2 ISZERO PUSH2 0x17C8 JUMPI PUSH32 0x5668502CA8E7B393C09D1DAC964CA45A27870A78D7BA212B7A189450897CA05F NUMBER PUSH2 0x17AD PUSH2 0x19A3 JUMP JUMPDEST PUSH1 0x40 MLOAD PUSH2 0x17BB SWAP3 SWAP2 SWAP1 PUSH2 0x294E JUMP JUMPDEST PUSH1 0x40 MLOAD DUP1 SWAP2 SUB SWAP1 LOG1 PUSH2 0x1809 JUMP JUMPDEST PUSH32 0x98E05482FDB38DF5EB461FB932FA6E1AF90A3569939CE5A8D92D699B102D6402 NUMBER PUSH2 0x17F2 PUSH2 0x19A3 JUMP JUMPDEST PUSH1 0x40 MLOAD PUSH2 0x1800 SWAP3 SWAP2 SWAP1 PUSH2 0x294E JUMP JUMPDEST PUSH1 0x40 MLOAD DUP1 SWAP2 SUB SWAP1 LOG1 JUMPDEST POP POP JUMP JUMPDEST PUSH32 0xEA4DEFABEB90FA1E79F929D6C8D482FEE8A115926A592B79634D39A67CCE3B62 DUP2 JUMP JUMPDEST PUSH32 0xAE6C2FC584631AF4C9385B8A55683F1A75C813747E27EFEF5AFECE31C6B230D3 PUSH2 0x185B DUP2 PUSH2 0x19BC JUMP JUMPDEST DUP2 PUSH1 0x8 DUP2 SWAP1 SSTORE POP POP POP JUMP JUMPDEST PUSH32 0xAE6C2FC584631AF4C9385B8A55683F1A75C813747E27EFEF5AFECE31C6B230D3 PUSH2 0x1890 DUP2 PUSH2 0x19BC JUMP JUMPDEST DUP2 PUSH1 0x9 PUSH1 0x2 PUSH2 0x100 EXP DUP2 SLOAD DUP2 PUSH1 0xFF MUL NOT AND SWAP1 DUP4 ISZERO ISZERO MUL OR SWAP1 SSTORE POP DUP2 ISZERO PUSH2 0x18F5 JUMPI PUSH32 0x218E25F0A7435729F5A66AAE50A9ED0084535A0080300C1C2E8366D8DF7136ED NUMBER PUSH2 0x18DA PUSH2 0x19A3 JUMP JUMPDEST PUSH1 0x40 MLOAD PUSH2 0x18E8 SWAP3 SWAP2 SWAP1 PUSH2 0x294E JUMP JUMPDEST PUSH1 0x40 MLOAD DUP1 SWAP2 SUB SWAP1 LOG1 PUSH2 0x1936 JUMP JUMPDEST PUSH32 0x41606E1DCEE38320F9EDBFCD642AEAA81BB2140C705DE9D4A7814024A1E9A314 NUMBER PUSH2 0x191F PUSH2 0x19A3 JUMP JUMPDEST PUSH1 0x40 MLOAD PUSH2 0x192D SWAP3 SWAP2 SWAP1 PUSH2 0x294E JUMP JUMPDEST PUSH1 0x40 MLOAD DUP1 SWAP2 SUB SWAP1 LOG1 JUMPDEST POP POP JUMP JUMPDEST PUSH0 PUSH32 0x1FFC9A700000000000000000000000000000000000000000000000000000000 PUSH28 0xFFFFFFFFFFFFFFFFFFFFFFFFFFFFFFFFFFFFFFFFFFFFFFFFFFFFFFFF NOT AND DUP3 PUSH28 0xFFFFFFFFFFFFFFFFFFFFFFFFFFFFFFFFFFFFFFFFFFFFFFFFFFFFFFFF NOT AND EQ SWAP1 POP SWAP2 SWAP1 POP JUMP JUMPDEST PUSH0 CALLER SWAP1 POP SWAP1 JUMP JUMPDEST PUSH2 0x19B7 DUP4 DUP4 DUP4 PUSH1 0x1 PUSH2 0x1E61 JUMP JUMPDEST POP POP POP JUMP JUMPDEST PUSH2 0x19CD DUP2 PUSH2 0x19C8 PUSH2 0x19A3 JUMP JUMPDEST PUSH2 0x2030 JUMP JUMPDEST POP JUMP JUMPDEST PUSH1 0x2 PUSH1 0x6 SLOAD SUB PUSH2 0x1A0C JUMPI PUSH1 0x40 MLOAD PUSH32 0x3EE5AEB500000000000000000000000000000000000000000000000000000000 DUP2 MSTORE PUSH1 0x4 ADD PUSH1 0x40 MLOAD DUP1 SWAP2 SUB SWAP1 REVERT JUMPDEST PUSH1 0x2 PUSH1 0x6 DUP2 SWAP1 SSTORE POP JUMP JUMPDEST PUSH0 PUSH20 0xFFFFFFFFFFFFFFFFFFFFFFFFFFFFFFFFFFFFFFFF AND DUP4 PUSH20 0xFFFFFFFFFFFFFFFFFFFFFFFFFFFFFFFFFFFFFFFF AND SUB PUSH2 0x1A86 JUMPI PUSH0 PUSH1 0x40 MLOAD PUSH32 0x96C6FD1E00000000000000000000000000000000000000000000000000000000 DUP2 MSTORE PUSH1 0x4 ADD PUSH2 0x1A7D SWAP2 SWAP1 PUSH2 0x2E55 JUMP JUMPDEST PUSH1 0x40 MLOAD DUP1 SWAP2 SUB SWAP1 REVERT JUMPDEST PUSH0 PUSH20 0xFFFFFFFFFFFFFFFFFFFFFFFFFFFFFFFFFFFFFFFF AND DUP3 PUSH20 0xFFFFFFFFFFFFFFFFFFFFFFFFFFFFFFFFFFFFFFFF AND SUB PUSH2 0x1AF6 JUMPI PUSH0 PUSH1 0x40 MLOAD PUSH32 0xEC442F0500000000000000000000000000000000000000000000000000000000 DUP2 MSTORE PUSH1 0x4 ADD PUSH2 0x1AED SWAP2 SWAP1 PUSH2 0x2E55 JUMP JUMPDEST PUSH1 0x40 MLOAD DUP1 SWAP2 SUB SWAP1 REVERT JUMPDEST PUSH2 0x1B01 DUP4 DUP4 DUP4 PUSH2 0x2081 JUMP JUMPDEST POP POP POP JUMP JUMPDEST PUSH0 PUSH20 0xFFFFFFFFFFFFFFFFFFFFFFFFFFFFFFFFFFFFFFFF AND DUP3 PUSH20 0xFFFFFFFFFFFFFFFFFFFFFFFFFFFFFFFFFFFFFFFF AND SUB PUSH2 0x1B76 JUMPI PUSH0 PUSH1 0x40 MLOAD PUSH32 0x96C6FD1E00000000000000000000000000000000000000000000000000000000 DUP2 MSTORE PUSH1 0x4 ADD PUSH2 0x1B6D SWAP2 SWAP1 PUSH2 0x2E55 JUMP JUMPDEST PUSH1 0x40 MLOAD DUP1 SWAP2 SUB SWAP1 REVERT JUMPDEST PUSH2 0x1B81 DUP3 PUSH0 DUP4 PUSH2 0x2081 JUMP JUMPDEST POP POP JUMP JUMPDEST PUSH1 0x1 PUSH1 0x6 DUP2 SWAP1 SSTORE POP JUMP JUMPDEST PUSH0 PUSH2 0x1B9A DUP4 DUP4 PUSH2 0x123A JUMP JUMPDEST PUSH2 0x1C6F JUMPI PUSH1 0x1 PUSH1 0x5 PUSH0 DUP6 DUP2 MSTORE PUSH1 0x20 ADD SWAP1 DUP2 MSTORE PUSH1 0x20 ADD PUSH0 KECCAK256 PUSH0 ADD PUSH0 DUP5 PUSH20 0xFFFFFFFFFFFFFFFFFFFFFFFFFFFFFFFFFFFFFFFF AND PUSH20 0xFFFFFFFFFFFFFFFFFFFFFFFFFFFFFFFFFFFFFFFF AND DUP2 MSTORE PUSH1 0x20 ADD SWAP1 DUP2 MSTORE PUSH1 0x20 ADD PUSH0 KECCAK256 PUSH0 PUSH2 0x100 EXP DUP2 SLOAD DUP2 PUSH1 0xFF MUL NOT AND SWAP1 DUP4 ISZERO ISZERO MUL OR SWAP1 SSTORE POP PUSH2 0x1C0C PUSH2 0x19A3 JUMP JUMPDEST PUSH20 0xFFFFFFFFFFFFFFFFFFFFFFFFFFFFFFFFFFFFFFFF AND DUP3 PUSH20 0xFFFFFFFFFFFFFFFFFFFFFFFFFFFFFFFFFFFFFFFF AND DUP5 PUSH32 0x2F8788117E7EFF1D82E926EC794901D17C78024A50270940304540A733656F0D PUSH1 0x40 MLOAD PUSH1 0x40 MLOAD DUP1 SWAP2 SUB SWAP1 LOG4 PUSH1 0x1 SWAP1 POP PUSH2 0x1C73 JUMP JUMPDEST PUSH0 SWAP1 POP JUMPDEST SWAP3 SWAP2 POP POP JUMP JUMPDEST PUSH0 PUSH2 0x1C84 DUP4 DUP4 PUSH2 0x123A JUMP JUMPDEST ISZERO PUSH2 0x1D59 JUMPI PUSH0 PUSH1 0x5 PUSH0 DUP6 DUP2 MSTORE PUSH1 0x20 ADD SWAP1 DUP2 MSTORE PUSH1 0x20 ADD PUSH0 KECCAK256 PUSH0 ADD PUSH0 DUP5 PUSH20 0xFFFFFFFFFFFFFFFFFFFFFFFFFFFFFFFFFFFFFFFF AND PUSH20 0xFFFFFFFFFFFFFFFFFFFFFFFFFFFFFFFFFFFFFFFF AND DUP2 MSTORE PUSH1 0x20 ADD SWAP1 DUP2 MSTORE PUSH1 0x20 ADD PUSH0 KECCAK256 PUSH0 PUSH2 0x100 EXP DUP2 SLOAD DUP2 PUSH1 0xFF MUL NOT AND SWAP1 DUP4 ISZERO ISZERO MUL OR SWAP1 SSTORE POP PUSH2 0x1CF6 PUSH2 0x19A3 JUMP JUMPDEST PUSH20 0xFFFFFFFFFFFFFFFFFFFFFFFFFFFFFFFFFFFFFFFF AND DUP3 PUSH20 0xFFFFFFFFFFFFFFFFFFFFFFFFFFFFFFFFFFFFFFFF AND DUP5 PUSH32 0xF6391F5C32D9C69D2A47EA670B442974B53935D1EDC7FD64EB21E047A839171B PUSH1 0x40 MLOAD PUSH1 0x40 MLOAD DUP1 SWAP2 SUB SWAP1 LOG4 PUSH1 0x1 SWAP1 POP PUSH2 0x1D5D JUMP JUMPDEST PUSH0 SWAP1 POP JUMPDEST SWAP3 SWAP2 POP POP JUMP JUMPDEST PUSH2 0x1DDD DUP4 DUP5 PUSH20 0xFFFFFFFFFFFFFFFFFFFFFFFFFFFFFFFFFFFFFFFF AND PUSH4 0xA9059CBB DUP6 DUP6 PUSH1 0x40 MLOAD PUSH1 0x24 ADD PUSH2 0x1D96 SWAP3 SWAP2 SWAP1 PUSH2 0x2CD4 JUMP JUMPDEST PUSH1 0x40 MLOAD PUSH1 0x20 DUP2 DUP4 SUB SUB DUP2 MSTORE SWAP1 PUSH1 0x40 MSTORE SWAP2 POP PUSH1 0xE0 SHL PUSH1 0x20 DUP3 ADD DUP1 MLOAD PUSH28 0xFFFFFFFFFFFFFFFFFFFFFFFFFFFFFFFFFFFFFFFFFFFFFFFFFFFFFFFF DUP4 DUP2 DUP4 AND OR DUP4 MSTORE POP POP POP POP PUSH2 0x229A JUMP JUMPDEST POP POP POP JUMP JUMPDEST PUSH0 PUSH20 0xFFFFFFFFFFFFFFFFFFFFFFFFFFFFFFFFFFFFFFFF AND DUP3 PUSH20 0xFFFFFFFFFFFFFFFFFFFFFFFFFFFFFFFFFFFFFFFF AND SUB PUSH2 0x1E52 JUMPI PUSH0 PUSH1 0x40 MLOAD PUSH32 0xEC442F0500000000000000000000000000000000000000000000000000000000 DUP2 MSTORE PUSH1 0x4 ADD PUSH2 0x1E49 SWAP2 SWAP1 PUSH2 0x2E55 JUMP JUMPDEST PUSH1 0x40 MLOAD DUP1 SWAP2 SUB SWAP1 REVERT JUMPDEST PUSH2 0x1E5D PUSH0 DUP4 DUP4 PUSH2 0x2081 JUMP JUMPDEST POP POP JUMP JUMPDEST PUSH0 PUSH20 0xFFFFFFFFFFFFFFFFFFFFFFFFFFFFFFFFFFFFFFFF AND DUP5 PUSH20 0xFFFFFFFFFFFFFFFFFFFFFFFFFFFFFFFFFFFFFFFF AND SUB PUSH2 0x1ED1 JUMPI PUSH0 PUSH1 0x40 MLOAD PUSH32 0xE602DF0500000000000000000000000000000000000000000000000000000000 DUP2 MSTORE PUSH1 0x4 ADD PUSH2 0x1EC8 SWAP2 SWAP1 PUSH2 0x2E55 JUMP JUMPDEST PUSH1 0x40 MLOAD DUP1 SWAP2 SUB SWAP1 REVERT JUMPDEST PUSH0 PUSH20 0xFFFFFFFFFFFFFFFFFFFFFFFFFFFFFFFFFFFFFFFF AND DUP4 PUSH20 0xFFFFFFFFFFFFFFFFFFFFFFFFFFFFFFFFFFFFFFFF AND SUB PUSH2 0x1F41 JUMPI PUSH0 PUSH1 0x40 MLOAD PUSH32 0x94280D6200000000000000000000000000000000000000000000000000000000 DUP2 MSTORE PUSH1 0x4 ADD PUSH2 0x1F38 SWAP2 SWAP1 PUSH2 0x2E55 JUMP JUMPDEST PUSH1 0x40 MLOAD DUP1 SWAP2 SUB SWAP1 REVERT JUMPDEST DUP2 PUSH1 0x1 PUSH0 DUP7 PUSH20 0xFFFFFFFFFFFFFFFFFFFFFFFFFFFFFFFFFFFFFFFF AND PUSH20 0xFFFFFFFFFFFFFFFFFFFFFFFFFFFFFFFFFFFFFFFF AND DUP2 MSTORE PUSH1 0x20 ADD SWAP1 DUP2 MSTORE PUSH1 0x20 ADD PUSH0 KECCAK256 PUSH0 DUP6 PUSH20 0xFFFFFFFFFFFFFFFFFFFFFFFFFFFFFFFFFFFFFFFF AND PUSH20 0xFFFFFFFFFFFFFFFFFFFFFFFFFFFFFFFFFFFFFFFF AND DUP2 MSTORE PUSH1 0x20 ADD SWAP1 DUP2 MSTORE PUSH1 0x20 ADD PUSH0 KECCAK256 DUP2 SWAP1 SSTORE POP DUP1 ISZERO PUSH2 0x202A JUMPI DUP3 PUSH20 0xFFFFFFFFFFFFFFFFFFFFFFFFFFFFFFFFFFFFFFFF AND DUP5 PUSH20 0xFFFFFFFFFFFFFFFFFFFFFFFFFFFFFFFFFFFFFFFF AND PUSH32 0x8C5BE1E5EBEC7D5BD14F71427D1E84F3DD0314C0F7B2291E5B200AC8C7C3B925 DUP5 PUSH1 0x40 MLOAD PUSH2 0x2021 SWAP2 SWAP1 PUSH2 0x2404 JUMP JUMPDEST PUSH1 0x40 MLOAD DUP1 SWAP2 SUB SWAP1 LOG3 JUMPDEST POP POP POP POP JUMP JUMPDEST PUSH2 0x203A DUP3 DUP3 PUSH2 0x123A JUMP JUMPDEST PUSH2 0x207D JUMPI DUP1 DUP3 PUSH1 0x40 MLOAD PUSH32 0xE2517D3F00000000000000000000000000000000000000000000000000000000 DUP2 MSTORE PUSH1 0x4 ADD PUSH2 0x2074 SWAP3 SWAP2 SWAP1 PUSH2 0x2E6E JUMP JUMPDEST PUSH1 0x40 MLOAD DUP1 SWAP2 SUB SWAP1 REVERT JUMPDEST POP POP JUMP JUMPDEST PUSH0 PUSH20 0xFFFFFFFFFFFFFFFFFFFFFFFFFFFFFFFFFFFFFFFF AND DUP4 PUSH20 0xFFFFFFFFFFFFFFFFFFFFFFFFFFFFFFFFFFFFFFFF AND SUB PUSH2 0x20D1 JUMPI DUP1 PUSH1 0x2 PUSH0 DUP3 DUP3 SLOAD PUSH2 0x20C5 SWAP2 SWAP1 PUSH2 0x2C39 JUMP JUMPDEST SWAP3 POP POP DUP2 SWAP1 SSTORE POP PUSH2 0x219F JUMP JUMPDEST PUSH0 DUP1 PUSH0 DUP6 PUSH20 0xFFFFFFFFFFFFFFFFFFFFFFFFFFFFFFFFFFFFFFFF AND PUSH20 0xFFFFFFFFFFFFFFFFFFFFFFFFFFFFFFFFFFFFFFFF AND DUP2 MSTORE PUSH1 0x20 ADD SWAP1 DUP2 MSTORE PUSH1 0x20 ADD PUSH0 KECCAK256 SLOAD SWAP1 POP DUP2 DUP2 LT ISZERO PUSH2 0x215A JUMPI DUP4 DUP2 DUP4 PUSH1 0x40 MLOAD PUSH32 0xE450D38C00000000000000000000000000000000000000000000000000000000 DUP2 MSTORE PUSH1 0x4 ADD PUSH2 0x2151 SWAP4 SWAP3 SWAP2 SWAP1 PUSH2 0x2E95 JUMP JUMPDEST PUSH1 0x40 MLOAD DUP1 SWAP2 SUB SWAP1 REVERT JUMPDEST DUP2 DUP2 SUB PUSH0 DUP1 DUP7 PUSH20 0xFFFFFFFFFFFFFFFFFFFFFFFFFFFFFFFFFFFFFFFF AND PUSH20 0xFFFFFFFFFFFFFFFFFFFFFFFFFFFFFFFFFFFFFFFF AND DUP2 MSTORE PUSH1 0x20 ADD SWAP1 DUP2 MSTORE PUSH1 0x20 ADD PUSH0 KECCAK256 DUP2 SWAP1 SSTORE POP POP JUMPDEST PUSH0 PUSH20 0xFFFFFFFFFFFFFFFFFFFFFFFFFFFFFFFFFFFFFFFF AND DUP3 PUSH20 0xFFFFFFFFFFFFFFFFFFFFFFFFFFFFFFFFFFFFFFFF AND SUB PUSH2 0x21E6 JUMPI DUP1 PUSH1 0x2 PUSH0 DUP3 DUP3 SLOAD SUB SWAP3 POP POP DUP2 SWAP1 SSTORE POP PUSH2 0x2230 JUMP JUMPDEST DUP1 PUSH0 DUP1 DUP5 PUSH20 0xFFFFFFFFFFFFFFFFFFFFFFFFFFFFFFFFFFFFFFFF AND PUSH20 0xFFFFFFFFFFFFFFFFFFFFFFFFFFFFFFFFFFFFFFFF AND DUP2 MSTORE PUSH1 0x20 ADD SWAP1 DUP2 MSTORE PUSH1 0x20 ADD PUSH0 KECCAK256 PUSH0 DUP3 DUP3 SLOAD ADD SWAP3 POP POP DUP2 SWAP1 SSTORE POP JUMPDEST DUP2 PUSH20 0xFFFFFFFFFFFFFFFFFFFFFFFFFFFFFFFFFFFFFFFF AND DUP4 PUSH20 0xFFFFFFFFFFFFFFFFFFFFFFFFFFFFFFFFFFFFFFFF AND PUSH32 0xDDF252AD1BE2C89B69C2B068FC378DAA952BA7F163C4A11628F55A4DF523B3EF DUP4 PUSH1 0x40 MLOAD PUSH2 0x228D SWAP2 SWAP1 PUSH2 0x2404 JUMP JUMPDEST PUSH1 0x40 MLOAD DUP1 SWAP2 SUB SWAP1 LOG3 POP POP POP JUMP JUMPDEST PUSH0 DUP1 PUSH1 0x20 PUSH0 DUP5 MLOAD PUSH1 0x20 DUP7 ADD PUSH0 DUP9 GAS CALL DUP1 PUSH2 0x22B9 JUMPI PUSH1 0x40 MLOAD RETURNDATASIZE PUSH0 DUP3 RETURNDATACOPY RETURNDATASIZE DUP2 REVERT JUMPDEST RETURNDATASIZE SWAP3 POP PUSH0 MLOAD SWAP2 POP POP PUSH0 DUP3 EQ PUSH2 0x22D2 JUMPI PUSH1 0x1 DUP2 EQ ISZERO PUSH2 0x22ED JUMP JUMPDEST PUSH0 DUP5 PUSH20 0xFFFFFFFFFFFFFFFFFFFFFFFFFFFFFFFFFFFFFFFF AND EXTCODESIZE EQ JUMPDEST ISZERO PUSH2 0x232F JUMPI DUP4 PUSH1 0x40 MLOAD PUSH32 0x5274AFE700000000000000000000000000000000000000000000000000000000 DUP2 MSTORE PUSH1 0x4 ADD PUSH2 0x2326 SWAP2 SWAP1 PUSH2 0x2E55 JUMP JUMPDEST PUSH1 0x40 MLOAD DUP1 SWAP2 SUB SWAP1 REVERT JUMPDEST POP POP POP POP JUMP JUMPDEST PUSH0 DUP1 REVERT JUMPDEST PUSH0 PUSH32 0xFFFFFFFF00000000000000000000000000000000000000000000000000000000 DUP3 AND SWAP1 POP SWAP2 SWAP1 POP JUMP JUMPDEST PUSH2 0x236D DUP2 PUSH2 0x2339 JUMP JUMPDEST DUP2 EQ PUSH2 0x2377 JUMPI PUSH0 DUP1 REVERT JUMPDEST POP JUMP JUMPDEST PUSH0 DUP2 CALLDATALOAD SWAP1 POP PUSH2 0x2388 DUP2 PUSH2 0x2364 JUMP JUMPDEST SWAP3 SWAP2 POP POP JUMP JUMPDEST PUSH0 PUSH1 0x20 DUP3 DUP5 SUB SLT ISZERO PUSH2 0x23A3 JUMPI PUSH2 0x23A2 PUSH2 0x2335 JUMP JUMPDEST JUMPDEST PUSH0 PUSH2 0x23B0 DUP5 DUP3 DUP6 ADD PUSH2 0x237A JUMP JUMPDEST SWAP2 POP POP SWAP3 SWAP2 POP POP JUMP JUMPDEST PUSH0 DUP2 ISZERO ISZERO SWAP1 POP SWAP2 SWAP1 POP JUMP JUMPDEST PUSH2 0x23CD DUP2 PUSH2 0x23B9 JUMP JUMPDEST DUP3 MSTORE POP POP JUMP JUMPDEST PUSH0 PUSH1 0x20 DUP3 ADD SWAP1 POP PUSH2 0x23E6 PUSH0 DUP4 ADD DUP5 PUSH2 0x23C4 JUMP JUMPDEST SWAP3 SWAP2 POP POP JUMP JUMPDEST PUSH0 DUP2 SWAP1 POP SWAP2 SWAP1 POP JUMP JUMPDEST PUSH2 0x23FE DUP2 PUSH2 0x23EC JUMP JUMPDEST DUP3 MSTORE POP POP JUMP JUMPDEST PUSH0 PUSH1 0x20 DUP3 ADD SWAP1 POP PUSH2 0x2417 PUSH0 DUP4 ADD DUP5 PUSH2 0x23F5 JUMP JUMPDEST SWAP3 SWAP2 POP POP JUMP JUMPDEST PUSH0 DUP2 MLOAD SWAP1 POP SWAP2 SWAP1 POP JUMP JUMPDEST PUSH0 DUP3 DUP3 MSTORE PUSH1 0x20 DUP3 ADD SWAP1 POP SWAP3 SWAP2 POP POP JUMP JUMPDEST DUP3 DUP2 DUP4 MCOPY PUSH0 DUP4 DUP4 ADD MSTORE POP POP POP JUMP JUMPDEST PUSH0 PUSH1 0x1F NOT PUSH1 0x1F DUP4 ADD AND SWAP1 POP SWAP2 SWAP1 POP JUMP JUMPDEST PUSH0 PUSH2 0x245F DUP3 PUSH2 0x241D JUMP JUMPDEST PUSH2 0x2469 DUP2 DUP6 PUSH2 0x2427 JUMP JUMPDEST SWAP4 POP PUSH2 0x2479 DUP2 DUP6 PUSH1 0x20 DUP7 ADD PUSH2 0x2437 JUMP JUMPDEST PUSH2 0x2482 DUP2 PUSH2 0x2445 JUMP JUMPDEST DUP5 ADD SWAP2 POP POP SWAP3 SWAP2 POP POP JUMP JUMPDEST PUSH0 PUSH1 0x20 DUP3 ADD SWAP1 POP DUP2 DUP2 SUB PUSH0 DUP4 ADD MSTORE PUSH2 0x24A5 DUP2 DUP5 PUSH2 0x2455 JUMP JUMPDEST SWAP1 POP SWAP3 SWAP2 POP POP JUMP JUMPDEST PUSH0 PUSH20 0xFFFFFFFFFFFFFFFFFFFFFFFFFFFFFFFFFFFFFFFF DUP3 AND SWAP1 POP SWAP2 SWAP1 POP JUMP JUMPDEST PUSH0 PUSH2 0x24D6 DUP3 PUSH2 0x24AD JUMP JUMPDEST SWAP1 POP SWAP2 SWAP1 POP JUMP JUMPDEST PUSH2 0x24E6 DUP2 PUSH2 0x24CC JUMP JUMPDEST DUP2 EQ PUSH2 0x24F0 JUMPI PUSH0 DUP1 REVERT JUMPDEST POP JUMP JUMPDEST PUSH0 DUP2 CALLDATALOAD SWAP1 POP PUSH2 0x2501 DUP2 PUSH2 0x24DD JUMP JUMPDEST SWAP3 SWAP2 POP POP JUMP JUMPDEST PUSH2 0x2510 DUP2 PUSH2 0x23EC JUMP JUMPDEST DUP2 EQ PUSH2 0x251A JUMPI PUSH0 DUP1 REVERT JUMPDEST POP JUMP JUMPDEST PUSH0 DUP2 CALLDATALOAD SWAP1 POP PUSH2 0x252B DUP2 PUSH2 0x2507 JUMP JUMPDEST SWAP3 SWAP2 POP POP JUMP JUMPDEST PUSH0 DUP1 PUSH1 0x40 DUP4 DUP6 SUB SLT ISZERO PUSH2 0x2547 JUMPI PUSH2 0x2546 PUSH2 0x2335 JUMP JUMPDEST JUMPDEST PUSH0 PUSH2 0x2554 DUP6 DUP3 DUP7 ADD PUSH2 0x24F3 JUMP JUMPDEST SWAP3 POP POP PUSH1 0x20 PUSH2 0x2565 DUP6 DUP3 DUP7 ADD PUSH2 0x251D JUMP JUMPDEST SWAP2 POP POP SWAP3 POP SWAP3 SWAP1 POP JUMP JUMPDEST PUSH2 0x2578 DUP2 PUSH2 0x23B9 JUMP JUMPDEST DUP2 EQ PUSH2 0x2582 JUMPI PUSH0 DUP1 REVERT JUMPDEST POP JUMP JUMPDEST PUSH0 DUP2 CALLDATALOAD SWAP1 POP PUSH2 0x2593 DUP2 PUSH2 0x256F JUMP JUMPDEST SWAP3 SWAP2 POP POP JUMP JUMPDEST PUSH0 PUSH1 0x20 DUP3 DUP5 SUB SLT ISZERO PUSH2 0x25AE JUMPI PUSH2 0x25AD PUSH2 0x2335 JUMP JUMPDEST JUMPDEST PUSH0 PUSH2 0x25BB DUP5 DUP3 DUP6 ADD PUSH2 0x2585 JUMP JUMPDEST SWAP2 POP POP SWAP3 SWAP2 POP POP JUMP JUMPDEST PUSH0 DUP1 PUSH0 PUSH1 0x60 DUP5 DUP7 SUB SLT ISZERO PUSH2 0x25DB JUMPI PUSH2 0x25DA PUSH2 0x2335 JUMP JUMPDEST JUMPDEST PUSH0 PUSH2 0x25E8 DUP7 DUP3 DUP8 ADD PUSH2 0x24F3 JUMP JUMPDEST SWAP4 POP POP PUSH1 0x20 PUSH2 0x25F9 DUP7 DUP3 DUP8 ADD PUSH2 0x24F3 JUMP JUMPDEST SWAP3 POP POP PUSH1 0x40 PUSH2 0x260A DUP7 DUP3 DUP8 ADD PUSH2 0x251D JUMP JUMPDEST SWAP2 POP POP SWAP3 POP SWAP3 POP SWAP3 JUMP JUMPDEST PUSH0 DUP2 SWAP1 POP SWAP2 SWAP1 POP JUMP JUMPDEST PUSH2 0x2626 DUP2 PUSH2 0x2614 JUMP JUMPDEST DUP2 EQ PUSH2 0x2630 JUMPI PUSH0 DUP1 REVERT JUMPDEST POP JUMP JUMPDEST PUSH0 DUP2 CALLDATALOAD SWAP1 POP PUSH2 0x2641 DUP2 PUSH2 0x261D JUMP JUMPDEST SWAP3 SWAP2 POP POP JUMP JUMPDEST PUSH0 PUSH1 0x20 DUP3 DUP5 SUB SLT ISZERO PUSH2 0x265C JUMPI PUSH2 0x265B PUSH2 0x2335 JUMP JUMPDEST JUMPDEST PUSH0 PUSH2 0x2669 DUP5 DUP3 DUP6 ADD PUSH2 0x2633 JUMP JUMPDEST SWAP2 POP POP SWAP3 SWAP2 POP POP JUMP JUMPDEST PUSH2 0x267B DUP2 PUSH2 0x2614 JUMP JUMPDEST DUP3 MSTORE POP POP JUMP JUMPDEST PUSH0 PUSH1 0x20 DUP3 ADD SWAP1 POP PUSH2 0x2694 PUSH0 DUP4 ADD DUP5 PUSH2 0x2672 JUMP JUMPDEST SWAP3 SWAP2 POP POP JUMP JUMPDEST PUSH0 DUP1 PUSH1 0x40 DUP4 DUP6 SUB SLT ISZERO PUSH2 0x26B0 JUMPI PUSH2 0x26AF PUSH2 0x2335 JUMP JUMPDEST JUMPDEST PUSH0 PUSH2 0x26BD DUP6 DUP3 DUP7 ADD PUSH2 0x2633 JUMP JUMPDEST SWAP3 POP POP PUSH1 0x20 PUSH2 0x26CE DUP6 DUP3 DUP7 ADD PUSH2 0x24F3 JUMP JUMPDEST SWAP2 POP POP SWAP3 POP SWAP3 SWAP1 POP JUMP JUMPDEST PUSH0 PUSH1 0xFF DUP3 AND SWAP1 POP SWAP2 SWAP1 POP JUMP JUMPDEST PUSH2 0x26ED DUP2 PUSH2 0x26D8 JUMP JUMPDEST DUP3 MSTORE POP POP JUMP JUMPDEST PUSH0 PUSH1 0x20 DUP3 ADD SWAP1 POP PUSH2 0x2706 PUSH0 DUP4 ADD DUP5 PUSH2 0x26E4 JUMP JUMPDEST SWAP3 SWAP2 POP POP JUMP JUMPDEST PUSH0 DUP1 PUSH1 0x40 DUP4 DUP6 SUB SLT ISZERO PUSH2 0x2722 JUMPI PUSH2 0x2721 PUSH2 0x2335 JUMP JUMPDEST JUMPDEST PUSH0 PUSH2 0x272F DUP6 DUP3 DUP7 ADD PUSH2 0x24F3 JUMP JUMPDEST SWAP3 POP POP PUSH1 0x20 PUSH2 0x2740 DUP6 DUP3 DUP7 ADD PUSH2 0x2585 JUMP JUMPDEST SWAP2 POP POP SWAP3 POP SWAP3 SWAP1 POP JUMP JUMPDEST PUSH0 PUSH2 0x2754 DUP3 PUSH2 0x24CC JUMP JUMPDEST SWAP1 POP SWAP2 SWAP1 POP JUMP JUMPDEST PUSH2 0x2764 DUP2 PUSH2 0x274A JUMP JUMPDEST DUP2 EQ PUSH2 0x276E JUMPI PUSH0 DUP1 REVERT JUMPDEST POP JUMP JUMPDEST PUSH0 DUP2 CALLDATALOAD SWAP1 POP PUSH2 0x277F DUP2 PUSH2 0x275B JUMP JUMPDEST SWAP3 SWAP2 POP POP JUMP JUMPDEST PUSH0 DUP1 PUSH0 PUSH1 0x60 DUP5 DUP7 SUB SLT ISZERO PUSH2 0x279C JUMPI PUSH2 0x279B PUSH2 0x2335 JUMP JUMPDEST JUMPDEST PUSH0 PUSH2 0x27A9 DUP7 DUP3 DUP8 ADD PUSH2 0x2771 JUMP JUMPDEST SWAP4 POP POP PUSH1 0x20 PUSH2 0x27BA DUP7 DUP3 DUP8 ADD PUSH2 0x24F3 JUMP JUMPDEST SWAP3 POP POP PUSH1 0x40 PUSH2 0x27CB DUP7 DUP3 DUP8 ADD PUSH2 0x251D JUMP JUMPDEST SWAP2 POP POP SWAP3 POP SWAP3 POP SWAP3 JUMP JUMPDEST PUSH0 PUSH1 0x20 DUP3 DUP5 SUB SLT ISZERO PUSH2 0x27EA JUMPI PUSH2 0x27E9 PUSH2 0x2335 JUMP JUMPDEST JUMPDEST PUSH0 PUSH2 0x27F7 DUP5 DUP3 DUP6 ADD PUSH2 0x251D JUMP JUMPDEST SWAP2 POP POP SWAP3 SWAP2 POP POP JUMP JUMPDEST PUSH0 PUSH2 0x280A DUP3 PUSH2 0x24AD JUMP JUMPDEST SWAP1 POP SWAP2 SWAP1 POP JUMP JUMPDEST PUSH2 0x281A DUP2 PUSH2 0x2800 JUMP JUMPDEST DUP2 EQ PUSH2 0x2824 JUMPI PUSH0 DUP1 REVERT JUMPDEST POP JUMP JUMPDEST PUSH0 DUP2 CALLDATALOAD SWAP1 POP PUSH2 0x2835 DUP2 PUSH2 0x2811 JUMP JUMPDEST SWAP3 SWAP2 POP POP JUMP JUMPDEST PUSH0 DUP1 PUSH1 0x40 DUP4 DUP6 SUB SLT ISZERO PUSH2 0x2851 JUMPI PUSH2 0x2850 PUSH2 0x2335 JUMP JUMPDEST JUMPDEST PUSH0 PUSH2 0x285E DUP6 DUP3 DUP7 ADD PUSH2 0x2827 JUMP JUMPDEST SWAP3 POP POP PUSH1 0x20 PUSH2 0x286F DUP6 DUP3 DUP7 ADD PUSH2 0x251D JUMP JUMPDEST SWAP2 POP POP SWAP3 POP SWAP3 SWAP1 POP JUMP JUMPDEST PUSH0 PUSH1 0x20 DUP3 DUP5 SUB SLT ISZERO PUSH2 0x288E JUMPI PUSH2 0x288D PUSH2 0x2335 JUMP JUMPDEST JUMPDEST PUSH0 PUSH2 0x289B DUP5 DUP3 DUP6 ADD PUSH2 0x24F3 JUMP JUMPDEST SWAP2 POP POP SWAP3 SWAP2 POP POP JUMP JUMPDEST PUSH0 DUP1 PUSH1 0x40 DUP4 DUP6 SUB SLT ISZERO PUSH2 0x28BA JUMPI PUSH2 0x28B9 PUSH2 0x2335 JUMP JUMPDEST JUMPDEST PUSH0 PUSH2 0x28C7 DUP6 DUP3 DUP7 ADD PUSH2 0x24F3 JUMP JUMPDEST SWAP3 POP POP PUSH1 0x20 PUSH2 0x28D8 DUP6 DUP3 DUP7 ADD PUSH2 0x24F3 JUMP JUMPDEST SWAP2 POP POP SWAP3 POP SWAP3 SWAP1 POP JUMP JUMPDEST PUSH32 0x4E487B7100000000000000000000000000000000000000000000000000000000 PUSH0 MSTORE PUSH1 0x22 PUSH1 0x4 MSTORE PUSH1 0x24 PUSH0 REVERT JUMPDEST PUSH0 PUSH1 0x2 DUP3 DIV SWAP1 POP PUSH1 0x1 DUP3 AND DUP1 PUSH2 0x2926 JUMPI PUSH1 0x7F DUP3 AND SWAP2 POP JUMPDEST PUSH1 0x20 DUP3 LT DUP2 SUB PUSH2 0x2939 JUMPI PUSH2 0x2938 PUSH2 0x28E2 JUMP JUMPDEST JUMPDEST POP SWAP2 SWAP1 POP JUMP JUMPDEST PUSH2 0x2948 DUP2 PUSH2 0x24CC JUMP JUMPDEST DUP3 MSTORE POP POP JUMP JUMPDEST PUSH0 PUSH1 0x40 DUP3 ADD SWAP1 POP PUSH2 0x2961 PUSH0 DUP4 ADD DUP6 PUSH2 0x23F5 JUMP JUMPDEST PUSH2 0x296E PUSH1 0x20 DUP4 ADD DUP5 PUSH2 0x293F JUMP JUMPDEST SWAP4 SWAP3 POP POP POP JUMP JUMPDEST PUSH32 0x45524332303A207472616E7366657220616D6F756E7420657863656564732061 PUSH0 DUP3 ADD MSTORE PUSH32 0x6C6C6F77616E6365000000000000000000000000000000000000000000000000 PUSH1 0x20 DUP3 ADD MSTORE POP JUMP JUMPDEST PUSH0 PUSH2 0x29CF PUSH1 0x28 DUP4 PUSH2 0x2427 JUMP JUMPDEST SWAP2 POP PUSH2 0x29DA DUP3 PUSH2 0x2975 JUMP JUMPDEST PUSH1 0x40 DUP3 ADD SWAP1 POP SWAP2 SWAP1 POP JUMP JUMPDEST PUSH0 PUSH1 0x20 DUP3 ADD SWAP1 POP DUP2 DUP2 SUB PUSH0 DUP4 ADD MSTORE PUSH2 0x29FC DUP2 PUSH2 0x29C3 JUMP JUMPDEST SWAP1 POP SWAP2 SWAP1 POP JUMP JUMPDEST PUSH32 0x4E487B7100000000000000000000000000000000000000000000000000000000 PUSH0 MSTORE PUSH1 0x11 PUSH1 0x4 MSTORE PUSH1 0x24 PUSH0 REVERT JUMPDEST PUSH0 PUSH2 0x2A3A DUP3 PUSH2 0x23EC JUMP JUMPDEST SWAP2 POP PUSH2 0x2A45 DUP4 PUSH2 0x23EC JUMP JUMPDEST SWAP3 POP DUP3 DUP3 SUB SWAP1 POP DUP2 DUP2 GT ISZERO PUSH2 0x2A5D JUMPI PUSH2 0x2A5C PUSH2 0x2A03 JUMP JUMPDEST JUMPDEST SWAP3 SWAP2 POP POP JUMP JUMPDEST PUSH32 0x496E76616C696420616464726573730000000000000000000000000000000000 PUSH0 DUP3 ADD MSTORE POP JUMP JUMPDEST PUSH0 PUSH2 0x2A97 PUSH1 0xF DUP4 PUSH2 0x2427 JUMP JUMPDEST SWAP2 POP PUSH2 0x2AA2 DUP3 PUSH2 0x2A63 JUMP JUMPDEST PUSH1 0x20 DUP3 ADD SWAP1 POP SWAP2 SWAP1 POP JUMP JUMPDEST PUSH0 PUSH1 0x20 DUP3 ADD SWAP1 POP DUP2 DUP2 SUB PUSH0 DUP4 ADD MSTORE PUSH2 0x2AC4 DUP2 PUSH2 0x2A8B JUMP JUMPDEST SWAP1 POP SWAP2 SWAP1 POP JUMP JUMPDEST PUSH0 DUP2 SWAP1 POP SWAP2 SWAP1 POP JUMP JUMPDEST PUSH0 PUSH2 0x2AEE PUSH2 0x2AE9 PUSH2 0x2AE4 DUP5 PUSH2 0x24AD JUMP JUMPDEST PUSH2 0x2ACB JUMP JUMPDEST PUSH2 0x24AD JUMP JUMPDEST SWAP1 POP SWAP2 SWAP1 POP JUMP JUMPDEST PUSH0 PUSH2 0x2AFF DUP3 PUSH2 0x2AD4 JUMP JUMPDEST SWAP1 POP SWAP2 SWAP1 POP JUMP JUMPDEST PUSH0 PUSH2 0x2B10 DUP3 PUSH2 0x2AF5 JUMP JUMPDEST SWAP1 POP SWAP2 SWAP1 POP JUMP JUMPDEST PUSH2 0x2B20 DUP2 PUSH2 0x2B06 JUMP JUMPDEST DUP3 MSTORE POP POP JUMP JUMPDEST PUSH0 PUSH1 0x80 DUP3 ADD SWAP1 POP PUSH2 0x2B39 PUSH0 DUP4 ADD DUP8 PUSH2 0x2B17 JUMP JUMPDEST PUSH2 0x2B46 PUSH1 0x20 DUP4 ADD DUP7 PUSH2 0x23F5 JUMP JUMPDEST PUSH2 0x2B53 PUSH1 0x40 DUP4 ADD DUP6 PUSH2 0x293F JUMP JUMPDEST PUSH2 0x2B60 PUSH1 0x60 DUP4 ADD DUP5 PUSH2 0x23F5 JUMP JUMPDEST SWAP6 SWAP5 POP POP POP POP POP JUMP JUMPDEST PUSH32 0x436F6E74726163743A20436F6E74726163742069732050617573656400000000 PUSH0 DUP3 ADD MSTORE POP JUMP JUMPDEST PUSH0 PUSH2 0x2B9D PUSH1 0x1C DUP4 PUSH2 0x2427 JUMP JUMPDEST SWAP2 POP PUSH2 0x2BA8 DUP3 PUSH2 0x2B69 JUMP JUMPDEST PUSH1 0x20 DUP3 ADD SWAP1 POP SWAP2 SWAP1 POP JUMP JUMPDEST PUSH0 PUSH1 0x20 DUP3 ADD SWAP1 POP DUP2 DUP2 SUB PUSH0 DUP4 ADD MSTORE PUSH2 0x2BCA DUP2 PUSH2 0x2B91 JUMP JUMPDEST SWAP1 POP SWAP2 SWAP1 POP JUMP JUMPDEST PUSH32 0x4D696E74696E6720746F2064697361626C656400000000000000000000000000 PUSH0 DUP3 ADD MSTORE POP JUMP JUMPDEST PUSH0 PUSH2 0x2C05 PUSH1 0x13 DUP4 PUSH2 0x2427 JUMP JUMPDEST SWAP2 POP PUSH2 0x2C10 DUP3 PUSH2 0x2BD1 JUMP JUMPDEST PUSH1 0x20 DUP3 ADD SWAP1 POP SWAP2 SWAP1 POP JUMP JUMPDEST PUSH0 PUSH1 0x20 DUP3 ADD SWAP1 POP DUP2 DUP2 SUB PUSH0 DUP4 ADD MSTORE PUSH2 0x2C32 DUP2 PUSH2 0x2BF9 JUMP JUMPDEST SWAP1 POP SWAP2 SWAP1 POP JUMP JUMPDEST PUSH0 PUSH2 0x2C43 DUP3 PUSH2 0x23EC JUMP JUMPDEST SWAP2 POP PUSH2 0x2C4E DUP4 PUSH2 0x23EC JUMP JUMPDEST SWAP3 POP DUP3 DUP3 ADD SWAP1 POP DUP1 DUP3 GT ISZERO PUSH2 0x2C66 JUMPI PUSH2 0x2C65 PUSH2 0x2A03 JUMP JUMPDEST JUMPDEST SWAP3 SWAP2 POP POP JUMP JUMPDEST PUSH32 0x436F6E74726163743A20537570706C7920436170206578636565646564000000 PUSH0 DUP3 ADD MSTORE POP JUMP JUMPDEST PUSH0 PUSH2 0x2CA0 PUSH1 0x1D DUP4 PUSH2 0x2427 JUMP JUMPDEST SWAP2 POP PUSH2 0x2CAB DUP3 PUSH2 0x2C6C JUMP JUMPDEST PUSH1 0x20 DUP3 ADD SWAP1 POP SWAP2 SWAP1 POP JUMP JUMPDEST PUSH0 PUSH1 0x20 DUP3 ADD SWAP1 POP DUP2 DUP2 SUB PUSH0 DUP4 ADD MSTORE PUSH2 0x2CCD DUP2 PUSH2 0x2C94 JUMP JUMPDEST SWAP1 POP SWAP2 SWAP1 POP JUMP JUMPDEST PUSH0 PUSH1 0x40 DUP3 ADD SWAP1 POP PUSH2 0x2CE7 PUSH0 DUP4 ADD DUP6 PUSH2 0x293F JUMP JUMPDEST PUSH2 0x2CF4 PUSH1 0x20 DUP4 ADD DUP5 PUSH2 0x23F5 JUMP JUMPDEST SWAP4 SWAP3 POP POP POP JUMP JUMPDEST PUSH0 PUSH2 0x2D05 DUP3 PUSH2 0x2AF5 JUMP JUMPDEST SWAP1 POP SWAP2 SWAP1 POP JUMP JUMPDEST PUSH2 0x2D15 DUP2 PUSH2 0x2CFB JUMP JUMPDEST DUP3 MSTORE POP POP JUMP JUMPDEST PUSH0 PUSH1 0x60 DUP3 ADD SWAP1 POP PUSH2 0x2D2E PUSH0 DUP4 ADD DUP7 PUSH2 0x2D0C JUMP JUMPDEST PUSH2 0x2D3B PUSH1 0x20 DUP4 ADD DUP6 PUSH2 0x23F5 JUMP JUMPDEST PUSH2 0x2D48 PUSH1 0x40 DUP4 ADD DUP5 PUSH2 0x23F5 JUMP JUMPDEST SWAP5 SWAP4 POP POP POP POP JUMP JUMPDEST PUSH0 PUSH1 0x60 DUP3 ADD SWAP1 POP PUSH2 0x2D63 PUSH0 DUP4 ADD DUP7 PUSH2 0x293F JUMP JUMPDEST PUSH2 0x2D70 PUSH1 0x20 DUP4 ADD DUP6 PUSH2 0x23F5 JUMP JUMPDEST PUSH2 0x2D7D PUSH1 0x40 DUP4 ADD DUP5 PUSH2 0x293F JUMP JUMPDEST SWAP5 SWAP4 POP POP POP POP JUMP JUMPDEST PUSH32 0x4D696E74696E672064697361626C656400000000000000000000000000000000 PUSH0 DUP3 ADD MSTORE POP JUMP JUMPDEST PUSH0 PUSH2 0x2DB9 PUSH1 0x10 DUP4 PUSH2 0x2427 JUMP JUMPDEST SWAP2 POP PUSH2 0x2DC4 DUP3 PUSH2 0x2D85 JUMP JUMPDEST PUSH1 0x20 DUP3 ADD SWAP1 POP SWAP2 SWAP1 POP JUMP JUMPDEST PUSH0 PUSH1 0x20 DUP3 ADD SWAP1 POP DUP2 DUP2 SUB PUSH0 DUP4 ADD MSTORE PUSH2 0x2DE6 DUP2 PUSH2 0x2DAD JUMP JUMPDEST SWAP1 POP SWAP2 SWAP1 POP JUMP JUMPDEST PUSH32 0x436F6E74726163743A20537570706C792043617020746F6F206C6F7700000000 PUSH0 DUP3 ADD MSTORE POP JUMP JUMPDEST PUSH0 PUSH2 0x2E21 PUSH1 0x1C DUP4 PUSH2 0x2427 JUMP JUMPDEST SWAP2 POP PUSH2 0x2E2C DUP3 PUSH2 0x2DED JUMP JUMPDEST PUSH1 0x20 DUP3 ADD SWAP1 POP SWAP2 SWAP1 POP JUMP JUMPDEST PUSH0 PUSH1 0x20 DUP3 ADD SWAP1 POP DUP2 DUP2 SUB PUSH0 DUP4 ADD MSTORE PUSH2 0x2E4E DUP2 PUSH2 0x2E15 JUMP JUMPDEST SWAP1 POP SWAP2 SWAP1 POP JUMP JUMPDEST PUSH0 PUSH1 0x20 DUP3 ADD SWAP1 POP PUSH2 0x2E68 PUSH0 DUP4 ADD DUP5 PUSH2 0x293F JUMP JUMPDEST SWAP3 SWAP2 POP POP JUMP JUMPDEST PUSH0 PUSH1 0x40 DUP3 ADD SWAP1 POP PUSH2 0x2E81 PUSH0 DUP4 ADD DUP6 PUSH2 0x293F JUMP JUMPDEST PUSH2 0x2E8E PUSH1 0x20 DUP4 ADD DUP5 PUSH2 0x2672 JUMP JUMPDEST SWAP4 SWAP3 POP POP POP JUMP JUMPDEST PUSH0 PUSH1 0x60 DUP3 ADD SWAP1 POP PUSH2 0x2EA8 PUSH0 DUP4 ADD DUP7 PUSH2 0x293F JUMP JUMPDEST PUSH2 0x2EB5 PUSH1 0x20 DUP4 ADD DUP6 PUSH2 0x23F5 JUMP JUMPDEST PUSH2 0x2EC2 PUSH1 0x40 DUP4 ADD DUP5 PUSH2 0x23F5 JUMP JUMPDEST SWAP5 SWAP4 POP POP POP POP JUMP INVALID LOG2 PUSH5 0x6970667358 0x22 SLT KECCAK256 0xBF 0xF9 0xD0 ADD CALLDATASIZE BLOCKHASH 0xC6 0xEF CALLDATALOAD SGT DUP1 0xF 0xBC 0xCA 0x4B 0xD4 0x2E 0xEE JUMPI BYTE INVALID 0xAF PUSH31 0x5AD10EBF4B5198A3A364736F6C634300081A00330000000000000000000000 "
		},
		"gasEstimates": {
			"creation": {
				"codeDepositCost": "2406400",
				"executionCost": "infinite",
				"totalCost": "infinite"
			},
			"external": {
				"DEFAULT_ADMIN_ROLE()": "463",
				"_ADMIN()": "392",
				"_BURN()": "414",
				"_BURNFROM()": "458",
				"_MINT()": "437",
				"_MINTTO()": "393",
				"_RESCUE()": "415",
				"_SUPPLY()": "435",
				"_cap()": "2494",
				"allowance(address,address)": "infinite",
				"approve(address,uint256)": "infinite",
				"balanceOf(address)": "2984",
				"burn(uint256)": "infinite",
				"burnFrom(address,uint256)": "infinite",
				"decimals()": "472",
				"disableMint(bool)": "infinite",
				"disableMintTo(bool)": "infinite",
				"ethRescue(address,uint256)": "infinite",
				"getRoleAdmin(bytes32)": "infinite",
				"grantRole(bytes32,address)": "infinite",
				"hasRole(bytes32,address)": "3167",
				"mint(uint256)": "infinite",
				"mintDisabled()": "2584",
				"mintTo(address,uint256)": "infinite",
				"mintToDisabled()": "2650",
				"moveERC20(address,address,uint256)": "infinite",
				"name()": "infinite",
				"paused()": "2577",
				"renounceRole(bytes32,address)": "infinite",
				"revokeRole(bytes32,address)": "infinite",
				"setPaused(bool)": "infinite",
				"setSupplyCap(uint256)": "infinite",
				"setTxFee(uint256)": "25116",
				"setWhitelistAddress(address,bool)": "infinite",
				"supplyCap()": "2566",
				"supportsInterface(bytes4)": "764",
				"symbol()": "infinite",
				"totalSupply()": "2478",
				"transfer(address,uint256)": "infinite",
				"transferFrom(address,address,uint256)": "infinite",
				"txFee()": "2536",
				"whitelistedAddress(address)": "2922"
			}
		},
		"methodIdentifiers": {
			"DEFAULT_ADMIN_ROLE()": "a217fddf",
			"_ADMIN()": "51557289",
			"_BURN()": "53a4c31e",
			"_BURNFROM()": "6ba77a38",
			"_MINT()": "8ebed5b1",
			"_MINTTO()": "7e92a7fd",
			"_RESCUE()": "8d580b9f",
			"_SUPPLY()": "ea5cb532",
			"_cap()": "060cf4e8",
			"allowance(address,address)": "dd62ed3e",
			"approve(address,uint256)": "095ea7b3",
			"balanceOf(address)": "70a08231",
			"burn(uint256)": "42966c68",
			"burnFrom(address,uint256)": "79cc6790",
			"decimals()": "313ce567",
			"disableMint(bool)": "deb6db36",
			"disableMintTo(bool)": "f2250d3d",
			"ethRescue(address,uint256)": "48132f48",
			"getRoleAdmin(bytes32)": "248a9ca3",
			"grantRole(bytes32,address)": "2f2ff15d",
			"hasRole(bytes32,address)": "91d14854",
			"mint(uint256)": "a0712d68",
			"mintDisabled()": "956feccf",
			"mintTo(address,uint256)": "449a52f8",
			"mintToDisabled()": "d1c9f69b",
			"moveERC20(address,address,uint256)": "41f431fd",
			"name()": "06fdde03",
			"paused()": "5c975abb",
			"renounceRole(bytes32,address)": "36568abe",
			"revokeRole(bytes32,address)": "d547741f",
			"setPaused(bool)": "16c38b3c",
			"setSupplyCap(uint256)": "b6a3f59a",
			"setTxFee(uint256)": "f05d16f7",
			"setWhitelistAddress(address,bool)": "3f914aef",
			"supplyCap()": "8f770ad0",
			"supportsInterface(bytes4)": "01ffc9a7",
			"symbol()": "95d89b41",
			"totalSupply()": "18160ddd",
			"transfer(address,uint256)": "a9059cbb",
			"transferFrom(address,address,uint256)": "23b872dd",
			"txFee()": "cf820461",
			"whitelistedAddress(address)": "c30796ab"
		}
	},
	"abi": [
		{
			"inputs": [],
			"stateMutability": "nonpayable",
			"type": "constructor"
		},
		{
			"inputs": [],
			"name": "AccessControlBadConfirmation",
			"type": "error"
		},
		{
			"inputs": [
				{
					"internalType": "address",
					"name": "account",
					"type": "address"
				},
				{
					"internalType": "bytes32",
					"name": "neededRole",
					"type": "bytes32"
				}
			],
			"name": "AccessControlUnauthorizedAccount",
			"type": "error"
		},
		{
			"inputs": [
				{
					"internalType": "address",
					"name": "spender",
					"type": "address"
				},
				{
					"internalType": "uint256",
					"name": "allowance",
					"type": "uint256"
				},
				{
					"internalType": "uint256",
					"name": "needed",
					"type": "uint256"
				}
			],
			"name": "ERC20InsufficientAllowance",
			"type": "error"
		},
		{
			"inputs": [
				{
					"internalType": "address",
					"name": "sender",
					"type": "address"
				},
				{
					"internalType": "uint256",
					"name": "balance",
					"type": "uint256"
				},
				{
					"internalType": "uint256",
					"name": "needed",
					"type": "uint256"
				}
			],
			"name": "ERC20InsufficientBalance",
			"type": "error"
		},
		{
			"inputs": [
				{
					"internalType": "address",
					"name": "approver",
					"type": "address"
				}
			],
			"name": "ERC20InvalidApprover",
			"type": "error"
		},
		{
			"inputs": [
				{
					"internalType": "address",
					"name": "receiver",
					"type": "address"
				}
			],
			"name": "ERC20InvalidReceiver",
			"type": "error"
		},
		{
			"inputs": [
				{
					"internalType": "address",
					"name": "sender",
					"type": "address"
				}
			],
			"name": "ERC20InvalidSender",
			"type": "error"
		},
		{
			"inputs": [
				{
					"internalType": "address",
					"name": "spender",
					"type": "address"
				}
			],
			"name": "ERC20InvalidSpender",
			"type": "error"
		},
		{
			"inputs": [],
			"name": "ReentrancyGuardReentrantCall",
			"type": "error"
		},
		{
			"inputs": [
				{
					"internalType": "address",
					"name": "token",
					"type": "address"
				}
			],
			"name": "SafeERC20FailedOperation",
			"type": "error"
		},
		{
			"anonymous": false,
			"inputs": [
				{
					"indexed": true,
					"internalType": "address",
					"name": "owner",
					"type": "address"
				},
				{
					"indexed": true,
					"internalType": "address",
					"name": "spender",
					"type": "address"
				},
				{
					"indexed": false,
					"internalType": "uint256",
					"name": "value",
					"type": "uint256"
				}
			],
			"name": "Approval",
			"type": "event"
		},
		{
			"anonymous": false,
			"inputs": [
				{
					"indexed": false,
					"internalType": "uint256",
					"name": "_blockHeight",
					"type": "uint256"
				},
				{
					"indexed": false,
					"internalType": "address",
					"name": "_pausedBy",
					"type": "address"
				}
			],
			"name": "ContractPaused",
			"type": "event"
		},
		{
			"anonymous": false,
			"inputs": [
				{
					"indexed": false,
					"internalType": "uint256",
					"name": "_blockHeight",
					"type": "uint256"
				},
				{
					"indexed": false,
					"internalType": "address",
					"name": "_unpausedBy",
					"type": "address"
				}
			],
			"name": "ContractUnpaused",
			"type": "event"
		},
		{
			"anonymous": false,
			"inputs": [
				{
					"indexed": false,
					"internalType": "contract IERC20",
					"name": "_token",
					"type": "address"
				},
				{
					"indexed": false,
					"internalType": "uint256",
					"name": "_blockHeight",
					"type": "uint256"
				},
				{
					"indexed": false,
					"internalType": "address",
					"name": "_dest",
					"type": "address"
				},
				{
					"indexed": false,
					"internalType": "uint256",
					"name": "_amount",
					"type": "uint256"
				}
			],
			"name": "ERC20Rescued",
			"type": "event"
		},
		{
			"anonymous": false,
			"inputs": [
				{
					"indexed": false,
					"internalType": "address",
					"name": "_dest",
					"type": "address"
				},
				{
					"indexed": false,
					"internalType": "uint256",
					"name": "_blockHeight",
					"type": "uint256"
				},
				{
					"indexed": false,
					"internalType": "uint256",
					"name": "_amount",
					"type": "uint256"
				}
			],
			"name": "ETHRescued",
			"type": "event"
		},
		{
			"anonymous": false,
			"inputs": [
				{
					"indexed": false,
					"internalType": "uint256",
					"name": "_blockHeight",
					"type": "uint256"
				},
				{
					"indexed": false,
					"internalType": "address",
					"name": "_disabledBy",
					"type": "address"
				}
			],
			"name": "MintingDisabled",
			"type": "event"
		},
		{
			"anonymous": false,
			"inputs": [
				{
					"indexed": false,
					"internalType": "uint256",
					"name": "_blockHeight",
					"type": "uint256"
				},
				{
					"indexed": false,
					"internalType": "address",
					"name": "_enabledBy",
					"type": "address"
				}
			],
			"name": "MintingEnabled",
			"type": "event"
		},
		{
			"anonymous": false,
			"inputs": [
				{
					"indexed": false,
					"internalType": "uint256",
					"name": "_blockHeight",
					"type": "uint256"
				},
				{
					"indexed": false,
					"internalType": "address",
					"name": "_disabledBy",
					"type": "address"
				}
			],
			"name": "MintingToDisabled",
			"type": "event"
		},
		{
			"anonymous": false,
			"inputs": [
				{
					"indexed": false,
					"internalType": "uint256",
					"name": "_blockHeight",
					"type": "uint256"
				},
				{
					"indexed": false,
					"internalType": "address",
					"name": "_enabledBy",
					"type": "address"
				}
			],
			"name": "MintingToEnabled",
			"type": "event"
		},
		{
			"anonymous": false,
			"inputs": [
				{
					"indexed": true,
					"internalType": "bytes32",
					"name": "role",
					"type": "bytes32"
				},
				{
					"indexed": true,
					"internalType": "bytes32",
					"name": "previousAdminRole",
					"type": "bytes32"
				},
				{
					"indexed": true,
					"internalType": "bytes32",
					"name": "newAdminRole",
					"type": "bytes32"
				}
			],
			"name": "RoleAdminChanged",
			"type": "event"
		},
		{
			"anonymous": false,
			"inputs": [
				{
					"indexed": true,
					"internalType": "bytes32",
					"name": "role",
					"type": "bytes32"
				},
				{
					"indexed": true,
					"internalType": "address",
					"name": "account",
					"type": "address"
				},
				{
					"indexed": true,
					"internalType": "address",
					"name": "sender",
					"type": "address"
				}
			],
			"name": "RoleGranted",
			"type": "event"
		},
		{
			"anonymous": false,
			"inputs": [
				{
					"indexed": true,
					"internalType": "bytes32",
					"name": "role",
					"type": "bytes32"
				},
				{
					"indexed": true,
					"internalType": "address",
					"name": "account",
					"type": "address"
				},
				{
					"indexed": true,
					"internalType": "address",
					"name": "sender",
					"type": "address"
				}
			],
			"name": "RoleRevoked",
			"type": "event"
		},
		{
			"anonymous": false,
			"inputs": [
				{
					"indexed": false,
					"internalType": "uint256",
					"name": "_newCap",
					"type": "uint256"
				},
				{
					"indexed": false,
					"internalType": "address",
					"name": "_changedBy",
					"type": "address"
				}
			],
			"name": "SupplyCapChanged",
			"type": "event"
		},
		{
			"anonymous": false,
			"inputs": [
				{
					"indexed": false,
					"internalType": "uint256",
					"name": "_amount",
					"type": "uint256"
				},
				{
					"indexed": false,
					"internalType": "address",
					"name": "_burner",
					"type": "address"
				}
			],
			"name": "TokensBurned",
			"type": "event"
		},
		{
			"anonymous": false,
			"inputs": [
				{
					"indexed": false,
					"internalType": "address",
					"name": "_from",
					"type": "address"
				},
				{
					"indexed": false,
					"internalType": "uint256",
					"name": "_amount",
					"type": "uint256"
				},
				{
					"indexed": false,
					"internalType": "address",
					"name": "_burner",
					"type": "address"
				}
			],
			"name": "TokensBurnedFrom",
			"type": "event"
		},
		{
			"anonymous": false,
			"inputs": [
				{
					"indexed": false,
					"internalType": "uint256",
					"name": "_amount",
					"type": "uint256"
				}
			],
			"name": "TokensMinted",
			"type": "event"
		},
		{
			"anonymous": false,
			"inputs": [
				{
					"indexed": false,
					"internalType": "address",
					"name": "_to",
					"type": "address"
				},
				{
					"indexed": false,
					"internalType": "uint256",
					"name": "_amount",
					"type": "uint256"
				}
			],
			"name": "TokensMintedTo",
			"type": "event"
		},
		{
			"anonymous": false,
			"inputs": [
				{
					"indexed": true,
					"internalType": "address",
					"name": "from",
					"type": "address"
				},
				{
					"indexed": true,
					"internalType": "address",
					"name": "to",
					"type": "address"
				},
				{
					"indexed": false,
					"internalType": "uint256",
					"name": "value",
					"type": "uint256"
				}
			],
			"name": "Transfer",
			"type": "event"
		},
		{
			"inputs": [],
			"name": "DEFAULT_ADMIN_ROLE",
			"outputs": [
				{
					"internalType": "bytes32",
					"name": "",
					"type": "bytes32"
				}
			],
			"stateMutability": "view",
			"type": "function"
		},
		{
			"inputs": [],
			"name": "_ADMIN",
			"outputs": [
				{
					"internalType": "bytes32",
					"name": "",
					"type": "bytes32"
				}
			],
			"stateMutability": "view",
			"type": "function"
		},
		{
			"inputs": [],
			"name": "_BURN",
			"outputs": [
				{
					"internalType": "bytes32",
					"name": "",
					"type": "bytes32"
				}
			],
			"stateMutability": "view",
			"type": "function"
		},
		{
			"inputs": [],
			"name": "_BURNFROM",
			"outputs": [
				{
					"internalType": "bytes32",
					"name": "",
					"type": "bytes32"
				}
			],
			"stateMutability": "view",
			"type": "function"
		},
		{
			"inputs": [],
			"name": "_MINT",
			"outputs": [
				{
					"internalType": "bytes32",
					"name": "",
					"type": "bytes32"
				}
			],
			"stateMutability": "view",
			"type": "function"
		},
		{
			"inputs": [],
			"name": "_MINTTO",
			"outputs": [
				{
					"internalType": "bytes32",
					"name": "",
					"type": "bytes32"
				}
			],
			"stateMutability": "view",
			"type": "function"
		},
		{
			"inputs": [],
			"name": "_RESCUE",
			"outputs": [
				{
					"internalType": "bytes32",
					"name": "",
					"type": "bytes32"
				}
			],
			"stateMutability": "view",
			"type": "function"
		},
		{
			"inputs": [],
			"name": "_SUPPLY",
			"outputs": [
				{
					"internalType": "bytes32",
					"name": "",
					"type": "bytes32"
				}
			],
			"stateMutability": "view",
			"type": "function"
		},
		{
			"inputs": [],
			"name": "_cap",
			"outputs": [
				{
					"internalType": "uint256",
					"name": "",
					"type": "uint256"
				}
			],
			"stateMutability": "view",
			"type": "function"
		},
		{
			"inputs": [
				{
					"internalType": "address",
					"name": "owner",
					"type": "address"
				},
				{
					"internalType": "address",
					"name": "spender",
					"type": "address"
				}
			],
			"name": "allowance",
			"outputs": [
				{
					"internalType": "uint256",
					"name": "",
					"type": "uint256"
				}
			],
			"stateMutability": "view",
			"type": "function"
		},
		{
			"inputs": [
				{
					"internalType": "address",
					"name": "spender",
					"type": "address"
				},
				{
					"internalType": "uint256",
					"name": "value",
					"type": "uint256"
				}
			],
			"name": "approve",
			"outputs": [
				{
					"internalType": "bool",
					"name": "",
					"type": "bool"
				}
			],
			"stateMutability": "nonpayable",
			"type": "function"
		},
		{
			"inputs": [
				{
					"internalType": "address",
					"name": "account",
					"type": "address"
				}
			],
			"name": "balanceOf",
			"outputs": [
				{
					"internalType": "uint256",
					"name": "",
					"type": "uint256"
				}
			],
			"stateMutability": "view",
			"type": "function"
		},
		{
			"inputs": [
				{
					"internalType": "uint256",
					"name": "_amount",
					"type": "uint256"
				}
			],
			"name": "burn",
			"outputs": [],
			"stateMutability": "nonpayable",
			"type": "function"
		},
		{
			"inputs": [
				{
					"internalType": "address",
					"name": "_from",
					"type": "address"
				},
				{
					"internalType": "uint256",
					"name": "_amount",
					"type": "uint256"
				}
			],
			"name": "burnFrom",
			"outputs": [],
			"stateMutability": "nonpayable",
			"type": "function"
		},
		{
			"inputs": [],
			"name": "decimals",
			"outputs": [
				{
					"internalType": "uint8",
					"name": "",
					"type": "uint8"
				}
			],
			"stateMutability": "view",
			"type": "function"
		},
		{
			"inputs": [
				{
					"internalType": "bool",
					"name": "_disableMinting",
					"type": "bool"
				}
			],
			"name": "disableMint",
			"outputs": [],
			"stateMutability": "nonpayable",
			"type": "function"
		},
		{
			"inputs": [
				{
					"internalType": "bool",
					"name": "_disableMintTo",
					"type": "bool"
				}
			],
			"name": "disableMintTo",
			"outputs": [],
			"stateMutability": "nonpayable",
			"type": "function"
		},
		{
			"inputs": [
				{
					"internalType": "address payable",
					"name": "_dest",
					"type": "address"
				},
				{
					"internalType": "uint256",
					"name": "_etherAmount",
					"type": "uint256"
				}
			],
			"name": "ethRescue",
			"outputs": [],
			"stateMutability": "nonpayable",
			"type": "function"
		},
		{
			"inputs": [
				{
					"internalType": "bytes32",
					"name": "role",
					"type": "bytes32"
				}
			],
			"name": "getRoleAdmin",
			"outputs": [
				{
					"internalType": "bytes32",
					"name": "",
					"type": "bytes32"
				}
			],
			"stateMutability": "view",
			"type": "function"
		},
		{
			"inputs": [
				{
					"internalType": "bytes32",
					"name": "role",
					"type": "bytes32"
				},
				{
					"internalType": "address",
					"name": "account",
					"type": "address"
				}
			],
			"name": "grantRole",
			"outputs": [],
			"stateMutability": "nonpayable",
			"type": "function"
		},
		{
			"inputs": [
				{
					"internalType": "bytes32",
					"name": "role",
					"type": "bytes32"
				},
				{
					"internalType": "address",
					"name": "account",
					"type": "address"
				}
			],
			"name": "hasRole",
			"outputs": [
				{
					"internalType": "bool",
					"name": "",
					"type": "bool"
				}
			],
			"stateMutability": "view",
			"type": "function"
		},
		{
			"inputs": [
				{
					"internalType": "uint256",
					"name": "_amount",
					"type": "uint256"
				}
			],
			"name": "mint",
			"outputs": [],
			"stateMutability": "nonpayable",
			"type": "function"
		},
		{
			"inputs": [],
			"name": "mintDisabled",
			"outputs": [
				{
					"internalType": "bool",
					"name": "",
					"type": "bool"
				}
			],
			"stateMutability": "view",
			"type": "function"
		},
		{
			"inputs": [
				{
					"internalType": "address",
					"name": "_to",
					"type": "address"
				},
				{
					"internalType": "uint256",
					"name": "_amount",
					"type": "uint256"
				}
			],
			"name": "mintTo",
			"outputs": [],
			"stateMutability": "nonpayable",
			"type": "function"
		},
		{
			"inputs": [],
			"name": "mintToDisabled",
			"outputs": [
				{
					"internalType": "bool",
					"name": "",
					"type": "bool"
				}
			],
			"stateMutability": "view",
			"type": "function"
		},
		{
			"inputs": [
				{
					"internalType": "contract IERC20",
					"name": "_ERC20",
					"type": "address"
				},
				{
					"internalType": "address",
					"name": "_dest",
					"type": "address"
				},
				{
					"internalType": "uint256",
					"name": "_ERC20Amount",
					"type": "uint256"
				}
			],
			"name": "moveERC20",
			"outputs": [],
			"stateMutability": "nonpayable",
			"type": "function"
		},
		{
			"inputs": [],
			"name": "name",
			"outputs": [
				{
					"internalType": "string",
					"name": "",
					"type": "string"
				}
			],
			"stateMutability": "view",
			"type": "function"
		},
		{
			"inputs": [],
			"name": "paused",
			"outputs": [
				{
					"internalType": "bool",
					"name": "",
					"type": "bool"
				}
			],
			"stateMutability": "view",
			"type": "function"
		},
		{
			"inputs": [
				{
					"internalType": "bytes32",
					"name": "role",
					"type": "bytes32"
				},
				{
					"internalType": "address",
					"name": "callerConfirmation",
					"type": "address"
				}
			],
			"name": "renounceRole",
			"outputs": [],
			"stateMutability": "nonpayable",
			"type": "function"
		},
		{
			"inputs": [
				{
					"internalType": "bytes32",
					"name": "role",
					"type": "bytes32"
				},
				{
					"internalType": "address",
					"name": "account",
					"type": "address"
				}
			],
			"name": "revokeRole",
			"outputs": [],
			"stateMutability": "nonpayable",
			"type": "function"
		},
		{
			"inputs": [
				{
					"internalType": "bool",
					"name": "_paused",
					"type": "bool"
				}
			],
			"name": "setPaused",
			"outputs": [],
			"stateMutability": "nonpayable",
			"type": "function"
		},
		{
			"inputs": [
				{
					"internalType": "uint256",
					"name": "_supplyCap",
					"type": "uint256"
				}
			],
			"name": "setSupplyCap",
			"outputs": [],
			"stateMutability": "nonpayable",
			"type": "function"
		},
		{
			"inputs": [
				{
					"internalType": "uint256",
					"name": "_newFee",
					"type": "uint256"
				}
			],
			"name": "setTxFee",
			"outputs": [],
			"stateMutability": "nonpayable",
			"type": "function"
		},
		{
			"inputs": [
				{
					"internalType": "address",
					"name": "_whitelist",
					"type": "address"
				},
				{
					"internalType": "bool",
					"name": "_status",
					"type": "bool"
				}
			],
			"name": "setWhitelistAddress",
			"outputs": [],
			"stateMutability": "nonpayable",
			"type": "function"
		},
		{
			"inputs": [],
			"name": "supplyCap",
			"outputs": [
				{
					"internalType": "uint256",
					"name": "",
					"type": "uint256"
				}
			],
			"stateMutability": "view",
			"type": "function"
		},
		{
			"inputs": [
				{
					"internalType": "bytes4",
					"name": "interfaceId",
					"type": "bytes4"
				}
			],
			"name": "supportsInterface",
			"outputs": [
				{
					"internalType": "bool",
					"name": "",
					"type": "bool"
				}
			],
			"stateMutability": "view",
			"type": "function"
		},
		{
			"inputs": [],
			"name": "symbol",
			"outputs": [
				{
					"internalType": "string",
					"name": "",
					"type": "string"
				}
			],
			"stateMutability": "view",
			"type": "function"
		},
		{
			"inputs": [],
			"name": "totalSupply",
			"outputs": [
				{
					"internalType": "uint256",
					"name": "",
					"type": "uint256"
				}
			],
			"stateMutability": "view",
			"type": "function"
		},
		{
			"inputs": [
				{
					"internalType": "address",
					"name": "to",
					"type": "address"
				},
				{
					"internalType": "uint256",
					"name": "value",
					"type": "uint256"
				}
			],
			"name": "transfer",
			"outputs": [
				{
					"internalType": "bool",
					"name": "",
					"type": "bool"
				}
			],
			"stateMutability": "nonpayable",
			"type": "function"
		},
		{
			"inputs": [
				{
					"internalType": "address",
					"name": "from",
					"type": "address"
				},
				{
					"internalType": "address",
					"name": "to",
					"type": "address"
				},
				{
					"internalType": "uint256",
					"name": "value",
					"type": "uint256"
				}
			],
			"name": "transferFrom",
			"outputs": [
				{
					"internalType": "bool",
					"name": "",
					"type": "bool"
				}
			],
			"stateMutability": "nonpayable",
			"type": "function"
		},
		{
			"inputs": [],
			"name": "txFee",
			"outputs": [
				{
					"internalType": "uint256",
					"name": "",
					"type": "uint256"
				}
			],
			"stateMutability": "view",
			"type": "function"
		},
		{
			"inputs": [
				{
					"internalType": "address",
					"name": "",
					"type": "address"
				}
			],
			"name": "whitelistedAddress",
			"outputs": [
				{
					"internalType": "bool",
					"name": "",
					"type": "bool"
				}
			],
			"stateMutability": "view",
			"type": "function"
		}
	]
}