{
	"data": {
		"bytecode": {
			"linkReferences": {
				"remix_tests.sol": {
					"Assert": [
						{
							"length": 20,
							"start": 792
						},
						{
							"length": 20,
							"start": 1064
						},
						{
							"length": 20,
							"start": 1186
						},
						{
							"length": 20,
							"start": 1710
						},
						{
							"length": 20,
							"start": 1885
						},
						{
							"length": 20,
							"start": 2012
						},
						{
							"length": 20,
							"start": 2906
						},
						{
							"length": 20,
							"start": 3178
						}
					]
				},
				"src/hex.sol": {
					"hextool": [
						{
							"length": 20,
							"start": 14039
						},
						{
							"length": 20,
							"start": 16510
						}
					]
				}
			},
			"object": "60806040523060015f6101000a81548173ffffffffffffffffffffffffffffffffffffffff021916908373ffffffffffffffffffffffffffffffffffffffff16021790555073123456789012345678901234567890123456789060025f6101000a81548173ffffffffffffffffffffffffffffffffffffffff021916908373ffffffffffffffffffffffffffffffffffffffff16021790555034801560a2575f80fd5b5061705d806100b05f395ff3fe608060405234801561000f575f80fd5b506004361061004a575f3560e01c80633185b7881461004e5780637fea0d4b14610058578063ef00610c14610062578063f3f221e41461006c575b5f80fd5b610056610076565b005b61006061046f565b005b61006a610534565b005b6100746107a4565b005b5f805f9054906101000a900473ffffffffffffffffffffffffffffffffffffffff1673ffffffffffffffffffffffffffffffffffffffff166318160ddd6040518163ffffffff1660e01b8152600401602060405180830381865afa1580156100e0573d5f803e3d5ffd5b505050506040513d601f19601f820116820180604052508101906101049190610c83565b90505f8054906101000a900473ffffffffffffffffffffffffffffffffffffffff1673ffffffffffffffffffffffffffffffffffffffff1663926427446658d15e1762800060016040518363ffffffff1660e01b81526004016101679190610cf0565b60206040518083038185885af1158015610183573d5f803e3d5ffd5b50505050506040513d601f19601f820116820180604052508101906101a89190610c83565b505f805f8054906101000a900473ffffffffffffffffffffffffffffffffffffffff1673ffffffffffffffffffffffffffffffffffffffff16631ab0d49e60015f9054906101000a900473ffffffffffffffffffffffffffffffffffffffff166040518263ffffffff1660e01b81526004016102249190610d48565b6040805180830381865afa15801561023e573d5f803e3d5ffd5b505050506040513d601f19601f820116820180604052508101906102629190610d96565b9150915073__$acbfb1c35000d78352310b16a054a6b106$__63abcd79605f8054906101000a900473ffffffffffffffffffffffffffffffffffffffff1673ffffffffffffffffffffffffffffffffffffffff166318160ddd6040518163ffffffff1660e01b8152600401602060405180830381865afa1580156102e8573d5f803e3d5ffd5b505050506040513d601f19601f8201168201806040525081019061030c9190610c83565b6001866103199190610e01565b6040518363ffffffff1660e01b8152600401610336929190610ec3565b602060405180830381865af4158015610351573d5f803e3d5ffd5b505050506040513d601f19601f820116820180604052508101906103759190610efd565b5073__$acbfb1c35000d78352310b16a054a6b106$__63abcd79608360016040518363ffffffff1660e01b81526004016103b0929190610fa7565b602060405180830381865af41580156103cb573d5f803e3d5ffd5b505050506040513d601f19601f820116820180604052508101906103ef9190610efd565b5073__$acbfb1c35000d78352310b16a054a6b106$__63767392b38260016040518363ffffffff1660e01b815260040161042a92919061103a565b602060405180830381865af4158015610445573d5f803e3d5ffd5b505050506040513d601f19601f820116820180604052508101906104699190610efd565b50505050565b5f8069021e19e0c9bab240000060015f9054906101000a900473ffffffffffffffffffffffffffffffffffffffff1660015f9054906101000a900473ffffffffffffffffffffffffffffffffffffffff166040516104cc90610c36565b6104d99493929190611159565b604051809103905ff0801580156104f2573d5f803e3d5ffd5b505f806101000a81548173ffffffffffffffffffffffffffffffffffffffff021916908373ffffffffffffffffffffffffffffffffffffffff16021790555050565b5f8054906101000a900473ffffffffffffffffffffffffffffffffffffffff1673ffffffffffffffffffffffffffffffffffffffff1663926427446658d15e1762800060016040518363ffffffff1660e01b81526004016105959190610cf0565b60206040518083038185885af1935050505080156105d157506040513d601f19601f820116820180604052508101906105ce9190610c83565b60015b610729576105dd6111bb565b806308c379a00361067957506105f1611248565b806105fc575061067b565b73__$acbfb1c35000d78352310b16a054a6b106$__63e8c2cb16826040518263ffffffff1660e01b815260040161063391906113e1565b602060405180830381865af415801561064e573d5f803e3d5ffd5b505050506040513d601f19601f820116820180604052508101906106729190610efd565b5050610724565b505b3d805f81146106a5576040519150601f19603f3d011682016040523d82523d5f602084013e6106aa565b606091505b5073__$acbfb1c35000d78352310b16a054a6b106$__6339df137f5f6040518263ffffffff1660e01b81526004016106e29190611471565b602060405180830381865af41580156106fd573d5f803e3d5ffd5b505050506040513d601f19601f820116820180604052508101906107219190610efd565b50505b6107a2565b5073__$acbfb1c35000d78352310b16a054a6b106$__6339df137f5f6040518263ffffffff1660e01b8152600401610761919061150d565b602060405180830381865af415801561077c573d5f803e3d5ffd5b505050506040513d601f19601f820116820180604052508101906107a09190610efd565b505b565b5f8054906101000a900473ffffffffffffffffffffffffffffffffffffffff1673ffffffffffffffffffffffffffffffffffffffff1663926427446658d15e1762800060016040518363ffffffff1660e01b81526004016108059190610cf0565b60206040518083038185885af1158015610821573d5f803e3d5ffd5b50505050506040513d601f19601f820116820180604052508101906108469190610c83565b505f805f9054906101000a900473ffffffffffffffffffffffffffffffffffffffff1673ffffffffffffffffffffffffffffffffffffffff166318160ddd6040518163ffffffff1660e01b8152600401602060405180830381865afa1580156108b1573d5f803e3d5ffd5b505050506040513d601f19601f820116820180604052508101906108d59190610c83565b90505f805f9054906101000a900473ffffffffffffffffffffffffffffffffffffffff1673ffffffffffffffffffffffffffffffffffffffff166318160ddd6040518163ffffffff1660e01b8152600401602060405180830381865afa158015610941573d5f803e3d5ffd5b505050506040513d601f19601f820116820180604052508101906109659190610c83565b90505f8054906101000a900473ffffffffffffffffffffffffffffffffffffffff1673ffffffffffffffffffffffffffffffffffffffff16632890e0d7836040518263ffffffff1660e01b81526004016109bf9190611548565b5f604051808303815f87803b1580156109d6575f80fd5b505af11580156109e8573d5f803e3d5ffd5b505050505f805f9054906101000a900473ffffffffffffffffffffffffffffffffffffffff1673ffffffffffffffffffffffffffffffffffffffff16631ab0d49e60015f9054906101000a900473ffffffffffffffffffffffffffffffffffffffff166040518263ffffffff1660e01b8152600401610a679190610d48565b6040805180830381865afa158015610a81573d5f803e3d5ffd5b505050506040513d601f19601f82011682018060405250810190610aa59190610d96565b91505073__$acbfb1c35000d78352310b16a054a6b106$__63abcd79605f8054906101000a900473ffffffffffffffffffffffffffffffffffffffff1673ffffffffffffffffffffffffffffffffffffffff166318160ddd6040518163ffffffff1660e01b8152600401602060405180830381865afa158015610b2a573d5f803e3d5ffd5b505050506040513d601f19601f82011682018060405250810190610b4e9190610c83565b600185610b5b9190611561565b6040518363ffffffff1660e01b8152600401610b78929190611604565b602060405180830381865af4158015610b93573d5f803e3d5ffd5b505050506040513d601f19601f82011682018060405250810190610bb79190610efd565b5073__$acbfb1c35000d78352310b16a054a6b106$__63767392b3825f6040518363ffffffff1660e01b8152600401610bf19291906116ae565b602060405180830381865af4158015610c0c573d5f803e3d5ffd5b505050506040513d601f19601f82011682018060405250810190610c309190610efd565b50505050565b61593f806116e983390190565b5f604051905090565b5f80fd5b5f819050919050565b610c6281610c50565b8114610c6c575f80fd5b50565b5f81519050610c7d81610c59565b92915050565b5f60208284031215610c9857610c97610c4c565b5b5f610ca584828501610c6f565b91505092915050565b5f819050919050565b5f819050919050565b5f610cda610cd5610cd084610cae565b610cb7565b610c50565b9050919050565b610cea81610cc0565b82525050565b5f602082019050610d035f830184610ce1565b92915050565b5f73ffffffffffffffffffffffffffffffffffffffff82169050919050565b5f610d3282610d09565b9050919050565b610d4281610d28565b82525050565b5f602082019050610d5b5f830184610d39565b92915050565b5f8115159050919050565b610d7581610d61565b8114610d7f575f80fd5b50565b5f81519050610d9081610d6c565b92915050565b5f8060408385031215610dac57610dab610c4c565b5b5f610db985828601610c6f565b9250506020610dca85828601610d82565b9150509250929050565b7f4e487b71000000000000000000000000000000000000000000000000000000005f52601160045260245ffd5b5f610e0b82610c50565b9150610e1683610c50565b9250828201905080821115610e2e57610e2d610dd4565b5b92915050565b610e3d81610c50565b82525050565b5f82825260208201905092915050565b7f546f74616c20737570706c792073686f756c6420696e637265617365206279205f8201527f3100000000000000000000000000000000000000000000000000000000000000602082015250565b5f610ead602183610e43565b9150610eb882610e53565b604082019050919050565b5f606082019050610ed65f830185610e34565b610ee36020830184610e34565b8181036040830152610ef481610ea1565b90509392505050565b5f60208284031215610f1257610f11610c4c565b5b5f610f1f84828501610d82565b91505092915050565b610f3181610cc0565b82525050565b7f4f776e65722073686f756c64206861766520616e204e4654206f66206c6576655f8201527f6c20310000000000000000000000000000000000000000000000000000000000602082015250565b5f610f91602383610e43565b9150610f9c82610f37565b604082019050919050565b5f606082019050610fba5f830185610e34565b610fc76020830184610f28565b8181036040830152610fd881610f85565b90509392505050565b610fea81610d61565b82525050565b7f4f776e65722073686f756c64206861766520616e204e465400000000000000005f82015250565b5f611024601883610e43565b915061102f82610ff0565b602082019050919050565b5f60608201905061104d5f830185610fe1565b61105a6020830184610fe1565b818103604083015261106b81611018565b90509392505050565b5f82825260208201905092915050565b7f68747470733a2f2f6578616d706c652e636f6d2f0000000000000000000000005f82015250565b5f6110b8601483611074565b91506110c382611084565b602082019050919050565b5f6110e86110e36110de84610d09565b610cb7565b610d09565b9050919050565b5f6110f9826110ce565b9050919050565b5f61110a826110ef565b9050919050565b61111a81611100565b82525050565b5f819050919050565b5f61114361113e61113984611120565b610cb7565b610c50565b9050919050565b61115381611129565b82525050565b5f60a0820190508181035f830152611170816110ac565b905061117f6020830187611111565b61118c604083018661114a565b6111996060830185610d39565b6111a66080830184610d39565b95945050505050565b5f8160e01c9050919050565b5f60033d11156111d75760045f803e6111d45f516111af565b90505b90565b5f601f19601f8301169050919050565b7f4e487b71000000000000000000000000000000000000000000000000000000005f52604160045260245ffd5b611220826111da565b810181811067ffffffffffffffff8211171561123f5761123e6111ea565b5b80604052505050565b5f60443d106112d457611259610c43565b60043d036004823e80513d602482011167ffffffffffffffff821117156112815750506112d4565b808201805167ffffffffffffffff81111561129f57505050506112d4565b80602083010160043d0385018111156112bc5750505050506112d4565b6112cb82602001850186611217565b82955050505050505b90565b5f81519050919050565b8281835e5f83830152505050565b5f6112f9826112d7565b6113038185610e43565b93506113138185602086016112e1565b61131c816111da565b840191505092915050565b7f546f6b656e2042616c616e6365000000000000000000000000000000000000005f82015250565b5f61135b600d83610e43565b915061136682611327565b602082019050919050565b7f53686f756c642072657665727420776974682027546f6b656e2042616c616e635f8201527f6527000000000000000000000000000000000000000000000000000000000000602082015250565b5f6113cb602283610e43565b91506113d682611371565b604082019050919050565b5f6060820190508181035f8301526113f981846112ef565b9050818103602083015261140c8161134f565b9050818103604083015261141f816113bf565b905092915050565b7f556e6578706563746564206572726f72000000000000000000000000000000005f82015250565b5f61145b601083610e43565b915061146682611427565b602082019050919050565b5f6040820190506114845f830184610fe1565b81810360208301526114958161144f565b905092915050565b7f546869732073686f756c64206661696c2064756520746f20696e7375666669635f8201527f69656e7420746f6b656e73000000000000000000000000000000000000000000602082015250565b5f6114f7602b83610e43565b91506115028261149d565b604082019050919050565b5f6040820190506115205f830184610fe1565b8181036020830152611531816114eb565b905092915050565b61154281610c50565b82525050565b5f60208201905061155b5f830184611539565b92915050565b5f61156b82610c50565b915061157683610c50565b925082820390508181111561158e5761158d610dd4565b5b92915050565b7f546f74616c20737570706c792073686f756c64206465637265617365206279205f8201527f3100000000000000000000000000000000000000000000000000000000000000602082015250565b5f6115ee602183610e43565b91506115f982611594565b604082019050919050565b5f6060820190506116175f830185610e34565b6116246020830184610e34565b8181036040830152611635816115e2565b90509392505050565b7f4f776e65722073686f756c64206e6f206c6f6e676572206861766520616e204e5f8201527f4654000000000000000000000000000000000000000000000000000000000000602082015250565b5f611698602283610e43565b91506116a38261163e565b604082019050919050565b5f6060820190506116c15f830185610fe1565b6116ce6020830184610fe1565b81810360408301526116df8161168c565b9050939250505056fe608060405234801561000f575f80fd5b5060405161593f38038061593f83398181016040528101906100319190610614565b6040518060400160405280600681526020017f4e65774e465400000000000000000000000000000000000000000000000000008152506040518060400160405280600381526020017f4e46540000000000000000000000000000000000000000000000000000000000815250815f90816100ab91906108ab565b5080600190816100bb91906108ab565b505050600160088190555084600e90816100d591906108ab565b5083600c5f6101000a81548173ffffffffffffffffffffffffffffffffffffffff021916908373ffffffffffffffffffffffffffffffffffffffff16021790555082600b8190555067d02ab486cedc0000600f819055508160105f6101000a81548173ffffffffffffffffffffffffffffffffffffffff021916908373ffffffffffffffffffffffffffffffffffffffff16021790555080600d5f6101000a81548173ffffffffffffffffffffffffffffffffffffffff021916908373ffffffffffffffffffffffffffffffffffffffff1602179055506040518060c00160405280603281526020016064815260200160c881526020015f81526020015f81526020015f81525060115f820151815f01556020820151816001015560408201518160020155606082015181600301556080820151816004015560a08201518160050155905050604051806060016040528069021e19e0c9bab2400000815260200169010f0cf064dd59200000815260200168878678326eac90000081525060175f820151815f015560208201518160010155604082015181600201559050506102935f801b61028861029e60201b60201c565b6102a560201b60201c565b50505050505061097a565b5f33905090565b5f6102b6838361039b60201b60201c565b61039157600160075f8581526020019081526020015f205f015f8473ffffffffffffffffffffffffffffffffffffffff1673ffffffffffffffffffffffffffffffffffffffff1681526020019081526020015f205f6101000a81548160ff02191690831515021790555061032e61029e60201b60201c565b73ffffffffffffffffffffffffffffffffffffffff168273ffffffffffffffffffffffffffffffffffffffff16847f2f8788117e7eff1d82e926ec794901d17c78024a50270940304540a733656f0d60405160405180910390a460019050610395565b5f90505b92915050565b5f60075f8481526020019081526020015f205f015f8373ffffffffffffffffffffffffffffffffffffffff1673ffffffffffffffffffffffffffffffffffffffff1681526020019081526020015f205f9054906101000a900460ff16905092915050565b5f604051905090565b5f80fd5b5f80fd5b5f80fd5b5f80fd5b5f601f19601f8301169050919050565b7f4e487b71000000000000000000000000000000000000000000000000000000005f52604160045260245ffd5b61045e82610418565b810181811067ffffffffffffffff8211171561047d5761047c610428565b5b80604052505050565b5f61048f6103ff565b905061049b8282610455565b919050565b5f67ffffffffffffffff8211156104ba576104b9610428565b5b6104c382610418565b9050602081019050919050565b8281835e5f83830152505050565b5f6104f06104eb846104a0565b610486565b90508281526020810184848401111561050c5761050b610414565b5b6105178482856104d0565b509392505050565b5f82601f83011261053357610532610410565b5b81516105438482602086016104de565b91505092915050565b5f73ffffffffffffffffffffffffffffffffffffffff82169050919050565b5f6105758261054c565b9050919050565b5f6105868261056b565b9050919050565b6105968161057c565b81146105a0575f80fd5b50565b5f815190506105b18161058d565b92915050565b5f819050919050565b6105c9816105b7565b81146105d3575f80fd5b50565b5f815190506105e4816105c0565b92915050565b6105f38161056b565b81146105fd575f80fd5b50565b5f8151905061060e816105ea565b92915050565b5f805f805f60a0868803121561062d5761062c610408565b5b5f86015167ffffffffffffffff81111561064a5761064961040c565b5b6106568882890161051f565b9550506020610667888289016105a3565b9450506040610678888289016105d6565b935050606061068988828901610600565b925050608061069a88828901610600565b9150509295509295909350565b5f81519050919050565b7f4e487b71000000000000000000000000000000000000000000000000000000005f52602260045260245ffd5b5f60028204905060018216806106f557607f821691505b602082108103610708576107076106b1565b5b50919050565b5f819050815f5260205f209050919050565b5f6020601f8301049050919050565b5f82821b905092915050565b5f6008830261076a7fffffffffffffffffffffffffffffffffffffffffffffffffffffffffffffffff8261072f565b610774868361072f565b95508019841693508086168417925050509392505050565b5f819050919050565b5f6107af6107aa6107a5846105b7565b61078c565b6105b7565b9050919050565b5f819050919050565b6107c883610795565b6107dc6107d4826107b6565b84845461073b565b825550505050565b5f90565b6107f06107e4565b6107fb8184846107bf565b505050565b5b8181101561081e576108135f826107e8565b600181019050610801565b5050565b601f821115610863576108348161070e565b61083d84610720565b8101602085101561084c578190505b61086061085885610720565b830182610800565b50505b505050565b5f82821c905092915050565b5f6108835f1984600802610868565b1980831691505092915050565b5f61089b8383610874565b9150826002028217905092915050565b6108b4826106a7565b67ffffffffffffffff8111156108cd576108cc610428565b5b6108d782546106de565b6108e2828285610822565b5f60209050601f831160018114610913575f8415610901578287015190505b61090b8582610890565b865550610972565b601f1984166109218661070e565b5f5b8281101561094857848901518255600182019150602085019450602081019050610923565b868310156109655784890151610961601f891682610874565b8355505b6001600288020188555050505b505050505050565b614fb8806109875f395ff3fe60806040526004361061025b575f3560e01c80638e9673a511610143578063a78142a9116100b5578063cf82046111610079578063cf82046114610951578063d547741f1461097b578063e985e9c5146109a3578063f05d16f7146109df578063fbfa77cf14610a07578063fc0c546a14610a315761025b565b8063a78142a91461084d578063b2cd795114610889578063b88d4fde146108c5578063c5772e98146108ed578063c87b56dd146109155761025b565b806394ef34321161010757806394ef34321461075057806395d89b411461077f5780639862a7de146107a95780639eb8531c146107d1578063a217fddf146107fb578063a22cb465146108255761025b565b80638e9673a5146106645780638ebed5b11461068e57806391d14854146106b857806392642744146106f457806394b8b606146107245761025b565b80632890e0d7116101dc57806348132f48116101a057806348132f4814610534578063515572891461055c5780635f6d7e9e146105865780636352211e146105c257806369d40bd9146105fe57806370a08231146106285761025b565b80632890e0d71461046c5780632f2ff15d1461049457806336568abe146104bc57806341f431fd146104e457806342842e0e1461050c5761025b565b8063095ea7b311610223578063095ea7b31461037957806318160ddd146103a15780631ab0d49e146103cb57806323b872dd14610408578063248a9ca3146104305761025b565b806301ffc9a71461025f57806302fe53051461029b57806306bb8b53146102d757806306fdde0314610313578063081812fc1461033d575b5f80fd5b34801561026a575f80fd5b5061028560048036038101906102809190613854565b610a5b565b6040516102929190613899565b60405180910390f35b3480156102a6575f80fd5b506102c160048036038101906102bc91906139ee565b610a6c565b6040516102ce9190613a95565b60405180910390f35b3480156102e2575f80fd5b506102fd60048036038101906102f89190613ae8565b610b7e565b60405161030a9190613b22565b60405180910390f35b34801561031e575f80fd5b50610327610bfe565b6040516103349190613a95565b60405180910390f35b348015610348575f80fd5b50610363600480360381019061035e9190613ae8565b610c8d565b6040516103709190613b7a565b60405180910390f35b348015610384575f80fd5b5061039f600480360381019061039a9190613bbd565b610ca8565b005b3480156103ac575f80fd5b506103b5610cbe565b6040516103c29190613b22565b60405180910390f35b3480156103d6575f80fd5b506103f160048036038101906103ec9190613bfb565b610cc4565b6040516103ff929190613c26565b60405180910390f35b348015610413575f80fd5b5061042e60048036038101906104299190613c4d565b610cf0565b005b34801561043b575f80fd5b5061045660048036038101906104519190613cd0565b610def565b6040516104639190613d0a565b60405180910390f35b348015610477575f80fd5b50610492600480360381019061048d9190613ae8565b610e0c565b005b34801561049f575f80fd5b506104ba60048036038101906104b59190613d23565b6110d2565b005b3480156104c7575f80fd5b506104e260048036038101906104dd9190613d23565b6110f4565b005b3480156104ef575f80fd5b5061050a60048036038101906105059190613d9c565b61116f565b005b348015610517575f80fd5b50610532600480360381019061052d9190613c4d565b611200565b005b34801561053f575f80fd5b5061055a60048036038101906105559190613e27565b61121f565b005b348015610567575f80fd5b50610570611277565b60405161057d9190613d0a565b60405180910390f35b348015610591575f80fd5b506105ac60048036038101906105a79190613ae8565b61129b565b6040516105b99190613d0a565b60405180910390f35b3480156105cd575f80fd5b506105e860048036038101906105e39190613ae8565b6112cc565b6040516105f59190613b7a565b60405180910390f35b348015610609575f80fd5b506106126112dd565b60405161061f9190613b22565b60405180910390f35b348015610633575f80fd5b5061064e60048036038101906106499190613bfb565b6112e3565b60405161065b9190613b22565b60405180910390f35b34801561066f575f80fd5b50610678611399565b6040516106859190613a95565b60405180910390f35b348015610699575f80fd5b506106a2611425565b6040516106af9190613d0a565b60405180910390f35b3480156106c3575f80fd5b506106de60048036038101906106d99190613d23565b611449565b6040516106eb9190613899565b60405180910390f35b61070e60048036038101906107099190613ae8565b6114ad565b60405161071b9190613b22565b60405180910390f35b34801561072f575f80fd5b50610738611cde565b60405161074793929190613e65565b60405180910390f35b34801561075b575f80fd5b50610764611cf5565b60405161077696959493929190613e9a565b60405180910390f35b34801561078a575f80fd5b50610793611d1e565b6040516107a09190613a95565b60405180910390f35b3480156107b4575f80fd5b506107cf60048036038101906107ca9190613bfb565b611dae565b005b3480156107dc575f80fd5b506107e5611e61565b6040516107f29190613f54565b60405180910390f35b348015610806575f80fd5b5061080f611e86565b60405161081c9190613d0a565b60405180910390f35b348015610830575f80fd5b5061084b60048036038101906108469190613f97565b611e8c565b005b348015610858575f80fd5b50610873600480360381019061086e9190613fd5565b611ea2565b6040516108809190613d0a565b60405180910390f35b348015610894575f80fd5b506108af60048036038101906108aa9190613ae8565b611ed6565b6040516108bc9190613a95565b60405180910390f35b3480156108d0575f80fd5b506108eb60048036038101906108e691906140cd565b612013565b005b3480156108f8575f80fd5b50610913600480360381019061090e919061414d565b612030565b005b348015610920575f80fd5b5061093b60048036038101906109369190613ae8565b612052565b6040516109489190613a95565b60405180910390f35b34801561095c575f80fd5b5061096561215d565b6040516109729190613b22565b60405180910390f35b348015610986575f80fd5b506109a1600480360381019061099c9190613d23565b612163565b005b3480156109ae575f80fd5b506109c960048036038101906109c4919061419d565b612185565b6040516109d69190613899565b60405180910390f35b3480156109ea575f80fd5b50610a056004803603810190610a009190613ae8565b612213565b005b348015610a12575f80fd5b50610a1b61221d565b604051610a289190613b7a565b60405180910390f35b348015610a3c575f80fd5b50610a45612242565b604051610a5291906141fb565b60405180910390f35b5f610a6582612267565b9050919050565b6060610a9f7fae6c2fc584631af4c9385b8a55683f1a75c813747e27efef5afece31c6b230d3610a9a6122e0565b611449565b610ade576040517f08c379a0000000000000000000000000000000000000000000000000000000008152600401610ad59061425e565b60405180910390fd5b81600e9081610aed919061446d565b50600e8054610afb906142a9565b80601f0160208091040260200160405190810160405280929190818152602001828054610b27906142a9565b8015610b725780601f10610b4957610100808354040283529160200191610b72565b820191905f5260205f20905b815481529060010190602001808311610b5557829003601f168201915b50505050509050919050565b5f610bb07fae6c2fc584631af4c9385b8a55683f1a75c813747e27efef5afece31c6b230d3610bab6122e0565b611449565b610bef576040517f08c379a0000000000000000000000000000000000000000000000000000000008152600401610be69061425e565b60405180910390fd5b81600b81905550819050919050565b60605f8054610c0c906142a9565b80601f0160208091040260200160405190810160405280929190818152602001828054610c38906142a9565b8015610c835780601f10610c5a57610100808354040283529160200191610c83565b820191905f5260205f20905b815481529060010190602001808311610c6657829003601f168201915b5050505050905090565b5f610c97826122e7565b50610ca18261236d565b9050919050565b610cba8282610cb56122e0565b6123a6565b5050565b600a5481565b601a602052805f5260405f205f91509050805f015490806001015f9054906101000a900460ff16905082565b5f73ffffffffffffffffffffffffffffffffffffffff168273ffffffffffffffffffffffffffffffffffffffff1603610d60575f6040517f64a0ae92000000000000000000000000000000000000000000000000000000008152600401610d579190613b7a565b60405180910390fd5b5f610d738383610d6e6122e0565b6123b8565b90508373ffffffffffffffffffffffffffffffffffffffff168173ffffffffffffffffffffffffffffffffffffffff1614610de9578382826040517f64283d7b000000000000000000000000000000000000000000000000000000008152600401610de09392919061453c565b60405180910390fd5b50505050565b5f60075f8381526020019081526020015f20600101549050919050565b610e146126db565b610e1d8161272a565b73ffffffffffffffffffffffffffffffffffffffff16610e3b6122e0565b73ffffffffffffffffffffffffffffffffffffffff1614610e91576040517f08c379a0000000000000000000000000000000000000000000000000000000008152600401610e88906145bb565b60405180910390fd5b6001601a5f610e9e6122e0565b73ffffffffffffffffffffffffffffffffffffffff1673ffffffffffffffffffffffffffffffffffffffff1681526020019081526020015f205f015403610f0f57610ef15f82610eec6122e0565b6123b8565b5060116003015f8154610f0390614606565b91905081905550611009565b6002601a5f610f1c6122e0565b73ffffffffffffffffffffffffffffffffffffffff1673ffffffffffffffffffffffffffffffffffffffff1681526020019081526020015f205f015403610f8d57610f6f5f82610f6a6122e0565b6123b8565b5060116004015f8154610f8190614606565b91905081905550611008565b6003601a5f610f9a6122e0565b73ffffffffffffffffffffffffffffffffffffffff1673ffffffffffffffffffffffffffffffffffffffff1681526020019081526020015f205f01540361100757610fed5f82610fe86122e0565b6123b8565b5060116005015f8154610fff90614606565b919050819055505b5b5b600a5f815461101790614606565b919050819055505f601a5f61102a6122e0565b73ffffffffffffffffffffffffffffffffffffffff1673ffffffffffffffffffffffffffffffffffffffff1681526020019081526020015f205f01819055505f601a5f6110756122e0565b73ffffffffffffffffffffffffffffffffffffffff1673ffffffffffffffffffffffffffffffffffffffff1681526020019081526020015f206001015f6101000a81548160ff0219169083151502179055506110cf612763565b50565b6110db82610def565b6110e48161276d565b6110ee8383612781565b50505050565b6110fc6122e0565b73ffffffffffffffffffffffffffffffffffffffff168173ffffffffffffffffffffffffffffffffffffffff1614611160576040517f6697b23200000000000000000000000000000000000000000000000000000000815260040160405180910390fd5b61116a828261286b565b505050565b6111776126db565b8273ffffffffffffffffffffffffffffffffffffffff1663a9059cbb83836040518363ffffffff1660e01b81526004016111b292919061462d565b6020604051808303815f875af11580156111ce573d5f803e3d5ffd5b505050506040513d601f19601f820116820180604052508101906111f29190614668565b506111fb612763565b505050565b61121a83838360405180602001604052805f815250612013565b505050565b6112276126db565b8173ffffffffffffffffffffffffffffffffffffffff166108fc8290811502906040515f60405180830381858888f1935050505015801561126a573d5f803e3d5ffd5b50611273612763565b5050565b7fae6c2fc584631af4c9385b8a55683f1a75c813747e27efef5afece31c6b230d381565b5f33826040516020016112af9291906146f8565b604051602081830303815290604052805190602001209050919050565b5f6112d6826122e7565b9050919050565b600b5481565b5f8073ffffffffffffffffffffffffffffffffffffffff168273ffffffffffffffffffffffffffffffffffffffff1603611354575f6040517f89c62b6400000000000000000000000000000000000000000000000000000000815260040161134b9190613b7a565b60405180910390fd5b60035f8373ffffffffffffffffffffffffffffffffffffffff1673ffffffffffffffffffffffffffffffffffffffff1681526020019081526020015f20549050919050565b600e80546113a6906142a9565b80601f01602080910402602001604051908101604052809291908181526020018280546113d2906142a9565b801561141d5780601f106113f45761010080835404028352916020019161141d565b820191905f5260205f20905b81548152906001019060200180831161140057829003601f168201915b505050505081565b7f8c66330d9d4f6aba064f25ef2a307366ea6d917616f44c075aa60fa15e5cb1cb81565b5f60075f8481526020019081526020015f205f015f8373ffffffffffffffffffffffffffffffffffffffff1673ffffffffffffffffffffffffffffffffffffffff1681526020019081526020015f205f9054906101000a900460ff16905092915050565b5f6114b66126db565b600182101580156114c8575060038211155b611507576040517f08c379a00000000000000000000000000000000000000000000000000000000081526004016114fe9061476d565b60405180910390fd5b601a5f6115126122e0565b73ffffffffffffffffffffffffffffffffffffffff1673ffffffffffffffffffffffffffffffffffffffff1681526020019081526020015f206001015f9054906101000a900460ff161561159b576040517f08c379a0000000000000000000000000000000000000000000000000000000008152600401611592906147d5565b60405180910390fd5b5f60095f81546115aa906147f3565b91905081905590505f600e73__$1053a26fcd7a91a7936708b436969cfab3$__6349e894d86115d88561129b565b6040518263ffffffff1660e01b81526004016115f49190614849565b5f60405180830381865af415801561160e573d5f803e3d5ffd5b505050506040513d5f823e3d601f19601f8201168201806040525081019061163691906148d0565b6040516020016116479291906149d1565b60405160208183030381529060405290506116628282612955565b61167361166d6122e0565b836129af565b600a5f8154611681906147f3565b919050819055600a81905550600184036118bf57600b54600d5f9054906101000a900473ffffffffffffffffffffffffffffffffffffffff1673ffffffffffffffffffffffffffffffffffffffff166370a082316116dd6122e0565b6040518263ffffffff1660e01b81526004016116f99190613b7a565b602060405180830381865afa158015611714573d5f803e3d5ffd5b505050506040513d601f19601f820116820180604052508101906117389190614a08565b1015611779576040517f08c379a000000000000000000000000000000000000000000000000000000000815260040161177090614a7d565b60405180910390fd5b6658d15e1762800034146117c2576040517f08c379a00000000000000000000000000000000000000000000000000000000081526004016117b990614ae5565b60405180910390fd5b60115f015460116003015f8154809291906117dc906147f3565b9190505510611820576040517f08c379a000000000000000000000000000000000000000000000000000000000815260040161181790614b4d565b60405180910390fd5b600d5f9054906101000a900473ffffffffffffffffffffffffffffffffffffffff1673ffffffffffffffffffffffffffffffffffffffff1663449a52f86118656122e0565b69021e19e0c9bab24000006040518363ffffffff1660e01b815260040161188d929190614ba4565b5f604051808303815f87803b1580156118a4575f80fd5b505af11580156118b6573d5f803e3d5ffd5b50505050611c46565b60028403611a8457600b54600d5f9054906101000a900473ffffffffffffffffffffffffffffffffffffffff1673ffffffffffffffffffffffffffffffffffffffff166370a0823161190f6122e0565b6040518263ffffffff1660e01b815260040161192b9190613b7a565b602060405180830381865afa158015611946573d5f803e3d5ffd5b505050506040513d601f19601f8201168201806040525081019061196a9190614a08565b1015611974575f80fd5b66354a6ba7a180003414611986575f80fd5b60116001015460116004015f8154809291906119a1906147f3565b91905055106119e5576040517f08c379a00000000000000000000000000000000000000000000000000000000081526004016119dc90614c15565b60405180910390fd5b600d5f9054906101000a900473ffffffffffffffffffffffffffffffffffffffff1673ffffffffffffffffffffffffffffffffffffffff1663449a52f8611a2a6122e0565b69010f0cf064dd592000006040518363ffffffff1660e01b8152600401611a52929190614c6c565b5f604051808303815f87803b158015611a69575f80fd5b505af1158015611a7b573d5f803e3d5ffd5b50505050611c45565b60038403611c4457600b54600d5f9054906101000a900473ffffffffffffffffffffffffffffffffffffffff1673ffffffffffffffffffffffffffffffffffffffff166370a08231611ad46122e0565b6040518263ffffffff1660e01b8152600401611af09190613b7a565b602060405180830381865afa158015611b0b573d5f803e3d5ffd5b505050506040513d601f19601f82011682018060405250810190611b2f9190614a08565b1015611b39575f80fd5b661e32b4789740003414611b4b575f80fd5b60116002015460116005015f815480929190611b66906147f3565b9190505510611baa576040517f08c379a0000000000000000000000000000000000000000000000000000000008152600401611ba190614cdd565b60405180910390fd5b600d5f9054906101000a900473ffffffffffffffffffffffffffffffffffffffff1673ffffffffffffffffffffffffffffffffffffffff1663449a52f8611bef6122e0565b683635c9adc5dea000006040518363ffffffff1660e01b8152600401611c16929190614d34565b5f604051808303815f87803b158015611c2d575f80fd5b505af1158015611c3f573d5f803e3d5ffd5b505050505b5b5b604051806040016040528085815260200160011515815250601a5f611c696122e0565b73ffffffffffffffffffffffffffffffffffffffff1673ffffffffffffffffffffffffffffffffffffffff1681526020019081526020015f205f820151815f01556020820151816001015f6101000a81548160ff0219169083151502179055509050508192505050611cd9612763565b919050565b6017805f0154908060010154908060020154905083565b6011805f0154908060010154908060020154908060030154908060040154908060050154905086565b606060018054611d2d906142a9565b80601f0160208091040260200160405190810160405280929190818152602001828054611d59906142a9565b8015611da45780601f10611d7b57610100808354040283529160200191611da4565b820191905f5260205f20905b815481529060010190602001808311611d8757829003601f168201915b5050505050905090565b611ddf7fae6c2fc584631af4c9385b8a55683f1a75c813747e27efef5afece31c6b230d3611dda6122e0565b611449565b611e1e576040517f08c379a0000000000000000000000000000000000000000000000000000000008152600401611e159061425e565b60405180910390fd5b80600d5f6101000a81548173ffffffffffffffffffffffffffffffffffffffff021916908373ffffffffffffffffffffffffffffffffffffffff16021790555050565b600d5f9054906101000a900473ffffffffffffffffffffffffffffffffffffffff1681565b5f801b81565b611e9e611e976122e0565b83836129cc565b5050565b5f338383604051602001611eb893929190614d5b565b60405160208183030381529060405280519060200120905092915050565b60605f611ee28361272a565b90508073ffffffffffffffffffffffffffffffffffffffff16611f036122e0565b73ffffffffffffffffffffffffffffffffffffffff1614611f59576040517f08c379a0000000000000000000000000000000000000000000000000000000008152600401611f50906145bb565b60405180910390fd5b5f600e73__$1053a26fcd7a91a7936708b436969cfab3$__6349e894d8611f7f8761129b565b6040518263ffffffff1660e01b8152600401611f9b9190614849565b5f60405180830381865af4158015611fb5573d5f803e3d5ffd5b505050506040513d5f823e3d601f19601f82011682018060405250810190611fdd91906148d0565b604051602001611fee9291906149d1565b60405160208183030381529060405290506120098482612955565b8092505050919050565b61201e848484610cf0565b61202a84848484612b35565b50505050565b8260115f01819055508160116001018190555080601160020181905550505050565b606061205d826122e7565b505f60065f8481526020019081526020015f20805461207b906142a9565b80601f01602080910402602001604051908101604052809291908181526020018280546120a7906142a9565b80156120f25780601f106120c9576101008083540402835291602001916120f2565b820191905f5260205f20905b8154815290600101906020018083116120d557829003601f168201915b505050505090505f612102612ce7565b90505f815103612116578192505050612158565b5f8251111561214a578082604051602001612132929190614d93565b60405160208183030381529060405292505050612158565b61215384612cfd565b925050505b919050565b600f5481565b61216c82610def565b6121758161276d565b61217f838361286b565b50505050565b5f60055f8473ffffffffffffffffffffffffffffffffffffffff1673ffffffffffffffffffffffffffffffffffffffff1681526020019081526020015f205f8373ffffffffffffffffffffffffffffffffffffffff1673ffffffffffffffffffffffffffffffffffffffff1681526020019081526020015f205f9054906101000a900460ff16905092915050565b80600f8190555050565b60105f9054906101000a900473ffffffffffffffffffffffffffffffffffffffff1681565b600c5f9054906101000a900473ffffffffffffffffffffffffffffffffffffffff1681565b5f7f7965db0b000000000000000000000000000000000000000000000000000000007bffffffffffffffffffffffffffffffffffffffffffffffffffffffff1916827bffffffffffffffffffffffffffffffffffffffffffffffffffffffff191614806122d957506122d882612d63565b5b9050919050565b5f33905090565b5f806122f28361272a565b90505f73ffffffffffffffffffffffffffffffffffffffff168173ffffffffffffffffffffffffffffffffffffffff160361236457826040517f7e27328900000000000000000000000000000000000000000000000000000000815260040161235b9190613b22565b60405180910390fd5b80915050919050565b5f60045f8381526020019081526020015f205f9054906101000a900473ffffffffffffffffffffffffffffffffffffffff169050919050565b6123b38383836001612dc3565b505050565b5f6123c16137d4565b5f73ffffffffffffffffffffffffffffffffffffffff168373ffffffffffffffffffffffffffffffffffffffff16146124e057601a5f8473ffffffffffffffffffffffffffffffffffffffff1673ffffffffffffffffffffffffffffffffffffffff1681526020019081526020015f206040518060400160405290815f8201548152602001600182015f9054906101000a900460ff161515151581525050905060405180604001604052805f81526020015f1515815250601a5f8573ffffffffffffffffffffffffffffffffffffffff1673ffffffffffffffffffffffffffffffffffffffff1681526020019081526020015f205f820151815f01556020820151816001015f6101000a81548160ff0219169083151502179055509050505b5f73ffffffffffffffffffffffffffffffffffffffff168573ffffffffffffffffffffffffffffffffffffffff1614612596576040518060400160405280825f0151815260200160011515815250601a5f8773ffffffffffffffffffffffffffffffffffffffff1673ffffffffffffffffffffffffffffffffffffffff1681526020019081526020015f205f820151815f01556020820151816001015f6101000a81548160ff0219169083151502179055509050505b5f73ffffffffffffffffffffffffffffffffffffffff168373ffffffffffffffffffffffffffffffffffffffff16141580156125fe57505f73ffffffffffffffffffffffffffffffffffffffff168573ffffffffffffffffffffffffffffffffffffffff1614155b156126c657600c5f9054906101000a900473ffffffffffffffffffffffffffffffffffffffff1673ffffffffffffffffffffffffffffffffffffffff166323b872dd8460105f9054906101000a900473ffffffffffffffffffffffffffffffffffffffff16600f546040518463ffffffff1660e01b815260040161268493929190614db6565b6020604051808303815f875af11580156126a0573d5f803e3d5ffd5b505050506040513d601f19601f820116820180604052508101906126c49190614668565b505b6126d1858585612f82565b9150509392505050565b600260085403612720576040517f08c379a000000000000000000000000000000000000000000000000000000000815260040161271790614e35565b60405180910390fd5b6002600881905550565b5f60025f8381526020019081526020015f205f9054906101000a900473ffffffffffffffffffffffffffffffffffffffff169050919050565b6001600881905550565b61277e816127796122e0565b61318d565b50565b5f61278c8383611449565b61286157600160075f8581526020019081526020015f205f015f8473ffffffffffffffffffffffffffffffffffffffff1673ffffffffffffffffffffffffffffffffffffffff1681526020019081526020015f205f6101000a81548160ff0219169083151502179055506127fe6122e0565b73ffffffffffffffffffffffffffffffffffffffff168273ffffffffffffffffffffffffffffffffffffffff16847f2f8788117e7eff1d82e926ec794901d17c78024a50270940304540a733656f0d60405160405180910390a460019050612865565b5f90505b92915050565b5f6128768383611449565b1561294b575f60075f8581526020019081526020015f205f015f8473ffffffffffffffffffffffffffffffffffffffff1673ffffffffffffffffffffffffffffffffffffffff1681526020019081526020015f205f6101000a81548160ff0219169083151502179055506128e86122e0565b73ffffffffffffffffffffffffffffffffffffffff168273ffffffffffffffffffffffffffffffffffffffff16847ff6391f5c32d9c69d2a47ea670b442974b53935d1edc7fd64eb21e047a839171b60405160405180910390a46001905061294f565b5f90505b92915050565b8060065f8481526020019081526020015f209081612973919061446d565b507ff8e1a15aba9398e019f0b49df1a4fde98ee17ae345cb5f6b5e2c27f5033e8ce7826040516129a39190613b22565b60405180910390a15050565b6129c8828260405180602001604052805f8152506131de565b5050565b5f73ffffffffffffffffffffffffffffffffffffffff168273ffffffffffffffffffffffffffffffffffffffff1603612a3c57816040517f5b08ba18000000000000000000000000000000000000000000000000000000008152600401612a339190613b7a565b60405180910390fd5b8060055f8573ffffffffffffffffffffffffffffffffffffffff1673ffffffffffffffffffffffffffffffffffffffff1681526020019081526020015f205f8473ffffffffffffffffffffffffffffffffffffffff1673ffffffffffffffffffffffffffffffffffffffff1681526020019081526020015f205f6101000a81548160ff0219169083151502179055508173ffffffffffffffffffffffffffffffffffffffff168373ffffffffffffffffffffffffffffffffffffffff167f17307eab39ab6107e8899845ad3d59bd9653f200f220920489ca2b5937696c3183604051612b289190613899565b60405180910390a3505050565b5f8373ffffffffffffffffffffffffffffffffffffffff163b1115612ce1578273ffffffffffffffffffffffffffffffffffffffff1663150b7a02612b786122e0565b8685856040518563ffffffff1660e01b8152600401612b9a9493929190614ea5565b6020604051808303815f875af1925050508015612bd557506040513d601f19601f82011682018060405250810190612bd29190614f03565b60015b612c56573d805f8114612c03576040519150601f19603f3d011682016040523d82523d5f602084013e612c08565b606091505b505f815103612c4e57836040517f64a0ae92000000000000000000000000000000000000000000000000000000008152600401612c459190613b7a565b60405180910390fd5b805181602001fd5b63150b7a0260e01b7bffffffffffffffffffffffffffffffffffffffffffffffffffffffff1916817bffffffffffffffffffffffffffffffffffffffffffffffffffffffff191614612cdf57836040517f64a0ae92000000000000000000000000000000000000000000000000000000008152600401612cd69190613b7a565b60405180910390fd5b505b50505050565b606060405180602001604052805f815250905090565b6060612d08826122e7565b505f612d12612ce7565b90505f815111612d305760405180602001604052805f815250612d5b565b80612d3a846131f9565b604051602001612d4b929190614d93565b6040516020818303038152906040525b915050919050565b5f634906490660e01b7bffffffffffffffffffffffffffffffffffffffffffffffffffffffff1916827bffffffffffffffffffffffffffffffffffffffffffffffffffffffff19161480612dbc5750612dbb826132c3565b5b9050919050565b8080612dfb57505f73ffffffffffffffffffffffffffffffffffffffff168273ffffffffffffffffffffffffffffffffffffffff1614155b15612f2d575f612e0a846122e7565b90505f73ffffffffffffffffffffffffffffffffffffffff168373ffffffffffffffffffffffffffffffffffffffff1614158015612e7457508273ffffffffffffffffffffffffffffffffffffffff168173ffffffffffffffffffffffffffffffffffffffff1614155b8015612e875750612e858184612185565b155b15612ec957826040517fa9fbf51f000000000000000000000000000000000000000000000000000000008152600401612ec09190613b7a565b60405180910390fd5b8115612f2b57838573ffffffffffffffffffffffffffffffffffffffff168273ffffffffffffffffffffffffffffffffffffffff167f8c5be1e5ebec7d5bd14f71427d1e84f3dd0314c0f7b2291e5b200ac8c7c3b92560405160405180910390a45b505b8360045f8581526020019081526020015f205f6101000a81548173ffffffffffffffffffffffffffffffffffffffff021916908373ffffffffffffffffffffffffffffffffffffffff16021790555050505050565b5f80612f8d8461272a565b90505f73ffffffffffffffffffffffffffffffffffffffff168373ffffffffffffffffffffffffffffffffffffffff1614612fce57612fcd8184866133a4565b5b5f73ffffffffffffffffffffffffffffffffffffffff168173ffffffffffffffffffffffffffffffffffffffff16146130595761300d5f855f80612dc3565b600160035f8373ffffffffffffffffffffffffffffffffffffffff1673ffffffffffffffffffffffffffffffffffffffff1681526020019081526020015f205f82825403925050819055505b5f73ffffffffffffffffffffffffffffffffffffffff168573ffffffffffffffffffffffffffffffffffffffff16146130d857600160035f8773ffffffffffffffffffffffffffffffffffffffff1673ffffffffffffffffffffffffffffffffffffffff1681526020019081526020015f205f82825401925050819055505b8460025f8681526020019081526020015f205f6101000a81548173ffffffffffffffffffffffffffffffffffffffff021916908373ffffffffffffffffffffffffffffffffffffffff160217905550838573ffffffffffffffffffffffffffffffffffffffff168273ffffffffffffffffffffffffffffffffffffffff167fddf252ad1be2c89b69c2b068fc378daa952ba7f163c4a11628f55a4df523b3ef60405160405180910390a4809150509392505050565b6131978282611449565b6131da5780826040517fe2517d3f0000000000000000000000000000000000000000000000000000000081526004016131d1929190614f2e565b60405180910390fd5b5050565b6131e88383613467565b6131f45f848484612b35565b505050565b60605f60016132078461355a565b0190505f8167ffffffffffffffff811115613225576132246138ca565b5b6040519080825280601f01601f1916602001820160405280156132575781602001600182028036833780820191505090505b5090505f82602001820190505b6001156132b8578080600190039150507f3031323334353637383961626364656600000000000000000000000000000000600a86061a8153600a85816132ad576132ac614f55565b5b0494505f8503613264575b819350505050919050565b5f7f80ac58cd000000000000000000000000000000000000000000000000000000007bffffffffffffffffffffffffffffffffffffffffffffffffffffffff1916827bffffffffffffffffffffffffffffffffffffffffffffffffffffffff1916148061338d57507f5b5e139f000000000000000000000000000000000000000000000000000000007bffffffffffffffffffffffffffffffffffffffffffffffffffffffff1916827bffffffffffffffffffffffffffffffffffffffffffffffffffffffff1916145b8061339d575061339c826136ab565b5b9050919050565b6133af838383613714565b613462575f73ffffffffffffffffffffffffffffffffffffffff168373ffffffffffffffffffffffffffffffffffffffff160361342357806040517f7e27328900000000000000000000000000000000000000000000000000000000815260040161341a9190613b22565b60405180910390fd5b81816040517f177e802f00000000000000000000000000000000000000000000000000000000815260040161345992919061462d565b60405180910390fd5b505050565b5f73ffffffffffffffffffffffffffffffffffffffff168273ffffffffffffffffffffffffffffffffffffffff16036134d7575f6040517f64a0ae920000000000000000000000000000000000000000000000000000000081526004016134ce9190613b7a565b60405180910390fd5b5f6134e383835f6123b8565b90505f73ffffffffffffffffffffffffffffffffffffffff168173ffffffffffffffffffffffffffffffffffffffff1614613555575f6040517f73c6ac6e00000000000000000000000000000000000000000000000000000000815260040161354c9190613b7a565b60405180910390fd5b505050565b5f805f90507a184f03e93ff9f4daa797ed6e38ed64bf6a1f01000000000000000083106135b6577a184f03e93ff9f4daa797ed6e38ed64bf6a1f01000000000000000083816135ac576135ab614f55565b5b0492506040810190505b6d04ee2d6d415b85acef810000000083106135f3576d04ee2d6d415b85acef810000000083816135e9576135e8614f55565b5b0492506020810190505b662386f26fc10000831061362257662386f26fc10000838161361857613617614f55565b5b0492506010810190505b6305f5e100831061364b576305f5e100838161364157613640614f55565b5b0492506008810190505b612710831061367057612710838161366657613665614f55565b5b0492506004810190505b60648310613693576064838161368957613688614f55565b5b0492506002810190505b600a83106136a2576001810190505b80915050919050565b5f7f01ffc9a7000000000000000000000000000000000000000000000000000000007bffffffffffffffffffffffffffffffffffffffffffffffffffffffff1916827bffffffffffffffffffffffffffffffffffffffffffffffffffffffff1916149050919050565b5f8073ffffffffffffffffffffffffffffffffffffffff168373ffffffffffffffffffffffffffffffffffffffff16141580156137cb57508273ffffffffffffffffffffffffffffffffffffffff168473ffffffffffffffffffffffffffffffffffffffff16148061378c575061378b8484612185565b5b806137ca57508273ffffffffffffffffffffffffffffffffffffffff166137b28361236d565b73ffffffffffffffffffffffffffffffffffffffff16145b5b90509392505050565b60405180604001604052805f81526020015f151581525090565b5f604051905090565b5f80fd5b5f80fd5b5f7fffffffff0000000000000000000000000000000000000000000000000000000082169050919050565b613833816137ff565b811461383d575f80fd5b50565b5f8135905061384e8161382a565b92915050565b5f60208284031215613869576138686137f7565b5b5f61387684828501613840565b91505092915050565b5f8115159050919050565b6138938161387f565b82525050565b5f6020820190506138ac5f83018461388a565b92915050565b5f80fd5b5f80fd5b5f601f19601f8301169050919050565b7f4e487b71000000000000000000000000000000000000000000000000000000005f52604160045260245ffd5b613900826138ba565b810181811067ffffffffffffffff8211171561391f5761391e6138ca565b5b80604052505050565b5f6139316137ee565b905061393d82826138f7565b919050565b5f67ffffffffffffffff82111561395c5761395b6138ca565b5b613965826138ba565b9050602081019050919050565b828183375f83830152505050565b5f61399261398d84613942565b613928565b9050828152602081018484840111156139ae576139ad6138b6565b5b6139b9848285613972565b509392505050565b5f82601f8301126139d5576139d46138b2565b5b81356139e5848260208601613980565b91505092915050565b5f60208284031215613a0357613a026137f7565b5b5f82013567ffffffffffffffff811115613a2057613a1f6137fb565b5b613a2c848285016139c1565b91505092915050565b5f81519050919050565b5f82825260208201905092915050565b8281835e5f83830152505050565b5f613a6782613a35565b613a718185613a3f565b9350613a81818560208601613a4f565b613a8a816138ba565b840191505092915050565b5f6020820190508181035f830152613aad8184613a5d565b905092915050565b5f819050919050565b613ac781613ab5565b8114613ad1575f80fd5b50565b5f81359050613ae281613abe565b92915050565b5f60208284031215613afd57613afc6137f7565b5b5f613b0a84828501613ad4565b91505092915050565b613b1c81613ab5565b82525050565b5f602082019050613b355f830184613b13565b92915050565b5f73ffffffffffffffffffffffffffffffffffffffff82169050919050565b5f613b6482613b3b565b9050919050565b613b7481613b5a565b82525050565b5f602082019050613b8d5f830184613b6b565b92915050565b613b9c81613b5a565b8114613ba6575f80fd5b50565b5f81359050613bb781613b93565b92915050565b5f8060408385031215613bd357613bd26137f7565b5b5f613be085828601613ba9565b9250506020613bf185828601613ad4565b9150509250929050565b5f60208284031215613c1057613c0f6137f7565b5b5f613c1d84828501613ba9565b91505092915050565b5f604082019050613c395f830185613b13565b613c46602083018461388a565b9392505050565b5f805f60608486031215613c6457613c636137f7565b5b5f613c7186828701613ba9565b9350506020613c8286828701613ba9565b9250506040613c9386828701613ad4565b9150509250925092565b5f819050919050565b613caf81613c9d565b8114613cb9575f80fd5b50565b5f81359050613cca81613ca6565b92915050565b5f60208284031215613ce557613ce46137f7565b5b5f613cf284828501613cbc565b91505092915050565b613d0481613c9d565b82525050565b5f602082019050613d1d5f830184613cfb565b92915050565b5f8060408385031215613d3957613d386137f7565b5b5f613d4685828601613cbc565b9250506020613d5785828601613ba9565b9150509250929050565b5f613d6b82613b5a565b9050919050565b613d7b81613d61565b8114613d85575f80fd5b50565b5f81359050613d9681613d72565b92915050565b5f805f60608486031215613db357613db26137f7565b5b5f613dc086828701613d88565b9350506020613dd186828701613ba9565b9250506040613de286828701613ad4565b9150509250925092565b5f613df682613b3b565b9050919050565b613e0681613dec565b8114613e10575f80fd5b50565b5f81359050613e2181613dfd565b92915050565b5f8060408385031215613e3d57613e3c6137f7565b5b5f613e4a85828601613e13565b9250506020613e5b85828601613ad4565b9150509250929050565b5f606082019050613e785f830186613b13565b613e856020830185613b13565b613e926040830184613b13565b949350505050565b5f60c082019050613ead5f830189613b13565b613eba6020830188613b13565b613ec76040830187613b13565b613ed46060830186613b13565b613ee16080830185613b13565b613eee60a0830184613b13565b979650505050505050565b5f819050919050565b5f613f1c613f17613f1284613b3b565b613ef9565b613b3b565b9050919050565b5f613f2d82613f02565b9050919050565b5f613f3e82613f23565b9050919050565b613f4e81613f34565b82525050565b5f602082019050613f675f830184613f45565b92915050565b613f768161387f565b8114613f80575f80fd5b50565b5f81359050613f9181613f6d565b92915050565b5f8060408385031215613fad57613fac6137f7565b5b5f613fba85828601613ba9565b9250506020613fcb85828601613f83565b9150509250929050565b5f8060408385031215613feb57613fea6137f7565b5b5f83013567ffffffffffffffff811115614008576140076137fb565b5b614014858286016139c1565b925050602061402585828601613ad4565b9150509250929050565b5f67ffffffffffffffff821115614049576140486138ca565b5b614052826138ba565b9050602081019050919050565b5f61407161406c8461402f565b613928565b90508281526020810184848401111561408d5761408c6138b6565b5b614098848285613972565b509392505050565b5f82601f8301126140b4576140b36138b2565b5b81356140c484826020860161405f565b91505092915050565b5f805f80608085870312156140e5576140e46137f7565b5b5f6140f287828801613ba9565b945050602061410387828801613ba9565b935050604061411487828801613ad4565b925050606085013567ffffffffffffffff811115614135576141346137fb565b5b614141878288016140a0565b91505092959194509250565b5f805f60608486031215614164576141636137f7565b5b5f61417186828701613ad4565b935050602061418286828701613ad4565b925050604061419386828701613ad4565b9150509250925092565b5f80604083850312156141b3576141b26137f7565b5b5f6141c085828601613ba9565b92505060206141d185828601613ba9565b9150509250929050565b5f6141e582613f23565b9050919050565b6141f5816141db565b82525050565b5f60208201905061420e5f8301846141ec565b92915050565b7f4e46543a204e6565642041646d696e00000000000000000000000000000000005f82015250565b5f614248600f83613a3f565b915061425382614214565b602082019050919050565b5f6020820190508181035f8301526142758161423c565b9050919050565b7f4e487b71000000000000000000000000000000000000000000000000000000005f52602260045260245ffd5b5f60028204905060018216806142c057607f821691505b6020821081036142d3576142d261427c565b5b50919050565b5f819050815f5260205f209050919050565b5f6020601f8301049050919050565b5f82821b905092915050565b5f600883026143357fffffffffffffffffffffffffffffffffffffffffffffffffffffffffffffffff826142fa565b61433f86836142fa565b95508019841693508086168417925050509392505050565b5f61437161436c61436784613ab5565b613ef9565b613ab5565b9050919050565b5f819050919050565b61438a83614357565b61439e61439682614378565b848454614306565b825550505050565b5f90565b6143b26143a6565b6143bd818484614381565b505050565b5b818110156143e0576143d55f826143aa565b6001810190506143c3565b5050565b601f821115614425576143f6816142d9565b6143ff846142eb565b8101602085101561440e578190505b61442261441a856142eb565b8301826143c2565b50505b505050565b5f82821c905092915050565b5f6144455f198460080261442a565b1980831691505092915050565b5f61445d8383614436565b9150826002028217905092915050565b61447682613a35565b67ffffffffffffffff81111561448f5761448e6138ca565b5b61449982546142a9565b6144a48282856143e4565b5f60209050601f8311600181146144d5575f84156144c3578287015190505b6144cd8582614452565b865550614534565b601f1984166144e3866142d9565b5f5b8281101561450a578489015182556001820191506020850194506020810190506144e5565b868310156145275784890151614523601f891682614436565b8355505b6001600288020188555050505b505050505050565b5f60608201905061454f5f830186613b6b565b61455c6020830185613b13565b6145696040830184613b6b565b949350505050565b7f4e46543a204e6f74206f776e65720000000000000000000000000000000000005f82015250565b5f6145a5600e83613a3f565b91506145b082614571565b602082019050919050565b5f6020820190508181035f8301526145d281614599565b9050919050565b7f4e487b71000000000000000000000000000000000000000000000000000000005f52601160045260245ffd5b5f61461082613ab5565b91505f8203614622576146216145d9565b5b600182039050919050565b5f6040820190506146405f830185613b6b565b61464d6020830184613b13565b9392505050565b5f8151905061466281613f6d565b92915050565b5f6020828403121561467d5761467c6137f7565b5b5f61468a84828501614654565b91505092915050565b5f8160601b9050919050565b5f6146a982614693565b9050919050565b5f6146ba8261469f565b9050919050565b6146d26146cd82613b5a565b6146b0565b82525050565b5f819050919050565b6146f26146ed82613ab5565b6146d8565b82525050565b5f61470382856146c1565b60148201915061471382846146e1565b6020820191508190509392505050565b7f496e76616c6964206c6576656c000000000000000000000000000000000000005f82015250565b5f614757600d83613a3f565b915061476282614723565b602082019050919050565b5f6020820190508181035f8301526147848161474b565b9050919050565b7f43616e2774206d696e74206d6f7265207468616e206f6e65204e4654000000005f82015250565b5f6147bf601c83613a3f565b91506147ca8261478b565b602082019050919050565b5f6020820190508181035f8301526147ec816147b3565b9050919050565b5f6147fd82613ab5565b91507fffffffffffffffffffffffffffffffffffffffffffffffffffffffffffffffff820361482f5761482e6145d9565b5b600182019050919050565b61484381613c9d565b82525050565b5f60208201905061485c5f83018461483a565b92915050565b5f61487461486f84613942565b613928565b9050828152602081018484840111156148905761488f6138b6565b5b61489b848285613a4f565b509392505050565b5f82601f8301126148b7576148b66138b2565b5b81516148c7848260208601614862565b91505092915050565b5f602082840312156148e5576148e46137f7565b5b5f82015167ffffffffffffffff811115614902576149016137fb565b5b61490e848285016148a3565b91505092915050565b5f81905092915050565b5f815461492d816142a9565b6149378186614917565b9450600182165f8114614951576001811461496657614998565b60ff1983168652811515820286019350614998565b61496f856142d9565b5f5b8381101561499057815481890152600182019150602081019050614971565b838801955050505b50505092915050565b5f6149ab82613a35565b6149b58185614917565b93506149c5818560208601613a4f565b80840191505092915050565b5f6149dc8285614921565b91506149e882846149a1565b91508190509392505050565b5f81519050614a0281613abe565b92915050565b5f60208284031215614a1d57614a1c6137f7565b5b5f614a2a848285016149f4565b91505092915050565b7f546f6b656e2042616c616e6365000000000000000000000000000000000000005f82015250565b5f614a67600d83613a3f565b9150614a7282614a33565b602082019050919050565b5f6020820190508181035f830152614a9481614a5b565b9050919050565b7f4e656564204574686572000000000000000000000000000000000000000000005f82015250565b5f614acf600a83613a3f565b9150614ada82614a9b565b602082019050919050565b5f6020820190508181035f830152614afc81614ac3565b9050919050565b7f4e46543a20476f6c6420737570706c79206361702065786365656465640000005f82015250565b5f614b37601d83613a3f565b9150614b4282614b03565b602082019050919050565b5f6020820190508181035f830152614b6481614b2b565b9050919050565b5f819050919050565b5f614b8e614b89614b8484614b6b565b613ef9565b613ab5565b9050919050565b614b9e81614b74565b82525050565b5f604082019050614bb75f830185613b6b565b614bc46020830184614b95565b9392505050565b7f4e46543a2053696c76657220737570706c7920636170206578636565646564005f82015250565b5f614bff601f83613a3f565b9150614c0a82614bcb565b602082019050919050565b5f6020820190508181035f830152614c2c81614bf3565b9050919050565b5f819050919050565b5f614c56614c51614c4c84614c33565b613ef9565b613ab5565b9050919050565b614c6681614c3c565b82525050565b5f604082019050614c7f5f830185613b6b565b614c8c6020830184614c5d565b9392505050565b7f4e46543a2042726f6e7a6520737570706c7920636170206578636565646564005f82015250565b5f614cc7601f83613a3f565b9150614cd282614c93565b602082019050919050565b5f6020820190508181035f830152614cf481614cbb565b9050919050565b5f819050919050565b5f614d1e614d19614d1484614cfb565b613ef9565b613ab5565b9050919050565b614d2e81614d04565b82525050565b5f604082019050614d475f830185613b6b565b614d546020830184614d25565b9392505050565b5f614d6682866146c1565b601482019150614d7682856149a1565b9150614d8282846146e1565b602082019150819050949350505050565b5f614d9e82856149a1565b9150614daa82846149a1565b91508190509392505050565b5f606082019050614dc95f830186613b6b565b614dd66020830185613b6b565b614de36040830184613b13565b949350505050565b7f5265656e7472616e637947756172643a207265656e7472616e742063616c6c005f82015250565b5f614e1f601f83613a3f565b9150614e2a82614deb565b602082019050919050565b5f6020820190508181035f830152614e4c81614e13565b9050919050565b5f81519050919050565b5f82825260208201905092915050565b5f614e7782614e53565b614e818185614e5d565b9350614e91818560208601613a4f565b614e9a816138ba565b840191505092915050565b5f608082019050614eb85f830187613b6b565b614ec56020830186613b6b565b614ed26040830185613b13565b8181036060830152614ee48184614e6d565b905095945050505050565b5f81519050614efd8161382a565b92915050565b5f60208284031215614f1857614f176137f7565b5b5f614f2584828501614eef565b91505092915050565b5f604082019050614f415f830185613b6b565b614f4e6020830184613cfb565b9392505050565b7f4e487b71000000000000000000000000000000000000000000000000000000005f52601260045260245ffdfea264697066735822122022c89bc1283340018ec1e67b72633cac7a27237ac0594b1d1574c92c9841bf3a64736f6c634300081a0033a26469706673582212200d8bbee332dabe64c1a0429aa10eb8d3408ef053e81a0dfc8e388cbe71e8740b64736f6c634300081a0033",
			"opcodes": "PUSH1 0x80 PUSH1 0x40 MSTORE ADDRESS PUSH1 0x1 PUSH0 PUSH2 0x100 EXP DUP2 SLOAD DUP2 PUSH20 0xFFFFFFFFFFFFFFFFFFFFFFFFFFFFFFFFFFFFFFFF MUL NOT AND SWAP1 DUP4 PUSH20 0xFFFFFFFFFFFFFFFFFFFFFFFFFFFFFFFFFFFFFFFF AND MUL OR SWAP1 SSTORE POP PUSH20 0x1234567890123456789012345678901234567890 PUSH1 0x2 PUSH0 PUSH2 0x100 EXP DUP2 SLOAD DUP2 PUSH20 0xFFFFFFFFFFFFFFFFFFFFFFFFFFFFFFFFFFFFFFFF MUL NOT AND SWAP1 DUP4 PUSH20 0xFFFFFFFFFFFFFFFFFFFFFFFFFFFFFFFFFFFFFFFF AND MUL OR SWAP1 SSTORE POP CALLVALUE DUP1 ISZERO PUSH1 0xA2 JUMPI PUSH0 DUP1 REVERT JUMPDEST POP PUSH2 0x705D DUP1 PUSH2 0xB0 PUSH0 CODECOPY PUSH0 RETURN INVALID PUSH1 0x80 PUSH1 0x40 MSTORE CALLVALUE DUP1 ISZERO PUSH2 0xF JUMPI PUSH0 DUP1 REVERT JUMPDEST POP PUSH1 0x4 CALLDATASIZE LT PUSH2 0x4A JUMPI PUSH0 CALLDATALOAD PUSH1 0xE0 SHR DUP1 PUSH4 0x3185B788 EQ PUSH2 0x4E JUMPI DUP1 PUSH4 0x7FEA0D4B EQ PUSH2 0x58 JUMPI DUP1 PUSH4 0xEF00610C EQ PUSH2 0x62 JUMPI DUP1 PUSH4 0xF3F221E4 EQ PUSH2 0x6C JUMPI JUMPDEST PUSH0 DUP1 REVERT JUMPDEST PUSH2 0x56 PUSH2 0x76 JUMP JUMPDEST STOP JUMPDEST PUSH2 0x60 PUSH2 0x46F JUMP JUMPDEST STOP JUMPDEST PUSH2 0x6A PUSH2 0x534 JUMP JUMPDEST STOP JUMPDEST PUSH2 0x74 PUSH2 0x7A4 JUMP JUMPDEST STOP JUMPDEST PUSH0 DUP1 PUSH0 SWAP1 SLOAD SWAP1 PUSH2 0x100 EXP SWAP1 DIV PUSH20 0xFFFFFFFFFFFFFFFFFFFFFFFFFFFFFFFFFFFFFFFF AND PUSH20 0xFFFFFFFFFFFFFFFFFFFFFFFFFFFFFFFFFFFFFFFF AND PUSH4 0x18160DDD PUSH1 0x40 MLOAD DUP2 PUSH4 0xFFFFFFFF AND PUSH1 0xE0 SHL DUP2 MSTORE PUSH1 0x4 ADD PUSH1 0x20 PUSH1 0x40 MLOAD DUP1 DUP4 SUB DUP2 DUP7 GAS STATICCALL ISZERO DUP1 ISZERO PUSH2 0xE0 JUMPI RETURNDATASIZE PUSH0 DUP1 RETURNDATACOPY RETURNDATASIZE PUSH0 REVERT JUMPDEST POP POP POP POP PUSH1 0x40 MLOAD RETURNDATASIZE PUSH1 0x1F NOT PUSH1 0x1F DUP3 ADD AND DUP3 ADD DUP1 PUSH1 0x40 MSTORE POP DUP2 ADD SWAP1 PUSH2 0x104 SWAP2 SWAP1 PUSH2 0xC83 JUMP JUMPDEST SWAP1 POP PUSH0 DUP1 SLOAD SWAP1 PUSH2 0x100 EXP SWAP1 DIV PUSH20 0xFFFFFFFFFFFFFFFFFFFFFFFFFFFFFFFFFFFFFFFF AND PUSH20 0xFFFFFFFFFFFFFFFFFFFFFFFFFFFFFFFFFFFFFFFF AND PUSH4 0x92642744 PUSH7 0x58D15E17628000 PUSH1 0x1 PUSH1 0x40 MLOAD DUP4 PUSH4 0xFFFFFFFF AND PUSH1 0xE0 SHL DUP2 MSTORE PUSH1 0x4 ADD PUSH2 0x167 SWAP2 SWAP1 PUSH2 0xCF0 JUMP JUMPDEST PUSH1 0x20 PUSH1 0x40 MLOAD DUP1 DUP4 SUB DUP2 DUP6 DUP9 GAS CALL ISZERO DUP1 ISZERO PUSH2 0x183 JUMPI RETURNDATASIZE PUSH0 DUP1 RETURNDATACOPY RETURNDATASIZE PUSH0 REVERT JUMPDEST POP POP POP POP POP PUSH1 0x40 MLOAD RETURNDATASIZE PUSH1 0x1F NOT PUSH1 0x1F DUP3 ADD AND DUP3 ADD DUP1 PUSH1 0x40 MSTORE POP DUP2 ADD SWAP1 PUSH2 0x1A8 SWAP2 SWAP1 PUSH2 0xC83 JUMP JUMPDEST POP PUSH0 DUP1 PUSH0 DUP1 SLOAD SWAP1 PUSH2 0x100 EXP SWAP1 DIV PUSH20 0xFFFFFFFFFFFFFFFFFFFFFFFFFFFFFFFFFFFFFFFF AND PUSH20 0xFFFFFFFFFFFFFFFFFFFFFFFFFFFFFFFFFFFFFFFF AND PUSH4 0x1AB0D49E PUSH1 0x1 PUSH0 SWAP1 SLOAD SWAP1 PUSH2 0x100 EXP SWAP1 DIV PUSH20 0xFFFFFFFFFFFFFFFFFFFFFFFFFFFFFFFFFFFFFFFF AND PUSH1 0x40 MLOAD DUP3 PUSH4 0xFFFFFFFF AND PUSH1 0xE0 SHL DUP2 MSTORE PUSH1 0x4 ADD PUSH2 0x224 SWAP2 SWAP1 PUSH2 0xD48 JUMP JUMPDEST PUSH1 0x40 DUP1 MLOAD DUP1 DUP4 SUB DUP2 DUP7 GAS STATICCALL ISZERO DUP1 ISZERO PUSH2 0x23E JUMPI RETURNDATASIZE PUSH0 DUP1 RETURNDATACOPY RETURNDATASIZE PUSH0 REVERT JUMPDEST POP POP POP POP PUSH1 0x40 MLOAD RETURNDATASIZE PUSH1 0x1F NOT PUSH1 0x1F DUP3 ADD AND DUP3 ADD DUP1 PUSH1 0x40 MSTORE POP DUP2 ADD SWAP1 PUSH2 0x262 SWAP2 SWAP1 PUSH2 0xD96 JUMP JUMPDEST SWAP2 POP SWAP2 POP PUSH20 0x0 PUSH4 0xABCD7960 PUSH0 DUP1 SLOAD SWAP1 PUSH2 0x100 EXP SWAP1 DIV PUSH20 0xFFFFFFFFFFFFFFFFFFFFFFFFFFFFFFFFFFFFFFFF AND PUSH20 0xFFFFFFFFFFFFFFFFFFFFFFFFFFFFFFFFFFFFFFFF AND PUSH4 0x18160DDD PUSH1 0x40 MLOAD DUP2 PUSH4 0xFFFFFFFF AND PUSH1 0xE0 SHL DUP2 MSTORE PUSH1 0x4 ADD PUSH1 0x20 PUSH1 0x40 MLOAD DUP1 DUP4 SUB DUP2 DUP7 GAS STATICCALL ISZERO DUP1 ISZERO PUSH2 0x2E8 JUMPI RETURNDATASIZE PUSH0 DUP1 RETURNDATACOPY RETURNDATASIZE PUSH0 REVERT JUMPDEST POP POP POP POP PUSH1 0x40 MLOAD RETURNDATASIZE PUSH1 0x1F NOT PUSH1 0x1F DUP3 ADD AND DUP3 ADD DUP1 PUSH1 0x40 MSTORE POP DUP2 ADD SWAP1 PUSH2 0x30C SWAP2 SWAP1 PUSH2 0xC83 JUMP JUMPDEST PUSH1 0x1 DUP7 PUSH2 0x319 SWAP2 SWAP1 PUSH2 0xE01 JUMP JUMPDEST PUSH1 0x40 MLOAD DUP4 PUSH4 0xFFFFFFFF AND PUSH1 0xE0 SHL DUP2 MSTORE PUSH1 0x4 ADD PUSH2 0x336 SWAP3 SWAP2 SWAP1 PUSH2 0xEC3 JUMP JUMPDEST PUSH1 0x20 PUSH1 0x40 MLOAD DUP1 DUP4 SUB DUP2 DUP7 GAS DELEGATECALL ISZERO DUP1 ISZERO PUSH2 0x351 JUMPI RETURNDATASIZE PUSH0 DUP1 RETURNDATACOPY RETURNDATASIZE PUSH0 REVERT JUMPDEST POP POP POP POP PUSH1 0x40 MLOAD RETURNDATASIZE PUSH1 0x1F NOT PUSH1 0x1F DUP3 ADD AND DUP3 ADD DUP1 PUSH1 0x40 MSTORE POP DUP2 ADD SWAP1 PUSH2 0x375 SWAP2 SWAP1 PUSH2 0xEFD JUMP JUMPDEST POP PUSH20 0x0 PUSH4 0xABCD7960 DUP4 PUSH1 0x1 PUSH1 0x40 MLOAD DUP4 PUSH4 0xFFFFFFFF AND PUSH1 0xE0 SHL DUP2 MSTORE PUSH1 0x4 ADD PUSH2 0x3B0 SWAP3 SWAP2 SWAP1 PUSH2 0xFA7 JUMP JUMPDEST PUSH1 0x20 PUSH1 0x40 MLOAD DUP1 DUP4 SUB DUP2 DUP7 GAS DELEGATECALL ISZERO DUP1 ISZERO PUSH2 0x3CB JUMPI RETURNDATASIZE PUSH0 DUP1 RETURNDATACOPY RETURNDATASIZE PUSH0 REVERT JUMPDEST POP POP POP POP PUSH1 0x40 MLOAD RETURNDATASIZE PUSH1 0x1F NOT PUSH1 0x1F DUP3 ADD AND DUP3 ADD DUP1 PUSH1 0x40 MSTORE POP DUP2 ADD SWAP1 PUSH2 0x3EF SWAP2 SWAP1 PUSH2 0xEFD JUMP JUMPDEST POP PUSH20 0x0 PUSH4 0x767392B3 DUP3 PUSH1 0x1 PUSH1 0x40 MLOAD DUP4 PUSH4 0xFFFFFFFF AND PUSH1 0xE0 SHL DUP2 MSTORE PUSH1 0x4 ADD PUSH2 0x42A SWAP3 SWAP2 SWAP1 PUSH2 0x103A JUMP JUMPDEST PUSH1 0x20 PUSH1 0x40 MLOAD DUP1 DUP4 SUB DUP2 DUP7 GAS DELEGATECALL ISZERO DUP1 ISZERO PUSH2 0x445 JUMPI RETURNDATASIZE PUSH0 DUP1 RETURNDATACOPY RETURNDATASIZE PUSH0 REVERT JUMPDEST POP POP POP POP PUSH1 0x40 MLOAD RETURNDATASIZE PUSH1 0x1F NOT PUSH1 0x1F DUP3 ADD AND DUP3 ADD DUP1 PUSH1 0x40 MSTORE POP DUP2 ADD SWAP1 PUSH2 0x469 SWAP2 SWAP1 PUSH2 0xEFD JUMP JUMPDEST POP POP POP POP JUMP JUMPDEST PUSH0 DUP1 PUSH10 0x21E19E0C9BAB2400000 PUSH1 0x1 PUSH0 SWAP1 SLOAD SWAP1 PUSH2 0x100 EXP SWAP1 DIV PUSH20 0xFFFFFFFFFFFFFFFFFFFFFFFFFFFFFFFFFFFFFFFF AND PUSH1 0x1 PUSH0 SWAP1 SLOAD SWAP1 PUSH2 0x100 EXP SWAP1 DIV PUSH20 0xFFFFFFFFFFFFFFFFFFFFFFFFFFFFFFFFFFFFFFFF AND PUSH1 0x40 MLOAD PUSH2 0x4CC SWAP1 PUSH2 0xC36 JUMP JUMPDEST PUSH2 0x4D9 SWAP5 SWAP4 SWAP3 SWAP2 SWAP1 PUSH2 0x1159 JUMP JUMPDEST PUSH1 0x40 MLOAD DUP1 SWAP2 SUB SWAP1 PUSH0 CREATE DUP1 ISZERO DUP1 ISZERO PUSH2 0x4F2 JUMPI RETURNDATASIZE PUSH0 DUP1 RETURNDATACOPY RETURNDATASIZE PUSH0 REVERT JUMPDEST POP PUSH0 DUP1 PUSH2 0x100 EXP DUP2 SLOAD DUP2 PUSH20 0xFFFFFFFFFFFFFFFFFFFFFFFFFFFFFFFFFFFFFFFF MUL NOT AND SWAP1 DUP4 PUSH20 0xFFFFFFFFFFFFFFFFFFFFFFFFFFFFFFFFFFFFFFFF AND MUL OR SWAP1 SSTORE POP POP JUMP JUMPDEST PUSH0 DUP1 SLOAD SWAP1 PUSH2 0x100 EXP SWAP1 DIV PUSH20 0xFFFFFFFFFFFFFFFFFFFFFFFFFFFFFFFFFFFFFFFF AND PUSH20 0xFFFFFFFFFFFFFFFFFFFFFFFFFFFFFFFFFFFFFFFF AND PUSH4 0x92642744 PUSH7 0x58D15E17628000 PUSH1 0x1 PUSH1 0x40 MLOAD DUP4 PUSH4 0xFFFFFFFF AND PUSH1 0xE0 SHL DUP2 MSTORE PUSH1 0x4 ADD PUSH2 0x595 SWAP2 SWAP1 PUSH2 0xCF0 JUMP JUMPDEST PUSH1 0x20 PUSH1 0x40 MLOAD DUP1 DUP4 SUB DUP2 DUP6 DUP9 GAS CALL SWAP4 POP POP POP POP DUP1 ISZERO PUSH2 0x5D1 JUMPI POP PUSH1 0x40 MLOAD RETURNDATASIZE PUSH1 0x1F NOT PUSH1 0x1F DUP3 ADD AND DUP3 ADD DUP1 PUSH1 0x40 MSTORE POP DUP2 ADD SWAP1 PUSH2 0x5CE SWAP2 SWAP1 PUSH2 0xC83 JUMP JUMPDEST PUSH1 0x1 JUMPDEST PUSH2 0x729 JUMPI PUSH2 0x5DD PUSH2 0x11BB JUMP JUMPDEST DUP1 PUSH4 0x8C379A0 SUB PUSH2 0x679 JUMPI POP PUSH2 0x5F1 PUSH2 0x1248 JUMP JUMPDEST DUP1 PUSH2 0x5FC JUMPI POP PUSH2 0x67B JUMP JUMPDEST PUSH20 0x0 PUSH4 0xE8C2CB16 DUP3 PUSH1 0x40 MLOAD DUP3 PUSH4 0xFFFFFFFF AND PUSH1 0xE0 SHL DUP2 MSTORE PUSH1 0x4 ADD PUSH2 0x633 SWAP2 SWAP1 PUSH2 0x13E1 JUMP JUMPDEST PUSH1 0x20 PUSH1 0x40 MLOAD DUP1 DUP4 SUB DUP2 DUP7 GAS DELEGATECALL ISZERO DUP1 ISZERO PUSH2 0x64E JUMPI RETURNDATASIZE PUSH0 DUP1 RETURNDATACOPY RETURNDATASIZE PUSH0 REVERT JUMPDEST POP POP POP POP PUSH1 0x40 MLOAD RETURNDATASIZE PUSH1 0x1F NOT PUSH1 0x1F DUP3 ADD AND DUP3 ADD DUP1 PUSH1 0x40 MSTORE POP DUP2 ADD SWAP1 PUSH2 0x672 SWAP2 SWAP1 PUSH2 0xEFD JUMP JUMPDEST POP POP PUSH2 0x724 JUMP JUMPDEST POP JUMPDEST RETURNDATASIZE DUP1 PUSH0 DUP2 EQ PUSH2 0x6A5 JUMPI PUSH1 0x40 MLOAD SWAP2 POP PUSH1 0x1F NOT PUSH1 0x3F RETURNDATASIZE ADD AND DUP3 ADD PUSH1 0x40 MSTORE RETURNDATASIZE DUP3 MSTORE RETURNDATASIZE PUSH0 PUSH1 0x20 DUP5 ADD RETURNDATACOPY PUSH2 0x6AA JUMP JUMPDEST PUSH1 0x60 SWAP2 POP JUMPDEST POP PUSH20 0x0 PUSH4 0x39DF137F PUSH0 PUSH1 0x40 MLOAD DUP3 PUSH4 0xFFFFFFFF AND PUSH1 0xE0 SHL DUP2 MSTORE PUSH1 0x4 ADD PUSH2 0x6E2 SWAP2 SWAP1 PUSH2 0x1471 JUMP JUMPDEST PUSH1 0x20 PUSH1 0x40 MLOAD DUP1 DUP4 SUB DUP2 DUP7 GAS DELEGATECALL ISZERO DUP1 ISZERO PUSH2 0x6FD JUMPI RETURNDATASIZE PUSH0 DUP1 RETURNDATACOPY RETURNDATASIZE PUSH0 REVERT JUMPDEST POP POP POP POP PUSH1 0x40 MLOAD RETURNDATASIZE PUSH1 0x1F NOT PUSH1 0x1F DUP3 ADD AND DUP3 ADD DUP1 PUSH1 0x40 MSTORE POP DUP2 ADD SWAP1 PUSH2 0x721 SWAP2 SWAP1 PUSH2 0xEFD JUMP JUMPDEST POP POP JUMPDEST PUSH2 0x7A2 JUMP JUMPDEST POP PUSH20 0x0 PUSH4 0x39DF137F PUSH0 PUSH1 0x40 MLOAD DUP3 PUSH4 0xFFFFFFFF AND PUSH1 0xE0 SHL DUP2 MSTORE PUSH1 0x4 ADD PUSH2 0x761 SWAP2 SWAP1 PUSH2 0x150D JUMP JUMPDEST PUSH1 0x20 PUSH1 0x40 MLOAD DUP1 DUP4 SUB DUP2 DUP7 GAS DELEGATECALL ISZERO DUP1 ISZERO PUSH2 0x77C JUMPI RETURNDATASIZE PUSH0 DUP1 RETURNDATACOPY RETURNDATASIZE PUSH0 REVERT JUMPDEST POP POP POP POP PUSH1 0x40 MLOAD RETURNDATASIZE PUSH1 0x1F NOT PUSH1 0x1F DUP3 ADD AND DUP3 ADD DUP1 PUSH1 0x40 MSTORE POP DUP2 ADD SWAP1 PUSH2 0x7A0 SWAP2 SWAP1 PUSH2 0xEFD JUMP JUMPDEST POP JUMPDEST JUMP JUMPDEST PUSH0 DUP1 SLOAD SWAP1 PUSH2 0x100 EXP SWAP1 DIV PUSH20 0xFFFFFFFFFFFFFFFFFFFFFFFFFFFFFFFFFFFFFFFF AND PUSH20 0xFFFFFFFFFFFFFFFFFFFFFFFFFFFFFFFFFFFFFFFF AND PUSH4 0x92642744 PUSH7 0x58D15E17628000 PUSH1 0x1 PUSH1 0x40 MLOAD DUP4 PUSH4 0xFFFFFFFF AND PUSH1 0xE0 SHL DUP2 MSTORE PUSH1 0x4 ADD PUSH2 0x805 SWAP2 SWAP1 PUSH2 0xCF0 JUMP JUMPDEST PUSH1 0x20 PUSH1 0x40 MLOAD DUP1 DUP4 SUB DUP2 DUP6 DUP9 GAS CALL ISZERO DUP1 ISZERO PUSH2 0x821 JUMPI RETURNDATASIZE PUSH0 DUP1 RETURNDATACOPY RETURNDATASIZE PUSH0 REVERT JUMPDEST POP POP POP POP POP PUSH1 0x40 MLOAD RETURNDATASIZE PUSH1 0x1F NOT PUSH1 0x1F DUP3 ADD AND DUP3 ADD DUP1 PUSH1 0x40 MSTORE POP DUP2 ADD SWAP1 PUSH2 0x846 SWAP2 SWAP1 PUSH2 0xC83 JUMP JUMPDEST POP PUSH0 DUP1 PUSH0 SWAP1 SLOAD SWAP1 PUSH2 0x100 EXP SWAP1 DIV PUSH20 0xFFFFFFFFFFFFFFFFFFFFFFFFFFFFFFFFFFFFFFFF AND PUSH20 0xFFFFFFFFFFFFFFFFFFFFFFFFFFFFFFFFFFFFFFFF AND PUSH4 0x18160DDD PUSH1 0x40 MLOAD DUP2 PUSH4 0xFFFFFFFF AND PUSH1 0xE0 SHL DUP2 MSTORE PUSH1 0x4 ADD PUSH1 0x20 PUSH1 0x40 MLOAD DUP1 DUP4 SUB DUP2 DUP7 GAS STATICCALL ISZERO DUP1 ISZERO PUSH2 0x8B1 JUMPI RETURNDATASIZE PUSH0 DUP1 RETURNDATACOPY RETURNDATASIZE PUSH0 REVERT JUMPDEST POP POP POP POP PUSH1 0x40 MLOAD RETURNDATASIZE PUSH1 0x1F NOT PUSH1 0x1F DUP3 ADD AND DUP3 ADD DUP1 PUSH1 0x40 MSTORE POP DUP2 ADD SWAP1 PUSH2 0x8D5 SWAP2 SWAP1 PUSH2 0xC83 JUMP JUMPDEST SWAP1 POP PUSH0 DUP1 PUSH0 SWAP1 SLOAD SWAP1 PUSH2 0x100 EXP SWAP1 DIV PUSH20 0xFFFFFFFFFFFFFFFFFFFFFFFFFFFFFFFFFFFFFFFF AND PUSH20 0xFFFFFFFFFFFFFFFFFFFFFFFFFFFFFFFFFFFFFFFF AND PUSH4 0x18160DDD PUSH1 0x40 MLOAD DUP2 PUSH4 0xFFFFFFFF AND PUSH1 0xE0 SHL DUP2 MSTORE PUSH1 0x4 ADD PUSH1 0x20 PUSH1 0x40 MLOAD DUP1 DUP4 SUB DUP2 DUP7 GAS STATICCALL ISZERO DUP1 ISZERO PUSH2 0x941 JUMPI RETURNDATASIZE PUSH0 DUP1 RETURNDATACOPY RETURNDATASIZE PUSH0 REVERT JUMPDEST POP POP POP POP PUSH1 0x40 MLOAD RETURNDATASIZE PUSH1 0x1F NOT PUSH1 0x1F DUP3 ADD AND DUP3 ADD DUP1 PUSH1 0x40 MSTORE POP DUP2 ADD SWAP1 PUSH2 0x965 SWAP2 SWAP1 PUSH2 0xC83 JUMP JUMPDEST SWAP1 POP PUSH0 DUP1 SLOAD SWAP1 PUSH2 0x100 EXP SWAP1 DIV PUSH20 0xFFFFFFFFFFFFFFFFFFFFFFFFFFFFFFFFFFFFFFFF AND PUSH20 0xFFFFFFFFFFFFFFFFFFFFFFFFFFFFFFFFFFFFFFFF AND PUSH4 0x2890E0D7 DUP4 PUSH1 0x40 MLOAD DUP3 PUSH4 0xFFFFFFFF AND PUSH1 0xE0 SHL DUP2 MSTORE PUSH1 0x4 ADD PUSH2 0x9BF SWAP2 SWAP1 PUSH2 0x1548 JUMP JUMPDEST PUSH0 PUSH1 0x40 MLOAD DUP1 DUP4 SUB DUP2 PUSH0 DUP8 DUP1 EXTCODESIZE ISZERO DUP1 ISZERO PUSH2 0x9D6 JUMPI PUSH0 DUP1 REVERT JUMPDEST POP GAS CALL ISZERO DUP1 ISZERO PUSH2 0x9E8 JUMPI RETURNDATASIZE PUSH0 DUP1 RETURNDATACOPY RETURNDATASIZE PUSH0 REVERT JUMPDEST POP POP POP POP PUSH0 DUP1 PUSH0 SWAP1 SLOAD SWAP1 PUSH2 0x100 EXP SWAP1 DIV PUSH20 0xFFFFFFFFFFFFFFFFFFFFFFFFFFFFFFFFFFFFFFFF AND PUSH20 0xFFFFFFFFFFFFFFFFFFFFFFFFFFFFFFFFFFFFFFFF AND PUSH4 0x1AB0D49E PUSH1 0x1 PUSH0 SWAP1 SLOAD SWAP1 PUSH2 0x100 EXP SWAP1 DIV PUSH20 0xFFFFFFFFFFFFFFFFFFFFFFFFFFFFFFFFFFFFFFFF AND PUSH1 0x40 MLOAD DUP3 PUSH4 0xFFFFFFFF AND PUSH1 0xE0 SHL DUP2 MSTORE PUSH1 0x4 ADD PUSH2 0xA67 SWAP2 SWAP1 PUSH2 0xD48 JUMP JUMPDEST PUSH1 0x40 DUP1 MLOAD DUP1 DUP4 SUB DUP2 DUP7 GAS STATICCALL ISZERO DUP1 ISZERO PUSH2 0xA81 JUMPI RETURNDATASIZE PUSH0 DUP1 RETURNDATACOPY RETURNDATASIZE PUSH0 REVERT JUMPDEST POP POP POP POP PUSH1 0x40 MLOAD RETURNDATASIZE PUSH1 0x1F NOT PUSH1 0x1F DUP3 ADD AND DUP3 ADD DUP1 PUSH1 0x40 MSTORE POP DUP2 ADD SWAP1 PUSH2 0xAA5 SWAP2 SWAP1 PUSH2 0xD96 JUMP JUMPDEST SWAP2 POP POP PUSH20 0x0 PUSH4 0xABCD7960 PUSH0 DUP1 SLOAD SWAP1 PUSH2 0x100 EXP SWAP1 DIV PUSH20 0xFFFFFFFFFFFFFFFFFFFFFFFFFFFFFFFFFFFFFFFF AND PUSH20 0xFFFFFFFFFFFFFFFFFFFFFFFFFFFFFFFFFFFFFFFF AND PUSH4 0x18160DDD PUSH1 0x40 MLOAD DUP2 PUSH4 0xFFFFFFFF AND PUSH1 0xE0 SHL DUP2 MSTORE PUSH1 0x4 ADD PUSH1 0x20 PUSH1 0x40 MLOAD DUP1 DUP4 SUB DUP2 DUP7 GAS STATICCALL ISZERO DUP1 ISZERO PUSH2 0xB2A JUMPI RETURNDATASIZE PUSH0 DUP1 RETURNDATACOPY RETURNDATASIZE PUSH0 REVERT JUMPDEST POP POP POP POP PUSH1 0x40 MLOAD RETURNDATASIZE PUSH1 0x1F NOT PUSH1 0x1F DUP3 ADD AND DUP3 ADD DUP1 PUSH1 0x40 MSTORE POP DUP2 ADD SWAP1 PUSH2 0xB4E SWAP2 SWAP1 PUSH2 0xC83 JUMP JUMPDEST PUSH1 0x1 DUP6 PUSH2 0xB5B SWAP2 SWAP1 PUSH2 0x1561 JUMP JUMPDEST PUSH1 0x40 MLOAD DUP4 PUSH4 0xFFFFFFFF AND PUSH1 0xE0 SHL DUP2 MSTORE PUSH1 0x4 ADD PUSH2 0xB78 SWAP3 SWAP2 SWAP1 PUSH2 0x1604 JUMP JUMPDEST PUSH1 0x20 PUSH1 0x40 MLOAD DUP1 DUP4 SUB DUP2 DUP7 GAS DELEGATECALL ISZERO DUP1 ISZERO PUSH2 0xB93 JUMPI RETURNDATASIZE PUSH0 DUP1 RETURNDATACOPY RETURNDATASIZE PUSH0 REVERT JUMPDEST POP POP POP POP PUSH1 0x40 MLOAD RETURNDATASIZE PUSH1 0x1F NOT PUSH1 0x1F DUP3 ADD AND DUP3 ADD DUP1 PUSH1 0x40 MSTORE POP DUP2 ADD SWAP1 PUSH2 0xBB7 SWAP2 SWAP1 PUSH2 0xEFD JUMP JUMPDEST POP PUSH20 0x0 PUSH4 0x767392B3 DUP3 PUSH0 PUSH1 0x40 MLOAD DUP4 PUSH4 0xFFFFFFFF AND PUSH1 0xE0 SHL DUP2 MSTORE PUSH1 0x4 ADD PUSH2 0xBF1 SWAP3 SWAP2 SWAP1 PUSH2 0x16AE JUMP JUMPDEST PUSH1 0x20 PUSH1 0x40 MLOAD DUP1 DUP4 SUB DUP2 DUP7 GAS DELEGATECALL ISZERO DUP1 ISZERO PUSH2 0xC0C JUMPI RETURNDATASIZE PUSH0 DUP1 RETURNDATACOPY RETURNDATASIZE PUSH0 REVERT JUMPDEST POP POP POP POP PUSH1 0x40 MLOAD RETURNDATASIZE PUSH1 0x1F NOT PUSH1 0x1F DUP3 ADD AND DUP3 ADD DUP1 PUSH1 0x40 MSTORE POP DUP2 ADD SWAP1 PUSH2 0xC30 SWAP2 SWAP1 PUSH2 0xEFD JUMP JUMPDEST POP POP POP POP JUMP JUMPDEST PUSH2 0x593F DUP1 PUSH2 0x16E9 DUP4 CODECOPY ADD SWAP1 JUMP JUMPDEST PUSH0 PUSH1 0x40 MLOAD SWAP1 POP SWAP1 JUMP JUMPDEST PUSH0 DUP1 REVERT JUMPDEST PUSH0 DUP2 SWAP1 POP SWAP2 SWAP1 POP JUMP JUMPDEST PUSH2 0xC62 DUP2 PUSH2 0xC50 JUMP JUMPDEST DUP2 EQ PUSH2 0xC6C JUMPI PUSH0 DUP1 REVERT JUMPDEST POP JUMP JUMPDEST PUSH0 DUP2 MLOAD SWAP1 POP PUSH2 0xC7D DUP2 PUSH2 0xC59 JUMP JUMPDEST SWAP3 SWAP2 POP POP JUMP JUMPDEST PUSH0 PUSH1 0x20 DUP3 DUP5 SUB SLT ISZERO PUSH2 0xC98 JUMPI PUSH2 0xC97 PUSH2 0xC4C JUMP JUMPDEST JUMPDEST PUSH0 PUSH2 0xCA5 DUP5 DUP3 DUP6 ADD PUSH2 0xC6F JUMP JUMPDEST SWAP2 POP POP SWAP3 SWAP2 POP POP JUMP JUMPDEST PUSH0 DUP2 SWAP1 POP SWAP2 SWAP1 POP JUMP JUMPDEST PUSH0 DUP2 SWAP1 POP SWAP2 SWAP1 POP JUMP JUMPDEST PUSH0 PUSH2 0xCDA PUSH2 0xCD5 PUSH2 0xCD0 DUP5 PUSH2 0xCAE JUMP JUMPDEST PUSH2 0xCB7 JUMP JUMPDEST PUSH2 0xC50 JUMP JUMPDEST SWAP1 POP SWAP2 SWAP1 POP JUMP JUMPDEST PUSH2 0xCEA DUP2 PUSH2 0xCC0 JUMP JUMPDEST DUP3 MSTORE POP POP JUMP JUMPDEST PUSH0 PUSH1 0x20 DUP3 ADD SWAP1 POP PUSH2 0xD03 PUSH0 DUP4 ADD DUP5 PUSH2 0xCE1 JUMP JUMPDEST SWAP3 SWAP2 POP POP JUMP JUMPDEST PUSH0 PUSH20 0xFFFFFFFFFFFFFFFFFFFFFFFFFFFFFFFFFFFFFFFF DUP3 AND SWAP1 POP SWAP2 SWAP1 POP JUMP JUMPDEST PUSH0 PUSH2 0xD32 DUP3 PUSH2 0xD09 JUMP JUMPDEST SWAP1 POP SWAP2 SWAP1 POP JUMP JUMPDEST PUSH2 0xD42 DUP2 PUSH2 0xD28 JUMP JUMPDEST DUP3 MSTORE POP POP JUMP JUMPDEST PUSH0 PUSH1 0x20 DUP3 ADD SWAP1 POP PUSH2 0xD5B PUSH0 DUP4 ADD DUP5 PUSH2 0xD39 JUMP JUMPDEST SWAP3 SWAP2 POP POP JUMP JUMPDEST PUSH0 DUP2 ISZERO ISZERO SWAP1 POP SWAP2 SWAP1 POP JUMP JUMPDEST PUSH2 0xD75 DUP2 PUSH2 0xD61 JUMP JUMPDEST DUP2 EQ PUSH2 0xD7F JUMPI PUSH0 DUP1 REVERT JUMPDEST POP JUMP JUMPDEST PUSH0 DUP2 MLOAD SWAP1 POP PUSH2 0xD90 DUP2 PUSH2 0xD6C JUMP JUMPDEST SWAP3 SWAP2 POP POP JUMP JUMPDEST PUSH0 DUP1 PUSH1 0x40 DUP4 DUP6 SUB SLT ISZERO PUSH2 0xDAC JUMPI PUSH2 0xDAB PUSH2 0xC4C JUMP JUMPDEST JUMPDEST PUSH0 PUSH2 0xDB9 DUP6 DUP3 DUP7 ADD PUSH2 0xC6F JUMP JUMPDEST SWAP3 POP POP PUSH1 0x20 PUSH2 0xDCA DUP6 DUP3 DUP7 ADD PUSH2 0xD82 JUMP JUMPDEST SWAP2 POP POP SWAP3 POP SWAP3 SWAP1 POP JUMP JUMPDEST PUSH32 0x4E487B7100000000000000000000000000000000000000000000000000000000 PUSH0 MSTORE PUSH1 0x11 PUSH1 0x4 MSTORE PUSH1 0x24 PUSH0 REVERT JUMPDEST PUSH0 PUSH2 0xE0B DUP3 PUSH2 0xC50 JUMP JUMPDEST SWAP2 POP PUSH2 0xE16 DUP4 PUSH2 0xC50 JUMP JUMPDEST SWAP3 POP DUP3 DUP3 ADD SWAP1 POP DUP1 DUP3 GT ISZERO PUSH2 0xE2E JUMPI PUSH2 0xE2D PUSH2 0xDD4 JUMP JUMPDEST JUMPDEST SWAP3 SWAP2 POP POP JUMP JUMPDEST PUSH2 0xE3D DUP2 PUSH2 0xC50 JUMP JUMPDEST DUP3 MSTORE POP POP JUMP JUMPDEST PUSH0 DUP3 DUP3 MSTORE PUSH1 0x20 DUP3 ADD SWAP1 POP SWAP3 SWAP2 POP POP JUMP JUMPDEST PUSH32 0x546F74616C20737570706C792073686F756C6420696E63726561736520627920 PUSH0 DUP3 ADD MSTORE PUSH32 0x3100000000000000000000000000000000000000000000000000000000000000 PUSH1 0x20 DUP3 ADD MSTORE POP JUMP JUMPDEST PUSH0 PUSH2 0xEAD PUSH1 0x21 DUP4 PUSH2 0xE43 JUMP JUMPDEST SWAP2 POP PUSH2 0xEB8 DUP3 PUSH2 0xE53 JUMP JUMPDEST PUSH1 0x40 DUP3 ADD SWAP1 POP SWAP2 SWAP1 POP JUMP JUMPDEST PUSH0 PUSH1 0x60 DUP3 ADD SWAP1 POP PUSH2 0xED6 PUSH0 DUP4 ADD DUP6 PUSH2 0xE34 JUMP JUMPDEST PUSH2 0xEE3 PUSH1 0x20 DUP4 ADD DUP5 PUSH2 0xE34 JUMP JUMPDEST DUP2 DUP2 SUB PUSH1 0x40 DUP4 ADD MSTORE PUSH2 0xEF4 DUP2 PUSH2 0xEA1 JUMP JUMPDEST SWAP1 POP SWAP4 SWAP3 POP POP POP JUMP JUMPDEST PUSH0 PUSH1 0x20 DUP3 DUP5 SUB SLT ISZERO PUSH2 0xF12 JUMPI PUSH2 0xF11 PUSH2 0xC4C JUMP JUMPDEST JUMPDEST PUSH0 PUSH2 0xF1F DUP5 DUP3 DUP6 ADD PUSH2 0xD82 JUMP JUMPDEST SWAP2 POP POP SWAP3 SWAP2 POP POP JUMP JUMPDEST PUSH2 0xF31 DUP2 PUSH2 0xCC0 JUMP JUMPDEST DUP3 MSTORE POP POP JUMP JUMPDEST PUSH32 0x4F776E65722073686F756C64206861766520616E204E4654206F66206C657665 PUSH0 DUP3 ADD MSTORE PUSH32 0x6C20310000000000000000000000000000000000000000000000000000000000 PUSH1 0x20 DUP3 ADD MSTORE POP JUMP JUMPDEST PUSH0 PUSH2 0xF91 PUSH1 0x23 DUP4 PUSH2 0xE43 JUMP JUMPDEST SWAP2 POP PUSH2 0xF9C DUP3 PUSH2 0xF37 JUMP JUMPDEST PUSH1 0x40 DUP3 ADD SWAP1 POP SWAP2 SWAP1 POP JUMP JUMPDEST PUSH0 PUSH1 0x60 DUP3 ADD SWAP1 POP PUSH2 0xFBA PUSH0 DUP4 ADD DUP6 PUSH2 0xE34 JUMP JUMPDEST PUSH2 0xFC7 PUSH1 0x20 DUP4 ADD DUP5 PUSH2 0xF28 JUMP JUMPDEST DUP2 DUP2 SUB PUSH1 0x40 DUP4 ADD MSTORE PUSH2 0xFD8 DUP2 PUSH2 0xF85 JUMP JUMPDEST SWAP1 POP SWAP4 SWAP3 POP POP POP JUMP JUMPDEST PUSH2 0xFEA DUP2 PUSH2 0xD61 JUMP JUMPDEST DUP3 MSTORE POP POP JUMP JUMPDEST PUSH32 0x4F776E65722073686F756C64206861766520616E204E46540000000000000000 PUSH0 DUP3 ADD MSTORE POP JUMP JUMPDEST PUSH0 PUSH2 0x1024 PUSH1 0x18 DUP4 PUSH2 0xE43 JUMP JUMPDEST SWAP2 POP PUSH2 0x102F DUP3 PUSH2 0xFF0 JUMP JUMPDEST PUSH1 0x20 DUP3 ADD SWAP1 POP SWAP2 SWAP1 POP JUMP JUMPDEST PUSH0 PUSH1 0x60 DUP3 ADD SWAP1 POP PUSH2 0x104D PUSH0 DUP4 ADD DUP6 PUSH2 0xFE1 JUMP JUMPDEST PUSH2 0x105A PUSH1 0x20 DUP4 ADD DUP5 PUSH2 0xFE1 JUMP JUMPDEST DUP2 DUP2 SUB PUSH1 0x40 DUP4 ADD MSTORE PUSH2 0x106B DUP2 PUSH2 0x1018 JUMP JUMPDEST SWAP1 POP SWAP4 SWAP3 POP POP POP JUMP JUMPDEST PUSH0 DUP3 DUP3 MSTORE PUSH1 0x20 DUP3 ADD SWAP1 POP SWAP3 SWAP2 POP POP JUMP JUMPDEST PUSH32 0x68747470733A2F2F6578616D706C652E636F6D2F000000000000000000000000 PUSH0 DUP3 ADD MSTORE POP JUMP JUMPDEST PUSH0 PUSH2 0x10B8 PUSH1 0x14 DUP4 PUSH2 0x1074 JUMP JUMPDEST SWAP2 POP PUSH2 0x10C3 DUP3 PUSH2 0x1084 JUMP JUMPDEST PUSH1 0x20 DUP3 ADD SWAP1 POP SWAP2 SWAP1 POP JUMP JUMPDEST PUSH0 PUSH2 0x10E8 PUSH2 0x10E3 PUSH2 0x10DE DUP5 PUSH2 0xD09 JUMP JUMPDEST PUSH2 0xCB7 JUMP JUMPDEST PUSH2 0xD09 JUMP JUMPDEST SWAP1 POP SWAP2 SWAP1 POP JUMP JUMPDEST PUSH0 PUSH2 0x10F9 DUP3 PUSH2 0x10CE JUMP JUMPDEST SWAP1 POP SWAP2 SWAP1 POP JUMP JUMPDEST PUSH0 PUSH2 0x110A DUP3 PUSH2 0x10EF JUMP JUMPDEST SWAP1 POP SWAP2 SWAP1 POP JUMP JUMPDEST PUSH2 0x111A DUP2 PUSH2 0x1100 JUMP JUMPDEST DUP3 MSTORE POP POP JUMP JUMPDEST PUSH0 DUP2 SWAP1 POP SWAP2 SWAP1 POP JUMP JUMPDEST PUSH0 PUSH2 0x1143 PUSH2 0x113E PUSH2 0x1139 DUP5 PUSH2 0x1120 JUMP JUMPDEST PUSH2 0xCB7 JUMP JUMPDEST PUSH2 0xC50 JUMP JUMPDEST SWAP1 POP SWAP2 SWAP1 POP JUMP JUMPDEST PUSH2 0x1153 DUP2 PUSH2 0x1129 JUMP JUMPDEST DUP3 MSTORE POP POP JUMP JUMPDEST PUSH0 PUSH1 0xA0 DUP3 ADD SWAP1 POP DUP2 DUP2 SUB PUSH0 DUP4 ADD MSTORE PUSH2 0x1170 DUP2 PUSH2 0x10AC JUMP JUMPDEST SWAP1 POP PUSH2 0x117F PUSH1 0x20 DUP4 ADD DUP8 PUSH2 0x1111 JUMP JUMPDEST PUSH2 0x118C PUSH1 0x40 DUP4 ADD DUP7 PUSH2 0x114A JUMP JUMPDEST PUSH2 0x1199 PUSH1 0x60 DUP4 ADD DUP6 PUSH2 0xD39 JUMP JUMPDEST PUSH2 0x11A6 PUSH1 0x80 DUP4 ADD DUP5 PUSH2 0xD39 JUMP JUMPDEST SWAP6 SWAP5 POP POP POP POP POP JUMP JUMPDEST PUSH0 DUP2 PUSH1 0xE0 SHR SWAP1 POP SWAP2 SWAP1 POP JUMP JUMPDEST PUSH0 PUSH1 0x3 RETURNDATASIZE GT ISZERO PUSH2 0x11D7 JUMPI PUSH1 0x4 PUSH0 DUP1 RETURNDATACOPY PUSH2 0x11D4 PUSH0 MLOAD PUSH2 0x11AF JUMP JUMPDEST SWAP1 POP JUMPDEST SWAP1 JUMP JUMPDEST PUSH0 PUSH1 0x1F NOT PUSH1 0x1F DUP4 ADD AND SWAP1 POP SWAP2 SWAP1 POP JUMP JUMPDEST PUSH32 0x4E487B7100000000000000000000000000000000000000000000000000000000 PUSH0 MSTORE PUSH1 0x41 PUSH1 0x4 MSTORE PUSH1 0x24 PUSH0 REVERT JUMPDEST PUSH2 0x1220 DUP3 PUSH2 0x11DA JUMP JUMPDEST DUP2 ADD DUP2 DUP2 LT PUSH8 0xFFFFFFFFFFFFFFFF DUP3 GT OR ISZERO PUSH2 0x123F JUMPI PUSH2 0x123E PUSH2 0x11EA JUMP JUMPDEST JUMPDEST DUP1 PUSH1 0x40 MSTORE POP POP POP JUMP JUMPDEST PUSH0 PUSH1 0x44 RETURNDATASIZE LT PUSH2 0x12D4 JUMPI PUSH2 0x1259 PUSH2 0xC43 JUMP JUMPDEST PUSH1 0x4 RETURNDATASIZE SUB PUSH1 0x4 DUP3 RETURNDATACOPY DUP1 MLOAD RETURNDATASIZE PUSH1 0x24 DUP3 ADD GT PUSH8 0xFFFFFFFFFFFFFFFF DUP3 GT OR ISZERO PUSH2 0x1281 JUMPI POP POP PUSH2 0x12D4 JUMP JUMPDEST DUP1 DUP3 ADD DUP1 MLOAD PUSH8 0xFFFFFFFFFFFFFFFF DUP2 GT ISZERO PUSH2 0x129F JUMPI POP POP POP POP PUSH2 0x12D4 JUMP JUMPDEST DUP1 PUSH1 0x20 DUP4 ADD ADD PUSH1 0x4 RETURNDATASIZE SUB DUP6 ADD DUP2 GT ISZERO PUSH2 0x12BC JUMPI POP POP POP POP POP PUSH2 0x12D4 JUMP JUMPDEST PUSH2 0x12CB DUP3 PUSH1 0x20 ADD DUP6 ADD DUP7 PUSH2 0x1217 JUMP JUMPDEST DUP3 SWAP6 POP POP POP POP POP POP JUMPDEST SWAP1 JUMP JUMPDEST PUSH0 DUP2 MLOAD SWAP1 POP SWAP2 SWAP1 POP JUMP JUMPDEST DUP3 DUP2 DUP4 MCOPY PUSH0 DUP4 DUP4 ADD MSTORE POP POP POP JUMP JUMPDEST PUSH0 PUSH2 0x12F9 DUP3 PUSH2 0x12D7 JUMP JUMPDEST PUSH2 0x1303 DUP2 DUP6 PUSH2 0xE43 JUMP JUMPDEST SWAP4 POP PUSH2 0x1313 DUP2 DUP6 PUSH1 0x20 DUP7 ADD PUSH2 0x12E1 JUMP JUMPDEST PUSH2 0x131C DUP2 PUSH2 0x11DA JUMP JUMPDEST DUP5 ADD SWAP2 POP POP SWAP3 SWAP2 POP POP JUMP JUMPDEST PUSH32 0x546F6B656E2042616C616E636500000000000000000000000000000000000000 PUSH0 DUP3 ADD MSTORE POP JUMP JUMPDEST PUSH0 PUSH2 0x135B PUSH1 0xD DUP4 PUSH2 0xE43 JUMP JUMPDEST SWAP2 POP PUSH2 0x1366 DUP3 PUSH2 0x1327 JUMP JUMPDEST PUSH1 0x20 DUP3 ADD SWAP1 POP SWAP2 SWAP1 POP JUMP JUMPDEST PUSH32 0x53686F756C642072657665727420776974682027546F6B656E2042616C616E63 PUSH0 DUP3 ADD MSTORE PUSH32 0x6527000000000000000000000000000000000000000000000000000000000000 PUSH1 0x20 DUP3 ADD MSTORE POP JUMP JUMPDEST PUSH0 PUSH2 0x13CB PUSH1 0x22 DUP4 PUSH2 0xE43 JUMP JUMPDEST SWAP2 POP PUSH2 0x13D6 DUP3 PUSH2 0x1371 JUMP JUMPDEST PUSH1 0x40 DUP3 ADD SWAP1 POP SWAP2 SWAP1 POP JUMP JUMPDEST PUSH0 PUSH1 0x60 DUP3 ADD SWAP1 POP DUP2 DUP2 SUB PUSH0 DUP4 ADD MSTORE PUSH2 0x13F9 DUP2 DUP5 PUSH2 0x12EF JUMP JUMPDEST SWAP1 POP DUP2 DUP2 SUB PUSH1 0x20 DUP4 ADD MSTORE PUSH2 0x140C DUP2 PUSH2 0x134F JUMP JUMPDEST SWAP1 POP DUP2 DUP2 SUB PUSH1 0x40 DUP4 ADD MSTORE PUSH2 0x141F DUP2 PUSH2 0x13BF JUMP JUMPDEST SWAP1 POP SWAP3 SWAP2 POP POP JUMP JUMPDEST PUSH32 0x556E6578706563746564206572726F7200000000000000000000000000000000 PUSH0 DUP3 ADD MSTORE POP JUMP JUMPDEST PUSH0 PUSH2 0x145B PUSH1 0x10 DUP4 PUSH2 0xE43 JUMP JUMPDEST SWAP2 POP PUSH2 0x1466 DUP3 PUSH2 0x1427 JUMP JUMPDEST PUSH1 0x20 DUP3 ADD SWAP1 POP SWAP2 SWAP1 POP JUMP JUMPDEST PUSH0 PUSH1 0x40 DUP3 ADD SWAP1 POP PUSH2 0x1484 PUSH0 DUP4 ADD DUP5 PUSH2 0xFE1 JUMP JUMPDEST DUP2 DUP2 SUB PUSH1 0x20 DUP4 ADD MSTORE PUSH2 0x1495 DUP2 PUSH2 0x144F JUMP JUMPDEST SWAP1 POP SWAP3 SWAP2 POP POP JUMP JUMPDEST PUSH32 0x546869732073686F756C64206661696C2064756520746F20696E737566666963 PUSH0 DUP3 ADD MSTORE PUSH32 0x69656E7420746F6B656E73000000000000000000000000000000000000000000 PUSH1 0x20 DUP3 ADD MSTORE POP JUMP JUMPDEST PUSH0 PUSH2 0x14F7 PUSH1 0x2B DUP4 PUSH2 0xE43 JUMP JUMPDEST SWAP2 POP PUSH2 0x1502 DUP3 PUSH2 0x149D JUMP JUMPDEST PUSH1 0x40 DUP3 ADD SWAP1 POP SWAP2 SWAP1 POP JUMP JUMPDEST PUSH0 PUSH1 0x40 DUP3 ADD SWAP1 POP PUSH2 0x1520 PUSH0 DUP4 ADD DUP5 PUSH2 0xFE1 JUMP JUMPDEST DUP2 DUP2 SUB PUSH1 0x20 DUP4 ADD MSTORE PUSH2 0x1531 DUP2 PUSH2 0x14EB JUMP JUMPDEST SWAP1 POP SWAP3 SWAP2 POP POP JUMP JUMPDEST PUSH2 0x1542 DUP2 PUSH2 0xC50 JUMP JUMPDEST DUP3 MSTORE POP POP JUMP JUMPDEST PUSH0 PUSH1 0x20 DUP3 ADD SWAP1 POP PUSH2 0x155B PUSH0 DUP4 ADD DUP5 PUSH2 0x1539 JUMP JUMPDEST SWAP3 SWAP2 POP POP JUMP JUMPDEST PUSH0 PUSH2 0x156B DUP3 PUSH2 0xC50 JUMP JUMPDEST SWAP2 POP PUSH2 0x1576 DUP4 PUSH2 0xC50 JUMP JUMPDEST SWAP3 POP DUP3 DUP3 SUB SWAP1 POP DUP2 DUP2 GT ISZERO PUSH2 0x158E JUMPI PUSH2 0x158D PUSH2 0xDD4 JUMP JUMPDEST JUMPDEST SWAP3 SWAP2 POP POP JUMP JUMPDEST PUSH32 0x546F74616C20737570706C792073686F756C6420646563726561736520627920 PUSH0 DUP3 ADD MSTORE PUSH32 0x3100000000000000000000000000000000000000000000000000000000000000 PUSH1 0x20 DUP3 ADD MSTORE POP JUMP JUMPDEST PUSH0 PUSH2 0x15EE PUSH1 0x21 DUP4 PUSH2 0xE43 JUMP JUMPDEST SWAP2 POP PUSH2 0x15F9 DUP3 PUSH2 0x1594 JUMP JUMPDEST PUSH1 0x40 DUP3 ADD SWAP1 POP SWAP2 SWAP1 POP JUMP JUMPDEST PUSH0 PUSH1 0x60 DUP3 ADD SWAP1 POP PUSH2 0x1617 PUSH0 DUP4 ADD DUP6 PUSH2 0xE34 JUMP JUMPDEST PUSH2 0x1624 PUSH1 0x20 DUP4 ADD DUP5 PUSH2 0xE34 JUMP JUMPDEST DUP2 DUP2 SUB PUSH1 0x40 DUP4 ADD MSTORE PUSH2 0x1635 DUP2 PUSH2 0x15E2 JUMP JUMPDEST SWAP1 POP SWAP4 SWAP3 POP POP POP JUMP JUMPDEST PUSH32 0x4F776E65722073686F756C64206E6F206C6F6E676572206861766520616E204E PUSH0 DUP3 ADD MSTORE PUSH32 0x4654000000000000000000000000000000000000000000000000000000000000 PUSH1 0x20 DUP3 ADD MSTORE POP JUMP JUMPDEST PUSH0 PUSH2 0x1698 PUSH1 0x22 DUP4 PUSH2 0xE43 JUMP JUMPDEST SWAP2 POP PUSH2 0x16A3 DUP3 PUSH2 0x163E JUMP JUMPDEST PUSH1 0x40 DUP3 ADD SWAP1 POP SWAP2 SWAP1 POP JUMP JUMPDEST PUSH0 PUSH1 0x60 DUP3 ADD SWAP1 POP PUSH2 0x16C1 PUSH0 DUP4 ADD DUP6 PUSH2 0xFE1 JUMP JUMPDEST PUSH2 0x16CE PUSH1 0x20 DUP4 ADD DUP5 PUSH2 0xFE1 JUMP JUMPDEST DUP2 DUP2 SUB PUSH1 0x40 DUP4 ADD MSTORE PUSH2 0x16DF DUP2 PUSH2 0x168C JUMP JUMPDEST SWAP1 POP SWAP4 SWAP3 POP POP POP JUMP INVALID PUSH1 0x80 PUSH1 0x40 MSTORE CALLVALUE DUP1 ISZERO PUSH2 0xF JUMPI PUSH0 DUP1 REVERT JUMPDEST POP PUSH1 0x40 MLOAD PUSH2 0x593F CODESIZE SUB DUP1 PUSH2 0x593F DUP4 CODECOPY DUP2 DUP2 ADD PUSH1 0x40 MSTORE DUP2 ADD SWAP1 PUSH2 0x31 SWAP2 SWAP1 PUSH2 0x614 JUMP JUMPDEST PUSH1 0x40 MLOAD DUP1 PUSH1 0x40 ADD PUSH1 0x40 MSTORE DUP1 PUSH1 0x6 DUP2 MSTORE PUSH1 0x20 ADD PUSH32 0x4E65774E46540000000000000000000000000000000000000000000000000000 DUP2 MSTORE POP PUSH1 0x40 MLOAD DUP1 PUSH1 0x40 ADD PUSH1 0x40 MSTORE DUP1 PUSH1 0x3 DUP2 MSTORE PUSH1 0x20 ADD PUSH32 0x4E46540000000000000000000000000000000000000000000000000000000000 DUP2 MSTORE POP DUP2 PUSH0 SWAP1 DUP2 PUSH2 0xAB SWAP2 SWAP1 PUSH2 0x8AB JUMP JUMPDEST POP DUP1 PUSH1 0x1 SWAP1 DUP2 PUSH2 0xBB SWAP2 SWAP1 PUSH2 0x8AB JUMP JUMPDEST POP POP POP PUSH1 0x1 PUSH1 0x8 DUP2 SWAP1 SSTORE POP DUP5 PUSH1 0xE SWAP1 DUP2 PUSH2 0xD5 SWAP2 SWAP1 PUSH2 0x8AB JUMP JUMPDEST POP DUP4 PUSH1 0xC PUSH0 PUSH2 0x100 EXP DUP2 SLOAD DUP2 PUSH20 0xFFFFFFFFFFFFFFFFFFFFFFFFFFFFFFFFFFFFFFFF MUL NOT AND SWAP1 DUP4 PUSH20 0xFFFFFFFFFFFFFFFFFFFFFFFFFFFFFFFFFFFFFFFF AND MUL OR SWAP1 SSTORE POP DUP3 PUSH1 0xB DUP2 SWAP1 SSTORE POP PUSH8 0xD02AB486CEDC0000 PUSH1 0xF DUP2 SWAP1 SSTORE POP DUP2 PUSH1 0x10 PUSH0 PUSH2 0x100 EXP DUP2 SLOAD DUP2 PUSH20 0xFFFFFFFFFFFFFFFFFFFFFFFFFFFFFFFFFFFFFFFF MUL NOT AND SWAP1 DUP4 PUSH20 0xFFFFFFFFFFFFFFFFFFFFFFFFFFFFFFFFFFFFFFFF AND MUL OR SWAP1 SSTORE POP DUP1 PUSH1 0xD PUSH0 PUSH2 0x100 EXP DUP2 SLOAD DUP2 PUSH20 0xFFFFFFFFFFFFFFFFFFFFFFFFFFFFFFFFFFFFFFFF MUL NOT AND SWAP1 DUP4 PUSH20 0xFFFFFFFFFFFFFFFFFFFFFFFFFFFFFFFFFFFFFFFF AND MUL OR SWAP1 SSTORE POP PUSH1 0x40 MLOAD DUP1 PUSH1 0xC0 ADD PUSH1 0x40 MSTORE DUP1 PUSH1 0x32 DUP2 MSTORE PUSH1 0x20 ADD PUSH1 0x64 DUP2 MSTORE PUSH1 0x20 ADD PUSH1 0xC8 DUP2 MSTORE PUSH1 0x20 ADD PUSH0 DUP2 MSTORE PUSH1 0x20 ADD PUSH0 DUP2 MSTORE PUSH1 0x20 ADD PUSH0 DUP2 MSTORE POP PUSH1 0x11 PUSH0 DUP3 ADD MLOAD DUP2 PUSH0 ADD SSTORE PUSH1 0x20 DUP3 ADD MLOAD DUP2 PUSH1 0x1 ADD SSTORE PUSH1 0x40 DUP3 ADD MLOAD DUP2 PUSH1 0x2 ADD SSTORE PUSH1 0x60 DUP3 ADD MLOAD DUP2 PUSH1 0x3 ADD SSTORE PUSH1 0x80 DUP3 ADD MLOAD DUP2 PUSH1 0x4 ADD SSTORE PUSH1 0xA0 DUP3 ADD MLOAD DUP2 PUSH1 0x5 ADD SSTORE SWAP1 POP POP PUSH1 0x40 MLOAD DUP1 PUSH1 0x60 ADD PUSH1 0x40 MSTORE DUP1 PUSH10 0x21E19E0C9BAB2400000 DUP2 MSTORE PUSH1 0x20 ADD PUSH10 0x10F0CF064DD59200000 DUP2 MSTORE PUSH1 0x20 ADD PUSH9 0x878678326EAC900000 DUP2 MSTORE POP PUSH1 0x17 PUSH0 DUP3 ADD MLOAD DUP2 PUSH0 ADD SSTORE PUSH1 0x20 DUP3 ADD MLOAD DUP2 PUSH1 0x1 ADD SSTORE PUSH1 0x40 DUP3 ADD MLOAD DUP2 PUSH1 0x2 ADD SSTORE SWAP1 POP POP PUSH2 0x293 PUSH0 DUP1 SHL PUSH2 0x288 PUSH2 0x29E PUSH1 0x20 SHL PUSH1 0x20 SHR JUMP JUMPDEST PUSH2 0x2A5 PUSH1 0x20 SHL PUSH1 0x20 SHR JUMP JUMPDEST POP POP POP POP POP POP PUSH2 0x97A JUMP JUMPDEST PUSH0 CALLER SWAP1 POP SWAP1 JUMP JUMPDEST PUSH0 PUSH2 0x2B6 DUP4 DUP4 PUSH2 0x39B PUSH1 0x20 SHL PUSH1 0x20 SHR JUMP JUMPDEST PUSH2 0x391 JUMPI PUSH1 0x1 PUSH1 0x7 PUSH0 DUP6 DUP2 MSTORE PUSH1 0x20 ADD SWAP1 DUP2 MSTORE PUSH1 0x20 ADD PUSH0 KECCAK256 PUSH0 ADD PUSH0 DUP5 PUSH20 0xFFFFFFFFFFFFFFFFFFFFFFFFFFFFFFFFFFFFFFFF AND PUSH20 0xFFFFFFFFFFFFFFFFFFFFFFFFFFFFFFFFFFFFFFFF AND DUP2 MSTORE PUSH1 0x20 ADD SWAP1 DUP2 MSTORE PUSH1 0x20 ADD PUSH0 KECCAK256 PUSH0 PUSH2 0x100 EXP DUP2 SLOAD DUP2 PUSH1 0xFF MUL NOT AND SWAP1 DUP4 ISZERO ISZERO MUL OR SWAP1 SSTORE POP PUSH2 0x32E PUSH2 0x29E PUSH1 0x20 SHL PUSH1 0x20 SHR JUMP JUMPDEST PUSH20 0xFFFFFFFFFFFFFFFFFFFFFFFFFFFFFFFFFFFFFFFF AND DUP3 PUSH20 0xFFFFFFFFFFFFFFFFFFFFFFFFFFFFFFFFFFFFFFFF AND DUP5 PUSH32 0x2F8788117E7EFF1D82E926EC794901D17C78024A50270940304540A733656F0D PUSH1 0x40 MLOAD PUSH1 0x40 MLOAD DUP1 SWAP2 SUB SWAP1 LOG4 PUSH1 0x1 SWAP1 POP PUSH2 0x395 JUMP JUMPDEST PUSH0 SWAP1 POP JUMPDEST SWAP3 SWAP2 POP POP JUMP JUMPDEST PUSH0 PUSH1 0x7 PUSH0 DUP5 DUP2 MSTORE PUSH1 0x20 ADD SWAP1 DUP2 MSTORE PUSH1 0x20 ADD PUSH0 KECCAK256 PUSH0 ADD PUSH0 DUP4 PUSH20 0xFFFFFFFFFFFFFFFFFFFFFFFFFFFFFFFFFFFFFFFF AND PUSH20 0xFFFFFFFFFFFFFFFFFFFFFFFFFFFFFFFFFFFFFFFF AND DUP2 MSTORE PUSH1 0x20 ADD SWAP1 DUP2 MSTORE PUSH1 0x20 ADD PUSH0 KECCAK256 PUSH0 SWAP1 SLOAD SWAP1 PUSH2 0x100 EXP SWAP1 DIV PUSH1 0xFF AND SWAP1 POP SWAP3 SWAP2 POP POP JUMP JUMPDEST PUSH0 PUSH1 0x40 MLOAD SWAP1 POP SWAP1 JUMP JUMPDEST PUSH0 DUP1 REVERT JUMPDEST PUSH0 DUP1 REVERT JUMPDEST PUSH0 DUP1 REVERT JUMPDEST PUSH0 DUP1 REVERT JUMPDEST PUSH0 PUSH1 0x1F NOT PUSH1 0x1F DUP4 ADD AND SWAP1 POP SWAP2 SWAP1 POP JUMP JUMPDEST PUSH32 0x4E487B7100000000000000000000000000000000000000000000000000000000 PUSH0 MSTORE PUSH1 0x41 PUSH1 0x4 MSTORE PUSH1 0x24 PUSH0 REVERT JUMPDEST PUSH2 0x45E DUP3 PUSH2 0x418 JUMP JUMPDEST DUP2 ADD DUP2 DUP2 LT PUSH8 0xFFFFFFFFFFFFFFFF DUP3 GT OR ISZERO PUSH2 0x47D JUMPI PUSH2 0x47C PUSH2 0x428 JUMP JUMPDEST JUMPDEST DUP1 PUSH1 0x40 MSTORE POP POP POP JUMP JUMPDEST PUSH0 PUSH2 0x48F PUSH2 0x3FF JUMP JUMPDEST SWAP1 POP PUSH2 0x49B DUP3 DUP3 PUSH2 0x455 JUMP JUMPDEST SWAP2 SWAP1 POP JUMP JUMPDEST PUSH0 PUSH8 0xFFFFFFFFFFFFFFFF DUP3 GT ISZERO PUSH2 0x4BA JUMPI PUSH2 0x4B9 PUSH2 0x428 JUMP JUMPDEST JUMPDEST PUSH2 0x4C3 DUP3 PUSH2 0x418 JUMP JUMPDEST SWAP1 POP PUSH1 0x20 DUP2 ADD SWAP1 POP SWAP2 SWAP1 POP JUMP JUMPDEST DUP3 DUP2 DUP4 MCOPY PUSH0 DUP4 DUP4 ADD MSTORE POP POP POP JUMP JUMPDEST PUSH0 PUSH2 0x4F0 PUSH2 0x4EB DUP5 PUSH2 0x4A0 JUMP JUMPDEST PUSH2 0x486 JUMP JUMPDEST SWAP1 POP DUP3 DUP2 MSTORE PUSH1 0x20 DUP2 ADD DUP5 DUP5 DUP5 ADD GT ISZERO PUSH2 0x50C JUMPI PUSH2 0x50B PUSH2 0x414 JUMP JUMPDEST JUMPDEST PUSH2 0x517 DUP5 DUP3 DUP6 PUSH2 0x4D0 JUMP JUMPDEST POP SWAP4 SWAP3 POP POP POP JUMP JUMPDEST PUSH0 DUP3 PUSH1 0x1F DUP4 ADD SLT PUSH2 0x533 JUMPI PUSH2 0x532 PUSH2 0x410 JUMP JUMPDEST JUMPDEST DUP2 MLOAD PUSH2 0x543 DUP5 DUP3 PUSH1 0x20 DUP7 ADD PUSH2 0x4DE JUMP JUMPDEST SWAP2 POP POP SWAP3 SWAP2 POP POP JUMP JUMPDEST PUSH0 PUSH20 0xFFFFFFFFFFFFFFFFFFFFFFFFFFFFFFFFFFFFFFFF DUP3 AND SWAP1 POP SWAP2 SWAP1 POP JUMP JUMPDEST PUSH0 PUSH2 0x575 DUP3 PUSH2 0x54C JUMP JUMPDEST SWAP1 POP SWAP2 SWAP1 POP JUMP JUMPDEST PUSH0 PUSH2 0x586 DUP3 PUSH2 0x56B JUMP JUMPDEST SWAP1 POP SWAP2 SWAP1 POP JUMP JUMPDEST PUSH2 0x596 DUP2 PUSH2 0x57C JUMP JUMPDEST DUP2 EQ PUSH2 0x5A0 JUMPI PUSH0 DUP1 REVERT JUMPDEST POP JUMP JUMPDEST PUSH0 DUP2 MLOAD SWAP1 POP PUSH2 0x5B1 DUP2 PUSH2 0x58D JUMP JUMPDEST SWAP3 SWAP2 POP POP JUMP JUMPDEST PUSH0 DUP2 SWAP1 POP SWAP2 SWAP1 POP JUMP JUMPDEST PUSH2 0x5C9 DUP2 PUSH2 0x5B7 JUMP JUMPDEST DUP2 EQ PUSH2 0x5D3 JUMPI PUSH0 DUP1 REVERT JUMPDEST POP JUMP JUMPDEST PUSH0 DUP2 MLOAD SWAP1 POP PUSH2 0x5E4 DUP2 PUSH2 0x5C0 JUMP JUMPDEST SWAP3 SWAP2 POP POP JUMP JUMPDEST PUSH2 0x5F3 DUP2 PUSH2 0x56B JUMP JUMPDEST DUP2 EQ PUSH2 0x5FD JUMPI PUSH0 DUP1 REVERT JUMPDEST POP JUMP JUMPDEST PUSH0 DUP2 MLOAD SWAP1 POP PUSH2 0x60E DUP2 PUSH2 0x5EA JUMP JUMPDEST SWAP3 SWAP2 POP POP JUMP JUMPDEST PUSH0 DUP1 PUSH0 DUP1 PUSH0 PUSH1 0xA0 DUP7 DUP9 SUB SLT ISZERO PUSH2 0x62D JUMPI PUSH2 0x62C PUSH2 0x408 JUMP JUMPDEST JUMPDEST PUSH0 DUP7 ADD MLOAD PUSH8 0xFFFFFFFFFFFFFFFF DUP2 GT ISZERO PUSH2 0x64A JUMPI PUSH2 0x649 PUSH2 0x40C JUMP JUMPDEST JUMPDEST PUSH2 0x656 DUP9 DUP3 DUP10 ADD PUSH2 0x51F JUMP JUMPDEST SWAP6 POP POP PUSH1 0x20 PUSH2 0x667 DUP9 DUP3 DUP10 ADD PUSH2 0x5A3 JUMP JUMPDEST SWAP5 POP POP PUSH1 0x40 PUSH2 0x678 DUP9 DUP3 DUP10 ADD PUSH2 0x5D6 JUMP JUMPDEST SWAP4 POP POP PUSH1 0x60 PUSH2 0x689 DUP9 DUP3 DUP10 ADD PUSH2 0x600 JUMP JUMPDEST SWAP3 POP POP PUSH1 0x80 PUSH2 0x69A DUP9 DUP3 DUP10 ADD PUSH2 0x600 JUMP JUMPDEST SWAP2 POP POP SWAP3 SWAP6 POP SWAP3 SWAP6 SWAP1 SWAP4 POP JUMP JUMPDEST PUSH0 DUP2 MLOAD SWAP1 POP SWAP2 SWAP1 POP JUMP JUMPDEST PUSH32 0x4E487B7100000000000000000000000000000000000000000000000000000000 PUSH0 MSTORE PUSH1 0x22 PUSH1 0x4 MSTORE PUSH1 0x24 PUSH0 REVERT JUMPDEST PUSH0 PUSH1 0x2 DUP3 DIV SWAP1 POP PUSH1 0x1 DUP3 AND DUP1 PUSH2 0x6F5 JUMPI PUSH1 0x7F DUP3 AND SWAP2 POP JUMPDEST PUSH1 0x20 DUP3 LT DUP2 SUB PUSH2 0x708 JUMPI PUSH2 0x707 PUSH2 0x6B1 JUMP JUMPDEST JUMPDEST POP SWAP2 SWAP1 POP JUMP JUMPDEST PUSH0 DUP2 SWAP1 POP DUP2 PUSH0 MSTORE PUSH1 0x20 PUSH0 KECCAK256 SWAP1 POP SWAP2 SWAP1 POP JUMP JUMPDEST PUSH0 PUSH1 0x20 PUSH1 0x1F DUP4 ADD DIV SWAP1 POP SWAP2 SWAP1 POP JUMP JUMPDEST PUSH0 DUP3 DUP3 SHL SWAP1 POP SWAP3 SWAP2 POP POP JUMP JUMPDEST PUSH0 PUSH1 0x8 DUP4 MUL PUSH2 0x76A PUSH32 0xFFFFFFFFFFFFFFFFFFFFFFFFFFFFFFFFFFFFFFFFFFFFFFFFFFFFFFFFFFFFFFFF DUP3 PUSH2 0x72F JUMP JUMPDEST PUSH2 0x774 DUP7 DUP4 PUSH2 0x72F JUMP JUMPDEST SWAP6 POP DUP1 NOT DUP5 AND SWAP4 POP DUP1 DUP7 AND DUP5 OR SWAP3 POP POP POP SWAP4 SWAP3 POP POP POP JUMP JUMPDEST PUSH0 DUP2 SWAP1 POP SWAP2 SWAP1 POP JUMP JUMPDEST PUSH0 PUSH2 0x7AF PUSH2 0x7AA PUSH2 0x7A5 DUP5 PUSH2 0x5B7 JUMP JUMPDEST PUSH2 0x78C JUMP JUMPDEST PUSH2 0x5B7 JUMP JUMPDEST SWAP1 POP SWAP2 SWAP1 POP JUMP JUMPDEST PUSH0 DUP2 SWAP1 POP SWAP2 SWAP1 POP JUMP JUMPDEST PUSH2 0x7C8 DUP4 PUSH2 0x795 JUMP JUMPDEST PUSH2 0x7DC PUSH2 0x7D4 DUP3 PUSH2 0x7B6 JUMP JUMPDEST DUP5 DUP5 SLOAD PUSH2 0x73B JUMP JUMPDEST DUP3 SSTORE POP POP POP POP JUMP JUMPDEST PUSH0 SWAP1 JUMP JUMPDEST PUSH2 0x7F0 PUSH2 0x7E4 JUMP JUMPDEST PUSH2 0x7FB DUP2 DUP5 DUP5 PUSH2 0x7BF JUMP JUMPDEST POP POP POP JUMP JUMPDEST JUMPDEST DUP2 DUP2 LT ISZERO PUSH2 0x81E JUMPI PUSH2 0x813 PUSH0 DUP3 PUSH2 0x7E8 JUMP JUMPDEST PUSH1 0x1 DUP2 ADD SWAP1 POP PUSH2 0x801 JUMP JUMPDEST POP POP JUMP JUMPDEST PUSH1 0x1F DUP3 GT ISZERO PUSH2 0x863 JUMPI PUSH2 0x834 DUP2 PUSH2 0x70E JUMP JUMPDEST PUSH2 0x83D DUP5 PUSH2 0x720 JUMP JUMPDEST DUP2 ADD PUSH1 0x20 DUP6 LT ISZERO PUSH2 0x84C JUMPI DUP2 SWAP1 POP JUMPDEST PUSH2 0x860 PUSH2 0x858 DUP6 PUSH2 0x720 JUMP JUMPDEST DUP4 ADD DUP3 PUSH2 0x800 JUMP JUMPDEST POP POP JUMPDEST POP POP POP JUMP JUMPDEST PUSH0 DUP3 DUP3 SHR SWAP1 POP SWAP3 SWAP2 POP POP JUMP JUMPDEST PUSH0 PUSH2 0x883 PUSH0 NOT DUP5 PUSH1 0x8 MUL PUSH2 0x868 JUMP JUMPDEST NOT DUP1 DUP4 AND SWAP2 POP POP SWAP3 SWAP2 POP POP JUMP JUMPDEST PUSH0 PUSH2 0x89B DUP4 DUP4 PUSH2 0x874 JUMP JUMPDEST SWAP2 POP DUP3 PUSH1 0x2 MUL DUP3 OR SWAP1 POP SWAP3 SWAP2 POP POP JUMP JUMPDEST PUSH2 0x8B4 DUP3 PUSH2 0x6A7 JUMP JUMPDEST PUSH8 0xFFFFFFFFFFFFFFFF DUP2 GT ISZERO PUSH2 0x8CD JUMPI PUSH2 0x8CC PUSH2 0x428 JUMP JUMPDEST JUMPDEST PUSH2 0x8D7 DUP3 SLOAD PUSH2 0x6DE JUMP JUMPDEST PUSH2 0x8E2 DUP3 DUP3 DUP6 PUSH2 0x822 JUMP JUMPDEST PUSH0 PUSH1 0x20 SWAP1 POP PUSH1 0x1F DUP4 GT PUSH1 0x1 DUP2 EQ PUSH2 0x913 JUMPI PUSH0 DUP5 ISZERO PUSH2 0x901 JUMPI DUP3 DUP8 ADD MLOAD SWAP1 POP JUMPDEST PUSH2 0x90B DUP6 DUP3 PUSH2 0x890 JUMP JUMPDEST DUP7 SSTORE POP PUSH2 0x972 JUMP JUMPDEST PUSH1 0x1F NOT DUP5 AND PUSH2 0x921 DUP7 PUSH2 0x70E JUMP JUMPDEST PUSH0 JUMPDEST DUP3 DUP2 LT ISZERO PUSH2 0x948 JUMPI DUP5 DUP10 ADD MLOAD DUP3 SSTORE PUSH1 0x1 DUP3 ADD SWAP2 POP PUSH1 0x20 DUP6 ADD SWAP5 POP PUSH1 0x20 DUP2 ADD SWAP1 POP PUSH2 0x923 JUMP JUMPDEST DUP7 DUP4 LT ISZERO PUSH2 0x965 JUMPI DUP5 DUP10 ADD MLOAD PUSH2 0x961 PUSH1 0x1F DUP10 AND DUP3 PUSH2 0x874 JUMP JUMPDEST DUP4 SSTORE POP JUMPDEST PUSH1 0x1 PUSH1 0x2 DUP9 MUL ADD DUP9 SSTORE POP POP POP JUMPDEST POP POP POP POP POP POP JUMP JUMPDEST PUSH2 0x4FB8 DUP1 PUSH2 0x987 PUSH0 CODECOPY PUSH0 RETURN INVALID PUSH1 0x80 PUSH1 0x40 MSTORE PUSH1 0x4 CALLDATASIZE LT PUSH2 0x25B JUMPI PUSH0 CALLDATALOAD PUSH1 0xE0 SHR DUP1 PUSH4 0x8E9673A5 GT PUSH2 0x143 JUMPI DUP1 PUSH4 0xA78142A9 GT PUSH2 0xB5 JUMPI DUP1 PUSH4 0xCF820461 GT PUSH2 0x79 JUMPI DUP1 PUSH4 0xCF820461 EQ PUSH2 0x951 JUMPI DUP1 PUSH4 0xD547741F EQ PUSH2 0x97B JUMPI DUP1 PUSH4 0xE985E9C5 EQ PUSH2 0x9A3 JUMPI DUP1 PUSH4 0xF05D16F7 EQ PUSH2 0x9DF JUMPI DUP1 PUSH4 0xFBFA77CF EQ PUSH2 0xA07 JUMPI DUP1 PUSH4 0xFC0C546A EQ PUSH2 0xA31 JUMPI PUSH2 0x25B JUMP JUMPDEST DUP1 PUSH4 0xA78142A9 EQ PUSH2 0x84D JUMPI DUP1 PUSH4 0xB2CD7951 EQ PUSH2 0x889 JUMPI DUP1 PUSH4 0xB88D4FDE EQ PUSH2 0x8C5 JUMPI DUP1 PUSH4 0xC5772E98 EQ PUSH2 0x8ED JUMPI DUP1 PUSH4 0xC87B56DD EQ PUSH2 0x915 JUMPI PUSH2 0x25B JUMP JUMPDEST DUP1 PUSH4 0x94EF3432 GT PUSH2 0x107 JUMPI DUP1 PUSH4 0x94EF3432 EQ PUSH2 0x750 JUMPI DUP1 PUSH4 0x95D89B41 EQ PUSH2 0x77F JUMPI DUP1 PUSH4 0x9862A7DE EQ PUSH2 0x7A9 JUMPI DUP1 PUSH4 0x9EB8531C EQ PUSH2 0x7D1 JUMPI DUP1 PUSH4 0xA217FDDF EQ PUSH2 0x7FB JUMPI DUP1 PUSH4 0xA22CB465 EQ PUSH2 0x825 JUMPI PUSH2 0x25B JUMP JUMPDEST DUP1 PUSH4 0x8E9673A5 EQ PUSH2 0x664 JUMPI DUP1 PUSH4 0x8EBED5B1 EQ PUSH2 0x68E JUMPI DUP1 PUSH4 0x91D14854 EQ PUSH2 0x6B8 JUMPI DUP1 PUSH4 0x92642744 EQ PUSH2 0x6F4 JUMPI DUP1 PUSH4 0x94B8B606 EQ PUSH2 0x724 JUMPI PUSH2 0x25B JUMP JUMPDEST DUP1 PUSH4 0x2890E0D7 GT PUSH2 0x1DC JUMPI DUP1 PUSH4 0x48132F48 GT PUSH2 0x1A0 JUMPI DUP1 PUSH4 0x48132F48 EQ PUSH2 0x534 JUMPI DUP1 PUSH4 0x51557289 EQ PUSH2 0x55C JUMPI DUP1 PUSH4 0x5F6D7E9E EQ PUSH2 0x586 JUMPI DUP1 PUSH4 0x6352211E EQ PUSH2 0x5C2 JUMPI DUP1 PUSH4 0x69D40BD9 EQ PUSH2 0x5FE JUMPI DUP1 PUSH4 0x70A08231 EQ PUSH2 0x628 JUMPI PUSH2 0x25B JUMP JUMPDEST DUP1 PUSH4 0x2890E0D7 EQ PUSH2 0x46C JUMPI DUP1 PUSH4 0x2F2FF15D EQ PUSH2 0x494 JUMPI DUP1 PUSH4 0x36568ABE EQ PUSH2 0x4BC JUMPI DUP1 PUSH4 0x41F431FD EQ PUSH2 0x4E4 JUMPI DUP1 PUSH4 0x42842E0E EQ PUSH2 0x50C JUMPI PUSH2 0x25B JUMP JUMPDEST DUP1 PUSH4 0x95EA7B3 GT PUSH2 0x223 JUMPI DUP1 PUSH4 0x95EA7B3 EQ PUSH2 0x379 JUMPI DUP1 PUSH4 0x18160DDD EQ PUSH2 0x3A1 JUMPI DUP1 PUSH4 0x1AB0D49E EQ PUSH2 0x3CB JUMPI DUP1 PUSH4 0x23B872DD EQ PUSH2 0x408 JUMPI DUP1 PUSH4 0x248A9CA3 EQ PUSH2 0x430 JUMPI PUSH2 0x25B JUMP JUMPDEST DUP1 PUSH4 0x1FFC9A7 EQ PUSH2 0x25F JUMPI DUP1 PUSH4 0x2FE5305 EQ PUSH2 0x29B JUMPI DUP1 PUSH4 0x6BB8B53 EQ PUSH2 0x2D7 JUMPI DUP1 PUSH4 0x6FDDE03 EQ PUSH2 0x313 JUMPI DUP1 PUSH4 0x81812FC EQ PUSH2 0x33D JUMPI JUMPDEST PUSH0 DUP1 REVERT JUMPDEST CALLVALUE DUP1 ISZERO PUSH2 0x26A JUMPI PUSH0 DUP1 REVERT JUMPDEST POP PUSH2 0x285 PUSH1 0x4 DUP1 CALLDATASIZE SUB DUP2 ADD SWAP1 PUSH2 0x280 SWAP2 SWAP1 PUSH2 0x3854 JUMP JUMPDEST PUSH2 0xA5B JUMP JUMPDEST PUSH1 0x40 MLOAD PUSH2 0x292 SWAP2 SWAP1 PUSH2 0x3899 JUMP JUMPDEST PUSH1 0x40 MLOAD DUP1 SWAP2 SUB SWAP1 RETURN JUMPDEST CALLVALUE DUP1 ISZERO PUSH2 0x2A6 JUMPI PUSH0 DUP1 REVERT JUMPDEST POP PUSH2 0x2C1 PUSH1 0x4 DUP1 CALLDATASIZE SUB DUP2 ADD SWAP1 PUSH2 0x2BC SWAP2 SWAP1 PUSH2 0x39EE JUMP JUMPDEST PUSH2 0xA6C JUMP JUMPDEST PUSH1 0x40 MLOAD PUSH2 0x2CE SWAP2 SWAP1 PUSH2 0x3A95 JUMP JUMPDEST PUSH1 0x40 MLOAD DUP1 SWAP2 SUB SWAP1 RETURN JUMPDEST CALLVALUE DUP1 ISZERO PUSH2 0x2E2 JUMPI PUSH0 DUP1 REVERT JUMPDEST POP PUSH2 0x2FD PUSH1 0x4 DUP1 CALLDATASIZE SUB DUP2 ADD SWAP1 PUSH2 0x2F8 SWAP2 SWAP1 PUSH2 0x3AE8 JUMP JUMPDEST PUSH2 0xB7E JUMP JUMPDEST PUSH1 0x40 MLOAD PUSH2 0x30A SWAP2 SWAP1 PUSH2 0x3B22 JUMP JUMPDEST PUSH1 0x40 MLOAD DUP1 SWAP2 SUB SWAP1 RETURN JUMPDEST CALLVALUE DUP1 ISZERO PUSH2 0x31E JUMPI PUSH0 DUP1 REVERT JUMPDEST POP PUSH2 0x327 PUSH2 0xBFE JUMP JUMPDEST PUSH1 0x40 MLOAD PUSH2 0x334 SWAP2 SWAP1 PUSH2 0x3A95 JUMP JUMPDEST PUSH1 0x40 MLOAD DUP1 SWAP2 SUB SWAP1 RETURN JUMPDEST CALLVALUE DUP1 ISZERO PUSH2 0x348 JUMPI PUSH0 DUP1 REVERT JUMPDEST POP PUSH2 0x363 PUSH1 0x4 DUP1 CALLDATASIZE SUB DUP2 ADD SWAP1 PUSH2 0x35E SWAP2 SWAP1 PUSH2 0x3AE8 JUMP JUMPDEST PUSH2 0xC8D JUMP JUMPDEST PUSH1 0x40 MLOAD PUSH2 0x370 SWAP2 SWAP1 PUSH2 0x3B7A JUMP JUMPDEST PUSH1 0x40 MLOAD DUP1 SWAP2 SUB SWAP1 RETURN JUMPDEST CALLVALUE DUP1 ISZERO PUSH2 0x384 JUMPI PUSH0 DUP1 REVERT JUMPDEST POP PUSH2 0x39F PUSH1 0x4 DUP1 CALLDATASIZE SUB DUP2 ADD SWAP1 PUSH2 0x39A SWAP2 SWAP1 PUSH2 0x3BBD JUMP JUMPDEST PUSH2 0xCA8 JUMP JUMPDEST STOP JUMPDEST CALLVALUE DUP1 ISZERO PUSH2 0x3AC JUMPI PUSH0 DUP1 REVERT JUMPDEST POP PUSH2 0x3B5 PUSH2 0xCBE JUMP JUMPDEST PUSH1 0x40 MLOAD PUSH2 0x3C2 SWAP2 SWAP1 PUSH2 0x3B22 JUMP JUMPDEST PUSH1 0x40 MLOAD DUP1 SWAP2 SUB SWAP1 RETURN JUMPDEST CALLVALUE DUP1 ISZERO PUSH2 0x3D6 JUMPI PUSH0 DUP1 REVERT JUMPDEST POP PUSH2 0x3F1 PUSH1 0x4 DUP1 CALLDATASIZE SUB DUP2 ADD SWAP1 PUSH2 0x3EC SWAP2 SWAP1 PUSH2 0x3BFB JUMP JUMPDEST PUSH2 0xCC4 JUMP JUMPDEST PUSH1 0x40 MLOAD PUSH2 0x3FF SWAP3 SWAP2 SWAP1 PUSH2 0x3C26 JUMP JUMPDEST PUSH1 0x40 MLOAD DUP1 SWAP2 SUB SWAP1 RETURN JUMPDEST CALLVALUE DUP1 ISZERO PUSH2 0x413 JUMPI PUSH0 DUP1 REVERT JUMPDEST POP PUSH2 0x42E PUSH1 0x4 DUP1 CALLDATASIZE SUB DUP2 ADD SWAP1 PUSH2 0x429 SWAP2 SWAP1 PUSH2 0x3C4D JUMP JUMPDEST PUSH2 0xCF0 JUMP JUMPDEST STOP JUMPDEST CALLVALUE DUP1 ISZERO PUSH2 0x43B JUMPI PUSH0 DUP1 REVERT JUMPDEST POP PUSH2 0x456 PUSH1 0x4 DUP1 CALLDATASIZE SUB DUP2 ADD SWAP1 PUSH2 0x451 SWAP2 SWAP1 PUSH2 0x3CD0 JUMP JUMPDEST PUSH2 0xDEF JUMP JUMPDEST PUSH1 0x40 MLOAD PUSH2 0x463 SWAP2 SWAP1 PUSH2 0x3D0A JUMP JUMPDEST PUSH1 0x40 MLOAD DUP1 SWAP2 SUB SWAP1 RETURN JUMPDEST CALLVALUE DUP1 ISZERO PUSH2 0x477 JUMPI PUSH0 DUP1 REVERT JUMPDEST POP PUSH2 0x492 PUSH1 0x4 DUP1 CALLDATASIZE SUB DUP2 ADD SWAP1 PUSH2 0x48D SWAP2 SWAP1 PUSH2 0x3AE8 JUMP JUMPDEST PUSH2 0xE0C JUMP JUMPDEST STOP JUMPDEST CALLVALUE DUP1 ISZERO PUSH2 0x49F JUMPI PUSH0 DUP1 REVERT JUMPDEST POP PUSH2 0x4BA PUSH1 0x4 DUP1 CALLDATASIZE SUB DUP2 ADD SWAP1 PUSH2 0x4B5 SWAP2 SWAP1 PUSH2 0x3D23 JUMP JUMPDEST PUSH2 0x10D2 JUMP JUMPDEST STOP JUMPDEST CALLVALUE DUP1 ISZERO PUSH2 0x4C7 JUMPI PUSH0 DUP1 REVERT JUMPDEST POP PUSH2 0x4E2 PUSH1 0x4 DUP1 CALLDATASIZE SUB DUP2 ADD SWAP1 PUSH2 0x4DD SWAP2 SWAP1 PUSH2 0x3D23 JUMP JUMPDEST PUSH2 0x10F4 JUMP JUMPDEST STOP JUMPDEST CALLVALUE DUP1 ISZERO PUSH2 0x4EF JUMPI PUSH0 DUP1 REVERT JUMPDEST POP PUSH2 0x50A PUSH1 0x4 DUP1 CALLDATASIZE SUB DUP2 ADD SWAP1 PUSH2 0x505 SWAP2 SWAP1 PUSH2 0x3D9C JUMP JUMPDEST PUSH2 0x116F JUMP JUMPDEST STOP JUMPDEST CALLVALUE DUP1 ISZERO PUSH2 0x517 JUMPI PUSH0 DUP1 REVERT JUMPDEST POP PUSH2 0x532 PUSH1 0x4 DUP1 CALLDATASIZE SUB DUP2 ADD SWAP1 PUSH2 0x52D SWAP2 SWAP1 PUSH2 0x3C4D JUMP JUMPDEST PUSH2 0x1200 JUMP JUMPDEST STOP JUMPDEST CALLVALUE DUP1 ISZERO PUSH2 0x53F JUMPI PUSH0 DUP1 REVERT JUMPDEST POP PUSH2 0x55A PUSH1 0x4 DUP1 CALLDATASIZE SUB DUP2 ADD SWAP1 PUSH2 0x555 SWAP2 SWAP1 PUSH2 0x3E27 JUMP JUMPDEST PUSH2 0x121F JUMP JUMPDEST STOP JUMPDEST CALLVALUE DUP1 ISZERO PUSH2 0x567 JUMPI PUSH0 DUP1 REVERT JUMPDEST POP PUSH2 0x570 PUSH2 0x1277 JUMP JUMPDEST PUSH1 0x40 MLOAD PUSH2 0x57D SWAP2 SWAP1 PUSH2 0x3D0A JUMP JUMPDEST PUSH1 0x40 MLOAD DUP1 SWAP2 SUB SWAP1 RETURN JUMPDEST CALLVALUE DUP1 ISZERO PUSH2 0x591 JUMPI PUSH0 DUP1 REVERT JUMPDEST POP PUSH2 0x5AC PUSH1 0x4 DUP1 CALLDATASIZE SUB DUP2 ADD SWAP1 PUSH2 0x5A7 SWAP2 SWAP1 PUSH2 0x3AE8 JUMP JUMPDEST PUSH2 0x129B JUMP JUMPDEST PUSH1 0x40 MLOAD PUSH2 0x5B9 SWAP2 SWAP1 PUSH2 0x3D0A JUMP JUMPDEST PUSH1 0x40 MLOAD DUP1 SWAP2 SUB SWAP1 RETURN JUMPDEST CALLVALUE DUP1 ISZERO PUSH2 0x5CD JUMPI PUSH0 DUP1 REVERT JUMPDEST POP PUSH2 0x5E8 PUSH1 0x4 DUP1 CALLDATASIZE SUB DUP2 ADD SWAP1 PUSH2 0x5E3 SWAP2 SWAP1 PUSH2 0x3AE8 JUMP JUMPDEST PUSH2 0x12CC JUMP JUMPDEST PUSH1 0x40 MLOAD PUSH2 0x5F5 SWAP2 SWAP1 PUSH2 0x3B7A JUMP JUMPDEST PUSH1 0x40 MLOAD DUP1 SWAP2 SUB SWAP1 RETURN JUMPDEST CALLVALUE DUP1 ISZERO PUSH2 0x609 JUMPI PUSH0 DUP1 REVERT JUMPDEST POP PUSH2 0x612 PUSH2 0x12DD JUMP JUMPDEST PUSH1 0x40 MLOAD PUSH2 0x61F SWAP2 SWAP1 PUSH2 0x3B22 JUMP JUMPDEST PUSH1 0x40 MLOAD DUP1 SWAP2 SUB SWAP1 RETURN JUMPDEST CALLVALUE DUP1 ISZERO PUSH2 0x633 JUMPI PUSH0 DUP1 REVERT JUMPDEST POP PUSH2 0x64E PUSH1 0x4 DUP1 CALLDATASIZE SUB DUP2 ADD SWAP1 PUSH2 0x649 SWAP2 SWAP1 PUSH2 0x3BFB JUMP JUMPDEST PUSH2 0x12E3 JUMP JUMPDEST PUSH1 0x40 MLOAD PUSH2 0x65B SWAP2 SWAP1 PUSH2 0x3B22 JUMP JUMPDEST PUSH1 0x40 MLOAD DUP1 SWAP2 SUB SWAP1 RETURN JUMPDEST CALLVALUE DUP1 ISZERO PUSH2 0x66F JUMPI PUSH0 DUP1 REVERT JUMPDEST POP PUSH2 0x678 PUSH2 0x1399 JUMP JUMPDEST PUSH1 0x40 MLOAD PUSH2 0x685 SWAP2 SWAP1 PUSH2 0x3A95 JUMP JUMPDEST PUSH1 0x40 MLOAD DUP1 SWAP2 SUB SWAP1 RETURN JUMPDEST CALLVALUE DUP1 ISZERO PUSH2 0x699 JUMPI PUSH0 DUP1 REVERT JUMPDEST POP PUSH2 0x6A2 PUSH2 0x1425 JUMP JUMPDEST PUSH1 0x40 MLOAD PUSH2 0x6AF SWAP2 SWAP1 PUSH2 0x3D0A JUMP JUMPDEST PUSH1 0x40 MLOAD DUP1 SWAP2 SUB SWAP1 RETURN JUMPDEST CALLVALUE DUP1 ISZERO PUSH2 0x6C3 JUMPI PUSH0 DUP1 REVERT JUMPDEST POP PUSH2 0x6DE PUSH1 0x4 DUP1 CALLDATASIZE SUB DUP2 ADD SWAP1 PUSH2 0x6D9 SWAP2 SWAP1 PUSH2 0x3D23 JUMP JUMPDEST PUSH2 0x1449 JUMP JUMPDEST PUSH1 0x40 MLOAD PUSH2 0x6EB SWAP2 SWAP1 PUSH2 0x3899 JUMP JUMPDEST PUSH1 0x40 MLOAD DUP1 SWAP2 SUB SWAP1 RETURN JUMPDEST PUSH2 0x70E PUSH1 0x4 DUP1 CALLDATASIZE SUB DUP2 ADD SWAP1 PUSH2 0x709 SWAP2 SWAP1 PUSH2 0x3AE8 JUMP JUMPDEST PUSH2 0x14AD JUMP JUMPDEST PUSH1 0x40 MLOAD PUSH2 0x71B SWAP2 SWAP1 PUSH2 0x3B22 JUMP JUMPDEST PUSH1 0x40 MLOAD DUP1 SWAP2 SUB SWAP1 RETURN JUMPDEST CALLVALUE DUP1 ISZERO PUSH2 0x72F JUMPI PUSH0 DUP1 REVERT JUMPDEST POP PUSH2 0x738 PUSH2 0x1CDE JUMP JUMPDEST PUSH1 0x40 MLOAD PUSH2 0x747 SWAP4 SWAP3 SWAP2 SWAP1 PUSH2 0x3E65 JUMP JUMPDEST PUSH1 0x40 MLOAD DUP1 SWAP2 SUB SWAP1 RETURN JUMPDEST CALLVALUE DUP1 ISZERO PUSH2 0x75B JUMPI PUSH0 DUP1 REVERT JUMPDEST POP PUSH2 0x764 PUSH2 0x1CF5 JUMP JUMPDEST PUSH1 0x40 MLOAD PUSH2 0x776 SWAP7 SWAP6 SWAP5 SWAP4 SWAP3 SWAP2 SWAP1 PUSH2 0x3E9A JUMP JUMPDEST PUSH1 0x40 MLOAD DUP1 SWAP2 SUB SWAP1 RETURN JUMPDEST CALLVALUE DUP1 ISZERO PUSH2 0x78A JUMPI PUSH0 DUP1 REVERT JUMPDEST POP PUSH2 0x793 PUSH2 0x1D1E JUMP JUMPDEST PUSH1 0x40 MLOAD PUSH2 0x7A0 SWAP2 SWAP1 PUSH2 0x3A95 JUMP JUMPDEST PUSH1 0x40 MLOAD DUP1 SWAP2 SUB SWAP1 RETURN JUMPDEST CALLVALUE DUP1 ISZERO PUSH2 0x7B4 JUMPI PUSH0 DUP1 REVERT JUMPDEST POP PUSH2 0x7CF PUSH1 0x4 DUP1 CALLDATASIZE SUB DUP2 ADD SWAP1 PUSH2 0x7CA SWAP2 SWAP1 PUSH2 0x3BFB JUMP JUMPDEST PUSH2 0x1DAE JUMP JUMPDEST STOP JUMPDEST CALLVALUE DUP1 ISZERO PUSH2 0x7DC JUMPI PUSH0 DUP1 REVERT JUMPDEST POP PUSH2 0x7E5 PUSH2 0x1E61 JUMP JUMPDEST PUSH1 0x40 MLOAD PUSH2 0x7F2 SWAP2 SWAP1 PUSH2 0x3F54 JUMP JUMPDEST PUSH1 0x40 MLOAD DUP1 SWAP2 SUB SWAP1 RETURN JUMPDEST CALLVALUE DUP1 ISZERO PUSH2 0x806 JUMPI PUSH0 DUP1 REVERT JUMPDEST POP PUSH2 0x80F PUSH2 0x1E86 JUMP JUMPDEST PUSH1 0x40 MLOAD PUSH2 0x81C SWAP2 SWAP1 PUSH2 0x3D0A JUMP JUMPDEST PUSH1 0x40 MLOAD DUP1 SWAP2 SUB SWAP1 RETURN JUMPDEST CALLVALUE DUP1 ISZERO PUSH2 0x830 JUMPI PUSH0 DUP1 REVERT JUMPDEST POP PUSH2 0x84B PUSH1 0x4 DUP1 CALLDATASIZE SUB DUP2 ADD SWAP1 PUSH2 0x846 SWAP2 SWAP1 PUSH2 0x3F97 JUMP JUMPDEST PUSH2 0x1E8C JUMP JUMPDEST STOP JUMPDEST CALLVALUE DUP1 ISZERO PUSH2 0x858 JUMPI PUSH0 DUP1 REVERT JUMPDEST POP PUSH2 0x873 PUSH1 0x4 DUP1 CALLDATASIZE SUB DUP2 ADD SWAP1 PUSH2 0x86E SWAP2 SWAP1 PUSH2 0x3FD5 JUMP JUMPDEST PUSH2 0x1EA2 JUMP JUMPDEST PUSH1 0x40 MLOAD PUSH2 0x880 SWAP2 SWAP1 PUSH2 0x3D0A JUMP JUMPDEST PUSH1 0x40 MLOAD DUP1 SWAP2 SUB SWAP1 RETURN JUMPDEST CALLVALUE DUP1 ISZERO PUSH2 0x894 JUMPI PUSH0 DUP1 REVERT JUMPDEST POP PUSH2 0x8AF PUSH1 0x4 DUP1 CALLDATASIZE SUB DUP2 ADD SWAP1 PUSH2 0x8AA SWAP2 SWAP1 PUSH2 0x3AE8 JUMP JUMPDEST PUSH2 0x1ED6 JUMP JUMPDEST PUSH1 0x40 MLOAD PUSH2 0x8BC SWAP2 SWAP1 PUSH2 0x3A95 JUMP JUMPDEST PUSH1 0x40 MLOAD DUP1 SWAP2 SUB SWAP1 RETURN JUMPDEST CALLVALUE DUP1 ISZERO PUSH2 0x8D0 JUMPI PUSH0 DUP1 REVERT JUMPDEST POP PUSH2 0x8EB PUSH1 0x4 DUP1 CALLDATASIZE SUB DUP2 ADD SWAP1 PUSH2 0x8E6 SWAP2 SWAP1 PUSH2 0x40CD JUMP JUMPDEST PUSH2 0x2013 JUMP JUMPDEST STOP JUMPDEST CALLVALUE DUP1 ISZERO PUSH2 0x8F8 JUMPI PUSH0 DUP1 REVERT JUMPDEST POP PUSH2 0x913 PUSH1 0x4 DUP1 CALLDATASIZE SUB DUP2 ADD SWAP1 PUSH2 0x90E SWAP2 SWAP1 PUSH2 0x414D JUMP JUMPDEST PUSH2 0x2030 JUMP JUMPDEST STOP JUMPDEST CALLVALUE DUP1 ISZERO PUSH2 0x920 JUMPI PUSH0 DUP1 REVERT JUMPDEST POP PUSH2 0x93B PUSH1 0x4 DUP1 CALLDATASIZE SUB DUP2 ADD SWAP1 PUSH2 0x936 SWAP2 SWAP1 PUSH2 0x3AE8 JUMP JUMPDEST PUSH2 0x2052 JUMP JUMPDEST PUSH1 0x40 MLOAD PUSH2 0x948 SWAP2 SWAP1 PUSH2 0x3A95 JUMP JUMPDEST PUSH1 0x40 MLOAD DUP1 SWAP2 SUB SWAP1 RETURN JUMPDEST CALLVALUE DUP1 ISZERO PUSH2 0x95C JUMPI PUSH0 DUP1 REVERT JUMPDEST POP PUSH2 0x965 PUSH2 0x215D JUMP JUMPDEST PUSH1 0x40 MLOAD PUSH2 0x972 SWAP2 SWAP1 PUSH2 0x3B22 JUMP JUMPDEST PUSH1 0x40 MLOAD DUP1 SWAP2 SUB SWAP1 RETURN JUMPDEST CALLVALUE DUP1 ISZERO PUSH2 0x986 JUMPI PUSH0 DUP1 REVERT JUMPDEST POP PUSH2 0x9A1 PUSH1 0x4 DUP1 CALLDATASIZE SUB DUP2 ADD SWAP1 PUSH2 0x99C SWAP2 SWAP1 PUSH2 0x3D23 JUMP JUMPDEST PUSH2 0x2163 JUMP JUMPDEST STOP JUMPDEST CALLVALUE DUP1 ISZERO PUSH2 0x9AE JUMPI PUSH0 DUP1 REVERT JUMPDEST POP PUSH2 0x9C9 PUSH1 0x4 DUP1 CALLDATASIZE SUB DUP2 ADD SWAP1 PUSH2 0x9C4 SWAP2 SWAP1 PUSH2 0x419D JUMP JUMPDEST PUSH2 0x2185 JUMP JUMPDEST PUSH1 0x40 MLOAD PUSH2 0x9D6 SWAP2 SWAP1 PUSH2 0x3899 JUMP JUMPDEST PUSH1 0x40 MLOAD DUP1 SWAP2 SUB SWAP1 RETURN JUMPDEST CALLVALUE DUP1 ISZERO PUSH2 0x9EA JUMPI PUSH0 DUP1 REVERT JUMPDEST POP PUSH2 0xA05 PUSH1 0x4 DUP1 CALLDATASIZE SUB DUP2 ADD SWAP1 PUSH2 0xA00 SWAP2 SWAP1 PUSH2 0x3AE8 JUMP JUMPDEST PUSH2 0x2213 JUMP JUMPDEST STOP JUMPDEST CALLVALUE DUP1 ISZERO PUSH2 0xA12 JUMPI PUSH0 DUP1 REVERT JUMPDEST POP PUSH2 0xA1B PUSH2 0x221D JUMP JUMPDEST PUSH1 0x40 MLOAD PUSH2 0xA28 SWAP2 SWAP1 PUSH2 0x3B7A JUMP JUMPDEST PUSH1 0x40 MLOAD DUP1 SWAP2 SUB SWAP1 RETURN JUMPDEST CALLVALUE DUP1 ISZERO PUSH2 0xA3C JUMPI PUSH0 DUP1 REVERT JUMPDEST POP PUSH2 0xA45 PUSH2 0x2242 JUMP JUMPDEST PUSH1 0x40 MLOAD PUSH2 0xA52 SWAP2 SWAP1 PUSH2 0x41FB JUMP JUMPDEST PUSH1 0x40 MLOAD DUP1 SWAP2 SUB SWAP1 RETURN JUMPDEST PUSH0 PUSH2 0xA65 DUP3 PUSH2 0x2267 JUMP JUMPDEST SWAP1 POP SWAP2 SWAP1 POP JUMP JUMPDEST PUSH1 0x60 PUSH2 0xA9F PUSH32 0xAE6C2FC584631AF4C9385B8A55683F1A75C813747E27EFEF5AFECE31C6B230D3 PUSH2 0xA9A PUSH2 0x22E0 JUMP JUMPDEST PUSH2 0x1449 JUMP JUMPDEST PUSH2 0xADE JUMPI PUSH1 0x40 MLOAD PUSH32 0x8C379A000000000000000000000000000000000000000000000000000000000 DUP2 MSTORE PUSH1 0x4 ADD PUSH2 0xAD5 SWAP1 PUSH2 0x425E JUMP JUMPDEST PUSH1 0x40 MLOAD DUP1 SWAP2 SUB SWAP1 REVERT JUMPDEST DUP2 PUSH1 0xE SWAP1 DUP2 PUSH2 0xAED SWAP2 SWAP1 PUSH2 0x446D JUMP JUMPDEST POP PUSH1 0xE DUP1 SLOAD PUSH2 0xAFB SWAP1 PUSH2 0x42A9 JUMP JUMPDEST DUP1 PUSH1 0x1F ADD PUSH1 0x20 DUP1 SWAP2 DIV MUL PUSH1 0x20 ADD PUSH1 0x40 MLOAD SWAP1 DUP2 ADD PUSH1 0x40 MSTORE DUP1 SWAP3 SWAP2 SWAP1 DUP2 DUP2 MSTORE PUSH1 0x20 ADD DUP3 DUP1 SLOAD PUSH2 0xB27 SWAP1 PUSH2 0x42A9 JUMP JUMPDEST DUP1 ISZERO PUSH2 0xB72 JUMPI DUP1 PUSH1 0x1F LT PUSH2 0xB49 JUMPI PUSH2 0x100 DUP1 DUP4 SLOAD DIV MUL DUP4 MSTORE SWAP2 PUSH1 0x20 ADD SWAP2 PUSH2 0xB72 JUMP JUMPDEST DUP3 ADD SWAP2 SWAP1 PUSH0 MSTORE PUSH1 0x20 PUSH0 KECCAK256 SWAP1 JUMPDEST DUP2 SLOAD DUP2 MSTORE SWAP1 PUSH1 0x1 ADD SWAP1 PUSH1 0x20 ADD DUP1 DUP4 GT PUSH2 0xB55 JUMPI DUP3 SWAP1 SUB PUSH1 0x1F AND DUP3 ADD SWAP2 JUMPDEST POP POP POP POP POP SWAP1 POP SWAP2 SWAP1 POP JUMP JUMPDEST PUSH0 PUSH2 0xBB0 PUSH32 0xAE6C2FC584631AF4C9385B8A55683F1A75C813747E27EFEF5AFECE31C6B230D3 PUSH2 0xBAB PUSH2 0x22E0 JUMP JUMPDEST PUSH2 0x1449 JUMP JUMPDEST PUSH2 0xBEF JUMPI PUSH1 0x40 MLOAD PUSH32 0x8C379A000000000000000000000000000000000000000000000000000000000 DUP2 MSTORE PUSH1 0x4 ADD PUSH2 0xBE6 SWAP1 PUSH2 0x425E JUMP JUMPDEST PUSH1 0x40 MLOAD DUP1 SWAP2 SUB SWAP1 REVERT JUMPDEST DUP2 PUSH1 0xB DUP2 SWAP1 SSTORE POP DUP2 SWAP1 POP SWAP2 SWAP1 POP JUMP JUMPDEST PUSH1 0x60 PUSH0 DUP1 SLOAD PUSH2 0xC0C SWAP1 PUSH2 0x42A9 JUMP JUMPDEST DUP1 PUSH1 0x1F ADD PUSH1 0x20 DUP1 SWAP2 DIV MUL PUSH1 0x20 ADD PUSH1 0x40 MLOAD SWAP1 DUP2 ADD PUSH1 0x40 MSTORE DUP1 SWAP3 SWAP2 SWAP1 DUP2 DUP2 MSTORE PUSH1 0x20 ADD DUP3 DUP1 SLOAD PUSH2 0xC38 SWAP1 PUSH2 0x42A9 JUMP JUMPDEST DUP1 ISZERO PUSH2 0xC83 JUMPI DUP1 PUSH1 0x1F LT PUSH2 0xC5A JUMPI PUSH2 0x100 DUP1 DUP4 SLOAD DIV MUL DUP4 MSTORE SWAP2 PUSH1 0x20 ADD SWAP2 PUSH2 0xC83 JUMP JUMPDEST DUP3 ADD SWAP2 SWAP1 PUSH0 MSTORE PUSH1 0x20 PUSH0 KECCAK256 SWAP1 JUMPDEST DUP2 SLOAD DUP2 MSTORE SWAP1 PUSH1 0x1 ADD SWAP1 PUSH1 0x20 ADD DUP1 DUP4 GT PUSH2 0xC66 JUMPI DUP3 SWAP1 SUB PUSH1 0x1F AND DUP3 ADD SWAP2 JUMPDEST POP POP POP POP POP SWAP1 POP SWAP1 JUMP JUMPDEST PUSH0 PUSH2 0xC97 DUP3 PUSH2 0x22E7 JUMP JUMPDEST POP PUSH2 0xCA1 DUP3 PUSH2 0x236D JUMP JUMPDEST SWAP1 POP SWAP2 SWAP1 POP JUMP JUMPDEST PUSH2 0xCBA DUP3 DUP3 PUSH2 0xCB5 PUSH2 0x22E0 JUMP JUMPDEST PUSH2 0x23A6 JUMP JUMPDEST POP POP JUMP JUMPDEST PUSH1 0xA SLOAD DUP2 JUMP JUMPDEST PUSH1 0x1A PUSH1 0x20 MSTORE DUP1 PUSH0 MSTORE PUSH1 0x40 PUSH0 KECCAK256 PUSH0 SWAP2 POP SWAP1 POP DUP1 PUSH0 ADD SLOAD SWAP1 DUP1 PUSH1 0x1 ADD PUSH0 SWAP1 SLOAD SWAP1 PUSH2 0x100 EXP SWAP1 DIV PUSH1 0xFF AND SWAP1 POP DUP3 JUMP JUMPDEST PUSH0 PUSH20 0xFFFFFFFFFFFFFFFFFFFFFFFFFFFFFFFFFFFFFFFF AND DUP3 PUSH20 0xFFFFFFFFFFFFFFFFFFFFFFFFFFFFFFFFFFFFFFFF AND SUB PUSH2 0xD60 JUMPI PUSH0 PUSH1 0x40 MLOAD PUSH32 0x64A0AE9200000000000000000000000000000000000000000000000000000000 DUP2 MSTORE PUSH1 0x4 ADD PUSH2 0xD57 SWAP2 SWAP1 PUSH2 0x3B7A JUMP JUMPDEST PUSH1 0x40 MLOAD DUP1 SWAP2 SUB SWAP1 REVERT JUMPDEST PUSH0 PUSH2 0xD73 DUP4 DUP4 PUSH2 0xD6E PUSH2 0x22E0 JUMP JUMPDEST PUSH2 0x23B8 JUMP JUMPDEST SWAP1 POP DUP4 PUSH20 0xFFFFFFFFFFFFFFFFFFFFFFFFFFFFFFFFFFFFFFFF AND DUP2 PUSH20 0xFFFFFFFFFFFFFFFFFFFFFFFFFFFFFFFFFFFFFFFF AND EQ PUSH2 0xDE9 JUMPI DUP4 DUP3 DUP3 PUSH1 0x40 MLOAD PUSH32 0x64283D7B00000000000000000000000000000000000000000000000000000000 DUP2 MSTORE PUSH1 0x4 ADD PUSH2 0xDE0 SWAP4 SWAP3 SWAP2 SWAP1 PUSH2 0x453C JUMP JUMPDEST PUSH1 0x40 MLOAD DUP1 SWAP2 SUB SWAP1 REVERT JUMPDEST POP POP POP POP JUMP JUMPDEST PUSH0 PUSH1 0x7 PUSH0 DUP4 DUP2 MSTORE PUSH1 0x20 ADD SWAP1 DUP2 MSTORE PUSH1 0x20 ADD PUSH0 KECCAK256 PUSH1 0x1 ADD SLOAD SWAP1 POP SWAP2 SWAP1 POP JUMP JUMPDEST PUSH2 0xE14 PUSH2 0x26DB JUMP JUMPDEST PUSH2 0xE1D DUP2 PUSH2 0x272A JUMP JUMPDEST PUSH20 0xFFFFFFFFFFFFFFFFFFFFFFFFFFFFFFFFFFFFFFFF AND PUSH2 0xE3B PUSH2 0x22E0 JUMP JUMPDEST PUSH20 0xFFFFFFFFFFFFFFFFFFFFFFFFFFFFFFFFFFFFFFFF AND EQ PUSH2 0xE91 JUMPI PUSH1 0x40 MLOAD PUSH32 0x8C379A000000000000000000000000000000000000000000000000000000000 DUP2 MSTORE PUSH1 0x4 ADD PUSH2 0xE88 SWAP1 PUSH2 0x45BB JUMP JUMPDEST PUSH1 0x40 MLOAD DUP1 SWAP2 SUB SWAP1 REVERT JUMPDEST PUSH1 0x1 PUSH1 0x1A PUSH0 PUSH2 0xE9E PUSH2 0x22E0 JUMP JUMPDEST PUSH20 0xFFFFFFFFFFFFFFFFFFFFFFFFFFFFFFFFFFFFFFFF AND PUSH20 0xFFFFFFFFFFFFFFFFFFFFFFFFFFFFFFFFFFFFFFFF AND DUP2 MSTORE PUSH1 0x20 ADD SWAP1 DUP2 MSTORE PUSH1 0x20 ADD PUSH0 KECCAK256 PUSH0 ADD SLOAD SUB PUSH2 0xF0F JUMPI PUSH2 0xEF1 PUSH0 DUP3 PUSH2 0xEEC PUSH2 0x22E0 JUMP JUMPDEST PUSH2 0x23B8 JUMP JUMPDEST POP PUSH1 0x11 PUSH1 0x3 ADD PUSH0 DUP2 SLOAD PUSH2 0xF03 SWAP1 PUSH2 0x4606 JUMP JUMPDEST SWAP2 SWAP1 POP DUP2 SWAP1 SSTORE POP PUSH2 0x1009 JUMP JUMPDEST PUSH1 0x2 PUSH1 0x1A PUSH0 PUSH2 0xF1C PUSH2 0x22E0 JUMP JUMPDEST PUSH20 0xFFFFFFFFFFFFFFFFFFFFFFFFFFFFFFFFFFFFFFFF AND PUSH20 0xFFFFFFFFFFFFFFFFFFFFFFFFFFFFFFFFFFFFFFFF AND DUP2 MSTORE PUSH1 0x20 ADD SWAP1 DUP2 MSTORE PUSH1 0x20 ADD PUSH0 KECCAK256 PUSH0 ADD SLOAD SUB PUSH2 0xF8D JUMPI PUSH2 0xF6F PUSH0 DUP3 PUSH2 0xF6A PUSH2 0x22E0 JUMP JUMPDEST PUSH2 0x23B8 JUMP JUMPDEST POP PUSH1 0x11 PUSH1 0x4 ADD PUSH0 DUP2 SLOAD PUSH2 0xF81 SWAP1 PUSH2 0x4606 JUMP JUMPDEST SWAP2 SWAP1 POP DUP2 SWAP1 SSTORE POP PUSH2 0x1008 JUMP JUMPDEST PUSH1 0x3 PUSH1 0x1A PUSH0 PUSH2 0xF9A PUSH2 0x22E0 JUMP JUMPDEST PUSH20 0xFFFFFFFFFFFFFFFFFFFFFFFFFFFFFFFFFFFFFFFF AND PUSH20 0xFFFFFFFFFFFFFFFFFFFFFFFFFFFFFFFFFFFFFFFF AND DUP2 MSTORE PUSH1 0x20 ADD SWAP1 DUP2 MSTORE PUSH1 0x20 ADD PUSH0 KECCAK256 PUSH0 ADD SLOAD SUB PUSH2 0x1007 JUMPI PUSH2 0xFED PUSH0 DUP3 PUSH2 0xFE8 PUSH2 0x22E0 JUMP JUMPDEST PUSH2 0x23B8 JUMP JUMPDEST POP PUSH1 0x11 PUSH1 0x5 ADD PUSH0 DUP2 SLOAD PUSH2 0xFFF SWAP1 PUSH2 0x4606 JUMP JUMPDEST SWAP2 SWAP1 POP DUP2 SWAP1 SSTORE POP JUMPDEST JUMPDEST JUMPDEST PUSH1 0xA PUSH0 DUP2 SLOAD PUSH2 0x1017 SWAP1 PUSH2 0x4606 JUMP JUMPDEST SWAP2 SWAP1 POP DUP2 SWAP1 SSTORE POP PUSH0 PUSH1 0x1A PUSH0 PUSH2 0x102A PUSH2 0x22E0 JUMP JUMPDEST PUSH20 0xFFFFFFFFFFFFFFFFFFFFFFFFFFFFFFFFFFFFFFFF AND PUSH20 0xFFFFFFFFFFFFFFFFFFFFFFFFFFFFFFFFFFFFFFFF AND DUP2 MSTORE PUSH1 0x20 ADD SWAP1 DUP2 MSTORE PUSH1 0x20 ADD PUSH0 KECCAK256 PUSH0 ADD DUP2 SWAP1 SSTORE POP PUSH0 PUSH1 0x1A PUSH0 PUSH2 0x1075 PUSH2 0x22E0 JUMP JUMPDEST PUSH20 0xFFFFFFFFFFFFFFFFFFFFFFFFFFFFFFFFFFFFFFFF AND PUSH20 0xFFFFFFFFFFFFFFFFFFFFFFFFFFFFFFFFFFFFFFFF AND DUP2 MSTORE PUSH1 0x20 ADD SWAP1 DUP2 MSTORE PUSH1 0x20 ADD PUSH0 KECCAK256 PUSH1 0x1 ADD PUSH0 PUSH2 0x100 EXP DUP2 SLOAD DUP2 PUSH1 0xFF MUL NOT AND SWAP1 DUP4 ISZERO ISZERO MUL OR SWAP1 SSTORE POP PUSH2 0x10CF PUSH2 0x2763 JUMP JUMPDEST POP JUMP JUMPDEST PUSH2 0x10DB DUP3 PUSH2 0xDEF JUMP JUMPDEST PUSH2 0x10E4 DUP2 PUSH2 0x276D JUMP JUMPDEST PUSH2 0x10EE DUP4 DUP4 PUSH2 0x2781 JUMP JUMPDEST POP POP POP POP JUMP JUMPDEST PUSH2 0x10FC PUSH2 0x22E0 JUMP JUMPDEST PUSH20 0xFFFFFFFFFFFFFFFFFFFFFFFFFFFFFFFFFFFFFFFF AND DUP2 PUSH20 0xFFFFFFFFFFFFFFFFFFFFFFFFFFFFFFFFFFFFFFFF AND EQ PUSH2 0x1160 JUMPI PUSH1 0x40 MLOAD PUSH32 0x6697B23200000000000000000000000000000000000000000000000000000000 DUP2 MSTORE PUSH1 0x4 ADD PUSH1 0x40 MLOAD DUP1 SWAP2 SUB SWAP1 REVERT JUMPDEST PUSH2 0x116A DUP3 DUP3 PUSH2 0x286B JUMP JUMPDEST POP POP POP JUMP JUMPDEST PUSH2 0x1177 PUSH2 0x26DB JUMP JUMPDEST DUP3 PUSH20 0xFFFFFFFFFFFFFFFFFFFFFFFFFFFFFFFFFFFFFFFF AND PUSH4 0xA9059CBB DUP4 DUP4 PUSH1 0x40 MLOAD DUP4 PUSH4 0xFFFFFFFF AND PUSH1 0xE0 SHL DUP2 MSTORE PUSH1 0x4 ADD PUSH2 0x11B2 SWAP3 SWAP2 SWAP1 PUSH2 0x462D JUMP JUMPDEST PUSH1 0x20 PUSH1 0x40 MLOAD DUP1 DUP4 SUB DUP2 PUSH0 DUP8 GAS CALL ISZERO DUP1 ISZERO PUSH2 0x11CE JUMPI RETURNDATASIZE PUSH0 DUP1 RETURNDATACOPY RETURNDATASIZE PUSH0 REVERT JUMPDEST POP POP POP POP PUSH1 0x40 MLOAD RETURNDATASIZE PUSH1 0x1F NOT PUSH1 0x1F DUP3 ADD AND DUP3 ADD DUP1 PUSH1 0x40 MSTORE POP DUP2 ADD SWAP1 PUSH2 0x11F2 SWAP2 SWAP1 PUSH2 0x4668 JUMP JUMPDEST POP PUSH2 0x11FB PUSH2 0x2763 JUMP JUMPDEST POP POP POP JUMP JUMPDEST PUSH2 0x121A DUP4 DUP4 DUP4 PUSH1 0x40 MLOAD DUP1 PUSH1 0x20 ADD PUSH1 0x40 MSTORE DUP1 PUSH0 DUP2 MSTORE POP PUSH2 0x2013 JUMP JUMPDEST POP POP POP JUMP JUMPDEST PUSH2 0x1227 PUSH2 0x26DB JUMP JUMPDEST DUP2 PUSH20 0xFFFFFFFFFFFFFFFFFFFFFFFFFFFFFFFFFFFFFFFF AND PUSH2 0x8FC DUP3 SWAP1 DUP2 ISZERO MUL SWAP1 PUSH1 0x40 MLOAD PUSH0 PUSH1 0x40 MLOAD DUP1 DUP4 SUB DUP2 DUP6 DUP9 DUP9 CALL SWAP4 POP POP POP POP ISZERO DUP1 ISZERO PUSH2 0x126A JUMPI RETURNDATASIZE PUSH0 DUP1 RETURNDATACOPY RETURNDATASIZE PUSH0 REVERT JUMPDEST POP PUSH2 0x1273 PUSH2 0x2763 JUMP JUMPDEST POP POP JUMP JUMPDEST PUSH32 0xAE6C2FC584631AF4C9385B8A55683F1A75C813747E27EFEF5AFECE31C6B230D3 DUP2 JUMP JUMPDEST PUSH0 CALLER DUP3 PUSH1 0x40 MLOAD PUSH1 0x20 ADD PUSH2 0x12AF SWAP3 SWAP2 SWAP1 PUSH2 0x46F8 JUMP JUMPDEST PUSH1 0x40 MLOAD PUSH1 0x20 DUP2 DUP4 SUB SUB DUP2 MSTORE SWAP1 PUSH1 0x40 MSTORE DUP1 MLOAD SWAP1 PUSH1 0x20 ADD KECCAK256 SWAP1 POP SWAP2 SWAP1 POP JUMP JUMPDEST PUSH0 PUSH2 0x12D6 DUP3 PUSH2 0x22E7 JUMP JUMPDEST SWAP1 POP SWAP2 SWAP1 POP JUMP JUMPDEST PUSH1 0xB SLOAD DUP2 JUMP JUMPDEST PUSH0 DUP1 PUSH20 0xFFFFFFFFFFFFFFFFFFFFFFFFFFFFFFFFFFFFFFFF AND DUP3 PUSH20 0xFFFFFFFFFFFFFFFFFFFFFFFFFFFFFFFFFFFFFFFF AND SUB PUSH2 0x1354 JUMPI PUSH0 PUSH1 0x40 MLOAD PUSH32 0x89C62B6400000000000000000000000000000000000000000000000000000000 DUP2 MSTORE PUSH1 0x4 ADD PUSH2 0x134B SWAP2 SWAP1 PUSH2 0x3B7A JUMP JUMPDEST PUSH1 0x40 MLOAD DUP1 SWAP2 SUB SWAP1 REVERT JUMPDEST PUSH1 0x3 PUSH0 DUP4 PUSH20 0xFFFFFFFFFFFFFFFFFFFFFFFFFFFFFFFFFFFFFFFF AND PUSH20 0xFFFFFFFFFFFFFFFFFFFFFFFFFFFFFFFFFFFFFFFF AND DUP2 MSTORE PUSH1 0x20 ADD SWAP1 DUP2 MSTORE PUSH1 0x20 ADD PUSH0 KECCAK256 SLOAD SWAP1 POP SWAP2 SWAP1 POP JUMP JUMPDEST PUSH1 0xE DUP1 SLOAD PUSH2 0x13A6 SWAP1 PUSH2 0x42A9 JUMP JUMPDEST DUP1 PUSH1 0x1F ADD PUSH1 0x20 DUP1 SWAP2 DIV MUL PUSH1 0x20 ADD PUSH1 0x40 MLOAD SWAP1 DUP2 ADD PUSH1 0x40 MSTORE DUP1 SWAP3 SWAP2 SWAP1 DUP2 DUP2 MSTORE PUSH1 0x20 ADD DUP3 DUP1 SLOAD PUSH2 0x13D2 SWAP1 PUSH2 0x42A9 JUMP JUMPDEST DUP1 ISZERO PUSH2 0x141D JUMPI DUP1 PUSH1 0x1F LT PUSH2 0x13F4 JUMPI PUSH2 0x100 DUP1 DUP4 SLOAD DIV MUL DUP4 MSTORE SWAP2 PUSH1 0x20 ADD SWAP2 PUSH2 0x141D JUMP JUMPDEST DUP3 ADD SWAP2 SWAP1 PUSH0 MSTORE PUSH1 0x20 PUSH0 KECCAK256 SWAP1 JUMPDEST DUP2 SLOAD DUP2 MSTORE SWAP1 PUSH1 0x1 ADD SWAP1 PUSH1 0x20 ADD DUP1 DUP4 GT PUSH2 0x1400 JUMPI DUP3 SWAP1 SUB PUSH1 0x1F AND DUP3 ADD SWAP2 JUMPDEST POP POP POP POP POP DUP2 JUMP JUMPDEST PUSH32 0x8C66330D9D4F6ABA064F25EF2A307366EA6D917616F44C075AA60FA15E5CB1CB DUP2 JUMP JUMPDEST PUSH0 PUSH1 0x7 PUSH0 DUP5 DUP2 MSTORE PUSH1 0x20 ADD SWAP1 DUP2 MSTORE PUSH1 0x20 ADD PUSH0 KECCAK256 PUSH0 ADD PUSH0 DUP4 PUSH20 0xFFFFFFFFFFFFFFFFFFFFFFFFFFFFFFFFFFFFFFFF AND PUSH20 0xFFFFFFFFFFFFFFFFFFFFFFFFFFFFFFFFFFFFFFFF AND DUP2 MSTORE PUSH1 0x20 ADD SWAP1 DUP2 MSTORE PUSH1 0x20 ADD PUSH0 KECCAK256 PUSH0 SWAP1 SLOAD SWAP1 PUSH2 0x100 EXP SWAP1 DIV PUSH1 0xFF AND SWAP1 POP SWAP3 SWAP2 POP POP JUMP JUMPDEST PUSH0 PUSH2 0x14B6 PUSH2 0x26DB JUMP JUMPDEST PUSH1 0x1 DUP3 LT ISZERO DUP1 ISZERO PUSH2 0x14C8 JUMPI POP PUSH1 0x3 DUP3 GT ISZERO JUMPDEST PUSH2 0x1507 JUMPI PUSH1 0x40 MLOAD PUSH32 0x8C379A000000000000000000000000000000000000000000000000000000000 DUP2 MSTORE PUSH1 0x4 ADD PUSH2 0x14FE SWAP1 PUSH2 0x476D JUMP JUMPDEST PUSH1 0x40 MLOAD DUP1 SWAP2 SUB SWAP1 REVERT JUMPDEST PUSH1 0x1A PUSH0 PUSH2 0x1512 PUSH2 0x22E0 JUMP JUMPDEST PUSH20 0xFFFFFFFFFFFFFFFFFFFFFFFFFFFFFFFFFFFFFFFF AND PUSH20 0xFFFFFFFFFFFFFFFFFFFFFFFFFFFFFFFFFFFFFFFF AND DUP2 MSTORE PUSH1 0x20 ADD SWAP1 DUP2 MSTORE PUSH1 0x20 ADD PUSH0 KECCAK256 PUSH1 0x1 ADD PUSH0 SWAP1 SLOAD SWAP1 PUSH2 0x100 EXP SWAP1 DIV PUSH1 0xFF AND ISZERO PUSH2 0x159B JUMPI PUSH1 0x40 MLOAD PUSH32 0x8C379A000000000000000000000000000000000000000000000000000000000 DUP2 MSTORE PUSH1 0x4 ADD PUSH2 0x1592 SWAP1 PUSH2 0x47D5 JUMP JUMPDEST PUSH1 0x40 MLOAD DUP1 SWAP2 SUB SWAP1 REVERT JUMPDEST PUSH0 PUSH1 0x9 PUSH0 DUP2 SLOAD PUSH2 0x15AA SWAP1 PUSH2 0x47F3 JUMP JUMPDEST SWAP2 SWAP1 POP DUP2 SWAP1 SSTORE SWAP1 POP PUSH0 PUSH1 0xE PUSH20 0x0 PUSH4 0x49E894D8 PUSH2 0x15D8 DUP6 PUSH2 0x129B JUMP JUMPDEST PUSH1 0x40 MLOAD DUP3 PUSH4 0xFFFFFFFF AND PUSH1 0xE0 SHL DUP2 MSTORE PUSH1 0x4 ADD PUSH2 0x15F4 SWAP2 SWAP1 PUSH2 0x4849 JUMP JUMPDEST PUSH0 PUSH1 0x40 MLOAD DUP1 DUP4 SUB DUP2 DUP7 GAS DELEGATECALL ISZERO DUP1 ISZERO PUSH2 0x160E JUMPI RETURNDATASIZE PUSH0 DUP1 RETURNDATACOPY RETURNDATASIZE PUSH0 REVERT JUMPDEST POP POP POP POP PUSH1 0x40 MLOAD RETURNDATASIZE PUSH0 DUP3 RETURNDATACOPY RETURNDATASIZE PUSH1 0x1F NOT PUSH1 0x1F DUP3 ADD AND DUP3 ADD DUP1 PUSH1 0x40 MSTORE POP DUP2 ADD SWAP1 PUSH2 0x1636 SWAP2 SWAP1 PUSH2 0x48D0 JUMP JUMPDEST PUSH1 0x40 MLOAD PUSH1 0x20 ADD PUSH2 0x1647 SWAP3 SWAP2 SWAP1 PUSH2 0x49D1 JUMP JUMPDEST PUSH1 0x40 MLOAD PUSH1 0x20 DUP2 DUP4 SUB SUB DUP2 MSTORE SWAP1 PUSH1 0x40 MSTORE SWAP1 POP PUSH2 0x1662 DUP3 DUP3 PUSH2 0x2955 JUMP JUMPDEST PUSH2 0x1673 PUSH2 0x166D PUSH2 0x22E0 JUMP JUMPDEST DUP4 PUSH2 0x29AF JUMP JUMPDEST PUSH1 0xA PUSH0 DUP2 SLOAD PUSH2 0x1681 SWAP1 PUSH2 0x47F3 JUMP JUMPDEST SWAP2 SWAP1 POP DUP2 SWAP1 SSTORE PUSH1 0xA DUP2 SWAP1 SSTORE POP PUSH1 0x1 DUP5 SUB PUSH2 0x18BF JUMPI PUSH1 0xB SLOAD PUSH1 0xD PUSH0 SWAP1 SLOAD SWAP1 PUSH2 0x100 EXP SWAP1 DIV PUSH20 0xFFFFFFFFFFFFFFFFFFFFFFFFFFFFFFFFFFFFFFFF AND PUSH20 0xFFFFFFFFFFFFFFFFFFFFFFFFFFFFFFFFFFFFFFFF AND PUSH4 0x70A08231 PUSH2 0x16DD PUSH2 0x22E0 JUMP JUMPDEST PUSH1 0x40 MLOAD DUP3 PUSH4 0xFFFFFFFF AND PUSH1 0xE0 SHL DUP2 MSTORE PUSH1 0x4 ADD PUSH2 0x16F9 SWAP2 SWAP1 PUSH2 0x3B7A JUMP JUMPDEST PUSH1 0x20 PUSH1 0x40 MLOAD DUP1 DUP4 SUB DUP2 DUP7 GAS STATICCALL ISZERO DUP1 ISZERO PUSH2 0x1714 JUMPI RETURNDATASIZE PUSH0 DUP1 RETURNDATACOPY RETURNDATASIZE PUSH0 REVERT JUMPDEST POP POP POP POP PUSH1 0x40 MLOAD RETURNDATASIZE PUSH1 0x1F NOT PUSH1 0x1F DUP3 ADD AND DUP3 ADD DUP1 PUSH1 0x40 MSTORE POP DUP2 ADD SWAP1 PUSH2 0x1738 SWAP2 SWAP1 PUSH2 0x4A08 JUMP JUMPDEST LT ISZERO PUSH2 0x1779 JUMPI PUSH1 0x40 MLOAD PUSH32 0x8C379A000000000000000000000000000000000000000000000000000000000 DUP2 MSTORE PUSH1 0x4 ADD PUSH2 0x1770 SWAP1 PUSH2 0x4A7D JUMP JUMPDEST PUSH1 0x40 MLOAD DUP1 SWAP2 SUB SWAP1 REVERT JUMPDEST PUSH7 0x58D15E17628000 CALLVALUE EQ PUSH2 0x17C2 JUMPI PUSH1 0x40 MLOAD PUSH32 0x8C379A000000000000000000000000000000000000000000000000000000000 DUP2 MSTORE PUSH1 0x4 ADD PUSH2 0x17B9 SWAP1 PUSH2 0x4AE5 JUMP JUMPDEST PUSH1 0x40 MLOAD DUP1 SWAP2 SUB SWAP1 REVERT JUMPDEST PUSH1 0x11 PUSH0 ADD SLOAD PUSH1 0x11 PUSH1 0x3 ADD PUSH0 DUP2 SLOAD DUP1 SWAP3 SWAP2 SWAP1 PUSH2 0x17DC SWAP1 PUSH2 0x47F3 JUMP JUMPDEST SWAP2 SWAP1 POP SSTORE LT PUSH2 0x1820 JUMPI PUSH1 0x40 MLOAD PUSH32 0x8C379A000000000000000000000000000000000000000000000000000000000 DUP2 MSTORE PUSH1 0x4 ADD PUSH2 0x1817 SWAP1 PUSH2 0x4B4D JUMP JUMPDEST PUSH1 0x40 MLOAD DUP1 SWAP2 SUB SWAP1 REVERT JUMPDEST PUSH1 0xD PUSH0 SWAP1 SLOAD SWAP1 PUSH2 0x100 EXP SWAP1 DIV PUSH20 0xFFFFFFFFFFFFFFFFFFFFFFFFFFFFFFFFFFFFFFFF AND PUSH20 0xFFFFFFFFFFFFFFFFFFFFFFFFFFFFFFFFFFFFFFFF AND PUSH4 0x449A52F8 PUSH2 0x1865 PUSH2 0x22E0 JUMP JUMPDEST PUSH10 0x21E19E0C9BAB2400000 PUSH1 0x40 MLOAD DUP4 PUSH4 0xFFFFFFFF AND PUSH1 0xE0 SHL DUP2 MSTORE PUSH1 0x4 ADD PUSH2 0x188D SWAP3 SWAP2 SWAP1 PUSH2 0x4BA4 JUMP JUMPDEST PUSH0 PUSH1 0x40 MLOAD DUP1 DUP4 SUB DUP2 PUSH0 DUP8 DUP1 EXTCODESIZE ISZERO DUP1 ISZERO PUSH2 0x18A4 JUMPI PUSH0 DUP1 REVERT JUMPDEST POP GAS CALL ISZERO DUP1 ISZERO PUSH2 0x18B6 JUMPI RETURNDATASIZE PUSH0 DUP1 RETURNDATACOPY RETURNDATASIZE PUSH0 REVERT JUMPDEST POP POP POP POP PUSH2 0x1C46 JUMP JUMPDEST PUSH1 0x2 DUP5 SUB PUSH2 0x1A84 JUMPI PUSH1 0xB SLOAD PUSH1 0xD PUSH0 SWAP1 SLOAD SWAP1 PUSH2 0x100 EXP SWAP1 DIV PUSH20 0xFFFFFFFFFFFFFFFFFFFFFFFFFFFFFFFFFFFFFFFF AND PUSH20 0xFFFFFFFFFFFFFFFFFFFFFFFFFFFFFFFFFFFFFFFF AND PUSH4 0x70A08231 PUSH2 0x190F PUSH2 0x22E0 JUMP JUMPDEST PUSH1 0x40 MLOAD DUP3 PUSH4 0xFFFFFFFF AND PUSH1 0xE0 SHL DUP2 MSTORE PUSH1 0x4 ADD PUSH2 0x192B SWAP2 SWAP1 PUSH2 0x3B7A JUMP JUMPDEST PUSH1 0x20 PUSH1 0x40 MLOAD DUP1 DUP4 SUB DUP2 DUP7 GAS STATICCALL ISZERO DUP1 ISZERO PUSH2 0x1946 JUMPI RETURNDATASIZE PUSH0 DUP1 RETURNDATACOPY RETURNDATASIZE PUSH0 REVERT JUMPDEST POP POP POP POP PUSH1 0x40 MLOAD RETURNDATASIZE PUSH1 0x1F NOT PUSH1 0x1F DUP3 ADD AND DUP3 ADD DUP1 PUSH1 0x40 MSTORE POP DUP2 ADD SWAP1 PUSH2 0x196A SWAP2 SWAP1 PUSH2 0x4A08 JUMP JUMPDEST LT ISZERO PUSH2 0x1974 JUMPI PUSH0 DUP1 REVERT JUMPDEST PUSH7 0x354A6BA7A18000 CALLVALUE EQ PUSH2 0x1986 JUMPI PUSH0 DUP1 REVERT JUMPDEST PUSH1 0x11 PUSH1 0x1 ADD SLOAD PUSH1 0x11 PUSH1 0x4 ADD PUSH0 DUP2 SLOAD DUP1 SWAP3 SWAP2 SWAP1 PUSH2 0x19A1 SWAP1 PUSH2 0x47F3 JUMP JUMPDEST SWAP2 SWAP1 POP SSTORE LT PUSH2 0x19E5 JUMPI PUSH1 0x40 MLOAD PUSH32 0x8C379A000000000000000000000000000000000000000000000000000000000 DUP2 MSTORE PUSH1 0x4 ADD PUSH2 0x19DC SWAP1 PUSH2 0x4C15 JUMP JUMPDEST PUSH1 0x40 MLOAD DUP1 SWAP2 SUB SWAP1 REVERT JUMPDEST PUSH1 0xD PUSH0 SWAP1 SLOAD SWAP1 PUSH2 0x100 EXP SWAP1 DIV PUSH20 0xFFFFFFFFFFFFFFFFFFFFFFFFFFFFFFFFFFFFFFFF AND PUSH20 0xFFFFFFFFFFFFFFFFFFFFFFFFFFFFFFFFFFFFFFFF AND PUSH4 0x449A52F8 PUSH2 0x1A2A PUSH2 0x22E0 JUMP JUMPDEST PUSH10 0x10F0CF064DD59200000 PUSH1 0x40 MLOAD DUP4 PUSH4 0xFFFFFFFF AND PUSH1 0xE0 SHL DUP2 MSTORE PUSH1 0x4 ADD PUSH2 0x1A52 SWAP3 SWAP2 SWAP1 PUSH2 0x4C6C JUMP JUMPDEST PUSH0 PUSH1 0x40 MLOAD DUP1 DUP4 SUB DUP2 PUSH0 DUP8 DUP1 EXTCODESIZE ISZERO DUP1 ISZERO PUSH2 0x1A69 JUMPI PUSH0 DUP1 REVERT JUMPDEST POP GAS CALL ISZERO DUP1 ISZERO PUSH2 0x1A7B JUMPI RETURNDATASIZE PUSH0 DUP1 RETURNDATACOPY RETURNDATASIZE PUSH0 REVERT JUMPDEST POP POP POP POP PUSH2 0x1C45 JUMP JUMPDEST PUSH1 0x3 DUP5 SUB PUSH2 0x1C44 JUMPI PUSH1 0xB SLOAD PUSH1 0xD PUSH0 SWAP1 SLOAD SWAP1 PUSH2 0x100 EXP SWAP1 DIV PUSH20 0xFFFFFFFFFFFFFFFFFFFFFFFFFFFFFFFFFFFFFFFF AND PUSH20 0xFFFFFFFFFFFFFFFFFFFFFFFFFFFFFFFFFFFFFFFF AND PUSH4 0x70A08231 PUSH2 0x1AD4 PUSH2 0x22E0 JUMP JUMPDEST PUSH1 0x40 MLOAD DUP3 PUSH4 0xFFFFFFFF AND PUSH1 0xE0 SHL DUP2 MSTORE PUSH1 0x4 ADD PUSH2 0x1AF0 SWAP2 SWAP1 PUSH2 0x3B7A JUMP JUMPDEST PUSH1 0x20 PUSH1 0x40 MLOAD DUP1 DUP4 SUB DUP2 DUP7 GAS STATICCALL ISZERO DUP1 ISZERO PUSH2 0x1B0B JUMPI RETURNDATASIZE PUSH0 DUP1 RETURNDATACOPY RETURNDATASIZE PUSH0 REVERT JUMPDEST POP POP POP POP PUSH1 0x40 MLOAD RETURNDATASIZE PUSH1 0x1F NOT PUSH1 0x1F DUP3 ADD AND DUP3 ADD DUP1 PUSH1 0x40 MSTORE POP DUP2 ADD SWAP1 PUSH2 0x1B2F SWAP2 SWAP1 PUSH2 0x4A08 JUMP JUMPDEST LT ISZERO PUSH2 0x1B39 JUMPI PUSH0 DUP1 REVERT JUMPDEST PUSH7 0x1E32B478974000 CALLVALUE EQ PUSH2 0x1B4B JUMPI PUSH0 DUP1 REVERT JUMPDEST PUSH1 0x11 PUSH1 0x2 ADD SLOAD PUSH1 0x11 PUSH1 0x5 ADD PUSH0 DUP2 SLOAD DUP1 SWAP3 SWAP2 SWAP1 PUSH2 0x1B66 SWAP1 PUSH2 0x47F3 JUMP JUMPDEST SWAP2 SWAP1 POP SSTORE LT PUSH2 0x1BAA JUMPI PUSH1 0x40 MLOAD PUSH32 0x8C379A000000000000000000000000000000000000000000000000000000000 DUP2 MSTORE PUSH1 0x4 ADD PUSH2 0x1BA1 SWAP1 PUSH2 0x4CDD JUMP JUMPDEST PUSH1 0x40 MLOAD DUP1 SWAP2 SUB SWAP1 REVERT JUMPDEST PUSH1 0xD PUSH0 SWAP1 SLOAD SWAP1 PUSH2 0x100 EXP SWAP1 DIV PUSH20 0xFFFFFFFFFFFFFFFFFFFFFFFFFFFFFFFFFFFFFFFF AND PUSH20 0xFFFFFFFFFFFFFFFFFFFFFFFFFFFFFFFFFFFFFFFF AND PUSH4 0x449A52F8 PUSH2 0x1BEF PUSH2 0x22E0 JUMP JUMPDEST PUSH9 0x3635C9ADC5DEA00000 PUSH1 0x40 MLOAD DUP4 PUSH4 0xFFFFFFFF AND PUSH1 0xE0 SHL DUP2 MSTORE PUSH1 0x4 ADD PUSH2 0x1C16 SWAP3 SWAP2 SWAP1 PUSH2 0x4D34 JUMP JUMPDEST PUSH0 PUSH1 0x40 MLOAD DUP1 DUP4 SUB DUP2 PUSH0 DUP8 DUP1 EXTCODESIZE ISZERO DUP1 ISZERO PUSH2 0x1C2D JUMPI PUSH0 DUP1 REVERT JUMPDEST POP GAS CALL ISZERO DUP1 ISZERO PUSH2 0x1C3F JUMPI RETURNDATASIZE PUSH0 DUP1 RETURNDATACOPY RETURNDATASIZE PUSH0 REVERT JUMPDEST POP POP POP POP JUMPDEST JUMPDEST JUMPDEST PUSH1 0x40 MLOAD DUP1 PUSH1 0x40 ADD PUSH1 0x40 MSTORE DUP1 DUP6 DUP2 MSTORE PUSH1 0x20 ADD PUSH1 0x1 ISZERO ISZERO DUP2 MSTORE POP PUSH1 0x1A PUSH0 PUSH2 0x1C69 PUSH2 0x22E0 JUMP JUMPDEST PUSH20 0xFFFFFFFFFFFFFFFFFFFFFFFFFFFFFFFFFFFFFFFF AND PUSH20 0xFFFFFFFFFFFFFFFFFFFFFFFFFFFFFFFFFFFFFFFF AND DUP2 MSTORE PUSH1 0x20 ADD SWAP1 DUP2 MSTORE PUSH1 0x20 ADD PUSH0 KECCAK256 PUSH0 DUP3 ADD MLOAD DUP2 PUSH0 ADD SSTORE PUSH1 0x20 DUP3 ADD MLOAD DUP2 PUSH1 0x1 ADD PUSH0 PUSH2 0x100 EXP DUP2 SLOAD DUP2 PUSH1 0xFF MUL NOT AND SWAP1 DUP4 ISZERO ISZERO MUL OR SWAP1 SSTORE POP SWAP1 POP POP DUP2 SWAP3 POP POP POP PUSH2 0x1CD9 PUSH2 0x2763 JUMP JUMPDEST SWAP2 SWAP1 POP JUMP JUMPDEST PUSH1 0x17 DUP1 PUSH0 ADD SLOAD SWAP1 DUP1 PUSH1 0x1 ADD SLOAD SWAP1 DUP1 PUSH1 0x2 ADD SLOAD SWAP1 POP DUP4 JUMP JUMPDEST PUSH1 0x11 DUP1 PUSH0 ADD SLOAD SWAP1 DUP1 PUSH1 0x1 ADD SLOAD SWAP1 DUP1 PUSH1 0x2 ADD SLOAD SWAP1 DUP1 PUSH1 0x3 ADD SLOAD SWAP1 DUP1 PUSH1 0x4 ADD SLOAD SWAP1 DUP1 PUSH1 0x5 ADD SLOAD SWAP1 POP DUP7 JUMP JUMPDEST PUSH1 0x60 PUSH1 0x1 DUP1 SLOAD PUSH2 0x1D2D SWAP1 PUSH2 0x42A9 JUMP JUMPDEST DUP1 PUSH1 0x1F ADD PUSH1 0x20 DUP1 SWAP2 DIV MUL PUSH1 0x20 ADD PUSH1 0x40 MLOAD SWAP1 DUP2 ADD PUSH1 0x40 MSTORE DUP1 SWAP3 SWAP2 SWAP1 DUP2 DUP2 MSTORE PUSH1 0x20 ADD DUP3 DUP1 SLOAD PUSH2 0x1D59 SWAP1 PUSH2 0x42A9 JUMP JUMPDEST DUP1 ISZERO PUSH2 0x1DA4 JUMPI DUP1 PUSH1 0x1F LT PUSH2 0x1D7B JUMPI PUSH2 0x100 DUP1 DUP4 SLOAD DIV MUL DUP4 MSTORE SWAP2 PUSH1 0x20 ADD SWAP2 PUSH2 0x1DA4 JUMP JUMPDEST DUP3 ADD SWAP2 SWAP1 PUSH0 MSTORE PUSH1 0x20 PUSH0 KECCAK256 SWAP1 JUMPDEST DUP2 SLOAD DUP2 MSTORE SWAP1 PUSH1 0x1 ADD SWAP1 PUSH1 0x20 ADD DUP1 DUP4 GT PUSH2 0x1D87 JUMPI DUP3 SWAP1 SUB PUSH1 0x1F AND DUP3 ADD SWAP2 JUMPDEST POP POP POP POP POP SWAP1 POP SWAP1 JUMP JUMPDEST PUSH2 0x1DDF PUSH32 0xAE6C2FC584631AF4C9385B8A55683F1A75C813747E27EFEF5AFECE31C6B230D3 PUSH2 0x1DDA PUSH2 0x22E0 JUMP JUMPDEST PUSH2 0x1449 JUMP JUMPDEST PUSH2 0x1E1E JUMPI PUSH1 0x40 MLOAD PUSH32 0x8C379A000000000000000000000000000000000000000000000000000000000 DUP2 MSTORE PUSH1 0x4 ADD PUSH2 0x1E15 SWAP1 PUSH2 0x425E JUMP JUMPDEST PUSH1 0x40 MLOAD DUP1 SWAP2 SUB SWAP1 REVERT JUMPDEST DUP1 PUSH1 0xD PUSH0 PUSH2 0x100 EXP DUP2 SLOAD DUP2 PUSH20 0xFFFFFFFFFFFFFFFFFFFFFFFFFFFFFFFFFFFFFFFF MUL NOT AND SWAP1 DUP4 PUSH20 0xFFFFFFFFFFFFFFFFFFFFFFFFFFFFFFFFFFFFFFFF AND MUL OR SWAP1 SSTORE POP POP JUMP JUMPDEST PUSH1 0xD PUSH0 SWAP1 SLOAD SWAP1 PUSH2 0x100 EXP SWAP1 DIV PUSH20 0xFFFFFFFFFFFFFFFFFFFFFFFFFFFFFFFFFFFFFFFF AND DUP2 JUMP JUMPDEST PUSH0 DUP1 SHL DUP2 JUMP JUMPDEST PUSH2 0x1E9E PUSH2 0x1E97 PUSH2 0x22E0 JUMP JUMPDEST DUP4 DUP4 PUSH2 0x29CC JUMP JUMPDEST POP POP JUMP JUMPDEST PUSH0 CALLER DUP4 DUP4 PUSH1 0x40 MLOAD PUSH1 0x20 ADD PUSH2 0x1EB8 SWAP4 SWAP3 SWAP2 SWAP1 PUSH2 0x4D5B JUMP JUMPDEST PUSH1 0x40 MLOAD PUSH1 0x20 DUP2 DUP4 SUB SUB DUP2 MSTORE SWAP1 PUSH1 0x40 MSTORE DUP1 MLOAD SWAP1 PUSH1 0x20 ADD KECCAK256 SWAP1 POP SWAP3 SWAP2 POP POP JUMP JUMPDEST PUSH1 0x60 PUSH0 PUSH2 0x1EE2 DUP4 PUSH2 0x272A JUMP JUMPDEST SWAP1 POP DUP1 PUSH20 0xFFFFFFFFFFFFFFFFFFFFFFFFFFFFFFFFFFFFFFFF AND PUSH2 0x1F03 PUSH2 0x22E0 JUMP JUMPDEST PUSH20 0xFFFFFFFFFFFFFFFFFFFFFFFFFFFFFFFFFFFFFFFF AND EQ PUSH2 0x1F59 JUMPI PUSH1 0x40 MLOAD PUSH32 0x8C379A000000000000000000000000000000000000000000000000000000000 DUP2 MSTORE PUSH1 0x4 ADD PUSH2 0x1F50 SWAP1 PUSH2 0x45BB JUMP JUMPDEST PUSH1 0x40 MLOAD DUP1 SWAP2 SUB SWAP1 REVERT JUMPDEST PUSH0 PUSH1 0xE PUSH20 0x0 PUSH4 0x49E894D8 PUSH2 0x1F7F DUP8 PUSH2 0x129B JUMP JUMPDEST PUSH1 0x40 MLOAD DUP3 PUSH4 0xFFFFFFFF AND PUSH1 0xE0 SHL DUP2 MSTORE PUSH1 0x4 ADD PUSH2 0x1F9B SWAP2 SWAP1 PUSH2 0x4849 JUMP JUMPDEST PUSH0 PUSH1 0x40 MLOAD DUP1 DUP4 SUB DUP2 DUP7 GAS DELEGATECALL ISZERO DUP1 ISZERO PUSH2 0x1FB5 JUMPI RETURNDATASIZE PUSH0 DUP1 RETURNDATACOPY RETURNDATASIZE PUSH0 REVERT JUMPDEST POP POP POP POP PUSH1 0x40 MLOAD RETURNDATASIZE PUSH0 DUP3 RETURNDATACOPY RETURNDATASIZE PUSH1 0x1F NOT PUSH1 0x1F DUP3 ADD AND DUP3 ADD DUP1 PUSH1 0x40 MSTORE POP DUP2 ADD SWAP1 PUSH2 0x1FDD SWAP2 SWAP1 PUSH2 0x48D0 JUMP JUMPDEST PUSH1 0x40 MLOAD PUSH1 0x20 ADD PUSH2 0x1FEE SWAP3 SWAP2 SWAP1 PUSH2 0x49D1 JUMP JUMPDEST PUSH1 0x40 MLOAD PUSH1 0x20 DUP2 DUP4 SUB SUB DUP2 MSTORE SWAP1 PUSH1 0x40 MSTORE SWAP1 POP PUSH2 0x2009 DUP5 DUP3 PUSH2 0x2955 JUMP JUMPDEST DUP1 SWAP3 POP POP POP SWAP2 SWAP1 POP JUMP JUMPDEST PUSH2 0x201E DUP5 DUP5 DUP5 PUSH2 0xCF0 JUMP JUMPDEST PUSH2 0x202A DUP5 DUP5 DUP5 DUP5 PUSH2 0x2B35 JUMP JUMPDEST POP POP POP POP JUMP JUMPDEST DUP3 PUSH1 0x11 PUSH0 ADD DUP2 SWAP1 SSTORE POP DUP2 PUSH1 0x11 PUSH1 0x1 ADD DUP2 SWAP1 SSTORE POP DUP1 PUSH1 0x11 PUSH1 0x2 ADD DUP2 SWAP1 SSTORE POP POP POP POP JUMP JUMPDEST PUSH1 0x60 PUSH2 0x205D DUP3 PUSH2 0x22E7 JUMP JUMPDEST POP PUSH0 PUSH1 0x6 PUSH0 DUP5 DUP2 MSTORE PUSH1 0x20 ADD SWAP1 DUP2 MSTORE PUSH1 0x20 ADD PUSH0 KECCAK256 DUP1 SLOAD PUSH2 0x207B SWAP1 PUSH2 0x42A9 JUMP JUMPDEST DUP1 PUSH1 0x1F ADD PUSH1 0x20 DUP1 SWAP2 DIV MUL PUSH1 0x20 ADD PUSH1 0x40 MLOAD SWAP1 DUP2 ADD PUSH1 0x40 MSTORE DUP1 SWAP3 SWAP2 SWAP1 DUP2 DUP2 MSTORE PUSH1 0x20 ADD DUP3 DUP1 SLOAD PUSH2 0x20A7 SWAP1 PUSH2 0x42A9 JUMP JUMPDEST DUP1 ISZERO PUSH2 0x20F2 JUMPI DUP1 PUSH1 0x1F LT PUSH2 0x20C9 JUMPI PUSH2 0x100 DUP1 DUP4 SLOAD DIV MUL DUP4 MSTORE SWAP2 PUSH1 0x20 ADD SWAP2 PUSH2 0x20F2 JUMP JUMPDEST DUP3 ADD SWAP2 SWAP1 PUSH0 MSTORE PUSH1 0x20 PUSH0 KECCAK256 SWAP1 JUMPDEST DUP2 SLOAD DUP2 MSTORE SWAP1 PUSH1 0x1 ADD SWAP1 PUSH1 0x20 ADD DUP1 DUP4 GT PUSH2 0x20D5 JUMPI DUP3 SWAP1 SUB PUSH1 0x1F AND DUP3 ADD SWAP2 JUMPDEST POP POP POP POP POP SWAP1 POP PUSH0 PUSH2 0x2102 PUSH2 0x2CE7 JUMP JUMPDEST SWAP1 POP PUSH0 DUP2 MLOAD SUB PUSH2 0x2116 JUMPI DUP2 SWAP3 POP POP POP PUSH2 0x2158 JUMP JUMPDEST PUSH0 DUP3 MLOAD GT ISZERO PUSH2 0x214A JUMPI DUP1 DUP3 PUSH1 0x40 MLOAD PUSH1 0x20 ADD PUSH2 0x2132 SWAP3 SWAP2 SWAP1 PUSH2 0x4D93 JUMP JUMPDEST PUSH1 0x40 MLOAD PUSH1 0x20 DUP2 DUP4 SUB SUB DUP2 MSTORE SWAP1 PUSH1 0x40 MSTORE SWAP3 POP POP POP PUSH2 0x2158 JUMP JUMPDEST PUSH2 0x2153 DUP5 PUSH2 0x2CFD JUMP JUMPDEST SWAP3 POP POP POP JUMPDEST SWAP2 SWAP1 POP JUMP JUMPDEST PUSH1 0xF SLOAD DUP2 JUMP JUMPDEST PUSH2 0x216C DUP3 PUSH2 0xDEF JUMP JUMPDEST PUSH2 0x2175 DUP2 PUSH2 0x276D JUMP JUMPDEST PUSH2 0x217F DUP4 DUP4 PUSH2 0x286B JUMP JUMPDEST POP POP POP POP JUMP JUMPDEST PUSH0 PUSH1 0x5 PUSH0 DUP5 PUSH20 0xFFFFFFFFFFFFFFFFFFFFFFFFFFFFFFFFFFFFFFFF AND PUSH20 0xFFFFFFFFFFFFFFFFFFFFFFFFFFFFFFFFFFFFFFFF AND DUP2 MSTORE PUSH1 0x20 ADD SWAP1 DUP2 MSTORE PUSH1 0x20 ADD PUSH0 KECCAK256 PUSH0 DUP4 PUSH20 0xFFFFFFFFFFFFFFFFFFFFFFFFFFFFFFFFFFFFFFFF AND PUSH20 0xFFFFFFFFFFFFFFFFFFFFFFFFFFFFFFFFFFFFFFFF AND DUP2 MSTORE PUSH1 0x20 ADD SWAP1 DUP2 MSTORE PUSH1 0x20 ADD PUSH0 KECCAK256 PUSH0 SWAP1 SLOAD SWAP1 PUSH2 0x100 EXP SWAP1 DIV PUSH1 0xFF AND SWAP1 POP SWAP3 SWAP2 POP POP JUMP JUMPDEST DUP1 PUSH1 0xF DUP2 SWAP1 SSTORE POP POP JUMP JUMPDEST PUSH1 0x10 PUSH0 SWAP1 SLOAD SWAP1 PUSH2 0x100 EXP SWAP1 DIV PUSH20 0xFFFFFFFFFFFFFFFFFFFFFFFFFFFFFFFFFFFFFFFF AND DUP2 JUMP JUMPDEST PUSH1 0xC PUSH0 SWAP1 SLOAD SWAP1 PUSH2 0x100 EXP SWAP1 DIV PUSH20 0xFFFFFFFFFFFFFFFFFFFFFFFFFFFFFFFFFFFFFFFF AND DUP2 JUMP JUMPDEST PUSH0 PUSH32 0x7965DB0B00000000000000000000000000000000000000000000000000000000 PUSH28 0xFFFFFFFFFFFFFFFFFFFFFFFFFFFFFFFFFFFFFFFFFFFFFFFFFFFFFFFF NOT AND DUP3 PUSH28 0xFFFFFFFFFFFFFFFFFFFFFFFFFFFFFFFFFFFFFFFFFFFFFFFFFFFFFFFF NOT AND EQ DUP1 PUSH2 0x22D9 JUMPI POP PUSH2 0x22D8 DUP3 PUSH2 0x2D63 JUMP JUMPDEST JUMPDEST SWAP1 POP SWAP2 SWAP1 POP JUMP JUMPDEST PUSH0 CALLER SWAP1 POP SWAP1 JUMP JUMPDEST PUSH0 DUP1 PUSH2 0x22F2 DUP4 PUSH2 0x272A JUMP JUMPDEST SWAP1 POP PUSH0 PUSH20 0xFFFFFFFFFFFFFFFFFFFFFFFFFFFFFFFFFFFFFFFF AND DUP2 PUSH20 0xFFFFFFFFFFFFFFFFFFFFFFFFFFFFFFFFFFFFFFFF AND SUB PUSH2 0x2364 JUMPI DUP3 PUSH1 0x40 MLOAD PUSH32 0x7E27328900000000000000000000000000000000000000000000000000000000 DUP2 MSTORE PUSH1 0x4 ADD PUSH2 0x235B SWAP2 SWAP1 PUSH2 0x3B22 JUMP JUMPDEST PUSH1 0x40 MLOAD DUP1 SWAP2 SUB SWAP1 REVERT JUMPDEST DUP1 SWAP2 POP POP SWAP2 SWAP1 POP JUMP JUMPDEST PUSH0 PUSH1 0x4 PUSH0 DUP4 DUP2 MSTORE PUSH1 0x20 ADD SWAP1 DUP2 MSTORE PUSH1 0x20 ADD PUSH0 KECCAK256 PUSH0 SWAP1 SLOAD SWAP1 PUSH2 0x100 EXP SWAP1 DIV PUSH20 0xFFFFFFFFFFFFFFFFFFFFFFFFFFFFFFFFFFFFFFFF AND SWAP1 POP SWAP2 SWAP1 POP JUMP JUMPDEST PUSH2 0x23B3 DUP4 DUP4 DUP4 PUSH1 0x1 PUSH2 0x2DC3 JUMP JUMPDEST POP POP POP JUMP JUMPDEST PUSH0 PUSH2 0x23C1 PUSH2 0x37D4 JUMP JUMPDEST PUSH0 PUSH20 0xFFFFFFFFFFFFFFFFFFFFFFFFFFFFFFFFFFFFFFFF AND DUP4 PUSH20 0xFFFFFFFFFFFFFFFFFFFFFFFFFFFFFFFFFFFFFFFF AND EQ PUSH2 0x24E0 JUMPI PUSH1 0x1A PUSH0 DUP5 PUSH20 0xFFFFFFFFFFFFFFFFFFFFFFFFFFFFFFFFFFFFFFFF AND PUSH20 0xFFFFFFFFFFFFFFFFFFFFFFFFFFFFFFFFFFFFFFFF AND DUP2 MSTORE PUSH1 0x20 ADD SWAP1 DUP2 MSTORE PUSH1 0x20 ADD PUSH0 KECCAK256 PUSH1 0x40 MLOAD DUP1 PUSH1 0x40 ADD PUSH1 0x40 MSTORE SWAP1 DUP2 PUSH0 DUP3 ADD SLOAD DUP2 MSTORE PUSH1 0x20 ADD PUSH1 0x1 DUP3 ADD PUSH0 SWAP1 SLOAD SWAP1 PUSH2 0x100 EXP SWAP1 DIV PUSH1 0xFF AND ISZERO ISZERO ISZERO ISZERO DUP2 MSTORE POP POP SWAP1 POP PUSH1 0x40 MLOAD DUP1 PUSH1 0x40 ADD PUSH1 0x40 MSTORE DUP1 PUSH0 DUP2 MSTORE PUSH1 0x20 ADD PUSH0 ISZERO ISZERO DUP2 MSTORE POP PUSH1 0x1A PUSH0 DUP6 PUSH20 0xFFFFFFFFFFFFFFFFFFFFFFFFFFFFFFFFFFFFFFFF AND PUSH20 0xFFFFFFFFFFFFFFFFFFFFFFFFFFFFFFFFFFFFFFFF AND DUP2 MSTORE PUSH1 0x20 ADD SWAP1 DUP2 MSTORE PUSH1 0x20 ADD PUSH0 KECCAK256 PUSH0 DUP3 ADD MLOAD DUP2 PUSH0 ADD SSTORE PUSH1 0x20 DUP3 ADD MLOAD DUP2 PUSH1 0x1 ADD PUSH0 PUSH2 0x100 EXP DUP2 SLOAD DUP2 PUSH1 0xFF MUL NOT AND SWAP1 DUP4 ISZERO ISZERO MUL OR SWAP1 SSTORE POP SWAP1 POP POP JUMPDEST PUSH0 PUSH20 0xFFFFFFFFFFFFFFFFFFFFFFFFFFFFFFFFFFFFFFFF AND DUP6 PUSH20 0xFFFFFFFFFFFFFFFFFFFFFFFFFFFFFFFFFFFFFFFF AND EQ PUSH2 0x2596 JUMPI PUSH1 0x40 MLOAD DUP1 PUSH1 0x40 ADD PUSH1 0x40 MSTORE DUP1 DUP3 PUSH0 ADD MLOAD DUP2 MSTORE PUSH1 0x20 ADD PUSH1 0x1 ISZERO ISZERO DUP2 MSTORE POP PUSH1 0x1A PUSH0 DUP8 PUSH20 0xFFFFFFFFFFFFFFFFFFFFFFFFFFFFFFFFFFFFFFFF AND PUSH20 0xFFFFFFFFFFFFFFFFFFFFFFFFFFFFFFFFFFFFFFFF AND DUP2 MSTORE PUSH1 0x20 ADD SWAP1 DUP2 MSTORE PUSH1 0x20 ADD PUSH0 KECCAK256 PUSH0 DUP3 ADD MLOAD DUP2 PUSH0 ADD SSTORE PUSH1 0x20 DUP3 ADD MLOAD DUP2 PUSH1 0x1 ADD PUSH0 PUSH2 0x100 EXP DUP2 SLOAD DUP2 PUSH1 0xFF MUL NOT AND SWAP1 DUP4 ISZERO ISZERO MUL OR SWAP1 SSTORE POP SWAP1 POP POP JUMPDEST PUSH0 PUSH20 0xFFFFFFFFFFFFFFFFFFFFFFFFFFFFFFFFFFFFFFFF AND DUP4 PUSH20 0xFFFFFFFFFFFFFFFFFFFFFFFFFFFFFFFFFFFFFFFF AND EQ ISZERO DUP1 ISZERO PUSH2 0x25FE JUMPI POP PUSH0 PUSH20 0xFFFFFFFFFFFFFFFFFFFFFFFFFFFFFFFFFFFFFFFF AND DUP6 PUSH20 0xFFFFFFFFFFFFFFFFFFFFFFFFFFFFFFFFFFFFFFFF AND EQ ISZERO JUMPDEST ISZERO PUSH2 0x26C6 JUMPI PUSH1 0xC PUSH0 SWAP1 SLOAD SWAP1 PUSH2 0x100 EXP SWAP1 DIV PUSH20 0xFFFFFFFFFFFFFFFFFFFFFFFFFFFFFFFFFFFFFFFF AND PUSH20 0xFFFFFFFFFFFFFFFFFFFFFFFFFFFFFFFFFFFFFFFF AND PUSH4 0x23B872DD DUP5 PUSH1 0x10 PUSH0 SWAP1 SLOAD SWAP1 PUSH2 0x100 EXP SWAP1 DIV PUSH20 0xFFFFFFFFFFFFFFFFFFFFFFFFFFFFFFFFFFFFFFFF AND PUSH1 0xF SLOAD PUSH1 0x40 MLOAD DUP5 PUSH4 0xFFFFFFFF AND PUSH1 0xE0 SHL DUP2 MSTORE PUSH1 0x4 ADD PUSH2 0x2684 SWAP4 SWAP3 SWAP2 SWAP1 PUSH2 0x4DB6 JUMP JUMPDEST PUSH1 0x20 PUSH1 0x40 MLOAD DUP1 DUP4 SUB DUP2 PUSH0 DUP8 GAS CALL ISZERO DUP1 ISZERO PUSH2 0x26A0 JUMPI RETURNDATASIZE PUSH0 DUP1 RETURNDATACOPY RETURNDATASIZE PUSH0 REVERT JUMPDEST POP POP POP POP PUSH1 0x40 MLOAD RETURNDATASIZE PUSH1 0x1F NOT PUSH1 0x1F DUP3 ADD AND DUP3 ADD DUP1 PUSH1 0x40 MSTORE POP DUP2 ADD SWAP1 PUSH2 0x26C4 SWAP2 SWAP1 PUSH2 0x4668 JUMP JUMPDEST POP JUMPDEST PUSH2 0x26D1 DUP6 DUP6 DUP6 PUSH2 0x2F82 JUMP JUMPDEST SWAP2 POP POP SWAP4 SWAP3 POP POP POP JUMP JUMPDEST PUSH1 0x2 PUSH1 0x8 SLOAD SUB PUSH2 0x2720 JUMPI PUSH1 0x40 MLOAD PUSH32 0x8C379A000000000000000000000000000000000000000000000000000000000 DUP2 MSTORE PUSH1 0x4 ADD PUSH2 0x2717 SWAP1 PUSH2 0x4E35 JUMP JUMPDEST PUSH1 0x40 MLOAD DUP1 SWAP2 SUB SWAP1 REVERT JUMPDEST PUSH1 0x2 PUSH1 0x8 DUP2 SWAP1 SSTORE POP JUMP JUMPDEST PUSH0 PUSH1 0x2 PUSH0 DUP4 DUP2 MSTORE PUSH1 0x20 ADD SWAP1 DUP2 MSTORE PUSH1 0x20 ADD PUSH0 KECCAK256 PUSH0 SWAP1 SLOAD SWAP1 PUSH2 0x100 EXP SWAP1 DIV PUSH20 0xFFFFFFFFFFFFFFFFFFFFFFFFFFFFFFFFFFFFFFFF AND SWAP1 POP SWAP2 SWAP1 POP JUMP JUMPDEST PUSH1 0x1 PUSH1 0x8 DUP2 SWAP1 SSTORE POP JUMP JUMPDEST PUSH2 0x277E DUP2 PUSH2 0x2779 PUSH2 0x22E0 JUMP JUMPDEST PUSH2 0x318D JUMP JUMPDEST POP JUMP JUMPDEST PUSH0 PUSH2 0x278C DUP4 DUP4 PUSH2 0x1449 JUMP JUMPDEST PUSH2 0x2861 JUMPI PUSH1 0x1 PUSH1 0x7 PUSH0 DUP6 DUP2 MSTORE PUSH1 0x20 ADD SWAP1 DUP2 MSTORE PUSH1 0x20 ADD PUSH0 KECCAK256 PUSH0 ADD PUSH0 DUP5 PUSH20 0xFFFFFFFFFFFFFFFFFFFFFFFFFFFFFFFFFFFFFFFF AND PUSH20 0xFFFFFFFFFFFFFFFFFFFFFFFFFFFFFFFFFFFFFFFF AND DUP2 MSTORE PUSH1 0x20 ADD SWAP1 DUP2 MSTORE PUSH1 0x20 ADD PUSH0 KECCAK256 PUSH0 PUSH2 0x100 EXP DUP2 SLOAD DUP2 PUSH1 0xFF MUL NOT AND SWAP1 DUP4 ISZERO ISZERO MUL OR SWAP1 SSTORE POP PUSH2 0x27FE PUSH2 0x22E0 JUMP JUMPDEST PUSH20 0xFFFFFFFFFFFFFFFFFFFFFFFFFFFFFFFFFFFFFFFF AND DUP3 PUSH20 0xFFFFFFFFFFFFFFFFFFFFFFFFFFFFFFFFFFFFFFFF AND DUP5 PUSH32 0x2F8788117E7EFF1D82E926EC794901D17C78024A50270940304540A733656F0D PUSH1 0x40 MLOAD PUSH1 0x40 MLOAD DUP1 SWAP2 SUB SWAP1 LOG4 PUSH1 0x1 SWAP1 POP PUSH2 0x2865 JUMP JUMPDEST PUSH0 SWAP1 POP JUMPDEST SWAP3 SWAP2 POP POP JUMP JUMPDEST PUSH0 PUSH2 0x2876 DUP4 DUP4 PUSH2 0x1449 JUMP JUMPDEST ISZERO PUSH2 0x294B JUMPI PUSH0 PUSH1 0x7 PUSH0 DUP6 DUP2 MSTORE PUSH1 0x20 ADD SWAP1 DUP2 MSTORE PUSH1 0x20 ADD PUSH0 KECCAK256 PUSH0 ADD PUSH0 DUP5 PUSH20 0xFFFFFFFFFFFFFFFFFFFFFFFFFFFFFFFFFFFFFFFF AND PUSH20 0xFFFFFFFFFFFFFFFFFFFFFFFFFFFFFFFFFFFFFFFF AND DUP2 MSTORE PUSH1 0x20 ADD SWAP1 DUP2 MSTORE PUSH1 0x20 ADD PUSH0 KECCAK256 PUSH0 PUSH2 0x100 EXP DUP2 SLOAD DUP2 PUSH1 0xFF MUL NOT AND SWAP1 DUP4 ISZERO ISZERO MUL OR SWAP1 SSTORE POP PUSH2 0x28E8 PUSH2 0x22E0 JUMP JUMPDEST PUSH20 0xFFFFFFFFFFFFFFFFFFFFFFFFFFFFFFFFFFFFFFFF AND DUP3 PUSH20 0xFFFFFFFFFFFFFFFFFFFFFFFFFFFFFFFFFFFFFFFF AND DUP5 PUSH32 0xF6391F5C32D9C69D2A47EA670B442974B53935D1EDC7FD64EB21E047A839171B PUSH1 0x40 MLOAD PUSH1 0x40 MLOAD DUP1 SWAP2 SUB SWAP1 LOG4 PUSH1 0x1 SWAP1 POP PUSH2 0x294F JUMP JUMPDEST PUSH0 SWAP1 POP JUMPDEST SWAP3 SWAP2 POP POP JUMP JUMPDEST DUP1 PUSH1 0x6 PUSH0 DUP5 DUP2 MSTORE PUSH1 0x20 ADD SWAP1 DUP2 MSTORE PUSH1 0x20 ADD PUSH0 KECCAK256 SWAP1 DUP2 PUSH2 0x2973 SWAP2 SWAP1 PUSH2 0x446D JUMP JUMPDEST POP PUSH32 0xF8E1A15ABA9398E019F0B49DF1A4FDE98EE17AE345CB5F6B5E2C27F5033E8CE7 DUP3 PUSH1 0x40 MLOAD PUSH2 0x29A3 SWAP2 SWAP1 PUSH2 0x3B22 JUMP JUMPDEST PUSH1 0x40 MLOAD DUP1 SWAP2 SUB SWAP1 LOG1 POP POP JUMP JUMPDEST PUSH2 0x29C8 DUP3 DUP3 PUSH1 0x40 MLOAD DUP1 PUSH1 0x20 ADD PUSH1 0x40 MSTORE DUP1 PUSH0 DUP2 MSTORE POP PUSH2 0x31DE JUMP JUMPDEST POP POP JUMP JUMPDEST PUSH0 PUSH20 0xFFFFFFFFFFFFFFFFFFFFFFFFFFFFFFFFFFFFFFFF AND DUP3 PUSH20 0xFFFFFFFFFFFFFFFFFFFFFFFFFFFFFFFFFFFFFFFF AND SUB PUSH2 0x2A3C JUMPI DUP2 PUSH1 0x40 MLOAD PUSH32 0x5B08BA1800000000000000000000000000000000000000000000000000000000 DUP2 MSTORE PUSH1 0x4 ADD PUSH2 0x2A33 SWAP2 SWAP1 PUSH2 0x3B7A JUMP JUMPDEST PUSH1 0x40 MLOAD DUP1 SWAP2 SUB SWAP1 REVERT JUMPDEST DUP1 PUSH1 0x5 PUSH0 DUP6 PUSH20 0xFFFFFFFFFFFFFFFFFFFFFFFFFFFFFFFFFFFFFFFF AND PUSH20 0xFFFFFFFFFFFFFFFFFFFFFFFFFFFFFFFFFFFFFFFF AND DUP2 MSTORE PUSH1 0x20 ADD SWAP1 DUP2 MSTORE PUSH1 0x20 ADD PUSH0 KECCAK256 PUSH0 DUP5 PUSH20 0xFFFFFFFFFFFFFFFFFFFFFFFFFFFFFFFFFFFFFFFF AND PUSH20 0xFFFFFFFFFFFFFFFFFFFFFFFFFFFFFFFFFFFFFFFF AND DUP2 MSTORE PUSH1 0x20 ADD SWAP1 DUP2 MSTORE PUSH1 0x20 ADD PUSH0 KECCAK256 PUSH0 PUSH2 0x100 EXP DUP2 SLOAD DUP2 PUSH1 0xFF MUL NOT AND SWAP1 DUP4 ISZERO ISZERO MUL OR SWAP1 SSTORE POP DUP2 PUSH20 0xFFFFFFFFFFFFFFFFFFFFFFFFFFFFFFFFFFFFFFFF AND DUP4 PUSH20 0xFFFFFFFFFFFFFFFFFFFFFFFFFFFFFFFFFFFFFFFF AND PUSH32 0x17307EAB39AB6107E8899845AD3D59BD9653F200F220920489CA2B5937696C31 DUP4 PUSH1 0x40 MLOAD PUSH2 0x2B28 SWAP2 SWAP1 PUSH2 0x3899 JUMP JUMPDEST PUSH1 0x40 MLOAD DUP1 SWAP2 SUB SWAP1 LOG3 POP POP POP JUMP JUMPDEST PUSH0 DUP4 PUSH20 0xFFFFFFFFFFFFFFFFFFFFFFFFFFFFFFFFFFFFFFFF AND EXTCODESIZE GT ISZERO PUSH2 0x2CE1 JUMPI DUP3 PUSH20 0xFFFFFFFFFFFFFFFFFFFFFFFFFFFFFFFFFFFFFFFF AND PUSH4 0x150B7A02 PUSH2 0x2B78 PUSH2 0x22E0 JUMP JUMPDEST DUP7 DUP6 DUP6 PUSH1 0x40 MLOAD DUP6 PUSH4 0xFFFFFFFF AND PUSH1 0xE0 SHL DUP2 MSTORE PUSH1 0x4 ADD PUSH2 0x2B9A SWAP5 SWAP4 SWAP3 SWAP2 SWAP1 PUSH2 0x4EA5 JUMP JUMPDEST PUSH1 0x20 PUSH1 0x40 MLOAD DUP1 DUP4 SUB DUP2 PUSH0 DUP8 GAS CALL SWAP3 POP POP POP DUP1 ISZERO PUSH2 0x2BD5 JUMPI POP PUSH1 0x40 MLOAD RETURNDATASIZE PUSH1 0x1F NOT PUSH1 0x1F DUP3 ADD AND DUP3 ADD DUP1 PUSH1 0x40 MSTORE POP DUP2 ADD SWAP1 PUSH2 0x2BD2 SWAP2 SWAP1 PUSH2 0x4F03 JUMP JUMPDEST PUSH1 0x1 JUMPDEST PUSH2 0x2C56 JUMPI RETURNDATASIZE DUP1 PUSH0 DUP2 EQ PUSH2 0x2C03 JUMPI PUSH1 0x40 MLOAD SWAP2 POP PUSH1 0x1F NOT PUSH1 0x3F RETURNDATASIZE ADD AND DUP3 ADD PUSH1 0x40 MSTORE RETURNDATASIZE DUP3 MSTORE RETURNDATASIZE PUSH0 PUSH1 0x20 DUP5 ADD RETURNDATACOPY PUSH2 0x2C08 JUMP JUMPDEST PUSH1 0x60 SWAP2 POP JUMPDEST POP PUSH0 DUP2 MLOAD SUB PUSH2 0x2C4E JUMPI DUP4 PUSH1 0x40 MLOAD PUSH32 0x64A0AE9200000000000000000000000000000000000000000000000000000000 DUP2 MSTORE PUSH1 0x4 ADD PUSH2 0x2C45 SWAP2 SWAP1 PUSH2 0x3B7A JUMP JUMPDEST PUSH1 0x40 MLOAD DUP1 SWAP2 SUB SWAP1 REVERT JUMPDEST DUP1 MLOAD DUP2 PUSH1 0x20 ADD REVERT JUMPDEST PUSH4 0x150B7A02 PUSH1 0xE0 SHL PUSH28 0xFFFFFFFFFFFFFFFFFFFFFFFFFFFFFFFFFFFFFFFFFFFFFFFFFFFFFFFF NOT AND DUP2 PUSH28 0xFFFFFFFFFFFFFFFFFFFFFFFFFFFFFFFFFFFFFFFFFFFFFFFFFFFFFFFF NOT AND EQ PUSH2 0x2CDF JUMPI DUP4 PUSH1 0x40 MLOAD PUSH32 0x64A0AE9200000000000000000000000000000000000000000000000000000000 DUP2 MSTORE PUSH1 0x4 ADD PUSH2 0x2CD6 SWAP2 SWAP1 PUSH2 0x3B7A JUMP JUMPDEST PUSH1 0x40 MLOAD DUP1 SWAP2 SUB SWAP1 REVERT JUMPDEST POP JUMPDEST POP POP POP POP JUMP JUMPDEST PUSH1 0x60 PUSH1 0x40 MLOAD DUP1 PUSH1 0x20 ADD PUSH1 0x40 MSTORE DUP1 PUSH0 DUP2 MSTORE POP SWAP1 POP SWAP1 JUMP JUMPDEST PUSH1 0x60 PUSH2 0x2D08 DUP3 PUSH2 0x22E7 JUMP JUMPDEST POP PUSH0 PUSH2 0x2D12 PUSH2 0x2CE7 JUMP JUMPDEST SWAP1 POP PUSH0 DUP2 MLOAD GT PUSH2 0x2D30 JUMPI PUSH1 0x40 MLOAD DUP1 PUSH1 0x20 ADD PUSH1 0x40 MSTORE DUP1 PUSH0 DUP2 MSTORE POP PUSH2 0x2D5B JUMP JUMPDEST DUP1 PUSH2 0x2D3A DUP5 PUSH2 0x31F9 JUMP JUMPDEST PUSH1 0x40 MLOAD PUSH1 0x20 ADD PUSH2 0x2D4B SWAP3 SWAP2 SWAP1 PUSH2 0x4D93 JUMP JUMPDEST PUSH1 0x40 MLOAD PUSH1 0x20 DUP2 DUP4 SUB SUB DUP2 MSTORE SWAP1 PUSH1 0x40 MSTORE JUMPDEST SWAP2 POP POP SWAP2 SWAP1 POP JUMP JUMPDEST PUSH0 PUSH4 0x49064906 PUSH1 0xE0 SHL PUSH28 0xFFFFFFFFFFFFFFFFFFFFFFFFFFFFFFFFFFFFFFFFFFFFFFFFFFFFFFFF NOT AND DUP3 PUSH28 0xFFFFFFFFFFFFFFFFFFFFFFFFFFFFFFFFFFFFFFFFFFFFFFFFFFFFFFFF NOT AND EQ DUP1 PUSH2 0x2DBC JUMPI POP PUSH2 0x2DBB DUP3 PUSH2 0x32C3 JUMP JUMPDEST JUMPDEST SWAP1 POP SWAP2 SWAP1 POP JUMP JUMPDEST DUP1 DUP1 PUSH2 0x2DFB JUMPI POP PUSH0 PUSH20 0xFFFFFFFFFFFFFFFFFFFFFFFFFFFFFFFFFFFFFFFF AND DUP3 PUSH20 0xFFFFFFFFFFFFFFFFFFFFFFFFFFFFFFFFFFFFFFFF AND EQ ISZERO JUMPDEST ISZERO PUSH2 0x2F2D JUMPI PUSH0 PUSH2 0x2E0A DUP5 PUSH2 0x22E7 JUMP JUMPDEST SWAP1 POP PUSH0 PUSH20 0xFFFFFFFFFFFFFFFFFFFFFFFFFFFFFFFFFFFFFFFF AND DUP4 PUSH20 0xFFFFFFFFFFFFFFFFFFFFFFFFFFFFFFFFFFFFFFFF AND EQ ISZERO DUP1 ISZERO PUSH2 0x2E74 JUMPI POP DUP3 PUSH20 0xFFFFFFFFFFFFFFFFFFFFFFFFFFFFFFFFFFFFFFFF AND DUP2 PUSH20 0xFFFFFFFFFFFFFFFFFFFFFFFFFFFFFFFFFFFFFFFF AND EQ ISZERO JUMPDEST DUP1 ISZERO PUSH2 0x2E87 JUMPI POP PUSH2 0x2E85 DUP2 DUP5 PUSH2 0x2185 JUMP JUMPDEST ISZERO JUMPDEST ISZERO PUSH2 0x2EC9 JUMPI DUP3 PUSH1 0x40 MLOAD PUSH32 0xA9FBF51F00000000000000000000000000000000000000000000000000000000 DUP2 MSTORE PUSH1 0x4 ADD PUSH2 0x2EC0 SWAP2 SWAP1 PUSH2 0x3B7A JUMP JUMPDEST PUSH1 0x40 MLOAD DUP1 SWAP2 SUB SWAP1 REVERT JUMPDEST DUP2 ISZERO PUSH2 0x2F2B JUMPI DUP4 DUP6 PUSH20 0xFFFFFFFFFFFFFFFFFFFFFFFFFFFFFFFFFFFFFFFF AND DUP3 PUSH20 0xFFFFFFFFFFFFFFFFFFFFFFFFFFFFFFFFFFFFFFFF AND PUSH32 0x8C5BE1E5EBEC7D5BD14F71427D1E84F3DD0314C0F7B2291E5B200AC8C7C3B925 PUSH1 0x40 MLOAD PUSH1 0x40 MLOAD DUP1 SWAP2 SUB SWAP1 LOG4 JUMPDEST POP JUMPDEST DUP4 PUSH1 0x4 PUSH0 DUP6 DUP2 MSTORE PUSH1 0x20 ADD SWAP1 DUP2 MSTORE PUSH1 0x20 ADD PUSH0 KECCAK256 PUSH0 PUSH2 0x100 EXP DUP2 SLOAD DUP2 PUSH20 0xFFFFFFFFFFFFFFFFFFFFFFFFFFFFFFFFFFFFFFFF MUL NOT AND SWAP1 DUP4 PUSH20 0xFFFFFFFFFFFFFFFFFFFFFFFFFFFFFFFFFFFFFFFF AND MUL OR SWAP1 SSTORE POP POP POP POP POP JUMP JUMPDEST PUSH0 DUP1 PUSH2 0x2F8D DUP5 PUSH2 0x272A JUMP JUMPDEST SWAP1 POP PUSH0 PUSH20 0xFFFFFFFFFFFFFFFFFFFFFFFFFFFFFFFFFFFFFFFF AND DUP4 PUSH20 0xFFFFFFFFFFFFFFFFFFFFFFFFFFFFFFFFFFFFFFFF AND EQ PUSH2 0x2FCE JUMPI PUSH2 0x2FCD DUP2 DUP5 DUP7 PUSH2 0x33A4 JUMP JUMPDEST JUMPDEST PUSH0 PUSH20 0xFFFFFFFFFFFFFFFFFFFFFFFFFFFFFFFFFFFFFFFF AND DUP2 PUSH20 0xFFFFFFFFFFFFFFFFFFFFFFFFFFFFFFFFFFFFFFFF AND EQ PUSH2 0x3059 JUMPI PUSH2 0x300D PUSH0 DUP6 PUSH0 DUP1 PUSH2 0x2DC3 JUMP JUMPDEST PUSH1 0x1 PUSH1 0x3 PUSH0 DUP4 PUSH20 0xFFFFFFFFFFFFFFFFFFFFFFFFFFFFFFFFFFFFFFFF AND PUSH20 0xFFFFFFFFFFFFFFFFFFFFFFFFFFFFFFFFFFFFFFFF AND DUP2 MSTORE PUSH1 0x20 ADD SWAP1 DUP2 MSTORE PUSH1 0x20 ADD PUSH0 KECCAK256 PUSH0 DUP3 DUP3 SLOAD SUB SWAP3 POP POP DUP2 SWAP1 SSTORE POP JUMPDEST PUSH0 PUSH20 0xFFFFFFFFFFFFFFFFFFFFFFFFFFFFFFFFFFFFFFFF AND DUP6 PUSH20 0xFFFFFFFFFFFFFFFFFFFFFFFFFFFFFFFFFFFFFFFF AND EQ PUSH2 0x30D8 JUMPI PUSH1 0x1 PUSH1 0x3 PUSH0 DUP8 PUSH20 0xFFFFFFFFFFFFFFFFFFFFFFFFFFFFFFFFFFFFFFFF AND PUSH20 0xFFFFFFFFFFFFFFFFFFFFFFFFFFFFFFFFFFFFFFFF AND DUP2 MSTORE PUSH1 0x20 ADD SWAP1 DUP2 MSTORE PUSH1 0x20 ADD PUSH0 KECCAK256 PUSH0 DUP3 DUP3 SLOAD ADD SWAP3 POP POP DUP2 SWAP1 SSTORE POP JUMPDEST DUP5 PUSH1 0x2 PUSH0 DUP7 DUP2 MSTORE PUSH1 0x20 ADD SWAP1 DUP2 MSTORE PUSH1 0x20 ADD PUSH0 KECCAK256 PUSH0 PUSH2 0x100 EXP DUP2 SLOAD DUP2 PUSH20 0xFFFFFFFFFFFFFFFFFFFFFFFFFFFFFFFFFFFFFFFF MUL NOT AND SWAP1 DUP4 PUSH20 0xFFFFFFFFFFFFFFFFFFFFFFFFFFFFFFFFFFFFFFFF AND MUL OR SWAP1 SSTORE POP DUP4 DUP6 PUSH20 0xFFFFFFFFFFFFFFFFFFFFFFFFFFFFFFFFFFFFFFFF AND DUP3 PUSH20 0xFFFFFFFFFFFFFFFFFFFFFFFFFFFFFFFFFFFFFFFF AND PUSH32 0xDDF252AD1BE2C89B69C2B068FC378DAA952BA7F163C4A11628F55A4DF523B3EF PUSH1 0x40 MLOAD PUSH1 0x40 MLOAD DUP1 SWAP2 SUB SWAP1 LOG4 DUP1 SWAP2 POP POP SWAP4 SWAP3 POP POP POP JUMP JUMPDEST PUSH2 0x3197 DUP3 DUP3 PUSH2 0x1449 JUMP JUMPDEST PUSH2 0x31DA JUMPI DUP1 DUP3 PUSH1 0x40 MLOAD PUSH32 0xE2517D3F00000000000000000000000000000000000000000000000000000000 DUP2 MSTORE PUSH1 0x4 ADD PUSH2 0x31D1 SWAP3 SWAP2 SWAP1 PUSH2 0x4F2E JUMP JUMPDEST PUSH1 0x40 MLOAD DUP1 SWAP2 SUB SWAP1 REVERT JUMPDEST POP POP JUMP JUMPDEST PUSH2 0x31E8 DUP4 DUP4 PUSH2 0x3467 JUMP JUMPDEST PUSH2 0x31F4 PUSH0 DUP5 DUP5 DUP5 PUSH2 0x2B35 JUMP JUMPDEST POP POP POP JUMP JUMPDEST PUSH1 0x60 PUSH0 PUSH1 0x1 PUSH2 0x3207 DUP5 PUSH2 0x355A JUMP JUMPDEST ADD SWAP1 POP PUSH0 DUP2 PUSH8 0xFFFFFFFFFFFFFFFF DUP2 GT ISZERO PUSH2 0x3225 JUMPI PUSH2 0x3224 PUSH2 0x38CA JUMP JUMPDEST JUMPDEST PUSH1 0x40 MLOAD SWAP1 DUP1 DUP3 MSTORE DUP1 PUSH1 0x1F ADD PUSH1 0x1F NOT AND PUSH1 0x20 ADD DUP3 ADD PUSH1 0x40 MSTORE DUP1 ISZERO PUSH2 0x3257 JUMPI DUP2 PUSH1 0x20 ADD PUSH1 0x1 DUP3 MUL DUP1 CALLDATASIZE DUP4 CALLDATACOPY DUP1 DUP3 ADD SWAP2 POP POP SWAP1 POP JUMPDEST POP SWAP1 POP PUSH0 DUP3 PUSH1 0x20 ADD DUP3 ADD SWAP1 POP JUMPDEST PUSH1 0x1 ISZERO PUSH2 0x32B8 JUMPI DUP1 DUP1 PUSH1 0x1 SWAP1 SUB SWAP2 POP POP PUSH32 0x3031323334353637383961626364656600000000000000000000000000000000 PUSH1 0xA DUP7 MOD BYTE DUP2 MSTORE8 PUSH1 0xA DUP6 DUP2 PUSH2 0x32AD JUMPI PUSH2 0x32AC PUSH2 0x4F55 JUMP JUMPDEST JUMPDEST DIV SWAP5 POP PUSH0 DUP6 SUB PUSH2 0x3264 JUMPI JUMPDEST DUP2 SWAP4 POP POP POP POP SWAP2 SWAP1 POP JUMP JUMPDEST PUSH0 PUSH32 0x80AC58CD00000000000000000000000000000000000000000000000000000000 PUSH28 0xFFFFFFFFFFFFFFFFFFFFFFFFFFFFFFFFFFFFFFFFFFFFFFFFFFFFFFFF NOT AND DUP3 PUSH28 0xFFFFFFFFFFFFFFFFFFFFFFFFFFFFFFFFFFFFFFFFFFFFFFFFFFFFFFFF NOT AND EQ DUP1 PUSH2 0x338D JUMPI POP PUSH32 0x5B5E139F00000000000000000000000000000000000000000000000000000000 PUSH28 0xFFFFFFFFFFFFFFFFFFFFFFFFFFFFFFFFFFFFFFFFFFFFFFFFFFFFFFFF NOT AND DUP3 PUSH28 0xFFFFFFFFFFFFFFFFFFFFFFFFFFFFFFFFFFFFFFFFFFFFFFFFFFFFFFFF NOT AND EQ JUMPDEST DUP1 PUSH2 0x339D JUMPI POP PUSH2 0x339C DUP3 PUSH2 0x36AB JUMP JUMPDEST JUMPDEST SWAP1 POP SWAP2 SWAP1 POP JUMP JUMPDEST PUSH2 0x33AF DUP4 DUP4 DUP4 PUSH2 0x3714 JUMP JUMPDEST PUSH2 0x3462 JUMPI PUSH0 PUSH20 0xFFFFFFFFFFFFFFFFFFFFFFFFFFFFFFFFFFFFFFFF AND DUP4 PUSH20 0xFFFFFFFFFFFFFFFFFFFFFFFFFFFFFFFFFFFFFFFF AND SUB PUSH2 0x3423 JUMPI DUP1 PUSH1 0x40 MLOAD PUSH32 0x7E27328900000000000000000000000000000000000000000000000000000000 DUP2 MSTORE PUSH1 0x4 ADD PUSH2 0x341A SWAP2 SWAP1 PUSH2 0x3B22 JUMP JUMPDEST PUSH1 0x40 MLOAD DUP1 SWAP2 SUB SWAP1 REVERT JUMPDEST DUP2 DUP2 PUSH1 0x40 MLOAD PUSH32 0x177E802F00000000000000000000000000000000000000000000000000000000 DUP2 MSTORE PUSH1 0x4 ADD PUSH2 0x3459 SWAP3 SWAP2 SWAP1 PUSH2 0x462D JUMP JUMPDEST PUSH1 0x40 MLOAD DUP1 SWAP2 SUB SWAP1 REVERT JUMPDEST POP POP POP JUMP JUMPDEST PUSH0 PUSH20 0xFFFFFFFFFFFFFFFFFFFFFFFFFFFFFFFFFFFFFFFF AND DUP3 PUSH20 0xFFFFFFFFFFFFFFFFFFFFFFFFFFFFFFFFFFFFFFFF AND SUB PUSH2 0x34D7 JUMPI PUSH0 PUSH1 0x40 MLOAD PUSH32 0x64A0AE9200000000000000000000000000000000000000000000000000000000 DUP2 MSTORE PUSH1 0x4 ADD PUSH2 0x34CE SWAP2 SWAP1 PUSH2 0x3B7A JUMP JUMPDEST PUSH1 0x40 MLOAD DUP1 SWAP2 SUB SWAP1 REVERT JUMPDEST PUSH0 PUSH2 0x34E3 DUP4 DUP4 PUSH0 PUSH2 0x23B8 JUMP JUMPDEST SWAP1 POP PUSH0 PUSH20 0xFFFFFFFFFFFFFFFFFFFFFFFFFFFFFFFFFFFFFFFF AND DUP2 PUSH20 0xFFFFFFFFFFFFFFFFFFFFFFFFFFFFFFFFFFFFFFFF AND EQ PUSH2 0x3555 JUMPI PUSH0 PUSH1 0x40 MLOAD PUSH32 0x73C6AC6E00000000000000000000000000000000000000000000000000000000 DUP2 MSTORE PUSH1 0x4 ADD PUSH2 0x354C SWAP2 SWAP1 PUSH2 0x3B7A JUMP JUMPDEST PUSH1 0x40 MLOAD DUP1 SWAP2 SUB SWAP1 REVERT JUMPDEST POP POP POP JUMP JUMPDEST PUSH0 DUP1 PUSH0 SWAP1 POP PUSH27 0x184F03E93FF9F4DAA797ED6E38ED64BF6A1F010000000000000000 DUP4 LT PUSH2 0x35B6 JUMPI PUSH27 0x184F03E93FF9F4DAA797ED6E38ED64BF6A1F010000000000000000 DUP4 DUP2 PUSH2 0x35AC JUMPI PUSH2 0x35AB PUSH2 0x4F55 JUMP JUMPDEST JUMPDEST DIV SWAP3 POP PUSH1 0x40 DUP2 ADD SWAP1 POP JUMPDEST PUSH14 0x4EE2D6D415B85ACEF8100000000 DUP4 LT PUSH2 0x35F3 JUMPI PUSH14 0x4EE2D6D415B85ACEF8100000000 DUP4 DUP2 PUSH2 0x35E9 JUMPI PUSH2 0x35E8 PUSH2 0x4F55 JUMP JUMPDEST JUMPDEST DIV SWAP3 POP PUSH1 0x20 DUP2 ADD SWAP1 POP JUMPDEST PUSH7 0x2386F26FC10000 DUP4 LT PUSH2 0x3622 JUMPI PUSH7 0x2386F26FC10000 DUP4 DUP2 PUSH2 0x3618 JUMPI PUSH2 0x3617 PUSH2 0x4F55 JUMP JUMPDEST JUMPDEST DIV SWAP3 POP PUSH1 0x10 DUP2 ADD SWAP1 POP JUMPDEST PUSH4 0x5F5E100 DUP4 LT PUSH2 0x364B JUMPI PUSH4 0x5F5E100 DUP4 DUP2 PUSH2 0x3641 JUMPI PUSH2 0x3640 PUSH2 0x4F55 JUMP JUMPDEST JUMPDEST DIV SWAP3 POP PUSH1 0x8 DUP2 ADD SWAP1 POP JUMPDEST PUSH2 0x2710 DUP4 LT PUSH2 0x3670 JUMPI PUSH2 0x2710 DUP4 DUP2 PUSH2 0x3666 JUMPI PUSH2 0x3665 PUSH2 0x4F55 JUMP JUMPDEST JUMPDEST DIV SWAP3 POP PUSH1 0x4 DUP2 ADD SWAP1 POP JUMPDEST PUSH1 0x64 DUP4 LT PUSH2 0x3693 JUMPI PUSH1 0x64 DUP4 DUP2 PUSH2 0x3689 JUMPI PUSH2 0x3688 PUSH2 0x4F55 JUMP JUMPDEST JUMPDEST DIV SWAP3 POP PUSH1 0x2 DUP2 ADD SWAP1 POP JUMPDEST PUSH1 0xA DUP4 LT PUSH2 0x36A2 JUMPI PUSH1 0x1 DUP2 ADD SWAP1 POP JUMPDEST DUP1 SWAP2 POP POP SWAP2 SWAP1 POP JUMP JUMPDEST PUSH0 PUSH32 0x1FFC9A700000000000000000000000000000000000000000000000000000000 PUSH28 0xFFFFFFFFFFFFFFFFFFFFFFFFFFFFFFFFFFFFFFFFFFFFFFFFFFFFFFFF NOT AND DUP3 PUSH28 0xFFFFFFFFFFFFFFFFFFFFFFFFFFFFFFFFFFFFFFFFFFFFFFFFFFFFFFFF NOT AND EQ SWAP1 POP SWAP2 SWAP1 POP JUMP JUMPDEST PUSH0 DUP1 PUSH20 0xFFFFFFFFFFFFFFFFFFFFFFFFFFFFFFFFFFFFFFFF AND DUP4 PUSH20 0xFFFFFFFFFFFFFFFFFFFFFFFFFFFFFFFFFFFFFFFF AND EQ ISZERO DUP1 ISZERO PUSH2 0x37CB JUMPI POP DUP3 PUSH20 0xFFFFFFFFFFFFFFFFFFFFFFFFFFFFFFFFFFFFFFFF AND DUP5 PUSH20 0xFFFFFFFFFFFFFFFFFFFFFFFFFFFFFFFFFFFFFFFF AND EQ DUP1 PUSH2 0x378C JUMPI POP PUSH2 0x378B DUP5 DUP5 PUSH2 0x2185 JUMP JUMPDEST JUMPDEST DUP1 PUSH2 0x37CA JUMPI POP DUP3 PUSH20 0xFFFFFFFFFFFFFFFFFFFFFFFFFFFFFFFFFFFFFFFF AND PUSH2 0x37B2 DUP4 PUSH2 0x236D JUMP JUMPDEST PUSH20 0xFFFFFFFFFFFFFFFFFFFFFFFFFFFFFFFFFFFFFFFF AND EQ JUMPDEST JUMPDEST SWAP1 POP SWAP4 SWAP3 POP POP POP JUMP JUMPDEST PUSH1 0x40 MLOAD DUP1 PUSH1 0x40 ADD PUSH1 0x40 MSTORE DUP1 PUSH0 DUP2 MSTORE PUSH1 0x20 ADD PUSH0 ISZERO ISZERO DUP2 MSTORE POP SWAP1 JUMP JUMPDEST PUSH0 PUSH1 0x40 MLOAD SWAP1 POP SWAP1 JUMP JUMPDEST PUSH0 DUP1 REVERT JUMPDEST PUSH0 DUP1 REVERT JUMPDEST PUSH0 PUSH32 0xFFFFFFFF00000000000000000000000000000000000000000000000000000000 DUP3 AND SWAP1 POP SWAP2 SWAP1 POP JUMP JUMPDEST PUSH2 0x3833 DUP2 PUSH2 0x37FF JUMP JUMPDEST DUP2 EQ PUSH2 0x383D JUMPI PUSH0 DUP1 REVERT JUMPDEST POP JUMP JUMPDEST PUSH0 DUP2 CALLDATALOAD SWAP1 POP PUSH2 0x384E DUP2 PUSH2 0x382A JUMP JUMPDEST SWAP3 SWAP2 POP POP JUMP JUMPDEST PUSH0 PUSH1 0x20 DUP3 DUP5 SUB SLT ISZERO PUSH2 0x3869 JUMPI PUSH2 0x3868 PUSH2 0x37F7 JUMP JUMPDEST JUMPDEST PUSH0 PUSH2 0x3876 DUP5 DUP3 DUP6 ADD PUSH2 0x3840 JUMP JUMPDEST SWAP2 POP POP SWAP3 SWAP2 POP POP JUMP JUMPDEST PUSH0 DUP2 ISZERO ISZERO SWAP1 POP SWAP2 SWAP1 POP JUMP JUMPDEST PUSH2 0x3893 DUP2 PUSH2 0x387F JUMP JUMPDEST DUP3 MSTORE POP POP JUMP JUMPDEST PUSH0 PUSH1 0x20 DUP3 ADD SWAP1 POP PUSH2 0x38AC PUSH0 DUP4 ADD DUP5 PUSH2 0x388A JUMP JUMPDEST SWAP3 SWAP2 POP POP JUMP JUMPDEST PUSH0 DUP1 REVERT JUMPDEST PUSH0 DUP1 REVERT JUMPDEST PUSH0 PUSH1 0x1F NOT PUSH1 0x1F DUP4 ADD AND SWAP1 POP SWAP2 SWAP1 POP JUMP JUMPDEST PUSH32 0x4E487B7100000000000000000000000000000000000000000000000000000000 PUSH0 MSTORE PUSH1 0x41 PUSH1 0x4 MSTORE PUSH1 0x24 PUSH0 REVERT JUMPDEST PUSH2 0x3900 DUP3 PUSH2 0x38BA JUMP JUMPDEST DUP2 ADD DUP2 DUP2 LT PUSH8 0xFFFFFFFFFFFFFFFF DUP3 GT OR ISZERO PUSH2 0x391F JUMPI PUSH2 0x391E PUSH2 0x38CA JUMP JUMPDEST JUMPDEST DUP1 PUSH1 0x40 MSTORE POP POP POP JUMP JUMPDEST PUSH0 PUSH2 0x3931 PUSH2 0x37EE JUMP JUMPDEST SWAP1 POP PUSH2 0x393D DUP3 DUP3 PUSH2 0x38F7 JUMP JUMPDEST SWAP2 SWAP1 POP JUMP JUMPDEST PUSH0 PUSH8 0xFFFFFFFFFFFFFFFF DUP3 GT ISZERO PUSH2 0x395C JUMPI PUSH2 0x395B PUSH2 0x38CA JUMP JUMPDEST JUMPDEST PUSH2 0x3965 DUP3 PUSH2 0x38BA JUMP JUMPDEST SWAP1 POP PUSH1 0x20 DUP2 ADD SWAP1 POP SWAP2 SWAP1 POP JUMP JUMPDEST DUP3 DUP2 DUP4 CALLDATACOPY PUSH0 DUP4 DUP4 ADD MSTORE POP POP POP JUMP JUMPDEST PUSH0 PUSH2 0x3992 PUSH2 0x398D DUP5 PUSH2 0x3942 JUMP JUMPDEST PUSH2 0x3928 JUMP JUMPDEST SWAP1 POP DUP3 DUP2 MSTORE PUSH1 0x20 DUP2 ADD DUP5 DUP5 DUP5 ADD GT ISZERO PUSH2 0x39AE JUMPI PUSH2 0x39AD PUSH2 0x38B6 JUMP JUMPDEST JUMPDEST PUSH2 0x39B9 DUP5 DUP3 DUP6 PUSH2 0x3972 JUMP JUMPDEST POP SWAP4 SWAP3 POP POP POP JUMP JUMPDEST PUSH0 DUP3 PUSH1 0x1F DUP4 ADD SLT PUSH2 0x39D5 JUMPI PUSH2 0x39D4 PUSH2 0x38B2 JUMP JUMPDEST JUMPDEST DUP2 CALLDATALOAD PUSH2 0x39E5 DUP5 DUP3 PUSH1 0x20 DUP7 ADD PUSH2 0x3980 JUMP JUMPDEST SWAP2 POP POP SWAP3 SWAP2 POP POP JUMP JUMPDEST PUSH0 PUSH1 0x20 DUP3 DUP5 SUB SLT ISZERO PUSH2 0x3A03 JUMPI PUSH2 0x3A02 PUSH2 0x37F7 JUMP JUMPDEST JUMPDEST PUSH0 DUP3 ADD CALLDATALOAD PUSH8 0xFFFFFFFFFFFFFFFF DUP2 GT ISZERO PUSH2 0x3A20 JUMPI PUSH2 0x3A1F PUSH2 0x37FB JUMP JUMPDEST JUMPDEST PUSH2 0x3A2C DUP5 DUP3 DUP6 ADD PUSH2 0x39C1 JUMP JUMPDEST SWAP2 POP POP SWAP3 SWAP2 POP POP JUMP JUMPDEST PUSH0 DUP2 MLOAD SWAP1 POP SWAP2 SWAP1 POP JUMP JUMPDEST PUSH0 DUP3 DUP3 MSTORE PUSH1 0x20 DUP3 ADD SWAP1 POP SWAP3 SWAP2 POP POP JUMP JUMPDEST DUP3 DUP2 DUP4 MCOPY PUSH0 DUP4 DUP4 ADD MSTORE POP POP POP JUMP JUMPDEST PUSH0 PUSH2 0x3A67 DUP3 PUSH2 0x3A35 JUMP JUMPDEST PUSH2 0x3A71 DUP2 DUP6 PUSH2 0x3A3F JUMP JUMPDEST SWAP4 POP PUSH2 0x3A81 DUP2 DUP6 PUSH1 0x20 DUP7 ADD PUSH2 0x3A4F JUMP JUMPDEST PUSH2 0x3A8A DUP2 PUSH2 0x38BA JUMP JUMPDEST DUP5 ADD SWAP2 POP POP SWAP3 SWAP2 POP POP JUMP JUMPDEST PUSH0 PUSH1 0x20 DUP3 ADD SWAP1 POP DUP2 DUP2 SUB PUSH0 DUP4 ADD MSTORE PUSH2 0x3AAD DUP2 DUP5 PUSH2 0x3A5D JUMP JUMPDEST SWAP1 POP SWAP3 SWAP2 POP POP JUMP JUMPDEST PUSH0 DUP2 SWAP1 POP SWAP2 SWAP1 POP JUMP JUMPDEST PUSH2 0x3AC7 DUP2 PUSH2 0x3AB5 JUMP JUMPDEST DUP2 EQ PUSH2 0x3AD1 JUMPI PUSH0 DUP1 REVERT JUMPDEST POP JUMP JUMPDEST PUSH0 DUP2 CALLDATALOAD SWAP1 POP PUSH2 0x3AE2 DUP2 PUSH2 0x3ABE JUMP JUMPDEST SWAP3 SWAP2 POP POP JUMP JUMPDEST PUSH0 PUSH1 0x20 DUP3 DUP5 SUB SLT ISZERO PUSH2 0x3AFD JUMPI PUSH2 0x3AFC PUSH2 0x37F7 JUMP JUMPDEST JUMPDEST PUSH0 PUSH2 0x3B0A DUP5 DUP3 DUP6 ADD PUSH2 0x3AD4 JUMP JUMPDEST SWAP2 POP POP SWAP3 SWAP2 POP POP JUMP JUMPDEST PUSH2 0x3B1C DUP2 PUSH2 0x3AB5 JUMP JUMPDEST DUP3 MSTORE POP POP JUMP JUMPDEST PUSH0 PUSH1 0x20 DUP3 ADD SWAP1 POP PUSH2 0x3B35 PUSH0 DUP4 ADD DUP5 PUSH2 0x3B13 JUMP JUMPDEST SWAP3 SWAP2 POP POP JUMP JUMPDEST PUSH0 PUSH20 0xFFFFFFFFFFFFFFFFFFFFFFFFFFFFFFFFFFFFFFFF DUP3 AND SWAP1 POP SWAP2 SWAP1 POP JUMP JUMPDEST PUSH0 PUSH2 0x3B64 DUP3 PUSH2 0x3B3B JUMP JUMPDEST SWAP1 POP SWAP2 SWAP1 POP JUMP JUMPDEST PUSH2 0x3B74 DUP2 PUSH2 0x3B5A JUMP JUMPDEST DUP3 MSTORE POP POP JUMP JUMPDEST PUSH0 PUSH1 0x20 DUP3 ADD SWAP1 POP PUSH2 0x3B8D PUSH0 DUP4 ADD DUP5 PUSH2 0x3B6B JUMP JUMPDEST SWAP3 SWAP2 POP POP JUMP JUMPDEST PUSH2 0x3B9C DUP2 PUSH2 0x3B5A JUMP JUMPDEST DUP2 EQ PUSH2 0x3BA6 JUMPI PUSH0 DUP1 REVERT JUMPDEST POP JUMP JUMPDEST PUSH0 DUP2 CALLDATALOAD SWAP1 POP PUSH2 0x3BB7 DUP2 PUSH2 0x3B93 JUMP JUMPDEST SWAP3 SWAP2 POP POP JUMP JUMPDEST PUSH0 DUP1 PUSH1 0x40 DUP4 DUP6 SUB SLT ISZERO PUSH2 0x3BD3 JUMPI PUSH2 0x3BD2 PUSH2 0x37F7 JUMP JUMPDEST JUMPDEST PUSH0 PUSH2 0x3BE0 DUP6 DUP3 DUP7 ADD PUSH2 0x3BA9 JUMP JUMPDEST SWAP3 POP POP PUSH1 0x20 PUSH2 0x3BF1 DUP6 DUP3 DUP7 ADD PUSH2 0x3AD4 JUMP JUMPDEST SWAP2 POP POP SWAP3 POP SWAP3 SWAP1 POP JUMP JUMPDEST PUSH0 PUSH1 0x20 DUP3 DUP5 SUB SLT ISZERO PUSH2 0x3C10 JUMPI PUSH2 0x3C0F PUSH2 0x37F7 JUMP JUMPDEST JUMPDEST PUSH0 PUSH2 0x3C1D DUP5 DUP3 DUP6 ADD PUSH2 0x3BA9 JUMP JUMPDEST SWAP2 POP POP SWAP3 SWAP2 POP POP JUMP JUMPDEST PUSH0 PUSH1 0x40 DUP3 ADD SWAP1 POP PUSH2 0x3C39 PUSH0 DUP4 ADD DUP6 PUSH2 0x3B13 JUMP JUMPDEST PUSH2 0x3C46 PUSH1 0x20 DUP4 ADD DUP5 PUSH2 0x388A JUMP JUMPDEST SWAP4 SWAP3 POP POP POP JUMP JUMPDEST PUSH0 DUP1 PUSH0 PUSH1 0x60 DUP5 DUP7 SUB SLT ISZERO PUSH2 0x3C64 JUMPI PUSH2 0x3C63 PUSH2 0x37F7 JUMP JUMPDEST JUMPDEST PUSH0 PUSH2 0x3C71 DUP7 DUP3 DUP8 ADD PUSH2 0x3BA9 JUMP JUMPDEST SWAP4 POP POP PUSH1 0x20 PUSH2 0x3C82 DUP7 DUP3 DUP8 ADD PUSH2 0x3BA9 JUMP JUMPDEST SWAP3 POP POP PUSH1 0x40 PUSH2 0x3C93 DUP7 DUP3 DUP8 ADD PUSH2 0x3AD4 JUMP JUMPDEST SWAP2 POP POP SWAP3 POP SWAP3 POP SWAP3 JUMP JUMPDEST PUSH0 DUP2 SWAP1 POP SWAP2 SWAP1 POP JUMP JUMPDEST PUSH2 0x3CAF DUP2 PUSH2 0x3C9D JUMP JUMPDEST DUP2 EQ PUSH2 0x3CB9 JUMPI PUSH0 DUP1 REVERT JUMPDEST POP JUMP JUMPDEST PUSH0 DUP2 CALLDATALOAD SWAP1 POP PUSH2 0x3CCA DUP2 PUSH2 0x3CA6 JUMP JUMPDEST SWAP3 SWAP2 POP POP JUMP JUMPDEST PUSH0 PUSH1 0x20 DUP3 DUP5 SUB SLT ISZERO PUSH2 0x3CE5 JUMPI PUSH2 0x3CE4 PUSH2 0x37F7 JUMP JUMPDEST JUMPDEST PUSH0 PUSH2 0x3CF2 DUP5 DUP3 DUP6 ADD PUSH2 0x3CBC JUMP JUMPDEST SWAP2 POP POP SWAP3 SWAP2 POP POP JUMP JUMPDEST PUSH2 0x3D04 DUP2 PUSH2 0x3C9D JUMP JUMPDEST DUP3 MSTORE POP POP JUMP JUMPDEST PUSH0 PUSH1 0x20 DUP3 ADD SWAP1 POP PUSH2 0x3D1D PUSH0 DUP4 ADD DUP5 PUSH2 0x3CFB JUMP JUMPDEST SWAP3 SWAP2 POP POP JUMP JUMPDEST PUSH0 DUP1 PUSH1 0x40 DUP4 DUP6 SUB SLT ISZERO PUSH2 0x3D39 JUMPI PUSH2 0x3D38 PUSH2 0x37F7 JUMP JUMPDEST JUMPDEST PUSH0 PUSH2 0x3D46 DUP6 DUP3 DUP7 ADD PUSH2 0x3CBC JUMP JUMPDEST SWAP3 POP POP PUSH1 0x20 PUSH2 0x3D57 DUP6 DUP3 DUP7 ADD PUSH2 0x3BA9 JUMP JUMPDEST SWAP2 POP POP SWAP3 POP SWAP3 SWAP1 POP JUMP JUMPDEST PUSH0 PUSH2 0x3D6B DUP3 PUSH2 0x3B5A JUMP JUMPDEST SWAP1 POP SWAP2 SWAP1 POP JUMP JUMPDEST PUSH2 0x3D7B DUP2 PUSH2 0x3D61 JUMP JUMPDEST DUP2 EQ PUSH2 0x3D85 JUMPI PUSH0 DUP1 REVERT JUMPDEST POP JUMP JUMPDEST PUSH0 DUP2 CALLDATALOAD SWAP1 POP PUSH2 0x3D96 DUP2 PUSH2 0x3D72 JUMP JUMPDEST SWAP3 SWAP2 POP POP JUMP JUMPDEST PUSH0 DUP1 PUSH0 PUSH1 0x60 DUP5 DUP7 SUB SLT ISZERO PUSH2 0x3DB3 JUMPI PUSH2 0x3DB2 PUSH2 0x37F7 JUMP JUMPDEST JUMPDEST PUSH0 PUSH2 0x3DC0 DUP7 DUP3 DUP8 ADD PUSH2 0x3D88 JUMP JUMPDEST SWAP4 POP POP PUSH1 0x20 PUSH2 0x3DD1 DUP7 DUP3 DUP8 ADD PUSH2 0x3BA9 JUMP JUMPDEST SWAP3 POP POP PUSH1 0x40 PUSH2 0x3DE2 DUP7 DUP3 DUP8 ADD PUSH2 0x3AD4 JUMP JUMPDEST SWAP2 POP POP SWAP3 POP SWAP3 POP SWAP3 JUMP JUMPDEST PUSH0 PUSH2 0x3DF6 DUP3 PUSH2 0x3B3B JUMP JUMPDEST SWAP1 POP SWAP2 SWAP1 POP JUMP JUMPDEST PUSH2 0x3E06 DUP2 PUSH2 0x3DEC JUMP JUMPDEST DUP2 EQ PUSH2 0x3E10 JUMPI PUSH0 DUP1 REVERT JUMPDEST POP JUMP JUMPDEST PUSH0 DUP2 CALLDATALOAD SWAP1 POP PUSH2 0x3E21 DUP2 PUSH2 0x3DFD JUMP JUMPDEST SWAP3 SWAP2 POP POP JUMP JUMPDEST PUSH0 DUP1 PUSH1 0x40 DUP4 DUP6 SUB SLT ISZERO PUSH2 0x3E3D JUMPI PUSH2 0x3E3C PUSH2 0x37F7 JUMP JUMPDEST JUMPDEST PUSH0 PUSH2 0x3E4A DUP6 DUP3 DUP7 ADD PUSH2 0x3E13 JUMP JUMPDEST SWAP3 POP POP PUSH1 0x20 PUSH2 0x3E5B DUP6 DUP3 DUP7 ADD PUSH2 0x3AD4 JUMP JUMPDEST SWAP2 POP POP SWAP3 POP SWAP3 SWAP1 POP JUMP JUMPDEST PUSH0 PUSH1 0x60 DUP3 ADD SWAP1 POP PUSH2 0x3E78 PUSH0 DUP4 ADD DUP7 PUSH2 0x3B13 JUMP JUMPDEST PUSH2 0x3E85 PUSH1 0x20 DUP4 ADD DUP6 PUSH2 0x3B13 JUMP JUMPDEST PUSH2 0x3E92 PUSH1 0x40 DUP4 ADD DUP5 PUSH2 0x3B13 JUMP JUMPDEST SWAP5 SWAP4 POP POP POP POP JUMP JUMPDEST PUSH0 PUSH1 0xC0 DUP3 ADD SWAP1 POP PUSH2 0x3EAD PUSH0 DUP4 ADD DUP10 PUSH2 0x3B13 JUMP JUMPDEST PUSH2 0x3EBA PUSH1 0x20 DUP4 ADD DUP9 PUSH2 0x3B13 JUMP JUMPDEST PUSH2 0x3EC7 PUSH1 0x40 DUP4 ADD DUP8 PUSH2 0x3B13 JUMP JUMPDEST PUSH2 0x3ED4 PUSH1 0x60 DUP4 ADD DUP7 PUSH2 0x3B13 JUMP JUMPDEST PUSH2 0x3EE1 PUSH1 0x80 DUP4 ADD DUP6 PUSH2 0x3B13 JUMP JUMPDEST PUSH2 0x3EEE PUSH1 0xA0 DUP4 ADD DUP5 PUSH2 0x3B13 JUMP JUMPDEST SWAP8 SWAP7 POP POP POP POP POP POP POP JUMP JUMPDEST PUSH0 DUP2 SWAP1 POP SWAP2 SWAP1 POP JUMP JUMPDEST PUSH0 PUSH2 0x3F1C PUSH2 0x3F17 PUSH2 0x3F12 DUP5 PUSH2 0x3B3B JUMP JUMPDEST PUSH2 0x3EF9 JUMP JUMPDEST PUSH2 0x3B3B JUMP JUMPDEST SWAP1 POP SWAP2 SWAP1 POP JUMP JUMPDEST PUSH0 PUSH2 0x3F2D DUP3 PUSH2 0x3F02 JUMP JUMPDEST SWAP1 POP SWAP2 SWAP1 POP JUMP JUMPDEST PUSH0 PUSH2 0x3F3E DUP3 PUSH2 0x3F23 JUMP JUMPDEST SWAP1 POP SWAP2 SWAP1 POP JUMP JUMPDEST PUSH2 0x3F4E DUP2 PUSH2 0x3F34 JUMP JUMPDEST DUP3 MSTORE POP POP JUMP JUMPDEST PUSH0 PUSH1 0x20 DUP3 ADD SWAP1 POP PUSH2 0x3F67 PUSH0 DUP4 ADD DUP5 PUSH2 0x3F45 JUMP JUMPDEST SWAP3 SWAP2 POP POP JUMP JUMPDEST PUSH2 0x3F76 DUP2 PUSH2 0x387F JUMP JUMPDEST DUP2 EQ PUSH2 0x3F80 JUMPI PUSH0 DUP1 REVERT JUMPDEST POP JUMP JUMPDEST PUSH0 DUP2 CALLDATALOAD SWAP1 POP PUSH2 0x3F91 DUP2 PUSH2 0x3F6D JUMP JUMPDEST SWAP3 SWAP2 POP POP JUMP JUMPDEST PUSH0 DUP1 PUSH1 0x40 DUP4 DUP6 SUB SLT ISZERO PUSH2 0x3FAD JUMPI PUSH2 0x3FAC PUSH2 0x37F7 JUMP JUMPDEST JUMPDEST PUSH0 PUSH2 0x3FBA DUP6 DUP3 DUP7 ADD PUSH2 0x3BA9 JUMP JUMPDEST SWAP3 POP POP PUSH1 0x20 PUSH2 0x3FCB DUP6 DUP3 DUP7 ADD PUSH2 0x3F83 JUMP JUMPDEST SWAP2 POP POP SWAP3 POP SWAP3 SWAP1 POP JUMP JUMPDEST PUSH0 DUP1 PUSH1 0x40 DUP4 DUP6 SUB SLT ISZERO PUSH2 0x3FEB JUMPI PUSH2 0x3FEA PUSH2 0x37F7 JUMP JUMPDEST JUMPDEST PUSH0 DUP4 ADD CALLDATALOAD PUSH8 0xFFFFFFFFFFFFFFFF DUP2 GT ISZERO PUSH2 0x4008 JUMPI PUSH2 0x4007 PUSH2 0x37FB JUMP JUMPDEST JUMPDEST PUSH2 0x4014 DUP6 DUP3 DUP7 ADD PUSH2 0x39C1 JUMP JUMPDEST SWAP3 POP POP PUSH1 0x20 PUSH2 0x4025 DUP6 DUP3 DUP7 ADD PUSH2 0x3AD4 JUMP JUMPDEST SWAP2 POP POP SWAP3 POP SWAP3 SWAP1 POP JUMP JUMPDEST PUSH0 PUSH8 0xFFFFFFFFFFFFFFFF DUP3 GT ISZERO PUSH2 0x4049 JUMPI PUSH2 0x4048 PUSH2 0x38CA JUMP JUMPDEST JUMPDEST PUSH2 0x4052 DUP3 PUSH2 0x38BA JUMP JUMPDEST SWAP1 POP PUSH1 0x20 DUP2 ADD SWAP1 POP SWAP2 SWAP1 POP JUMP JUMPDEST PUSH0 PUSH2 0x4071 PUSH2 0x406C DUP5 PUSH2 0x402F JUMP JUMPDEST PUSH2 0x3928 JUMP JUMPDEST SWAP1 POP DUP3 DUP2 MSTORE PUSH1 0x20 DUP2 ADD DUP5 DUP5 DUP5 ADD GT ISZERO PUSH2 0x408D JUMPI PUSH2 0x408C PUSH2 0x38B6 JUMP JUMPDEST JUMPDEST PUSH2 0x4098 DUP5 DUP3 DUP6 PUSH2 0x3972 JUMP JUMPDEST POP SWAP4 SWAP3 POP POP POP JUMP JUMPDEST PUSH0 DUP3 PUSH1 0x1F DUP4 ADD SLT PUSH2 0x40B4 JUMPI PUSH2 0x40B3 PUSH2 0x38B2 JUMP JUMPDEST JUMPDEST DUP2 CALLDATALOAD PUSH2 0x40C4 DUP5 DUP3 PUSH1 0x20 DUP7 ADD PUSH2 0x405F JUMP JUMPDEST SWAP2 POP POP SWAP3 SWAP2 POP POP JUMP JUMPDEST PUSH0 DUP1 PUSH0 DUP1 PUSH1 0x80 DUP6 DUP8 SUB SLT ISZERO PUSH2 0x40E5 JUMPI PUSH2 0x40E4 PUSH2 0x37F7 JUMP JUMPDEST JUMPDEST PUSH0 PUSH2 0x40F2 DUP8 DUP3 DUP9 ADD PUSH2 0x3BA9 JUMP JUMPDEST SWAP5 POP POP PUSH1 0x20 PUSH2 0x4103 DUP8 DUP3 DUP9 ADD PUSH2 0x3BA9 JUMP JUMPDEST SWAP4 POP POP PUSH1 0x40 PUSH2 0x4114 DUP8 DUP3 DUP9 ADD PUSH2 0x3AD4 JUMP JUMPDEST SWAP3 POP POP PUSH1 0x60 DUP6 ADD CALLDATALOAD PUSH8 0xFFFFFFFFFFFFFFFF DUP2 GT ISZERO PUSH2 0x4135 JUMPI PUSH2 0x4134 PUSH2 0x37FB JUMP JUMPDEST JUMPDEST PUSH2 0x4141 DUP8 DUP3 DUP9 ADD PUSH2 0x40A0 JUMP JUMPDEST SWAP2 POP POP SWAP3 SWAP6 SWAP2 SWAP5 POP SWAP3 POP JUMP JUMPDEST PUSH0 DUP1 PUSH0 PUSH1 0x60 DUP5 DUP7 SUB SLT ISZERO PUSH2 0x4164 JUMPI PUSH2 0x4163 PUSH2 0x37F7 JUMP JUMPDEST JUMPDEST PUSH0 PUSH2 0x4171 DUP7 DUP3 DUP8 ADD PUSH2 0x3AD4 JUMP JUMPDEST SWAP4 POP POP PUSH1 0x20 PUSH2 0x4182 DUP7 DUP3 DUP8 ADD PUSH2 0x3AD4 JUMP JUMPDEST SWAP3 POP POP PUSH1 0x40 PUSH2 0x4193 DUP7 DUP3 DUP8 ADD PUSH2 0x3AD4 JUMP JUMPDEST SWAP2 POP POP SWAP3 POP SWAP3 POP SWAP3 JUMP JUMPDEST PUSH0 DUP1 PUSH1 0x40 DUP4 DUP6 SUB SLT ISZERO PUSH2 0x41B3 JUMPI PUSH2 0x41B2 PUSH2 0x37F7 JUMP JUMPDEST JUMPDEST PUSH0 PUSH2 0x41C0 DUP6 DUP3 DUP7 ADD PUSH2 0x3BA9 JUMP JUMPDEST SWAP3 POP POP PUSH1 0x20 PUSH2 0x41D1 DUP6 DUP3 DUP7 ADD PUSH2 0x3BA9 JUMP JUMPDEST SWAP2 POP POP SWAP3 POP SWAP3 SWAP1 POP JUMP JUMPDEST PUSH0 PUSH2 0x41E5 DUP3 PUSH2 0x3F23 JUMP JUMPDEST SWAP1 POP SWAP2 SWAP1 POP JUMP JUMPDEST PUSH2 0x41F5 DUP2 PUSH2 0x41DB JUMP JUMPDEST DUP3 MSTORE POP POP JUMP JUMPDEST PUSH0 PUSH1 0x20 DUP3 ADD SWAP1 POP PUSH2 0x420E PUSH0 DUP4 ADD DUP5 PUSH2 0x41EC JUMP JUMPDEST SWAP3 SWAP2 POP POP JUMP JUMPDEST PUSH32 0x4E46543A204E6565642041646D696E0000000000000000000000000000000000 PUSH0 DUP3 ADD MSTORE POP JUMP JUMPDEST PUSH0 PUSH2 0x4248 PUSH1 0xF DUP4 PUSH2 0x3A3F JUMP JUMPDEST SWAP2 POP PUSH2 0x4253 DUP3 PUSH2 0x4214 JUMP JUMPDEST PUSH1 0x20 DUP3 ADD SWAP1 POP SWAP2 SWAP1 POP JUMP JUMPDEST PUSH0 PUSH1 0x20 DUP3 ADD SWAP1 POP DUP2 DUP2 SUB PUSH0 DUP4 ADD MSTORE PUSH2 0x4275 DUP2 PUSH2 0x423C JUMP JUMPDEST SWAP1 POP SWAP2 SWAP1 POP JUMP JUMPDEST PUSH32 0x4E487B7100000000000000000000000000000000000000000000000000000000 PUSH0 MSTORE PUSH1 0x22 PUSH1 0x4 MSTORE PUSH1 0x24 PUSH0 REVERT JUMPDEST PUSH0 PUSH1 0x2 DUP3 DIV SWAP1 POP PUSH1 0x1 DUP3 AND DUP1 PUSH2 0x42C0 JUMPI PUSH1 0x7F DUP3 AND SWAP2 POP JUMPDEST PUSH1 0x20 DUP3 LT DUP2 SUB PUSH2 0x42D3 JUMPI PUSH2 0x42D2 PUSH2 0x427C JUMP JUMPDEST JUMPDEST POP SWAP2 SWAP1 POP JUMP JUMPDEST PUSH0 DUP2 SWAP1 POP DUP2 PUSH0 MSTORE PUSH1 0x20 PUSH0 KECCAK256 SWAP1 POP SWAP2 SWAP1 POP JUMP JUMPDEST PUSH0 PUSH1 0x20 PUSH1 0x1F DUP4 ADD DIV SWAP1 POP SWAP2 SWAP1 POP JUMP JUMPDEST PUSH0 DUP3 DUP3 SHL SWAP1 POP SWAP3 SWAP2 POP POP JUMP JUMPDEST PUSH0 PUSH1 0x8 DUP4 MUL PUSH2 0x4335 PUSH32 0xFFFFFFFFFFFFFFFFFFFFFFFFFFFFFFFFFFFFFFFFFFFFFFFFFFFFFFFFFFFFFFFF DUP3 PUSH2 0x42FA JUMP JUMPDEST PUSH2 0x433F DUP7 DUP4 PUSH2 0x42FA JUMP JUMPDEST SWAP6 POP DUP1 NOT DUP5 AND SWAP4 POP DUP1 DUP7 AND DUP5 OR SWAP3 POP POP POP SWAP4 SWAP3 POP POP POP JUMP JUMPDEST PUSH0 PUSH2 0x4371 PUSH2 0x436C PUSH2 0x4367 DUP5 PUSH2 0x3AB5 JUMP JUMPDEST PUSH2 0x3EF9 JUMP JUMPDEST PUSH2 0x3AB5 JUMP JUMPDEST SWAP1 POP SWAP2 SWAP1 POP JUMP JUMPDEST PUSH0 DUP2 SWAP1 POP SWAP2 SWAP1 POP JUMP JUMPDEST PUSH2 0x438A DUP4 PUSH2 0x4357 JUMP JUMPDEST PUSH2 0x439E PUSH2 0x4396 DUP3 PUSH2 0x4378 JUMP JUMPDEST DUP5 DUP5 SLOAD PUSH2 0x4306 JUMP JUMPDEST DUP3 SSTORE POP POP POP POP JUMP JUMPDEST PUSH0 SWAP1 JUMP JUMPDEST PUSH2 0x43B2 PUSH2 0x43A6 JUMP JUMPDEST PUSH2 0x43BD DUP2 DUP5 DUP5 PUSH2 0x4381 JUMP JUMPDEST POP POP POP JUMP JUMPDEST JUMPDEST DUP2 DUP2 LT ISZERO PUSH2 0x43E0 JUMPI PUSH2 0x43D5 PUSH0 DUP3 PUSH2 0x43AA JUMP JUMPDEST PUSH1 0x1 DUP2 ADD SWAP1 POP PUSH2 0x43C3 JUMP JUMPDEST POP POP JUMP JUMPDEST PUSH1 0x1F DUP3 GT ISZERO PUSH2 0x4425 JUMPI PUSH2 0x43F6 DUP2 PUSH2 0x42D9 JUMP JUMPDEST PUSH2 0x43FF DUP5 PUSH2 0x42EB JUMP JUMPDEST DUP2 ADD PUSH1 0x20 DUP6 LT ISZERO PUSH2 0x440E JUMPI DUP2 SWAP1 POP JUMPDEST PUSH2 0x4422 PUSH2 0x441A DUP6 PUSH2 0x42EB JUMP JUMPDEST DUP4 ADD DUP3 PUSH2 0x43C2 JUMP JUMPDEST POP POP JUMPDEST POP POP POP JUMP JUMPDEST PUSH0 DUP3 DUP3 SHR SWAP1 POP SWAP3 SWAP2 POP POP JUMP JUMPDEST PUSH0 PUSH2 0x4445 PUSH0 NOT DUP5 PUSH1 0x8 MUL PUSH2 0x442A JUMP JUMPDEST NOT DUP1 DUP4 AND SWAP2 POP POP SWAP3 SWAP2 POP POP JUMP JUMPDEST PUSH0 PUSH2 0x445D DUP4 DUP4 PUSH2 0x4436 JUMP JUMPDEST SWAP2 POP DUP3 PUSH1 0x2 MUL DUP3 OR SWAP1 POP SWAP3 SWAP2 POP POP JUMP JUMPDEST PUSH2 0x4476 DUP3 PUSH2 0x3A35 JUMP JUMPDEST PUSH8 0xFFFFFFFFFFFFFFFF DUP2 GT ISZERO PUSH2 0x448F JUMPI PUSH2 0x448E PUSH2 0x38CA JUMP JUMPDEST JUMPDEST PUSH2 0x4499 DUP3 SLOAD PUSH2 0x42A9 JUMP JUMPDEST PUSH2 0x44A4 DUP3 DUP3 DUP6 PUSH2 0x43E4 JUMP JUMPDEST PUSH0 PUSH1 0x20 SWAP1 POP PUSH1 0x1F DUP4 GT PUSH1 0x1 DUP2 EQ PUSH2 0x44D5 JUMPI PUSH0 DUP5 ISZERO PUSH2 0x44C3 JUMPI DUP3 DUP8 ADD MLOAD SWAP1 POP JUMPDEST PUSH2 0x44CD DUP6 DUP3 PUSH2 0x4452 JUMP JUMPDEST DUP7 SSTORE POP PUSH2 0x4534 JUMP JUMPDEST PUSH1 0x1F NOT DUP5 AND PUSH2 0x44E3 DUP7 PUSH2 0x42D9 JUMP JUMPDEST PUSH0 JUMPDEST DUP3 DUP2 LT ISZERO PUSH2 0x450A JUMPI DUP5 DUP10 ADD MLOAD DUP3 SSTORE PUSH1 0x1 DUP3 ADD SWAP2 POP PUSH1 0x20 DUP6 ADD SWAP5 POP PUSH1 0x20 DUP2 ADD SWAP1 POP PUSH2 0x44E5 JUMP JUMPDEST DUP7 DUP4 LT ISZERO PUSH2 0x4527 JUMPI DUP5 DUP10 ADD MLOAD PUSH2 0x4523 PUSH1 0x1F DUP10 AND DUP3 PUSH2 0x4436 JUMP JUMPDEST DUP4 SSTORE POP JUMPDEST PUSH1 0x1 PUSH1 0x2 DUP9 MUL ADD DUP9 SSTORE POP POP POP JUMPDEST POP POP POP POP POP POP JUMP JUMPDEST PUSH0 PUSH1 0x60 DUP3 ADD SWAP1 POP PUSH2 0x454F PUSH0 DUP4 ADD DUP7 PUSH2 0x3B6B JUMP JUMPDEST PUSH2 0x455C PUSH1 0x20 DUP4 ADD DUP6 PUSH2 0x3B13 JUMP JUMPDEST PUSH2 0x4569 PUSH1 0x40 DUP4 ADD DUP5 PUSH2 0x3B6B JUMP JUMPDEST SWAP5 SWAP4 POP POP POP POP JUMP JUMPDEST PUSH32 0x4E46543A204E6F74206F776E6572000000000000000000000000000000000000 PUSH0 DUP3 ADD MSTORE POP JUMP JUMPDEST PUSH0 PUSH2 0x45A5 PUSH1 0xE DUP4 PUSH2 0x3A3F JUMP JUMPDEST SWAP2 POP PUSH2 0x45B0 DUP3 PUSH2 0x4571 JUMP JUMPDEST PUSH1 0x20 DUP3 ADD SWAP1 POP SWAP2 SWAP1 POP JUMP JUMPDEST PUSH0 PUSH1 0x20 DUP3 ADD SWAP1 POP DUP2 DUP2 SUB PUSH0 DUP4 ADD MSTORE PUSH2 0x45D2 DUP2 PUSH2 0x4599 JUMP JUMPDEST SWAP1 POP SWAP2 SWAP1 POP JUMP JUMPDEST PUSH32 0x4E487B7100000000000000000000000000000000000000000000000000000000 PUSH0 MSTORE PUSH1 0x11 PUSH1 0x4 MSTORE PUSH1 0x24 PUSH0 REVERT JUMPDEST PUSH0 PUSH2 0x4610 DUP3 PUSH2 0x3AB5 JUMP JUMPDEST SWAP2 POP PUSH0 DUP3 SUB PUSH2 0x4622 JUMPI PUSH2 0x4621 PUSH2 0x45D9 JUMP JUMPDEST JUMPDEST PUSH1 0x1 DUP3 SUB SWAP1 POP SWAP2 SWAP1 POP JUMP JUMPDEST PUSH0 PUSH1 0x40 DUP3 ADD SWAP1 POP PUSH2 0x4640 PUSH0 DUP4 ADD DUP6 PUSH2 0x3B6B JUMP JUMPDEST PUSH2 0x464D PUSH1 0x20 DUP4 ADD DUP5 PUSH2 0x3B13 JUMP JUMPDEST SWAP4 SWAP3 POP POP POP JUMP JUMPDEST PUSH0 DUP2 MLOAD SWAP1 POP PUSH2 0x4662 DUP2 PUSH2 0x3F6D JUMP JUMPDEST SWAP3 SWAP2 POP POP JUMP JUMPDEST PUSH0 PUSH1 0x20 DUP3 DUP5 SUB SLT ISZERO PUSH2 0x467D JUMPI PUSH2 0x467C PUSH2 0x37F7 JUMP JUMPDEST JUMPDEST PUSH0 PUSH2 0x468A DUP5 DUP3 DUP6 ADD PUSH2 0x4654 JUMP JUMPDEST SWAP2 POP POP SWAP3 SWAP2 POP POP JUMP JUMPDEST PUSH0 DUP2 PUSH1 0x60 SHL SWAP1 POP SWAP2 SWAP1 POP JUMP JUMPDEST PUSH0 PUSH2 0x46A9 DUP3 PUSH2 0x4693 JUMP JUMPDEST SWAP1 POP SWAP2 SWAP1 POP JUMP JUMPDEST PUSH0 PUSH2 0x46BA DUP3 PUSH2 0x469F JUMP JUMPDEST SWAP1 POP SWAP2 SWAP1 POP JUMP JUMPDEST PUSH2 0x46D2 PUSH2 0x46CD DUP3 PUSH2 0x3B5A JUMP JUMPDEST PUSH2 0x46B0 JUMP JUMPDEST DUP3 MSTORE POP POP JUMP JUMPDEST PUSH0 DUP2 SWAP1 POP SWAP2 SWAP1 POP JUMP JUMPDEST PUSH2 0x46F2 PUSH2 0x46ED DUP3 PUSH2 0x3AB5 JUMP JUMPDEST PUSH2 0x46D8 JUMP JUMPDEST DUP3 MSTORE POP POP JUMP JUMPDEST PUSH0 PUSH2 0x4703 DUP3 DUP6 PUSH2 0x46C1 JUMP JUMPDEST PUSH1 0x14 DUP3 ADD SWAP2 POP PUSH2 0x4713 DUP3 DUP5 PUSH2 0x46E1 JUMP JUMPDEST PUSH1 0x20 DUP3 ADD SWAP2 POP DUP2 SWAP1 POP SWAP4 SWAP3 POP POP POP JUMP JUMPDEST PUSH32 0x496E76616C6964206C6576656C00000000000000000000000000000000000000 PUSH0 DUP3 ADD MSTORE POP JUMP JUMPDEST PUSH0 PUSH2 0x4757 PUSH1 0xD DUP4 PUSH2 0x3A3F JUMP JUMPDEST SWAP2 POP PUSH2 0x4762 DUP3 PUSH2 0x4723 JUMP JUMPDEST PUSH1 0x20 DUP3 ADD SWAP1 POP SWAP2 SWAP1 POP JUMP JUMPDEST PUSH0 PUSH1 0x20 DUP3 ADD SWAP1 POP DUP2 DUP2 SUB PUSH0 DUP4 ADD MSTORE PUSH2 0x4784 DUP2 PUSH2 0x474B JUMP JUMPDEST SWAP1 POP SWAP2 SWAP1 POP JUMP JUMPDEST PUSH32 0x43616E2774206D696E74206D6F7265207468616E206F6E65204E465400000000 PUSH0 DUP3 ADD MSTORE POP JUMP JUMPDEST PUSH0 PUSH2 0x47BF PUSH1 0x1C DUP4 PUSH2 0x3A3F JUMP JUMPDEST SWAP2 POP PUSH2 0x47CA DUP3 PUSH2 0x478B JUMP JUMPDEST PUSH1 0x20 DUP3 ADD SWAP1 POP SWAP2 SWAP1 POP JUMP JUMPDEST PUSH0 PUSH1 0x20 DUP3 ADD SWAP1 POP DUP2 DUP2 SUB PUSH0 DUP4 ADD MSTORE PUSH2 0x47EC DUP2 PUSH2 0x47B3 JUMP JUMPDEST SWAP1 POP SWAP2 SWAP1 POP JUMP JUMPDEST PUSH0 PUSH2 0x47FD DUP3 PUSH2 0x3AB5 JUMP JUMPDEST SWAP2 POP PUSH32 0xFFFFFFFFFFFFFFFFFFFFFFFFFFFFFFFFFFFFFFFFFFFFFFFFFFFFFFFFFFFFFFFF DUP3 SUB PUSH2 0x482F JUMPI PUSH2 0x482E PUSH2 0x45D9 JUMP JUMPDEST JUMPDEST PUSH1 0x1 DUP3 ADD SWAP1 POP SWAP2 SWAP1 POP JUMP JUMPDEST PUSH2 0x4843 DUP2 PUSH2 0x3C9D JUMP JUMPDEST DUP3 MSTORE POP POP JUMP JUMPDEST PUSH0 PUSH1 0x20 DUP3 ADD SWAP1 POP PUSH2 0x485C PUSH0 DUP4 ADD DUP5 PUSH2 0x483A JUMP JUMPDEST SWAP3 SWAP2 POP POP JUMP JUMPDEST PUSH0 PUSH2 0x4874 PUSH2 0x486F DUP5 PUSH2 0x3942 JUMP JUMPDEST PUSH2 0x3928 JUMP JUMPDEST SWAP1 POP DUP3 DUP2 MSTORE PUSH1 0x20 DUP2 ADD DUP5 DUP5 DUP5 ADD GT ISZERO PUSH2 0x4890 JUMPI PUSH2 0x488F PUSH2 0x38B6 JUMP JUMPDEST JUMPDEST PUSH2 0x489B DUP5 DUP3 DUP6 PUSH2 0x3A4F JUMP JUMPDEST POP SWAP4 SWAP3 POP POP POP JUMP JUMPDEST PUSH0 DUP3 PUSH1 0x1F DUP4 ADD SLT PUSH2 0x48B7 JUMPI PUSH2 0x48B6 PUSH2 0x38B2 JUMP JUMPDEST JUMPDEST DUP2 MLOAD PUSH2 0x48C7 DUP5 DUP3 PUSH1 0x20 DUP7 ADD PUSH2 0x4862 JUMP JUMPDEST SWAP2 POP POP SWAP3 SWAP2 POP POP JUMP JUMPDEST PUSH0 PUSH1 0x20 DUP3 DUP5 SUB SLT ISZERO PUSH2 0x48E5 JUMPI PUSH2 0x48E4 PUSH2 0x37F7 JUMP JUMPDEST JUMPDEST PUSH0 DUP3 ADD MLOAD PUSH8 0xFFFFFFFFFFFFFFFF DUP2 GT ISZERO PUSH2 0x4902 JUMPI PUSH2 0x4901 PUSH2 0x37FB JUMP JUMPDEST JUMPDEST PUSH2 0x490E DUP5 DUP3 DUP6 ADD PUSH2 0x48A3 JUMP JUMPDEST SWAP2 POP POP SWAP3 SWAP2 POP POP JUMP JUMPDEST PUSH0 DUP2 SWAP1 POP SWAP3 SWAP2 POP POP JUMP JUMPDEST PUSH0 DUP2 SLOAD PUSH2 0x492D DUP2 PUSH2 0x42A9 JUMP JUMPDEST PUSH2 0x4937 DUP2 DUP7 PUSH2 0x4917 JUMP JUMPDEST SWAP5 POP PUSH1 0x1 DUP3 AND PUSH0 DUP2 EQ PUSH2 0x4951 JUMPI PUSH1 0x1 DUP2 EQ PUSH2 0x4966 JUMPI PUSH2 0x4998 JUMP JUMPDEST PUSH1 0xFF NOT DUP4 AND DUP7 MSTORE DUP2 ISZERO ISZERO DUP3 MUL DUP7 ADD SWAP4 POP PUSH2 0x4998 JUMP JUMPDEST PUSH2 0x496F DUP6 PUSH2 0x42D9 JUMP JUMPDEST PUSH0 JUMPDEST DUP4 DUP2 LT ISZERO PUSH2 0x4990 JUMPI DUP2 SLOAD DUP2 DUP10 ADD MSTORE PUSH1 0x1 DUP3 ADD SWAP2 POP PUSH1 0x20 DUP2 ADD SWAP1 POP PUSH2 0x4971 JUMP JUMPDEST DUP4 DUP9 ADD SWAP6 POP POP POP JUMPDEST POP POP POP SWAP3 SWAP2 POP POP JUMP JUMPDEST PUSH0 PUSH2 0x49AB DUP3 PUSH2 0x3A35 JUMP JUMPDEST PUSH2 0x49B5 DUP2 DUP6 PUSH2 0x4917 JUMP JUMPDEST SWAP4 POP PUSH2 0x49C5 DUP2 DUP6 PUSH1 0x20 DUP7 ADD PUSH2 0x3A4F JUMP JUMPDEST DUP1 DUP5 ADD SWAP2 POP POP SWAP3 SWAP2 POP POP JUMP JUMPDEST PUSH0 PUSH2 0x49DC DUP3 DUP6 PUSH2 0x4921 JUMP JUMPDEST SWAP2 POP PUSH2 0x49E8 DUP3 DUP5 PUSH2 0x49A1 JUMP JUMPDEST SWAP2 POP DUP2 SWAP1 POP SWAP4 SWAP3 POP POP POP JUMP JUMPDEST PUSH0 DUP2 MLOAD SWAP1 POP PUSH2 0x4A02 DUP2 PUSH2 0x3ABE JUMP JUMPDEST SWAP3 SWAP2 POP POP JUMP JUMPDEST PUSH0 PUSH1 0x20 DUP3 DUP5 SUB SLT ISZERO PUSH2 0x4A1D JUMPI PUSH2 0x4A1C PUSH2 0x37F7 JUMP JUMPDEST JUMPDEST PUSH0 PUSH2 0x4A2A DUP5 DUP3 DUP6 ADD PUSH2 0x49F4 JUMP JUMPDEST SWAP2 POP POP SWAP3 SWAP2 POP POP JUMP JUMPDEST PUSH32 0x546F6B656E2042616C616E636500000000000000000000000000000000000000 PUSH0 DUP3 ADD MSTORE POP JUMP JUMPDEST PUSH0 PUSH2 0x4A67 PUSH1 0xD DUP4 PUSH2 0x3A3F JUMP JUMPDEST SWAP2 POP PUSH2 0x4A72 DUP3 PUSH2 0x4A33 JUMP JUMPDEST PUSH1 0x20 DUP3 ADD SWAP1 POP SWAP2 SWAP1 POP JUMP JUMPDEST PUSH0 PUSH1 0x20 DUP3 ADD SWAP1 POP DUP2 DUP2 SUB PUSH0 DUP4 ADD MSTORE PUSH2 0x4A94 DUP2 PUSH2 0x4A5B JUMP JUMPDEST SWAP1 POP SWAP2 SWAP1 POP JUMP JUMPDEST PUSH32 0x4E65656420457468657200000000000000000000000000000000000000000000 PUSH0 DUP3 ADD MSTORE POP JUMP JUMPDEST PUSH0 PUSH2 0x4ACF PUSH1 0xA DUP4 PUSH2 0x3A3F JUMP JUMPDEST SWAP2 POP PUSH2 0x4ADA DUP3 PUSH2 0x4A9B JUMP JUMPDEST PUSH1 0x20 DUP3 ADD SWAP1 POP SWAP2 SWAP1 POP JUMP JUMPDEST PUSH0 PUSH1 0x20 DUP3 ADD SWAP1 POP DUP2 DUP2 SUB PUSH0 DUP4 ADD MSTORE PUSH2 0x4AFC DUP2 PUSH2 0x4AC3 JUMP JUMPDEST SWAP1 POP SWAP2 SWAP1 POP JUMP JUMPDEST PUSH32 0x4E46543A20476F6C6420737570706C7920636170206578636565646564000000 PUSH0 DUP3 ADD MSTORE POP JUMP JUMPDEST PUSH0 PUSH2 0x4B37 PUSH1 0x1D DUP4 PUSH2 0x3A3F JUMP JUMPDEST SWAP2 POP PUSH2 0x4B42 DUP3 PUSH2 0x4B03 JUMP JUMPDEST PUSH1 0x20 DUP3 ADD SWAP1 POP SWAP2 SWAP1 POP JUMP JUMPDEST PUSH0 PUSH1 0x20 DUP3 ADD SWAP1 POP DUP2 DUP2 SUB PUSH0 DUP4 ADD MSTORE PUSH2 0x4B64 DUP2 PUSH2 0x4B2B JUMP JUMPDEST SWAP1 POP SWAP2 SWAP1 POP JUMP JUMPDEST PUSH0 DUP2 SWAP1 POP SWAP2 SWAP1 POP JUMP JUMPDEST PUSH0 PUSH2 0x4B8E PUSH2 0x4B89 PUSH2 0x4B84 DUP5 PUSH2 0x4B6B JUMP JUMPDEST PUSH2 0x3EF9 JUMP JUMPDEST PUSH2 0x3AB5 JUMP JUMPDEST SWAP1 POP SWAP2 SWAP1 POP JUMP JUMPDEST PUSH2 0x4B9E DUP2 PUSH2 0x4B74 JUMP JUMPDEST DUP3 MSTORE POP POP JUMP JUMPDEST PUSH0 PUSH1 0x40 DUP3 ADD SWAP1 POP PUSH2 0x4BB7 PUSH0 DUP4 ADD DUP6 PUSH2 0x3B6B JUMP JUMPDEST PUSH2 0x4BC4 PUSH1 0x20 DUP4 ADD DUP5 PUSH2 0x4B95 JUMP JUMPDEST SWAP4 SWAP3 POP POP POP JUMP JUMPDEST PUSH32 0x4E46543A2053696C76657220737570706C792063617020657863656564656400 PUSH0 DUP3 ADD MSTORE POP JUMP JUMPDEST PUSH0 PUSH2 0x4BFF PUSH1 0x1F DUP4 PUSH2 0x3A3F JUMP JUMPDEST SWAP2 POP PUSH2 0x4C0A DUP3 PUSH2 0x4BCB JUMP JUMPDEST PUSH1 0x20 DUP3 ADD SWAP1 POP SWAP2 SWAP1 POP JUMP JUMPDEST PUSH0 PUSH1 0x20 DUP3 ADD SWAP1 POP DUP2 DUP2 SUB PUSH0 DUP4 ADD MSTORE PUSH2 0x4C2C DUP2 PUSH2 0x4BF3 JUMP JUMPDEST SWAP1 POP SWAP2 SWAP1 POP JUMP JUMPDEST PUSH0 DUP2 SWAP1 POP SWAP2 SWAP1 POP JUMP JUMPDEST PUSH0 PUSH2 0x4C56 PUSH2 0x4C51 PUSH2 0x4C4C DUP5 PUSH2 0x4C33 JUMP JUMPDEST PUSH2 0x3EF9 JUMP JUMPDEST PUSH2 0x3AB5 JUMP JUMPDEST SWAP1 POP SWAP2 SWAP1 POP JUMP JUMPDEST PUSH2 0x4C66 DUP2 PUSH2 0x4C3C JUMP JUMPDEST DUP3 MSTORE POP POP JUMP JUMPDEST PUSH0 PUSH1 0x40 DUP3 ADD SWAP1 POP PUSH2 0x4C7F PUSH0 DUP4 ADD DUP6 PUSH2 0x3B6B JUMP JUMPDEST PUSH2 0x4C8C PUSH1 0x20 DUP4 ADD DUP5 PUSH2 0x4C5D JUMP JUMPDEST SWAP4 SWAP3 POP POP POP JUMP JUMPDEST PUSH32 0x4E46543A2042726F6E7A6520737570706C792063617020657863656564656400 PUSH0 DUP3 ADD MSTORE POP JUMP JUMPDEST PUSH0 PUSH2 0x4CC7 PUSH1 0x1F DUP4 PUSH2 0x3A3F JUMP JUMPDEST SWAP2 POP PUSH2 0x4CD2 DUP3 PUSH2 0x4C93 JUMP JUMPDEST PUSH1 0x20 DUP3 ADD SWAP1 POP SWAP2 SWAP1 POP JUMP JUMPDEST PUSH0 PUSH1 0x20 DUP3 ADD SWAP1 POP DUP2 DUP2 SUB PUSH0 DUP4 ADD MSTORE PUSH2 0x4CF4 DUP2 PUSH2 0x4CBB JUMP JUMPDEST SWAP1 POP SWAP2 SWAP1 POP JUMP JUMPDEST PUSH0 DUP2 SWAP1 POP SWAP2 SWAP1 POP JUMP JUMPDEST PUSH0 PUSH2 0x4D1E PUSH2 0x4D19 PUSH2 0x4D14 DUP5 PUSH2 0x4CFB JUMP JUMPDEST PUSH2 0x3EF9 JUMP JUMPDEST PUSH2 0x3AB5 JUMP JUMPDEST SWAP1 POP SWAP2 SWAP1 POP JUMP JUMPDEST PUSH2 0x4D2E DUP2 PUSH2 0x4D04 JUMP JUMPDEST DUP3 MSTORE POP POP JUMP JUMPDEST PUSH0 PUSH1 0x40 DUP3 ADD SWAP1 POP PUSH2 0x4D47 PUSH0 DUP4 ADD DUP6 PUSH2 0x3B6B JUMP JUMPDEST PUSH2 0x4D54 PUSH1 0x20 DUP4 ADD DUP5 PUSH2 0x4D25 JUMP JUMPDEST SWAP4 SWAP3 POP POP POP JUMP JUMPDEST PUSH0 PUSH2 0x4D66 DUP3 DUP7 PUSH2 0x46C1 JUMP JUMPDEST PUSH1 0x14 DUP3 ADD SWAP2 POP PUSH2 0x4D76 DUP3 DUP6 PUSH2 0x49A1 JUMP JUMPDEST SWAP2 POP PUSH2 0x4D82 DUP3 DUP5 PUSH2 0x46E1 JUMP JUMPDEST PUSH1 0x20 DUP3 ADD SWAP2 POP DUP2 SWAP1 POP SWAP5 SWAP4 POP POP POP POP JUMP JUMPDEST PUSH0 PUSH2 0x4D9E DUP3 DUP6 PUSH2 0x49A1 JUMP JUMPDEST SWAP2 POP PUSH2 0x4DAA DUP3 DUP5 PUSH2 0x49A1 JUMP JUMPDEST SWAP2 POP DUP2 SWAP1 POP SWAP4 SWAP3 POP POP POP JUMP JUMPDEST PUSH0 PUSH1 0x60 DUP3 ADD SWAP1 POP PUSH2 0x4DC9 PUSH0 DUP4 ADD DUP7 PUSH2 0x3B6B JUMP JUMPDEST PUSH2 0x4DD6 PUSH1 0x20 DUP4 ADD DUP6 PUSH2 0x3B6B JUMP JUMPDEST PUSH2 0x4DE3 PUSH1 0x40 DUP4 ADD DUP5 PUSH2 0x3B13 JUMP JUMPDEST SWAP5 SWAP4 POP POP POP POP JUMP JUMPDEST PUSH32 0x5265656E7472616E637947756172643A207265656E7472616E742063616C6C00 PUSH0 DUP3 ADD MSTORE POP JUMP JUMPDEST PUSH0 PUSH2 0x4E1F PUSH1 0x1F DUP4 PUSH2 0x3A3F JUMP JUMPDEST SWAP2 POP PUSH2 0x4E2A DUP3 PUSH2 0x4DEB JUMP JUMPDEST PUSH1 0x20 DUP3 ADD SWAP1 POP SWAP2 SWAP1 POP JUMP JUMPDEST PUSH0 PUSH1 0x20 DUP3 ADD SWAP1 POP DUP2 DUP2 SUB PUSH0 DUP4 ADD MSTORE PUSH2 0x4E4C DUP2 PUSH2 0x4E13 JUMP JUMPDEST SWAP1 POP SWAP2 SWAP1 POP JUMP JUMPDEST PUSH0 DUP2 MLOAD SWAP1 POP SWAP2 SWAP1 POP JUMP JUMPDEST PUSH0 DUP3 DUP3 MSTORE PUSH1 0x20 DUP3 ADD SWAP1 POP SWAP3 SWAP2 POP POP JUMP JUMPDEST PUSH0 PUSH2 0x4E77 DUP3 PUSH2 0x4E53 JUMP JUMPDEST PUSH2 0x4E81 DUP2 DUP6 PUSH2 0x4E5D JUMP JUMPDEST SWAP4 POP PUSH2 0x4E91 DUP2 DUP6 PUSH1 0x20 DUP7 ADD PUSH2 0x3A4F JUMP JUMPDEST PUSH2 0x4E9A DUP2 PUSH2 0x38BA JUMP JUMPDEST DUP5 ADD SWAP2 POP POP SWAP3 SWAP2 POP POP JUMP JUMPDEST PUSH0 PUSH1 0x80 DUP3 ADD SWAP1 POP PUSH2 0x4EB8 PUSH0 DUP4 ADD DUP8 PUSH2 0x3B6B JUMP JUMPDEST PUSH2 0x4EC5 PUSH1 0x20 DUP4 ADD DUP7 PUSH2 0x3B6B JUMP JUMPDEST PUSH2 0x4ED2 PUSH1 0x40 DUP4 ADD DUP6 PUSH2 0x3B13 JUMP JUMPDEST DUP2 DUP2 SUB PUSH1 0x60 DUP4 ADD MSTORE PUSH2 0x4EE4 DUP2 DUP5 PUSH2 0x4E6D JUMP JUMPDEST SWAP1 POP SWAP6 SWAP5 POP POP POP POP POP JUMP JUMPDEST PUSH0 DUP2 MLOAD SWAP1 POP PUSH2 0x4EFD DUP2 PUSH2 0x382A JUMP JUMPDEST SWAP3 SWAP2 POP POP JUMP JUMPDEST PUSH0 PUSH1 0x20 DUP3 DUP5 SUB SLT ISZERO PUSH2 0x4F18 JUMPI PUSH2 0x4F17 PUSH2 0x37F7 JUMP JUMPDEST JUMPDEST PUSH0 PUSH2 0x4F25 DUP5 DUP3 DUP6 ADD PUSH2 0x4EEF JUMP JUMPDEST SWAP2 POP POP SWAP3 SWAP2 POP POP JUMP JUMPDEST PUSH0 PUSH1 0x40 DUP3 ADD SWAP1 POP PUSH2 0x4F41 PUSH0 DUP4 ADD DUP6 PUSH2 0x3B6B JUMP JUMPDEST PUSH2 0x4F4E PUSH1 0x20 DUP4 ADD DUP5 PUSH2 0x3CFB JUMP JUMPDEST SWAP4 SWAP3 POP POP POP JUMP JUMPDEST PUSH32 0x4E487B7100000000000000000000000000000000000000000000000000000000 PUSH0 MSTORE PUSH1 0x12 PUSH1 0x4 MSTORE PUSH1 0x24 PUSH0 REVERT INVALID LOG2 PUSH5 0x6970667358 0x22 SLT KECCAK256 0x22 0xC8 SWAP12 0xC1 0x28 CALLER BLOCKHASH ADD DUP15 0xC1 0xE6 PUSH28 0x72633CAC7A27237AC0594B1D1574C92C9841BF3A64736F6C63430008 BYTE STOP CALLER LOG2 PUSH5 0x6970667358 0x22 SLT KECCAK256 0xD DUP12 0xBE 0xE3 ORIGIN 0xDA 0xBE PUSH5 0xC1A0429AA1 0xE 0xB8 0xD3 BLOCKHASH DUP15 CREATE MSTORE8 0xE8 BYTE 0xD 0xFC DUP15 CODESIZE DUP13 0xBE PUSH18 0xE8740B64736F6C634300081A003300000000 "
		},
		"gasEstimates": {
			"creation": {
				"codeDepositCost": "5753000",
				"executionCost": "55552",
				"totalCost": "5808552"
			},
			"external": {
				"beforeAll()": "infinite",
				"testBurnNFT()": "infinite",
				"testMintNFT()": "infinite",
				"testMintWithoutSufficientTokens()": "infinite"
			}
		},
		"methodIdentifiers": {
			"beforeAll()": "7fea0d4b",
			"testBurnNFT()": "f3f221e4",
			"testMintNFT()": "3185b788",
			"testMintWithoutSufficientTokens()": "ef00610c"
		}
	},
	"abi": [
		{
			"inputs": [],
			"name": "beforeAll",
			"outputs": [],
			"stateMutability": "nonpayable",
			"type": "function"
		},
		{
			"inputs": [],
			"name": "testBurnNFT",
			"outputs": [],
			"stateMutability": "nonpayable",
			"type": "function"
		},
		{
			"inputs": [],
			"name": "testMintNFT",
			"outputs": [],
			"stateMutability": "nonpayable",
			"type": "function"
		},
		{
			"inputs": [],
			"name": "testMintWithoutSufficientTokens",
			"outputs": [],
			"stateMutability": "nonpayable",
			"type": "function"
		}
	]
}