{
	"data": {
		"bytecode": {
			"linkReferences": {},
			"object": "60806040526611c37937e0800060095534801561001a575f80fd5b50604051614353380380614353833981810160405281019061003c919061076c565b6040518060400160405280600581526020017f546f6b656e0000000000000000000000000000000000000000000000000000008152506040518060400160405280600381526020017f544b4e000000000000000000000000000000000000000000000000000000000081525081600390816100b791906109d1565b5080600490816100c791906109d1565b50505060016006819055506a084595161401484a0000006007819055505f600a60016101000a81548160ff0219169083151502179055505f600a60026101000a81548160ff0219169083151502179055508060085f6101000a81548173ffffffffffffffffffffffffffffffffffffffff021916908373ffffffffffffffffffffffffffffffffffffffff1602179055506101775f801b61016c61025f60201b60201c565b61026660201b60201c565b506101b57fae6c2fc584631af4c9385b8a55683f1a75c813747e27efef5afece31c6b230d36101aa61025f60201b60201c565b61026660201b60201c565b506101f37f8c66330d9d4f6aba064f25ef2a307366ea6d917616f44c075aa60fa15e5cb1cb6101e861025f60201b60201c565b61026660201b60201c565b506102317f9edfad36e7d4d9da54b4f78f22bf97cb5b58bb7998294a4288da41c15c647c4561022661025f60201b60201c565b61026660201b60201c565b5061025961024361025f60201b60201c565b69d3c21bcecceda100000061035c60201b60201c565b50610bfd565b5f33905090565b5f61027783836103e160201b60201c565b61035257600160055f8581526020019081526020015f205f015f8473ffffffffffffffffffffffffffffffffffffffff1673ffffffffffffffffffffffffffffffffffffffff1681526020019081526020015f205f6101000a81548160ff0219169083151502179055506102ef61025f60201b60201c565b73ffffffffffffffffffffffffffffffffffffffff168273ffffffffffffffffffffffffffffffffffffffff16847f2f8788117e7eff1d82e926ec794901d17c78024a50270940304540a733656f0d60405160405180910390a460019050610356565b5f90505b92915050565b5f73ffffffffffffffffffffffffffffffffffffffff168273ffffffffffffffffffffffffffffffffffffffff16036103cc575f6040517fec442f050000000000000000000000000000000000000000000000000000000081526004016103c39190610aaf565b60405180910390fd5b6103dd5f838361044560201b60201c565b5050565b5f60055f8481526020019081526020015f205f015f8373ffffffffffffffffffffffffffffffffffffffff1673ffffffffffffffffffffffffffffffffffffffff1681526020019081526020015f205f9054906101000a900460ff16905092915050565b5f73ffffffffffffffffffffffffffffffffffffffff168373ffffffffffffffffffffffffffffffffffffffff16036104d6576007548161048a6104ec60201b60201c565b6104949190610af5565b11156104d5576040517f08c379a00000000000000000000000000000000000000000000000000000000081526004016104cc90610b82565b60405180910390fd5b5b6104e78383836104f560201b60201c565b505050565b5f600254905090565b5f73ffffffffffffffffffffffffffffffffffffffff168373ffffffffffffffffffffffffffffffffffffffff1603610545578060025f8282546105399190610af5565b92505081905550610613565b5f805f8573ffffffffffffffffffffffffffffffffffffffff1673ffffffffffffffffffffffffffffffffffffffff1681526020019081526020015f20549050818110156105ce578381836040517fe450d38c0000000000000000000000000000000000000000000000000000000081526004016105c593929190610baf565b60405180910390fd5b8181035f808673ffffffffffffffffffffffffffffffffffffffff1673ffffffffffffffffffffffffffffffffffffffff1681526020019081526020015f2081905550505b5f73ffffffffffffffffffffffffffffffffffffffff168273ffffffffffffffffffffffffffffffffffffffff160361065a578060025f82825403925050819055506106a4565b805f808473ffffffffffffffffffffffffffffffffffffffff1673ffffffffffffffffffffffffffffffffffffffff1681526020019081526020015f205f82825401925050819055505b8173ffffffffffffffffffffffffffffffffffffffff168373ffffffffffffffffffffffffffffffffffffffff167fddf252ad1be2c89b69c2b068fc378daa952ba7f163c4a11628f55a4df523b3ef836040516107019190610be4565b60405180910390a3505050565b5f80fd5b5f73ffffffffffffffffffffffffffffffffffffffff82169050919050565b5f61073b82610712565b9050919050565b61074b81610731565b8114610755575f80fd5b50565b5f8151905061076681610742565b92915050565b5f602082840312156107815761078061070e565b5b5f61078e84828501610758565b91505092915050565b5f81519050919050565b7f4e487b71000000000000000000000000000000000000000000000000000000005f52604160045260245ffd5b7f4e487b71000000000000000000000000000000000000000000000000000000005f52602260045260245ffd5b5f600282049050600182168061081257607f821691505b602082108103610825576108246107ce565b5b50919050565b5f819050815f5260205f209050919050565b5f6020601f8301049050919050565b5f82821b905092915050565b5f600883026108877fffffffffffffffffffffffffffffffffffffffffffffffffffffffffffffffff8261084c565b610891868361084c565b95508019841693508086168417925050509392505050565b5f819050919050565b5f819050919050565b5f6108d56108d06108cb846108a9565b6108b2565b6108a9565b9050919050565b5f819050919050565b6108ee836108bb565b6109026108fa826108dc565b848454610858565b825550505050565b5f90565b61091661090a565b6109218184846108e5565b505050565b5b81811015610944576109395f8261090e565b600181019050610927565b5050565b601f8211156109895761095a8161082b565b6109638461083d565b81016020851015610972578190505b61098661097e8561083d565b830182610926565b50505b505050565b5f82821c905092915050565b5f6109a95f198460080261098e565b1980831691505092915050565b5f6109c1838361099a565b9150826002028217905092915050565b6109da82610797565b67ffffffffffffffff8111156109f3576109f26107a1565b5b6109fd82546107fb565b610a08828285610948565b5f60209050601f831160018114610a39575f8415610a27578287015190505b610a3185826109b6565b865550610a98565b601f198416610a478661082b565b5f5b82811015610a6e57848901518255600182019150602085019450602081019050610a49565b86831015610a8b5784890151610a87601f89168261099a565b8355505b6001600288020188555050505b505050505050565b610aa981610731565b82525050565b5f602082019050610ac25f830184610aa0565b92915050565b7f4e487b71000000000000000000000000000000000000000000000000000000005f52601160045260245ffd5b5f610aff826108a9565b9150610b0a836108a9565b9250828201905080821115610b2257610b21610ac8565b5b92915050565b5f82825260208201905092915050565b7f436f6e74726163743a20537570706c79204361702065786365656465640000005f82015250565b5f610b6c601d83610b28565b9150610b7782610b38565b602082019050919050565b5f6020820190508181035f830152610b9981610b60565b9050919050565b610ba9816108a9565b82525050565b5f606082019050610bc25f830186610aa0565b610bcf6020830185610ba0565b610bdc6040830184610ba0565b949350505050565b5f602082019050610bf75f830184610ba0565b92915050565b61374980610c0a5f395ff3fe608060405234801561000f575f80fd5b5060043610610251575f3560e01c806379cc679011610144578063a9059cbb116100c1578063d547741f11610085578063d547741f146106e9578063dd62ed3e14610705578063deb6db3614610735578063ea5cb53214610751578063f2250d3d1461076f578063fbfa77cf1461078b57610251565b8063a9059cbb14610631578063b6a3f59a14610661578063c30796ab1461067d578063cf820461146106ad578063d1c9f69b146106cb57610251565b806391d148541161010857806391d148541461058b578063956feccf146105bb57806395d89b41146105d9578063a0712d68146105f7578063a217fddf1461061357610251565b806379cc6790146104f75780637e92a7fd146105135780638d580b9f146105315780638ebed5b11461054f5780638f770ad01461056d57610251565b80633f914aef116101d25780635155728911610196578063515572891461044f57806353a4c31e1461046d5780635c975abb1461048b5780636ba77a38146104a957806370a08231146104c757610251565b80633f914aef146103c357806341f431fd146103df57806342966c68146103fb578063449a52f81461041757806348132f481461043357610251565b806323b872dd1161021957806323b872dd1461030d578063248a9ca31461033d5780632f2ff15d1461036d578063313ce5671461038957806336568abe146103a757610251565b806301ffc9a71461025557806306fdde0314610285578063095ea7b3146102a357806316c38b3c146102d357806318160ddd146102ef575b5f80fd5b61026f600480360381019061026a9190612857565b6107a9565b60405161027c919061289c565b60405180910390f35b61028d610822565b60405161029a9190612925565b60405180910390f35b6102bd60048036038101906102b891906129d2565b6108b2565b6040516102ca919061289c565b60405180910390f35b6102ed60048036038101906102e89190612a3a565b6108d4565b005b6102f76109ec565b6040516103049190612a74565b60405180910390f35b61032760048036038101906103229190612a8d565b6109f5565b604051610334919061289c565b60405180910390f35b61035760048036038101906103529190612b10565b610ab6565b6040516103649190612b4a565b60405180910390f35b61038760048036038101906103829190612b63565b610ad3565b005b610391610af5565b60405161039e9190612bbc565b60405180910390f35b6103c160048036038101906103bc9190612b63565b610afd565b005b6103dd60048036038101906103d89190612bd5565b610b78565b005b6103f960048036038101906103f49190612c4e565b610ca7565b005b61041560048036038101906104109190612c9e565b610d8d565b005b610431600480360381019061042c91906129d2565b610ea0565b005b61044d60048036038101906104489190612d04565b61104d565b005b610457611149565b6040516104649190612b4a565b60405180910390f35b61047561116d565b6040516104829190612b4a565b60405180910390f35b610493611191565b6040516104a0919061289c565b60405180910390f35b6104b16111a3565b6040516104be9190612b4a565b60405180910390f35b6104e160048036038101906104dc9190612d42565b6111c7565b6040516104ee9190612a74565b60405180910390f35b610511600480360381019061050c91906129d2565b61120c565b005b61051b61131b565b6040516105289190612b4a565b60405180910390f35b61053961133f565b6040516105469190612b4a565b60405180910390f35b610557611363565b6040516105649190612b4a565b60405180910390f35b610575611387565b6040516105829190612a74565b60405180910390f35b6105a560048036038101906105a09190612b63565b611390565b6040516105b2919061289c565b60405180910390f35b6105c36113f4565b6040516105d0919061289c565b60405180910390f35b6105e1611407565b6040516105ee9190612925565b60405180910390f35b610611600480360381019061060c9190612c9e565b611497565b005b61061b611648565b6040516106289190612b4a565b60405180910390f35b61064b600480360381019061064691906129d2565b61164e565b604051610658919061289c565b60405180910390f35b61067b60048036038101906106769190612c9e565b61170e565b005b61069760048036038101906106929190612d42565b611861565b6040516106a4919061289c565b60405180910390f35b6106b561187e565b6040516106c29190612a74565b60405180910390f35b6106d3611884565b6040516106e0919061289c565b60405180910390f35b61070360048036038101906106fe9190612b63565b611897565b005b61071f600480360381019061071a9190612d6d565b6118b9565b60405161072c9190612a74565b60405180910390f35b61074f600480360381019061074a9190612a3a565b61193b565b005b610759611a54565b6040516107669190612b4a565b60405180910390f35b61078960048036038101906107849190612a3a565b611a78565b005b610793611b91565b6040516107a09190612dba565b60405180910390f35b5f7f7965db0b000000000000000000000000000000000000000000000000000000007bffffffffffffffffffffffffffffffffffffffffffffffffffffffff1916827bffffffffffffffffffffffffffffffffffffffffffffffffffffffff1916148061081b575061081a82611bb6565b5b9050919050565b60606003805461083190612e00565b80601f016020809104026020016040519081016040528092919081815260200182805461085d90612e00565b80156108a85780601f1061087f576101008083540402835291602001916108a8565b820191905f5260205f20905b81548152906001019060200180831161088b57829003601f168201915b5050505050905090565b5f806108bc611c1f565b90506108c9818585611c26565b600191505092915050565b6109057fae6c2fc584631af4c9385b8a55683f1a75c813747e27efef5afece31c6b230d3610900611c1f565b611390565b610944576040517f08c379a000000000000000000000000000000000000000000000000000000000815260040161093b90612e7a565b60405180910390fd5b80600a5f6101000a81548160ff02191690831515021790555080156109a8577fd8c9c5623123df8e137854c59a08f9084b75609fe24584228d44ffdce5ab920a4361098d611c1f565b60405161099b929190612e98565b60405180910390a16109e9565b7f1e7a7234ad01ed7353bf129217f5c162773639a6cb22773e84bcd5a2b0ef362e436109d2611c1f565b6040516109e0929190612e98565b60405180910390a15b50565b5f600254905090565b5f6109fe611c38565b5f610a07611c1f565b9050600b5f8273ffffffffffffffffffffffffffffffffffffffff1673ffffffffffffffffffffffffffffffffffffffff1681526020019081526020015f205f9054906101000a900460ff1615610a6857610a63858585611c87565b610aa2565b610a73858585611c87565b610aa18560085f9054906101000a900473ffffffffffffffffffffffffffffffffffffffff16600954611c87565b5b6001915050610aaf611d77565b9392505050565b5f60055f8381526020019081526020015f20600101549050919050565b610adc82610ab6565b610ae581611d81565b610aef8383611d95565b50505050565b5f6012905090565b610b05611c1f565b73ffffffffffffffffffffffffffffffffffffffff168173ffffffffffffffffffffffffffffffffffffffff1614610b69576040517f6697b23200000000000000000000000000000000000000000000000000000000815260040160405180910390fd5b610b738282611e7f565b505050565b610ba27fae6c2fc584631af4c9385b8a55683f1a75c813747e27efef5afece31c6b230d333611390565b610be1576040517f08c379a0000000000000000000000000000000000000000000000000000000008152600401610bd890612f09565b60405180910390fd5b5f73ffffffffffffffffffffffffffffffffffffffff168273ffffffffffffffffffffffffffffffffffffffff1603610c4f576040517f08c379a0000000000000000000000000000000000000000000000000000000008152600401610c4690612f71565b60405180910390fd5b80600b5f8473ffffffffffffffffffffffffffffffffffffffff1673ffffffffffffffffffffffffffffffffffffffff1681526020019081526020015f205f6101000a81548160ff0219169083151502179055505050565b610caf611c38565b610cd97f508f8f8be8f5dbcb88f4f4500430b8b3684c471ed936f31fea912c78ad46a6b933611390565b610d18576040517f08c379a0000000000000000000000000000000000000000000000000000000008152600401610d0f90612fd9565b60405180910390fd5b610d4382828573ffffffffffffffffffffffffffffffffffffffff16611f699092919063ffffffff16565b7f494215f965756bbc8b7f57addd2a0ebdbce467a4999f8320c67adc1771885d7b83438484604051610d789493929190613052565b60405180910390a1610d88611d77565b505050565b600a5f9054906101000a900460ff1615610ddc576040517f08c379a0000000000000000000000000000000000000000000000000000000008152600401610dd3906130df565b60405180910390fd5b610e0d7f9edfad36e7d4d9da54b4f78f22bf97cb5b58bb7998294a4288da41c15c647c45610e08611c1f565b611390565b610e4c576040517f08c379a0000000000000000000000000000000000000000000000000000000008152600401610e4390613147565b60405180910390fd5b7f63706707d038997d2210eb026bb1339397deab463921538a81bb98e69ee54ca881610e76611c1f565b604051610e84929190612e98565b60405180910390a1610e9d610e97611c1f565b82611fe8565b50565b600a5f9054906101000a900460ff1615610eef576040517f08c379a0000000000000000000000000000000000000000000000000000000008152600401610ee6906130df565b60405180910390fd5b600a60029054906101000a900460ff1615610f3f576040517f08c379a0000000000000000000000000000000000000000000000000000000008152600401610f36906131af565b60405180910390fd5b610f707f7d800f56a05adcb6245df540492a560d0e668aac15ee6c7dd40668064913da33610f6b611c1f565b611390565b610faf576040517f08c379a0000000000000000000000000000000000000000000000000000000008152600401610fa690613217565b60405180910390fd5b60075481610fbb6109ec565b610fc59190613262565b1115611006576040517f08c379a0000000000000000000000000000000000000000000000000000000008152600401610ffd906132df565b60405180910390fd5b7fe98063832b4ff0356868961b75f7f49b096b14ea066c9725301ad197f2f6314782826040516110379291906132fd565b60405180910390a16110498282612067565b5050565b611055611c38565b61107f7f508f8f8be8f5dbcb88f4f4500430b8b3684c471ed936f31fea912c78ad46a6b933611390565b6110be576040517f08c379a00000000000000000000000000000000000000000000000000000000081526004016110b590612fd9565b60405180910390fd5b8173ffffffffffffffffffffffffffffffffffffffff166108fc8290811502906040515f60405180830381858888f19350505050158015611101573d5f803e3d5ffd5b507f3b1c0368c81e47d03164182dc6f9fcf4f5e4b3bd9462d74960d729f73138ce3682438360405161113593929190613344565b60405180910390a1611145611d77565b5050565b7fae6c2fc584631af4c9385b8a55683f1a75c813747e27efef5afece31c6b230d381565b7f9edfad36e7d4d9da54b4f78f22bf97cb5b58bb7998294a4288da41c15c647c4581565b600a5f9054906101000a900460ff1681565b7fc8a3befa5973ff6e159afc769978d92f26bae29c51a73d11c9112a05b68d25e681565b5f805f8373ffffffffffffffffffffffffffffffffffffffff1673ffffffffffffffffffffffffffffffffffffffff1681526020019081526020015f20549050919050565b600a5f9054906101000a900460ff161561125b576040517f08c379a0000000000000000000000000000000000000000000000000000000008152600401611252906130df565b60405180910390fd5b61128c7fc8a3befa5973ff6e159afc769978d92f26bae29c51a73d11c9112a05b68d25e6611287611c1f565b611390565b6112cb576040517f08c379a00000000000000000000000000000000000000000000000000000000081526004016112c2906133c3565b60405180910390fd5b7fe419ce2aab145a1feaf5893bb6a9478f9282415bbd81c76d5cfff2d4f13431dd82826112f6611c1f565b604051611305939291906133e1565b60405180910390a16113178282611fe8565b5050565b7f7d800f56a05adcb6245df540492a560d0e668aac15ee6c7dd40668064913da3381565b7f508f8f8be8f5dbcb88f4f4500430b8b3684c471ed936f31fea912c78ad46a6b981565b7f8c66330d9d4f6aba064f25ef2a307366ea6d917616f44c075aa60fa15e5cb1cb81565b5f600754905090565b5f60055f8481526020019081526020015f205f015f8373ffffffffffffffffffffffffffffffffffffffff1673ffffffffffffffffffffffffffffffffffffffff1681526020019081526020015f205f9054906101000a900460ff16905092915050565b600a60019054906101000a900460ff1681565b60606004805461141690612e00565b80601f016020809104026020016040519081016040528092919081815260200182805461144290612e00565b801561148d5780601f106114645761010080835404028352916020019161148d565b820191905f5260205f20905b81548152906001019060200180831161147057829003601f168201915b5050505050905090565b600a5f9054906101000a900460ff16156114e6576040517f08c379a00000000000000000000000000000000000000000000000000000000081526004016114dd906130df565b60405180910390fd5b600a60019054906101000a900460ff1615611536576040517f08c379a000000000000000000000000000000000000000000000000000000000815260040161152d90613460565b60405180910390fd5b6115677f8c66330d9d4f6aba064f25ef2a307366ea6d917616f44c075aa60fa15e5cb1cb611562611c1f565b611390565b6115a6576040517f08c379a000000000000000000000000000000000000000000000000000000000815260040161159d906134c8565b60405180910390fd5b600754816115b26109ec565b6115bc9190613262565b11156115fd576040517f08c379a00000000000000000000000000000000000000000000000000000000081526004016115f4906132df565b60405180910390fd5b7f772f66a00a405709c30e7f18feadcc8f123b20c09c7260165d3eec36c9f213728160405161162c9190612a74565b60405180910390a161164561163f611c1f565b82612067565b50565b5f801b81565b5f611657611c38565b5f611660611c1f565b9050600b5f8273ffffffffffffffffffffffffffffffffffffffff1673ffffffffffffffffffffffffffffffffffffffff1681526020019081526020015f205f9054906101000a900460ff16156116c1576116bc818585611c87565b6116fb565b6116cc818585611c87565b6116fa8160085f9054906101000a900473ffffffffffffffffffffffffffffffffffffffff16600954611c87565b5b6001915050611708611d77565b92915050565b600a5f9054906101000a900460ff161561175d576040517f08c379a0000000000000000000000000000000000000000000000000000000008152600401611754906130df565b60405180910390fd5b61178e7fea4defabeb90fa1e79f929d6c8d482fee8a115926a592b79634d39a67cce3b62611789611c1f565b611390565b6117cd576040517f08c379a00000000000000000000000000000000000000000000000000000000081526004016117c490613530565b60405180910390fd5b6117d56109ec565b811015611817576040517f08c379a000000000000000000000000000000000000000000000000000000000815260040161180e90613598565b60405180910390fd5b806007819055507fa11cbdeb4d62442fae7c8ec6286585b17c47acb7b17bbcab1beadce84befa30081611848611c1f565b604051611856929190612e98565b60405180910390a150565b600b602052805f5260405f205f915054906101000a900460ff1681565b60095481565b600a60029054906101000a900460ff1681565b6118a082610ab6565b6118a981611d81565b6118b38383611e7f565b50505050565b5f60015f8473ffffffffffffffffffffffffffffffffffffffff1673ffffffffffffffffffffffffffffffffffffffff1681526020019081526020015f205f8373ffffffffffffffffffffffffffffffffffffffff1673ffffffffffffffffffffffffffffffffffffffff1681526020019081526020015f2054905092915050565b61196c7fae6c2fc584631af4c9385b8a55683f1a75c813747e27efef5afece31c6b230d3611967611c1f565b611390565b6119ab576040517f08c379a00000000000000000000000000000000000000000000000000000000081526004016119a290612e7a565b60405180910390fd5b80600a60016101000a81548160ff0219169083151502179055508015611a10577f5668502ca8e7b393c09d1dac964ca45a27870a78d7ba212b7a189450897ca05f436119f5611c1f565b604051611a03929190612e98565b60405180910390a1611a51565b7f98e05482fdb38df5eb461fb932fa6e1af90a3569939ce5a8d92d699b102d640243611a3a611c1f565b604051611a48929190612e98565b60405180910390a15b50565b7fea4defabeb90fa1e79f929d6c8d482fee8a115926a592b79634d39a67cce3b6281565b611aa97fae6c2fc584631af4c9385b8a55683f1a75c813747e27efef5afece31c6b230d3611aa4611c1f565b611390565b611ae8576040517f08c379a0000000000000000000000000000000000000000000000000000000008152600401611adf90612f09565b60405180910390fd5b80600a60026101000a81548160ff0219169083151502179055508015611b4d577f218e25f0a7435729f5a66aae50a9ed0084535a0080300c1c2e8366d8df7136ed43611b32611c1f565b604051611b40929190612e98565b60405180910390a1611b8e565b7f41606e1dcee38320f9edbfcd642aeaa81bb2140c705de9d4a7814024a1e9a31443611b77611c1f565b604051611b85929190612e98565b60405180910390a15b50565b60085f9054906101000a900473ffffffffffffffffffffffffffffffffffffffff1681565b5f7f01ffc9a7000000000000000000000000000000000000000000000000000000007bffffffffffffffffffffffffffffffffffffffffffffffffffffffff1916827bffffffffffffffffffffffffffffffffffffffffffffffffffffffff1916149050919050565b5f33905090565b611c3383838360016120e6565b505050565b600260065403611c7d576040517f08c379a0000000000000000000000000000000000000000000000000000000008152600401611c7490613600565b60405180910390fd5b6002600681905550565b5f73ffffffffffffffffffffffffffffffffffffffff168373ffffffffffffffffffffffffffffffffffffffff1603611cf7575f6040517f96c6fd1e000000000000000000000000000000000000000000000000000000008152600401611cee9190612dba565b60405180910390fd5b5f73ffffffffffffffffffffffffffffffffffffffff168273ffffffffffffffffffffffffffffffffffffffff1603611d67575f6040517fec442f05000000000000000000000000000000000000000000000000000000008152600401611d5e9190612dba565b60405180910390fd5b611d728383836122b5565b505050565b6001600681905550565b611d9281611d8d611c1f565b612350565b50565b5f611da08383611390565b611e7557600160055f8581526020019081526020015f205f015f8473ffffffffffffffffffffffffffffffffffffffff1673ffffffffffffffffffffffffffffffffffffffff1681526020019081526020015f205f6101000a81548160ff021916908315150217905550611e12611c1f565b73ffffffffffffffffffffffffffffffffffffffff168273ffffffffffffffffffffffffffffffffffffffff16847f2f8788117e7eff1d82e926ec794901d17c78024a50270940304540a733656f0d60405160405180910390a460019050611e79565b5f90505b92915050565b5f611e8a8383611390565b15611f5f575f60055f8581526020019081526020015f205f015f8473ffffffffffffffffffffffffffffffffffffffff1673ffffffffffffffffffffffffffffffffffffffff1681526020019081526020015f205f6101000a81548160ff021916908315150217905550611efc611c1f565b73ffffffffffffffffffffffffffffffffffffffff168273ffffffffffffffffffffffffffffffffffffffff16847ff6391f5c32d9c69d2a47ea670b442974b53935d1edc7fd64eb21e047a839171b60405160405180910390a460019050611f63565b5f90505b92915050565b611fe3838473ffffffffffffffffffffffffffffffffffffffff1663a9059cbb8585604051602401611f9c9291906132fd565b604051602081830303815290604052915060e01b6020820180517bffffffffffffffffffffffffffffffffffffffffffffffffffffffff83818316178352505050506123a1565b505050565b5f73ffffffffffffffffffffffffffffffffffffffff168273ffffffffffffffffffffffffffffffffffffffff1603612058575f6040517f96c6fd1e00000000000000000000000000000000000000000000000000000000815260040161204f9190612dba565b60405180910390fd5b612063825f836122b5565b5050565b5f73ffffffffffffffffffffffffffffffffffffffff168273ffffffffffffffffffffffffffffffffffffffff16036120d7575f6040517fec442f050000000000000000000000000000000000000000000000000000000081526004016120ce9190612dba565b60405180910390fd5b6120e25f83836122b5565b5050565b5f73ffffffffffffffffffffffffffffffffffffffff168473ffffffffffffffffffffffffffffffffffffffff1603612156575f6040517fe602df0500000000000000000000000000000000000000000000000000000000815260040161214d9190612dba565b60405180910390fd5b5f73ffffffffffffffffffffffffffffffffffffffff168373ffffffffffffffffffffffffffffffffffffffff16036121c6575f6040517f94280d620000000000000000000000000000000000000000000000000000000081526004016121bd9190612dba565b60405180910390fd5b8160015f8673ffffffffffffffffffffffffffffffffffffffff1673ffffffffffffffffffffffffffffffffffffffff1681526020019081526020015f205f8573ffffffffffffffffffffffffffffffffffffffff1673ffffffffffffffffffffffffffffffffffffffff1681526020019081526020015f208190555080156122af578273ffffffffffffffffffffffffffffffffffffffff168473ffffffffffffffffffffffffffffffffffffffff167f8c5be1e5ebec7d5bd14f71427d1e84f3dd0314c0f7b2291e5b200ac8c7c3b925846040516122a69190612a74565b60405180910390a35b50505050565b5f73ffffffffffffffffffffffffffffffffffffffff168373ffffffffffffffffffffffffffffffffffffffff160361234057600754816122f46109ec565b6122fe9190613262565b111561233f576040517f08c379a0000000000000000000000000000000000000000000000000000000008152600401612336906132df565b60405180910390fd5b5b61234b838383612436565b505050565b61235a8282611390565b61239d5780826040517fe2517d3f00000000000000000000000000000000000000000000000000000000815260040161239492919061361e565b60405180910390fd5b5050565b5f6123cb828473ffffffffffffffffffffffffffffffffffffffff1661264f90919063ffffffff16565b90505f8151141580156123ef5750808060200190518101906123ed9190613659565b155b1561243157826040517f5274afe70000000000000000000000000000000000000000000000000000000081526004016124289190612dba565b60405180910390fd5b505050565b5f73ffffffffffffffffffffffffffffffffffffffff168373ffffffffffffffffffffffffffffffffffffffff1603612486578060025f82825461247a9190613262565b92505081905550612554565b5f805f8573ffffffffffffffffffffffffffffffffffffffff1673ffffffffffffffffffffffffffffffffffffffff1681526020019081526020015f205490508181101561250f578381836040517fe450d38c00000000000000000000000000000000000000000000000000000000815260040161250693929190613684565b60405180910390fd5b8181035f808673ffffffffffffffffffffffffffffffffffffffff1673ffffffffffffffffffffffffffffffffffffffff1681526020019081526020015f2081905550505b5f73ffffffffffffffffffffffffffffffffffffffff168273ffffffffffffffffffffffffffffffffffffffff160361259b578060025f82825403925050819055506125e5565b805f808473ffffffffffffffffffffffffffffffffffffffff1673ffffffffffffffffffffffffffffffffffffffff1681526020019081526020015f205f82825401925050819055505b8173ffffffffffffffffffffffffffffffffffffffff168373ffffffffffffffffffffffffffffffffffffffff167fddf252ad1be2c89b69c2b068fc378daa952ba7f163c4a11628f55a4df523b3ef836040516126429190612a74565b60405180910390a3505050565b606061265c83835f612664565b905092915050565b6060814710156126ab57306040517fcd7860590000000000000000000000000000000000000000000000000000000081526004016126a29190612dba565b60405180910390fd5b5f808573ffffffffffffffffffffffffffffffffffffffff1684866040516126d391906136fd565b5f6040518083038185875af1925050503d805f811461270d576040519150601f19603f3d011682016040523d82523d5f602084013e612712565b606091505b509150915061272286838361272d565b925050509392505050565b6060826127425761273d826127ba565b6127b2565b5f825114801561276857505f8473ffffffffffffffffffffffffffffffffffffffff163b145b156127aa57836040517f9996b3150000000000000000000000000000000000000000000000000000000081526004016127a19190612dba565b60405180910390fd5b8190506127b3565b5b9392505050565b5f815111156127cc5780518082602001fd5b6040517f1425ea4200000000000000000000000000000000000000000000000000000000815260040160405180910390fd5b5f80fd5b5f7fffffffff0000000000000000000000000000000000000000000000000000000082169050919050565b61283681612802565b8114612840575f80fd5b50565b5f813590506128518161282d565b92915050565b5f6020828403121561286c5761286b6127fe565b5b5f61287984828501612843565b91505092915050565b5f8115159050919050565b61289681612882565b82525050565b5f6020820190506128af5f83018461288d565b92915050565b5f81519050919050565b5f82825260208201905092915050565b8281835e5f83830152505050565b5f601f19601f8301169050919050565b5f6128f7826128b5565b61290181856128bf565b93506129118185602086016128cf565b61291a816128dd565b840191505092915050565b5f6020820190508181035f83015261293d81846128ed565b905092915050565b5f73ffffffffffffffffffffffffffffffffffffffff82169050919050565b5f61296e82612945565b9050919050565b61297e81612964565b8114612988575f80fd5b50565b5f8135905061299981612975565b92915050565b5f819050919050565b6129b18161299f565b81146129bb575f80fd5b50565b5f813590506129cc816129a8565b92915050565b5f80604083850312156129e8576129e76127fe565b5b5f6129f58582860161298b565b9250506020612a06858286016129be565b9150509250929050565b612a1981612882565b8114612a23575f80fd5b50565b5f81359050612a3481612a10565b92915050565b5f60208284031215612a4f57612a4e6127fe565b5b5f612a5c84828501612a26565b91505092915050565b612a6e8161299f565b82525050565b5f602082019050612a875f830184612a65565b92915050565b5f805f60608486031215612aa457612aa36127fe565b5b5f612ab18682870161298b565b9350506020612ac28682870161298b565b9250506040612ad3868287016129be565b9150509250925092565b5f819050919050565b612aef81612add565b8114612af9575f80fd5b50565b5f81359050612b0a81612ae6565b92915050565b5f60208284031215612b2557612b246127fe565b5b5f612b3284828501612afc565b91505092915050565b612b4481612add565b82525050565b5f602082019050612b5d5f830184612b3b565b92915050565b5f8060408385031215612b7957612b786127fe565b5b5f612b8685828601612afc565b9250506020612b978582860161298b565b9150509250929050565b5f60ff82169050919050565b612bb681612ba1565b82525050565b5f602082019050612bcf5f830184612bad565b92915050565b5f8060408385031215612beb57612bea6127fe565b5b5f612bf88582860161298b565b9250506020612c0985828601612a26565b9150509250929050565b5f612c1d82612964565b9050919050565b612c2d81612c13565b8114612c37575f80fd5b50565b5f81359050612c4881612c24565b92915050565b5f805f60608486031215612c6557612c646127fe565b5b5f612c7286828701612c3a565b9350506020612c838682870161298b565b9250506040612c94868287016129be565b9150509250925092565b5f60208284031215612cb357612cb26127fe565b5b5f612cc0848285016129be565b91505092915050565b5f612cd382612945565b9050919050565b612ce381612cc9565b8114612ced575f80fd5b50565b5f81359050612cfe81612cda565b92915050565b5f8060408385031215612d1a57612d196127fe565b5b5f612d2785828601612cf0565b9250506020612d38858286016129be565b9150509250929050565b5f60208284031215612d5757612d566127fe565b5b5f612d648482850161298b565b91505092915050565b5f8060408385031215612d8357612d826127fe565b5b5f612d908582860161298b565b9250506020612da18582860161298b565b9150509250929050565b612db481612964565b82525050565b5f602082019050612dcd5f830184612dab565b92915050565b7f4e487b71000000000000000000000000000000000000000000000000000000005f52602260045260245ffd5b5f6002820490506001821680612e1757607f821691505b602082108103612e2a57612e29612dd3565b5b50919050565b7f436f6e74726163743a204e6565642041646d696e0000000000000000000000005f82015250565b5f612e646014836128bf565b9150612e6f82612e30565b602082019050919050565b5f6020820190508181035f830152612e9181612e58565b9050919050565b5f604082019050612eab5f830185612a65565b612eb86020830184612dab565b9392505050565b7f4e6565642041646d696e000000000000000000000000000000000000000000005f82015250565b5f612ef3600a836128bf565b9150612efe82612ebf565b602082019050919050565b5f6020820190508181035f830152612f2081612ee7565b9050919050565b7f496e76616c6964206164647265737300000000000000000000000000000000005f82015250565b5f612f5b600f836128bf565b9150612f6682612f27565b602082019050919050565b5f6020820190508181035f830152612f8881612f4f565b9050919050565b7f4e656564205245534355450000000000000000000000000000000000000000005f82015250565b5f612fc3600b836128bf565b9150612fce82612f8f565b602082019050919050565b5f6020820190508181035f830152612ff081612fb7565b9050919050565b5f819050919050565b5f61301a61301561301084612945565b612ff7565b612945565b9050919050565b5f61302b82613000565b9050919050565b5f61303c82613021565b9050919050565b61304c81613032565b82525050565b5f6080820190506130655f830187613043565b6130726020830186612a65565b61307f6040830185612dab565b61308c6060830184612a65565b95945050505050565b7f436f6e74726163743a20436f6e747261637420697320506175736564000000005f82015250565b5f6130c9601c836128bf565b91506130d482613095565b602082019050919050565b5f6020820190508181035f8301526130f6816130bd565b9050919050565b7f436f6e74726163743a204e656564204275726e000000000000000000000000005f82015250565b5f6131316013836128bf565b915061313c826130fd565b602082019050919050565b5f6020820190508181035f83015261315e81613125565b9050919050565b7f4d696e74696e6720746f2064697361626c6564000000000000000000000000005f82015250565b5f6131996013836128bf565b91506131a482613165565b602082019050919050565b5f6020820190508181035f8301526131c68161318d565b9050919050565b7f436f6e74726163743a204e656564204d696e746f0000000000000000000000005f82015250565b5f6132016014836128bf565b915061320c826131cd565b602082019050919050565b5f6020820190508181035f83015261322e816131f5565b9050919050565b7f4e487b71000000000000000000000000000000000000000000000000000000005f52601160045260245ffd5b5f61326c8261299f565b91506132778361299f565b925082820190508082111561328f5761328e613235565b5b92915050565b7f436f6e74726163743a20537570706c79204361702065786365656465640000005f82015250565b5f6132c9601d836128bf565b91506132d482613295565b602082019050919050565b5f6020820190508181035f8301526132f6816132bd565b9050919050565b5f6040820190506133105f830185612dab565b61331d6020830184612a65565b9392505050565b5f61332e82613021565b9050919050565b61333e81613324565b82525050565b5f6060820190506133575f830186613335565b6133646020830185612a65565b6133716040830184612a65565b949350505050565b7f436f6e74726163743a204e656564204275726e66726f6d0000000000000000005f82015250565b5f6133ad6017836128bf565b91506133b882613379565b602082019050919050565b5f6020820190508181035f8301526133da816133a1565b9050919050565b5f6060820190506133f45f830186612dab565b6134016020830185612a65565b61340e6040830184612dab565b949350505050565b7f4d696e74696e672064697361626c6564000000000000000000000000000000005f82015250565b5f61344a6010836128bf565b915061345582613416565b602082019050919050565b5f6020820190508181035f8301526134778161343e565b9050919050565b7f436f6e74726163743a204e656564204d696e74000000000000000000000000005f82015250565b5f6134b26013836128bf565b91506134bd8261347e565b602082019050919050565b5f6020820190508181035f8301526134df816134a6565b9050919050565b7f4e65656420537570706c790000000000000000000000000000000000000000005f82015250565b5f61351a600b836128bf565b9150613525826134e6565b602082019050919050565b5f6020820190508181035f8301526135478161350e565b9050919050565b7f436f6e74726163743a20537570706c792043617020746f6f206c6f77000000005f82015250565b5f613582601c836128bf565b915061358d8261354e565b602082019050919050565b5f6020820190508181035f8301526135af81613576565b9050919050565b7f5265656e7472616e637947756172643a207265656e7472616e742063616c6c005f82015250565b5f6135ea601f836128bf565b91506135f5826135b6565b602082019050919050565b5f6020820190508181035f830152613617816135de565b9050919050565b5f6040820190506136315f830185612dab565b61363e6020830184612b3b565b9392505050565b5f8151905061365381612a10565b92915050565b5f6020828403121561366e5761366d6127fe565b5b5f61367b84828501613645565b91505092915050565b5f6060820190506136975f830186612dab565b6136a46020830185612a65565b6136b16040830184612a65565b949350505050565b5f81519050919050565b5f81905092915050565b5f6136d7826136b9565b6136e181856136c3565b93506136f18185602086016128cf565b80840191505092915050565b5f61370882846136cd565b91508190509291505056fea264697066735822122080b674cc755c7de8ae8962d81bc7e5de88ec0d20390e5865b0db8a8289f8c0cd64736f6c634300081a0033",
			"opcodes": "PUSH1 0x80 PUSH1 0x40 MSTORE PUSH7 0x11C37937E08000 PUSH1 0x9 SSTORE CALLVALUE DUP1 ISZERO PUSH2 0x1A JUMPI PUSH0 DUP1 REVERT JUMPDEST POP PUSH1 0x40 MLOAD PUSH2 0x4353 CODESIZE SUB DUP1 PUSH2 0x4353 DUP4 CODECOPY DUP2 DUP2 ADD PUSH1 0x40 MSTORE DUP2 ADD SWAP1 PUSH2 0x3C SWAP2 SWAP1 PUSH2 0x76C JUMP JUMPDEST PUSH1 0x40 MLOAD DUP1 PUSH1 0x40 ADD PUSH1 0x40 MSTORE DUP1 PUSH1 0x5 DUP2 MSTORE PUSH1 0x20 ADD PUSH32 0x546F6B656E000000000000000000000000000000000000000000000000000000 DUP2 MSTORE POP PUSH1 0x40 MLOAD DUP1 PUSH1 0x40 ADD PUSH1 0x40 MSTORE DUP1 PUSH1 0x3 DUP2 MSTORE PUSH1 0x20 ADD PUSH32 0x544B4E0000000000000000000000000000000000000000000000000000000000 DUP2 MSTORE POP DUP2 PUSH1 0x3 SWAP1 DUP2 PUSH2 0xB7 SWAP2 SWAP1 PUSH2 0x9D1 JUMP JUMPDEST POP DUP1 PUSH1 0x4 SWAP1 DUP2 PUSH2 0xC7 SWAP2 SWAP1 PUSH2 0x9D1 JUMP JUMPDEST POP POP POP PUSH1 0x1 PUSH1 0x6 DUP2 SWAP1 SSTORE POP PUSH11 0x84595161401484A000000 PUSH1 0x7 DUP2 SWAP1 SSTORE POP PUSH0 PUSH1 0xA PUSH1 0x1 PUSH2 0x100 EXP DUP2 SLOAD DUP2 PUSH1 0xFF MUL NOT AND SWAP1 DUP4 ISZERO ISZERO MUL OR SWAP1 SSTORE POP PUSH0 PUSH1 0xA PUSH1 0x2 PUSH2 0x100 EXP DUP2 SLOAD DUP2 PUSH1 0xFF MUL NOT AND SWAP1 DUP4 ISZERO ISZERO MUL OR SWAP1 SSTORE POP DUP1 PUSH1 0x8 PUSH0 PUSH2 0x100 EXP DUP2 SLOAD DUP2 PUSH20 0xFFFFFFFFFFFFFFFFFFFFFFFFFFFFFFFFFFFFFFFF MUL NOT AND SWAP1 DUP4 PUSH20 0xFFFFFFFFFFFFFFFFFFFFFFFFFFFFFFFFFFFFFFFF AND MUL OR SWAP1 SSTORE POP PUSH2 0x177 PUSH0 DUP1 SHL PUSH2 0x16C PUSH2 0x25F PUSH1 0x20 SHL PUSH1 0x20 SHR JUMP JUMPDEST PUSH2 0x266 PUSH1 0x20 SHL PUSH1 0x20 SHR JUMP JUMPDEST POP PUSH2 0x1B5 PUSH32 0xAE6C2FC584631AF4C9385B8A55683F1A75C813747E27EFEF5AFECE31C6B230D3 PUSH2 0x1AA PUSH2 0x25F PUSH1 0x20 SHL PUSH1 0x20 SHR JUMP JUMPDEST PUSH2 0x266 PUSH1 0x20 SHL PUSH1 0x20 SHR JUMP JUMPDEST POP PUSH2 0x1F3 PUSH32 0x8C66330D9D4F6ABA064F25EF2A307366EA6D917616F44C075AA60FA15E5CB1CB PUSH2 0x1E8 PUSH2 0x25F PUSH1 0x20 SHL PUSH1 0x20 SHR JUMP JUMPDEST PUSH2 0x266 PUSH1 0x20 SHL PUSH1 0x20 SHR JUMP JUMPDEST POP PUSH2 0x231 PUSH32 0x9EDFAD36E7D4D9DA54B4F78F22BF97CB5B58BB7998294A4288DA41C15C647C45 PUSH2 0x226 PUSH2 0x25F PUSH1 0x20 SHL PUSH1 0x20 SHR JUMP JUMPDEST PUSH2 0x266 PUSH1 0x20 SHL PUSH1 0x20 SHR JUMP JUMPDEST POP PUSH2 0x259 PUSH2 0x243 PUSH2 0x25F PUSH1 0x20 SHL PUSH1 0x20 SHR JUMP JUMPDEST PUSH10 0xD3C21BCECCEDA1000000 PUSH2 0x35C PUSH1 0x20 SHL PUSH1 0x20 SHR JUMP JUMPDEST POP PUSH2 0xBFD JUMP JUMPDEST PUSH0 CALLER SWAP1 POP SWAP1 JUMP JUMPDEST PUSH0 PUSH2 0x277 DUP4 DUP4 PUSH2 0x3E1 PUSH1 0x20 SHL PUSH1 0x20 SHR JUMP JUMPDEST PUSH2 0x352 JUMPI PUSH1 0x1 PUSH1 0x5 PUSH0 DUP6 DUP2 MSTORE PUSH1 0x20 ADD SWAP1 DUP2 MSTORE PUSH1 0x20 ADD PUSH0 KECCAK256 PUSH0 ADD PUSH0 DUP5 PUSH20 0xFFFFFFFFFFFFFFFFFFFFFFFFFFFFFFFFFFFFFFFF AND PUSH20 0xFFFFFFFFFFFFFFFFFFFFFFFFFFFFFFFFFFFFFFFF AND DUP2 MSTORE PUSH1 0x20 ADD SWAP1 DUP2 MSTORE PUSH1 0x20 ADD PUSH0 KECCAK256 PUSH0 PUSH2 0x100 EXP DUP2 SLOAD DUP2 PUSH1 0xFF MUL NOT AND SWAP1 DUP4 ISZERO ISZERO MUL OR SWAP1 SSTORE POP PUSH2 0x2EF PUSH2 0x25F PUSH1 0x20 SHL PUSH1 0x20 SHR JUMP JUMPDEST PUSH20 0xFFFFFFFFFFFFFFFFFFFFFFFFFFFFFFFFFFFFFFFF AND DUP3 PUSH20 0xFFFFFFFFFFFFFFFFFFFFFFFFFFFFFFFFFFFFFFFF AND DUP5 PUSH32 0x2F8788117E7EFF1D82E926EC794901D17C78024A50270940304540A733656F0D PUSH1 0x40 MLOAD PUSH1 0x40 MLOAD DUP1 SWAP2 SUB SWAP1 LOG4 PUSH1 0x1 SWAP1 POP PUSH2 0x356 JUMP JUMPDEST PUSH0 SWAP1 POP JUMPDEST SWAP3 SWAP2 POP POP JUMP JUMPDEST PUSH0 PUSH20 0xFFFFFFFFFFFFFFFFFFFFFFFFFFFFFFFFFFFFFFFF AND DUP3 PUSH20 0xFFFFFFFFFFFFFFFFFFFFFFFFFFFFFFFFFFFFFFFF AND SUB PUSH2 0x3CC JUMPI PUSH0 PUSH1 0x40 MLOAD PUSH32 0xEC442F0500000000000000000000000000000000000000000000000000000000 DUP2 MSTORE PUSH1 0x4 ADD PUSH2 0x3C3 SWAP2 SWAP1 PUSH2 0xAAF JUMP JUMPDEST PUSH1 0x40 MLOAD DUP1 SWAP2 SUB SWAP1 REVERT JUMPDEST PUSH2 0x3DD PUSH0 DUP4 DUP4 PUSH2 0x445 PUSH1 0x20 SHL PUSH1 0x20 SHR JUMP JUMPDEST POP POP JUMP JUMPDEST PUSH0 PUSH1 0x5 PUSH0 DUP5 DUP2 MSTORE PUSH1 0x20 ADD SWAP1 DUP2 MSTORE PUSH1 0x20 ADD PUSH0 KECCAK256 PUSH0 ADD PUSH0 DUP4 PUSH20 0xFFFFFFFFFFFFFFFFFFFFFFFFFFFFFFFFFFFFFFFF AND PUSH20 0xFFFFFFFFFFFFFFFFFFFFFFFFFFFFFFFFFFFFFFFF AND DUP2 MSTORE PUSH1 0x20 ADD SWAP1 DUP2 MSTORE PUSH1 0x20 ADD PUSH0 KECCAK256 PUSH0 SWAP1 SLOAD SWAP1 PUSH2 0x100 EXP SWAP1 DIV PUSH1 0xFF AND SWAP1 POP SWAP3 SWAP2 POP POP JUMP JUMPDEST PUSH0 PUSH20 0xFFFFFFFFFFFFFFFFFFFFFFFFFFFFFFFFFFFFFFFF AND DUP4 PUSH20 0xFFFFFFFFFFFFFFFFFFFFFFFFFFFFFFFFFFFFFFFF AND SUB PUSH2 0x4D6 JUMPI PUSH1 0x7 SLOAD DUP2 PUSH2 0x48A PUSH2 0x4EC PUSH1 0x20 SHL PUSH1 0x20 SHR JUMP JUMPDEST PUSH2 0x494 SWAP2 SWAP1 PUSH2 0xAF5 JUMP JUMPDEST GT ISZERO PUSH2 0x4D5 JUMPI PUSH1 0x40 MLOAD PUSH32 0x8C379A000000000000000000000000000000000000000000000000000000000 DUP2 MSTORE PUSH1 0x4 ADD PUSH2 0x4CC SWAP1 PUSH2 0xB82 JUMP JUMPDEST PUSH1 0x40 MLOAD DUP1 SWAP2 SUB SWAP1 REVERT JUMPDEST JUMPDEST PUSH2 0x4E7 DUP4 DUP4 DUP4 PUSH2 0x4F5 PUSH1 0x20 SHL PUSH1 0x20 SHR JUMP JUMPDEST POP POP POP JUMP JUMPDEST PUSH0 PUSH1 0x2 SLOAD SWAP1 POP SWAP1 JUMP JUMPDEST PUSH0 PUSH20 0xFFFFFFFFFFFFFFFFFFFFFFFFFFFFFFFFFFFFFFFF AND DUP4 PUSH20 0xFFFFFFFFFFFFFFFFFFFFFFFFFFFFFFFFFFFFFFFF AND SUB PUSH2 0x545 JUMPI DUP1 PUSH1 0x2 PUSH0 DUP3 DUP3 SLOAD PUSH2 0x539 SWAP2 SWAP1 PUSH2 0xAF5 JUMP JUMPDEST SWAP3 POP POP DUP2 SWAP1 SSTORE POP PUSH2 0x613 JUMP JUMPDEST PUSH0 DUP1 PUSH0 DUP6 PUSH20 0xFFFFFFFFFFFFFFFFFFFFFFFFFFFFFFFFFFFFFFFF AND PUSH20 0xFFFFFFFFFFFFFFFFFFFFFFFFFFFFFFFFFFFFFFFF AND DUP2 MSTORE PUSH1 0x20 ADD SWAP1 DUP2 MSTORE PUSH1 0x20 ADD PUSH0 KECCAK256 SLOAD SWAP1 POP DUP2 DUP2 LT ISZERO PUSH2 0x5CE JUMPI DUP4 DUP2 DUP4 PUSH1 0x40 MLOAD PUSH32 0xE450D38C00000000000000000000000000000000000000000000000000000000 DUP2 MSTORE PUSH1 0x4 ADD PUSH2 0x5C5 SWAP4 SWAP3 SWAP2 SWAP1 PUSH2 0xBAF JUMP JUMPDEST PUSH1 0x40 MLOAD DUP1 SWAP2 SUB SWAP1 REVERT JUMPDEST DUP2 DUP2 SUB PUSH0 DUP1 DUP7 PUSH20 0xFFFFFFFFFFFFFFFFFFFFFFFFFFFFFFFFFFFFFFFF AND PUSH20 0xFFFFFFFFFFFFFFFFFFFFFFFFFFFFFFFFFFFFFFFF AND DUP2 MSTORE PUSH1 0x20 ADD SWAP1 DUP2 MSTORE PUSH1 0x20 ADD PUSH0 KECCAK256 DUP2 SWAP1 SSTORE POP POP JUMPDEST PUSH0 PUSH20 0xFFFFFFFFFFFFFFFFFFFFFFFFFFFFFFFFFFFFFFFF AND DUP3 PUSH20 0xFFFFFFFFFFFFFFFFFFFFFFFFFFFFFFFFFFFFFFFF AND SUB PUSH2 0x65A JUMPI DUP1 PUSH1 0x2 PUSH0 DUP3 DUP3 SLOAD SUB SWAP3 POP POP DUP2 SWAP1 SSTORE POP PUSH2 0x6A4 JUMP JUMPDEST DUP1 PUSH0 DUP1 DUP5 PUSH20 0xFFFFFFFFFFFFFFFFFFFFFFFFFFFFFFFFFFFFFFFF AND PUSH20 0xFFFFFFFFFFFFFFFFFFFFFFFFFFFFFFFFFFFFFFFF AND DUP2 MSTORE PUSH1 0x20 ADD SWAP1 DUP2 MSTORE PUSH1 0x20 ADD PUSH0 KECCAK256 PUSH0 DUP3 DUP3 SLOAD ADD SWAP3 POP POP DUP2 SWAP1 SSTORE POP JUMPDEST DUP2 PUSH20 0xFFFFFFFFFFFFFFFFFFFFFFFFFFFFFFFFFFFFFFFF AND DUP4 PUSH20 0xFFFFFFFFFFFFFFFFFFFFFFFFFFFFFFFFFFFFFFFF AND PUSH32 0xDDF252AD1BE2C89B69C2B068FC378DAA952BA7F163C4A11628F55A4DF523B3EF DUP4 PUSH1 0x40 MLOAD PUSH2 0x701 SWAP2 SWAP1 PUSH2 0xBE4 JUMP JUMPDEST PUSH1 0x40 MLOAD DUP1 SWAP2 SUB SWAP1 LOG3 POP POP POP JUMP JUMPDEST PUSH0 DUP1 REVERT JUMPDEST PUSH0 PUSH20 0xFFFFFFFFFFFFFFFFFFFFFFFFFFFFFFFFFFFFFFFF DUP3 AND SWAP1 POP SWAP2 SWAP1 POP JUMP JUMPDEST PUSH0 PUSH2 0x73B DUP3 PUSH2 0x712 JUMP JUMPDEST SWAP1 POP SWAP2 SWAP1 POP JUMP JUMPDEST PUSH2 0x74B DUP2 PUSH2 0x731 JUMP JUMPDEST DUP2 EQ PUSH2 0x755 JUMPI PUSH0 DUP1 REVERT JUMPDEST POP JUMP JUMPDEST PUSH0 DUP2 MLOAD SWAP1 POP PUSH2 0x766 DUP2 PUSH2 0x742 JUMP JUMPDEST SWAP3 SWAP2 POP POP JUMP JUMPDEST PUSH0 PUSH1 0x20 DUP3 DUP5 SUB SLT ISZERO PUSH2 0x781 JUMPI PUSH2 0x780 PUSH2 0x70E JUMP JUMPDEST JUMPDEST PUSH0 PUSH2 0x78E DUP5 DUP3 DUP6 ADD PUSH2 0x758 JUMP JUMPDEST SWAP2 POP POP SWAP3 SWAP2 POP POP JUMP JUMPDEST PUSH0 DUP2 MLOAD SWAP1 POP SWAP2 SWAP1 POP JUMP JUMPDEST PUSH32 0x4E487B7100000000000000000000000000000000000000000000000000000000 PUSH0 MSTORE PUSH1 0x41 PUSH1 0x4 MSTORE PUSH1 0x24 PUSH0 REVERT JUMPDEST PUSH32 0x4E487B7100000000000000000000000000000000000000000000000000000000 PUSH0 MSTORE PUSH1 0x22 PUSH1 0x4 MSTORE PUSH1 0x24 PUSH0 REVERT JUMPDEST PUSH0 PUSH1 0x2 DUP3 DIV SWAP1 POP PUSH1 0x1 DUP3 AND DUP1 PUSH2 0x812 JUMPI PUSH1 0x7F DUP3 AND SWAP2 POP JUMPDEST PUSH1 0x20 DUP3 LT DUP2 SUB PUSH2 0x825 JUMPI PUSH2 0x824 PUSH2 0x7CE JUMP JUMPDEST JUMPDEST POP SWAP2 SWAP1 POP JUMP JUMPDEST PUSH0 DUP2 SWAP1 POP DUP2 PUSH0 MSTORE PUSH1 0x20 PUSH0 KECCAK256 SWAP1 POP SWAP2 SWAP1 POP JUMP JUMPDEST PUSH0 PUSH1 0x20 PUSH1 0x1F DUP4 ADD DIV SWAP1 POP SWAP2 SWAP1 POP JUMP JUMPDEST PUSH0 DUP3 DUP3 SHL SWAP1 POP SWAP3 SWAP2 POP POP JUMP JUMPDEST PUSH0 PUSH1 0x8 DUP4 MUL PUSH2 0x887 PUSH32 0xFFFFFFFFFFFFFFFFFFFFFFFFFFFFFFFFFFFFFFFFFFFFFFFFFFFFFFFFFFFFFFFF DUP3 PUSH2 0x84C JUMP JUMPDEST PUSH2 0x891 DUP7 DUP4 PUSH2 0x84C JUMP JUMPDEST SWAP6 POP DUP1 NOT DUP5 AND SWAP4 POP DUP1 DUP7 AND DUP5 OR SWAP3 POP POP POP SWAP4 SWAP3 POP POP POP JUMP JUMPDEST PUSH0 DUP2 SWAP1 POP SWAP2 SWAP1 POP JUMP JUMPDEST PUSH0 DUP2 SWAP1 POP SWAP2 SWAP1 POP JUMP JUMPDEST PUSH0 PUSH2 0x8D5 PUSH2 0x8D0 PUSH2 0x8CB DUP5 PUSH2 0x8A9 JUMP JUMPDEST PUSH2 0x8B2 JUMP JUMPDEST PUSH2 0x8A9 JUMP JUMPDEST SWAP1 POP SWAP2 SWAP1 POP JUMP JUMPDEST PUSH0 DUP2 SWAP1 POP SWAP2 SWAP1 POP JUMP JUMPDEST PUSH2 0x8EE DUP4 PUSH2 0x8BB JUMP JUMPDEST PUSH2 0x902 PUSH2 0x8FA DUP3 PUSH2 0x8DC JUMP JUMPDEST DUP5 DUP5 SLOAD PUSH2 0x858 JUMP JUMPDEST DUP3 SSTORE POP POP POP POP JUMP JUMPDEST PUSH0 SWAP1 JUMP JUMPDEST PUSH2 0x916 PUSH2 0x90A JUMP JUMPDEST PUSH2 0x921 DUP2 DUP5 DUP5 PUSH2 0x8E5 JUMP JUMPDEST POP POP POP JUMP JUMPDEST JUMPDEST DUP2 DUP2 LT ISZERO PUSH2 0x944 JUMPI PUSH2 0x939 PUSH0 DUP3 PUSH2 0x90E JUMP JUMPDEST PUSH1 0x1 DUP2 ADD SWAP1 POP PUSH2 0x927 JUMP JUMPDEST POP POP JUMP JUMPDEST PUSH1 0x1F DUP3 GT ISZERO PUSH2 0x989 JUMPI PUSH2 0x95A DUP2 PUSH2 0x82B JUMP JUMPDEST PUSH2 0x963 DUP5 PUSH2 0x83D JUMP JUMPDEST DUP2 ADD PUSH1 0x20 DUP6 LT ISZERO PUSH2 0x972 JUMPI DUP2 SWAP1 POP JUMPDEST PUSH2 0x986 PUSH2 0x97E DUP6 PUSH2 0x83D JUMP JUMPDEST DUP4 ADD DUP3 PUSH2 0x926 JUMP JUMPDEST POP POP JUMPDEST POP POP POP JUMP JUMPDEST PUSH0 DUP3 DUP3 SHR SWAP1 POP SWAP3 SWAP2 POP POP JUMP JUMPDEST PUSH0 PUSH2 0x9A9 PUSH0 NOT DUP5 PUSH1 0x8 MUL PUSH2 0x98E JUMP JUMPDEST NOT DUP1 DUP4 AND SWAP2 POP POP SWAP3 SWAP2 POP POP JUMP JUMPDEST PUSH0 PUSH2 0x9C1 DUP4 DUP4 PUSH2 0x99A JUMP JUMPDEST SWAP2 POP DUP3 PUSH1 0x2 MUL DUP3 OR SWAP1 POP SWAP3 SWAP2 POP POP JUMP JUMPDEST PUSH2 0x9DA DUP3 PUSH2 0x797 JUMP JUMPDEST PUSH8 0xFFFFFFFFFFFFFFFF DUP2 GT ISZERO PUSH2 0x9F3 JUMPI PUSH2 0x9F2 PUSH2 0x7A1 JUMP JUMPDEST JUMPDEST PUSH2 0x9FD DUP3 SLOAD PUSH2 0x7FB JUMP JUMPDEST PUSH2 0xA08 DUP3 DUP3 DUP6 PUSH2 0x948 JUMP JUMPDEST PUSH0 PUSH1 0x20 SWAP1 POP PUSH1 0x1F DUP4 GT PUSH1 0x1 DUP2 EQ PUSH2 0xA39 JUMPI PUSH0 DUP5 ISZERO PUSH2 0xA27 JUMPI DUP3 DUP8 ADD MLOAD SWAP1 POP JUMPDEST PUSH2 0xA31 DUP6 DUP3 PUSH2 0x9B6 JUMP JUMPDEST DUP7 SSTORE POP PUSH2 0xA98 JUMP JUMPDEST PUSH1 0x1F NOT DUP5 AND PUSH2 0xA47 DUP7 PUSH2 0x82B JUMP JUMPDEST PUSH0 JUMPDEST DUP3 DUP2 LT ISZERO PUSH2 0xA6E JUMPI DUP5 DUP10 ADD MLOAD DUP3 SSTORE PUSH1 0x1 DUP3 ADD SWAP2 POP PUSH1 0x20 DUP6 ADD SWAP5 POP PUSH1 0x20 DUP2 ADD SWAP1 POP PUSH2 0xA49 JUMP JUMPDEST DUP7 DUP4 LT ISZERO PUSH2 0xA8B JUMPI DUP5 DUP10 ADD MLOAD PUSH2 0xA87 PUSH1 0x1F DUP10 AND DUP3 PUSH2 0x99A JUMP JUMPDEST DUP4 SSTORE POP JUMPDEST PUSH1 0x1 PUSH1 0x2 DUP9 MUL ADD DUP9 SSTORE POP POP POP JUMPDEST POP POP POP POP POP POP JUMP JUMPDEST PUSH2 0xAA9 DUP2 PUSH2 0x731 JUMP JUMPDEST DUP3 MSTORE POP POP JUMP JUMPDEST PUSH0 PUSH1 0x20 DUP3 ADD SWAP1 POP PUSH2 0xAC2 PUSH0 DUP4 ADD DUP5 PUSH2 0xAA0 JUMP JUMPDEST SWAP3 SWAP2 POP POP JUMP JUMPDEST PUSH32 0x4E487B7100000000000000000000000000000000000000000000000000000000 PUSH0 MSTORE PUSH1 0x11 PUSH1 0x4 MSTORE PUSH1 0x24 PUSH0 REVERT JUMPDEST PUSH0 PUSH2 0xAFF DUP3 PUSH2 0x8A9 JUMP JUMPDEST SWAP2 POP PUSH2 0xB0A DUP4 PUSH2 0x8A9 JUMP JUMPDEST SWAP3 POP DUP3 DUP3 ADD SWAP1 POP DUP1 DUP3 GT ISZERO PUSH2 0xB22 JUMPI PUSH2 0xB21 PUSH2 0xAC8 JUMP JUMPDEST JUMPDEST SWAP3 SWAP2 POP POP JUMP JUMPDEST PUSH0 DUP3 DUP3 MSTORE PUSH1 0x20 DUP3 ADD SWAP1 POP SWAP3 SWAP2 POP POP JUMP JUMPDEST PUSH32 0x436F6E74726163743A20537570706C7920436170206578636565646564000000 PUSH0 DUP3 ADD MSTORE POP JUMP JUMPDEST PUSH0 PUSH2 0xB6C PUSH1 0x1D DUP4 PUSH2 0xB28 JUMP JUMPDEST SWAP2 POP PUSH2 0xB77 DUP3 PUSH2 0xB38 JUMP JUMPDEST PUSH1 0x20 DUP3 ADD SWAP1 POP SWAP2 SWAP1 POP JUMP JUMPDEST PUSH0 PUSH1 0x20 DUP3 ADD SWAP1 POP DUP2 DUP2 SUB PUSH0 DUP4 ADD MSTORE PUSH2 0xB99 DUP2 PUSH2 0xB60 JUMP JUMPDEST SWAP1 POP SWAP2 SWAP1 POP JUMP JUMPDEST PUSH2 0xBA9 DUP2 PUSH2 0x8A9 JUMP JUMPDEST DUP3 MSTORE POP POP JUMP JUMPDEST PUSH0 PUSH1 0x60 DUP3 ADD SWAP1 POP PUSH2 0xBC2 PUSH0 DUP4 ADD DUP7 PUSH2 0xAA0 JUMP JUMPDEST PUSH2 0xBCF PUSH1 0x20 DUP4 ADD DUP6 PUSH2 0xBA0 JUMP JUMPDEST PUSH2 0xBDC PUSH1 0x40 DUP4 ADD DUP5 PUSH2 0xBA0 JUMP JUMPDEST SWAP5 SWAP4 POP POP POP POP JUMP JUMPDEST PUSH0 PUSH1 0x20 DUP3 ADD SWAP1 POP PUSH2 0xBF7 PUSH0 DUP4 ADD DUP5 PUSH2 0xBA0 JUMP JUMPDEST SWAP3 SWAP2 POP POP JUMP JUMPDEST PUSH2 0x3749 DUP1 PUSH2 0xC0A PUSH0 CODECOPY PUSH0 RETURN INVALID PUSH1 0x80 PUSH1 0x40 MSTORE CALLVALUE DUP1 ISZERO PUSH2 0xF JUMPI PUSH0 DUP1 REVERT JUMPDEST POP PUSH1 0x4 CALLDATASIZE LT PUSH2 0x251 JUMPI PUSH0 CALLDATALOAD PUSH1 0xE0 SHR DUP1 PUSH4 0x79CC6790 GT PUSH2 0x144 JUMPI DUP1 PUSH4 0xA9059CBB GT PUSH2 0xC1 JUMPI DUP1 PUSH4 0xD547741F GT PUSH2 0x85 JUMPI DUP1 PUSH4 0xD547741F EQ PUSH2 0x6E9 JUMPI DUP1 PUSH4 0xDD62ED3E EQ PUSH2 0x705 JUMPI DUP1 PUSH4 0xDEB6DB36 EQ PUSH2 0x735 JUMPI DUP1 PUSH4 0xEA5CB532 EQ PUSH2 0x751 JUMPI DUP1 PUSH4 0xF2250D3D EQ PUSH2 0x76F JUMPI DUP1 PUSH4 0xFBFA77CF EQ PUSH2 0x78B JUMPI PUSH2 0x251 JUMP JUMPDEST DUP1 PUSH4 0xA9059CBB EQ PUSH2 0x631 JUMPI DUP1 PUSH4 0xB6A3F59A EQ PUSH2 0x661 JUMPI DUP1 PUSH4 0xC30796AB EQ PUSH2 0x67D JUMPI DUP1 PUSH4 0xCF820461 EQ PUSH2 0x6AD JUMPI DUP1 PUSH4 0xD1C9F69B EQ PUSH2 0x6CB JUMPI PUSH2 0x251 JUMP JUMPDEST DUP1 PUSH4 0x91D14854 GT PUSH2 0x108 JUMPI DUP1 PUSH4 0x91D14854 EQ PUSH2 0x58B JUMPI DUP1 PUSH4 0x956FECCF EQ PUSH2 0x5BB JUMPI DUP1 PUSH4 0x95D89B41 EQ PUSH2 0x5D9 JUMPI DUP1 PUSH4 0xA0712D68 EQ PUSH2 0x5F7 JUMPI DUP1 PUSH4 0xA217FDDF EQ PUSH2 0x613 JUMPI PUSH2 0x251 JUMP JUMPDEST DUP1 PUSH4 0x79CC6790 EQ PUSH2 0x4F7 JUMPI DUP1 PUSH4 0x7E92A7FD EQ PUSH2 0x513 JUMPI DUP1 PUSH4 0x8D580B9F EQ PUSH2 0x531 JUMPI DUP1 PUSH4 0x8EBED5B1 EQ PUSH2 0x54F JUMPI DUP1 PUSH4 0x8F770AD0 EQ PUSH2 0x56D JUMPI PUSH2 0x251 JUMP JUMPDEST DUP1 PUSH4 0x3F914AEF GT PUSH2 0x1D2 JUMPI DUP1 PUSH4 0x51557289 GT PUSH2 0x196 JUMPI DUP1 PUSH4 0x51557289 EQ PUSH2 0x44F JUMPI DUP1 PUSH4 0x53A4C31E EQ PUSH2 0x46D JUMPI DUP1 PUSH4 0x5C975ABB EQ PUSH2 0x48B JUMPI DUP1 PUSH4 0x6BA77A38 EQ PUSH2 0x4A9 JUMPI DUP1 PUSH4 0x70A08231 EQ PUSH2 0x4C7 JUMPI PUSH2 0x251 JUMP JUMPDEST DUP1 PUSH4 0x3F914AEF EQ PUSH2 0x3C3 JUMPI DUP1 PUSH4 0x41F431FD EQ PUSH2 0x3DF JUMPI DUP1 PUSH4 0x42966C68 EQ PUSH2 0x3FB JUMPI DUP1 PUSH4 0x449A52F8 EQ PUSH2 0x417 JUMPI DUP1 PUSH4 0x48132F48 EQ PUSH2 0x433 JUMPI PUSH2 0x251 JUMP JUMPDEST DUP1 PUSH4 0x23B872DD GT PUSH2 0x219 JUMPI DUP1 PUSH4 0x23B872DD EQ PUSH2 0x30D JUMPI DUP1 PUSH4 0x248A9CA3 EQ PUSH2 0x33D JUMPI DUP1 PUSH4 0x2F2FF15D EQ PUSH2 0x36D JUMPI DUP1 PUSH4 0x313CE567 EQ PUSH2 0x389 JUMPI DUP1 PUSH4 0x36568ABE EQ PUSH2 0x3A7 JUMPI PUSH2 0x251 JUMP JUMPDEST DUP1 PUSH4 0x1FFC9A7 EQ PUSH2 0x255 JUMPI DUP1 PUSH4 0x6FDDE03 EQ PUSH2 0x285 JUMPI DUP1 PUSH4 0x95EA7B3 EQ PUSH2 0x2A3 JUMPI DUP1 PUSH4 0x16C38B3C EQ PUSH2 0x2D3 JUMPI DUP1 PUSH4 0x18160DDD EQ PUSH2 0x2EF JUMPI JUMPDEST PUSH0 DUP1 REVERT JUMPDEST PUSH2 0x26F PUSH1 0x4 DUP1 CALLDATASIZE SUB DUP2 ADD SWAP1 PUSH2 0x26A SWAP2 SWAP1 PUSH2 0x2857 JUMP JUMPDEST PUSH2 0x7A9 JUMP JUMPDEST PUSH1 0x40 MLOAD PUSH2 0x27C SWAP2 SWAP1 PUSH2 0x289C JUMP JUMPDEST PUSH1 0x40 MLOAD DUP1 SWAP2 SUB SWAP1 RETURN JUMPDEST PUSH2 0x28D PUSH2 0x822 JUMP JUMPDEST PUSH1 0x40 MLOAD PUSH2 0x29A SWAP2 SWAP1 PUSH2 0x2925 JUMP JUMPDEST PUSH1 0x40 MLOAD DUP1 SWAP2 SUB SWAP1 RETURN JUMPDEST PUSH2 0x2BD PUSH1 0x4 DUP1 CALLDATASIZE SUB DUP2 ADD SWAP1 PUSH2 0x2B8 SWAP2 SWAP1 PUSH2 0x29D2 JUMP JUMPDEST PUSH2 0x8B2 JUMP JUMPDEST PUSH1 0x40 MLOAD PUSH2 0x2CA SWAP2 SWAP1 PUSH2 0x289C JUMP JUMPDEST PUSH1 0x40 MLOAD DUP1 SWAP2 SUB SWAP1 RETURN JUMPDEST PUSH2 0x2ED PUSH1 0x4 DUP1 CALLDATASIZE SUB DUP2 ADD SWAP1 PUSH2 0x2E8 SWAP2 SWAP1 PUSH2 0x2A3A JUMP JUMPDEST PUSH2 0x8D4 JUMP JUMPDEST STOP JUMPDEST PUSH2 0x2F7 PUSH2 0x9EC JUMP JUMPDEST PUSH1 0x40 MLOAD PUSH2 0x304 SWAP2 SWAP1 PUSH2 0x2A74 JUMP JUMPDEST PUSH1 0x40 MLOAD DUP1 SWAP2 SUB SWAP1 RETURN JUMPDEST PUSH2 0x327 PUSH1 0x4 DUP1 CALLDATASIZE SUB DUP2 ADD SWAP1 PUSH2 0x322 SWAP2 SWAP1 PUSH2 0x2A8D JUMP JUMPDEST PUSH2 0x9F5 JUMP JUMPDEST PUSH1 0x40 MLOAD PUSH2 0x334 SWAP2 SWAP1 PUSH2 0x289C JUMP JUMPDEST PUSH1 0x40 MLOAD DUP1 SWAP2 SUB SWAP1 RETURN JUMPDEST PUSH2 0x357 PUSH1 0x4 DUP1 CALLDATASIZE SUB DUP2 ADD SWAP1 PUSH2 0x352 SWAP2 SWAP1 PUSH2 0x2B10 JUMP JUMPDEST PUSH2 0xAB6 JUMP JUMPDEST PUSH1 0x40 MLOAD PUSH2 0x364 SWAP2 SWAP1 PUSH2 0x2B4A JUMP JUMPDEST PUSH1 0x40 MLOAD DUP1 SWAP2 SUB SWAP1 RETURN JUMPDEST PUSH2 0x387 PUSH1 0x4 DUP1 CALLDATASIZE SUB DUP2 ADD SWAP1 PUSH2 0x382 SWAP2 SWAP1 PUSH2 0x2B63 JUMP JUMPDEST PUSH2 0xAD3 JUMP JUMPDEST STOP JUMPDEST PUSH2 0x391 PUSH2 0xAF5 JUMP JUMPDEST PUSH1 0x40 MLOAD PUSH2 0x39E SWAP2 SWAP1 PUSH2 0x2BBC JUMP JUMPDEST PUSH1 0x40 MLOAD DUP1 SWAP2 SUB SWAP1 RETURN JUMPDEST PUSH2 0x3C1 PUSH1 0x4 DUP1 CALLDATASIZE SUB DUP2 ADD SWAP1 PUSH2 0x3BC SWAP2 SWAP1 PUSH2 0x2B63 JUMP JUMPDEST PUSH2 0xAFD JUMP JUMPDEST STOP JUMPDEST PUSH2 0x3DD PUSH1 0x4 DUP1 CALLDATASIZE SUB DUP2 ADD SWAP1 PUSH2 0x3D8 SWAP2 SWAP1 PUSH2 0x2BD5 JUMP JUMPDEST PUSH2 0xB78 JUMP JUMPDEST STOP JUMPDEST PUSH2 0x3F9 PUSH1 0x4 DUP1 CALLDATASIZE SUB DUP2 ADD SWAP1 PUSH2 0x3F4 SWAP2 SWAP1 PUSH2 0x2C4E JUMP JUMPDEST PUSH2 0xCA7 JUMP JUMPDEST STOP JUMPDEST PUSH2 0x415 PUSH1 0x4 DUP1 CALLDATASIZE SUB DUP2 ADD SWAP1 PUSH2 0x410 SWAP2 SWAP1 PUSH2 0x2C9E JUMP JUMPDEST PUSH2 0xD8D JUMP JUMPDEST STOP JUMPDEST PUSH2 0x431 PUSH1 0x4 DUP1 CALLDATASIZE SUB DUP2 ADD SWAP1 PUSH2 0x42C SWAP2 SWAP1 PUSH2 0x29D2 JUMP JUMPDEST PUSH2 0xEA0 JUMP JUMPDEST STOP JUMPDEST PUSH2 0x44D PUSH1 0x4 DUP1 CALLDATASIZE SUB DUP2 ADD SWAP1 PUSH2 0x448 SWAP2 SWAP1 PUSH2 0x2D04 JUMP JUMPDEST PUSH2 0x104D JUMP JUMPDEST STOP JUMPDEST PUSH2 0x457 PUSH2 0x1149 JUMP JUMPDEST PUSH1 0x40 MLOAD PUSH2 0x464 SWAP2 SWAP1 PUSH2 0x2B4A JUMP JUMPDEST PUSH1 0x40 MLOAD DUP1 SWAP2 SUB SWAP1 RETURN JUMPDEST PUSH2 0x475 PUSH2 0x116D JUMP JUMPDEST PUSH1 0x40 MLOAD PUSH2 0x482 SWAP2 SWAP1 PUSH2 0x2B4A JUMP JUMPDEST PUSH1 0x40 MLOAD DUP1 SWAP2 SUB SWAP1 RETURN JUMPDEST PUSH2 0x493 PUSH2 0x1191 JUMP JUMPDEST PUSH1 0x40 MLOAD PUSH2 0x4A0 SWAP2 SWAP1 PUSH2 0x289C JUMP JUMPDEST PUSH1 0x40 MLOAD DUP1 SWAP2 SUB SWAP1 RETURN JUMPDEST PUSH2 0x4B1 PUSH2 0x11A3 JUMP JUMPDEST PUSH1 0x40 MLOAD PUSH2 0x4BE SWAP2 SWAP1 PUSH2 0x2B4A JUMP JUMPDEST PUSH1 0x40 MLOAD DUP1 SWAP2 SUB SWAP1 RETURN JUMPDEST PUSH2 0x4E1 PUSH1 0x4 DUP1 CALLDATASIZE SUB DUP2 ADD SWAP1 PUSH2 0x4DC SWAP2 SWAP1 PUSH2 0x2D42 JUMP JUMPDEST PUSH2 0x11C7 JUMP JUMPDEST PUSH1 0x40 MLOAD PUSH2 0x4EE SWAP2 SWAP1 PUSH2 0x2A74 JUMP JUMPDEST PUSH1 0x40 MLOAD DUP1 SWAP2 SUB SWAP1 RETURN JUMPDEST PUSH2 0x511 PUSH1 0x4 DUP1 CALLDATASIZE SUB DUP2 ADD SWAP1 PUSH2 0x50C SWAP2 SWAP1 PUSH2 0x29D2 JUMP JUMPDEST PUSH2 0x120C JUMP JUMPDEST STOP JUMPDEST PUSH2 0x51B PUSH2 0x131B JUMP JUMPDEST PUSH1 0x40 MLOAD PUSH2 0x528 SWAP2 SWAP1 PUSH2 0x2B4A JUMP JUMPDEST PUSH1 0x40 MLOAD DUP1 SWAP2 SUB SWAP1 RETURN JUMPDEST PUSH2 0x539 PUSH2 0x133F JUMP JUMPDEST PUSH1 0x40 MLOAD PUSH2 0x546 SWAP2 SWAP1 PUSH2 0x2B4A JUMP JUMPDEST PUSH1 0x40 MLOAD DUP1 SWAP2 SUB SWAP1 RETURN JUMPDEST PUSH2 0x557 PUSH2 0x1363 JUMP JUMPDEST PUSH1 0x40 MLOAD PUSH2 0x564 SWAP2 SWAP1 PUSH2 0x2B4A JUMP JUMPDEST PUSH1 0x40 MLOAD DUP1 SWAP2 SUB SWAP1 RETURN JUMPDEST PUSH2 0x575 PUSH2 0x1387 JUMP JUMPDEST PUSH1 0x40 MLOAD PUSH2 0x582 SWAP2 SWAP1 PUSH2 0x2A74 JUMP JUMPDEST PUSH1 0x40 MLOAD DUP1 SWAP2 SUB SWAP1 RETURN JUMPDEST PUSH2 0x5A5 PUSH1 0x4 DUP1 CALLDATASIZE SUB DUP2 ADD SWAP1 PUSH2 0x5A0 SWAP2 SWAP1 PUSH2 0x2B63 JUMP JUMPDEST PUSH2 0x1390 JUMP JUMPDEST PUSH1 0x40 MLOAD PUSH2 0x5B2 SWAP2 SWAP1 PUSH2 0x289C JUMP JUMPDEST PUSH1 0x40 MLOAD DUP1 SWAP2 SUB SWAP1 RETURN JUMPDEST PUSH2 0x5C3 PUSH2 0x13F4 JUMP JUMPDEST PUSH1 0x40 MLOAD PUSH2 0x5D0 SWAP2 SWAP1 PUSH2 0x289C JUMP JUMPDEST PUSH1 0x40 MLOAD DUP1 SWAP2 SUB SWAP1 RETURN JUMPDEST PUSH2 0x5E1 PUSH2 0x1407 JUMP JUMPDEST PUSH1 0x40 MLOAD PUSH2 0x5EE SWAP2 SWAP1 PUSH2 0x2925 JUMP JUMPDEST PUSH1 0x40 MLOAD DUP1 SWAP2 SUB SWAP1 RETURN JUMPDEST PUSH2 0x611 PUSH1 0x4 DUP1 CALLDATASIZE SUB DUP2 ADD SWAP1 PUSH2 0x60C SWAP2 SWAP1 PUSH2 0x2C9E JUMP JUMPDEST PUSH2 0x1497 JUMP JUMPDEST STOP JUMPDEST PUSH2 0x61B PUSH2 0x1648 JUMP JUMPDEST PUSH1 0x40 MLOAD PUSH2 0x628 SWAP2 SWAP1 PUSH2 0x2B4A JUMP JUMPDEST PUSH1 0x40 MLOAD DUP1 SWAP2 SUB SWAP1 RETURN JUMPDEST PUSH2 0x64B PUSH1 0x4 DUP1 CALLDATASIZE SUB DUP2 ADD SWAP1 PUSH2 0x646 SWAP2 SWAP1 PUSH2 0x29D2 JUMP JUMPDEST PUSH2 0x164E JUMP JUMPDEST PUSH1 0x40 MLOAD PUSH2 0x658 SWAP2 SWAP1 PUSH2 0x289C JUMP JUMPDEST PUSH1 0x40 MLOAD DUP1 SWAP2 SUB SWAP1 RETURN JUMPDEST PUSH2 0x67B PUSH1 0x4 DUP1 CALLDATASIZE SUB DUP2 ADD SWAP1 PUSH2 0x676 SWAP2 SWAP1 PUSH2 0x2C9E JUMP JUMPDEST PUSH2 0x170E JUMP JUMPDEST STOP JUMPDEST PUSH2 0x697 PUSH1 0x4 DUP1 CALLDATASIZE SUB DUP2 ADD SWAP1 PUSH2 0x692 SWAP2 SWAP1 PUSH2 0x2D42 JUMP JUMPDEST PUSH2 0x1861 JUMP JUMPDEST PUSH1 0x40 MLOAD PUSH2 0x6A4 SWAP2 SWAP1 PUSH2 0x289C JUMP JUMPDEST PUSH1 0x40 MLOAD DUP1 SWAP2 SUB SWAP1 RETURN JUMPDEST PUSH2 0x6B5 PUSH2 0x187E JUMP JUMPDEST PUSH1 0x40 MLOAD PUSH2 0x6C2 SWAP2 SWAP1 PUSH2 0x2A74 JUMP JUMPDEST PUSH1 0x40 MLOAD DUP1 SWAP2 SUB SWAP1 RETURN JUMPDEST PUSH2 0x6D3 PUSH2 0x1884 JUMP JUMPDEST PUSH1 0x40 MLOAD PUSH2 0x6E0 SWAP2 SWAP1 PUSH2 0x289C JUMP JUMPDEST PUSH1 0x40 MLOAD DUP1 SWAP2 SUB SWAP1 RETURN JUMPDEST PUSH2 0x703 PUSH1 0x4 DUP1 CALLDATASIZE SUB DUP2 ADD SWAP1 PUSH2 0x6FE SWAP2 SWAP1 PUSH2 0x2B63 JUMP JUMPDEST PUSH2 0x1897 JUMP JUMPDEST STOP JUMPDEST PUSH2 0x71F PUSH1 0x4 DUP1 CALLDATASIZE SUB DUP2 ADD SWAP1 PUSH2 0x71A SWAP2 SWAP1 PUSH2 0x2D6D JUMP JUMPDEST PUSH2 0x18B9 JUMP JUMPDEST PUSH1 0x40 MLOAD PUSH2 0x72C SWAP2 SWAP1 PUSH2 0x2A74 JUMP JUMPDEST PUSH1 0x40 MLOAD DUP1 SWAP2 SUB SWAP1 RETURN JUMPDEST PUSH2 0x74F PUSH1 0x4 DUP1 CALLDATASIZE SUB DUP2 ADD SWAP1 PUSH2 0x74A SWAP2 SWAP1 PUSH2 0x2A3A JUMP JUMPDEST PUSH2 0x193B JUMP JUMPDEST STOP JUMPDEST PUSH2 0x759 PUSH2 0x1A54 JUMP JUMPDEST PUSH1 0x40 MLOAD PUSH2 0x766 SWAP2 SWAP1 PUSH2 0x2B4A JUMP JUMPDEST PUSH1 0x40 MLOAD DUP1 SWAP2 SUB SWAP1 RETURN JUMPDEST PUSH2 0x789 PUSH1 0x4 DUP1 CALLDATASIZE SUB DUP2 ADD SWAP1 PUSH2 0x784 SWAP2 SWAP1 PUSH2 0x2A3A JUMP JUMPDEST PUSH2 0x1A78 JUMP JUMPDEST STOP JUMPDEST PUSH2 0x793 PUSH2 0x1B91 JUMP JUMPDEST PUSH1 0x40 MLOAD PUSH2 0x7A0 SWAP2 SWAP1 PUSH2 0x2DBA JUMP JUMPDEST PUSH1 0x40 MLOAD DUP1 SWAP2 SUB SWAP1 RETURN JUMPDEST PUSH0 PUSH32 0x7965DB0B00000000000000000000000000000000000000000000000000000000 PUSH28 0xFFFFFFFFFFFFFFFFFFFFFFFFFFFFFFFFFFFFFFFFFFFFFFFFFFFFFFFF NOT AND DUP3 PUSH28 0xFFFFFFFFFFFFFFFFFFFFFFFFFFFFFFFFFFFFFFFFFFFFFFFFFFFFFFFF NOT AND EQ DUP1 PUSH2 0x81B JUMPI POP PUSH2 0x81A DUP3 PUSH2 0x1BB6 JUMP JUMPDEST JUMPDEST SWAP1 POP SWAP2 SWAP1 POP JUMP JUMPDEST PUSH1 0x60 PUSH1 0x3 DUP1 SLOAD PUSH2 0x831 SWAP1 PUSH2 0x2E00 JUMP JUMPDEST DUP1 PUSH1 0x1F ADD PUSH1 0x20 DUP1 SWAP2 DIV MUL PUSH1 0x20 ADD PUSH1 0x40 MLOAD SWAP1 DUP2 ADD PUSH1 0x40 MSTORE DUP1 SWAP3 SWAP2 SWAP1 DUP2 DUP2 MSTORE PUSH1 0x20 ADD DUP3 DUP1 SLOAD PUSH2 0x85D SWAP1 PUSH2 0x2E00 JUMP JUMPDEST DUP1 ISZERO PUSH2 0x8A8 JUMPI DUP1 PUSH1 0x1F LT PUSH2 0x87F JUMPI PUSH2 0x100 DUP1 DUP4 SLOAD DIV MUL DUP4 MSTORE SWAP2 PUSH1 0x20 ADD SWAP2 PUSH2 0x8A8 JUMP JUMPDEST DUP3 ADD SWAP2 SWAP1 PUSH0 MSTORE PUSH1 0x20 PUSH0 KECCAK256 SWAP1 JUMPDEST DUP2 SLOAD DUP2 MSTORE SWAP1 PUSH1 0x1 ADD SWAP1 PUSH1 0x20 ADD DUP1 DUP4 GT PUSH2 0x88B JUMPI DUP3 SWAP1 SUB PUSH1 0x1F AND DUP3 ADD SWAP2 JUMPDEST POP POP POP POP POP SWAP1 POP SWAP1 JUMP JUMPDEST PUSH0 DUP1 PUSH2 0x8BC PUSH2 0x1C1F JUMP JUMPDEST SWAP1 POP PUSH2 0x8C9 DUP2 DUP6 DUP6 PUSH2 0x1C26 JUMP JUMPDEST PUSH1 0x1 SWAP2 POP POP SWAP3 SWAP2 POP POP JUMP JUMPDEST PUSH2 0x905 PUSH32 0xAE6C2FC584631AF4C9385B8A55683F1A75C813747E27EFEF5AFECE31C6B230D3 PUSH2 0x900 PUSH2 0x1C1F JUMP JUMPDEST PUSH2 0x1390 JUMP JUMPDEST PUSH2 0x944 JUMPI PUSH1 0x40 MLOAD PUSH32 0x8C379A000000000000000000000000000000000000000000000000000000000 DUP2 MSTORE PUSH1 0x4 ADD PUSH2 0x93B SWAP1 PUSH2 0x2E7A JUMP JUMPDEST PUSH1 0x40 MLOAD DUP1 SWAP2 SUB SWAP1 REVERT JUMPDEST DUP1 PUSH1 0xA PUSH0 PUSH2 0x100 EXP DUP2 SLOAD DUP2 PUSH1 0xFF MUL NOT AND SWAP1 DUP4 ISZERO ISZERO MUL OR SWAP1 SSTORE POP DUP1 ISZERO PUSH2 0x9A8 JUMPI PUSH32 0xD8C9C5623123DF8E137854C59A08F9084B75609FE24584228D44FFDCE5AB920A NUMBER PUSH2 0x98D PUSH2 0x1C1F JUMP JUMPDEST PUSH1 0x40 MLOAD PUSH2 0x99B SWAP3 SWAP2 SWAP1 PUSH2 0x2E98 JUMP JUMPDEST PUSH1 0x40 MLOAD DUP1 SWAP2 SUB SWAP1 LOG1 PUSH2 0x9E9 JUMP JUMPDEST PUSH32 0x1E7A7234AD01ED7353BF129217F5C162773639A6CB22773E84BCD5A2B0EF362E NUMBER PUSH2 0x9D2 PUSH2 0x1C1F JUMP JUMPDEST PUSH1 0x40 MLOAD PUSH2 0x9E0 SWAP3 SWAP2 SWAP1 PUSH2 0x2E98 JUMP JUMPDEST PUSH1 0x40 MLOAD DUP1 SWAP2 SUB SWAP1 LOG1 JUMPDEST POP JUMP JUMPDEST PUSH0 PUSH1 0x2 SLOAD SWAP1 POP SWAP1 JUMP JUMPDEST PUSH0 PUSH2 0x9FE PUSH2 0x1C38 JUMP JUMPDEST PUSH0 PUSH2 0xA07 PUSH2 0x1C1F JUMP JUMPDEST SWAP1 POP PUSH1 0xB PUSH0 DUP3 PUSH20 0xFFFFFFFFFFFFFFFFFFFFFFFFFFFFFFFFFFFFFFFF AND PUSH20 0xFFFFFFFFFFFFFFFFFFFFFFFFFFFFFFFFFFFFFFFF AND DUP2 MSTORE PUSH1 0x20 ADD SWAP1 DUP2 MSTORE PUSH1 0x20 ADD PUSH0 KECCAK256 PUSH0 SWAP1 SLOAD SWAP1 PUSH2 0x100 EXP SWAP1 DIV PUSH1 0xFF AND ISZERO PUSH2 0xA68 JUMPI PUSH2 0xA63 DUP6 DUP6 DUP6 PUSH2 0x1C87 JUMP JUMPDEST PUSH2 0xAA2 JUMP JUMPDEST PUSH2 0xA73 DUP6 DUP6 DUP6 PUSH2 0x1C87 JUMP JUMPDEST PUSH2 0xAA1 DUP6 PUSH1 0x8 PUSH0 SWAP1 SLOAD SWAP1 PUSH2 0x100 EXP SWAP1 DIV PUSH20 0xFFFFFFFFFFFFFFFFFFFFFFFFFFFFFFFFFFFFFFFF AND PUSH1 0x9 SLOAD PUSH2 0x1C87 JUMP JUMPDEST JUMPDEST PUSH1 0x1 SWAP2 POP POP PUSH2 0xAAF PUSH2 0x1D77 JUMP JUMPDEST SWAP4 SWAP3 POP POP POP JUMP JUMPDEST PUSH0 PUSH1 0x5 PUSH0 DUP4 DUP2 MSTORE PUSH1 0x20 ADD SWAP1 DUP2 MSTORE PUSH1 0x20 ADD PUSH0 KECCAK256 PUSH1 0x1 ADD SLOAD SWAP1 POP SWAP2 SWAP1 POP JUMP JUMPDEST PUSH2 0xADC DUP3 PUSH2 0xAB6 JUMP JUMPDEST PUSH2 0xAE5 DUP2 PUSH2 0x1D81 JUMP JUMPDEST PUSH2 0xAEF DUP4 DUP4 PUSH2 0x1D95 JUMP JUMPDEST POP POP POP POP JUMP JUMPDEST PUSH0 PUSH1 0x12 SWAP1 POP SWAP1 JUMP JUMPDEST PUSH2 0xB05 PUSH2 0x1C1F JUMP JUMPDEST PUSH20 0xFFFFFFFFFFFFFFFFFFFFFFFFFFFFFFFFFFFFFFFF AND DUP2 PUSH20 0xFFFFFFFFFFFFFFFFFFFFFFFFFFFFFFFFFFFFFFFF AND EQ PUSH2 0xB69 JUMPI PUSH1 0x40 MLOAD PUSH32 0x6697B23200000000000000000000000000000000000000000000000000000000 DUP2 MSTORE PUSH1 0x4 ADD PUSH1 0x40 MLOAD DUP1 SWAP2 SUB SWAP1 REVERT JUMPDEST PUSH2 0xB73 DUP3 DUP3 PUSH2 0x1E7F JUMP JUMPDEST POP POP POP JUMP JUMPDEST PUSH2 0xBA2 PUSH32 0xAE6C2FC584631AF4C9385B8A55683F1A75C813747E27EFEF5AFECE31C6B230D3 CALLER PUSH2 0x1390 JUMP JUMPDEST PUSH2 0xBE1 JUMPI PUSH1 0x40 MLOAD PUSH32 0x8C379A000000000000000000000000000000000000000000000000000000000 DUP2 MSTORE PUSH1 0x4 ADD PUSH2 0xBD8 SWAP1 PUSH2 0x2F09 JUMP JUMPDEST PUSH1 0x40 MLOAD DUP1 SWAP2 SUB SWAP1 REVERT JUMPDEST PUSH0 PUSH20 0xFFFFFFFFFFFFFFFFFFFFFFFFFFFFFFFFFFFFFFFF AND DUP3 PUSH20 0xFFFFFFFFFFFFFFFFFFFFFFFFFFFFFFFFFFFFFFFF AND SUB PUSH2 0xC4F JUMPI PUSH1 0x40 MLOAD PUSH32 0x8C379A000000000000000000000000000000000000000000000000000000000 DUP2 MSTORE PUSH1 0x4 ADD PUSH2 0xC46 SWAP1 PUSH2 0x2F71 JUMP JUMPDEST PUSH1 0x40 MLOAD DUP1 SWAP2 SUB SWAP1 REVERT JUMPDEST DUP1 PUSH1 0xB PUSH0 DUP5 PUSH20 0xFFFFFFFFFFFFFFFFFFFFFFFFFFFFFFFFFFFFFFFF AND PUSH20 0xFFFFFFFFFFFFFFFFFFFFFFFFFFFFFFFFFFFFFFFF AND DUP2 MSTORE PUSH1 0x20 ADD SWAP1 DUP2 MSTORE PUSH1 0x20 ADD PUSH0 KECCAK256 PUSH0 PUSH2 0x100 EXP DUP2 SLOAD DUP2 PUSH1 0xFF MUL NOT AND SWAP1 DUP4 ISZERO ISZERO MUL OR SWAP1 SSTORE POP POP POP JUMP JUMPDEST PUSH2 0xCAF PUSH2 0x1C38 JUMP JUMPDEST PUSH2 0xCD9 PUSH32 0x508F8F8BE8F5DBCB88F4F4500430B8B3684C471ED936F31FEA912C78AD46A6B9 CALLER PUSH2 0x1390 JUMP JUMPDEST PUSH2 0xD18 JUMPI PUSH1 0x40 MLOAD PUSH32 0x8C379A000000000000000000000000000000000000000000000000000000000 DUP2 MSTORE PUSH1 0x4 ADD PUSH2 0xD0F SWAP1 PUSH2 0x2FD9 JUMP JUMPDEST PUSH1 0x40 MLOAD DUP1 SWAP2 SUB SWAP1 REVERT JUMPDEST PUSH2 0xD43 DUP3 DUP3 DUP6 PUSH20 0xFFFFFFFFFFFFFFFFFFFFFFFFFFFFFFFFFFFFFFFF AND PUSH2 0x1F69 SWAP1 SWAP3 SWAP2 SWAP1 PUSH4 0xFFFFFFFF AND JUMP JUMPDEST PUSH32 0x494215F965756BBC8B7F57ADDD2A0EBDBCE467A4999F8320C67ADC1771885D7B DUP4 NUMBER DUP5 DUP5 PUSH1 0x40 MLOAD PUSH2 0xD78 SWAP5 SWAP4 SWAP3 SWAP2 SWAP1 PUSH2 0x3052 JUMP JUMPDEST PUSH1 0x40 MLOAD DUP1 SWAP2 SUB SWAP1 LOG1 PUSH2 0xD88 PUSH2 0x1D77 JUMP JUMPDEST POP POP POP JUMP JUMPDEST PUSH1 0xA PUSH0 SWAP1 SLOAD SWAP1 PUSH2 0x100 EXP SWAP1 DIV PUSH1 0xFF AND ISZERO PUSH2 0xDDC JUMPI PUSH1 0x40 MLOAD PUSH32 0x8C379A000000000000000000000000000000000000000000000000000000000 DUP2 MSTORE PUSH1 0x4 ADD PUSH2 0xDD3 SWAP1 PUSH2 0x30DF JUMP JUMPDEST PUSH1 0x40 MLOAD DUP1 SWAP2 SUB SWAP1 REVERT JUMPDEST PUSH2 0xE0D PUSH32 0x9EDFAD36E7D4D9DA54B4F78F22BF97CB5B58BB7998294A4288DA41C15C647C45 PUSH2 0xE08 PUSH2 0x1C1F JUMP JUMPDEST PUSH2 0x1390 JUMP JUMPDEST PUSH2 0xE4C JUMPI PUSH1 0x40 MLOAD PUSH32 0x8C379A000000000000000000000000000000000000000000000000000000000 DUP2 MSTORE PUSH1 0x4 ADD PUSH2 0xE43 SWAP1 PUSH2 0x3147 JUMP JUMPDEST PUSH1 0x40 MLOAD DUP1 SWAP2 SUB SWAP1 REVERT JUMPDEST PUSH32 0x63706707D038997D2210EB026BB1339397DEAB463921538A81BB98E69EE54CA8 DUP2 PUSH2 0xE76 PUSH2 0x1C1F JUMP JUMPDEST PUSH1 0x40 MLOAD PUSH2 0xE84 SWAP3 SWAP2 SWAP1 PUSH2 0x2E98 JUMP JUMPDEST PUSH1 0x40 MLOAD DUP1 SWAP2 SUB SWAP1 LOG1 PUSH2 0xE9D PUSH2 0xE97 PUSH2 0x1C1F JUMP JUMPDEST DUP3 PUSH2 0x1FE8 JUMP JUMPDEST POP JUMP JUMPDEST PUSH1 0xA PUSH0 SWAP1 SLOAD SWAP1 PUSH2 0x100 EXP SWAP1 DIV PUSH1 0xFF AND ISZERO PUSH2 0xEEF JUMPI PUSH1 0x40 MLOAD PUSH32 0x8C379A000000000000000000000000000000000000000000000000000000000 DUP2 MSTORE PUSH1 0x4 ADD PUSH2 0xEE6 SWAP1 PUSH2 0x30DF JUMP JUMPDEST PUSH1 0x40 MLOAD DUP1 SWAP2 SUB SWAP1 REVERT JUMPDEST PUSH1 0xA PUSH1 0x2 SWAP1 SLOAD SWAP1 PUSH2 0x100 EXP SWAP1 DIV PUSH1 0xFF AND ISZERO PUSH2 0xF3F JUMPI PUSH1 0x40 MLOAD PUSH32 0x8C379A000000000000000000000000000000000000000000000000000000000 DUP2 MSTORE PUSH1 0x4 ADD PUSH2 0xF36 SWAP1 PUSH2 0x31AF JUMP JUMPDEST PUSH1 0x40 MLOAD DUP1 SWAP2 SUB SWAP1 REVERT JUMPDEST PUSH2 0xF70 PUSH32 0x7D800F56A05ADCB6245DF540492A560D0E668AAC15EE6C7DD40668064913DA33 PUSH2 0xF6B PUSH2 0x1C1F JUMP JUMPDEST PUSH2 0x1390 JUMP JUMPDEST PUSH2 0xFAF JUMPI PUSH1 0x40 MLOAD PUSH32 0x8C379A000000000000000000000000000000000000000000000000000000000 DUP2 MSTORE PUSH1 0x4 ADD PUSH2 0xFA6 SWAP1 PUSH2 0x3217 JUMP JUMPDEST PUSH1 0x40 MLOAD DUP1 SWAP2 SUB SWAP1 REVERT JUMPDEST PUSH1 0x7 SLOAD DUP2 PUSH2 0xFBB PUSH2 0x9EC JUMP JUMPDEST PUSH2 0xFC5 SWAP2 SWAP1 PUSH2 0x3262 JUMP JUMPDEST GT ISZERO PUSH2 0x1006 JUMPI PUSH1 0x40 MLOAD PUSH32 0x8C379A000000000000000000000000000000000000000000000000000000000 DUP2 MSTORE PUSH1 0x4 ADD PUSH2 0xFFD SWAP1 PUSH2 0x32DF JUMP JUMPDEST PUSH1 0x40 MLOAD DUP1 SWAP2 SUB SWAP1 REVERT JUMPDEST PUSH32 0xE98063832B4FF0356868961B75F7F49B096B14EA066C9725301AD197F2F63147 DUP3 DUP3 PUSH1 0x40 MLOAD PUSH2 0x1037 SWAP3 SWAP2 SWAP1 PUSH2 0x32FD JUMP JUMPDEST PUSH1 0x40 MLOAD DUP1 SWAP2 SUB SWAP1 LOG1 PUSH2 0x1049 DUP3 DUP3 PUSH2 0x2067 JUMP JUMPDEST POP POP JUMP JUMPDEST PUSH2 0x1055 PUSH2 0x1C38 JUMP JUMPDEST PUSH2 0x107F PUSH32 0x508F8F8BE8F5DBCB88F4F4500430B8B3684C471ED936F31FEA912C78AD46A6B9 CALLER PUSH2 0x1390 JUMP JUMPDEST PUSH2 0x10BE JUMPI PUSH1 0x40 MLOAD PUSH32 0x8C379A000000000000000000000000000000000000000000000000000000000 DUP2 MSTORE PUSH1 0x4 ADD PUSH2 0x10B5 SWAP1 PUSH2 0x2FD9 JUMP JUMPDEST PUSH1 0x40 MLOAD DUP1 SWAP2 SUB SWAP1 REVERT JUMPDEST DUP2 PUSH20 0xFFFFFFFFFFFFFFFFFFFFFFFFFFFFFFFFFFFFFFFF AND PUSH2 0x8FC DUP3 SWAP1 DUP2 ISZERO MUL SWAP1 PUSH1 0x40 MLOAD PUSH0 PUSH1 0x40 MLOAD DUP1 DUP4 SUB DUP2 DUP6 DUP9 DUP9 CALL SWAP4 POP POP POP POP ISZERO DUP1 ISZERO PUSH2 0x1101 JUMPI RETURNDATASIZE PUSH0 DUP1 RETURNDATACOPY RETURNDATASIZE PUSH0 REVERT JUMPDEST POP PUSH32 0x3B1C0368C81E47D03164182DC6F9FCF4F5E4B3BD9462D74960D729F73138CE36 DUP3 NUMBER DUP4 PUSH1 0x40 MLOAD PUSH2 0x1135 SWAP4 SWAP3 SWAP2 SWAP1 PUSH2 0x3344 JUMP JUMPDEST PUSH1 0x40 MLOAD DUP1 SWAP2 SUB SWAP1 LOG1 PUSH2 0x1145 PUSH2 0x1D77 JUMP JUMPDEST POP POP JUMP JUMPDEST PUSH32 0xAE6C2FC584631AF4C9385B8A55683F1A75C813747E27EFEF5AFECE31C6B230D3 DUP2 JUMP JUMPDEST PUSH32 0x9EDFAD36E7D4D9DA54B4F78F22BF97CB5B58BB7998294A4288DA41C15C647C45 DUP2 JUMP JUMPDEST PUSH1 0xA PUSH0 SWAP1 SLOAD SWAP1 PUSH2 0x100 EXP SWAP1 DIV PUSH1 0xFF AND DUP2 JUMP JUMPDEST PUSH32 0xC8A3BEFA5973FF6E159AFC769978D92F26BAE29C51A73D11C9112A05B68D25E6 DUP2 JUMP JUMPDEST PUSH0 DUP1 PUSH0 DUP4 PUSH20 0xFFFFFFFFFFFFFFFFFFFFFFFFFFFFFFFFFFFFFFFF AND PUSH20 0xFFFFFFFFFFFFFFFFFFFFFFFFFFFFFFFFFFFFFFFF AND DUP2 MSTORE PUSH1 0x20 ADD SWAP1 DUP2 MSTORE PUSH1 0x20 ADD PUSH0 KECCAK256 SLOAD SWAP1 POP SWAP2 SWAP1 POP JUMP JUMPDEST PUSH1 0xA PUSH0 SWAP1 SLOAD SWAP1 PUSH2 0x100 EXP SWAP1 DIV PUSH1 0xFF AND ISZERO PUSH2 0x125B JUMPI PUSH1 0x40 MLOAD PUSH32 0x8C379A000000000000000000000000000000000000000000000000000000000 DUP2 MSTORE PUSH1 0x4 ADD PUSH2 0x1252 SWAP1 PUSH2 0x30DF JUMP JUMPDEST PUSH1 0x40 MLOAD DUP1 SWAP2 SUB SWAP1 REVERT JUMPDEST PUSH2 0x128C PUSH32 0xC8A3BEFA5973FF6E159AFC769978D92F26BAE29C51A73D11C9112A05B68D25E6 PUSH2 0x1287 PUSH2 0x1C1F JUMP JUMPDEST PUSH2 0x1390 JUMP JUMPDEST PUSH2 0x12CB JUMPI PUSH1 0x40 MLOAD PUSH32 0x8C379A000000000000000000000000000000000000000000000000000000000 DUP2 MSTORE PUSH1 0x4 ADD PUSH2 0x12C2 SWAP1 PUSH2 0x33C3 JUMP JUMPDEST PUSH1 0x40 MLOAD DUP1 SWAP2 SUB SWAP1 REVERT JUMPDEST PUSH32 0xE419CE2AAB145A1FEAF5893BB6A9478F9282415BBD81C76D5CFFF2D4F13431DD DUP3 DUP3 PUSH2 0x12F6 PUSH2 0x1C1F JUMP JUMPDEST PUSH1 0x40 MLOAD PUSH2 0x1305 SWAP4 SWAP3 SWAP2 SWAP1 PUSH2 0x33E1 JUMP JUMPDEST PUSH1 0x40 MLOAD DUP1 SWAP2 SUB SWAP1 LOG1 PUSH2 0x1317 DUP3 DUP3 PUSH2 0x1FE8 JUMP JUMPDEST POP POP JUMP JUMPDEST PUSH32 0x7D800F56A05ADCB6245DF540492A560D0E668AAC15EE6C7DD40668064913DA33 DUP2 JUMP JUMPDEST PUSH32 0x508F8F8BE8F5DBCB88F4F4500430B8B3684C471ED936F31FEA912C78AD46A6B9 DUP2 JUMP JUMPDEST PUSH32 0x8C66330D9D4F6ABA064F25EF2A307366EA6D917616F44C075AA60FA15E5CB1CB DUP2 JUMP JUMPDEST PUSH0 PUSH1 0x7 SLOAD SWAP1 POP SWAP1 JUMP JUMPDEST PUSH0 PUSH1 0x5 PUSH0 DUP5 DUP2 MSTORE PUSH1 0x20 ADD SWAP1 DUP2 MSTORE PUSH1 0x20 ADD PUSH0 KECCAK256 PUSH0 ADD PUSH0 DUP4 PUSH20 0xFFFFFFFFFFFFFFFFFFFFFFFFFFFFFFFFFFFFFFFF AND PUSH20 0xFFFFFFFFFFFFFFFFFFFFFFFFFFFFFFFFFFFFFFFF AND DUP2 MSTORE PUSH1 0x20 ADD SWAP1 DUP2 MSTORE PUSH1 0x20 ADD PUSH0 KECCAK256 PUSH0 SWAP1 SLOAD SWAP1 PUSH2 0x100 EXP SWAP1 DIV PUSH1 0xFF AND SWAP1 POP SWAP3 SWAP2 POP POP JUMP JUMPDEST PUSH1 0xA PUSH1 0x1 SWAP1 SLOAD SWAP1 PUSH2 0x100 EXP SWAP1 DIV PUSH1 0xFF AND DUP2 JUMP JUMPDEST PUSH1 0x60 PUSH1 0x4 DUP1 SLOAD PUSH2 0x1416 SWAP1 PUSH2 0x2E00 JUMP JUMPDEST DUP1 PUSH1 0x1F ADD PUSH1 0x20 DUP1 SWAP2 DIV MUL PUSH1 0x20 ADD PUSH1 0x40 MLOAD SWAP1 DUP2 ADD PUSH1 0x40 MSTORE DUP1 SWAP3 SWAP2 SWAP1 DUP2 DUP2 MSTORE PUSH1 0x20 ADD DUP3 DUP1 SLOAD PUSH2 0x1442 SWAP1 PUSH2 0x2E00 JUMP JUMPDEST DUP1 ISZERO PUSH2 0x148D JUMPI DUP1 PUSH1 0x1F LT PUSH2 0x1464 JUMPI PUSH2 0x100 DUP1 DUP4 SLOAD DIV MUL DUP4 MSTORE SWAP2 PUSH1 0x20 ADD SWAP2 PUSH2 0x148D JUMP JUMPDEST DUP3 ADD SWAP2 SWAP1 PUSH0 MSTORE PUSH1 0x20 PUSH0 KECCAK256 SWAP1 JUMPDEST DUP2 SLOAD DUP2 MSTORE SWAP1 PUSH1 0x1 ADD SWAP1 PUSH1 0x20 ADD DUP1 DUP4 GT PUSH2 0x1470 JUMPI DUP3 SWAP1 SUB PUSH1 0x1F AND DUP3 ADD SWAP2 JUMPDEST POP POP POP POP POP SWAP1 POP SWAP1 JUMP JUMPDEST PUSH1 0xA PUSH0 SWAP1 SLOAD SWAP1 PUSH2 0x100 EXP SWAP1 DIV PUSH1 0xFF AND ISZERO PUSH2 0x14E6 JUMPI PUSH1 0x40 MLOAD PUSH32 0x8C379A000000000000000000000000000000000000000000000000000000000 DUP2 MSTORE PUSH1 0x4 ADD PUSH2 0x14DD SWAP1 PUSH2 0x30DF JUMP JUMPDEST PUSH1 0x40 MLOAD DUP1 SWAP2 SUB SWAP1 REVERT JUMPDEST PUSH1 0xA PUSH1 0x1 SWAP1 SLOAD SWAP1 PUSH2 0x100 EXP SWAP1 DIV PUSH1 0xFF AND ISZERO PUSH2 0x1536 JUMPI PUSH1 0x40 MLOAD PUSH32 0x8C379A000000000000000000000000000000000000000000000000000000000 DUP2 MSTORE PUSH1 0x4 ADD PUSH2 0x152D SWAP1 PUSH2 0x3460 JUMP JUMPDEST PUSH1 0x40 MLOAD DUP1 SWAP2 SUB SWAP1 REVERT JUMPDEST PUSH2 0x1567 PUSH32 0x8C66330D9D4F6ABA064F25EF2A307366EA6D917616F44C075AA60FA15E5CB1CB PUSH2 0x1562 PUSH2 0x1C1F JUMP JUMPDEST PUSH2 0x1390 JUMP JUMPDEST PUSH2 0x15A6 JUMPI PUSH1 0x40 MLOAD PUSH32 0x8C379A000000000000000000000000000000000000000000000000000000000 DUP2 MSTORE PUSH1 0x4 ADD PUSH2 0x159D SWAP1 PUSH2 0x34C8 JUMP JUMPDEST PUSH1 0x40 MLOAD DUP1 SWAP2 SUB SWAP1 REVERT JUMPDEST PUSH1 0x7 SLOAD DUP2 PUSH2 0x15B2 PUSH2 0x9EC JUMP JUMPDEST PUSH2 0x15BC SWAP2 SWAP1 PUSH2 0x3262 JUMP JUMPDEST GT ISZERO PUSH2 0x15FD JUMPI PUSH1 0x40 MLOAD PUSH32 0x8C379A000000000000000000000000000000000000000000000000000000000 DUP2 MSTORE PUSH1 0x4 ADD PUSH2 0x15F4 SWAP1 PUSH2 0x32DF JUMP JUMPDEST PUSH1 0x40 MLOAD DUP1 SWAP2 SUB SWAP1 REVERT JUMPDEST PUSH32 0x772F66A00A405709C30E7F18FEADCC8F123B20C09C7260165D3EEC36C9F21372 DUP2 PUSH1 0x40 MLOAD PUSH2 0x162C SWAP2 SWAP1 PUSH2 0x2A74 JUMP JUMPDEST PUSH1 0x40 MLOAD DUP1 SWAP2 SUB SWAP1 LOG1 PUSH2 0x1645 PUSH2 0x163F PUSH2 0x1C1F JUMP JUMPDEST DUP3 PUSH2 0x2067 JUMP JUMPDEST POP JUMP JUMPDEST PUSH0 DUP1 SHL DUP2 JUMP JUMPDEST PUSH0 PUSH2 0x1657 PUSH2 0x1C38 JUMP JUMPDEST PUSH0 PUSH2 0x1660 PUSH2 0x1C1F JUMP JUMPDEST SWAP1 POP PUSH1 0xB PUSH0 DUP3 PUSH20 0xFFFFFFFFFFFFFFFFFFFFFFFFFFFFFFFFFFFFFFFF AND PUSH20 0xFFFFFFFFFFFFFFFFFFFFFFFFFFFFFFFFFFFFFFFF AND DUP2 MSTORE PUSH1 0x20 ADD SWAP1 DUP2 MSTORE PUSH1 0x20 ADD PUSH0 KECCAK256 PUSH0 SWAP1 SLOAD SWAP1 PUSH2 0x100 EXP SWAP1 DIV PUSH1 0xFF AND ISZERO PUSH2 0x16C1 JUMPI PUSH2 0x16BC DUP2 DUP6 DUP6 PUSH2 0x1C87 JUMP JUMPDEST PUSH2 0x16FB JUMP JUMPDEST PUSH2 0x16CC DUP2 DUP6 DUP6 PUSH2 0x1C87 JUMP JUMPDEST PUSH2 0x16FA DUP2 PUSH1 0x8 PUSH0 SWAP1 SLOAD SWAP1 PUSH2 0x100 EXP SWAP1 DIV PUSH20 0xFFFFFFFFFFFFFFFFFFFFFFFFFFFFFFFFFFFFFFFF AND PUSH1 0x9 SLOAD PUSH2 0x1C87 JUMP JUMPDEST JUMPDEST PUSH1 0x1 SWAP2 POP POP PUSH2 0x1708 PUSH2 0x1D77 JUMP JUMPDEST SWAP3 SWAP2 POP POP JUMP JUMPDEST PUSH1 0xA PUSH0 SWAP1 SLOAD SWAP1 PUSH2 0x100 EXP SWAP1 DIV PUSH1 0xFF AND ISZERO PUSH2 0x175D JUMPI PUSH1 0x40 MLOAD PUSH32 0x8C379A000000000000000000000000000000000000000000000000000000000 DUP2 MSTORE PUSH1 0x4 ADD PUSH2 0x1754 SWAP1 PUSH2 0x30DF JUMP JUMPDEST PUSH1 0x40 MLOAD DUP1 SWAP2 SUB SWAP1 REVERT JUMPDEST PUSH2 0x178E PUSH32 0xEA4DEFABEB90FA1E79F929D6C8D482FEE8A115926A592B79634D39A67CCE3B62 PUSH2 0x1789 PUSH2 0x1C1F JUMP JUMPDEST PUSH2 0x1390 JUMP JUMPDEST PUSH2 0x17CD JUMPI PUSH1 0x40 MLOAD PUSH32 0x8C379A000000000000000000000000000000000000000000000000000000000 DUP2 MSTORE PUSH1 0x4 ADD PUSH2 0x17C4 SWAP1 PUSH2 0x3530 JUMP JUMPDEST PUSH1 0x40 MLOAD DUP1 SWAP2 SUB SWAP1 REVERT JUMPDEST PUSH2 0x17D5 PUSH2 0x9EC JUMP JUMPDEST DUP2 LT ISZERO PUSH2 0x1817 JUMPI PUSH1 0x40 MLOAD PUSH32 0x8C379A000000000000000000000000000000000000000000000000000000000 DUP2 MSTORE PUSH1 0x4 ADD PUSH2 0x180E SWAP1 PUSH2 0x3598 JUMP JUMPDEST PUSH1 0x40 MLOAD DUP1 SWAP2 SUB SWAP1 REVERT JUMPDEST DUP1 PUSH1 0x7 DUP2 SWAP1 SSTORE POP PUSH32 0xA11CBDEB4D62442FAE7C8EC6286585B17C47ACB7B17BBCAB1BEADCE84BEFA300 DUP2 PUSH2 0x1848 PUSH2 0x1C1F JUMP JUMPDEST PUSH1 0x40 MLOAD PUSH2 0x1856 SWAP3 SWAP2 SWAP1 PUSH2 0x2E98 JUMP JUMPDEST PUSH1 0x40 MLOAD DUP1 SWAP2 SUB SWAP1 LOG1 POP JUMP JUMPDEST PUSH1 0xB PUSH1 0x20 MSTORE DUP1 PUSH0 MSTORE PUSH1 0x40 PUSH0 KECCAK256 PUSH0 SWAP2 POP SLOAD SWAP1 PUSH2 0x100 EXP SWAP1 DIV PUSH1 0xFF AND DUP2 JUMP JUMPDEST PUSH1 0x9 SLOAD DUP2 JUMP JUMPDEST PUSH1 0xA PUSH1 0x2 SWAP1 SLOAD SWAP1 PUSH2 0x100 EXP SWAP1 DIV PUSH1 0xFF AND DUP2 JUMP JUMPDEST PUSH2 0x18A0 DUP3 PUSH2 0xAB6 JUMP JUMPDEST PUSH2 0x18A9 DUP2 PUSH2 0x1D81 JUMP JUMPDEST PUSH2 0x18B3 DUP4 DUP4 PUSH2 0x1E7F JUMP JUMPDEST POP POP POP POP JUMP JUMPDEST PUSH0 PUSH1 0x1 PUSH0 DUP5 PUSH20 0xFFFFFFFFFFFFFFFFFFFFFFFFFFFFFFFFFFFFFFFF AND PUSH20 0xFFFFFFFFFFFFFFFFFFFFFFFFFFFFFFFFFFFFFFFF AND DUP2 MSTORE PUSH1 0x20 ADD SWAP1 DUP2 MSTORE PUSH1 0x20 ADD PUSH0 KECCAK256 PUSH0 DUP4 PUSH20 0xFFFFFFFFFFFFFFFFFFFFFFFFFFFFFFFFFFFFFFFF AND PUSH20 0xFFFFFFFFFFFFFFFFFFFFFFFFFFFFFFFFFFFFFFFF AND DUP2 MSTORE PUSH1 0x20 ADD SWAP1 DUP2 MSTORE PUSH1 0x20 ADD PUSH0 KECCAK256 SLOAD SWAP1 POP SWAP3 SWAP2 POP POP JUMP JUMPDEST PUSH2 0x196C PUSH32 0xAE6C2FC584631AF4C9385B8A55683F1A75C813747E27EFEF5AFECE31C6B230D3 PUSH2 0x1967 PUSH2 0x1C1F JUMP JUMPDEST PUSH2 0x1390 JUMP JUMPDEST PUSH2 0x19AB JUMPI PUSH1 0x40 MLOAD PUSH32 0x8C379A000000000000000000000000000000000000000000000000000000000 DUP2 MSTORE PUSH1 0x4 ADD PUSH2 0x19A2 SWAP1 PUSH2 0x2E7A JUMP JUMPDEST PUSH1 0x40 MLOAD DUP1 SWAP2 SUB SWAP1 REVERT JUMPDEST DUP1 PUSH1 0xA PUSH1 0x1 PUSH2 0x100 EXP DUP2 SLOAD DUP2 PUSH1 0xFF MUL NOT AND SWAP1 DUP4 ISZERO ISZERO MUL OR SWAP1 SSTORE POP DUP1 ISZERO PUSH2 0x1A10 JUMPI PUSH32 0x5668502CA8E7B393C09D1DAC964CA45A27870A78D7BA212B7A189450897CA05F NUMBER PUSH2 0x19F5 PUSH2 0x1C1F JUMP JUMPDEST PUSH1 0x40 MLOAD PUSH2 0x1A03 SWAP3 SWAP2 SWAP1 PUSH2 0x2E98 JUMP JUMPDEST PUSH1 0x40 MLOAD DUP1 SWAP2 SUB SWAP1 LOG1 PUSH2 0x1A51 JUMP JUMPDEST PUSH32 0x98E05482FDB38DF5EB461FB932FA6E1AF90A3569939CE5A8D92D699B102D6402 NUMBER PUSH2 0x1A3A PUSH2 0x1C1F JUMP JUMPDEST PUSH1 0x40 MLOAD PUSH2 0x1A48 SWAP3 SWAP2 SWAP1 PUSH2 0x2E98 JUMP JUMPDEST PUSH1 0x40 MLOAD DUP1 SWAP2 SUB SWAP1 LOG1 JUMPDEST POP JUMP JUMPDEST PUSH32 0xEA4DEFABEB90FA1E79F929D6C8D482FEE8A115926A592B79634D39A67CCE3B62 DUP2 JUMP JUMPDEST PUSH2 0x1AA9 PUSH32 0xAE6C2FC584631AF4C9385B8A55683F1A75C813747E27EFEF5AFECE31C6B230D3 PUSH2 0x1AA4 PUSH2 0x1C1F JUMP JUMPDEST PUSH2 0x1390 JUMP JUMPDEST PUSH2 0x1AE8 JUMPI PUSH1 0x40 MLOAD PUSH32 0x8C379A000000000000000000000000000000000000000000000000000000000 DUP2 MSTORE PUSH1 0x4 ADD PUSH2 0x1ADF SWAP1 PUSH2 0x2F09 JUMP JUMPDEST PUSH1 0x40 MLOAD DUP1 SWAP2 SUB SWAP1 REVERT JUMPDEST DUP1 PUSH1 0xA PUSH1 0x2 PUSH2 0x100 EXP DUP2 SLOAD DUP2 PUSH1 0xFF MUL NOT AND SWAP1 DUP4 ISZERO ISZERO MUL OR SWAP1 SSTORE POP DUP1 ISZERO PUSH2 0x1B4D JUMPI PUSH32 0x218E25F0A7435729F5A66AAE50A9ED0084535A0080300C1C2E8366D8DF7136ED NUMBER PUSH2 0x1B32 PUSH2 0x1C1F JUMP JUMPDEST PUSH1 0x40 MLOAD PUSH2 0x1B40 SWAP3 SWAP2 SWAP1 PUSH2 0x2E98 JUMP JUMPDEST PUSH1 0x40 MLOAD DUP1 SWAP2 SUB SWAP1 LOG1 PUSH2 0x1B8E JUMP JUMPDEST PUSH32 0x41606E1DCEE38320F9EDBFCD642AEAA81BB2140C705DE9D4A7814024A1E9A314 NUMBER PUSH2 0x1B77 PUSH2 0x1C1F JUMP JUMPDEST PUSH1 0x40 MLOAD PUSH2 0x1B85 SWAP3 SWAP2 SWAP1 PUSH2 0x2E98 JUMP JUMPDEST PUSH1 0x40 MLOAD DUP1 SWAP2 SUB SWAP1 LOG1 JUMPDEST POP JUMP JUMPDEST PUSH1 0x8 PUSH0 SWAP1 SLOAD SWAP1 PUSH2 0x100 EXP SWAP1 DIV PUSH20 0xFFFFFFFFFFFFFFFFFFFFFFFFFFFFFFFFFFFFFFFF AND DUP2 JUMP JUMPDEST PUSH0 PUSH32 0x1FFC9A700000000000000000000000000000000000000000000000000000000 PUSH28 0xFFFFFFFFFFFFFFFFFFFFFFFFFFFFFFFFFFFFFFFFFFFFFFFFFFFFFFFF NOT AND DUP3 PUSH28 0xFFFFFFFFFFFFFFFFFFFFFFFFFFFFFFFFFFFFFFFFFFFFFFFFFFFFFFFF NOT AND EQ SWAP1 POP SWAP2 SWAP1 POP JUMP JUMPDEST PUSH0 CALLER SWAP1 POP SWAP1 JUMP JUMPDEST PUSH2 0x1C33 DUP4 DUP4 DUP4 PUSH1 0x1 PUSH2 0x20E6 JUMP JUMPDEST POP POP POP JUMP JUMPDEST PUSH1 0x2 PUSH1 0x6 SLOAD SUB PUSH2 0x1C7D JUMPI PUSH1 0x40 MLOAD PUSH32 0x8C379A000000000000000000000000000000000000000000000000000000000 DUP2 MSTORE PUSH1 0x4 ADD PUSH2 0x1C74 SWAP1 PUSH2 0x3600 JUMP JUMPDEST PUSH1 0x40 MLOAD DUP1 SWAP2 SUB SWAP1 REVERT JUMPDEST PUSH1 0x2 PUSH1 0x6 DUP2 SWAP1 SSTORE POP JUMP JUMPDEST PUSH0 PUSH20 0xFFFFFFFFFFFFFFFFFFFFFFFFFFFFFFFFFFFFFFFF AND DUP4 PUSH20 0xFFFFFFFFFFFFFFFFFFFFFFFFFFFFFFFFFFFFFFFF AND SUB PUSH2 0x1CF7 JUMPI PUSH0 PUSH1 0x40 MLOAD PUSH32 0x96C6FD1E00000000000000000000000000000000000000000000000000000000 DUP2 MSTORE PUSH1 0x4 ADD PUSH2 0x1CEE SWAP2 SWAP1 PUSH2 0x2DBA JUMP JUMPDEST PUSH1 0x40 MLOAD DUP1 SWAP2 SUB SWAP1 REVERT JUMPDEST PUSH0 PUSH20 0xFFFFFFFFFFFFFFFFFFFFFFFFFFFFFFFFFFFFFFFF AND DUP3 PUSH20 0xFFFFFFFFFFFFFFFFFFFFFFFFFFFFFFFFFFFFFFFF AND SUB PUSH2 0x1D67 JUMPI PUSH0 PUSH1 0x40 MLOAD PUSH32 0xEC442F0500000000000000000000000000000000000000000000000000000000 DUP2 MSTORE PUSH1 0x4 ADD PUSH2 0x1D5E SWAP2 SWAP1 PUSH2 0x2DBA JUMP JUMPDEST PUSH1 0x40 MLOAD DUP1 SWAP2 SUB SWAP1 REVERT JUMPDEST PUSH2 0x1D72 DUP4 DUP4 DUP4 PUSH2 0x22B5 JUMP JUMPDEST POP POP POP JUMP JUMPDEST PUSH1 0x1 PUSH1 0x6 DUP2 SWAP1 SSTORE POP JUMP JUMPDEST PUSH2 0x1D92 DUP2 PUSH2 0x1D8D PUSH2 0x1C1F JUMP JUMPDEST PUSH2 0x2350 JUMP JUMPDEST POP JUMP JUMPDEST PUSH0 PUSH2 0x1DA0 DUP4 DUP4 PUSH2 0x1390 JUMP JUMPDEST PUSH2 0x1E75 JUMPI PUSH1 0x1 PUSH1 0x5 PUSH0 DUP6 DUP2 MSTORE PUSH1 0x20 ADD SWAP1 DUP2 MSTORE PUSH1 0x20 ADD PUSH0 KECCAK256 PUSH0 ADD PUSH0 DUP5 PUSH20 0xFFFFFFFFFFFFFFFFFFFFFFFFFFFFFFFFFFFFFFFF AND PUSH20 0xFFFFFFFFFFFFFFFFFFFFFFFFFFFFFFFFFFFFFFFF AND DUP2 MSTORE PUSH1 0x20 ADD SWAP1 DUP2 MSTORE PUSH1 0x20 ADD PUSH0 KECCAK256 PUSH0 PUSH2 0x100 EXP DUP2 SLOAD DUP2 PUSH1 0xFF MUL NOT AND SWAP1 DUP4 ISZERO ISZERO MUL OR SWAP1 SSTORE POP PUSH2 0x1E12 PUSH2 0x1C1F JUMP JUMPDEST PUSH20 0xFFFFFFFFFFFFFFFFFFFFFFFFFFFFFFFFFFFFFFFF AND DUP3 PUSH20 0xFFFFFFFFFFFFFFFFFFFFFFFFFFFFFFFFFFFFFFFF AND DUP5 PUSH32 0x2F8788117E7EFF1D82E926EC794901D17C78024A50270940304540A733656F0D PUSH1 0x40 MLOAD PUSH1 0x40 MLOAD DUP1 SWAP2 SUB SWAP1 LOG4 PUSH1 0x1 SWAP1 POP PUSH2 0x1E79 JUMP JUMPDEST PUSH0 SWAP1 POP JUMPDEST SWAP3 SWAP2 POP POP JUMP JUMPDEST PUSH0 PUSH2 0x1E8A DUP4 DUP4 PUSH2 0x1390 JUMP JUMPDEST ISZERO PUSH2 0x1F5F JUMPI PUSH0 PUSH1 0x5 PUSH0 DUP6 DUP2 MSTORE PUSH1 0x20 ADD SWAP1 DUP2 MSTORE PUSH1 0x20 ADD PUSH0 KECCAK256 PUSH0 ADD PUSH0 DUP5 PUSH20 0xFFFFFFFFFFFFFFFFFFFFFFFFFFFFFFFFFFFFFFFF AND PUSH20 0xFFFFFFFFFFFFFFFFFFFFFFFFFFFFFFFFFFFFFFFF AND DUP2 MSTORE PUSH1 0x20 ADD SWAP1 DUP2 MSTORE PUSH1 0x20 ADD PUSH0 KECCAK256 PUSH0 PUSH2 0x100 EXP DUP2 SLOAD DUP2 PUSH1 0xFF MUL NOT AND SWAP1 DUP4 ISZERO ISZERO MUL OR SWAP1 SSTORE POP PUSH2 0x1EFC PUSH2 0x1C1F JUMP JUMPDEST PUSH20 0xFFFFFFFFFFFFFFFFFFFFFFFFFFFFFFFFFFFFFFFF AND DUP3 PUSH20 0xFFFFFFFFFFFFFFFFFFFFFFFFFFFFFFFFFFFFFFFF AND DUP5 PUSH32 0xF6391F5C32D9C69D2A47EA670B442974B53935D1EDC7FD64EB21E047A839171B PUSH1 0x40 MLOAD PUSH1 0x40 MLOAD DUP1 SWAP2 SUB SWAP1 LOG4 PUSH1 0x1 SWAP1 POP PUSH2 0x1F63 JUMP JUMPDEST PUSH0 SWAP1 POP JUMPDEST SWAP3 SWAP2 POP POP JUMP JUMPDEST PUSH2 0x1FE3 DUP4 DUP5 PUSH20 0xFFFFFFFFFFFFFFFFFFFFFFFFFFFFFFFFFFFFFFFF AND PUSH4 0xA9059CBB DUP6 DUP6 PUSH1 0x40 MLOAD PUSH1 0x24 ADD PUSH2 0x1F9C SWAP3 SWAP2 SWAP1 PUSH2 0x32FD JUMP JUMPDEST PUSH1 0x40 MLOAD PUSH1 0x20 DUP2 DUP4 SUB SUB DUP2 MSTORE SWAP1 PUSH1 0x40 MSTORE SWAP2 POP PUSH1 0xE0 SHL PUSH1 0x20 DUP3 ADD DUP1 MLOAD PUSH28 0xFFFFFFFFFFFFFFFFFFFFFFFFFFFFFFFFFFFFFFFFFFFFFFFFFFFFFFFF DUP4 DUP2 DUP4 AND OR DUP4 MSTORE POP POP POP POP PUSH2 0x23A1 JUMP JUMPDEST POP POP POP JUMP JUMPDEST PUSH0 PUSH20 0xFFFFFFFFFFFFFFFFFFFFFFFFFFFFFFFFFFFFFFFF AND DUP3 PUSH20 0xFFFFFFFFFFFFFFFFFFFFFFFFFFFFFFFFFFFFFFFF AND SUB PUSH2 0x2058 JUMPI PUSH0 PUSH1 0x40 MLOAD PUSH32 0x96C6FD1E00000000000000000000000000000000000000000000000000000000 DUP2 MSTORE PUSH1 0x4 ADD PUSH2 0x204F SWAP2 SWAP1 PUSH2 0x2DBA JUMP JUMPDEST PUSH1 0x40 MLOAD DUP1 SWAP2 SUB SWAP1 REVERT JUMPDEST PUSH2 0x2063 DUP3 PUSH0 DUP4 PUSH2 0x22B5 JUMP JUMPDEST POP POP JUMP JUMPDEST PUSH0 PUSH20 0xFFFFFFFFFFFFFFFFFFFFFFFFFFFFFFFFFFFFFFFF AND DUP3 PUSH20 0xFFFFFFFFFFFFFFFFFFFFFFFFFFFFFFFFFFFFFFFF AND SUB PUSH2 0x20D7 JUMPI PUSH0 PUSH1 0x40 MLOAD PUSH32 0xEC442F0500000000000000000000000000000000000000000000000000000000 DUP2 MSTORE PUSH1 0x4 ADD PUSH2 0x20CE SWAP2 SWAP1 PUSH2 0x2DBA JUMP JUMPDEST PUSH1 0x40 MLOAD DUP1 SWAP2 SUB SWAP1 REVERT JUMPDEST PUSH2 0x20E2 PUSH0 DUP4 DUP4 PUSH2 0x22B5 JUMP JUMPDEST POP POP JUMP JUMPDEST PUSH0 PUSH20 0xFFFFFFFFFFFFFFFFFFFFFFFFFFFFFFFFFFFFFFFF AND DUP5 PUSH20 0xFFFFFFFFFFFFFFFFFFFFFFFFFFFFFFFFFFFFFFFF AND SUB PUSH2 0x2156 JUMPI PUSH0 PUSH1 0x40 MLOAD PUSH32 0xE602DF0500000000000000000000000000000000000000000000000000000000 DUP2 MSTORE PUSH1 0x4 ADD PUSH2 0x214D SWAP2 SWAP1 PUSH2 0x2DBA JUMP JUMPDEST PUSH1 0x40 MLOAD DUP1 SWAP2 SUB SWAP1 REVERT JUMPDEST PUSH0 PUSH20 0xFFFFFFFFFFFFFFFFFFFFFFFFFFFFFFFFFFFFFFFF AND DUP4 PUSH20 0xFFFFFFFFFFFFFFFFFFFFFFFFFFFFFFFFFFFFFFFF AND SUB PUSH2 0x21C6 JUMPI PUSH0 PUSH1 0x40 MLOAD PUSH32 0x94280D6200000000000000000000000000000000000000000000000000000000 DUP2 MSTORE PUSH1 0x4 ADD PUSH2 0x21BD SWAP2 SWAP1 PUSH2 0x2DBA JUMP JUMPDEST PUSH1 0x40 MLOAD DUP1 SWAP2 SUB SWAP1 REVERT JUMPDEST DUP2 PUSH1 0x1 PUSH0 DUP7 PUSH20 0xFFFFFFFFFFFFFFFFFFFFFFFFFFFFFFFFFFFFFFFF AND PUSH20 0xFFFFFFFFFFFFFFFFFFFFFFFFFFFFFFFFFFFFFFFF AND DUP2 MSTORE PUSH1 0x20 ADD SWAP1 DUP2 MSTORE PUSH1 0x20 ADD PUSH0 KECCAK256 PUSH0 DUP6 PUSH20 0xFFFFFFFFFFFFFFFFFFFFFFFFFFFFFFFFFFFFFFFF AND PUSH20 0xFFFFFFFFFFFFFFFFFFFFFFFFFFFFFFFFFFFFFFFF AND DUP2 MSTORE PUSH1 0x20 ADD SWAP1 DUP2 MSTORE PUSH1 0x20 ADD PUSH0 KECCAK256 DUP2 SWAP1 SSTORE POP DUP1 ISZERO PUSH2 0x22AF JUMPI DUP3 PUSH20 0xFFFFFFFFFFFFFFFFFFFFFFFFFFFFFFFFFFFFFFFF AND DUP5 PUSH20 0xFFFFFFFFFFFFFFFFFFFFFFFFFFFFFFFFFFFFFFFF AND PUSH32 0x8C5BE1E5EBEC7D5BD14F71427D1E84F3DD0314C0F7B2291E5B200AC8C7C3B925 DUP5 PUSH1 0x40 MLOAD PUSH2 0x22A6 SWAP2 SWAP1 PUSH2 0x2A74 JUMP JUMPDEST PUSH1 0x40 MLOAD DUP1 SWAP2 SUB SWAP1 LOG3 JUMPDEST POP POP POP POP JUMP JUMPDEST PUSH0 PUSH20 0xFFFFFFFFFFFFFFFFFFFFFFFFFFFFFFFFFFFFFFFF AND DUP4 PUSH20 0xFFFFFFFFFFFFFFFFFFFFFFFFFFFFFFFFFFFFFFFF AND SUB PUSH2 0x2340 JUMPI PUSH1 0x7 SLOAD DUP2 PUSH2 0x22F4 PUSH2 0x9EC JUMP JUMPDEST PUSH2 0x22FE SWAP2 SWAP1 PUSH2 0x3262 JUMP JUMPDEST GT ISZERO PUSH2 0x233F JUMPI PUSH1 0x40 MLOAD PUSH32 0x8C379A000000000000000000000000000000000000000000000000000000000 DUP2 MSTORE PUSH1 0x4 ADD PUSH2 0x2336 SWAP1 PUSH2 0x32DF JUMP JUMPDEST PUSH1 0x40 MLOAD DUP1 SWAP2 SUB SWAP1 REVERT JUMPDEST JUMPDEST PUSH2 0x234B DUP4 DUP4 DUP4 PUSH2 0x2436 JUMP JUMPDEST POP POP POP JUMP JUMPDEST PUSH2 0x235A DUP3 DUP3 PUSH2 0x1390 JUMP JUMPDEST PUSH2 0x239D JUMPI DUP1 DUP3 PUSH1 0x40 MLOAD PUSH32 0xE2517D3F00000000000000000000000000000000000000000000000000000000 DUP2 MSTORE PUSH1 0x4 ADD PUSH2 0x2394 SWAP3 SWAP2 SWAP1 PUSH2 0x361E JUMP JUMPDEST PUSH1 0x40 MLOAD DUP1 SWAP2 SUB SWAP1 REVERT JUMPDEST POP POP JUMP JUMPDEST PUSH0 PUSH2 0x23CB DUP3 DUP5 PUSH20 0xFFFFFFFFFFFFFFFFFFFFFFFFFFFFFFFFFFFFFFFF AND PUSH2 0x264F SWAP1 SWAP2 SWAP1 PUSH4 0xFFFFFFFF AND JUMP JUMPDEST SWAP1 POP PUSH0 DUP2 MLOAD EQ ISZERO DUP1 ISZERO PUSH2 0x23EF JUMPI POP DUP1 DUP1 PUSH1 0x20 ADD SWAP1 MLOAD DUP2 ADD SWAP1 PUSH2 0x23ED SWAP2 SWAP1 PUSH2 0x3659 JUMP JUMPDEST ISZERO JUMPDEST ISZERO PUSH2 0x2431 JUMPI DUP3 PUSH1 0x40 MLOAD PUSH32 0x5274AFE700000000000000000000000000000000000000000000000000000000 DUP2 MSTORE PUSH1 0x4 ADD PUSH2 0x2428 SWAP2 SWAP1 PUSH2 0x2DBA JUMP JUMPDEST PUSH1 0x40 MLOAD DUP1 SWAP2 SUB SWAP1 REVERT JUMPDEST POP POP POP JUMP JUMPDEST PUSH0 PUSH20 0xFFFFFFFFFFFFFFFFFFFFFFFFFFFFFFFFFFFFFFFF AND DUP4 PUSH20 0xFFFFFFFFFFFFFFFFFFFFFFFFFFFFFFFFFFFFFFFF AND SUB PUSH2 0x2486 JUMPI DUP1 PUSH1 0x2 PUSH0 DUP3 DUP3 SLOAD PUSH2 0x247A SWAP2 SWAP1 PUSH2 0x3262 JUMP JUMPDEST SWAP3 POP POP DUP2 SWAP1 SSTORE POP PUSH2 0x2554 JUMP JUMPDEST PUSH0 DUP1 PUSH0 DUP6 PUSH20 0xFFFFFFFFFFFFFFFFFFFFFFFFFFFFFFFFFFFFFFFF AND PUSH20 0xFFFFFFFFFFFFFFFFFFFFFFFFFFFFFFFFFFFFFFFF AND DUP2 MSTORE PUSH1 0x20 ADD SWAP1 DUP2 MSTORE PUSH1 0x20 ADD PUSH0 KECCAK256 SLOAD SWAP1 POP DUP2 DUP2 LT ISZERO PUSH2 0x250F JUMPI DUP4 DUP2 DUP4 PUSH1 0x40 MLOAD PUSH32 0xE450D38C00000000000000000000000000000000000000000000000000000000 DUP2 MSTORE PUSH1 0x4 ADD PUSH2 0x2506 SWAP4 SWAP3 SWAP2 SWAP1 PUSH2 0x3684 JUMP JUMPDEST PUSH1 0x40 MLOAD DUP1 SWAP2 SUB SWAP1 REVERT JUMPDEST DUP2 DUP2 SUB PUSH0 DUP1 DUP7 PUSH20 0xFFFFFFFFFFFFFFFFFFFFFFFFFFFFFFFFFFFFFFFF AND PUSH20 0xFFFFFFFFFFFFFFFFFFFFFFFFFFFFFFFFFFFFFFFF AND DUP2 MSTORE PUSH1 0x20 ADD SWAP1 DUP2 MSTORE PUSH1 0x20 ADD PUSH0 KECCAK256 DUP2 SWAP1 SSTORE POP POP JUMPDEST PUSH0 PUSH20 0xFFFFFFFFFFFFFFFFFFFFFFFFFFFFFFFFFFFFFFFF AND DUP3 PUSH20 0xFFFFFFFFFFFFFFFFFFFFFFFFFFFFFFFFFFFFFFFF AND SUB PUSH2 0x259B JUMPI DUP1 PUSH1 0x2 PUSH0 DUP3 DUP3 SLOAD SUB SWAP3 POP POP DUP2 SWAP1 SSTORE POP PUSH2 0x25E5 JUMP JUMPDEST DUP1 PUSH0 DUP1 DUP5 PUSH20 0xFFFFFFFFFFFFFFFFFFFFFFFFFFFFFFFFFFFFFFFF AND PUSH20 0xFFFFFFFFFFFFFFFFFFFFFFFFFFFFFFFFFFFFFFFF AND DUP2 MSTORE PUSH1 0x20 ADD SWAP1 DUP2 MSTORE PUSH1 0x20 ADD PUSH0 KECCAK256 PUSH0 DUP3 DUP3 SLOAD ADD SWAP3 POP POP DUP2 SWAP1 SSTORE POP JUMPDEST DUP2 PUSH20 0xFFFFFFFFFFFFFFFFFFFFFFFFFFFFFFFFFFFFFFFF AND DUP4 PUSH20 0xFFFFFFFFFFFFFFFFFFFFFFFFFFFFFFFFFFFFFFFF AND PUSH32 0xDDF252AD1BE2C89B69C2B068FC378DAA952BA7F163C4A11628F55A4DF523B3EF DUP4 PUSH1 0x40 MLOAD PUSH2 0x2642 SWAP2 SWAP1 PUSH2 0x2A74 JUMP JUMPDEST PUSH1 0x40 MLOAD DUP1 SWAP2 SUB SWAP1 LOG3 POP POP POP JUMP JUMPDEST PUSH1 0x60 PUSH2 0x265C DUP4 DUP4 PUSH0 PUSH2 0x2664 JUMP JUMPDEST SWAP1 POP SWAP3 SWAP2 POP POP JUMP JUMPDEST PUSH1 0x60 DUP2 SELFBALANCE LT ISZERO PUSH2 0x26AB JUMPI ADDRESS PUSH1 0x40 MLOAD PUSH32 0xCD78605900000000000000000000000000000000000000000000000000000000 DUP2 MSTORE PUSH1 0x4 ADD PUSH2 0x26A2 SWAP2 SWAP1 PUSH2 0x2DBA JUMP JUMPDEST PUSH1 0x40 MLOAD DUP1 SWAP2 SUB SWAP1 REVERT JUMPDEST PUSH0 DUP1 DUP6 PUSH20 0xFFFFFFFFFFFFFFFFFFFFFFFFFFFFFFFFFFFFFFFF AND DUP5 DUP7 PUSH1 0x40 MLOAD PUSH2 0x26D3 SWAP2 SWAP1 PUSH2 0x36FD JUMP JUMPDEST PUSH0 PUSH1 0x40 MLOAD DUP1 DUP4 SUB DUP2 DUP6 DUP8 GAS CALL SWAP3 POP POP POP RETURNDATASIZE DUP1 PUSH0 DUP2 EQ PUSH2 0x270D JUMPI PUSH1 0x40 MLOAD SWAP2 POP PUSH1 0x1F NOT PUSH1 0x3F RETURNDATASIZE ADD AND DUP3 ADD PUSH1 0x40 MSTORE RETURNDATASIZE DUP3 MSTORE RETURNDATASIZE PUSH0 PUSH1 0x20 DUP5 ADD RETURNDATACOPY PUSH2 0x2712 JUMP JUMPDEST PUSH1 0x60 SWAP2 POP JUMPDEST POP SWAP2 POP SWAP2 POP PUSH2 0x2722 DUP7 DUP4 DUP4 PUSH2 0x272D JUMP JUMPDEST SWAP3 POP POP POP SWAP4 SWAP3 POP POP POP JUMP JUMPDEST PUSH1 0x60 DUP3 PUSH2 0x2742 JUMPI PUSH2 0x273D DUP3 PUSH2 0x27BA JUMP JUMPDEST PUSH2 0x27B2 JUMP JUMPDEST PUSH0 DUP3 MLOAD EQ DUP1 ISZERO PUSH2 0x2768 JUMPI POP PUSH0 DUP5 PUSH20 0xFFFFFFFFFFFFFFFFFFFFFFFFFFFFFFFFFFFFFFFF AND EXTCODESIZE EQ JUMPDEST ISZERO PUSH2 0x27AA JUMPI DUP4 PUSH1 0x40 MLOAD PUSH32 0x9996B31500000000000000000000000000000000000000000000000000000000 DUP2 MSTORE PUSH1 0x4 ADD PUSH2 0x27A1 SWAP2 SWAP1 PUSH2 0x2DBA JUMP JUMPDEST PUSH1 0x40 MLOAD DUP1 SWAP2 SUB SWAP1 REVERT JUMPDEST DUP2 SWAP1 POP PUSH2 0x27B3 JUMP JUMPDEST JUMPDEST SWAP4 SWAP3 POP POP POP JUMP JUMPDEST PUSH0 DUP2 MLOAD GT ISZERO PUSH2 0x27CC JUMPI DUP1 MLOAD DUP1 DUP3 PUSH1 0x20 ADD REVERT JUMPDEST PUSH1 0x40 MLOAD PUSH32 0x1425EA4200000000000000000000000000000000000000000000000000000000 DUP2 MSTORE PUSH1 0x4 ADD PUSH1 0x40 MLOAD DUP1 SWAP2 SUB SWAP1 REVERT JUMPDEST PUSH0 DUP1 REVERT JUMPDEST PUSH0 PUSH32 0xFFFFFFFF00000000000000000000000000000000000000000000000000000000 DUP3 AND SWAP1 POP SWAP2 SWAP1 POP JUMP JUMPDEST PUSH2 0x2836 DUP2 PUSH2 0x2802 JUMP JUMPDEST DUP2 EQ PUSH2 0x2840 JUMPI PUSH0 DUP1 REVERT JUMPDEST POP JUMP JUMPDEST PUSH0 DUP2 CALLDATALOAD SWAP1 POP PUSH2 0x2851 DUP2 PUSH2 0x282D JUMP JUMPDEST SWAP3 SWAP2 POP POP JUMP JUMPDEST PUSH0 PUSH1 0x20 DUP3 DUP5 SUB SLT ISZERO PUSH2 0x286C JUMPI PUSH2 0x286B PUSH2 0x27FE JUMP JUMPDEST JUMPDEST PUSH0 PUSH2 0x2879 DUP5 DUP3 DUP6 ADD PUSH2 0x2843 JUMP JUMPDEST SWAP2 POP POP SWAP3 SWAP2 POP POP JUMP JUMPDEST PUSH0 DUP2 ISZERO ISZERO SWAP1 POP SWAP2 SWAP1 POP JUMP JUMPDEST PUSH2 0x2896 DUP2 PUSH2 0x2882 JUMP JUMPDEST DUP3 MSTORE POP POP JUMP JUMPDEST PUSH0 PUSH1 0x20 DUP3 ADD SWAP1 POP PUSH2 0x28AF PUSH0 DUP4 ADD DUP5 PUSH2 0x288D JUMP JUMPDEST SWAP3 SWAP2 POP POP JUMP JUMPDEST PUSH0 DUP2 MLOAD SWAP1 POP SWAP2 SWAP1 POP JUMP JUMPDEST PUSH0 DUP3 DUP3 MSTORE PUSH1 0x20 DUP3 ADD SWAP1 POP SWAP3 SWAP2 POP POP JUMP JUMPDEST DUP3 DUP2 DUP4 MCOPY PUSH0 DUP4 DUP4 ADD MSTORE POP POP POP JUMP JUMPDEST PUSH0 PUSH1 0x1F NOT PUSH1 0x1F DUP4 ADD AND SWAP1 POP SWAP2 SWAP1 POP JUMP JUMPDEST PUSH0 PUSH2 0x28F7 DUP3 PUSH2 0x28B5 JUMP JUMPDEST PUSH2 0x2901 DUP2 DUP6 PUSH2 0x28BF JUMP JUMPDEST SWAP4 POP PUSH2 0x2911 DUP2 DUP6 PUSH1 0x20 DUP7 ADD PUSH2 0x28CF JUMP JUMPDEST PUSH2 0x291A DUP2 PUSH2 0x28DD JUMP JUMPDEST DUP5 ADD SWAP2 POP POP SWAP3 SWAP2 POP POP JUMP JUMPDEST PUSH0 PUSH1 0x20 DUP3 ADD SWAP1 POP DUP2 DUP2 SUB PUSH0 DUP4 ADD MSTORE PUSH2 0x293D DUP2 DUP5 PUSH2 0x28ED JUMP JUMPDEST SWAP1 POP SWAP3 SWAP2 POP POP JUMP JUMPDEST PUSH0 PUSH20 0xFFFFFFFFFFFFFFFFFFFFFFFFFFFFFFFFFFFFFFFF DUP3 AND SWAP1 POP SWAP2 SWAP1 POP JUMP JUMPDEST PUSH0 PUSH2 0x296E DUP3 PUSH2 0x2945 JUMP JUMPDEST SWAP1 POP SWAP2 SWAP1 POP JUMP JUMPDEST PUSH2 0x297E DUP2 PUSH2 0x2964 JUMP JUMPDEST DUP2 EQ PUSH2 0x2988 JUMPI PUSH0 DUP1 REVERT JUMPDEST POP JUMP JUMPDEST PUSH0 DUP2 CALLDATALOAD SWAP1 POP PUSH2 0x2999 DUP2 PUSH2 0x2975 JUMP JUMPDEST SWAP3 SWAP2 POP POP JUMP JUMPDEST PUSH0 DUP2 SWAP1 POP SWAP2 SWAP1 POP JUMP JUMPDEST PUSH2 0x29B1 DUP2 PUSH2 0x299F JUMP JUMPDEST DUP2 EQ PUSH2 0x29BB JUMPI PUSH0 DUP1 REVERT JUMPDEST POP JUMP JUMPDEST PUSH0 DUP2 CALLDATALOAD SWAP1 POP PUSH2 0x29CC DUP2 PUSH2 0x29A8 JUMP JUMPDEST SWAP3 SWAP2 POP POP JUMP JUMPDEST PUSH0 DUP1 PUSH1 0x40 DUP4 DUP6 SUB SLT ISZERO PUSH2 0x29E8 JUMPI PUSH2 0x29E7 PUSH2 0x27FE JUMP JUMPDEST JUMPDEST PUSH0 PUSH2 0x29F5 DUP6 DUP3 DUP7 ADD PUSH2 0x298B JUMP JUMPDEST SWAP3 POP POP PUSH1 0x20 PUSH2 0x2A06 DUP6 DUP3 DUP7 ADD PUSH2 0x29BE JUMP JUMPDEST SWAP2 POP POP SWAP3 POP SWAP3 SWAP1 POP JUMP JUMPDEST PUSH2 0x2A19 DUP2 PUSH2 0x2882 JUMP JUMPDEST DUP2 EQ PUSH2 0x2A23 JUMPI PUSH0 DUP1 REVERT JUMPDEST POP JUMP JUMPDEST PUSH0 DUP2 CALLDATALOAD SWAP1 POP PUSH2 0x2A34 DUP2 PUSH2 0x2A10 JUMP JUMPDEST SWAP3 SWAP2 POP POP JUMP JUMPDEST PUSH0 PUSH1 0x20 DUP3 DUP5 SUB SLT ISZERO PUSH2 0x2A4F JUMPI PUSH2 0x2A4E PUSH2 0x27FE JUMP JUMPDEST JUMPDEST PUSH0 PUSH2 0x2A5C DUP5 DUP3 DUP6 ADD PUSH2 0x2A26 JUMP JUMPDEST SWAP2 POP POP SWAP3 SWAP2 POP POP JUMP JUMPDEST PUSH2 0x2A6E DUP2 PUSH2 0x299F JUMP JUMPDEST DUP3 MSTORE POP POP JUMP JUMPDEST PUSH0 PUSH1 0x20 DUP3 ADD SWAP1 POP PUSH2 0x2A87 PUSH0 DUP4 ADD DUP5 PUSH2 0x2A65 JUMP JUMPDEST SWAP3 SWAP2 POP POP JUMP JUMPDEST PUSH0 DUP1 PUSH0 PUSH1 0x60 DUP5 DUP7 SUB SLT ISZERO PUSH2 0x2AA4 JUMPI PUSH2 0x2AA3 PUSH2 0x27FE JUMP JUMPDEST JUMPDEST PUSH0 PUSH2 0x2AB1 DUP7 DUP3 DUP8 ADD PUSH2 0x298B JUMP JUMPDEST SWAP4 POP POP PUSH1 0x20 PUSH2 0x2AC2 DUP7 DUP3 DUP8 ADD PUSH2 0x298B JUMP JUMPDEST SWAP3 POP POP PUSH1 0x40 PUSH2 0x2AD3 DUP7 DUP3 DUP8 ADD PUSH2 0x29BE JUMP JUMPDEST SWAP2 POP POP SWAP3 POP SWAP3 POP SWAP3 JUMP JUMPDEST PUSH0 DUP2 SWAP1 POP SWAP2 SWAP1 POP JUMP JUMPDEST PUSH2 0x2AEF DUP2 PUSH2 0x2ADD JUMP JUMPDEST DUP2 EQ PUSH2 0x2AF9 JUMPI PUSH0 DUP1 REVERT JUMPDEST POP JUMP JUMPDEST PUSH0 DUP2 CALLDATALOAD SWAP1 POP PUSH2 0x2B0A DUP2 PUSH2 0x2AE6 JUMP JUMPDEST SWAP3 SWAP2 POP POP JUMP JUMPDEST PUSH0 PUSH1 0x20 DUP3 DUP5 SUB SLT ISZERO PUSH2 0x2B25 JUMPI PUSH2 0x2B24 PUSH2 0x27FE JUMP JUMPDEST JUMPDEST PUSH0 PUSH2 0x2B32 DUP5 DUP3 DUP6 ADD PUSH2 0x2AFC JUMP JUMPDEST SWAP2 POP POP SWAP3 SWAP2 POP POP JUMP JUMPDEST PUSH2 0x2B44 DUP2 PUSH2 0x2ADD JUMP JUMPDEST DUP3 MSTORE POP POP JUMP JUMPDEST PUSH0 PUSH1 0x20 DUP3 ADD SWAP1 POP PUSH2 0x2B5D PUSH0 DUP4 ADD DUP5 PUSH2 0x2B3B JUMP JUMPDEST SWAP3 SWAP2 POP POP JUMP JUMPDEST PUSH0 DUP1 PUSH1 0x40 DUP4 DUP6 SUB SLT ISZERO PUSH2 0x2B79 JUMPI PUSH2 0x2B78 PUSH2 0x27FE JUMP JUMPDEST JUMPDEST PUSH0 PUSH2 0x2B86 DUP6 DUP3 DUP7 ADD PUSH2 0x2AFC JUMP JUMPDEST SWAP3 POP POP PUSH1 0x20 PUSH2 0x2B97 DUP6 DUP3 DUP7 ADD PUSH2 0x298B JUMP JUMPDEST SWAP2 POP POP SWAP3 POP SWAP3 SWAP1 POP JUMP JUMPDEST PUSH0 PUSH1 0xFF DUP3 AND SWAP1 POP SWAP2 SWAP1 POP JUMP JUMPDEST PUSH2 0x2BB6 DUP2 PUSH2 0x2BA1 JUMP JUMPDEST DUP3 MSTORE POP POP JUMP JUMPDEST PUSH0 PUSH1 0x20 DUP3 ADD SWAP1 POP PUSH2 0x2BCF PUSH0 DUP4 ADD DUP5 PUSH2 0x2BAD JUMP JUMPDEST SWAP3 SWAP2 POP POP JUMP JUMPDEST PUSH0 DUP1 PUSH1 0x40 DUP4 DUP6 SUB SLT ISZERO PUSH2 0x2BEB JUMPI PUSH2 0x2BEA PUSH2 0x27FE JUMP JUMPDEST JUMPDEST PUSH0 PUSH2 0x2BF8 DUP6 DUP3 DUP7 ADD PUSH2 0x298B JUMP JUMPDEST SWAP3 POP POP PUSH1 0x20 PUSH2 0x2C09 DUP6 DUP3 DUP7 ADD PUSH2 0x2A26 JUMP JUMPDEST SWAP2 POP POP SWAP3 POP SWAP3 SWAP1 POP JUMP JUMPDEST PUSH0 PUSH2 0x2C1D DUP3 PUSH2 0x2964 JUMP JUMPDEST SWAP1 POP SWAP2 SWAP1 POP JUMP JUMPDEST PUSH2 0x2C2D DUP2 PUSH2 0x2C13 JUMP JUMPDEST DUP2 EQ PUSH2 0x2C37 JUMPI PUSH0 DUP1 REVERT JUMPDEST POP JUMP JUMPDEST PUSH0 DUP2 CALLDATALOAD SWAP1 POP PUSH2 0x2C48 DUP2 PUSH2 0x2C24 JUMP JUMPDEST SWAP3 SWAP2 POP POP JUMP JUMPDEST PUSH0 DUP1 PUSH0 PUSH1 0x60 DUP5 DUP7 SUB SLT ISZERO PUSH2 0x2C65 JUMPI PUSH2 0x2C64 PUSH2 0x27FE JUMP JUMPDEST JUMPDEST PUSH0 PUSH2 0x2C72 DUP7 DUP3 DUP8 ADD PUSH2 0x2C3A JUMP JUMPDEST SWAP4 POP POP PUSH1 0x20 PUSH2 0x2C83 DUP7 DUP3 DUP8 ADD PUSH2 0x298B JUMP JUMPDEST SWAP3 POP POP PUSH1 0x40 PUSH2 0x2C94 DUP7 DUP3 DUP8 ADD PUSH2 0x29BE JUMP JUMPDEST SWAP2 POP POP SWAP3 POP SWAP3 POP SWAP3 JUMP JUMPDEST PUSH0 PUSH1 0x20 DUP3 DUP5 SUB SLT ISZERO PUSH2 0x2CB3 JUMPI PUSH2 0x2CB2 PUSH2 0x27FE JUMP JUMPDEST JUMPDEST PUSH0 PUSH2 0x2CC0 DUP5 DUP3 DUP6 ADD PUSH2 0x29BE JUMP JUMPDEST SWAP2 POP POP SWAP3 SWAP2 POP POP JUMP JUMPDEST PUSH0 PUSH2 0x2CD3 DUP3 PUSH2 0x2945 JUMP JUMPDEST SWAP1 POP SWAP2 SWAP1 POP JUMP JUMPDEST PUSH2 0x2CE3 DUP2 PUSH2 0x2CC9 JUMP JUMPDEST DUP2 EQ PUSH2 0x2CED JUMPI PUSH0 DUP1 REVERT JUMPDEST POP JUMP JUMPDEST PUSH0 DUP2 CALLDATALOAD SWAP1 POP PUSH2 0x2CFE DUP2 PUSH2 0x2CDA JUMP JUMPDEST SWAP3 SWAP2 POP POP JUMP JUMPDEST PUSH0 DUP1 PUSH1 0x40 DUP4 DUP6 SUB SLT ISZERO PUSH2 0x2D1A JUMPI PUSH2 0x2D19 PUSH2 0x27FE JUMP JUMPDEST JUMPDEST PUSH0 PUSH2 0x2D27 DUP6 DUP3 DUP7 ADD PUSH2 0x2CF0 JUMP JUMPDEST SWAP3 POP POP PUSH1 0x20 PUSH2 0x2D38 DUP6 DUP3 DUP7 ADD PUSH2 0x29BE JUMP JUMPDEST SWAP2 POP POP SWAP3 POP SWAP3 SWAP1 POP JUMP JUMPDEST PUSH0 PUSH1 0x20 DUP3 DUP5 SUB SLT ISZERO PUSH2 0x2D57 JUMPI PUSH2 0x2D56 PUSH2 0x27FE JUMP JUMPDEST JUMPDEST PUSH0 PUSH2 0x2D64 DUP5 DUP3 DUP6 ADD PUSH2 0x298B JUMP JUMPDEST SWAP2 POP POP SWAP3 SWAP2 POP POP JUMP JUMPDEST PUSH0 DUP1 PUSH1 0x40 DUP4 DUP6 SUB SLT ISZERO PUSH2 0x2D83 JUMPI PUSH2 0x2D82 PUSH2 0x27FE JUMP JUMPDEST JUMPDEST PUSH0 PUSH2 0x2D90 DUP6 DUP3 DUP7 ADD PUSH2 0x298B JUMP JUMPDEST SWAP3 POP POP PUSH1 0x20 PUSH2 0x2DA1 DUP6 DUP3 DUP7 ADD PUSH2 0x298B JUMP JUMPDEST SWAP2 POP POP SWAP3 POP SWAP3 SWAP1 POP JUMP JUMPDEST PUSH2 0x2DB4 DUP2 PUSH2 0x2964 JUMP JUMPDEST DUP3 MSTORE POP POP JUMP JUMPDEST PUSH0 PUSH1 0x20 DUP3 ADD SWAP1 POP PUSH2 0x2DCD PUSH0 DUP4 ADD DUP5 PUSH2 0x2DAB JUMP JUMPDEST SWAP3 SWAP2 POP POP JUMP JUMPDEST PUSH32 0x4E487B7100000000000000000000000000000000000000000000000000000000 PUSH0 MSTORE PUSH1 0x22 PUSH1 0x4 MSTORE PUSH1 0x24 PUSH0 REVERT JUMPDEST PUSH0 PUSH1 0x2 DUP3 DIV SWAP1 POP PUSH1 0x1 DUP3 AND DUP1 PUSH2 0x2E17 JUMPI PUSH1 0x7F DUP3 AND SWAP2 POP JUMPDEST PUSH1 0x20 DUP3 LT DUP2 SUB PUSH2 0x2E2A JUMPI PUSH2 0x2E29 PUSH2 0x2DD3 JUMP JUMPDEST JUMPDEST POP SWAP2 SWAP1 POP JUMP JUMPDEST PUSH32 0x436F6E74726163743A204E6565642041646D696E000000000000000000000000 PUSH0 DUP3 ADD MSTORE POP JUMP JUMPDEST PUSH0 PUSH2 0x2E64 PUSH1 0x14 DUP4 PUSH2 0x28BF JUMP JUMPDEST SWAP2 POP PUSH2 0x2E6F DUP3 PUSH2 0x2E30 JUMP JUMPDEST PUSH1 0x20 DUP3 ADD SWAP1 POP SWAP2 SWAP1 POP JUMP JUMPDEST PUSH0 PUSH1 0x20 DUP3 ADD SWAP1 POP DUP2 DUP2 SUB PUSH0 DUP4 ADD MSTORE PUSH2 0x2E91 DUP2 PUSH2 0x2E58 JUMP JUMPDEST SWAP1 POP SWAP2 SWAP1 POP JUMP JUMPDEST PUSH0 PUSH1 0x40 DUP3 ADD SWAP1 POP PUSH2 0x2EAB PUSH0 DUP4 ADD DUP6 PUSH2 0x2A65 JUMP JUMPDEST PUSH2 0x2EB8 PUSH1 0x20 DUP4 ADD DUP5 PUSH2 0x2DAB JUMP JUMPDEST SWAP4 SWAP3 POP POP POP JUMP JUMPDEST PUSH32 0x4E6565642041646D696E00000000000000000000000000000000000000000000 PUSH0 DUP3 ADD MSTORE POP JUMP JUMPDEST PUSH0 PUSH2 0x2EF3 PUSH1 0xA DUP4 PUSH2 0x28BF JUMP JUMPDEST SWAP2 POP PUSH2 0x2EFE DUP3 PUSH2 0x2EBF JUMP JUMPDEST PUSH1 0x20 DUP3 ADD SWAP1 POP SWAP2 SWAP1 POP JUMP JUMPDEST PUSH0 PUSH1 0x20 DUP3 ADD SWAP1 POP DUP2 DUP2 SUB PUSH0 DUP4 ADD MSTORE PUSH2 0x2F20 DUP2 PUSH2 0x2EE7 JUMP JUMPDEST SWAP1 POP SWAP2 SWAP1 POP JUMP JUMPDEST PUSH32 0x496E76616C696420616464726573730000000000000000000000000000000000 PUSH0 DUP3 ADD MSTORE POP JUMP JUMPDEST PUSH0 PUSH2 0x2F5B PUSH1 0xF DUP4 PUSH2 0x28BF JUMP JUMPDEST SWAP2 POP PUSH2 0x2F66 DUP3 PUSH2 0x2F27 JUMP JUMPDEST PUSH1 0x20 DUP3 ADD SWAP1 POP SWAP2 SWAP1 POP JUMP JUMPDEST PUSH0 PUSH1 0x20 DUP3 ADD SWAP1 POP DUP2 DUP2 SUB PUSH0 DUP4 ADD MSTORE PUSH2 0x2F88 DUP2 PUSH2 0x2F4F JUMP JUMPDEST SWAP1 POP SWAP2 SWAP1 POP JUMP JUMPDEST PUSH32 0x4E65656420524553435545000000000000000000000000000000000000000000 PUSH0 DUP3 ADD MSTORE POP JUMP JUMPDEST PUSH0 PUSH2 0x2FC3 PUSH1 0xB DUP4 PUSH2 0x28BF JUMP JUMPDEST SWAP2 POP PUSH2 0x2FCE DUP3 PUSH2 0x2F8F JUMP JUMPDEST PUSH1 0x20 DUP3 ADD SWAP1 POP SWAP2 SWAP1 POP JUMP JUMPDEST PUSH0 PUSH1 0x20 DUP3 ADD SWAP1 POP DUP2 DUP2 SUB PUSH0 DUP4 ADD MSTORE PUSH2 0x2FF0 DUP2 PUSH2 0x2FB7 JUMP JUMPDEST SWAP1 POP SWAP2 SWAP1 POP JUMP JUMPDEST PUSH0 DUP2 SWAP1 POP SWAP2 SWAP1 POP JUMP JUMPDEST PUSH0 PUSH2 0x301A PUSH2 0x3015 PUSH2 0x3010 DUP5 PUSH2 0x2945 JUMP JUMPDEST PUSH2 0x2FF7 JUMP JUMPDEST PUSH2 0x2945 JUMP JUMPDEST SWAP1 POP SWAP2 SWAP1 POP JUMP JUMPDEST PUSH0 PUSH2 0x302B DUP3 PUSH2 0x3000 JUMP JUMPDEST SWAP1 POP SWAP2 SWAP1 POP JUMP JUMPDEST PUSH0 PUSH2 0x303C DUP3 PUSH2 0x3021 JUMP JUMPDEST SWAP1 POP SWAP2 SWAP1 POP JUMP JUMPDEST PUSH2 0x304C DUP2 PUSH2 0x3032 JUMP JUMPDEST DUP3 MSTORE POP POP JUMP JUMPDEST PUSH0 PUSH1 0x80 DUP3 ADD SWAP1 POP PUSH2 0x3065 PUSH0 DUP4 ADD DUP8 PUSH2 0x3043 JUMP JUMPDEST PUSH2 0x3072 PUSH1 0x20 DUP4 ADD DUP7 PUSH2 0x2A65 JUMP JUMPDEST PUSH2 0x307F PUSH1 0x40 DUP4 ADD DUP6 PUSH2 0x2DAB JUMP JUMPDEST PUSH2 0x308C PUSH1 0x60 DUP4 ADD DUP5 PUSH2 0x2A65 JUMP JUMPDEST SWAP6 SWAP5 POP POP POP POP POP JUMP JUMPDEST PUSH32 0x436F6E74726163743A20436F6E74726163742069732050617573656400000000 PUSH0 DUP3 ADD MSTORE POP JUMP JUMPDEST PUSH0 PUSH2 0x30C9 PUSH1 0x1C DUP4 PUSH2 0x28BF JUMP JUMPDEST SWAP2 POP PUSH2 0x30D4 DUP3 PUSH2 0x3095 JUMP JUMPDEST PUSH1 0x20 DUP3 ADD SWAP1 POP SWAP2 SWAP1 POP JUMP JUMPDEST PUSH0 PUSH1 0x20 DUP3 ADD SWAP1 POP DUP2 DUP2 SUB PUSH0 DUP4 ADD MSTORE PUSH2 0x30F6 DUP2 PUSH2 0x30BD JUMP JUMPDEST SWAP1 POP SWAP2 SWAP1 POP JUMP JUMPDEST PUSH32 0x436F6E74726163743A204E656564204275726E00000000000000000000000000 PUSH0 DUP3 ADD MSTORE POP JUMP JUMPDEST PUSH0 PUSH2 0x3131 PUSH1 0x13 DUP4 PUSH2 0x28BF JUMP JUMPDEST SWAP2 POP PUSH2 0x313C DUP3 PUSH2 0x30FD JUMP JUMPDEST PUSH1 0x20 DUP3 ADD SWAP1 POP SWAP2 SWAP1 POP JUMP JUMPDEST PUSH0 PUSH1 0x20 DUP3 ADD SWAP1 POP DUP2 DUP2 SUB PUSH0 DUP4 ADD MSTORE PUSH2 0x315E DUP2 PUSH2 0x3125 JUMP JUMPDEST SWAP1 POP SWAP2 SWAP1 POP JUMP JUMPDEST PUSH32 0x4D696E74696E6720746F2064697361626C656400000000000000000000000000 PUSH0 DUP3 ADD MSTORE POP JUMP JUMPDEST PUSH0 PUSH2 0x3199 PUSH1 0x13 DUP4 PUSH2 0x28BF JUMP JUMPDEST SWAP2 POP PUSH2 0x31A4 DUP3 PUSH2 0x3165 JUMP JUMPDEST PUSH1 0x20 DUP3 ADD SWAP1 POP SWAP2 SWAP1 POP JUMP JUMPDEST PUSH0 PUSH1 0x20 DUP3 ADD SWAP1 POP DUP2 DUP2 SUB PUSH0 DUP4 ADD MSTORE PUSH2 0x31C6 DUP2 PUSH2 0x318D JUMP JUMPDEST SWAP1 POP SWAP2 SWAP1 POP JUMP JUMPDEST PUSH32 0x436F6E74726163743A204E656564204D696E746F000000000000000000000000 PUSH0 DUP3 ADD MSTORE POP JUMP JUMPDEST PUSH0 PUSH2 0x3201 PUSH1 0x14 DUP4 PUSH2 0x28BF JUMP JUMPDEST SWAP2 POP PUSH2 0x320C DUP3 PUSH2 0x31CD JUMP JUMPDEST PUSH1 0x20 DUP3 ADD SWAP1 POP SWAP2 SWAP1 POP JUMP JUMPDEST PUSH0 PUSH1 0x20 DUP3 ADD SWAP1 POP DUP2 DUP2 SUB PUSH0 DUP4 ADD MSTORE PUSH2 0x322E DUP2 PUSH2 0x31F5 JUMP JUMPDEST SWAP1 POP SWAP2 SWAP1 POP JUMP JUMPDEST PUSH32 0x4E487B7100000000000000000000000000000000000000000000000000000000 PUSH0 MSTORE PUSH1 0x11 PUSH1 0x4 MSTORE PUSH1 0x24 PUSH0 REVERT JUMPDEST PUSH0 PUSH2 0x326C DUP3 PUSH2 0x299F JUMP JUMPDEST SWAP2 POP PUSH2 0x3277 DUP4 PUSH2 0x299F JUMP JUMPDEST SWAP3 POP DUP3 DUP3 ADD SWAP1 POP DUP1 DUP3 GT ISZERO PUSH2 0x328F JUMPI PUSH2 0x328E PUSH2 0x3235 JUMP JUMPDEST JUMPDEST SWAP3 SWAP2 POP POP JUMP JUMPDEST PUSH32 0x436F6E74726163743A20537570706C7920436170206578636565646564000000 PUSH0 DUP3 ADD MSTORE POP JUMP JUMPDEST PUSH0 PUSH2 0x32C9 PUSH1 0x1D DUP4 PUSH2 0x28BF JUMP JUMPDEST SWAP2 POP PUSH2 0x32D4 DUP3 PUSH2 0x3295 JUMP JUMPDEST PUSH1 0x20 DUP3 ADD SWAP1 POP SWAP2 SWAP1 POP JUMP JUMPDEST PUSH0 PUSH1 0x20 DUP3 ADD SWAP1 POP DUP2 DUP2 SUB PUSH0 DUP4 ADD MSTORE PUSH2 0x32F6 DUP2 PUSH2 0x32BD JUMP JUMPDEST SWAP1 POP SWAP2 SWAP1 POP JUMP JUMPDEST PUSH0 PUSH1 0x40 DUP3 ADD SWAP1 POP PUSH2 0x3310 PUSH0 DUP4 ADD DUP6 PUSH2 0x2DAB JUMP JUMPDEST PUSH2 0x331D PUSH1 0x20 DUP4 ADD DUP5 PUSH2 0x2A65 JUMP JUMPDEST SWAP4 SWAP3 POP POP POP JUMP JUMPDEST PUSH0 PUSH2 0x332E DUP3 PUSH2 0x3021 JUMP JUMPDEST SWAP1 POP SWAP2 SWAP1 POP JUMP JUMPDEST PUSH2 0x333E DUP2 PUSH2 0x3324 JUMP JUMPDEST DUP3 MSTORE POP POP JUMP JUMPDEST PUSH0 PUSH1 0x60 DUP3 ADD SWAP1 POP PUSH2 0x3357 PUSH0 DUP4 ADD DUP7 PUSH2 0x3335 JUMP JUMPDEST PUSH2 0x3364 PUSH1 0x20 DUP4 ADD DUP6 PUSH2 0x2A65 JUMP JUMPDEST PUSH2 0x3371 PUSH1 0x40 DUP4 ADD DUP5 PUSH2 0x2A65 JUMP JUMPDEST SWAP5 SWAP4 POP POP POP POP JUMP JUMPDEST PUSH32 0x436F6E74726163743A204E656564204275726E66726F6D000000000000000000 PUSH0 DUP3 ADD MSTORE POP JUMP JUMPDEST PUSH0 PUSH2 0x33AD PUSH1 0x17 DUP4 PUSH2 0x28BF JUMP JUMPDEST SWAP2 POP PUSH2 0x33B8 DUP3 PUSH2 0x3379 JUMP JUMPDEST PUSH1 0x20 DUP3 ADD SWAP1 POP SWAP2 SWAP1 POP JUMP JUMPDEST PUSH0 PUSH1 0x20 DUP3 ADD SWAP1 POP DUP2 DUP2 SUB PUSH0 DUP4 ADD MSTORE PUSH2 0x33DA DUP2 PUSH2 0x33A1 JUMP JUMPDEST SWAP1 POP SWAP2 SWAP1 POP JUMP JUMPDEST PUSH0 PUSH1 0x60 DUP3 ADD SWAP1 POP PUSH2 0x33F4 PUSH0 DUP4 ADD DUP7 PUSH2 0x2DAB JUMP JUMPDEST PUSH2 0x3401 PUSH1 0x20 DUP4 ADD DUP6 PUSH2 0x2A65 JUMP JUMPDEST PUSH2 0x340E PUSH1 0x40 DUP4 ADD DUP5 PUSH2 0x2DAB JUMP JUMPDEST SWAP5 SWAP4 POP POP POP POP JUMP JUMPDEST PUSH32 0x4D696E74696E672064697361626C656400000000000000000000000000000000 PUSH0 DUP3 ADD MSTORE POP JUMP JUMPDEST PUSH0 PUSH2 0x344A PUSH1 0x10 DUP4 PUSH2 0x28BF JUMP JUMPDEST SWAP2 POP PUSH2 0x3455 DUP3 PUSH2 0x3416 JUMP JUMPDEST PUSH1 0x20 DUP3 ADD SWAP1 POP SWAP2 SWAP1 POP JUMP JUMPDEST PUSH0 PUSH1 0x20 DUP3 ADD SWAP1 POP DUP2 DUP2 SUB PUSH0 DUP4 ADD MSTORE PUSH2 0x3477 DUP2 PUSH2 0x343E JUMP JUMPDEST SWAP1 POP SWAP2 SWAP1 POP JUMP JUMPDEST PUSH32 0x436F6E74726163743A204E656564204D696E7400000000000000000000000000 PUSH0 DUP3 ADD MSTORE POP JUMP JUMPDEST PUSH0 PUSH2 0x34B2 PUSH1 0x13 DUP4 PUSH2 0x28BF JUMP JUMPDEST SWAP2 POP PUSH2 0x34BD DUP3 PUSH2 0x347E JUMP JUMPDEST PUSH1 0x20 DUP3 ADD SWAP1 POP SWAP2 SWAP1 POP JUMP JUMPDEST PUSH0 PUSH1 0x20 DUP3 ADD SWAP1 POP DUP2 DUP2 SUB PUSH0 DUP4 ADD MSTORE PUSH2 0x34DF DUP2 PUSH2 0x34A6 JUMP JUMPDEST SWAP1 POP SWAP2 SWAP1 POP JUMP JUMPDEST PUSH32 0x4E65656420537570706C79000000000000000000000000000000000000000000 PUSH0 DUP3 ADD MSTORE POP JUMP JUMPDEST PUSH0 PUSH2 0x351A PUSH1 0xB DUP4 PUSH2 0x28BF JUMP JUMPDEST SWAP2 POP PUSH2 0x3525 DUP3 PUSH2 0x34E6 JUMP JUMPDEST PUSH1 0x20 DUP3 ADD SWAP1 POP SWAP2 SWAP1 POP JUMP JUMPDEST PUSH0 PUSH1 0x20 DUP3 ADD SWAP1 POP DUP2 DUP2 SUB PUSH0 DUP4 ADD MSTORE PUSH2 0x3547 DUP2 PUSH2 0x350E JUMP JUMPDEST SWAP1 POP SWAP2 SWAP1 POP JUMP JUMPDEST PUSH32 0x436F6E74726163743A20537570706C792043617020746F6F206C6F7700000000 PUSH0 DUP3 ADD MSTORE POP JUMP JUMPDEST PUSH0 PUSH2 0x3582 PUSH1 0x1C DUP4 PUSH2 0x28BF JUMP JUMPDEST SWAP2 POP PUSH2 0x358D DUP3 PUSH2 0x354E JUMP JUMPDEST PUSH1 0x20 DUP3 ADD SWAP1 POP SWAP2 SWAP1 POP JUMP JUMPDEST PUSH0 PUSH1 0x20 DUP3 ADD SWAP1 POP DUP2 DUP2 SUB PUSH0 DUP4 ADD MSTORE PUSH2 0x35AF DUP2 PUSH2 0x3576 JUMP JUMPDEST SWAP1 POP SWAP2 SWAP1 POP JUMP JUMPDEST PUSH32 0x5265656E7472616E637947756172643A207265656E7472616E742063616C6C00 PUSH0 DUP3 ADD MSTORE POP JUMP JUMPDEST PUSH0 PUSH2 0x35EA PUSH1 0x1F DUP4 PUSH2 0x28BF JUMP JUMPDEST SWAP2 POP PUSH2 0x35F5 DUP3 PUSH2 0x35B6 JUMP JUMPDEST PUSH1 0x20 DUP3 ADD SWAP1 POP SWAP2 SWAP1 POP JUMP JUMPDEST PUSH0 PUSH1 0x20 DUP3 ADD SWAP1 POP DUP2 DUP2 SUB PUSH0 DUP4 ADD MSTORE PUSH2 0x3617 DUP2 PUSH2 0x35DE JUMP JUMPDEST SWAP1 POP SWAP2 SWAP1 POP JUMP JUMPDEST PUSH0 PUSH1 0x40 DUP3 ADD SWAP1 POP PUSH2 0x3631 PUSH0 DUP4 ADD DUP6 PUSH2 0x2DAB JUMP JUMPDEST PUSH2 0x363E PUSH1 0x20 DUP4 ADD DUP5 PUSH2 0x2B3B JUMP JUMPDEST SWAP4 SWAP3 POP POP POP JUMP JUMPDEST PUSH0 DUP2 MLOAD SWAP1 POP PUSH2 0x3653 DUP2 PUSH2 0x2A10 JUMP JUMPDEST SWAP3 SWAP2 POP POP JUMP JUMPDEST PUSH0 PUSH1 0x20 DUP3 DUP5 SUB SLT ISZERO PUSH2 0x366E JUMPI PUSH2 0x366D PUSH2 0x27FE JUMP JUMPDEST JUMPDEST PUSH0 PUSH2 0x367B DUP5 DUP3 DUP6 ADD PUSH2 0x3645 JUMP JUMPDEST SWAP2 POP POP SWAP3 SWAP2 POP POP JUMP JUMPDEST PUSH0 PUSH1 0x60 DUP3 ADD SWAP1 POP PUSH2 0x3697 PUSH0 DUP4 ADD DUP7 PUSH2 0x2DAB JUMP JUMPDEST PUSH2 0x36A4 PUSH1 0x20 DUP4 ADD DUP6 PUSH2 0x2A65 JUMP JUMPDEST PUSH2 0x36B1 PUSH1 0x40 DUP4 ADD DUP5 PUSH2 0x2A65 JUMP JUMPDEST SWAP5 SWAP4 POP POP POP POP JUMP JUMPDEST PUSH0 DUP2 MLOAD SWAP1 POP SWAP2 SWAP1 POP JUMP JUMPDEST PUSH0 DUP2 SWAP1 POP SWAP3 SWAP2 POP POP JUMP JUMPDEST PUSH0 PUSH2 0x36D7 DUP3 PUSH2 0x36B9 JUMP JUMPDEST PUSH2 0x36E1 DUP2 DUP6 PUSH2 0x36C3 JUMP JUMPDEST SWAP4 POP PUSH2 0x36F1 DUP2 DUP6 PUSH1 0x20 DUP7 ADD PUSH2 0x28CF JUMP JUMPDEST DUP1 DUP5 ADD SWAP2 POP POP SWAP3 SWAP2 POP POP JUMP JUMPDEST PUSH0 PUSH2 0x3708 DUP3 DUP5 PUSH2 0x36CD JUMP JUMPDEST SWAP2 POP DUP2 SWAP1 POP SWAP3 SWAP2 POP POP JUMP INVALID LOG2 PUSH5 0x6970667358 0x22 SLT KECCAK256 DUP1 0xB6 PUSH21 0xCC755C7DE8AE8962D81BC7E5DE88EC0D20390E5865 0xB0 0xDB DUP11 DUP3 DUP10 0xF8 0xC0 0xCD PUSH5 0x736F6C6343 STOP ADDMOD BYTE STOP CALLER "
		},
		"gasEstimates": {
			"creation": {
				"codeDepositCost": "2830600",
				"executionCost": "infinite",
				"totalCost": "infinite"
			},
			"external": {
				"DEFAULT_ADMIN_ROLE()": "463",
				"_ADMIN()": "370",
				"_BURN()": "392",
				"_BURNFROM()": "436",
				"_MINT()": "437",
				"_MINTTO()": "393",
				"_RESCUE()": "415",
				"_SUPPLY()": "435",
				"allowance(address,address)": "infinite",
				"approve(address,uint256)": "infinite",
				"balanceOf(address)": "2962",
				"burn(uint256)": "infinite",
				"burnFrom(address,uint256)": "infinite",
				"decimals()": "450",
				"disableMint(bool)": "infinite",
				"disableMintTo(bool)": "infinite",
				"ethRescue(address,uint256)": "infinite",
				"getRoleAdmin(bytes32)": "infinite",
				"grantRole(bytes32,address)": "infinite",
				"hasRole(bytes32,address)": "3167",
				"mint(uint256)": "infinite",
				"mintDisabled()": "2584",
				"mintTo(address,uint256)": "infinite",
				"mintToDisabled()": "2650",
				"moveERC20(address,address,uint256)": "infinite",
				"name()": "infinite",
				"paused()": "2555",
				"renounceRole(bytes32,address)": "infinite",
				"revokeRole(bytes32,address)": "infinite",
				"setPaused(bool)": "infinite",
				"setSupplyCap(uint256)": "infinite",
				"setWhitelistAddress(address,bool)": "27427",
				"supplyCap()": "2566",
				"supportsInterface(bytes4)": "764",
				"symbol()": "infinite",
				"totalSupply()": "2567",
				"transfer(address,uint256)": "infinite",
				"transferFrom(address,address,uint256)": "infinite",
				"txFee()": "2536",
				"vault()": "2662",
				"whitelistedAddress(address)": "2922"
			},
			"internal": {
				"_update(address,address,uint256)": "infinite"
			}
		},
		"methodIdentifiers": {
			"DEFAULT_ADMIN_ROLE()": "a217fddf",
			"_ADMIN()": "51557289",
			"_BURN()": "53a4c31e",
			"_BURNFROM()": "6ba77a38",
			"_MINT()": "8ebed5b1",
			"_MINTTO()": "7e92a7fd",
			"_RESCUE()": "8d580b9f",
			"_SUPPLY()": "ea5cb532",
			"allowance(address,address)": "dd62ed3e",
			"approve(address,uint256)": "095ea7b3",
			"balanceOf(address)": "70a08231",
			"burn(uint256)": "42966c68",
			"burnFrom(address,uint256)": "79cc6790",
			"decimals()": "313ce567",
			"disableMint(bool)": "deb6db36",
			"disableMintTo(bool)": "f2250d3d",
			"ethRescue(address,uint256)": "48132f48",
			"getRoleAdmin(bytes32)": "248a9ca3",
			"grantRole(bytes32,address)": "2f2ff15d",
			"hasRole(bytes32,address)": "91d14854",
			"mint(uint256)": "a0712d68",
			"mintDisabled()": "956feccf",
			"mintTo(address,uint256)": "449a52f8",
			"mintToDisabled()": "d1c9f69b",
			"moveERC20(address,address,uint256)": "41f431fd",
			"name()": "06fdde03",
			"paused()": "5c975abb",
			"renounceRole(bytes32,address)": "36568abe",
			"revokeRole(bytes32,address)": "d547741f",
			"setPaused(bool)": "16c38b3c",
			"setSupplyCap(uint256)": "b6a3f59a",
			"setWhitelistAddress(address,bool)": "3f914aef",
			"supplyCap()": "8f770ad0",
			"supportsInterface(bytes4)": "01ffc9a7",
			"symbol()": "95d89b41",
			"totalSupply()": "18160ddd",
			"transfer(address,uint256)": "a9059cbb",
			"transferFrom(address,address,uint256)": "23b872dd",
			"txFee()": "cf820461",
			"vault()": "fbfa77cf",
			"whitelistedAddress(address)": "c30796ab"
		}
	},
	"abi": [
		{
			"inputs": [
				{
					"internalType": "address",
					"name": "_vault",
					"type": "address"
				}
			],
			"stateMutability": "nonpayable",
			"type": "constructor"
		},
		{
			"inputs": [],
			"name": "AccessControlBadConfirmation",
			"type": "error"
		},
		{
			"inputs": [
				{
					"internalType": "address",
					"name": "account",
					"type": "address"
				},
				{
					"internalType": "bytes32",
					"name": "neededRole",
					"type": "bytes32"
				}
			],
			"name": "AccessControlUnauthorizedAccount",
			"type": "error"
		},
		{
			"inputs": [
				{
					"internalType": "address",
					"name": "target",
					"type": "address"
				}
			],
			"name": "AddressEmptyCode",
			"type": "error"
		},
		{
			"inputs": [
				{
					"internalType": "address",
					"name": "account",
					"type": "address"
				}
			],
			"name": "AddressInsufficientBalance",
			"type": "error"
		},
		{
			"inputs": [
				{
					"internalType": "address",
					"name": "spender",
					"type": "address"
				},
				{
					"internalType": "uint256",
					"name": "allowance",
					"type": "uint256"
				},
				{
					"internalType": "uint256",
					"name": "needed",
					"type": "uint256"
				}
			],
			"name": "ERC20InsufficientAllowance",
			"type": "error"
		},
		{
			"inputs": [
				{
					"internalType": "address",
					"name": "sender",
					"type": "address"
				},
				{
					"internalType": "uint256",
					"name": "balance",
					"type": "uint256"
				},
				{
					"internalType": "uint256",
					"name": "needed",
					"type": "uint256"
				}
			],
			"name": "ERC20InsufficientBalance",
			"type": "error"
		},
		{
			"inputs": [
				{
					"internalType": "address",
					"name": "approver",
					"type": "address"
				}
			],
			"name": "ERC20InvalidApprover",
			"type": "error"
		},
		{
			"inputs": [
				{
					"internalType": "address",
					"name": "receiver",
					"type": "address"
				}
			],
			"name": "ERC20InvalidReceiver",
			"type": "error"
		},
		{
			"inputs": [
				{
					"internalType": "address",
					"name": "sender",
					"type": "address"
				}
			],
			"name": "ERC20InvalidSender",
			"type": "error"
		},
		{
			"inputs": [
				{
					"internalType": "address",
					"name": "spender",
					"type": "address"
				}
			],
			"name": "ERC20InvalidSpender",
			"type": "error"
		},
		{
			"inputs": [],
			"name": "FailedInnerCall",
			"type": "error"
		},
		{
			"inputs": [
				{
					"internalType": "address",
					"name": "token",
					"type": "address"
				}
			],
			"name": "SafeERC20FailedOperation",
			"type": "error"
		},
		{
			"anonymous": false,
			"inputs": [
				{
					"indexed": true,
					"internalType": "address",
					"name": "owner",
					"type": "address"
				},
				{
					"indexed": true,
					"internalType": "address",
					"name": "spender",
					"type": "address"
				},
				{
					"indexed": false,
					"internalType": "uint256",
					"name": "value",
					"type": "uint256"
				}
			],
			"name": "Approval",
			"type": "event"
		},
		{
			"anonymous": false,
			"inputs": [
				{
					"indexed": false,
					"internalType": "uint256",
					"name": "_blockHeight",
					"type": "uint256"
				},
				{
					"indexed": false,
					"internalType": "address",
					"name": "_pausedBy",
					"type": "address"
				}
			],
			"name": "ContractPaused",
			"type": "event"
		},
		{
			"anonymous": false,
			"inputs": [
				{
					"indexed": false,
					"internalType": "uint256",
					"name": "_blockHeight",
					"type": "uint256"
				},
				{
					"indexed": false,
					"internalType": "address",
					"name": "_unpausedBy",
					"type": "address"
				}
			],
			"name": "ContractUnpaused",
			"type": "event"
		},
		{
			"anonymous": false,
			"inputs": [
				{
					"indexed": false,
					"internalType": "contract IERC20",
					"name": "_token",
					"type": "address"
				},
				{
					"indexed": false,
					"internalType": "uint256",
					"name": "_blockHeight",
					"type": "uint256"
				},
				{
					"indexed": false,
					"internalType": "address",
					"name": "_dest",
					"type": "address"
				},
				{
					"indexed": false,
					"internalType": "uint256",
					"name": "_amount",
					"type": "uint256"
				}
			],
			"name": "ERC20Rescued",
			"type": "event"
		},
		{
			"anonymous": false,
			"inputs": [
				{
					"indexed": false,
					"internalType": "address",
					"name": "_dest",
					"type": "address"
				},
				{
					"indexed": false,
					"internalType": "uint256",
					"name": "_blockHeight",
					"type": "uint256"
				},
				{
					"indexed": false,
					"internalType": "uint256",
					"name": "_amount",
					"type": "uint256"
				}
			],
			"name": "ETHRescued",
			"type": "event"
		},
		{
			"anonymous": false,
			"inputs": [
				{
					"indexed": false,
					"internalType": "uint256",
					"name": "_blockHeight",
					"type": "uint256"
				},
				{
					"indexed": false,
					"internalType": "address",
					"name": "_disabledBy",
					"type": "address"
				}
			],
			"name": "MintingDisabled",
			"type": "event"
		},
		{
			"anonymous": false,
			"inputs": [
				{
					"indexed": false,
					"internalType": "uint256",
					"name": "_blockHeight",
					"type": "uint256"
				},
				{
					"indexed": false,
					"internalType": "address",
					"name": "_enabledBy",
					"type": "address"
				}
			],
			"name": "MintingEnabled",
			"type": "event"
		},
		{
			"anonymous": false,
			"inputs": [
				{
					"indexed": false,
					"internalType": "uint256",
					"name": "_blockHeight",
					"type": "uint256"
				},
				{
					"indexed": false,
					"internalType": "address",
					"name": "_disabledBy",
					"type": "address"
				}
			],
			"name": "MintingToDisabled",
			"type": "event"
		},
		{
			"anonymous": false,
			"inputs": [
				{
					"indexed": false,
					"internalType": "uint256",
					"name": "_blockHeight",
					"type": "uint256"
				},
				{
					"indexed": false,
					"internalType": "address",
					"name": "_enabledBy",
					"type": "address"
				}
			],
			"name": "MintingToEnabled",
			"type": "event"
		},
		{
			"anonymous": false,
			"inputs": [
				{
					"indexed": true,
					"internalType": "bytes32",
					"name": "role",
					"type": "bytes32"
				},
				{
					"indexed": true,
					"internalType": "bytes32",
					"name": "previousAdminRole",
					"type": "bytes32"
				},
				{
					"indexed": true,
					"internalType": "bytes32",
					"name": "newAdminRole",
					"type": "bytes32"
				}
			],
			"name": "RoleAdminChanged",
			"type": "event"
		},
		{
			"anonymous": false,
			"inputs": [
				{
					"indexed": true,
					"internalType": "bytes32",
					"name": "role",
					"type": "bytes32"
				},
				{
					"indexed": true,
					"internalType": "address",
					"name": "account",
					"type": "address"
				},
				{
					"indexed": true,
					"internalType": "address",
					"name": "sender",
					"type": "address"
				}
			],
			"name": "RoleGranted",
			"type": "event"
		},
		{
			"anonymous": false,
			"inputs": [
				{
					"indexed": true,
					"internalType": "bytes32",
					"name": "role",
					"type": "bytes32"
				},
				{
					"indexed": true,
					"internalType": "address",
					"name": "account",
					"type": "address"
				},
				{
					"indexed": true,
					"internalType": "address",
					"name": "sender",
					"type": "address"
				}
			],
			"name": "RoleRevoked",
			"type": "event"
		},
		{
			"anonymous": false,
			"inputs": [
				{
					"indexed": false,
					"internalType": "uint256",
					"name": "_newCap",
					"type": "uint256"
				},
				{
					"indexed": false,
					"internalType": "address",
					"name": "_changedBy",
					"type": "address"
				}
			],
			"name": "SupplyCapChanged",
			"type": "event"
		},
		{
			"anonymous": false,
			"inputs": [
				{
					"indexed": false,
					"internalType": "uint256",
					"name": "_amount",
					"type": "uint256"
				},
				{
					"indexed": false,
					"internalType": "address",
					"name": "_burner",
					"type": "address"
				}
			],
			"name": "TokensBurned",
			"type": "event"
		},
		{
			"anonymous": false,
			"inputs": [
				{
					"indexed": false,
					"internalType": "address",
					"name": "_from",
					"type": "address"
				},
				{
					"indexed": false,
					"internalType": "uint256",
					"name": "_amount",
					"type": "uint256"
				},
				{
					"indexed": false,
					"internalType": "address",
					"name": "_burner",
					"type": "address"
				}
			],
			"name": "TokensBurnedFrom",
			"type": "event"
		},
		{
			"anonymous": false,
			"inputs": [
				{
					"indexed": false,
					"internalType": "uint256",
					"name": "_amount",
					"type": "uint256"
				}
			],
			"name": "TokensMinted",
			"type": "event"
		},
		{
			"anonymous": false,
			"inputs": [
				{
					"indexed": false,
					"internalType": "address",
					"name": "_to",
					"type": "address"
				},
				{
					"indexed": false,
					"internalType": "uint256",
					"name": "_amount",
					"type": "uint256"
				}
			],
			"name": "TokensMintedTo",
			"type": "event"
		},
		{
			"anonymous": false,
			"inputs": [
				{
					"indexed": true,
					"internalType": "address",
					"name": "from",
					"type": "address"
				},
				{
					"indexed": true,
					"internalType": "address",
					"name": "to",
					"type": "address"
				},
				{
					"indexed": false,
					"internalType": "uint256",
					"name": "value",
					"type": "uint256"
				}
			],
			"name": "Transfer",
			"type": "event"
		},
		{
			"inputs": [],
			"name": "DEFAULT_ADMIN_ROLE",
			"outputs": [
				{
					"internalType": "bytes32",
					"name": "",
					"type": "bytes32"
				}
			],
			"stateMutability": "view",
			"type": "function"
		},
		{
			"inputs": [],
			"name": "_ADMIN",
			"outputs": [
				{
					"internalType": "bytes32",
					"name": "",
					"type": "bytes32"
				}
			],
			"stateMutability": "view",
			"type": "function"
		},
		{
			"inputs": [],
			"name": "_BURN",
			"outputs": [
				{
					"internalType": "bytes32",
					"name": "",
					"type": "bytes32"
				}
			],
			"stateMutability": "view",
			"type": "function"
		},
		{
			"inputs": [],
			"name": "_BURNFROM",
			"outputs": [
				{
					"internalType": "bytes32",
					"name": "",
					"type": "bytes32"
				}
			],
			"stateMutability": "view",
			"type": "function"
		},
		{
			"inputs": [],
			"name": "_MINT",
			"outputs": [
				{
					"internalType": "bytes32",
					"name": "",
					"type": "bytes32"
				}
			],
			"stateMutability": "view",
			"type": "function"
		},
		{
			"inputs": [],
			"name": "_MINTTO",
			"outputs": [
				{
					"internalType": "bytes32",
					"name": "",
					"type": "bytes32"
				}
			],
			"stateMutability": "view",
			"type": "function"
		},
		{
			"inputs": [],
			"name": "_RESCUE",
			"outputs": [
				{
					"internalType": "bytes32",
					"name": "",
					"type": "bytes32"
				}
			],
			"stateMutability": "view",
			"type": "function"
		},
		{
			"inputs": [],
			"name": "_SUPPLY",
			"outputs": [
				{
					"internalType": "bytes32",
					"name": "",
					"type": "bytes32"
				}
			],
			"stateMutability": "view",
			"type": "function"
		},
		{
			"inputs": [
				{
					"internalType": "address",
					"name": "owner",
					"type": "address"
				},
				{
					"internalType": "address",
					"name": "spender",
					"type": "address"
				}
			],
			"name": "allowance",
			"outputs": [
				{
					"internalType": "uint256",
					"name": "",
					"type": "uint256"
				}
			],
			"stateMutability": "view",
			"type": "function"
		},
		{
			"inputs": [
				{
					"internalType": "address",
					"name": "spender",
					"type": "address"
				},
				{
					"internalType": "uint256",
					"name": "value",
					"type": "uint256"
				}
			],
			"name": "approve",
			"outputs": [
				{
					"internalType": "bool",
					"name": "",
					"type": "bool"
				}
			],
			"stateMutability": "nonpayable",
			"type": "function"
		},
		{
			"inputs": [
				{
					"internalType": "address",
					"name": "account",
					"type": "address"
				}
			],
			"name": "balanceOf",
			"outputs": [
				{
					"internalType": "uint256",
					"name": "",
					"type": "uint256"
				}
			],
			"stateMutability": "view",
			"type": "function"
		},
		{
			"inputs": [
				{
					"internalType": "uint256",
					"name": "_amount",
					"type": "uint256"
				}
			],
			"name": "burn",
			"outputs": [],
			"stateMutability": "nonpayable",
			"type": "function"
		},
		{
			"inputs": [
				{
					"internalType": "address",
					"name": "_from",
					"type": "address"
				},
				{
					"internalType": "uint256",
					"name": "_amount",
					"type": "uint256"
				}
			],
			"name": "burnFrom",
			"outputs": [],
			"stateMutability": "nonpayable",
			"type": "function"
		},
		{
			"inputs": [],
			"name": "decimals",
			"outputs": [
				{
					"internalType": "uint8",
					"name": "",
					"type": "uint8"
				}
			],
			"stateMutability": "view",
			"type": "function"
		},
		{
			"inputs": [
				{
					"internalType": "bool",
					"name": "_disableMinting",
					"type": "bool"
				}
			],
			"name": "disableMint",
			"outputs": [],
			"stateMutability": "nonpayable",
			"type": "function"
		},
		{
			"inputs": [
				{
					"internalType": "bool",
					"name": "_disableMintTo",
					"type": "bool"
				}
			],
			"name": "disableMintTo",
			"outputs": [],
			"stateMutability": "nonpayable",
			"type": "function"
		},
		{
			"inputs": [
				{
					"internalType": "address payable",
					"name": "_dest",
					"type": "address"
				},
				{
					"internalType": "uint256",
					"name": "_etherAmount",
					"type": "uint256"
				}
			],
			"name": "ethRescue",
			"outputs": [],
			"stateMutability": "nonpayable",
			"type": "function"
		},
		{
			"inputs": [
				{
					"internalType": "bytes32",
					"name": "role",
					"type": "bytes32"
				}
			],
			"name": "getRoleAdmin",
			"outputs": [
				{
					"internalType": "bytes32",
					"name": "",
					"type": "bytes32"
				}
			],
			"stateMutability": "view",
			"type": "function"
		},
		{
			"inputs": [
				{
					"internalType": "bytes32",
					"name": "role",
					"type": "bytes32"
				},
				{
					"internalType": "address",
					"name": "account",
					"type": "address"
				}
			],
			"name": "grantRole",
			"outputs": [],
			"stateMutability": "nonpayable",
			"type": "function"
		},
		{
			"inputs": [
				{
					"internalType": "bytes32",
					"name": "role",
					"type": "bytes32"
				},
				{
					"internalType": "address",
					"name": "account",
					"type": "address"
				}
			],
			"name": "hasRole",
			"outputs": [
				{
					"internalType": "bool",
					"name": "",
					"type": "bool"
				}
			],
			"stateMutability": "view",
			"type": "function"
		},
		{
			"inputs": [
				{
					"internalType": "uint256",
					"name": "_amount",
					"type": "uint256"
				}
			],
			"name": "mint",
			"outputs": [],
			"stateMutability": "nonpayable",
			"type": "function"
		},
		{
			"inputs": [],
			"name": "mintDisabled",
			"outputs": [
				{
					"internalType": "bool",
					"name": "",
					"type": "bool"
				}
			],
			"stateMutability": "view",
			"type": "function"
		},
		{
			"inputs": [
				{
					"internalType": "address",
					"name": "_to",
					"type": "address"
				},
				{
					"internalType": "uint256",
					"name": "_amount",
					"type": "uint256"
				}
			],
			"name": "mintTo",
			"outputs": [],
			"stateMutability": "nonpayable",
			"type": "function"
		},
		{
			"inputs": [],
			"name": "mintToDisabled",
			"outputs": [
				{
					"internalType": "bool",
					"name": "",
					"type": "bool"
				}
			],
			"stateMutability": "view",
			"type": "function"
		},
		{
			"inputs": [
				{
					"internalType": "contract IERC20",
					"name": "_ERC20",
					"type": "address"
				},
				{
					"internalType": "address",
					"name": "_dest",
					"type": "address"
				},
				{
					"internalType": "uint256",
					"name": "_ERC20Amount",
					"type": "uint256"
				}
			],
			"name": "moveERC20",
			"outputs": [],
			"stateMutability": "nonpayable",
			"type": "function"
		},
		{
			"inputs": [],
			"name": "name",
			"outputs": [
				{
					"internalType": "string",
					"name": "",
					"type": "string"
				}
			],
			"stateMutability": "view",
			"type": "function"
		},
		{
			"inputs": [],
			"name": "paused",
			"outputs": [
				{
					"internalType": "bool",
					"name": "",
					"type": "bool"
				}
			],
			"stateMutability": "view",
			"type": "function"
		},
		{
			"inputs": [
				{
					"internalType": "bytes32",
					"name": "role",
					"type": "bytes32"
				},
				{
					"internalType": "address",
					"name": "callerConfirmation",
					"type": "address"
				}
			],
			"name": "renounceRole",
			"outputs": [],
			"stateMutability": "nonpayable",
			"type": "function"
		},
		{
			"inputs": [
				{
					"internalType": "bytes32",
					"name": "role",
					"type": "bytes32"
				},
				{
					"internalType": "address",
					"name": "account",
					"type": "address"
				}
			],
			"name": "revokeRole",
			"outputs": [],
			"stateMutability": "nonpayable",
			"type": "function"
		},
		{
			"inputs": [
				{
					"internalType": "bool",
					"name": "_paused",
					"type": "bool"
				}
			],
			"name": "setPaused",
			"outputs": [],
			"stateMutability": "nonpayable",
			"type": "function"
		},
		{
			"inputs": [
				{
					"internalType": "uint256",
					"name": "_supplyCap",
					"type": "uint256"
				}
			],
			"name": "setSupplyCap",
			"outputs": [],
			"stateMutability": "nonpayable",
			"type": "function"
		},
		{
			"inputs": [
				{
					"internalType": "address",
					"name": "_whitelist",
					"type": "address"
				},
				{
					"internalType": "bool",
					"name": "_status",
					"type": "bool"
				}
			],
			"name": "setWhitelistAddress",
			"outputs": [],
			"stateMutability": "nonpayable",
			"type": "function"
		},
		{
			"inputs": [],
			"name": "supplyCap",
			"outputs": [
				{
					"internalType": "uint256",
					"name": "",
					"type": "uint256"
				}
			],
			"stateMutability": "view",
			"type": "function"
		},
		{
			"inputs": [
				{
					"internalType": "bytes4",
					"name": "interfaceId",
					"type": "bytes4"
				}
			],
			"name": "supportsInterface",
			"outputs": [
				{
					"internalType": "bool",
					"name": "",
					"type": "bool"
				}
			],
			"stateMutability": "view",
			"type": "function"
		},
		{
			"inputs": [],
			"name": "symbol",
			"outputs": [
				{
					"internalType": "string",
					"name": "",
					"type": "string"
				}
			],
			"stateMutability": "view",
			"type": "function"
		},
		{
			"inputs": [],
			"name": "totalSupply",
			"outputs": [
				{
					"internalType": "uint256",
					"name": "",
					"type": "uint256"
				}
			],
			"stateMutability": "view",
			"type": "function"
		},
		{
			"inputs": [
				{
					"internalType": "address",
					"name": "to",
					"type": "address"
				},
				{
					"internalType": "uint256",
					"name": "value",
					"type": "uint256"
				}
			],
			"name": "transfer",
			"outputs": [
				{
					"internalType": "bool",
					"name": "",
					"type": "bool"
				}
			],
			"stateMutability": "nonpayable",
			"type": "function"
		},
		{
			"inputs": [
				{
					"internalType": "address",
					"name": "from",
					"type": "address"
				},
				{
					"internalType": "address",
					"name": "to",
					"type": "address"
				},
				{
					"internalType": "uint256",
					"name": "value",
					"type": "uint256"
				}
			],
			"name": "transferFrom",
			"outputs": [
				{
					"internalType": "bool",
					"name": "",
					"type": "bool"
				}
			],
			"stateMutability": "nonpayable",
			"type": "function"
		},
		{
			"inputs": [],
			"name": "txFee",
			"outputs": [
				{
					"internalType": "uint256",
					"name": "",
					"type": "uint256"
				}
			],
			"stateMutability": "view",
			"type": "function"
		},
		{
			"inputs": [],
			"name": "vault",
			"outputs": [
				{
					"internalType": "address",
					"name": "",
					"type": "address"
				}
			],
			"stateMutability": "view",
			"type": "function"
		},
		{
			"inputs": [
				{
					"internalType": "address",
					"name": "",
					"type": "address"
				}
			],
			"name": "whitelistedAddress",
			"outputs": [
				{
					"internalType": "bool",
					"name": "",
					"type": "bool"
				}
			],
			"stateMutability": "view",
			"type": "function"
		}
	]
}